{
	"data": {
		"bytecode": {
			"linkReferences": {
				"remix_tests.sol": {
					"Assert": [
						{
							"length": 20,
							"start": 319
						},
						{
							"length": 20,
							"start": 1034
						},
						{
							"length": 20,
							"start": 1156
						},
						{
							"length": 20,
							"start": 1279
						},
						{
							"length": 20,
							"start": 1405
						},
						{
							"length": 20,
							"start": 1567
						},
						{
							"length": 20,
							"start": 1693
						}
					]
				}
			},
			"object": "608060405234801561000f575f80fd5b506125ea8061001d5f395ff3fe608060405234801561000f575f80fd5b506004361061003f575f3560e01c80637ce34100146100435780637fea0d4b1461004d57806385fb815d14610057575b5f80fd5b61004b610061565b005b61005561022a565b005b61005f610291565b005b5f6001604051602001610074919061081d565b60405160208183030381529060405280519060200120905060015f9054906101000a900473ffffffffffffffffffffffffffffffffffffffff1673ffffffffffffffffffffffffffffffffffffffff16632f57b91c60015f6001856040518563ffffffff1660e01b81526004016100ee94939291906109c9565b5f604051808303815f87803b158015610105575f80fd5b505af1158015610117573d5f803e3d5ffd5b505050505f6001905073__$acbfb1c35000d78352310b16a054a6b106$__63abcd796060015f9054906101000a900473ffffffffffffffffffffffffffffffffffffffff1673ffffffffffffffffffffffffffffffffffffffff1663682477d76040518163ffffffff1660e01b8152600401602060405180830381865afa1580156101a4573d5f803e3d5ffd5b505050506040513d601f19601f820116820180604052508101906101c89190610a6d565b836040518363ffffffff1660e01b81526004016101e6929190610b27565b602060405180830381865af4158015610201573d5f803e3d5ffd5b505050506040513d601f19601f820116820180604052508101906102259190610b96565b505050565b604051610236906106ff565b604051809103905ff08015801561024f573d5f803e3d5ffd5b5060015f6101000a81548173ffffffffffffffffffffffffffffffffffffffff021916908373ffffffffffffffffffffffffffffffffffffffff160217905550565b5f60016040516020016102a49190610c9f565b60405160208183030381529060405280519060200120905060015f9054906101000a900473ffffffffffffffffffffffffffffffffffffffff1673ffffffffffffffffffffffffffffffffffffffff16632f57b91c6002600180856040518563ffffffff1660e01b815260040161031e9493929190610d5d565b5f604051808303815f87803b158015610335575f80fd5b505af1158015610347573d5f803e3d5ffd5b505050505f60015f9054906101000a900473ffffffffffffffffffffffffffffffffffffffff1673ffffffffffffffffffffffffffffffffffffffff1663d2b0649a60026040518263ffffffff1660e01b81526004016103a79190610dc6565b5f60405180830381865afa1580156103c1573d5f803e3d5ffd5b505050506040513d5f823e3d601f19601f820116820180604052508101906103e9919061105f565b905073__$acbfb1c35000d78352310b16a054a6b106$__63e8c2cb16825f01516040518263ffffffff1660e01b81526004016104259190611154565b602060405180830381865af4158015610440573d5f803e3d5ffd5b505050506040513d601f19601f820116820180604052508101906104649190610b96565b5073__$acbfb1c35000d78352310b16a054a6b106$__63e8c2cb1682602001516040518263ffffffff1660e01b81526004016104a0919061122c565b602060405180830381865af41580156104bb573d5f803e3d5ffd5b505050506040513d601f19601f820116820180604052508101906104df9190610b96565b5073__$acbfb1c35000d78352310b16a054a6b106$__63abcd7960826040015160026040518363ffffffff1660e01b815260040161051e9291906112cb565b602060405180830381865af4158015610539573d5f803e3d5ffd5b505050506040513d601f19601f8201168201806040525081019061055d9190610b96565b5073__$acbfb1c35000d78352310b16a054a6b106$__63abcd79608260600151600281111561058f5761058e61093e565b5b600160028111156105a3576105a261093e565b5b6040518363ffffffff1660e01b81526004016105c092919061134f565b602060405180830381865af41580156105db573d5f803e3d5ffd5b505050506040513d601f19601f820116820180604052508101906105ff9190610b96565b5073__$acbfb1c35000d78352310b16a054a6b106$__63abcd7960826080015160016040518363ffffffff1660e01b815260040161063e929190611408565b602060405180830381865af4158015610659573d5f803e3d5ffd5b505050506040513d601f19601f8201168201806040525081019061067d9190610b96565b5073__$acbfb1c35000d78352310b16a054a6b106$__63ea79dd798260a00151846040518363ffffffff1660e01b81526004016106bb9291906114c1565b602060405180830381865af41580156106d6573d5f803e3d5ffd5b505050506040513d601f19601f820116820180604052508101906106fa9190610b96565b505050565b6110b9806114fc83390190565b5f819050919050565b5f819050919050565b61072f61072a8261070c565b610715565b82525050565b5f81905092915050565b7f416c6963650000000000000000000000000000000000000000000000000000005f82015250565b5f610773600583610735565b915061077e8261073f565b600582019050919050565b7f313233204d61696e2053740000000000000000000000000000000000000000005f82015250565b5f6107bd600b83610735565b91506107c882610789565b600b82019050919050565b7f3535352d303130300000000000000000000000000000000000000000000000005f82015250565b5f610807600883610735565b9150610812826107d3565b600882019050919050565b5f610828828461071e565b60208201915061083782610767565b9150610842826107b1565b915061084d826107fb565b915081905092915050565b5f82825260208201905092915050565b7f54657374536572766963650000000000000000000000000000000000000000005f82015250565b5f61089c600b83610858565b91506108a782610868565b602082019050919050565b7f54657374696e67000000000000000000000000000000000000000000000000005f82015250565b5f6108e6600783610858565b91506108f1826108b2565b602082019050919050565b5f819050919050565b5f819050919050565b5f61092861092361091e846108fc565b610905565b61070c565b9050919050565b6109388161090e565b82525050565b7f4e487b71000000000000000000000000000000000000000000000000000000005f52602160045260245ffd5b6003811061097c5761097b61093e565b5b50565b5f81905061098c8261096b565b919050565b5f61099b8261097f565b9050919050565b6109ab81610991565b82525050565b5f819050919050565b6109c3816109b1565b82525050565b5f60c0820190508181035f8301526109e081610890565b905081810360208301526109f3816108da565b9050610a02604083018761092f565b610a0f60608301866109a2565b610a1c608083018561092f565b610a2960a08301846109ba565b95945050505050565b5f604051905090565b5f80fd5b5f80fd5b610a4c8161070c565b8114610a56575f80fd5b50565b5f81519050610a6781610a43565b92915050565b5f60208284031215610a8257610a81610a3b565b5b5f610a8f84828501610a59565b91505092915050565b610aa18161070c565b82525050565b5f82825260208201905092915050565b7f436f756e7465722073686f756c6420696e63726561736520746f2031206166745f8201527f657220616464696e67206120646174612075736167652e000000000000000000602082015250565b5f610b11603783610aa7565b9150610b1c82610ab7565b604082019050919050565b5f606082019050610b3a5f830185610a98565b610b476020830184610a98565b8181036040830152610b5881610b05565b90509392505050565b5f8115159050919050565b610b7581610b61565b8114610b7f575f80fd5b50565b5f81519050610b9081610b6c565b92915050565b5f60208284031215610bab57610baa610a3b565b5b5f610bb884828501610b82565b91505092915050565b7f426f6200000000000000000000000000000000000000000000000000000000005f82015250565b5f610bf5600383610735565b9150610c0082610bc1565b600382019050919050565b7f34353620456c6d205374000000000000000000000000000000000000000000005f82015250565b5f610c3f600a83610735565b9150610c4a82610c0b565b600a82019050919050565b7f3535352d303130310000000000000000000000000000000000000000000000005f82015250565b5f610c89600883610735565b9150610c9482610c55565b600882019050919050565b5f610caa828461071e565b602082019150610cb982610be9565b9150610cc482610c33565b9150610ccf82610c7d565b915081905092915050565b7f416e6f74686572536572766963650000000000000000000000000000000000005f82015250565b5f610d0e600e83610858565b9150610d1982610cda565b602082019050919050565b5f819050919050565b5f610d47610d42610d3d84610d24565b610905565b61070c565b9050919050565b610d5781610d2d565b82525050565b5f60c0820190508181035f830152610d7481610d02565b90508181036020830152610d87816108da565b9050610d966040830187610d4e565b610da360608301866109a2565b610db0608083018561092f565b610dbd60a08301846109ba565b95945050505050565b5f602082019050610dd95f830184610d4e565b92915050565b5f80fd5b5f601f19601f8301169050919050565b7f4e487b71000000000000000000000000000000000000000000000000000000005f52604160045260245ffd5b610e2982610de3565b810181811067ffffffffffffffff82111715610e4857610e47610df3565b5b80604052505050565b5f610e5a610a32565b9050610e668282610e20565b919050565b5f80fd5b5f80fd5b5f80fd5b5f67ffffffffffffffff821115610e9157610e90610df3565b5b610e9a82610de3565b9050602081019050919050565b5f5b83811015610ec4578082015181840152602081019050610ea9565b5f8484015250505050565b5f610ee1610edc84610e77565b610e51565b905082815260208101848484011115610efd57610efc610e73565b5b610f08848285610ea7565b509392505050565b5f82601f830112610f2457610f23610e6f565b5b8151610f34848260208601610ecf565b91505092915050565b60038110610f49575f80fd5b50565b5f81519050610f5a81610f3d565b92915050565b610f69816109b1565b8114610f73575f80fd5b50565b5f81519050610f8481610f60565b92915050565b5f60c08284031215610f9f57610f9e610ddf565b5b610fa960c0610e51565b90505f82015167ffffffffffffffff811115610fc857610fc7610e6b565b5b610fd484828501610f10565b5f83015250602082015167ffffffffffffffff811115610ff757610ff6610e6b565b5b61100384828501610f10565b602083015250604061101784828501610a59565b604083015250606061102b84828501610f4c565b606083015250608061103f84828501610a59565b60808301525060a061105384828501610f76565b60a08301525092915050565b5f6020828403121561107457611073610a3b565b5b5f82015167ffffffffffffffff81111561109157611090610a3f565b5b61109d84828501610f8a565b91505092915050565b5f81519050919050565b5f6110ba826110a6565b6110c48185610aa7565b93506110d4818560208601610ea7565b6110dd81610de3565b840191505092915050565b5f6110f4600e83610aa7565b91506110ff82610cda565b602082019050919050565b7f53657276696365206e616d652073686f756c64206d6174636820696e7075742e5f82015250565b5f61113e602083610aa7565b91506111498261110a565b602082019050919050565b5f6060820190508181035f83015261116c81846110b0565b9050818103602083015261117f816110e8565b9050818103604083015261119281611132565b905092915050565b5f6111a6600783610aa7565b91506111b1826108b2565b602082019050919050565b7f5365727669636520707572706f73652073686f756c64206d6174636820696e705f8201527f75742e0000000000000000000000000000000000000000000000000000000000602082015250565b5f611216602383610aa7565b9150611221826111bc565b604082019050919050565b5f6060820190508181035f83015261124481846110b0565b905081810360208301526112578161119a565b9050818103604083015261126a8161120a565b905092915050565b61127b81610d2d565b82525050565b7f4163746f722049442073686f756c64206d6174636820696e7075742e000000005f82015250565b5f6112b5601c83610aa7565b91506112c082611281565b602082019050919050565b5f6060820190506112de5f830185610a98565b6112eb6020830184611272565b81810360408301526112fc816112a9565b90509392505050565b7f4f7065726174696f6e2073686f756c64206d6174636820696e7075742e0000005f82015250565b5f611339601d83610aa7565b915061134482611305565b602082019050919050565b5f6060820190506113625f830185610a98565b61136f6020830184610a98565b81810360408301526113808161132d565b90509392505050565b6113928161090e565b82525050565b7f506572736f6e616c2064617461204944732073686f756c64206d6174636820695f8201527f6e7075742e000000000000000000000000000000000000000000000000000000602082015250565b5f6113f2602583610aa7565b91506113fd82611398565b604082019050919050565b5f60608201905061141b5f830185610a98565b6114286020830184611389565b8181036040830152611439816113e6565b90509392505050565b61144b816109b1565b82525050565b7f50726f63657373656420706572736f6e616c20646174612073686f756c64206d5f8201527f6174636820696e7075742e000000000000000000000000000000000000000000602082015250565b5f6114ab602b83610aa7565b91506114b682611451565b604082019050919050565b5f6060820190506114d45f830185611442565b6114e16020830184611442565b81810360408301526114f28161149f565b9050939250505056fe60806040525f6002555f600455348015610017575f80fd5b50335f806101000a81548173ffffffffffffffffffffffffffffffffffffffff021916908373ffffffffffffffffffffffffffffffffffffffff160217905550611055806100645f395ff3fe608060405234801561000f575f80fd5b5060043610610060575f3560e01c80632f57b91c146100645780634b58fbe914610080578063682477d71461009e57806385f86e0d146100bc5780638da5cb5b146100ec578063d2b0649a1461010a575b5f80fd5b61007e6004803603810190610079919061073d565b61013a565b005b6100886102b0565b604051610095919061080d565b60405180910390f35b6100a66102b9565b6040516100b3919061080d565b60405180910390f35b6100d660048036038101906100d19190610826565b6102c2565b6040516100e391906108ed565b60405180910390f35b6100f4610305565b6040516101019190610945565b60405180910390f35b610124600480360381019061011f919061095e565b610328565b6040516101319190610b21565b60405180910390f35b5f8054906101000a900473ffffffffffffffffffffffffffffffffffffffff1673ffffffffffffffffffffffffffffffffffffffff163373ffffffffffffffffffffffffffffffffffffffff16146101c7576040517f08c379a00000000000000000000000000000000000000000000000000000000081526004016101be90610bc1565b60405180910390fd5b6040518060c001604052808781526020018681526020018581526020018460028111156101f7576101f6610a12565b5b81526020018381526020018281525060015f8681526020019081526020015f205f820151815f01908161022a9190610dd9565b5060208201518160010190816102409190610dd9565b50604082015181600201556060820151816003015f6101000a81548160ff0219169083600281111561027557610274610a12565b5b02179055506080820151816004015560a0820151816005015590505060025f8154809291906102a390610ed5565b9190505550505050505050565b5f600454905090565b5f600254905090565b5f6060858585856040516020016102dc9493929190610f76565b60405160208183030381529060405290505f818051906020012090508092505050949350505050565b5f8054906101000a900473ffffffffffffffffffffffffffffffffffffffff1681565b610330610520565b5f60015f8481526020019081526020015f206002015403610386576040517f08c379a000000000000000000000000000000000000000000000000000000000815260040161037d90611001565b60405180910390fd5b60015f8381526020019081526020015f206040518060c00160405290815f820180546103b190610c0c565b80601f01602080910402602001604051908101604052809291908181526020018280546103dd90610c0c565b80156104285780601f106103ff57610100808354040283529160200191610428565b820191905f5260205f20905b81548152906001019060200180831161040b57829003601f168201915b5050505050815260200160018201805461044190610c0c565b80601f016020809104026020016040519081016040528092919081815260200182805461046d90610c0c565b80156104b85780601f1061048f576101008083540402835291602001916104b8565b820191905f5260205f20905b81548152906001019060200180831161049b57829003601f168201915b5050505050815260200160028201548152602001600382015f9054906101000a900460ff1660028111156104ef576104ee610a12565b5b600281111561050157610500610a12565b5b8152602001600482015481526020016005820154815250509050919050565b6040518060c0016040528060608152602001606081526020015f81526020015f600281111561055257610551610a12565b5b81526020015f81526020015f80191681525090565b5f604051905090565b5f80fd5b5f80fd5b5f80fd5b5f80fd5b5f601f19601f8301169050919050565b7f4e487b71000000000000000000000000000000000000000000000000000000005f52604160045260245ffd5b6105c682610580565b810181811067ffffffffffffffff821117156105e5576105e4610590565b5b80604052505050565b5f6105f7610567565b905061060382826105bd565b919050565b5f67ffffffffffffffff82111561062257610621610590565b5b61062b82610580565b9050602081019050919050565b828183375f83830152505050565b5f61065861065384610608565b6105ee565b9050828152602081018484840111156106745761067361057c565b5b61067f848285610638565b509392505050565b5f82601f83011261069b5761069a610578565b5b81356106ab848260208601610646565b91505092915050565b5f819050919050565b6106c6816106b4565b81146106d0575f80fd5b50565b5f813590506106e1816106bd565b92915050565b600381106106f3575f80fd5b50565b5f81359050610704816106e7565b92915050565b5f819050919050565b61071c8161070a565b8114610726575f80fd5b50565b5f8135905061073781610713565b92915050565b5f805f805f8060c0878903121561075757610756610570565b5b5f87013567ffffffffffffffff81111561077457610773610574565b5b61078089828a01610687565b965050602087013567ffffffffffffffff8111156107a1576107a0610574565b5b6107ad89828a01610687565b95505060406107be89828a016106d3565b94505060606107cf89828a016106f6565b93505060806107e089828a016106d3565b92505060a06107f189828a01610729565b9150509295509295509295565b610807816106b4565b82525050565b5f6020820190506108205f8301846107fe565b92915050565b5f805f806080858703121561083e5761083d610570565b5b5f61084b878288016106d3565b945050602085013567ffffffffffffffff81111561086c5761086b610574565b5b61087887828801610687565b935050604085013567ffffffffffffffff81111561089957610898610574565b5b6108a587828801610687565b925050606085013567ffffffffffffffff8111156108c6576108c5610574565b5b6108d287828801610687565b91505092959194509250565b6108e78161070a565b82525050565b5f6020820190506109005f8301846108de565b92915050565b5f73ffffffffffffffffffffffffffffffffffffffff82169050919050565b5f61092f82610906565b9050919050565b61093f81610925565b82525050565b5f6020820190506109585f830184610936565b92915050565b5f6020828403121561097357610972610570565b5b5f610980848285016106d3565b91505092915050565b5f81519050919050565b5f82825260208201905092915050565b5f5b838110156109c05780820151818401526020810190506109a5565b5f8484015250505050565b5f6109d582610989565b6109df8185610993565b93506109ef8185602086016109a3565b6109f881610580565b840191505092915050565b610a0c816106b4565b82525050565b7f4e487b71000000000000000000000000000000000000000000000000000000005f52602160045260245ffd5b60038110610a5057610a4f610a12565b5b50565b5f819050610a6082610a3f565b919050565b5f610a6f82610a53565b9050919050565b610a7f81610a65565b82525050565b610a8e8161070a565b82525050565b5f60c083015f8301518482035f860152610aae82826109cb565b91505060208301518482036020860152610ac882826109cb565b9150506040830151610add6040860182610a03565b506060830151610af06060860182610a76565b506080830151610b036080860182610a03565b5060a0830151610b1660a0860182610a85565b508091505092915050565b5f6020820190508181035f830152610b398184610a94565b905092915050565b5f82825260208201905092915050565b7f4f6e6c792074686520636f6e7472616374206f776e65722063616e20706572665f8201527f6f726d2074686973206f7065726174696f6e0000000000000000000000000000602082015250565b5f610bab603283610b41565b9150610bb682610b51565b604082019050919050565b5f6020820190508181035f830152610bd881610b9f565b9050919050565b7f4e487b71000000000000000000000000000000000000000000000000000000005f52602260045260245ffd5b5f6002820490506001821680610c2357607f821691505b602082108103610c3657610c35610bdf565b5b50919050565b5f819050815f5260205f209050919050565b5f6020601f8301049050919050565b5f82821b905092915050565b5f60088302610c987fffffffffffffffffffffffffffffffffffffffffffffffffffffffffffffffff82610c5d565b610ca28683610c5d565b95508019841693508086168417925050509392505050565b5f819050919050565b5f610cdd610cd8610cd3846106b4565b610cba565b6106b4565b9050919050565b5f819050919050565b610cf683610cc3565b610d0a610d0282610ce4565b848454610c69565b825550505050565b5f90565b610d1e610d12565b610d29818484610ced565b505050565b5b81811015610d4c57610d415f82610d16565b600181019050610d2f565b5050565b601f821115610d9157610d6281610c3c565b610d6b84610c4e565b81016020851015610d7a578190505b610d8e610d8685610c4e565b830182610d2e565b50505b505050565b5f82821c905092915050565b5f610db15f1984600802610d96565b1980831691505092915050565b5f610dc98383610da2565b9150826002028217905092915050565b610de282610989565b67ffffffffffffffff811115610dfb57610dfa610590565b5b610e058254610c0c565b610e10828285610d50565b5f60209050601f831160018114610e41575f8415610e2f578287015190505b610e398582610dbe565b865550610ea0565b601f198416610e4f86610c3c565b5f5b82811015610e7657848901518255600182019150602085019450602081019050610e51565b86831015610e935784890151610e8f601f891682610da2565b8355505b6001600288020188555050505b505050505050565b7f4e487b71000000000000000000000000000000000000000000000000000000005f52601160045260245ffd5b5f610edf826106b4565b91507fffffffffffffffffffffffffffffffffffffffffffffffffffffffffffffffff8203610f1157610f10610ea8565b5b600182019050919050565b5f819050919050565b610f36610f31826106b4565b610f1c565b82525050565b5f81905092915050565b5f610f5082610989565b610f5a8185610f3c565b9350610f6a8185602086016109a3565b80840191505092915050565b5f610f818287610f25565b602082019150610f918286610f46565b9150610f9d8285610f46565b9150610fa98284610f46565b915081905095945050505050565b7f44617461205573657220646f6573206e6f742065786973742e000000000000005f82015250565b5f610feb601983610b41565b9150610ff682610fb7565b602082019050919050565b5f6020820190508181035f83015261101881610fdf565b905091905056fea264697066735822122042a6bdceb46580b9a1e193386783f37b0a8ec703806951a8e90b479894a6c1c864736f6c63430008180033a264697066735822122039b796cdc3718e5262b0886f7fe239b65a699919b38189290d6ef3ee25eefb3764736f6c63430008180033",
			"opcodes": "PUSH1 0x80 PUSH1 0x40 MSTORE CALLVALUE DUP1 ISZERO PUSH2 0xF JUMPI PUSH0 DUP1 REVERT JUMPDEST POP PUSH2 0x25EA DUP1 PUSH2 0x1D PUSH0 CODECOPY PUSH0 RETURN INVALID PUSH1 0x80 PUSH1 0x40 MSTORE CALLVALUE DUP1 ISZERO PUSH2 0xF JUMPI PUSH0 DUP1 REVERT JUMPDEST POP PUSH1 0x4 CALLDATASIZE LT PUSH2 0x3F JUMPI PUSH0 CALLDATALOAD PUSH1 0xE0 SHR DUP1 PUSH4 0x7CE34100 EQ PUSH2 0x43 JUMPI DUP1 PUSH4 0x7FEA0D4B EQ PUSH2 0x4D JUMPI DUP1 PUSH4 0x85FB815D EQ PUSH2 0x57 JUMPI JUMPDEST PUSH0 DUP1 REVERT JUMPDEST PUSH2 0x4B PUSH2 0x61 JUMP JUMPDEST STOP JUMPDEST PUSH2 0x55 PUSH2 0x22A JUMP JUMPDEST STOP JUMPDEST PUSH2 0x5F PUSH2 0x291 JUMP JUMPDEST STOP JUMPDEST PUSH0 PUSH1 0x1 PUSH1 0x40 MLOAD PUSH1 0x20 ADD PUSH2 0x74 SWAP2 SWAP1 PUSH2 0x81D JUMP JUMPDEST PUSH1 0x40 MLOAD PUSH1 0x20 DUP2 DUP4 SUB SUB DUP2 MSTORE SWAP1 PUSH1 0x40 MSTORE DUP1 MLOAD SWAP1 PUSH1 0x20 ADD KECCAK256 SWAP1 POP PUSH1 0x1 PUSH0 SWAP1 SLOAD SWAP1 PUSH2 0x100 EXP SWAP1 DIV PUSH20 0xFFFFFFFFFFFFFFFFFFFFFFFFFFFFFFFFFFFFFFFF AND PUSH20 0xFFFFFFFFFFFFFFFFFFFFFFFFFFFFFFFFFFFFFFFF AND PUSH4 0x2F57B91C PUSH1 0x1 PUSH0 PUSH1 0x1 DUP6 PUSH1 0x40 MLOAD DUP6 PUSH4 0xFFFFFFFF AND PUSH1 0xE0 SHL DUP2 MSTORE PUSH1 0x4 ADD PUSH2 0xEE SWAP5 SWAP4 SWAP3 SWAP2 SWAP1 PUSH2 0x9C9 JUMP JUMPDEST PUSH0 PUSH1 0x40 MLOAD DUP1 DUP4 SUB DUP2 PUSH0 DUP8 DUP1 EXTCODESIZE ISZERO DUP1 ISZERO PUSH2 0x105 JUMPI PUSH0 DUP1 REVERT JUMPDEST POP GAS CALL ISZERO DUP1 ISZERO PUSH2 0x117 JUMPI RETURNDATASIZE PUSH0 DUP1 RETURNDATACOPY RETURNDATASIZE PUSH0 REVERT JUMPDEST POP POP POP POP PUSH0 PUSH1 0x1 SWAP1 POP PUSH20 0x0 PUSH4 0xABCD7960 PUSH1 0x1 PUSH0 SWAP1 SLOAD SWAP1 PUSH2 0x100 EXP SWAP1 DIV PUSH20 0xFFFFFFFFFFFFFFFFFFFFFFFFFFFFFFFFFFFFFFFF AND PUSH20 0xFFFFFFFFFFFFFFFFFFFFFFFFFFFFFFFFFFFFFFFF AND PUSH4 0x682477D7 PUSH1 0x40 MLOAD DUP2 PUSH4 0xFFFFFFFF AND PUSH1 0xE0 SHL DUP2 MSTORE PUSH1 0x4 ADD PUSH1 0x20 PUSH1 0x40 MLOAD DUP1 DUP4 SUB DUP2 DUP7 GAS STATICCALL ISZERO DUP1 ISZERO PUSH2 0x1A4 JUMPI RETURNDATASIZE PUSH0 DUP1 RETURNDATACOPY RETURNDATASIZE PUSH0 REVERT JUMPDEST POP POP POP POP PUSH1 0x40 MLOAD RETURNDATASIZE PUSH1 0x1F NOT PUSH1 0x1F DUP3 ADD AND DUP3 ADD DUP1 PUSH1 0x40 MSTORE POP DUP2 ADD SWAP1 PUSH2 0x1C8 SWAP2 SWAP1 PUSH2 0xA6D JUMP JUMPDEST DUP4 PUSH1 0x40 MLOAD DUP4 PUSH4 0xFFFFFFFF AND PUSH1 0xE0 SHL DUP2 MSTORE PUSH1 0x4 ADD PUSH2 0x1E6 SWAP3 SWAP2 SWAP1 PUSH2 0xB27 JUMP JUMPDEST PUSH1 0x20 PUSH1 0x40 MLOAD DUP1 DUP4 SUB DUP2 DUP7 GAS DELEGATECALL ISZERO DUP1 ISZERO PUSH2 0x201 JUMPI RETURNDATASIZE PUSH0 DUP1 RETURNDATACOPY RETURNDATASIZE PUSH0 REVERT JUMPDEST POP POP POP POP PUSH1 0x40 MLOAD RETURNDATASIZE PUSH1 0x1F NOT PUSH1 0x1F DUP3 ADD AND DUP3 ADD DUP1 PUSH1 0x40 MSTORE POP DUP2 ADD SWAP1 PUSH2 0x225 SWAP2 SWAP1 PUSH2 0xB96 JUMP JUMPDEST POP POP POP JUMP JUMPDEST PUSH1 0x40 MLOAD PUSH2 0x236 SWAP1 PUSH2 0x6FF JUMP JUMPDEST PUSH1 0x40 MLOAD DUP1 SWAP2 SUB SWAP1 PUSH0 CREATE DUP1 ISZERO DUP1 ISZERO PUSH2 0x24F JUMPI RETURNDATASIZE PUSH0 DUP1 RETURNDATACOPY RETURNDATASIZE PUSH0 REVERT JUMPDEST POP PUSH1 0x1 PUSH0 PUSH2 0x100 EXP DUP2 SLOAD DUP2 PUSH20 0xFFFFFFFFFFFFFFFFFFFFFFFFFFFFFFFFFFFFFFFF MUL NOT AND SWAP1 DUP4 PUSH20 0xFFFFFFFFFFFFFFFFFFFFFFFFFFFFFFFFFFFFFFFF AND MUL OR SWAP1 SSTORE POP JUMP JUMPDEST PUSH0 PUSH1 0x1 PUSH1 0x40 MLOAD PUSH1 0x20 ADD PUSH2 0x2A4 SWAP2 SWAP1 PUSH2 0xC9F JUMP JUMPDEST PUSH1 0x40 MLOAD PUSH1 0x20 DUP2 DUP4 SUB SUB DUP2 MSTORE SWAP1 PUSH1 0x40 MSTORE DUP1 MLOAD SWAP1 PUSH1 0x20 ADD KECCAK256 SWAP1 POP PUSH1 0x1 PUSH0 SWAP1 SLOAD SWAP1 PUSH2 0x100 EXP SWAP1 DIV PUSH20 0xFFFFFFFFFFFFFFFFFFFFFFFFFFFFFFFFFFFFFFFF AND PUSH20 0xFFFFFFFFFFFFFFFFFFFFFFFFFFFFFFFFFFFFFFFF AND PUSH4 0x2F57B91C PUSH1 0x2 PUSH1 0x1 DUP1 DUP6 PUSH1 0x40 MLOAD DUP6 PUSH4 0xFFFFFFFF AND PUSH1 0xE0 SHL DUP2 MSTORE PUSH1 0x4 ADD PUSH2 0x31E SWAP5 SWAP4 SWAP3 SWAP2 SWAP1 PUSH2 0xD5D JUMP JUMPDEST PUSH0 PUSH1 0x40 MLOAD DUP1 DUP4 SUB DUP2 PUSH0 DUP8 DUP1 EXTCODESIZE ISZERO DUP1 ISZERO PUSH2 0x335 JUMPI PUSH0 DUP1 REVERT JUMPDEST POP GAS CALL ISZERO DUP1 ISZERO PUSH2 0x347 JUMPI RETURNDATASIZE PUSH0 DUP1 RETURNDATACOPY RETURNDATASIZE PUSH0 REVERT JUMPDEST POP POP POP POP PUSH0 PUSH1 0x1 PUSH0 SWAP1 SLOAD SWAP1 PUSH2 0x100 EXP SWAP1 DIV PUSH20 0xFFFFFFFFFFFFFFFFFFFFFFFFFFFFFFFFFFFFFFFF AND PUSH20 0xFFFFFFFFFFFFFFFFFFFFFFFFFFFFFFFFFFFFFFFF AND PUSH4 0xD2B0649A PUSH1 0x2 PUSH1 0x40 MLOAD DUP3 PUSH4 0xFFFFFFFF AND PUSH1 0xE0 SHL DUP2 MSTORE PUSH1 0x4 ADD PUSH2 0x3A7 SWAP2 SWAP1 PUSH2 0xDC6 JUMP JUMPDEST PUSH0 PUSH1 0x40 MLOAD DUP1 DUP4 SUB DUP2 DUP7 GAS STATICCALL ISZERO DUP1 ISZERO PUSH2 0x3C1 JUMPI RETURNDATASIZE PUSH0 DUP1 RETURNDATACOPY RETURNDATASIZE PUSH0 REVERT JUMPDEST POP POP POP POP PUSH1 0x40 MLOAD RETURNDATASIZE PUSH0 DUP3 RETURNDATACOPY RETURNDATASIZE PUSH1 0x1F NOT PUSH1 0x1F DUP3 ADD AND DUP3 ADD DUP1 PUSH1 0x40 MSTORE POP DUP2 ADD SWAP1 PUSH2 0x3E9 SWAP2 SWAP1 PUSH2 0x105F JUMP JUMPDEST SWAP1 POP PUSH20 0x0 PUSH4 0xE8C2CB16 DUP3 PUSH0 ADD MLOAD PUSH1 0x40 MLOAD DUP3 PUSH4 0xFFFFFFFF AND PUSH1 0xE0 SHL DUP2 MSTORE PUSH1 0x4 ADD PUSH2 0x425 SWAP2 SWAP1 PUSH2 0x1154 JUMP JUMPDEST PUSH1 0x20 PUSH1 0x40 MLOAD DUP1 DUP4 SUB DUP2 DUP7 GAS DELEGATECALL ISZERO DUP1 ISZERO PUSH2 0x440 JUMPI RETURNDATASIZE PUSH0 DUP1 RETURNDATACOPY RETURNDATASIZE PUSH0 REVERT JUMPDEST POP POP POP POP PUSH1 0x40 MLOAD RETURNDATASIZE PUSH1 0x1F NOT PUSH1 0x1F DUP3 ADD AND DUP3 ADD DUP1 PUSH1 0x40 MSTORE POP DUP2 ADD SWAP1 PUSH2 0x464 SWAP2 SWAP1 PUSH2 0xB96 JUMP JUMPDEST POP PUSH20 0x0 PUSH4 0xE8C2CB16 DUP3 PUSH1 0x20 ADD MLOAD PUSH1 0x40 MLOAD DUP3 PUSH4 0xFFFFFFFF AND PUSH1 0xE0 SHL DUP2 MSTORE PUSH1 0x4 ADD PUSH2 0x4A0 SWAP2 SWAP1 PUSH2 0x122C JUMP JUMPDEST PUSH1 0x20 PUSH1 0x40 MLOAD DUP1 DUP4 SUB DUP2 DUP7 GAS DELEGATECALL ISZERO DUP1 ISZERO PUSH2 0x4BB JUMPI RETURNDATASIZE PUSH0 DUP1 RETURNDATACOPY RETURNDATASIZE PUSH0 REVERT JUMPDEST POP POP POP POP PUSH1 0x40 MLOAD RETURNDATASIZE PUSH1 0x1F NOT PUSH1 0x1F DUP3 ADD AND DUP3 ADD DUP1 PUSH1 0x40 MSTORE POP DUP2 ADD SWAP1 PUSH2 0x4DF SWAP2 SWAP1 PUSH2 0xB96 JUMP JUMPDEST POP PUSH20 0x0 PUSH4 0xABCD7960 DUP3 PUSH1 0x40 ADD MLOAD PUSH1 0x2 PUSH1 0x40 MLOAD DUP4 PUSH4 0xFFFFFFFF AND PUSH1 0xE0 SHL DUP2 MSTORE PUSH1 0x4 ADD PUSH2 0x51E SWAP3 SWAP2 SWAP1 PUSH2 0x12CB JUMP JUMPDEST PUSH1 0x20 PUSH1 0x40 MLOAD DUP1 DUP4 SUB DUP2 DUP7 GAS DELEGATECALL ISZERO DUP1 ISZERO PUSH2 0x539 JUMPI RETURNDATASIZE PUSH0 DUP1 RETURNDATACOPY RETURNDATASIZE PUSH0 REVERT JUMPDEST POP POP POP POP PUSH1 0x40 MLOAD RETURNDATASIZE PUSH1 0x1F NOT PUSH1 0x1F DUP3 ADD AND DUP3 ADD DUP1 PUSH1 0x40 MSTORE POP DUP2 ADD SWAP1 PUSH2 0x55D SWAP2 SWAP1 PUSH2 0xB96 JUMP JUMPDEST POP PUSH20 0x0 PUSH4 0xABCD7960 DUP3 PUSH1 0x60 ADD MLOAD PUSH1 0x2 DUP2 GT ISZERO PUSH2 0x58F JUMPI PUSH2 0x58E PUSH2 0x93E JUMP JUMPDEST JUMPDEST PUSH1 0x1 PUSH1 0x2 DUP2 GT ISZERO PUSH2 0x5A3 JUMPI PUSH2 0x5A2 PUSH2 0x93E JUMP JUMPDEST JUMPDEST PUSH1 0x40 MLOAD DUP4 PUSH4 0xFFFFFFFF AND PUSH1 0xE0 SHL DUP2 MSTORE PUSH1 0x4 ADD PUSH2 0x5C0 SWAP3 SWAP2 SWAP1 PUSH2 0x134F JUMP JUMPDEST PUSH1 0x20 PUSH1 0x40 MLOAD DUP1 DUP4 SUB DUP2 DUP7 GAS DELEGATECALL ISZERO DUP1 ISZERO PUSH2 0x5DB JUMPI RETURNDATASIZE PUSH0 DUP1 RETURNDATACOPY RETURNDATASIZE PUSH0 REVERT JUMPDEST POP POP POP POP PUSH1 0x40 MLOAD RETURNDATASIZE PUSH1 0x1F NOT PUSH1 0x1F DUP3 ADD AND DUP3 ADD DUP1 PUSH1 0x40 MSTORE POP DUP2 ADD SWAP1 PUSH2 0x5FF SWAP2 SWAP1 PUSH2 0xB96 JUMP JUMPDEST POP PUSH20 0x0 PUSH4 0xABCD7960 DUP3 PUSH1 0x80 ADD MLOAD PUSH1 0x1 PUSH1 0x40 MLOAD DUP4 PUSH4 0xFFFFFFFF AND PUSH1 0xE0 SHL DUP2 MSTORE PUSH1 0x4 ADD PUSH2 0x63E SWAP3 SWAP2 SWAP1 PUSH2 0x1408 JUMP JUMPDEST PUSH1 0x20 PUSH1 0x40 MLOAD DUP1 DUP4 SUB DUP2 DUP7 GAS DELEGATECALL ISZERO DUP1 ISZERO PUSH2 0x659 JUMPI RETURNDATASIZE PUSH0 DUP1 RETURNDATACOPY RETURNDATASIZE PUSH0 REVERT JUMPDEST POP POP POP POP PUSH1 0x40 MLOAD RETURNDATASIZE PUSH1 0x1F NOT PUSH1 0x1F DUP3 ADD AND DUP3 ADD DUP1 PUSH1 0x40 MSTORE POP DUP2 ADD SWAP1 PUSH2 0x67D SWAP2 SWAP1 PUSH2 0xB96 JUMP JUMPDEST POP PUSH20 0x0 PUSH4 0xEA79DD79 DUP3 PUSH1 0xA0 ADD MLOAD DUP5 PUSH1 0x40 MLOAD DUP4 PUSH4 0xFFFFFFFF AND PUSH1 0xE0 SHL DUP2 MSTORE PUSH1 0x4 ADD PUSH2 0x6BB SWAP3 SWAP2 SWAP1 PUSH2 0x14C1 JUMP JUMPDEST PUSH1 0x20 PUSH1 0x40 MLOAD DUP1 DUP4 SUB DUP2 DUP7 GAS DELEGATECALL ISZERO DUP1 ISZERO PUSH2 0x6D6 JUMPI RETURNDATASIZE PUSH0 DUP1 RETURNDATACOPY RETURNDATASIZE PUSH0 REVERT JUMPDEST POP POP POP POP PUSH1 0x40 MLOAD RETURNDATASIZE PUSH1 0x1F NOT PUSH1 0x1F DUP3 ADD AND DUP3 ADD DUP1 PUSH1 0x40 MSTORE POP DUP2 ADD SWAP1 PUSH2 0x6FA SWAP2 SWAP1 PUSH2 0xB96 JUMP JUMPDEST POP POP POP JUMP JUMPDEST PUSH2 0x10B9 DUP1 PUSH2 0x14FC DUP4 CODECOPY ADD SWAP1 JUMP JUMPDEST PUSH0 DUP2 SWAP1 POP SWAP2 SWAP1 POP JUMP JUMPDEST PUSH0 DUP2 SWAP1 POP SWAP2 SWAP1 POP JUMP JUMPDEST PUSH2 0x72F PUSH2 0x72A DUP3 PUSH2 0x70C JUMP JUMPDEST PUSH2 0x715 JUMP JUMPDEST DUP3 MSTORE POP POP JUMP JUMPDEST PUSH0 DUP2 SWAP1 POP SWAP3 SWAP2 POP POP JUMP JUMPDEST PUSH32 0x416C696365000000000000000000000000000000000000000000000000000000 PUSH0 DUP3 ADD MSTORE POP JUMP JUMPDEST PUSH0 PUSH2 0x773 PUSH1 0x5 DUP4 PUSH2 0x735 JUMP JUMPDEST SWAP2 POP PUSH2 0x77E DUP3 PUSH2 0x73F JUMP JUMPDEST PUSH1 0x5 DUP3 ADD SWAP1 POP SWAP2 SWAP1 POP JUMP JUMPDEST PUSH32 0x313233204D61696E205374000000000000000000000000000000000000000000 PUSH0 DUP3 ADD MSTORE POP JUMP JUMPDEST PUSH0 PUSH2 0x7BD PUSH1 0xB DUP4 PUSH2 0x735 JUMP JUMPDEST SWAP2 POP PUSH2 0x7C8 DUP3 PUSH2 0x789 JUMP JUMPDEST PUSH1 0xB DUP3 ADD SWAP1 POP SWAP2 SWAP1 POP JUMP JUMPDEST PUSH32 0x3535352D30313030000000000000000000000000000000000000000000000000 PUSH0 DUP3 ADD MSTORE POP JUMP JUMPDEST PUSH0 PUSH2 0x807 PUSH1 0x8 DUP4 PUSH2 0x735 JUMP JUMPDEST SWAP2 POP PUSH2 0x812 DUP3 PUSH2 0x7D3 JUMP JUMPDEST PUSH1 0x8 DUP3 ADD SWAP1 POP SWAP2 SWAP1 POP JUMP JUMPDEST PUSH0 PUSH2 0x828 DUP3 DUP5 PUSH2 0x71E JUMP JUMPDEST PUSH1 0x20 DUP3 ADD SWAP2 POP PUSH2 0x837 DUP3 PUSH2 0x767 JUMP JUMPDEST SWAP2 POP PUSH2 0x842 DUP3 PUSH2 0x7B1 JUMP JUMPDEST SWAP2 POP PUSH2 0x84D DUP3 PUSH2 0x7FB JUMP JUMPDEST SWAP2 POP DUP2 SWAP1 POP SWAP3 SWAP2 POP POP JUMP JUMPDEST PUSH0 DUP3 DUP3 MSTORE PUSH1 0x20 DUP3 ADD SWAP1 POP SWAP3 SWAP2 POP POP JUMP JUMPDEST PUSH32 0x5465737453657276696365000000000000000000000000000000000000000000 PUSH0 DUP3 ADD MSTORE POP JUMP JUMPDEST PUSH0 PUSH2 0x89C PUSH1 0xB DUP4 PUSH2 0x858 JUMP JUMPDEST SWAP2 POP PUSH2 0x8A7 DUP3 PUSH2 0x868 JUMP JUMPDEST PUSH1 0x20 DUP3 ADD SWAP1 POP SWAP2 SWAP1 POP JUMP JUMPDEST PUSH32 0x54657374696E6700000000000000000000000000000000000000000000000000 PUSH0 DUP3 ADD MSTORE POP JUMP JUMPDEST PUSH0 PUSH2 0x8E6 PUSH1 0x7 DUP4 PUSH2 0x858 JUMP JUMPDEST SWAP2 POP PUSH2 0x8F1 DUP3 PUSH2 0x8B2 JUMP JUMPDEST PUSH1 0x20 DUP3 ADD SWAP1 POP SWAP2 SWAP1 POP JUMP JUMPDEST PUSH0 DUP2 SWAP1 POP SWAP2 SWAP1 POP JUMP JUMPDEST PUSH0 DUP2 SWAP1 POP SWAP2 SWAP1 POP JUMP JUMPDEST PUSH0 PUSH2 0x928 PUSH2 0x923 PUSH2 0x91E DUP5 PUSH2 0x8FC JUMP JUMPDEST PUSH2 0x905 JUMP JUMPDEST PUSH2 0x70C JUMP JUMPDEST SWAP1 POP SWAP2 SWAP1 POP JUMP JUMPDEST PUSH2 0x938 DUP2 PUSH2 0x90E JUMP JUMPDEST DUP3 MSTORE POP POP JUMP JUMPDEST PUSH32 0x4E487B7100000000000000000000000000000000000000000000000000000000 PUSH0 MSTORE PUSH1 0x21 PUSH1 0x4 MSTORE PUSH1 0x24 PUSH0 REVERT JUMPDEST PUSH1 0x3 DUP2 LT PUSH2 0x97C JUMPI PUSH2 0x97B PUSH2 0x93E JUMP JUMPDEST JUMPDEST POP JUMP JUMPDEST PUSH0 DUP2 SWAP1 POP PUSH2 0x98C DUP3 PUSH2 0x96B JUMP JUMPDEST SWAP2 SWAP1 POP JUMP JUMPDEST PUSH0 PUSH2 0x99B DUP3 PUSH2 0x97F JUMP JUMPDEST SWAP1 POP SWAP2 SWAP1 POP JUMP JUMPDEST PUSH2 0x9AB DUP2 PUSH2 0x991 JUMP JUMPDEST DUP3 MSTORE POP POP JUMP JUMPDEST PUSH0 DUP2 SWAP1 POP SWAP2 SWAP1 POP JUMP JUMPDEST PUSH2 0x9C3 DUP2 PUSH2 0x9B1 JUMP JUMPDEST DUP3 MSTORE POP POP JUMP JUMPDEST PUSH0 PUSH1 0xC0 DUP3 ADD SWAP1 POP DUP2 DUP2 SUB PUSH0 DUP4 ADD MSTORE PUSH2 0x9E0 DUP2 PUSH2 0x890 JUMP JUMPDEST SWAP1 POP DUP2 DUP2 SUB PUSH1 0x20 DUP4 ADD MSTORE PUSH2 0x9F3 DUP2 PUSH2 0x8DA JUMP JUMPDEST SWAP1 POP PUSH2 0xA02 PUSH1 0x40 DUP4 ADD DUP8 PUSH2 0x92F JUMP JUMPDEST PUSH2 0xA0F PUSH1 0x60 DUP4 ADD DUP7 PUSH2 0x9A2 JUMP JUMPDEST PUSH2 0xA1C PUSH1 0x80 DUP4 ADD DUP6 PUSH2 0x92F JUMP JUMPDEST PUSH2 0xA29 PUSH1 0xA0 DUP4 ADD DUP5 PUSH2 0x9BA JUMP JUMPDEST SWAP6 SWAP5 POP POP POP POP POP JUMP JUMPDEST PUSH0 PUSH1 0x40 MLOAD SWAP1 POP SWAP1 JUMP JUMPDEST PUSH0 DUP1 REVERT JUMPDEST PUSH0 DUP1 REVERT JUMPDEST PUSH2 0xA4C DUP2 PUSH2 0x70C JUMP JUMPDEST DUP2 EQ PUSH2 0xA56 JUMPI PUSH0 DUP1 REVERT JUMPDEST POP JUMP JUMPDEST PUSH0 DUP2 MLOAD SWAP1 POP PUSH2 0xA67 DUP2 PUSH2 0xA43 JUMP JUMPDEST SWAP3 SWAP2 POP POP JUMP JUMPDEST PUSH0 PUSH1 0x20 DUP3 DUP5 SUB SLT ISZERO PUSH2 0xA82 JUMPI PUSH2 0xA81 PUSH2 0xA3B JUMP JUMPDEST JUMPDEST PUSH0 PUSH2 0xA8F DUP5 DUP3 DUP6 ADD PUSH2 0xA59 JUMP JUMPDEST SWAP2 POP POP SWAP3 SWAP2 POP POP JUMP JUMPDEST PUSH2 0xAA1 DUP2 PUSH2 0x70C JUMP JUMPDEST DUP3 MSTORE POP POP JUMP JUMPDEST PUSH0 DUP3 DUP3 MSTORE PUSH1 0x20 DUP3 ADD SWAP1 POP SWAP3 SWAP2 POP POP JUMP JUMPDEST PUSH32 0x436F756E7465722073686F756C6420696E63726561736520746F203120616674 PUSH0 DUP3 ADD MSTORE PUSH32 0x657220616464696E67206120646174612075736167652E000000000000000000 PUSH1 0x20 DUP3 ADD MSTORE POP JUMP JUMPDEST PUSH0 PUSH2 0xB11 PUSH1 0x37 DUP4 PUSH2 0xAA7 JUMP JUMPDEST SWAP2 POP PUSH2 0xB1C DUP3 PUSH2 0xAB7 JUMP JUMPDEST PUSH1 0x40 DUP3 ADD SWAP1 POP SWAP2 SWAP1 POP JUMP JUMPDEST PUSH0 PUSH1 0x60 DUP3 ADD SWAP1 POP PUSH2 0xB3A PUSH0 DUP4 ADD DUP6 PUSH2 0xA98 JUMP JUMPDEST PUSH2 0xB47 PUSH1 0x20 DUP4 ADD DUP5 PUSH2 0xA98 JUMP JUMPDEST DUP2 DUP2 SUB PUSH1 0x40 DUP4 ADD MSTORE PUSH2 0xB58 DUP2 PUSH2 0xB05 JUMP JUMPDEST SWAP1 POP SWAP4 SWAP3 POP POP POP JUMP JUMPDEST PUSH0 DUP2 ISZERO ISZERO SWAP1 POP SWAP2 SWAP1 POP JUMP JUMPDEST PUSH2 0xB75 DUP2 PUSH2 0xB61 JUMP JUMPDEST DUP2 EQ PUSH2 0xB7F JUMPI PUSH0 DUP1 REVERT JUMPDEST POP JUMP JUMPDEST PUSH0 DUP2 MLOAD SWAP1 POP PUSH2 0xB90 DUP2 PUSH2 0xB6C JUMP JUMPDEST SWAP3 SWAP2 POP POP JUMP JUMPDEST PUSH0 PUSH1 0x20 DUP3 DUP5 SUB SLT ISZERO PUSH2 0xBAB JUMPI PUSH2 0xBAA PUSH2 0xA3B JUMP JUMPDEST JUMPDEST PUSH0 PUSH2 0xBB8 DUP5 DUP3 DUP6 ADD PUSH2 0xB82 JUMP JUMPDEST SWAP2 POP POP SWAP3 SWAP2 POP POP JUMP JUMPDEST PUSH32 0x426F620000000000000000000000000000000000000000000000000000000000 PUSH0 DUP3 ADD MSTORE POP JUMP JUMPDEST PUSH0 PUSH2 0xBF5 PUSH1 0x3 DUP4 PUSH2 0x735 JUMP JUMPDEST SWAP2 POP PUSH2 0xC00 DUP3 PUSH2 0xBC1 JUMP JUMPDEST PUSH1 0x3 DUP3 ADD SWAP1 POP SWAP2 SWAP1 POP JUMP JUMPDEST PUSH32 0x34353620456C6D20537400000000000000000000000000000000000000000000 PUSH0 DUP3 ADD MSTORE POP JUMP JUMPDEST PUSH0 PUSH2 0xC3F PUSH1 0xA DUP4 PUSH2 0x735 JUMP JUMPDEST SWAP2 POP PUSH2 0xC4A DUP3 PUSH2 0xC0B JUMP JUMPDEST PUSH1 0xA DUP3 ADD SWAP1 POP SWAP2 SWAP1 POP JUMP JUMPDEST PUSH32 0x3535352D30313031000000000000000000000000000000000000000000000000 PUSH0 DUP3 ADD MSTORE POP JUMP JUMPDEST PUSH0 PUSH2 0xC89 PUSH1 0x8 DUP4 PUSH2 0x735 JUMP JUMPDEST SWAP2 POP PUSH2 0xC94 DUP3 PUSH2 0xC55 JUMP JUMPDEST PUSH1 0x8 DUP3 ADD SWAP1 POP SWAP2 SWAP1 POP JUMP JUMPDEST PUSH0 PUSH2 0xCAA DUP3 DUP5 PUSH2 0x71E JUMP JUMPDEST PUSH1 0x20 DUP3 ADD SWAP2 POP PUSH2 0xCB9 DUP3 PUSH2 0xBE9 JUMP JUMPDEST SWAP2 POP PUSH2 0xCC4 DUP3 PUSH2 0xC33 JUMP JUMPDEST SWAP2 POP PUSH2 0xCCF DUP3 PUSH2 0xC7D JUMP JUMPDEST SWAP2 POP DUP2 SWAP1 POP SWAP3 SWAP2 POP POP JUMP JUMPDEST PUSH32 0x416E6F7468657253657276696365000000000000000000000000000000000000 PUSH0 DUP3 ADD MSTORE POP JUMP JUMPDEST PUSH0 PUSH2 0xD0E PUSH1 0xE DUP4 PUSH2 0x858 JUMP JUMPDEST SWAP2 POP PUSH2 0xD19 DUP3 PUSH2 0xCDA JUMP JUMPDEST PUSH1 0x20 DUP3 ADD SWAP1 POP SWAP2 SWAP1 POP JUMP JUMPDEST PUSH0 DUP2 SWAP1 POP SWAP2 SWAP1 POP JUMP JUMPDEST PUSH0 PUSH2 0xD47 PUSH2 0xD42 PUSH2 0xD3D DUP5 PUSH2 0xD24 JUMP JUMPDEST PUSH2 0x905 JUMP JUMPDEST PUSH2 0x70C JUMP JUMPDEST SWAP1 POP SWAP2 SWAP1 POP JUMP JUMPDEST PUSH2 0xD57 DUP2 PUSH2 0xD2D JUMP JUMPDEST DUP3 MSTORE POP POP JUMP JUMPDEST PUSH0 PUSH1 0xC0 DUP3 ADD SWAP1 POP DUP2 DUP2 SUB PUSH0 DUP4 ADD MSTORE PUSH2 0xD74 DUP2 PUSH2 0xD02 JUMP JUMPDEST SWAP1 POP DUP2 DUP2 SUB PUSH1 0x20 DUP4 ADD MSTORE PUSH2 0xD87 DUP2 PUSH2 0x8DA JUMP JUMPDEST SWAP1 POP PUSH2 0xD96 PUSH1 0x40 DUP4 ADD DUP8 PUSH2 0xD4E JUMP JUMPDEST PUSH2 0xDA3 PUSH1 0x60 DUP4 ADD DUP7 PUSH2 0x9A2 JUMP JUMPDEST PUSH2 0xDB0 PUSH1 0x80 DUP4 ADD DUP6 PUSH2 0x92F JUMP JUMPDEST PUSH2 0xDBD PUSH1 0xA0 DUP4 ADD DUP5 PUSH2 0x9BA JUMP JUMPDEST SWAP6 SWAP5 POP POP POP POP POP JUMP JUMPDEST PUSH0 PUSH1 0x20 DUP3 ADD SWAP1 POP PUSH2 0xDD9 PUSH0 DUP4 ADD DUP5 PUSH2 0xD4E JUMP JUMPDEST SWAP3 SWAP2 POP POP JUMP JUMPDEST PUSH0 DUP1 REVERT JUMPDEST PUSH0 PUSH1 0x1F NOT PUSH1 0x1F DUP4 ADD AND SWAP1 POP SWAP2 SWAP1 POP JUMP JUMPDEST PUSH32 0x4E487B7100000000000000000000000000000000000000000000000000000000 PUSH0 MSTORE PUSH1 0x41 PUSH1 0x4 MSTORE PUSH1 0x24 PUSH0 REVERT JUMPDEST PUSH2 0xE29 DUP3 PUSH2 0xDE3 JUMP JUMPDEST DUP2 ADD DUP2 DUP2 LT PUSH8 0xFFFFFFFFFFFFFFFF DUP3 GT OR ISZERO PUSH2 0xE48 JUMPI PUSH2 0xE47 PUSH2 0xDF3 JUMP JUMPDEST JUMPDEST DUP1 PUSH1 0x40 MSTORE POP POP POP JUMP JUMPDEST PUSH0 PUSH2 0xE5A PUSH2 0xA32 JUMP JUMPDEST SWAP1 POP PUSH2 0xE66 DUP3 DUP3 PUSH2 0xE20 JUMP JUMPDEST SWAP2 SWAP1 POP JUMP JUMPDEST PUSH0 DUP1 REVERT JUMPDEST PUSH0 DUP1 REVERT JUMPDEST PUSH0 DUP1 REVERT JUMPDEST PUSH0 PUSH8 0xFFFFFFFFFFFFFFFF DUP3 GT ISZERO PUSH2 0xE91 JUMPI PUSH2 0xE90 PUSH2 0xDF3 JUMP JUMPDEST JUMPDEST PUSH2 0xE9A DUP3 PUSH2 0xDE3 JUMP JUMPDEST SWAP1 POP PUSH1 0x20 DUP2 ADD SWAP1 POP SWAP2 SWAP1 POP JUMP JUMPDEST PUSH0 JUMPDEST DUP4 DUP2 LT ISZERO PUSH2 0xEC4 JUMPI DUP1 DUP3 ADD MLOAD DUP2 DUP5 ADD MSTORE PUSH1 0x20 DUP2 ADD SWAP1 POP PUSH2 0xEA9 JUMP JUMPDEST PUSH0 DUP5 DUP5 ADD MSTORE POP POP POP POP JUMP JUMPDEST PUSH0 PUSH2 0xEE1 PUSH2 0xEDC DUP5 PUSH2 0xE77 JUMP JUMPDEST PUSH2 0xE51 JUMP JUMPDEST SWAP1 POP DUP3 DUP2 MSTORE PUSH1 0x20 DUP2 ADD DUP5 DUP5 DUP5 ADD GT ISZERO PUSH2 0xEFD JUMPI PUSH2 0xEFC PUSH2 0xE73 JUMP JUMPDEST JUMPDEST PUSH2 0xF08 DUP5 DUP3 DUP6 PUSH2 0xEA7 JUMP JUMPDEST POP SWAP4 SWAP3 POP POP POP JUMP JUMPDEST PUSH0 DUP3 PUSH1 0x1F DUP4 ADD SLT PUSH2 0xF24 JUMPI PUSH2 0xF23 PUSH2 0xE6F JUMP JUMPDEST JUMPDEST DUP2 MLOAD PUSH2 0xF34 DUP5 DUP3 PUSH1 0x20 DUP7 ADD PUSH2 0xECF JUMP JUMPDEST SWAP2 POP POP SWAP3 SWAP2 POP POP JUMP JUMPDEST PUSH1 0x3 DUP2 LT PUSH2 0xF49 JUMPI PUSH0 DUP1 REVERT JUMPDEST POP JUMP JUMPDEST PUSH0 DUP2 MLOAD SWAP1 POP PUSH2 0xF5A DUP2 PUSH2 0xF3D JUMP JUMPDEST SWAP3 SWAP2 POP POP JUMP JUMPDEST PUSH2 0xF69 DUP2 PUSH2 0x9B1 JUMP JUMPDEST DUP2 EQ PUSH2 0xF73 JUMPI PUSH0 DUP1 REVERT JUMPDEST POP JUMP JUMPDEST PUSH0 DUP2 MLOAD SWAP1 POP PUSH2 0xF84 DUP2 PUSH2 0xF60 JUMP JUMPDEST SWAP3 SWAP2 POP POP JUMP JUMPDEST PUSH0 PUSH1 0xC0 DUP3 DUP5 SUB SLT ISZERO PUSH2 0xF9F JUMPI PUSH2 0xF9E PUSH2 0xDDF JUMP JUMPDEST JUMPDEST PUSH2 0xFA9 PUSH1 0xC0 PUSH2 0xE51 JUMP JUMPDEST SWAP1 POP PUSH0 DUP3 ADD MLOAD PUSH8 0xFFFFFFFFFFFFFFFF DUP2 GT ISZERO PUSH2 0xFC8 JUMPI PUSH2 0xFC7 PUSH2 0xE6B JUMP JUMPDEST JUMPDEST PUSH2 0xFD4 DUP5 DUP3 DUP6 ADD PUSH2 0xF10 JUMP JUMPDEST PUSH0 DUP4 ADD MSTORE POP PUSH1 0x20 DUP3 ADD MLOAD PUSH8 0xFFFFFFFFFFFFFFFF DUP2 GT ISZERO PUSH2 0xFF7 JUMPI PUSH2 0xFF6 PUSH2 0xE6B JUMP JUMPDEST JUMPDEST PUSH2 0x1003 DUP5 DUP3 DUP6 ADD PUSH2 0xF10 JUMP JUMPDEST PUSH1 0x20 DUP4 ADD MSTORE POP PUSH1 0x40 PUSH2 0x1017 DUP5 DUP3 DUP6 ADD PUSH2 0xA59 JUMP JUMPDEST PUSH1 0x40 DUP4 ADD MSTORE POP PUSH1 0x60 PUSH2 0x102B DUP5 DUP3 DUP6 ADD PUSH2 0xF4C JUMP JUMPDEST PUSH1 0x60 DUP4 ADD MSTORE POP PUSH1 0x80 PUSH2 0x103F DUP5 DUP3 DUP6 ADD PUSH2 0xA59 JUMP JUMPDEST PUSH1 0x80 DUP4 ADD MSTORE POP PUSH1 0xA0 PUSH2 0x1053 DUP5 DUP3 DUP6 ADD PUSH2 0xF76 JUMP JUMPDEST PUSH1 0xA0 DUP4 ADD MSTORE POP SWAP3 SWAP2 POP POP JUMP JUMPDEST PUSH0 PUSH1 0x20 DUP3 DUP5 SUB SLT ISZERO PUSH2 0x1074 JUMPI PUSH2 0x1073 PUSH2 0xA3B JUMP JUMPDEST JUMPDEST PUSH0 DUP3 ADD MLOAD PUSH8 0xFFFFFFFFFFFFFFFF DUP2 GT ISZERO PUSH2 0x1091 JUMPI PUSH2 0x1090 PUSH2 0xA3F JUMP JUMPDEST JUMPDEST PUSH2 0x109D DUP5 DUP3 DUP6 ADD PUSH2 0xF8A JUMP JUMPDEST SWAP2 POP POP SWAP3 SWAP2 POP POP JUMP JUMPDEST PUSH0 DUP2 MLOAD SWAP1 POP SWAP2 SWAP1 POP JUMP JUMPDEST PUSH0 PUSH2 0x10BA DUP3 PUSH2 0x10A6 JUMP JUMPDEST PUSH2 0x10C4 DUP2 DUP6 PUSH2 0xAA7 JUMP JUMPDEST SWAP4 POP PUSH2 0x10D4 DUP2 DUP6 PUSH1 0x20 DUP7 ADD PUSH2 0xEA7 JUMP JUMPDEST PUSH2 0x10DD DUP2 PUSH2 0xDE3 JUMP JUMPDEST DUP5 ADD SWAP2 POP POP SWAP3 SWAP2 POP POP JUMP JUMPDEST PUSH0 PUSH2 0x10F4 PUSH1 0xE DUP4 PUSH2 0xAA7 JUMP JUMPDEST SWAP2 POP PUSH2 0x10FF DUP3 PUSH2 0xCDA JUMP JUMPDEST PUSH1 0x20 DUP3 ADD SWAP1 POP SWAP2 SWAP1 POP JUMP JUMPDEST PUSH32 0x53657276696365206E616D652073686F756C64206D6174636820696E7075742E PUSH0 DUP3 ADD MSTORE POP JUMP JUMPDEST PUSH0 PUSH2 0x113E PUSH1 0x20 DUP4 PUSH2 0xAA7 JUMP JUMPDEST SWAP2 POP PUSH2 0x1149 DUP3 PUSH2 0x110A JUMP JUMPDEST PUSH1 0x20 DUP3 ADD SWAP1 POP SWAP2 SWAP1 POP JUMP JUMPDEST PUSH0 PUSH1 0x60 DUP3 ADD SWAP1 POP DUP2 DUP2 SUB PUSH0 DUP4 ADD MSTORE PUSH2 0x116C DUP2 DUP5 PUSH2 0x10B0 JUMP JUMPDEST SWAP1 POP DUP2 DUP2 SUB PUSH1 0x20 DUP4 ADD MSTORE PUSH2 0x117F DUP2 PUSH2 0x10E8 JUMP JUMPDEST SWAP1 POP DUP2 DUP2 SUB PUSH1 0x40 DUP4 ADD MSTORE PUSH2 0x1192 DUP2 PUSH2 0x1132 JUMP JUMPDEST SWAP1 POP SWAP3 SWAP2 POP POP JUMP JUMPDEST PUSH0 PUSH2 0x11A6 PUSH1 0x7 DUP4 PUSH2 0xAA7 JUMP JUMPDEST SWAP2 POP PUSH2 0x11B1 DUP3 PUSH2 0x8B2 JUMP JUMPDEST PUSH1 0x20 DUP3 ADD SWAP1 POP SWAP2 SWAP1 POP JUMP JUMPDEST PUSH32 0x5365727669636520707572706F73652073686F756C64206D6174636820696E70 PUSH0 DUP3 ADD MSTORE PUSH32 0x75742E0000000000000000000000000000000000000000000000000000000000 PUSH1 0x20 DUP3 ADD MSTORE POP JUMP JUMPDEST PUSH0 PUSH2 0x1216 PUSH1 0x23 DUP4 PUSH2 0xAA7 JUMP JUMPDEST SWAP2 POP PUSH2 0x1221 DUP3 PUSH2 0x11BC JUMP JUMPDEST PUSH1 0x40 DUP3 ADD SWAP1 POP SWAP2 SWAP1 POP JUMP JUMPDEST PUSH0 PUSH1 0x60 DUP3 ADD SWAP1 POP DUP2 DUP2 SUB PUSH0 DUP4 ADD MSTORE PUSH2 0x1244 DUP2 DUP5 PUSH2 0x10B0 JUMP JUMPDEST SWAP1 POP DUP2 DUP2 SUB PUSH1 0x20 DUP4 ADD MSTORE PUSH2 0x1257 DUP2 PUSH2 0x119A JUMP JUMPDEST SWAP1 POP DUP2 DUP2 SUB PUSH1 0x40 DUP4 ADD MSTORE PUSH2 0x126A DUP2 PUSH2 0x120A JUMP JUMPDEST SWAP1 POP SWAP3 SWAP2 POP POP JUMP JUMPDEST PUSH2 0x127B DUP2 PUSH2 0xD2D JUMP JUMPDEST DUP3 MSTORE POP POP JUMP JUMPDEST PUSH32 0x4163746F722049442073686F756C64206D6174636820696E7075742E00000000 PUSH0 DUP3 ADD MSTORE POP JUMP JUMPDEST PUSH0 PUSH2 0x12B5 PUSH1 0x1C DUP4 PUSH2 0xAA7 JUMP JUMPDEST SWAP2 POP PUSH2 0x12C0 DUP3 PUSH2 0x1281 JUMP JUMPDEST PUSH1 0x20 DUP3 ADD SWAP1 POP SWAP2 SWAP1 POP JUMP JUMPDEST PUSH0 PUSH1 0x60 DUP3 ADD SWAP1 POP PUSH2 0x12DE PUSH0 DUP4 ADD DUP6 PUSH2 0xA98 JUMP JUMPDEST PUSH2 0x12EB PUSH1 0x20 DUP4 ADD DUP5 PUSH2 0x1272 JUMP JUMPDEST DUP2 DUP2 SUB PUSH1 0x40 DUP4 ADD MSTORE PUSH2 0x12FC DUP2 PUSH2 0x12A9 JUMP JUMPDEST SWAP1 POP SWAP4 SWAP3 POP POP POP JUMP JUMPDEST PUSH32 0x4F7065726174696F6E2073686F756C64206D6174636820696E7075742E000000 PUSH0 DUP3 ADD MSTORE POP JUMP JUMPDEST PUSH0 PUSH2 0x1339 PUSH1 0x1D DUP4 PUSH2 0xAA7 JUMP JUMPDEST SWAP2 POP PUSH2 0x1344 DUP3 PUSH2 0x1305 JUMP JUMPDEST PUSH1 0x20 DUP3 ADD SWAP1 POP SWAP2 SWAP1 POP JUMP JUMPDEST PUSH0 PUSH1 0x60 DUP3 ADD SWAP1 POP PUSH2 0x1362 PUSH0 DUP4 ADD DUP6 PUSH2 0xA98 JUMP JUMPDEST PUSH2 0x136F PUSH1 0x20 DUP4 ADD DUP5 PUSH2 0xA98 JUMP JUMPDEST DUP2 DUP2 SUB PUSH1 0x40 DUP4 ADD MSTORE PUSH2 0x1380 DUP2 PUSH2 0x132D JUMP JUMPDEST SWAP1 POP SWAP4 SWAP3 POP POP POP JUMP JUMPDEST PUSH2 0x1392 DUP2 PUSH2 0x90E JUMP JUMPDEST DUP3 MSTORE POP POP JUMP JUMPDEST PUSH32 0x506572736F6E616C2064617461204944732073686F756C64206D617463682069 PUSH0 DUP3 ADD MSTORE PUSH32 0x6E7075742E000000000000000000000000000000000000000000000000000000 PUSH1 0x20 DUP3 ADD MSTORE POP JUMP JUMPDEST PUSH0 PUSH2 0x13F2 PUSH1 0x25 DUP4 PUSH2 0xAA7 JUMP JUMPDEST SWAP2 POP PUSH2 0x13FD DUP3 PUSH2 0x1398 JUMP JUMPDEST PUSH1 0x40 DUP3 ADD SWAP1 POP SWAP2 SWAP1 POP JUMP JUMPDEST PUSH0 PUSH1 0x60 DUP3 ADD SWAP1 POP PUSH2 0x141B PUSH0 DUP4 ADD DUP6 PUSH2 0xA98 JUMP JUMPDEST PUSH2 0x1428 PUSH1 0x20 DUP4 ADD DUP5 PUSH2 0x1389 JUMP JUMPDEST DUP2 DUP2 SUB PUSH1 0x40 DUP4 ADD MSTORE PUSH2 0x1439 DUP2 PUSH2 0x13E6 JUMP JUMPDEST SWAP1 POP SWAP4 SWAP3 POP POP POP JUMP JUMPDEST PUSH2 0x144B DUP2 PUSH2 0x9B1 JUMP JUMPDEST DUP3 MSTORE POP POP JUMP JUMPDEST PUSH32 0x50726F63657373656420706572736F6E616C20646174612073686F756C64206D PUSH0 DUP3 ADD MSTORE PUSH32 0x6174636820696E7075742E000000000000000000000000000000000000000000 PUSH1 0x20 DUP3 ADD MSTORE POP JUMP JUMPDEST PUSH0 PUSH2 0x14AB PUSH1 0x2B DUP4 PUSH2 0xAA7 JUMP JUMPDEST SWAP2 POP PUSH2 0x14B6 DUP3 PUSH2 0x1451 JUMP JUMPDEST PUSH1 0x40 DUP3 ADD SWAP1 POP SWAP2 SWAP1 POP JUMP JUMPDEST PUSH0 PUSH1 0x60 DUP3 ADD SWAP1 POP PUSH2 0x14D4 PUSH0 DUP4 ADD DUP6 PUSH2 0x1442 JUMP JUMPDEST PUSH2 0x14E1 PUSH1 0x20 DUP4 ADD DUP5 PUSH2 0x1442 JUMP JUMPDEST DUP2 DUP2 SUB PUSH1 0x40 DUP4 ADD MSTORE PUSH2 0x14F2 DUP2 PUSH2 0x149F JUMP JUMPDEST SWAP1 POP SWAP4 SWAP3 POP POP POP JUMP INVALID PUSH1 0x80 PUSH1 0x40 MSTORE PUSH0 PUSH1 0x2 SSTORE PUSH0 PUSH1 0x4 SSTORE CALLVALUE DUP1 ISZERO PUSH2 0x17 JUMPI PUSH0 DUP1 REVERT JUMPDEST POP CALLER PUSH0 DUP1 PUSH2 0x100 EXP DUP2 SLOAD DUP2 PUSH20 0xFFFFFFFFFFFFFFFFFFFFFFFFFFFFFFFFFFFFFFFF MUL NOT AND SWAP1 DUP4 PUSH20 0xFFFFFFFFFFFFFFFFFFFFFFFFFFFFFFFFFFFFFFFF AND MUL OR SWAP1 SSTORE POP PUSH2 0x1055 DUP1 PUSH2 0x64 PUSH0 CODECOPY PUSH0 RETURN INVALID PUSH1 0x80 PUSH1 0x40 MSTORE CALLVALUE DUP1 ISZERO PUSH2 0xF JUMPI PUSH0 DUP1 REVERT JUMPDEST POP PUSH1 0x4 CALLDATASIZE LT PUSH2 0x60 JUMPI PUSH0 CALLDATALOAD PUSH1 0xE0 SHR DUP1 PUSH4 0x2F57B91C EQ PUSH2 0x64 JUMPI DUP1 PUSH4 0x4B58FBE9 EQ PUSH2 0x80 JUMPI DUP1 PUSH4 0x682477D7 EQ PUSH2 0x9E JUMPI DUP1 PUSH4 0x85F86E0D EQ PUSH2 0xBC JUMPI DUP1 PUSH4 0x8DA5CB5B EQ PUSH2 0xEC JUMPI DUP1 PUSH4 0xD2B0649A EQ PUSH2 0x10A JUMPI JUMPDEST PUSH0 DUP1 REVERT JUMPDEST PUSH2 0x7E PUSH1 0x4 DUP1 CALLDATASIZE SUB DUP2 ADD SWAP1 PUSH2 0x79 SWAP2 SWAP1 PUSH2 0x73D JUMP JUMPDEST PUSH2 0x13A JUMP JUMPDEST STOP JUMPDEST PUSH2 0x88 PUSH2 0x2B0 JUMP JUMPDEST PUSH1 0x40 MLOAD PUSH2 0x95 SWAP2 SWAP1 PUSH2 0x80D JUMP JUMPDEST PUSH1 0x40 MLOAD DUP1 SWAP2 SUB SWAP1 RETURN JUMPDEST PUSH2 0xA6 PUSH2 0x2B9 JUMP JUMPDEST PUSH1 0x40 MLOAD PUSH2 0xB3 SWAP2 SWAP1 PUSH2 0x80D JUMP JUMPDEST PUSH1 0x40 MLOAD DUP1 SWAP2 SUB SWAP1 RETURN JUMPDEST PUSH2 0xD6 PUSH1 0x4 DUP1 CALLDATASIZE SUB DUP2 ADD SWAP1 PUSH2 0xD1 SWAP2 SWAP1 PUSH2 0x826 JUMP JUMPDEST PUSH2 0x2C2 JUMP JUMPDEST PUSH1 0x40 MLOAD PUSH2 0xE3 SWAP2 SWAP1 PUSH2 0x8ED JUMP JUMPDEST PUSH1 0x40 MLOAD DUP1 SWAP2 SUB SWAP1 RETURN JUMPDEST PUSH2 0xF4 PUSH2 0x305 JUMP JUMPDEST PUSH1 0x40 MLOAD PUSH2 0x101 SWAP2 SWAP1 PUSH2 0x945 JUMP JUMPDEST PUSH1 0x40 MLOAD DUP1 SWAP2 SUB SWAP1 RETURN JUMPDEST PUSH2 0x124 PUSH1 0x4 DUP1 CALLDATASIZE SUB DUP2 ADD SWAP1 PUSH2 0x11F SWAP2 SWAP1 PUSH2 0x95E JUMP JUMPDEST PUSH2 0x328 JUMP JUMPDEST PUSH1 0x40 MLOAD PUSH2 0x131 SWAP2 SWAP1 PUSH2 0xB21 JUMP JUMPDEST PUSH1 0x40 MLOAD DUP1 SWAP2 SUB SWAP1 RETURN JUMPDEST PUSH0 DUP1 SLOAD SWAP1 PUSH2 0x100 EXP SWAP1 DIV PUSH20 0xFFFFFFFFFFFFFFFFFFFFFFFFFFFFFFFFFFFFFFFF AND PUSH20 0xFFFFFFFFFFFFFFFFFFFFFFFFFFFFFFFFFFFFFFFF AND CALLER PUSH20 0xFFFFFFFFFFFFFFFFFFFFFFFFFFFFFFFFFFFFFFFF AND EQ PUSH2 0x1C7 JUMPI PUSH1 0x40 MLOAD PUSH32 0x8C379A000000000000000000000000000000000000000000000000000000000 DUP2 MSTORE PUSH1 0x4 ADD PUSH2 0x1BE SWAP1 PUSH2 0xBC1 JUMP JUMPDEST PUSH1 0x40 MLOAD DUP1 SWAP2 SUB SWAP1 REVERT JUMPDEST PUSH1 0x40 MLOAD DUP1 PUSH1 0xC0 ADD PUSH1 0x40 MSTORE DUP1 DUP8 DUP2 MSTORE PUSH1 0x20 ADD DUP7 DUP2 MSTORE PUSH1 0x20 ADD DUP6 DUP2 MSTORE PUSH1 0x20 ADD DUP5 PUSH1 0x2 DUP2 GT ISZERO PUSH2 0x1F7 JUMPI PUSH2 0x1F6 PUSH2 0xA12 JUMP JUMPDEST JUMPDEST DUP2 MSTORE PUSH1 0x20 ADD DUP4 DUP2 MSTORE PUSH1 0x20 ADD DUP3 DUP2 MSTORE POP PUSH1 0x1 PUSH0 DUP7 DUP2 MSTORE PUSH1 0x20 ADD SWAP1 DUP2 MSTORE PUSH1 0x20 ADD PUSH0 KECCAK256 PUSH0 DUP3 ADD MLOAD DUP2 PUSH0 ADD SWAP1 DUP2 PUSH2 0x22A SWAP2 SWAP1 PUSH2 0xDD9 JUMP JUMPDEST POP PUSH1 0x20 DUP3 ADD MLOAD DUP2 PUSH1 0x1 ADD SWAP1 DUP2 PUSH2 0x240 SWAP2 SWAP1 PUSH2 0xDD9 JUMP JUMPDEST POP PUSH1 0x40 DUP3 ADD MLOAD DUP2 PUSH1 0x2 ADD SSTORE PUSH1 0x60 DUP3 ADD MLOAD DUP2 PUSH1 0x3 ADD PUSH0 PUSH2 0x100 EXP DUP2 SLOAD DUP2 PUSH1 0xFF MUL NOT AND SWAP1 DUP4 PUSH1 0x2 DUP2 GT ISZERO PUSH2 0x275 JUMPI PUSH2 0x274 PUSH2 0xA12 JUMP JUMPDEST JUMPDEST MUL OR SWAP1 SSTORE POP PUSH1 0x80 DUP3 ADD MLOAD DUP2 PUSH1 0x4 ADD SSTORE PUSH1 0xA0 DUP3 ADD MLOAD DUP2 PUSH1 0x5 ADD SSTORE SWAP1 POP POP PUSH1 0x2 PUSH0 DUP2 SLOAD DUP1 SWAP3 SWAP2 SWAP1 PUSH2 0x2A3 SWAP1 PUSH2 0xED5 JUMP JUMPDEST SWAP2 SWAP1 POP SSTORE POP POP POP POP POP POP POP JUMP JUMPDEST PUSH0 PUSH1 0x4 SLOAD SWAP1 POP SWAP1 JUMP JUMPDEST PUSH0 PUSH1 0x2 SLOAD SWAP1 POP SWAP1 JUMP JUMPDEST PUSH0 PUSH1 0x60 DUP6 DUP6 DUP6 DUP6 PUSH1 0x40 MLOAD PUSH1 0x20 ADD PUSH2 0x2DC SWAP5 SWAP4 SWAP3 SWAP2 SWAP1 PUSH2 0xF76 JUMP JUMPDEST PUSH1 0x40 MLOAD PUSH1 0x20 DUP2 DUP4 SUB SUB DUP2 MSTORE SWAP1 PUSH1 0x40 MSTORE SWAP1 POP PUSH0 DUP2 DUP1 MLOAD SWAP1 PUSH1 0x20 ADD KECCAK256 SWAP1 POP DUP1 SWAP3 POP POP POP SWAP5 SWAP4 POP POP POP POP JUMP JUMPDEST PUSH0 DUP1 SLOAD SWAP1 PUSH2 0x100 EXP SWAP1 DIV PUSH20 0xFFFFFFFFFFFFFFFFFFFFFFFFFFFFFFFFFFFFFFFF AND DUP2 JUMP JUMPDEST PUSH2 0x330 PUSH2 0x520 JUMP JUMPDEST PUSH0 PUSH1 0x1 PUSH0 DUP5 DUP2 MSTORE PUSH1 0x20 ADD SWAP1 DUP2 MSTORE PUSH1 0x20 ADD PUSH0 KECCAK256 PUSH1 0x2 ADD SLOAD SUB PUSH2 0x386 JUMPI PUSH1 0x40 MLOAD PUSH32 0x8C379A000000000000000000000000000000000000000000000000000000000 DUP2 MSTORE PUSH1 0x4 ADD PUSH2 0x37D SWAP1 PUSH2 0x1001 JUMP JUMPDEST PUSH1 0x40 MLOAD DUP1 SWAP2 SUB SWAP1 REVERT JUMPDEST PUSH1 0x1 PUSH0 DUP4 DUP2 MSTORE PUSH1 0x20 ADD SWAP1 DUP2 MSTORE PUSH1 0x20 ADD PUSH0 KECCAK256 PUSH1 0x40 MLOAD DUP1 PUSH1 0xC0 ADD PUSH1 0x40 MSTORE SWAP1 DUP2 PUSH0 DUP3 ADD DUP1 SLOAD PUSH2 0x3B1 SWAP1 PUSH2 0xC0C JUMP JUMPDEST DUP1 PUSH1 0x1F ADD PUSH1 0x20 DUP1 SWAP2 DIV MUL PUSH1 0x20 ADD PUSH1 0x40 MLOAD SWAP1 DUP2 ADD PUSH1 0x40 MSTORE DUP1 SWAP3 SWAP2 SWAP1 DUP2 DUP2 MSTORE PUSH1 0x20 ADD DUP3 DUP1 SLOAD PUSH2 0x3DD SWAP1 PUSH2 0xC0C JUMP JUMPDEST DUP1 ISZERO PUSH2 0x428 JUMPI DUP1 PUSH1 0x1F LT PUSH2 0x3FF JUMPI PUSH2 0x100 DUP1 DUP4 SLOAD DIV MUL DUP4 MSTORE SWAP2 PUSH1 0x20 ADD SWAP2 PUSH2 0x428 JUMP JUMPDEST DUP3 ADD SWAP2 SWAP1 PUSH0 MSTORE PUSH1 0x20 PUSH0 KECCAK256 SWAP1 JUMPDEST DUP2 SLOAD DUP2 MSTORE SWAP1 PUSH1 0x1 ADD SWAP1 PUSH1 0x20 ADD DUP1 DUP4 GT PUSH2 0x40B JUMPI DUP3 SWAP1 SUB PUSH1 0x1F AND DUP3 ADD SWAP2 JUMPDEST POP POP POP POP POP DUP2 MSTORE PUSH1 0x20 ADD PUSH1 0x1 DUP3 ADD DUP1 SLOAD PUSH2 0x441 SWAP1 PUSH2 0xC0C JUMP JUMPDEST DUP1 PUSH1 0x1F ADD PUSH1 0x20 DUP1 SWAP2 DIV MUL PUSH1 0x20 ADD PUSH1 0x40 MLOAD SWAP1 DUP2 ADD PUSH1 0x40 MSTORE DUP1 SWAP3 SWAP2 SWAP1 DUP2 DUP2 MSTORE PUSH1 0x20 ADD DUP3 DUP1 SLOAD PUSH2 0x46D SWAP1 PUSH2 0xC0C JUMP JUMPDEST DUP1 ISZERO PUSH2 0x4B8 JUMPI DUP1 PUSH1 0x1F LT PUSH2 0x48F JUMPI PUSH2 0x100 DUP1 DUP4 SLOAD DIV MUL DUP4 MSTORE SWAP2 PUSH1 0x20 ADD SWAP2 PUSH2 0x4B8 JUMP JUMPDEST DUP3 ADD SWAP2 SWAP1 PUSH0 MSTORE PUSH1 0x20 PUSH0 KECCAK256 SWAP1 JUMPDEST DUP2 SLOAD DUP2 MSTORE SWAP1 PUSH1 0x1 ADD SWAP1 PUSH1 0x20 ADD DUP1 DUP4 GT PUSH2 0x49B JUMPI DUP3 SWAP1 SUB PUSH1 0x1F AND DUP3 ADD SWAP2 JUMPDEST POP POP POP POP POP DUP2 MSTORE PUSH1 0x20 ADD PUSH1 0x2 DUP3 ADD SLOAD DUP2 MSTORE PUSH1 0x20 ADD PUSH1 0x3 DUP3 ADD PUSH0 SWAP1 SLOAD SWAP1 PUSH2 0x100 EXP SWAP1 DIV PUSH1 0xFF AND PUSH1 0x2 DUP2 GT ISZERO PUSH2 0x4EF JUMPI PUSH2 0x4EE PUSH2 0xA12 JUMP JUMPDEST JUMPDEST PUSH1 0x2 DUP2 GT ISZERO PUSH2 0x501 JUMPI PUSH2 0x500 PUSH2 0xA12 JUMP JUMPDEST JUMPDEST DUP2 MSTORE PUSH1 0x20 ADD PUSH1 0x4 DUP3 ADD SLOAD DUP2 MSTORE PUSH1 0x20 ADD PUSH1 0x5 DUP3 ADD SLOAD DUP2 MSTORE POP POP SWAP1 POP SWAP2 SWAP1 POP JUMP JUMPDEST PUSH1 0x40 MLOAD DUP1 PUSH1 0xC0 ADD PUSH1 0x40 MSTORE DUP1 PUSH1 0x60 DUP2 MSTORE PUSH1 0x20 ADD PUSH1 0x60 DUP2 MSTORE PUSH1 0x20 ADD PUSH0 DUP2 MSTORE PUSH1 0x20 ADD PUSH0 PUSH1 0x2 DUP2 GT ISZERO PUSH2 0x552 JUMPI PUSH2 0x551 PUSH2 0xA12 JUMP JUMPDEST JUMPDEST DUP2 MSTORE PUSH1 0x20 ADD PUSH0 DUP2 MSTORE PUSH1 0x20 ADD PUSH0 DUP1 NOT AND DUP2 MSTORE POP SWAP1 JUMP JUMPDEST PUSH0 PUSH1 0x40 MLOAD SWAP1 POP SWAP1 JUMP JUMPDEST PUSH0 DUP1 REVERT JUMPDEST PUSH0 DUP1 REVERT JUMPDEST PUSH0 DUP1 REVERT JUMPDEST PUSH0 DUP1 REVERT JUMPDEST PUSH0 PUSH1 0x1F NOT PUSH1 0x1F DUP4 ADD AND SWAP1 POP SWAP2 SWAP1 POP JUMP JUMPDEST PUSH32 0x4E487B7100000000000000000000000000000000000000000000000000000000 PUSH0 MSTORE PUSH1 0x41 PUSH1 0x4 MSTORE PUSH1 0x24 PUSH0 REVERT JUMPDEST PUSH2 0x5C6 DUP3 PUSH2 0x580 JUMP JUMPDEST DUP2 ADD DUP2 DUP2 LT PUSH8 0xFFFFFFFFFFFFFFFF DUP3 GT OR ISZERO PUSH2 0x5E5 JUMPI PUSH2 0x5E4 PUSH2 0x590 JUMP JUMPDEST JUMPDEST DUP1 PUSH1 0x40 MSTORE POP POP POP JUMP JUMPDEST PUSH0 PUSH2 0x5F7 PUSH2 0x567 JUMP JUMPDEST SWAP1 POP PUSH2 0x603 DUP3 DUP3 PUSH2 0x5BD JUMP JUMPDEST SWAP2 SWAP1 POP JUMP JUMPDEST PUSH0 PUSH8 0xFFFFFFFFFFFFFFFF DUP3 GT ISZERO PUSH2 0x622 JUMPI PUSH2 0x621 PUSH2 0x590 JUMP JUMPDEST JUMPDEST PUSH2 0x62B DUP3 PUSH2 0x580 JUMP JUMPDEST SWAP1 POP PUSH1 0x20 DUP2 ADD SWAP1 POP SWAP2 SWAP1 POP JUMP JUMPDEST DUP3 DUP2 DUP4 CALLDATACOPY PUSH0 DUP4 DUP4 ADD MSTORE POP POP POP JUMP JUMPDEST PUSH0 PUSH2 0x658 PUSH2 0x653 DUP5 PUSH2 0x608 JUMP JUMPDEST PUSH2 0x5EE JUMP JUMPDEST SWAP1 POP DUP3 DUP2 MSTORE PUSH1 0x20 DUP2 ADD DUP5 DUP5 DUP5 ADD GT ISZERO PUSH2 0x674 JUMPI PUSH2 0x673 PUSH2 0x57C JUMP JUMPDEST JUMPDEST PUSH2 0x67F DUP5 DUP3 DUP6 PUSH2 0x638 JUMP JUMPDEST POP SWAP4 SWAP3 POP POP POP JUMP JUMPDEST PUSH0 DUP3 PUSH1 0x1F DUP4 ADD SLT PUSH2 0x69B JUMPI PUSH2 0x69A PUSH2 0x578 JUMP JUMPDEST JUMPDEST DUP2 CALLDATALOAD PUSH2 0x6AB DUP5 DUP3 PUSH1 0x20 DUP7 ADD PUSH2 0x646 JUMP JUMPDEST SWAP2 POP POP SWAP3 SWAP2 POP POP JUMP JUMPDEST PUSH0 DUP2 SWAP1 POP SWAP2 SWAP1 POP JUMP JUMPDEST PUSH2 0x6C6 DUP2 PUSH2 0x6B4 JUMP JUMPDEST DUP2 EQ PUSH2 0x6D0 JUMPI PUSH0 DUP1 REVERT JUMPDEST POP JUMP JUMPDEST PUSH0 DUP2 CALLDATALOAD SWAP1 POP PUSH2 0x6E1 DUP2 PUSH2 0x6BD JUMP JUMPDEST SWAP3 SWAP2 POP POP JUMP JUMPDEST PUSH1 0x3 DUP2 LT PUSH2 0x6F3 JUMPI PUSH0 DUP1 REVERT JUMPDEST POP JUMP JUMPDEST PUSH0 DUP2 CALLDATALOAD SWAP1 POP PUSH2 0x704 DUP2 PUSH2 0x6E7 JUMP JUMPDEST SWAP3 SWAP2 POP POP JUMP JUMPDEST PUSH0 DUP2 SWAP1 POP SWAP2 SWAP1 POP JUMP JUMPDEST PUSH2 0x71C DUP2 PUSH2 0x70A JUMP JUMPDEST DUP2 EQ PUSH2 0x726 JUMPI PUSH0 DUP1 REVERT JUMPDEST POP JUMP JUMPDEST PUSH0 DUP2 CALLDATALOAD SWAP1 POP PUSH2 0x737 DUP2 PUSH2 0x713 JUMP JUMPDEST SWAP3 SWAP2 POP POP JUMP JUMPDEST PUSH0 DUP1 PUSH0 DUP1 PUSH0 DUP1 PUSH1 0xC0 DUP8 DUP10 SUB SLT ISZERO PUSH2 0x757 JUMPI PUSH2 0x756 PUSH2 0x570 JUMP JUMPDEST JUMPDEST PUSH0 DUP8 ADD CALLDATALOAD PUSH8 0xFFFFFFFFFFFFFFFF DUP2 GT ISZERO PUSH2 0x774 JUMPI PUSH2 0x773 PUSH2 0x574 JUMP JUMPDEST JUMPDEST PUSH2 0x780 DUP10 DUP3 DUP11 ADD PUSH2 0x687 JUMP JUMPDEST SWAP7 POP POP PUSH1 0x20 DUP8 ADD CALLDATALOAD PUSH8 0xFFFFFFFFFFFFFFFF DUP2 GT ISZERO PUSH2 0x7A1 JUMPI PUSH2 0x7A0 PUSH2 0x574 JUMP JUMPDEST JUMPDEST PUSH2 0x7AD DUP10 DUP3 DUP11 ADD PUSH2 0x687 JUMP JUMPDEST SWAP6 POP POP PUSH1 0x40 PUSH2 0x7BE DUP10 DUP3 DUP11 ADD PUSH2 0x6D3 JUMP JUMPDEST SWAP5 POP POP PUSH1 0x60 PUSH2 0x7CF DUP10 DUP3 DUP11 ADD PUSH2 0x6F6 JUMP JUMPDEST SWAP4 POP POP PUSH1 0x80 PUSH2 0x7E0 DUP10 DUP3 DUP11 ADD PUSH2 0x6D3 JUMP JUMPDEST SWAP3 POP POP PUSH1 0xA0 PUSH2 0x7F1 DUP10 DUP3 DUP11 ADD PUSH2 0x729 JUMP JUMPDEST SWAP2 POP POP SWAP3 SWAP6 POP SWAP3 SWAP6 POP SWAP3 SWAP6 JUMP JUMPDEST PUSH2 0x807 DUP2 PUSH2 0x6B4 JUMP JUMPDEST DUP3 MSTORE POP POP JUMP JUMPDEST PUSH0 PUSH1 0x20 DUP3 ADD SWAP1 POP PUSH2 0x820 PUSH0 DUP4 ADD DUP5 PUSH2 0x7FE JUMP JUMPDEST SWAP3 SWAP2 POP POP JUMP JUMPDEST PUSH0 DUP1 PUSH0 DUP1 PUSH1 0x80 DUP6 DUP8 SUB SLT ISZERO PUSH2 0x83E JUMPI PUSH2 0x83D PUSH2 0x570 JUMP JUMPDEST JUMPDEST PUSH0 PUSH2 0x84B DUP8 DUP3 DUP9 ADD PUSH2 0x6D3 JUMP JUMPDEST SWAP5 POP POP PUSH1 0x20 DUP6 ADD CALLDATALOAD PUSH8 0xFFFFFFFFFFFFFFFF DUP2 GT ISZERO PUSH2 0x86C JUMPI PUSH2 0x86B PUSH2 0x574 JUMP JUMPDEST JUMPDEST PUSH2 0x878 DUP8 DUP3 DUP9 ADD PUSH2 0x687 JUMP JUMPDEST SWAP4 POP POP PUSH1 0x40 DUP6 ADD CALLDATALOAD PUSH8 0xFFFFFFFFFFFFFFFF DUP2 GT ISZERO PUSH2 0x899 JUMPI PUSH2 0x898 PUSH2 0x574 JUMP JUMPDEST JUMPDEST PUSH2 0x8A5 DUP8 DUP3 DUP9 ADD PUSH2 0x687 JUMP JUMPDEST SWAP3 POP POP PUSH1 0x60 DUP6 ADD CALLDATALOAD PUSH8 0xFFFFFFFFFFFFFFFF DUP2 GT ISZERO PUSH2 0x8C6 JUMPI PUSH2 0x8C5 PUSH2 0x574 JUMP JUMPDEST JUMPDEST PUSH2 0x8D2 DUP8 DUP3 DUP9 ADD PUSH2 0x687 JUMP JUMPDEST SWAP2 POP POP SWAP3 SWAP6 SWAP2 SWAP5 POP SWAP3 POP JUMP JUMPDEST PUSH2 0x8E7 DUP2 PUSH2 0x70A JUMP JUMPDEST DUP3 MSTORE POP POP JUMP JUMPDEST PUSH0 PUSH1 0x20 DUP3 ADD SWAP1 POP PUSH2 0x900 PUSH0 DUP4 ADD DUP5 PUSH2 0x8DE JUMP JUMPDEST SWAP3 SWAP2 POP POP JUMP JUMPDEST PUSH0 PUSH20 0xFFFFFFFFFFFFFFFFFFFFFFFFFFFFFFFFFFFFFFFF DUP3 AND SWAP1 POP SWAP2 SWAP1 POP JUMP JUMPDEST PUSH0 PUSH2 0x92F DUP3 PUSH2 0x906 JUMP JUMPDEST SWAP1 POP SWAP2 SWAP1 POP JUMP JUMPDEST PUSH2 0x93F DUP2 PUSH2 0x925 JUMP JUMPDEST DUP3 MSTORE POP POP JUMP JUMPDEST PUSH0 PUSH1 0x20 DUP3 ADD SWAP1 POP PUSH2 0x958 PUSH0 DUP4 ADD DUP5 PUSH2 0x936 JUMP JUMPDEST SWAP3 SWAP2 POP POP JUMP JUMPDEST PUSH0 PUSH1 0x20 DUP3 DUP5 SUB SLT ISZERO PUSH2 0x973 JUMPI PUSH2 0x972 PUSH2 0x570 JUMP JUMPDEST JUMPDEST PUSH0 PUSH2 0x980 DUP5 DUP3 DUP6 ADD PUSH2 0x6D3 JUMP JUMPDEST SWAP2 POP POP SWAP3 SWAP2 POP POP JUMP JUMPDEST PUSH0 DUP2 MLOAD SWAP1 POP SWAP2 SWAP1 POP JUMP JUMPDEST PUSH0 DUP3 DUP3 MSTORE PUSH1 0x20 DUP3 ADD SWAP1 POP SWAP3 SWAP2 POP POP JUMP JUMPDEST PUSH0 JUMPDEST DUP4 DUP2 LT ISZERO PUSH2 0x9C0 JUMPI DUP1 DUP3 ADD MLOAD DUP2 DUP5 ADD MSTORE PUSH1 0x20 DUP2 ADD SWAP1 POP PUSH2 0x9A5 JUMP JUMPDEST PUSH0 DUP5 DUP5 ADD MSTORE POP POP POP POP JUMP JUMPDEST PUSH0 PUSH2 0x9D5 DUP3 PUSH2 0x989 JUMP JUMPDEST PUSH2 0x9DF DUP2 DUP6 PUSH2 0x993 JUMP JUMPDEST SWAP4 POP PUSH2 0x9EF DUP2 DUP6 PUSH1 0x20 DUP7 ADD PUSH2 0x9A3 JUMP JUMPDEST PUSH2 0x9F8 DUP2 PUSH2 0x580 JUMP JUMPDEST DUP5 ADD SWAP2 POP POP SWAP3 SWAP2 POP POP JUMP JUMPDEST PUSH2 0xA0C DUP2 PUSH2 0x6B4 JUMP JUMPDEST DUP3 MSTORE POP POP JUMP JUMPDEST PUSH32 0x4E487B7100000000000000000000000000000000000000000000000000000000 PUSH0 MSTORE PUSH1 0x21 PUSH1 0x4 MSTORE PUSH1 0x24 PUSH0 REVERT JUMPDEST PUSH1 0x3 DUP2 LT PUSH2 0xA50 JUMPI PUSH2 0xA4F PUSH2 0xA12 JUMP JUMPDEST JUMPDEST POP JUMP JUMPDEST PUSH0 DUP2 SWAP1 POP PUSH2 0xA60 DUP3 PUSH2 0xA3F JUMP JUMPDEST SWAP2 SWAP1 POP JUMP JUMPDEST PUSH0 PUSH2 0xA6F DUP3 PUSH2 0xA53 JUMP JUMPDEST SWAP1 POP SWAP2 SWAP1 POP JUMP JUMPDEST PUSH2 0xA7F DUP2 PUSH2 0xA65 JUMP JUMPDEST DUP3 MSTORE POP POP JUMP JUMPDEST PUSH2 0xA8E DUP2 PUSH2 0x70A JUMP JUMPDEST DUP3 MSTORE POP POP JUMP JUMPDEST PUSH0 PUSH1 0xC0 DUP4 ADD PUSH0 DUP4 ADD MLOAD DUP5 DUP3 SUB PUSH0 DUP7 ADD MSTORE PUSH2 0xAAE DUP3 DUP3 PUSH2 0x9CB JUMP JUMPDEST SWAP2 POP POP PUSH1 0x20 DUP4 ADD MLOAD DUP5 DUP3 SUB PUSH1 0x20 DUP7 ADD MSTORE PUSH2 0xAC8 DUP3 DUP3 PUSH2 0x9CB JUMP JUMPDEST SWAP2 POP POP PUSH1 0x40 DUP4 ADD MLOAD PUSH2 0xADD PUSH1 0x40 DUP7 ADD DUP3 PUSH2 0xA03 JUMP JUMPDEST POP PUSH1 0x60 DUP4 ADD MLOAD PUSH2 0xAF0 PUSH1 0x60 DUP7 ADD DUP3 PUSH2 0xA76 JUMP JUMPDEST POP PUSH1 0x80 DUP4 ADD MLOAD PUSH2 0xB03 PUSH1 0x80 DUP7 ADD DUP3 PUSH2 0xA03 JUMP JUMPDEST POP PUSH1 0xA0 DUP4 ADD MLOAD PUSH2 0xB16 PUSH1 0xA0 DUP7 ADD DUP3 PUSH2 0xA85 JUMP JUMPDEST POP DUP1 SWAP2 POP POP SWAP3 SWAP2 POP POP JUMP JUMPDEST PUSH0 PUSH1 0x20 DUP3 ADD SWAP1 POP DUP2 DUP2 SUB PUSH0 DUP4 ADD MSTORE PUSH2 0xB39 DUP2 DUP5 PUSH2 0xA94 JUMP JUMPDEST SWAP1 POP SWAP3 SWAP2 POP POP JUMP JUMPDEST PUSH0 DUP3 DUP3 MSTORE PUSH1 0x20 DUP3 ADD SWAP1 POP SWAP3 SWAP2 POP POP JUMP JUMPDEST PUSH32 0x4F6E6C792074686520636F6E7472616374206F776E65722063616E2070657266 PUSH0 DUP3 ADD MSTORE PUSH32 0x6F726D2074686973206F7065726174696F6E0000000000000000000000000000 PUSH1 0x20 DUP3 ADD MSTORE POP JUMP JUMPDEST PUSH0 PUSH2 0xBAB PUSH1 0x32 DUP4 PUSH2 0xB41 JUMP JUMPDEST SWAP2 POP PUSH2 0xBB6 DUP3 PUSH2 0xB51 JUMP JUMPDEST PUSH1 0x40 DUP3 ADD SWAP1 POP SWAP2 SWAP1 POP JUMP JUMPDEST PUSH0 PUSH1 0x20 DUP3 ADD SWAP1 POP DUP2 DUP2 SUB PUSH0 DUP4 ADD MSTORE PUSH2 0xBD8 DUP2 PUSH2 0xB9F JUMP JUMPDEST SWAP1 POP SWAP2 SWAP1 POP JUMP JUMPDEST PUSH32 0x4E487B7100000000000000000000000000000000000000000000000000000000 PUSH0 MSTORE PUSH1 0x22 PUSH1 0x4 MSTORE PUSH1 0x24 PUSH0 REVERT JUMPDEST PUSH0 PUSH1 0x2 DUP3 DIV SWAP1 POP PUSH1 0x1 DUP3 AND DUP1 PUSH2 0xC23 JUMPI PUSH1 0x7F DUP3 AND SWAP2 POP JUMPDEST PUSH1 0x20 DUP3 LT DUP2 SUB PUSH2 0xC36 JUMPI PUSH2 0xC35 PUSH2 0xBDF JUMP JUMPDEST JUMPDEST POP SWAP2 SWAP1 POP JUMP JUMPDEST PUSH0 DUP2 SWAP1 POP DUP2 PUSH0 MSTORE PUSH1 0x20 PUSH0 KECCAK256 SWAP1 POP SWAP2 SWAP1 POP JUMP JUMPDEST PUSH0 PUSH1 0x20 PUSH1 0x1F DUP4 ADD DIV SWAP1 POP SWAP2 SWAP1 POP JUMP JUMPDEST PUSH0 DUP3 DUP3 SHL SWAP1 POP SWAP3 SWAP2 POP POP JUMP JUMPDEST PUSH0 PUSH1 0x8 DUP4 MUL PUSH2 0xC98 PUSH32 0xFFFFFFFFFFFFFFFFFFFFFFFFFFFFFFFFFFFFFFFFFFFFFFFFFFFFFFFFFFFFFFFF DUP3 PUSH2 0xC5D JUMP JUMPDEST PUSH2 0xCA2 DUP7 DUP4 PUSH2 0xC5D JUMP JUMPDEST SWAP6 POP DUP1 NOT DUP5 AND SWAP4 POP DUP1 DUP7 AND DUP5 OR SWAP3 POP POP POP SWAP4 SWAP3 POP POP POP JUMP JUMPDEST PUSH0 DUP2 SWAP1 POP SWAP2 SWAP1 POP JUMP JUMPDEST PUSH0 PUSH2 0xCDD PUSH2 0xCD8 PUSH2 0xCD3 DUP5 PUSH2 0x6B4 JUMP JUMPDEST PUSH2 0xCBA JUMP JUMPDEST PUSH2 0x6B4 JUMP JUMPDEST SWAP1 POP SWAP2 SWAP1 POP JUMP JUMPDEST PUSH0 DUP2 SWAP1 POP SWAP2 SWAP1 POP JUMP JUMPDEST PUSH2 0xCF6 DUP4 PUSH2 0xCC3 JUMP JUMPDEST PUSH2 0xD0A PUSH2 0xD02 DUP3 PUSH2 0xCE4 JUMP JUMPDEST DUP5 DUP5 SLOAD PUSH2 0xC69 JUMP JUMPDEST DUP3 SSTORE POP POP POP POP JUMP JUMPDEST PUSH0 SWAP1 JUMP JUMPDEST PUSH2 0xD1E PUSH2 0xD12 JUMP JUMPDEST PUSH2 0xD29 DUP2 DUP5 DUP5 PUSH2 0xCED JUMP JUMPDEST POP POP POP JUMP JUMPDEST JUMPDEST DUP2 DUP2 LT ISZERO PUSH2 0xD4C JUMPI PUSH2 0xD41 PUSH0 DUP3 PUSH2 0xD16 JUMP JUMPDEST PUSH1 0x1 DUP2 ADD SWAP1 POP PUSH2 0xD2F JUMP JUMPDEST POP POP JUMP JUMPDEST PUSH1 0x1F DUP3 GT ISZERO PUSH2 0xD91 JUMPI PUSH2 0xD62 DUP2 PUSH2 0xC3C JUMP JUMPDEST PUSH2 0xD6B DUP5 PUSH2 0xC4E JUMP JUMPDEST DUP2 ADD PUSH1 0x20 DUP6 LT ISZERO PUSH2 0xD7A JUMPI DUP2 SWAP1 POP JUMPDEST PUSH2 0xD8E PUSH2 0xD86 DUP6 PUSH2 0xC4E JUMP JUMPDEST DUP4 ADD DUP3 PUSH2 0xD2E JUMP JUMPDEST POP POP JUMPDEST POP POP POP JUMP JUMPDEST PUSH0 DUP3 DUP3 SHR SWAP1 POP SWAP3 SWAP2 POP POP JUMP JUMPDEST PUSH0 PUSH2 0xDB1 PUSH0 NOT DUP5 PUSH1 0x8 MUL PUSH2 0xD96 JUMP JUMPDEST NOT DUP1 DUP4 AND SWAP2 POP POP SWAP3 SWAP2 POP POP JUMP JUMPDEST PUSH0 PUSH2 0xDC9 DUP4 DUP4 PUSH2 0xDA2 JUMP JUMPDEST SWAP2 POP DUP3 PUSH1 0x2 MUL DUP3 OR SWAP1 POP SWAP3 SWAP2 POP POP JUMP JUMPDEST PUSH2 0xDE2 DUP3 PUSH2 0x989 JUMP JUMPDEST PUSH8 0xFFFFFFFFFFFFFFFF DUP2 GT ISZERO PUSH2 0xDFB JUMPI PUSH2 0xDFA PUSH2 0x590 JUMP JUMPDEST JUMPDEST PUSH2 0xE05 DUP3 SLOAD PUSH2 0xC0C JUMP JUMPDEST PUSH2 0xE10 DUP3 DUP3 DUP6 PUSH2 0xD50 JUMP JUMPDEST PUSH0 PUSH1 0x20 SWAP1 POP PUSH1 0x1F DUP4 GT PUSH1 0x1 DUP2 EQ PUSH2 0xE41 JUMPI PUSH0 DUP5 ISZERO PUSH2 0xE2F JUMPI DUP3 DUP8 ADD MLOAD SWAP1 POP JUMPDEST PUSH2 0xE39 DUP6 DUP3 PUSH2 0xDBE JUMP JUMPDEST DUP7 SSTORE POP PUSH2 0xEA0 JUMP JUMPDEST PUSH1 0x1F NOT DUP5 AND PUSH2 0xE4F DUP7 PUSH2 0xC3C JUMP JUMPDEST PUSH0 JUMPDEST DUP3 DUP2 LT ISZERO PUSH2 0xE76 JUMPI DUP5 DUP10 ADD MLOAD DUP3 SSTORE PUSH1 0x1 DUP3 ADD SWAP2 POP PUSH1 0x20 DUP6 ADD SWAP5 POP PUSH1 0x20 DUP2 ADD SWAP1 POP PUSH2 0xE51 JUMP JUMPDEST DUP7 DUP4 LT ISZERO PUSH2 0xE93 JUMPI DUP5 DUP10 ADD MLOAD PUSH2 0xE8F PUSH1 0x1F DUP10 AND DUP3 PUSH2 0xDA2 JUMP JUMPDEST DUP4 SSTORE POP JUMPDEST PUSH1 0x1 PUSH1 0x2 DUP9 MUL ADD DUP9 SSTORE POP POP POP JUMPDEST POP POP POP POP POP POP JUMP JUMPDEST PUSH32 0x4E487B7100000000000000000000000000000000000000000000000000000000 PUSH0 MSTORE PUSH1 0x11 PUSH1 0x4 MSTORE PUSH1 0x24 PUSH0 REVERT JUMPDEST PUSH0 PUSH2 0xEDF DUP3 PUSH2 0x6B4 JUMP JUMPDEST SWAP2 POP PUSH32 0xFFFFFFFFFFFFFFFFFFFFFFFFFFFFFFFFFFFFFFFFFFFFFFFFFFFFFFFFFFFFFFFF DUP3 SUB PUSH2 0xF11 JUMPI PUSH2 0xF10 PUSH2 0xEA8 JUMP JUMPDEST JUMPDEST PUSH1 0x1 DUP3 ADD SWAP1 POP SWAP2 SWAP1 POP JUMP JUMPDEST PUSH0 DUP2 SWAP1 POP SWAP2 SWAP1 POP JUMP JUMPDEST PUSH2 0xF36 PUSH2 0xF31 DUP3 PUSH2 0x6B4 JUMP JUMPDEST PUSH2 0xF1C JUMP JUMPDEST DUP3 MSTORE POP POP JUMP JUMPDEST PUSH0 DUP2 SWAP1 POP SWAP3 SWAP2 POP POP JUMP JUMPDEST PUSH0 PUSH2 0xF50 DUP3 PUSH2 0x989 JUMP JUMPDEST PUSH2 0xF5A DUP2 DUP6 PUSH2 0xF3C JUMP JUMPDEST SWAP4 POP PUSH2 0xF6A DUP2 DUP6 PUSH1 0x20 DUP7 ADD PUSH2 0x9A3 JUMP JUMPDEST DUP1 DUP5 ADD SWAP2 POP POP SWAP3 SWAP2 POP POP JUMP JUMPDEST PUSH0 PUSH2 0xF81 DUP3 DUP8 PUSH2 0xF25 JUMP JUMPDEST PUSH1 0x20 DUP3 ADD SWAP2 POP PUSH2 0xF91 DUP3 DUP7 PUSH2 0xF46 JUMP JUMPDEST SWAP2 POP PUSH2 0xF9D DUP3 DUP6 PUSH2 0xF46 JUMP JUMPDEST SWAP2 POP PUSH2 0xFA9 DUP3 DUP5 PUSH2 0xF46 JUMP JUMPDEST SWAP2 POP DUP2 SWAP1 POP SWAP6 SWAP5 POP POP POP POP POP JUMP JUMPDEST PUSH32 0x44617461205573657220646F6573206E6F742065786973742E00000000000000 PUSH0 DUP3 ADD MSTORE POP JUMP JUMPDEST PUSH0 PUSH2 0xFEB PUSH1 0x19 DUP4 PUSH2 0xB41 JUMP JUMPDEST SWAP2 POP PUSH2 0xFF6 DUP3 PUSH2 0xFB7 JUMP JUMPDEST PUSH1 0x20 DUP3 ADD SWAP1 POP SWAP2 SWAP1 POP JUMP JUMPDEST PUSH0 PUSH1 0x20 DUP3 ADD SWAP1 POP DUP2 DUP2 SUB PUSH0 DUP4 ADD MSTORE PUSH2 0x1018 DUP2 PUSH2 0xFDF JUMP JUMPDEST SWAP1 POP SWAP2 SWAP1 POP JUMP INVALID LOG2 PUSH5 0x6970667358 0x22 SLT KECCAK256 TIMESTAMP 0xA6 0xBD 0xCE 0xB4 PUSH6 0x80B9A1E19338 PUSH8 0x83F37B0A8EC70380 PUSH10 0x51A8E90B479894A6C1C8 PUSH5 0x736F6C6343 STOP ADDMOD XOR STOP CALLER LOG2 PUSH5 0x6970667358 0x22 SLT KECCAK256 CODECOPY 0xB7 SWAP7 0xCD 0xC3 PUSH18 0x8E5262B0886F7FE239B65A699919B3818929 0xD PUSH15 0xF3EE25EEFB3764736F6C6343000818 STOP CALLER "
		},
		"gasEstimates": {
			"creation": {
				"codeDepositCost": "1941200",
				"executionCost": "2053",
				"totalCost": "1943253"
			},
			"external": {
				"beforeAll()": "infinite",
				"testAddDataUsageIncreasesCounter()": "infinite",
				"testGetDataUsageByKey()": "infinite"
			}
		},
		"methodIdentifiers": {
			"beforeAll()": "7fea0d4b",
			"testAddDataUsageIncreasesCounter()": "7ce34100",
			"testGetDataUsageByKey()": "85fb815d"
		}
	},
	"abi": [
		{
			"inputs": [],
			"name": "beforeAll",
			"outputs": [],
			"stateMutability": "nonpayable",
			"type": "function"
		},
		{
			"inputs": [],
			"name": "testAddDataUsageIncreasesCounter",
			"outputs": [],
			"stateMutability": "nonpayable",
			"type": "function"
		},
		{
			"inputs": [],
			"name": "testGetDataUsageByKey",
			"outputs": [],
			"stateMutability": "nonpayable",
			"type": "function"
		}
	]
}