{
	"data": {
		"bytecode": {
			"linkReferences": {
				"remix_tests.sol": {
					"Assert": [
						{
							"length": 20,
							"start": 316
						},
						{
							"length": 20,
							"start": 753
						},
						{
							"length": 20,
							"start": 884
						},
						{
							"length": 20,
							"start": 1015
						},
						{
							"length": 20,
							"start": 1147
						},
						{
							"length": 20,
							"start": 1275
						},
						{
							"length": 20,
							"start": 2470
						}
					]
				}
			},
			"object": "60806040526001600355348015610014575f80fd5b50615923806100225f395ff3fe608060405234801562000010575f80fd5b506004361062000050575f3560e01c8063014f76131462000054578063380ee6b114620000605780637fea0d4b146200006c578063c1fa318f1462000078575b5f80fd5b6200005e62000084565b005b6200006a6200019a565b005b620000766200055e565b005b62000082620008eb565b005b5f60015f9054906101000a900473ffffffffffffffffffffffffffffffffffffffff1673ffffffffffffffffffffffffffffffffffffffff166328e8be606040518163ffffffff1660e01b8152600401602060405180830381865afa158015620000f0573d5f803e3d5ffd5b505050506040513d601f19601f8201168201806040525081019062000116919062000a95565b905073__$acbfb1c35000d78352310b16a054a6b106$__63abcd79608260016040518363ffffffff1660e01b81526004016200015492919062000b7e565b602060405180830381865af415801562000170573d5f803e3d5ffd5b505050506040513d601f19601f8201168201806040525081019062000196919062000bf8565b5050565b60015f9054906101000a900473ffffffffffffffffffffffffffffffffffffffff1673ffffffffffffffffffffffffffffffffffffffff16633d1fee846003546040518263ffffffff1660e01b8152600401620001f8919062000c39565b5f604051808303815f87803b15801562000210575f80fd5b505af115801562000223573d5f803e3d5ffd5b505050505f60015f9054906101000a900473ffffffffffffffffffffffffffffffffffffffff1673ffffffffffffffffffffffffffffffffffffffff166303e4d77f6003546040518263ffffffff1660e01b815260040162000286919062000c39565b5f60405180830381865afa158015620002a1573d5f803e3d5ffd5b505050506040513d5f823e3d601f19601f82011682018060405250810190620002cb9190620010c8565b905073__$acbfb1c35000d78352310b16a054a6b106$__63abcd7960825f01516003546040518363ffffffff1660e01b81526004016200030d92919062001165565b602060405180830381865af415801562000329573d5f803e3d5ffd5b505050506040513d601f19601f820116820180604052508101906200034f919062000bf8565b5073__$acbfb1c35000d78352310b16a054a6b106$__63abcd7960826020015160016040518363ffffffff1660e01b815260040162000390929190620011f3565b602060405180830381865af4158015620003ac573d5f803e3d5ffd5b505050506040513d601f19601f82011682018060405250810190620003d2919062000bf8565b5073__$acbfb1c35000d78352310b16a054a6b106$__63abcd796082604001515160026040518363ffffffff1660e01b815260040162000414929190620012c2565b602060405180830381865af415801562000430573d5f803e3d5ffd5b505050506040513d601f19601f8201168201806040525081019062000456919062000bf8565b5073__$acbfb1c35000d78352310b16a054a6b106$__63e8c2cb1682606001516040518263ffffffff1660e01b8152600401620004949190620013e8565b602060405180830381865af4158015620004b0573d5f803e3d5ffd5b505050506040513d601f19601f82011682018060405250810190620004d6919062000bf8565b5073__$acbfb1c35000d78352310b16a054a6b106$__63abcd796082608001515160016040518363ffffffff1660e01b815260040162000518929190620014a8565b602060405180830381865af415801562000534573d5f803e3d5ffd5b505050506040513d601f19601f820116820180604052508101906200055a919062000bf8565b5050565b6040516200056c9062000a22565b604051809103905ff08015801562000586573d5f803e3d5ffd5b505f806101000a81548173ffffffffffffffffffffffffffffffffffffffff021916908373ffffffffffffffffffffffffffffffffffffffff160217905550604051620005d39062000a30565b604051809103905ff080158015620005ed573d5f803e3d5ffd5b5060025f6101000a81548173ffffffffffffffffffffffffffffffffffffffff021916908373ffffffffffffffffffffffffffffffffffffffff16021790555060025f9054906101000a900473ffffffffffffffffffffffffffffffffffffffff166040516200065d9062000a3e565b6200066991906200152b565b604051809103905ff08015801562000683573d5f803e3d5ffd5b5060015f6101000a81548173ffffffffffffffffffffffffffffffffffffffff021916908373ffffffffffffffffffffffffffffffffffffffff16021790555060025f9054906101000a900473ffffffffffffffffffffffffffffffffffffffff1673ffffffffffffffffffffffffffffffffffffffff166368e9243660016040518263ffffffff1660e01b8152600401620007209190620015b5565b5f604051808303815f87803b15801562000738575f80fd5b505af11580156200074b573d5f803e3d5ffd5b505050505f600267ffffffffffffffff8111156200076e576200076d62000c68565b5b604051908082528060200260200182016040528015620007a357816020015b60608152602001906001900390816200078d5790505b5090506040518060400160405280600481526020017f7265616400000000000000000000000000000000000000000000000000000000815250815f81518110620007f257620007f1620015e5565b5b60200260200101819052506040518060400160405280600581526020017f7772697465000000000000000000000000000000000000000000000000000000815250816001815181106200084a5762000849620015e5565b5b6020026020010181905250606060025f9054906101000a900473ffffffffffffffffffffffffffffffffffffffff1673ffffffffffffffffffffffffffffffffffffffff1663ca07b122600184846040518463ffffffff1660e01b8152600401620008b89392919062001866565b5f604051808303815f87803b158015620008d0575f80fd5b505af1158015620008e3573d5f803e3d5ffd5b505050505050565b5f60015f9054906101000a900473ffffffffffffffffffffffffffffffffffffffff1673ffffffffffffffffffffffffffffffffffffffff16638ae0be406040518163ffffffff1660e01b81526004015f60405180830381865afa15801562000956573d5f803e3d5ffd5b505050506040513d5f823e3d601f19601f82011682018060405250810190620009809190620019ac565b905073__$acbfb1c35000d78352310b16a054a6b106$__63abcd7960825f81518110620009b257620009b1620015e5565b5b60200260200101516003546040518363ffffffff1660e01b8152600401620009dc92919062001a49565b602060405180830381865af4158015620009f8573d5f803e3d5ffd5b505050506040513d601f19601f8201168201806040525081019062000a1e919062000bf8565b5050565b61014a8062001a8a83390190565b61242a8062001bd483390190565b6118f08062003ffe83390190565b5f604051905090565b5f80fd5b5f80fd5b5f819050919050565b62000a718162000a5d565b811462000a7c575f80fd5b50565b5f8151905062000a8f8162000a66565b92915050565b5f6020828403121562000aad5762000aac62000a55565b5b5f62000abc8482850162000a7f565b91505092915050565b62000ad08162000a5d565b82525050565b5f819050919050565b5f819050919050565b5f62000b0862000b0262000afc8462000ad6565b62000adf565b62000a5d565b9050919050565b62000b1a8162000ae8565b82525050565b5f82825260208201905092915050565b7f4c6f6720636f756e7465722073686f756c6420626520310000000000000000005f82015250565b5f62000b6660178362000b20565b915062000b738262000b30565b602082019050919050565b5f60608201905062000b935f83018562000ac5565b62000ba2602083018462000b0f565b818103604083015262000bb58162000b58565b90509392505050565b5f8115159050919050565b62000bd48162000bbe565b811462000bdf575f80fd5b50565b5f8151905062000bf28162000bc9565b92915050565b5f6020828403121562000c105762000c0f62000a55565b5b5f62000c1f8482850162000be2565b91505092915050565b62000c338162000a5d565b82525050565b5f60208201905062000c4e5f83018462000c28565b92915050565b5f80fd5b5f601f19601f8301169050919050565b7f4e487b71000000000000000000000000000000000000000000000000000000005f52604160045260245ffd5b62000ca08262000c58565b810181811067ffffffffffffffff8211171562000cc25762000cc162000c68565b5b80604052505050565b5f62000cd662000a4c565b905062000ce4828262000c95565b919050565b5f80fd5b5f80fd5b5f67ffffffffffffffff82111562000d0e5762000d0d62000c68565b5b602082029050602081019050919050565b5f80fd5b5f80fd5b5f67ffffffffffffffff82111562000d445762000d4362000c68565b5b62000d4f8262000c58565b9050602081019050919050565b5f5b8381101562000d7b57808201518184015260208101905062000d5e565b5f8484015250505050565b5f62000d9c62000d968462000d27565b62000ccb565b90508281526020810184848401111562000dbb5762000dba62000d23565b5b62000dc884828562000d5c565b509392505050565b5f82601f83011262000de75762000de662000ced565b5b815162000df984826020860162000d86565b91505092915050565b5f62000e1862000e128462000cf1565b62000ccb565b9050808382526020820190506020840283018581111562000e3e5762000e3d62000d1f565b5b835b8181101562000e8c57805167ffffffffffffffff81111562000e675762000e6662000ced565b5b80860162000e76898262000dd0565b8552602085019450505060208101905062000e40565b5050509392505050565b5f82601f83011262000ead5762000eac62000ced565b5b815162000ebf84826020860162000e02565b91505092915050565b5f67ffffffffffffffff82111562000ee55762000ee462000c68565b5b602082029050602081019050919050565b5f819050919050565b62000f0a8162000ef6565b811462000f15575f80fd5b50565b5f8151905062000f288162000eff565b92915050565b5f62000f4462000f3e8462000ec8565b62000ccb565b9050808382526020820190506020840283018581111562000f6a5762000f6962000d1f565b5b835b8181101562000f97578062000f82888262000f18565b84526020840193505060208101905062000f6c565b5050509392505050565b5f82601f83011262000fb85762000fb762000ced565b5b815162000fca84826020860162000f2e565b91505092915050565b5f60a0828403121562000feb5762000fea62000c54565b5b62000ff760a062000ccb565b90505f620010088482850162000a7f565b5f8301525060206200101d8482850162000a7f565b602083015250604082015167ffffffffffffffff81111562001044576200104362000ce9565b5b620010528482850162000e96565b604083015250606082015167ffffffffffffffff81111562001079576200107862000ce9565b5b620010878482850162000dd0565b606083015250608082015167ffffffffffffffff811115620010ae57620010ad62000ce9565b5b620010bc8482850162000fa1565b60808301525092915050565b5f60208284031215620010e057620010df62000a55565b5b5f82015167ffffffffffffffff8111156200110057620010ff62000a59565b5b6200110e8482850162000fd3565b91505092915050565b7f4461746120757361676520494420646f6573206e6f74206d61746368000000005f82015250565b5f6200114d601c8362000b20565b91506200115a8262001117565b602082019050919050565b5f6060820190506200117a5f83018562000ac5565b62001189602083018462000ac5565b81810360408301526200119c816200113f565b90509392505050565b7f4163746f7220494420646f6573206e6f74206d617463680000000000000000005f82015250565b5f620011db60178362000b20565b9150620011e882620011a5565b602082019050919050565b5f606082019050620012085f83018562000ac5565b62001217602083018462000b0f565b81810360408301526200122a81620011cd565b90509392505050565b5f819050919050565b5f6200125c62001256620012508462001233565b62000adf565b62000a5d565b9050919050565b6200126e816200123c565b82525050565b7f4f7065726174696f6e73206c656e67746820646f6573206e6f74206d617463685f82015250565b5f620012aa60208362000b20565b9150620012b78262001274565b602082019050919050565b5f606082019050620012d75f83018562000ac5565b620012e6602083018462001263565b8181036040830152620012f9816200129c565b90509392505050565b5f81519050919050565b5f620013188262001302565b62001324818562000b20565b93506200133681856020860162000d5c565b620013418162000c58565b840191505092915050565b7f53657276696365204142430000000000000000000000000000000000000000005f82015250565b5f62001382600b8362000b20565b91506200138f826200134c565b602082019050919050565b7f53657276696365206e616d6520646f6573206e6f74206d6174636800000000005f82015250565b5f620013d0601b8362000b20565b9150620013dd826200139a565b602082019050919050565b5f6060820190508181035f8301526200140281846200130c565b90508181036020830152620014178162001374565b905081810360408301526200142c81620013c2565b905092915050565b7f50726f63657373656420706572736f6e616c2064617461206c656e67746820645f8201527f6f6573206e6f74206d6174636800000000000000000000000000000000000000602082015250565b5f62001490602d8362000b20565b91506200149d8262001434565b604082019050919050565b5f606082019050620014bd5f83018562000ac5565b620014cc602083018462000b0f565b8181036040830152620014df8162001482565b90509392505050565b5f73ffffffffffffffffffffffffffffffffffffffff82169050919050565b5f6200151382620014e8565b9050919050565b620015258162001507565b82525050565b5f602082019050620015405f8301846200151a565b92915050565b620015518162000ae8565b82525050565b5f82825260208201905092915050565b7f436f6d70616e792058595a0000000000000000000000000000000000000000005f82015250565b5f6200159d600b8362001557565b9150620015aa8262001567565b602082019050919050565b5f604082019050620015ca5f83018462001546565b8181036020830152620015dd816200158f565b905092915050565b7f4e487b71000000000000000000000000000000000000000000000000000000005f52603260045260245ffd5b5f62001620600b8362001557565b91506200162d826200134c565b602082019050919050565b7f507572706f73652058595a0000000000000000000000000000000000000000005f82015250565b5f6200166e600b8362001557565b91506200167b8262001638565b602082019050919050565b5f81519050919050565b5f82825260208201905092915050565b5f819050602082019050919050565b5f82825260208201905092915050565b5f620016cb8262001302565b620016d78185620016af565b9350620016e981856020860162000d5c565b620016f48162000c58565b840191505092915050565b5f6200170c8383620016bf565b905092915050565b5f602082019050919050565b5f6200172c8262001686565b62001738818562001690565b9350836020820285016200174c85620016a0565b805f5b858110156200178d57848403895281516200176b8582620016ff565b9450620017788362001714565b925060208a019950506001810190506200174f565b50829750879550505050505092915050565b5f81519050919050565b5f82825260208201905092915050565b5f819050602082019050919050565b620017d38162000a5d565b82525050565b5f620017e68383620017c8565b60208301905092915050565b5f602082019050919050565b5f6200180a826200179f565b620018168185620017a9565b93506200182383620017b9565b805f5b83811015620018595781516200183d8882620017d9565b97506200184a83620017f2565b92505060018101905062001826565b5085935050505092915050565b5f60a0820190508181035f8301526200187f8162001612565b90508181036020830152620018948162001660565b9050620018a5604083018662001546565b8181036060830152620018b9818562001720565b90508181036080830152620018cf8184620017fe565b9050949350505050565b5f67ffffffffffffffff821115620018f657620018f562000c68565b5b602082029050602081019050919050565b5f6200191d6200191784620018d9565b62000ccb565b9050808382526020820190506020840283018581111562001943576200194262000d1f565b5b835b818110156200197057806200195b888262000a7f565b84526020840193505060208101905062001945565b5050509392505050565b5f82601f83011262001991576200199062000ced565b5b8151620019a384826020860162001907565b91505092915050565b5f60208284031215620019c457620019c362000a55565b5b5f82015167ffffffffffffffff811115620019e457620019e362000a59565b5b620019f2848285016200197a565b91505092915050565b7f4c6f67206b657920646f6573206e6f74206d61746368000000000000000000005f82015250565b5f62001a3160168362000b20565b915062001a3e82620019fb565b602082019050919050565b5f60608201905062001a5e5f83018562000ac5565b62001a6d602083018462000ac5565b818103604083015262001a808162001a23565b9050939250505056fe608060405234801561000f575f80fd5b50335f806101000a81548173ffffffffffffffffffffffffffffffffffffffff021916908373ffffffffffffffffffffffffffffffffffffffff16021790555060ef8061005b5f395ff3fe6080604052348015600e575f80fd5b50600436106026575f3560e01c80638da5cb5b14602a575b5f80fd5b60306044565b604051603b919060a2565b60405180910390f35b5f8054906101000a900473ffffffffffffffffffffffffffffffffffffffff1681565b5f73ffffffffffffffffffffffffffffffffffffffff82169050919050565b5f608e826067565b9050919050565b609c816086565b82525050565b5f60208201905060b35f8301846095565b9291505056fea2646970667358221220e74b9ee1a09e93f29c4eca8d7fb50edf71044774dbb8834581c301ea3fd2588464736f6c6343000818003360806040525f6005555f600755348015610017575f80fd5b50335f806101000a81548173ffffffffffffffffffffffffffffffffffffffff021916908373ffffffffffffffffffffffffffffffffffffffff1602179055506123c6806100645f395ff3fe608060405234801561000f575f80fd5b50600436106100b2575f3560e01c80638da5cb5b1161006f5780638da5cb5b14610164578063b61798f614610182578063c585665d146101b2578063ca07b122146101e2578063d2b0649a146101fe578063d8a761d91461022e576100b2565b80630dab7cd9146100b65780633a918356146100d25780633f81de59146100f05780634b58fbe91461010c578063682477d71461012a57806368e9243614610148575b5f80fd5b6100d060048036038101906100cb9190611478565b61025e565b005b6100da6103ab565b6040516100e79190611616565b60405180910390f35b61010a60048036038101906101059190611636565b610401565b005b61011461055a565b6040516101219190611670565b60405180910390f35b610132610563565b60405161013f9190611670565b60405180910390f35b610162600480360381019061015d9190611689565b61056c565b005b61016c61066a565b6040516101799190611722565b60405180910390f35b61019c60048036038101906101979190611636565b61068d565b6040516101a99190611753565b60405180910390f35b6101cc60048036038101906101c79190611636565b6106a7565b6040516101d99190611820565b60405180910390f35b6101fc60048036038101906101f79190611900565b6107c0565b005b61021860048036038101906102139190611636565b6109e0565b6040516102259190611c67565b60405180910390f35b61024860048036038101906102439190611636565b610d0a565b6040516102559190611d0f565b60405180910390f35b5f8054906101000a900473ffffffffffffffffffffffffffffffffffffffff1673ffffffffffffffffffffffffffffffffffffffff163373ffffffffffffffffffffffffffffffffffffffff16146102eb576040517f08c379a00000000000000000000000000000000000000000000000000000000081526004016102e290611daf565b60405180910390fd5b6040518060a001604052808681526020018581526020018481526020018381526020018281525060035f8781526020019081526020015f205f820151815f015560208201518160010190816103409190611fc7565b5060408201518160020190816103569190611fc7565b50606082015181600301908161036c9190611fc7565b506080820151816004019080519060200190610389929190611017565b5090505060075f81548092919061039f906120c3565b91905055505050505050565b606060068054806020026020016040519081016040528092919081815260200182805480156103f757602002820191905f5260205f20905b8154815260200190600101908083116103e3575b5050505050905090565b5f8054906101000a900473ffffffffffffffffffffffffffffffffffffffff1673ffffffffffffffffffffffffffffffffffffffff163373ffffffffffffffffffffffffffffffffffffffff161461048e576040517f08c379a000000000000000000000000000000000000000000000000000000000815260040161048590611daf565b60405180910390fd5b5f60035f8381526020019081526020015f20905060608160010182600201836003016040516020016104c293929190612194565b60405160208183030381529060405290505f5b826004018054905081101561053257818360040182815481106104fb576104fa6121c4565b5b905f5260205f2001604051602001610514929190612235565b604051602081830303815290604052915080806001019150506104d5565b505f818051906020012090508060045f8681526020019081526020015f208190555050505050565b5f600754905090565b5f600554905090565b5f8054906101000a900473ffffffffffffffffffffffffffffffffffffffff1673ffffffffffffffffffffffffffffffffffffffff163373ffffffffffffffffffffffffffffffffffffffff16146105f9576040517f08c379a00000000000000000000000000000000000000000000000000000000081526004016105f090611daf565b60405180910390fd5b60405180604001604052808381526020018281525060025f8481526020019081526020015f205f820151815f0155602082015181600101908161063c9190611fc7565b50905050600682908060018154018082558091505060019003905f5260205f20015f90919091909150555050565b5f8054906101000a900473ffffffffffffffffffffffffffffffffffffffff1681565b5f60045f8381526020019081526020015f20549050919050565b6106af61106e565b5f60025f8481526020019081526020015f205f015403610704576040517f08c379a00000000000000000000000000000000000000000000000000000000081526004016106fb906122a2565b60405180910390fd5b60025f8381526020019081526020015f206040518060400160405290815f820154815260200160018201805461073990611dfa565b80601f016020809104026020016040519081016040528092919081815260200182805461076590611dfa565b80156107b05780601f10610787576101008083540402835291602001916107b0565b820191905f5260205f20905b81548152906001019060200180831161079357829003601f168201915b5050505050815250509050919050565b5f8054906101000a900473ffffffffffffffffffffffffffffffffffffffff1673ffffffffffffffffffffffffffffffffffffffff163373ffffffffffffffffffffffffffffffffffffffff161461084d576040517f08c379a000000000000000000000000000000000000000000000000000000000815260040161084490611daf565b60405180910390fd5b5f815167ffffffffffffffff81111561086957610868611272565b5b6040519080825280602002602001820160405280156108975781602001602082028036833780820191505090505b5090505f5b82518110156108f4576108c88382815181106108bb576108ba6121c4565b5b602002602001015161068d565b8282815181106108db576108da6121c4565b5b602002602001018181525050808060010191505061089c565b506040518060c001604052808781526020018681526020018581526020018481526020018381526020018281525060015f8681526020019081526020015f205f820151815f0190816109469190611fc7565b50602082015181600101908161095c9190611fc7565b50604082015181600201556060820151816003019080519060200190610983929190611017565b5060808201518160040190805190602001906109a0929190611087565b5060a08201518160050190805190602001906109bd9291906110d2565b5090505060055f8154809291906109d3906120c3565b9190505550505050505050565b6109e861111d565b5f60015f8481526020019081526020015f206002015403610a3e576040517f08c379a0000000000000000000000000000000000000000000000000000000008152600401610a359061230a565b60405180910390fd5b60015f8381526020019081526020015f206040518060c00160405290815f82018054610a6990611dfa565b80601f0160208091040260200160405190810160405280929190818152602001828054610a9590611dfa565b8015610ae05780601f10610ab757610100808354040283529160200191610ae0565b820191905f5260205f20905b815481529060010190602001808311610ac357829003601f168201915b50505050508152602001600182018054610af990611dfa565b80601f0160208091040260200160405190810160405280929190818152602001828054610b2590611dfa565b8015610b705780601f10610b4757610100808354040283529160200191610b70565b820191905f5260205f20905b815481529060010190602001808311610b5357829003601f168201915b505050505081526020016002820154815260200160038201805480602002602001604051908101604052809291908181526020015f905b82821015610c4f578382905f5260205f20018054610bc490611dfa565b80601f0160208091040260200160405190810160405280929190818152602001828054610bf090611dfa565b8015610c3b5780601f10610c1257610100808354040283529160200191610c3b565b820191905f5260205f20905b815481529060010190602001808311610c1e57829003601f168201915b505050505081526020019060010190610ba7565b50505050815260200160048201805480602002602001604051908101604052809291908181526020018280548015610ca457602002820191905f5260205f20905b815481526020019060010190808311610c90575b5050505050815260200160058201805480602002602001604051908101604052809291908181526020018280548015610cfa57602002820191905f5260205f20905b815481526020019060010190808311610ce6575b5050505050815250509050919050565b610d12611152565b5f60035f8481526020019081526020015f205f015403610d67576040517f08c379a0000000000000000000000000000000000000000000000000000000008152600401610d5e90612372565b60405180910390fd5b60035f8381526020019081526020015f206040518060a00160405290815f8201548152602001600182018054610d9c90611dfa565b80601f0160208091040260200160405190810160405280929190818152602001828054610dc890611dfa565b8015610e135780601f10610dea57610100808354040283529160200191610e13565b820191905f5260205f20905b815481529060010190602001808311610df657829003601f168201915b50505050508152602001600282018054610e2c90611dfa565b80601f0160208091040260200160405190810160405280929190818152602001828054610e5890611dfa565b8015610ea35780601f10610e7a57610100808354040283529160200191610ea3565b820191905f5260205f20905b815481529060010190602001808311610e8657829003601f168201915b50505050508152602001600382018054610ebc90611dfa565b80601f0160208091040260200160405190810160405280929190818152602001828054610ee890611dfa565b8015610f335780601f10610f0a57610100808354040283529160200191610f33565b820191905f5260205f20905b815481529060010190602001808311610f1657829003601f168201915b5050505050815260200160048201805480602002602001604051908101604052809291908181526020015f905b82821015611008578382905f5260205f20018054610f7d90611dfa565b80601f0160208091040260200160405190810160405280929190818152602001828054610fa990611dfa565b8015610ff45780601f10610fcb57610100808354040283529160200191610ff4565b820191905f5260205f20905b815481529060010190602001808311610fd757829003601f168201915b505050505081526020019060010190610f60565b50505050815250509050919050565b828054828255905f5260205f2090810192821561105d579160200282015b8281111561105c57825182908161104c9190611fc7565b5091602001919060010190611035565b5b50905061106a9190611180565b5090565b60405180604001604052805f8152602001606081525090565b828054828255905f5260205f209081019282156110c1579160200282015b828111156110c05782518255916020019190600101906110a5565b5b5090506110ce91906111a3565b5090565b828054828255905f5260205f2090810192821561110c579160200282015b8281111561110b5782518255916020019190600101906110f0565b5b50905061111991906111be565b5090565b6040518060c0016040528060608152602001606081526020015f81526020016060815260200160608152602001606081525090565b6040518060a001604052805f8152602001606081526020016060815260200160608152602001606081525090565b5b8082111561119f575f818161119691906111d9565b50600101611181565b5090565b5b808211156111ba575f815f9055506001016111a4565b5090565b5b808211156111d5575f815f9055506001016111bf565b5090565b5080546111e590611dfa565b5f825580601f106111f65750611213565b601f0160209004905f5260205f209081019061121291906111a3565b5b50565b5f604051905090565b5f80fd5b5f80fd5b5f819050919050565b61123981611227565b8114611243575f80fd5b50565b5f8135905061125481611230565b92915050565b5f80fd5b5f80fd5b5f601f19601f8301169050919050565b7f4e487b71000000000000000000000000000000000000000000000000000000005f52604160045260245ffd5b6112a882611262565b810181811067ffffffffffffffff821117156112c7576112c6611272565b5b80604052505050565b5f6112d9611216565b90506112e5828261129f565b919050565b5f67ffffffffffffffff82111561130457611303611272565b5b61130d82611262565b9050602081019050919050565b828183375f83830152505050565b5f61133a611335846112ea565b6112d0565b9050828152602081018484840111156113565761135561125e565b5b61136184828561131a565b509392505050565b5f82601f83011261137d5761137c61125a565b5b813561138d848260208601611328565b91505092915050565b5f67ffffffffffffffff8211156113b0576113af611272565b5b602082029050602081019050919050565b5f80fd5b5f6113d76113d284611396565b6112d0565b905080838252602082019050602084028301858111156113fa576113f96113c1565b5b835b8181101561144157803567ffffffffffffffff81111561141f5761141e61125a565b5b80860161142c8982611369565b855260208501945050506020810190506113fc565b5050509392505050565b5f82601f83011261145f5761145e61125a565b5b813561146f8482602086016113c5565b91505092915050565b5f805f805f60a086880312156114915761149061121f565b5b5f61149e88828901611246565b955050602086013567ffffffffffffffff8111156114bf576114be611223565b5b6114cb88828901611369565b945050604086013567ffffffffffffffff8111156114ec576114eb611223565b5b6114f888828901611369565b935050606086013567ffffffffffffffff81111561151957611518611223565b5b61152588828901611369565b925050608086013567ffffffffffffffff81111561154657611545611223565b5b6115528882890161144b565b9150509295509295909350565b5f81519050919050565b5f82825260208201905092915050565b5f819050602082019050919050565b61159181611227565b82525050565b5f6115a28383611588565b60208301905092915050565b5f602082019050919050565b5f6115c48261155f565b6115ce8185611569565b93506115d983611579565b805f5b838110156116095781516115f08882611597565b97506115fb836115ae565b9250506001810190506115dc565b5085935050505092915050565b5f6020820190508181035f83015261162e81846115ba565b905092915050565b5f6020828403121561164b5761164a61121f565b5b5f61165884828501611246565b91505092915050565b61166a81611227565b82525050565b5f6020820190506116835f830184611661565b92915050565b5f806040838503121561169f5761169e61121f565b5b5f6116ac85828601611246565b925050602083013567ffffffffffffffff8111156116cd576116cc611223565b5b6116d985828601611369565b9150509250929050565b5f73ffffffffffffffffffffffffffffffffffffffff82169050919050565b5f61170c826116e3565b9050919050565b61171c81611702565b82525050565b5f6020820190506117355f830184611713565b92915050565b5f819050919050565b61174d8161173b565b82525050565b5f6020820190506117665f830184611744565b92915050565b5f81519050919050565b5f82825260208201905092915050565b5f5b838110156117a3578082015181840152602081019050611788565b5f8484015250505050565b5f6117b88261176c565b6117c28185611776565b93506117d2818560208601611786565b6117db81611262565b840191505092915050565b5f604083015f8301516117fb5f860182611588565b506020830151848203602086015261181382826117ae565b9150508091505092915050565b5f6020820190508181035f83015261183881846117e6565b905092915050565b5f67ffffffffffffffff82111561185a57611859611272565b5b602082029050602081019050919050565b5f61187d61187884611840565b6112d0565b905080838252602082019050602084028301858111156118a05761189f6113c1565b5b835b818110156118c957806118b58882611246565b8452602084019350506020810190506118a2565b5050509392505050565b5f82601f8301126118e7576118e661125a565b5b81356118f784826020860161186b565b91505092915050565b5f805f805f60a086880312156119195761191861121f565b5b5f86013567ffffffffffffffff81111561193657611935611223565b5b61194288828901611369565b955050602086013567ffffffffffffffff81111561196357611962611223565b5b61196f88828901611369565b945050604061198088828901611246565b935050606086013567ffffffffffffffff8111156119a1576119a0611223565b5b6119ad8882890161144b565b925050608086013567ffffffffffffffff8111156119ce576119cd611223565b5b6119da888289016118d3565b9150509295509295909350565b5f81519050919050565b5f82825260208201905092915050565b5f819050602082019050919050565b5f611a1b83836117ae565b905092915050565b5f602082019050919050565b5f611a39826119e7565b611a4381856119f1565b935083602082028501611a5585611a01565b805f5b85811015611a905784840389528151611a718582611a10565b9450611a7c83611a23565b925060208a01995050600181019050611a58565b50829750879550505050505092915050565b5f82825260208201905092915050565b5f611abc8261155f565b611ac68185611aa2565b9350611ad183611579565b805f5b83811015611b01578151611ae88882611597565b9750611af3836115ae565b925050600181019050611ad4565b5085935050505092915050565b5f81519050919050565b5f82825260208201905092915050565b5f819050602082019050919050565b611b408161173b565b82525050565b5f611b518383611b37565b60208301905092915050565b5f602082019050919050565b5f611b7382611b0e565b611b7d8185611b18565b9350611b8883611b28565b805f5b83811015611bb8578151611b9f8882611b46565b9750611baa83611b5d565b925050600181019050611b8b565b5085935050505092915050565b5f60c083015f8301518482035f860152611bdf82826117ae565b91505060208301518482036020860152611bf982826117ae565b9150506040830151611c0e6040860182611588565b5060608301518482036060860152611c268282611a2f565b91505060808301518482036080860152611c408282611ab2565b91505060a083015184820360a0860152611c5a8282611b69565b9150508091505092915050565b5f6020820190508181035f830152611c7f8184611bc5565b905092915050565b5f60a083015f830151611c9c5f860182611588565b5060208301518482036020860152611cb482826117ae565b91505060408301518482036040860152611cce82826117ae565b91505060608301518482036060860152611ce882826117ae565b91505060808301518482036080860152611d028282611a2f565b9150508091505092915050565b5f6020820190508181035f830152611d278184611c87565b905092915050565b5f82825260208201905092915050565b7f4f6e6c792074686520636f6e7472616374206f776e65722063616e20706572665f8201527f6f726d2074686973206f7065726174696f6e0000000000000000000000000000602082015250565b5f611d99603283611d2f565b9150611da482611d3f565b604082019050919050565b5f6020820190508181035f830152611dc681611d8d565b9050919050565b7f4e487b71000000000000000000000000000000000000000000000000000000005f52602260045260245ffd5b5f6002820490506001821680611e1157607f821691505b602082108103611e2457611e23611dcd565b5b50919050565b5f819050815f5260205f209050919050565b5f6020601f8301049050919050565b5f82821b905092915050565b5f60088302611e867fffffffffffffffffffffffffffffffffffffffffffffffffffffffffffffffff82611e4b565b611e908683611e4b565b95508019841693508086168417925050509392505050565b5f819050919050565b5f611ecb611ec6611ec184611227565b611ea8565b611227565b9050919050565b5f819050919050565b611ee483611eb1565b611ef8611ef082611ed2565b848454611e57565b825550505050565b5f90565b611f0c611f00565b611f17818484611edb565b505050565b5b81811015611f3a57611f2f5f82611f04565b600181019050611f1d565b5050565b601f821115611f7f57611f5081611e2a565b611f5984611e3c565b81016020851015611f68578190505b611f7c611f7485611e3c565b830182611f1c565b50505b505050565b5f82821c905092915050565b5f611f9f5f1984600802611f84565b1980831691505092915050565b5f611fb78383611f90565b9150826002028217905092915050565b611fd08261176c565b67ffffffffffffffff811115611fe957611fe8611272565b5b611ff38254611dfa565b611ffe828285611f3e565b5f60209050601f83116001811461202f575f841561201d578287015190505b6120278582611fac565b86555061208e565b601f19841661203d86611e2a565b5f5b828110156120645784890151825560018201915060208501945060208101905061203f565b86831015612081578489015161207d601f891682611f90565b8355505b6001600288020188555050505b505050505050565b7f4e487b71000000000000000000000000000000000000000000000000000000005f52601160045260245ffd5b5f6120cd82611227565b91507fffffffffffffffffffffffffffffffffffffffffffffffffffffffffffffffff82036120ff576120fe612096565b5b600182019050919050565b5f81905092915050565b5f815461212081611dfa565b61212a818661210a565b9450600182165f811461214457600181146121595761218b565b60ff198316865281151582028601935061218b565b61216285611e2a565b5f5b8381101561218357815481890152600182019150602081019050612164565b838801955050505b50505092915050565b5f61219f8286612114565b91506121ab8285612114565b91506121b78284612114565b9150819050949350505050565b7f4e487b71000000000000000000000000000000000000000000000000000000005f52603260045260245ffd5b5f81519050919050565b5f81905092915050565b5f61220f826121f1565b61221981856121fb565b9350612229818560208601611786565b80840191505092915050565b5f6122408285612205565b915061224c8284612114565b91508190509392505050565b7f4163746f7220646f6573206e6f742065786973742e00000000000000000000005f82015250565b5f61228c601583611d2f565b915061229782612258565b602082019050919050565b5f6020820190508181035f8301526122b981612280565b9050919050565b7f44617461205573657220646f6573206e6f742065786973742e000000000000005f82015250565b5f6122f4601983611d2f565b91506122ff826122c0565b602082019050919050565b5f6020820190508181035f830152612321816122e8565b9050919050565b7f506572736f6e616c4461746120646f6573206e6f742065786973742e000000005f82015250565b5f61235c601c83611d2f565b915061236782612328565b602082019050919050565b5f6020820190508181035f83015261238981612350565b905091905056fea2646970667358221220fa16bbbabe840822511143d98aa6f81f2f674738e9e3a7dc769e4316ad3d7fa064736f6c6343000818003360806040525f60045534801562000014575f80fd5b50604051620018f0380380620018f083398181016040528101906200003a919062000196565b335f806101000a81548173ffffffffffffffffffffffffffffffffffffffff021916908373ffffffffffffffffffffffffffffffffffffffff1602179055508060015f6101000a81548173ffffffffffffffffffffffffffffffffffffffff021916908373ffffffffffffffffffffffffffffffffffffffff1602179055505f73ffffffffffffffffffffffffffffffffffffffff168173ffffffffffffffffffffffffffffffffffffffff16036200012a576040517f08c379a000000000000000000000000000000000000000000000000000000000815260040162000121906200024a565b60405180910390fd5b506200026a565b5f80fd5b5f73ffffffffffffffffffffffffffffffffffffffff82169050919050565b5f620001608262000135565b9050919050565b620001728162000154565b81146200017d575f80fd5b50565b5f81519050620001908162000167565b92915050565b5f60208284031215620001ae57620001ad62000131565b5b5f620001bd8482850162000180565b91505092915050565b5f82825260208201905092915050565b7f446174615573616765536d617274436f6e7472616374206164647265737320695f8201527f7320696e76616c69642e00000000000000000000000000000000000000000000602082015250565b5f62000232602a83620001c6565b91506200023f82620001d6565b604082019050919050565b5f6020820190508181035f830152620002638162000224565b9050919050565b61167880620002785f395ff3fe608060405234801561000f575f80fd5b5060043610610055575f3560e01c806303e4d77f1461005957806328e8be60146100895780633d1fee84146100a75780638ae0be40146100c35780638da5cb5b146100e1575b5f80fd5b610073600480360381019061006e91906108b1565b6100ff565b6040516100809190610b71565b60405180910390f35b6100916102f7565b60405161009e9190610ba0565b60405180910390f35b6100c160048036038101906100bc91906108b1565b610300565b005b6100cb61068f565b6040516100d89190610c61565b60405180910390f35b6100e96106e5565b6040516100f69190610cc0565b60405180910390f35b610107610708565b60025f8381526020019081526020015f206040518060a00160405290815f82015481526020016001820154815260200160028201805480602002602001604051908101604052809291908181526020015f905b82821015610202578382905f5260205f2001805461017790610d06565b80601f01602080910402602001604051908101604052809291908181526020018280546101a390610d06565b80156101ee5780601f106101c5576101008083540402835291602001916101ee565b820191905f5260205f20905b8154815290600101906020018083116101d157829003601f168201915b50505050508152602001906001019061015a565b50505050815260200160038201805461021a90610d06565b80601f016020809104026020016040519081016040528092919081815260200182805461024690610d06565b80156102915780601f1061026857610100808354040283529160200191610291565b820191905f5260205f20905b81548152906001019060200180831161027457829003601f168201915b50505050508152602001600482018054806020026020016040519081016040528092919081815260200182805480156102e757602002820191905f5260205f20905b8154815260200190600101908083116102d3575b5050505050815250509050919050565b5f600454905090565b5f8054906101000a900473ffffffffffffffffffffffffffffffffffffffff1673ffffffffffffffffffffffffffffffffffffffff163373ffffffffffffffffffffffffffffffffffffffff161461038d576040517f08c379a000000000000000000000000000000000000000000000000000000000815260040161038490610db6565b60405180910390fd5b5f60015f9054906101000a900473ffffffffffffffffffffffffffffffffffffffff1673ffffffffffffffffffffffffffffffffffffffff1663d2b0649a836040518263ffffffff1660e01b81526004016103e89190610ba0565b5f60405180830381865afa158015610402573d5f803e3d5ffd5b505050506040513d5f823e3d601f19601f8201168201806040525081019061042a91906112c3565b90505f81608001515167ffffffffffffffff81111561044c5761044b610dd8565b5b60405190808252806020026020018201604052801561047a5781602001602082028036833780820191505090505b5090505f5b82608001515181101561056d5760015f9054906101000a900473ffffffffffffffffffffffffffffffffffffffff1673ffffffffffffffffffffffffffffffffffffffff1663b61798f6846080015183815181106104e0576104df61130a565b5b60200260200101516040518263ffffffff1660e01b81526004016105049190610ba0565b602060405180830381865afa15801561051f573d5f803e3d5ffd5b505050506040513d601f19601f820116820180604052508101906105439190611337565b8282815181106105565761055561130a565b5b60200260200101818152505080600101905061047f565b506040518060a001604052808481526020018360400151815260200183606001518152602001835f015181526020018281525060025f8581526020019081526020015f205f820151815f01556020820151816001015560408201518160020190805190602001906105df929190610735565b5060608201518160030190816105f591906114ff565b50608082015181600401908051906020019061061292919061078c565b50905050600383908060018154018082558091505060019003905f5260205f20015f909190919091505560045f81548092919061064e906115fb565b91905055507fc59b02a267f48426e708065a28f0948a454dafa87d33f04d8187b99b7203869f836040516106829190610ba0565b60405180910390a1505050565b606060038054806020026020016040519081016040528092919081815260200182805480156106db57602002820191905f5260205f20905b8154815260200190600101908083116106c7575b5050505050905090565b5f8054906101000a900473ffffffffffffffffffffffffffffffffffffffff1681565b6040518060a001604052805f81526020015f81526020016060815260200160608152602001606081525090565b828054828255905f5260205f2090810192821561077b579160200282015b8281111561077a57825182908161076a91906114ff565b5091602001919060010190610753565b5b50905061078891906107d7565b5090565b828054828255905f5260205f209081019282156107c6579160200282015b828111156107c55782518255916020019190600101906107aa565b5b5090506107d391906107fa565b5090565b5b808211156107f6575f81816107ed9190610815565b506001016107d8565b5090565b5b80821115610811575f815f9055506001016107fb565b5090565b50805461082190610d06565b5f825580601f10610832575061084f565b601f0160209004905f5260205f209081019061084e9190610852565b5b50565b5b80821115610869575f815f905550600101610853565b5090565b5f604051905090565b5f80fd5b5f80fd5b5f819050919050565b6108908161087e565b811461089a575f80fd5b50565b5f813590506108ab81610887565b92915050565b5f602082840312156108c6576108c5610876565b5b5f6108d38482850161089d565b91505092915050565b6108e58161087e565b82525050565b5f81519050919050565b5f82825260208201905092915050565b5f819050602082019050919050565b5f81519050919050565b5f82825260208201905092915050565b5f5b8381101561094b578082015181840152602081019050610930565b5f8484015250505050565b5f601f19601f8301169050919050565b5f61097082610914565b61097a818561091e565b935061098a81856020860161092e565b61099381610956565b840191505092915050565b5f6109a98383610966565b905092915050565b5f602082019050919050565b5f6109c7826108eb565b6109d181856108f5565b9350836020820285016109e385610905565b805f5b85811015610a1e57848403895281516109ff858261099e565b9450610a0a836109b1565b925060208a019950506001810190506109e6565b50829750879550505050505092915050565b5f81519050919050565b5f82825260208201905092915050565b5f819050602082019050919050565b5f819050919050565b610a6b81610a59565b82525050565b5f610a7c8383610a62565b60208301905092915050565b5f602082019050919050565b5f610a9e82610a30565b610aa88185610a3a565b9350610ab383610a4a565b805f5b83811015610ae3578151610aca8882610a71565b9750610ad583610a88565b925050600181019050610ab6565b5085935050505092915050565b5f60a083015f830151610b055f8601826108dc565b506020830151610b1860208601826108dc565b5060408301518482036040860152610b3082826109bd565b91505060608301518482036060860152610b4a8282610966565b91505060808301518482036080860152610b648282610a94565b9150508091505092915050565b5f6020820190508181035f830152610b898184610af0565b905092915050565b610b9a8161087e565b82525050565b5f602082019050610bb35f830184610b91565b92915050565b5f81519050919050565b5f82825260208201905092915050565b5f819050602082019050919050565b5f610bed83836108dc565b60208301905092915050565b5f602082019050919050565b5f610c0f82610bb9565b610c198185610bc3565b9350610c2483610bd3565b805f5b83811015610c54578151610c3b8882610be2565b9750610c4683610bf9565b925050600181019050610c27565b5085935050505092915050565b5f6020820190508181035f830152610c798184610c05565b905092915050565b5f73ffffffffffffffffffffffffffffffffffffffff82169050919050565b5f610caa82610c81565b9050919050565b610cba81610ca0565b82525050565b5f602082019050610cd35f830184610cb1565b92915050565b7f4e487b71000000000000000000000000000000000000000000000000000000005f52602260045260245ffd5b5f6002820490506001821680610d1d57607f821691505b602082108103610d3057610d2f610cd9565b5b50919050565b5f82825260208201905092915050565b7f4f6e6c792074686520636f6e7472616374206f776e65722063616e20706572665f8201527f6f726d2074686973206f7065726174696f6e0000000000000000000000000000602082015250565b5f610da0603283610d36565b9150610dab82610d46565b604082019050919050565b5f6020820190508181035f830152610dcd81610d94565b9050919050565b5f80fd5b7f4e487b71000000000000000000000000000000000000000000000000000000005f52604160045260245ffd5b610e0e82610956565b810181811067ffffffffffffffff82111715610e2d57610e2c610dd8565b5b80604052505050565b5f610e3f61086d565b9050610e4b8282610e05565b919050565b5f80fd5b5f80fd5b5f80fd5b5f67ffffffffffffffff821115610e7657610e75610dd8565b5b610e7f82610956565b9050602081019050919050565b5f610e9e610e9984610e5c565b610e36565b905082815260208101848484011115610eba57610eb9610e58565b5b610ec584828561092e565b509392505050565b5f82601f830112610ee157610ee0610e54565b5b8151610ef1848260208601610e8c565b91505092915050565b5f81519050610f0881610887565b92915050565b5f67ffffffffffffffff821115610f2857610f27610dd8565b5b602082029050602081019050919050565b5f80fd5b5f610f4f610f4a84610f0e565b610e36565b90508083825260208201905060208402830185811115610f7257610f71610f39565b5b835b81811015610fb957805167ffffffffffffffff811115610f9757610f96610e54565b5b808601610fa48982610ecd565b85526020850194505050602081019050610f74565b5050509392505050565b5f82601f830112610fd757610fd6610e54565b5b8151610fe7848260208601610f3d565b91505092915050565b5f67ffffffffffffffff82111561100a57611009610dd8565b5b602082029050602081019050919050565b5f61102d61102884610ff0565b610e36565b905080838252602082019050602084028301858111156110505761104f610f39565b5b835b8181101561107957806110658882610efa565b845260208401935050602081019050611052565b5050509392505050565b5f82601f83011261109757611096610e54565b5b81516110a784826020860161101b565b91505092915050565b5f67ffffffffffffffff8211156110ca576110c9610dd8565b5b602082029050602081019050919050565b6110e481610a59565b81146110ee575f80fd5b50565b5f815190506110ff816110db565b92915050565b5f611117611112846110b0565b610e36565b9050808382526020820190506020840283018581111561113a57611139610f39565b5b835b81811015611163578061114f88826110f1565b84526020840193505060208101905061113c565b5050509392505050565b5f82601f83011261118157611180610e54565b5b8151611191848260208601611105565b91505092915050565b5f60c082840312156111af576111ae610dd4565b5b6111b960c0610e36565b90505f82015167ffffffffffffffff8111156111d8576111d7610e50565b5b6111e484828501610ecd565b5f83015250602082015167ffffffffffffffff81111561120757611206610e50565b5b61121384828501610ecd565b602083015250604061122784828501610efa565b604083015250606082015167ffffffffffffffff81111561124b5761124a610e50565b5b61125784828501610fc3565b606083015250608082015167ffffffffffffffff81111561127b5761127a610e50565b5b61128784828501611083565b60808301525060a082015167ffffffffffffffff8111156112ab576112aa610e50565b5b6112b78482850161116d565b60a08301525092915050565b5f602082840312156112d8576112d7610876565b5b5f82015167ffffffffffffffff8111156112f5576112f461087a565b5b6113018482850161119a565b91505092915050565b7f4e487b71000000000000000000000000000000000000000000000000000000005f52603260045260245ffd5b5f6020828403121561134c5761134b610876565b5b5f611359848285016110f1565b91505092915050565b5f819050815f5260205f209050919050565b5f6020601f8301049050919050565b5f82821b905092915050565b5f600883026113be7fffffffffffffffffffffffffffffffffffffffffffffffffffffffffffffffff82611383565b6113c88683611383565b95508019841693508086168417925050509392505050565b5f819050919050565b5f6114036113fe6113f98461087e565b6113e0565b61087e565b9050919050565b5f819050919050565b61141c836113e9565b6114306114288261140a565b84845461138f565b825550505050565b5f90565b611444611438565b61144f818484611413565b505050565b5b81811015611472576114675f8261143c565b600181019050611455565b5050565b601f8211156114b75761148881611362565b61149184611374565b810160208510156114a0578190505b6114b46114ac85611374565b830182611454565b50505b505050565b5f82821c905092915050565b5f6114d75f19846008026114bc565b1980831691505092915050565b5f6114ef83836114c8565b9150826002028217905092915050565b61150882610914565b67ffffffffffffffff81111561152157611520610dd8565b5b61152b8254610d06565b611536828285611476565b5f60209050601f831160018114611567575f8415611555578287015190505b61155f85826114e4565b8655506115c6565b601f19841661157586611362565b5f5b8281101561159c57848901518255600182019150602085019450602081019050611577565b868310156115b957848901516115b5601f8916826114c8565b8355505b6001600288020188555050505b505050505050565b7f4e487b71000000000000000000000000000000000000000000000000000000005f52601160045260245ffd5b5f6116058261087e565b91507fffffffffffffffffffffffffffffffffffffffffffffffffffffffffffffffff8203611637576116366115ce565b5b60018201905091905056fea2646970667358221220b1e19a6680626b88ef5101036efc3d36a928abb63ef7d0037f3425fb2a70c46564736f6c63430008180033a2646970667358221220991efc7a0ee1c57e432e74640b1871e07a801e431f6126afb05f53485c21a3f764736f6c63430008180033",
			"opcodes": "PUSH1 0x80 PUSH1 0x40 MSTORE PUSH1 0x1 PUSH1 0x3 SSTORE CALLVALUE DUP1 ISZERO PUSH2 0x14 JUMPI PUSH0 DUP1 REVERT JUMPDEST POP PUSH2 0x5923 DUP1 PUSH2 0x22 PUSH0 CODECOPY PUSH0 RETURN INVALID PUSH1 0x80 PUSH1 0x40 MSTORE CALLVALUE DUP1 ISZERO PUSH3 0x10 JUMPI PUSH0 DUP1 REVERT JUMPDEST POP PUSH1 0x4 CALLDATASIZE LT PUSH3 0x50 JUMPI PUSH0 CALLDATALOAD PUSH1 0xE0 SHR DUP1 PUSH4 0x14F7613 EQ PUSH3 0x54 JUMPI DUP1 PUSH4 0x380EE6B1 EQ PUSH3 0x60 JUMPI DUP1 PUSH4 0x7FEA0D4B EQ PUSH3 0x6C JUMPI DUP1 PUSH4 0xC1FA318F EQ PUSH3 0x78 JUMPI JUMPDEST PUSH0 DUP1 REVERT JUMPDEST PUSH3 0x5E PUSH3 0x84 JUMP JUMPDEST STOP JUMPDEST PUSH3 0x6A PUSH3 0x19A JUMP JUMPDEST STOP JUMPDEST PUSH3 0x76 PUSH3 0x55E JUMP JUMPDEST STOP JUMPDEST PUSH3 0x82 PUSH3 0x8EB JUMP JUMPDEST STOP JUMPDEST PUSH0 PUSH1 0x1 PUSH0 SWAP1 SLOAD SWAP1 PUSH2 0x100 EXP SWAP1 DIV PUSH20 0xFFFFFFFFFFFFFFFFFFFFFFFFFFFFFFFFFFFFFFFF AND PUSH20 0xFFFFFFFFFFFFFFFFFFFFFFFFFFFFFFFFFFFFFFFF AND PUSH4 0x28E8BE60 PUSH1 0x40 MLOAD DUP2 PUSH4 0xFFFFFFFF AND PUSH1 0xE0 SHL DUP2 MSTORE PUSH1 0x4 ADD PUSH1 0x20 PUSH1 0x40 MLOAD DUP1 DUP4 SUB DUP2 DUP7 GAS STATICCALL ISZERO DUP1 ISZERO PUSH3 0xF0 JUMPI RETURNDATASIZE PUSH0 DUP1 RETURNDATACOPY RETURNDATASIZE PUSH0 REVERT JUMPDEST POP POP POP POP PUSH1 0x40 MLOAD RETURNDATASIZE PUSH1 0x1F NOT PUSH1 0x1F DUP3 ADD AND DUP3 ADD DUP1 PUSH1 0x40 MSTORE POP DUP2 ADD SWAP1 PUSH3 0x116 SWAP2 SWAP1 PUSH3 0xA95 JUMP JUMPDEST SWAP1 POP PUSH20 0x0 PUSH4 0xABCD7960 DUP3 PUSH1 0x1 PUSH1 0x40 MLOAD DUP4 PUSH4 0xFFFFFFFF AND PUSH1 0xE0 SHL DUP2 MSTORE PUSH1 0x4 ADD PUSH3 0x154 SWAP3 SWAP2 SWAP1 PUSH3 0xB7E JUMP JUMPDEST PUSH1 0x20 PUSH1 0x40 MLOAD DUP1 DUP4 SUB DUP2 DUP7 GAS DELEGATECALL ISZERO DUP1 ISZERO PUSH3 0x170 JUMPI RETURNDATASIZE PUSH0 DUP1 RETURNDATACOPY RETURNDATASIZE PUSH0 REVERT JUMPDEST POP POP POP POP PUSH1 0x40 MLOAD RETURNDATASIZE PUSH1 0x1F NOT PUSH1 0x1F DUP3 ADD AND DUP3 ADD DUP1 PUSH1 0x40 MSTORE POP DUP2 ADD SWAP1 PUSH3 0x196 SWAP2 SWAP1 PUSH3 0xBF8 JUMP JUMPDEST POP POP JUMP JUMPDEST PUSH1 0x1 PUSH0 SWAP1 SLOAD SWAP1 PUSH2 0x100 EXP SWAP1 DIV PUSH20 0xFFFFFFFFFFFFFFFFFFFFFFFFFFFFFFFFFFFFFFFF AND PUSH20 0xFFFFFFFFFFFFFFFFFFFFFFFFFFFFFFFFFFFFFFFF AND PUSH4 0x3D1FEE84 PUSH1 0x3 SLOAD PUSH1 0x40 MLOAD DUP3 PUSH4 0xFFFFFFFF AND PUSH1 0xE0 SHL DUP2 MSTORE PUSH1 0x4 ADD PUSH3 0x1F8 SWAP2 SWAP1 PUSH3 0xC39 JUMP JUMPDEST PUSH0 PUSH1 0x40 MLOAD DUP1 DUP4 SUB DUP2 PUSH0 DUP8 DUP1 EXTCODESIZE ISZERO DUP1 ISZERO PUSH3 0x210 JUMPI PUSH0 DUP1 REVERT JUMPDEST POP GAS CALL ISZERO DUP1 ISZERO PUSH3 0x223 JUMPI RETURNDATASIZE PUSH0 DUP1 RETURNDATACOPY RETURNDATASIZE PUSH0 REVERT JUMPDEST POP POP POP POP PUSH0 PUSH1 0x1 PUSH0 SWAP1 SLOAD SWAP1 PUSH2 0x100 EXP SWAP1 DIV PUSH20 0xFFFFFFFFFFFFFFFFFFFFFFFFFFFFFFFFFFFFFFFF AND PUSH20 0xFFFFFFFFFFFFFFFFFFFFFFFFFFFFFFFFFFFFFFFF AND PUSH4 0x3E4D77F PUSH1 0x3 SLOAD PUSH1 0x40 MLOAD DUP3 PUSH4 0xFFFFFFFF AND PUSH1 0xE0 SHL DUP2 MSTORE PUSH1 0x4 ADD PUSH3 0x286 SWAP2 SWAP1 PUSH3 0xC39 JUMP JUMPDEST PUSH0 PUSH1 0x40 MLOAD DUP1 DUP4 SUB DUP2 DUP7 GAS STATICCALL ISZERO DUP1 ISZERO PUSH3 0x2A1 JUMPI RETURNDATASIZE PUSH0 DUP1 RETURNDATACOPY RETURNDATASIZE PUSH0 REVERT JUMPDEST POP POP POP POP PUSH1 0x40 MLOAD RETURNDATASIZE PUSH0 DUP3 RETURNDATACOPY RETURNDATASIZE PUSH1 0x1F NOT PUSH1 0x1F DUP3 ADD AND DUP3 ADD DUP1 PUSH1 0x40 MSTORE POP DUP2 ADD SWAP1 PUSH3 0x2CB SWAP2 SWAP1 PUSH3 0x10C8 JUMP JUMPDEST SWAP1 POP PUSH20 0x0 PUSH4 0xABCD7960 DUP3 PUSH0 ADD MLOAD PUSH1 0x3 SLOAD PUSH1 0x40 MLOAD DUP4 PUSH4 0xFFFFFFFF AND PUSH1 0xE0 SHL DUP2 MSTORE PUSH1 0x4 ADD PUSH3 0x30D SWAP3 SWAP2 SWAP1 PUSH3 0x1165 JUMP JUMPDEST PUSH1 0x20 PUSH1 0x40 MLOAD DUP1 DUP4 SUB DUP2 DUP7 GAS DELEGATECALL ISZERO DUP1 ISZERO PUSH3 0x329 JUMPI RETURNDATASIZE PUSH0 DUP1 RETURNDATACOPY RETURNDATASIZE PUSH0 REVERT JUMPDEST POP POP POP POP PUSH1 0x40 MLOAD RETURNDATASIZE PUSH1 0x1F NOT PUSH1 0x1F DUP3 ADD AND DUP3 ADD DUP1 PUSH1 0x40 MSTORE POP DUP2 ADD SWAP1 PUSH3 0x34F SWAP2 SWAP1 PUSH3 0xBF8 JUMP JUMPDEST POP PUSH20 0x0 PUSH4 0xABCD7960 DUP3 PUSH1 0x20 ADD MLOAD PUSH1 0x1 PUSH1 0x40 MLOAD DUP4 PUSH4 0xFFFFFFFF AND PUSH1 0xE0 SHL DUP2 MSTORE PUSH1 0x4 ADD PUSH3 0x390 SWAP3 SWAP2 SWAP1 PUSH3 0x11F3 JUMP JUMPDEST PUSH1 0x20 PUSH1 0x40 MLOAD DUP1 DUP4 SUB DUP2 DUP7 GAS DELEGATECALL ISZERO DUP1 ISZERO PUSH3 0x3AC JUMPI RETURNDATASIZE PUSH0 DUP1 RETURNDATACOPY RETURNDATASIZE PUSH0 REVERT JUMPDEST POP POP POP POP PUSH1 0x40 MLOAD RETURNDATASIZE PUSH1 0x1F NOT PUSH1 0x1F DUP3 ADD AND DUP3 ADD DUP1 PUSH1 0x40 MSTORE POP DUP2 ADD SWAP1 PUSH3 0x3D2 SWAP2 SWAP1 PUSH3 0xBF8 JUMP JUMPDEST POP PUSH20 0x0 PUSH4 0xABCD7960 DUP3 PUSH1 0x40 ADD MLOAD MLOAD PUSH1 0x2 PUSH1 0x40 MLOAD DUP4 PUSH4 0xFFFFFFFF AND PUSH1 0xE0 SHL DUP2 MSTORE PUSH1 0x4 ADD PUSH3 0x414 SWAP3 SWAP2 SWAP1 PUSH3 0x12C2 JUMP JUMPDEST PUSH1 0x20 PUSH1 0x40 MLOAD DUP1 DUP4 SUB DUP2 DUP7 GAS DELEGATECALL ISZERO DUP1 ISZERO PUSH3 0x430 JUMPI RETURNDATASIZE PUSH0 DUP1 RETURNDATACOPY RETURNDATASIZE PUSH0 REVERT JUMPDEST POP POP POP POP PUSH1 0x40 MLOAD RETURNDATASIZE PUSH1 0x1F NOT PUSH1 0x1F DUP3 ADD AND DUP3 ADD DUP1 PUSH1 0x40 MSTORE POP DUP2 ADD SWAP1 PUSH3 0x456 SWAP2 SWAP1 PUSH3 0xBF8 JUMP JUMPDEST POP PUSH20 0x0 PUSH4 0xE8C2CB16 DUP3 PUSH1 0x60 ADD MLOAD PUSH1 0x40 MLOAD DUP3 PUSH4 0xFFFFFFFF AND PUSH1 0xE0 SHL DUP2 MSTORE PUSH1 0x4 ADD PUSH3 0x494 SWAP2 SWAP1 PUSH3 0x13E8 JUMP JUMPDEST PUSH1 0x20 PUSH1 0x40 MLOAD DUP1 DUP4 SUB DUP2 DUP7 GAS DELEGATECALL ISZERO DUP1 ISZERO PUSH3 0x4B0 JUMPI RETURNDATASIZE PUSH0 DUP1 RETURNDATACOPY RETURNDATASIZE PUSH0 REVERT JUMPDEST POP POP POP POP PUSH1 0x40 MLOAD RETURNDATASIZE PUSH1 0x1F NOT PUSH1 0x1F DUP3 ADD AND DUP3 ADD DUP1 PUSH1 0x40 MSTORE POP DUP2 ADD SWAP1 PUSH3 0x4D6 SWAP2 SWAP1 PUSH3 0xBF8 JUMP JUMPDEST POP PUSH20 0x0 PUSH4 0xABCD7960 DUP3 PUSH1 0x80 ADD MLOAD MLOAD PUSH1 0x1 PUSH1 0x40 MLOAD DUP4 PUSH4 0xFFFFFFFF AND PUSH1 0xE0 SHL DUP2 MSTORE PUSH1 0x4 ADD PUSH3 0x518 SWAP3 SWAP2 SWAP1 PUSH3 0x14A8 JUMP JUMPDEST PUSH1 0x20 PUSH1 0x40 MLOAD DUP1 DUP4 SUB DUP2 DUP7 GAS DELEGATECALL ISZERO DUP1 ISZERO PUSH3 0x534 JUMPI RETURNDATASIZE PUSH0 DUP1 RETURNDATACOPY RETURNDATASIZE PUSH0 REVERT JUMPDEST POP POP POP POP PUSH1 0x40 MLOAD RETURNDATASIZE PUSH1 0x1F NOT PUSH1 0x1F DUP3 ADD AND DUP3 ADD DUP1 PUSH1 0x40 MSTORE POP DUP2 ADD SWAP1 PUSH3 0x55A SWAP2 SWAP1 PUSH3 0xBF8 JUMP JUMPDEST POP POP JUMP JUMPDEST PUSH1 0x40 MLOAD PUSH3 0x56C SWAP1 PUSH3 0xA22 JUMP JUMPDEST PUSH1 0x40 MLOAD DUP1 SWAP2 SUB SWAP1 PUSH0 CREATE DUP1 ISZERO DUP1 ISZERO PUSH3 0x586 JUMPI RETURNDATASIZE PUSH0 DUP1 RETURNDATACOPY RETURNDATASIZE PUSH0 REVERT JUMPDEST POP PUSH0 DUP1 PUSH2 0x100 EXP DUP2 SLOAD DUP2 PUSH20 0xFFFFFFFFFFFFFFFFFFFFFFFFFFFFFFFFFFFFFFFF MUL NOT AND SWAP1 DUP4 PUSH20 0xFFFFFFFFFFFFFFFFFFFFFFFFFFFFFFFFFFFFFFFF AND MUL OR SWAP1 SSTORE POP PUSH1 0x40 MLOAD PUSH3 0x5D3 SWAP1 PUSH3 0xA30 JUMP JUMPDEST PUSH1 0x40 MLOAD DUP1 SWAP2 SUB SWAP1 PUSH0 CREATE DUP1 ISZERO DUP1 ISZERO PUSH3 0x5ED JUMPI RETURNDATASIZE PUSH0 DUP1 RETURNDATACOPY RETURNDATASIZE PUSH0 REVERT JUMPDEST POP PUSH1 0x2 PUSH0 PUSH2 0x100 EXP DUP2 SLOAD DUP2 PUSH20 0xFFFFFFFFFFFFFFFFFFFFFFFFFFFFFFFFFFFFFFFF MUL NOT AND SWAP1 DUP4 PUSH20 0xFFFFFFFFFFFFFFFFFFFFFFFFFFFFFFFFFFFFFFFF AND MUL OR SWAP1 SSTORE POP PUSH1 0x2 PUSH0 SWAP1 SLOAD SWAP1 PUSH2 0x100 EXP SWAP1 DIV PUSH20 0xFFFFFFFFFFFFFFFFFFFFFFFFFFFFFFFFFFFFFFFF AND PUSH1 0x40 MLOAD PUSH3 0x65D SWAP1 PUSH3 0xA3E JUMP JUMPDEST PUSH3 0x669 SWAP2 SWAP1 PUSH3 0x152B JUMP JUMPDEST PUSH1 0x40 MLOAD DUP1 SWAP2 SUB SWAP1 PUSH0 CREATE DUP1 ISZERO DUP1 ISZERO PUSH3 0x683 JUMPI RETURNDATASIZE PUSH0 DUP1 RETURNDATACOPY RETURNDATASIZE PUSH0 REVERT JUMPDEST POP PUSH1 0x1 PUSH0 PUSH2 0x100 EXP DUP2 SLOAD DUP2 PUSH20 0xFFFFFFFFFFFFFFFFFFFFFFFFFFFFFFFFFFFFFFFF MUL NOT AND SWAP1 DUP4 PUSH20 0xFFFFFFFFFFFFFFFFFFFFFFFFFFFFFFFFFFFFFFFF AND MUL OR SWAP1 SSTORE POP PUSH1 0x2 PUSH0 SWAP1 SLOAD SWAP1 PUSH2 0x100 EXP SWAP1 DIV PUSH20 0xFFFFFFFFFFFFFFFFFFFFFFFFFFFFFFFFFFFFFFFF AND PUSH20 0xFFFFFFFFFFFFFFFFFFFFFFFFFFFFFFFFFFFFFFFF AND PUSH4 0x68E92436 PUSH1 0x1 PUSH1 0x40 MLOAD DUP3 PUSH4 0xFFFFFFFF AND PUSH1 0xE0 SHL DUP2 MSTORE PUSH1 0x4 ADD PUSH3 0x720 SWAP2 SWAP1 PUSH3 0x15B5 JUMP JUMPDEST PUSH0 PUSH1 0x40 MLOAD DUP1 DUP4 SUB DUP2 PUSH0 DUP8 DUP1 EXTCODESIZE ISZERO DUP1 ISZERO PUSH3 0x738 JUMPI PUSH0 DUP1 REVERT JUMPDEST POP GAS CALL ISZERO DUP1 ISZERO PUSH3 0x74B JUMPI RETURNDATASIZE PUSH0 DUP1 RETURNDATACOPY RETURNDATASIZE PUSH0 REVERT JUMPDEST POP POP POP POP PUSH0 PUSH1 0x2 PUSH8 0xFFFFFFFFFFFFFFFF DUP2 GT ISZERO PUSH3 0x76E JUMPI PUSH3 0x76D PUSH3 0xC68 JUMP JUMPDEST JUMPDEST PUSH1 0x40 MLOAD SWAP1 DUP1 DUP3 MSTORE DUP1 PUSH1 0x20 MUL PUSH1 0x20 ADD DUP3 ADD PUSH1 0x40 MSTORE DUP1 ISZERO PUSH3 0x7A3 JUMPI DUP2 PUSH1 0x20 ADD JUMPDEST PUSH1 0x60 DUP2 MSTORE PUSH1 0x20 ADD SWAP1 PUSH1 0x1 SWAP1 SUB SWAP1 DUP2 PUSH3 0x78D JUMPI SWAP1 POP JUMPDEST POP SWAP1 POP PUSH1 0x40 MLOAD DUP1 PUSH1 0x40 ADD PUSH1 0x40 MSTORE DUP1 PUSH1 0x4 DUP2 MSTORE PUSH1 0x20 ADD PUSH32 0x7265616400000000000000000000000000000000000000000000000000000000 DUP2 MSTORE POP DUP2 PUSH0 DUP2 MLOAD DUP2 LT PUSH3 0x7F2 JUMPI PUSH3 0x7F1 PUSH3 0x15E5 JUMP JUMPDEST JUMPDEST PUSH1 0x20 MUL PUSH1 0x20 ADD ADD DUP2 SWAP1 MSTORE POP PUSH1 0x40 MLOAD DUP1 PUSH1 0x40 ADD PUSH1 0x40 MSTORE DUP1 PUSH1 0x5 DUP2 MSTORE PUSH1 0x20 ADD PUSH32 0x7772697465000000000000000000000000000000000000000000000000000000 DUP2 MSTORE POP DUP2 PUSH1 0x1 DUP2 MLOAD DUP2 LT PUSH3 0x84A JUMPI PUSH3 0x849 PUSH3 0x15E5 JUMP JUMPDEST JUMPDEST PUSH1 0x20 MUL PUSH1 0x20 ADD ADD DUP2 SWAP1 MSTORE POP PUSH1 0x60 PUSH1 0x2 PUSH0 SWAP1 SLOAD SWAP1 PUSH2 0x100 EXP SWAP1 DIV PUSH20 0xFFFFFFFFFFFFFFFFFFFFFFFFFFFFFFFFFFFFFFFF AND PUSH20 0xFFFFFFFFFFFFFFFFFFFFFFFFFFFFFFFFFFFFFFFF AND PUSH4 0xCA07B122 PUSH1 0x1 DUP5 DUP5 PUSH1 0x40 MLOAD DUP5 PUSH4 0xFFFFFFFF AND PUSH1 0xE0 SHL DUP2 MSTORE PUSH1 0x4 ADD PUSH3 0x8B8 SWAP4 SWAP3 SWAP2 SWAP1 PUSH3 0x1866 JUMP JUMPDEST PUSH0 PUSH1 0x40 MLOAD DUP1 DUP4 SUB DUP2 PUSH0 DUP8 DUP1 EXTCODESIZE ISZERO DUP1 ISZERO PUSH3 0x8D0 JUMPI PUSH0 DUP1 REVERT JUMPDEST POP GAS CALL ISZERO DUP1 ISZERO PUSH3 0x8E3 JUMPI RETURNDATASIZE PUSH0 DUP1 RETURNDATACOPY RETURNDATASIZE PUSH0 REVERT JUMPDEST POP POP POP POP POP POP JUMP JUMPDEST PUSH0 PUSH1 0x1 PUSH0 SWAP1 SLOAD SWAP1 PUSH2 0x100 EXP SWAP1 DIV PUSH20 0xFFFFFFFFFFFFFFFFFFFFFFFFFFFFFFFFFFFFFFFF AND PUSH20 0xFFFFFFFFFFFFFFFFFFFFFFFFFFFFFFFFFFFFFFFF AND PUSH4 0x8AE0BE40 PUSH1 0x40 MLOAD DUP2 PUSH4 0xFFFFFFFF AND PUSH1 0xE0 SHL DUP2 MSTORE PUSH1 0x4 ADD PUSH0 PUSH1 0x40 MLOAD DUP1 DUP4 SUB DUP2 DUP7 GAS STATICCALL ISZERO DUP1 ISZERO PUSH3 0x956 JUMPI RETURNDATASIZE PUSH0 DUP1 RETURNDATACOPY RETURNDATASIZE PUSH0 REVERT JUMPDEST POP POP POP POP PUSH1 0x40 MLOAD RETURNDATASIZE PUSH0 DUP3 RETURNDATACOPY RETURNDATASIZE PUSH1 0x1F NOT PUSH1 0x1F DUP3 ADD AND DUP3 ADD DUP1 PUSH1 0x40 MSTORE POP DUP2 ADD SWAP1 PUSH3 0x980 SWAP2 SWAP1 PUSH3 0x19AC JUMP JUMPDEST SWAP1 POP PUSH20 0x0 PUSH4 0xABCD7960 DUP3 PUSH0 DUP2 MLOAD DUP2 LT PUSH3 0x9B2 JUMPI PUSH3 0x9B1 PUSH3 0x15E5 JUMP JUMPDEST JUMPDEST PUSH1 0x20 MUL PUSH1 0x20 ADD ADD MLOAD PUSH1 0x3 SLOAD PUSH1 0x40 MLOAD DUP4 PUSH4 0xFFFFFFFF AND PUSH1 0xE0 SHL DUP2 MSTORE PUSH1 0x4 ADD PUSH3 0x9DC SWAP3 SWAP2 SWAP1 PUSH3 0x1A49 JUMP JUMPDEST PUSH1 0x20 PUSH1 0x40 MLOAD DUP1 DUP4 SUB DUP2 DUP7 GAS DELEGATECALL ISZERO DUP1 ISZERO PUSH3 0x9F8 JUMPI RETURNDATASIZE PUSH0 DUP1 RETURNDATACOPY RETURNDATASIZE PUSH0 REVERT JUMPDEST POP POP POP POP PUSH1 0x40 MLOAD RETURNDATASIZE PUSH1 0x1F NOT PUSH1 0x1F DUP3 ADD AND DUP3 ADD DUP1 PUSH1 0x40 MSTORE POP DUP2 ADD SWAP1 PUSH3 0xA1E SWAP2 SWAP1 PUSH3 0xBF8 JUMP JUMPDEST POP POP JUMP JUMPDEST PUSH2 0x14A DUP1 PUSH3 0x1A8A DUP4 CODECOPY ADD SWAP1 JUMP JUMPDEST PUSH2 0x242A DUP1 PUSH3 0x1BD4 DUP4 CODECOPY ADD SWAP1 JUMP JUMPDEST PUSH2 0x18F0 DUP1 PUSH3 0x3FFE DUP4 CODECOPY ADD SWAP1 JUMP JUMPDEST PUSH0 PUSH1 0x40 MLOAD SWAP1 POP SWAP1 JUMP JUMPDEST PUSH0 DUP1 REVERT JUMPDEST PUSH0 DUP1 REVERT JUMPDEST PUSH0 DUP2 SWAP1 POP SWAP2 SWAP1 POP JUMP JUMPDEST PUSH3 0xA71 DUP2 PUSH3 0xA5D JUMP JUMPDEST DUP2 EQ PUSH3 0xA7C JUMPI PUSH0 DUP1 REVERT JUMPDEST POP JUMP JUMPDEST PUSH0 DUP2 MLOAD SWAP1 POP PUSH3 0xA8F DUP2 PUSH3 0xA66 JUMP JUMPDEST SWAP3 SWAP2 POP POP JUMP JUMPDEST PUSH0 PUSH1 0x20 DUP3 DUP5 SUB SLT ISZERO PUSH3 0xAAD JUMPI PUSH3 0xAAC PUSH3 0xA55 JUMP JUMPDEST JUMPDEST PUSH0 PUSH3 0xABC DUP5 DUP3 DUP6 ADD PUSH3 0xA7F JUMP JUMPDEST SWAP2 POP POP SWAP3 SWAP2 POP POP JUMP JUMPDEST PUSH3 0xAD0 DUP2 PUSH3 0xA5D JUMP JUMPDEST DUP3 MSTORE POP POP JUMP JUMPDEST PUSH0 DUP2 SWAP1 POP SWAP2 SWAP1 POP JUMP JUMPDEST PUSH0 DUP2 SWAP1 POP SWAP2 SWAP1 POP JUMP JUMPDEST PUSH0 PUSH3 0xB08 PUSH3 0xB02 PUSH3 0xAFC DUP5 PUSH3 0xAD6 JUMP JUMPDEST PUSH3 0xADF JUMP JUMPDEST PUSH3 0xA5D JUMP JUMPDEST SWAP1 POP SWAP2 SWAP1 POP JUMP JUMPDEST PUSH3 0xB1A DUP2 PUSH3 0xAE8 JUMP JUMPDEST DUP3 MSTORE POP POP JUMP JUMPDEST PUSH0 DUP3 DUP3 MSTORE PUSH1 0x20 DUP3 ADD SWAP1 POP SWAP3 SWAP2 POP POP JUMP JUMPDEST PUSH32 0x4C6F6720636F756E7465722073686F756C642062652031000000000000000000 PUSH0 DUP3 ADD MSTORE POP JUMP JUMPDEST PUSH0 PUSH3 0xB66 PUSH1 0x17 DUP4 PUSH3 0xB20 JUMP JUMPDEST SWAP2 POP PUSH3 0xB73 DUP3 PUSH3 0xB30 JUMP JUMPDEST PUSH1 0x20 DUP3 ADD SWAP1 POP SWAP2 SWAP1 POP JUMP JUMPDEST PUSH0 PUSH1 0x60 DUP3 ADD SWAP1 POP PUSH3 0xB93 PUSH0 DUP4 ADD DUP6 PUSH3 0xAC5 JUMP JUMPDEST PUSH3 0xBA2 PUSH1 0x20 DUP4 ADD DUP5 PUSH3 0xB0F JUMP JUMPDEST DUP2 DUP2 SUB PUSH1 0x40 DUP4 ADD MSTORE PUSH3 0xBB5 DUP2 PUSH3 0xB58 JUMP JUMPDEST SWAP1 POP SWAP4 SWAP3 POP POP POP JUMP JUMPDEST PUSH0 DUP2 ISZERO ISZERO SWAP1 POP SWAP2 SWAP1 POP JUMP JUMPDEST PUSH3 0xBD4 DUP2 PUSH3 0xBBE JUMP JUMPDEST DUP2 EQ PUSH3 0xBDF JUMPI PUSH0 DUP1 REVERT JUMPDEST POP JUMP JUMPDEST PUSH0 DUP2 MLOAD SWAP1 POP PUSH3 0xBF2 DUP2 PUSH3 0xBC9 JUMP JUMPDEST SWAP3 SWAP2 POP POP JUMP JUMPDEST PUSH0 PUSH1 0x20 DUP3 DUP5 SUB SLT ISZERO PUSH3 0xC10 JUMPI PUSH3 0xC0F PUSH3 0xA55 JUMP JUMPDEST JUMPDEST PUSH0 PUSH3 0xC1F DUP5 DUP3 DUP6 ADD PUSH3 0xBE2 JUMP JUMPDEST SWAP2 POP POP SWAP3 SWAP2 POP POP JUMP JUMPDEST PUSH3 0xC33 DUP2 PUSH3 0xA5D JUMP JUMPDEST DUP3 MSTORE POP POP JUMP JUMPDEST PUSH0 PUSH1 0x20 DUP3 ADD SWAP1 POP PUSH3 0xC4E PUSH0 DUP4 ADD DUP5 PUSH3 0xC28 JUMP JUMPDEST SWAP3 SWAP2 POP POP JUMP JUMPDEST PUSH0 DUP1 REVERT JUMPDEST PUSH0 PUSH1 0x1F NOT PUSH1 0x1F DUP4 ADD AND SWAP1 POP SWAP2 SWAP1 POP JUMP JUMPDEST PUSH32 0x4E487B7100000000000000000000000000000000000000000000000000000000 PUSH0 MSTORE PUSH1 0x41 PUSH1 0x4 MSTORE PUSH1 0x24 PUSH0 REVERT JUMPDEST PUSH3 0xCA0 DUP3 PUSH3 0xC58 JUMP JUMPDEST DUP2 ADD DUP2 DUP2 LT PUSH8 0xFFFFFFFFFFFFFFFF DUP3 GT OR ISZERO PUSH3 0xCC2 JUMPI PUSH3 0xCC1 PUSH3 0xC68 JUMP JUMPDEST JUMPDEST DUP1 PUSH1 0x40 MSTORE POP POP POP JUMP JUMPDEST PUSH0 PUSH3 0xCD6 PUSH3 0xA4C JUMP JUMPDEST SWAP1 POP PUSH3 0xCE4 DUP3 DUP3 PUSH3 0xC95 JUMP JUMPDEST SWAP2 SWAP1 POP JUMP JUMPDEST PUSH0 DUP1 REVERT JUMPDEST PUSH0 DUP1 REVERT JUMPDEST PUSH0 PUSH8 0xFFFFFFFFFFFFFFFF DUP3 GT ISZERO PUSH3 0xD0E JUMPI PUSH3 0xD0D PUSH3 0xC68 JUMP JUMPDEST JUMPDEST PUSH1 0x20 DUP3 MUL SWAP1 POP PUSH1 0x20 DUP2 ADD SWAP1 POP SWAP2 SWAP1 POP JUMP JUMPDEST PUSH0 DUP1 REVERT JUMPDEST PUSH0 DUP1 REVERT JUMPDEST PUSH0 PUSH8 0xFFFFFFFFFFFFFFFF DUP3 GT ISZERO PUSH3 0xD44 JUMPI PUSH3 0xD43 PUSH3 0xC68 JUMP JUMPDEST JUMPDEST PUSH3 0xD4F DUP3 PUSH3 0xC58 JUMP JUMPDEST SWAP1 POP PUSH1 0x20 DUP2 ADD SWAP1 POP SWAP2 SWAP1 POP JUMP JUMPDEST PUSH0 JUMPDEST DUP4 DUP2 LT ISZERO PUSH3 0xD7B JUMPI DUP1 DUP3 ADD MLOAD DUP2 DUP5 ADD MSTORE PUSH1 0x20 DUP2 ADD SWAP1 POP PUSH3 0xD5E JUMP JUMPDEST PUSH0 DUP5 DUP5 ADD MSTORE POP POP POP POP JUMP JUMPDEST PUSH0 PUSH3 0xD9C PUSH3 0xD96 DUP5 PUSH3 0xD27 JUMP JUMPDEST PUSH3 0xCCB JUMP JUMPDEST SWAP1 POP DUP3 DUP2 MSTORE PUSH1 0x20 DUP2 ADD DUP5 DUP5 DUP5 ADD GT ISZERO PUSH3 0xDBB JUMPI PUSH3 0xDBA PUSH3 0xD23 JUMP JUMPDEST JUMPDEST PUSH3 0xDC8 DUP5 DUP3 DUP6 PUSH3 0xD5C JUMP JUMPDEST POP SWAP4 SWAP3 POP POP POP JUMP JUMPDEST PUSH0 DUP3 PUSH1 0x1F DUP4 ADD SLT PUSH3 0xDE7 JUMPI PUSH3 0xDE6 PUSH3 0xCED JUMP JUMPDEST JUMPDEST DUP2 MLOAD PUSH3 0xDF9 DUP5 DUP3 PUSH1 0x20 DUP7 ADD PUSH3 0xD86 JUMP JUMPDEST SWAP2 POP POP SWAP3 SWAP2 POP POP JUMP JUMPDEST PUSH0 PUSH3 0xE18 PUSH3 0xE12 DUP5 PUSH3 0xCF1 JUMP JUMPDEST PUSH3 0xCCB JUMP JUMPDEST SWAP1 POP DUP1 DUP4 DUP3 MSTORE PUSH1 0x20 DUP3 ADD SWAP1 POP PUSH1 0x20 DUP5 MUL DUP4 ADD DUP6 DUP2 GT ISZERO PUSH3 0xE3E JUMPI PUSH3 0xE3D PUSH3 0xD1F JUMP JUMPDEST JUMPDEST DUP4 JUMPDEST DUP2 DUP2 LT ISZERO PUSH3 0xE8C JUMPI DUP1 MLOAD PUSH8 0xFFFFFFFFFFFFFFFF DUP2 GT ISZERO PUSH3 0xE67 JUMPI PUSH3 0xE66 PUSH3 0xCED JUMP JUMPDEST JUMPDEST DUP1 DUP7 ADD PUSH3 0xE76 DUP10 DUP3 PUSH3 0xDD0 JUMP JUMPDEST DUP6 MSTORE PUSH1 0x20 DUP6 ADD SWAP5 POP POP POP PUSH1 0x20 DUP2 ADD SWAP1 POP PUSH3 0xE40 JUMP JUMPDEST POP POP POP SWAP4 SWAP3 POP POP POP JUMP JUMPDEST PUSH0 DUP3 PUSH1 0x1F DUP4 ADD SLT PUSH3 0xEAD JUMPI PUSH3 0xEAC PUSH3 0xCED JUMP JUMPDEST JUMPDEST DUP2 MLOAD PUSH3 0xEBF DUP5 DUP3 PUSH1 0x20 DUP7 ADD PUSH3 0xE02 JUMP JUMPDEST SWAP2 POP POP SWAP3 SWAP2 POP POP JUMP JUMPDEST PUSH0 PUSH8 0xFFFFFFFFFFFFFFFF DUP3 GT ISZERO PUSH3 0xEE5 JUMPI PUSH3 0xEE4 PUSH3 0xC68 JUMP JUMPDEST JUMPDEST PUSH1 0x20 DUP3 MUL SWAP1 POP PUSH1 0x20 DUP2 ADD SWAP1 POP SWAP2 SWAP1 POP JUMP JUMPDEST PUSH0 DUP2 SWAP1 POP SWAP2 SWAP1 POP JUMP JUMPDEST PUSH3 0xF0A DUP2 PUSH3 0xEF6 JUMP JUMPDEST DUP2 EQ PUSH3 0xF15 JUMPI PUSH0 DUP1 REVERT JUMPDEST POP JUMP JUMPDEST PUSH0 DUP2 MLOAD SWAP1 POP PUSH3 0xF28 DUP2 PUSH3 0xEFF JUMP JUMPDEST SWAP3 SWAP2 POP POP JUMP JUMPDEST PUSH0 PUSH3 0xF44 PUSH3 0xF3E DUP5 PUSH3 0xEC8 JUMP JUMPDEST PUSH3 0xCCB JUMP JUMPDEST SWAP1 POP DUP1 DUP4 DUP3 MSTORE PUSH1 0x20 DUP3 ADD SWAP1 POP PUSH1 0x20 DUP5 MUL DUP4 ADD DUP6 DUP2 GT ISZERO PUSH3 0xF6A JUMPI PUSH3 0xF69 PUSH3 0xD1F JUMP JUMPDEST JUMPDEST DUP4 JUMPDEST DUP2 DUP2 LT ISZERO PUSH3 0xF97 JUMPI DUP1 PUSH3 0xF82 DUP9 DUP3 PUSH3 0xF18 JUMP JUMPDEST DUP5 MSTORE PUSH1 0x20 DUP5 ADD SWAP4 POP POP PUSH1 0x20 DUP2 ADD SWAP1 POP PUSH3 0xF6C JUMP JUMPDEST POP POP POP SWAP4 SWAP3 POP POP POP JUMP JUMPDEST PUSH0 DUP3 PUSH1 0x1F DUP4 ADD SLT PUSH3 0xFB8 JUMPI PUSH3 0xFB7 PUSH3 0xCED JUMP JUMPDEST JUMPDEST DUP2 MLOAD PUSH3 0xFCA DUP5 DUP3 PUSH1 0x20 DUP7 ADD PUSH3 0xF2E JUMP JUMPDEST SWAP2 POP POP SWAP3 SWAP2 POP POP JUMP JUMPDEST PUSH0 PUSH1 0xA0 DUP3 DUP5 SUB SLT ISZERO PUSH3 0xFEB JUMPI PUSH3 0xFEA PUSH3 0xC54 JUMP JUMPDEST JUMPDEST PUSH3 0xFF7 PUSH1 0xA0 PUSH3 0xCCB JUMP JUMPDEST SWAP1 POP PUSH0 PUSH3 0x1008 DUP5 DUP3 DUP6 ADD PUSH3 0xA7F JUMP JUMPDEST PUSH0 DUP4 ADD MSTORE POP PUSH1 0x20 PUSH3 0x101D DUP5 DUP3 DUP6 ADD PUSH3 0xA7F JUMP JUMPDEST PUSH1 0x20 DUP4 ADD MSTORE POP PUSH1 0x40 DUP3 ADD MLOAD PUSH8 0xFFFFFFFFFFFFFFFF DUP2 GT ISZERO PUSH3 0x1044 JUMPI PUSH3 0x1043 PUSH3 0xCE9 JUMP JUMPDEST JUMPDEST PUSH3 0x1052 DUP5 DUP3 DUP6 ADD PUSH3 0xE96 JUMP JUMPDEST PUSH1 0x40 DUP4 ADD MSTORE POP PUSH1 0x60 DUP3 ADD MLOAD PUSH8 0xFFFFFFFFFFFFFFFF DUP2 GT ISZERO PUSH3 0x1079 JUMPI PUSH3 0x1078 PUSH3 0xCE9 JUMP JUMPDEST JUMPDEST PUSH3 0x1087 DUP5 DUP3 DUP6 ADD PUSH3 0xDD0 JUMP JUMPDEST PUSH1 0x60 DUP4 ADD MSTORE POP PUSH1 0x80 DUP3 ADD MLOAD PUSH8 0xFFFFFFFFFFFFFFFF DUP2 GT ISZERO PUSH3 0x10AE JUMPI PUSH3 0x10AD PUSH3 0xCE9 JUMP JUMPDEST JUMPDEST PUSH3 0x10BC DUP5 DUP3 DUP6 ADD PUSH3 0xFA1 JUMP JUMPDEST PUSH1 0x80 DUP4 ADD MSTORE POP SWAP3 SWAP2 POP POP JUMP JUMPDEST PUSH0 PUSH1 0x20 DUP3 DUP5 SUB SLT ISZERO PUSH3 0x10E0 JUMPI PUSH3 0x10DF PUSH3 0xA55 JUMP JUMPDEST JUMPDEST PUSH0 DUP3 ADD MLOAD PUSH8 0xFFFFFFFFFFFFFFFF DUP2 GT ISZERO PUSH3 0x1100 JUMPI PUSH3 0x10FF PUSH3 0xA59 JUMP JUMPDEST JUMPDEST PUSH3 0x110E DUP5 DUP3 DUP6 ADD PUSH3 0xFD3 JUMP JUMPDEST SWAP2 POP POP SWAP3 SWAP2 POP POP JUMP JUMPDEST PUSH32 0x4461746120757361676520494420646F6573206E6F74206D6174636800000000 PUSH0 DUP3 ADD MSTORE POP JUMP JUMPDEST PUSH0 PUSH3 0x114D PUSH1 0x1C DUP4 PUSH3 0xB20 JUMP JUMPDEST SWAP2 POP PUSH3 0x115A DUP3 PUSH3 0x1117 JUMP JUMPDEST PUSH1 0x20 DUP3 ADD SWAP1 POP SWAP2 SWAP1 POP JUMP JUMPDEST PUSH0 PUSH1 0x60 DUP3 ADD SWAP1 POP PUSH3 0x117A PUSH0 DUP4 ADD DUP6 PUSH3 0xAC5 JUMP JUMPDEST PUSH3 0x1189 PUSH1 0x20 DUP4 ADD DUP5 PUSH3 0xAC5 JUMP JUMPDEST DUP2 DUP2 SUB PUSH1 0x40 DUP4 ADD MSTORE PUSH3 0x119C DUP2 PUSH3 0x113F JUMP JUMPDEST SWAP1 POP SWAP4 SWAP3 POP POP POP JUMP JUMPDEST PUSH32 0x4163746F7220494420646F6573206E6F74206D61746368000000000000000000 PUSH0 DUP3 ADD MSTORE POP JUMP JUMPDEST PUSH0 PUSH3 0x11DB PUSH1 0x17 DUP4 PUSH3 0xB20 JUMP JUMPDEST SWAP2 POP PUSH3 0x11E8 DUP3 PUSH3 0x11A5 JUMP JUMPDEST PUSH1 0x20 DUP3 ADD SWAP1 POP SWAP2 SWAP1 POP JUMP JUMPDEST PUSH0 PUSH1 0x60 DUP3 ADD SWAP1 POP PUSH3 0x1208 PUSH0 DUP4 ADD DUP6 PUSH3 0xAC5 JUMP JUMPDEST PUSH3 0x1217 PUSH1 0x20 DUP4 ADD DUP5 PUSH3 0xB0F JUMP JUMPDEST DUP2 DUP2 SUB PUSH1 0x40 DUP4 ADD MSTORE PUSH3 0x122A DUP2 PUSH3 0x11CD JUMP JUMPDEST SWAP1 POP SWAP4 SWAP3 POP POP POP JUMP JUMPDEST PUSH0 DUP2 SWAP1 POP SWAP2 SWAP1 POP JUMP JUMPDEST PUSH0 PUSH3 0x125C PUSH3 0x1256 PUSH3 0x1250 DUP5 PUSH3 0x1233 JUMP JUMPDEST PUSH3 0xADF JUMP JUMPDEST PUSH3 0xA5D JUMP JUMPDEST SWAP1 POP SWAP2 SWAP1 POP JUMP JUMPDEST PUSH3 0x126E DUP2 PUSH3 0x123C JUMP JUMPDEST DUP3 MSTORE POP POP JUMP JUMPDEST PUSH32 0x4F7065726174696F6E73206C656E67746820646F6573206E6F74206D61746368 PUSH0 DUP3 ADD MSTORE POP JUMP JUMPDEST PUSH0 PUSH3 0x12AA PUSH1 0x20 DUP4 PUSH3 0xB20 JUMP JUMPDEST SWAP2 POP PUSH3 0x12B7 DUP3 PUSH3 0x1274 JUMP JUMPDEST PUSH1 0x20 DUP3 ADD SWAP1 POP SWAP2 SWAP1 POP JUMP JUMPDEST PUSH0 PUSH1 0x60 DUP3 ADD SWAP1 POP PUSH3 0x12D7 PUSH0 DUP4 ADD DUP6 PUSH3 0xAC5 JUMP JUMPDEST PUSH3 0x12E6 PUSH1 0x20 DUP4 ADD DUP5 PUSH3 0x1263 JUMP JUMPDEST DUP2 DUP2 SUB PUSH1 0x40 DUP4 ADD MSTORE PUSH3 0x12F9 DUP2 PUSH3 0x129C JUMP JUMPDEST SWAP1 POP SWAP4 SWAP3 POP POP POP JUMP JUMPDEST PUSH0 DUP2 MLOAD SWAP1 POP SWAP2 SWAP1 POP JUMP JUMPDEST PUSH0 PUSH3 0x1318 DUP3 PUSH3 0x1302 JUMP JUMPDEST PUSH3 0x1324 DUP2 DUP6 PUSH3 0xB20 JUMP JUMPDEST SWAP4 POP PUSH3 0x1336 DUP2 DUP6 PUSH1 0x20 DUP7 ADD PUSH3 0xD5C JUMP JUMPDEST PUSH3 0x1341 DUP2 PUSH3 0xC58 JUMP JUMPDEST DUP5 ADD SWAP2 POP POP SWAP3 SWAP2 POP POP JUMP JUMPDEST PUSH32 0x5365727669636520414243000000000000000000000000000000000000000000 PUSH0 DUP3 ADD MSTORE POP JUMP JUMPDEST PUSH0 PUSH3 0x1382 PUSH1 0xB DUP4 PUSH3 0xB20 JUMP JUMPDEST SWAP2 POP PUSH3 0x138F DUP3 PUSH3 0x134C JUMP JUMPDEST PUSH1 0x20 DUP3 ADD SWAP1 POP SWAP2 SWAP1 POP JUMP JUMPDEST PUSH32 0x53657276696365206E616D6520646F6573206E6F74206D617463680000000000 PUSH0 DUP3 ADD MSTORE POP JUMP JUMPDEST PUSH0 PUSH3 0x13D0 PUSH1 0x1B DUP4 PUSH3 0xB20 JUMP JUMPDEST SWAP2 POP PUSH3 0x13DD DUP3 PUSH3 0x139A JUMP JUMPDEST PUSH1 0x20 DUP3 ADD SWAP1 POP SWAP2 SWAP1 POP JUMP JUMPDEST PUSH0 PUSH1 0x60 DUP3 ADD SWAP1 POP DUP2 DUP2 SUB PUSH0 DUP4 ADD MSTORE PUSH3 0x1402 DUP2 DUP5 PUSH3 0x130C JUMP JUMPDEST SWAP1 POP DUP2 DUP2 SUB PUSH1 0x20 DUP4 ADD MSTORE PUSH3 0x1417 DUP2 PUSH3 0x1374 JUMP JUMPDEST SWAP1 POP DUP2 DUP2 SUB PUSH1 0x40 DUP4 ADD MSTORE PUSH3 0x142C DUP2 PUSH3 0x13C2 JUMP JUMPDEST SWAP1 POP SWAP3 SWAP2 POP POP JUMP JUMPDEST PUSH32 0x50726F63657373656420706572736F6E616C2064617461206C656E6774682064 PUSH0 DUP3 ADD MSTORE PUSH32 0x6F6573206E6F74206D6174636800000000000000000000000000000000000000 PUSH1 0x20 DUP3 ADD MSTORE POP JUMP JUMPDEST PUSH0 PUSH3 0x1490 PUSH1 0x2D DUP4 PUSH3 0xB20 JUMP JUMPDEST SWAP2 POP PUSH3 0x149D DUP3 PUSH3 0x1434 JUMP JUMPDEST PUSH1 0x40 DUP3 ADD SWAP1 POP SWAP2 SWAP1 POP JUMP JUMPDEST PUSH0 PUSH1 0x60 DUP3 ADD SWAP1 POP PUSH3 0x14BD PUSH0 DUP4 ADD DUP6 PUSH3 0xAC5 JUMP JUMPDEST PUSH3 0x14CC PUSH1 0x20 DUP4 ADD DUP5 PUSH3 0xB0F JUMP JUMPDEST DUP2 DUP2 SUB PUSH1 0x40 DUP4 ADD MSTORE PUSH3 0x14DF DUP2 PUSH3 0x1482 JUMP JUMPDEST SWAP1 POP SWAP4 SWAP3 POP POP POP JUMP JUMPDEST PUSH0 PUSH20 0xFFFFFFFFFFFFFFFFFFFFFFFFFFFFFFFFFFFFFFFF DUP3 AND SWAP1 POP SWAP2 SWAP1 POP JUMP JUMPDEST PUSH0 PUSH3 0x1513 DUP3 PUSH3 0x14E8 JUMP JUMPDEST SWAP1 POP SWAP2 SWAP1 POP JUMP JUMPDEST PUSH3 0x1525 DUP2 PUSH3 0x1507 JUMP JUMPDEST DUP3 MSTORE POP POP JUMP JUMPDEST PUSH0 PUSH1 0x20 DUP3 ADD SWAP1 POP PUSH3 0x1540 PUSH0 DUP4 ADD DUP5 PUSH3 0x151A JUMP JUMPDEST SWAP3 SWAP2 POP POP JUMP JUMPDEST PUSH3 0x1551 DUP2 PUSH3 0xAE8 JUMP JUMPDEST DUP3 MSTORE POP POP JUMP JUMPDEST PUSH0 DUP3 DUP3 MSTORE PUSH1 0x20 DUP3 ADD SWAP1 POP SWAP3 SWAP2 POP POP JUMP JUMPDEST PUSH32 0x436F6D70616E792058595A000000000000000000000000000000000000000000 PUSH0 DUP3 ADD MSTORE POP JUMP JUMPDEST PUSH0 PUSH3 0x159D PUSH1 0xB DUP4 PUSH3 0x1557 JUMP JUMPDEST SWAP2 POP PUSH3 0x15AA DUP3 PUSH3 0x1567 JUMP JUMPDEST PUSH1 0x20 DUP3 ADD SWAP1 POP SWAP2 SWAP1 POP JUMP JUMPDEST PUSH0 PUSH1 0x40 DUP3 ADD SWAP1 POP PUSH3 0x15CA PUSH0 DUP4 ADD DUP5 PUSH3 0x1546 JUMP JUMPDEST DUP2 DUP2 SUB PUSH1 0x20 DUP4 ADD MSTORE PUSH3 0x15DD DUP2 PUSH3 0x158F JUMP JUMPDEST SWAP1 POP SWAP3 SWAP2 POP POP JUMP JUMPDEST PUSH32 0x4E487B7100000000000000000000000000000000000000000000000000000000 PUSH0 MSTORE PUSH1 0x32 PUSH1 0x4 MSTORE PUSH1 0x24 PUSH0 REVERT JUMPDEST PUSH0 PUSH3 0x1620 PUSH1 0xB DUP4 PUSH3 0x1557 JUMP JUMPDEST SWAP2 POP PUSH3 0x162D DUP3 PUSH3 0x134C JUMP JUMPDEST PUSH1 0x20 DUP3 ADD SWAP1 POP SWAP2 SWAP1 POP JUMP JUMPDEST PUSH32 0x507572706F73652058595A000000000000000000000000000000000000000000 PUSH0 DUP3 ADD MSTORE POP JUMP JUMPDEST PUSH0 PUSH3 0x166E PUSH1 0xB DUP4 PUSH3 0x1557 JUMP JUMPDEST SWAP2 POP PUSH3 0x167B DUP3 PUSH3 0x1638 JUMP JUMPDEST PUSH1 0x20 DUP3 ADD SWAP1 POP SWAP2 SWAP1 POP JUMP JUMPDEST PUSH0 DUP2 MLOAD SWAP1 POP SWAP2 SWAP1 POP JUMP JUMPDEST PUSH0 DUP3 DUP3 MSTORE PUSH1 0x20 DUP3 ADD SWAP1 POP SWAP3 SWAP2 POP POP JUMP JUMPDEST PUSH0 DUP2 SWAP1 POP PUSH1 0x20 DUP3 ADD SWAP1 POP SWAP2 SWAP1 POP JUMP JUMPDEST PUSH0 DUP3 DUP3 MSTORE PUSH1 0x20 DUP3 ADD SWAP1 POP SWAP3 SWAP2 POP POP JUMP JUMPDEST PUSH0 PUSH3 0x16CB DUP3 PUSH3 0x1302 JUMP JUMPDEST PUSH3 0x16D7 DUP2 DUP6 PUSH3 0x16AF JUMP JUMPDEST SWAP4 POP PUSH3 0x16E9 DUP2 DUP6 PUSH1 0x20 DUP7 ADD PUSH3 0xD5C JUMP JUMPDEST PUSH3 0x16F4 DUP2 PUSH3 0xC58 JUMP JUMPDEST DUP5 ADD SWAP2 POP POP SWAP3 SWAP2 POP POP JUMP JUMPDEST PUSH0 PUSH3 0x170C DUP4 DUP4 PUSH3 0x16BF JUMP JUMPDEST SWAP1 POP SWAP3 SWAP2 POP POP JUMP JUMPDEST PUSH0 PUSH1 0x20 DUP3 ADD SWAP1 POP SWAP2 SWAP1 POP JUMP JUMPDEST PUSH0 PUSH3 0x172C DUP3 PUSH3 0x1686 JUMP JUMPDEST PUSH3 0x1738 DUP2 DUP6 PUSH3 0x1690 JUMP JUMPDEST SWAP4 POP DUP4 PUSH1 0x20 DUP3 MUL DUP6 ADD PUSH3 0x174C DUP6 PUSH3 0x16A0 JUMP JUMPDEST DUP1 PUSH0 JUMPDEST DUP6 DUP2 LT ISZERO PUSH3 0x178D JUMPI DUP5 DUP5 SUB DUP10 MSTORE DUP2 MLOAD PUSH3 0x176B DUP6 DUP3 PUSH3 0x16FF JUMP JUMPDEST SWAP5 POP PUSH3 0x1778 DUP4 PUSH3 0x1714 JUMP JUMPDEST SWAP3 POP PUSH1 0x20 DUP11 ADD SWAP10 POP POP PUSH1 0x1 DUP2 ADD SWAP1 POP PUSH3 0x174F JUMP JUMPDEST POP DUP3 SWAP8 POP DUP8 SWAP6 POP POP POP POP POP POP SWAP3 SWAP2 POP POP JUMP JUMPDEST PUSH0 DUP2 MLOAD SWAP1 POP SWAP2 SWAP1 POP JUMP JUMPDEST PUSH0 DUP3 DUP3 MSTORE PUSH1 0x20 DUP3 ADD SWAP1 POP SWAP3 SWAP2 POP POP JUMP JUMPDEST PUSH0 DUP2 SWAP1 POP PUSH1 0x20 DUP3 ADD SWAP1 POP SWAP2 SWAP1 POP JUMP JUMPDEST PUSH3 0x17D3 DUP2 PUSH3 0xA5D JUMP JUMPDEST DUP3 MSTORE POP POP JUMP JUMPDEST PUSH0 PUSH3 0x17E6 DUP4 DUP4 PUSH3 0x17C8 JUMP JUMPDEST PUSH1 0x20 DUP4 ADD SWAP1 POP SWAP3 SWAP2 POP POP JUMP JUMPDEST PUSH0 PUSH1 0x20 DUP3 ADD SWAP1 POP SWAP2 SWAP1 POP JUMP JUMPDEST PUSH0 PUSH3 0x180A DUP3 PUSH3 0x179F JUMP JUMPDEST PUSH3 0x1816 DUP2 DUP6 PUSH3 0x17A9 JUMP JUMPDEST SWAP4 POP PUSH3 0x1823 DUP4 PUSH3 0x17B9 JUMP JUMPDEST DUP1 PUSH0 JUMPDEST DUP4 DUP2 LT ISZERO PUSH3 0x1859 JUMPI DUP2 MLOAD PUSH3 0x183D DUP9 DUP3 PUSH3 0x17D9 JUMP JUMPDEST SWAP8 POP PUSH3 0x184A DUP4 PUSH3 0x17F2 JUMP JUMPDEST SWAP3 POP POP PUSH1 0x1 DUP2 ADD SWAP1 POP PUSH3 0x1826 JUMP JUMPDEST POP DUP6 SWAP4 POP POP POP POP SWAP3 SWAP2 POP POP JUMP JUMPDEST PUSH0 PUSH1 0xA0 DUP3 ADD SWAP1 POP DUP2 DUP2 SUB PUSH0 DUP4 ADD MSTORE PUSH3 0x187F DUP2 PUSH3 0x1612 JUMP JUMPDEST SWAP1 POP DUP2 DUP2 SUB PUSH1 0x20 DUP4 ADD MSTORE PUSH3 0x1894 DUP2 PUSH3 0x1660 JUMP JUMPDEST SWAP1 POP PUSH3 0x18A5 PUSH1 0x40 DUP4 ADD DUP7 PUSH3 0x1546 JUMP JUMPDEST DUP2 DUP2 SUB PUSH1 0x60 DUP4 ADD MSTORE PUSH3 0x18B9 DUP2 DUP6 PUSH3 0x1720 JUMP JUMPDEST SWAP1 POP DUP2 DUP2 SUB PUSH1 0x80 DUP4 ADD MSTORE PUSH3 0x18CF DUP2 DUP5 PUSH3 0x17FE JUMP JUMPDEST SWAP1 POP SWAP5 SWAP4 POP POP POP POP JUMP JUMPDEST PUSH0 PUSH8 0xFFFFFFFFFFFFFFFF DUP3 GT ISZERO PUSH3 0x18F6 JUMPI PUSH3 0x18F5 PUSH3 0xC68 JUMP JUMPDEST JUMPDEST PUSH1 0x20 DUP3 MUL SWAP1 POP PUSH1 0x20 DUP2 ADD SWAP1 POP SWAP2 SWAP1 POP JUMP JUMPDEST PUSH0 PUSH3 0x191D PUSH3 0x1917 DUP5 PUSH3 0x18D9 JUMP JUMPDEST PUSH3 0xCCB JUMP JUMPDEST SWAP1 POP DUP1 DUP4 DUP3 MSTORE PUSH1 0x20 DUP3 ADD SWAP1 POP PUSH1 0x20 DUP5 MUL DUP4 ADD DUP6 DUP2 GT ISZERO PUSH3 0x1943 JUMPI PUSH3 0x1942 PUSH3 0xD1F JUMP JUMPDEST JUMPDEST DUP4 JUMPDEST DUP2 DUP2 LT ISZERO PUSH3 0x1970 JUMPI DUP1 PUSH3 0x195B DUP9 DUP3 PUSH3 0xA7F JUMP JUMPDEST DUP5 MSTORE PUSH1 0x20 DUP5 ADD SWAP4 POP POP PUSH1 0x20 DUP2 ADD SWAP1 POP PUSH3 0x1945 JUMP JUMPDEST POP POP POP SWAP4 SWAP3 POP POP POP JUMP JUMPDEST PUSH0 DUP3 PUSH1 0x1F DUP4 ADD SLT PUSH3 0x1991 JUMPI PUSH3 0x1990 PUSH3 0xCED JUMP JUMPDEST JUMPDEST DUP2 MLOAD PUSH3 0x19A3 DUP5 DUP3 PUSH1 0x20 DUP7 ADD PUSH3 0x1907 JUMP JUMPDEST SWAP2 POP POP SWAP3 SWAP2 POP POP JUMP JUMPDEST PUSH0 PUSH1 0x20 DUP3 DUP5 SUB SLT ISZERO PUSH3 0x19C4 JUMPI PUSH3 0x19C3 PUSH3 0xA55 JUMP JUMPDEST JUMPDEST PUSH0 DUP3 ADD MLOAD PUSH8 0xFFFFFFFFFFFFFFFF DUP2 GT ISZERO PUSH3 0x19E4 JUMPI PUSH3 0x19E3 PUSH3 0xA59 JUMP JUMPDEST JUMPDEST PUSH3 0x19F2 DUP5 DUP3 DUP6 ADD PUSH3 0x197A JUMP JUMPDEST SWAP2 POP POP SWAP3 SWAP2 POP POP JUMP JUMPDEST PUSH32 0x4C6F67206B657920646F6573206E6F74206D6174636800000000000000000000 PUSH0 DUP3 ADD MSTORE POP JUMP JUMPDEST PUSH0 PUSH3 0x1A31 PUSH1 0x16 DUP4 PUSH3 0xB20 JUMP JUMPDEST SWAP2 POP PUSH3 0x1A3E DUP3 PUSH3 0x19FB JUMP JUMPDEST PUSH1 0x20 DUP3 ADD SWAP1 POP SWAP2 SWAP1 POP JUMP JUMPDEST PUSH0 PUSH1 0x60 DUP3 ADD SWAP1 POP PUSH3 0x1A5E PUSH0 DUP4 ADD DUP6 PUSH3 0xAC5 JUMP JUMPDEST PUSH3 0x1A6D PUSH1 0x20 DUP4 ADD DUP5 PUSH3 0xAC5 JUMP JUMPDEST DUP2 DUP2 SUB PUSH1 0x40 DUP4 ADD MSTORE PUSH3 0x1A80 DUP2 PUSH3 0x1A23 JUMP JUMPDEST SWAP1 POP SWAP4 SWAP3 POP POP POP JUMP INVALID PUSH1 0x80 PUSH1 0x40 MSTORE CALLVALUE DUP1 ISZERO PUSH2 0xF JUMPI PUSH0 DUP1 REVERT JUMPDEST POP CALLER PUSH0 DUP1 PUSH2 0x100 EXP DUP2 SLOAD DUP2 PUSH20 0xFFFFFFFFFFFFFFFFFFFFFFFFFFFFFFFFFFFFFFFF MUL NOT AND SWAP1 DUP4 PUSH20 0xFFFFFFFFFFFFFFFFFFFFFFFFFFFFFFFFFFFFFFFF AND MUL OR SWAP1 SSTORE POP PUSH1 0xEF DUP1 PUSH2 0x5B PUSH0 CODECOPY PUSH0 RETURN INVALID PUSH1 0x80 PUSH1 0x40 MSTORE CALLVALUE DUP1 ISZERO PUSH1 0xE JUMPI PUSH0 DUP1 REVERT JUMPDEST POP PUSH1 0x4 CALLDATASIZE LT PUSH1 0x26 JUMPI PUSH0 CALLDATALOAD PUSH1 0xE0 SHR DUP1 PUSH4 0x8DA5CB5B EQ PUSH1 0x2A JUMPI JUMPDEST PUSH0 DUP1 REVERT JUMPDEST PUSH1 0x30 PUSH1 0x44 JUMP JUMPDEST PUSH1 0x40 MLOAD PUSH1 0x3B SWAP2 SWAP1 PUSH1 0xA2 JUMP JUMPDEST PUSH1 0x40 MLOAD DUP1 SWAP2 SUB SWAP1 RETURN JUMPDEST PUSH0 DUP1 SLOAD SWAP1 PUSH2 0x100 EXP SWAP1 DIV PUSH20 0xFFFFFFFFFFFFFFFFFFFFFFFFFFFFFFFFFFFFFFFF AND DUP2 JUMP JUMPDEST PUSH0 PUSH20 0xFFFFFFFFFFFFFFFFFFFFFFFFFFFFFFFFFFFFFFFF DUP3 AND SWAP1 POP SWAP2 SWAP1 POP JUMP JUMPDEST PUSH0 PUSH1 0x8E DUP3 PUSH1 0x67 JUMP JUMPDEST SWAP1 POP SWAP2 SWAP1 POP JUMP JUMPDEST PUSH1 0x9C DUP2 PUSH1 0x86 JUMP JUMPDEST DUP3 MSTORE POP POP JUMP JUMPDEST PUSH0 PUSH1 0x20 DUP3 ADD SWAP1 POP PUSH1 0xB3 PUSH0 DUP4 ADD DUP5 PUSH1 0x95 JUMP JUMPDEST SWAP3 SWAP2 POP POP JUMP INVALID LOG2 PUSH5 0x6970667358 0x22 SLT KECCAK256 0xE7 0x4B SWAP15 0xE1 LOG0 SWAP15 SWAP4 CALLCODE SWAP13 0x4E 0xCA DUP14 PUSH32 0xB50EDF71044774DBB8834581C301EA3FD2588464736F6C634300081800336080 PUSH1 0x40 MSTORE PUSH0 PUSH1 0x5 SSTORE PUSH0 PUSH1 0x7 SSTORE CALLVALUE DUP1 ISZERO PUSH2 0x17 JUMPI PUSH0 DUP1 REVERT JUMPDEST POP CALLER PUSH0 DUP1 PUSH2 0x100 EXP DUP2 SLOAD DUP2 PUSH20 0xFFFFFFFFFFFFFFFFFFFFFFFFFFFFFFFFFFFFFFFF MUL NOT AND SWAP1 DUP4 PUSH20 0xFFFFFFFFFFFFFFFFFFFFFFFFFFFFFFFFFFFFFFFF AND MUL OR SWAP1 SSTORE POP PUSH2 0x23C6 DUP1 PUSH2 0x64 PUSH0 CODECOPY PUSH0 RETURN INVALID PUSH1 0x80 PUSH1 0x40 MSTORE CALLVALUE DUP1 ISZERO PUSH2 0xF JUMPI PUSH0 DUP1 REVERT JUMPDEST POP PUSH1 0x4 CALLDATASIZE LT PUSH2 0xB2 JUMPI PUSH0 CALLDATALOAD PUSH1 0xE0 SHR DUP1 PUSH4 0x8DA5CB5B GT PUSH2 0x6F JUMPI DUP1 PUSH4 0x8DA5CB5B EQ PUSH2 0x164 JUMPI DUP1 PUSH4 0xB61798F6 EQ PUSH2 0x182 JUMPI DUP1 PUSH4 0xC585665D EQ PUSH2 0x1B2 JUMPI DUP1 PUSH4 0xCA07B122 EQ PUSH2 0x1E2 JUMPI DUP1 PUSH4 0xD2B0649A EQ PUSH2 0x1FE JUMPI DUP1 PUSH4 0xD8A761D9 EQ PUSH2 0x22E JUMPI PUSH2 0xB2 JUMP JUMPDEST DUP1 PUSH4 0xDAB7CD9 EQ PUSH2 0xB6 JUMPI DUP1 PUSH4 0x3A918356 EQ PUSH2 0xD2 JUMPI DUP1 PUSH4 0x3F81DE59 EQ PUSH2 0xF0 JUMPI DUP1 PUSH4 0x4B58FBE9 EQ PUSH2 0x10C JUMPI DUP1 PUSH4 0x682477D7 EQ PUSH2 0x12A JUMPI DUP1 PUSH4 0x68E92436 EQ PUSH2 0x148 JUMPI JUMPDEST PUSH0 DUP1 REVERT JUMPDEST PUSH2 0xD0 PUSH1 0x4 DUP1 CALLDATASIZE SUB DUP2 ADD SWAP1 PUSH2 0xCB SWAP2 SWAP1 PUSH2 0x1478 JUMP JUMPDEST PUSH2 0x25E JUMP JUMPDEST STOP JUMPDEST PUSH2 0xDA PUSH2 0x3AB JUMP JUMPDEST PUSH1 0x40 MLOAD PUSH2 0xE7 SWAP2 SWAP1 PUSH2 0x1616 JUMP JUMPDEST PUSH1 0x40 MLOAD DUP1 SWAP2 SUB SWAP1 RETURN JUMPDEST PUSH2 0x10A PUSH1 0x4 DUP1 CALLDATASIZE SUB DUP2 ADD SWAP1 PUSH2 0x105 SWAP2 SWAP1 PUSH2 0x1636 JUMP JUMPDEST PUSH2 0x401 JUMP JUMPDEST STOP JUMPDEST PUSH2 0x114 PUSH2 0x55A JUMP JUMPDEST PUSH1 0x40 MLOAD PUSH2 0x121 SWAP2 SWAP1 PUSH2 0x1670 JUMP JUMPDEST PUSH1 0x40 MLOAD DUP1 SWAP2 SUB SWAP1 RETURN JUMPDEST PUSH2 0x132 PUSH2 0x563 JUMP JUMPDEST PUSH1 0x40 MLOAD PUSH2 0x13F SWAP2 SWAP1 PUSH2 0x1670 JUMP JUMPDEST PUSH1 0x40 MLOAD DUP1 SWAP2 SUB SWAP1 RETURN JUMPDEST PUSH2 0x162 PUSH1 0x4 DUP1 CALLDATASIZE SUB DUP2 ADD SWAP1 PUSH2 0x15D SWAP2 SWAP1 PUSH2 0x1689 JUMP JUMPDEST PUSH2 0x56C JUMP JUMPDEST STOP JUMPDEST PUSH2 0x16C PUSH2 0x66A JUMP JUMPDEST PUSH1 0x40 MLOAD PUSH2 0x179 SWAP2 SWAP1 PUSH2 0x1722 JUMP JUMPDEST PUSH1 0x40 MLOAD DUP1 SWAP2 SUB SWAP1 RETURN JUMPDEST PUSH2 0x19C PUSH1 0x4 DUP1 CALLDATASIZE SUB DUP2 ADD SWAP1 PUSH2 0x197 SWAP2 SWAP1 PUSH2 0x1636 JUMP JUMPDEST PUSH2 0x68D JUMP JUMPDEST PUSH1 0x40 MLOAD PUSH2 0x1A9 SWAP2 SWAP1 PUSH2 0x1753 JUMP JUMPDEST PUSH1 0x40 MLOAD DUP1 SWAP2 SUB SWAP1 RETURN JUMPDEST PUSH2 0x1CC PUSH1 0x4 DUP1 CALLDATASIZE SUB DUP2 ADD SWAP1 PUSH2 0x1C7 SWAP2 SWAP1 PUSH2 0x1636 JUMP JUMPDEST PUSH2 0x6A7 JUMP JUMPDEST PUSH1 0x40 MLOAD PUSH2 0x1D9 SWAP2 SWAP1 PUSH2 0x1820 JUMP JUMPDEST PUSH1 0x40 MLOAD DUP1 SWAP2 SUB SWAP1 RETURN JUMPDEST PUSH2 0x1FC PUSH1 0x4 DUP1 CALLDATASIZE SUB DUP2 ADD SWAP1 PUSH2 0x1F7 SWAP2 SWAP1 PUSH2 0x1900 JUMP JUMPDEST PUSH2 0x7C0 JUMP JUMPDEST STOP JUMPDEST PUSH2 0x218 PUSH1 0x4 DUP1 CALLDATASIZE SUB DUP2 ADD SWAP1 PUSH2 0x213 SWAP2 SWAP1 PUSH2 0x1636 JUMP JUMPDEST PUSH2 0x9E0 JUMP JUMPDEST PUSH1 0x40 MLOAD PUSH2 0x225 SWAP2 SWAP1 PUSH2 0x1C67 JUMP JUMPDEST PUSH1 0x40 MLOAD DUP1 SWAP2 SUB SWAP1 RETURN JUMPDEST PUSH2 0x248 PUSH1 0x4 DUP1 CALLDATASIZE SUB DUP2 ADD SWAP1 PUSH2 0x243 SWAP2 SWAP1 PUSH2 0x1636 JUMP JUMPDEST PUSH2 0xD0A JUMP JUMPDEST PUSH1 0x40 MLOAD PUSH2 0x255 SWAP2 SWAP1 PUSH2 0x1D0F JUMP JUMPDEST PUSH1 0x40 MLOAD DUP1 SWAP2 SUB SWAP1 RETURN JUMPDEST PUSH0 DUP1 SLOAD SWAP1 PUSH2 0x100 EXP SWAP1 DIV PUSH20 0xFFFFFFFFFFFFFFFFFFFFFFFFFFFFFFFFFFFFFFFF AND PUSH20 0xFFFFFFFFFFFFFFFFFFFFFFFFFFFFFFFFFFFFFFFF AND CALLER PUSH20 0xFFFFFFFFFFFFFFFFFFFFFFFFFFFFFFFFFFFFFFFF AND EQ PUSH2 0x2EB JUMPI PUSH1 0x40 MLOAD PUSH32 0x8C379A000000000000000000000000000000000000000000000000000000000 DUP2 MSTORE PUSH1 0x4 ADD PUSH2 0x2E2 SWAP1 PUSH2 0x1DAF JUMP JUMPDEST PUSH1 0x40 MLOAD DUP1 SWAP2 SUB SWAP1 REVERT JUMPDEST PUSH1 0x40 MLOAD DUP1 PUSH1 0xA0 ADD PUSH1 0x40 MSTORE DUP1 DUP7 DUP2 MSTORE PUSH1 0x20 ADD DUP6 DUP2 MSTORE PUSH1 0x20 ADD DUP5 DUP2 MSTORE PUSH1 0x20 ADD DUP4 DUP2 MSTORE PUSH1 0x20 ADD DUP3 DUP2 MSTORE POP PUSH1 0x3 PUSH0 DUP8 DUP2 MSTORE PUSH1 0x20 ADD SWAP1 DUP2 MSTORE PUSH1 0x20 ADD PUSH0 KECCAK256 PUSH0 DUP3 ADD MLOAD DUP2 PUSH0 ADD SSTORE PUSH1 0x20 DUP3 ADD MLOAD DUP2 PUSH1 0x1 ADD SWAP1 DUP2 PUSH2 0x340 SWAP2 SWAP1 PUSH2 0x1FC7 JUMP JUMPDEST POP PUSH1 0x40 DUP3 ADD MLOAD DUP2 PUSH1 0x2 ADD SWAP1 DUP2 PUSH2 0x356 SWAP2 SWAP1 PUSH2 0x1FC7 JUMP JUMPDEST POP PUSH1 0x60 DUP3 ADD MLOAD DUP2 PUSH1 0x3 ADD SWAP1 DUP2 PUSH2 0x36C SWAP2 SWAP1 PUSH2 0x1FC7 JUMP JUMPDEST POP PUSH1 0x80 DUP3 ADD MLOAD DUP2 PUSH1 0x4 ADD SWAP1 DUP1 MLOAD SWAP1 PUSH1 0x20 ADD SWAP1 PUSH2 0x389 SWAP3 SWAP2 SWAP1 PUSH2 0x1017 JUMP JUMPDEST POP SWAP1 POP POP PUSH1 0x7 PUSH0 DUP2 SLOAD DUP1 SWAP3 SWAP2 SWAP1 PUSH2 0x39F SWAP1 PUSH2 0x20C3 JUMP JUMPDEST SWAP2 SWAP1 POP SSTORE POP POP POP POP POP POP JUMP JUMPDEST PUSH1 0x60 PUSH1 0x6 DUP1 SLOAD DUP1 PUSH1 0x20 MUL PUSH1 0x20 ADD PUSH1 0x40 MLOAD SWAP1 DUP2 ADD PUSH1 0x40 MSTORE DUP1 SWAP3 SWAP2 SWAP1 DUP2 DUP2 MSTORE PUSH1 0x20 ADD DUP3 DUP1 SLOAD DUP1 ISZERO PUSH2 0x3F7 JUMPI PUSH1 0x20 MUL DUP3 ADD SWAP2 SWAP1 PUSH0 MSTORE PUSH1 0x20 PUSH0 KECCAK256 SWAP1 JUMPDEST DUP2 SLOAD DUP2 MSTORE PUSH1 0x20 ADD SWAP1 PUSH1 0x1 ADD SWAP1 DUP1 DUP4 GT PUSH2 0x3E3 JUMPI JUMPDEST POP POP POP POP POP SWAP1 POP SWAP1 JUMP JUMPDEST PUSH0 DUP1 SLOAD SWAP1 PUSH2 0x100 EXP SWAP1 DIV PUSH20 0xFFFFFFFFFFFFFFFFFFFFFFFFFFFFFFFFFFFFFFFF AND PUSH20 0xFFFFFFFFFFFFFFFFFFFFFFFFFFFFFFFFFFFFFFFF AND CALLER PUSH20 0xFFFFFFFFFFFFFFFFFFFFFFFFFFFFFFFFFFFFFFFF AND EQ PUSH2 0x48E JUMPI PUSH1 0x40 MLOAD PUSH32 0x8C379A000000000000000000000000000000000000000000000000000000000 DUP2 MSTORE PUSH1 0x4 ADD PUSH2 0x485 SWAP1 PUSH2 0x1DAF JUMP JUMPDEST PUSH1 0x40 MLOAD DUP1 SWAP2 SUB SWAP1 REVERT JUMPDEST PUSH0 PUSH1 0x3 PUSH0 DUP4 DUP2 MSTORE PUSH1 0x20 ADD SWAP1 DUP2 MSTORE PUSH1 0x20 ADD PUSH0 KECCAK256 SWAP1 POP PUSH1 0x60 DUP2 PUSH1 0x1 ADD DUP3 PUSH1 0x2 ADD DUP4 PUSH1 0x3 ADD PUSH1 0x40 MLOAD PUSH1 0x20 ADD PUSH2 0x4C2 SWAP4 SWAP3 SWAP2 SWAP1 PUSH2 0x2194 JUMP JUMPDEST PUSH1 0x40 MLOAD PUSH1 0x20 DUP2 DUP4 SUB SUB DUP2 MSTORE SWAP1 PUSH1 0x40 MSTORE SWAP1 POP PUSH0 JUMPDEST DUP3 PUSH1 0x4 ADD DUP1 SLOAD SWAP1 POP DUP2 LT ISZERO PUSH2 0x532 JUMPI DUP2 DUP4 PUSH1 0x4 ADD DUP3 DUP2 SLOAD DUP2 LT PUSH2 0x4FB JUMPI PUSH2 0x4FA PUSH2 0x21C4 JUMP JUMPDEST JUMPDEST SWAP1 PUSH0 MSTORE PUSH1 0x20 PUSH0 KECCAK256 ADD PUSH1 0x40 MLOAD PUSH1 0x20 ADD PUSH2 0x514 SWAP3 SWAP2 SWAP1 PUSH2 0x2235 JUMP JUMPDEST PUSH1 0x40 MLOAD PUSH1 0x20 DUP2 DUP4 SUB SUB DUP2 MSTORE SWAP1 PUSH1 0x40 MSTORE SWAP2 POP DUP1 DUP1 PUSH1 0x1 ADD SWAP2 POP POP PUSH2 0x4D5 JUMP JUMPDEST POP PUSH0 DUP2 DUP1 MLOAD SWAP1 PUSH1 0x20 ADD KECCAK256 SWAP1 POP DUP1 PUSH1 0x4 PUSH0 DUP7 DUP2 MSTORE PUSH1 0x20 ADD SWAP1 DUP2 MSTORE PUSH1 0x20 ADD PUSH0 KECCAK256 DUP2 SWAP1 SSTORE POP POP POP POP POP JUMP JUMPDEST PUSH0 PUSH1 0x7 SLOAD SWAP1 POP SWAP1 JUMP JUMPDEST PUSH0 PUSH1 0x5 SLOAD SWAP1 POP SWAP1 JUMP JUMPDEST PUSH0 DUP1 SLOAD SWAP1 PUSH2 0x100 EXP SWAP1 DIV PUSH20 0xFFFFFFFFFFFFFFFFFFFFFFFFFFFFFFFFFFFFFFFF AND PUSH20 0xFFFFFFFFFFFFFFFFFFFFFFFFFFFFFFFFFFFFFFFF AND CALLER PUSH20 0xFFFFFFFFFFFFFFFFFFFFFFFFFFFFFFFFFFFFFFFF AND EQ PUSH2 0x5F9 JUMPI PUSH1 0x40 MLOAD PUSH32 0x8C379A000000000000000000000000000000000000000000000000000000000 DUP2 MSTORE PUSH1 0x4 ADD PUSH2 0x5F0 SWAP1 PUSH2 0x1DAF JUMP JUMPDEST PUSH1 0x40 MLOAD DUP1 SWAP2 SUB SWAP1 REVERT JUMPDEST PUSH1 0x40 MLOAD DUP1 PUSH1 0x40 ADD PUSH1 0x40 MSTORE DUP1 DUP4 DUP2 MSTORE PUSH1 0x20 ADD DUP3 DUP2 MSTORE POP PUSH1 0x2 PUSH0 DUP5 DUP2 MSTORE PUSH1 0x20 ADD SWAP1 DUP2 MSTORE PUSH1 0x20 ADD PUSH0 KECCAK256 PUSH0 DUP3 ADD MLOAD DUP2 PUSH0 ADD SSTORE PUSH1 0x20 DUP3 ADD MLOAD DUP2 PUSH1 0x1 ADD SWAP1 DUP2 PUSH2 0x63C SWAP2 SWAP1 PUSH2 0x1FC7 JUMP JUMPDEST POP SWAP1 POP POP PUSH1 0x6 DUP3 SWAP1 DUP1 PUSH1 0x1 DUP2 SLOAD ADD DUP1 DUP3 SSTORE DUP1 SWAP2 POP POP PUSH1 0x1 SWAP1 SUB SWAP1 PUSH0 MSTORE PUSH1 0x20 PUSH0 KECCAK256 ADD PUSH0 SWAP1 SWAP2 SWAP1 SWAP2 SWAP1 SWAP2 POP SSTORE POP POP JUMP JUMPDEST PUSH0 DUP1 SLOAD SWAP1 PUSH2 0x100 EXP SWAP1 DIV PUSH20 0xFFFFFFFFFFFFFFFFFFFFFFFFFFFFFFFFFFFFFFFF AND DUP2 JUMP JUMPDEST PUSH0 PUSH1 0x4 PUSH0 DUP4 DUP2 MSTORE PUSH1 0x20 ADD SWAP1 DUP2 MSTORE PUSH1 0x20 ADD PUSH0 KECCAK256 SLOAD SWAP1 POP SWAP2 SWAP1 POP JUMP JUMPDEST PUSH2 0x6AF PUSH2 0x106E JUMP JUMPDEST PUSH0 PUSH1 0x2 PUSH0 DUP5 DUP2 MSTORE PUSH1 0x20 ADD SWAP1 DUP2 MSTORE PUSH1 0x20 ADD PUSH0 KECCAK256 PUSH0 ADD SLOAD SUB PUSH2 0x704 JUMPI PUSH1 0x40 MLOAD PUSH32 0x8C379A000000000000000000000000000000000000000000000000000000000 DUP2 MSTORE PUSH1 0x4 ADD PUSH2 0x6FB SWAP1 PUSH2 0x22A2 JUMP JUMPDEST PUSH1 0x40 MLOAD DUP1 SWAP2 SUB SWAP1 REVERT JUMPDEST PUSH1 0x2 PUSH0 DUP4 DUP2 MSTORE PUSH1 0x20 ADD SWAP1 DUP2 MSTORE PUSH1 0x20 ADD PUSH0 KECCAK256 PUSH1 0x40 MLOAD DUP1 PUSH1 0x40 ADD PUSH1 0x40 MSTORE SWAP1 DUP2 PUSH0 DUP3 ADD SLOAD DUP2 MSTORE PUSH1 0x20 ADD PUSH1 0x1 DUP3 ADD DUP1 SLOAD PUSH2 0x739 SWAP1 PUSH2 0x1DFA JUMP JUMPDEST DUP1 PUSH1 0x1F ADD PUSH1 0x20 DUP1 SWAP2 DIV MUL PUSH1 0x20 ADD PUSH1 0x40 MLOAD SWAP1 DUP2 ADD PUSH1 0x40 MSTORE DUP1 SWAP3 SWAP2 SWAP1 DUP2 DUP2 MSTORE PUSH1 0x20 ADD DUP3 DUP1 SLOAD PUSH2 0x765 SWAP1 PUSH2 0x1DFA JUMP JUMPDEST DUP1 ISZERO PUSH2 0x7B0 JUMPI DUP1 PUSH1 0x1F LT PUSH2 0x787 JUMPI PUSH2 0x100 DUP1 DUP4 SLOAD DIV MUL DUP4 MSTORE SWAP2 PUSH1 0x20 ADD SWAP2 PUSH2 0x7B0 JUMP JUMPDEST DUP3 ADD SWAP2 SWAP1 PUSH0 MSTORE PUSH1 0x20 PUSH0 KECCAK256 SWAP1 JUMPDEST DUP2 SLOAD DUP2 MSTORE SWAP1 PUSH1 0x1 ADD SWAP1 PUSH1 0x20 ADD DUP1 DUP4 GT PUSH2 0x793 JUMPI DUP3 SWAP1 SUB PUSH1 0x1F AND DUP3 ADD SWAP2 JUMPDEST POP POP POP POP POP DUP2 MSTORE POP POP SWAP1 POP SWAP2 SWAP1 POP JUMP JUMPDEST PUSH0 DUP1 SLOAD SWAP1 PUSH2 0x100 EXP SWAP1 DIV PUSH20 0xFFFFFFFFFFFFFFFFFFFFFFFFFFFFFFFFFFFFFFFF AND PUSH20 0xFFFFFFFFFFFFFFFFFFFFFFFFFFFFFFFFFFFFFFFF AND CALLER PUSH20 0xFFFFFFFFFFFFFFFFFFFFFFFFFFFFFFFFFFFFFFFF AND EQ PUSH2 0x84D JUMPI PUSH1 0x40 MLOAD PUSH32 0x8C379A000000000000000000000000000000000000000000000000000000000 DUP2 MSTORE PUSH1 0x4 ADD PUSH2 0x844 SWAP1 PUSH2 0x1DAF JUMP JUMPDEST PUSH1 0x40 MLOAD DUP1 SWAP2 SUB SWAP1 REVERT JUMPDEST PUSH0 DUP2 MLOAD PUSH8 0xFFFFFFFFFFFFFFFF DUP2 GT ISZERO PUSH2 0x869 JUMPI PUSH2 0x868 PUSH2 0x1272 JUMP JUMPDEST JUMPDEST PUSH1 0x40 MLOAD SWAP1 DUP1 DUP3 MSTORE DUP1 PUSH1 0x20 MUL PUSH1 0x20 ADD DUP3 ADD PUSH1 0x40 MSTORE DUP1 ISZERO PUSH2 0x897 JUMPI DUP2 PUSH1 0x20 ADD PUSH1 0x20 DUP3 MUL DUP1 CALLDATASIZE DUP4 CALLDATACOPY DUP1 DUP3 ADD SWAP2 POP POP SWAP1 POP JUMPDEST POP SWAP1 POP PUSH0 JUMPDEST DUP3 MLOAD DUP2 LT ISZERO PUSH2 0x8F4 JUMPI PUSH2 0x8C8 DUP4 DUP3 DUP2 MLOAD DUP2 LT PUSH2 0x8BB JUMPI PUSH2 0x8BA PUSH2 0x21C4 JUMP JUMPDEST JUMPDEST PUSH1 0x20 MUL PUSH1 0x20 ADD ADD MLOAD PUSH2 0x68D JUMP JUMPDEST DUP3 DUP3 DUP2 MLOAD DUP2 LT PUSH2 0x8DB JUMPI PUSH2 0x8DA PUSH2 0x21C4 JUMP JUMPDEST JUMPDEST PUSH1 0x20 MUL PUSH1 0x20 ADD ADD DUP2 DUP2 MSTORE POP POP DUP1 DUP1 PUSH1 0x1 ADD SWAP2 POP POP PUSH2 0x89C JUMP JUMPDEST POP PUSH1 0x40 MLOAD DUP1 PUSH1 0xC0 ADD PUSH1 0x40 MSTORE DUP1 DUP8 DUP2 MSTORE PUSH1 0x20 ADD DUP7 DUP2 MSTORE PUSH1 0x20 ADD DUP6 DUP2 MSTORE PUSH1 0x20 ADD DUP5 DUP2 MSTORE PUSH1 0x20 ADD DUP4 DUP2 MSTORE PUSH1 0x20 ADD DUP3 DUP2 MSTORE POP PUSH1 0x1 PUSH0 DUP7 DUP2 MSTORE PUSH1 0x20 ADD SWAP1 DUP2 MSTORE PUSH1 0x20 ADD PUSH0 KECCAK256 PUSH0 DUP3 ADD MLOAD DUP2 PUSH0 ADD SWAP1 DUP2 PUSH2 0x946 SWAP2 SWAP1 PUSH2 0x1FC7 JUMP JUMPDEST POP PUSH1 0x20 DUP3 ADD MLOAD DUP2 PUSH1 0x1 ADD SWAP1 DUP2 PUSH2 0x95C SWAP2 SWAP1 PUSH2 0x1FC7 JUMP JUMPDEST POP PUSH1 0x40 DUP3 ADD MLOAD DUP2 PUSH1 0x2 ADD SSTORE PUSH1 0x60 DUP3 ADD MLOAD DUP2 PUSH1 0x3 ADD SWAP1 DUP1 MLOAD SWAP1 PUSH1 0x20 ADD SWAP1 PUSH2 0x983 SWAP3 SWAP2 SWAP1 PUSH2 0x1017 JUMP JUMPDEST POP PUSH1 0x80 DUP3 ADD MLOAD DUP2 PUSH1 0x4 ADD SWAP1 DUP1 MLOAD SWAP1 PUSH1 0x20 ADD SWAP1 PUSH2 0x9A0 SWAP3 SWAP2 SWAP1 PUSH2 0x1087 JUMP JUMPDEST POP PUSH1 0xA0 DUP3 ADD MLOAD DUP2 PUSH1 0x5 ADD SWAP1 DUP1 MLOAD SWAP1 PUSH1 0x20 ADD SWAP1 PUSH2 0x9BD SWAP3 SWAP2 SWAP1 PUSH2 0x10D2 JUMP JUMPDEST POP SWAP1 POP POP PUSH1 0x5 PUSH0 DUP2 SLOAD DUP1 SWAP3 SWAP2 SWAP1 PUSH2 0x9D3 SWAP1 PUSH2 0x20C3 JUMP JUMPDEST SWAP2 SWAP1 POP SSTORE POP POP POP POP POP POP POP JUMP JUMPDEST PUSH2 0x9E8 PUSH2 0x111D JUMP JUMPDEST PUSH0 PUSH1 0x1 PUSH0 DUP5 DUP2 MSTORE PUSH1 0x20 ADD SWAP1 DUP2 MSTORE PUSH1 0x20 ADD PUSH0 KECCAK256 PUSH1 0x2 ADD SLOAD SUB PUSH2 0xA3E JUMPI PUSH1 0x40 MLOAD PUSH32 0x8C379A000000000000000000000000000000000000000000000000000000000 DUP2 MSTORE PUSH1 0x4 ADD PUSH2 0xA35 SWAP1 PUSH2 0x230A JUMP JUMPDEST PUSH1 0x40 MLOAD DUP1 SWAP2 SUB SWAP1 REVERT JUMPDEST PUSH1 0x1 PUSH0 DUP4 DUP2 MSTORE PUSH1 0x20 ADD SWAP1 DUP2 MSTORE PUSH1 0x20 ADD PUSH0 KECCAK256 PUSH1 0x40 MLOAD DUP1 PUSH1 0xC0 ADD PUSH1 0x40 MSTORE SWAP1 DUP2 PUSH0 DUP3 ADD DUP1 SLOAD PUSH2 0xA69 SWAP1 PUSH2 0x1DFA JUMP JUMPDEST DUP1 PUSH1 0x1F ADD PUSH1 0x20 DUP1 SWAP2 DIV MUL PUSH1 0x20 ADD PUSH1 0x40 MLOAD SWAP1 DUP2 ADD PUSH1 0x40 MSTORE DUP1 SWAP3 SWAP2 SWAP1 DUP2 DUP2 MSTORE PUSH1 0x20 ADD DUP3 DUP1 SLOAD PUSH2 0xA95 SWAP1 PUSH2 0x1DFA JUMP JUMPDEST DUP1 ISZERO PUSH2 0xAE0 JUMPI DUP1 PUSH1 0x1F LT PUSH2 0xAB7 JUMPI PUSH2 0x100 DUP1 DUP4 SLOAD DIV MUL DUP4 MSTORE SWAP2 PUSH1 0x20 ADD SWAP2 PUSH2 0xAE0 JUMP JUMPDEST DUP3 ADD SWAP2 SWAP1 PUSH0 MSTORE PUSH1 0x20 PUSH0 KECCAK256 SWAP1 JUMPDEST DUP2 SLOAD DUP2 MSTORE SWAP1 PUSH1 0x1 ADD SWAP1 PUSH1 0x20 ADD DUP1 DUP4 GT PUSH2 0xAC3 JUMPI DUP3 SWAP1 SUB PUSH1 0x1F AND DUP3 ADD SWAP2 JUMPDEST POP POP POP POP POP DUP2 MSTORE PUSH1 0x20 ADD PUSH1 0x1 DUP3 ADD DUP1 SLOAD PUSH2 0xAF9 SWAP1 PUSH2 0x1DFA JUMP JUMPDEST DUP1 PUSH1 0x1F ADD PUSH1 0x20 DUP1 SWAP2 DIV MUL PUSH1 0x20 ADD PUSH1 0x40 MLOAD SWAP1 DUP2 ADD PUSH1 0x40 MSTORE DUP1 SWAP3 SWAP2 SWAP1 DUP2 DUP2 MSTORE PUSH1 0x20 ADD DUP3 DUP1 SLOAD PUSH2 0xB25 SWAP1 PUSH2 0x1DFA JUMP JUMPDEST DUP1 ISZERO PUSH2 0xB70 JUMPI DUP1 PUSH1 0x1F LT PUSH2 0xB47 JUMPI PUSH2 0x100 DUP1 DUP4 SLOAD DIV MUL DUP4 MSTORE SWAP2 PUSH1 0x20 ADD SWAP2 PUSH2 0xB70 JUMP JUMPDEST DUP3 ADD SWAP2 SWAP1 PUSH0 MSTORE PUSH1 0x20 PUSH0 KECCAK256 SWAP1 JUMPDEST DUP2 SLOAD DUP2 MSTORE SWAP1 PUSH1 0x1 ADD SWAP1 PUSH1 0x20 ADD DUP1 DUP4 GT PUSH2 0xB53 JUMPI DUP3 SWAP1 SUB PUSH1 0x1F AND DUP3 ADD SWAP2 JUMPDEST POP POP POP POP POP DUP2 MSTORE PUSH1 0x20 ADD PUSH1 0x2 DUP3 ADD SLOAD DUP2 MSTORE PUSH1 0x20 ADD PUSH1 0x3 DUP3 ADD DUP1 SLOAD DUP1 PUSH1 0x20 MUL PUSH1 0x20 ADD PUSH1 0x40 MLOAD SWAP1 DUP2 ADD PUSH1 0x40 MSTORE DUP1 SWAP3 SWAP2 SWAP1 DUP2 DUP2 MSTORE PUSH1 0x20 ADD PUSH0 SWAP1 JUMPDEST DUP3 DUP3 LT ISZERO PUSH2 0xC4F JUMPI DUP4 DUP3 SWAP1 PUSH0 MSTORE PUSH1 0x20 PUSH0 KECCAK256 ADD DUP1 SLOAD PUSH2 0xBC4 SWAP1 PUSH2 0x1DFA JUMP JUMPDEST DUP1 PUSH1 0x1F ADD PUSH1 0x20 DUP1 SWAP2 DIV MUL PUSH1 0x20 ADD PUSH1 0x40 MLOAD SWAP1 DUP2 ADD PUSH1 0x40 MSTORE DUP1 SWAP3 SWAP2 SWAP1 DUP2 DUP2 MSTORE PUSH1 0x20 ADD DUP3 DUP1 SLOAD PUSH2 0xBF0 SWAP1 PUSH2 0x1DFA JUMP JUMPDEST DUP1 ISZERO PUSH2 0xC3B JUMPI DUP1 PUSH1 0x1F LT PUSH2 0xC12 JUMPI PUSH2 0x100 DUP1 DUP4 SLOAD DIV MUL DUP4 MSTORE SWAP2 PUSH1 0x20 ADD SWAP2 PUSH2 0xC3B JUMP JUMPDEST DUP3 ADD SWAP2 SWAP1 PUSH0 MSTORE PUSH1 0x20 PUSH0 KECCAK256 SWAP1 JUMPDEST DUP2 SLOAD DUP2 MSTORE SWAP1 PUSH1 0x1 ADD SWAP1 PUSH1 0x20 ADD DUP1 DUP4 GT PUSH2 0xC1E JUMPI DUP3 SWAP1 SUB PUSH1 0x1F AND DUP3 ADD SWAP2 JUMPDEST POP POP POP POP POP DUP2 MSTORE PUSH1 0x20 ADD SWAP1 PUSH1 0x1 ADD SWAP1 PUSH2 0xBA7 JUMP JUMPDEST POP POP POP POP DUP2 MSTORE PUSH1 0x20 ADD PUSH1 0x4 DUP3 ADD DUP1 SLOAD DUP1 PUSH1 0x20 MUL PUSH1 0x20 ADD PUSH1 0x40 MLOAD SWAP1 DUP2 ADD PUSH1 0x40 MSTORE DUP1 SWAP3 SWAP2 SWAP1 DUP2 DUP2 MSTORE PUSH1 0x20 ADD DUP3 DUP1 SLOAD DUP1 ISZERO PUSH2 0xCA4 JUMPI PUSH1 0x20 MUL DUP3 ADD SWAP2 SWAP1 PUSH0 MSTORE PUSH1 0x20 PUSH0 KECCAK256 SWAP1 JUMPDEST DUP2 SLOAD DUP2 MSTORE PUSH1 0x20 ADD SWAP1 PUSH1 0x1 ADD SWAP1 DUP1 DUP4 GT PUSH2 0xC90 JUMPI JUMPDEST POP POP POP POP POP DUP2 MSTORE PUSH1 0x20 ADD PUSH1 0x5 DUP3 ADD DUP1 SLOAD DUP1 PUSH1 0x20 MUL PUSH1 0x20 ADD PUSH1 0x40 MLOAD SWAP1 DUP2 ADD PUSH1 0x40 MSTORE DUP1 SWAP3 SWAP2 SWAP1 DUP2 DUP2 MSTORE PUSH1 0x20 ADD DUP3 DUP1 SLOAD DUP1 ISZERO PUSH2 0xCFA JUMPI PUSH1 0x20 MUL DUP3 ADD SWAP2 SWAP1 PUSH0 MSTORE PUSH1 0x20 PUSH0 KECCAK256 SWAP1 JUMPDEST DUP2 SLOAD DUP2 MSTORE PUSH1 0x20 ADD SWAP1 PUSH1 0x1 ADD SWAP1 DUP1 DUP4 GT PUSH2 0xCE6 JUMPI JUMPDEST POP POP POP POP POP DUP2 MSTORE POP POP SWAP1 POP SWAP2 SWAP1 POP JUMP JUMPDEST PUSH2 0xD12 PUSH2 0x1152 JUMP JUMPDEST PUSH0 PUSH1 0x3 PUSH0 DUP5 DUP2 MSTORE PUSH1 0x20 ADD SWAP1 DUP2 MSTORE PUSH1 0x20 ADD PUSH0 KECCAK256 PUSH0 ADD SLOAD SUB PUSH2 0xD67 JUMPI PUSH1 0x40 MLOAD PUSH32 0x8C379A000000000000000000000000000000000000000000000000000000000 DUP2 MSTORE PUSH1 0x4 ADD PUSH2 0xD5E SWAP1 PUSH2 0x2372 JUMP JUMPDEST PUSH1 0x40 MLOAD DUP1 SWAP2 SUB SWAP1 REVERT JUMPDEST PUSH1 0x3 PUSH0 DUP4 DUP2 MSTORE PUSH1 0x20 ADD SWAP1 DUP2 MSTORE PUSH1 0x20 ADD PUSH0 KECCAK256 PUSH1 0x40 MLOAD DUP1 PUSH1 0xA0 ADD PUSH1 0x40 MSTORE SWAP1 DUP2 PUSH0 DUP3 ADD SLOAD DUP2 MSTORE PUSH1 0x20 ADD PUSH1 0x1 DUP3 ADD DUP1 SLOAD PUSH2 0xD9C SWAP1 PUSH2 0x1DFA JUMP JUMPDEST DUP1 PUSH1 0x1F ADD PUSH1 0x20 DUP1 SWAP2 DIV MUL PUSH1 0x20 ADD PUSH1 0x40 MLOAD SWAP1 DUP2 ADD PUSH1 0x40 MSTORE DUP1 SWAP3 SWAP2 SWAP1 DUP2 DUP2 MSTORE PUSH1 0x20 ADD DUP3 DUP1 SLOAD PUSH2 0xDC8 SWAP1 PUSH2 0x1DFA JUMP JUMPDEST DUP1 ISZERO PUSH2 0xE13 JUMPI DUP1 PUSH1 0x1F LT PUSH2 0xDEA JUMPI PUSH2 0x100 DUP1 DUP4 SLOAD DIV MUL DUP4 MSTORE SWAP2 PUSH1 0x20 ADD SWAP2 PUSH2 0xE13 JUMP JUMPDEST DUP3 ADD SWAP2 SWAP1 PUSH0 MSTORE PUSH1 0x20 PUSH0 KECCAK256 SWAP1 JUMPDEST DUP2 SLOAD DUP2 MSTORE SWAP1 PUSH1 0x1 ADD SWAP1 PUSH1 0x20 ADD DUP1 DUP4 GT PUSH2 0xDF6 JUMPI DUP3 SWAP1 SUB PUSH1 0x1F AND DUP3 ADD SWAP2 JUMPDEST POP POP POP POP POP DUP2 MSTORE PUSH1 0x20 ADD PUSH1 0x2 DUP3 ADD DUP1 SLOAD PUSH2 0xE2C SWAP1 PUSH2 0x1DFA JUMP JUMPDEST DUP1 PUSH1 0x1F ADD PUSH1 0x20 DUP1 SWAP2 DIV MUL PUSH1 0x20 ADD PUSH1 0x40 MLOAD SWAP1 DUP2 ADD PUSH1 0x40 MSTORE DUP1 SWAP3 SWAP2 SWAP1 DUP2 DUP2 MSTORE PUSH1 0x20 ADD DUP3 DUP1 SLOAD PUSH2 0xE58 SWAP1 PUSH2 0x1DFA JUMP JUMPDEST DUP1 ISZERO PUSH2 0xEA3 JUMPI DUP1 PUSH1 0x1F LT PUSH2 0xE7A JUMPI PUSH2 0x100 DUP1 DUP4 SLOAD DIV MUL DUP4 MSTORE SWAP2 PUSH1 0x20 ADD SWAP2 PUSH2 0xEA3 JUMP JUMPDEST DUP3 ADD SWAP2 SWAP1 PUSH0 MSTORE PUSH1 0x20 PUSH0 KECCAK256 SWAP1 JUMPDEST DUP2 SLOAD DUP2 MSTORE SWAP1 PUSH1 0x1 ADD SWAP1 PUSH1 0x20 ADD DUP1 DUP4 GT PUSH2 0xE86 JUMPI DUP3 SWAP1 SUB PUSH1 0x1F AND DUP3 ADD SWAP2 JUMPDEST POP POP POP POP POP DUP2 MSTORE PUSH1 0x20 ADD PUSH1 0x3 DUP3 ADD DUP1 SLOAD PUSH2 0xEBC SWAP1 PUSH2 0x1DFA JUMP JUMPDEST DUP1 PUSH1 0x1F ADD PUSH1 0x20 DUP1 SWAP2 DIV MUL PUSH1 0x20 ADD PUSH1 0x40 MLOAD SWAP1 DUP2 ADD PUSH1 0x40 MSTORE DUP1 SWAP3 SWAP2 SWAP1 DUP2 DUP2 MSTORE PUSH1 0x20 ADD DUP3 DUP1 SLOAD PUSH2 0xEE8 SWAP1 PUSH2 0x1DFA JUMP JUMPDEST DUP1 ISZERO PUSH2 0xF33 JUMPI DUP1 PUSH1 0x1F LT PUSH2 0xF0A JUMPI PUSH2 0x100 DUP1 DUP4 SLOAD DIV MUL DUP4 MSTORE SWAP2 PUSH1 0x20 ADD SWAP2 PUSH2 0xF33 JUMP JUMPDEST DUP3 ADD SWAP2 SWAP1 PUSH0 MSTORE PUSH1 0x20 PUSH0 KECCAK256 SWAP1 JUMPDEST DUP2 SLOAD DUP2 MSTORE SWAP1 PUSH1 0x1 ADD SWAP1 PUSH1 0x20 ADD DUP1 DUP4 GT PUSH2 0xF16 JUMPI DUP3 SWAP1 SUB PUSH1 0x1F AND DUP3 ADD SWAP2 JUMPDEST POP POP POP POP POP DUP2 MSTORE PUSH1 0x20 ADD PUSH1 0x4 DUP3 ADD DUP1 SLOAD DUP1 PUSH1 0x20 MUL PUSH1 0x20 ADD PUSH1 0x40 MLOAD SWAP1 DUP2 ADD PUSH1 0x40 MSTORE DUP1 SWAP3 SWAP2 SWAP1 DUP2 DUP2 MSTORE PUSH1 0x20 ADD PUSH0 SWAP1 JUMPDEST DUP3 DUP3 LT ISZERO PUSH2 0x1008 JUMPI DUP4 DUP3 SWAP1 PUSH0 MSTORE PUSH1 0x20 PUSH0 KECCAK256 ADD DUP1 SLOAD PUSH2 0xF7D SWAP1 PUSH2 0x1DFA JUMP JUMPDEST DUP1 PUSH1 0x1F ADD PUSH1 0x20 DUP1 SWAP2 DIV MUL PUSH1 0x20 ADD PUSH1 0x40 MLOAD SWAP1 DUP2 ADD PUSH1 0x40 MSTORE DUP1 SWAP3 SWAP2 SWAP1 DUP2 DUP2 MSTORE PUSH1 0x20 ADD DUP3 DUP1 SLOAD PUSH2 0xFA9 SWAP1 PUSH2 0x1DFA JUMP JUMPDEST DUP1 ISZERO PUSH2 0xFF4 JUMPI DUP1 PUSH1 0x1F LT PUSH2 0xFCB JUMPI PUSH2 0x100 DUP1 DUP4 SLOAD DIV MUL DUP4 MSTORE SWAP2 PUSH1 0x20 ADD SWAP2 PUSH2 0xFF4 JUMP JUMPDEST DUP3 ADD SWAP2 SWAP1 PUSH0 MSTORE PUSH1 0x20 PUSH0 KECCAK256 SWAP1 JUMPDEST DUP2 SLOAD DUP2 MSTORE SWAP1 PUSH1 0x1 ADD SWAP1 PUSH1 0x20 ADD DUP1 DUP4 GT PUSH2 0xFD7 JUMPI DUP3 SWAP1 SUB PUSH1 0x1F AND DUP3 ADD SWAP2 JUMPDEST POP POP POP POP POP DUP2 MSTORE PUSH1 0x20 ADD SWAP1 PUSH1 0x1 ADD SWAP1 PUSH2 0xF60 JUMP JUMPDEST POP POP POP POP DUP2 MSTORE POP POP SWAP1 POP SWAP2 SWAP1 POP JUMP JUMPDEST DUP3 DUP1 SLOAD DUP3 DUP3 SSTORE SWAP1 PUSH0 MSTORE PUSH1 0x20 PUSH0 KECCAK256 SWAP1 DUP2 ADD SWAP3 DUP3 ISZERO PUSH2 0x105D JUMPI SWAP2 PUSH1 0x20 MUL DUP3 ADD JUMPDEST DUP3 DUP2 GT ISZERO PUSH2 0x105C JUMPI DUP3 MLOAD DUP3 SWAP1 DUP2 PUSH2 0x104C SWAP2 SWAP1 PUSH2 0x1FC7 JUMP JUMPDEST POP SWAP2 PUSH1 0x20 ADD SWAP2 SWAP1 PUSH1 0x1 ADD SWAP1 PUSH2 0x1035 JUMP JUMPDEST JUMPDEST POP SWAP1 POP PUSH2 0x106A SWAP2 SWAP1 PUSH2 0x1180 JUMP JUMPDEST POP SWAP1 JUMP JUMPDEST PUSH1 0x40 MLOAD DUP1 PUSH1 0x40 ADD PUSH1 0x40 MSTORE DUP1 PUSH0 DUP2 MSTORE PUSH1 0x20 ADD PUSH1 0x60 DUP2 MSTORE POP SWAP1 JUMP JUMPDEST DUP3 DUP1 SLOAD DUP3 DUP3 SSTORE SWAP1 PUSH0 MSTORE PUSH1 0x20 PUSH0 KECCAK256 SWAP1 DUP2 ADD SWAP3 DUP3 ISZERO PUSH2 0x10C1 JUMPI SWAP2 PUSH1 0x20 MUL DUP3 ADD JUMPDEST DUP3 DUP2 GT ISZERO PUSH2 0x10C0 JUMPI DUP3 MLOAD DUP3 SSTORE SWAP2 PUSH1 0x20 ADD SWAP2 SWAP1 PUSH1 0x1 ADD SWAP1 PUSH2 0x10A5 JUMP JUMPDEST JUMPDEST POP SWAP1 POP PUSH2 0x10CE SWAP2 SWAP1 PUSH2 0x11A3 JUMP JUMPDEST POP SWAP1 JUMP JUMPDEST DUP3 DUP1 SLOAD DUP3 DUP3 SSTORE SWAP1 PUSH0 MSTORE PUSH1 0x20 PUSH0 KECCAK256 SWAP1 DUP2 ADD SWAP3 DUP3 ISZERO PUSH2 0x110C JUMPI SWAP2 PUSH1 0x20 MUL DUP3 ADD JUMPDEST DUP3 DUP2 GT ISZERO PUSH2 0x110B JUMPI DUP3 MLOAD DUP3 SSTORE SWAP2 PUSH1 0x20 ADD SWAP2 SWAP1 PUSH1 0x1 ADD SWAP1 PUSH2 0x10F0 JUMP JUMPDEST JUMPDEST POP SWAP1 POP PUSH2 0x1119 SWAP2 SWAP1 PUSH2 0x11BE JUMP JUMPDEST POP SWAP1 JUMP JUMPDEST PUSH1 0x40 MLOAD DUP1 PUSH1 0xC0 ADD PUSH1 0x40 MSTORE DUP1 PUSH1 0x60 DUP2 MSTORE PUSH1 0x20 ADD PUSH1 0x60 DUP2 MSTORE PUSH1 0x20 ADD PUSH0 DUP2 MSTORE PUSH1 0x20 ADD PUSH1 0x60 DUP2 MSTORE PUSH1 0x20 ADD PUSH1 0x60 DUP2 MSTORE PUSH1 0x20 ADD PUSH1 0x60 DUP2 MSTORE POP SWAP1 JUMP JUMPDEST PUSH1 0x40 MLOAD DUP1 PUSH1 0xA0 ADD PUSH1 0x40 MSTORE DUP1 PUSH0 DUP2 MSTORE PUSH1 0x20 ADD PUSH1 0x60 DUP2 MSTORE PUSH1 0x20 ADD PUSH1 0x60 DUP2 MSTORE PUSH1 0x20 ADD PUSH1 0x60 DUP2 MSTORE PUSH1 0x20 ADD PUSH1 0x60 DUP2 MSTORE POP SWAP1 JUMP JUMPDEST JUMPDEST DUP1 DUP3 GT ISZERO PUSH2 0x119F JUMPI PUSH0 DUP2 DUP2 PUSH2 0x1196 SWAP2 SWAP1 PUSH2 0x11D9 JUMP JUMPDEST POP PUSH1 0x1 ADD PUSH2 0x1181 JUMP JUMPDEST POP SWAP1 JUMP JUMPDEST JUMPDEST DUP1 DUP3 GT ISZERO PUSH2 0x11BA JUMPI PUSH0 DUP2 PUSH0 SWAP1 SSTORE POP PUSH1 0x1 ADD PUSH2 0x11A4 JUMP JUMPDEST POP SWAP1 JUMP JUMPDEST JUMPDEST DUP1 DUP3 GT ISZERO PUSH2 0x11D5 JUMPI PUSH0 DUP2 PUSH0 SWAP1 SSTORE POP PUSH1 0x1 ADD PUSH2 0x11BF JUMP JUMPDEST POP SWAP1 JUMP JUMPDEST POP DUP1 SLOAD PUSH2 0x11E5 SWAP1 PUSH2 0x1DFA JUMP JUMPDEST PUSH0 DUP3 SSTORE DUP1 PUSH1 0x1F LT PUSH2 0x11F6 JUMPI POP PUSH2 0x1213 JUMP JUMPDEST PUSH1 0x1F ADD PUSH1 0x20 SWAP1 DIV SWAP1 PUSH0 MSTORE PUSH1 0x20 PUSH0 KECCAK256 SWAP1 DUP2 ADD SWAP1 PUSH2 0x1212 SWAP2 SWAP1 PUSH2 0x11A3 JUMP JUMPDEST JUMPDEST POP JUMP JUMPDEST PUSH0 PUSH1 0x40 MLOAD SWAP1 POP SWAP1 JUMP JUMPDEST PUSH0 DUP1 REVERT JUMPDEST PUSH0 DUP1 REVERT JUMPDEST PUSH0 DUP2 SWAP1 POP SWAP2 SWAP1 POP JUMP JUMPDEST PUSH2 0x1239 DUP2 PUSH2 0x1227 JUMP JUMPDEST DUP2 EQ PUSH2 0x1243 JUMPI PUSH0 DUP1 REVERT JUMPDEST POP JUMP JUMPDEST PUSH0 DUP2 CALLDATALOAD SWAP1 POP PUSH2 0x1254 DUP2 PUSH2 0x1230 JUMP JUMPDEST SWAP3 SWAP2 POP POP JUMP JUMPDEST PUSH0 DUP1 REVERT JUMPDEST PUSH0 DUP1 REVERT JUMPDEST PUSH0 PUSH1 0x1F NOT PUSH1 0x1F DUP4 ADD AND SWAP1 POP SWAP2 SWAP1 POP JUMP JUMPDEST PUSH32 0x4E487B7100000000000000000000000000000000000000000000000000000000 PUSH0 MSTORE PUSH1 0x41 PUSH1 0x4 MSTORE PUSH1 0x24 PUSH0 REVERT JUMPDEST PUSH2 0x12A8 DUP3 PUSH2 0x1262 JUMP JUMPDEST DUP2 ADD DUP2 DUP2 LT PUSH8 0xFFFFFFFFFFFFFFFF DUP3 GT OR ISZERO PUSH2 0x12C7 JUMPI PUSH2 0x12C6 PUSH2 0x1272 JUMP JUMPDEST JUMPDEST DUP1 PUSH1 0x40 MSTORE POP POP POP JUMP JUMPDEST PUSH0 PUSH2 0x12D9 PUSH2 0x1216 JUMP JUMPDEST SWAP1 POP PUSH2 0x12E5 DUP3 DUP3 PUSH2 0x129F JUMP JUMPDEST SWAP2 SWAP1 POP JUMP JUMPDEST PUSH0 PUSH8 0xFFFFFFFFFFFFFFFF DUP3 GT ISZERO PUSH2 0x1304 JUMPI PUSH2 0x1303 PUSH2 0x1272 JUMP JUMPDEST JUMPDEST PUSH2 0x130D DUP3 PUSH2 0x1262 JUMP JUMPDEST SWAP1 POP PUSH1 0x20 DUP2 ADD SWAP1 POP SWAP2 SWAP1 POP JUMP JUMPDEST DUP3 DUP2 DUP4 CALLDATACOPY PUSH0 DUP4 DUP4 ADD MSTORE POP POP POP JUMP JUMPDEST PUSH0 PUSH2 0x133A PUSH2 0x1335 DUP5 PUSH2 0x12EA JUMP JUMPDEST PUSH2 0x12D0 JUMP JUMPDEST SWAP1 POP DUP3 DUP2 MSTORE PUSH1 0x20 DUP2 ADD DUP5 DUP5 DUP5 ADD GT ISZERO PUSH2 0x1356 JUMPI PUSH2 0x1355 PUSH2 0x125E JUMP JUMPDEST JUMPDEST PUSH2 0x1361 DUP5 DUP3 DUP6 PUSH2 0x131A JUMP JUMPDEST POP SWAP4 SWAP3 POP POP POP JUMP JUMPDEST PUSH0 DUP3 PUSH1 0x1F DUP4 ADD SLT PUSH2 0x137D JUMPI PUSH2 0x137C PUSH2 0x125A JUMP JUMPDEST JUMPDEST DUP2 CALLDATALOAD PUSH2 0x138D DUP5 DUP3 PUSH1 0x20 DUP7 ADD PUSH2 0x1328 JUMP JUMPDEST SWAP2 POP POP SWAP3 SWAP2 POP POP JUMP JUMPDEST PUSH0 PUSH8 0xFFFFFFFFFFFFFFFF DUP3 GT ISZERO PUSH2 0x13B0 JUMPI PUSH2 0x13AF PUSH2 0x1272 JUMP JUMPDEST JUMPDEST PUSH1 0x20 DUP3 MUL SWAP1 POP PUSH1 0x20 DUP2 ADD SWAP1 POP SWAP2 SWAP1 POP JUMP JUMPDEST PUSH0 DUP1 REVERT JUMPDEST PUSH0 PUSH2 0x13D7 PUSH2 0x13D2 DUP5 PUSH2 0x1396 JUMP JUMPDEST PUSH2 0x12D0 JUMP JUMPDEST SWAP1 POP DUP1 DUP4 DUP3 MSTORE PUSH1 0x20 DUP3 ADD SWAP1 POP PUSH1 0x20 DUP5 MUL DUP4 ADD DUP6 DUP2 GT ISZERO PUSH2 0x13FA JUMPI PUSH2 0x13F9 PUSH2 0x13C1 JUMP JUMPDEST JUMPDEST DUP4 JUMPDEST DUP2 DUP2 LT ISZERO PUSH2 0x1441 JUMPI DUP1 CALLDATALOAD PUSH8 0xFFFFFFFFFFFFFFFF DUP2 GT ISZERO PUSH2 0x141F JUMPI PUSH2 0x141E PUSH2 0x125A JUMP JUMPDEST JUMPDEST DUP1 DUP7 ADD PUSH2 0x142C DUP10 DUP3 PUSH2 0x1369 JUMP JUMPDEST DUP6 MSTORE PUSH1 0x20 DUP6 ADD SWAP5 POP POP POP PUSH1 0x20 DUP2 ADD SWAP1 POP PUSH2 0x13FC JUMP JUMPDEST POP POP POP SWAP4 SWAP3 POP POP POP JUMP JUMPDEST PUSH0 DUP3 PUSH1 0x1F DUP4 ADD SLT PUSH2 0x145F JUMPI PUSH2 0x145E PUSH2 0x125A JUMP JUMPDEST JUMPDEST DUP2 CALLDATALOAD PUSH2 0x146F DUP5 DUP3 PUSH1 0x20 DUP7 ADD PUSH2 0x13C5 JUMP JUMPDEST SWAP2 POP POP SWAP3 SWAP2 POP POP JUMP JUMPDEST PUSH0 DUP1 PUSH0 DUP1 PUSH0 PUSH1 0xA0 DUP7 DUP9 SUB SLT ISZERO PUSH2 0x1491 JUMPI PUSH2 0x1490 PUSH2 0x121F JUMP JUMPDEST JUMPDEST PUSH0 PUSH2 0x149E DUP9 DUP3 DUP10 ADD PUSH2 0x1246 JUMP JUMPDEST SWAP6 POP POP PUSH1 0x20 DUP7 ADD CALLDATALOAD PUSH8 0xFFFFFFFFFFFFFFFF DUP2 GT ISZERO PUSH2 0x14BF JUMPI PUSH2 0x14BE PUSH2 0x1223 JUMP JUMPDEST JUMPDEST PUSH2 0x14CB DUP9 DUP3 DUP10 ADD PUSH2 0x1369 JUMP JUMPDEST SWAP5 POP POP PUSH1 0x40 DUP7 ADD CALLDATALOAD PUSH8 0xFFFFFFFFFFFFFFFF DUP2 GT ISZERO PUSH2 0x14EC JUMPI PUSH2 0x14EB PUSH2 0x1223 JUMP JUMPDEST JUMPDEST PUSH2 0x14F8 DUP9 DUP3 DUP10 ADD PUSH2 0x1369 JUMP JUMPDEST SWAP4 POP POP PUSH1 0x60 DUP7 ADD CALLDATALOAD PUSH8 0xFFFFFFFFFFFFFFFF DUP2 GT ISZERO PUSH2 0x1519 JUMPI PUSH2 0x1518 PUSH2 0x1223 JUMP JUMPDEST JUMPDEST PUSH2 0x1525 DUP9 DUP3 DUP10 ADD PUSH2 0x1369 JUMP JUMPDEST SWAP3 POP POP PUSH1 0x80 DUP7 ADD CALLDATALOAD PUSH8 0xFFFFFFFFFFFFFFFF DUP2 GT ISZERO PUSH2 0x1546 JUMPI PUSH2 0x1545 PUSH2 0x1223 JUMP JUMPDEST JUMPDEST PUSH2 0x1552 DUP9 DUP3 DUP10 ADD PUSH2 0x144B JUMP JUMPDEST SWAP2 POP POP SWAP3 SWAP6 POP SWAP3 SWAP6 SWAP1 SWAP4 POP JUMP JUMPDEST PUSH0 DUP2 MLOAD SWAP1 POP SWAP2 SWAP1 POP JUMP JUMPDEST PUSH0 DUP3 DUP3 MSTORE PUSH1 0x20 DUP3 ADD SWAP1 POP SWAP3 SWAP2 POP POP JUMP JUMPDEST PUSH0 DUP2 SWAP1 POP PUSH1 0x20 DUP3 ADD SWAP1 POP SWAP2 SWAP1 POP JUMP JUMPDEST PUSH2 0x1591 DUP2 PUSH2 0x1227 JUMP JUMPDEST DUP3 MSTORE POP POP JUMP JUMPDEST PUSH0 PUSH2 0x15A2 DUP4 DUP4 PUSH2 0x1588 JUMP JUMPDEST PUSH1 0x20 DUP4 ADD SWAP1 POP SWAP3 SWAP2 POP POP JUMP JUMPDEST PUSH0 PUSH1 0x20 DUP3 ADD SWAP1 POP SWAP2 SWAP1 POP JUMP JUMPDEST PUSH0 PUSH2 0x15C4 DUP3 PUSH2 0x155F JUMP JUMPDEST PUSH2 0x15CE DUP2 DUP6 PUSH2 0x1569 JUMP JUMPDEST SWAP4 POP PUSH2 0x15D9 DUP4 PUSH2 0x1579 JUMP JUMPDEST DUP1 PUSH0 JUMPDEST DUP4 DUP2 LT ISZERO PUSH2 0x1609 JUMPI DUP2 MLOAD PUSH2 0x15F0 DUP9 DUP3 PUSH2 0x1597 JUMP JUMPDEST SWAP8 POP PUSH2 0x15FB DUP4 PUSH2 0x15AE JUMP JUMPDEST SWAP3 POP POP PUSH1 0x1 DUP2 ADD SWAP1 POP PUSH2 0x15DC JUMP JUMPDEST POP DUP6 SWAP4 POP POP POP POP SWAP3 SWAP2 POP POP JUMP JUMPDEST PUSH0 PUSH1 0x20 DUP3 ADD SWAP1 POP DUP2 DUP2 SUB PUSH0 DUP4 ADD MSTORE PUSH2 0x162E DUP2 DUP5 PUSH2 0x15BA JUMP JUMPDEST SWAP1 POP SWAP3 SWAP2 POP POP JUMP JUMPDEST PUSH0 PUSH1 0x20 DUP3 DUP5 SUB SLT ISZERO PUSH2 0x164B JUMPI PUSH2 0x164A PUSH2 0x121F JUMP JUMPDEST JUMPDEST PUSH0 PUSH2 0x1658 DUP5 DUP3 DUP6 ADD PUSH2 0x1246 JUMP JUMPDEST SWAP2 POP POP SWAP3 SWAP2 POP POP JUMP JUMPDEST PUSH2 0x166A DUP2 PUSH2 0x1227 JUMP JUMPDEST DUP3 MSTORE POP POP JUMP JUMPDEST PUSH0 PUSH1 0x20 DUP3 ADD SWAP1 POP PUSH2 0x1683 PUSH0 DUP4 ADD DUP5 PUSH2 0x1661 JUMP JUMPDEST SWAP3 SWAP2 POP POP JUMP JUMPDEST PUSH0 DUP1 PUSH1 0x40 DUP4 DUP6 SUB SLT ISZERO PUSH2 0x169F JUMPI PUSH2 0x169E PUSH2 0x121F JUMP JUMPDEST JUMPDEST PUSH0 PUSH2 0x16AC DUP6 DUP3 DUP7 ADD PUSH2 0x1246 JUMP JUMPDEST SWAP3 POP POP PUSH1 0x20 DUP4 ADD CALLDATALOAD PUSH8 0xFFFFFFFFFFFFFFFF DUP2 GT ISZERO PUSH2 0x16CD JUMPI PUSH2 0x16CC PUSH2 0x1223 JUMP JUMPDEST JUMPDEST PUSH2 0x16D9 DUP6 DUP3 DUP7 ADD PUSH2 0x1369 JUMP JUMPDEST SWAP2 POP POP SWAP3 POP SWAP3 SWAP1 POP JUMP JUMPDEST PUSH0 PUSH20 0xFFFFFFFFFFFFFFFFFFFFFFFFFFFFFFFFFFFFFFFF DUP3 AND SWAP1 POP SWAP2 SWAP1 POP JUMP JUMPDEST PUSH0 PUSH2 0x170C DUP3 PUSH2 0x16E3 JUMP JUMPDEST SWAP1 POP SWAP2 SWAP1 POP JUMP JUMPDEST PUSH2 0x171C DUP2 PUSH2 0x1702 JUMP JUMPDEST DUP3 MSTORE POP POP JUMP JUMPDEST PUSH0 PUSH1 0x20 DUP3 ADD SWAP1 POP PUSH2 0x1735 PUSH0 DUP4 ADD DUP5 PUSH2 0x1713 JUMP JUMPDEST SWAP3 SWAP2 POP POP JUMP JUMPDEST PUSH0 DUP2 SWAP1 POP SWAP2 SWAP1 POP JUMP JUMPDEST PUSH2 0x174D DUP2 PUSH2 0x173B JUMP JUMPDEST DUP3 MSTORE POP POP JUMP JUMPDEST PUSH0 PUSH1 0x20 DUP3 ADD SWAP1 POP PUSH2 0x1766 PUSH0 DUP4 ADD DUP5 PUSH2 0x1744 JUMP JUMPDEST SWAP3 SWAP2 POP POP JUMP JUMPDEST PUSH0 DUP2 MLOAD SWAP1 POP SWAP2 SWAP1 POP JUMP JUMPDEST PUSH0 DUP3 DUP3 MSTORE PUSH1 0x20 DUP3 ADD SWAP1 POP SWAP3 SWAP2 POP POP JUMP JUMPDEST PUSH0 JUMPDEST DUP4 DUP2 LT ISZERO PUSH2 0x17A3 JUMPI DUP1 DUP3 ADD MLOAD DUP2 DUP5 ADD MSTORE PUSH1 0x20 DUP2 ADD SWAP1 POP PUSH2 0x1788 JUMP JUMPDEST PUSH0 DUP5 DUP5 ADD MSTORE POP POP POP POP JUMP JUMPDEST PUSH0 PUSH2 0x17B8 DUP3 PUSH2 0x176C JUMP JUMPDEST PUSH2 0x17C2 DUP2 DUP6 PUSH2 0x1776 JUMP JUMPDEST SWAP4 POP PUSH2 0x17D2 DUP2 DUP6 PUSH1 0x20 DUP7 ADD PUSH2 0x1786 JUMP JUMPDEST PUSH2 0x17DB DUP2 PUSH2 0x1262 JUMP JUMPDEST DUP5 ADD SWAP2 POP POP SWAP3 SWAP2 POP POP JUMP JUMPDEST PUSH0 PUSH1 0x40 DUP4 ADD PUSH0 DUP4 ADD MLOAD PUSH2 0x17FB PUSH0 DUP7 ADD DUP3 PUSH2 0x1588 JUMP JUMPDEST POP PUSH1 0x20 DUP4 ADD MLOAD DUP5 DUP3 SUB PUSH1 0x20 DUP7 ADD MSTORE PUSH2 0x1813 DUP3 DUP3 PUSH2 0x17AE JUMP JUMPDEST SWAP2 POP POP DUP1 SWAP2 POP POP SWAP3 SWAP2 POP POP JUMP JUMPDEST PUSH0 PUSH1 0x20 DUP3 ADD SWAP1 POP DUP2 DUP2 SUB PUSH0 DUP4 ADD MSTORE PUSH2 0x1838 DUP2 DUP5 PUSH2 0x17E6 JUMP JUMPDEST SWAP1 POP SWAP3 SWAP2 POP POP JUMP JUMPDEST PUSH0 PUSH8 0xFFFFFFFFFFFFFFFF DUP3 GT ISZERO PUSH2 0x185A JUMPI PUSH2 0x1859 PUSH2 0x1272 JUMP JUMPDEST JUMPDEST PUSH1 0x20 DUP3 MUL SWAP1 POP PUSH1 0x20 DUP2 ADD SWAP1 POP SWAP2 SWAP1 POP JUMP JUMPDEST PUSH0 PUSH2 0x187D PUSH2 0x1878 DUP5 PUSH2 0x1840 JUMP JUMPDEST PUSH2 0x12D0 JUMP JUMPDEST SWAP1 POP DUP1 DUP4 DUP3 MSTORE PUSH1 0x20 DUP3 ADD SWAP1 POP PUSH1 0x20 DUP5 MUL DUP4 ADD DUP6 DUP2 GT ISZERO PUSH2 0x18A0 JUMPI PUSH2 0x189F PUSH2 0x13C1 JUMP JUMPDEST JUMPDEST DUP4 JUMPDEST DUP2 DUP2 LT ISZERO PUSH2 0x18C9 JUMPI DUP1 PUSH2 0x18B5 DUP9 DUP3 PUSH2 0x1246 JUMP JUMPDEST DUP5 MSTORE PUSH1 0x20 DUP5 ADD SWAP4 POP POP PUSH1 0x20 DUP2 ADD SWAP1 POP PUSH2 0x18A2 JUMP JUMPDEST POP POP POP SWAP4 SWAP3 POP POP POP JUMP JUMPDEST PUSH0 DUP3 PUSH1 0x1F DUP4 ADD SLT PUSH2 0x18E7 JUMPI PUSH2 0x18E6 PUSH2 0x125A JUMP JUMPDEST JUMPDEST DUP2 CALLDATALOAD PUSH2 0x18F7 DUP5 DUP3 PUSH1 0x20 DUP7 ADD PUSH2 0x186B JUMP JUMPDEST SWAP2 POP POP SWAP3 SWAP2 POP POP JUMP JUMPDEST PUSH0 DUP1 PUSH0 DUP1 PUSH0 PUSH1 0xA0 DUP7 DUP9 SUB SLT ISZERO PUSH2 0x1919 JUMPI PUSH2 0x1918 PUSH2 0x121F JUMP JUMPDEST JUMPDEST PUSH0 DUP7 ADD CALLDATALOAD PUSH8 0xFFFFFFFFFFFFFFFF DUP2 GT ISZERO PUSH2 0x1936 JUMPI PUSH2 0x1935 PUSH2 0x1223 JUMP JUMPDEST JUMPDEST PUSH2 0x1942 DUP9 DUP3 DUP10 ADD PUSH2 0x1369 JUMP JUMPDEST SWAP6 POP POP PUSH1 0x20 DUP7 ADD CALLDATALOAD PUSH8 0xFFFFFFFFFFFFFFFF DUP2 GT ISZERO PUSH2 0x1963 JUMPI PUSH2 0x1962 PUSH2 0x1223 JUMP JUMPDEST JUMPDEST PUSH2 0x196F DUP9 DUP3 DUP10 ADD PUSH2 0x1369 JUMP JUMPDEST SWAP5 POP POP PUSH1 0x40 PUSH2 0x1980 DUP9 DUP3 DUP10 ADD PUSH2 0x1246 JUMP JUMPDEST SWAP4 POP POP PUSH1 0x60 DUP7 ADD CALLDATALOAD PUSH8 0xFFFFFFFFFFFFFFFF DUP2 GT ISZERO PUSH2 0x19A1 JUMPI PUSH2 0x19A0 PUSH2 0x1223 JUMP JUMPDEST JUMPDEST PUSH2 0x19AD DUP9 DUP3 DUP10 ADD PUSH2 0x144B JUMP JUMPDEST SWAP3 POP POP PUSH1 0x80 DUP7 ADD CALLDATALOAD PUSH8 0xFFFFFFFFFFFFFFFF DUP2 GT ISZERO PUSH2 0x19CE JUMPI PUSH2 0x19CD PUSH2 0x1223 JUMP JUMPDEST JUMPDEST PUSH2 0x19DA DUP9 DUP3 DUP10 ADD PUSH2 0x18D3 JUMP JUMPDEST SWAP2 POP POP SWAP3 SWAP6 POP SWAP3 SWAP6 SWAP1 SWAP4 POP JUMP JUMPDEST PUSH0 DUP2 MLOAD SWAP1 POP SWAP2 SWAP1 POP JUMP JUMPDEST PUSH0 DUP3 DUP3 MSTORE PUSH1 0x20 DUP3 ADD SWAP1 POP SWAP3 SWAP2 POP POP JUMP JUMPDEST PUSH0 DUP2 SWAP1 POP PUSH1 0x20 DUP3 ADD SWAP1 POP SWAP2 SWAP1 POP JUMP JUMPDEST PUSH0 PUSH2 0x1A1B DUP4 DUP4 PUSH2 0x17AE JUMP JUMPDEST SWAP1 POP SWAP3 SWAP2 POP POP JUMP JUMPDEST PUSH0 PUSH1 0x20 DUP3 ADD SWAP1 POP SWAP2 SWAP1 POP JUMP JUMPDEST PUSH0 PUSH2 0x1A39 DUP3 PUSH2 0x19E7 JUMP JUMPDEST PUSH2 0x1A43 DUP2 DUP6 PUSH2 0x19F1 JUMP JUMPDEST SWAP4 POP DUP4 PUSH1 0x20 DUP3 MUL DUP6 ADD PUSH2 0x1A55 DUP6 PUSH2 0x1A01 JUMP JUMPDEST DUP1 PUSH0 JUMPDEST DUP6 DUP2 LT ISZERO PUSH2 0x1A90 JUMPI DUP5 DUP5 SUB DUP10 MSTORE DUP2 MLOAD PUSH2 0x1A71 DUP6 DUP3 PUSH2 0x1A10 JUMP JUMPDEST SWAP5 POP PUSH2 0x1A7C DUP4 PUSH2 0x1A23 JUMP JUMPDEST SWAP3 POP PUSH1 0x20 DUP11 ADD SWAP10 POP POP PUSH1 0x1 DUP2 ADD SWAP1 POP PUSH2 0x1A58 JUMP JUMPDEST POP DUP3 SWAP8 POP DUP8 SWAP6 POP POP POP POP POP POP SWAP3 SWAP2 POP POP JUMP JUMPDEST PUSH0 DUP3 DUP3 MSTORE PUSH1 0x20 DUP3 ADD SWAP1 POP SWAP3 SWAP2 POP POP JUMP JUMPDEST PUSH0 PUSH2 0x1ABC DUP3 PUSH2 0x155F JUMP JUMPDEST PUSH2 0x1AC6 DUP2 DUP6 PUSH2 0x1AA2 JUMP JUMPDEST SWAP4 POP PUSH2 0x1AD1 DUP4 PUSH2 0x1579 JUMP JUMPDEST DUP1 PUSH0 JUMPDEST DUP4 DUP2 LT ISZERO PUSH2 0x1B01 JUMPI DUP2 MLOAD PUSH2 0x1AE8 DUP9 DUP3 PUSH2 0x1597 JUMP JUMPDEST SWAP8 POP PUSH2 0x1AF3 DUP4 PUSH2 0x15AE JUMP JUMPDEST SWAP3 POP POP PUSH1 0x1 DUP2 ADD SWAP1 POP PUSH2 0x1AD4 JUMP JUMPDEST POP DUP6 SWAP4 POP POP POP POP SWAP3 SWAP2 POP POP JUMP JUMPDEST PUSH0 DUP2 MLOAD SWAP1 POP SWAP2 SWAP1 POP JUMP JUMPDEST PUSH0 DUP3 DUP3 MSTORE PUSH1 0x20 DUP3 ADD SWAP1 POP SWAP3 SWAP2 POP POP JUMP JUMPDEST PUSH0 DUP2 SWAP1 POP PUSH1 0x20 DUP3 ADD SWAP1 POP SWAP2 SWAP1 POP JUMP JUMPDEST PUSH2 0x1B40 DUP2 PUSH2 0x173B JUMP JUMPDEST DUP3 MSTORE POP POP JUMP JUMPDEST PUSH0 PUSH2 0x1B51 DUP4 DUP4 PUSH2 0x1B37 JUMP JUMPDEST PUSH1 0x20 DUP4 ADD SWAP1 POP SWAP3 SWAP2 POP POP JUMP JUMPDEST PUSH0 PUSH1 0x20 DUP3 ADD SWAP1 POP SWAP2 SWAP1 POP JUMP JUMPDEST PUSH0 PUSH2 0x1B73 DUP3 PUSH2 0x1B0E JUMP JUMPDEST PUSH2 0x1B7D DUP2 DUP6 PUSH2 0x1B18 JUMP JUMPDEST SWAP4 POP PUSH2 0x1B88 DUP4 PUSH2 0x1B28 JUMP JUMPDEST DUP1 PUSH0 JUMPDEST DUP4 DUP2 LT ISZERO PUSH2 0x1BB8 JUMPI DUP2 MLOAD PUSH2 0x1B9F DUP9 DUP3 PUSH2 0x1B46 JUMP JUMPDEST SWAP8 POP PUSH2 0x1BAA DUP4 PUSH2 0x1B5D JUMP JUMPDEST SWAP3 POP POP PUSH1 0x1 DUP2 ADD SWAP1 POP PUSH2 0x1B8B JUMP JUMPDEST POP DUP6 SWAP4 POP POP POP POP SWAP3 SWAP2 POP POP JUMP JUMPDEST PUSH0 PUSH1 0xC0 DUP4 ADD PUSH0 DUP4 ADD MLOAD DUP5 DUP3 SUB PUSH0 DUP7 ADD MSTORE PUSH2 0x1BDF DUP3 DUP3 PUSH2 0x17AE JUMP JUMPDEST SWAP2 POP POP PUSH1 0x20 DUP4 ADD MLOAD DUP5 DUP3 SUB PUSH1 0x20 DUP7 ADD MSTORE PUSH2 0x1BF9 DUP3 DUP3 PUSH2 0x17AE JUMP JUMPDEST SWAP2 POP POP PUSH1 0x40 DUP4 ADD MLOAD PUSH2 0x1C0E PUSH1 0x40 DUP7 ADD DUP3 PUSH2 0x1588 JUMP JUMPDEST POP PUSH1 0x60 DUP4 ADD MLOAD DUP5 DUP3 SUB PUSH1 0x60 DUP7 ADD MSTORE PUSH2 0x1C26 DUP3 DUP3 PUSH2 0x1A2F JUMP JUMPDEST SWAP2 POP POP PUSH1 0x80 DUP4 ADD MLOAD DUP5 DUP3 SUB PUSH1 0x80 DUP7 ADD MSTORE PUSH2 0x1C40 DUP3 DUP3 PUSH2 0x1AB2 JUMP JUMPDEST SWAP2 POP POP PUSH1 0xA0 DUP4 ADD MLOAD DUP5 DUP3 SUB PUSH1 0xA0 DUP7 ADD MSTORE PUSH2 0x1C5A DUP3 DUP3 PUSH2 0x1B69 JUMP JUMPDEST SWAP2 POP POP DUP1 SWAP2 POP POP SWAP3 SWAP2 POP POP JUMP JUMPDEST PUSH0 PUSH1 0x20 DUP3 ADD SWAP1 POP DUP2 DUP2 SUB PUSH0 DUP4 ADD MSTORE PUSH2 0x1C7F DUP2 DUP5 PUSH2 0x1BC5 JUMP JUMPDEST SWAP1 POP SWAP3 SWAP2 POP POP JUMP JUMPDEST PUSH0 PUSH1 0xA0 DUP4 ADD PUSH0 DUP4 ADD MLOAD PUSH2 0x1C9C PUSH0 DUP7 ADD DUP3 PUSH2 0x1588 JUMP JUMPDEST POP PUSH1 0x20 DUP4 ADD MLOAD DUP5 DUP3 SUB PUSH1 0x20 DUP7 ADD MSTORE PUSH2 0x1CB4 DUP3 DUP3 PUSH2 0x17AE JUMP JUMPDEST SWAP2 POP POP PUSH1 0x40 DUP4 ADD MLOAD DUP5 DUP3 SUB PUSH1 0x40 DUP7 ADD MSTORE PUSH2 0x1CCE DUP3 DUP3 PUSH2 0x17AE JUMP JUMPDEST SWAP2 POP POP PUSH1 0x60 DUP4 ADD MLOAD DUP5 DUP3 SUB PUSH1 0x60 DUP7 ADD MSTORE PUSH2 0x1CE8 DUP3 DUP3 PUSH2 0x17AE JUMP JUMPDEST SWAP2 POP POP PUSH1 0x80 DUP4 ADD MLOAD DUP5 DUP3 SUB PUSH1 0x80 DUP7 ADD MSTORE PUSH2 0x1D02 DUP3 DUP3 PUSH2 0x1A2F JUMP JUMPDEST SWAP2 POP POP DUP1 SWAP2 POP POP SWAP3 SWAP2 POP POP JUMP JUMPDEST PUSH0 PUSH1 0x20 DUP3 ADD SWAP1 POP DUP2 DUP2 SUB PUSH0 DUP4 ADD MSTORE PUSH2 0x1D27 DUP2 DUP5 PUSH2 0x1C87 JUMP JUMPDEST SWAP1 POP SWAP3 SWAP2 POP POP JUMP JUMPDEST PUSH0 DUP3 DUP3 MSTORE PUSH1 0x20 DUP3 ADD SWAP1 POP SWAP3 SWAP2 POP POP JUMP JUMPDEST PUSH32 0x4F6E6C792074686520636F6E7472616374206F776E65722063616E2070657266 PUSH0 DUP3 ADD MSTORE PUSH32 0x6F726D2074686973206F7065726174696F6E0000000000000000000000000000 PUSH1 0x20 DUP3 ADD MSTORE POP JUMP JUMPDEST PUSH0 PUSH2 0x1D99 PUSH1 0x32 DUP4 PUSH2 0x1D2F JUMP JUMPDEST SWAP2 POP PUSH2 0x1DA4 DUP3 PUSH2 0x1D3F JUMP JUMPDEST PUSH1 0x40 DUP3 ADD SWAP1 POP SWAP2 SWAP1 POP JUMP JUMPDEST PUSH0 PUSH1 0x20 DUP3 ADD SWAP1 POP DUP2 DUP2 SUB PUSH0 DUP4 ADD MSTORE PUSH2 0x1DC6 DUP2 PUSH2 0x1D8D JUMP JUMPDEST SWAP1 POP SWAP2 SWAP1 POP JUMP JUMPDEST PUSH32 0x4E487B7100000000000000000000000000000000000000000000000000000000 PUSH0 MSTORE PUSH1 0x22 PUSH1 0x4 MSTORE PUSH1 0x24 PUSH0 REVERT JUMPDEST PUSH0 PUSH1 0x2 DUP3 DIV SWAP1 POP PUSH1 0x1 DUP3 AND DUP1 PUSH2 0x1E11 JUMPI PUSH1 0x7F DUP3 AND SWAP2 POP JUMPDEST PUSH1 0x20 DUP3 LT DUP2 SUB PUSH2 0x1E24 JUMPI PUSH2 0x1E23 PUSH2 0x1DCD JUMP JUMPDEST JUMPDEST POP SWAP2 SWAP1 POP JUMP JUMPDEST PUSH0 DUP2 SWAP1 POP DUP2 PUSH0 MSTORE PUSH1 0x20 PUSH0 KECCAK256 SWAP1 POP SWAP2 SWAP1 POP JUMP JUMPDEST PUSH0 PUSH1 0x20 PUSH1 0x1F DUP4 ADD DIV SWAP1 POP SWAP2 SWAP1 POP JUMP JUMPDEST PUSH0 DUP3 DUP3 SHL SWAP1 POP SWAP3 SWAP2 POP POP JUMP JUMPDEST PUSH0 PUSH1 0x8 DUP4 MUL PUSH2 0x1E86 PUSH32 0xFFFFFFFFFFFFFFFFFFFFFFFFFFFFFFFFFFFFFFFFFFFFFFFFFFFFFFFFFFFFFFFF DUP3 PUSH2 0x1E4B JUMP JUMPDEST PUSH2 0x1E90 DUP7 DUP4 PUSH2 0x1E4B JUMP JUMPDEST SWAP6 POP DUP1 NOT DUP5 AND SWAP4 POP DUP1 DUP7 AND DUP5 OR SWAP3 POP POP POP SWAP4 SWAP3 POP POP POP JUMP JUMPDEST PUSH0 DUP2 SWAP1 POP SWAP2 SWAP1 POP JUMP JUMPDEST PUSH0 PUSH2 0x1ECB PUSH2 0x1EC6 PUSH2 0x1EC1 DUP5 PUSH2 0x1227 JUMP JUMPDEST PUSH2 0x1EA8 JUMP JUMPDEST PUSH2 0x1227 JUMP JUMPDEST SWAP1 POP SWAP2 SWAP1 POP JUMP JUMPDEST PUSH0 DUP2 SWAP1 POP SWAP2 SWAP1 POP JUMP JUMPDEST PUSH2 0x1EE4 DUP4 PUSH2 0x1EB1 JUMP JUMPDEST PUSH2 0x1EF8 PUSH2 0x1EF0 DUP3 PUSH2 0x1ED2 JUMP JUMPDEST DUP5 DUP5 SLOAD PUSH2 0x1E57 JUMP JUMPDEST DUP3 SSTORE POP POP POP POP JUMP JUMPDEST PUSH0 SWAP1 JUMP JUMPDEST PUSH2 0x1F0C PUSH2 0x1F00 JUMP JUMPDEST PUSH2 0x1F17 DUP2 DUP5 DUP5 PUSH2 0x1EDB JUMP JUMPDEST POP POP POP JUMP JUMPDEST JUMPDEST DUP2 DUP2 LT ISZERO PUSH2 0x1F3A JUMPI PUSH2 0x1F2F PUSH0 DUP3 PUSH2 0x1F04 JUMP JUMPDEST PUSH1 0x1 DUP2 ADD SWAP1 POP PUSH2 0x1F1D JUMP JUMPDEST POP POP JUMP JUMPDEST PUSH1 0x1F DUP3 GT ISZERO PUSH2 0x1F7F JUMPI PUSH2 0x1F50 DUP2 PUSH2 0x1E2A JUMP JUMPDEST PUSH2 0x1F59 DUP5 PUSH2 0x1E3C JUMP JUMPDEST DUP2 ADD PUSH1 0x20 DUP6 LT ISZERO PUSH2 0x1F68 JUMPI DUP2 SWAP1 POP JUMPDEST PUSH2 0x1F7C PUSH2 0x1F74 DUP6 PUSH2 0x1E3C JUMP JUMPDEST DUP4 ADD DUP3 PUSH2 0x1F1C JUMP JUMPDEST POP POP JUMPDEST POP POP POP JUMP JUMPDEST PUSH0 DUP3 DUP3 SHR SWAP1 POP SWAP3 SWAP2 POP POP JUMP JUMPDEST PUSH0 PUSH2 0x1F9F PUSH0 NOT DUP5 PUSH1 0x8 MUL PUSH2 0x1F84 JUMP JUMPDEST NOT DUP1 DUP4 AND SWAP2 POP POP SWAP3 SWAP2 POP POP JUMP JUMPDEST PUSH0 PUSH2 0x1FB7 DUP4 DUP4 PUSH2 0x1F90 JUMP JUMPDEST SWAP2 POP DUP3 PUSH1 0x2 MUL DUP3 OR SWAP1 POP SWAP3 SWAP2 POP POP JUMP JUMPDEST PUSH2 0x1FD0 DUP3 PUSH2 0x176C JUMP JUMPDEST PUSH8 0xFFFFFFFFFFFFFFFF DUP2 GT ISZERO PUSH2 0x1FE9 JUMPI PUSH2 0x1FE8 PUSH2 0x1272 JUMP JUMPDEST JUMPDEST PUSH2 0x1FF3 DUP3 SLOAD PUSH2 0x1DFA JUMP JUMPDEST PUSH2 0x1FFE DUP3 DUP3 DUP6 PUSH2 0x1F3E JUMP JUMPDEST PUSH0 PUSH1 0x20 SWAP1 POP PUSH1 0x1F DUP4 GT PUSH1 0x1 DUP2 EQ PUSH2 0x202F JUMPI PUSH0 DUP5 ISZERO PUSH2 0x201D JUMPI DUP3 DUP8 ADD MLOAD SWAP1 POP JUMPDEST PUSH2 0x2027 DUP6 DUP3 PUSH2 0x1FAC JUMP JUMPDEST DUP7 SSTORE POP PUSH2 0x208E JUMP JUMPDEST PUSH1 0x1F NOT DUP5 AND PUSH2 0x203D DUP7 PUSH2 0x1E2A JUMP JUMPDEST PUSH0 JUMPDEST DUP3 DUP2 LT ISZERO PUSH2 0x2064 JUMPI DUP5 DUP10 ADD MLOAD DUP3 SSTORE PUSH1 0x1 DUP3 ADD SWAP2 POP PUSH1 0x20 DUP6 ADD SWAP5 POP PUSH1 0x20 DUP2 ADD SWAP1 POP PUSH2 0x203F JUMP JUMPDEST DUP7 DUP4 LT ISZERO PUSH2 0x2081 JUMPI DUP5 DUP10 ADD MLOAD PUSH2 0x207D PUSH1 0x1F DUP10 AND DUP3 PUSH2 0x1F90 JUMP JUMPDEST DUP4 SSTORE POP JUMPDEST PUSH1 0x1 PUSH1 0x2 DUP9 MUL ADD DUP9 SSTORE POP POP POP JUMPDEST POP POP POP POP POP POP JUMP JUMPDEST PUSH32 0x4E487B7100000000000000000000000000000000000000000000000000000000 PUSH0 MSTORE PUSH1 0x11 PUSH1 0x4 MSTORE PUSH1 0x24 PUSH0 REVERT JUMPDEST PUSH0 PUSH2 0x20CD DUP3 PUSH2 0x1227 JUMP JUMPDEST SWAP2 POP PUSH32 0xFFFFFFFFFFFFFFFFFFFFFFFFFFFFFFFFFFFFFFFFFFFFFFFFFFFFFFFFFFFFFFFF DUP3 SUB PUSH2 0x20FF JUMPI PUSH2 0x20FE PUSH2 0x2096 JUMP JUMPDEST JUMPDEST PUSH1 0x1 DUP3 ADD SWAP1 POP SWAP2 SWAP1 POP JUMP JUMPDEST PUSH0 DUP2 SWAP1 POP SWAP3 SWAP2 POP POP JUMP JUMPDEST PUSH0 DUP2 SLOAD PUSH2 0x2120 DUP2 PUSH2 0x1DFA JUMP JUMPDEST PUSH2 0x212A DUP2 DUP7 PUSH2 0x210A JUMP JUMPDEST SWAP5 POP PUSH1 0x1 DUP3 AND PUSH0 DUP2 EQ PUSH2 0x2144 JUMPI PUSH1 0x1 DUP2 EQ PUSH2 0x2159 JUMPI PUSH2 0x218B JUMP JUMPDEST PUSH1 0xFF NOT DUP4 AND DUP7 MSTORE DUP2 ISZERO ISZERO DUP3 MUL DUP7 ADD SWAP4 POP PUSH2 0x218B JUMP JUMPDEST PUSH2 0x2162 DUP6 PUSH2 0x1E2A JUMP JUMPDEST PUSH0 JUMPDEST DUP4 DUP2 LT ISZERO PUSH2 0x2183 JUMPI DUP2 SLOAD DUP2 DUP10 ADD MSTORE PUSH1 0x1 DUP3 ADD SWAP2 POP PUSH1 0x20 DUP2 ADD SWAP1 POP PUSH2 0x2164 JUMP JUMPDEST DUP4 DUP9 ADD SWAP6 POP POP POP JUMPDEST POP POP POP SWAP3 SWAP2 POP POP JUMP JUMPDEST PUSH0 PUSH2 0x219F DUP3 DUP7 PUSH2 0x2114 JUMP JUMPDEST SWAP2 POP PUSH2 0x21AB DUP3 DUP6 PUSH2 0x2114 JUMP JUMPDEST SWAP2 POP PUSH2 0x21B7 DUP3 DUP5 PUSH2 0x2114 JUMP JUMPDEST SWAP2 POP DUP2 SWAP1 POP SWAP5 SWAP4 POP POP POP POP JUMP JUMPDEST PUSH32 0x4E487B7100000000000000000000000000000000000000000000000000000000 PUSH0 MSTORE PUSH1 0x32 PUSH1 0x4 MSTORE PUSH1 0x24 PUSH0 REVERT JUMPDEST PUSH0 DUP2 MLOAD SWAP1 POP SWAP2 SWAP1 POP JUMP JUMPDEST PUSH0 DUP2 SWAP1 POP SWAP3 SWAP2 POP POP JUMP JUMPDEST PUSH0 PUSH2 0x220F DUP3 PUSH2 0x21F1 JUMP JUMPDEST PUSH2 0x2219 DUP2 DUP6 PUSH2 0x21FB JUMP JUMPDEST SWAP4 POP PUSH2 0x2229 DUP2 DUP6 PUSH1 0x20 DUP7 ADD PUSH2 0x1786 JUMP JUMPDEST DUP1 DUP5 ADD SWAP2 POP POP SWAP3 SWAP2 POP POP JUMP JUMPDEST PUSH0 PUSH2 0x2240 DUP3 DUP6 PUSH2 0x2205 JUMP JUMPDEST SWAP2 POP PUSH2 0x224C DUP3 DUP5 PUSH2 0x2114 JUMP JUMPDEST SWAP2 POP DUP2 SWAP1 POP SWAP4 SWAP3 POP POP POP JUMP JUMPDEST PUSH32 0x4163746F7220646F6573206E6F742065786973742E0000000000000000000000 PUSH0 DUP3 ADD MSTORE POP JUMP JUMPDEST PUSH0 PUSH2 0x228C PUSH1 0x15 DUP4 PUSH2 0x1D2F JUMP JUMPDEST SWAP2 POP PUSH2 0x2297 DUP3 PUSH2 0x2258 JUMP JUMPDEST PUSH1 0x20 DUP3 ADD SWAP1 POP SWAP2 SWAP1 POP JUMP JUMPDEST PUSH0 PUSH1 0x20 DUP3 ADD SWAP1 POP DUP2 DUP2 SUB PUSH0 DUP4 ADD MSTORE PUSH2 0x22B9 DUP2 PUSH2 0x2280 JUMP JUMPDEST SWAP1 POP SWAP2 SWAP1 POP JUMP JUMPDEST PUSH32 0x44617461205573657220646F6573206E6F742065786973742E00000000000000 PUSH0 DUP3 ADD MSTORE POP JUMP JUMPDEST PUSH0 PUSH2 0x22F4 PUSH1 0x19 DUP4 PUSH2 0x1D2F JUMP JUMPDEST SWAP2 POP PUSH2 0x22FF DUP3 PUSH2 0x22C0 JUMP JUMPDEST PUSH1 0x20 DUP3 ADD SWAP1 POP SWAP2 SWAP1 POP JUMP JUMPDEST PUSH0 PUSH1 0x20 DUP3 ADD SWAP1 POP DUP2 DUP2 SUB PUSH0 DUP4 ADD MSTORE PUSH2 0x2321 DUP2 PUSH2 0x22E8 JUMP JUMPDEST SWAP1 POP SWAP2 SWAP1 POP JUMP JUMPDEST PUSH32 0x506572736F6E616C4461746120646F6573206E6F742065786973742E00000000 PUSH0 DUP3 ADD MSTORE POP JUMP JUMPDEST PUSH0 PUSH2 0x235C PUSH1 0x1C DUP4 PUSH2 0x1D2F JUMP JUMPDEST SWAP2 POP PUSH2 0x2367 DUP3 PUSH2 0x2328 JUMP JUMPDEST PUSH1 0x20 DUP3 ADD SWAP1 POP SWAP2 SWAP1 POP JUMP JUMPDEST PUSH0 PUSH1 0x20 DUP3 ADD SWAP1 POP DUP2 DUP2 SUB PUSH0 DUP4 ADD MSTORE PUSH2 0x2389 DUP2 PUSH2 0x2350 JUMP JUMPDEST SWAP1 POP SWAP2 SWAP1 POP JUMP INVALID LOG2 PUSH5 0x6970667358 0x22 SLT KECCAK256 STATICCALL AND 0xBB 0xBA 0xBE DUP5 ADDMOD 0x22 MLOAD GT NUMBER 0xD9 DUP11 0xA6 0xF8 0x1F 0x2F PUSH8 0x4738E9E3A7DC769E NUMBER AND 0xAD RETURNDATASIZE PUSH32 0xA064736F6C6343000818003360806040525F60045534801562000014575F80FD JUMPDEST POP PUSH1 0x40 MLOAD PUSH3 0x18F0 CODESIZE SUB DUP1 PUSH3 0x18F0 DUP4 CODECOPY DUP2 DUP2 ADD PUSH1 0x40 MSTORE DUP2 ADD SWAP1 PUSH3 0x3A SWAP2 SWAP1 PUSH3 0x196 JUMP JUMPDEST CALLER PUSH0 DUP1 PUSH2 0x100 EXP DUP2 SLOAD DUP2 PUSH20 0xFFFFFFFFFFFFFFFFFFFFFFFFFFFFFFFFFFFFFFFF MUL NOT AND SWAP1 DUP4 PUSH20 0xFFFFFFFFFFFFFFFFFFFFFFFFFFFFFFFFFFFFFFFF AND MUL OR SWAP1 SSTORE POP DUP1 PUSH1 0x1 PUSH0 PUSH2 0x100 EXP DUP2 SLOAD DUP2 PUSH20 0xFFFFFFFFFFFFFFFFFFFFFFFFFFFFFFFFFFFFFFFF MUL NOT AND SWAP1 DUP4 PUSH20 0xFFFFFFFFFFFFFFFFFFFFFFFFFFFFFFFFFFFFFFFF AND MUL OR SWAP1 SSTORE POP PUSH0 PUSH20 0xFFFFFFFFFFFFFFFFFFFFFFFFFFFFFFFFFFFFFFFF AND DUP2 PUSH20 0xFFFFFFFFFFFFFFFFFFFFFFFFFFFFFFFFFFFFFFFF AND SUB PUSH3 0x12A JUMPI PUSH1 0x40 MLOAD PUSH32 0x8C379A000000000000000000000000000000000000000000000000000000000 DUP2 MSTORE PUSH1 0x4 ADD PUSH3 0x121 SWAP1 PUSH3 0x24A JUMP JUMPDEST PUSH1 0x40 MLOAD DUP1 SWAP2 SUB SWAP1 REVERT JUMPDEST POP PUSH3 0x26A JUMP JUMPDEST PUSH0 DUP1 REVERT JUMPDEST PUSH0 PUSH20 0xFFFFFFFFFFFFFFFFFFFFFFFFFFFFFFFFFFFFFFFF DUP3 AND SWAP1 POP SWAP2 SWAP1 POP JUMP JUMPDEST PUSH0 PUSH3 0x160 DUP3 PUSH3 0x135 JUMP JUMPDEST SWAP1 POP SWAP2 SWAP1 POP JUMP JUMPDEST PUSH3 0x172 DUP2 PUSH3 0x154 JUMP JUMPDEST DUP2 EQ PUSH3 0x17D JUMPI PUSH0 DUP1 REVERT JUMPDEST POP JUMP JUMPDEST PUSH0 DUP2 MLOAD SWAP1 POP PUSH3 0x190 DUP2 PUSH3 0x167 JUMP JUMPDEST SWAP3 SWAP2 POP POP JUMP JUMPDEST PUSH0 PUSH1 0x20 DUP3 DUP5 SUB SLT ISZERO PUSH3 0x1AE JUMPI PUSH3 0x1AD PUSH3 0x131 JUMP JUMPDEST JUMPDEST PUSH0 PUSH3 0x1BD DUP5 DUP3 DUP6 ADD PUSH3 0x180 JUMP JUMPDEST SWAP2 POP POP SWAP3 SWAP2 POP POP JUMP JUMPDEST PUSH0 DUP3 DUP3 MSTORE PUSH1 0x20 DUP3 ADD SWAP1 POP SWAP3 SWAP2 POP POP JUMP JUMPDEST PUSH32 0x446174615573616765536D617274436F6E747261637420616464726573732069 PUSH0 DUP3 ADD MSTORE PUSH32 0x7320696E76616C69642E00000000000000000000000000000000000000000000 PUSH1 0x20 DUP3 ADD MSTORE POP JUMP JUMPDEST PUSH0 PUSH3 0x232 PUSH1 0x2A DUP4 PUSH3 0x1C6 JUMP JUMPDEST SWAP2 POP PUSH3 0x23F DUP3 PUSH3 0x1D6 JUMP JUMPDEST PUSH1 0x40 DUP3 ADD SWAP1 POP SWAP2 SWAP1 POP JUMP JUMPDEST PUSH0 PUSH1 0x20 DUP3 ADD SWAP1 POP DUP2 DUP2 SUB PUSH0 DUP4 ADD MSTORE PUSH3 0x263 DUP2 PUSH3 0x224 JUMP JUMPDEST SWAP1 POP SWAP2 SWAP1 POP JUMP JUMPDEST PUSH2 0x1678 DUP1 PUSH3 0x278 PUSH0 CODECOPY PUSH0 RETURN INVALID PUSH1 0x80 PUSH1 0x40 MSTORE CALLVALUE DUP1 ISZERO PUSH2 0xF JUMPI PUSH0 DUP1 REVERT JUMPDEST POP PUSH1 0x4 CALLDATASIZE LT PUSH2 0x55 JUMPI PUSH0 CALLDATALOAD PUSH1 0xE0 SHR DUP1 PUSH4 0x3E4D77F EQ PUSH2 0x59 JUMPI DUP1 PUSH4 0x28E8BE60 EQ PUSH2 0x89 JUMPI DUP1 PUSH4 0x3D1FEE84 EQ PUSH2 0xA7 JUMPI DUP1 PUSH4 0x8AE0BE40 EQ PUSH2 0xC3 JUMPI DUP1 PUSH4 0x8DA5CB5B EQ PUSH2 0xE1 JUMPI JUMPDEST PUSH0 DUP1 REVERT JUMPDEST PUSH2 0x73 PUSH1 0x4 DUP1 CALLDATASIZE SUB DUP2 ADD SWAP1 PUSH2 0x6E SWAP2 SWAP1 PUSH2 0x8B1 JUMP JUMPDEST PUSH2 0xFF JUMP JUMPDEST PUSH1 0x40 MLOAD PUSH2 0x80 SWAP2 SWAP1 PUSH2 0xB71 JUMP JUMPDEST PUSH1 0x40 MLOAD DUP1 SWAP2 SUB SWAP1 RETURN JUMPDEST PUSH2 0x91 PUSH2 0x2F7 JUMP JUMPDEST PUSH1 0x40 MLOAD PUSH2 0x9E SWAP2 SWAP1 PUSH2 0xBA0 JUMP JUMPDEST PUSH1 0x40 MLOAD DUP1 SWAP2 SUB SWAP1 RETURN JUMPDEST PUSH2 0xC1 PUSH1 0x4 DUP1 CALLDATASIZE SUB DUP2 ADD SWAP1 PUSH2 0xBC SWAP2 SWAP1 PUSH2 0x8B1 JUMP JUMPDEST PUSH2 0x300 JUMP JUMPDEST STOP JUMPDEST PUSH2 0xCB PUSH2 0x68F JUMP JUMPDEST PUSH1 0x40 MLOAD PUSH2 0xD8 SWAP2 SWAP1 PUSH2 0xC61 JUMP JUMPDEST PUSH1 0x40 MLOAD DUP1 SWAP2 SUB SWAP1 RETURN JUMPDEST PUSH2 0xE9 PUSH2 0x6E5 JUMP JUMPDEST PUSH1 0x40 MLOAD PUSH2 0xF6 SWAP2 SWAP1 PUSH2 0xCC0 JUMP JUMPDEST PUSH1 0x40 MLOAD DUP1 SWAP2 SUB SWAP1 RETURN JUMPDEST PUSH2 0x107 PUSH2 0x708 JUMP JUMPDEST PUSH1 0x2 PUSH0 DUP4 DUP2 MSTORE PUSH1 0x20 ADD SWAP1 DUP2 MSTORE PUSH1 0x20 ADD PUSH0 KECCAK256 PUSH1 0x40 MLOAD DUP1 PUSH1 0xA0 ADD PUSH1 0x40 MSTORE SWAP1 DUP2 PUSH0 DUP3 ADD SLOAD DUP2 MSTORE PUSH1 0x20 ADD PUSH1 0x1 DUP3 ADD SLOAD DUP2 MSTORE PUSH1 0x20 ADD PUSH1 0x2 DUP3 ADD DUP1 SLOAD DUP1 PUSH1 0x20 MUL PUSH1 0x20 ADD PUSH1 0x40 MLOAD SWAP1 DUP2 ADD PUSH1 0x40 MSTORE DUP1 SWAP3 SWAP2 SWAP1 DUP2 DUP2 MSTORE PUSH1 0x20 ADD PUSH0 SWAP1 JUMPDEST DUP3 DUP3 LT ISZERO PUSH2 0x202 JUMPI DUP4 DUP3 SWAP1 PUSH0 MSTORE PUSH1 0x20 PUSH0 KECCAK256 ADD DUP1 SLOAD PUSH2 0x177 SWAP1 PUSH2 0xD06 JUMP JUMPDEST DUP1 PUSH1 0x1F ADD PUSH1 0x20 DUP1 SWAP2 DIV MUL PUSH1 0x20 ADD PUSH1 0x40 MLOAD SWAP1 DUP2 ADD PUSH1 0x40 MSTORE DUP1 SWAP3 SWAP2 SWAP1 DUP2 DUP2 MSTORE PUSH1 0x20 ADD DUP3 DUP1 SLOAD PUSH2 0x1A3 SWAP1 PUSH2 0xD06 JUMP JUMPDEST DUP1 ISZERO PUSH2 0x1EE JUMPI DUP1 PUSH1 0x1F LT PUSH2 0x1C5 JUMPI PUSH2 0x100 DUP1 DUP4 SLOAD DIV MUL DUP4 MSTORE SWAP2 PUSH1 0x20 ADD SWAP2 PUSH2 0x1EE JUMP JUMPDEST DUP3 ADD SWAP2 SWAP1 PUSH0 MSTORE PUSH1 0x20 PUSH0 KECCAK256 SWAP1 JUMPDEST DUP2 SLOAD DUP2 MSTORE SWAP1 PUSH1 0x1 ADD SWAP1 PUSH1 0x20 ADD DUP1 DUP4 GT PUSH2 0x1D1 JUMPI DUP3 SWAP1 SUB PUSH1 0x1F AND DUP3 ADD SWAP2 JUMPDEST POP POP POP POP POP DUP2 MSTORE PUSH1 0x20 ADD SWAP1 PUSH1 0x1 ADD SWAP1 PUSH2 0x15A JUMP JUMPDEST POP POP POP POP DUP2 MSTORE PUSH1 0x20 ADD PUSH1 0x3 DUP3 ADD DUP1 SLOAD PUSH2 0x21A SWAP1 PUSH2 0xD06 JUMP JUMPDEST DUP1 PUSH1 0x1F ADD PUSH1 0x20 DUP1 SWAP2 DIV MUL PUSH1 0x20 ADD PUSH1 0x40 MLOAD SWAP1 DUP2 ADD PUSH1 0x40 MSTORE DUP1 SWAP3 SWAP2 SWAP1 DUP2 DUP2 MSTORE PUSH1 0x20 ADD DUP3 DUP1 SLOAD PUSH2 0x246 SWAP1 PUSH2 0xD06 JUMP JUMPDEST DUP1 ISZERO PUSH2 0x291 JUMPI DUP1 PUSH1 0x1F LT PUSH2 0x268 JUMPI PUSH2 0x100 DUP1 DUP4 SLOAD DIV MUL DUP4 MSTORE SWAP2 PUSH1 0x20 ADD SWAP2 PUSH2 0x291 JUMP JUMPDEST DUP3 ADD SWAP2 SWAP1 PUSH0 MSTORE PUSH1 0x20 PUSH0 KECCAK256 SWAP1 JUMPDEST DUP2 SLOAD DUP2 MSTORE SWAP1 PUSH1 0x1 ADD SWAP1 PUSH1 0x20 ADD DUP1 DUP4 GT PUSH2 0x274 JUMPI DUP3 SWAP1 SUB PUSH1 0x1F AND DUP3 ADD SWAP2 JUMPDEST POP POP POP POP POP DUP2 MSTORE PUSH1 0x20 ADD PUSH1 0x4 DUP3 ADD DUP1 SLOAD DUP1 PUSH1 0x20 MUL PUSH1 0x20 ADD PUSH1 0x40 MLOAD SWAP1 DUP2 ADD PUSH1 0x40 MSTORE DUP1 SWAP3 SWAP2 SWAP1 DUP2 DUP2 MSTORE PUSH1 0x20 ADD DUP3 DUP1 SLOAD DUP1 ISZERO PUSH2 0x2E7 JUMPI PUSH1 0x20 MUL DUP3 ADD SWAP2 SWAP1 PUSH0 MSTORE PUSH1 0x20 PUSH0 KECCAK256 SWAP1 JUMPDEST DUP2 SLOAD DUP2 MSTORE PUSH1 0x20 ADD SWAP1 PUSH1 0x1 ADD SWAP1 DUP1 DUP4 GT PUSH2 0x2D3 JUMPI JUMPDEST POP POP POP POP POP DUP2 MSTORE POP POP SWAP1 POP SWAP2 SWAP1 POP JUMP JUMPDEST PUSH0 PUSH1 0x4 SLOAD SWAP1 POP SWAP1 JUMP JUMPDEST PUSH0 DUP1 SLOAD SWAP1 PUSH2 0x100 EXP SWAP1 DIV PUSH20 0xFFFFFFFFFFFFFFFFFFFFFFFFFFFFFFFFFFFFFFFF AND PUSH20 0xFFFFFFFFFFFFFFFFFFFFFFFFFFFFFFFFFFFFFFFF AND CALLER PUSH20 0xFFFFFFFFFFFFFFFFFFFFFFFFFFFFFFFFFFFFFFFF AND EQ PUSH2 0x38D JUMPI PUSH1 0x40 MLOAD PUSH32 0x8C379A000000000000000000000000000000000000000000000000000000000 DUP2 MSTORE PUSH1 0x4 ADD PUSH2 0x384 SWAP1 PUSH2 0xDB6 JUMP JUMPDEST PUSH1 0x40 MLOAD DUP1 SWAP2 SUB SWAP1 REVERT JUMPDEST PUSH0 PUSH1 0x1 PUSH0 SWAP1 SLOAD SWAP1 PUSH2 0x100 EXP SWAP1 DIV PUSH20 0xFFFFFFFFFFFFFFFFFFFFFFFFFFFFFFFFFFFFFFFF AND PUSH20 0xFFFFFFFFFFFFFFFFFFFFFFFFFFFFFFFFFFFFFFFF AND PUSH4 0xD2B0649A DUP4 PUSH1 0x40 MLOAD DUP3 PUSH4 0xFFFFFFFF AND PUSH1 0xE0 SHL DUP2 MSTORE PUSH1 0x4 ADD PUSH2 0x3E8 SWAP2 SWAP1 PUSH2 0xBA0 JUMP JUMPDEST PUSH0 PUSH1 0x40 MLOAD DUP1 DUP4 SUB DUP2 DUP7 GAS STATICCALL ISZERO DUP1 ISZERO PUSH2 0x402 JUMPI RETURNDATASIZE PUSH0 DUP1 RETURNDATACOPY RETURNDATASIZE PUSH0 REVERT JUMPDEST POP POP POP POP PUSH1 0x40 MLOAD RETURNDATASIZE PUSH0 DUP3 RETURNDATACOPY RETURNDATASIZE PUSH1 0x1F NOT PUSH1 0x1F DUP3 ADD AND DUP3 ADD DUP1 PUSH1 0x40 MSTORE POP DUP2 ADD SWAP1 PUSH2 0x42A SWAP2 SWAP1 PUSH2 0x12C3 JUMP JUMPDEST SWAP1 POP PUSH0 DUP2 PUSH1 0x80 ADD MLOAD MLOAD PUSH8 0xFFFFFFFFFFFFFFFF DUP2 GT ISZERO PUSH2 0x44C JUMPI PUSH2 0x44B PUSH2 0xDD8 JUMP JUMPDEST JUMPDEST PUSH1 0x40 MLOAD SWAP1 DUP1 DUP3 MSTORE DUP1 PUSH1 0x20 MUL PUSH1 0x20 ADD DUP3 ADD PUSH1 0x40 MSTORE DUP1 ISZERO PUSH2 0x47A JUMPI DUP2 PUSH1 0x20 ADD PUSH1 0x20 DUP3 MUL DUP1 CALLDATASIZE DUP4 CALLDATACOPY DUP1 DUP3 ADD SWAP2 POP POP SWAP1 POP JUMPDEST POP SWAP1 POP PUSH0 JUMPDEST DUP3 PUSH1 0x80 ADD MLOAD MLOAD DUP2 LT ISZERO PUSH2 0x56D JUMPI PUSH1 0x1 PUSH0 SWAP1 SLOAD SWAP1 PUSH2 0x100 EXP SWAP1 DIV PUSH20 0xFFFFFFFFFFFFFFFFFFFFFFFFFFFFFFFFFFFFFFFF AND PUSH20 0xFFFFFFFFFFFFFFFFFFFFFFFFFFFFFFFFFFFFFFFF AND PUSH4 0xB61798F6 DUP5 PUSH1 0x80 ADD MLOAD DUP4 DUP2 MLOAD DUP2 LT PUSH2 0x4E0 JUMPI PUSH2 0x4DF PUSH2 0x130A JUMP JUMPDEST JUMPDEST PUSH1 0x20 MUL PUSH1 0x20 ADD ADD MLOAD PUSH1 0x40 MLOAD DUP3 PUSH4 0xFFFFFFFF AND PUSH1 0xE0 SHL DUP2 MSTORE PUSH1 0x4 ADD PUSH2 0x504 SWAP2 SWAP1 PUSH2 0xBA0 JUMP JUMPDEST PUSH1 0x20 PUSH1 0x40 MLOAD DUP1 DUP4 SUB DUP2 DUP7 GAS STATICCALL ISZERO DUP1 ISZERO PUSH2 0x51F JUMPI RETURNDATASIZE PUSH0 DUP1 RETURNDATACOPY RETURNDATASIZE PUSH0 REVERT JUMPDEST POP POP POP POP PUSH1 0x40 MLOAD RETURNDATASIZE PUSH1 0x1F NOT PUSH1 0x1F DUP3 ADD AND DUP3 ADD DUP1 PUSH1 0x40 MSTORE POP DUP2 ADD SWAP1 PUSH2 0x543 SWAP2 SWAP1 PUSH2 0x1337 JUMP JUMPDEST DUP3 DUP3 DUP2 MLOAD DUP2 LT PUSH2 0x556 JUMPI PUSH2 0x555 PUSH2 0x130A JUMP JUMPDEST JUMPDEST PUSH1 0x20 MUL PUSH1 0x20 ADD ADD DUP2 DUP2 MSTORE POP POP DUP1 PUSH1 0x1 ADD SWAP1 POP PUSH2 0x47F JUMP JUMPDEST POP PUSH1 0x40 MLOAD DUP1 PUSH1 0xA0 ADD PUSH1 0x40 MSTORE DUP1 DUP5 DUP2 MSTORE PUSH1 0x20 ADD DUP4 PUSH1 0x40 ADD MLOAD DUP2 MSTORE PUSH1 0x20 ADD DUP4 PUSH1 0x60 ADD MLOAD DUP2 MSTORE PUSH1 0x20 ADD DUP4 PUSH0 ADD MLOAD DUP2 MSTORE PUSH1 0x20 ADD DUP3 DUP2 MSTORE POP PUSH1 0x2 PUSH0 DUP6 DUP2 MSTORE PUSH1 0x20 ADD SWAP1 DUP2 MSTORE PUSH1 0x20 ADD PUSH0 KECCAK256 PUSH0 DUP3 ADD MLOAD DUP2 PUSH0 ADD SSTORE PUSH1 0x20 DUP3 ADD MLOAD DUP2 PUSH1 0x1 ADD SSTORE PUSH1 0x40 DUP3 ADD MLOAD DUP2 PUSH1 0x2 ADD SWAP1 DUP1 MLOAD SWAP1 PUSH1 0x20 ADD SWAP1 PUSH2 0x5DF SWAP3 SWAP2 SWAP1 PUSH2 0x735 JUMP JUMPDEST POP PUSH1 0x60 DUP3 ADD MLOAD DUP2 PUSH1 0x3 ADD SWAP1 DUP2 PUSH2 0x5F5 SWAP2 SWAP1 PUSH2 0x14FF JUMP JUMPDEST POP PUSH1 0x80 DUP3 ADD MLOAD DUP2 PUSH1 0x4 ADD SWAP1 DUP1 MLOAD SWAP1 PUSH1 0x20 ADD SWAP1 PUSH2 0x612 SWAP3 SWAP2 SWAP1 PUSH2 0x78C JUMP JUMPDEST POP SWAP1 POP POP PUSH1 0x3 DUP4 SWAP1 DUP1 PUSH1 0x1 DUP2 SLOAD ADD DUP1 DUP3 SSTORE DUP1 SWAP2 POP POP PUSH1 0x1 SWAP1 SUB SWAP1 PUSH0 MSTORE PUSH1 0x20 PUSH0 KECCAK256 ADD PUSH0 SWAP1 SWAP2 SWAP1 SWAP2 SWAP1 SWAP2 POP SSTORE PUSH1 0x4 PUSH0 DUP2 SLOAD DUP1 SWAP3 SWAP2 SWAP1 PUSH2 0x64E SWAP1 PUSH2 0x15FB JUMP JUMPDEST SWAP2 SWAP1 POP SSTORE POP PUSH32 0xC59B02A267F48426E708065A28F0948A454DAFA87D33F04D8187B99B7203869F DUP4 PUSH1 0x40 MLOAD PUSH2 0x682 SWAP2 SWAP1 PUSH2 0xBA0 JUMP JUMPDEST PUSH1 0x40 MLOAD DUP1 SWAP2 SUB SWAP1 LOG1 POP POP POP JUMP JUMPDEST PUSH1 0x60 PUSH1 0x3 DUP1 SLOAD DUP1 PUSH1 0x20 MUL PUSH1 0x20 ADD PUSH1 0x40 MLOAD SWAP1 DUP2 ADD PUSH1 0x40 MSTORE DUP1 SWAP3 SWAP2 SWAP1 DUP2 DUP2 MSTORE PUSH1 0x20 ADD DUP3 DUP1 SLOAD DUP1 ISZERO PUSH2 0x6DB JUMPI PUSH1 0x20 MUL DUP3 ADD SWAP2 SWAP1 PUSH0 MSTORE PUSH1 0x20 PUSH0 KECCAK256 SWAP1 JUMPDEST DUP2 SLOAD DUP2 MSTORE PUSH1 0x20 ADD SWAP1 PUSH1 0x1 ADD SWAP1 DUP1 DUP4 GT PUSH2 0x6C7 JUMPI JUMPDEST POP POP POP POP POP SWAP1 POP SWAP1 JUMP JUMPDEST PUSH0 DUP1 SLOAD SWAP1 PUSH2 0x100 EXP SWAP1 DIV PUSH20 0xFFFFFFFFFFFFFFFFFFFFFFFFFFFFFFFFFFFFFFFF AND DUP2 JUMP JUMPDEST PUSH1 0x40 MLOAD DUP1 PUSH1 0xA0 ADD PUSH1 0x40 MSTORE DUP1 PUSH0 DUP2 MSTORE PUSH1 0x20 ADD PUSH0 DUP2 MSTORE PUSH1 0x20 ADD PUSH1 0x60 DUP2 MSTORE PUSH1 0x20 ADD PUSH1 0x60 DUP2 MSTORE PUSH1 0x20 ADD PUSH1 0x60 DUP2 MSTORE POP SWAP1 JUMP JUMPDEST DUP3 DUP1 SLOAD DUP3 DUP3 SSTORE SWAP1 PUSH0 MSTORE PUSH1 0x20 PUSH0 KECCAK256 SWAP1 DUP2 ADD SWAP3 DUP3 ISZERO PUSH2 0x77B JUMPI SWAP2 PUSH1 0x20 MUL DUP3 ADD JUMPDEST DUP3 DUP2 GT ISZERO PUSH2 0x77A JUMPI DUP3 MLOAD DUP3 SWAP1 DUP2 PUSH2 0x76A SWAP2 SWAP1 PUSH2 0x14FF JUMP JUMPDEST POP SWAP2 PUSH1 0x20 ADD SWAP2 SWAP1 PUSH1 0x1 ADD SWAP1 PUSH2 0x753 JUMP JUMPDEST JUMPDEST POP SWAP1 POP PUSH2 0x788 SWAP2 SWAP1 PUSH2 0x7D7 JUMP JUMPDEST POP SWAP1 JUMP JUMPDEST DUP3 DUP1 SLOAD DUP3 DUP3 SSTORE SWAP1 PUSH0 MSTORE PUSH1 0x20 PUSH0 KECCAK256 SWAP1 DUP2 ADD SWAP3 DUP3 ISZERO PUSH2 0x7C6 JUMPI SWAP2 PUSH1 0x20 MUL DUP3 ADD JUMPDEST DUP3 DUP2 GT ISZERO PUSH2 0x7C5 JUMPI DUP3 MLOAD DUP3 SSTORE SWAP2 PUSH1 0x20 ADD SWAP2 SWAP1 PUSH1 0x1 ADD SWAP1 PUSH2 0x7AA JUMP JUMPDEST JUMPDEST POP SWAP1 POP PUSH2 0x7D3 SWAP2 SWAP1 PUSH2 0x7FA JUMP JUMPDEST POP SWAP1 JUMP JUMPDEST JUMPDEST DUP1 DUP3 GT ISZERO PUSH2 0x7F6 JUMPI PUSH0 DUP2 DUP2 PUSH2 0x7ED SWAP2 SWAP1 PUSH2 0x815 JUMP JUMPDEST POP PUSH1 0x1 ADD PUSH2 0x7D8 JUMP JUMPDEST POP SWAP1 JUMP JUMPDEST JUMPDEST DUP1 DUP3 GT ISZERO PUSH2 0x811 JUMPI PUSH0 DUP2 PUSH0 SWAP1 SSTORE POP PUSH1 0x1 ADD PUSH2 0x7FB JUMP JUMPDEST POP SWAP1 JUMP JUMPDEST POP DUP1 SLOAD PUSH2 0x821 SWAP1 PUSH2 0xD06 JUMP JUMPDEST PUSH0 DUP3 SSTORE DUP1 PUSH1 0x1F LT PUSH2 0x832 JUMPI POP PUSH2 0x84F JUMP JUMPDEST PUSH1 0x1F ADD PUSH1 0x20 SWAP1 DIV SWAP1 PUSH0 MSTORE PUSH1 0x20 PUSH0 KECCAK256 SWAP1 DUP2 ADD SWAP1 PUSH2 0x84E SWAP2 SWAP1 PUSH2 0x852 JUMP JUMPDEST JUMPDEST POP JUMP JUMPDEST JUMPDEST DUP1 DUP3 GT ISZERO PUSH2 0x869 JUMPI PUSH0 DUP2 PUSH0 SWAP1 SSTORE POP PUSH1 0x1 ADD PUSH2 0x853 JUMP JUMPDEST POP SWAP1 JUMP JUMPDEST PUSH0 PUSH1 0x40 MLOAD SWAP1 POP SWAP1 JUMP JUMPDEST PUSH0 DUP1 REVERT JUMPDEST PUSH0 DUP1 REVERT JUMPDEST PUSH0 DUP2 SWAP1 POP SWAP2 SWAP1 POP JUMP JUMPDEST PUSH2 0x890 DUP2 PUSH2 0x87E JUMP JUMPDEST DUP2 EQ PUSH2 0x89A JUMPI PUSH0 DUP1 REVERT JUMPDEST POP JUMP JUMPDEST PUSH0 DUP2 CALLDATALOAD SWAP1 POP PUSH2 0x8AB DUP2 PUSH2 0x887 JUMP JUMPDEST SWAP3 SWAP2 POP POP JUMP JUMPDEST PUSH0 PUSH1 0x20 DUP3 DUP5 SUB SLT ISZERO PUSH2 0x8C6 JUMPI PUSH2 0x8C5 PUSH2 0x876 JUMP JUMPDEST JUMPDEST PUSH0 PUSH2 0x8D3 DUP5 DUP3 DUP6 ADD PUSH2 0x89D JUMP JUMPDEST SWAP2 POP POP SWAP3 SWAP2 POP POP JUMP JUMPDEST PUSH2 0x8E5 DUP2 PUSH2 0x87E JUMP JUMPDEST DUP3 MSTORE POP POP JUMP JUMPDEST PUSH0 DUP2 MLOAD SWAP1 POP SWAP2 SWAP1 POP JUMP JUMPDEST PUSH0 DUP3 DUP3 MSTORE PUSH1 0x20 DUP3 ADD SWAP1 POP SWAP3 SWAP2 POP POP JUMP JUMPDEST PUSH0 DUP2 SWAP1 POP PUSH1 0x20 DUP3 ADD SWAP1 POP SWAP2 SWAP1 POP JUMP JUMPDEST PUSH0 DUP2 MLOAD SWAP1 POP SWAP2 SWAP1 POP JUMP JUMPDEST PUSH0 DUP3 DUP3 MSTORE PUSH1 0x20 DUP3 ADD SWAP1 POP SWAP3 SWAP2 POP POP JUMP JUMPDEST PUSH0 JUMPDEST DUP4 DUP2 LT ISZERO PUSH2 0x94B JUMPI DUP1 DUP3 ADD MLOAD DUP2 DUP5 ADD MSTORE PUSH1 0x20 DUP2 ADD SWAP1 POP PUSH2 0x930 JUMP JUMPDEST PUSH0 DUP5 DUP5 ADD MSTORE POP POP POP POP JUMP JUMPDEST PUSH0 PUSH1 0x1F NOT PUSH1 0x1F DUP4 ADD AND SWAP1 POP SWAP2 SWAP1 POP JUMP JUMPDEST PUSH0 PUSH2 0x970 DUP3 PUSH2 0x914 JUMP JUMPDEST PUSH2 0x97A DUP2 DUP6 PUSH2 0x91E JUMP JUMPDEST SWAP4 POP PUSH2 0x98A DUP2 DUP6 PUSH1 0x20 DUP7 ADD PUSH2 0x92E JUMP JUMPDEST PUSH2 0x993 DUP2 PUSH2 0x956 JUMP JUMPDEST DUP5 ADD SWAP2 POP POP SWAP3 SWAP2 POP POP JUMP JUMPDEST PUSH0 PUSH2 0x9A9 DUP4 DUP4 PUSH2 0x966 JUMP JUMPDEST SWAP1 POP SWAP3 SWAP2 POP POP JUMP JUMPDEST PUSH0 PUSH1 0x20 DUP3 ADD SWAP1 POP SWAP2 SWAP1 POP JUMP JUMPDEST PUSH0 PUSH2 0x9C7 DUP3 PUSH2 0x8EB JUMP JUMPDEST PUSH2 0x9D1 DUP2 DUP6 PUSH2 0x8F5 JUMP JUMPDEST SWAP4 POP DUP4 PUSH1 0x20 DUP3 MUL DUP6 ADD PUSH2 0x9E3 DUP6 PUSH2 0x905 JUMP JUMPDEST DUP1 PUSH0 JUMPDEST DUP6 DUP2 LT ISZERO PUSH2 0xA1E JUMPI DUP5 DUP5 SUB DUP10 MSTORE DUP2 MLOAD PUSH2 0x9FF DUP6 DUP3 PUSH2 0x99E JUMP JUMPDEST SWAP5 POP PUSH2 0xA0A DUP4 PUSH2 0x9B1 JUMP JUMPDEST SWAP3 POP PUSH1 0x20 DUP11 ADD SWAP10 POP POP PUSH1 0x1 DUP2 ADD SWAP1 POP PUSH2 0x9E6 JUMP JUMPDEST POP DUP3 SWAP8 POP DUP8 SWAP6 POP POP POP POP POP POP SWAP3 SWAP2 POP POP JUMP JUMPDEST PUSH0 DUP2 MLOAD SWAP1 POP SWAP2 SWAP1 POP JUMP JUMPDEST PUSH0 DUP3 DUP3 MSTORE PUSH1 0x20 DUP3 ADD SWAP1 POP SWAP3 SWAP2 POP POP JUMP JUMPDEST PUSH0 DUP2 SWAP1 POP PUSH1 0x20 DUP3 ADD SWAP1 POP SWAP2 SWAP1 POP JUMP JUMPDEST PUSH0 DUP2 SWAP1 POP SWAP2 SWAP1 POP JUMP JUMPDEST PUSH2 0xA6B DUP2 PUSH2 0xA59 JUMP JUMPDEST DUP3 MSTORE POP POP JUMP JUMPDEST PUSH0 PUSH2 0xA7C DUP4 DUP4 PUSH2 0xA62 JUMP JUMPDEST PUSH1 0x20 DUP4 ADD SWAP1 POP SWAP3 SWAP2 POP POP JUMP JUMPDEST PUSH0 PUSH1 0x20 DUP3 ADD SWAP1 POP SWAP2 SWAP1 POP JUMP JUMPDEST PUSH0 PUSH2 0xA9E DUP3 PUSH2 0xA30 JUMP JUMPDEST PUSH2 0xAA8 DUP2 DUP6 PUSH2 0xA3A JUMP JUMPDEST SWAP4 POP PUSH2 0xAB3 DUP4 PUSH2 0xA4A JUMP JUMPDEST DUP1 PUSH0 JUMPDEST DUP4 DUP2 LT ISZERO PUSH2 0xAE3 JUMPI DUP2 MLOAD PUSH2 0xACA DUP9 DUP3 PUSH2 0xA71 JUMP JUMPDEST SWAP8 POP PUSH2 0xAD5 DUP4 PUSH2 0xA88 JUMP JUMPDEST SWAP3 POP POP PUSH1 0x1 DUP2 ADD SWAP1 POP PUSH2 0xAB6 JUMP JUMPDEST POP DUP6 SWAP4 POP POP POP POP SWAP3 SWAP2 POP POP JUMP JUMPDEST PUSH0 PUSH1 0xA0 DUP4 ADD PUSH0 DUP4 ADD MLOAD PUSH2 0xB05 PUSH0 DUP7 ADD DUP3 PUSH2 0x8DC JUMP JUMPDEST POP PUSH1 0x20 DUP4 ADD MLOAD PUSH2 0xB18 PUSH1 0x20 DUP7 ADD DUP3 PUSH2 0x8DC JUMP JUMPDEST POP PUSH1 0x40 DUP4 ADD MLOAD DUP5 DUP3 SUB PUSH1 0x40 DUP7 ADD MSTORE PUSH2 0xB30 DUP3 DUP3 PUSH2 0x9BD JUMP JUMPDEST SWAP2 POP POP PUSH1 0x60 DUP4 ADD MLOAD DUP5 DUP3 SUB PUSH1 0x60 DUP7 ADD MSTORE PUSH2 0xB4A DUP3 DUP3 PUSH2 0x966 JUMP JUMPDEST SWAP2 POP POP PUSH1 0x80 DUP4 ADD MLOAD DUP5 DUP3 SUB PUSH1 0x80 DUP7 ADD MSTORE PUSH2 0xB64 DUP3 DUP3 PUSH2 0xA94 JUMP JUMPDEST SWAP2 POP POP DUP1 SWAP2 POP POP SWAP3 SWAP2 POP POP JUMP JUMPDEST PUSH0 PUSH1 0x20 DUP3 ADD SWAP1 POP DUP2 DUP2 SUB PUSH0 DUP4 ADD MSTORE PUSH2 0xB89 DUP2 DUP5 PUSH2 0xAF0 JUMP JUMPDEST SWAP1 POP SWAP3 SWAP2 POP POP JUMP JUMPDEST PUSH2 0xB9A DUP2 PUSH2 0x87E JUMP JUMPDEST DUP3 MSTORE POP POP JUMP JUMPDEST PUSH0 PUSH1 0x20 DUP3 ADD SWAP1 POP PUSH2 0xBB3 PUSH0 DUP4 ADD DUP5 PUSH2 0xB91 JUMP JUMPDEST SWAP3 SWAP2 POP POP JUMP JUMPDEST PUSH0 DUP2 MLOAD SWAP1 POP SWAP2 SWAP1 POP JUMP JUMPDEST PUSH0 DUP3 DUP3 MSTORE PUSH1 0x20 DUP3 ADD SWAP1 POP SWAP3 SWAP2 POP POP JUMP JUMPDEST PUSH0 DUP2 SWAP1 POP PUSH1 0x20 DUP3 ADD SWAP1 POP SWAP2 SWAP1 POP JUMP JUMPDEST PUSH0 PUSH2 0xBED DUP4 DUP4 PUSH2 0x8DC JUMP JUMPDEST PUSH1 0x20 DUP4 ADD SWAP1 POP SWAP3 SWAP2 POP POP JUMP JUMPDEST PUSH0 PUSH1 0x20 DUP3 ADD SWAP1 POP SWAP2 SWAP1 POP JUMP JUMPDEST PUSH0 PUSH2 0xC0F DUP3 PUSH2 0xBB9 JUMP JUMPDEST PUSH2 0xC19 DUP2 DUP6 PUSH2 0xBC3 JUMP JUMPDEST SWAP4 POP PUSH2 0xC24 DUP4 PUSH2 0xBD3 JUMP JUMPDEST DUP1 PUSH0 JUMPDEST DUP4 DUP2 LT ISZERO PUSH2 0xC54 JUMPI DUP2 MLOAD PUSH2 0xC3B DUP9 DUP3 PUSH2 0xBE2 JUMP JUMPDEST SWAP8 POP PUSH2 0xC46 DUP4 PUSH2 0xBF9 JUMP JUMPDEST SWAP3 POP POP PUSH1 0x1 DUP2 ADD SWAP1 POP PUSH2 0xC27 JUMP JUMPDEST POP DUP6 SWAP4 POP POP POP POP SWAP3 SWAP2 POP POP JUMP JUMPDEST PUSH0 PUSH1 0x20 DUP3 ADD SWAP1 POP DUP2 DUP2 SUB PUSH0 DUP4 ADD MSTORE PUSH2 0xC79 DUP2 DUP5 PUSH2 0xC05 JUMP JUMPDEST SWAP1 POP SWAP3 SWAP2 POP POP JUMP JUMPDEST PUSH0 PUSH20 0xFFFFFFFFFFFFFFFFFFFFFFFFFFFFFFFFFFFFFFFF DUP3 AND SWAP1 POP SWAP2 SWAP1 POP JUMP JUMPDEST PUSH0 PUSH2 0xCAA DUP3 PUSH2 0xC81 JUMP JUMPDEST SWAP1 POP SWAP2 SWAP1 POP JUMP JUMPDEST PUSH2 0xCBA DUP2 PUSH2 0xCA0 JUMP JUMPDEST DUP3 MSTORE POP POP JUMP JUMPDEST PUSH0 PUSH1 0x20 DUP3 ADD SWAP1 POP PUSH2 0xCD3 PUSH0 DUP4 ADD DUP5 PUSH2 0xCB1 JUMP JUMPDEST SWAP3 SWAP2 POP POP JUMP JUMPDEST PUSH32 0x4E487B7100000000000000000000000000000000000000000000000000000000 PUSH0 MSTORE PUSH1 0x22 PUSH1 0x4 MSTORE PUSH1 0x24 PUSH0 REVERT JUMPDEST PUSH0 PUSH1 0x2 DUP3 DIV SWAP1 POP PUSH1 0x1 DUP3 AND DUP1 PUSH2 0xD1D JUMPI PUSH1 0x7F DUP3 AND SWAP2 POP JUMPDEST PUSH1 0x20 DUP3 LT DUP2 SUB PUSH2 0xD30 JUMPI PUSH2 0xD2F PUSH2 0xCD9 JUMP JUMPDEST JUMPDEST POP SWAP2 SWAP1 POP JUMP JUMPDEST PUSH0 DUP3 DUP3 MSTORE PUSH1 0x20 DUP3 ADD SWAP1 POP SWAP3 SWAP2 POP POP JUMP JUMPDEST PUSH32 0x4F6E6C792074686520636F6E7472616374206F776E65722063616E2070657266 PUSH0 DUP3 ADD MSTORE PUSH32 0x6F726D2074686973206F7065726174696F6E0000000000000000000000000000 PUSH1 0x20 DUP3 ADD MSTORE POP JUMP JUMPDEST PUSH0 PUSH2 0xDA0 PUSH1 0x32 DUP4 PUSH2 0xD36 JUMP JUMPDEST SWAP2 POP PUSH2 0xDAB DUP3 PUSH2 0xD46 JUMP JUMPDEST PUSH1 0x40 DUP3 ADD SWAP1 POP SWAP2 SWAP1 POP JUMP JUMPDEST PUSH0 PUSH1 0x20 DUP3 ADD SWAP1 POP DUP2 DUP2 SUB PUSH0 DUP4 ADD MSTORE PUSH2 0xDCD DUP2 PUSH2 0xD94 JUMP JUMPDEST SWAP1 POP SWAP2 SWAP1 POP JUMP JUMPDEST PUSH0 DUP1 REVERT JUMPDEST PUSH32 0x4E487B7100000000000000000000000000000000000000000000000000000000 PUSH0 MSTORE PUSH1 0x41 PUSH1 0x4 MSTORE PUSH1 0x24 PUSH0 REVERT JUMPDEST PUSH2 0xE0E DUP3 PUSH2 0x956 JUMP JUMPDEST DUP2 ADD DUP2 DUP2 LT PUSH8 0xFFFFFFFFFFFFFFFF DUP3 GT OR ISZERO PUSH2 0xE2D JUMPI PUSH2 0xE2C PUSH2 0xDD8 JUMP JUMPDEST JUMPDEST DUP1 PUSH1 0x40 MSTORE POP POP POP JUMP JUMPDEST PUSH0 PUSH2 0xE3F PUSH2 0x86D JUMP JUMPDEST SWAP1 POP PUSH2 0xE4B DUP3 DUP3 PUSH2 0xE05 JUMP JUMPDEST SWAP2 SWAP1 POP JUMP JUMPDEST PUSH0 DUP1 REVERT JUMPDEST PUSH0 DUP1 REVERT JUMPDEST PUSH0 DUP1 REVERT JUMPDEST PUSH0 PUSH8 0xFFFFFFFFFFFFFFFF DUP3 GT ISZERO PUSH2 0xE76 JUMPI PUSH2 0xE75 PUSH2 0xDD8 JUMP JUMPDEST JUMPDEST PUSH2 0xE7F DUP3 PUSH2 0x956 JUMP JUMPDEST SWAP1 POP PUSH1 0x20 DUP2 ADD SWAP1 POP SWAP2 SWAP1 POP JUMP JUMPDEST PUSH0 PUSH2 0xE9E PUSH2 0xE99 DUP5 PUSH2 0xE5C JUMP JUMPDEST PUSH2 0xE36 JUMP JUMPDEST SWAP1 POP DUP3 DUP2 MSTORE PUSH1 0x20 DUP2 ADD DUP5 DUP5 DUP5 ADD GT ISZERO PUSH2 0xEBA JUMPI PUSH2 0xEB9 PUSH2 0xE58 JUMP JUMPDEST JUMPDEST PUSH2 0xEC5 DUP5 DUP3 DUP6 PUSH2 0x92E JUMP JUMPDEST POP SWAP4 SWAP3 POP POP POP JUMP JUMPDEST PUSH0 DUP3 PUSH1 0x1F DUP4 ADD SLT PUSH2 0xEE1 JUMPI PUSH2 0xEE0 PUSH2 0xE54 JUMP JUMPDEST JUMPDEST DUP2 MLOAD PUSH2 0xEF1 DUP5 DUP3 PUSH1 0x20 DUP7 ADD PUSH2 0xE8C JUMP JUMPDEST SWAP2 POP POP SWAP3 SWAP2 POP POP JUMP JUMPDEST PUSH0 DUP2 MLOAD SWAP1 POP PUSH2 0xF08 DUP2 PUSH2 0x887 JUMP JUMPDEST SWAP3 SWAP2 POP POP JUMP JUMPDEST PUSH0 PUSH8 0xFFFFFFFFFFFFFFFF DUP3 GT ISZERO PUSH2 0xF28 JUMPI PUSH2 0xF27 PUSH2 0xDD8 JUMP JUMPDEST JUMPDEST PUSH1 0x20 DUP3 MUL SWAP1 POP PUSH1 0x20 DUP2 ADD SWAP1 POP SWAP2 SWAP1 POP JUMP JUMPDEST PUSH0 DUP1 REVERT JUMPDEST PUSH0 PUSH2 0xF4F PUSH2 0xF4A DUP5 PUSH2 0xF0E JUMP JUMPDEST PUSH2 0xE36 JUMP JUMPDEST SWAP1 POP DUP1 DUP4 DUP3 MSTORE PUSH1 0x20 DUP3 ADD SWAP1 POP PUSH1 0x20 DUP5 MUL DUP4 ADD DUP6 DUP2 GT ISZERO PUSH2 0xF72 JUMPI PUSH2 0xF71 PUSH2 0xF39 JUMP JUMPDEST JUMPDEST DUP4 JUMPDEST DUP2 DUP2 LT ISZERO PUSH2 0xFB9 JUMPI DUP1 MLOAD PUSH8 0xFFFFFFFFFFFFFFFF DUP2 GT ISZERO PUSH2 0xF97 JUMPI PUSH2 0xF96 PUSH2 0xE54 JUMP JUMPDEST JUMPDEST DUP1 DUP7 ADD PUSH2 0xFA4 DUP10 DUP3 PUSH2 0xECD JUMP JUMPDEST DUP6 MSTORE PUSH1 0x20 DUP6 ADD SWAP5 POP POP POP PUSH1 0x20 DUP2 ADD SWAP1 POP PUSH2 0xF74 JUMP JUMPDEST POP POP POP SWAP4 SWAP3 POP POP POP JUMP JUMPDEST PUSH0 DUP3 PUSH1 0x1F DUP4 ADD SLT PUSH2 0xFD7 JUMPI PUSH2 0xFD6 PUSH2 0xE54 JUMP JUMPDEST JUMPDEST DUP2 MLOAD PUSH2 0xFE7 DUP5 DUP3 PUSH1 0x20 DUP7 ADD PUSH2 0xF3D JUMP JUMPDEST SWAP2 POP POP SWAP3 SWAP2 POP POP JUMP JUMPDEST PUSH0 PUSH8 0xFFFFFFFFFFFFFFFF DUP3 GT ISZERO PUSH2 0x100A JUMPI PUSH2 0x1009 PUSH2 0xDD8 JUMP JUMPDEST JUMPDEST PUSH1 0x20 DUP3 MUL SWAP1 POP PUSH1 0x20 DUP2 ADD SWAP1 POP SWAP2 SWAP1 POP JUMP JUMPDEST PUSH0 PUSH2 0x102D PUSH2 0x1028 DUP5 PUSH2 0xFF0 JUMP JUMPDEST PUSH2 0xE36 JUMP JUMPDEST SWAP1 POP DUP1 DUP4 DUP3 MSTORE PUSH1 0x20 DUP3 ADD SWAP1 POP PUSH1 0x20 DUP5 MUL DUP4 ADD DUP6 DUP2 GT ISZERO PUSH2 0x1050 JUMPI PUSH2 0x104F PUSH2 0xF39 JUMP JUMPDEST JUMPDEST DUP4 JUMPDEST DUP2 DUP2 LT ISZERO PUSH2 0x1079 JUMPI DUP1 PUSH2 0x1065 DUP9 DUP3 PUSH2 0xEFA JUMP JUMPDEST DUP5 MSTORE PUSH1 0x20 DUP5 ADD SWAP4 POP POP PUSH1 0x20 DUP2 ADD SWAP1 POP PUSH2 0x1052 JUMP JUMPDEST POP POP POP SWAP4 SWAP3 POP POP POP JUMP JUMPDEST PUSH0 DUP3 PUSH1 0x1F DUP4 ADD SLT PUSH2 0x1097 JUMPI PUSH2 0x1096 PUSH2 0xE54 JUMP JUMPDEST JUMPDEST DUP2 MLOAD PUSH2 0x10A7 DUP5 DUP3 PUSH1 0x20 DUP7 ADD PUSH2 0x101B JUMP JUMPDEST SWAP2 POP POP SWAP3 SWAP2 POP POP JUMP JUMPDEST PUSH0 PUSH8 0xFFFFFFFFFFFFFFFF DUP3 GT ISZERO PUSH2 0x10CA JUMPI PUSH2 0x10C9 PUSH2 0xDD8 JUMP JUMPDEST JUMPDEST PUSH1 0x20 DUP3 MUL SWAP1 POP PUSH1 0x20 DUP2 ADD SWAP1 POP SWAP2 SWAP1 POP JUMP JUMPDEST PUSH2 0x10E4 DUP2 PUSH2 0xA59 JUMP JUMPDEST DUP2 EQ PUSH2 0x10EE JUMPI PUSH0 DUP1 REVERT JUMPDEST POP JUMP JUMPDEST PUSH0 DUP2 MLOAD SWAP1 POP PUSH2 0x10FF DUP2 PUSH2 0x10DB JUMP JUMPDEST SWAP3 SWAP2 POP POP JUMP JUMPDEST PUSH0 PUSH2 0x1117 PUSH2 0x1112 DUP5 PUSH2 0x10B0 JUMP JUMPDEST PUSH2 0xE36 JUMP JUMPDEST SWAP1 POP DUP1 DUP4 DUP3 MSTORE PUSH1 0x20 DUP3 ADD SWAP1 POP PUSH1 0x20 DUP5 MUL DUP4 ADD DUP6 DUP2 GT ISZERO PUSH2 0x113A JUMPI PUSH2 0x1139 PUSH2 0xF39 JUMP JUMPDEST JUMPDEST DUP4 JUMPDEST DUP2 DUP2 LT ISZERO PUSH2 0x1163 JUMPI DUP1 PUSH2 0x114F DUP9 DUP3 PUSH2 0x10F1 JUMP JUMPDEST DUP5 MSTORE PUSH1 0x20 DUP5 ADD SWAP4 POP POP PUSH1 0x20 DUP2 ADD SWAP1 POP PUSH2 0x113C JUMP JUMPDEST POP POP POP SWAP4 SWAP3 POP POP POP JUMP JUMPDEST PUSH0 DUP3 PUSH1 0x1F DUP4 ADD SLT PUSH2 0x1181 JUMPI PUSH2 0x1180 PUSH2 0xE54 JUMP JUMPDEST JUMPDEST DUP2 MLOAD PUSH2 0x1191 DUP5 DUP3 PUSH1 0x20 DUP7 ADD PUSH2 0x1105 JUMP JUMPDEST SWAP2 POP POP SWAP3 SWAP2 POP POP JUMP JUMPDEST PUSH0 PUSH1 0xC0 DUP3 DUP5 SUB SLT ISZERO PUSH2 0x11AF JUMPI PUSH2 0x11AE PUSH2 0xDD4 JUMP JUMPDEST JUMPDEST PUSH2 0x11B9 PUSH1 0xC0 PUSH2 0xE36 JUMP JUMPDEST SWAP1 POP PUSH0 DUP3 ADD MLOAD PUSH8 0xFFFFFFFFFFFFFFFF DUP2 GT ISZERO PUSH2 0x11D8 JUMPI PUSH2 0x11D7 PUSH2 0xE50 JUMP JUMPDEST JUMPDEST PUSH2 0x11E4 DUP5 DUP3 DUP6 ADD PUSH2 0xECD JUMP JUMPDEST PUSH0 DUP4 ADD MSTORE POP PUSH1 0x20 DUP3 ADD MLOAD PUSH8 0xFFFFFFFFFFFFFFFF DUP2 GT ISZERO PUSH2 0x1207 JUMPI PUSH2 0x1206 PUSH2 0xE50 JUMP JUMPDEST JUMPDEST PUSH2 0x1213 DUP5 DUP3 DUP6 ADD PUSH2 0xECD JUMP JUMPDEST PUSH1 0x20 DUP4 ADD MSTORE POP PUSH1 0x40 PUSH2 0x1227 DUP5 DUP3 DUP6 ADD PUSH2 0xEFA JUMP JUMPDEST PUSH1 0x40 DUP4 ADD MSTORE POP PUSH1 0x60 DUP3 ADD MLOAD PUSH8 0xFFFFFFFFFFFFFFFF DUP2 GT ISZERO PUSH2 0x124B JUMPI PUSH2 0x124A PUSH2 0xE50 JUMP JUMPDEST JUMPDEST PUSH2 0x1257 DUP5 DUP3 DUP6 ADD PUSH2 0xFC3 JUMP JUMPDEST PUSH1 0x60 DUP4 ADD MSTORE POP PUSH1 0x80 DUP3 ADD MLOAD PUSH8 0xFFFFFFFFFFFFFFFF DUP2 GT ISZERO PUSH2 0x127B JUMPI PUSH2 0x127A PUSH2 0xE50 JUMP JUMPDEST JUMPDEST PUSH2 0x1287 DUP5 DUP3 DUP6 ADD PUSH2 0x1083 JUMP JUMPDEST PUSH1 0x80 DUP4 ADD MSTORE POP PUSH1 0xA0 DUP3 ADD MLOAD PUSH8 0xFFFFFFFFFFFFFFFF DUP2 GT ISZERO PUSH2 0x12AB JUMPI PUSH2 0x12AA PUSH2 0xE50 JUMP JUMPDEST JUMPDEST PUSH2 0x12B7 DUP5 DUP3 DUP6 ADD PUSH2 0x116D JUMP JUMPDEST PUSH1 0xA0 DUP4 ADD MSTORE POP SWAP3 SWAP2 POP POP JUMP JUMPDEST PUSH0 PUSH1 0x20 DUP3 DUP5 SUB SLT ISZERO PUSH2 0x12D8 JUMPI PUSH2 0x12D7 PUSH2 0x876 JUMP JUMPDEST JUMPDEST PUSH0 DUP3 ADD MLOAD PUSH8 0xFFFFFFFFFFFFFFFF DUP2 GT ISZERO PUSH2 0x12F5 JUMPI PUSH2 0x12F4 PUSH2 0x87A JUMP JUMPDEST JUMPDEST PUSH2 0x1301 DUP5 DUP3 DUP6 ADD PUSH2 0x119A JUMP JUMPDEST SWAP2 POP POP SWAP3 SWAP2 POP POP JUMP JUMPDEST PUSH32 0x4E487B7100000000000000000000000000000000000000000000000000000000 PUSH0 MSTORE PUSH1 0x32 PUSH1 0x4 MSTORE PUSH1 0x24 PUSH0 REVERT JUMPDEST PUSH0 PUSH1 0x20 DUP3 DUP5 SUB SLT ISZERO PUSH2 0x134C JUMPI PUSH2 0x134B PUSH2 0x876 JUMP JUMPDEST JUMPDEST PUSH0 PUSH2 0x1359 DUP5 DUP3 DUP6 ADD PUSH2 0x10F1 JUMP JUMPDEST SWAP2 POP POP SWAP3 SWAP2 POP POP JUMP JUMPDEST PUSH0 DUP2 SWAP1 POP DUP2 PUSH0 MSTORE PUSH1 0x20 PUSH0 KECCAK256 SWAP1 POP SWAP2 SWAP1 POP JUMP JUMPDEST PUSH0 PUSH1 0x20 PUSH1 0x1F DUP4 ADD DIV SWAP1 POP SWAP2 SWAP1 POP JUMP JUMPDEST PUSH0 DUP3 DUP3 SHL SWAP1 POP SWAP3 SWAP2 POP POP JUMP JUMPDEST PUSH0 PUSH1 0x8 DUP4 MUL PUSH2 0x13BE PUSH32 0xFFFFFFFFFFFFFFFFFFFFFFFFFFFFFFFFFFFFFFFFFFFFFFFFFFFFFFFFFFFFFFFF DUP3 PUSH2 0x1383 JUMP JUMPDEST PUSH2 0x13C8 DUP7 DUP4 PUSH2 0x1383 JUMP JUMPDEST SWAP6 POP DUP1 NOT DUP5 AND SWAP4 POP DUP1 DUP7 AND DUP5 OR SWAP3 POP POP POP SWAP4 SWAP3 POP POP POP JUMP JUMPDEST PUSH0 DUP2 SWAP1 POP SWAP2 SWAP1 POP JUMP JUMPDEST PUSH0 PUSH2 0x1403 PUSH2 0x13FE PUSH2 0x13F9 DUP5 PUSH2 0x87E JUMP JUMPDEST PUSH2 0x13E0 JUMP JUMPDEST PUSH2 0x87E JUMP JUMPDEST SWAP1 POP SWAP2 SWAP1 POP JUMP JUMPDEST PUSH0 DUP2 SWAP1 POP SWAP2 SWAP1 POP JUMP JUMPDEST PUSH2 0x141C DUP4 PUSH2 0x13E9 JUMP JUMPDEST PUSH2 0x1430 PUSH2 0x1428 DUP3 PUSH2 0x140A JUMP JUMPDEST DUP5 DUP5 SLOAD PUSH2 0x138F JUMP JUMPDEST DUP3 SSTORE POP POP POP POP JUMP JUMPDEST PUSH0 SWAP1 JUMP JUMPDEST PUSH2 0x1444 PUSH2 0x1438 JUMP JUMPDEST PUSH2 0x144F DUP2 DUP5 DUP5 PUSH2 0x1413 JUMP JUMPDEST POP POP POP JUMP JUMPDEST JUMPDEST DUP2 DUP2 LT ISZERO PUSH2 0x1472 JUMPI PUSH2 0x1467 PUSH0 DUP3 PUSH2 0x143C JUMP JUMPDEST PUSH1 0x1 DUP2 ADD SWAP1 POP PUSH2 0x1455 JUMP JUMPDEST POP POP JUMP JUMPDEST PUSH1 0x1F DUP3 GT ISZERO PUSH2 0x14B7 JUMPI PUSH2 0x1488 DUP2 PUSH2 0x1362 JUMP JUMPDEST PUSH2 0x1491 DUP5 PUSH2 0x1374 JUMP JUMPDEST DUP2 ADD PUSH1 0x20 DUP6 LT ISZERO PUSH2 0x14A0 JUMPI DUP2 SWAP1 POP JUMPDEST PUSH2 0x14B4 PUSH2 0x14AC DUP6 PUSH2 0x1374 JUMP JUMPDEST DUP4 ADD DUP3 PUSH2 0x1454 JUMP JUMPDEST POP POP JUMPDEST POP POP POP JUMP JUMPDEST PUSH0 DUP3 DUP3 SHR SWAP1 POP SWAP3 SWAP2 POP POP JUMP JUMPDEST PUSH0 PUSH2 0x14D7 PUSH0 NOT DUP5 PUSH1 0x8 MUL PUSH2 0x14BC JUMP JUMPDEST NOT DUP1 DUP4 AND SWAP2 POP POP SWAP3 SWAP2 POP POP JUMP JUMPDEST PUSH0 PUSH2 0x14EF DUP4 DUP4 PUSH2 0x14C8 JUMP JUMPDEST SWAP2 POP DUP3 PUSH1 0x2 MUL DUP3 OR SWAP1 POP SWAP3 SWAP2 POP POP JUMP JUMPDEST PUSH2 0x1508 DUP3 PUSH2 0x914 JUMP JUMPDEST PUSH8 0xFFFFFFFFFFFFFFFF DUP2 GT ISZERO PUSH2 0x1521 JUMPI PUSH2 0x1520 PUSH2 0xDD8 JUMP JUMPDEST JUMPDEST PUSH2 0x152B DUP3 SLOAD PUSH2 0xD06 JUMP JUMPDEST PUSH2 0x1536 DUP3 DUP3 DUP6 PUSH2 0x1476 JUMP JUMPDEST PUSH0 PUSH1 0x20 SWAP1 POP PUSH1 0x1F DUP4 GT PUSH1 0x1 DUP2 EQ PUSH2 0x1567 JUMPI PUSH0 DUP5 ISZERO PUSH2 0x1555 JUMPI DUP3 DUP8 ADD MLOAD SWAP1 POP JUMPDEST PUSH2 0x155F DUP6 DUP3 PUSH2 0x14E4 JUMP JUMPDEST DUP7 SSTORE POP PUSH2 0x15C6 JUMP JUMPDEST PUSH1 0x1F NOT DUP5 AND PUSH2 0x1575 DUP7 PUSH2 0x1362 JUMP JUMPDEST PUSH0 JUMPDEST DUP3 DUP2 LT ISZERO PUSH2 0x159C JUMPI DUP5 DUP10 ADD MLOAD DUP3 SSTORE PUSH1 0x1 DUP3 ADD SWAP2 POP PUSH1 0x20 DUP6 ADD SWAP5 POP PUSH1 0x20 DUP2 ADD SWAP1 POP PUSH2 0x1577 JUMP JUMPDEST DUP7 DUP4 LT ISZERO PUSH2 0x15B9 JUMPI DUP5 DUP10 ADD MLOAD PUSH2 0x15B5 PUSH1 0x1F DUP10 AND DUP3 PUSH2 0x14C8 JUMP JUMPDEST DUP4 SSTORE POP JUMPDEST PUSH1 0x1 PUSH1 0x2 DUP9 MUL ADD DUP9 SSTORE POP POP POP JUMPDEST POP POP POP POP POP POP JUMP JUMPDEST PUSH32 0x4E487B7100000000000000000000000000000000000000000000000000000000 PUSH0 MSTORE PUSH1 0x11 PUSH1 0x4 MSTORE PUSH1 0x24 PUSH0 REVERT JUMPDEST PUSH0 PUSH2 0x1605 DUP3 PUSH2 0x87E JUMP JUMPDEST SWAP2 POP PUSH32 0xFFFFFFFFFFFFFFFFFFFFFFFFFFFFFFFFFFFFFFFFFFFFFFFFFFFFFFFFFFFFFFFF DUP3 SUB PUSH2 0x1637 JUMPI PUSH2 0x1636 PUSH2 0x15CE JUMP JUMPDEST JUMPDEST PUSH1 0x1 DUP3 ADD SWAP1 POP SWAP2 SWAP1 POP JUMP INVALID LOG2 PUSH5 0x6970667358 0x22 SLT KECCAK256 0xB1 0xE1 SWAP11 PUSH7 0x80626B88EF5101 SUB PUSH15 0xFC3D36A928ABB63EF7D0037F3425FB 0x2A PUSH17 0xC46564736F6C63430008180033A2646970 PUSH7 0x7358221220991E 0xFC PUSH27 0xEE1C57E432E74640B1871E07A801E431F6126AFB05F53485C21A3 0xF7 PUSH5 0x736F6C6343 STOP ADDMOD XOR STOP CALLER "
		},
		"gasEstimates": {
			"creation": {
				"codeDepositCost": "4563800",
				"executionCost": "27434",
				"totalCost": "4591234"
			},
			"external": {
				"beforeAll()": "infinite",
				"testAddLog()": "infinite",
				"testGetLogCounter()": "infinite",
				"testGetLogKeys()": "infinite"
			}
		},
		"methodIdentifiers": {
			"beforeAll()": "7fea0d4b",
			"testAddLog()": "380ee6b1",
			"testGetLogCounter()": "014f7613",
			"testGetLogKeys()": "c1fa318f"
		}
	},
	"abi": [
		{
			"inputs": [],
			"name": "beforeAll",
			"outputs": [],
			"stateMutability": "nonpayable",
			"type": "function"
		},
		{
			"inputs": [],
			"name": "testAddLog",
			"outputs": [],
			"stateMutability": "nonpayable",
			"type": "function"
		},
		{
			"inputs": [],
			"name": "testGetLogCounter",
			"outputs": [],
			"stateMutability": "nonpayable",
			"type": "function"
		},
		{
			"inputs": [],
			"name": "testGetLogKeys",
			"outputs": [],
			"stateMutability": "nonpayable",
			"type": "function"
		}
	]
}