{
	"data": {
		"bytecode": {
			"linkReferences": {
				"remix_tests.sol": {
					"Assert": [
						{
							"length": 20,
							"start": 1458
						},
						{
							"length": 20,
							"start": 2184
						},
						{
							"length": 20,
							"start": 3052
						},
						{
							"length": 20,
							"start": 3920
						},
						{
							"length": 20,
							"start": 4048
						}
					]
				}
			},
			"object": "608060405234801561000f575f80fd5b5061586e8061001d5f395ff3fe608060405234801562000010575f80fd5b50600436106200005c575f3560e01c80636331e7d4146200006057806389845d55146200006c5780639c7fffb21462000078578063baf7c7a51462000084578063e7bcb0711462000090575b5f80fd5b6200006a6200009c565b005b62000076620002b1565b005b6200008262000615565b005b6200008e620008eb565b005b6200009a62000c4f565b005b604051620000aa9062001050565b604051809103905ff080158015620000c4573d5f803e3d5ffd5b5060015f6101000a81548173ffffffffffffffffffffffffffffffffffffffff021916908373ffffffffffffffffffffffffffffffffffffffff16021790555060405162000112906200105e565b604051809103905ff0801580156200012c573d5f803e3d5ffd5b5060025f6101000a81548173ffffffffffffffffffffffffffffffffffffffff021916908373ffffffffffffffffffffffffffffffffffffffff1602179055506040516200017a906200106c565b604051809103905ff08015801562000194573d5f803e3d5ffd5b5060035f6101000a81548173ffffffffffffffffffffffffffffffffffffffff021916908373ffffffffffffffffffffffffffffffffffffffff16021790555060015f9054906101000a900473ffffffffffffffffffffffffffffffffffffffff1660025f9054906101000a900473ffffffffffffffffffffffffffffffffffffffff1660035f9054906101000a900473ffffffffffffffffffffffffffffffffffffffff1660405162000248906200107a565b6200025693929190620010cb565b604051809103905ff08015801562000270573d5f803e3d5ffd5b505f806101000a81548173ffffffffffffffffffffffffffffffffffffffff021916908373ffffffffffffffffffffffffffffffffffffffff160217905550565b60015f9054906101000a900473ffffffffffffffffffffffffffffffffffffffff1673ffffffffffffffffffffffffffffffffffffffff16632f57b91c60015f60016040518463ffffffff1660e01b81526004016200031393929190620012a7565b5f604051808303815f87803b1580156200032b575f80fd5b505af11580156200033e573d5f803e3d5ffd5b5050505060025f9054906101000a900473ffffffffffffffffffffffffffffffffffffffff1673ffffffffffffffffffffffffffffffffffffffff1663ca99401760015f9054906101000a900473ffffffffffffffffffffffffffffffffffffffff166001806040518463ffffffff1660e01b8152600401620003c49392919062001336565b5f604051808303815f87803b158015620003dc575f80fd5b505af1158015620003ef573d5f803e3d5ffd5b5050505060035f9054906101000a900473ffffffffffffffffffffffffffffffffffffffff1673ffffffffffffffffffffffffffffffffffffffff1663ac9a939b6001806040518363ffffffff1660e01b815260040162000452929190620013c0565b5f604051808303815f87803b1580156200046a575f80fd5b505af11580156200047d573d5f803e3d5ffd5b505050505f8054906101000a900473ffffffffffffffffffffffffffffffffffffffff1673ffffffffffffffffffffffffffffffffffffffff16630ac2db426040518163ffffffff1660e01b81526004015f604051808303815f87803b158015620004e6575f80fd5b505af1158015620004f9573d5f803e3d5ffd5b505050505f805f9054906101000a900473ffffffffffffffffffffffffffffffffffffffff1673ffffffffffffffffffffffffffffffffffffffff16637fe188146040518163ffffffff1660e01b81526004015f60405180830381865afa15801562000567573d5f803e3d5ffd5b505050506040513d5f823e3d601f19601f82011682018060405250810190620005919190620015ba565b905073__$acbfb1c35000d78352310b16a054a6b106$__63561015e282515f6040518363ffffffff1660e01b8152600401620005cf929190620016b9565b602060405180830381865af4158015620005eb573d5f803e3d5ffd5b505050506040513d601f19601f8201168201806040525081019062000611919062001728565b5050565b60015f9054906101000a900473ffffffffffffffffffffffffffffffffffffffff1673ffffffffffffffffffffffffffffffffffffffff16632f57b91c60015f60016040518463ffffffff1660e01b81526004016200067793929190620012a7565b5f604051808303815f87803b1580156200068f575f80fd5b505af1158015620006a2573d5f803e3d5ffd5b5050505060025f9054906101000a900473ffffffffffffffffffffffffffffffffffffffff1673ffffffffffffffffffffffffffffffffffffffff1663ca99401760015f9054906101000a900473ffffffffffffffffffffffffffffffffffffffff166001806040518463ffffffff1660e01b8152600401620007289392919062001336565b5f604051808303815f87803b15801562000740575f80fd5b505af115801562000753573d5f803e3d5ffd5b505050505f8054906101000a900473ffffffffffffffffffffffffffffffffffffffff1673ffffffffffffffffffffffffffffffffffffffff16630ac2db426040518163ffffffff1660e01b81526004015f604051808303815f87803b158015620007bc575f80fd5b505af1158015620007cf573d5f803e3d5ffd5b505050505f805f9054906101000a900473ffffffffffffffffffffffffffffffffffffffff1673ffffffffffffffffffffffffffffffffffffffff16637fe188146040518163ffffffff1660e01b81526004015f60405180830381865afa1580156200083d573d5f803e3d5ffd5b505050506040513d5f823e3d601f19601f82011682018060405250810190620008679190620015ba565b905073__$acbfb1c35000d78352310b16a054a6b106$__63abcd796082515f6040518363ffffffff1660e01b8152600401620008a5929190620017a6565b602060405180830381865af4158015620008c1573d5f803e3d5ffd5b505050506040513d601f19601f82011682018060405250810190620008e7919062001728565b5050565b60015f9054906101000a900473ffffffffffffffffffffffffffffffffffffffff1673ffffffffffffffffffffffffffffffffffffffff16632f57b91c60015f60016040518463ffffffff1660e01b81526004016200094d93929190620012a7565b5f604051808303815f87803b15801562000965575f80fd5b505af115801562000978573d5f803e3d5ffd5b5050505060025f9054906101000a900473ffffffffffffffffffffffffffffffffffffffff1673ffffffffffffffffffffffffffffffffffffffff1663ca99401760015f9054906101000a900473ffffffffffffffffffffffffffffffffffffffff166001806040518463ffffffff1660e01b8152600401620009fe9392919062001336565b5f604051808303815f87803b15801562000a16575f80fd5b505af115801562000a29573d5f803e3d5ffd5b5050505060035f9054906101000a900473ffffffffffffffffffffffffffffffffffffffff1673ffffffffffffffffffffffffffffffffffffffff1663ac9a939b60015f6040518363ffffffff1660e01b815260040162000a8c9291906200180c565b5f604051808303815f87803b15801562000aa4575f80fd5b505af115801562000ab7573d5f803e3d5ffd5b505050505f8054906101000a900473ffffffffffffffffffffffffffffffffffffffff1673ffffffffffffffffffffffffffffffffffffffff16630ac2db426040518163ffffffff1660e01b81526004015f604051808303815f87803b15801562000b20575f80fd5b505af115801562000b33573d5f803e3d5ffd5b505050505f805f9054906101000a900473ffffffffffffffffffffffffffffffffffffffff1673ffffffffffffffffffffffffffffffffffffffff16637fe188146040518163ffffffff1660e01b81526004015f60405180830381865afa15801562000ba1573d5f803e3d5ffd5b505050506040513d5f823e3d601f19601f8201168201806040525081019062000bcb9190620015ba565b905073__$acbfb1c35000d78352310b16a054a6b106$__63561015e282515f6040518363ffffffff1660e01b815260040162000c09929190620016b9565b602060405180830381865af415801562000c25573d5f803e3d5ffd5b505050506040513d601f19601f8201168201806040525081019062000c4b919062001728565b5050565b60015f9054906101000a900473ffffffffffffffffffffffffffffffffffffffff1673ffffffffffffffffffffffffffffffffffffffff16632f57b91c60015f60016040518463ffffffff1660e01b815260040162000cb193929190620012a7565b5f604051808303815f87803b15801562000cc9575f80fd5b505af115801562000cdc573d5f803e3d5ffd5b5050505060025f9054906101000a900473ffffffffffffffffffffffffffffffffffffffff1673ffffffffffffffffffffffffffffffffffffffff1663ca99401760015f9054906101000a900473ffffffffffffffffffffffffffffffffffffffff166001806040518463ffffffff1660e01b815260040162000d629392919062001336565b5f604051808303815f87803b15801562000d7a575f80fd5b505af115801562000d8d573d5f803e3d5ffd5b5050505060035f9054906101000a900473ffffffffffffffffffffffffffffffffffffffff1673ffffffffffffffffffffffffffffffffffffffff1663ac9a939b6001806040518363ffffffff1660e01b815260040162000df0929190620013c0565b5f604051808303815f87803b15801562000e08575f80fd5b505af115801562000e1b573d5f803e3d5ffd5b505050505f8054906101000a900473ffffffffffffffffffffffffffffffffffffffff1673ffffffffffffffffffffffffffffffffffffffff16630ac2db426040518163ffffffff1660e01b81526004015f604051808303815f87803b15801562000e84575f80fd5b505af115801562000e97573d5f803e3d5ffd5b505050505f805f9054906101000a900473ffffffffffffffffffffffffffffffffffffffff1673ffffffffffffffffffffffffffffffffffffffff16637fe188146040518163ffffffff1660e01b81526004015f60405180830381865afa15801562000f05573d5f803e3d5ffd5b505050506040513d5f823e3d601f19601f8201168201806040525081019062000f2f9190620015ba565b905073__$acbfb1c35000d78352310b16a054a6b106$__63abcd7960825160016040518363ffffffff1660e01b815260040162000f6e929190620018b9565b602060405180830381865af415801562000f8a573d5f803e3d5ffd5b505050506040513d601f19601f8201168201806040525081019062000fb0919062001728565b5073__$acbfb1c35000d78352310b16a054a6b106$__63abcd7960825f8151811062000fe15762000fe0620018f9565b5b602002602001015160016040518363ffffffff1660e01b81526004016200100a92919062001974565b602060405180830381865af415801562001026573d5f803e3d5ffd5b505050506040513d601f19601f820116820180604052508101906200104c919062001728565b5050565b6110b980620019b583390190565b6109228062002a6e83390190565b610df6806200339083390190565b6116b3806200418683390190565b5f73ffffffffffffffffffffffffffffffffffffffff82169050919050565b5f620010b38262001088565b9050919050565b620010c581620010a7565b82525050565b5f606082019050620010e05f830186620010ba565b620010ef6020830185620010ba565b620010fe6040830184620010ba565b949350505050565b5f82825260208201905092915050565b7f53657276696365310000000000000000000000000000000000000000000000005f82015250565b5f6200114c60088362001106565b9150620011598262001116565b602082019050919050565b7f507572706f7365310000000000000000000000000000000000000000000000005f82015250565b5f6200119a60088362001106565b9150620011a78262001164565b602082019050919050565b5f819050919050565b5f819050919050565b5f819050919050565b5f620011ed620011e7620011e184620011b2565b620011c4565b620011bb565b9050919050565b620011ff81620011cd565b82525050565b7f4e487b71000000000000000000000000000000000000000000000000000000005f52602160045260245ffd5b6003811062001246576200124562001205565b5b50565b5f819050620012588262001232565b919050565b5f620012698262001249565b9050919050565b6200127b816200125d565b82525050565b7f50726f6365737365644461746131000000000000000000000000000000000000815250565b5f60c0820190508181035f830152620012c0816200113e565b90508181036020830152620012d5816200118c565b9050620012e66040830186620011f4565b620012f5606083018562001270565b620013046080830184620011f4565b6200131260a0830162001281565b949350505050565b5f8115159050919050565b62001330816200131a565b82525050565b5f6060820190506200134b5f830186620010ba565b6200135a6020830185620011f4565b62001369604083018462001325565b949350505050565b6003811062001385576200138462001205565b5b50565b5f819050620013978262001371565b919050565b5f620013a88262001388565b9050919050565b620013ba816200139c565b82525050565b5f608082019050620013d55f830185620011f4565b620013e46020830184620013af565b620013f26040830162001281565b818103606083015262001405816200113e565b90509392505050565b5f604051905090565b5f80fd5b5f80fd5b5f80fd5b5f601f19601f8301169050919050565b7f4e487b71000000000000000000000000000000000000000000000000000000005f52604160045260245ffd5b6200146b8262001423565b810181811067ffffffffffffffff821117156200148d576200148c62001433565b5b80604052505050565b5f620014a16200140e565b9050620014af828262001460565b919050565b5f67ffffffffffffffff821115620014d157620014d062001433565b5b602082029050602081019050919050565b5f80fd5b620014f181620011bb565b8114620014fc575f80fd5b50565b5f815190506200150f81620014e6565b92915050565b5f6200152b6200152584620014b4565b62001496565b90508083825260208201905060208402830185811115620015515762001550620014e2565b5b835b818110156200157e5780620015698882620014ff565b84526020840193505060208101905062001553565b5050509392505050565b5f82601f8301126200159f576200159e6200141f565b5b8151620015b184826020860162001515565b91505092915050565b5f60208284031215620015d257620015d162001417565b5b5f82015167ffffffffffffffff811115620015f257620015f16200141b565b5b620016008482850162001588565b91505092915050565b6200161481620011bb565b82525050565b5f819050919050565b5f620016436200163d62001637846200161a565b620011c4565b620011bb565b9050919050565b620016558162001623565b82525050565b5f82825260208201905092915050565b7f54686572652073686f756c642062652076696f6c61746f7273000000000000005f82015250565b5f620016a16019836200165b565b9150620016ae826200166b565b602082019050919050565b5f606082019050620016ce5f83018562001609565b620016dd60208301846200164a565b8181036040830152620016f08162001693565b90509392505050565b62001704816200131a565b81146200170f575f80fd5b50565b5f815190506200172281620016f9565b92915050565b5f6020828403121562001740576200173f62001417565b5b5f6200174f8482850162001712565b91505092915050565b7f54686572652073686f756c64206265206e6f2076696f6c61746f7273000000005f82015250565b5f6200178e601c836200165b565b91506200179b8262001758565b602082019050919050565b5f606082019050620017bb5f83018562001609565b620017ca60208301846200164a565b8181036040830152620017dd8162001780565b90509392505050565b7f50726f6365737365644461746132000000000000000000000000000000000000815250565b5f608082019050620018215f830185620011f4565b620018306020830184620013af565b6200183e60408301620017e6565b818103606083015262001851816200113e565b90509392505050565b6200186581620011cd565b82525050565b7f54686572652073686f756c64206265206f6e652076696f6c61746f72000000005f82015250565b5f620018a1601c836200165b565b9150620018ae826200186b565b602082019050919050565b5f606082019050620018ce5f83018562001609565b620018dd60208301846200185a565b8181036040830152620018f08162001893565b90509392505050565b7f4e487b71000000000000000000000000000000000000000000000000000000005f52603260045260245ffd5b7f5468652076696f6c61746f722049442073686f756c64206d61746368000000005f82015250565b5f6200195c601c836200165b565b9150620019698262001926565b602082019050919050565b5f606082019050620019895f83018562001609565b6200199860208301846200185a565b8181036040830152620019ab816200194e565b9050939250505056fe60806040525f6002555f600455348015610017575f80fd5b50335f806101000a81548173ffffffffffffffffffffffffffffffffffffffff021916908373ffffffffffffffffffffffffffffffffffffffff160217905550611055806100645f395ff3fe608060405234801561000f575f80fd5b5060043610610060575f3560e01c80632f57b91c146100645780634b58fbe914610080578063682477d71461009e57806385f86e0d146100bc5780638da5cb5b146100ec578063d2b0649a1461010a575b5f80fd5b61007e6004803603810190610079919061073d565b61013a565b005b6100886102b0565b604051610095919061080d565b60405180910390f35b6100a66102b9565b6040516100b3919061080d565b60405180910390f35b6100d660048036038101906100d19190610826565b6102c2565b6040516100e391906108ed565b60405180910390f35b6100f4610305565b6040516101019190610945565b60405180910390f35b610124600480360381019061011f919061095e565b610328565b6040516101319190610b21565b60405180910390f35b5f8054906101000a900473ffffffffffffffffffffffffffffffffffffffff1673ffffffffffffffffffffffffffffffffffffffff163373ffffffffffffffffffffffffffffffffffffffff16146101c7576040517f08c379a00000000000000000000000000000000000000000000000000000000081526004016101be90610bc1565b60405180910390fd5b6040518060c001604052808781526020018681526020018581526020018460028111156101f7576101f6610a12565b5b81526020018381526020018281525060015f8681526020019081526020015f205f820151815f01908161022a9190610dd9565b5060208201518160010190816102409190610dd9565b50604082015181600201556060820151816003015f6101000a81548160ff0219169083600281111561027557610274610a12565b5b02179055506080820151816004015560a0820151816005015590505060025f8154809291906102a390610ed5565b9190505550505050505050565b5f600454905090565b5f600254905090565b5f6060858585856040516020016102dc9493929190610f76565b60405160208183030381529060405290505f818051906020012090508092505050949350505050565b5f8054906101000a900473ffffffffffffffffffffffffffffffffffffffff1681565b610330610520565b5f60015f8481526020019081526020015f206002015403610386576040517f08c379a000000000000000000000000000000000000000000000000000000000815260040161037d90611001565b60405180910390fd5b60015f8381526020019081526020015f206040518060c00160405290815f820180546103b190610c0c565b80601f01602080910402602001604051908101604052809291908181526020018280546103dd90610c0c565b80156104285780601f106103ff57610100808354040283529160200191610428565b820191905f5260205f20905b81548152906001019060200180831161040b57829003601f168201915b5050505050815260200160018201805461044190610c0c565b80601f016020809104026020016040519081016040528092919081815260200182805461046d90610c0c565b80156104b85780601f1061048f576101008083540402835291602001916104b8565b820191905f5260205f20905b81548152906001019060200180831161049b57829003601f168201915b5050505050815260200160028201548152602001600382015f9054906101000a900460ff1660028111156104ef576104ee610a12565b5b600281111561050157610500610a12565b5b8152602001600482015481526020016005820154815250509050919050565b6040518060c0016040528060608152602001606081526020015f81526020015f600281111561055257610551610a12565b5b81526020015f81526020015f80191681525090565b5f604051905090565b5f80fd5b5f80fd5b5f80fd5b5f80fd5b5f601f19601f8301169050919050565b7f4e487b71000000000000000000000000000000000000000000000000000000005f52604160045260245ffd5b6105c682610580565b810181811067ffffffffffffffff821117156105e5576105e4610590565b5b80604052505050565b5f6105f7610567565b905061060382826105bd565b919050565b5f67ffffffffffffffff82111561062257610621610590565b5b61062b82610580565b9050602081019050919050565b828183375f83830152505050565b5f61065861065384610608565b6105ee565b9050828152602081018484840111156106745761067361057c565b5b61067f848285610638565b509392505050565b5f82601f83011261069b5761069a610578565b5b81356106ab848260208601610646565b91505092915050565b5f819050919050565b6106c6816106b4565b81146106d0575f80fd5b50565b5f813590506106e1816106bd565b92915050565b600381106106f3575f80fd5b50565b5f81359050610704816106e7565b92915050565b5f819050919050565b61071c8161070a565b8114610726575f80fd5b50565b5f8135905061073781610713565b92915050565b5f805f805f8060c0878903121561075757610756610570565b5b5f87013567ffffffffffffffff81111561077457610773610574565b5b61078089828a01610687565b965050602087013567ffffffffffffffff8111156107a1576107a0610574565b5b6107ad89828a01610687565b95505060406107be89828a016106d3565b94505060606107cf89828a016106f6565b93505060806107e089828a016106d3565b92505060a06107f189828a01610729565b9150509295509295509295565b610807816106b4565b82525050565b5f6020820190506108205f8301846107fe565b92915050565b5f805f806080858703121561083e5761083d610570565b5b5f61084b878288016106d3565b945050602085013567ffffffffffffffff81111561086c5761086b610574565b5b61087887828801610687565b935050604085013567ffffffffffffffff81111561089957610898610574565b5b6108a587828801610687565b925050606085013567ffffffffffffffff8111156108c6576108c5610574565b5b6108d287828801610687565b91505092959194509250565b6108e78161070a565b82525050565b5f6020820190506109005f8301846108de565b92915050565b5f73ffffffffffffffffffffffffffffffffffffffff82169050919050565b5f61092f82610906565b9050919050565b61093f81610925565b82525050565b5f6020820190506109585f830184610936565b92915050565b5f6020828403121561097357610972610570565b5b5f610980848285016106d3565b91505092915050565b5f81519050919050565b5f82825260208201905092915050565b5f5b838110156109c05780820151818401526020810190506109a5565b5f8484015250505050565b5f6109d582610989565b6109df8185610993565b93506109ef8185602086016109a3565b6109f881610580565b840191505092915050565b610a0c816106b4565b82525050565b7f4e487b71000000000000000000000000000000000000000000000000000000005f52602160045260245ffd5b60038110610a5057610a4f610a12565b5b50565b5f819050610a6082610a3f565b919050565b5f610a6f82610a53565b9050919050565b610a7f81610a65565b82525050565b610a8e8161070a565b82525050565b5f60c083015f8301518482035f860152610aae82826109cb565b91505060208301518482036020860152610ac882826109cb565b9150506040830151610add6040860182610a03565b506060830151610af06060860182610a76565b506080830151610b036080860182610a03565b5060a0830151610b1660a0860182610a85565b508091505092915050565b5f6020820190508181035f830152610b398184610a94565b905092915050565b5f82825260208201905092915050565b7f4f6e6c792074686520636f6e7472616374206f776e65722063616e20706572665f8201527f6f726d2074686973206f7065726174696f6e0000000000000000000000000000602082015250565b5f610bab603283610b41565b9150610bb682610b51565b604082019050919050565b5f6020820190508181035f830152610bd881610b9f565b9050919050565b7f4e487b71000000000000000000000000000000000000000000000000000000005f52602260045260245ffd5b5f6002820490506001821680610c2357607f821691505b602082108103610c3657610c35610bdf565b5b50919050565b5f819050815f5260205f209050919050565b5f6020601f8301049050919050565b5f82821b905092915050565b5f60088302610c987fffffffffffffffffffffffffffffffffffffffffffffffffffffffffffffffff82610c5d565b610ca28683610c5d565b95508019841693508086168417925050509392505050565b5f819050919050565b5f610cdd610cd8610cd3846106b4565b610cba565b6106b4565b9050919050565b5f819050919050565b610cf683610cc3565b610d0a610d0282610ce4565b848454610c69565b825550505050565b5f90565b610d1e610d12565b610d29818484610ced565b505050565b5b81811015610d4c57610d415f82610d16565b600181019050610d2f565b5050565b601f821115610d9157610d6281610c3c565b610d6b84610c4e565b81016020851015610d7a578190505b610d8e610d8685610c4e565b830182610d2e565b50505b505050565b5f82821c905092915050565b5f610db15f1984600802610d96565b1980831691505092915050565b5f610dc98383610da2565b9150826002028217905092915050565b610de282610989565b67ffffffffffffffff811115610dfb57610dfa610590565b5b610e058254610c0c565b610e10828285610d50565b5f60209050601f831160018114610e41575f8415610e2f578287015190505b610e398582610dbe565b865550610ea0565b601f198416610e4f86610c3c565b5f5b82811015610e7657848901518255600182019150602085019450602081019050610e51565b86831015610e935784890151610e8f601f891682610da2565b8355505b6001600288020188555050505b505050505050565b7f4e487b71000000000000000000000000000000000000000000000000000000005f52601160045260245ffd5b5f610edf826106b4565b91507fffffffffffffffffffffffffffffffffffffffffffffffffffffffffffffffff8203610f1157610f10610ea8565b5b600182019050919050565b5f819050919050565b610f36610f31826106b4565b610f1c565b82525050565b5f81905092915050565b5f610f5082610989565b610f5a8185610f3c565b9350610f6a8185602086016109a3565b80840191505092915050565b5f610f818287610f25565b602082019150610f918286610f46565b9150610f9d8285610f46565b9150610fa98284610f46565b915081905095945050505050565b7f44617461205573657220646f6573206e6f742065786973742e000000000000005f82015250565b5f610feb601983610b41565b9150610ff682610fb7565b602082019050919050565b5f6020820190508181035f83015261101881610fdf565b905091905056fea2646970667358221220aa27e855963f0233c8ac5b39d9de17f4e5850e5b8b20283797f5a127ce0aa59564736f6c6343000818003360806040525f600355348015610013575f80fd5b50335f806101000a81548173ffffffffffffffffffffffffffffffffffffffff021916908373ffffffffffffffffffffffffffffffffffffffff1602179055506108c2806100605f395ff3fe608060405234801561000f575f80fd5b5060043610610055575f3560e01c80638da5cb5b14610059578063918950c714610077578063ca99401714610095578063e27a4b11146100b1578063e875b1ca146100cf575b5f80fd5b6100616100ff565b60405161006e9190610472565b60405180910390f35b61007f610122565b60405161008c91906104a3565b60405180910390f35b6100af60048036038101906100aa9190610549565b61012b565b005b6100b96102ae565b6040516100c69190610650565b60405180910390f35b6100e960048036038101906100e49190610670565b610304565b6040516100f691906106f9565b60405180910390f35b5f8054906101000a900473ffffffffffffffffffffffffffffffffffffffff1681565b5f600354905090565b5f8054906101000a900473ffffffffffffffffffffffffffffffffffffffff1673ffffffffffffffffffffffffffffffffffffffff163373ffffffffffffffffffffffffffffffffffffffff16146101b8576040517f08c379a00000000000000000000000000000000000000000000000000000000081526004016101af90610792565b60405180910390fd5b60405180606001604052808473ffffffffffffffffffffffffffffffffffffffff16815260200183815260200182151581525060015f8481526020019081526020015f205f820151815f015f6101000a81548173ffffffffffffffffffffffffffffffffffffffff021916908373ffffffffffffffffffffffffffffffffffffffff160217905550602082015181600101556040820151816002015f6101000a81548160ff021916908315150217905550905050600282908060018154018082558091505060019003905f5260205f20015f909190919091505560035f8154809291906102a4906107dd565b9190505550505050565b606060028054806020026020016040519081016040528092919081815260200182805480156102fa57602002820191905f5260205f20905b8154815260200190600101908083116102e6575b5050505050905090565b61030c6103fd565b5f60015f8481526020019081526020015f206001015403610362576040517f08c379a00000000000000000000000000000000000000000000000000000000081526004016103599061086e565b60405180910390fd5b60015f8381526020019081526020015f206040518060600160405290815f82015f9054906101000a900473ffffffffffffffffffffffffffffffffffffffff1673ffffffffffffffffffffffffffffffffffffffff1673ffffffffffffffffffffffffffffffffffffffff16815260200160018201548152602001600282015f9054906101000a900460ff1615151515815250509050919050565b60405180606001604052805f73ffffffffffffffffffffffffffffffffffffffff1681526020015f81526020015f151581525090565b5f73ffffffffffffffffffffffffffffffffffffffff82169050919050565b5f61045c82610433565b9050919050565b61046c81610452565b82525050565b5f6020820190506104855f830184610463565b92915050565b5f819050919050565b61049d8161048b565b82525050565b5f6020820190506104b65f830184610494565b92915050565b5f80fd5b6104c981610452565b81146104d3575f80fd5b50565b5f813590506104e4816104c0565b92915050565b6104f38161048b565b81146104fd575f80fd5b50565b5f8135905061050e816104ea565b92915050565b5f8115159050919050565b61052881610514565b8114610532575f80fd5b50565b5f813590506105438161051f565b92915050565b5f805f606084860312156105605761055f6104bc565b5b5f61056d868287016104d6565b935050602061057e86828701610500565b925050604061058f86828701610535565b9150509250925092565b5f81519050919050565b5f82825260208201905092915050565b5f819050602082019050919050565b6105cb8161048b565b82525050565b5f6105dc83836105c2565b60208301905092915050565b5f602082019050919050565b5f6105fe82610599565b61060881856105a3565b9350610613836105b3565b805f5b8381101561064357815161062a88826105d1565b9750610635836105e8565b925050600181019050610616565b5085935050505092915050565b5f6020820190508181035f83015261066881846105f4565b905092915050565b5f60208284031215610685576106846104bc565b5b5f61069284828501610500565b91505092915050565b6106a481610452565b82525050565b6106b381610514565b82525050565b606082015f8201516106cd5f85018261069b565b5060208201516106e060208501826105c2565b5060408201516106f360408501826106aa565b50505050565b5f60608201905061070c5f8301846106b9565b92915050565b5f82825260208201905092915050565b7f4f6e6c792074686520636f6e7472616374206f776e65722063616e20706572665f8201527f6f726d2074686973206f7065726174696f6e0000000000000000000000000000602082015250565b5f61077c603283610712565b915061078782610722565b604082019050919050565b5f6020820190508181035f8301526107a981610770565b9050919050565b7f4e487b71000000000000000000000000000000000000000000000000000000005f52601160045260245ffd5b5f6107e78261048b565b91507fffffffffffffffffffffffffffffffffffffffffffffffffffffffffffffffff8203610819576108186107b0565b5b600182019050919050565b7f436f6e73656e7420646f6573206e6f742065786973742e0000000000000000005f82015250565b5f610858601783610712565b915061086382610824565b602082019050919050565b5f6020820190508181035f8301526108858161084c565b905091905056fea2646970667358221220cfc88dbb8ad455248bce58bfdc1c7cf09cbf7f48cb91d26b5bf973dbce89bc2464736f6c6343000818003360806040525f600355348015610013575f80fd5b50335f806101000a81548173ffffffffffffffffffffffffffffffffffffffff021916908373ffffffffffffffffffffffffffffffffffffffff160217905550610d96806100605f395ff3fe608060405234801561000f575f80fd5b5060043610610055575f3560e01c806303e4d77f1461005957806328e8be60146100895780638ae0be40146100a75780638da5cb5b146100c5578063ac9a939b146100e3575b5f80fd5b610073600480360381019061006e9190610475565b6100ff565b6040516100809190610624565b60405180910390f35b610091610207565b60405161009e9190610653565b60405180910390f35b6100af610210565b6040516100bc9190610714565b60405180910390f35b6100cd610266565b6040516100da9190610773565b60405180910390f35b6100fd60048036038101906100f89190610905565b610289565b005b6101076103f7565b60015f8381526020019081526020015f206040518060800160405290815f8201548152602001600182015f9054906101000a900460ff1660028111156101505761014f6104af565b5b6002811115610162576101616104af565b5b8152602001600282018054610176906109b2565b80601f01602080910402602001604051908101604052809291908181526020018280546101a2906109b2565b80156101ed5780601f106101c4576101008083540402835291602001916101ed565b820191905f5260205f20905b8154815290600101906020018083116101d057829003601f168201915b505050505081526020016003820154815250509050919050565b5f600354905090565b6060600280548060200260200160405190810160405280929190818152602001828054801561025c57602002820191905f5260205f20905b815481526020019060010190808311610248575b5050505050905090565b5f8054906101000a900473ffffffffffffffffffffffffffffffffffffffff1681565b5f8054906101000a900473ffffffffffffffffffffffffffffffffffffffff1673ffffffffffffffffffffffffffffffffffffffff163373ffffffffffffffffffffffffffffffffffffffff1614610316576040517f08c379a000000000000000000000000000000000000000000000000000000000815260040161030d90610a62565b60405180910390fd5b604051806080016040528085815260200184600281111561033a576103396104af565b5b81526020018281526020018381525060015f8681526020019081526020015f205f820151815f01556020820151816001015f6101000a81548160ff0219169083600281111561038c5761038b6104af565b5b021790555060408201518160020190816103a69190610c1d565b5060608201518160030155905050600284908060018154018082558091505060019003905f5260205f20015f909190919091505560035f8154809291906103ec90610d19565b919050555050505050565b60405180608001604052805f81526020015f600281111561041b5761041a6104af565b5b8152602001606081526020015f80191681525090565b5f604051905090565b5f80fd5b5f80fd5b5f819050919050565b61045481610442565b811461045e575f80fd5b50565b5f8135905061046f8161044b565b92915050565b5f6020828403121561048a5761048961043a565b5b5f61049784828501610461565b91505092915050565b6104a981610442565b82525050565b7f4e487b71000000000000000000000000000000000000000000000000000000005f52602160045260245ffd5b600381106104ed576104ec6104af565b5b50565b5f8190506104fd826104dc565b919050565b5f61050c826104f0565b9050919050565b61051c81610502565b82525050565b5f81519050919050565b5f82825260208201905092915050565b5f5b8381101561055957808201518184015260208101905061053e565b5f8484015250505050565b5f601f19601f8301169050919050565b5f61057e82610522565b610588818561052c565b935061059881856020860161053c565b6105a181610564565b840191505092915050565b5f819050919050565b6105be816105ac565b82525050565b5f608083015f8301516105d95f8601826104a0565b5060208301516105ec6020860182610513565b50604083015184820360408601526106048282610574565b915050606083015161061960608601826105b5565b508091505092915050565b5f6020820190508181035f83015261063c81846105c4565b905092915050565b61064d81610442565b82525050565b5f6020820190506106665f830184610644565b92915050565b5f81519050919050565b5f82825260208201905092915050565b5f819050602082019050919050565b5f6106a083836104a0565b60208301905092915050565b5f602082019050919050565b5f6106c28261066c565b6106cc8185610676565b93506106d783610686565b805f5b838110156107075781516106ee8882610695565b97506106f9836106ac565b9250506001810190506106da565b5085935050505092915050565b5f6020820190508181035f83015261072c81846106b8565b905092915050565b5f73ffffffffffffffffffffffffffffffffffffffff82169050919050565b5f61075d82610734565b9050919050565b61076d81610753565b82525050565b5f6020820190506107865f830184610764565b92915050565b60038110610798575f80fd5b50565b5f813590506107a98161078c565b92915050565b6107b8816105ac565b81146107c2575f80fd5b50565b5f813590506107d3816107af565b92915050565b5f80fd5b5f80fd5b7f4e487b71000000000000000000000000000000000000000000000000000000005f52604160045260245ffd5b61081782610564565b810181811067ffffffffffffffff82111715610836576108356107e1565b5b80604052505050565b5f610848610431565b9050610854828261080e565b919050565b5f67ffffffffffffffff821115610873576108726107e1565b5b61087c82610564565b9050602081019050919050565b828183375f83830152505050565b5f6108a96108a484610859565b61083f565b9050828152602081018484840111156108c5576108c46107dd565b5b6108d0848285610889565b509392505050565b5f82601f8301126108ec576108eb6107d9565b5b81356108fc848260208601610897565b91505092915050565b5f805f806080858703121561091d5761091c61043a565b5b5f61092a87828801610461565b945050602061093b8782880161079b565b935050604061094c878288016107c5565b925050606085013567ffffffffffffffff81111561096d5761096c61043e565b5b610979878288016108d8565b91505092959194509250565b7f4e487b71000000000000000000000000000000000000000000000000000000005f52602260045260245ffd5b5f60028204905060018216806109c957607f821691505b6020821081036109dc576109db610985565b5b50919050565b5f82825260208201905092915050565b7f4f6e6c792074686520636f6e7472616374206f776e65722063616e20706572665f8201527f6f726d2074686973206f7065726174696f6e0000000000000000000000000000602082015250565b5f610a4c6032836109e2565b9150610a57826109f2565b604082019050919050565b5f6020820190508181035f830152610a7981610a40565b9050919050565b5f819050815f5260205f209050919050565b5f6020601f8301049050919050565b5f82821b905092915050565b5f60088302610adc7fffffffffffffffffffffffffffffffffffffffffffffffffffffffffffffffff82610aa1565b610ae68683610aa1565b95508019841693508086168417925050509392505050565b5f819050919050565b5f610b21610b1c610b1784610442565b610afe565b610442565b9050919050565b5f819050919050565b610b3a83610b07565b610b4e610b4682610b28565b848454610aad565b825550505050565b5f90565b610b62610b56565b610b6d818484610b31565b505050565b5b81811015610b9057610b855f82610b5a565b600181019050610b73565b5050565b601f821115610bd557610ba681610a80565b610baf84610a92565b81016020851015610bbe578190505b610bd2610bca85610a92565b830182610b72565b50505b505050565b5f82821c905092915050565b5f610bf55f1984600802610bda565b1980831691505092915050565b5f610c0d8383610be6565b9150826002028217905092915050565b610c2682610522565b67ffffffffffffffff811115610c3f57610c3e6107e1565b5b610c4982546109b2565b610c54828285610b94565b5f60209050601f831160018114610c85575f8415610c73578287015190505b610c7d8582610c02565b865550610ce4565b601f198416610c9386610a80565b5f5b82811015610cba57848901518255600182019150602085019450602081019050610c95565b86831015610cd75784890151610cd3601f891682610be6565b8355505b6001600288020188555050505b505050505050565b7f4e487b71000000000000000000000000000000000000000000000000000000005f52601160045260245ffd5b5f610d2382610442565b91507fffffffffffffffffffffffffffffffffffffffffffffffffffffffffffffffff8203610d5557610d54610cec565b5b60018201905091905056fea2646970667358221220c7068143be6055551585906b779dbd0ffc5326d366fa47ff8582b874903206b364736f6c63430008180033608060405234801562000010575f80fd5b50604051620016b3380380620016b38339818101604052810190620000369190620002f6565b335f806101000a81548173ffffffffffffffffffffffffffffffffffffffff021916908373ffffffffffffffffffffffffffffffffffffffff1602179055505f73ffffffffffffffffffffffffffffffffffffffff168373ffffffffffffffffffffffffffffffffffffffff1603620000e6576040517f08c379a0000000000000000000000000000000000000000000000000000000008152600401620000dd90620003d3565b60405180910390fd5b5f73ffffffffffffffffffffffffffffffffffffffff168273ffffffffffffffffffffffffffffffffffffffff160362000157576040517f08c379a00000000000000000000000000000000000000000000000000000000081526004016200014e9062000467565b60405180910390fd5b5f73ffffffffffffffffffffffffffffffffffffffff168173ffffffffffffffffffffffffffffffffffffffff1603620001c8576040517f08c379a0000000000000000000000000000000000000000000000000000000008152600401620001bf90620004fb565b60405180910390fd5b8260015f6101000a81548173ffffffffffffffffffffffffffffffffffffffff021916908373ffffffffffffffffffffffffffffffffffffffff1602179055508160025f6101000a81548173ffffffffffffffffffffffffffffffffffffffff021916908373ffffffffffffffffffffffffffffffffffffffff1602179055508060035f6101000a81548173ffffffffffffffffffffffffffffffffffffffff021916908373ffffffffffffffffffffffffffffffffffffffff1602179055505050506200051b565b5f80fd5b5f73ffffffffffffffffffffffffffffffffffffffff82169050919050565b5f620002c08262000295565b9050919050565b620002d281620002b4565b8114620002dd575f80fd5b50565b5f81519050620002f081620002c7565b92915050565b5f805f6060848603121562000310576200030f62000291565b5b5f6200031f86828701620002e0565b93505060206200033286828701620002e0565b92505060406200034586828701620002e0565b9150509250925092565b5f82825260208201905092915050565b7f496e76616c696420446174615573616765536d617274436f6e747261637420615f8201527f6464726573732e00000000000000000000000000000000000000000000000000602082015250565b5f620003bb6027836200034f565b9150620003c8826200035f565b604082019050919050565b5f6020820190508181035f830152620003ec81620003ad565b9050919050565b7f496e76616c69642041677265656d656e74536d617274436f6e747261637420615f8201527f6464726573732e00000000000000000000000000000000000000000000000000602082015250565b5f6200044f6027836200034f565b91506200045c82620003f3565b604082019050919050565b5f6020820190508181035f830152620004808162000441565b9050919050565b7f496e76616c6964204c6f67536d617274436f6e747261637420616464726573735f8201527f2e00000000000000000000000000000000000000000000000000000000000000602082015250565b5f620004e36021836200034f565b9150620004f08262000487565b604082019050919050565b5f6020820190508181035f8301526200051481620004d5565b9050919050565b61118a80620005295f395ff3fe608060405234801561000f575f80fd5b506004361061003f575f3560e01c80630ac2db42146100435780637fe188141461004d5780638da5cb5b1461006b575b5f80fd5b61004b610089565b005b61005561062a565b60405161006291906107aa565b60405180910390f35b6100736106c7565b6040516100809190610809565b60405180910390f35b5f8054906101000a900473ffffffffffffffffffffffffffffffffffffffff1673ffffffffffffffffffffffffffffffffffffffff163373ffffffffffffffffffffffffffffffffffffffff1614610116576040517f08c379a000000000000000000000000000000000000000000000000000000000815260040161010d906108a2565b60405180910390fd5b5f60035f9054906101000a900473ffffffffffffffffffffffffffffffffffffffff1673ffffffffffffffffffffffffffffffffffffffff16638ae0be406040518163ffffffff1660e01b81526004015f60405180830381865afa158015610180573d5f803e3d5ffd5b505050506040513d5f823e3d601f19601f820116820180604052508101906101a89190610a4b565b90505f60025f9054906101000a900473ffffffffffffffffffffffffffffffffffffffff1673ffffffffffffffffffffffffffffffffffffffff1663e27a4b116040518163ffffffff1660e01b81526004015f60405180830381865afa158015610214573d5f803e3d5ffd5b505050506040513d5f823e3d601f19601f8201168201806040525081019061023c9190610a4b565b90505f5b8251811015610625575f83828151811061025d5761025c610a92565b5b602002602001015190505f60035f9054906101000a900473ffffffffffffffffffffffffffffffffffffffff1673ffffffffffffffffffffffffffffffffffffffff166303e4d77f836040518263ffffffff1660e01b81526004016102c29190610ace565b5f60405180830381865afa1580156102dc573d5f803e3d5ffd5b505050506040513d5f823e3d601f19601f820116820180604052508101906103049190610ca0565b90505f5b8451811015610615575f85828151811061032557610324610a92565b5b60200260200101519050808403610606575f60025f9054906101000a900473ffffffffffffffffffffffffffffffffffffffff1673ffffffffffffffffffffffffffffffffffffffff1663e875b1ca836040518263ffffffff1660e01b81526004016103919190610ace565b606060405180830381865afa1580156103ac573d5f803e3d5ffd5b505050506040513d601f19601f820116820180604052508101906103d09190610da7565b90505f60015f9054906101000a900473ffffffffffffffffffffffffffffffffffffffff1673ffffffffffffffffffffffffffffffffffffffff1663d2b0649a876040518263ffffffff1660e01b815260040161042d9190610ace565b5f60405180830381865afa158015610447573d5f803e3d5ffd5b505050506040513d5f823e3d601f19601f8201168201806040525081019061046f9190610eca565b90508160400151158061048957508160200151855f015114155b156104bf576004855f0151908060018154018082558091505060019003905f5260205f20015f9091909190915055505050610608565b5f816060015160028111156104d7576104d6610f11565b5b866020015160028111156104ee576104ed610f11565b5b1461053257600190507f0b854bfe52494e2d4fc9dc6c3ef7bb92fc0eed853bbca3d0e847806b02b2ba25865f01516040516105299190610f88565b60405180910390a15b80610590575f866060015190505f8360a00151905080821461058d57600192507f0b854bfe52494e2d4fc9dc6c3ef7bb92fc0eed853bbca3d0e847806b02b2ba25885f01516040516105849190611024565b60405180910390a15b50505b80156105c8576004865f0151908060018154018082558091505060019003905f5260205f20015f909190919091505550505050610615565b7f0b854bfe52494e2d4fc9dc6c3ef7bb92fc0eed853bbca3d0e847806b02b2ba25865f01516040516105fa91906110c0565b60405180910390a15050505b505b8080600101915050610308565b5050508080600101915050610240565b505050565b60605f60048054905003610673576040517f08c379a000000000000000000000000000000000000000000000000000000000815260040161066a90611136565b60405180910390fd5b60048054806020026020016040519081016040528092919081815260200182805480156106bd57602002820191905f5260205f20905b8154815260200190600101908083116106a9575b5050505050905090565b5f8054906101000a900473ffffffffffffffffffffffffffffffffffffffff1681565b5f81519050919050565b5f82825260208201905092915050565b5f819050602082019050919050565b5f819050919050565b61072581610713565b82525050565b5f610736838361071c565b60208301905092915050565b5f602082019050919050565b5f610758826106ea565b61076281856106f4565b935061076d83610704565b805f5b8381101561079d578151610784888261072b565b975061078f83610742565b925050600181019050610770565b5085935050505092915050565b5f6020820190508181035f8301526107c2818461074e565b905092915050565b5f73ffffffffffffffffffffffffffffffffffffffff82169050919050565b5f6107f3826107ca565b9050919050565b610803816107e9565b82525050565b5f60208201905061081c5f8301846107fa565b92915050565b5f82825260208201905092915050565b7f4f6e6c792074686520636f6e7472616374206f776e65722063616e20706572665f8201527f6f726d2074686973206f7065726174696f6e0000000000000000000000000000602082015250565b5f61088c603283610822565b915061089782610832565b604082019050919050565b5f6020820190508181035f8301526108b981610880565b9050919050565b5f604051905090565b5f80fd5b5f80fd5b5f80fd5b5f601f19601f8301169050919050565b7f4e487b71000000000000000000000000000000000000000000000000000000005f52604160045260245ffd5b61091b826108d5565b810181811067ffffffffffffffff8211171561093a576109396108e5565b5b80604052505050565b5f61094c6108c0565b90506109588282610912565b919050565b5f67ffffffffffffffff821115610977576109766108e5565b5b602082029050602081019050919050565b5f80fd5b61099581610713565b811461099f575f80fd5b50565b5f815190506109b08161098c565b92915050565b5f6109c86109c38461095d565b610943565b905080838252602082019050602084028301858111156109eb576109ea610988565b5b835b81811015610a145780610a0088826109a2565b8452602084019350506020810190506109ed565b5050509392505050565b5f82601f830112610a3257610a316108d1565b5b8151610a428482602086016109b6565b91505092915050565b5f60208284031215610a6057610a5f6108c9565b5b5f82015167ffffffffffffffff811115610a7d57610a7c6108cd565b5b610a8984828501610a1e565b91505092915050565b7f4e487b71000000000000000000000000000000000000000000000000000000005f52603260045260245ffd5b610ac881610713565b82525050565b5f602082019050610ae15f830184610abf565b92915050565b5f80fd5b5f80fd5b60038110610afb575f80fd5b50565b5f81519050610b0c81610aef565b92915050565b5f80fd5b5f67ffffffffffffffff821115610b3057610b2f6108e5565b5b610b39826108d5565b9050602081019050919050565b5f5b83811015610b63578082015181840152602081019050610b48565b5f8484015250505050565b5f610b80610b7b84610b16565b610943565b905082815260208101848484011115610b9c57610b9b610b12565b5b610ba7848285610b46565b509392505050565b5f82601f830112610bc357610bc26108d1565b5b8151610bd3848260208601610b6e565b91505092915050565b5f819050919050565b610bee81610bdc565b8114610bf8575f80fd5b50565b5f81519050610c0981610be5565b92915050565b5f60808284031215610c2457610c23610ae7565b5b610c2e6080610943565b90505f610c3d848285016109a2565b5f830152506020610c5084828501610afe565b602083015250604082015167ffffffffffffffff811115610c7457610c73610aeb565b5b610c8084828501610baf565b6040830152506060610c9484828501610bfb565b60608301525092915050565b5f60208284031215610cb557610cb46108c9565b5b5f82015167ffffffffffffffff811115610cd257610cd16108cd565b5b610cde84828501610c0f565b91505092915050565b610cf0816107e9565b8114610cfa575f80fd5b50565b5f81519050610d0b81610ce7565b92915050565b5f8115159050919050565b610d2581610d11565b8114610d2f575f80fd5b50565b5f81519050610d4081610d1c565b92915050565b5f60608284031215610d5b57610d5a610ae7565b5b610d656060610943565b90505f610d7484828501610cfd565b5f830152506020610d87848285016109a2565b6020830152506040610d9b84828501610d32565b60408301525092915050565b5f60608284031215610dbc57610dbb6108c9565b5b5f610dc984828501610d46565b91505092915050565b60038110610dde575f80fd5b50565b5f81519050610def81610dd2565b92915050565b5f60c08284031215610e0a57610e09610ae7565b5b610e1460c0610943565b90505f82015167ffffffffffffffff811115610e3357610e32610aeb565b5b610e3f84828501610baf565b5f83015250602082015167ffffffffffffffff811115610e6257610e61610aeb565b5b610e6e84828501610baf565b6020830152506040610e82848285016109a2565b6040830152506060610e9684828501610de1565b6060830152506080610eaa848285016109a2565b60808301525060a0610ebe84828501610bfb565b60a08301525092915050565b5f60208284031215610edf57610ede6108c9565b5b5f82015167ffffffffffffffff811115610efc57610efb6108cd565b5b610f0884828501610df5565b91505092915050565b7f4e487b71000000000000000000000000000000000000000000000000000000005f52602160045260245ffd5b7f4f7065726174696f6e20706572666f726d656420697320646966666572656e745f82015250565b5f610f72602083610822565b9150610f7d82610f3e565b602082019050919050565b5f604082019050610f9b5f830184610abf565b8181036020830152610fac81610f66565b905092915050565b7f70726f63657373656420706572736f6e616c206461746120646f65736e74206d5f8201527f6174636800000000000000000000000000000000000000000000000000000000602082015250565b5f61100e602483610822565b915061101982610fb4565b604082019050919050565b5f6040820190506110375f830184610abf565b818103602083015261104881611002565b905092915050565b7f4163746f7227732061646472657373206d6174636865642073756363657366755f8201527f6c6c790000000000000000000000000000000000000000000000000000000000602082015250565b5f6110aa602383610822565b91506110b582611050565b604082019050919050565b5f6040820190506110d35f830184610abf565b81810360208301526110e48161109e565b905092915050565b7f76696f6c61746f7220697320656d7074790000000000000000000000000000005f82015250565b5f611120601183610822565b915061112b826110ec565b602082019050919050565b5f6020820190508181035f83015261114d81611114565b905091905056fea264697066735822122046c9c86a09f70a06f1d041dfec307def60e383f3c0ad639cd4bb5b4b42da8b7c64736f6c63430008180033a2646970667358221220677364f3785649c0363133f19e3a5454e4b729009a3ab6111cbc0e927c3a954e64736f6c63430008180033",
			"opcodes": "PUSH1 0x80 PUSH1 0x40 MSTORE CALLVALUE DUP1 ISZERO PUSH2 0xF JUMPI PUSH0 DUP1 REVERT JUMPDEST POP PUSH2 0x586E DUP1 PUSH2 0x1D PUSH0 CODECOPY PUSH0 RETURN INVALID PUSH1 0x80 PUSH1 0x40 MSTORE CALLVALUE DUP1 ISZERO PUSH3 0x10 JUMPI PUSH0 DUP1 REVERT JUMPDEST POP PUSH1 0x4 CALLDATASIZE LT PUSH3 0x5C JUMPI PUSH0 CALLDATALOAD PUSH1 0xE0 SHR DUP1 PUSH4 0x6331E7D4 EQ PUSH3 0x60 JUMPI DUP1 PUSH4 0x89845D55 EQ PUSH3 0x6C JUMPI DUP1 PUSH4 0x9C7FFFB2 EQ PUSH3 0x78 JUMPI DUP1 PUSH4 0xBAF7C7A5 EQ PUSH3 0x84 JUMPI DUP1 PUSH4 0xE7BCB071 EQ PUSH3 0x90 JUMPI JUMPDEST PUSH0 DUP1 REVERT JUMPDEST PUSH3 0x6A PUSH3 0x9C JUMP JUMPDEST STOP JUMPDEST PUSH3 0x76 PUSH3 0x2B1 JUMP JUMPDEST STOP JUMPDEST PUSH3 0x82 PUSH3 0x615 JUMP JUMPDEST STOP JUMPDEST PUSH3 0x8E PUSH3 0x8EB JUMP JUMPDEST STOP JUMPDEST PUSH3 0x9A PUSH3 0xC4F JUMP JUMPDEST STOP JUMPDEST PUSH1 0x40 MLOAD PUSH3 0xAA SWAP1 PUSH3 0x1050 JUMP JUMPDEST PUSH1 0x40 MLOAD DUP1 SWAP2 SUB SWAP1 PUSH0 CREATE DUP1 ISZERO DUP1 ISZERO PUSH3 0xC4 JUMPI RETURNDATASIZE PUSH0 DUP1 RETURNDATACOPY RETURNDATASIZE PUSH0 REVERT JUMPDEST POP PUSH1 0x1 PUSH0 PUSH2 0x100 EXP DUP2 SLOAD DUP2 PUSH20 0xFFFFFFFFFFFFFFFFFFFFFFFFFFFFFFFFFFFFFFFF MUL NOT AND SWAP1 DUP4 PUSH20 0xFFFFFFFFFFFFFFFFFFFFFFFFFFFFFFFFFFFFFFFF AND MUL OR SWAP1 SSTORE POP PUSH1 0x40 MLOAD PUSH3 0x112 SWAP1 PUSH3 0x105E JUMP JUMPDEST PUSH1 0x40 MLOAD DUP1 SWAP2 SUB SWAP1 PUSH0 CREATE DUP1 ISZERO DUP1 ISZERO PUSH3 0x12C JUMPI RETURNDATASIZE PUSH0 DUP1 RETURNDATACOPY RETURNDATASIZE PUSH0 REVERT JUMPDEST POP PUSH1 0x2 PUSH0 PUSH2 0x100 EXP DUP2 SLOAD DUP2 PUSH20 0xFFFFFFFFFFFFFFFFFFFFFFFFFFFFFFFFFFFFFFFF MUL NOT AND SWAP1 DUP4 PUSH20 0xFFFFFFFFFFFFFFFFFFFFFFFFFFFFFFFFFFFFFFFF AND MUL OR SWAP1 SSTORE POP PUSH1 0x40 MLOAD PUSH3 0x17A SWAP1 PUSH3 0x106C JUMP JUMPDEST PUSH1 0x40 MLOAD DUP1 SWAP2 SUB SWAP1 PUSH0 CREATE DUP1 ISZERO DUP1 ISZERO PUSH3 0x194 JUMPI RETURNDATASIZE PUSH0 DUP1 RETURNDATACOPY RETURNDATASIZE PUSH0 REVERT JUMPDEST POP PUSH1 0x3 PUSH0 PUSH2 0x100 EXP DUP2 SLOAD DUP2 PUSH20 0xFFFFFFFFFFFFFFFFFFFFFFFFFFFFFFFFFFFFFFFF MUL NOT AND SWAP1 DUP4 PUSH20 0xFFFFFFFFFFFFFFFFFFFFFFFFFFFFFFFFFFFFFFFF AND MUL OR SWAP1 SSTORE POP PUSH1 0x1 PUSH0 SWAP1 SLOAD SWAP1 PUSH2 0x100 EXP SWAP1 DIV PUSH20 0xFFFFFFFFFFFFFFFFFFFFFFFFFFFFFFFFFFFFFFFF AND PUSH1 0x2 PUSH0 SWAP1 SLOAD SWAP1 PUSH2 0x100 EXP SWAP1 DIV PUSH20 0xFFFFFFFFFFFFFFFFFFFFFFFFFFFFFFFFFFFFFFFF AND PUSH1 0x3 PUSH0 SWAP1 SLOAD SWAP1 PUSH2 0x100 EXP SWAP1 DIV PUSH20 0xFFFFFFFFFFFFFFFFFFFFFFFFFFFFFFFFFFFFFFFF AND PUSH1 0x40 MLOAD PUSH3 0x248 SWAP1 PUSH3 0x107A JUMP JUMPDEST PUSH3 0x256 SWAP4 SWAP3 SWAP2 SWAP1 PUSH3 0x10CB JUMP JUMPDEST PUSH1 0x40 MLOAD DUP1 SWAP2 SUB SWAP1 PUSH0 CREATE DUP1 ISZERO DUP1 ISZERO PUSH3 0x270 JUMPI RETURNDATASIZE PUSH0 DUP1 RETURNDATACOPY RETURNDATASIZE PUSH0 REVERT JUMPDEST POP PUSH0 DUP1 PUSH2 0x100 EXP DUP2 SLOAD DUP2 PUSH20 0xFFFFFFFFFFFFFFFFFFFFFFFFFFFFFFFFFFFFFFFF MUL NOT AND SWAP1 DUP4 PUSH20 0xFFFFFFFFFFFFFFFFFFFFFFFFFFFFFFFFFFFFFFFF AND MUL OR SWAP1 SSTORE POP JUMP JUMPDEST PUSH1 0x1 PUSH0 SWAP1 SLOAD SWAP1 PUSH2 0x100 EXP SWAP1 DIV PUSH20 0xFFFFFFFFFFFFFFFFFFFFFFFFFFFFFFFFFFFFFFFF AND PUSH20 0xFFFFFFFFFFFFFFFFFFFFFFFFFFFFFFFFFFFFFFFF AND PUSH4 0x2F57B91C PUSH1 0x1 PUSH0 PUSH1 0x1 PUSH1 0x40 MLOAD DUP5 PUSH4 0xFFFFFFFF AND PUSH1 0xE0 SHL DUP2 MSTORE PUSH1 0x4 ADD PUSH3 0x313 SWAP4 SWAP3 SWAP2 SWAP1 PUSH3 0x12A7 JUMP JUMPDEST PUSH0 PUSH1 0x40 MLOAD DUP1 DUP4 SUB DUP2 PUSH0 DUP8 DUP1 EXTCODESIZE ISZERO DUP1 ISZERO PUSH3 0x32B JUMPI PUSH0 DUP1 REVERT JUMPDEST POP GAS CALL ISZERO DUP1 ISZERO PUSH3 0x33E JUMPI RETURNDATASIZE PUSH0 DUP1 RETURNDATACOPY RETURNDATASIZE PUSH0 REVERT JUMPDEST POP POP POP POP PUSH1 0x2 PUSH0 SWAP1 SLOAD SWAP1 PUSH2 0x100 EXP SWAP1 DIV PUSH20 0xFFFFFFFFFFFFFFFFFFFFFFFFFFFFFFFFFFFFFFFF AND PUSH20 0xFFFFFFFFFFFFFFFFFFFFFFFFFFFFFFFFFFFFFFFF AND PUSH4 0xCA994017 PUSH1 0x1 PUSH0 SWAP1 SLOAD SWAP1 PUSH2 0x100 EXP SWAP1 DIV PUSH20 0xFFFFFFFFFFFFFFFFFFFFFFFFFFFFFFFFFFFFFFFF AND PUSH1 0x1 DUP1 PUSH1 0x40 MLOAD DUP5 PUSH4 0xFFFFFFFF AND PUSH1 0xE0 SHL DUP2 MSTORE PUSH1 0x4 ADD PUSH3 0x3C4 SWAP4 SWAP3 SWAP2 SWAP1 PUSH3 0x1336 JUMP JUMPDEST PUSH0 PUSH1 0x40 MLOAD DUP1 DUP4 SUB DUP2 PUSH0 DUP8 DUP1 EXTCODESIZE ISZERO DUP1 ISZERO PUSH3 0x3DC JUMPI PUSH0 DUP1 REVERT JUMPDEST POP GAS CALL ISZERO DUP1 ISZERO PUSH3 0x3EF JUMPI RETURNDATASIZE PUSH0 DUP1 RETURNDATACOPY RETURNDATASIZE PUSH0 REVERT JUMPDEST POP POP POP POP PUSH1 0x3 PUSH0 SWAP1 SLOAD SWAP1 PUSH2 0x100 EXP SWAP1 DIV PUSH20 0xFFFFFFFFFFFFFFFFFFFFFFFFFFFFFFFFFFFFFFFF AND PUSH20 0xFFFFFFFFFFFFFFFFFFFFFFFFFFFFFFFFFFFFFFFF AND PUSH4 0xAC9A939B PUSH1 0x1 DUP1 PUSH1 0x40 MLOAD DUP4 PUSH4 0xFFFFFFFF AND PUSH1 0xE0 SHL DUP2 MSTORE PUSH1 0x4 ADD PUSH3 0x452 SWAP3 SWAP2 SWAP1 PUSH3 0x13C0 JUMP JUMPDEST PUSH0 PUSH1 0x40 MLOAD DUP1 DUP4 SUB DUP2 PUSH0 DUP8 DUP1 EXTCODESIZE ISZERO DUP1 ISZERO PUSH3 0x46A JUMPI PUSH0 DUP1 REVERT JUMPDEST POP GAS CALL ISZERO DUP1 ISZERO PUSH3 0x47D JUMPI RETURNDATASIZE PUSH0 DUP1 RETURNDATACOPY RETURNDATASIZE PUSH0 REVERT JUMPDEST POP POP POP POP PUSH0 DUP1 SLOAD SWAP1 PUSH2 0x100 EXP SWAP1 DIV PUSH20 0xFFFFFFFFFFFFFFFFFFFFFFFFFFFFFFFFFFFFFFFF AND PUSH20 0xFFFFFFFFFFFFFFFFFFFFFFFFFFFFFFFFFFFFFFFF AND PUSH4 0xAC2DB42 PUSH1 0x40 MLOAD DUP2 PUSH4 0xFFFFFFFF AND PUSH1 0xE0 SHL DUP2 MSTORE PUSH1 0x4 ADD PUSH0 PUSH1 0x40 MLOAD DUP1 DUP4 SUB DUP2 PUSH0 DUP8 DUP1 EXTCODESIZE ISZERO DUP1 ISZERO PUSH3 0x4E6 JUMPI PUSH0 DUP1 REVERT JUMPDEST POP GAS CALL ISZERO DUP1 ISZERO PUSH3 0x4F9 JUMPI RETURNDATASIZE PUSH0 DUP1 RETURNDATACOPY RETURNDATASIZE PUSH0 REVERT JUMPDEST POP POP POP POP PUSH0 DUP1 PUSH0 SWAP1 SLOAD SWAP1 PUSH2 0x100 EXP SWAP1 DIV PUSH20 0xFFFFFFFFFFFFFFFFFFFFFFFFFFFFFFFFFFFFFFFF AND PUSH20 0xFFFFFFFFFFFFFFFFFFFFFFFFFFFFFFFFFFFFFFFF AND PUSH4 0x7FE18814 PUSH1 0x40 MLOAD DUP2 PUSH4 0xFFFFFFFF AND PUSH1 0xE0 SHL DUP2 MSTORE PUSH1 0x4 ADD PUSH0 PUSH1 0x40 MLOAD DUP1 DUP4 SUB DUP2 DUP7 GAS STATICCALL ISZERO DUP1 ISZERO PUSH3 0x567 JUMPI RETURNDATASIZE PUSH0 DUP1 RETURNDATACOPY RETURNDATASIZE PUSH0 REVERT JUMPDEST POP POP POP POP PUSH1 0x40 MLOAD RETURNDATASIZE PUSH0 DUP3 RETURNDATACOPY RETURNDATASIZE PUSH1 0x1F NOT PUSH1 0x1F DUP3 ADD AND DUP3 ADD DUP1 PUSH1 0x40 MSTORE POP DUP2 ADD SWAP1 PUSH3 0x591 SWAP2 SWAP1 PUSH3 0x15BA JUMP JUMPDEST SWAP1 POP PUSH20 0x0 PUSH4 0x561015E2 DUP3 MLOAD PUSH0 PUSH1 0x40 MLOAD DUP4 PUSH4 0xFFFFFFFF AND PUSH1 0xE0 SHL DUP2 MSTORE PUSH1 0x4 ADD PUSH3 0x5CF SWAP3 SWAP2 SWAP1 PUSH3 0x16B9 JUMP JUMPDEST PUSH1 0x20 PUSH1 0x40 MLOAD DUP1 DUP4 SUB DUP2 DUP7 GAS DELEGATECALL ISZERO DUP1 ISZERO PUSH3 0x5EB JUMPI RETURNDATASIZE PUSH0 DUP1 RETURNDATACOPY RETURNDATASIZE PUSH0 REVERT JUMPDEST POP POP POP POP PUSH1 0x40 MLOAD RETURNDATASIZE PUSH1 0x1F NOT PUSH1 0x1F DUP3 ADD AND DUP3 ADD DUP1 PUSH1 0x40 MSTORE POP DUP2 ADD SWAP1 PUSH3 0x611 SWAP2 SWAP1 PUSH3 0x1728 JUMP JUMPDEST POP POP JUMP JUMPDEST PUSH1 0x1 PUSH0 SWAP1 SLOAD SWAP1 PUSH2 0x100 EXP SWAP1 DIV PUSH20 0xFFFFFFFFFFFFFFFFFFFFFFFFFFFFFFFFFFFFFFFF AND PUSH20 0xFFFFFFFFFFFFFFFFFFFFFFFFFFFFFFFFFFFFFFFF AND PUSH4 0x2F57B91C PUSH1 0x1 PUSH0 PUSH1 0x1 PUSH1 0x40 MLOAD DUP5 PUSH4 0xFFFFFFFF AND PUSH1 0xE0 SHL DUP2 MSTORE PUSH1 0x4 ADD PUSH3 0x677 SWAP4 SWAP3 SWAP2 SWAP1 PUSH3 0x12A7 JUMP JUMPDEST PUSH0 PUSH1 0x40 MLOAD DUP1 DUP4 SUB DUP2 PUSH0 DUP8 DUP1 EXTCODESIZE ISZERO DUP1 ISZERO PUSH3 0x68F JUMPI PUSH0 DUP1 REVERT JUMPDEST POP GAS CALL ISZERO DUP1 ISZERO PUSH3 0x6A2 JUMPI RETURNDATASIZE PUSH0 DUP1 RETURNDATACOPY RETURNDATASIZE PUSH0 REVERT JUMPDEST POP POP POP POP PUSH1 0x2 PUSH0 SWAP1 SLOAD SWAP1 PUSH2 0x100 EXP SWAP1 DIV PUSH20 0xFFFFFFFFFFFFFFFFFFFFFFFFFFFFFFFFFFFFFFFF AND PUSH20 0xFFFFFFFFFFFFFFFFFFFFFFFFFFFFFFFFFFFFFFFF AND PUSH4 0xCA994017 PUSH1 0x1 PUSH0 SWAP1 SLOAD SWAP1 PUSH2 0x100 EXP SWAP1 DIV PUSH20 0xFFFFFFFFFFFFFFFFFFFFFFFFFFFFFFFFFFFFFFFF AND PUSH1 0x1 DUP1 PUSH1 0x40 MLOAD DUP5 PUSH4 0xFFFFFFFF AND PUSH1 0xE0 SHL DUP2 MSTORE PUSH1 0x4 ADD PUSH3 0x728 SWAP4 SWAP3 SWAP2 SWAP1 PUSH3 0x1336 JUMP JUMPDEST PUSH0 PUSH1 0x40 MLOAD DUP1 DUP4 SUB DUP2 PUSH0 DUP8 DUP1 EXTCODESIZE ISZERO DUP1 ISZERO PUSH3 0x740 JUMPI PUSH0 DUP1 REVERT JUMPDEST POP GAS CALL ISZERO DUP1 ISZERO PUSH3 0x753 JUMPI RETURNDATASIZE PUSH0 DUP1 RETURNDATACOPY RETURNDATASIZE PUSH0 REVERT JUMPDEST POP POP POP POP PUSH0 DUP1 SLOAD SWAP1 PUSH2 0x100 EXP SWAP1 DIV PUSH20 0xFFFFFFFFFFFFFFFFFFFFFFFFFFFFFFFFFFFFFFFF AND PUSH20 0xFFFFFFFFFFFFFFFFFFFFFFFFFFFFFFFFFFFFFFFF AND PUSH4 0xAC2DB42 PUSH1 0x40 MLOAD DUP2 PUSH4 0xFFFFFFFF AND PUSH1 0xE0 SHL DUP2 MSTORE PUSH1 0x4 ADD PUSH0 PUSH1 0x40 MLOAD DUP1 DUP4 SUB DUP2 PUSH0 DUP8 DUP1 EXTCODESIZE ISZERO DUP1 ISZERO PUSH3 0x7BC JUMPI PUSH0 DUP1 REVERT JUMPDEST POP GAS CALL ISZERO DUP1 ISZERO PUSH3 0x7CF JUMPI RETURNDATASIZE PUSH0 DUP1 RETURNDATACOPY RETURNDATASIZE PUSH0 REVERT JUMPDEST POP POP POP POP PUSH0 DUP1 PUSH0 SWAP1 SLOAD SWAP1 PUSH2 0x100 EXP SWAP1 DIV PUSH20 0xFFFFFFFFFFFFFFFFFFFFFFFFFFFFFFFFFFFFFFFF AND PUSH20 0xFFFFFFFFFFFFFFFFFFFFFFFFFFFFFFFFFFFFFFFF AND PUSH4 0x7FE18814 PUSH1 0x40 MLOAD DUP2 PUSH4 0xFFFFFFFF AND PUSH1 0xE0 SHL DUP2 MSTORE PUSH1 0x4 ADD PUSH0 PUSH1 0x40 MLOAD DUP1 DUP4 SUB DUP2 DUP7 GAS STATICCALL ISZERO DUP1 ISZERO PUSH3 0x83D JUMPI RETURNDATASIZE PUSH0 DUP1 RETURNDATACOPY RETURNDATASIZE PUSH0 REVERT JUMPDEST POP POP POP POP PUSH1 0x40 MLOAD RETURNDATASIZE PUSH0 DUP3 RETURNDATACOPY RETURNDATASIZE PUSH1 0x1F NOT PUSH1 0x1F DUP3 ADD AND DUP3 ADD DUP1 PUSH1 0x40 MSTORE POP DUP2 ADD SWAP1 PUSH3 0x867 SWAP2 SWAP1 PUSH3 0x15BA JUMP JUMPDEST SWAP1 POP PUSH20 0x0 PUSH4 0xABCD7960 DUP3 MLOAD PUSH0 PUSH1 0x40 MLOAD DUP4 PUSH4 0xFFFFFFFF AND PUSH1 0xE0 SHL DUP2 MSTORE PUSH1 0x4 ADD PUSH3 0x8A5 SWAP3 SWAP2 SWAP1 PUSH3 0x17A6 JUMP JUMPDEST PUSH1 0x20 PUSH1 0x40 MLOAD DUP1 DUP4 SUB DUP2 DUP7 GAS DELEGATECALL ISZERO DUP1 ISZERO PUSH3 0x8C1 JUMPI RETURNDATASIZE PUSH0 DUP1 RETURNDATACOPY RETURNDATASIZE PUSH0 REVERT JUMPDEST POP POP POP POP PUSH1 0x40 MLOAD RETURNDATASIZE PUSH1 0x1F NOT PUSH1 0x1F DUP3 ADD AND DUP3 ADD DUP1 PUSH1 0x40 MSTORE POP DUP2 ADD SWAP1 PUSH3 0x8E7 SWAP2 SWAP1 PUSH3 0x1728 JUMP JUMPDEST POP POP JUMP JUMPDEST PUSH1 0x1 PUSH0 SWAP1 SLOAD SWAP1 PUSH2 0x100 EXP SWAP1 DIV PUSH20 0xFFFFFFFFFFFFFFFFFFFFFFFFFFFFFFFFFFFFFFFF AND PUSH20 0xFFFFFFFFFFFFFFFFFFFFFFFFFFFFFFFFFFFFFFFF AND PUSH4 0x2F57B91C PUSH1 0x1 PUSH0 PUSH1 0x1 PUSH1 0x40 MLOAD DUP5 PUSH4 0xFFFFFFFF AND PUSH1 0xE0 SHL DUP2 MSTORE PUSH1 0x4 ADD PUSH3 0x94D SWAP4 SWAP3 SWAP2 SWAP1 PUSH3 0x12A7 JUMP JUMPDEST PUSH0 PUSH1 0x40 MLOAD DUP1 DUP4 SUB DUP2 PUSH0 DUP8 DUP1 EXTCODESIZE ISZERO DUP1 ISZERO PUSH3 0x965 JUMPI PUSH0 DUP1 REVERT JUMPDEST POP GAS CALL ISZERO DUP1 ISZERO PUSH3 0x978 JUMPI RETURNDATASIZE PUSH0 DUP1 RETURNDATACOPY RETURNDATASIZE PUSH0 REVERT JUMPDEST POP POP POP POP PUSH1 0x2 PUSH0 SWAP1 SLOAD SWAP1 PUSH2 0x100 EXP SWAP1 DIV PUSH20 0xFFFFFFFFFFFFFFFFFFFFFFFFFFFFFFFFFFFFFFFF AND PUSH20 0xFFFFFFFFFFFFFFFFFFFFFFFFFFFFFFFFFFFFFFFF AND PUSH4 0xCA994017 PUSH1 0x1 PUSH0 SWAP1 SLOAD SWAP1 PUSH2 0x100 EXP SWAP1 DIV PUSH20 0xFFFFFFFFFFFFFFFFFFFFFFFFFFFFFFFFFFFFFFFF AND PUSH1 0x1 DUP1 PUSH1 0x40 MLOAD DUP5 PUSH4 0xFFFFFFFF AND PUSH1 0xE0 SHL DUP2 MSTORE PUSH1 0x4 ADD PUSH3 0x9FE SWAP4 SWAP3 SWAP2 SWAP1 PUSH3 0x1336 JUMP JUMPDEST PUSH0 PUSH1 0x40 MLOAD DUP1 DUP4 SUB DUP2 PUSH0 DUP8 DUP1 EXTCODESIZE ISZERO DUP1 ISZERO PUSH3 0xA16 JUMPI PUSH0 DUP1 REVERT JUMPDEST POP GAS CALL ISZERO DUP1 ISZERO PUSH3 0xA29 JUMPI RETURNDATASIZE PUSH0 DUP1 RETURNDATACOPY RETURNDATASIZE PUSH0 REVERT JUMPDEST POP POP POP POP PUSH1 0x3 PUSH0 SWAP1 SLOAD SWAP1 PUSH2 0x100 EXP SWAP1 DIV PUSH20 0xFFFFFFFFFFFFFFFFFFFFFFFFFFFFFFFFFFFFFFFF AND PUSH20 0xFFFFFFFFFFFFFFFFFFFFFFFFFFFFFFFFFFFFFFFF AND PUSH4 0xAC9A939B PUSH1 0x1 PUSH0 PUSH1 0x40 MLOAD DUP4 PUSH4 0xFFFFFFFF AND PUSH1 0xE0 SHL DUP2 MSTORE PUSH1 0x4 ADD PUSH3 0xA8C SWAP3 SWAP2 SWAP1 PUSH3 0x180C JUMP JUMPDEST PUSH0 PUSH1 0x40 MLOAD DUP1 DUP4 SUB DUP2 PUSH0 DUP8 DUP1 EXTCODESIZE ISZERO DUP1 ISZERO PUSH3 0xAA4 JUMPI PUSH0 DUP1 REVERT JUMPDEST POP GAS CALL ISZERO DUP1 ISZERO PUSH3 0xAB7 JUMPI RETURNDATASIZE PUSH0 DUP1 RETURNDATACOPY RETURNDATASIZE PUSH0 REVERT JUMPDEST POP POP POP POP PUSH0 DUP1 SLOAD SWAP1 PUSH2 0x100 EXP SWAP1 DIV PUSH20 0xFFFFFFFFFFFFFFFFFFFFFFFFFFFFFFFFFFFFFFFF AND PUSH20 0xFFFFFFFFFFFFFFFFFFFFFFFFFFFFFFFFFFFFFFFF AND PUSH4 0xAC2DB42 PUSH1 0x40 MLOAD DUP2 PUSH4 0xFFFFFFFF AND PUSH1 0xE0 SHL DUP2 MSTORE PUSH1 0x4 ADD PUSH0 PUSH1 0x40 MLOAD DUP1 DUP4 SUB DUP2 PUSH0 DUP8 DUP1 EXTCODESIZE ISZERO DUP1 ISZERO PUSH3 0xB20 JUMPI PUSH0 DUP1 REVERT JUMPDEST POP GAS CALL ISZERO DUP1 ISZERO PUSH3 0xB33 JUMPI RETURNDATASIZE PUSH0 DUP1 RETURNDATACOPY RETURNDATASIZE PUSH0 REVERT JUMPDEST POP POP POP POP PUSH0 DUP1 PUSH0 SWAP1 SLOAD SWAP1 PUSH2 0x100 EXP SWAP1 DIV PUSH20 0xFFFFFFFFFFFFFFFFFFFFFFFFFFFFFFFFFFFFFFFF AND PUSH20 0xFFFFFFFFFFFFFFFFFFFFFFFFFFFFFFFFFFFFFFFF AND PUSH4 0x7FE18814 PUSH1 0x40 MLOAD DUP2 PUSH4 0xFFFFFFFF AND PUSH1 0xE0 SHL DUP2 MSTORE PUSH1 0x4 ADD PUSH0 PUSH1 0x40 MLOAD DUP1 DUP4 SUB DUP2 DUP7 GAS STATICCALL ISZERO DUP1 ISZERO PUSH3 0xBA1 JUMPI RETURNDATASIZE PUSH0 DUP1 RETURNDATACOPY RETURNDATASIZE PUSH0 REVERT JUMPDEST POP POP POP POP PUSH1 0x40 MLOAD RETURNDATASIZE PUSH0 DUP3 RETURNDATACOPY RETURNDATASIZE PUSH1 0x1F NOT PUSH1 0x1F DUP3 ADD AND DUP3 ADD DUP1 PUSH1 0x40 MSTORE POP DUP2 ADD SWAP1 PUSH3 0xBCB SWAP2 SWAP1 PUSH3 0x15BA JUMP JUMPDEST SWAP1 POP PUSH20 0x0 PUSH4 0x561015E2 DUP3 MLOAD PUSH0 PUSH1 0x40 MLOAD DUP4 PUSH4 0xFFFFFFFF AND PUSH1 0xE0 SHL DUP2 MSTORE PUSH1 0x4 ADD PUSH3 0xC09 SWAP3 SWAP2 SWAP1 PUSH3 0x16B9 JUMP JUMPDEST PUSH1 0x20 PUSH1 0x40 MLOAD DUP1 DUP4 SUB DUP2 DUP7 GAS DELEGATECALL ISZERO DUP1 ISZERO PUSH3 0xC25 JUMPI RETURNDATASIZE PUSH0 DUP1 RETURNDATACOPY RETURNDATASIZE PUSH0 REVERT JUMPDEST POP POP POP POP PUSH1 0x40 MLOAD RETURNDATASIZE PUSH1 0x1F NOT PUSH1 0x1F DUP3 ADD AND DUP3 ADD DUP1 PUSH1 0x40 MSTORE POP DUP2 ADD SWAP1 PUSH3 0xC4B SWAP2 SWAP1 PUSH3 0x1728 JUMP JUMPDEST POP POP JUMP JUMPDEST PUSH1 0x1 PUSH0 SWAP1 SLOAD SWAP1 PUSH2 0x100 EXP SWAP1 DIV PUSH20 0xFFFFFFFFFFFFFFFFFFFFFFFFFFFFFFFFFFFFFFFF AND PUSH20 0xFFFFFFFFFFFFFFFFFFFFFFFFFFFFFFFFFFFFFFFF AND PUSH4 0x2F57B91C PUSH1 0x1 PUSH0 PUSH1 0x1 PUSH1 0x40 MLOAD DUP5 PUSH4 0xFFFFFFFF AND PUSH1 0xE0 SHL DUP2 MSTORE PUSH1 0x4 ADD PUSH3 0xCB1 SWAP4 SWAP3 SWAP2 SWAP1 PUSH3 0x12A7 JUMP JUMPDEST PUSH0 PUSH1 0x40 MLOAD DUP1 DUP4 SUB DUP2 PUSH0 DUP8 DUP1 EXTCODESIZE ISZERO DUP1 ISZERO PUSH3 0xCC9 JUMPI PUSH0 DUP1 REVERT JUMPDEST POP GAS CALL ISZERO DUP1 ISZERO PUSH3 0xCDC JUMPI RETURNDATASIZE PUSH0 DUP1 RETURNDATACOPY RETURNDATASIZE PUSH0 REVERT JUMPDEST POP POP POP POP PUSH1 0x2 PUSH0 SWAP1 SLOAD SWAP1 PUSH2 0x100 EXP SWAP1 DIV PUSH20 0xFFFFFFFFFFFFFFFFFFFFFFFFFFFFFFFFFFFFFFFF AND PUSH20 0xFFFFFFFFFFFFFFFFFFFFFFFFFFFFFFFFFFFFFFFF AND PUSH4 0xCA994017 PUSH1 0x1 PUSH0 SWAP1 SLOAD SWAP1 PUSH2 0x100 EXP SWAP1 DIV PUSH20 0xFFFFFFFFFFFFFFFFFFFFFFFFFFFFFFFFFFFFFFFF AND PUSH1 0x1 DUP1 PUSH1 0x40 MLOAD DUP5 PUSH4 0xFFFFFFFF AND PUSH1 0xE0 SHL DUP2 MSTORE PUSH1 0x4 ADD PUSH3 0xD62 SWAP4 SWAP3 SWAP2 SWAP1 PUSH3 0x1336 JUMP JUMPDEST PUSH0 PUSH1 0x40 MLOAD DUP1 DUP4 SUB DUP2 PUSH0 DUP8 DUP1 EXTCODESIZE ISZERO DUP1 ISZERO PUSH3 0xD7A JUMPI PUSH0 DUP1 REVERT JUMPDEST POP GAS CALL ISZERO DUP1 ISZERO PUSH3 0xD8D JUMPI RETURNDATASIZE PUSH0 DUP1 RETURNDATACOPY RETURNDATASIZE PUSH0 REVERT JUMPDEST POP POP POP POP PUSH1 0x3 PUSH0 SWAP1 SLOAD SWAP1 PUSH2 0x100 EXP SWAP1 DIV PUSH20 0xFFFFFFFFFFFFFFFFFFFFFFFFFFFFFFFFFFFFFFFF AND PUSH20 0xFFFFFFFFFFFFFFFFFFFFFFFFFFFFFFFFFFFFFFFF AND PUSH4 0xAC9A939B PUSH1 0x1 DUP1 PUSH1 0x40 MLOAD DUP4 PUSH4 0xFFFFFFFF AND PUSH1 0xE0 SHL DUP2 MSTORE PUSH1 0x4 ADD PUSH3 0xDF0 SWAP3 SWAP2 SWAP1 PUSH3 0x13C0 JUMP JUMPDEST PUSH0 PUSH1 0x40 MLOAD DUP1 DUP4 SUB DUP2 PUSH0 DUP8 DUP1 EXTCODESIZE ISZERO DUP1 ISZERO PUSH3 0xE08 JUMPI PUSH0 DUP1 REVERT JUMPDEST POP GAS CALL ISZERO DUP1 ISZERO PUSH3 0xE1B JUMPI RETURNDATASIZE PUSH0 DUP1 RETURNDATACOPY RETURNDATASIZE PUSH0 REVERT JUMPDEST POP POP POP POP PUSH0 DUP1 SLOAD SWAP1 PUSH2 0x100 EXP SWAP1 DIV PUSH20 0xFFFFFFFFFFFFFFFFFFFFFFFFFFFFFFFFFFFFFFFF AND PUSH20 0xFFFFFFFFFFFFFFFFFFFFFFFFFFFFFFFFFFFFFFFF AND PUSH4 0xAC2DB42 PUSH1 0x40 MLOAD DUP2 PUSH4 0xFFFFFFFF AND PUSH1 0xE0 SHL DUP2 MSTORE PUSH1 0x4 ADD PUSH0 PUSH1 0x40 MLOAD DUP1 DUP4 SUB DUP2 PUSH0 DUP8 DUP1 EXTCODESIZE ISZERO DUP1 ISZERO PUSH3 0xE84 JUMPI PUSH0 DUP1 REVERT JUMPDEST POP GAS CALL ISZERO DUP1 ISZERO PUSH3 0xE97 JUMPI RETURNDATASIZE PUSH0 DUP1 RETURNDATACOPY RETURNDATASIZE PUSH0 REVERT JUMPDEST POP POP POP POP PUSH0 DUP1 PUSH0 SWAP1 SLOAD SWAP1 PUSH2 0x100 EXP SWAP1 DIV PUSH20 0xFFFFFFFFFFFFFFFFFFFFFFFFFFFFFFFFFFFFFFFF AND PUSH20 0xFFFFFFFFFFFFFFFFFFFFFFFFFFFFFFFFFFFFFFFF AND PUSH4 0x7FE18814 PUSH1 0x40 MLOAD DUP2 PUSH4 0xFFFFFFFF AND PUSH1 0xE0 SHL DUP2 MSTORE PUSH1 0x4 ADD PUSH0 PUSH1 0x40 MLOAD DUP1 DUP4 SUB DUP2 DUP7 GAS STATICCALL ISZERO DUP1 ISZERO PUSH3 0xF05 JUMPI RETURNDATASIZE PUSH0 DUP1 RETURNDATACOPY RETURNDATASIZE PUSH0 REVERT JUMPDEST POP POP POP POP PUSH1 0x40 MLOAD RETURNDATASIZE PUSH0 DUP3 RETURNDATACOPY RETURNDATASIZE PUSH1 0x1F NOT PUSH1 0x1F DUP3 ADD AND DUP3 ADD DUP1 PUSH1 0x40 MSTORE POP DUP2 ADD SWAP1 PUSH3 0xF2F SWAP2 SWAP1 PUSH3 0x15BA JUMP JUMPDEST SWAP1 POP PUSH20 0x0 PUSH4 0xABCD7960 DUP3 MLOAD PUSH1 0x1 PUSH1 0x40 MLOAD DUP4 PUSH4 0xFFFFFFFF AND PUSH1 0xE0 SHL DUP2 MSTORE PUSH1 0x4 ADD PUSH3 0xF6E SWAP3 SWAP2 SWAP1 PUSH3 0x18B9 JUMP JUMPDEST PUSH1 0x20 PUSH1 0x40 MLOAD DUP1 DUP4 SUB DUP2 DUP7 GAS DELEGATECALL ISZERO DUP1 ISZERO PUSH3 0xF8A JUMPI RETURNDATASIZE PUSH0 DUP1 RETURNDATACOPY RETURNDATASIZE PUSH0 REVERT JUMPDEST POP POP POP POP PUSH1 0x40 MLOAD RETURNDATASIZE PUSH1 0x1F NOT PUSH1 0x1F DUP3 ADD AND DUP3 ADD DUP1 PUSH1 0x40 MSTORE POP DUP2 ADD SWAP1 PUSH3 0xFB0 SWAP2 SWAP1 PUSH3 0x1728 JUMP JUMPDEST POP PUSH20 0x0 PUSH4 0xABCD7960 DUP3 PUSH0 DUP2 MLOAD DUP2 LT PUSH3 0xFE1 JUMPI PUSH3 0xFE0 PUSH3 0x18F9 JUMP JUMPDEST JUMPDEST PUSH1 0x20 MUL PUSH1 0x20 ADD ADD MLOAD PUSH1 0x1 PUSH1 0x40 MLOAD DUP4 PUSH4 0xFFFFFFFF AND PUSH1 0xE0 SHL DUP2 MSTORE PUSH1 0x4 ADD PUSH3 0x100A SWAP3 SWAP2 SWAP1 PUSH3 0x1974 JUMP JUMPDEST PUSH1 0x20 PUSH1 0x40 MLOAD DUP1 DUP4 SUB DUP2 DUP7 GAS DELEGATECALL ISZERO DUP1 ISZERO PUSH3 0x1026 JUMPI RETURNDATASIZE PUSH0 DUP1 RETURNDATACOPY RETURNDATASIZE PUSH0 REVERT JUMPDEST POP POP POP POP PUSH1 0x40 MLOAD RETURNDATASIZE PUSH1 0x1F NOT PUSH1 0x1F DUP3 ADD AND DUP3 ADD DUP1 PUSH1 0x40 MSTORE POP DUP2 ADD SWAP1 PUSH3 0x104C SWAP2 SWAP1 PUSH3 0x1728 JUMP JUMPDEST POP POP JUMP JUMPDEST PUSH2 0x10B9 DUP1 PUSH3 0x19B5 DUP4 CODECOPY ADD SWAP1 JUMP JUMPDEST PUSH2 0x922 DUP1 PUSH3 0x2A6E DUP4 CODECOPY ADD SWAP1 JUMP JUMPDEST PUSH2 0xDF6 DUP1 PUSH3 0x3390 DUP4 CODECOPY ADD SWAP1 JUMP JUMPDEST PUSH2 0x16B3 DUP1 PUSH3 0x4186 DUP4 CODECOPY ADD SWAP1 JUMP JUMPDEST PUSH0 PUSH20 0xFFFFFFFFFFFFFFFFFFFFFFFFFFFFFFFFFFFFFFFF DUP3 AND SWAP1 POP SWAP2 SWAP1 POP JUMP JUMPDEST PUSH0 PUSH3 0x10B3 DUP3 PUSH3 0x1088 JUMP JUMPDEST SWAP1 POP SWAP2 SWAP1 POP JUMP JUMPDEST PUSH3 0x10C5 DUP2 PUSH3 0x10A7 JUMP JUMPDEST DUP3 MSTORE POP POP JUMP JUMPDEST PUSH0 PUSH1 0x60 DUP3 ADD SWAP1 POP PUSH3 0x10E0 PUSH0 DUP4 ADD DUP7 PUSH3 0x10BA JUMP JUMPDEST PUSH3 0x10EF PUSH1 0x20 DUP4 ADD DUP6 PUSH3 0x10BA JUMP JUMPDEST PUSH3 0x10FE PUSH1 0x40 DUP4 ADD DUP5 PUSH3 0x10BA JUMP JUMPDEST SWAP5 SWAP4 POP POP POP POP JUMP JUMPDEST PUSH0 DUP3 DUP3 MSTORE PUSH1 0x20 DUP3 ADD SWAP1 POP SWAP3 SWAP2 POP POP JUMP JUMPDEST PUSH32 0x5365727669636531000000000000000000000000000000000000000000000000 PUSH0 DUP3 ADD MSTORE POP JUMP JUMPDEST PUSH0 PUSH3 0x114C PUSH1 0x8 DUP4 PUSH3 0x1106 JUMP JUMPDEST SWAP2 POP PUSH3 0x1159 DUP3 PUSH3 0x1116 JUMP JUMPDEST PUSH1 0x20 DUP3 ADD SWAP1 POP SWAP2 SWAP1 POP JUMP JUMPDEST PUSH32 0x507572706F736531000000000000000000000000000000000000000000000000 PUSH0 DUP3 ADD MSTORE POP JUMP JUMPDEST PUSH0 PUSH3 0x119A PUSH1 0x8 DUP4 PUSH3 0x1106 JUMP JUMPDEST SWAP2 POP PUSH3 0x11A7 DUP3 PUSH3 0x1164 JUMP JUMPDEST PUSH1 0x20 DUP3 ADD SWAP1 POP SWAP2 SWAP1 POP JUMP JUMPDEST PUSH0 DUP2 SWAP1 POP SWAP2 SWAP1 POP JUMP JUMPDEST PUSH0 DUP2 SWAP1 POP SWAP2 SWAP1 POP JUMP JUMPDEST PUSH0 DUP2 SWAP1 POP SWAP2 SWAP1 POP JUMP JUMPDEST PUSH0 PUSH3 0x11ED PUSH3 0x11E7 PUSH3 0x11E1 DUP5 PUSH3 0x11B2 JUMP JUMPDEST PUSH3 0x11C4 JUMP JUMPDEST PUSH3 0x11BB JUMP JUMPDEST SWAP1 POP SWAP2 SWAP1 POP JUMP JUMPDEST PUSH3 0x11FF DUP2 PUSH3 0x11CD JUMP JUMPDEST DUP3 MSTORE POP POP JUMP JUMPDEST PUSH32 0x4E487B7100000000000000000000000000000000000000000000000000000000 PUSH0 MSTORE PUSH1 0x21 PUSH1 0x4 MSTORE PUSH1 0x24 PUSH0 REVERT JUMPDEST PUSH1 0x3 DUP2 LT PUSH3 0x1246 JUMPI PUSH3 0x1245 PUSH3 0x1205 JUMP JUMPDEST JUMPDEST POP JUMP JUMPDEST PUSH0 DUP2 SWAP1 POP PUSH3 0x1258 DUP3 PUSH3 0x1232 JUMP JUMPDEST SWAP2 SWAP1 POP JUMP JUMPDEST PUSH0 PUSH3 0x1269 DUP3 PUSH3 0x1249 JUMP JUMPDEST SWAP1 POP SWAP2 SWAP1 POP JUMP JUMPDEST PUSH3 0x127B DUP2 PUSH3 0x125D JUMP JUMPDEST DUP3 MSTORE POP POP JUMP JUMPDEST PUSH32 0x50726F6365737365644461746131000000000000000000000000000000000000 DUP2 MSTORE POP JUMP JUMPDEST PUSH0 PUSH1 0xC0 DUP3 ADD SWAP1 POP DUP2 DUP2 SUB PUSH0 DUP4 ADD MSTORE PUSH3 0x12C0 DUP2 PUSH3 0x113E JUMP JUMPDEST SWAP1 POP DUP2 DUP2 SUB PUSH1 0x20 DUP4 ADD MSTORE PUSH3 0x12D5 DUP2 PUSH3 0x118C JUMP JUMPDEST SWAP1 POP PUSH3 0x12E6 PUSH1 0x40 DUP4 ADD DUP7 PUSH3 0x11F4 JUMP JUMPDEST PUSH3 0x12F5 PUSH1 0x60 DUP4 ADD DUP6 PUSH3 0x1270 JUMP JUMPDEST PUSH3 0x1304 PUSH1 0x80 DUP4 ADD DUP5 PUSH3 0x11F4 JUMP JUMPDEST PUSH3 0x1312 PUSH1 0xA0 DUP4 ADD PUSH3 0x1281 JUMP JUMPDEST SWAP5 SWAP4 POP POP POP POP JUMP JUMPDEST PUSH0 DUP2 ISZERO ISZERO SWAP1 POP SWAP2 SWAP1 POP JUMP JUMPDEST PUSH3 0x1330 DUP2 PUSH3 0x131A JUMP JUMPDEST DUP3 MSTORE POP POP JUMP JUMPDEST PUSH0 PUSH1 0x60 DUP3 ADD SWAP1 POP PUSH3 0x134B PUSH0 DUP4 ADD DUP7 PUSH3 0x10BA JUMP JUMPDEST PUSH3 0x135A PUSH1 0x20 DUP4 ADD DUP6 PUSH3 0x11F4 JUMP JUMPDEST PUSH3 0x1369 PUSH1 0x40 DUP4 ADD DUP5 PUSH3 0x1325 JUMP JUMPDEST SWAP5 SWAP4 POP POP POP POP JUMP JUMPDEST PUSH1 0x3 DUP2 LT PUSH3 0x1385 JUMPI PUSH3 0x1384 PUSH3 0x1205 JUMP JUMPDEST JUMPDEST POP JUMP JUMPDEST PUSH0 DUP2 SWAP1 POP PUSH3 0x1397 DUP3 PUSH3 0x1371 JUMP JUMPDEST SWAP2 SWAP1 POP JUMP JUMPDEST PUSH0 PUSH3 0x13A8 DUP3 PUSH3 0x1388 JUMP JUMPDEST SWAP1 POP SWAP2 SWAP1 POP JUMP JUMPDEST PUSH3 0x13BA DUP2 PUSH3 0x139C JUMP JUMPDEST DUP3 MSTORE POP POP JUMP JUMPDEST PUSH0 PUSH1 0x80 DUP3 ADD SWAP1 POP PUSH3 0x13D5 PUSH0 DUP4 ADD DUP6 PUSH3 0x11F4 JUMP JUMPDEST PUSH3 0x13E4 PUSH1 0x20 DUP4 ADD DUP5 PUSH3 0x13AF JUMP JUMPDEST PUSH3 0x13F2 PUSH1 0x40 DUP4 ADD PUSH3 0x1281 JUMP JUMPDEST DUP2 DUP2 SUB PUSH1 0x60 DUP4 ADD MSTORE PUSH3 0x1405 DUP2 PUSH3 0x113E JUMP JUMPDEST SWAP1 POP SWAP4 SWAP3 POP POP POP JUMP JUMPDEST PUSH0 PUSH1 0x40 MLOAD SWAP1 POP SWAP1 JUMP JUMPDEST PUSH0 DUP1 REVERT JUMPDEST PUSH0 DUP1 REVERT JUMPDEST PUSH0 DUP1 REVERT JUMPDEST PUSH0 PUSH1 0x1F NOT PUSH1 0x1F DUP4 ADD AND SWAP1 POP SWAP2 SWAP1 POP JUMP JUMPDEST PUSH32 0x4E487B7100000000000000000000000000000000000000000000000000000000 PUSH0 MSTORE PUSH1 0x41 PUSH1 0x4 MSTORE PUSH1 0x24 PUSH0 REVERT JUMPDEST PUSH3 0x146B DUP3 PUSH3 0x1423 JUMP JUMPDEST DUP2 ADD DUP2 DUP2 LT PUSH8 0xFFFFFFFFFFFFFFFF DUP3 GT OR ISZERO PUSH3 0x148D JUMPI PUSH3 0x148C PUSH3 0x1433 JUMP JUMPDEST JUMPDEST DUP1 PUSH1 0x40 MSTORE POP POP POP JUMP JUMPDEST PUSH0 PUSH3 0x14A1 PUSH3 0x140E JUMP JUMPDEST SWAP1 POP PUSH3 0x14AF DUP3 DUP3 PUSH3 0x1460 JUMP JUMPDEST SWAP2 SWAP1 POP JUMP JUMPDEST PUSH0 PUSH8 0xFFFFFFFFFFFFFFFF DUP3 GT ISZERO PUSH3 0x14D1 JUMPI PUSH3 0x14D0 PUSH3 0x1433 JUMP JUMPDEST JUMPDEST PUSH1 0x20 DUP3 MUL SWAP1 POP PUSH1 0x20 DUP2 ADD SWAP1 POP SWAP2 SWAP1 POP JUMP JUMPDEST PUSH0 DUP1 REVERT JUMPDEST PUSH3 0x14F1 DUP2 PUSH3 0x11BB JUMP JUMPDEST DUP2 EQ PUSH3 0x14FC JUMPI PUSH0 DUP1 REVERT JUMPDEST POP JUMP JUMPDEST PUSH0 DUP2 MLOAD SWAP1 POP PUSH3 0x150F DUP2 PUSH3 0x14E6 JUMP JUMPDEST SWAP3 SWAP2 POP POP JUMP JUMPDEST PUSH0 PUSH3 0x152B PUSH3 0x1525 DUP5 PUSH3 0x14B4 JUMP JUMPDEST PUSH3 0x1496 JUMP JUMPDEST SWAP1 POP DUP1 DUP4 DUP3 MSTORE PUSH1 0x20 DUP3 ADD SWAP1 POP PUSH1 0x20 DUP5 MUL DUP4 ADD DUP6 DUP2 GT ISZERO PUSH3 0x1551 JUMPI PUSH3 0x1550 PUSH3 0x14E2 JUMP JUMPDEST JUMPDEST DUP4 JUMPDEST DUP2 DUP2 LT ISZERO PUSH3 0x157E JUMPI DUP1 PUSH3 0x1569 DUP9 DUP3 PUSH3 0x14FF JUMP JUMPDEST DUP5 MSTORE PUSH1 0x20 DUP5 ADD SWAP4 POP POP PUSH1 0x20 DUP2 ADD SWAP1 POP PUSH3 0x1553 JUMP JUMPDEST POP POP POP SWAP4 SWAP3 POP POP POP JUMP JUMPDEST PUSH0 DUP3 PUSH1 0x1F DUP4 ADD SLT PUSH3 0x159F JUMPI PUSH3 0x159E PUSH3 0x141F JUMP JUMPDEST JUMPDEST DUP2 MLOAD PUSH3 0x15B1 DUP5 DUP3 PUSH1 0x20 DUP7 ADD PUSH3 0x1515 JUMP JUMPDEST SWAP2 POP POP SWAP3 SWAP2 POP POP JUMP JUMPDEST PUSH0 PUSH1 0x20 DUP3 DUP5 SUB SLT ISZERO PUSH3 0x15D2 JUMPI PUSH3 0x15D1 PUSH3 0x1417 JUMP JUMPDEST JUMPDEST PUSH0 DUP3 ADD MLOAD PUSH8 0xFFFFFFFFFFFFFFFF DUP2 GT ISZERO PUSH3 0x15F2 JUMPI PUSH3 0x15F1 PUSH3 0x141B JUMP JUMPDEST JUMPDEST PUSH3 0x1600 DUP5 DUP3 DUP6 ADD PUSH3 0x1588 JUMP JUMPDEST SWAP2 POP POP SWAP3 SWAP2 POP POP JUMP JUMPDEST PUSH3 0x1614 DUP2 PUSH3 0x11BB JUMP JUMPDEST DUP3 MSTORE POP POP JUMP JUMPDEST PUSH0 DUP2 SWAP1 POP SWAP2 SWAP1 POP JUMP JUMPDEST PUSH0 PUSH3 0x1643 PUSH3 0x163D PUSH3 0x1637 DUP5 PUSH3 0x161A JUMP JUMPDEST PUSH3 0x11C4 JUMP JUMPDEST PUSH3 0x11BB JUMP JUMPDEST SWAP1 POP SWAP2 SWAP1 POP JUMP JUMPDEST PUSH3 0x1655 DUP2 PUSH3 0x1623 JUMP JUMPDEST DUP3 MSTORE POP POP JUMP JUMPDEST PUSH0 DUP3 DUP3 MSTORE PUSH1 0x20 DUP3 ADD SWAP1 POP SWAP3 SWAP2 POP POP JUMP JUMPDEST PUSH32 0x54686572652073686F756C642062652076696F6C61746F727300000000000000 PUSH0 DUP3 ADD MSTORE POP JUMP JUMPDEST PUSH0 PUSH3 0x16A1 PUSH1 0x19 DUP4 PUSH3 0x165B JUMP JUMPDEST SWAP2 POP PUSH3 0x16AE DUP3 PUSH3 0x166B JUMP JUMPDEST PUSH1 0x20 DUP3 ADD SWAP1 POP SWAP2 SWAP1 POP JUMP JUMPDEST PUSH0 PUSH1 0x60 DUP3 ADD SWAP1 POP PUSH3 0x16CE PUSH0 DUP4 ADD DUP6 PUSH3 0x1609 JUMP JUMPDEST PUSH3 0x16DD PUSH1 0x20 DUP4 ADD DUP5 PUSH3 0x164A JUMP JUMPDEST DUP2 DUP2 SUB PUSH1 0x40 DUP4 ADD MSTORE PUSH3 0x16F0 DUP2 PUSH3 0x1693 JUMP JUMPDEST SWAP1 POP SWAP4 SWAP3 POP POP POP JUMP JUMPDEST PUSH3 0x1704 DUP2 PUSH3 0x131A JUMP JUMPDEST DUP2 EQ PUSH3 0x170F JUMPI PUSH0 DUP1 REVERT JUMPDEST POP JUMP JUMPDEST PUSH0 DUP2 MLOAD SWAP1 POP PUSH3 0x1722 DUP2 PUSH3 0x16F9 JUMP JUMPDEST SWAP3 SWAP2 POP POP JUMP JUMPDEST PUSH0 PUSH1 0x20 DUP3 DUP5 SUB SLT ISZERO PUSH3 0x1740 JUMPI PUSH3 0x173F PUSH3 0x1417 JUMP JUMPDEST JUMPDEST PUSH0 PUSH3 0x174F DUP5 DUP3 DUP6 ADD PUSH3 0x1712 JUMP JUMPDEST SWAP2 POP POP SWAP3 SWAP2 POP POP JUMP JUMPDEST PUSH32 0x54686572652073686F756C64206265206E6F2076696F6C61746F727300000000 PUSH0 DUP3 ADD MSTORE POP JUMP JUMPDEST PUSH0 PUSH3 0x178E PUSH1 0x1C DUP4 PUSH3 0x165B JUMP JUMPDEST SWAP2 POP PUSH3 0x179B DUP3 PUSH3 0x1758 JUMP JUMPDEST PUSH1 0x20 DUP3 ADD SWAP1 POP SWAP2 SWAP1 POP JUMP JUMPDEST PUSH0 PUSH1 0x60 DUP3 ADD SWAP1 POP PUSH3 0x17BB PUSH0 DUP4 ADD DUP6 PUSH3 0x1609 JUMP JUMPDEST PUSH3 0x17CA PUSH1 0x20 DUP4 ADD DUP5 PUSH3 0x164A JUMP JUMPDEST DUP2 DUP2 SUB PUSH1 0x40 DUP4 ADD MSTORE PUSH3 0x17DD DUP2 PUSH3 0x1780 JUMP JUMPDEST SWAP1 POP SWAP4 SWAP3 POP POP POP JUMP JUMPDEST PUSH32 0x50726F6365737365644461746132000000000000000000000000000000000000 DUP2 MSTORE POP JUMP JUMPDEST PUSH0 PUSH1 0x80 DUP3 ADD SWAP1 POP PUSH3 0x1821 PUSH0 DUP4 ADD DUP6 PUSH3 0x11F4 JUMP JUMPDEST PUSH3 0x1830 PUSH1 0x20 DUP4 ADD DUP5 PUSH3 0x13AF JUMP JUMPDEST PUSH3 0x183E PUSH1 0x40 DUP4 ADD PUSH3 0x17E6 JUMP JUMPDEST DUP2 DUP2 SUB PUSH1 0x60 DUP4 ADD MSTORE PUSH3 0x1851 DUP2 PUSH3 0x113E JUMP JUMPDEST SWAP1 POP SWAP4 SWAP3 POP POP POP JUMP JUMPDEST PUSH3 0x1865 DUP2 PUSH3 0x11CD JUMP JUMPDEST DUP3 MSTORE POP POP JUMP JUMPDEST PUSH32 0x54686572652073686F756C64206265206F6E652076696F6C61746F7200000000 PUSH0 DUP3 ADD MSTORE POP JUMP JUMPDEST PUSH0 PUSH3 0x18A1 PUSH1 0x1C DUP4 PUSH3 0x165B JUMP JUMPDEST SWAP2 POP PUSH3 0x18AE DUP3 PUSH3 0x186B JUMP JUMPDEST PUSH1 0x20 DUP3 ADD SWAP1 POP SWAP2 SWAP1 POP JUMP JUMPDEST PUSH0 PUSH1 0x60 DUP3 ADD SWAP1 POP PUSH3 0x18CE PUSH0 DUP4 ADD DUP6 PUSH3 0x1609 JUMP JUMPDEST PUSH3 0x18DD PUSH1 0x20 DUP4 ADD DUP5 PUSH3 0x185A JUMP JUMPDEST DUP2 DUP2 SUB PUSH1 0x40 DUP4 ADD MSTORE PUSH3 0x18F0 DUP2 PUSH3 0x1893 JUMP JUMPDEST SWAP1 POP SWAP4 SWAP3 POP POP POP JUMP JUMPDEST PUSH32 0x4E487B7100000000000000000000000000000000000000000000000000000000 PUSH0 MSTORE PUSH1 0x32 PUSH1 0x4 MSTORE PUSH1 0x24 PUSH0 REVERT JUMPDEST PUSH32 0x5468652076696F6C61746F722049442073686F756C64206D6174636800000000 PUSH0 DUP3 ADD MSTORE POP JUMP JUMPDEST PUSH0 PUSH3 0x195C PUSH1 0x1C DUP4 PUSH3 0x165B JUMP JUMPDEST SWAP2 POP PUSH3 0x1969 DUP3 PUSH3 0x1926 JUMP JUMPDEST PUSH1 0x20 DUP3 ADD SWAP1 POP SWAP2 SWAP1 POP JUMP JUMPDEST PUSH0 PUSH1 0x60 DUP3 ADD SWAP1 POP PUSH3 0x1989 PUSH0 DUP4 ADD DUP6 PUSH3 0x1609 JUMP JUMPDEST PUSH3 0x1998 PUSH1 0x20 DUP4 ADD DUP5 PUSH3 0x185A JUMP JUMPDEST DUP2 DUP2 SUB PUSH1 0x40 DUP4 ADD MSTORE PUSH3 0x19AB DUP2 PUSH3 0x194E JUMP JUMPDEST SWAP1 POP SWAP4 SWAP3 POP POP POP JUMP INVALID PUSH1 0x80 PUSH1 0x40 MSTORE PUSH0 PUSH1 0x2 SSTORE PUSH0 PUSH1 0x4 SSTORE CALLVALUE DUP1 ISZERO PUSH2 0x17 JUMPI PUSH0 DUP1 REVERT JUMPDEST POP CALLER PUSH0 DUP1 PUSH2 0x100 EXP DUP2 SLOAD DUP2 PUSH20 0xFFFFFFFFFFFFFFFFFFFFFFFFFFFFFFFFFFFFFFFF MUL NOT AND SWAP1 DUP4 PUSH20 0xFFFFFFFFFFFFFFFFFFFFFFFFFFFFFFFFFFFFFFFF AND MUL OR SWAP1 SSTORE POP PUSH2 0x1055 DUP1 PUSH2 0x64 PUSH0 CODECOPY PUSH0 RETURN INVALID PUSH1 0x80 PUSH1 0x40 MSTORE CALLVALUE DUP1 ISZERO PUSH2 0xF JUMPI PUSH0 DUP1 REVERT JUMPDEST POP PUSH1 0x4 CALLDATASIZE LT PUSH2 0x60 JUMPI PUSH0 CALLDATALOAD PUSH1 0xE0 SHR DUP1 PUSH4 0x2F57B91C EQ PUSH2 0x64 JUMPI DUP1 PUSH4 0x4B58FBE9 EQ PUSH2 0x80 JUMPI DUP1 PUSH4 0x682477D7 EQ PUSH2 0x9E JUMPI DUP1 PUSH4 0x85F86E0D EQ PUSH2 0xBC JUMPI DUP1 PUSH4 0x8DA5CB5B EQ PUSH2 0xEC JUMPI DUP1 PUSH4 0xD2B0649A EQ PUSH2 0x10A JUMPI JUMPDEST PUSH0 DUP1 REVERT JUMPDEST PUSH2 0x7E PUSH1 0x4 DUP1 CALLDATASIZE SUB DUP2 ADD SWAP1 PUSH2 0x79 SWAP2 SWAP1 PUSH2 0x73D JUMP JUMPDEST PUSH2 0x13A JUMP JUMPDEST STOP JUMPDEST PUSH2 0x88 PUSH2 0x2B0 JUMP JUMPDEST PUSH1 0x40 MLOAD PUSH2 0x95 SWAP2 SWAP1 PUSH2 0x80D JUMP JUMPDEST PUSH1 0x40 MLOAD DUP1 SWAP2 SUB SWAP1 RETURN JUMPDEST PUSH2 0xA6 PUSH2 0x2B9 JUMP JUMPDEST PUSH1 0x40 MLOAD PUSH2 0xB3 SWAP2 SWAP1 PUSH2 0x80D JUMP JUMPDEST PUSH1 0x40 MLOAD DUP1 SWAP2 SUB SWAP1 RETURN JUMPDEST PUSH2 0xD6 PUSH1 0x4 DUP1 CALLDATASIZE SUB DUP2 ADD SWAP1 PUSH2 0xD1 SWAP2 SWAP1 PUSH2 0x826 JUMP JUMPDEST PUSH2 0x2C2 JUMP JUMPDEST PUSH1 0x40 MLOAD PUSH2 0xE3 SWAP2 SWAP1 PUSH2 0x8ED JUMP JUMPDEST PUSH1 0x40 MLOAD DUP1 SWAP2 SUB SWAP1 RETURN JUMPDEST PUSH2 0xF4 PUSH2 0x305 JUMP JUMPDEST PUSH1 0x40 MLOAD PUSH2 0x101 SWAP2 SWAP1 PUSH2 0x945 JUMP JUMPDEST PUSH1 0x40 MLOAD DUP1 SWAP2 SUB SWAP1 RETURN JUMPDEST PUSH2 0x124 PUSH1 0x4 DUP1 CALLDATASIZE SUB DUP2 ADD SWAP1 PUSH2 0x11F SWAP2 SWAP1 PUSH2 0x95E JUMP JUMPDEST PUSH2 0x328 JUMP JUMPDEST PUSH1 0x40 MLOAD PUSH2 0x131 SWAP2 SWAP1 PUSH2 0xB21 JUMP JUMPDEST PUSH1 0x40 MLOAD DUP1 SWAP2 SUB SWAP1 RETURN JUMPDEST PUSH0 DUP1 SLOAD SWAP1 PUSH2 0x100 EXP SWAP1 DIV PUSH20 0xFFFFFFFFFFFFFFFFFFFFFFFFFFFFFFFFFFFFFFFF AND PUSH20 0xFFFFFFFFFFFFFFFFFFFFFFFFFFFFFFFFFFFFFFFF AND CALLER PUSH20 0xFFFFFFFFFFFFFFFFFFFFFFFFFFFFFFFFFFFFFFFF AND EQ PUSH2 0x1C7 JUMPI PUSH1 0x40 MLOAD PUSH32 0x8C379A000000000000000000000000000000000000000000000000000000000 DUP2 MSTORE PUSH1 0x4 ADD PUSH2 0x1BE SWAP1 PUSH2 0xBC1 JUMP JUMPDEST PUSH1 0x40 MLOAD DUP1 SWAP2 SUB SWAP1 REVERT JUMPDEST PUSH1 0x40 MLOAD DUP1 PUSH1 0xC0 ADD PUSH1 0x40 MSTORE DUP1 DUP8 DUP2 MSTORE PUSH1 0x20 ADD DUP7 DUP2 MSTORE PUSH1 0x20 ADD DUP6 DUP2 MSTORE PUSH1 0x20 ADD DUP5 PUSH1 0x2 DUP2 GT ISZERO PUSH2 0x1F7 JUMPI PUSH2 0x1F6 PUSH2 0xA12 JUMP JUMPDEST JUMPDEST DUP2 MSTORE PUSH1 0x20 ADD DUP4 DUP2 MSTORE PUSH1 0x20 ADD DUP3 DUP2 MSTORE POP PUSH1 0x1 PUSH0 DUP7 DUP2 MSTORE PUSH1 0x20 ADD SWAP1 DUP2 MSTORE PUSH1 0x20 ADD PUSH0 KECCAK256 PUSH0 DUP3 ADD MLOAD DUP2 PUSH0 ADD SWAP1 DUP2 PUSH2 0x22A SWAP2 SWAP1 PUSH2 0xDD9 JUMP JUMPDEST POP PUSH1 0x20 DUP3 ADD MLOAD DUP2 PUSH1 0x1 ADD SWAP1 DUP2 PUSH2 0x240 SWAP2 SWAP1 PUSH2 0xDD9 JUMP JUMPDEST POP PUSH1 0x40 DUP3 ADD MLOAD DUP2 PUSH1 0x2 ADD SSTORE PUSH1 0x60 DUP3 ADD MLOAD DUP2 PUSH1 0x3 ADD PUSH0 PUSH2 0x100 EXP DUP2 SLOAD DUP2 PUSH1 0xFF MUL NOT AND SWAP1 DUP4 PUSH1 0x2 DUP2 GT ISZERO PUSH2 0x275 JUMPI PUSH2 0x274 PUSH2 0xA12 JUMP JUMPDEST JUMPDEST MUL OR SWAP1 SSTORE POP PUSH1 0x80 DUP3 ADD MLOAD DUP2 PUSH1 0x4 ADD SSTORE PUSH1 0xA0 DUP3 ADD MLOAD DUP2 PUSH1 0x5 ADD SSTORE SWAP1 POP POP PUSH1 0x2 PUSH0 DUP2 SLOAD DUP1 SWAP3 SWAP2 SWAP1 PUSH2 0x2A3 SWAP1 PUSH2 0xED5 JUMP JUMPDEST SWAP2 SWAP1 POP SSTORE POP POP POP POP POP POP POP JUMP JUMPDEST PUSH0 PUSH1 0x4 SLOAD SWAP1 POP SWAP1 JUMP JUMPDEST PUSH0 PUSH1 0x2 SLOAD SWAP1 POP SWAP1 JUMP JUMPDEST PUSH0 PUSH1 0x60 DUP6 DUP6 DUP6 DUP6 PUSH1 0x40 MLOAD PUSH1 0x20 ADD PUSH2 0x2DC SWAP5 SWAP4 SWAP3 SWAP2 SWAP1 PUSH2 0xF76 JUMP JUMPDEST PUSH1 0x40 MLOAD PUSH1 0x20 DUP2 DUP4 SUB SUB DUP2 MSTORE SWAP1 PUSH1 0x40 MSTORE SWAP1 POP PUSH0 DUP2 DUP1 MLOAD SWAP1 PUSH1 0x20 ADD KECCAK256 SWAP1 POP DUP1 SWAP3 POP POP POP SWAP5 SWAP4 POP POP POP POP JUMP JUMPDEST PUSH0 DUP1 SLOAD SWAP1 PUSH2 0x100 EXP SWAP1 DIV PUSH20 0xFFFFFFFFFFFFFFFFFFFFFFFFFFFFFFFFFFFFFFFF AND DUP2 JUMP JUMPDEST PUSH2 0x330 PUSH2 0x520 JUMP JUMPDEST PUSH0 PUSH1 0x1 PUSH0 DUP5 DUP2 MSTORE PUSH1 0x20 ADD SWAP1 DUP2 MSTORE PUSH1 0x20 ADD PUSH0 KECCAK256 PUSH1 0x2 ADD SLOAD SUB PUSH2 0x386 JUMPI PUSH1 0x40 MLOAD PUSH32 0x8C379A000000000000000000000000000000000000000000000000000000000 DUP2 MSTORE PUSH1 0x4 ADD PUSH2 0x37D SWAP1 PUSH2 0x1001 JUMP JUMPDEST PUSH1 0x40 MLOAD DUP1 SWAP2 SUB SWAP1 REVERT JUMPDEST PUSH1 0x1 PUSH0 DUP4 DUP2 MSTORE PUSH1 0x20 ADD SWAP1 DUP2 MSTORE PUSH1 0x20 ADD PUSH0 KECCAK256 PUSH1 0x40 MLOAD DUP1 PUSH1 0xC0 ADD PUSH1 0x40 MSTORE SWAP1 DUP2 PUSH0 DUP3 ADD DUP1 SLOAD PUSH2 0x3B1 SWAP1 PUSH2 0xC0C JUMP JUMPDEST DUP1 PUSH1 0x1F ADD PUSH1 0x20 DUP1 SWAP2 DIV MUL PUSH1 0x20 ADD PUSH1 0x40 MLOAD SWAP1 DUP2 ADD PUSH1 0x40 MSTORE DUP1 SWAP3 SWAP2 SWAP1 DUP2 DUP2 MSTORE PUSH1 0x20 ADD DUP3 DUP1 SLOAD PUSH2 0x3DD SWAP1 PUSH2 0xC0C JUMP JUMPDEST DUP1 ISZERO PUSH2 0x428 JUMPI DUP1 PUSH1 0x1F LT PUSH2 0x3FF JUMPI PUSH2 0x100 DUP1 DUP4 SLOAD DIV MUL DUP4 MSTORE SWAP2 PUSH1 0x20 ADD SWAP2 PUSH2 0x428 JUMP JUMPDEST DUP3 ADD SWAP2 SWAP1 PUSH0 MSTORE PUSH1 0x20 PUSH0 KECCAK256 SWAP1 JUMPDEST DUP2 SLOAD DUP2 MSTORE SWAP1 PUSH1 0x1 ADD SWAP1 PUSH1 0x20 ADD DUP1 DUP4 GT PUSH2 0x40B JUMPI DUP3 SWAP1 SUB PUSH1 0x1F AND DUP3 ADD SWAP2 JUMPDEST POP POP POP POP POP DUP2 MSTORE PUSH1 0x20 ADD PUSH1 0x1 DUP3 ADD DUP1 SLOAD PUSH2 0x441 SWAP1 PUSH2 0xC0C JUMP JUMPDEST DUP1 PUSH1 0x1F ADD PUSH1 0x20 DUP1 SWAP2 DIV MUL PUSH1 0x20 ADD PUSH1 0x40 MLOAD SWAP1 DUP2 ADD PUSH1 0x40 MSTORE DUP1 SWAP3 SWAP2 SWAP1 DUP2 DUP2 MSTORE PUSH1 0x20 ADD DUP3 DUP1 SLOAD PUSH2 0x46D SWAP1 PUSH2 0xC0C JUMP JUMPDEST DUP1 ISZERO PUSH2 0x4B8 JUMPI DUP1 PUSH1 0x1F LT PUSH2 0x48F JUMPI PUSH2 0x100 DUP1 DUP4 SLOAD DIV MUL DUP4 MSTORE SWAP2 PUSH1 0x20 ADD SWAP2 PUSH2 0x4B8 JUMP JUMPDEST DUP3 ADD SWAP2 SWAP1 PUSH0 MSTORE PUSH1 0x20 PUSH0 KECCAK256 SWAP1 JUMPDEST DUP2 SLOAD DUP2 MSTORE SWAP1 PUSH1 0x1 ADD SWAP1 PUSH1 0x20 ADD DUP1 DUP4 GT PUSH2 0x49B JUMPI DUP3 SWAP1 SUB PUSH1 0x1F AND DUP3 ADD SWAP2 JUMPDEST POP POP POP POP POP DUP2 MSTORE PUSH1 0x20 ADD PUSH1 0x2 DUP3 ADD SLOAD DUP2 MSTORE PUSH1 0x20 ADD PUSH1 0x3 DUP3 ADD PUSH0 SWAP1 SLOAD SWAP1 PUSH2 0x100 EXP SWAP1 DIV PUSH1 0xFF AND PUSH1 0x2 DUP2 GT ISZERO PUSH2 0x4EF JUMPI PUSH2 0x4EE PUSH2 0xA12 JUMP JUMPDEST JUMPDEST PUSH1 0x2 DUP2 GT ISZERO PUSH2 0x501 JUMPI PUSH2 0x500 PUSH2 0xA12 JUMP JUMPDEST JUMPDEST DUP2 MSTORE PUSH1 0x20 ADD PUSH1 0x4 DUP3 ADD SLOAD DUP2 MSTORE PUSH1 0x20 ADD PUSH1 0x5 DUP3 ADD SLOAD DUP2 MSTORE POP POP SWAP1 POP SWAP2 SWAP1 POP JUMP JUMPDEST PUSH1 0x40 MLOAD DUP1 PUSH1 0xC0 ADD PUSH1 0x40 MSTORE DUP1 PUSH1 0x60 DUP2 MSTORE PUSH1 0x20 ADD PUSH1 0x60 DUP2 MSTORE PUSH1 0x20 ADD PUSH0 DUP2 MSTORE PUSH1 0x20 ADD PUSH0 PUSH1 0x2 DUP2 GT ISZERO PUSH2 0x552 JUMPI PUSH2 0x551 PUSH2 0xA12 JUMP JUMPDEST JUMPDEST DUP2 MSTORE PUSH1 0x20 ADD PUSH0 DUP2 MSTORE PUSH1 0x20 ADD PUSH0 DUP1 NOT AND DUP2 MSTORE POP SWAP1 JUMP JUMPDEST PUSH0 PUSH1 0x40 MLOAD SWAP1 POP SWAP1 JUMP JUMPDEST PUSH0 DUP1 REVERT JUMPDEST PUSH0 DUP1 REVERT JUMPDEST PUSH0 DUP1 REVERT JUMPDEST PUSH0 DUP1 REVERT JUMPDEST PUSH0 PUSH1 0x1F NOT PUSH1 0x1F DUP4 ADD AND SWAP1 POP SWAP2 SWAP1 POP JUMP JUMPDEST PUSH32 0x4E487B7100000000000000000000000000000000000000000000000000000000 PUSH0 MSTORE PUSH1 0x41 PUSH1 0x4 MSTORE PUSH1 0x24 PUSH0 REVERT JUMPDEST PUSH2 0x5C6 DUP3 PUSH2 0x580 JUMP JUMPDEST DUP2 ADD DUP2 DUP2 LT PUSH8 0xFFFFFFFFFFFFFFFF DUP3 GT OR ISZERO PUSH2 0x5E5 JUMPI PUSH2 0x5E4 PUSH2 0x590 JUMP JUMPDEST JUMPDEST DUP1 PUSH1 0x40 MSTORE POP POP POP JUMP JUMPDEST PUSH0 PUSH2 0x5F7 PUSH2 0x567 JUMP JUMPDEST SWAP1 POP PUSH2 0x603 DUP3 DUP3 PUSH2 0x5BD JUMP JUMPDEST SWAP2 SWAP1 POP JUMP JUMPDEST PUSH0 PUSH8 0xFFFFFFFFFFFFFFFF DUP3 GT ISZERO PUSH2 0x622 JUMPI PUSH2 0x621 PUSH2 0x590 JUMP JUMPDEST JUMPDEST PUSH2 0x62B DUP3 PUSH2 0x580 JUMP JUMPDEST SWAP1 POP PUSH1 0x20 DUP2 ADD SWAP1 POP SWAP2 SWAP1 POP JUMP JUMPDEST DUP3 DUP2 DUP4 CALLDATACOPY PUSH0 DUP4 DUP4 ADD MSTORE POP POP POP JUMP JUMPDEST PUSH0 PUSH2 0x658 PUSH2 0x653 DUP5 PUSH2 0x608 JUMP JUMPDEST PUSH2 0x5EE JUMP JUMPDEST SWAP1 POP DUP3 DUP2 MSTORE PUSH1 0x20 DUP2 ADD DUP5 DUP5 DUP5 ADD GT ISZERO PUSH2 0x674 JUMPI PUSH2 0x673 PUSH2 0x57C JUMP JUMPDEST JUMPDEST PUSH2 0x67F DUP5 DUP3 DUP6 PUSH2 0x638 JUMP JUMPDEST POP SWAP4 SWAP3 POP POP POP JUMP JUMPDEST PUSH0 DUP3 PUSH1 0x1F DUP4 ADD SLT PUSH2 0x69B JUMPI PUSH2 0x69A PUSH2 0x578 JUMP JUMPDEST JUMPDEST DUP2 CALLDATALOAD PUSH2 0x6AB DUP5 DUP3 PUSH1 0x20 DUP7 ADD PUSH2 0x646 JUMP JUMPDEST SWAP2 POP POP SWAP3 SWAP2 POP POP JUMP JUMPDEST PUSH0 DUP2 SWAP1 POP SWAP2 SWAP1 POP JUMP JUMPDEST PUSH2 0x6C6 DUP2 PUSH2 0x6B4 JUMP JUMPDEST DUP2 EQ PUSH2 0x6D0 JUMPI PUSH0 DUP1 REVERT JUMPDEST POP JUMP JUMPDEST PUSH0 DUP2 CALLDATALOAD SWAP1 POP PUSH2 0x6E1 DUP2 PUSH2 0x6BD JUMP JUMPDEST SWAP3 SWAP2 POP POP JUMP JUMPDEST PUSH1 0x3 DUP2 LT PUSH2 0x6F3 JUMPI PUSH0 DUP1 REVERT JUMPDEST POP JUMP JUMPDEST PUSH0 DUP2 CALLDATALOAD SWAP1 POP PUSH2 0x704 DUP2 PUSH2 0x6E7 JUMP JUMPDEST SWAP3 SWAP2 POP POP JUMP JUMPDEST PUSH0 DUP2 SWAP1 POP SWAP2 SWAP1 POP JUMP JUMPDEST PUSH2 0x71C DUP2 PUSH2 0x70A JUMP JUMPDEST DUP2 EQ PUSH2 0x726 JUMPI PUSH0 DUP1 REVERT JUMPDEST POP JUMP JUMPDEST PUSH0 DUP2 CALLDATALOAD SWAP1 POP PUSH2 0x737 DUP2 PUSH2 0x713 JUMP JUMPDEST SWAP3 SWAP2 POP POP JUMP JUMPDEST PUSH0 DUP1 PUSH0 DUP1 PUSH0 DUP1 PUSH1 0xC0 DUP8 DUP10 SUB SLT ISZERO PUSH2 0x757 JUMPI PUSH2 0x756 PUSH2 0x570 JUMP JUMPDEST JUMPDEST PUSH0 DUP8 ADD CALLDATALOAD PUSH8 0xFFFFFFFFFFFFFFFF DUP2 GT ISZERO PUSH2 0x774 JUMPI PUSH2 0x773 PUSH2 0x574 JUMP JUMPDEST JUMPDEST PUSH2 0x780 DUP10 DUP3 DUP11 ADD PUSH2 0x687 JUMP JUMPDEST SWAP7 POP POP PUSH1 0x20 DUP8 ADD CALLDATALOAD PUSH8 0xFFFFFFFFFFFFFFFF DUP2 GT ISZERO PUSH2 0x7A1 JUMPI PUSH2 0x7A0 PUSH2 0x574 JUMP JUMPDEST JUMPDEST PUSH2 0x7AD DUP10 DUP3 DUP11 ADD PUSH2 0x687 JUMP JUMPDEST SWAP6 POP POP PUSH1 0x40 PUSH2 0x7BE DUP10 DUP3 DUP11 ADD PUSH2 0x6D3 JUMP JUMPDEST SWAP5 POP POP PUSH1 0x60 PUSH2 0x7CF DUP10 DUP3 DUP11 ADD PUSH2 0x6F6 JUMP JUMPDEST SWAP4 POP POP PUSH1 0x80 PUSH2 0x7E0 DUP10 DUP3 DUP11 ADD PUSH2 0x6D3 JUMP JUMPDEST SWAP3 POP POP PUSH1 0xA0 PUSH2 0x7F1 DUP10 DUP3 DUP11 ADD PUSH2 0x729 JUMP JUMPDEST SWAP2 POP POP SWAP3 SWAP6 POP SWAP3 SWAP6 POP SWAP3 SWAP6 JUMP JUMPDEST PUSH2 0x807 DUP2 PUSH2 0x6B4 JUMP JUMPDEST DUP3 MSTORE POP POP JUMP JUMPDEST PUSH0 PUSH1 0x20 DUP3 ADD SWAP1 POP PUSH2 0x820 PUSH0 DUP4 ADD DUP5 PUSH2 0x7FE JUMP JUMPDEST SWAP3 SWAP2 POP POP JUMP JUMPDEST PUSH0 DUP1 PUSH0 DUP1 PUSH1 0x80 DUP6 DUP8 SUB SLT ISZERO PUSH2 0x83E JUMPI PUSH2 0x83D PUSH2 0x570 JUMP JUMPDEST JUMPDEST PUSH0 PUSH2 0x84B DUP8 DUP3 DUP9 ADD PUSH2 0x6D3 JUMP JUMPDEST SWAP5 POP POP PUSH1 0x20 DUP6 ADD CALLDATALOAD PUSH8 0xFFFFFFFFFFFFFFFF DUP2 GT ISZERO PUSH2 0x86C JUMPI PUSH2 0x86B PUSH2 0x574 JUMP JUMPDEST JUMPDEST PUSH2 0x878 DUP8 DUP3 DUP9 ADD PUSH2 0x687 JUMP JUMPDEST SWAP4 POP POP PUSH1 0x40 DUP6 ADD CALLDATALOAD PUSH8 0xFFFFFFFFFFFFFFFF DUP2 GT ISZERO PUSH2 0x899 JUMPI PUSH2 0x898 PUSH2 0x574 JUMP JUMPDEST JUMPDEST PUSH2 0x8A5 DUP8 DUP3 DUP9 ADD PUSH2 0x687 JUMP JUMPDEST SWAP3 POP POP PUSH1 0x60 DUP6 ADD CALLDATALOAD PUSH8 0xFFFFFFFFFFFFFFFF DUP2 GT ISZERO PUSH2 0x8C6 JUMPI PUSH2 0x8C5 PUSH2 0x574 JUMP JUMPDEST JUMPDEST PUSH2 0x8D2 DUP8 DUP3 DUP9 ADD PUSH2 0x687 JUMP JUMPDEST SWAP2 POP POP SWAP3 SWAP6 SWAP2 SWAP5 POP SWAP3 POP JUMP JUMPDEST PUSH2 0x8E7 DUP2 PUSH2 0x70A JUMP JUMPDEST DUP3 MSTORE POP POP JUMP JUMPDEST PUSH0 PUSH1 0x20 DUP3 ADD SWAP1 POP PUSH2 0x900 PUSH0 DUP4 ADD DUP5 PUSH2 0x8DE JUMP JUMPDEST SWAP3 SWAP2 POP POP JUMP JUMPDEST PUSH0 PUSH20 0xFFFFFFFFFFFFFFFFFFFFFFFFFFFFFFFFFFFFFFFF DUP3 AND SWAP1 POP SWAP2 SWAP1 POP JUMP JUMPDEST PUSH0 PUSH2 0x92F DUP3 PUSH2 0x906 JUMP JUMPDEST SWAP1 POP SWAP2 SWAP1 POP JUMP JUMPDEST PUSH2 0x93F DUP2 PUSH2 0x925 JUMP JUMPDEST DUP3 MSTORE POP POP JUMP JUMPDEST PUSH0 PUSH1 0x20 DUP3 ADD SWAP1 POP PUSH2 0x958 PUSH0 DUP4 ADD DUP5 PUSH2 0x936 JUMP JUMPDEST SWAP3 SWAP2 POP POP JUMP JUMPDEST PUSH0 PUSH1 0x20 DUP3 DUP5 SUB SLT ISZERO PUSH2 0x973 JUMPI PUSH2 0x972 PUSH2 0x570 JUMP JUMPDEST JUMPDEST PUSH0 PUSH2 0x980 DUP5 DUP3 DUP6 ADD PUSH2 0x6D3 JUMP JUMPDEST SWAP2 POP POP SWAP3 SWAP2 POP POP JUMP JUMPDEST PUSH0 DUP2 MLOAD SWAP1 POP SWAP2 SWAP1 POP JUMP JUMPDEST PUSH0 DUP3 DUP3 MSTORE PUSH1 0x20 DUP3 ADD SWAP1 POP SWAP3 SWAP2 POP POP JUMP JUMPDEST PUSH0 JUMPDEST DUP4 DUP2 LT ISZERO PUSH2 0x9C0 JUMPI DUP1 DUP3 ADD MLOAD DUP2 DUP5 ADD MSTORE PUSH1 0x20 DUP2 ADD SWAP1 POP PUSH2 0x9A5 JUMP JUMPDEST PUSH0 DUP5 DUP5 ADD MSTORE POP POP POP POP JUMP JUMPDEST PUSH0 PUSH2 0x9D5 DUP3 PUSH2 0x989 JUMP JUMPDEST PUSH2 0x9DF DUP2 DUP6 PUSH2 0x993 JUMP JUMPDEST SWAP4 POP PUSH2 0x9EF DUP2 DUP6 PUSH1 0x20 DUP7 ADD PUSH2 0x9A3 JUMP JUMPDEST PUSH2 0x9F8 DUP2 PUSH2 0x580 JUMP JUMPDEST DUP5 ADD SWAP2 POP POP SWAP3 SWAP2 POP POP JUMP JUMPDEST PUSH2 0xA0C DUP2 PUSH2 0x6B4 JUMP JUMPDEST DUP3 MSTORE POP POP JUMP JUMPDEST PUSH32 0x4E487B7100000000000000000000000000000000000000000000000000000000 PUSH0 MSTORE PUSH1 0x21 PUSH1 0x4 MSTORE PUSH1 0x24 PUSH0 REVERT JUMPDEST PUSH1 0x3 DUP2 LT PUSH2 0xA50 JUMPI PUSH2 0xA4F PUSH2 0xA12 JUMP JUMPDEST JUMPDEST POP JUMP JUMPDEST PUSH0 DUP2 SWAP1 POP PUSH2 0xA60 DUP3 PUSH2 0xA3F JUMP JUMPDEST SWAP2 SWAP1 POP JUMP JUMPDEST PUSH0 PUSH2 0xA6F DUP3 PUSH2 0xA53 JUMP JUMPDEST SWAP1 POP SWAP2 SWAP1 POP JUMP JUMPDEST PUSH2 0xA7F DUP2 PUSH2 0xA65 JUMP JUMPDEST DUP3 MSTORE POP POP JUMP JUMPDEST PUSH2 0xA8E DUP2 PUSH2 0x70A JUMP JUMPDEST DUP3 MSTORE POP POP JUMP JUMPDEST PUSH0 PUSH1 0xC0 DUP4 ADD PUSH0 DUP4 ADD MLOAD DUP5 DUP3 SUB PUSH0 DUP7 ADD MSTORE PUSH2 0xAAE DUP3 DUP3 PUSH2 0x9CB JUMP JUMPDEST SWAP2 POP POP PUSH1 0x20 DUP4 ADD MLOAD DUP5 DUP3 SUB PUSH1 0x20 DUP7 ADD MSTORE PUSH2 0xAC8 DUP3 DUP3 PUSH2 0x9CB JUMP JUMPDEST SWAP2 POP POP PUSH1 0x40 DUP4 ADD MLOAD PUSH2 0xADD PUSH1 0x40 DUP7 ADD DUP3 PUSH2 0xA03 JUMP JUMPDEST POP PUSH1 0x60 DUP4 ADD MLOAD PUSH2 0xAF0 PUSH1 0x60 DUP7 ADD DUP3 PUSH2 0xA76 JUMP JUMPDEST POP PUSH1 0x80 DUP4 ADD MLOAD PUSH2 0xB03 PUSH1 0x80 DUP7 ADD DUP3 PUSH2 0xA03 JUMP JUMPDEST POP PUSH1 0xA0 DUP4 ADD MLOAD PUSH2 0xB16 PUSH1 0xA0 DUP7 ADD DUP3 PUSH2 0xA85 JUMP JUMPDEST POP DUP1 SWAP2 POP POP SWAP3 SWAP2 POP POP JUMP JUMPDEST PUSH0 PUSH1 0x20 DUP3 ADD SWAP1 POP DUP2 DUP2 SUB PUSH0 DUP4 ADD MSTORE PUSH2 0xB39 DUP2 DUP5 PUSH2 0xA94 JUMP JUMPDEST SWAP1 POP SWAP3 SWAP2 POP POP JUMP JUMPDEST PUSH0 DUP3 DUP3 MSTORE PUSH1 0x20 DUP3 ADD SWAP1 POP SWAP3 SWAP2 POP POP JUMP JUMPDEST PUSH32 0x4F6E6C792074686520636F6E7472616374206F776E65722063616E2070657266 PUSH0 DUP3 ADD MSTORE PUSH32 0x6F726D2074686973206F7065726174696F6E0000000000000000000000000000 PUSH1 0x20 DUP3 ADD MSTORE POP JUMP JUMPDEST PUSH0 PUSH2 0xBAB PUSH1 0x32 DUP4 PUSH2 0xB41 JUMP JUMPDEST SWAP2 POP PUSH2 0xBB6 DUP3 PUSH2 0xB51 JUMP JUMPDEST PUSH1 0x40 DUP3 ADD SWAP1 POP SWAP2 SWAP1 POP JUMP JUMPDEST PUSH0 PUSH1 0x20 DUP3 ADD SWAP1 POP DUP2 DUP2 SUB PUSH0 DUP4 ADD MSTORE PUSH2 0xBD8 DUP2 PUSH2 0xB9F JUMP JUMPDEST SWAP1 POP SWAP2 SWAP1 POP JUMP JUMPDEST PUSH32 0x4E487B7100000000000000000000000000000000000000000000000000000000 PUSH0 MSTORE PUSH1 0x22 PUSH1 0x4 MSTORE PUSH1 0x24 PUSH0 REVERT JUMPDEST PUSH0 PUSH1 0x2 DUP3 DIV SWAP1 POP PUSH1 0x1 DUP3 AND DUP1 PUSH2 0xC23 JUMPI PUSH1 0x7F DUP3 AND SWAP2 POP JUMPDEST PUSH1 0x20 DUP3 LT DUP2 SUB PUSH2 0xC36 JUMPI PUSH2 0xC35 PUSH2 0xBDF JUMP JUMPDEST JUMPDEST POP SWAP2 SWAP1 POP JUMP JUMPDEST PUSH0 DUP2 SWAP1 POP DUP2 PUSH0 MSTORE PUSH1 0x20 PUSH0 KECCAK256 SWAP1 POP SWAP2 SWAP1 POP JUMP JUMPDEST PUSH0 PUSH1 0x20 PUSH1 0x1F DUP4 ADD DIV SWAP1 POP SWAP2 SWAP1 POP JUMP JUMPDEST PUSH0 DUP3 DUP3 SHL SWAP1 POP SWAP3 SWAP2 POP POP JUMP JUMPDEST PUSH0 PUSH1 0x8 DUP4 MUL PUSH2 0xC98 PUSH32 0xFFFFFFFFFFFFFFFFFFFFFFFFFFFFFFFFFFFFFFFFFFFFFFFFFFFFFFFFFFFFFFFF DUP3 PUSH2 0xC5D JUMP JUMPDEST PUSH2 0xCA2 DUP7 DUP4 PUSH2 0xC5D JUMP JUMPDEST SWAP6 POP DUP1 NOT DUP5 AND SWAP4 POP DUP1 DUP7 AND DUP5 OR SWAP3 POP POP POP SWAP4 SWAP3 POP POP POP JUMP JUMPDEST PUSH0 DUP2 SWAP1 POP SWAP2 SWAP1 POP JUMP JUMPDEST PUSH0 PUSH2 0xCDD PUSH2 0xCD8 PUSH2 0xCD3 DUP5 PUSH2 0x6B4 JUMP JUMPDEST PUSH2 0xCBA JUMP JUMPDEST PUSH2 0x6B4 JUMP JUMPDEST SWAP1 POP SWAP2 SWAP1 POP JUMP JUMPDEST PUSH0 DUP2 SWAP1 POP SWAP2 SWAP1 POP JUMP JUMPDEST PUSH2 0xCF6 DUP4 PUSH2 0xCC3 JUMP JUMPDEST PUSH2 0xD0A PUSH2 0xD02 DUP3 PUSH2 0xCE4 JUMP JUMPDEST DUP5 DUP5 SLOAD PUSH2 0xC69 JUMP JUMPDEST DUP3 SSTORE POP POP POP POP JUMP JUMPDEST PUSH0 SWAP1 JUMP JUMPDEST PUSH2 0xD1E PUSH2 0xD12 JUMP JUMPDEST PUSH2 0xD29 DUP2 DUP5 DUP5 PUSH2 0xCED JUMP JUMPDEST POP POP POP JUMP JUMPDEST JUMPDEST DUP2 DUP2 LT ISZERO PUSH2 0xD4C JUMPI PUSH2 0xD41 PUSH0 DUP3 PUSH2 0xD16 JUMP JUMPDEST PUSH1 0x1 DUP2 ADD SWAP1 POP PUSH2 0xD2F JUMP JUMPDEST POP POP JUMP JUMPDEST PUSH1 0x1F DUP3 GT ISZERO PUSH2 0xD91 JUMPI PUSH2 0xD62 DUP2 PUSH2 0xC3C JUMP JUMPDEST PUSH2 0xD6B DUP5 PUSH2 0xC4E JUMP JUMPDEST DUP2 ADD PUSH1 0x20 DUP6 LT ISZERO PUSH2 0xD7A JUMPI DUP2 SWAP1 POP JUMPDEST PUSH2 0xD8E PUSH2 0xD86 DUP6 PUSH2 0xC4E JUMP JUMPDEST DUP4 ADD DUP3 PUSH2 0xD2E JUMP JUMPDEST POP POP JUMPDEST POP POP POP JUMP JUMPDEST PUSH0 DUP3 DUP3 SHR SWAP1 POP SWAP3 SWAP2 POP POP JUMP JUMPDEST PUSH0 PUSH2 0xDB1 PUSH0 NOT DUP5 PUSH1 0x8 MUL PUSH2 0xD96 JUMP JUMPDEST NOT DUP1 DUP4 AND SWAP2 POP POP SWAP3 SWAP2 POP POP JUMP JUMPDEST PUSH0 PUSH2 0xDC9 DUP4 DUP4 PUSH2 0xDA2 JUMP JUMPDEST SWAP2 POP DUP3 PUSH1 0x2 MUL DUP3 OR SWAP1 POP SWAP3 SWAP2 POP POP JUMP JUMPDEST PUSH2 0xDE2 DUP3 PUSH2 0x989 JUMP JUMPDEST PUSH8 0xFFFFFFFFFFFFFFFF DUP2 GT ISZERO PUSH2 0xDFB JUMPI PUSH2 0xDFA PUSH2 0x590 JUMP JUMPDEST JUMPDEST PUSH2 0xE05 DUP3 SLOAD PUSH2 0xC0C JUMP JUMPDEST PUSH2 0xE10 DUP3 DUP3 DUP6 PUSH2 0xD50 JUMP JUMPDEST PUSH0 PUSH1 0x20 SWAP1 POP PUSH1 0x1F DUP4 GT PUSH1 0x1 DUP2 EQ PUSH2 0xE41 JUMPI PUSH0 DUP5 ISZERO PUSH2 0xE2F JUMPI DUP3 DUP8 ADD MLOAD SWAP1 POP JUMPDEST PUSH2 0xE39 DUP6 DUP3 PUSH2 0xDBE JUMP JUMPDEST DUP7 SSTORE POP PUSH2 0xEA0 JUMP JUMPDEST PUSH1 0x1F NOT DUP5 AND PUSH2 0xE4F DUP7 PUSH2 0xC3C JUMP JUMPDEST PUSH0 JUMPDEST DUP3 DUP2 LT ISZERO PUSH2 0xE76 JUMPI DUP5 DUP10 ADD MLOAD DUP3 SSTORE PUSH1 0x1 DUP3 ADD SWAP2 POP PUSH1 0x20 DUP6 ADD SWAP5 POP PUSH1 0x20 DUP2 ADD SWAP1 POP PUSH2 0xE51 JUMP JUMPDEST DUP7 DUP4 LT ISZERO PUSH2 0xE93 JUMPI DUP5 DUP10 ADD MLOAD PUSH2 0xE8F PUSH1 0x1F DUP10 AND DUP3 PUSH2 0xDA2 JUMP JUMPDEST DUP4 SSTORE POP JUMPDEST PUSH1 0x1 PUSH1 0x2 DUP9 MUL ADD DUP9 SSTORE POP POP POP JUMPDEST POP POP POP POP POP POP JUMP JUMPDEST PUSH32 0x4E487B7100000000000000000000000000000000000000000000000000000000 PUSH0 MSTORE PUSH1 0x11 PUSH1 0x4 MSTORE PUSH1 0x24 PUSH0 REVERT JUMPDEST PUSH0 PUSH2 0xEDF DUP3 PUSH2 0x6B4 JUMP JUMPDEST SWAP2 POP PUSH32 0xFFFFFFFFFFFFFFFFFFFFFFFFFFFFFFFFFFFFFFFFFFFFFFFFFFFFFFFFFFFFFFFF DUP3 SUB PUSH2 0xF11 JUMPI PUSH2 0xF10 PUSH2 0xEA8 JUMP JUMPDEST JUMPDEST PUSH1 0x1 DUP3 ADD SWAP1 POP SWAP2 SWAP1 POP JUMP JUMPDEST PUSH0 DUP2 SWAP1 POP SWAP2 SWAP1 POP JUMP JUMPDEST PUSH2 0xF36 PUSH2 0xF31 DUP3 PUSH2 0x6B4 JUMP JUMPDEST PUSH2 0xF1C JUMP JUMPDEST DUP3 MSTORE POP POP JUMP JUMPDEST PUSH0 DUP2 SWAP1 POP SWAP3 SWAP2 POP POP JUMP JUMPDEST PUSH0 PUSH2 0xF50 DUP3 PUSH2 0x989 JUMP JUMPDEST PUSH2 0xF5A DUP2 DUP6 PUSH2 0xF3C JUMP JUMPDEST SWAP4 POP PUSH2 0xF6A DUP2 DUP6 PUSH1 0x20 DUP7 ADD PUSH2 0x9A3 JUMP JUMPDEST DUP1 DUP5 ADD SWAP2 POP POP SWAP3 SWAP2 POP POP JUMP JUMPDEST PUSH0 PUSH2 0xF81 DUP3 DUP8 PUSH2 0xF25 JUMP JUMPDEST PUSH1 0x20 DUP3 ADD SWAP2 POP PUSH2 0xF91 DUP3 DUP7 PUSH2 0xF46 JUMP JUMPDEST SWAP2 POP PUSH2 0xF9D DUP3 DUP6 PUSH2 0xF46 JUMP JUMPDEST SWAP2 POP PUSH2 0xFA9 DUP3 DUP5 PUSH2 0xF46 JUMP JUMPDEST SWAP2 POP DUP2 SWAP1 POP SWAP6 SWAP5 POP POP POP POP POP JUMP JUMPDEST PUSH32 0x44617461205573657220646F6573206E6F742065786973742E00000000000000 PUSH0 DUP3 ADD MSTORE POP JUMP JUMPDEST PUSH0 PUSH2 0xFEB PUSH1 0x19 DUP4 PUSH2 0xB41 JUMP JUMPDEST SWAP2 POP PUSH2 0xFF6 DUP3 PUSH2 0xFB7 JUMP JUMPDEST PUSH1 0x20 DUP3 ADD SWAP1 POP SWAP2 SWAP1 POP JUMP JUMPDEST PUSH0 PUSH1 0x20 DUP3 ADD SWAP1 POP DUP2 DUP2 SUB PUSH0 DUP4 ADD MSTORE PUSH2 0x1018 DUP2 PUSH2 0xFDF JUMP JUMPDEST SWAP1 POP SWAP2 SWAP1 POP JUMP INVALID LOG2 PUSH5 0x6970667358 0x22 SLT KECCAK256 0xAA 0x27 0xE8 SSTORE SWAP7 EXTCODEHASH MUL CALLER 0xC8 0xAC JUMPDEST CODECOPY 0xD9 0xDE OR DELEGATECALL 0xE5 DUP6 0xE JUMPDEST DUP12 KECCAK256 0x28 CALLDATACOPY SWAP8 CREATE2 LOG1 0x27 0xCE EXP 0xA5 SWAP6 PUSH5 0x736F6C6343 STOP ADDMOD XOR STOP CALLER PUSH1 0x80 PUSH1 0x40 MSTORE PUSH0 PUSH1 0x3 SSTORE CALLVALUE DUP1 ISZERO PUSH2 0x13 JUMPI PUSH0 DUP1 REVERT JUMPDEST POP CALLER PUSH0 DUP1 PUSH2 0x100 EXP DUP2 SLOAD DUP2 PUSH20 0xFFFFFFFFFFFFFFFFFFFFFFFFFFFFFFFFFFFFFFFF MUL NOT AND SWAP1 DUP4 PUSH20 0xFFFFFFFFFFFFFFFFFFFFFFFFFFFFFFFFFFFFFFFF AND MUL OR SWAP1 SSTORE POP PUSH2 0x8C2 DUP1 PUSH2 0x60 PUSH0 CODECOPY PUSH0 RETURN INVALID PUSH1 0x80 PUSH1 0x40 MSTORE CALLVALUE DUP1 ISZERO PUSH2 0xF JUMPI PUSH0 DUP1 REVERT JUMPDEST POP PUSH1 0x4 CALLDATASIZE LT PUSH2 0x55 JUMPI PUSH0 CALLDATALOAD PUSH1 0xE0 SHR DUP1 PUSH4 0x8DA5CB5B EQ PUSH2 0x59 JUMPI DUP1 PUSH4 0x918950C7 EQ PUSH2 0x77 JUMPI DUP1 PUSH4 0xCA994017 EQ PUSH2 0x95 JUMPI DUP1 PUSH4 0xE27A4B11 EQ PUSH2 0xB1 JUMPI DUP1 PUSH4 0xE875B1CA EQ PUSH2 0xCF JUMPI JUMPDEST PUSH0 DUP1 REVERT JUMPDEST PUSH2 0x61 PUSH2 0xFF JUMP JUMPDEST PUSH1 0x40 MLOAD PUSH2 0x6E SWAP2 SWAP1 PUSH2 0x472 JUMP JUMPDEST PUSH1 0x40 MLOAD DUP1 SWAP2 SUB SWAP1 RETURN JUMPDEST PUSH2 0x7F PUSH2 0x122 JUMP JUMPDEST PUSH1 0x40 MLOAD PUSH2 0x8C SWAP2 SWAP1 PUSH2 0x4A3 JUMP JUMPDEST PUSH1 0x40 MLOAD DUP1 SWAP2 SUB SWAP1 RETURN JUMPDEST PUSH2 0xAF PUSH1 0x4 DUP1 CALLDATASIZE SUB DUP2 ADD SWAP1 PUSH2 0xAA SWAP2 SWAP1 PUSH2 0x549 JUMP JUMPDEST PUSH2 0x12B JUMP JUMPDEST STOP JUMPDEST PUSH2 0xB9 PUSH2 0x2AE JUMP JUMPDEST PUSH1 0x40 MLOAD PUSH2 0xC6 SWAP2 SWAP1 PUSH2 0x650 JUMP JUMPDEST PUSH1 0x40 MLOAD DUP1 SWAP2 SUB SWAP1 RETURN JUMPDEST PUSH2 0xE9 PUSH1 0x4 DUP1 CALLDATASIZE SUB DUP2 ADD SWAP1 PUSH2 0xE4 SWAP2 SWAP1 PUSH2 0x670 JUMP JUMPDEST PUSH2 0x304 JUMP JUMPDEST PUSH1 0x40 MLOAD PUSH2 0xF6 SWAP2 SWAP1 PUSH2 0x6F9 JUMP JUMPDEST PUSH1 0x40 MLOAD DUP1 SWAP2 SUB SWAP1 RETURN JUMPDEST PUSH0 DUP1 SLOAD SWAP1 PUSH2 0x100 EXP SWAP1 DIV PUSH20 0xFFFFFFFFFFFFFFFFFFFFFFFFFFFFFFFFFFFFFFFF AND DUP2 JUMP JUMPDEST PUSH0 PUSH1 0x3 SLOAD SWAP1 POP SWAP1 JUMP JUMPDEST PUSH0 DUP1 SLOAD SWAP1 PUSH2 0x100 EXP SWAP1 DIV PUSH20 0xFFFFFFFFFFFFFFFFFFFFFFFFFFFFFFFFFFFFFFFF AND PUSH20 0xFFFFFFFFFFFFFFFFFFFFFFFFFFFFFFFFFFFFFFFF AND CALLER PUSH20 0xFFFFFFFFFFFFFFFFFFFFFFFFFFFFFFFFFFFFFFFF AND EQ PUSH2 0x1B8 JUMPI PUSH1 0x40 MLOAD PUSH32 0x8C379A000000000000000000000000000000000000000000000000000000000 DUP2 MSTORE PUSH1 0x4 ADD PUSH2 0x1AF SWAP1 PUSH2 0x792 JUMP JUMPDEST PUSH1 0x40 MLOAD DUP1 SWAP2 SUB SWAP1 REVERT JUMPDEST PUSH1 0x40 MLOAD DUP1 PUSH1 0x60 ADD PUSH1 0x40 MSTORE DUP1 DUP5 PUSH20 0xFFFFFFFFFFFFFFFFFFFFFFFFFFFFFFFFFFFFFFFF AND DUP2 MSTORE PUSH1 0x20 ADD DUP4 DUP2 MSTORE PUSH1 0x20 ADD DUP3 ISZERO ISZERO DUP2 MSTORE POP PUSH1 0x1 PUSH0 DUP5 DUP2 MSTORE PUSH1 0x20 ADD SWAP1 DUP2 MSTORE PUSH1 0x20 ADD PUSH0 KECCAK256 PUSH0 DUP3 ADD MLOAD DUP2 PUSH0 ADD PUSH0 PUSH2 0x100 EXP DUP2 SLOAD DUP2 PUSH20 0xFFFFFFFFFFFFFFFFFFFFFFFFFFFFFFFFFFFFFFFF MUL NOT AND SWAP1 DUP4 PUSH20 0xFFFFFFFFFFFFFFFFFFFFFFFFFFFFFFFFFFFFFFFF AND MUL OR SWAP1 SSTORE POP PUSH1 0x20 DUP3 ADD MLOAD DUP2 PUSH1 0x1 ADD SSTORE PUSH1 0x40 DUP3 ADD MLOAD DUP2 PUSH1 0x2 ADD PUSH0 PUSH2 0x100 EXP DUP2 SLOAD DUP2 PUSH1 0xFF MUL NOT AND SWAP1 DUP4 ISZERO ISZERO MUL OR SWAP1 SSTORE POP SWAP1 POP POP PUSH1 0x2 DUP3 SWAP1 DUP1 PUSH1 0x1 DUP2 SLOAD ADD DUP1 DUP3 SSTORE DUP1 SWAP2 POP POP PUSH1 0x1 SWAP1 SUB SWAP1 PUSH0 MSTORE PUSH1 0x20 PUSH0 KECCAK256 ADD PUSH0 SWAP1 SWAP2 SWAP1 SWAP2 SWAP1 SWAP2 POP SSTORE PUSH1 0x3 PUSH0 DUP2 SLOAD DUP1 SWAP3 SWAP2 SWAP1 PUSH2 0x2A4 SWAP1 PUSH2 0x7DD JUMP JUMPDEST SWAP2 SWAP1 POP SSTORE POP POP POP POP JUMP JUMPDEST PUSH1 0x60 PUSH1 0x2 DUP1 SLOAD DUP1 PUSH1 0x20 MUL PUSH1 0x20 ADD PUSH1 0x40 MLOAD SWAP1 DUP2 ADD PUSH1 0x40 MSTORE DUP1 SWAP3 SWAP2 SWAP1 DUP2 DUP2 MSTORE PUSH1 0x20 ADD DUP3 DUP1 SLOAD DUP1 ISZERO PUSH2 0x2FA JUMPI PUSH1 0x20 MUL DUP3 ADD SWAP2 SWAP1 PUSH0 MSTORE PUSH1 0x20 PUSH0 KECCAK256 SWAP1 JUMPDEST DUP2 SLOAD DUP2 MSTORE PUSH1 0x20 ADD SWAP1 PUSH1 0x1 ADD SWAP1 DUP1 DUP4 GT PUSH2 0x2E6 JUMPI JUMPDEST POP POP POP POP POP SWAP1 POP SWAP1 JUMP JUMPDEST PUSH2 0x30C PUSH2 0x3FD JUMP JUMPDEST PUSH0 PUSH1 0x1 PUSH0 DUP5 DUP2 MSTORE PUSH1 0x20 ADD SWAP1 DUP2 MSTORE PUSH1 0x20 ADD PUSH0 KECCAK256 PUSH1 0x1 ADD SLOAD SUB PUSH2 0x362 JUMPI PUSH1 0x40 MLOAD PUSH32 0x8C379A000000000000000000000000000000000000000000000000000000000 DUP2 MSTORE PUSH1 0x4 ADD PUSH2 0x359 SWAP1 PUSH2 0x86E JUMP JUMPDEST PUSH1 0x40 MLOAD DUP1 SWAP2 SUB SWAP1 REVERT JUMPDEST PUSH1 0x1 PUSH0 DUP4 DUP2 MSTORE PUSH1 0x20 ADD SWAP1 DUP2 MSTORE PUSH1 0x20 ADD PUSH0 KECCAK256 PUSH1 0x40 MLOAD DUP1 PUSH1 0x60 ADD PUSH1 0x40 MSTORE SWAP1 DUP2 PUSH0 DUP3 ADD PUSH0 SWAP1 SLOAD SWAP1 PUSH2 0x100 EXP SWAP1 DIV PUSH20 0xFFFFFFFFFFFFFFFFFFFFFFFFFFFFFFFFFFFFFFFF AND PUSH20 0xFFFFFFFFFFFFFFFFFFFFFFFFFFFFFFFFFFFFFFFF AND PUSH20 0xFFFFFFFFFFFFFFFFFFFFFFFFFFFFFFFFFFFFFFFF AND DUP2 MSTORE PUSH1 0x20 ADD PUSH1 0x1 DUP3 ADD SLOAD DUP2 MSTORE PUSH1 0x20 ADD PUSH1 0x2 DUP3 ADD PUSH0 SWAP1 SLOAD SWAP1 PUSH2 0x100 EXP SWAP1 DIV PUSH1 0xFF AND ISZERO ISZERO ISZERO ISZERO DUP2 MSTORE POP POP SWAP1 POP SWAP2 SWAP1 POP JUMP JUMPDEST PUSH1 0x40 MLOAD DUP1 PUSH1 0x60 ADD PUSH1 0x40 MSTORE DUP1 PUSH0 PUSH20 0xFFFFFFFFFFFFFFFFFFFFFFFFFFFFFFFFFFFFFFFF AND DUP2 MSTORE PUSH1 0x20 ADD PUSH0 DUP2 MSTORE PUSH1 0x20 ADD PUSH0 ISZERO ISZERO DUP2 MSTORE POP SWAP1 JUMP JUMPDEST PUSH0 PUSH20 0xFFFFFFFFFFFFFFFFFFFFFFFFFFFFFFFFFFFFFFFF DUP3 AND SWAP1 POP SWAP2 SWAP1 POP JUMP JUMPDEST PUSH0 PUSH2 0x45C DUP3 PUSH2 0x433 JUMP JUMPDEST SWAP1 POP SWAP2 SWAP1 POP JUMP JUMPDEST PUSH2 0x46C DUP2 PUSH2 0x452 JUMP JUMPDEST DUP3 MSTORE POP POP JUMP JUMPDEST PUSH0 PUSH1 0x20 DUP3 ADD SWAP1 POP PUSH2 0x485 PUSH0 DUP4 ADD DUP5 PUSH2 0x463 JUMP JUMPDEST SWAP3 SWAP2 POP POP JUMP JUMPDEST PUSH0 DUP2 SWAP1 POP SWAP2 SWAP1 POP JUMP JUMPDEST PUSH2 0x49D DUP2 PUSH2 0x48B JUMP JUMPDEST DUP3 MSTORE POP POP JUMP JUMPDEST PUSH0 PUSH1 0x20 DUP3 ADD SWAP1 POP PUSH2 0x4B6 PUSH0 DUP4 ADD DUP5 PUSH2 0x494 JUMP JUMPDEST SWAP3 SWAP2 POP POP JUMP JUMPDEST PUSH0 DUP1 REVERT JUMPDEST PUSH2 0x4C9 DUP2 PUSH2 0x452 JUMP JUMPDEST DUP2 EQ PUSH2 0x4D3 JUMPI PUSH0 DUP1 REVERT JUMPDEST POP JUMP JUMPDEST PUSH0 DUP2 CALLDATALOAD SWAP1 POP PUSH2 0x4E4 DUP2 PUSH2 0x4C0 JUMP JUMPDEST SWAP3 SWAP2 POP POP JUMP JUMPDEST PUSH2 0x4F3 DUP2 PUSH2 0x48B JUMP JUMPDEST DUP2 EQ PUSH2 0x4FD JUMPI PUSH0 DUP1 REVERT JUMPDEST POP JUMP JUMPDEST PUSH0 DUP2 CALLDATALOAD SWAP1 POP PUSH2 0x50E DUP2 PUSH2 0x4EA JUMP JUMPDEST SWAP3 SWAP2 POP POP JUMP JUMPDEST PUSH0 DUP2 ISZERO ISZERO SWAP1 POP SWAP2 SWAP1 POP JUMP JUMPDEST PUSH2 0x528 DUP2 PUSH2 0x514 JUMP JUMPDEST DUP2 EQ PUSH2 0x532 JUMPI PUSH0 DUP1 REVERT JUMPDEST POP JUMP JUMPDEST PUSH0 DUP2 CALLDATALOAD SWAP1 POP PUSH2 0x543 DUP2 PUSH2 0x51F JUMP JUMPDEST SWAP3 SWAP2 POP POP JUMP JUMPDEST PUSH0 DUP1 PUSH0 PUSH1 0x60 DUP5 DUP7 SUB SLT ISZERO PUSH2 0x560 JUMPI PUSH2 0x55F PUSH2 0x4BC JUMP JUMPDEST JUMPDEST PUSH0 PUSH2 0x56D DUP7 DUP3 DUP8 ADD PUSH2 0x4D6 JUMP JUMPDEST SWAP4 POP POP PUSH1 0x20 PUSH2 0x57E DUP7 DUP3 DUP8 ADD PUSH2 0x500 JUMP JUMPDEST SWAP3 POP POP PUSH1 0x40 PUSH2 0x58F DUP7 DUP3 DUP8 ADD PUSH2 0x535 JUMP JUMPDEST SWAP2 POP POP SWAP3 POP SWAP3 POP SWAP3 JUMP JUMPDEST PUSH0 DUP2 MLOAD SWAP1 POP SWAP2 SWAP1 POP JUMP JUMPDEST PUSH0 DUP3 DUP3 MSTORE PUSH1 0x20 DUP3 ADD SWAP1 POP SWAP3 SWAP2 POP POP JUMP JUMPDEST PUSH0 DUP2 SWAP1 POP PUSH1 0x20 DUP3 ADD SWAP1 POP SWAP2 SWAP1 POP JUMP JUMPDEST PUSH2 0x5CB DUP2 PUSH2 0x48B JUMP JUMPDEST DUP3 MSTORE POP POP JUMP JUMPDEST PUSH0 PUSH2 0x5DC DUP4 DUP4 PUSH2 0x5C2 JUMP JUMPDEST PUSH1 0x20 DUP4 ADD SWAP1 POP SWAP3 SWAP2 POP POP JUMP JUMPDEST PUSH0 PUSH1 0x20 DUP3 ADD SWAP1 POP SWAP2 SWAP1 POP JUMP JUMPDEST PUSH0 PUSH2 0x5FE DUP3 PUSH2 0x599 JUMP JUMPDEST PUSH2 0x608 DUP2 DUP6 PUSH2 0x5A3 JUMP JUMPDEST SWAP4 POP PUSH2 0x613 DUP4 PUSH2 0x5B3 JUMP JUMPDEST DUP1 PUSH0 JUMPDEST DUP4 DUP2 LT ISZERO PUSH2 0x643 JUMPI DUP2 MLOAD PUSH2 0x62A DUP9 DUP3 PUSH2 0x5D1 JUMP JUMPDEST SWAP8 POP PUSH2 0x635 DUP4 PUSH2 0x5E8 JUMP JUMPDEST SWAP3 POP POP PUSH1 0x1 DUP2 ADD SWAP1 POP PUSH2 0x616 JUMP JUMPDEST POP DUP6 SWAP4 POP POP POP POP SWAP3 SWAP2 POP POP JUMP JUMPDEST PUSH0 PUSH1 0x20 DUP3 ADD SWAP1 POP DUP2 DUP2 SUB PUSH0 DUP4 ADD MSTORE PUSH2 0x668 DUP2 DUP5 PUSH2 0x5F4 JUMP JUMPDEST SWAP1 POP SWAP3 SWAP2 POP POP JUMP JUMPDEST PUSH0 PUSH1 0x20 DUP3 DUP5 SUB SLT ISZERO PUSH2 0x685 JUMPI PUSH2 0x684 PUSH2 0x4BC JUMP JUMPDEST JUMPDEST PUSH0 PUSH2 0x692 DUP5 DUP3 DUP6 ADD PUSH2 0x500 JUMP JUMPDEST SWAP2 POP POP SWAP3 SWAP2 POP POP JUMP JUMPDEST PUSH2 0x6A4 DUP2 PUSH2 0x452 JUMP JUMPDEST DUP3 MSTORE POP POP JUMP JUMPDEST PUSH2 0x6B3 DUP2 PUSH2 0x514 JUMP JUMPDEST DUP3 MSTORE POP POP JUMP JUMPDEST PUSH1 0x60 DUP3 ADD PUSH0 DUP3 ADD MLOAD PUSH2 0x6CD PUSH0 DUP6 ADD DUP3 PUSH2 0x69B JUMP JUMPDEST POP PUSH1 0x20 DUP3 ADD MLOAD PUSH2 0x6E0 PUSH1 0x20 DUP6 ADD DUP3 PUSH2 0x5C2 JUMP JUMPDEST POP PUSH1 0x40 DUP3 ADD MLOAD PUSH2 0x6F3 PUSH1 0x40 DUP6 ADD DUP3 PUSH2 0x6AA JUMP JUMPDEST POP POP POP POP JUMP JUMPDEST PUSH0 PUSH1 0x60 DUP3 ADD SWAP1 POP PUSH2 0x70C PUSH0 DUP4 ADD DUP5 PUSH2 0x6B9 JUMP JUMPDEST SWAP3 SWAP2 POP POP JUMP JUMPDEST PUSH0 DUP3 DUP3 MSTORE PUSH1 0x20 DUP3 ADD SWAP1 POP SWAP3 SWAP2 POP POP JUMP JUMPDEST PUSH32 0x4F6E6C792074686520636F6E7472616374206F776E65722063616E2070657266 PUSH0 DUP3 ADD MSTORE PUSH32 0x6F726D2074686973206F7065726174696F6E0000000000000000000000000000 PUSH1 0x20 DUP3 ADD MSTORE POP JUMP JUMPDEST PUSH0 PUSH2 0x77C PUSH1 0x32 DUP4 PUSH2 0x712 JUMP JUMPDEST SWAP2 POP PUSH2 0x787 DUP3 PUSH2 0x722 JUMP JUMPDEST PUSH1 0x40 DUP3 ADD SWAP1 POP SWAP2 SWAP1 POP JUMP JUMPDEST PUSH0 PUSH1 0x20 DUP3 ADD SWAP1 POP DUP2 DUP2 SUB PUSH0 DUP4 ADD MSTORE PUSH2 0x7A9 DUP2 PUSH2 0x770 JUMP JUMPDEST SWAP1 POP SWAP2 SWAP1 POP JUMP JUMPDEST PUSH32 0x4E487B7100000000000000000000000000000000000000000000000000000000 PUSH0 MSTORE PUSH1 0x11 PUSH1 0x4 MSTORE PUSH1 0x24 PUSH0 REVERT JUMPDEST PUSH0 PUSH2 0x7E7 DUP3 PUSH2 0x48B JUMP JUMPDEST SWAP2 POP PUSH32 0xFFFFFFFFFFFFFFFFFFFFFFFFFFFFFFFFFFFFFFFFFFFFFFFFFFFFFFFFFFFFFFFF DUP3 SUB PUSH2 0x819 JUMPI PUSH2 0x818 PUSH2 0x7B0 JUMP JUMPDEST JUMPDEST PUSH1 0x1 DUP3 ADD SWAP1 POP SWAP2 SWAP1 POP JUMP JUMPDEST PUSH32 0x436F6E73656E7420646F6573206E6F742065786973742E000000000000000000 PUSH0 DUP3 ADD MSTORE POP JUMP JUMPDEST PUSH0 PUSH2 0x858 PUSH1 0x17 DUP4 PUSH2 0x712 JUMP JUMPDEST SWAP2 POP PUSH2 0x863 DUP3 PUSH2 0x824 JUMP JUMPDEST PUSH1 0x20 DUP3 ADD SWAP1 POP SWAP2 SWAP1 POP JUMP JUMPDEST PUSH0 PUSH1 0x20 DUP3 ADD SWAP1 POP DUP2 DUP2 SUB PUSH0 DUP4 ADD MSTORE PUSH2 0x885 DUP2 PUSH2 0x84C JUMP JUMPDEST SWAP1 POP SWAP2 SWAP1 POP JUMP INVALID LOG2 PUSH5 0x6970667358 0x22 SLT KECCAK256 0xCF 0xC8 DUP14 0xBB DUP11 0xD4 SSTORE 0x24 DUP12 0xCE PC 0xBF 0xDC SHR PUSH29 0xF09CBF7F48CB91D26B5BF973DBCE89BC2464736F6C6343000818003360 DUP1 PUSH1 0x40 MSTORE PUSH0 PUSH1 0x3 SSTORE CALLVALUE DUP1 ISZERO PUSH2 0x13 JUMPI PUSH0 DUP1 REVERT JUMPDEST POP CALLER PUSH0 DUP1 PUSH2 0x100 EXP DUP2 SLOAD DUP2 PUSH20 0xFFFFFFFFFFFFFFFFFFFFFFFFFFFFFFFFFFFFFFFF MUL NOT AND SWAP1 DUP4 PUSH20 0xFFFFFFFFFFFFFFFFFFFFFFFFFFFFFFFFFFFFFFFF AND MUL OR SWAP1 SSTORE POP PUSH2 0xD96 DUP1 PUSH2 0x60 PUSH0 CODECOPY PUSH0 RETURN INVALID PUSH1 0x80 PUSH1 0x40 MSTORE CALLVALUE DUP1 ISZERO PUSH2 0xF JUMPI PUSH0 DUP1 REVERT JUMPDEST POP PUSH1 0x4 CALLDATASIZE LT PUSH2 0x55 JUMPI PUSH0 CALLDATALOAD PUSH1 0xE0 SHR DUP1 PUSH4 0x3E4D77F EQ PUSH2 0x59 JUMPI DUP1 PUSH4 0x28E8BE60 EQ PUSH2 0x89 JUMPI DUP1 PUSH4 0x8AE0BE40 EQ PUSH2 0xA7 JUMPI DUP1 PUSH4 0x8DA5CB5B EQ PUSH2 0xC5 JUMPI DUP1 PUSH4 0xAC9A939B EQ PUSH2 0xE3 JUMPI JUMPDEST PUSH0 DUP1 REVERT JUMPDEST PUSH2 0x73 PUSH1 0x4 DUP1 CALLDATASIZE SUB DUP2 ADD SWAP1 PUSH2 0x6E SWAP2 SWAP1 PUSH2 0x475 JUMP JUMPDEST PUSH2 0xFF JUMP JUMPDEST PUSH1 0x40 MLOAD PUSH2 0x80 SWAP2 SWAP1 PUSH2 0x624 JUMP JUMPDEST PUSH1 0x40 MLOAD DUP1 SWAP2 SUB SWAP1 RETURN JUMPDEST PUSH2 0x91 PUSH2 0x207 JUMP JUMPDEST PUSH1 0x40 MLOAD PUSH2 0x9E SWAP2 SWAP1 PUSH2 0x653 JUMP JUMPDEST PUSH1 0x40 MLOAD DUP1 SWAP2 SUB SWAP1 RETURN JUMPDEST PUSH2 0xAF PUSH2 0x210 JUMP JUMPDEST PUSH1 0x40 MLOAD PUSH2 0xBC SWAP2 SWAP1 PUSH2 0x714 JUMP JUMPDEST PUSH1 0x40 MLOAD DUP1 SWAP2 SUB SWAP1 RETURN JUMPDEST PUSH2 0xCD PUSH2 0x266 JUMP JUMPDEST PUSH1 0x40 MLOAD PUSH2 0xDA SWAP2 SWAP1 PUSH2 0x773 JUMP JUMPDEST PUSH1 0x40 MLOAD DUP1 SWAP2 SUB SWAP1 RETURN JUMPDEST PUSH2 0xFD PUSH1 0x4 DUP1 CALLDATASIZE SUB DUP2 ADD SWAP1 PUSH2 0xF8 SWAP2 SWAP1 PUSH2 0x905 JUMP JUMPDEST PUSH2 0x289 JUMP JUMPDEST STOP JUMPDEST PUSH2 0x107 PUSH2 0x3F7 JUMP JUMPDEST PUSH1 0x1 PUSH0 DUP4 DUP2 MSTORE PUSH1 0x20 ADD SWAP1 DUP2 MSTORE PUSH1 0x20 ADD PUSH0 KECCAK256 PUSH1 0x40 MLOAD DUP1 PUSH1 0x80 ADD PUSH1 0x40 MSTORE SWAP1 DUP2 PUSH0 DUP3 ADD SLOAD DUP2 MSTORE PUSH1 0x20 ADD PUSH1 0x1 DUP3 ADD PUSH0 SWAP1 SLOAD SWAP1 PUSH2 0x100 EXP SWAP1 DIV PUSH1 0xFF AND PUSH1 0x2 DUP2 GT ISZERO PUSH2 0x150 JUMPI PUSH2 0x14F PUSH2 0x4AF JUMP JUMPDEST JUMPDEST PUSH1 0x2 DUP2 GT ISZERO PUSH2 0x162 JUMPI PUSH2 0x161 PUSH2 0x4AF JUMP JUMPDEST JUMPDEST DUP2 MSTORE PUSH1 0x20 ADD PUSH1 0x2 DUP3 ADD DUP1 SLOAD PUSH2 0x176 SWAP1 PUSH2 0x9B2 JUMP JUMPDEST DUP1 PUSH1 0x1F ADD PUSH1 0x20 DUP1 SWAP2 DIV MUL PUSH1 0x20 ADD PUSH1 0x40 MLOAD SWAP1 DUP2 ADD PUSH1 0x40 MSTORE DUP1 SWAP3 SWAP2 SWAP1 DUP2 DUP2 MSTORE PUSH1 0x20 ADD DUP3 DUP1 SLOAD PUSH2 0x1A2 SWAP1 PUSH2 0x9B2 JUMP JUMPDEST DUP1 ISZERO PUSH2 0x1ED JUMPI DUP1 PUSH1 0x1F LT PUSH2 0x1C4 JUMPI PUSH2 0x100 DUP1 DUP4 SLOAD DIV MUL DUP4 MSTORE SWAP2 PUSH1 0x20 ADD SWAP2 PUSH2 0x1ED JUMP JUMPDEST DUP3 ADD SWAP2 SWAP1 PUSH0 MSTORE PUSH1 0x20 PUSH0 KECCAK256 SWAP1 JUMPDEST DUP2 SLOAD DUP2 MSTORE SWAP1 PUSH1 0x1 ADD SWAP1 PUSH1 0x20 ADD DUP1 DUP4 GT PUSH2 0x1D0 JUMPI DUP3 SWAP1 SUB PUSH1 0x1F AND DUP3 ADD SWAP2 JUMPDEST POP POP POP POP POP DUP2 MSTORE PUSH1 0x20 ADD PUSH1 0x3 DUP3 ADD SLOAD DUP2 MSTORE POP POP SWAP1 POP SWAP2 SWAP1 POP JUMP JUMPDEST PUSH0 PUSH1 0x3 SLOAD SWAP1 POP SWAP1 JUMP JUMPDEST PUSH1 0x60 PUSH1 0x2 DUP1 SLOAD DUP1 PUSH1 0x20 MUL PUSH1 0x20 ADD PUSH1 0x40 MLOAD SWAP1 DUP2 ADD PUSH1 0x40 MSTORE DUP1 SWAP3 SWAP2 SWAP1 DUP2 DUP2 MSTORE PUSH1 0x20 ADD DUP3 DUP1 SLOAD DUP1 ISZERO PUSH2 0x25C JUMPI PUSH1 0x20 MUL DUP3 ADD SWAP2 SWAP1 PUSH0 MSTORE PUSH1 0x20 PUSH0 KECCAK256 SWAP1 JUMPDEST DUP2 SLOAD DUP2 MSTORE PUSH1 0x20 ADD SWAP1 PUSH1 0x1 ADD SWAP1 DUP1 DUP4 GT PUSH2 0x248 JUMPI JUMPDEST POP POP POP POP POP SWAP1 POP SWAP1 JUMP JUMPDEST PUSH0 DUP1 SLOAD SWAP1 PUSH2 0x100 EXP SWAP1 DIV PUSH20 0xFFFFFFFFFFFFFFFFFFFFFFFFFFFFFFFFFFFFFFFF AND DUP2 JUMP JUMPDEST PUSH0 DUP1 SLOAD SWAP1 PUSH2 0x100 EXP SWAP1 DIV PUSH20 0xFFFFFFFFFFFFFFFFFFFFFFFFFFFFFFFFFFFFFFFF AND PUSH20 0xFFFFFFFFFFFFFFFFFFFFFFFFFFFFFFFFFFFFFFFF AND CALLER PUSH20 0xFFFFFFFFFFFFFFFFFFFFFFFFFFFFFFFFFFFFFFFF AND EQ PUSH2 0x316 JUMPI PUSH1 0x40 MLOAD PUSH32 0x8C379A000000000000000000000000000000000000000000000000000000000 DUP2 MSTORE PUSH1 0x4 ADD PUSH2 0x30D SWAP1 PUSH2 0xA62 JUMP JUMPDEST PUSH1 0x40 MLOAD DUP1 SWAP2 SUB SWAP1 REVERT JUMPDEST PUSH1 0x40 MLOAD DUP1 PUSH1 0x80 ADD PUSH1 0x40 MSTORE DUP1 DUP6 DUP2 MSTORE PUSH1 0x20 ADD DUP5 PUSH1 0x2 DUP2 GT ISZERO PUSH2 0x33A JUMPI PUSH2 0x339 PUSH2 0x4AF JUMP JUMPDEST JUMPDEST DUP2 MSTORE PUSH1 0x20 ADD DUP3 DUP2 MSTORE PUSH1 0x20 ADD DUP4 DUP2 MSTORE POP PUSH1 0x1 PUSH0 DUP7 DUP2 MSTORE PUSH1 0x20 ADD SWAP1 DUP2 MSTORE PUSH1 0x20 ADD PUSH0 KECCAK256 PUSH0 DUP3 ADD MLOAD DUP2 PUSH0 ADD SSTORE PUSH1 0x20 DUP3 ADD MLOAD DUP2 PUSH1 0x1 ADD PUSH0 PUSH2 0x100 EXP DUP2 SLOAD DUP2 PUSH1 0xFF MUL NOT AND SWAP1 DUP4 PUSH1 0x2 DUP2 GT ISZERO PUSH2 0x38C JUMPI PUSH2 0x38B PUSH2 0x4AF JUMP JUMPDEST JUMPDEST MUL OR SWAP1 SSTORE POP PUSH1 0x40 DUP3 ADD MLOAD DUP2 PUSH1 0x2 ADD SWAP1 DUP2 PUSH2 0x3A6 SWAP2 SWAP1 PUSH2 0xC1D JUMP JUMPDEST POP PUSH1 0x60 DUP3 ADD MLOAD DUP2 PUSH1 0x3 ADD SSTORE SWAP1 POP POP PUSH1 0x2 DUP5 SWAP1 DUP1 PUSH1 0x1 DUP2 SLOAD ADD DUP1 DUP3 SSTORE DUP1 SWAP2 POP POP PUSH1 0x1 SWAP1 SUB SWAP1 PUSH0 MSTORE PUSH1 0x20 PUSH0 KECCAK256 ADD PUSH0 SWAP1 SWAP2 SWAP1 SWAP2 SWAP1 SWAP2 POP SSTORE PUSH1 0x3 PUSH0 DUP2 SLOAD DUP1 SWAP3 SWAP2 SWAP1 PUSH2 0x3EC SWAP1 PUSH2 0xD19 JUMP JUMPDEST SWAP2 SWAP1 POP SSTORE POP POP POP POP POP JUMP JUMPDEST PUSH1 0x40 MLOAD DUP1 PUSH1 0x80 ADD PUSH1 0x40 MSTORE DUP1 PUSH0 DUP2 MSTORE PUSH1 0x20 ADD PUSH0 PUSH1 0x2 DUP2 GT ISZERO PUSH2 0x41B JUMPI PUSH2 0x41A PUSH2 0x4AF JUMP JUMPDEST JUMPDEST DUP2 MSTORE PUSH1 0x20 ADD PUSH1 0x60 DUP2 MSTORE PUSH1 0x20 ADD PUSH0 DUP1 NOT AND DUP2 MSTORE POP SWAP1 JUMP JUMPDEST PUSH0 PUSH1 0x40 MLOAD SWAP1 POP SWAP1 JUMP JUMPDEST PUSH0 DUP1 REVERT JUMPDEST PUSH0 DUP1 REVERT JUMPDEST PUSH0 DUP2 SWAP1 POP SWAP2 SWAP1 POP JUMP JUMPDEST PUSH2 0x454 DUP2 PUSH2 0x442 JUMP JUMPDEST DUP2 EQ PUSH2 0x45E JUMPI PUSH0 DUP1 REVERT JUMPDEST POP JUMP JUMPDEST PUSH0 DUP2 CALLDATALOAD SWAP1 POP PUSH2 0x46F DUP2 PUSH2 0x44B JUMP JUMPDEST SWAP3 SWAP2 POP POP JUMP JUMPDEST PUSH0 PUSH1 0x20 DUP3 DUP5 SUB SLT ISZERO PUSH2 0x48A JUMPI PUSH2 0x489 PUSH2 0x43A JUMP JUMPDEST JUMPDEST PUSH0 PUSH2 0x497 DUP5 DUP3 DUP6 ADD PUSH2 0x461 JUMP JUMPDEST SWAP2 POP POP SWAP3 SWAP2 POP POP JUMP JUMPDEST PUSH2 0x4A9 DUP2 PUSH2 0x442 JUMP JUMPDEST DUP3 MSTORE POP POP JUMP JUMPDEST PUSH32 0x4E487B7100000000000000000000000000000000000000000000000000000000 PUSH0 MSTORE PUSH1 0x21 PUSH1 0x4 MSTORE PUSH1 0x24 PUSH0 REVERT JUMPDEST PUSH1 0x3 DUP2 LT PUSH2 0x4ED JUMPI PUSH2 0x4EC PUSH2 0x4AF JUMP JUMPDEST JUMPDEST POP JUMP JUMPDEST PUSH0 DUP2 SWAP1 POP PUSH2 0x4FD DUP3 PUSH2 0x4DC JUMP JUMPDEST SWAP2 SWAP1 POP JUMP JUMPDEST PUSH0 PUSH2 0x50C DUP3 PUSH2 0x4F0 JUMP JUMPDEST SWAP1 POP SWAP2 SWAP1 POP JUMP JUMPDEST PUSH2 0x51C DUP2 PUSH2 0x502 JUMP JUMPDEST DUP3 MSTORE POP POP JUMP JUMPDEST PUSH0 DUP2 MLOAD SWAP1 POP SWAP2 SWAP1 POP JUMP JUMPDEST PUSH0 DUP3 DUP3 MSTORE PUSH1 0x20 DUP3 ADD SWAP1 POP SWAP3 SWAP2 POP POP JUMP JUMPDEST PUSH0 JUMPDEST DUP4 DUP2 LT ISZERO PUSH2 0x559 JUMPI DUP1 DUP3 ADD MLOAD DUP2 DUP5 ADD MSTORE PUSH1 0x20 DUP2 ADD SWAP1 POP PUSH2 0x53E JUMP JUMPDEST PUSH0 DUP5 DUP5 ADD MSTORE POP POP POP POP JUMP JUMPDEST PUSH0 PUSH1 0x1F NOT PUSH1 0x1F DUP4 ADD AND SWAP1 POP SWAP2 SWAP1 POP JUMP JUMPDEST PUSH0 PUSH2 0x57E DUP3 PUSH2 0x522 JUMP JUMPDEST PUSH2 0x588 DUP2 DUP6 PUSH2 0x52C JUMP JUMPDEST SWAP4 POP PUSH2 0x598 DUP2 DUP6 PUSH1 0x20 DUP7 ADD PUSH2 0x53C JUMP JUMPDEST PUSH2 0x5A1 DUP2 PUSH2 0x564 JUMP JUMPDEST DUP5 ADD SWAP2 POP POP SWAP3 SWAP2 POP POP JUMP JUMPDEST PUSH0 DUP2 SWAP1 POP SWAP2 SWAP1 POP JUMP JUMPDEST PUSH2 0x5BE DUP2 PUSH2 0x5AC JUMP JUMPDEST DUP3 MSTORE POP POP JUMP JUMPDEST PUSH0 PUSH1 0x80 DUP4 ADD PUSH0 DUP4 ADD MLOAD PUSH2 0x5D9 PUSH0 DUP7 ADD DUP3 PUSH2 0x4A0 JUMP JUMPDEST POP PUSH1 0x20 DUP4 ADD MLOAD PUSH2 0x5EC PUSH1 0x20 DUP7 ADD DUP3 PUSH2 0x513 JUMP JUMPDEST POP PUSH1 0x40 DUP4 ADD MLOAD DUP5 DUP3 SUB PUSH1 0x40 DUP7 ADD MSTORE PUSH2 0x604 DUP3 DUP3 PUSH2 0x574 JUMP JUMPDEST SWAP2 POP POP PUSH1 0x60 DUP4 ADD MLOAD PUSH2 0x619 PUSH1 0x60 DUP7 ADD DUP3 PUSH2 0x5B5 JUMP JUMPDEST POP DUP1 SWAP2 POP POP SWAP3 SWAP2 POP POP JUMP JUMPDEST PUSH0 PUSH1 0x20 DUP3 ADD SWAP1 POP DUP2 DUP2 SUB PUSH0 DUP4 ADD MSTORE PUSH2 0x63C DUP2 DUP5 PUSH2 0x5C4 JUMP JUMPDEST SWAP1 POP SWAP3 SWAP2 POP POP JUMP JUMPDEST PUSH2 0x64D DUP2 PUSH2 0x442 JUMP JUMPDEST DUP3 MSTORE POP POP JUMP JUMPDEST PUSH0 PUSH1 0x20 DUP3 ADD SWAP1 POP PUSH2 0x666 PUSH0 DUP4 ADD DUP5 PUSH2 0x644 JUMP JUMPDEST SWAP3 SWAP2 POP POP JUMP JUMPDEST PUSH0 DUP2 MLOAD SWAP1 POP SWAP2 SWAP1 POP JUMP JUMPDEST PUSH0 DUP3 DUP3 MSTORE PUSH1 0x20 DUP3 ADD SWAP1 POP SWAP3 SWAP2 POP POP JUMP JUMPDEST PUSH0 DUP2 SWAP1 POP PUSH1 0x20 DUP3 ADD SWAP1 POP SWAP2 SWAP1 POP JUMP JUMPDEST PUSH0 PUSH2 0x6A0 DUP4 DUP4 PUSH2 0x4A0 JUMP JUMPDEST PUSH1 0x20 DUP4 ADD SWAP1 POP SWAP3 SWAP2 POP POP JUMP JUMPDEST PUSH0 PUSH1 0x20 DUP3 ADD SWAP1 POP SWAP2 SWAP1 POP JUMP JUMPDEST PUSH0 PUSH2 0x6C2 DUP3 PUSH2 0x66C JUMP JUMPDEST PUSH2 0x6CC DUP2 DUP6 PUSH2 0x676 JUMP JUMPDEST SWAP4 POP PUSH2 0x6D7 DUP4 PUSH2 0x686 JUMP JUMPDEST DUP1 PUSH0 JUMPDEST DUP4 DUP2 LT ISZERO PUSH2 0x707 JUMPI DUP2 MLOAD PUSH2 0x6EE DUP9 DUP3 PUSH2 0x695 JUMP JUMPDEST SWAP8 POP PUSH2 0x6F9 DUP4 PUSH2 0x6AC JUMP JUMPDEST SWAP3 POP POP PUSH1 0x1 DUP2 ADD SWAP1 POP PUSH2 0x6DA JUMP JUMPDEST POP DUP6 SWAP4 POP POP POP POP SWAP3 SWAP2 POP POP JUMP JUMPDEST PUSH0 PUSH1 0x20 DUP3 ADD SWAP1 POP DUP2 DUP2 SUB PUSH0 DUP4 ADD MSTORE PUSH2 0x72C DUP2 DUP5 PUSH2 0x6B8 JUMP JUMPDEST SWAP1 POP SWAP3 SWAP2 POP POP JUMP JUMPDEST PUSH0 PUSH20 0xFFFFFFFFFFFFFFFFFFFFFFFFFFFFFFFFFFFFFFFF DUP3 AND SWAP1 POP SWAP2 SWAP1 POP JUMP JUMPDEST PUSH0 PUSH2 0x75D DUP3 PUSH2 0x734 JUMP JUMPDEST SWAP1 POP SWAP2 SWAP1 POP JUMP JUMPDEST PUSH2 0x76D DUP2 PUSH2 0x753 JUMP JUMPDEST DUP3 MSTORE POP POP JUMP JUMPDEST PUSH0 PUSH1 0x20 DUP3 ADD SWAP1 POP PUSH2 0x786 PUSH0 DUP4 ADD DUP5 PUSH2 0x764 JUMP JUMPDEST SWAP3 SWAP2 POP POP JUMP JUMPDEST PUSH1 0x3 DUP2 LT PUSH2 0x798 JUMPI PUSH0 DUP1 REVERT JUMPDEST POP JUMP JUMPDEST PUSH0 DUP2 CALLDATALOAD SWAP1 POP PUSH2 0x7A9 DUP2 PUSH2 0x78C JUMP JUMPDEST SWAP3 SWAP2 POP POP JUMP JUMPDEST PUSH2 0x7B8 DUP2 PUSH2 0x5AC JUMP JUMPDEST DUP2 EQ PUSH2 0x7C2 JUMPI PUSH0 DUP1 REVERT JUMPDEST POP JUMP JUMPDEST PUSH0 DUP2 CALLDATALOAD SWAP1 POP PUSH2 0x7D3 DUP2 PUSH2 0x7AF JUMP JUMPDEST SWAP3 SWAP2 POP POP JUMP JUMPDEST PUSH0 DUP1 REVERT JUMPDEST PUSH0 DUP1 REVERT JUMPDEST PUSH32 0x4E487B7100000000000000000000000000000000000000000000000000000000 PUSH0 MSTORE PUSH1 0x41 PUSH1 0x4 MSTORE PUSH1 0x24 PUSH0 REVERT JUMPDEST PUSH2 0x817 DUP3 PUSH2 0x564 JUMP JUMPDEST DUP2 ADD DUP2 DUP2 LT PUSH8 0xFFFFFFFFFFFFFFFF DUP3 GT OR ISZERO PUSH2 0x836 JUMPI PUSH2 0x835 PUSH2 0x7E1 JUMP JUMPDEST JUMPDEST DUP1 PUSH1 0x40 MSTORE POP POP POP JUMP JUMPDEST PUSH0 PUSH2 0x848 PUSH2 0x431 JUMP JUMPDEST SWAP1 POP PUSH2 0x854 DUP3 DUP3 PUSH2 0x80E JUMP JUMPDEST SWAP2 SWAP1 POP JUMP JUMPDEST PUSH0 PUSH8 0xFFFFFFFFFFFFFFFF DUP3 GT ISZERO PUSH2 0x873 JUMPI PUSH2 0x872 PUSH2 0x7E1 JUMP JUMPDEST JUMPDEST PUSH2 0x87C DUP3 PUSH2 0x564 JUMP JUMPDEST SWAP1 POP PUSH1 0x20 DUP2 ADD SWAP1 POP SWAP2 SWAP1 POP JUMP JUMPDEST DUP3 DUP2 DUP4 CALLDATACOPY PUSH0 DUP4 DUP4 ADD MSTORE POP POP POP JUMP JUMPDEST PUSH0 PUSH2 0x8A9 PUSH2 0x8A4 DUP5 PUSH2 0x859 JUMP JUMPDEST PUSH2 0x83F JUMP JUMPDEST SWAP1 POP DUP3 DUP2 MSTORE PUSH1 0x20 DUP2 ADD DUP5 DUP5 DUP5 ADD GT ISZERO PUSH2 0x8C5 JUMPI PUSH2 0x8C4 PUSH2 0x7DD JUMP JUMPDEST JUMPDEST PUSH2 0x8D0 DUP5 DUP3 DUP6 PUSH2 0x889 JUMP JUMPDEST POP SWAP4 SWAP3 POP POP POP JUMP JUMPDEST PUSH0 DUP3 PUSH1 0x1F DUP4 ADD SLT PUSH2 0x8EC JUMPI PUSH2 0x8EB PUSH2 0x7D9 JUMP JUMPDEST JUMPDEST DUP2 CALLDATALOAD PUSH2 0x8FC DUP5 DUP3 PUSH1 0x20 DUP7 ADD PUSH2 0x897 JUMP JUMPDEST SWAP2 POP POP SWAP3 SWAP2 POP POP JUMP JUMPDEST PUSH0 DUP1 PUSH0 DUP1 PUSH1 0x80 DUP6 DUP8 SUB SLT ISZERO PUSH2 0x91D JUMPI PUSH2 0x91C PUSH2 0x43A JUMP JUMPDEST JUMPDEST PUSH0 PUSH2 0x92A DUP8 DUP3 DUP9 ADD PUSH2 0x461 JUMP JUMPDEST SWAP5 POP POP PUSH1 0x20 PUSH2 0x93B DUP8 DUP3 DUP9 ADD PUSH2 0x79B JUMP JUMPDEST SWAP4 POP POP PUSH1 0x40 PUSH2 0x94C DUP8 DUP3 DUP9 ADD PUSH2 0x7C5 JUMP JUMPDEST SWAP3 POP POP PUSH1 0x60 DUP6 ADD CALLDATALOAD PUSH8 0xFFFFFFFFFFFFFFFF DUP2 GT ISZERO PUSH2 0x96D JUMPI PUSH2 0x96C PUSH2 0x43E JUMP JUMPDEST JUMPDEST PUSH2 0x979 DUP8 DUP3 DUP9 ADD PUSH2 0x8D8 JUMP JUMPDEST SWAP2 POP POP SWAP3 SWAP6 SWAP2 SWAP5 POP SWAP3 POP JUMP JUMPDEST PUSH32 0x4E487B7100000000000000000000000000000000000000000000000000000000 PUSH0 MSTORE PUSH1 0x22 PUSH1 0x4 MSTORE PUSH1 0x24 PUSH0 REVERT JUMPDEST PUSH0 PUSH1 0x2 DUP3 DIV SWAP1 POP PUSH1 0x1 DUP3 AND DUP1 PUSH2 0x9C9 JUMPI PUSH1 0x7F DUP3 AND SWAP2 POP JUMPDEST PUSH1 0x20 DUP3 LT DUP2 SUB PUSH2 0x9DC JUMPI PUSH2 0x9DB PUSH2 0x985 JUMP JUMPDEST JUMPDEST POP SWAP2 SWAP1 POP JUMP JUMPDEST PUSH0 DUP3 DUP3 MSTORE PUSH1 0x20 DUP3 ADD SWAP1 POP SWAP3 SWAP2 POP POP JUMP JUMPDEST PUSH32 0x4F6E6C792074686520636F6E7472616374206F776E65722063616E2070657266 PUSH0 DUP3 ADD MSTORE PUSH32 0x6F726D2074686973206F7065726174696F6E0000000000000000000000000000 PUSH1 0x20 DUP3 ADD MSTORE POP JUMP JUMPDEST PUSH0 PUSH2 0xA4C PUSH1 0x32 DUP4 PUSH2 0x9E2 JUMP JUMPDEST SWAP2 POP PUSH2 0xA57 DUP3 PUSH2 0x9F2 JUMP JUMPDEST PUSH1 0x40 DUP3 ADD SWAP1 POP SWAP2 SWAP1 POP JUMP JUMPDEST PUSH0 PUSH1 0x20 DUP3 ADD SWAP1 POP DUP2 DUP2 SUB PUSH0 DUP4 ADD MSTORE PUSH2 0xA79 DUP2 PUSH2 0xA40 JUMP JUMPDEST SWAP1 POP SWAP2 SWAP1 POP JUMP JUMPDEST PUSH0 DUP2 SWAP1 POP DUP2 PUSH0 MSTORE PUSH1 0x20 PUSH0 KECCAK256 SWAP1 POP SWAP2 SWAP1 POP JUMP JUMPDEST PUSH0 PUSH1 0x20 PUSH1 0x1F DUP4 ADD DIV SWAP1 POP SWAP2 SWAP1 POP JUMP JUMPDEST PUSH0 DUP3 DUP3 SHL SWAP1 POP SWAP3 SWAP2 POP POP JUMP JUMPDEST PUSH0 PUSH1 0x8 DUP4 MUL PUSH2 0xADC PUSH32 0xFFFFFFFFFFFFFFFFFFFFFFFFFFFFFFFFFFFFFFFFFFFFFFFFFFFFFFFFFFFFFFFF DUP3 PUSH2 0xAA1 JUMP JUMPDEST PUSH2 0xAE6 DUP7 DUP4 PUSH2 0xAA1 JUMP JUMPDEST SWAP6 POP DUP1 NOT DUP5 AND SWAP4 POP DUP1 DUP7 AND DUP5 OR SWAP3 POP POP POP SWAP4 SWAP3 POP POP POP JUMP JUMPDEST PUSH0 DUP2 SWAP1 POP SWAP2 SWAP1 POP JUMP JUMPDEST PUSH0 PUSH2 0xB21 PUSH2 0xB1C PUSH2 0xB17 DUP5 PUSH2 0x442 JUMP JUMPDEST PUSH2 0xAFE JUMP JUMPDEST PUSH2 0x442 JUMP JUMPDEST SWAP1 POP SWAP2 SWAP1 POP JUMP JUMPDEST PUSH0 DUP2 SWAP1 POP SWAP2 SWAP1 POP JUMP JUMPDEST PUSH2 0xB3A DUP4 PUSH2 0xB07 JUMP JUMPDEST PUSH2 0xB4E PUSH2 0xB46 DUP3 PUSH2 0xB28 JUMP JUMPDEST DUP5 DUP5 SLOAD PUSH2 0xAAD JUMP JUMPDEST DUP3 SSTORE POP POP POP POP JUMP JUMPDEST PUSH0 SWAP1 JUMP JUMPDEST PUSH2 0xB62 PUSH2 0xB56 JUMP JUMPDEST PUSH2 0xB6D DUP2 DUP5 DUP5 PUSH2 0xB31 JUMP JUMPDEST POP POP POP JUMP JUMPDEST JUMPDEST DUP2 DUP2 LT ISZERO PUSH2 0xB90 JUMPI PUSH2 0xB85 PUSH0 DUP3 PUSH2 0xB5A JUMP JUMPDEST PUSH1 0x1 DUP2 ADD SWAP1 POP PUSH2 0xB73 JUMP JUMPDEST POP POP JUMP JUMPDEST PUSH1 0x1F DUP3 GT ISZERO PUSH2 0xBD5 JUMPI PUSH2 0xBA6 DUP2 PUSH2 0xA80 JUMP JUMPDEST PUSH2 0xBAF DUP5 PUSH2 0xA92 JUMP JUMPDEST DUP2 ADD PUSH1 0x20 DUP6 LT ISZERO PUSH2 0xBBE JUMPI DUP2 SWAP1 POP JUMPDEST PUSH2 0xBD2 PUSH2 0xBCA DUP6 PUSH2 0xA92 JUMP JUMPDEST DUP4 ADD DUP3 PUSH2 0xB72 JUMP JUMPDEST POP POP JUMPDEST POP POP POP JUMP JUMPDEST PUSH0 DUP3 DUP3 SHR SWAP1 POP SWAP3 SWAP2 POP POP JUMP JUMPDEST PUSH0 PUSH2 0xBF5 PUSH0 NOT DUP5 PUSH1 0x8 MUL PUSH2 0xBDA JUMP JUMPDEST NOT DUP1 DUP4 AND SWAP2 POP POP SWAP3 SWAP2 POP POP JUMP JUMPDEST PUSH0 PUSH2 0xC0D DUP4 DUP4 PUSH2 0xBE6 JUMP JUMPDEST SWAP2 POP DUP3 PUSH1 0x2 MUL DUP3 OR SWAP1 POP SWAP3 SWAP2 POP POP JUMP JUMPDEST PUSH2 0xC26 DUP3 PUSH2 0x522 JUMP JUMPDEST PUSH8 0xFFFFFFFFFFFFFFFF DUP2 GT ISZERO PUSH2 0xC3F JUMPI PUSH2 0xC3E PUSH2 0x7E1 JUMP JUMPDEST JUMPDEST PUSH2 0xC49 DUP3 SLOAD PUSH2 0x9B2 JUMP JUMPDEST PUSH2 0xC54 DUP3 DUP3 DUP6 PUSH2 0xB94 JUMP JUMPDEST PUSH0 PUSH1 0x20 SWAP1 POP PUSH1 0x1F DUP4 GT PUSH1 0x1 DUP2 EQ PUSH2 0xC85 JUMPI PUSH0 DUP5 ISZERO PUSH2 0xC73 JUMPI DUP3 DUP8 ADD MLOAD SWAP1 POP JUMPDEST PUSH2 0xC7D DUP6 DUP3 PUSH2 0xC02 JUMP JUMPDEST DUP7 SSTORE POP PUSH2 0xCE4 JUMP JUMPDEST PUSH1 0x1F NOT DUP5 AND PUSH2 0xC93 DUP7 PUSH2 0xA80 JUMP JUMPDEST PUSH0 JUMPDEST DUP3 DUP2 LT ISZERO PUSH2 0xCBA JUMPI DUP5 DUP10 ADD MLOAD DUP3 SSTORE PUSH1 0x1 DUP3 ADD SWAP2 POP PUSH1 0x20 DUP6 ADD SWAP5 POP PUSH1 0x20 DUP2 ADD SWAP1 POP PUSH2 0xC95 JUMP JUMPDEST DUP7 DUP4 LT ISZERO PUSH2 0xCD7 JUMPI DUP5 DUP10 ADD MLOAD PUSH2 0xCD3 PUSH1 0x1F DUP10 AND DUP3 PUSH2 0xBE6 JUMP JUMPDEST DUP4 SSTORE POP JUMPDEST PUSH1 0x1 PUSH1 0x2 DUP9 MUL ADD DUP9 SSTORE POP POP POP JUMPDEST POP POP POP POP POP POP JUMP JUMPDEST PUSH32 0x4E487B7100000000000000000000000000000000000000000000000000000000 PUSH0 MSTORE PUSH1 0x11 PUSH1 0x4 MSTORE PUSH1 0x24 PUSH0 REVERT JUMPDEST PUSH0 PUSH2 0xD23 DUP3 PUSH2 0x442 JUMP JUMPDEST SWAP2 POP PUSH32 0xFFFFFFFFFFFFFFFFFFFFFFFFFFFFFFFFFFFFFFFFFFFFFFFFFFFFFFFFFFFFFFFF DUP3 SUB PUSH2 0xD55 JUMPI PUSH2 0xD54 PUSH2 0xCEC JUMP JUMPDEST JUMPDEST PUSH1 0x1 DUP3 ADD SWAP1 POP SWAP2 SWAP1 POP JUMP INVALID LOG2 PUSH5 0x6970667358 0x22 SLT KECCAK256 0xC7 MOD DUP2 NUMBER 0xBE PUSH1 0x55 SSTORE ISZERO DUP6 SWAP1 PUSH12 0x779DBD0FFC5326D366FA47FF DUP6 DUP3 0xB8 PUSH21 0x903206B364736F6C63430008180033608060405234 DUP1 ISZERO PUSH3 0x10 JUMPI PUSH0 DUP1 REVERT JUMPDEST POP PUSH1 0x40 MLOAD PUSH3 0x16B3 CODESIZE SUB DUP1 PUSH3 0x16B3 DUP4 CODECOPY DUP2 DUP2 ADD PUSH1 0x40 MSTORE DUP2 ADD SWAP1 PUSH3 0x36 SWAP2 SWAP1 PUSH3 0x2F6 JUMP JUMPDEST CALLER PUSH0 DUP1 PUSH2 0x100 EXP DUP2 SLOAD DUP2 PUSH20 0xFFFFFFFFFFFFFFFFFFFFFFFFFFFFFFFFFFFFFFFF MUL NOT AND SWAP1 DUP4 PUSH20 0xFFFFFFFFFFFFFFFFFFFFFFFFFFFFFFFFFFFFFFFF AND MUL OR SWAP1 SSTORE POP PUSH0 PUSH20 0xFFFFFFFFFFFFFFFFFFFFFFFFFFFFFFFFFFFFFFFF AND DUP4 PUSH20 0xFFFFFFFFFFFFFFFFFFFFFFFFFFFFFFFFFFFFFFFF AND SUB PUSH3 0xE6 JUMPI PUSH1 0x40 MLOAD PUSH32 0x8C379A000000000000000000000000000000000000000000000000000000000 DUP2 MSTORE PUSH1 0x4 ADD PUSH3 0xDD SWAP1 PUSH3 0x3D3 JUMP JUMPDEST PUSH1 0x40 MLOAD DUP1 SWAP2 SUB SWAP1 REVERT JUMPDEST PUSH0 PUSH20 0xFFFFFFFFFFFFFFFFFFFFFFFFFFFFFFFFFFFFFFFF AND DUP3 PUSH20 0xFFFFFFFFFFFFFFFFFFFFFFFFFFFFFFFFFFFFFFFF AND SUB PUSH3 0x157 JUMPI PUSH1 0x40 MLOAD PUSH32 0x8C379A000000000000000000000000000000000000000000000000000000000 DUP2 MSTORE PUSH1 0x4 ADD PUSH3 0x14E SWAP1 PUSH3 0x467 JUMP JUMPDEST PUSH1 0x40 MLOAD DUP1 SWAP2 SUB SWAP1 REVERT JUMPDEST PUSH0 PUSH20 0xFFFFFFFFFFFFFFFFFFFFFFFFFFFFFFFFFFFFFFFF AND DUP2 PUSH20 0xFFFFFFFFFFFFFFFFFFFFFFFFFFFFFFFFFFFFFFFF AND SUB PUSH3 0x1C8 JUMPI PUSH1 0x40 MLOAD PUSH32 0x8C379A000000000000000000000000000000000000000000000000000000000 DUP2 MSTORE PUSH1 0x4 ADD PUSH3 0x1BF SWAP1 PUSH3 0x4FB JUMP JUMPDEST PUSH1 0x40 MLOAD DUP1 SWAP2 SUB SWAP1 REVERT JUMPDEST DUP3 PUSH1 0x1 PUSH0 PUSH2 0x100 EXP DUP2 SLOAD DUP2 PUSH20 0xFFFFFFFFFFFFFFFFFFFFFFFFFFFFFFFFFFFFFFFF MUL NOT AND SWAP1 DUP4 PUSH20 0xFFFFFFFFFFFFFFFFFFFFFFFFFFFFFFFFFFFFFFFF AND MUL OR SWAP1 SSTORE POP DUP2 PUSH1 0x2 PUSH0 PUSH2 0x100 EXP DUP2 SLOAD DUP2 PUSH20 0xFFFFFFFFFFFFFFFFFFFFFFFFFFFFFFFFFFFFFFFF MUL NOT AND SWAP1 DUP4 PUSH20 0xFFFFFFFFFFFFFFFFFFFFFFFFFFFFFFFFFFFFFFFF AND MUL OR SWAP1 SSTORE POP DUP1 PUSH1 0x3 PUSH0 PUSH2 0x100 EXP DUP2 SLOAD DUP2 PUSH20 0xFFFFFFFFFFFFFFFFFFFFFFFFFFFFFFFFFFFFFFFF MUL NOT AND SWAP1 DUP4 PUSH20 0xFFFFFFFFFFFFFFFFFFFFFFFFFFFFFFFFFFFFFFFF AND MUL OR SWAP1 SSTORE POP POP POP POP PUSH3 0x51B JUMP JUMPDEST PUSH0 DUP1 REVERT JUMPDEST PUSH0 PUSH20 0xFFFFFFFFFFFFFFFFFFFFFFFFFFFFFFFFFFFFFFFF DUP3 AND SWAP1 POP SWAP2 SWAP1 POP JUMP JUMPDEST PUSH0 PUSH3 0x2C0 DUP3 PUSH3 0x295 JUMP JUMPDEST SWAP1 POP SWAP2 SWAP1 POP JUMP JUMPDEST PUSH3 0x2D2 DUP2 PUSH3 0x2B4 JUMP JUMPDEST DUP2 EQ PUSH3 0x2DD JUMPI PUSH0 DUP1 REVERT JUMPDEST POP JUMP JUMPDEST PUSH0 DUP2 MLOAD SWAP1 POP PUSH3 0x2F0 DUP2 PUSH3 0x2C7 JUMP JUMPDEST SWAP3 SWAP2 POP POP JUMP JUMPDEST PUSH0 DUP1 PUSH0 PUSH1 0x60 DUP5 DUP7 SUB SLT ISZERO PUSH3 0x310 JUMPI PUSH3 0x30F PUSH3 0x291 JUMP JUMPDEST JUMPDEST PUSH0 PUSH3 0x31F DUP7 DUP3 DUP8 ADD PUSH3 0x2E0 JUMP JUMPDEST SWAP4 POP POP PUSH1 0x20 PUSH3 0x332 DUP7 DUP3 DUP8 ADD PUSH3 0x2E0 JUMP JUMPDEST SWAP3 POP POP PUSH1 0x40 PUSH3 0x345 DUP7 DUP3 DUP8 ADD PUSH3 0x2E0 JUMP JUMPDEST SWAP2 POP POP SWAP3 POP SWAP3 POP SWAP3 JUMP JUMPDEST PUSH0 DUP3 DUP3 MSTORE PUSH1 0x20 DUP3 ADD SWAP1 POP SWAP3 SWAP2 POP POP JUMP JUMPDEST PUSH32 0x496E76616C696420446174615573616765536D617274436F6E74726163742061 PUSH0 DUP3 ADD MSTORE PUSH32 0x6464726573732E00000000000000000000000000000000000000000000000000 PUSH1 0x20 DUP3 ADD MSTORE POP JUMP JUMPDEST PUSH0 PUSH3 0x3BB PUSH1 0x27 DUP4 PUSH3 0x34F JUMP JUMPDEST SWAP2 POP PUSH3 0x3C8 DUP3 PUSH3 0x35F JUMP JUMPDEST PUSH1 0x40 DUP3 ADD SWAP1 POP SWAP2 SWAP1 POP JUMP JUMPDEST PUSH0 PUSH1 0x20 DUP3 ADD SWAP1 POP DUP2 DUP2 SUB PUSH0 DUP4 ADD MSTORE PUSH3 0x3EC DUP2 PUSH3 0x3AD JUMP JUMPDEST SWAP1 POP SWAP2 SWAP1 POP JUMP JUMPDEST PUSH32 0x496E76616C69642041677265656D656E74536D617274436F6E74726163742061 PUSH0 DUP3 ADD MSTORE PUSH32 0x6464726573732E00000000000000000000000000000000000000000000000000 PUSH1 0x20 DUP3 ADD MSTORE POP JUMP JUMPDEST PUSH0 PUSH3 0x44F PUSH1 0x27 DUP4 PUSH3 0x34F JUMP JUMPDEST SWAP2 POP PUSH3 0x45C DUP3 PUSH3 0x3F3 JUMP JUMPDEST PUSH1 0x40 DUP3 ADD SWAP1 POP SWAP2 SWAP1 POP JUMP JUMPDEST PUSH0 PUSH1 0x20 DUP3 ADD SWAP1 POP DUP2 DUP2 SUB PUSH0 DUP4 ADD MSTORE PUSH3 0x480 DUP2 PUSH3 0x441 JUMP JUMPDEST SWAP1 POP SWAP2 SWAP1 POP JUMP JUMPDEST PUSH32 0x496E76616C6964204C6F67536D617274436F6E74726163742061646472657373 PUSH0 DUP3 ADD MSTORE PUSH32 0x2E00000000000000000000000000000000000000000000000000000000000000 PUSH1 0x20 DUP3 ADD MSTORE POP JUMP JUMPDEST PUSH0 PUSH3 0x4E3 PUSH1 0x21 DUP4 PUSH3 0x34F JUMP JUMPDEST SWAP2 POP PUSH3 0x4F0 DUP3 PUSH3 0x487 JUMP JUMPDEST PUSH1 0x40 DUP3 ADD SWAP1 POP SWAP2 SWAP1 POP JUMP JUMPDEST PUSH0 PUSH1 0x20 DUP3 ADD SWAP1 POP DUP2 DUP2 SUB PUSH0 DUP4 ADD MSTORE PUSH3 0x514 DUP2 PUSH3 0x4D5 JUMP JUMPDEST SWAP1 POP SWAP2 SWAP1 POP JUMP JUMPDEST PUSH2 0x118A DUP1 PUSH3 0x529 PUSH0 CODECOPY PUSH0 RETURN INVALID PUSH1 0x80 PUSH1 0x40 MSTORE CALLVALUE DUP1 ISZERO PUSH2 0xF JUMPI PUSH0 DUP1 REVERT JUMPDEST POP PUSH1 0x4 CALLDATASIZE LT PUSH2 0x3F JUMPI PUSH0 CALLDATALOAD PUSH1 0xE0 SHR DUP1 PUSH4 0xAC2DB42 EQ PUSH2 0x43 JUMPI DUP1 PUSH4 0x7FE18814 EQ PUSH2 0x4D JUMPI DUP1 PUSH4 0x8DA5CB5B EQ PUSH2 0x6B JUMPI JUMPDEST PUSH0 DUP1 REVERT JUMPDEST PUSH2 0x4B PUSH2 0x89 JUMP JUMPDEST STOP JUMPDEST PUSH2 0x55 PUSH2 0x62A JUMP JUMPDEST PUSH1 0x40 MLOAD PUSH2 0x62 SWAP2 SWAP1 PUSH2 0x7AA JUMP JUMPDEST PUSH1 0x40 MLOAD DUP1 SWAP2 SUB SWAP1 RETURN JUMPDEST PUSH2 0x73 PUSH2 0x6C7 JUMP JUMPDEST PUSH1 0x40 MLOAD PUSH2 0x80 SWAP2 SWAP1 PUSH2 0x809 JUMP JUMPDEST PUSH1 0x40 MLOAD DUP1 SWAP2 SUB SWAP1 RETURN JUMPDEST PUSH0 DUP1 SLOAD SWAP1 PUSH2 0x100 EXP SWAP1 DIV PUSH20 0xFFFFFFFFFFFFFFFFFFFFFFFFFFFFFFFFFFFFFFFF AND PUSH20 0xFFFFFFFFFFFFFFFFFFFFFFFFFFFFFFFFFFFFFFFF AND CALLER PUSH20 0xFFFFFFFFFFFFFFFFFFFFFFFFFFFFFFFFFFFFFFFF AND EQ PUSH2 0x116 JUMPI PUSH1 0x40 MLOAD PUSH32 0x8C379A000000000000000000000000000000000000000000000000000000000 DUP2 MSTORE PUSH1 0x4 ADD PUSH2 0x10D SWAP1 PUSH2 0x8A2 JUMP JUMPDEST PUSH1 0x40 MLOAD DUP1 SWAP2 SUB SWAP1 REVERT JUMPDEST PUSH0 PUSH1 0x3 PUSH0 SWAP1 SLOAD SWAP1 PUSH2 0x100 EXP SWAP1 DIV PUSH20 0xFFFFFFFFFFFFFFFFFFFFFFFFFFFFFFFFFFFFFFFF AND PUSH20 0xFFFFFFFFFFFFFFFFFFFFFFFFFFFFFFFFFFFFFFFF AND PUSH4 0x8AE0BE40 PUSH1 0x40 MLOAD DUP2 PUSH4 0xFFFFFFFF AND PUSH1 0xE0 SHL DUP2 MSTORE PUSH1 0x4 ADD PUSH0 PUSH1 0x40 MLOAD DUP1 DUP4 SUB DUP2 DUP7 GAS STATICCALL ISZERO DUP1 ISZERO PUSH2 0x180 JUMPI RETURNDATASIZE PUSH0 DUP1 RETURNDATACOPY RETURNDATASIZE PUSH0 REVERT JUMPDEST POP POP POP POP PUSH1 0x40 MLOAD RETURNDATASIZE PUSH0 DUP3 RETURNDATACOPY RETURNDATASIZE PUSH1 0x1F NOT PUSH1 0x1F DUP3 ADD AND DUP3 ADD DUP1 PUSH1 0x40 MSTORE POP DUP2 ADD SWAP1 PUSH2 0x1A8 SWAP2 SWAP1 PUSH2 0xA4B JUMP JUMPDEST SWAP1 POP PUSH0 PUSH1 0x2 PUSH0 SWAP1 SLOAD SWAP1 PUSH2 0x100 EXP SWAP1 DIV PUSH20 0xFFFFFFFFFFFFFFFFFFFFFFFFFFFFFFFFFFFFFFFF AND PUSH20 0xFFFFFFFFFFFFFFFFFFFFFFFFFFFFFFFFFFFFFFFF AND PUSH4 0xE27A4B11 PUSH1 0x40 MLOAD DUP2 PUSH4 0xFFFFFFFF AND PUSH1 0xE0 SHL DUP2 MSTORE PUSH1 0x4 ADD PUSH0 PUSH1 0x40 MLOAD DUP1 DUP4 SUB DUP2 DUP7 GAS STATICCALL ISZERO DUP1 ISZERO PUSH2 0x214 JUMPI RETURNDATASIZE PUSH0 DUP1 RETURNDATACOPY RETURNDATASIZE PUSH0 REVERT JUMPDEST POP POP POP POP PUSH1 0x40 MLOAD RETURNDATASIZE PUSH0 DUP3 RETURNDATACOPY RETURNDATASIZE PUSH1 0x1F NOT PUSH1 0x1F DUP3 ADD AND DUP3 ADD DUP1 PUSH1 0x40 MSTORE POP DUP2 ADD SWAP1 PUSH2 0x23C SWAP2 SWAP1 PUSH2 0xA4B JUMP JUMPDEST SWAP1 POP PUSH0 JUMPDEST DUP3 MLOAD DUP2 LT ISZERO PUSH2 0x625 JUMPI PUSH0 DUP4 DUP3 DUP2 MLOAD DUP2 LT PUSH2 0x25D JUMPI PUSH2 0x25C PUSH2 0xA92 JUMP JUMPDEST JUMPDEST PUSH1 0x20 MUL PUSH1 0x20 ADD ADD MLOAD SWAP1 POP PUSH0 PUSH1 0x3 PUSH0 SWAP1 SLOAD SWAP1 PUSH2 0x100 EXP SWAP1 DIV PUSH20 0xFFFFFFFFFFFFFFFFFFFFFFFFFFFFFFFFFFFFFFFF AND PUSH20 0xFFFFFFFFFFFFFFFFFFFFFFFFFFFFFFFFFFFFFFFF AND PUSH4 0x3E4D77F DUP4 PUSH1 0x40 MLOAD DUP3 PUSH4 0xFFFFFFFF AND PUSH1 0xE0 SHL DUP2 MSTORE PUSH1 0x4 ADD PUSH2 0x2C2 SWAP2 SWAP1 PUSH2 0xACE JUMP JUMPDEST PUSH0 PUSH1 0x40 MLOAD DUP1 DUP4 SUB DUP2 DUP7 GAS STATICCALL ISZERO DUP1 ISZERO PUSH2 0x2DC JUMPI RETURNDATASIZE PUSH0 DUP1 RETURNDATACOPY RETURNDATASIZE PUSH0 REVERT JUMPDEST POP POP POP POP PUSH1 0x40 MLOAD RETURNDATASIZE PUSH0 DUP3 RETURNDATACOPY RETURNDATASIZE PUSH1 0x1F NOT PUSH1 0x1F DUP3 ADD AND DUP3 ADD DUP1 PUSH1 0x40 MSTORE POP DUP2 ADD SWAP1 PUSH2 0x304 SWAP2 SWAP1 PUSH2 0xCA0 JUMP JUMPDEST SWAP1 POP PUSH0 JUMPDEST DUP5 MLOAD DUP2 LT ISZERO PUSH2 0x615 JUMPI PUSH0 DUP6 DUP3 DUP2 MLOAD DUP2 LT PUSH2 0x325 JUMPI PUSH2 0x324 PUSH2 0xA92 JUMP JUMPDEST JUMPDEST PUSH1 0x20 MUL PUSH1 0x20 ADD ADD MLOAD SWAP1 POP DUP1 DUP5 SUB PUSH2 0x606 JUMPI PUSH0 PUSH1 0x2 PUSH0 SWAP1 SLOAD SWAP1 PUSH2 0x100 EXP SWAP1 DIV PUSH20 0xFFFFFFFFFFFFFFFFFFFFFFFFFFFFFFFFFFFFFFFF AND PUSH20 0xFFFFFFFFFFFFFFFFFFFFFFFFFFFFFFFFFFFFFFFF AND PUSH4 0xE875B1CA DUP4 PUSH1 0x40 MLOAD DUP3 PUSH4 0xFFFFFFFF AND PUSH1 0xE0 SHL DUP2 MSTORE PUSH1 0x4 ADD PUSH2 0x391 SWAP2 SWAP1 PUSH2 0xACE JUMP JUMPDEST PUSH1 0x60 PUSH1 0x40 MLOAD DUP1 DUP4 SUB DUP2 DUP7 GAS STATICCALL ISZERO DUP1 ISZERO PUSH2 0x3AC JUMPI RETURNDATASIZE PUSH0 DUP1 RETURNDATACOPY RETURNDATASIZE PUSH0 REVERT JUMPDEST POP POP POP POP PUSH1 0x40 MLOAD RETURNDATASIZE PUSH1 0x1F NOT PUSH1 0x1F DUP3 ADD AND DUP3 ADD DUP1 PUSH1 0x40 MSTORE POP DUP2 ADD SWAP1 PUSH2 0x3D0 SWAP2 SWAP1 PUSH2 0xDA7 JUMP JUMPDEST SWAP1 POP PUSH0 PUSH1 0x1 PUSH0 SWAP1 SLOAD SWAP1 PUSH2 0x100 EXP SWAP1 DIV PUSH20 0xFFFFFFFFFFFFFFFFFFFFFFFFFFFFFFFFFFFFFFFF AND PUSH20 0xFFFFFFFFFFFFFFFFFFFFFFFFFFFFFFFFFFFFFFFF AND PUSH4 0xD2B0649A DUP8 PUSH1 0x40 MLOAD DUP3 PUSH4 0xFFFFFFFF AND PUSH1 0xE0 SHL DUP2 MSTORE PUSH1 0x4 ADD PUSH2 0x42D SWAP2 SWAP1 PUSH2 0xACE JUMP JUMPDEST PUSH0 PUSH1 0x40 MLOAD DUP1 DUP4 SUB DUP2 DUP7 GAS STATICCALL ISZERO DUP1 ISZERO PUSH2 0x447 JUMPI RETURNDATASIZE PUSH0 DUP1 RETURNDATACOPY RETURNDATASIZE PUSH0 REVERT JUMPDEST POP POP POP POP PUSH1 0x40 MLOAD RETURNDATASIZE PUSH0 DUP3 RETURNDATACOPY RETURNDATASIZE PUSH1 0x1F NOT PUSH1 0x1F DUP3 ADD AND DUP3 ADD DUP1 PUSH1 0x40 MSTORE POP DUP2 ADD SWAP1 PUSH2 0x46F SWAP2 SWAP1 PUSH2 0xECA JUMP JUMPDEST SWAP1 POP DUP2 PUSH1 0x40 ADD MLOAD ISZERO DUP1 PUSH2 0x489 JUMPI POP DUP2 PUSH1 0x20 ADD MLOAD DUP6 PUSH0 ADD MLOAD EQ ISZERO JUMPDEST ISZERO PUSH2 0x4BF JUMPI PUSH1 0x4 DUP6 PUSH0 ADD MLOAD SWAP1 DUP1 PUSH1 0x1 DUP2 SLOAD ADD DUP1 DUP3 SSTORE DUP1 SWAP2 POP POP PUSH1 0x1 SWAP1 SUB SWAP1 PUSH0 MSTORE PUSH1 0x20 PUSH0 KECCAK256 ADD PUSH0 SWAP1 SWAP2 SWAP1 SWAP2 SWAP1 SWAP2 POP SSTORE POP POP POP PUSH2 0x608 JUMP JUMPDEST PUSH0 DUP2 PUSH1 0x60 ADD MLOAD PUSH1 0x2 DUP2 GT ISZERO PUSH2 0x4D7 JUMPI PUSH2 0x4D6 PUSH2 0xF11 JUMP JUMPDEST JUMPDEST DUP7 PUSH1 0x20 ADD MLOAD PUSH1 0x2 DUP2 GT ISZERO PUSH2 0x4EE JUMPI PUSH2 0x4ED PUSH2 0xF11 JUMP JUMPDEST JUMPDEST EQ PUSH2 0x532 JUMPI PUSH1 0x1 SWAP1 POP PUSH32 0xB854BFE52494E2D4FC9DC6C3EF7BB92FC0EED853BBCA3D0E847806B02B2BA25 DUP7 PUSH0 ADD MLOAD PUSH1 0x40 MLOAD PUSH2 0x529 SWAP2 SWAP1 PUSH2 0xF88 JUMP JUMPDEST PUSH1 0x40 MLOAD DUP1 SWAP2 SUB SWAP1 LOG1 JUMPDEST DUP1 PUSH2 0x590 JUMPI PUSH0 DUP7 PUSH1 0x60 ADD MLOAD SWAP1 POP PUSH0 DUP4 PUSH1 0xA0 ADD MLOAD SWAP1 POP DUP1 DUP3 EQ PUSH2 0x58D JUMPI PUSH1 0x1 SWAP3 POP PUSH32 0xB854BFE52494E2D4FC9DC6C3EF7BB92FC0EED853BBCA3D0E847806B02B2BA25 DUP9 PUSH0 ADD MLOAD PUSH1 0x40 MLOAD PUSH2 0x584 SWAP2 SWAP1 PUSH2 0x1024 JUMP JUMPDEST PUSH1 0x40 MLOAD DUP1 SWAP2 SUB SWAP1 LOG1 JUMPDEST POP POP JUMPDEST DUP1 ISZERO PUSH2 0x5C8 JUMPI PUSH1 0x4 DUP7 PUSH0 ADD MLOAD SWAP1 DUP1 PUSH1 0x1 DUP2 SLOAD ADD DUP1 DUP3 SSTORE DUP1 SWAP2 POP POP PUSH1 0x1 SWAP1 SUB SWAP1 PUSH0 MSTORE PUSH1 0x20 PUSH0 KECCAK256 ADD PUSH0 SWAP1 SWAP2 SWAP1 SWAP2 SWAP1 SWAP2 POP SSTORE POP POP POP POP PUSH2 0x615 JUMP JUMPDEST PUSH32 0xB854BFE52494E2D4FC9DC6C3EF7BB92FC0EED853BBCA3D0E847806B02B2BA25 DUP7 PUSH0 ADD MLOAD PUSH1 0x40 MLOAD PUSH2 0x5FA SWAP2 SWAP1 PUSH2 0x10C0 JUMP JUMPDEST PUSH1 0x40 MLOAD DUP1 SWAP2 SUB SWAP1 LOG1 POP POP POP JUMPDEST POP JUMPDEST DUP1 DUP1 PUSH1 0x1 ADD SWAP2 POP POP PUSH2 0x308 JUMP JUMPDEST POP POP POP DUP1 DUP1 PUSH1 0x1 ADD SWAP2 POP POP PUSH2 0x240 JUMP JUMPDEST POP POP POP JUMP JUMPDEST PUSH1 0x60 PUSH0 PUSH1 0x4 DUP1 SLOAD SWAP1 POP SUB PUSH2 0x673 JUMPI PUSH1 0x40 MLOAD PUSH32 0x8C379A000000000000000000000000000000000000000000000000000000000 DUP2 MSTORE PUSH1 0x4 ADD PUSH2 0x66A SWAP1 PUSH2 0x1136 JUMP JUMPDEST PUSH1 0x40 MLOAD DUP1 SWAP2 SUB SWAP1 REVERT JUMPDEST PUSH1 0x4 DUP1 SLOAD DUP1 PUSH1 0x20 MUL PUSH1 0x20 ADD PUSH1 0x40 MLOAD SWAP1 DUP2 ADD PUSH1 0x40 MSTORE DUP1 SWAP3 SWAP2 SWAP1 DUP2 DUP2 MSTORE PUSH1 0x20 ADD DUP3 DUP1 SLOAD DUP1 ISZERO PUSH2 0x6BD JUMPI PUSH1 0x20 MUL DUP3 ADD SWAP2 SWAP1 PUSH0 MSTORE PUSH1 0x20 PUSH0 KECCAK256 SWAP1 JUMPDEST DUP2 SLOAD DUP2 MSTORE PUSH1 0x20 ADD SWAP1 PUSH1 0x1 ADD SWAP1 DUP1 DUP4 GT PUSH2 0x6A9 JUMPI JUMPDEST POP POP POP POP POP SWAP1 POP SWAP1 JUMP JUMPDEST PUSH0 DUP1 SLOAD SWAP1 PUSH2 0x100 EXP SWAP1 DIV PUSH20 0xFFFFFFFFFFFFFFFFFFFFFFFFFFFFFFFFFFFFFFFF AND DUP2 JUMP JUMPDEST PUSH0 DUP2 MLOAD SWAP1 POP SWAP2 SWAP1 POP JUMP JUMPDEST PUSH0 DUP3 DUP3 MSTORE PUSH1 0x20 DUP3 ADD SWAP1 POP SWAP3 SWAP2 POP POP JUMP JUMPDEST PUSH0 DUP2 SWAP1 POP PUSH1 0x20 DUP3 ADD SWAP1 POP SWAP2 SWAP1 POP JUMP JUMPDEST PUSH0 DUP2 SWAP1 POP SWAP2 SWAP1 POP JUMP JUMPDEST PUSH2 0x725 DUP2 PUSH2 0x713 JUMP JUMPDEST DUP3 MSTORE POP POP JUMP JUMPDEST PUSH0 PUSH2 0x736 DUP4 DUP4 PUSH2 0x71C JUMP JUMPDEST PUSH1 0x20 DUP4 ADD SWAP1 POP SWAP3 SWAP2 POP POP JUMP JUMPDEST PUSH0 PUSH1 0x20 DUP3 ADD SWAP1 POP SWAP2 SWAP1 POP JUMP JUMPDEST PUSH0 PUSH2 0x758 DUP3 PUSH2 0x6EA JUMP JUMPDEST PUSH2 0x762 DUP2 DUP6 PUSH2 0x6F4 JUMP JUMPDEST SWAP4 POP PUSH2 0x76D DUP4 PUSH2 0x704 JUMP JUMPDEST DUP1 PUSH0 JUMPDEST DUP4 DUP2 LT ISZERO PUSH2 0x79D JUMPI DUP2 MLOAD PUSH2 0x784 DUP9 DUP3 PUSH2 0x72B JUMP JUMPDEST SWAP8 POP PUSH2 0x78F DUP4 PUSH2 0x742 JUMP JUMPDEST SWAP3 POP POP PUSH1 0x1 DUP2 ADD SWAP1 POP PUSH2 0x770 JUMP JUMPDEST POP DUP6 SWAP4 POP POP POP POP SWAP3 SWAP2 POP POP JUMP JUMPDEST PUSH0 PUSH1 0x20 DUP3 ADD SWAP1 POP DUP2 DUP2 SUB PUSH0 DUP4 ADD MSTORE PUSH2 0x7C2 DUP2 DUP5 PUSH2 0x74E JUMP JUMPDEST SWAP1 POP SWAP3 SWAP2 POP POP JUMP JUMPDEST PUSH0 PUSH20 0xFFFFFFFFFFFFFFFFFFFFFFFFFFFFFFFFFFFFFFFF DUP3 AND SWAP1 POP SWAP2 SWAP1 POP JUMP JUMPDEST PUSH0 PUSH2 0x7F3 DUP3 PUSH2 0x7CA JUMP JUMPDEST SWAP1 POP SWAP2 SWAP1 POP JUMP JUMPDEST PUSH2 0x803 DUP2 PUSH2 0x7E9 JUMP JUMPDEST DUP3 MSTORE POP POP JUMP JUMPDEST PUSH0 PUSH1 0x20 DUP3 ADD SWAP1 POP PUSH2 0x81C PUSH0 DUP4 ADD DUP5 PUSH2 0x7FA JUMP JUMPDEST SWAP3 SWAP2 POP POP JUMP JUMPDEST PUSH0 DUP3 DUP3 MSTORE PUSH1 0x20 DUP3 ADD SWAP1 POP SWAP3 SWAP2 POP POP JUMP JUMPDEST PUSH32 0x4F6E6C792074686520636F6E7472616374206F776E65722063616E2070657266 PUSH0 DUP3 ADD MSTORE PUSH32 0x6F726D2074686973206F7065726174696F6E0000000000000000000000000000 PUSH1 0x20 DUP3 ADD MSTORE POP JUMP JUMPDEST PUSH0 PUSH2 0x88C PUSH1 0x32 DUP4 PUSH2 0x822 JUMP JUMPDEST SWAP2 POP PUSH2 0x897 DUP3 PUSH2 0x832 JUMP JUMPDEST PUSH1 0x40 DUP3 ADD SWAP1 POP SWAP2 SWAP1 POP JUMP JUMPDEST PUSH0 PUSH1 0x20 DUP3 ADD SWAP1 POP DUP2 DUP2 SUB PUSH0 DUP4 ADD MSTORE PUSH2 0x8B9 DUP2 PUSH2 0x880 JUMP JUMPDEST SWAP1 POP SWAP2 SWAP1 POP JUMP JUMPDEST PUSH0 PUSH1 0x40 MLOAD SWAP1 POP SWAP1 JUMP JUMPDEST PUSH0 DUP1 REVERT JUMPDEST PUSH0 DUP1 REVERT JUMPDEST PUSH0 DUP1 REVERT JUMPDEST PUSH0 PUSH1 0x1F NOT PUSH1 0x1F DUP4 ADD AND SWAP1 POP SWAP2 SWAP1 POP JUMP JUMPDEST PUSH32 0x4E487B7100000000000000000000000000000000000000000000000000000000 PUSH0 MSTORE PUSH1 0x41 PUSH1 0x4 MSTORE PUSH1 0x24 PUSH0 REVERT JUMPDEST PUSH2 0x91B DUP3 PUSH2 0x8D5 JUMP JUMPDEST DUP2 ADD DUP2 DUP2 LT PUSH8 0xFFFFFFFFFFFFFFFF DUP3 GT OR ISZERO PUSH2 0x93A JUMPI PUSH2 0x939 PUSH2 0x8E5 JUMP JUMPDEST JUMPDEST DUP1 PUSH1 0x40 MSTORE POP POP POP JUMP JUMPDEST PUSH0 PUSH2 0x94C PUSH2 0x8C0 JUMP JUMPDEST SWAP1 POP PUSH2 0x958 DUP3 DUP3 PUSH2 0x912 JUMP JUMPDEST SWAP2 SWAP1 POP JUMP JUMPDEST PUSH0 PUSH8 0xFFFFFFFFFFFFFFFF DUP3 GT ISZERO PUSH2 0x977 JUMPI PUSH2 0x976 PUSH2 0x8E5 JUMP JUMPDEST JUMPDEST PUSH1 0x20 DUP3 MUL SWAP1 POP PUSH1 0x20 DUP2 ADD SWAP1 POP SWAP2 SWAP1 POP JUMP JUMPDEST PUSH0 DUP1 REVERT JUMPDEST PUSH2 0x995 DUP2 PUSH2 0x713 JUMP JUMPDEST DUP2 EQ PUSH2 0x99F JUMPI PUSH0 DUP1 REVERT JUMPDEST POP JUMP JUMPDEST PUSH0 DUP2 MLOAD SWAP1 POP PUSH2 0x9B0 DUP2 PUSH2 0x98C JUMP JUMPDEST SWAP3 SWAP2 POP POP JUMP JUMPDEST PUSH0 PUSH2 0x9C8 PUSH2 0x9C3 DUP5 PUSH2 0x95D JUMP JUMPDEST PUSH2 0x943 JUMP JUMPDEST SWAP1 POP DUP1 DUP4 DUP3 MSTORE PUSH1 0x20 DUP3 ADD SWAP1 POP PUSH1 0x20 DUP5 MUL DUP4 ADD DUP6 DUP2 GT ISZERO PUSH2 0x9EB JUMPI PUSH2 0x9EA PUSH2 0x988 JUMP JUMPDEST JUMPDEST DUP4 JUMPDEST DUP2 DUP2 LT ISZERO PUSH2 0xA14 JUMPI DUP1 PUSH2 0xA00 DUP9 DUP3 PUSH2 0x9A2 JUMP JUMPDEST DUP5 MSTORE PUSH1 0x20 DUP5 ADD SWAP4 POP POP PUSH1 0x20 DUP2 ADD SWAP1 POP PUSH2 0x9ED JUMP JUMPDEST POP POP POP SWAP4 SWAP3 POP POP POP JUMP JUMPDEST PUSH0 DUP3 PUSH1 0x1F DUP4 ADD SLT PUSH2 0xA32 JUMPI PUSH2 0xA31 PUSH2 0x8D1 JUMP JUMPDEST JUMPDEST DUP2 MLOAD PUSH2 0xA42 DUP5 DUP3 PUSH1 0x20 DUP7 ADD PUSH2 0x9B6 JUMP JUMPDEST SWAP2 POP POP SWAP3 SWAP2 POP POP JUMP JUMPDEST PUSH0 PUSH1 0x20 DUP3 DUP5 SUB SLT ISZERO PUSH2 0xA60 JUMPI PUSH2 0xA5F PUSH2 0x8C9 JUMP JUMPDEST JUMPDEST PUSH0 DUP3 ADD MLOAD PUSH8 0xFFFFFFFFFFFFFFFF DUP2 GT ISZERO PUSH2 0xA7D JUMPI PUSH2 0xA7C PUSH2 0x8CD JUMP JUMPDEST JUMPDEST PUSH2 0xA89 DUP5 DUP3 DUP6 ADD PUSH2 0xA1E JUMP JUMPDEST SWAP2 POP POP SWAP3 SWAP2 POP POP JUMP JUMPDEST PUSH32 0x4E487B7100000000000000000000000000000000000000000000000000000000 PUSH0 MSTORE PUSH1 0x32 PUSH1 0x4 MSTORE PUSH1 0x24 PUSH0 REVERT JUMPDEST PUSH2 0xAC8 DUP2 PUSH2 0x713 JUMP JUMPDEST DUP3 MSTORE POP POP JUMP JUMPDEST PUSH0 PUSH1 0x20 DUP3 ADD SWAP1 POP PUSH2 0xAE1 PUSH0 DUP4 ADD DUP5 PUSH2 0xABF JUMP JUMPDEST SWAP3 SWAP2 POP POP JUMP JUMPDEST PUSH0 DUP1 REVERT JUMPDEST PUSH0 DUP1 REVERT JUMPDEST PUSH1 0x3 DUP2 LT PUSH2 0xAFB JUMPI PUSH0 DUP1 REVERT JUMPDEST POP JUMP JUMPDEST PUSH0 DUP2 MLOAD SWAP1 POP PUSH2 0xB0C DUP2 PUSH2 0xAEF JUMP JUMPDEST SWAP3 SWAP2 POP POP JUMP JUMPDEST PUSH0 DUP1 REVERT JUMPDEST PUSH0 PUSH8 0xFFFFFFFFFFFFFFFF DUP3 GT ISZERO PUSH2 0xB30 JUMPI PUSH2 0xB2F PUSH2 0x8E5 JUMP JUMPDEST JUMPDEST PUSH2 0xB39 DUP3 PUSH2 0x8D5 JUMP JUMPDEST SWAP1 POP PUSH1 0x20 DUP2 ADD SWAP1 POP SWAP2 SWAP1 POP JUMP JUMPDEST PUSH0 JUMPDEST DUP4 DUP2 LT ISZERO PUSH2 0xB63 JUMPI DUP1 DUP3 ADD MLOAD DUP2 DUP5 ADD MSTORE PUSH1 0x20 DUP2 ADD SWAP1 POP PUSH2 0xB48 JUMP JUMPDEST PUSH0 DUP5 DUP5 ADD MSTORE POP POP POP POP JUMP JUMPDEST PUSH0 PUSH2 0xB80 PUSH2 0xB7B DUP5 PUSH2 0xB16 JUMP JUMPDEST PUSH2 0x943 JUMP JUMPDEST SWAP1 POP DUP3 DUP2 MSTORE PUSH1 0x20 DUP2 ADD DUP5 DUP5 DUP5 ADD GT ISZERO PUSH2 0xB9C JUMPI PUSH2 0xB9B PUSH2 0xB12 JUMP JUMPDEST JUMPDEST PUSH2 0xBA7 DUP5 DUP3 DUP6 PUSH2 0xB46 JUMP JUMPDEST POP SWAP4 SWAP3 POP POP POP JUMP JUMPDEST PUSH0 DUP3 PUSH1 0x1F DUP4 ADD SLT PUSH2 0xBC3 JUMPI PUSH2 0xBC2 PUSH2 0x8D1 JUMP JUMPDEST JUMPDEST DUP2 MLOAD PUSH2 0xBD3 DUP5 DUP3 PUSH1 0x20 DUP7 ADD PUSH2 0xB6E JUMP JUMPDEST SWAP2 POP POP SWAP3 SWAP2 POP POP JUMP JUMPDEST PUSH0 DUP2 SWAP1 POP SWAP2 SWAP1 POP JUMP JUMPDEST PUSH2 0xBEE DUP2 PUSH2 0xBDC JUMP JUMPDEST DUP2 EQ PUSH2 0xBF8 JUMPI PUSH0 DUP1 REVERT JUMPDEST POP JUMP JUMPDEST PUSH0 DUP2 MLOAD SWAP1 POP PUSH2 0xC09 DUP2 PUSH2 0xBE5 JUMP JUMPDEST SWAP3 SWAP2 POP POP JUMP JUMPDEST PUSH0 PUSH1 0x80 DUP3 DUP5 SUB SLT ISZERO PUSH2 0xC24 JUMPI PUSH2 0xC23 PUSH2 0xAE7 JUMP JUMPDEST JUMPDEST PUSH2 0xC2E PUSH1 0x80 PUSH2 0x943 JUMP JUMPDEST SWAP1 POP PUSH0 PUSH2 0xC3D DUP5 DUP3 DUP6 ADD PUSH2 0x9A2 JUMP JUMPDEST PUSH0 DUP4 ADD MSTORE POP PUSH1 0x20 PUSH2 0xC50 DUP5 DUP3 DUP6 ADD PUSH2 0xAFE JUMP JUMPDEST PUSH1 0x20 DUP4 ADD MSTORE POP PUSH1 0x40 DUP3 ADD MLOAD PUSH8 0xFFFFFFFFFFFFFFFF DUP2 GT ISZERO PUSH2 0xC74 JUMPI PUSH2 0xC73 PUSH2 0xAEB JUMP JUMPDEST JUMPDEST PUSH2 0xC80 DUP5 DUP3 DUP6 ADD PUSH2 0xBAF JUMP JUMPDEST PUSH1 0x40 DUP4 ADD MSTORE POP PUSH1 0x60 PUSH2 0xC94 DUP5 DUP3 DUP6 ADD PUSH2 0xBFB JUMP JUMPDEST PUSH1 0x60 DUP4 ADD MSTORE POP SWAP3 SWAP2 POP POP JUMP JUMPDEST PUSH0 PUSH1 0x20 DUP3 DUP5 SUB SLT ISZERO PUSH2 0xCB5 JUMPI PUSH2 0xCB4 PUSH2 0x8C9 JUMP JUMPDEST JUMPDEST PUSH0 DUP3 ADD MLOAD PUSH8 0xFFFFFFFFFFFFFFFF DUP2 GT ISZERO PUSH2 0xCD2 JUMPI PUSH2 0xCD1 PUSH2 0x8CD JUMP JUMPDEST JUMPDEST PUSH2 0xCDE DUP5 DUP3 DUP6 ADD PUSH2 0xC0F JUMP JUMPDEST SWAP2 POP POP SWAP3 SWAP2 POP POP JUMP JUMPDEST PUSH2 0xCF0 DUP2 PUSH2 0x7E9 JUMP JUMPDEST DUP2 EQ PUSH2 0xCFA JUMPI PUSH0 DUP1 REVERT JUMPDEST POP JUMP JUMPDEST PUSH0 DUP2 MLOAD SWAP1 POP PUSH2 0xD0B DUP2 PUSH2 0xCE7 JUMP JUMPDEST SWAP3 SWAP2 POP POP JUMP JUMPDEST PUSH0 DUP2 ISZERO ISZERO SWAP1 POP SWAP2 SWAP1 POP JUMP JUMPDEST PUSH2 0xD25 DUP2 PUSH2 0xD11 JUMP JUMPDEST DUP2 EQ PUSH2 0xD2F JUMPI PUSH0 DUP1 REVERT JUMPDEST POP JUMP JUMPDEST PUSH0 DUP2 MLOAD SWAP1 POP PUSH2 0xD40 DUP2 PUSH2 0xD1C JUMP JUMPDEST SWAP3 SWAP2 POP POP JUMP JUMPDEST PUSH0 PUSH1 0x60 DUP3 DUP5 SUB SLT ISZERO PUSH2 0xD5B JUMPI PUSH2 0xD5A PUSH2 0xAE7 JUMP JUMPDEST JUMPDEST PUSH2 0xD65 PUSH1 0x60 PUSH2 0x943 JUMP JUMPDEST SWAP1 POP PUSH0 PUSH2 0xD74 DUP5 DUP3 DUP6 ADD PUSH2 0xCFD JUMP JUMPDEST PUSH0 DUP4 ADD MSTORE POP PUSH1 0x20 PUSH2 0xD87 DUP5 DUP3 DUP6 ADD PUSH2 0x9A2 JUMP JUMPDEST PUSH1 0x20 DUP4 ADD MSTORE POP PUSH1 0x40 PUSH2 0xD9B DUP5 DUP3 DUP6 ADD PUSH2 0xD32 JUMP JUMPDEST PUSH1 0x40 DUP4 ADD MSTORE POP SWAP3 SWAP2 POP POP JUMP JUMPDEST PUSH0 PUSH1 0x60 DUP3 DUP5 SUB SLT ISZERO PUSH2 0xDBC JUMPI PUSH2 0xDBB PUSH2 0x8C9 JUMP JUMPDEST JUMPDEST PUSH0 PUSH2 0xDC9 DUP5 DUP3 DUP6 ADD PUSH2 0xD46 JUMP JUMPDEST SWAP2 POP POP SWAP3 SWAP2 POP POP JUMP JUMPDEST PUSH1 0x3 DUP2 LT PUSH2 0xDDE JUMPI PUSH0 DUP1 REVERT JUMPDEST POP JUMP JUMPDEST PUSH0 DUP2 MLOAD SWAP1 POP PUSH2 0xDEF DUP2 PUSH2 0xDD2 JUMP JUMPDEST SWAP3 SWAP2 POP POP JUMP JUMPDEST PUSH0 PUSH1 0xC0 DUP3 DUP5 SUB SLT ISZERO PUSH2 0xE0A JUMPI PUSH2 0xE09 PUSH2 0xAE7 JUMP JUMPDEST JUMPDEST PUSH2 0xE14 PUSH1 0xC0 PUSH2 0x943 JUMP JUMPDEST SWAP1 POP PUSH0 DUP3 ADD MLOAD PUSH8 0xFFFFFFFFFFFFFFFF DUP2 GT ISZERO PUSH2 0xE33 JUMPI PUSH2 0xE32 PUSH2 0xAEB JUMP JUMPDEST JUMPDEST PUSH2 0xE3F DUP5 DUP3 DUP6 ADD PUSH2 0xBAF JUMP JUMPDEST PUSH0 DUP4 ADD MSTORE POP PUSH1 0x20 DUP3 ADD MLOAD PUSH8 0xFFFFFFFFFFFFFFFF DUP2 GT ISZERO PUSH2 0xE62 JUMPI PUSH2 0xE61 PUSH2 0xAEB JUMP JUMPDEST JUMPDEST PUSH2 0xE6E DUP5 DUP3 DUP6 ADD PUSH2 0xBAF JUMP JUMPDEST PUSH1 0x20 DUP4 ADD MSTORE POP PUSH1 0x40 PUSH2 0xE82 DUP5 DUP3 DUP6 ADD PUSH2 0x9A2 JUMP JUMPDEST PUSH1 0x40 DUP4 ADD MSTORE POP PUSH1 0x60 PUSH2 0xE96 DUP5 DUP3 DUP6 ADD PUSH2 0xDE1 JUMP JUMPDEST PUSH1 0x60 DUP4 ADD MSTORE POP PUSH1 0x80 PUSH2 0xEAA DUP5 DUP3 DUP6 ADD PUSH2 0x9A2 JUMP JUMPDEST PUSH1 0x80 DUP4 ADD MSTORE POP PUSH1 0xA0 PUSH2 0xEBE DUP5 DUP3 DUP6 ADD PUSH2 0xBFB JUMP JUMPDEST PUSH1 0xA0 DUP4 ADD MSTORE POP SWAP3 SWAP2 POP POP JUMP JUMPDEST PUSH0 PUSH1 0x20 DUP3 DUP5 SUB SLT ISZERO PUSH2 0xEDF JUMPI PUSH2 0xEDE PUSH2 0x8C9 JUMP JUMPDEST JUMPDEST PUSH0 DUP3 ADD MLOAD PUSH8 0xFFFFFFFFFFFFFFFF DUP2 GT ISZERO PUSH2 0xEFC JUMPI PUSH2 0xEFB PUSH2 0x8CD JUMP JUMPDEST JUMPDEST PUSH2 0xF08 DUP5 DUP3 DUP6 ADD PUSH2 0xDF5 JUMP JUMPDEST SWAP2 POP POP SWAP3 SWAP2 POP POP JUMP JUMPDEST PUSH32 0x4E487B7100000000000000000000000000000000000000000000000000000000 PUSH0 MSTORE PUSH1 0x21 PUSH1 0x4 MSTORE PUSH1 0x24 PUSH0 REVERT JUMPDEST PUSH32 0x4F7065726174696F6E20706572666F726D656420697320646966666572656E74 PUSH0 DUP3 ADD MSTORE POP JUMP JUMPDEST PUSH0 PUSH2 0xF72 PUSH1 0x20 DUP4 PUSH2 0x822 JUMP JUMPDEST SWAP2 POP PUSH2 0xF7D DUP3 PUSH2 0xF3E JUMP JUMPDEST PUSH1 0x20 DUP3 ADD SWAP1 POP SWAP2 SWAP1 POP JUMP JUMPDEST PUSH0 PUSH1 0x40 DUP3 ADD SWAP1 POP PUSH2 0xF9B PUSH0 DUP4 ADD DUP5 PUSH2 0xABF JUMP JUMPDEST DUP2 DUP2 SUB PUSH1 0x20 DUP4 ADD MSTORE PUSH2 0xFAC DUP2 PUSH2 0xF66 JUMP JUMPDEST SWAP1 POP SWAP3 SWAP2 POP POP JUMP JUMPDEST PUSH32 0x70726F63657373656420706572736F6E616C206461746120646F65736E74206D PUSH0 DUP3 ADD MSTORE PUSH32 0x6174636800000000000000000000000000000000000000000000000000000000 PUSH1 0x20 DUP3 ADD MSTORE POP JUMP JUMPDEST PUSH0 PUSH2 0x100E PUSH1 0x24 DUP4 PUSH2 0x822 JUMP JUMPDEST SWAP2 POP PUSH2 0x1019 DUP3 PUSH2 0xFB4 JUMP JUMPDEST PUSH1 0x40 DUP3 ADD SWAP1 POP SWAP2 SWAP1 POP JUMP JUMPDEST PUSH0 PUSH1 0x40 DUP3 ADD SWAP1 POP PUSH2 0x1037 PUSH0 DUP4 ADD DUP5 PUSH2 0xABF JUMP JUMPDEST DUP2 DUP2 SUB PUSH1 0x20 DUP4 ADD MSTORE PUSH2 0x1048 DUP2 PUSH2 0x1002 JUMP JUMPDEST SWAP1 POP SWAP3 SWAP2 POP POP JUMP JUMPDEST PUSH32 0x4163746F7227732061646472657373206D617463686564207375636365736675 PUSH0 DUP3 ADD MSTORE PUSH32 0x6C6C790000000000000000000000000000000000000000000000000000000000 PUSH1 0x20 DUP3 ADD MSTORE POP JUMP JUMPDEST PUSH0 PUSH2 0x10AA PUSH1 0x23 DUP4 PUSH2 0x822 JUMP JUMPDEST SWAP2 POP PUSH2 0x10B5 DUP3 PUSH2 0x1050 JUMP JUMPDEST PUSH1 0x40 DUP3 ADD SWAP1 POP SWAP2 SWAP1 POP JUMP JUMPDEST PUSH0 PUSH1 0x40 DUP3 ADD SWAP1 POP PUSH2 0x10D3 PUSH0 DUP4 ADD DUP5 PUSH2 0xABF JUMP JUMPDEST DUP2 DUP2 SUB PUSH1 0x20 DUP4 ADD MSTORE PUSH2 0x10E4 DUP2 PUSH2 0x109E JUMP JUMPDEST SWAP1 POP SWAP3 SWAP2 POP POP JUMP JUMPDEST PUSH32 0x76696F6C61746F7220697320656D707479000000000000000000000000000000 PUSH0 DUP3 ADD MSTORE POP JUMP JUMPDEST PUSH0 PUSH2 0x1120 PUSH1 0x11 DUP4 PUSH2 0x822 JUMP JUMPDEST SWAP2 POP PUSH2 0x112B DUP3 PUSH2 0x10EC JUMP JUMPDEST PUSH1 0x20 DUP3 ADD SWAP1 POP SWAP2 SWAP1 POP JUMP JUMPDEST PUSH0 PUSH1 0x20 DUP3 ADD SWAP1 POP DUP2 DUP2 SUB PUSH0 DUP4 ADD MSTORE PUSH2 0x114D DUP2 PUSH2 0x1114 JUMP JUMPDEST SWAP1 POP SWAP2 SWAP1 POP JUMP INVALID LOG2 PUSH5 0x6970667358 0x22 SLT KECCAK256 CHAINID 0xC9 0xC8 PUSH11 0x9F70A06F1D041DFEC307D 0xEF PUSH1 0xE3 DUP4 RETURN 0xC0 0xAD PUSH4 0x9CD4BB5B 0x4B TIMESTAMP 0xDA DUP12 PUSH29 0x64736F6C63430008180033A2646970667358221220677364F3785649C0 CALLDATASIZE BALANCE CALLER CALL SWAP15 GASPRICE SLOAD SLOAD 0xE4 0xB7 0x29 STOP SWAP11 GASPRICE 0xB6 GT SHR 0xBC 0xE SWAP3 PUSH29 0x3A954E64736F6C63430008180033000000000000000000000000000000 "
		},
		"gasEstimates": {
			"creation": {
				"codeDepositCost": "4527600",
				"executionCost": "5276",
				"totalCost": "4532876"
			},
			"external": {
				"beforeEach()": "infinite",
				"testGetViolators()": "infinite",
				"testVerifyComplianceMatchingLogsAndConsents()": "infinite",
				"testVerifyComplianceNonMatchingOperations()": "infinite",
				"testVerifyComplianceNonMatchingProcessedPersonalData()": "infinite"
			}
		},
		"methodIdentifiers": {
			"beforeEach()": "6331e7d4",
			"testGetViolators()": "e7bcb071",
			"testVerifyComplianceMatchingLogsAndConsents()": "9c7fffb2",
			"testVerifyComplianceNonMatchingOperations()": "89845d55",
			"testVerifyComplianceNonMatchingProcessedPersonalData()": "baf7c7a5"
		}
	},
	"abi": [
		{
			"inputs": [],
			"name": "beforeEach",
			"outputs": [],
			"stateMutability": "nonpayable",
			"type": "function"
		},
		{
			"inputs": [],
			"name": "testGetViolators",
			"outputs": [],
			"stateMutability": "nonpayable",
			"type": "function"
		},
		{
			"inputs": [],
			"name": "testVerifyComplianceMatchingLogsAndConsents",
			"outputs": [],
			"stateMutability": "nonpayable",
			"type": "function"
		},
		{
			"inputs": [],
			"name": "testVerifyComplianceNonMatchingOperations",
			"outputs": [],
			"stateMutability": "nonpayable",
			"type": "function"
		},
		{
			"inputs": [],
			"name": "testVerifyComplianceNonMatchingProcessedPersonalData",
			"outputs": [],
			"stateMutability": "nonpayable",
			"type": "function"
		}
	]
}