{
	"contracts/test.sol": {
		"AgreementSmartContract": {
			"abi": [
				{
					"anonymous": false,
					"inputs": [
						{
							"indexed": false,
							"internalType": "bytes32",
							"name": "hashOfConsent",
							"type": "bytes32"
						}
					],
					"name": "ConsentAdded",
					"type": "event"
				},
				{
					"inputs": [
						{
							"internalType": "address",
							"name": "_purposeBlockAddress",
							"type": "address"
						},
						{
							"internalType": "bytes32",
							"name": "_purposeHashKeyOfDataUsage",
							"type": "bytes32"
						},
						{
							"internalType": "uint256",
							"name": "_userId",
							"type": "uint256"
						},
						{
							"internalType": "bool",
							"name": "_isConsented",
							"type": "bool"
						}
					],
					"name": "addConsent",
					"outputs": [
						{
							"internalType": "bytes32",
							"name": "",
							"type": "bytes32"
						}
					],
					"stateMutability": "nonpayable",
					"type": "function"
				},
				{
					"inputs": [
						{
							"internalType": "bytes32",
							"name": "",
							"type": "bytes32"
						}
					],
					"name": "mapHashConsent",
					"outputs": [
						{
							"internalType": "address",
							"name": "purposeBlockAddress",
							"type": "address"
						},
						{
							"internalType": "bytes32",
							"name": "purposeHashKeyOfDataUsage",
							"type": "bytes32"
						},
						{
							"internalType": "uint256",
							"name": "userId",
							"type": "uint256"
						},
						{
							"internalType": "bool",
							"name": "isConsented",
							"type": "bool"
						}
					],
					"stateMutability": "view",
					"type": "function"
				}
			],
			"devdoc": {
				"kind": "dev",
				"methods": {},
				"version": 1
			},
			"evm": {
				"assembly": "    /* \"contracts/test.sol\":61:2047  contract AgreementSmartContract {... */\n  mstore(0x40, 0x80)\n  callvalue\n  dup1\n  iszero\n  tag_1\n  jumpi\n  0x00\n  dup1\n  revert\ntag_1:\n  pop\n  dataSize(sub_0)\n  dup1\n  dataOffset(sub_0)\n  0x00\n  codecopy\n  0x00\n  return\nstop\n\nsub_0: assembly {\n        /* \"contracts/test.sol\":61:2047  contract AgreementSmartContract {... */\n      mstore(0x40, 0x80)\n      callvalue\n      dup1\n      iszero\n      tag_1\n      jumpi\n      0x00\n      dup1\n      revert\n    tag_1:\n      pop\n      jumpi(tag_2, lt(calldatasize, 0x04))\n      shr(0xe0, calldataload(0x00))\n      dup1\n      0x1fb922d5\n      eq\n      tag_3\n      jumpi\n      dup1\n      0x6f0fa36d\n      eq\n      tag_4\n      jumpi\n    tag_2:\n      0x00\n      dup1\n      revert\n        /* \"contracts/test.sol\":699:748  mapping(bytes32 => Consent) public mapHashConsent */\n    tag_3:\n      tag_5\n      0x04\n      dup1\n      calldatasize\n      sub\n      dup2\n      add\n      swap1\n      tag_6\n      swap2\n      swap1\n      tag_7\n      jump\t// in\n    tag_6:\n      tag_8\n      jump\t// in\n    tag_5:\n      mload(0x40)\n      tag_9\n      swap5\n      swap4\n      swap3\n      swap2\n      swap1\n      tag_10\n      jump\t// in\n    tag_9:\n      mload(0x40)\n      dup1\n      swap2\n      sub\n      swap1\n      return\n        /* \"contracts/test.sol\":937:2044  function addConsent(... */\n    tag_4:\n      tag_11\n      0x04\n      dup1\n      calldatasize\n      sub\n      dup2\n      add\n      swap1\n      tag_12\n      swap2\n      swap1\n      tag_13\n      jump\t// in\n    tag_12:\n      tag_14\n      jump\t// in\n    tag_11:\n      mload(0x40)\n      tag_15\n      swap2\n      swap1\n      tag_16\n      jump\t// in\n    tag_15:\n      mload(0x40)\n      dup1\n      swap2\n      sub\n      swap1\n      return\n        /* \"contracts/test.sol\":699:748  mapping(bytes32 => Consent) public mapHashConsent */\n    tag_8:\n      mstore(0x20, 0x00)\n      dup1\n      0x00\n      mstore\n      keccak256(0x00, 0x40)\n      0x00\n      swap2\n      pop\n      swap1\n      pop\n      dup1\n      0x00\n      add\n      0x00\n      swap1\n      sload\n      swap1\n      0x0100\n      exp\n      swap1\n      div\n      0xffffffffffffffffffffffffffffffffffffffff\n      and\n      swap1\n      dup1\n      0x01\n      add\n      sload\n      swap1\n      dup1\n      0x02\n      add\n      sload\n      swap1\n      dup1\n      0x03\n      add\n      0x00\n      swap1\n      sload\n      swap1\n      0x0100\n      exp\n      swap1\n      div\n      0xff\n      and\n      swap1\n      pop\n      dup5\n      jump\t// out\n        /* \"contracts/test.sol\":937:2044  function addConsent(... */\n    tag_14:\n        /* \"contracts/test.sol\":1115:1122  bytes32 */\n      0x00\n        /* \"contracts/test.sol\":1195:1216  bytes32 hashOfConsent */\n      dup1\n        /* \"contracts/test.sol\":1260:1280  _purposeBlockAddress */\n      dup6\n        /* \"contracts/test.sol\":1282:1308  _purposeHashKeyOfDataUsage */\n      dup6\n        /* \"contracts/test.sol\":1310:1317  _userId */\n      dup6\n        /* \"contracts/test.sol\":1319:1331  _isConsented */\n      dup6\n        /* \"contracts/test.sol\":1243:1332  abi.encodePacked(_purposeBlockAddress, _purposeHashKeyOfDataUsage, _userId, _isConsented) */\n      add(0x20, mload(0x40))\n      tag_18\n      swap5\n      swap4\n      swap3\n      swap2\n      swap1\n      tag_19\n      jump\t// in\n    tag_18:\n      mload(0x40)\n      0x20\n      dup2\n      dup4\n      sub\n      sub\n      dup2\n      mstore\n      swap1\n      0x40\n      mstore\n        /* \"contracts/test.sol\":1219:1343  keccak256(... */\n      dup1\n      mload\n      swap1\n      0x20\n      add\n      keccak256\n        /* \"contracts/test.sol\":1195:1343  bytes32 hashOfConsent = keccak256(... */\n      swap1\n      pop\n        /* \"contracts/test.sol\":1485:1486  0 */\n      0x00\n        /* \"contracts/test.sol\":1445:1459  mapHashConsent */\n      dup1\n        /* \"contracts/test.sol\":1445:1474  mapHashConsent[hashOfConsent] */\n      0x00\n        /* \"contracts/test.sol\":1460:1473  hashOfConsent */\n      dup4\n        /* \"contracts/test.sol\":1445:1474  mapHashConsent[hashOfConsent] */\n      dup2\n      mstore\n      0x20\n      add\n      swap1\n      dup2\n      mstore\n      0x20\n      add\n      0x00\n      keccak256\n        /* \"contracts/test.sol\":1445:1481  mapHashConsent[hashOfConsent].userId */\n      0x02\n      add\n      sload\n        /* \"contracts/test.sol\":1445:1486  mapHashConsent[hashOfConsent].userId == 0 */\n      eq\n        /* \"contracts/test.sol\":1423:1561  require(... */\n      tag_20\n      jumpi\n      mload(0x40)\n      0x08c379a000000000000000000000000000000000000000000000000000000000\n      dup2\n      mstore\n      0x04\n      add\n      tag_21\n      swap1\n      tag_22\n      jump\t// in\n    tag_21:\n      mload(0x40)\n      dup1\n      swap2\n      sub\n      swap1\n      revert\n    tag_20:\n        /* \"contracts/test.sol\":1651:1865  Consent({... */\n      mload(0x40)\n      dup1\n      0x80\n      add\n      0x40\n      mstore\n      dup1\n        /* \"contracts/test.sol\":1695:1715  _purposeBlockAddress */\n      dup8\n        /* \"contracts/test.sol\":1651:1865  Consent({... */\n      0xffffffffffffffffffffffffffffffffffffffff\n      and\n      dup2\n      mstore\n      0x20\n      add\n        /* \"contracts/test.sol\":1757:1783  _purposeHashKeyOfDataUsage */\n      dup7\n        /* \"contracts/test.sol\":1651:1865  Consent({... */\n      dup2\n      mstore\n      0x20\n      add\n        /* \"contracts/test.sol\":1806:1813  _userId */\n      dup6\n        /* \"contracts/test.sol\":1651:1865  Consent({... */\n      dup2\n      mstore\n      0x20\n      add\n        /* \"contracts/test.sol\":1841:1853  _isConsented */\n      dup5\n        /* \"contracts/test.sol\":1651:1865  Consent({... */\n      iszero\n      iszero\n      dup2\n      mstore\n      pop\n        /* \"contracts/test.sol\":1619:1633  mapHashConsent */\n      0x00\n        /* \"contracts/test.sol\":1619:1648  mapHashConsent[hashOfConsent] */\n      dup1\n        /* \"contracts/test.sol\":1634:1647  hashOfConsent */\n      dup4\n        /* \"contracts/test.sol\":1619:1648  mapHashConsent[hashOfConsent] */\n      dup2\n      mstore\n      0x20\n      add\n      swap1\n      dup2\n      mstore\n      0x20\n      add\n      0x00\n      keccak256\n        /* \"contracts/test.sol\":1619:1865  mapHashConsent[hashOfConsent] = Consent({... */\n      0x00\n      dup3\n      add\n      mload\n      dup2\n      0x00\n      add\n      exp(0x0100, 0x00)\n      dup2\n      sload\n      dup2\n      0xffffffffffffffffffffffffffffffffffffffff\n      mul\n      not\n      and\n      swap1\n      dup4\n      0xffffffffffffffffffffffffffffffffffffffff\n      and\n      mul\n      or\n      swap1\n      sstore\n      pop\n      0x20\n      dup3\n      add\n      mload\n      dup2\n      0x01\n      add\n      sstore\n      0x40\n      dup3\n      add\n      mload\n      dup2\n      0x02\n      add\n      sstore\n      0x60\n      dup3\n      add\n      mload\n      dup2\n      0x03\n      add\n      exp(0x0100, 0x00)\n      dup2\n      sload\n      dup2\n      0xff\n      mul\n      not\n      and\n      swap1\n      dup4\n      iszero\n      iszero\n      mul\n      or\n      swap1\n      sstore\n      pop\n      swap1\n      pop\n      pop\n        /* \"contracts/test.sol\":1929:1956  ConsentAdded(hashOfConsent) */\n      0xd501d8d86c39bdd6c1d5e201185e79a5cae0d1fd7c4c8835833f8449e4111d19\n        /* \"contracts/test.sol\":1942:1955  hashOfConsent */\n      dup2\n        /* \"contracts/test.sol\":1929:1956  ConsentAdded(hashOfConsent) */\n      mload(0x40)\n      tag_23\n      swap2\n      swap1\n      tag_16\n      jump\t// in\n    tag_23:\n      mload(0x40)\n      dup1\n      swap2\n      sub\n      swap1\n      log1\n        /* \"contracts/test.sol\":2023:2036  hashOfConsent */\n      dup1\n        /* \"contracts/test.sol\":2016:2036  return hashOfConsent */\n      swap2\n      pop\n      pop\n        /* \"contracts/test.sol\":937:2044  function addConsent(... */\n      swap5\n      swap4\n      pop\n      pop\n      pop\n      pop\n      jump\t// out\n        /* \"#utility.yul\":88:205   */\n    tag_25:\n        /* \"#utility.yul\":197:198   */\n      0x00\n        /* \"#utility.yul\":194:195   */\n      dup1\n        /* \"#utility.yul\":187:199   */\n      revert\n        /* \"#utility.yul\":334:411   */\n    tag_27:\n        /* \"#utility.yul\":371:378   */\n      0x00\n        /* \"#utility.yul\":400:405   */\n      dup2\n        /* \"#utility.yul\":389:405   */\n      swap1\n      pop\n        /* \"#utility.yul\":334:411   */\n      swap2\n      swap1\n      pop\n      jump\t// out\n        /* \"#utility.yul\":417:539   */\n    tag_28:\n        /* \"#utility.yul\":490:514   */\n      tag_65\n        /* \"#utility.yul\":508:513   */\n      dup2\n        /* \"#utility.yul\":490:514   */\n      tag_27\n      jump\t// in\n    tag_65:\n        /* \"#utility.yul\":483:488   */\n      dup2\n        /* \"#utility.yul\":480:515   */\n      eq\n        /* \"#utility.yul\":470:533   */\n      tag_66\n      jumpi\n        /* \"#utility.yul\":529:530   */\n      0x00\n        /* \"#utility.yul\":526:527   */\n      dup1\n        /* \"#utility.yul\":519:531   */\n      revert\n        /* \"#utility.yul\":470:533   */\n    tag_66:\n        /* \"#utility.yul\":417:539   */\n      pop\n      jump\t// out\n        /* \"#utility.yul\":545:684   */\n    tag_29:\n        /* \"#utility.yul\":591:596   */\n      0x00\n        /* \"#utility.yul\":629:635   */\n      dup2\n        /* \"#utility.yul\":616:636   */\n      calldataload\n        /* \"#utility.yul\":607:636   */\n      swap1\n      pop\n        /* \"#utility.yul\":645:678   */\n      tag_68\n        /* \"#utility.yul\":672:677   */\n      dup2\n        /* \"#utility.yul\":645:678   */\n      tag_28\n      jump\t// in\n    tag_68:\n        /* \"#utility.yul\":545:684   */\n      swap3\n      swap2\n      pop\n      pop\n      jump\t// out\n        /* \"#utility.yul\":690:1019   */\n    tag_7:\n        /* \"#utility.yul\":749:755   */\n      0x00\n        /* \"#utility.yul\":798:800   */\n      0x20\n        /* \"#utility.yul\":786:795   */\n      dup3\n        /* \"#utility.yul\":777:784   */\n      dup5\n        /* \"#utility.yul\":773:796   */\n      sub\n        /* \"#utility.yul\":769:801   */\n      slt\n        /* \"#utility.yul\":766:885   */\n      iszero\n      tag_70\n      jumpi\n        /* \"#utility.yul\":804:883   */\n      tag_71\n      tag_25\n      jump\t// in\n    tag_71:\n        /* \"#utility.yul\":766:885   */\n    tag_70:\n        /* \"#utility.yul\":924:925   */\n      0x00\n        /* \"#utility.yul\":949:1002   */\n      tag_72\n        /* \"#utility.yul\":994:1001   */\n      dup5\n        /* \"#utility.yul\":985:991   */\n      dup3\n        /* \"#utility.yul\":974:983   */\n      dup6\n        /* \"#utility.yul\":970:992   */\n      add\n        /* \"#utility.yul\":949:1002   */\n      tag_29\n      jump\t// in\n    tag_72:\n        /* \"#utility.yul\":939:1002   */\n      swap2\n      pop\n        /* \"#utility.yul\":895:1012   */\n      pop\n        /* \"#utility.yul\":690:1019   */\n      swap3\n      swap2\n      pop\n      pop\n      jump\t// out\n        /* \"#utility.yul\":1025:1151   */\n    tag_30:\n        /* \"#utility.yul\":1062:1069   */\n      0x00\n        /* \"#utility.yul\":1102:1144   */\n      0xffffffffffffffffffffffffffffffffffffffff\n        /* \"#utility.yul\":1095:1100   */\n      dup3\n        /* \"#utility.yul\":1091:1145   */\n      and\n        /* \"#utility.yul\":1080:1145   */\n      swap1\n      pop\n        /* \"#utility.yul\":1025:1151   */\n      swap2\n      swap1\n      pop\n      jump\t// out\n        /* \"#utility.yul\":1157:1253   */\n    tag_31:\n        /* \"#utility.yul\":1194:1201   */\n      0x00\n        /* \"#utility.yul\":1223:1247   */\n      tag_75\n        /* \"#utility.yul\":1241:1246   */\n      dup3\n        /* \"#utility.yul\":1223:1247   */\n      tag_30\n      jump\t// in\n    tag_75:\n        /* \"#utility.yul\":1212:1247   */\n      swap1\n      pop\n        /* \"#utility.yul\":1157:1253   */\n      swap2\n      swap1\n      pop\n      jump\t// out\n        /* \"#utility.yul\":1259:1377   */\n    tag_32:\n        /* \"#utility.yul\":1346:1370   */\n      tag_77\n        /* \"#utility.yul\":1364:1369   */\n      dup2\n        /* \"#utility.yul\":1346:1370   */\n      tag_31\n      jump\t// in\n    tag_77:\n        /* \"#utility.yul\":1341:1344   */\n      dup3\n        /* \"#utility.yul\":1334:1371   */\n      mstore\n        /* \"#utility.yul\":1259:1377   */\n      pop\n      pop\n      jump\t// out\n        /* \"#utility.yul\":1383:1501   */\n    tag_33:\n        /* \"#utility.yul\":1470:1494   */\n      tag_79\n        /* \"#utility.yul\":1488:1493   */\n      dup2\n        /* \"#utility.yul\":1470:1494   */\n      tag_27\n      jump\t// in\n    tag_79:\n        /* \"#utility.yul\":1465:1468   */\n      dup3\n        /* \"#utility.yul\":1458:1495   */\n      mstore\n        /* \"#utility.yul\":1383:1501   */\n      pop\n      pop\n      jump\t// out\n        /* \"#utility.yul\":1507:1584   */\n    tag_34:\n        /* \"#utility.yul\":1544:1551   */\n      0x00\n        /* \"#utility.yul\":1573:1578   */\n      dup2\n        /* \"#utility.yul\":1562:1578   */\n      swap1\n      pop\n        /* \"#utility.yul\":1507:1584   */\n      swap2\n      swap1\n      pop\n      jump\t// out\n        /* \"#utility.yul\":1590:1708   */\n    tag_35:\n        /* \"#utility.yul\":1677:1701   */\n      tag_82\n        /* \"#utility.yul\":1695:1700   */\n      dup2\n        /* \"#utility.yul\":1677:1701   */\n      tag_34\n      jump\t// in\n    tag_82:\n        /* \"#utility.yul\":1672:1675   */\n      dup3\n        /* \"#utility.yul\":1665:1702   */\n      mstore\n        /* \"#utility.yul\":1590:1708   */\n      pop\n      pop\n      jump\t// out\n        /* \"#utility.yul\":1714:1804   */\n    tag_36:\n        /* \"#utility.yul\":1748:1755   */\n      0x00\n        /* \"#utility.yul\":1791:1796   */\n      dup2\n        /* \"#utility.yul\":1784:1797   */\n      iszero\n        /* \"#utility.yul\":1777:1798   */\n      iszero\n        /* \"#utility.yul\":1766:1798   */\n      swap1\n      pop\n        /* \"#utility.yul\":1714:1804   */\n      swap2\n      swap1\n      pop\n      jump\t// out\n        /* \"#utility.yul\":1810:1919   */\n    tag_37:\n        /* \"#utility.yul\":1891:1912   */\n      tag_85\n        /* \"#utility.yul\":1906:1911   */\n      dup2\n        /* \"#utility.yul\":1891:1912   */\n      tag_36\n      jump\t// in\n    tag_85:\n        /* \"#utility.yul\":1886:1889   */\n      dup3\n        /* \"#utility.yul\":1879:1913   */\n      mstore\n        /* \"#utility.yul\":1810:1919   */\n      pop\n      pop\n      jump\t// out\n        /* \"#utility.yul\":1925:2466   */\n    tag_10:\n        /* \"#utility.yul\":2096:2100   */\n      0x00\n        /* \"#utility.yul\":2134:2137   */\n      0x80\n        /* \"#utility.yul\":2123:2132   */\n      dup3\n        /* \"#utility.yul\":2119:2138   */\n      add\n        /* \"#utility.yul\":2111:2138   */\n      swap1\n      pop\n        /* \"#utility.yul\":2148:2219   */\n      tag_87\n        /* \"#utility.yul\":2216:2217   */\n      0x00\n        /* \"#utility.yul\":2205:2214   */\n      dup4\n        /* \"#utility.yul\":2201:2218   */\n      add\n        /* \"#utility.yul\":2192:2198   */\n      dup8\n        /* \"#utility.yul\":2148:2219   */\n      tag_32\n      jump\t// in\n    tag_87:\n        /* \"#utility.yul\":2229:2301   */\n      tag_88\n        /* \"#utility.yul\":2297:2299   */\n      0x20\n        /* \"#utility.yul\":2286:2295   */\n      dup4\n        /* \"#utility.yul\":2282:2300   */\n      add\n        /* \"#utility.yul\":2273:2279   */\n      dup7\n        /* \"#utility.yul\":2229:2301   */\n      tag_33\n      jump\t// in\n    tag_88:\n        /* \"#utility.yul\":2311:2383   */\n      tag_89\n        /* \"#utility.yul\":2379:2381   */\n      0x40\n        /* \"#utility.yul\":2368:2377   */\n      dup4\n        /* \"#utility.yul\":2364:2382   */\n      add\n        /* \"#utility.yul\":2355:2361   */\n      dup6\n        /* \"#utility.yul\":2311:2383   */\n      tag_35\n      jump\t// in\n    tag_89:\n        /* \"#utility.yul\":2393:2459   */\n      tag_90\n        /* \"#utility.yul\":2455:2457   */\n      0x60\n        /* \"#utility.yul\":2444:2453   */\n      dup4\n        /* \"#utility.yul\":2440:2458   */\n      add\n        /* \"#utility.yul\":2431:2437   */\n      dup5\n        /* \"#utility.yul\":2393:2459   */\n      tag_37\n      jump\t// in\n    tag_90:\n        /* \"#utility.yul\":1925:2466   */\n      swap6\n      swap5\n      pop\n      pop\n      pop\n      pop\n      pop\n      jump\t// out\n        /* \"#utility.yul\":2472:2594   */\n    tag_38:\n        /* \"#utility.yul\":2545:2569   */\n      tag_92\n        /* \"#utility.yul\":2563:2568   */\n      dup2\n        /* \"#utility.yul\":2545:2569   */\n      tag_31\n      jump\t// in\n    tag_92:\n        /* \"#utility.yul\":2538:2543   */\n      dup2\n        /* \"#utility.yul\":2535:2570   */\n      eq\n        /* \"#utility.yul\":2525:2588   */\n      tag_93\n      jumpi\n        /* \"#utility.yul\":2584:2585   */\n      0x00\n        /* \"#utility.yul\":2581:2582   */\n      dup1\n        /* \"#utility.yul\":2574:2586   */\n      revert\n        /* \"#utility.yul\":2525:2588   */\n    tag_93:\n        /* \"#utility.yul\":2472:2594   */\n      pop\n      jump\t// out\n        /* \"#utility.yul\":2600:2739   */\n    tag_39:\n        /* \"#utility.yul\":2646:2651   */\n      0x00\n        /* \"#utility.yul\":2684:2690   */\n      dup2\n        /* \"#utility.yul\":2671:2691   */\n      calldataload\n        /* \"#utility.yul\":2662:2691   */\n      swap1\n      pop\n        /* \"#utility.yul\":2700:2733   */\n      tag_95\n        /* \"#utility.yul\":2727:2732   */\n      dup2\n        /* \"#utility.yul\":2700:2733   */\n      tag_38\n      jump\t// in\n    tag_95:\n        /* \"#utility.yul\":2600:2739   */\n      swap3\n      swap2\n      pop\n      pop\n      jump\t// out\n        /* \"#utility.yul\":2745:2867   */\n    tag_40:\n        /* \"#utility.yul\":2818:2842   */\n      tag_97\n        /* \"#utility.yul\":2836:2841   */\n      dup2\n        /* \"#utility.yul\":2818:2842   */\n      tag_34\n      jump\t// in\n    tag_97:\n        /* \"#utility.yul\":2811:2816   */\n      dup2\n        /* \"#utility.yul\":2808:2843   */\n      eq\n        /* \"#utility.yul\":2798:2861   */\n      tag_98\n      jumpi\n        /* \"#utility.yul\":2857:2858   */\n      0x00\n        /* \"#utility.yul\":2854:2855   */\n      dup1\n        /* \"#utility.yul\":2847:2859   */\n      revert\n        /* \"#utility.yul\":2798:2861   */\n    tag_98:\n        /* \"#utility.yul\":2745:2867   */\n      pop\n      jump\t// out\n        /* \"#utility.yul\":2873:3012   */\n    tag_41:\n        /* \"#utility.yul\":2919:2924   */\n      0x00\n        /* \"#utility.yul\":2957:2963   */\n      dup2\n        /* \"#utility.yul\":2944:2964   */\n      calldataload\n        /* \"#utility.yul\":2935:2964   */\n      swap1\n      pop\n        /* \"#utility.yul\":2973:3006   */\n      tag_100\n        /* \"#utility.yul\":3000:3005   */\n      dup2\n        /* \"#utility.yul\":2973:3006   */\n      tag_40\n      jump\t// in\n    tag_100:\n        /* \"#utility.yul\":2873:3012   */\n      swap3\n      swap2\n      pop\n      pop\n      jump\t// out\n        /* \"#utility.yul\":3018:3134   */\n    tag_42:\n        /* \"#utility.yul\":3088:3109   */\n      tag_102\n        /* \"#utility.yul\":3103:3108   */\n      dup2\n        /* \"#utility.yul\":3088:3109   */\n      tag_36\n      jump\t// in\n    tag_102:\n        /* \"#utility.yul\":3081:3086   */\n      dup2\n        /* \"#utility.yul\":3078:3110   */\n      eq\n        /* \"#utility.yul\":3068:3128   */\n      tag_103\n      jumpi\n        /* \"#utility.yul\":3124:3125   */\n      0x00\n        /* \"#utility.yul\":3121:3122   */\n      dup1\n        /* \"#utility.yul\":3114:3126   */\n      revert\n        /* \"#utility.yul\":3068:3128   */\n    tag_103:\n        /* \"#utility.yul\":3018:3134   */\n      pop\n      jump\t// out\n        /* \"#utility.yul\":3140:3273   */\n    tag_43:\n        /* \"#utility.yul\":3183:3188   */\n      0x00\n        /* \"#utility.yul\":3221:3227   */\n      dup2\n        /* \"#utility.yul\":3208:3228   */\n      calldataload\n        /* \"#utility.yul\":3199:3228   */\n      swap1\n      pop\n        /* \"#utility.yul\":3237:3267   */\n      tag_105\n        /* \"#utility.yul\":3261:3266   */\n      dup2\n        /* \"#utility.yul\":3237:3267   */\n      tag_42\n      jump\t// in\n    tag_105:\n        /* \"#utility.yul\":3140:3273   */\n      swap3\n      swap2\n      pop\n      pop\n      jump\t// out\n        /* \"#utility.yul\":3279:4038   */\n    tag_13:\n        /* \"#utility.yul\":3362:3368   */\n      0x00\n        /* \"#utility.yul\":3370:3376   */\n      dup1\n        /* \"#utility.yul\":3378:3384   */\n      0x00\n        /* \"#utility.yul\":3386:3392   */\n      dup1\n        /* \"#utility.yul\":3435:3438   */\n      0x80\n        /* \"#utility.yul\":3423:3432   */\n      dup6\n        /* \"#utility.yul\":3414:3421   */\n      dup8\n        /* \"#utility.yul\":3410:3433   */\n      sub\n        /* \"#utility.yul\":3406:3439   */\n      slt\n        /* \"#utility.yul\":3403:3523   */\n      iszero\n      tag_107\n      jumpi\n        /* \"#utility.yul\":3442:3521   */\n      tag_108\n      tag_25\n      jump\t// in\n    tag_108:\n        /* \"#utility.yul\":3403:3523   */\n    tag_107:\n        /* \"#utility.yul\":3562:3563   */\n      0x00\n        /* \"#utility.yul\":3587:3640   */\n      tag_109\n        /* \"#utility.yul\":3632:3639   */\n      dup8\n        /* \"#utility.yul\":3623:3629   */\n      dup3\n        /* \"#utility.yul\":3612:3621   */\n      dup9\n        /* \"#utility.yul\":3608:3630   */\n      add\n        /* \"#utility.yul\":3587:3640   */\n      tag_39\n      jump\t// in\n    tag_109:\n        /* \"#utility.yul\":3577:3640   */\n      swap5\n      pop\n        /* \"#utility.yul\":3533:3650   */\n      pop\n        /* \"#utility.yul\":3689:3691   */\n      0x20\n        /* \"#utility.yul\":3715:3768   */\n      tag_110\n        /* \"#utility.yul\":3760:3767   */\n      dup8\n        /* \"#utility.yul\":3751:3757   */\n      dup3\n        /* \"#utility.yul\":3740:3749   */\n      dup9\n        /* \"#utility.yul\":3736:3758   */\n      add\n        /* \"#utility.yul\":3715:3768   */\n      tag_29\n      jump\t// in\n    tag_110:\n        /* \"#utility.yul\":3705:3768   */\n      swap4\n      pop\n        /* \"#utility.yul\":3660:3778   */\n      pop\n        /* \"#utility.yul\":3817:3819   */\n      0x40\n        /* \"#utility.yul\":3843:3896   */\n      tag_111\n        /* \"#utility.yul\":3888:3895   */\n      dup8\n        /* \"#utility.yul\":3879:3885   */\n      dup3\n        /* \"#utility.yul\":3868:3877   */\n      dup9\n        /* \"#utility.yul\":3864:3886   */\n      add\n        /* \"#utility.yul\":3843:3896   */\n      tag_41\n      jump\t// in\n    tag_111:\n        /* \"#utility.yul\":3833:3896   */\n      swap3\n      pop\n        /* \"#utility.yul\":3788:3906   */\n      pop\n        /* \"#utility.yul\":3945:3947   */\n      0x60\n        /* \"#utility.yul\":3971:4021   */\n      tag_112\n        /* \"#utility.yul\":4013:4020   */\n      dup8\n        /* \"#utility.yul\":4004:4010   */\n      dup3\n        /* \"#utility.yul\":3993:4002   */\n      dup9\n        /* \"#utility.yul\":3989:4011   */\n      add\n        /* \"#utility.yul\":3971:4021   */\n      tag_43\n      jump\t// in\n    tag_112:\n        /* \"#utility.yul\":3961:4021   */\n      swap2\n      pop\n        /* \"#utility.yul\":3916:4031   */\n      pop\n        /* \"#utility.yul\":3279:4038   */\n      swap3\n      swap6\n      swap2\n      swap5\n      pop\n      swap3\n      pop\n      jump\t// out\n        /* \"#utility.yul\":4044:4266   */\n    tag_16:\n        /* \"#utility.yul\":4137:4141   */\n      0x00\n        /* \"#utility.yul\":4175:4177   */\n      0x20\n        /* \"#utility.yul\":4164:4173   */\n      dup3\n        /* \"#utility.yul\":4160:4178   */\n      add\n        /* \"#utility.yul\":4152:4178   */\n      swap1\n      pop\n        /* \"#utility.yul\":4188:4259   */\n      tag_114\n        /* \"#utility.yul\":4256:4257   */\n      0x00\n        /* \"#utility.yul\":4245:4254   */\n      dup4\n        /* \"#utility.yul\":4241:4258   */\n      add\n        /* \"#utility.yul\":4232:4238   */\n      dup5\n        /* \"#utility.yul\":4188:4259   */\n      tag_33\n      jump\t// in\n    tag_114:\n        /* \"#utility.yul\":4044:4266   */\n      swap3\n      swap2\n      pop\n      pop\n      jump\t// out\n        /* \"#utility.yul\":4272:4366   */\n    tag_44:\n        /* \"#utility.yul\":4305:4313   */\n      0x00\n        /* \"#utility.yul\":4353:4358   */\n      dup2\n        /* \"#utility.yul\":4349:4351   */\n      0x60\n        /* \"#utility.yul\":4345:4359   */\n      shl\n        /* \"#utility.yul\":4324:4359   */\n      swap1\n      pop\n        /* \"#utility.yul\":4272:4366   */\n      swap2\n      swap1\n      pop\n      jump\t// out\n        /* \"#utility.yul\":4372:4466   */\n    tag_45:\n        /* \"#utility.yul\":4411:4418   */\n      0x00\n        /* \"#utility.yul\":4440:4460   */\n      tag_117\n        /* \"#utility.yul\":4454:4459   */\n      dup3\n        /* \"#utility.yul\":4440:4460   */\n      tag_44\n      jump\t// in\n    tag_117:\n        /* \"#utility.yul\":4429:4460   */\n      swap1\n      pop\n        /* \"#utility.yul\":4372:4466   */\n      swap2\n      swap1\n      pop\n      jump\t// out\n        /* \"#utility.yul\":4472:4572   */\n    tag_46:\n        /* \"#utility.yul\":4511:4518   */\n      0x00\n        /* \"#utility.yul\":4540:4566   */\n      tag_119\n        /* \"#utility.yul\":4560:4565   */\n      dup3\n        /* \"#utility.yul\":4540:4566   */\n      tag_45\n      jump\t// in\n    tag_119:\n        /* \"#utility.yul\":4529:4566   */\n      swap1\n      pop\n        /* \"#utility.yul\":4472:4572   */\n      swap2\n      swap1\n      pop\n      jump\t// out\n        /* \"#utility.yul\":4578:4735   */\n    tag_47:\n        /* \"#utility.yul\":4683:4728   */\n      tag_121\n        /* \"#utility.yul\":4703:4727   */\n      tag_122\n        /* \"#utility.yul\":4721:4726   */\n      dup3\n        /* \"#utility.yul\":4703:4727   */\n      tag_31\n      jump\t// in\n    tag_122:\n        /* \"#utility.yul\":4683:4728   */\n      tag_46\n      jump\t// in\n    tag_121:\n        /* \"#utility.yul\":4678:4681   */\n      dup3\n        /* \"#utility.yul\":4671:4729   */\n      mstore\n        /* \"#utility.yul\":4578:4735   */\n      pop\n      pop\n      jump\t// out\n        /* \"#utility.yul\":4741:4820   */\n    tag_48:\n        /* \"#utility.yul\":4780:4787   */\n      0x00\n        /* \"#utility.yul\":4809:4814   */\n      dup2\n        /* \"#utility.yul\":4798:4814   */\n      swap1\n      pop\n        /* \"#utility.yul\":4741:4820   */\n      swap2\n      swap1\n      pop\n      jump\t// out\n        /* \"#utility.yul\":4826:4983   */\n    tag_49:\n        /* \"#utility.yul\":4931:4976   */\n      tag_125\n        /* \"#utility.yul\":4951:4975   */\n      tag_126\n        /* \"#utility.yul\":4969:4974   */\n      dup3\n        /* \"#utility.yul\":4951:4975   */\n      tag_27\n      jump\t// in\n    tag_126:\n        /* \"#utility.yul\":4931:4976   */\n      tag_48\n      jump\t// in\n    tag_125:\n        /* \"#utility.yul\":4926:4929   */\n      dup3\n        /* \"#utility.yul\":4919:4977   */\n      mstore\n        /* \"#utility.yul\":4826:4983   */\n      pop\n      pop\n      jump\t// out\n        /* \"#utility.yul\":4989:5068   */\n    tag_50:\n        /* \"#utility.yul\":5028:5035   */\n      0x00\n        /* \"#utility.yul\":5057:5062   */\n      dup2\n        /* \"#utility.yul\":5046:5062   */\n      swap1\n      pop\n        /* \"#utility.yul\":4989:5068   */\n      swap2\n      swap1\n      pop\n      jump\t// out\n        /* \"#utility.yul\":5074:5231   */\n    tag_51:\n        /* \"#utility.yul\":5179:5224   */\n      tag_129\n        /* \"#utility.yul\":5199:5223   */\n      tag_130\n        /* \"#utility.yul\":5217:5222   */\n      dup3\n        /* \"#utility.yul\":5199:5223   */\n      tag_34\n      jump\t// in\n    tag_130:\n        /* \"#utility.yul\":5179:5224   */\n      tag_50\n      jump\t// in\n    tag_129:\n        /* \"#utility.yul\":5174:5177   */\n      dup3\n        /* \"#utility.yul\":5167:5225   */\n      mstore\n        /* \"#utility.yul\":5074:5231   */\n      pop\n      pop\n      jump\t// out\n        /* \"#utility.yul\":5237:5333   */\n    tag_52:\n        /* \"#utility.yul\":5271:5279   */\n      0x00\n        /* \"#utility.yul\":5320:5325   */\n      dup2\n        /* \"#utility.yul\":5315:5318   */\n      0xf8\n        /* \"#utility.yul\":5311:5326   */\n      shl\n        /* \"#utility.yul\":5290:5326   */\n      swap1\n      pop\n        /* \"#utility.yul\":5237:5333   */\n      swap2\n      swap1\n      pop\n      jump\t// out\n        /* \"#utility.yul\":5339:5432   */\n    tag_53:\n        /* \"#utility.yul\":5376:5383   */\n      0x00\n        /* \"#utility.yul\":5405:5426   */\n      tag_133\n        /* \"#utility.yul\":5420:5425   */\n      dup3\n        /* \"#utility.yul\":5405:5426   */\n      tag_52\n      jump\t// in\n    tag_133:\n        /* \"#utility.yul\":5394:5426   */\n      swap1\n      pop\n        /* \"#utility.yul\":5339:5432   */\n      swap2\n      swap1\n      pop\n      jump\t// out\n        /* \"#utility.yul\":5438:5533   */\n    tag_54:\n        /* \"#utility.yul\":5474:5481   */\n      0x00\n        /* \"#utility.yul\":5503:5527   */\n      tag_135\n        /* \"#utility.yul\":5521:5526   */\n      dup3\n        /* \"#utility.yul\":5503:5527   */\n      tag_53\n      jump\t// in\n    tag_135:\n        /* \"#utility.yul\":5492:5527   */\n      swap1\n      pop\n        /* \"#utility.yul\":5438:5533   */\n      swap2\n      swap1\n      pop\n      jump\t// out\n        /* \"#utility.yul\":5539:5684   */\n    tag_55:\n        /* \"#utility.yul\":5638:5677   */\n      tag_137\n        /* \"#utility.yul\":5655:5676   */\n      tag_138\n        /* \"#utility.yul\":5670:5675   */\n      dup3\n        /* \"#utility.yul\":5655:5676   */\n      tag_36\n      jump\t// in\n    tag_138:\n        /* \"#utility.yul\":5638:5677   */\n      tag_54\n      jump\t// in\n    tag_137:\n        /* \"#utility.yul\":5633:5636   */\n      dup3\n        /* \"#utility.yul\":5626:5678   */\n      mstore\n        /* \"#utility.yul\":5539:5684   */\n      pop\n      pop\n      jump\t// out\n        /* \"#utility.yul\":5690:6356   */\n    tag_19:\n        /* \"#utility.yul\":5880:5883   */\n      0x00\n        /* \"#utility.yul\":5895:5970   */\n      tag_140\n        /* \"#utility.yul\":5966:5969   */\n      dup3\n        /* \"#utility.yul\":5957:5963   */\n      dup8\n        /* \"#utility.yul\":5895:5970   */\n      tag_47\n      jump\t// in\n    tag_140:\n        /* \"#utility.yul\":5995:5997   */\n      0x14\n        /* \"#utility.yul\":5990:5993   */\n      dup3\n        /* \"#utility.yul\":5986:5998   */\n      add\n        /* \"#utility.yul\":5979:5998   */\n      swap2\n      pop\n        /* \"#utility.yul\":6008:6083   */\n      tag_141\n        /* \"#utility.yul\":6079:6082   */\n      dup3\n        /* \"#utility.yul\":6070:6076   */\n      dup7\n        /* \"#utility.yul\":6008:6083   */\n      tag_49\n      jump\t// in\n    tag_141:\n        /* \"#utility.yul\":6108:6110   */\n      0x20\n        /* \"#utility.yul\":6103:6106   */\n      dup3\n        /* \"#utility.yul\":6099:6111   */\n      add\n        /* \"#utility.yul\":6092:6111   */\n      swap2\n      pop\n        /* \"#utility.yul\":6121:6196   */\n      tag_142\n        /* \"#utility.yul\":6192:6195   */\n      dup3\n        /* \"#utility.yul\":6183:6189   */\n      dup6\n        /* \"#utility.yul\":6121:6196   */\n      tag_51\n      jump\t// in\n    tag_142:\n        /* \"#utility.yul\":6221:6223   */\n      0x20\n        /* \"#utility.yul\":6216:6219   */\n      dup3\n        /* \"#utility.yul\":6212:6224   */\n      add\n        /* \"#utility.yul\":6205:6224   */\n      swap2\n      pop\n        /* \"#utility.yul\":6234:6303   */\n      tag_143\n        /* \"#utility.yul\":6299:6302   */\n      dup3\n        /* \"#utility.yul\":6290:6296   */\n      dup5\n        /* \"#utility.yul\":6234:6303   */\n      tag_55\n      jump\t// in\n    tag_143:\n        /* \"#utility.yul\":6328:6329   */\n      0x01\n        /* \"#utility.yul\":6323:6326   */\n      dup3\n        /* \"#utility.yul\":6319:6330   */\n      add\n        /* \"#utility.yul\":6312:6330   */\n      swap2\n      pop\n        /* \"#utility.yul\":6347:6350   */\n      dup2\n        /* \"#utility.yul\":6340:6350   */\n      swap1\n      pop\n        /* \"#utility.yul\":5690:6356   */\n      swap6\n      swap5\n      pop\n      pop\n      pop\n      pop\n      pop\n      jump\t// out\n        /* \"#utility.yul\":6362:6531   */\n    tag_56:\n        /* \"#utility.yul\":6446:6457   */\n      0x00\n        /* \"#utility.yul\":6480:6486   */\n      dup3\n        /* \"#utility.yul\":6475:6478   */\n      dup3\n        /* \"#utility.yul\":6468:6487   */\n      mstore\n        /* \"#utility.yul\":6520:6524   */\n      0x20\n        /* \"#utility.yul\":6515:6518   */\n      dup3\n        /* \"#utility.yul\":6511:6525   */\n      add\n        /* \"#utility.yul\":6496:6525   */\n      swap1\n      pop\n        /* \"#utility.yul\":6362:6531   */\n      swap3\n      swap2\n      pop\n      pop\n      jump\t// out\n        /* \"#utility.yul\":6537:6771   */\n    tag_57:\n        /* \"#utility.yul\":6677:6711   */\n      0x4120636f6e73656e74207265636f726420776974682074686973206861736820\n        /* \"#utility.yul\":6673:6674   */\n      0x00\n        /* \"#utility.yul\":6665:6671   */\n      dup3\n        /* \"#utility.yul\":6661:6675   */\n      add\n        /* \"#utility.yul\":6654:6712   */\n      mstore\n        /* \"#utility.yul\":6746:6763   */\n      0x616c7265616479206578697374732e0000000000000000000000000000000000\n        /* \"#utility.yul\":6741:6743   */\n      0x20\n        /* \"#utility.yul\":6733:6739   */\n      dup3\n        /* \"#utility.yul\":6729:6744   */\n      add\n        /* \"#utility.yul\":6722:6764   */\n      mstore\n        /* \"#utility.yul\":6537:6771   */\n      pop\n      jump\t// out\n        /* \"#utility.yul\":6777:7143   */\n    tag_58:\n        /* \"#utility.yul\":6919:6922   */\n      0x00\n        /* \"#utility.yul\":6940:7007   */\n      tag_147\n        /* \"#utility.yul\":7004:7006   */\n      0x2f\n        /* \"#utility.yul\":6999:7002   */\n      dup4\n        /* \"#utility.yul\":6940:7007   */\n      tag_56\n      jump\t// in\n    tag_147:\n        /* \"#utility.yul\":6933:7007   */\n      swap2\n      pop\n        /* \"#utility.yul\":7016:7109   */\n      tag_148\n        /* \"#utility.yul\":7105:7108   */\n      dup3\n        /* \"#utility.yul\":7016:7109   */\n      tag_57\n      jump\t// in\n    tag_148:\n        /* \"#utility.yul\":7134:7136   */\n      0x40\n        /* \"#utility.yul\":7129:7132   */\n      dup3\n        /* \"#utility.yul\":7125:7137   */\n      add\n        /* \"#utility.yul\":7118:7137   */\n      swap1\n      pop\n        /* \"#utility.yul\":6777:7143   */\n      swap2\n      swap1\n      pop\n      jump\t// out\n        /* \"#utility.yul\":7149:7568   */\n    tag_22:\n        /* \"#utility.yul\":7315:7319   */\n      0x00\n        /* \"#utility.yul\":7353:7355   */\n      0x20\n        /* \"#utility.yul\":7342:7351   */\n      dup3\n        /* \"#utility.yul\":7338:7356   */\n      add\n        /* \"#utility.yul\":7330:7356   */\n      swap1\n      pop\n        /* \"#utility.yul\":7402:7411   */\n      dup2\n        /* \"#utility.yul\":7396:7400   */\n      dup2\n        /* \"#utility.yul\":7392:7412   */\n      sub\n        /* \"#utility.yul\":7388:7389   */\n      0x00\n        /* \"#utility.yul\":7377:7386   */\n      dup4\n        /* \"#utility.yul\":7373:7390   */\n      add\n        /* \"#utility.yul\":7366:7413   */\n      mstore\n        /* \"#utility.yul\":7430:7561   */\n      tag_150\n        /* \"#utility.yul\":7556:7560   */\n      dup2\n        /* \"#utility.yul\":7430:7561   */\n      tag_58\n      jump\t// in\n    tag_150:\n        /* \"#utility.yul\":7422:7561   */\n      swap1\n      pop\n        /* \"#utility.yul\":7149:7568   */\n      swap2\n      swap1\n      pop\n      jump\t// out\n\n    auxdata: 0xa2646970667358221220e8c0d488a2201ed0b08ea7dbc7935e66d8622b6b041796d514a9c9e6f009519364736f6c63430008180033\n}\n",
				"bytecode": {
					"linkReferences": {},
					"object": "608060405234801561000f575f80fd5b506106888061001d5f395ff3fe608060405234801561000f575f80fd5b5060043610610034575f3560e01c80631fb922d5146100385780636f0fa36d1461006b575b5f80fd5b610052600480360381019061004d91906102b4565b61009b565b604051610062949392919061035f565b60405180910390f35b61008560048036038101906100809190610420565b6100f1565b6040516100929190610484565b60405180910390f35b5f602052805f5260405f205f91509050805f015f9054906101000a900473ffffffffffffffffffffffffffffffffffffffff1690806001015490806002015490806003015f9054906101000a900460ff16905084565b5f808585858560405160200161010a9493929190610567565b6040516020818303038152906040528051906020012090505f805f8381526020019081526020015f206002015414610177576040517f08c379a000000000000000000000000000000000000000000000000000000000815260040161016e90610634565b60405180910390fd5b60405180608001604052808773ffffffffffffffffffffffffffffffffffffffff1681526020018681526020018581526020018415158152505f808381526020019081526020015f205f820151815f015f6101000a81548173ffffffffffffffffffffffffffffffffffffffff021916908373ffffffffffffffffffffffffffffffffffffffff16021790555060208201518160010155604082015181600201556060820151816003015f6101000a81548160ff0219169083151502179055509050507fd501d8d86c39bdd6c1d5e201185e79a5cae0d1fd7c4c8835833f8449e4111d19816040516102699190610484565b60405180910390a180915050949350505050565b5f80fd5b5f819050919050565b61029381610281565b811461029d575f80fd5b50565b5f813590506102ae8161028a565b92915050565b5f602082840312156102c9576102c861027d565b5b5f6102d6848285016102a0565b91505092915050565b5f73ffffffffffffffffffffffffffffffffffffffff82169050919050565b5f610308826102df565b9050919050565b610318816102fe565b82525050565b61032781610281565b82525050565b5f819050919050565b61033f8161032d565b82525050565b5f8115159050919050565b61035981610345565b82525050565b5f6080820190506103725f83018761030f565b61037f602083018661031e565b61038c6040830185610336565b6103996060830184610350565b95945050505050565b6103ab816102fe565b81146103b5575f80fd5b50565b5f813590506103c6816103a2565b92915050565b6103d58161032d565b81146103df575f80fd5b50565b5f813590506103f0816103cc565b92915050565b6103ff81610345565b8114610409575f80fd5b50565b5f8135905061041a816103f6565b92915050565b5f805f80608085870312156104385761043761027d565b5b5f610445878288016103b8565b9450506020610456878288016102a0565b9350506040610467878288016103e2565b92505060606104788782880161040c565b91505092959194509250565b5f6020820190506104975f83018461031e565b92915050565b5f8160601b9050919050565b5f6104b38261049d565b9050919050565b5f6104c4826104a9565b9050919050565b6104dc6104d7826102fe565b6104ba565b82525050565b5f819050919050565b6104fc6104f782610281565b6104e2565b82525050565b5f819050919050565b61051c6105178261032d565b610502565b82525050565b5f8160f81b9050919050565b5f61053882610522565b9050919050565b5f6105498261052e565b9050919050565b61056161055c82610345565b61053f565b82525050565b5f61057282876104cb565b60148201915061058282866104eb565b602082019150610592828561050b565b6020820191506105a28284610550565b60018201915081905095945050505050565b5f82825260208201905092915050565b7f4120636f6e73656e74207265636f7264207769746820746869732068617368205f8201527f616c7265616479206578697374732e0000000000000000000000000000000000602082015250565b5f61061e602f836105b4565b9150610629826105c4565b604082019050919050565b5f6020820190508181035f83015261064b81610612565b905091905056fea2646970667358221220e8c0d488a2201ed0b08ea7dbc7935e66d8622b6b041796d514a9c9e6f009519364736f6c63430008180033",
					"opcodes": "PUSH1 0x80 PUSH1 0x40 MSTORE CALLVALUE DUP1 ISZERO PUSH2 0xF JUMPI PUSH0 DUP1 REVERT JUMPDEST POP PUSH2 0x688 DUP1 PUSH2 0x1D PUSH0 CODECOPY PUSH0 RETURN INVALID PUSH1 0x80 PUSH1 0x40 MSTORE CALLVALUE DUP1 ISZERO PUSH2 0xF JUMPI PUSH0 DUP1 REVERT JUMPDEST POP PUSH1 0x4 CALLDATASIZE LT PUSH2 0x34 JUMPI PUSH0 CALLDATALOAD PUSH1 0xE0 SHR DUP1 PUSH4 0x1FB922D5 EQ PUSH2 0x38 JUMPI DUP1 PUSH4 0x6F0FA36D EQ PUSH2 0x6B JUMPI JUMPDEST PUSH0 DUP1 REVERT JUMPDEST PUSH2 0x52 PUSH1 0x4 DUP1 CALLDATASIZE SUB DUP2 ADD SWAP1 PUSH2 0x4D SWAP2 SWAP1 PUSH2 0x2B4 JUMP JUMPDEST PUSH2 0x9B JUMP JUMPDEST PUSH1 0x40 MLOAD PUSH2 0x62 SWAP5 SWAP4 SWAP3 SWAP2 SWAP1 PUSH2 0x35F JUMP JUMPDEST PUSH1 0x40 MLOAD DUP1 SWAP2 SUB SWAP1 RETURN JUMPDEST PUSH2 0x85 PUSH1 0x4 DUP1 CALLDATASIZE SUB DUP2 ADD SWAP1 PUSH2 0x80 SWAP2 SWAP1 PUSH2 0x420 JUMP JUMPDEST PUSH2 0xF1 JUMP JUMPDEST PUSH1 0x40 MLOAD PUSH2 0x92 SWAP2 SWAP1 PUSH2 0x484 JUMP JUMPDEST PUSH1 0x40 MLOAD DUP1 SWAP2 SUB SWAP1 RETURN JUMPDEST PUSH0 PUSH1 0x20 MSTORE DUP1 PUSH0 MSTORE PUSH1 0x40 PUSH0 KECCAK256 PUSH0 SWAP2 POP SWAP1 POP DUP1 PUSH0 ADD PUSH0 SWAP1 SLOAD SWAP1 PUSH2 0x100 EXP SWAP1 DIV PUSH20 0xFFFFFFFFFFFFFFFFFFFFFFFFFFFFFFFFFFFFFFFF AND SWAP1 DUP1 PUSH1 0x1 ADD SLOAD SWAP1 DUP1 PUSH1 0x2 ADD SLOAD SWAP1 DUP1 PUSH1 0x3 ADD PUSH0 SWAP1 SLOAD SWAP1 PUSH2 0x100 EXP SWAP1 DIV PUSH1 0xFF AND SWAP1 POP DUP5 JUMP JUMPDEST PUSH0 DUP1 DUP6 DUP6 DUP6 DUP6 PUSH1 0x40 MLOAD PUSH1 0x20 ADD PUSH2 0x10A SWAP5 SWAP4 SWAP3 SWAP2 SWAP1 PUSH2 0x567 JUMP JUMPDEST PUSH1 0x40 MLOAD PUSH1 0x20 DUP2 DUP4 SUB SUB DUP2 MSTORE SWAP1 PUSH1 0x40 MSTORE DUP1 MLOAD SWAP1 PUSH1 0x20 ADD KECCAK256 SWAP1 POP PUSH0 DUP1 PUSH0 DUP4 DUP2 MSTORE PUSH1 0x20 ADD SWAP1 DUP2 MSTORE PUSH1 0x20 ADD PUSH0 KECCAK256 PUSH1 0x2 ADD SLOAD EQ PUSH2 0x177 JUMPI PUSH1 0x40 MLOAD PUSH32 0x8C379A000000000000000000000000000000000000000000000000000000000 DUP2 MSTORE PUSH1 0x4 ADD PUSH2 0x16E SWAP1 PUSH2 0x634 JUMP JUMPDEST PUSH1 0x40 MLOAD DUP1 SWAP2 SUB SWAP1 REVERT JUMPDEST PUSH1 0x40 MLOAD DUP1 PUSH1 0x80 ADD PUSH1 0x40 MSTORE DUP1 DUP8 PUSH20 0xFFFFFFFFFFFFFFFFFFFFFFFFFFFFFFFFFFFFFFFF AND DUP2 MSTORE PUSH1 0x20 ADD DUP7 DUP2 MSTORE PUSH1 0x20 ADD DUP6 DUP2 MSTORE PUSH1 0x20 ADD DUP5 ISZERO ISZERO DUP2 MSTORE POP PUSH0 DUP1 DUP4 DUP2 MSTORE PUSH1 0x20 ADD SWAP1 DUP2 MSTORE PUSH1 0x20 ADD PUSH0 KECCAK256 PUSH0 DUP3 ADD MLOAD DUP2 PUSH0 ADD PUSH0 PUSH2 0x100 EXP DUP2 SLOAD DUP2 PUSH20 0xFFFFFFFFFFFFFFFFFFFFFFFFFFFFFFFFFFFFFFFF MUL NOT AND SWAP1 DUP4 PUSH20 0xFFFFFFFFFFFFFFFFFFFFFFFFFFFFFFFFFFFFFFFF AND MUL OR SWAP1 SSTORE POP PUSH1 0x20 DUP3 ADD MLOAD DUP2 PUSH1 0x1 ADD SSTORE PUSH1 0x40 DUP3 ADD MLOAD DUP2 PUSH1 0x2 ADD SSTORE PUSH1 0x60 DUP3 ADD MLOAD DUP2 PUSH1 0x3 ADD PUSH0 PUSH2 0x100 EXP DUP2 SLOAD DUP2 PUSH1 0xFF MUL NOT AND SWAP1 DUP4 ISZERO ISZERO MUL OR SWAP1 SSTORE POP SWAP1 POP POP PUSH32 0xD501D8D86C39BDD6C1D5E201185E79A5CAE0D1FD7C4C8835833F8449E4111D19 DUP2 PUSH1 0x40 MLOAD PUSH2 0x269 SWAP2 SWAP1 PUSH2 0x484 JUMP JUMPDEST PUSH1 0x40 MLOAD DUP1 SWAP2 SUB SWAP1 LOG1 DUP1 SWAP2 POP POP SWAP5 SWAP4 POP POP POP POP JUMP JUMPDEST PUSH0 DUP1 REVERT JUMPDEST PUSH0 DUP2 SWAP1 POP SWAP2 SWAP1 POP JUMP JUMPDEST PUSH2 0x293 DUP2 PUSH2 0x281 JUMP JUMPDEST DUP2 EQ PUSH2 0x29D JUMPI PUSH0 DUP1 REVERT JUMPDEST POP JUMP JUMPDEST PUSH0 DUP2 CALLDATALOAD SWAP1 POP PUSH2 0x2AE DUP2 PUSH2 0x28A JUMP JUMPDEST SWAP3 SWAP2 POP POP JUMP JUMPDEST PUSH0 PUSH1 0x20 DUP3 DUP5 SUB SLT ISZERO PUSH2 0x2C9 JUMPI PUSH2 0x2C8 PUSH2 0x27D JUMP JUMPDEST JUMPDEST PUSH0 PUSH2 0x2D6 DUP5 DUP3 DUP6 ADD PUSH2 0x2A0 JUMP JUMPDEST SWAP2 POP POP SWAP3 SWAP2 POP POP JUMP JUMPDEST PUSH0 PUSH20 0xFFFFFFFFFFFFFFFFFFFFFFFFFFFFFFFFFFFFFFFF DUP3 AND SWAP1 POP SWAP2 SWAP1 POP JUMP JUMPDEST PUSH0 PUSH2 0x308 DUP3 PUSH2 0x2DF JUMP JUMPDEST SWAP1 POP SWAP2 SWAP1 POP JUMP JUMPDEST PUSH2 0x318 DUP2 PUSH2 0x2FE JUMP JUMPDEST DUP3 MSTORE POP POP JUMP JUMPDEST PUSH2 0x327 DUP2 PUSH2 0x281 JUMP JUMPDEST DUP3 MSTORE POP POP JUMP JUMPDEST PUSH0 DUP2 SWAP1 POP SWAP2 SWAP1 POP JUMP JUMPDEST PUSH2 0x33F DUP2 PUSH2 0x32D JUMP JUMPDEST DUP3 MSTORE POP POP JUMP JUMPDEST PUSH0 DUP2 ISZERO ISZERO SWAP1 POP SWAP2 SWAP1 POP JUMP JUMPDEST PUSH2 0x359 DUP2 PUSH2 0x345 JUMP JUMPDEST DUP3 MSTORE POP POP JUMP JUMPDEST PUSH0 PUSH1 0x80 DUP3 ADD SWAP1 POP PUSH2 0x372 PUSH0 DUP4 ADD DUP8 PUSH2 0x30F JUMP JUMPDEST PUSH2 0x37F PUSH1 0x20 DUP4 ADD DUP7 PUSH2 0x31E JUMP JUMPDEST PUSH2 0x38C PUSH1 0x40 DUP4 ADD DUP6 PUSH2 0x336 JUMP JUMPDEST PUSH2 0x399 PUSH1 0x60 DUP4 ADD DUP5 PUSH2 0x350 JUMP JUMPDEST SWAP6 SWAP5 POP POP POP POP POP JUMP JUMPDEST PUSH2 0x3AB DUP2 PUSH2 0x2FE JUMP JUMPDEST DUP2 EQ PUSH2 0x3B5 JUMPI PUSH0 DUP1 REVERT JUMPDEST POP JUMP JUMPDEST PUSH0 DUP2 CALLDATALOAD SWAP1 POP PUSH2 0x3C6 DUP2 PUSH2 0x3A2 JUMP JUMPDEST SWAP3 SWAP2 POP POP JUMP JUMPDEST PUSH2 0x3D5 DUP2 PUSH2 0x32D JUMP JUMPDEST DUP2 EQ PUSH2 0x3DF JUMPI PUSH0 DUP1 REVERT JUMPDEST POP JUMP JUMPDEST PUSH0 DUP2 CALLDATALOAD SWAP1 POP PUSH2 0x3F0 DUP2 PUSH2 0x3CC JUMP JUMPDEST SWAP3 SWAP2 POP POP JUMP JUMPDEST PUSH2 0x3FF DUP2 PUSH2 0x345 JUMP JUMPDEST DUP2 EQ PUSH2 0x409 JUMPI PUSH0 DUP1 REVERT JUMPDEST POP JUMP JUMPDEST PUSH0 DUP2 CALLDATALOAD SWAP1 POP PUSH2 0x41A DUP2 PUSH2 0x3F6 JUMP JUMPDEST SWAP3 SWAP2 POP POP JUMP JUMPDEST PUSH0 DUP1 PUSH0 DUP1 PUSH1 0x80 DUP6 DUP8 SUB SLT ISZERO PUSH2 0x438 JUMPI PUSH2 0x437 PUSH2 0x27D JUMP JUMPDEST JUMPDEST PUSH0 PUSH2 0x445 DUP8 DUP3 DUP9 ADD PUSH2 0x3B8 JUMP JUMPDEST SWAP5 POP POP PUSH1 0x20 PUSH2 0x456 DUP8 DUP3 DUP9 ADD PUSH2 0x2A0 JUMP JUMPDEST SWAP4 POP POP PUSH1 0x40 PUSH2 0x467 DUP8 DUP3 DUP9 ADD PUSH2 0x3E2 JUMP JUMPDEST SWAP3 POP POP PUSH1 0x60 PUSH2 0x478 DUP8 DUP3 DUP9 ADD PUSH2 0x40C JUMP JUMPDEST SWAP2 POP POP SWAP3 SWAP6 SWAP2 SWAP5 POP SWAP3 POP JUMP JUMPDEST PUSH0 PUSH1 0x20 DUP3 ADD SWAP1 POP PUSH2 0x497 PUSH0 DUP4 ADD DUP5 PUSH2 0x31E JUMP JUMPDEST SWAP3 SWAP2 POP POP JUMP JUMPDEST PUSH0 DUP2 PUSH1 0x60 SHL SWAP1 POP SWAP2 SWAP1 POP JUMP JUMPDEST PUSH0 PUSH2 0x4B3 DUP3 PUSH2 0x49D JUMP JUMPDEST SWAP1 POP SWAP2 SWAP1 POP JUMP JUMPDEST PUSH0 PUSH2 0x4C4 DUP3 PUSH2 0x4A9 JUMP JUMPDEST SWAP1 POP SWAP2 SWAP1 POP JUMP JUMPDEST PUSH2 0x4DC PUSH2 0x4D7 DUP3 PUSH2 0x2FE JUMP JUMPDEST PUSH2 0x4BA JUMP JUMPDEST DUP3 MSTORE POP POP JUMP JUMPDEST PUSH0 DUP2 SWAP1 POP SWAP2 SWAP1 POP JUMP JUMPDEST PUSH2 0x4FC PUSH2 0x4F7 DUP3 PUSH2 0x281 JUMP JUMPDEST PUSH2 0x4E2 JUMP JUMPDEST DUP3 MSTORE POP POP JUMP JUMPDEST PUSH0 DUP2 SWAP1 POP SWAP2 SWAP1 POP JUMP JUMPDEST PUSH2 0x51C PUSH2 0x517 DUP3 PUSH2 0x32D JUMP JUMPDEST PUSH2 0x502 JUMP JUMPDEST DUP3 MSTORE POP POP JUMP JUMPDEST PUSH0 DUP2 PUSH1 0xF8 SHL SWAP1 POP SWAP2 SWAP1 POP JUMP JUMPDEST PUSH0 PUSH2 0x538 DUP3 PUSH2 0x522 JUMP JUMPDEST SWAP1 POP SWAP2 SWAP1 POP JUMP JUMPDEST PUSH0 PUSH2 0x549 DUP3 PUSH2 0x52E JUMP JUMPDEST SWAP1 POP SWAP2 SWAP1 POP JUMP JUMPDEST PUSH2 0x561 PUSH2 0x55C DUP3 PUSH2 0x345 JUMP JUMPDEST PUSH2 0x53F JUMP JUMPDEST DUP3 MSTORE POP POP JUMP JUMPDEST PUSH0 PUSH2 0x572 DUP3 DUP8 PUSH2 0x4CB JUMP JUMPDEST PUSH1 0x14 DUP3 ADD SWAP2 POP PUSH2 0x582 DUP3 DUP7 PUSH2 0x4EB JUMP JUMPDEST PUSH1 0x20 DUP3 ADD SWAP2 POP PUSH2 0x592 DUP3 DUP6 PUSH2 0x50B JUMP JUMPDEST PUSH1 0x20 DUP3 ADD SWAP2 POP PUSH2 0x5A2 DUP3 DUP5 PUSH2 0x550 JUMP JUMPDEST PUSH1 0x1 DUP3 ADD SWAP2 POP DUP2 SWAP1 POP SWAP6 SWAP5 POP POP POP POP POP JUMP JUMPDEST PUSH0 DUP3 DUP3 MSTORE PUSH1 0x20 DUP3 ADD SWAP1 POP SWAP3 SWAP2 POP POP JUMP JUMPDEST PUSH32 0x4120636F6E73656E74207265636F726420776974682074686973206861736820 PUSH0 DUP3 ADD MSTORE PUSH32 0x616C7265616479206578697374732E0000000000000000000000000000000000 PUSH1 0x20 DUP3 ADD MSTORE POP JUMP JUMPDEST PUSH0 PUSH2 0x61E PUSH1 0x2F DUP4 PUSH2 0x5B4 JUMP JUMPDEST SWAP2 POP PUSH2 0x629 DUP3 PUSH2 0x5C4 JUMP JUMPDEST PUSH1 0x40 DUP3 ADD SWAP1 POP SWAP2 SWAP1 POP JUMP JUMPDEST PUSH0 PUSH1 0x20 DUP3 ADD SWAP1 POP DUP2 DUP2 SUB PUSH0 DUP4 ADD MSTORE PUSH2 0x64B DUP2 PUSH2 0x612 JUMP JUMPDEST SWAP1 POP SWAP2 SWAP1 POP JUMP INVALID LOG2 PUSH5 0x6970667358 0x22 SLT KECCAK256 0xE8 0xC0 0xD4 DUP9 LOG2 KECCAK256 0x1E 0xD0 0xB0 DUP15 0xA7 0xDB 0xC7 SWAP4 MCOPY PUSH7 0xD8622B6B041796 0xD5 EQ 0xA9 0xC9 0xE6 CREATE MULMOD MLOAD SWAP4 PUSH5 0x736F6C6343 STOP ADDMOD XOR STOP CALLER "
				},
				"gasEstimates": {
					"creation": {
						"codeDepositCost": "334400",
						"executionCost": "372",
						"totalCost": "334772"
					},
					"external": {
						"addConsent(address,bytes32,uint256,bool)": "infinite",
						"mapHashConsent(bytes32)": "infinite"
					}
				},
				"methodIdentifiers": {
					"addConsent(address,bytes32,uint256,bool)": "6f0fa36d",
					"mapHashConsent(bytes32)": "1fb922d5"
				}
			},
			"storageLayout": {
				"storage": [
					{
						"astId": 15,
						"contract": "contracts/test.sol:AgreementSmartContract",
						"label": "mapHashConsent",
						"offset": 0,
						"slot": "0",
						"type": "t_mapping(t_bytes32,t_struct(Consent)10_storage)"
					}
				],
				"types": {
					"t_address": {
						"encoding": "inplace",
						"label": "address",
						"numberOfBytes": "20"
					},
					"t_bool": {
						"encoding": "inplace",
						"label": "bool",
						"numberOfBytes": "1"
					},
					"t_bytes32": {
						"encoding": "inplace",
						"label": "bytes32",
						"numberOfBytes": "32"
					},
					"t_mapping(t_bytes32,t_struct(Consent)10_storage)": {
						"encoding": "mapping",
						"key": "t_bytes32",
						"label": "mapping(bytes32 => struct AgreementSmartContract.Consent)",
						"numberOfBytes": "32",
						"value": "t_struct(Consent)10_storage"
					},
					"t_struct(Consent)10_storage": {
						"encoding": "inplace",
						"label": "struct AgreementSmartContract.Consent",
						"members": [
							{
								"astId": 3,
								"contract": "contracts/test.sol:AgreementSmartContract",
								"label": "purposeBlockAddress",
								"offset": 0,
								"slot": "0",
								"type": "t_address"
							},
							{
								"astId": 5,
								"contract": "contracts/test.sol:AgreementSmartContract",
								"label": "purposeHashKeyOfDataUsage",
								"offset": 0,
								"slot": "1",
								"type": "t_bytes32"
							},
							{
								"astId": 7,
								"contract": "contracts/test.sol:AgreementSmartContract",
								"label": "userId",
								"offset": 0,
								"slot": "2",
								"type": "t_uint256"
							},
							{
								"astId": 9,
								"contract": "contracts/test.sol:AgreementSmartContract",
								"label": "isConsented",
								"offset": 0,
								"slot": "3",
								"type": "t_bool"
							}
						],
						"numberOfBytes": "128"
					},
					"t_uint256": {
						"encoding": "inplace",
						"label": "uint256",
						"numberOfBytes": "32"
					}
				}
			},
			"userdoc": {
				"kind": "user",
				"methods": {},
				"version": 1
			}
		}
	}
}