{
	"contracts/AgreementSmartContract.sol": {
		"AgreementSmartContract": {
			"abi": [
				{
					"inputs": [
						{
							"internalType": "address",
							"name": "_dataUsageSmartContractAddress",
							"type": "address"
						}
					],
					"stateMutability": "nonpayable",
					"type": "constructor"
				},
				{
					"anonymous": false,
					"inputs": [
						{
							"indexed": true,
							"internalType": "uint256",
							"name": "userId",
							"type": "uint256"
						},
						{
							"indexed": true,
							"internalType": "uint256",
							"name": "dataUsageId",
							"type": "uint256"
						},
						{
							"indexed": false,
							"internalType": "bool",
							"name": "isConsent",
							"type": "bool"
						}
					],
					"name": "ConsentAdded",
					"type": "event"
				},
				{
					"inputs": [],
					"name": "dataUsageSmartContract",
					"outputs": [
						{
							"internalType": "contract DataUsageSmartContract",
							"name": "",
							"type": "address"
						}
					],
					"stateMutability": "view",
					"type": "function"
				},
				{
					"inputs": [],
					"name": "owner",
					"outputs": [
						{
							"internalType": "address",
							"name": "",
							"type": "address"
						}
					],
					"stateMutability": "view",
					"type": "function"
				}
			],
			"devdoc": {
				"kind": "dev",
				"methods": {},
				"version": 1
			},
			"evm": {
				"assembly": "    /* \"contracts/AgreementSmartContract.sol\":128:1038  contract AgreementSmartContract is AccessControl {... */\n  mstore(0x40, 0x80)\n    /* \"contracts/AgreementSmartContract.sol\":784:785  0 */\n  0x00\n    /* \"contracts/AgreementSmartContract.sol\":756:785  uint private consentCount = 0 */\n  0x03\n  sstore\n    /* \"contracts/AgreementSmartContract.sol\":880:1028  constructor(address _dataUsageSmartContractAddress) {... */\n  callvalue\n  dup1\n  iszero\n  tag_1\n  jumpi\n  0x00\n  dup1\n  revert\ntag_1:\n  pop\n  mload(0x40)\n  sub(codesize, bytecodeSize)\n  dup1\n  bytecodeSize\n  dup4\n  codecopy\n  dup2\n  add\n  0x40\n  dup2\n  swap1\n  mstore\n  tag_2\n  swap2\n  tag_3\n  jump\t// in\ntag_2:\n    /* \"contracts/AccessControl.sol\":272:277  owner */\n  0x00\n    /* \"contracts/AccessControl.sol\":272:290  owner = msg.sender */\n  dup1\n  sload\n    /* \"contracts/AccessControl.sol\":280:290  msg.sender */\n  caller\n  not(sub(shl(0xa0, 0x01), 0x01))\n    /* \"contracts/AccessControl.sol\":272:290  owner = msg.sender */\n  swap2\n  dup3\n  and\n  or\n  swap1\n  swap2\n  sstore\n  0x01\n    /* \"contracts/AgreementSmartContract.sol\":942:1021  dataUsageSmartContract = DataUsageSmartContract(_dataUsageSmartContractAddress) */\n  dup1\n  sload\n  swap1\n  swap2\n  and\n  sub(shl(0xa0, 0x01), 0x01)\n  swap3\n  swap1\n  swap3\n  and\n  swap2\n  swap1\n  swap2\n  or\n  swap1\n  sstore\n    /* \"contracts/AgreementSmartContract.sol\":128:1038  contract AgreementSmartContract is AccessControl {... */\n  jump(tag_9)\n    /* \"#utility.yul\":14:304   */\ntag_3:\n    /* \"#utility.yul\":84:90   */\n  0x00\n    /* \"#utility.yul\":137:139   */\n  0x20\n    /* \"#utility.yul\":125:134   */\n  dup3\n    /* \"#utility.yul\":116:123   */\n  dup5\n    /* \"#utility.yul\":112:135   */\n  sub\n    /* \"#utility.yul\":108:140   */\n  slt\n    /* \"#utility.yul\":105:157   */\n  iszero\n  tag_11\n  jumpi\n    /* \"#utility.yul\":153:154   */\n  0x00\n    /* \"#utility.yul\":150:151   */\n  dup1\n    /* \"#utility.yul\":143:155   */\n  revert\n    /* \"#utility.yul\":105:157   */\ntag_11:\n    /* \"#utility.yul\":179:195   */\n  dup2\n  mload\n  sub(shl(0xa0, 0x01), 0x01)\n    /* \"#utility.yul\":224:255   */\n  dup2\n  and\n    /* \"#utility.yul\":214:256   */\n  dup2\n  eq\n    /* \"#utility.yul\":204:274   */\n  tag_12\n  jumpi\n    /* \"#utility.yul\":270:271   */\n  0x00\n    /* \"#utility.yul\":267:268   */\n  dup1\n    /* \"#utility.yul\":260:272   */\n  revert\n    /* \"#utility.yul\":204:274   */\ntag_12:\n    /* \"#utility.yul\":293:298   */\n  swap4\n    /* \"#utility.yul\":14:304   */\n  swap3\n  pop\n  pop\n  pop\n  jump\t// out\ntag_9:\n    /* \"contracts/AgreementSmartContract.sol\":128:1038  contract AgreementSmartContract is AccessControl {... */\n  dataSize(sub_0)\n  dup1\n  dataOffset(sub_0)\n  0x00\n  codecopy\n  0x00\n  return\nstop\n\nsub_0: assembly {\n        /* \"contracts/AgreementSmartContract.sol\":128:1038  contract AgreementSmartContract is AccessControl {... */\n      mstore(0x40, 0x80)\n      callvalue\n      dup1\n      iszero\n      tag_1\n      jumpi\n      0x00\n      dup1\n      revert\n    tag_1:\n      pop\n      jumpi(tag_2, lt(calldatasize, 0x04))\n      shr(0xe0, calldataload(0x00))\n      dup1\n      0x0950bb6a\n      eq\n      tag_3\n      jumpi\n      dup1\n      0x8da5cb5b\n      eq\n      tag_4\n      jumpi\n    tag_2:\n      0x00\n      dup1\n      revert\n        /* \"contracts/AgreementSmartContract.sol\":610:662  DataUsageSmartContract public dataUsageSmartContract */\n    tag_3:\n      sload(0x01)\n      tag_5\n      swap1\n      sub(shl(0xa0, 0x01), 0x01)\n      and\n      dup2\n      jump\n    tag_5:\n      mload(0x40)\n      sub(shl(0xa0, 0x01), 0x01)\n        /* \"#utility.yul\":207:239   */\n      swap1\n      swap2\n      and\n        /* \"#utility.yul\":189:240   */\n      dup2\n      mstore\n        /* \"#utility.yul\":177:179   */\n      0x20\n        /* \"#utility.yul\":162:180   */\n      add\n        /* \"contracts/AgreementSmartContract.sol\":610:662  DataUsageSmartContract public dataUsageSmartContract */\n      mload(0x40)\n      dup1\n      swap2\n      sub\n      swap1\n      return\n        /* \"contracts/AccessControl.sol\":86:106  address public owner */\n    tag_4:\n      sload(0x00)\n      tag_5\n      swap1\n      sub(shl(0xa0, 0x01), 0x01)\n      and\n      dup2\n      jump\n\n    auxdata: 0xa2646970667358221220b60e5ab0869c3a0f4ca719a97fe581216084733907848b78174b0432675589ef64736f6c63430008180033\n}\n",
				"bytecode": {
					"linkReferences": {},
					"object": "60806040525f600355348015610013575f80fd5b5060405161014638038061014683398101604081905261003291610064565b5f8054336001600160a01b031991821617909155600180549091166001600160a01b0392909216919091179055610091565b5f60208284031215610074575f80fd5b81516001600160a01b038116811461008a575f80fd5b9392505050565b60a98061009d5f395ff3fe6080604052348015600e575f80fd5b50600436106030575f3560e01c80630950bb6a1460345780638da5cb5b146062575b5f80fd5b6001546046906001600160a01b031681565b6040516001600160a01b03909116815260200160405180910390f35b5f546046906001600160a01b03168156fea2646970667358221220b60e5ab0869c3a0f4ca719a97fe581216084733907848b78174b0432675589ef64736f6c63430008180033",
					"opcodes": "PUSH1 0x80 PUSH1 0x40 MSTORE PUSH0 PUSH1 0x3 SSTORE CALLVALUE DUP1 ISZERO PUSH2 0x13 JUMPI PUSH0 DUP1 REVERT JUMPDEST POP PUSH1 0x40 MLOAD PUSH2 0x146 CODESIZE SUB DUP1 PUSH2 0x146 DUP4 CODECOPY DUP2 ADD PUSH1 0x40 DUP2 SWAP1 MSTORE PUSH2 0x32 SWAP2 PUSH2 0x64 JUMP JUMPDEST PUSH0 DUP1 SLOAD CALLER PUSH1 0x1 PUSH1 0x1 PUSH1 0xA0 SHL SUB NOT SWAP2 DUP3 AND OR SWAP1 SWAP2 SSTORE PUSH1 0x1 DUP1 SLOAD SWAP1 SWAP2 AND PUSH1 0x1 PUSH1 0x1 PUSH1 0xA0 SHL SUB SWAP3 SWAP1 SWAP3 AND SWAP2 SWAP1 SWAP2 OR SWAP1 SSTORE PUSH2 0x91 JUMP JUMPDEST PUSH0 PUSH1 0x20 DUP3 DUP5 SUB SLT ISZERO PUSH2 0x74 JUMPI PUSH0 DUP1 REVERT JUMPDEST DUP2 MLOAD PUSH1 0x1 PUSH1 0x1 PUSH1 0xA0 SHL SUB DUP2 AND DUP2 EQ PUSH2 0x8A JUMPI PUSH0 DUP1 REVERT JUMPDEST SWAP4 SWAP3 POP POP POP JUMP JUMPDEST PUSH1 0xA9 DUP1 PUSH2 0x9D PUSH0 CODECOPY PUSH0 RETURN INVALID PUSH1 0x80 PUSH1 0x40 MSTORE CALLVALUE DUP1 ISZERO PUSH1 0xE JUMPI PUSH0 DUP1 REVERT JUMPDEST POP PUSH1 0x4 CALLDATASIZE LT PUSH1 0x30 JUMPI PUSH0 CALLDATALOAD PUSH1 0xE0 SHR DUP1 PUSH4 0x950BB6A EQ PUSH1 0x34 JUMPI DUP1 PUSH4 0x8DA5CB5B EQ PUSH1 0x62 JUMPI JUMPDEST PUSH0 DUP1 REVERT JUMPDEST PUSH1 0x1 SLOAD PUSH1 0x46 SWAP1 PUSH1 0x1 PUSH1 0x1 PUSH1 0xA0 SHL SUB AND DUP2 JUMP JUMPDEST PUSH1 0x40 MLOAD PUSH1 0x1 PUSH1 0x1 PUSH1 0xA0 SHL SUB SWAP1 SWAP2 AND DUP2 MSTORE PUSH1 0x20 ADD PUSH1 0x40 MLOAD DUP1 SWAP2 SUB SWAP1 RETURN JUMPDEST PUSH0 SLOAD PUSH1 0x46 SWAP1 PUSH1 0x1 PUSH1 0x1 PUSH1 0xA0 SHL SUB AND DUP2 JUMP INVALID LOG2 PUSH5 0x6970667358 0x22 SLT KECCAK256 0xB6 0xE GAS 0xB0 DUP7 SWAP13 GASPRICE 0xF 0x4C 0xA7 NOT 0xA9 PUSH32 0xE581216084733907848B78174B0432675589EF64736F6C634300081800330000 "
				},
				"gasEstimates": {
					"creation": {
						"codeDepositCost": "33800",
						"executionCost": "infinite",
						"totalCost": "infinite"
					},
					"external": {
						"dataUsageSmartContract()": "2302",
						"owner()": "2323"
					}
				},
				"methodIdentifiers": {
					"dataUsageSmartContract()": "0950bb6a",
					"owner()": "8da5cb5b"
				}
			},
			"storageLayout": {
				"storage": [
					{
						"astId": 3,
						"contract": "contracts/AgreementSmartContract.sol:AgreementSmartContract",
						"label": "owner",
						"offset": 0,
						"slot": "0",
						"type": "t_address"
					},
					{
						"astId": 45,
						"contract": "contracts/AgreementSmartContract.sol:AgreementSmartContract",
						"label": "dataUsageSmartContract",
						"offset": 0,
						"slot": "1",
						"type": "t_contract(DataUsageSmartContract)80"
					},
					{
						"astId": 50,
						"contract": "contracts/AgreementSmartContract.sol:AgreementSmartContract",
						"label": "consents",
						"offset": 0,
						"slot": "2",
						"type": "t_mapping(t_uint256,t_struct(Consent)42_storage)"
					},
					{
						"astId": 53,
						"contract": "contracts/AgreementSmartContract.sol:AgreementSmartContract",
						"label": "consentCount",
						"offset": 0,
						"slot": "3",
						"type": "t_uint256"
					}
				],
				"types": {
					"t_address": {
						"encoding": "inplace",
						"label": "address",
						"numberOfBytes": "20"
					},
					"t_bool": {
						"encoding": "inplace",
						"label": "bool",
						"numberOfBytes": "1"
					},
					"t_contract(DataUsageSmartContract)80": {
						"encoding": "inplace",
						"label": "contract DataUsageSmartContract",
						"numberOfBytes": "20"
					},
					"t_mapping(t_uint256,t_struct(Consent)42_storage)": {
						"encoding": "mapping",
						"key": "t_uint256",
						"label": "mapping(uint256 => struct AgreementSmartContract.Consent)",
						"numberOfBytes": "32",
						"value": "t_struct(Consent)42_storage"
					},
					"t_string_storage": {
						"encoding": "bytes",
						"label": "string",
						"numberOfBytes": "32"
					},
					"t_struct(Consent)42_storage": {
						"encoding": "inplace",
						"label": "struct AgreementSmartContract.Consent",
						"members": [
							{
								"astId": 33,
								"contract": "contracts/AgreementSmartContract.sol:AgreementSmartContract",
								"label": "dataUsageId",
								"offset": 0,
								"slot": "0",
								"type": "t_uint256"
							},
							{
								"astId": 35,
								"contract": "contracts/AgreementSmartContract.sol:AgreementSmartContract",
								"label": "purposeBlockAddress",
								"offset": 0,
								"slot": "1",
								"type": "t_address"
							},
							{
								"astId": 37,
								"contract": "contracts/AgreementSmartContract.sol:AgreementSmartContract",
								"label": "userId",
								"offset": 0,
								"slot": "2",
								"type": "t_uint256"
							},
							{
								"astId": 39,
								"contract": "contracts/AgreementSmartContract.sol:AgreementSmartContract",
								"label": "servicePurpose",
								"offset": 0,
								"slot": "3",
								"type": "t_string_storage"
							},
							{
								"astId": 41,
								"contract": "contracts/AgreementSmartContract.sol:AgreementSmartContract",
								"label": "isConsent",
								"offset": 0,
								"slot": "4",
								"type": "t_bool"
							}
						],
						"numberOfBytes": "160"
					},
					"t_uint256": {
						"encoding": "inplace",
						"label": "uint256",
						"numberOfBytes": "32"
					}
				}
			},
			"userdoc": {
				"kind": "user",
				"methods": {},
				"version": 1
			}
		}
	}
}