{
	"contracts/DataUsageSmartContract.sol": {
		"DataUsageSmartContract": {
			"abi": [
				{
					"anonymous": false,
					"inputs": [
						{
							"indexed": false,
							"internalType": "uint256",
							"name": "dataUsageId",
							"type": "uint256"
						}
					],
					"name": "DataUsageAdded",
					"type": "event"
				},
				{
					"inputs": [
						{
							"internalType": "uint256",
							"name": "_actorId",
							"type": "uint256"
						},
						{
							"internalType": "address",
							"name": "_actorAddress",
							"type": "address"
						},
						{
							"internalType": "string",
							"name": "_actorName",
							"type": "string"
						}
					],
					"name": "addActor",
					"outputs": [],
					"stateMutability": "nonpayable",
					"type": "function"
				},
				{
					"inputs": [
						{
							"internalType": "string",
							"name": "_serviceName",
							"type": "string"
						},
						{
							"internalType": "string",
							"name": "_servicePurpose",
							"type": "string"
						},
						{
							"internalType": "uint256",
							"name": "_actorId",
							"type": "uint256"
						},
						{
							"internalType": "string[]",
							"name": "_operations",
							"type": "string[]"
						},
						{
							"internalType": "uint256[]",
							"name": "_personalDataIds",
							"type": "uint256[]"
						}
					],
					"name": "addDataUsage",
					"outputs": [],
					"stateMutability": "nonpayable",
					"type": "function"
				},
				{
					"inputs": [
						{
							"internalType": "uint256",
							"name": "_userId",
							"type": "uint256"
						},
						{
							"internalType": "string",
							"name": "_userName",
							"type": "string"
						},
						{
							"internalType": "string",
							"name": "_userAddress",
							"type": "string"
						},
						{
							"internalType": "string",
							"name": "_userTelephone",
							"type": "string"
						},
						{
							"internalType": "string[]",
							"name": "additionalInfos",
							"type": "string[]"
						}
					],
					"name": "addPersonalData",
					"outputs": [],
					"stateMutability": "nonpayable",
					"type": "function"
				},
				{
					"inputs": [
						{
							"internalType": "uint256",
							"name": "_personalDataId",
							"type": "uint256"
						}
					],
					"name": "addProcessedPersonalData",
					"outputs": [],
					"stateMutability": "nonpayable",
					"type": "function"
				},
				{
					"inputs": [
						{
							"internalType": "uint256",
							"name": "_actorId",
							"type": "uint256"
						}
					],
					"name": "getActorByKey",
					"outputs": [
						{
							"components": [
								{
									"internalType": "uint256",
									"name": "actorId",
									"type": "uint256"
								},
								{
									"internalType": "address",
									"name": "actorAddress",
									"type": "address"
								},
								{
									"internalType": "string",
									"name": "actorName",
									"type": "string"
								}
							],
							"internalType": "struct DataUsageSmartContract.Actor",
							"name": "",
							"type": "tuple"
						}
					],
					"stateMutability": "view",
					"type": "function"
				},
				{
					"inputs": [],
					"name": "getActorIds",
					"outputs": [
						{
							"internalType": "uint256[]",
							"name": "",
							"type": "uint256[]"
						}
					],
					"stateMutability": "view",
					"type": "function"
				},
				{
					"inputs": [
						{
							"internalType": "uint256",
							"name": "_dataUsageId",
							"type": "uint256"
						}
					],
					"name": "getDataUsageByKey",
					"outputs": [
						{
							"components": [
								{
									"internalType": "string",
									"name": "serviceName",
									"type": "string"
								},
								{
									"internalType": "string",
									"name": "servicePurpose",
									"type": "string"
								},
								{
									"internalType": "uint256",
									"name": "actorId",
									"type": "uint256"
								},
								{
									"internalType": "string[]",
									"name": "operations",
									"type": "string[]"
								},
								{
									"internalType": "uint256[]",
									"name": "personalDataIds",
									"type": "uint256[]"
								},
								{
									"internalType": "bytes32[]",
									"name": "processedPersonalDatas",
									"type": "bytes32[]"
								}
							],
							"internalType": "struct DataUsageSmartContract.DataUsage",
							"name": "",
							"type": "tuple"
						}
					],
					"stateMutability": "view",
					"type": "function"
				},
				{
					"inputs": [],
					"name": "getDataUsageCounter",
					"outputs": [
						{
							"internalType": "uint256",
							"name": "",
							"type": "uint256"
						}
					],
					"stateMutability": "view",
					"type": "function"
				},
				{
					"inputs": [
						{
							"internalType": "uint256",
							"name": "_personalDataId",
							"type": "uint256"
						}
					],
					"name": "getPersonalDataByKey",
					"outputs": [
						{
							"components": [
								{
									"internalType": "uint256",
									"name": "userId",
									"type": "uint256"
								},
								{
									"internalType": "string",
									"name": "userName",
									"type": "string"
								},
								{
									"internalType": "string",
									"name": "userAddress",
									"type": "string"
								},
								{
									"internalType": "string",
									"name": "userTelephone",
									"type": "string"
								},
								{
									"internalType": "string[]",
									"name": "additionalInfos",
									"type": "string[]"
								}
							],
							"internalType": "struct DataUsageSmartContract.PersonalData",
							"name": "",
							"type": "tuple"
						}
					],
					"stateMutability": "nonpayable",
					"type": "function"
				},
				{
					"inputs": [],
					"name": "getPersonalDataCounter",
					"outputs": [
						{
							"internalType": "uint256",
							"name": "",
							"type": "uint256"
						}
					],
					"stateMutability": "view",
					"type": "function"
				},
				{
					"inputs": [
						{
							"internalType": "uint256",
							"name": "_personalDataId",
							"type": "uint256"
						}
					],
					"name": "getProcessedPersonalDataByKey",
					"outputs": [
						{
							"internalType": "bytes32",
							"name": "",
							"type": "bytes32"
						}
					],
					"stateMutability": "view",
					"type": "function"
				},
				{
					"inputs": [],
					"name": "owner",
					"outputs": [
						{
							"internalType": "address",
							"name": "",
							"type": "address"
						}
					],
					"stateMutability": "view",
					"type": "function"
				}
			],
			"devdoc": {
				"kind": "dev",
				"methods": {},
				"version": 1
			},
			"evm": {
				"assembly": "    /* \"contracts/DataUsageSmartContract.sol\":94:6827  contract DataUsageSmartContract is AccessControl {... */\n  mstore(0x40, 0x80)\n    /* \"contracts/DataUsageSmartContract.sol\":1478:1479  0 */\n  0x00\n    /* \"contracts/DataUsageSmartContract.sol\":1446:1479  uint private dataUsageCounter = 0 */\n  0x05\n  sstore\n    /* \"contracts/DataUsageSmartContract.sol\":1551:1552  0 */\n  0x00\n    /* \"contracts/DataUsageSmartContract.sol\":1516:1552  uint private personalDataCounter = 0 */\n  0x07\n  sstore\n    /* \"contracts/DataUsageSmartContract.sol\":94:6827  contract DataUsageSmartContract is AccessControl {... */\n  callvalue\n  dup1\n  iszero\n  tag_1\n  jumpi\n  0x00\n  dup1\n  revert\ntag_1:\n  pop\n    /* \"contracts/AccessControl.sol\":272:277  owner */\n  0x00\n    /* \"contracts/AccessControl.sol\":272:290  owner = msg.sender */\n  dup1\n  sload\n  not(sub(shl(0xa0, 0x01), 0x01))\n  and\n    /* \"contracts/AccessControl.sol\":280:290  msg.sender */\n  caller\n    /* \"contracts/AccessControl.sol\":272:290  owner = msg.sender */\n  or\n  swap1\n  sstore\n    /* \"contracts/DataUsageSmartContract.sol\":94:6827  contract DataUsageSmartContract is AccessControl {... */\n  dataSize(sub_0)\n  dup1\n  dataOffset(sub_0)\n  0x00\n  codecopy\n  0x00\n  return\nstop\n\nsub_0: assembly {\n        /* \"contracts/DataUsageSmartContract.sol\":94:6827  contract DataUsageSmartContract is AccessControl {... */\n      mstore(0x40, 0x80)\n      callvalue\n      dup1\n      iszero\n      tag_1\n      jumpi\n      0x00\n      dup1\n      revert\n    tag_1:\n      pop\n      jumpi(tag_2, lt(calldatasize, 0x04))\n      shr(0xe0, calldataload(0x00))\n      dup1\n      0x9d8a9190\n      gt\n      tag_15\n      jumpi\n      dup1\n      0x9d8a9190\n      eq\n      tag_9\n      jumpi\n      dup1\n      0xb61798f6\n      eq\n      tag_10\n      jumpi\n      dup1\n      0xc585665d\n      eq\n      tag_11\n      jumpi\n      dup1\n      0xca07b122\n      eq\n      tag_12\n      jumpi\n      dup1\n      0xd2b0649a\n      eq\n      tag_13\n      jumpi\n      dup1\n      0xd8a761d9\n      eq\n      tag_14\n      jumpi\n      0x00\n      dup1\n      revert\n    tag_15:\n      dup1\n      0x0dab7cd9\n      eq\n      tag_3\n      jumpi\n      dup1\n      0x3a918356\n      eq\n      tag_4\n      jumpi\n      dup1\n      0x3f81de59\n      eq\n      tag_5\n      jumpi\n      dup1\n      0x4b58fbe9\n      eq\n      tag_6\n      jumpi\n      dup1\n      0x682477d7\n      eq\n      tag_7\n      jumpi\n      dup1\n      0x8da5cb5b\n      eq\n      tag_8\n      jumpi\n    tag_2:\n      0x00\n      dup1\n      revert\n        /* \"contracts/DataUsageSmartContract.sol\":1922:2442  function addPersonalData(... */\n    tag_3:\n      tag_16\n      tag_17\n      calldatasize\n      0x04\n      tag_18\n      jump\t// in\n    tag_17:\n      tag_19\n      jump\t// in\n    tag_16:\n      stop\n        /* \"contracts/DataUsageSmartContract.sol\":5121:5214  function getActorIds() public view returns (uint[] memory) {... */\n    tag_4:\n      tag_20\n      tag_21\n      jump\t// in\n    tag_20:\n      mload(0x40)\n      tag_22\n      swap2\n      swap1\n      tag_23\n      jump\t// in\n    tag_22:\n      mload(0x40)\n      dup1\n      swap2\n      sub\n      swap1\n      return\n        /* \"contracts/DataUsageSmartContract.sol\":2939:4137  function addProcessedPersonalData(uint _personalDataId) public onlyOwner {... */\n    tag_5:\n      tag_16\n      tag_25\n      calldatasize\n      0x04\n      tag_26\n      jump\t// in\n    tag_25:\n      tag_27\n      jump\t// in\n        /* \"contracts/DataUsageSmartContract.sol\":2702:2808  function getPersonalDataCounter() public view returns (uint) {... */\n    tag_6:\n        /* \"contracts/DataUsageSmartContract.sol\":2781:2800  personalDataCounter */\n      sload(0x07)\n        /* \"contracts/DataUsageSmartContract.sol\":2702:2808  function getPersonalDataCounter() public view returns (uint) {... */\n    tag_28:\n      mload(0x40)\n        /* \"#utility.yul\":3992:4017   */\n      swap1\n      dup2\n      mstore\n        /* \"#utility.yul\":3980:3982   */\n      0x20\n        /* \"#utility.yul\":3965:3983   */\n      add\n        /* \"contracts/DataUsageSmartContract.sol\":2702:2808  function getPersonalDataCounter() public view returns (uint) {... */\n      tag_22\n        /* \"#utility.yul\":3846:4023   */\n      jump\n        /* \"contracts/DataUsageSmartContract.sol\":6724:6824  function getDataUsageCounter() public view returns (uint) {... */\n    tag_7:\n        /* \"contracts/DataUsageSmartContract.sol\":6800:6816  dataUsageCounter */\n      sload(0x05)\n        /* \"contracts/DataUsageSmartContract.sol\":6724:6824  function getDataUsageCounter() public view returns (uint) {... */\n      jump(tag_28)\n        /* \"contracts/AccessControl.sol\":86:106  address public owner */\n    tag_8:\n      sload(0x00)\n      tag_35\n      swap1\n      sub(shl(0xa0, 0x01), 0x01)\n      and\n      dup2\n      jump\n    tag_35:\n      mload(0x40)\n      sub(shl(0xa0, 0x01), 0x01)\n        /* \"#utility.yul\":4192:4224   */\n      swap1\n      swap2\n      and\n        /* \"#utility.yul\":4174:4225   */\n      dup2\n      mstore\n        /* \"#utility.yul\":4162:4164   */\n      0x20\n        /* \"#utility.yul\":4147:4165   */\n      add\n        /* \"contracts/AccessControl.sol\":86:106  address public owner */\n      tag_22\n        /* \"#utility.yul\":4028:4231   */\n      jump\n        /* \"contracts/DataUsageSmartContract.sol\":4514:4884  function addActor(uint _actorId, address _actorAddress, string memory _actorName) public onlyOwner {... */\n    tag_9:\n      tag_16\n      tag_40\n      calldatasize\n      0x04\n      tag_41\n      jump\t// in\n    tag_40:\n      tag_42\n      jump\t// in\n        /* \"contracts/DataUsageSmartContract.sol\":4145:4399  function getProcessedPersonalDataByKey(uint _personalDataId) public view returns (bytes32) {... */\n    tag_10:\n      tag_28\n      tag_44\n      calldatasize\n      0x04\n      tag_26\n      jump\t// in\n    tag_44:\n      tag_45\n      jump\t// in\n        /* \"contracts/DataUsageSmartContract.sol\":4892:5113  function getActorByKey(uint _actorId) public view returns (Actor memory) {... */\n    tag_11:\n      tag_48\n      tag_49\n      calldatasize\n      0x04\n      tag_26\n      jump\t// in\n    tag_49:\n      tag_50\n      jump\t// in\n    tag_48:\n      mload(0x40)\n      tag_22\n      swap2\n      swap1\n      tag_52\n      jump\t// in\n        /* \"contracts/DataUsageSmartContract.sol\":5333:6491  function addDataUsage(... */\n    tag_12:\n      tag_16\n      tag_54\n      calldatasize\n      0x04\n      tag_55\n      jump\t// in\n    tag_54:\n      tag_56\n      jump\t// in\n        /* \"contracts/DataUsageSmartContract.sol\":6501:6716  function getDataUsageByKey(uint _dataUsageId) public view returns (DataUsage memory) {... */\n    tag_13:\n      tag_57\n      tag_58\n      calldatasize\n      0x04\n      tag_26\n      jump\t// in\n    tag_58:\n      tag_59\n      jump\t// in\n    tag_57:\n      mload(0x40)\n      tag_22\n      swap2\n      swap1\n      tag_61\n      jump\t// in\n        /* \"contracts/DataUsageSmartContract.sol\":2450:2694  function getPersonalDataByKey(uint _personalDataId) public onlyOwner returns (PersonalData memory) {... */\n    tag_14:\n      tag_62\n      tag_63\n      calldatasize\n      0x04\n      tag_26\n      jump\t// in\n    tag_63:\n      tag_64\n      jump\t// in\n    tag_62:\n      mload(0x40)\n      tag_22\n      swap2\n      swap1\n      tag_66\n      jump\t// in\n        /* \"contracts/DataUsageSmartContract.sol\":1922:2442  function addPersonalData(... */\n    tag_19:\n        /* \"contracts/AccessControl.sol\":164:169  owner */\n      and(sub(shl(0xa0, 0x01), 0x01), sload(0x00))\n        /* \"contracts/AccessControl.sol\":150:160  msg.sender */\n      caller\n        /* \"contracts/AccessControl.sol\":150:169  msg.sender == owner */\n      eq\n        /* \"contracts/AccessControl.sol\":142:224  require(msg.sender == owner, \"Only the contract owner can perform this operation\") */\n      tag_68\n      jumpi\n      mload(0x40)\n      shl(0xe5, 0x461bcd)\n      dup2\n      mstore\n      0x04\n      add\n      tag_69\n      swap1\n      tag_70\n      jump\t// in\n    tag_69:\n      mload(0x40)\n      dup1\n      swap2\n      sub\n      swap1\n      revert\n    tag_68:\n        /* \"contracts/DataUsageSmartContract.sol\":2182:2402  PersonalData({... */\n      0x40\n      dup1\n      mload\n      0xa0\n      dup2\n      add\n      dup3\n      mstore\n      dup7\n      dup2\n      mstore\n      0x20\n      dup1\n      dup3\n      add\n      dup8\n      dup2\n      mstore\n      dup3\n      dup5\n      add\n      dup8\n      swap1\n      mstore\n      0x60\n      dup4\n      add\n      dup7\n      swap1\n      mstore\n      0x80\n      dup4\n      add\n      dup6\n      swap1\n      mstore\n      0x00\n        /* \"contracts/DataUsageSmartContract.sol\":2157:2179  personalDatas[_userId] */\n      dup10\n      dup2\n      mstore\n        /* \"contracts/DataUsageSmartContract.sol\":2157:2170  personalDatas */\n      0x03\n        /* \"contracts/DataUsageSmartContract.sol\":2157:2179  personalDatas[_userId] */\n      swap1\n      swap3\n      mstore\n      swap3\n      swap1\n      keccak256\n        /* \"contracts/DataUsageSmartContract.sol\":2157:2402  personalDatas[_userId] = PersonalData({... */\n      dup2\n      mload\n      dup2\n      sstore\n      swap2\n      mload\n        /* \"contracts/DataUsageSmartContract.sol\":2182:2402  PersonalData({... */\n      swap1\n      swap2\n        /* \"contracts/DataUsageSmartContract.sol\":2157:2179  personalDatas[_userId] */\n      swap1\n        /* \"contracts/DataUsageSmartContract.sol\":2157:2402  personalDatas[_userId] = PersonalData({... */\n      0x01\n      dup3\n      add\n      swap1\n      tag_72\n      swap1\n      dup3\n      tag_73\n      jump\t// in\n    tag_72:\n      pop\n      0x40\n      dup3\n      add\n      mload\n      0x02\n      dup3\n      add\n      swap1\n      tag_74\n      swap1\n      dup3\n      tag_73\n      jump\t// in\n    tag_74:\n      pop\n      0x60\n      dup3\n      add\n      mload\n      0x03\n      dup3\n      add\n      swap1\n      tag_75\n      swap1\n      dup3\n      tag_73\n      jump\t// in\n    tag_75:\n      pop\n      0x80\n      dup3\n      add\n      mload\n      dup1\n      mload\n      tag_76\n      swap2\n      0x04\n      dup5\n      add\n      swap2\n      0x20\n      swap1\n      swap2\n      add\n      swap1\n      tag_77\n      jump\t// in\n    tag_76:\n      pop\n      pop\n        /* \"contracts/DataUsageSmartContract.sol\":2413:2432  personalDataCounter */\n      0x07\n        /* \"contracts/DataUsageSmartContract.sol\":2413:2434  personalDataCounter++ */\n      dup1\n      sload\n      swap2\n      pop\n        /* \"contracts/DataUsageSmartContract.sol\":2413:2432  personalDataCounter */\n      0x00\n        /* \"contracts/DataUsageSmartContract.sol\":2413:2434  personalDataCounter++ */\n      tag_78\n      dup4\n      tag_79\n      jump\t// in\n    tag_78:\n      swap2\n      swap1\n      pop\n      sstore\n      pop\n        /* \"contracts/DataUsageSmartContract.sol\":1922:2442  function addPersonalData(... */\n      pop\n      pop\n      pop\n      pop\n      pop\n      jump\t// out\n        /* \"contracts/DataUsageSmartContract.sol\":5121:5214  function getActorIds() public view returns (uint[] memory) {... */\n    tag_21:\n        /* \"contracts/DataUsageSmartContract.sol\":5165:5178  uint[] memory */\n      0x60\n        /* \"contracts/DataUsageSmartContract.sol\":5198:5206  actorIds */\n      0x06\n        /* \"contracts/DataUsageSmartContract.sol\":5191:5206  return actorIds */\n      dup1\n      sload\n      dup1\n      0x20\n      mul\n      0x20\n      add\n      mload(0x40)\n      swap1\n      dup2\n      add\n      0x40\n      mstore\n      dup1\n      swap3\n      swap2\n      swap1\n      dup2\n      dup2\n      mstore\n      0x20\n      add\n      dup3\n      dup1\n      sload\n      dup1\n      iszero\n      tag_81\n      jumpi\n      0x20\n      mul\n      dup3\n      add\n      swap2\n      swap1\n      0x00\n      mstore\n      keccak256(0x00, 0x20)\n      swap1\n    tag_82:\n      dup2\n      sload\n      dup2\n      mstore\n      0x20\n      add\n      swap1\n      0x01\n      add\n      swap1\n      dup1\n      dup4\n      gt\n      tag_82\n      jumpi\n    tag_81:\n      pop\n      pop\n      pop\n      pop\n      pop\n      swap1\n      pop\n        /* \"contracts/DataUsageSmartContract.sol\":5121:5214  function getActorIds() public view returns (uint[] memory) {... */\n      swap1\n      jump\t// out\n        /* \"contracts/DataUsageSmartContract.sol\":2939:4137  function addProcessedPersonalData(uint _personalDataId) public onlyOwner {... */\n    tag_27:\n        /* \"contracts/AccessControl.sol\":164:169  owner */\n      and(sub(shl(0xa0, 0x01), 0x01), sload(0x00))\n        /* \"contracts/AccessControl.sol\":150:160  msg.sender */\n      caller\n        /* \"contracts/AccessControl.sol\":150:169  msg.sender == owner */\n      eq\n        /* \"contracts/AccessControl.sol\":142:224  require(msg.sender == owner, \"Only the contract owner can perform this operation\") */\n      tag_84\n      jumpi\n      mload(0x40)\n      shl(0xe5, 0x461bcd)\n      dup2\n      mstore\n      0x04\n      add\n      tag_69\n      swap1\n      tag_70\n      jump\t// in\n    tag_84:\n        /* \"contracts/DataUsageSmartContract.sol\":3098:3117  personalDataCounter */\n      sload(0x07)\n        /* \"contracts/DataUsageSmartContract.sol\":3080:3095  _personalDataId */\n      dup2\n        /* \"contracts/DataUsageSmartContract.sol\":3080:3117  _personalDataId < personalDataCounter */\n      lt\n        /* \"contracts/DataUsageSmartContract.sol\":3072:3150  require(_personalDataId < personalDataCounter, \"PersonalData does not exist.\") */\n      tag_87\n      jumpi\n      mload(0x40)\n      shl(0xe5, 0x461bcd)\n      dup2\n      mstore\n      0x04\n      add\n      tag_69\n      swap1\n      tag_89\n      jump\t// in\n    tag_87:\n        /* \"contracts/DataUsageSmartContract.sol\":3206:3239  PersonalData storage personalData */\n      0x00\n        /* \"contracts/DataUsageSmartContract.sol\":3242:3272  personalDatas[_personalDataId] */\n      dup2\n      dup2\n      mstore\n        /* \"contracts/DataUsageSmartContract.sol\":3242:3255  personalDatas */\n      0x03\n        /* \"contracts/DataUsageSmartContract.sol\":3242:3272  personalDatas[_personalDataId] */\n      0x20\n      dup2\n      dup2\n      mstore\n      0x40\n      swap3\n      dup4\n      swap1\n      keccak256\n        /* \"contracts/DataUsageSmartContract.sol\":3454:3597  abi.encodePacked(... */\n      swap3\n      mload\n        /* \"contracts/DataUsageSmartContract.sol\":3363:3386  bytes memory dataToHash */\n      0x60\n      swap3\n        /* \"contracts/DataUsageSmartContract.sol\":3454:3597  abi.encodePacked(... */\n      tag_90\n      swap3\n        /* \"contracts/DataUsageSmartContract.sol\":3485:3506  personalData.userName */\n      0x01\n      dup7\n      add\n      swap3\n        /* \"contracts/DataUsageSmartContract.sol\":3521:3545  personalData.userAddress */\n      0x02\n      dup8\n      add\n      swap3\n        /* \"contracts/DataUsageSmartContract.sol\":3560:3586  personalData.userTelephone */\n      dup8\n      add\n      swap2\n        /* \"contracts/DataUsageSmartContract.sol\":3454:3597  abi.encodePacked(... */\n      add\n      tag_91\n      jump\t// in\n    tag_90:\n      mload(0x40)\n      0x20\n      dup2\n      dup4\n      sub\n      sub\n      dup2\n      mstore\n      swap1\n      0x40\n      mstore\n        /* \"contracts/DataUsageSmartContract.sol\":3441:3597  dataToHash = abi.encodePacked(... */\n      swap1\n      pop\n        /* \"contracts/DataUsageSmartContract.sol\":3699:3705  uint i */\n      0x00\n        /* \"contracts/DataUsageSmartContract.sol\":3694:3858  for (uint i = 0; i < personalData.additionalInfos.length; i++) {... */\n    tag_92:\n        /* \"contracts/DataUsageSmartContract.sol\":3715:3743  personalData.additionalInfos */\n      0x04\n      dup4\n      add\n        /* \"contracts/DataUsageSmartContract.sol\":3715:3750  personalData.additionalInfos.length */\n      sload\n        /* \"contracts/DataUsageSmartContract.sol\":3711:3750  i < personalData.additionalInfos.length */\n      dup2\n      lt\n        /* \"contracts/DataUsageSmartContract.sol\":3694:3858  for (uint i = 0; i < personalData.additionalInfos.length; i++) {... */\n      iszero\n      tag_93\n      jumpi\n        /* \"contracts/DataUsageSmartContract.sol\":3802:3812  dataToHash */\n      dup2\n        /* \"contracts/DataUsageSmartContract.sol\":3814:3826  personalData */\n      dup4\n        /* \"contracts/DataUsageSmartContract.sol\":3814:3842  personalData.additionalInfos */\n      0x04\n      add\n        /* \"contracts/DataUsageSmartContract.sol\":3843:3844  i */\n      dup3\n        /* \"contracts/DataUsageSmartContract.sol\":3814:3845  personalData.additionalInfos[i] */\n      dup2\n      sload\n      dup2\n      lt\n      tag_96\n      jumpi\n      tag_96\n      tag_97\n      jump\t// in\n    tag_96:\n      swap1\n      0x00\n      mstore\n      keccak256(0x00, 0x20)\n      add\n        /* \"contracts/DataUsageSmartContract.sol\":3785:3846  abi.encodePacked(dataToHash, personalData.additionalInfos[i]) */\n      add(0x20, mload(0x40))\n      tag_99\n      swap3\n      swap2\n      swap1\n      tag_100\n      jump\t// in\n    tag_99:\n      0x40\n      dup1\n      mload\n      not(0x1f)\n      dup2\n      dup5\n      sub\n      add\n      dup2\n      mstore\n      swap2\n      swap1\n      mstore\n      swap2\n      pop\n        /* \"contracts/DataUsageSmartContract.sol\":3752:3755  i++ */\n      0x01\n      add\n        /* \"contracts/DataUsageSmartContract.sol\":3694:3858  for (uint i = 0; i < personalData.additionalInfos.length; i++) {... */\n      jump(tag_92)\n    tag_93:\n      pop\n        /* \"contracts/DataUsageSmartContract.sol\":3957:3978  keccak256(dataToHash) */\n      dup1\n      mload\n      0x20\n      swap2\n      dup3\n      add\n      keccak256\n        /* \"contracts/DataUsageSmartContract.sol\":3925:3954  bytes32 processedPersonalData */\n      0x00\n        /* \"contracts/DataUsageSmartContract.sol\":4063:4102  processedPersonalDatas[_personalDataId] */\n      swap4\n      dup5\n      mstore\n        /* \"contracts/DataUsageSmartContract.sol\":4063:4085  processedPersonalDatas */\n      0x04\n        /* \"contracts/DataUsageSmartContract.sol\":4063:4102  processedPersonalDatas[_personalDataId] */\n      swap1\n      swap2\n      mstore\n      0x40\n      swap1\n      swap3\n      keccak256\n        /* \"contracts/DataUsageSmartContract.sol\":4063:4126  processedPersonalDatas[_personalDataId] = processedPersonalData */\n      swap2\n      swap1\n      swap2\n      sstore\n      pop\n        /* \"contracts/DataUsageSmartContract.sol\":2939:4137  function addProcessedPersonalData(uint _personalDataId) public onlyOwner {... */\n      jump\t// out\n        /* \"contracts/DataUsageSmartContract.sol\":4514:4884  function addActor(uint _actorId, address _actorAddress, string memory _actorName) public onlyOwner {... */\n    tag_42:\n        /* \"contracts/AccessControl.sol\":164:169  owner */\n      and(sub(shl(0xa0, 0x01), 0x01), sload(0x00))\n        /* \"contracts/AccessControl.sol\":150:160  msg.sender */\n      caller\n        /* \"contracts/AccessControl.sol\":150:169  msg.sender == owner */\n      eq\n        /* \"contracts/AccessControl.sol\":142:224  require(msg.sender == owner, \"Only the contract owner can perform this operation\") */\n      tag_104\n      jumpi\n      mload(0x40)\n      shl(0xe5, 0x461bcd)\n      dup2\n      mstore\n      0x04\n      add\n      tag_69\n      swap1\n      tag_70\n      jump\t// in\n    tag_104:\n        /* \"contracts/DataUsageSmartContract.sol\":4643:4771  Actor({... */\n      0x40\n      dup1\n      mload\n      0x60\n      dup2\n      add\n      dup3\n      mstore\n      dup5\n      dup2\n      mstore\n      sub(shl(0xa0, 0x01), 0x01)\n      dup5\n      dup2\n      and\n      0x20\n      dup1\n      dup5\n      add\n      swap2\n      dup3\n      mstore\n      dup4\n      dup6\n      add\n      dup7\n      dup2\n      mstore\n      0x00\n        /* \"contracts/DataUsageSmartContract.sol\":4624:4640  actors[_actorId] */\n      dup10\n      dup2\n      mstore\n        /* \"contracts/DataUsageSmartContract.sol\":4624:4630  actors */\n      0x02\n        /* \"contracts/DataUsageSmartContract.sol\":4624:4640  actors[_actorId] */\n      swap3\n      dup4\n      swap1\n      mstore\n      swap6\n      swap1\n      swap6\n      keccak256\n        /* \"contracts/DataUsageSmartContract.sol\":4624:4771  actors[_actorId] = Actor({... */\n      dup5\n      mload\n      dup2\n      sstore\n      swap2\n      mload\n      0x01\n      dup4\n      add\n      dup1\n      sload\n      not(sub(shl(0xa0, 0x01), 0x01))\n      and\n      swap2\n      swap1\n      swap5\n      and\n      or\n      swap1\n      swap3\n      sstore\n      swap3\n      mload\n        /* \"contracts/DataUsageSmartContract.sol\":4643:4771  Actor({... */\n      swap2\n      swap3\n        /* \"contracts/DataUsageSmartContract.sol\":4624:4640  actors[_actorId] */\n      swap2\n        /* \"contracts/DataUsageSmartContract.sol\":4624:4771  actors[_actorId] = Actor({... */\n      swap1\n      dup3\n      add\n      swap1\n      tag_107\n      swap1\n      dup3\n      tag_73\n      jump\t// in\n    tag_107:\n      pop\n      pop\n        /* \"contracts/DataUsageSmartContract.sol\":4853:4861  actorIds */\n      0x06\n        /* \"contracts/DataUsageSmartContract.sol\":4853:4876  actorIds.push(_actorId) */\n      dup1\n      sload\n      0x01\n      dup2\n      add\n      dup3\n      sstore\n      0x00\n      swap2\n      swap1\n      swap2\n      mstore\n      0xf652222313e28459528d920b65115c16c04f3efc82aaedc97be59f3f377c0d3f\n      add\n      swap4\n      swap1\n      swap4\n      sstore\n      pop\n      pop\n      pop\n        /* \"contracts/DataUsageSmartContract.sol\":4514:4884  function addActor(uint _actorId, address _actorAddress, string memory _actorName) public onlyOwner {... */\n      jump\t// out\n        /* \"contracts/DataUsageSmartContract.sol\":4145:4399  function getProcessedPersonalDataByKey(uint _personalDataId) public view returns (bytes32) {... */\n    tag_45:\n        /* \"contracts/DataUsageSmartContract.sol\":4227:4234  bytes32 */\n      0x00\n        /* \"contracts/DataUsageSmartContract.sol\":4273:4292  personalDataCounter */\n      sload(0x07)\n        /* \"contracts/DataUsageSmartContract.sol\":4255:4270  _personalDataId */\n      dup3\n        /* \"contracts/DataUsageSmartContract.sol\":4255:4292  _personalDataId < personalDataCounter */\n      lt\n        /* \"contracts/DataUsageSmartContract.sol\":4247:4334  require(_personalDataId < personalDataCounter, \"ProcessedPersonalData does not exist.\") */\n      tag_110\n      jumpi\n      mload(0x40)\n      shl(0xe5, 0x461bcd)\n      dup2\n      mstore\n        /* \"#utility.yul\":16567:16569   */\n      0x20\n        /* \"contracts/DataUsageSmartContract.sol\":4247:4334  require(_personalDataId < personalDataCounter, \"ProcessedPersonalData does not exist.\") */\n      0x04\n      dup3\n      add\n        /* \"#utility.yul\":16549:16570   */\n      mstore\n        /* \"#utility.yul\":16606:16608   */\n      0x25\n        /* \"#utility.yul\":16586:16604   */\n      0x24\n      dup3\n      add\n        /* \"#utility.yul\":16579:16609   */\n      mstore\n        /* \"#utility.yul\":16645:16679   */\n      0x50726f636573736564506572736f6e616c4461746120646f6573206e6f742065\n        /* \"#utility.yul\":16625:16643   */\n      0x44\n      dup3\n      add\n        /* \"#utility.yul\":16618:16680   */\n      mstore\n      shl(0xd9, 0x3c34b9ba17)\n        /* \"#utility.yul\":16696:16714   */\n      0x64\n      dup3\n      add\n        /* \"#utility.yul\":16689:16724   */\n      mstore\n        /* \"#utility.yul\":16741:16760   */\n      0x84\n      add\n        /* \"contracts/DataUsageSmartContract.sol\":4247:4334  require(_personalDataId < personalDataCounter, \"ProcessedPersonalData does not exist.\") */\n      tag_69\n        /* \"#utility.yul\":16365:16766   */\n      jump\n        /* \"contracts/DataUsageSmartContract.sol\":4247:4334  require(_personalDataId < personalDataCounter, \"ProcessedPersonalData does not exist.\") */\n    tag_110:\n      pop\n        /* \"contracts/DataUsageSmartContract.sol\":4352:4391  processedPersonalDatas[_personalDataId] */\n      0x00\n      swap1\n      dup2\n      mstore\n        /* \"contracts/DataUsageSmartContract.sol\":4352:4374  processedPersonalDatas */\n      0x04\n        /* \"contracts/DataUsageSmartContract.sol\":4352:4391  processedPersonalDatas[_personalDataId] */\n      0x20\n      mstore\n      0x40\n      swap1\n      keccak256\n      sload\n      swap1\n        /* \"contracts/DataUsageSmartContract.sol\":4145:4399  function getProcessedPersonalDataByKey(uint _personalDataId) public view returns (bytes32) {... */\n      jump\t// out\n        /* \"contracts/DataUsageSmartContract.sol\":4892:5113  function getActorByKey(uint _actorId) public view returns (Actor memory) {... */\n    tag_50:\n      0x40\n      dup1\n      mload\n      0x60\n      dup1\n      dup3\n      add\n      dup4\n      mstore\n      0x00\n      dup1\n      dup4\n      mstore\n      0x20\n      dup4\n      add\n      mstore\n      swap2\n      dup2\n      add\n      swap2\n      swap1\n      swap2\n      mstore\n        /* \"contracts/DataUsageSmartContract.sol\":4984:5000  actors[_actorId] */\n      0x00\n      dup3\n      dup2\n      mstore\n        /* \"contracts/DataUsageSmartContract.sol\":4984:4990  actors */\n      0x02\n        /* \"contracts/DataUsageSmartContract.sol\":4984:5000  actors[_actorId] */\n      0x20\n      mstore\n      0x40\n      dup2\n      keccak256\n        /* \"contracts/DataUsageSmartContract.sol\":4984:5008  actors[_actorId].actorId */\n      sload\n        /* \"contracts/DataUsageSmartContract.sol\":4984:5013  actors[_actorId].actorId != 0 */\n      swap1\n      sub\n        /* \"contracts/DataUsageSmartContract.sol\":4976:5039  require(actors[_actorId].actorId != 0, \"Actor does not exist.\") */\n      tag_116\n      jumpi\n      mload(0x40)\n      shl(0xe5, 0x461bcd)\n      dup2\n      mstore\n        /* \"#utility.yul\":16973:16975   */\n      0x20\n        /* \"contracts/DataUsageSmartContract.sol\":4976:5039  require(actors[_actorId].actorId != 0, \"Actor does not exist.\") */\n      0x04\n      dup3\n      add\n        /* \"#utility.yul\":16955:16976   */\n      mstore\n        /* \"#utility.yul\":17012:17014   */\n      0x15\n        /* \"#utility.yul\":16992:17010   */\n      0x24\n      dup3\n      add\n        /* \"#utility.yul\":16985:17015   */\n      mstore\n      shl(0x59, 0x20b1ba37b9103237b2b9903737ba1032bc34b9ba17)\n        /* \"#utility.yul\":17031:17049   */\n      0x44\n      dup3\n      add\n        /* \"#utility.yul\":17024:17075   */\n      mstore\n        /* \"#utility.yul\":17092:17110   */\n      0x64\n      add\n        /* \"contracts/DataUsageSmartContract.sol\":4976:5039  require(actors[_actorId].actorId != 0, \"Actor does not exist.\") */\n      tag_69\n        /* \"#utility.yul\":16771:17116   */\n      jump\n        /* \"contracts/DataUsageSmartContract.sol\":4976:5039  require(actors[_actorId].actorId != 0, \"Actor does not exist.\") */\n    tag_116:\n        /* \"contracts/DataUsageSmartContract.sol\":5089:5105  actors[_actorId] */\n      0x00\n      dup3\n      dup2\n      mstore\n        /* \"contracts/DataUsageSmartContract.sol\":5089:5095  actors */\n      0x02\n        /* \"contracts/DataUsageSmartContract.sol\":5089:5105  actors[_actorId] */\n      0x20\n      dup2\n      dup2\n      mstore\n      0x40\n      swap3\n      dup4\n      swap1\n      keccak256\n        /* \"contracts/DataUsageSmartContract.sol\":5082:5105  return actors[_actorId] */\n      dup4\n      mload\n      0x60\n      dup2\n      add\n      dup6\n      mstore\n      dup2\n      sload\n      dup2\n      mstore\n      0x01\n      dup3\n      add\n      sload\n      sub(shl(0xa0, 0x01), 0x01)\n      and\n      swap3\n      dup2\n      add\n      swap3\n      swap1\n      swap3\n      mstore\n      swap2\n      dup3\n      add\n      dup1\n      sload\n      swap2\n      swap4\n      dup5\n      add\n      swap2\n      tag_119\n      swap1\n      tag_120\n      jump\t// in\n    tag_119:\n      dup1\n      0x1f\n      add\n      0x20\n      dup1\n      swap2\n      div\n      mul\n      0x20\n      add\n      mload(0x40)\n      swap1\n      dup2\n      add\n      0x40\n      mstore\n      dup1\n      swap3\n      swap2\n      swap1\n      dup2\n      dup2\n      mstore\n      0x20\n      add\n      dup3\n      dup1\n      sload\n      tag_121\n      swap1\n      tag_120\n      jump\t// in\n    tag_121:\n      dup1\n      iszero\n      tag_122\n      jumpi\n      dup1\n      0x1f\n      lt\n      tag_123\n      jumpi\n      0x0100\n      dup1\n      dup4\n      sload\n      div\n      mul\n      dup4\n      mstore\n      swap2\n      0x20\n      add\n      swap2\n      jump(tag_122)\n    tag_123:\n      dup3\n      add\n      swap2\n      swap1\n      0x00\n      mstore\n      keccak256(0x00, 0x20)\n      swap1\n    tag_124:\n      dup2\n      sload\n      dup2\n      mstore\n      swap1\n      0x01\n      add\n      swap1\n      0x20\n      add\n      dup1\n      dup4\n      gt\n      tag_124\n      jumpi\n      dup3\n      swap1\n      sub\n      0x1f\n      and\n      dup3\n      add\n      swap2\n    tag_122:\n      pop\n      pop\n      pop\n      pop\n      pop\n      dup2\n      mstore\n      pop\n      pop\n      swap1\n      pop\n        /* \"contracts/DataUsageSmartContract.sol\":4892:5113  function getActorByKey(uint _actorId) public view returns (Actor memory) {... */\n      swap2\n      swap1\n      pop\n      jump\t// out\n        /* \"contracts/DataUsageSmartContract.sol\":5333:6491  function addDataUsage(... */\n    tag_56:\n        /* \"contracts/AccessControl.sol\":164:169  owner */\n      and(sub(shl(0xa0, 0x01), 0x01), sload(0x00))\n        /* \"contracts/AccessControl.sol\":150:160  msg.sender */\n      caller\n        /* \"contracts/AccessControl.sol\":150:169  msg.sender == owner */\n      eq\n        /* \"contracts/AccessControl.sol\":142:224  require(msg.sender == owner, \"Only the contract owner can perform this operation\") */\n      tag_126\n      jumpi\n      mload(0x40)\n      shl(0xe5, 0x461bcd)\n      dup2\n      mstore\n      0x04\n      add\n      tag_69\n      swap1\n      tag_70\n      jump\t// in\n    tag_126:\n        /* \"contracts/DataUsageSmartContract.sol\":5592:5608  dataUsageCounter */\n      0x05\n        /* \"contracts/DataUsageSmartContract.sol\":5592:5610  dataUsageCounter++ */\n      dup1\n      sload\n        /* \"contracts/DataUsageSmartContract.sol\":5570:5589  uint newDataUsageId */\n      0x00\n      swap2\n      dup3\n        /* \"contracts/DataUsageSmartContract.sol\":5592:5610  dataUsageCounter++ */\n      tag_129\n      dup4\n      tag_79\n      jump\t// in\n    tag_129:\n      swap2\n      swap1\n      pop\n      sstore\n        /* \"contracts/DataUsageSmartContract.sol\":5570:5610  uint newDataUsageId = dataUsageCounter++ */\n      swap1\n      pop\n        /* \"contracts/DataUsageSmartContract.sol\":5621:5652  bytes32[] memory processedDatas */\n      0x00\n        /* \"contracts/DataUsageSmartContract.sol\":5669:5685  _personalDataIds */\n      dup3\n        /* \"contracts/DataUsageSmartContract.sol\":5669:5692  _personalDataIds.length */\n      mload\n        /* \"contracts/DataUsageSmartContract.sol\":5655:5693  new bytes32[](_personalDataIds.length) */\n      0xffffffffffffffff\n      dup2\n      gt\n      iszero\n      tag_131\n      jumpi\n      tag_131\n      tag_132\n      jump\t// in\n    tag_131:\n      mload(0x40)\n      swap1\n      dup1\n      dup3\n      mstore\n      dup1\n      0x20\n      mul\n      0x20\n      add\n      dup3\n      add\n      0x40\n      mstore\n      dup1\n      iszero\n      tag_133\n      jumpi\n      dup2\n      0x20\n      add\n      0x20\n      dup3\n      mul\n      dup1\n      calldatasize\n      dup4\n      calldatacopy\n      add\n      swap1\n      pop\n    tag_133:\n      pop\n        /* \"contracts/DataUsageSmartContract.sol\":5621:5693  bytes32[] memory processedDatas = new bytes32[](_personalDataIds.length) */\n      swap1\n      pop\n        /* \"contracts/DataUsageSmartContract.sol\":5719:5725  uint i */\n      0x00\n        /* \"contracts/DataUsageSmartContract.sol\":5714:5959  for (uint i = 0; i < _personalDataIds.length; i++) {... */\n    tag_134:\n        /* \"contracts/DataUsageSmartContract.sol\":5735:5751  _personalDataIds */\n      dup4\n        /* \"contracts/DataUsageSmartContract.sol\":5735:5758  _personalDataIds.length */\n      mload\n        /* \"contracts/DataUsageSmartContract.sol\":5731:5732  i */\n      dup2\n        /* \"contracts/DataUsageSmartContract.sol\":5731:5758  i < _personalDataIds.length */\n      lt\n        /* \"contracts/DataUsageSmartContract.sol\":5714:5959  for (uint i = 0; i < _personalDataIds.length; i++) {... */\n      iszero\n      tag_135\n      jumpi\n        /* \"contracts/DataUsageSmartContract.sol\":5810:5829  personalDataCounter */\n      sload(0x07)\n        /* \"contracts/DataUsageSmartContract.sol\":5788:5804  _personalDataIds */\n      dup5\n        /* \"contracts/DataUsageSmartContract.sol\":5805:5806  i */\n      dup3\n        /* \"contracts/DataUsageSmartContract.sol\":5788:5807  _personalDataIds[i] */\n      dup2\n      mload\n      dup2\n      lt\n      tag_138\n      jumpi\n      tag_138\n      tag_97\n      jump\t// in\n    tag_138:\n      0x20\n      mul\n      0x20\n      add\n      add\n      mload\n        /* \"contracts/DataUsageSmartContract.sol\":5788:5829  _personalDataIds[i] < personalDataCounter */\n      lt\n        /* \"contracts/DataUsageSmartContract.sol\":5780:5862  require(_personalDataIds[i] < personalDataCounter, \"PersonalData does not exist.\") */\n      tag_139\n      jumpi\n      mload(0x40)\n      shl(0xe5, 0x461bcd)\n      dup2\n      mstore\n      0x04\n      add\n      tag_69\n      swap1\n      tag_89\n      jump\t// in\n    tag_139:\n        /* \"contracts/DataUsageSmartContract.sol\":5897:5947  getProcessedPersonalDataByKey(_personalDataIds[i]) */\n      tag_141\n        /* \"contracts/DataUsageSmartContract.sol\":5927:5943  _personalDataIds */\n      dup5\n        /* \"contracts/DataUsageSmartContract.sol\":5944:5945  i */\n      dup3\n        /* \"contracts/DataUsageSmartContract.sol\":5927:5946  _personalDataIds[i] */\n      dup2\n      mload\n      dup2\n      lt\n      tag_143\n      jumpi\n      tag_143\n      tag_97\n      jump\t// in\n    tag_143:\n      0x20\n      mul\n      0x20\n      add\n      add\n      mload\n        /* \"contracts/DataUsageSmartContract.sol\":5897:5926  getProcessedPersonalDataByKey */\n      tag_45\n        /* \"contracts/DataUsageSmartContract.sol\":5897:5947  getProcessedPersonalDataByKey(_personalDataIds[i]) */\n      jump\t// in\n    tag_141:\n        /* \"contracts/DataUsageSmartContract.sol\":5877:5891  processedDatas */\n      dup3\n        /* \"contracts/DataUsageSmartContract.sol\":5892:5893  i */\n      dup3\n        /* \"contracts/DataUsageSmartContract.sol\":5877:5894  processedDatas[i] */\n      dup2\n      mload\n      dup2\n      lt\n      tag_145\n      jumpi\n      tag_145\n      tag_97\n      jump\t// in\n    tag_145:\n      0x20\n      swap1\n      dup2\n      mul\n      swap2\n      swap1\n      swap2\n      add\n      add\n        /* \"contracts/DataUsageSmartContract.sol\":5877:5947  processedDatas[i] = getProcessedPersonalDataByKey(_personalDataIds[i]) */\n      mstore\n        /* \"contracts/DataUsageSmartContract.sol\":5760:5763  i++ */\n      0x01\n      add\n        /* \"contracts/DataUsageSmartContract.sol\":5714:5959  for (uint i = 0; i < _personalDataIds.length; i++) {... */\n      jump(tag_134)\n    tag_135:\n      pop\n        /* \"contracts/DataUsageSmartContract.sol\":6075:6354  DataUsage({... */\n      0x40\n      dup1\n      mload\n      0xc0\n      dup2\n      add\n      dup3\n      mstore\n      dup9\n      dup2\n      mstore\n      0x20\n      dup1\n      dup3\n      add\n      dup10\n      swap1\n      mstore\n      dup2\n      dup4\n      add\n      dup9\n      swap1\n      mstore\n      0x60\n      dup3\n      add\n      dup8\n      swap1\n      mstore\n      0x80\n      dup3\n      add\n      dup7\n      swap1\n      mstore\n      0xa0\n      dup3\n      add\n      dup5\n      swap1\n      mstore\n      0x00\n        /* \"contracts/DataUsageSmartContract.sol\":6046:6072  dataUsages[newDataUsageId] */\n      dup6\n      dup2\n      mstore\n        /* \"contracts/DataUsageSmartContract.sol\":6046:6056  dataUsages */\n      0x01\n        /* \"contracts/DataUsageSmartContract.sol\":6046:6072  dataUsages[newDataUsageId] */\n      swap1\n      swap2\n      mstore\n      swap2\n      swap1\n      swap2\n      keccak256\n        /* \"contracts/DataUsageSmartContract.sol\":6046:6354  dataUsages[newDataUsageId] = DataUsage({... */\n      dup2\n      mload\n        /* \"contracts/DataUsageSmartContract.sol\":6046:6072  dataUsages[newDataUsageId] */\n      dup2\n      swap1\n        /* \"contracts/DataUsageSmartContract.sol\":6046:6354  dataUsages[newDataUsageId] = DataUsage({... */\n      tag_146\n      swap1\n        /* \"contracts/DataUsageSmartContract.sol\":6046:6072  dataUsages[newDataUsageId] */\n      dup3\n        /* \"contracts/DataUsageSmartContract.sol\":6046:6354  dataUsages[newDataUsageId] = DataUsage({... */\n      tag_73\n      jump\t// in\n    tag_146:\n      pop\n      0x20\n      dup3\n      add\n      mload\n      0x01\n      dup3\n      add\n      swap1\n      tag_147\n      swap1\n      dup3\n      tag_73\n      jump\t// in\n    tag_147:\n      pop\n      0x40\n      dup3\n      add\n      mload\n      0x02\n      dup3\n      add\n      sstore\n      0x60\n      dup3\n      add\n      mload\n      dup1\n      mload\n      tag_148\n      swap2\n      0x03\n      dup5\n      add\n      swap2\n      0x20\n      swap1\n      swap2\n      add\n      swap1\n      tag_77\n      jump\t// in\n    tag_148:\n      pop\n      0x80\n      dup3\n      add\n      mload\n      dup1\n      mload\n      tag_149\n      swap2\n      0x04\n      dup5\n      add\n      swap2\n      0x20\n      swap1\n      swap2\n      add\n      swap1\n      tag_150\n      jump\t// in\n    tag_149:\n      pop\n      0xa0\n      dup3\n      add\n      mload\n      dup1\n      mload\n      tag_151\n      swap2\n      0x05\n      dup5\n      add\n      swap2\n      0x20\n      swap1\n      swap2\n      add\n      swap1\n      tag_150\n      jump\t// in\n    tag_151:\n      pop\n      pop\n        /* \"contracts/DataUsageSmartContract.sol\":6417:6433  dataUsageCounter */\n      0x05\n        /* \"contracts/DataUsageSmartContract.sol\":6417:6435  dataUsageCounter++ */\n      dup1\n      sload\n      swap2\n      pop\n        /* \"contracts/DataUsageSmartContract.sol\":6417:6433  dataUsageCounter */\n      0x00\n        /* \"contracts/DataUsageSmartContract.sol\":6417:6435  dataUsageCounter++ */\n      tag_153\n      dup4\n      tag_79\n      jump\t// in\n    tag_153:\n      swap1\n      swap2\n      sstore\n      pop\n      pop\n        /* \"contracts/DataUsageSmartContract.sol\":6453:6483  DataUsageAdded(newDataUsageId) */\n      mload(0x40)\n        /* \"#utility.yul\":3992:4017   */\n      dup3\n      dup2\n      mstore\n        /* \"contracts/DataUsageSmartContract.sol\":6453:6483  DataUsageAdded(newDataUsageId) */\n      0x7a3ca1959c02ca697e03705bf9d6d67c3acc38961b57c23a5f95fb0ef1c0ca00\n      swap1\n        /* \"#utility.yul\":3980:3982   */\n      0x20\n        /* \"#utility.yul\":3965:3983   */\n      add\n        /* \"contracts/DataUsageSmartContract.sol\":6453:6483  DataUsageAdded(newDataUsageId) */\n      mload(0x40)\n      dup1\n      swap2\n      sub\n      swap1\n      log1\n        /* \"contracts/DataUsageSmartContract.sol\":5559:6491  {... */\n      pop\n      pop\n        /* \"contracts/DataUsageSmartContract.sol\":5333:6491  function addDataUsage(... */\n      pop\n      pop\n      pop\n      pop\n      pop\n      jump\t// out\n        /* \"contracts/DataUsageSmartContract.sol\":6501:6716  function getDataUsageByKey(uint _dataUsageId) public view returns (DataUsage memory) {... */\n    tag_59:\n        /* \"contracts/DataUsageSmartContract.sol\":6568:6584  DataUsage memory */\n      tag_155\n      mload(0x40)\n      dup1\n      0xc0\n      add\n      0x40\n      mstore\n      dup1\n      0x60\n      dup2\n      mstore\n      0x20\n      add\n      0x60\n      dup2\n      mstore\n      0x20\n      add\n      0x00\n      dup2\n      mstore\n      0x20\n      add\n      0x60\n      dup2\n      mstore\n      0x20\n      add\n      0x60\n      dup2\n      mstore\n      0x20\n      add\n      0x60\n      dup2\n      mstore\n      pop\n      swap1\n      jump\n    tag_155:\n        /* \"contracts/DataUsageSmartContract.sol\":6620:6636  dataUsageCounter */\n      sload(0x05)\n        /* \"contracts/DataUsageSmartContract.sol\":6605:6617  _dataUsageId */\n      dup3\n        /* \"contracts/DataUsageSmartContract.sol\":6605:6636  _dataUsageId < dataUsageCounter */\n      lt\n        /* \"contracts/DataUsageSmartContract.sol\":6597:6666  require(_dataUsageId < dataUsageCounter, \"DataUsage does not exist.\") */\n      tag_158\n      jumpi\n      mload(0x40)\n      shl(0xe5, 0x461bcd)\n      dup2\n      mstore\n        /* \"#utility.yul\":17323:17325   */\n      0x20\n        /* \"contracts/DataUsageSmartContract.sol\":6597:6666  require(_dataUsageId < dataUsageCounter, \"DataUsage does not exist.\") */\n      0x04\n      dup3\n      add\n        /* \"#utility.yul\":17305:17326   */\n      mstore\n        /* \"#utility.yul\":17362:17364   */\n      0x19\n        /* \"#utility.yul\":17342:17360   */\n      0x24\n      dup3\n      add\n        /* \"#utility.yul\":17335:17365   */\n      mstore\n        /* \"#utility.yul\":17401:17428   */\n      0x44617461557361676520646f6573206e6f742065786973742e00000000000000\n        /* \"#utility.yul\":17381:17399   */\n      0x44\n      dup3\n      add\n        /* \"#utility.yul\":17374:17429   */\n      mstore\n        /* \"#utility.yul\":17446:17464   */\n      0x64\n      add\n        /* \"contracts/DataUsageSmartContract.sol\":6597:6666  require(_dataUsageId < dataUsageCounter, \"DataUsage does not exist.\") */\n      tag_69\n        /* \"#utility.yul\":17121:17470   */\n      jump\n        /* \"contracts/DataUsageSmartContract.sol\":6597:6666  require(_dataUsageId < dataUsageCounter, \"DataUsage does not exist.\") */\n    tag_158:\n        /* \"contracts/DataUsageSmartContract.sol\":6684:6708  dataUsages[_dataUsageId] */\n      0x00\n      dup3\n      dup2\n      mstore\n        /* \"contracts/DataUsageSmartContract.sol\":6684:6694  dataUsages */\n      0x01\n        /* \"contracts/DataUsageSmartContract.sol\":6684:6708  dataUsages[_dataUsageId] */\n      0x20\n      mstore\n      0x40\n      swap1\n      dup2\n      swap1\n      keccak256\n        /* \"contracts/DataUsageSmartContract.sol\":6677:6708  return dataUsages[_dataUsageId] */\n      dup2\n      mload\n      0xc0\n      dup2\n      add\n      swap1\n      swap3\n      mstore\n      dup1\n      sload\n      dup3\n      swap1\n        /* \"contracts/DataUsageSmartContract.sol\":6684:6708  dataUsages[_dataUsageId] */\n      dup3\n      swap1\n        /* \"contracts/DataUsageSmartContract.sol\":6677:6708  return dataUsages[_dataUsageId] */\n      tag_161\n      swap1\n      tag_120\n      jump\t// in\n    tag_161:\n      dup1\n      0x1f\n      add\n      0x20\n      dup1\n      swap2\n      div\n      mul\n      0x20\n      add\n      mload(0x40)\n      swap1\n      dup2\n      add\n      0x40\n      mstore\n      dup1\n      swap3\n      swap2\n      swap1\n      dup2\n      dup2\n      mstore\n      0x20\n      add\n      dup3\n      dup1\n      sload\n      tag_162\n      swap1\n      tag_120\n      jump\t// in\n    tag_162:\n      dup1\n      iszero\n      tag_163\n      jumpi\n      dup1\n      0x1f\n      lt\n      tag_164\n      jumpi\n      0x0100\n      dup1\n      dup4\n      sload\n      div\n      mul\n      dup4\n      mstore\n      swap2\n      0x20\n      add\n      swap2\n      jump(tag_163)\n    tag_164:\n      dup3\n      add\n      swap2\n      swap1\n      0x00\n      mstore\n      keccak256(0x00, 0x20)\n      swap1\n    tag_165:\n      dup2\n      sload\n      dup2\n      mstore\n      swap1\n      0x01\n      add\n      swap1\n      0x20\n      add\n      dup1\n      dup4\n      gt\n      tag_165\n      jumpi\n      dup3\n      swap1\n      sub\n      0x1f\n      and\n      dup3\n      add\n      swap2\n    tag_163:\n      pop\n      pop\n      pop\n      pop\n      pop\n      dup2\n      mstore\n      0x20\n      add\n      0x01\n      dup3\n      add\n      dup1\n      sload\n      tag_166\n      swap1\n      tag_120\n      jump\t// in\n    tag_166:\n      dup1\n      0x1f\n      add\n      0x20\n      dup1\n      swap2\n      div\n      mul\n      0x20\n      add\n      mload(0x40)\n      swap1\n      dup2\n      add\n      0x40\n      mstore\n      dup1\n      swap3\n      swap2\n      swap1\n      dup2\n      dup2\n      mstore\n      0x20\n      add\n      dup3\n      dup1\n      sload\n      tag_167\n      swap1\n      tag_120\n      jump\t// in\n    tag_167:\n      dup1\n      iszero\n      tag_168\n      jumpi\n      dup1\n      0x1f\n      lt\n      tag_169\n      jumpi\n      0x0100\n      dup1\n      dup4\n      sload\n      div\n      mul\n      dup4\n      mstore\n      swap2\n      0x20\n      add\n      swap2\n      jump(tag_168)\n    tag_169:\n      dup3\n      add\n      swap2\n      swap1\n      0x00\n      mstore\n      keccak256(0x00, 0x20)\n      swap1\n    tag_170:\n      dup2\n      sload\n      dup2\n      mstore\n      swap1\n      0x01\n      add\n      swap1\n      0x20\n      add\n      dup1\n      dup4\n      gt\n      tag_170\n      jumpi\n      dup3\n      swap1\n      sub\n      0x1f\n      and\n      dup3\n      add\n      swap2\n    tag_168:\n      pop\n      pop\n      pop\n      pop\n      pop\n      dup2\n      mstore\n      0x20\n      add\n      0x02\n      dup3\n      add\n      sload\n      dup2\n      mstore\n      0x20\n      add\n      0x03\n      dup3\n      add\n      dup1\n      sload\n      dup1\n      0x20\n      mul\n      0x20\n      add\n      mload(0x40)\n      swap1\n      dup2\n      add\n      0x40\n      mstore\n      dup1\n      swap3\n      swap2\n      swap1\n      dup2\n      dup2\n      mstore\n      0x20\n      add\n      0x00\n      swap1\n    tag_171:\n      dup3\n      dup3\n      lt\n      iszero\n      tag_172\n      jumpi\n      dup4\n      dup3\n      swap1\n      0x00\n      mstore\n      keccak256(0x00, 0x20)\n      add\n      dup1\n      sload\n      tag_174\n      swap1\n      tag_120\n      jump\t// in\n    tag_174:\n      dup1\n      0x1f\n      add\n      0x20\n      dup1\n      swap2\n      div\n      mul\n      0x20\n      add\n      mload(0x40)\n      swap1\n      dup2\n      add\n      0x40\n      mstore\n      dup1\n      swap3\n      swap2\n      swap1\n      dup2\n      dup2\n      mstore\n      0x20\n      add\n      dup3\n      dup1\n      sload\n      tag_175\n      swap1\n      tag_120\n      jump\t// in\n    tag_175:\n      dup1\n      iszero\n      tag_176\n      jumpi\n      dup1\n      0x1f\n      lt\n      tag_177\n      jumpi\n      0x0100\n      dup1\n      dup4\n      sload\n      div\n      mul\n      dup4\n      mstore\n      swap2\n      0x20\n      add\n      swap2\n      jump(tag_176)\n    tag_177:\n      dup3\n      add\n      swap2\n      swap1\n      0x00\n      mstore\n      keccak256(0x00, 0x20)\n      swap1\n    tag_178:\n      dup2\n      sload\n      dup2\n      mstore\n      swap1\n      0x01\n      add\n      swap1\n      0x20\n      add\n      dup1\n      dup4\n      gt\n      tag_178\n      jumpi\n      dup3\n      swap1\n      sub\n      0x1f\n      and\n      dup3\n      add\n      swap2\n    tag_176:\n      pop\n      pop\n      pop\n      pop\n      pop\n      dup2\n      mstore\n      0x20\n      add\n      swap1\n      0x01\n      add\n      swap1\n      jump(tag_171)\n    tag_172:\n      pop\n      pop\n      pop\n      pop\n      dup2\n      mstore\n      0x20\n      add\n      0x04\n      dup3\n      add\n      dup1\n      sload\n      dup1\n      0x20\n      mul\n      0x20\n      add\n      mload(0x40)\n      swap1\n      dup2\n      add\n      0x40\n      mstore\n      dup1\n      swap3\n      swap2\n      swap1\n      dup2\n      dup2\n      mstore\n      0x20\n      add\n      dup3\n      dup1\n      sload\n      dup1\n      iszero\n      tag_179\n      jumpi\n      0x20\n      mul\n      dup3\n      add\n      swap2\n      swap1\n      0x00\n      mstore\n      keccak256(0x00, 0x20)\n      swap1\n    tag_180:\n      dup2\n      sload\n      dup2\n      mstore\n      0x20\n      add\n      swap1\n      0x01\n      add\n      swap1\n      dup1\n      dup4\n      gt\n      tag_180\n      jumpi\n    tag_179:\n      pop\n      pop\n      pop\n      pop\n      pop\n      dup2\n      mstore\n      0x20\n      add\n      0x05\n      dup3\n      add\n      dup1\n      sload\n      dup1\n      0x20\n      mul\n      0x20\n      add\n      mload(0x40)\n      swap1\n      dup2\n      add\n      0x40\n      mstore\n      dup1\n      swap3\n      swap2\n      swap1\n      dup2\n      dup2\n      mstore\n      0x20\n      add\n      dup3\n      dup1\n      sload\n      dup1\n      iszero\n      tag_122\n      jumpi\n      0x20\n      mul\n      dup3\n      add\n      swap2\n      swap1\n      0x00\n      mstore\n      keccak256(0x00, 0x20)\n      swap1\n    tag_182:\n      dup2\n      sload\n      dup2\n      mstore\n      0x20\n      add\n      swap1\n      0x01\n      add\n      swap1\n      dup1\n      dup4\n      gt\n      tag_182\n      jumpi\n      pop\n      pop\n      pop\n      pop\n      pop\n      dup2\n      mstore\n      pop\n      pop\n      swap1\n      pop\n        /* \"contracts/DataUsageSmartContract.sol\":6501:6716  function getDataUsageByKey(uint _dataUsageId) public view returns (DataUsage memory) {... */\n      swap2\n      swap1\n      pop\n      jump\t// out\n        /* \"contracts/DataUsageSmartContract.sol\":2450:2694  function getPersonalDataByKey(uint _personalDataId) public onlyOwner returns (PersonalData memory) {... */\n    tag_64:\n        /* \"contracts/DataUsageSmartContract.sol\":2528:2547  PersonalData memory */\n      tag_183\n      mload(0x40)\n      dup1\n      0xa0\n      add\n      0x40\n      mstore\n      dup1\n      0x00\n      dup2\n      mstore\n      0x20\n      add\n      0x60\n      dup2\n      mstore\n      0x20\n      add\n      0x60\n      dup2\n      mstore\n      0x20\n      add\n      0x60\n      dup2\n      mstore\n      0x20\n      add\n      0x60\n      dup2\n      mstore\n      pop\n      swap1\n      jump\n    tag_183:\n        /* \"contracts/AccessControl.sol\":164:169  owner */\n      and(sub(shl(0xa0, 0x01), 0x01), sload(0x00))\n        /* \"contracts/AccessControl.sol\":150:160  msg.sender */\n      caller\n        /* \"contracts/AccessControl.sol\":150:169  msg.sender == owner */\n      eq\n        /* \"contracts/AccessControl.sol\":142:224  require(msg.sender == owner, \"Only the contract owner can perform this operation\") */\n      tag_186\n      jumpi\n      mload(0x40)\n      shl(0xe5, 0x461bcd)\n      dup2\n      mstore\n      0x04\n      add\n      tag_69\n      swap1\n      tag_70\n      jump\t// in\n    tag_186:\n        /* \"contracts/DataUsageSmartContract.sol\":2586:2605  personalDataCounter */\n      sload(0x07)\n        /* \"contracts/DataUsageSmartContract.sol\":2568:2583  _personalDataId */\n      dup3\n        /* \"contracts/DataUsageSmartContract.sol\":2568:2605  _personalDataId < personalDataCounter */\n      lt\n        /* \"contracts/DataUsageSmartContract.sol\":2560:2638  require(_personalDataId < personalDataCounter, \"PersonalData does not exist.\") */\n      tag_189\n      jumpi\n      mload(0x40)\n      shl(0xe5, 0x461bcd)\n      dup2\n      mstore\n      0x04\n      add\n      tag_69\n      swap1\n      tag_89\n      jump\t// in\n    tag_189:\n        /* \"contracts/DataUsageSmartContract.sol\":2656:2669  personalDatas */\n      0x03\n        /* \"contracts/DataUsageSmartContract.sol\":2656:2686  personalDatas[_personalDataId] */\n      0x00\n        /* \"contracts/DataUsageSmartContract.sol\":2670:2685  _personalDataId */\n      dup4\n        /* \"contracts/DataUsageSmartContract.sol\":2656:2686  personalDatas[_personalDataId] */\n      dup2\n      mstore\n      0x20\n      add\n      swap1\n      dup2\n      mstore\n      0x20\n      add\n      0x00\n      keccak256\n        /* \"contracts/DataUsageSmartContract.sol\":2649:2686  return personalDatas[_personalDataId] */\n      mload(0x40)\n      dup1\n      0xa0\n      add\n      0x40\n      mstore\n      swap1\n      dup2\n      0x00\n      dup3\n      add\n      sload\n      dup2\n      mstore\n      0x20\n      add\n      0x01\n      dup3\n      add\n      dup1\n      sload\n      tag_191\n      swap1\n      tag_120\n      jump\t// in\n    tag_191:\n      dup1\n      0x1f\n      add\n      0x20\n      dup1\n      swap2\n      div\n      mul\n      0x20\n      add\n      mload(0x40)\n      swap1\n      dup2\n      add\n      0x40\n      mstore\n      dup1\n      swap3\n      swap2\n      swap1\n      dup2\n      dup2\n      mstore\n      0x20\n      add\n      dup3\n      dup1\n      sload\n      tag_192\n      swap1\n      tag_120\n      jump\t// in\n    tag_192:\n      dup1\n      iszero\n      tag_193\n      jumpi\n      dup1\n      0x1f\n      lt\n      tag_194\n      jumpi\n      0x0100\n      dup1\n      dup4\n      sload\n      div\n      mul\n      dup4\n      mstore\n      swap2\n      0x20\n      add\n      swap2\n      jump(tag_193)\n    tag_194:\n      dup3\n      add\n      swap2\n      swap1\n      0x00\n      mstore\n      keccak256(0x00, 0x20)\n      swap1\n    tag_195:\n      dup2\n      sload\n      dup2\n      mstore\n      swap1\n      0x01\n      add\n      swap1\n      0x20\n      add\n      dup1\n      dup4\n      gt\n      tag_195\n      jumpi\n      dup3\n      swap1\n      sub\n      0x1f\n      and\n      dup3\n      add\n      swap2\n    tag_193:\n      pop\n      pop\n      pop\n      pop\n      pop\n      dup2\n      mstore\n      0x20\n      add\n      0x02\n      dup3\n      add\n      dup1\n      sload\n      tag_196\n      swap1\n      tag_120\n      jump\t// in\n    tag_196:\n      dup1\n      0x1f\n      add\n      0x20\n      dup1\n      swap2\n      div\n      mul\n      0x20\n      add\n      mload(0x40)\n      swap1\n      dup2\n      add\n      0x40\n      mstore\n      dup1\n      swap3\n      swap2\n      swap1\n      dup2\n      dup2\n      mstore\n      0x20\n      add\n      dup3\n      dup1\n      sload\n      tag_197\n      swap1\n      tag_120\n      jump\t// in\n    tag_197:\n      dup1\n      iszero\n      tag_198\n      jumpi\n      dup1\n      0x1f\n      lt\n      tag_199\n      jumpi\n      0x0100\n      dup1\n      dup4\n      sload\n      div\n      mul\n      dup4\n      mstore\n      swap2\n      0x20\n      add\n      swap2\n      jump(tag_198)\n    tag_199:\n      dup3\n      add\n      swap2\n      swap1\n      0x00\n      mstore\n      keccak256(0x00, 0x20)\n      swap1\n    tag_200:\n      dup2\n      sload\n      dup2\n      mstore\n      swap1\n      0x01\n      add\n      swap1\n      0x20\n      add\n      dup1\n      dup4\n      gt\n      tag_200\n      jumpi\n      dup3\n      swap1\n      sub\n      0x1f\n      and\n      dup3\n      add\n      swap2\n    tag_198:\n      pop\n      pop\n      pop\n      pop\n      pop\n      dup2\n      mstore\n      0x20\n      add\n      0x03\n      dup3\n      add\n      dup1\n      sload\n      tag_201\n      swap1\n      tag_120\n      jump\t// in\n    tag_201:\n      dup1\n      0x1f\n      add\n      0x20\n      dup1\n      swap2\n      div\n      mul\n      0x20\n      add\n      mload(0x40)\n      swap1\n      dup2\n      add\n      0x40\n      mstore\n      dup1\n      swap3\n      swap2\n      swap1\n      dup2\n      dup2\n      mstore\n      0x20\n      add\n      dup3\n      dup1\n      sload\n      tag_202\n      swap1\n      tag_120\n      jump\t// in\n    tag_202:\n      dup1\n      iszero\n      tag_203\n      jumpi\n      dup1\n      0x1f\n      lt\n      tag_204\n      jumpi\n      0x0100\n      dup1\n      dup4\n      sload\n      div\n      mul\n      dup4\n      mstore\n      swap2\n      0x20\n      add\n      swap2\n      jump(tag_203)\n    tag_204:\n      dup3\n      add\n      swap2\n      swap1\n      0x00\n      mstore\n      keccak256(0x00, 0x20)\n      swap1\n    tag_205:\n      dup2\n      sload\n      dup2\n      mstore\n      swap1\n      0x01\n      add\n      swap1\n      0x20\n      add\n      dup1\n      dup4\n      gt\n      tag_205\n      jumpi\n      dup3\n      swap1\n      sub\n      0x1f\n      and\n      dup3\n      add\n      swap2\n    tag_203:\n      pop\n      pop\n      pop\n      pop\n      pop\n      dup2\n      mstore\n      0x20\n      add\n      0x04\n      dup3\n      add\n      dup1\n      sload\n      dup1\n      0x20\n      mul\n      0x20\n      add\n      mload(0x40)\n      swap1\n      dup2\n      add\n      0x40\n      mstore\n      dup1\n      swap3\n      swap2\n      swap1\n      dup2\n      dup2\n      mstore\n      0x20\n      add\n      0x00\n      swap1\n    tag_206:\n      dup3\n      dup3\n      lt\n      iszero\n      tag_207\n      jumpi\n      dup4\n      dup3\n      swap1\n      0x00\n      mstore\n      keccak256(0x00, 0x20)\n      add\n      dup1\n      sload\n      tag_209\n      swap1\n      tag_120\n      jump\t// in\n    tag_209:\n      dup1\n      0x1f\n      add\n      0x20\n      dup1\n      swap2\n      div\n      mul\n      0x20\n      add\n      mload(0x40)\n      swap1\n      dup2\n      add\n      0x40\n      mstore\n      dup1\n      swap3\n      swap2\n      swap1\n      dup2\n      dup2\n      mstore\n      0x20\n      add\n      dup3\n      dup1\n      sload\n      tag_210\n      swap1\n      tag_120\n      jump\t// in\n    tag_210:\n      dup1\n      iszero\n      tag_211\n      jumpi\n      dup1\n      0x1f\n      lt\n      tag_212\n      jumpi\n      0x0100\n      dup1\n      dup4\n      sload\n      div\n      mul\n      dup4\n      mstore\n      swap2\n      0x20\n      add\n      swap2\n      jump(tag_211)\n    tag_212:\n      dup3\n      add\n      swap2\n      swap1\n      0x00\n      mstore\n      keccak256(0x00, 0x20)\n      swap1\n    tag_213:\n      dup2\n      sload\n      dup2\n      mstore\n      swap1\n      0x01\n      add\n      swap1\n      0x20\n      add\n      dup1\n      dup4\n      gt\n      tag_213\n      jumpi\n      dup3\n      swap1\n      sub\n      0x1f\n      and\n      dup3\n      add\n      swap2\n    tag_211:\n      pop\n      pop\n      pop\n      pop\n      pop\n      dup2\n      mstore\n      0x20\n      add\n      swap1\n      0x01\n      add\n      swap1\n      jump(tag_206)\n    tag_207:\n      pop\n      pop\n      pop\n      swap2\n      mstore\n      pop\n      swap1\n      swap4\n        /* \"contracts/DataUsageSmartContract.sol\":2450:2694  function getPersonalDataByKey(uint _personalDataId) public onlyOwner returns (PersonalData memory) {... */\n      swap3\n      pop\n      pop\n      pop\n      jump\t// out\n    tag_77:\n      dup3\n      dup1\n      sload\n      dup3\n      dup3\n      sstore\n      swap1\n      0x00\n      mstore\n      keccak256(0x00, 0x20)\n      swap1\n      dup2\n      add\n      swap3\n      dup3\n      iszero\n      tag_216\n      jumpi\n      swap2\n      0x20\n      mul\n      dup3\n      add\n    tag_215:\n      dup3\n      dup2\n      gt\n      iszero\n      tag_216\n      jumpi\n      dup3\n      mload\n      dup3\n      swap1\n      tag_217\n      swap1\n      dup3\n      tag_73\n      jump\t// in\n    tag_217:\n      pop\n      swap2\n      0x20\n      add\n      swap2\n      swap1\n      0x01\n      add\n      swap1\n      jump(tag_215)\n    tag_216:\n      pop\n      tag_218\n      swap3\n      swap2\n      pop\n      tag_219\n      jump\t// in\n    tag_218:\n      pop\n      swap1\n      jump\t// out\n    tag_150:\n      dup3\n      dup1\n      sload\n      dup3\n      dup3\n      sstore\n      swap1\n      0x00\n      mstore\n      keccak256(0x00, 0x20)\n      swap1\n      dup2\n      add\n      swap3\n      dup3\n      iszero\n      tag_222\n      jumpi\n      swap2\n      0x20\n      mul\n      dup3\n      add\n    tag_221:\n      dup3\n      dup2\n      gt\n      iszero\n      tag_222\n      jumpi\n      dup3\n      mload\n      dup3\n      sstore\n      swap2\n      0x20\n      add\n      swap2\n      swap1\n      0x01\n      add\n      swap1\n      jump(tag_221)\n    tag_222:\n      pop\n      tag_218\n      swap3\n      swap2\n      pop\n      tag_224\n      jump\t// in\n    tag_219:\n      dup1\n      dup3\n      gt\n      iszero\n      tag_218\n      jumpi\n      0x00\n      tag_232\n      dup3\n      dup3\n      tag_233\n      jump\t// in\n    tag_232:\n      pop\n      0x01\n      add\n      jump(tag_219)\n    tag_224:\n    tag_234:\n      dup1\n      dup3\n      gt\n      iszero\n      tag_218\n      jumpi\n      0x00\n      dup2\n      sstore\n      0x01\n      add\n      jump(tag_234)\n    tag_233:\n      pop\n      dup1\n      sload\n      tag_238\n      swap1\n      tag_120\n      jump\t// in\n    tag_238:\n      0x00\n      dup3\n      sstore\n      dup1\n      0x1f\n      lt\n      tag_240\n      jumpi\n      pop\n      pop\n      jump\t// out\n    tag_240:\n      0x1f\n      add\n      0x20\n      swap1\n      div\n      swap1\n      0x00\n      mstore\n      keccak256(0x00, 0x20)\n      swap1\n      dup2\n      add\n      swap1\n      tag_241\n      swap2\n      swap1\n      tag_224\n      jump\t// in\n    tag_241:\n      pop\n      jump\t// out\n        /* \"#utility.yul\":14:141   */\n    tag_132:\n        /* \"#utility.yul\":75:85   */\n      0x4e487b71\n        /* \"#utility.yul\":70:73   */\n      0xe0\n        /* \"#utility.yul\":66:86   */\n      shl\n        /* \"#utility.yul\":63:64   */\n      0x00\n        /* \"#utility.yul\":56:87   */\n      mstore\n        /* \"#utility.yul\":106:110   */\n      0x41\n        /* \"#utility.yul\":103:104   */\n      0x04\n        /* \"#utility.yul\":96:111   */\n      mstore\n        /* \"#utility.yul\":130:134   */\n      0x24\n        /* \"#utility.yul\":127:128   */\n      0x00\n        /* \"#utility.yul\":120:135   */\n      revert\n        /* \"#utility.yul\":146:421   */\n    tag_242:\n        /* \"#utility.yul\":217:219   */\n      0x40\n        /* \"#utility.yul\":211:220   */\n      mload\n        /* \"#utility.yul\":282:284   */\n      0x1f\n        /* \"#utility.yul\":263:276   */\n      dup3\n      add\n      not(0x1f)\n        /* \"#utility.yul\":259:286   */\n      and\n        /* \"#utility.yul\":247:287   */\n      dup2\n      add\n        /* \"#utility.yul\":317:335   */\n      0xffffffffffffffff\n        /* \"#utility.yul\":302:336   */\n      dup2\n      gt\n        /* \"#utility.yul\":338:360   */\n      dup3\n      dup3\n      lt\n        /* \"#utility.yul\":299:361   */\n      or\n        /* \"#utility.yul\":296:384   */\n      iszero\n      tag_258\n      jumpi\n        /* \"#utility.yul\":364:382   */\n      tag_258\n      tag_132\n      jump\t// in\n    tag_258:\n        /* \"#utility.yul\":400:402   */\n      0x40\n        /* \"#utility.yul\":393:415   */\n      mstore\n        /* \"#utility.yul\":146:421   */\n      swap2\n      swap1\n      pop\n      jump\t// out\n        /* \"#utility.yul\":426:957   */\n    tag_243:\n        /* \"#utility.yul\":469:474   */\n      0x00\n        /* \"#utility.yul\":522:525   */\n      dup3\n        /* \"#utility.yul\":515:519   */\n      0x1f\n        /* \"#utility.yul\":507:513   */\n      dup4\n        /* \"#utility.yul\":503:520   */\n      add\n        /* \"#utility.yul\":499:526   */\n      slt\n        /* \"#utility.yul\":489:544   */\n      tag_260\n      jumpi\n        /* \"#utility.yul\":540:541   */\n      0x00\n        /* \"#utility.yul\":537:538   */\n      dup1\n        /* \"#utility.yul\":530:542   */\n      revert\n        /* \"#utility.yul\":489:544   */\n    tag_260:\n        /* \"#utility.yul\":576:582   */\n      dup2\n        /* \"#utility.yul\":563:583   */\n      calldataload\n        /* \"#utility.yul\":602:620   */\n      0xffffffffffffffff\n        /* \"#utility.yul\":598:600   */\n      dup2\n        /* \"#utility.yul\":595:621   */\n      gt\n        /* \"#utility.yul\":592:644   */\n      iszero\n      tag_262\n      jumpi\n        /* \"#utility.yul\":624:642   */\n      tag_262\n      tag_132\n      jump\t// in\n    tag_262:\n        /* \"#utility.yul\":668:723   */\n      tag_263\n        /* \"#utility.yul\":711:713   */\n      0x1f\n        /* \"#utility.yul\":692:705   */\n      dup3\n      add\n      not(0x1f)\n        /* \"#utility.yul\":688:715   */\n      and\n        /* \"#utility.yul\":717:721   */\n      0x20\n        /* \"#utility.yul\":684:722   */\n      add\n        /* \"#utility.yul\":668:723   */\n      tag_242\n      jump\t// in\n    tag_263:\n        /* \"#utility.yul\":748:750   */\n      dup2\n        /* \"#utility.yul\":739:746   */\n      dup2\n        /* \"#utility.yul\":732:751   */\n      mstore\n        /* \"#utility.yul\":794:797   */\n      dup5\n        /* \"#utility.yul\":787:791   */\n      0x20\n        /* \"#utility.yul\":782:784   */\n      dup4\n        /* \"#utility.yul\":774:780   */\n      dup7\n        /* \"#utility.yul\":770:785   */\n      add\n        /* \"#utility.yul\":766:792   */\n      add\n        /* \"#utility.yul\":763:798   */\n      gt\n        /* \"#utility.yul\":760:815   */\n      iszero\n      tag_264\n      jumpi\n        /* \"#utility.yul\":811:812   */\n      0x00\n        /* \"#utility.yul\":808:809   */\n      dup1\n        /* \"#utility.yul\":801:813   */\n      revert\n        /* \"#utility.yul\":760:815   */\n    tag_264:\n        /* \"#utility.yul\":876:878   */\n      dup2\n        /* \"#utility.yul\":869:873   */\n      0x20\n        /* \"#utility.yul\":861:867   */\n      dup6\n        /* \"#utility.yul\":857:874   */\n      add\n        /* \"#utility.yul\":850:854   */\n      0x20\n        /* \"#utility.yul\":841:848   */\n      dup4\n        /* \"#utility.yul\":837:855   */\n      add\n        /* \"#utility.yul\":824:879   */\n      calldatacopy\n        /* \"#utility.yul\":924:925   */\n      0x00\n        /* \"#utility.yul\":899:915   */\n      swap2\n      dup2\n      add\n        /* \"#utility.yul\":917:921   */\n      0x20\n        /* \"#utility.yul\":895:922   */\n      add\n        /* \"#utility.yul\":888:926   */\n      swap2\n      swap1\n      swap2\n      mstore\n        /* \"#utility.yul\":903:910   */\n      swap4\n        /* \"#utility.yul\":426:957   */\n      swap3\n      pop\n      pop\n      pop\n      jump\t// out\n        /* \"#utility.yul\":962:1144   */\n    tag_244:\n        /* \"#utility.yul\":1021:1025   */\n      0x00\n        /* \"#utility.yul\":1054:1072   */\n      0xffffffffffffffff\n        /* \"#utility.yul\":1046:1052   */\n      dup3\n        /* \"#utility.yul\":1043:1073   */\n      gt\n        /* \"#utility.yul\":1040:1096   */\n      iszero\n      tag_267\n      jumpi\n        /* \"#utility.yul\":1076:1094   */\n      tag_267\n      tag_132\n      jump\t// in\n    tag_267:\n      pop\n        /* \"#utility.yul\":1121:1122   */\n      0x05\n        /* \"#utility.yul\":1117:1131   */\n      shl\n        /* \"#utility.yul\":1133:1137   */\n      0x20\n        /* \"#utility.yul\":1113:1138   */\n      add\n      swap1\n        /* \"#utility.yul\":962:1144   */\n      jump\t// out\n        /* \"#utility.yul\":1149:1966   */\n    tag_245:\n        /* \"#utility.yul\":1202:1207   */\n      0x00\n        /* \"#utility.yul\":1255:1258   */\n      dup3\n        /* \"#utility.yul\":1248:1252   */\n      0x1f\n        /* \"#utility.yul\":1240:1246   */\n      dup4\n        /* \"#utility.yul\":1236:1253   */\n      add\n        /* \"#utility.yul\":1232:1259   */\n      slt\n        /* \"#utility.yul\":1222:1277   */\n      tag_269\n      jumpi\n        /* \"#utility.yul\":1273:1274   */\n      0x00\n        /* \"#utility.yul\":1270:1271   */\n      dup1\n        /* \"#utility.yul\":1263:1275   */\n      revert\n        /* \"#utility.yul\":1222:1277   */\n    tag_269:\n        /* \"#utility.yul\":1309:1315   */\n      dup2\n        /* \"#utility.yul\":1296:1316   */\n      calldataload\n        /* \"#utility.yul\":1335:1339   */\n      0x20\n        /* \"#utility.yul\":1359:1418   */\n      tag_270\n        /* \"#utility.yul\":1375:1417   */\n      tag_271\n        /* \"#utility.yul\":1414:1416   */\n      dup4\n        /* \"#utility.yul\":1375:1417   */\n      tag_244\n      jump\t// in\n    tag_271:\n        /* \"#utility.yul\":1359:1418   */\n      tag_242\n      jump\t// in\n    tag_270:\n        /* \"#utility.yul\":1452:1467   */\n      dup3\n      dup2\n      mstore\n        /* \"#utility.yul\":1538:1539   */\n      0x05\n        /* \"#utility.yul\":1534:1544   */\n      swap3\n      swap1\n      swap3\n      shl\n        /* \"#utility.yul\":1522:1545   */\n      dup5\n      add\n        /* \"#utility.yul\":1518:1550   */\n      dup2\n      add\n      swap2\n        /* \"#utility.yul\":1483:1495   */\n      dup2\n      dup2\n      add\n      swap1\n        /* \"#utility.yul\":1562:1577   */\n      dup7\n      dup5\n      gt\n        /* \"#utility.yul\":1559:1594   */\n      iszero\n      tag_272\n      jumpi\n        /* \"#utility.yul\":1590:1591   */\n      0x00\n        /* \"#utility.yul\":1587:1588   */\n      dup1\n        /* \"#utility.yul\":1580:1592   */\n      revert\n        /* \"#utility.yul\":1559:1594   */\n    tag_272:\n        /* \"#utility.yul\":1626:1628   */\n      dup3\n        /* \"#utility.yul\":1618:1624   */\n      dup7\n        /* \"#utility.yul\":1614:1629   */\n      add\n        /* \"#utility.yul\":1638:1937   */\n    tag_273:\n        /* \"#utility.yul\":1654:1660   */\n      dup5\n        /* \"#utility.yul\":1649:1652   */\n      dup2\n        /* \"#utility.yul\":1646:1661   */\n      lt\n        /* \"#utility.yul\":1638:1937   */\n      iszero\n      tag_275\n      jumpi\n        /* \"#utility.yul\":1740:1743   */\n      dup1\n        /* \"#utility.yul\":1727:1744   */\n      calldataload\n        /* \"#utility.yul\":1776:1794   */\n      0xffffffffffffffff\n        /* \"#utility.yul\":1763:1774   */\n      dup2\n        /* \"#utility.yul\":1760:1795   */\n      gt\n        /* \"#utility.yul\":1757:1812   */\n      iszero\n      tag_276\n      jumpi\n        /* \"#utility.yul\":1808:1809   */\n      0x00\n        /* \"#utility.yul\":1805:1806   */\n      dup1\n        /* \"#utility.yul\":1798:1810   */\n      revert\n        /* \"#utility.yul\":1757:1812   */\n    tag_276:\n        /* \"#utility.yul\":1837:1894   */\n      tag_277\n        /* \"#utility.yul\":1890:1893   */\n      dup10\n        /* \"#utility.yul\":1885:1887   */\n      dup7\n        /* \"#utility.yul\":1871:1882   */\n      dup4\n        /* \"#utility.yul\":1863:1869   */\n      dup12\n        /* \"#utility.yul\":1859:1883   */\n      add\n        /* \"#utility.yul\":1855:1888   */\n      add\n        /* \"#utility.yul\":1837:1894   */\n      tag_243\n      jump\t// in\n    tag_277:\n        /* \"#utility.yul\":1825:1895   */\n      dup5\n      mstore\n      pop\n        /* \"#utility.yul\":1915:1927   */\n      swap2\n      dup4\n      add\n      swap2\n        /* \"#utility.yul\":1671:1683   */\n      dup4\n      add\n        /* \"#utility.yul\":1638:1937   */\n      jump(tag_273)\n    tag_275:\n      pop\n        /* \"#utility.yul\":1955:1960   */\n      swap7\n        /* \"#utility.yul\":1149:1966   */\n      swap6\n      pop\n      pop\n      pop\n      pop\n      pop\n      pop\n      jump\t// out\n        /* \"#utility.yul\":1971:3019   */\n    tag_18:\n        /* \"#utility.yul\":2131:2137   */\n      0x00\n        /* \"#utility.yul\":2139:2145   */\n      dup1\n        /* \"#utility.yul\":2147:2153   */\n      0x00\n        /* \"#utility.yul\":2155:2161   */\n      dup1\n        /* \"#utility.yul\":2163:2169   */\n      0x00\n        /* \"#utility.yul\":2216:2219   */\n      0xa0\n        /* \"#utility.yul\":2204:2213   */\n      dup7\n        /* \"#utility.yul\":2195:2202   */\n      dup9\n        /* \"#utility.yul\":2191:2214   */\n      sub\n        /* \"#utility.yul\":2187:2220   */\n      slt\n        /* \"#utility.yul\":2184:2237   */\n      iszero\n      tag_279\n      jumpi\n        /* \"#utility.yul\":2233:2234   */\n      0x00\n        /* \"#utility.yul\":2230:2231   */\n      dup1\n        /* \"#utility.yul\":2223:2235   */\n      revert\n        /* \"#utility.yul\":2184:2237   */\n    tag_279:\n        /* \"#utility.yul\":2269:2278   */\n      dup6\n        /* \"#utility.yul\":2256:2279   */\n      calldataload\n        /* \"#utility.yul\":2246:2279   */\n      swap5\n      pop\n        /* \"#utility.yul\":2330:2332   */\n      0x20\n        /* \"#utility.yul\":2319:2328   */\n      dup7\n        /* \"#utility.yul\":2315:2333   */\n      add\n        /* \"#utility.yul\":2302:2334   */\n      calldataload\n        /* \"#utility.yul\":2353:2371   */\n      0xffffffffffffffff\n        /* \"#utility.yul\":2394:2396   */\n      dup1\n        /* \"#utility.yul\":2386:2392   */\n      dup3\n        /* \"#utility.yul\":2383:2397   */\n      gt\n        /* \"#utility.yul\":2380:2414   */\n      iszero\n      tag_280\n      jumpi\n        /* \"#utility.yul\":2410:2411   */\n      0x00\n        /* \"#utility.yul\":2407:2408   */\n      dup1\n        /* \"#utility.yul\":2400:2412   */\n      revert\n        /* \"#utility.yul\":2380:2414   */\n    tag_280:\n        /* \"#utility.yul\":2433:2483   */\n      tag_281\n        /* \"#utility.yul\":2475:2482   */\n      dup10\n        /* \"#utility.yul\":2466:2472   */\n      dup4\n        /* \"#utility.yul\":2455:2464   */\n      dup11\n        /* \"#utility.yul\":2451:2473   */\n      add\n        /* \"#utility.yul\":2433:2483   */\n      tag_243\n      jump\t// in\n    tag_281:\n        /* \"#utility.yul\":2423:2483   */\n      swap6\n      pop\n        /* \"#utility.yul\":2536:2538   */\n      0x40\n        /* \"#utility.yul\":2525:2534   */\n      dup9\n        /* \"#utility.yul\":2521:2539   */\n      add\n        /* \"#utility.yul\":2508:2540   */\n      calldataload\n        /* \"#utility.yul\":2492:2540   */\n      swap2\n      pop\n        /* \"#utility.yul\":2565:2567   */\n      dup1\n        /* \"#utility.yul\":2555:2563   */\n      dup3\n        /* \"#utility.yul\":2552:2568   */\n      gt\n        /* \"#utility.yul\":2549:2585   */\n      iszero\n      tag_282\n      jumpi\n        /* \"#utility.yul\":2581:2582   */\n      0x00\n        /* \"#utility.yul\":2578:2579   */\n      dup1\n        /* \"#utility.yul\":2571:2583   */\n      revert\n        /* \"#utility.yul\":2549:2585   */\n    tag_282:\n        /* \"#utility.yul\":2604:2656   */\n      tag_283\n        /* \"#utility.yul\":2648:2655   */\n      dup10\n        /* \"#utility.yul\":2637:2645   */\n      dup4\n        /* \"#utility.yul\":2626:2635   */\n      dup11\n        /* \"#utility.yul\":2622:2646   */\n      add\n        /* \"#utility.yul\":2604:2656   */\n      tag_243\n      jump\t// in\n    tag_283:\n        /* \"#utility.yul\":2594:2656   */\n      swap5\n      pop\n        /* \"#utility.yul\":2709:2711   */\n      0x60\n        /* \"#utility.yul\":2698:2707   */\n      dup9\n        /* \"#utility.yul\":2694:2712   */\n      add\n        /* \"#utility.yul\":2681:2713   */\n      calldataload\n        /* \"#utility.yul\":2665:2713   */\n      swap2\n      pop\n        /* \"#utility.yul\":2738:2740   */\n      dup1\n        /* \"#utility.yul\":2728:2736   */\n      dup3\n        /* \"#utility.yul\":2725:2741   */\n      gt\n        /* \"#utility.yul\":2722:2758   */\n      iszero\n      tag_284\n      jumpi\n        /* \"#utility.yul\":2754:2755   */\n      0x00\n        /* \"#utility.yul\":2751:2752   */\n      dup1\n        /* \"#utility.yul\":2744:2756   */\n      revert\n        /* \"#utility.yul\":2722:2758   */\n    tag_284:\n        /* \"#utility.yul\":2777:2829   */\n      tag_285\n        /* \"#utility.yul\":2821:2828   */\n      dup10\n        /* \"#utility.yul\":2810:2818   */\n      dup4\n        /* \"#utility.yul\":2799:2808   */\n      dup11\n        /* \"#utility.yul\":2795:2819   */\n      add\n        /* \"#utility.yul\":2777:2829   */\n      tag_243\n      jump\t// in\n    tag_285:\n        /* \"#utility.yul\":2767:2829   */\n      swap4\n      pop\n        /* \"#utility.yul\":2882:2885   */\n      0x80\n        /* \"#utility.yul\":2871:2880   */\n      dup9\n        /* \"#utility.yul\":2867:2886   */\n      add\n        /* \"#utility.yul\":2854:2887   */\n      calldataload\n        /* \"#utility.yul\":2838:2887   */\n      swap2\n      pop\n        /* \"#utility.yul\":2912:2914   */\n      dup1\n        /* \"#utility.yul\":2902:2910   */\n      dup3\n        /* \"#utility.yul\":2899:2915   */\n      gt\n        /* \"#utility.yul\":2896:2932   */\n      iszero\n      tag_286\n      jumpi\n        /* \"#utility.yul\":2928:2929   */\n      0x00\n        /* \"#utility.yul\":2925:2926   */\n      dup1\n        /* \"#utility.yul\":2918:2930   */\n      revert\n        /* \"#utility.yul\":2896:2932   */\n    tag_286:\n      pop\n        /* \"#utility.yul\":2951:3013   */\n      tag_287\n        /* \"#utility.yul\":3005:3012   */\n      dup9\n        /* \"#utility.yul\":2994:3002   */\n      dup3\n        /* \"#utility.yul\":2983:2992   */\n      dup10\n        /* \"#utility.yul\":2979:3003   */\n      add\n        /* \"#utility.yul\":2951:3013   */\n      tag_245\n      jump\t// in\n    tag_287:\n        /* \"#utility.yul\":2941:3013   */\n      swap2\n      pop\n      pop\n        /* \"#utility.yul\":1971:3019   */\n      swap3\n      swap6\n      pop\n      swap3\n      swap6\n      swap1\n      swap4\n      pop\n      jump\t// out\n        /* \"#utility.yul\":3024:3656   */\n    tag_23:\n        /* \"#utility.yul\":3195:3197   */\n      0x20\n        /* \"#utility.yul\":3247:3268   */\n      dup1\n      dup3\n      mstore\n        /* \"#utility.yul\":3317:3330   */\n      dup3\n      mload\n        /* \"#utility.yul\":3220:3238   */\n      dup3\n      dup3\n      add\n        /* \"#utility.yul\":3339:3361   */\n      dup2\n      swap1\n      mstore\n        /* \"#utility.yul\":3166:3170   */\n      0x00\n      swap2\n        /* \"#utility.yul\":3195:3197   */\n      swap1\n        /* \"#utility.yul\":3418:3433   */\n      dup5\n      dup3\n      add\n      swap1\n        /* \"#utility.yul\":3392:3394   */\n      0x40\n        /* \"#utility.yul\":3377:3395   */\n      dup6\n      add\n      swap1\n        /* \"#utility.yul\":3166:3170   */\n      dup5\n        /* \"#utility.yul\":3461:3630   */\n    tag_289:\n        /* \"#utility.yul\":3475:3481   */\n      dup2\n        /* \"#utility.yul\":3472:3473   */\n      dup2\n        /* \"#utility.yul\":3469:3482   */\n      lt\n        /* \"#utility.yul\":3461:3630   */\n      iszero\n      tag_291\n      jumpi\n        /* \"#utility.yul\":3536:3549   */\n      dup4\n      mload\n        /* \"#utility.yul\":3524:3550   */\n      dup4\n      mstore\n        /* \"#utility.yul\":3605:3620   */\n      swap3\n      dup5\n      add\n      swap3\n        /* \"#utility.yul\":3570:3582   */\n      swap2\n      dup5\n      add\n      swap2\n        /* \"#utility.yul\":3497:3498   */\n      0x01\n        /* \"#utility.yul\":3490:3499   */\n      add\n        /* \"#utility.yul\":3461:3630   */\n      jump(tag_289)\n    tag_291:\n      pop\n        /* \"#utility.yul\":3647:3650   */\n      swap1\n      swap7\n        /* \"#utility.yul\":3024:3656   */\n      swap6\n      pop\n      pop\n      pop\n      pop\n      pop\n      pop\n      jump\t// out\n        /* \"#utility.yul\":3661:3841   */\n    tag_26:\n        /* \"#utility.yul\":3720:3726   */\n      0x00\n        /* \"#utility.yul\":3773:3775   */\n      0x20\n        /* \"#utility.yul\":3761:3770   */\n      dup3\n        /* \"#utility.yul\":3752:3759   */\n      dup5\n        /* \"#utility.yul\":3748:3771   */\n      sub\n        /* \"#utility.yul\":3744:3776   */\n      slt\n        /* \"#utility.yul\":3741:3793   */\n      iszero\n      tag_293\n      jumpi\n        /* \"#utility.yul\":3789:3790   */\n      0x00\n        /* \"#utility.yul\":3786:3787   */\n      dup1\n        /* \"#utility.yul\":3779:3791   */\n      revert\n        /* \"#utility.yul\":3741:3793   */\n    tag_293:\n      pop\n        /* \"#utility.yul\":3812:3835   */\n      calldataload\n      swap2\n        /* \"#utility.yul\":3661:3841   */\n      swap1\n      pop\n      jump\t// out\n        /* \"#utility.yul\":4236:4800   */\n    tag_41:\n        /* \"#utility.yul\":4323:4329   */\n      0x00\n        /* \"#utility.yul\":4331:4337   */\n      dup1\n        /* \"#utility.yul\":4339:4345   */\n      0x00\n        /* \"#utility.yul\":4392:4394   */\n      0x60\n        /* \"#utility.yul\":4380:4389   */\n      dup5\n        /* \"#utility.yul\":4371:4378   */\n      dup7\n        /* \"#utility.yul\":4367:4390   */\n      sub\n        /* \"#utility.yul\":4363:4395   */\n      slt\n        /* \"#utility.yul\":4360:4412   */\n      iszero\n      tag_297\n      jumpi\n        /* \"#utility.yul\":4408:4409   */\n      0x00\n        /* \"#utility.yul\":4405:4406   */\n      dup1\n        /* \"#utility.yul\":4398:4410   */\n      revert\n        /* \"#utility.yul\":4360:4412   */\n    tag_297:\n        /* \"#utility.yul\":4431:4454   */\n      dup4\n      calldataload\n      swap3\n      pop\n        /* \"#utility.yul\":4504:4506   */\n      0x20\n        /* \"#utility.yul\":4489:4507   */\n      dup5\n      add\n        /* \"#utility.yul\":4476:4508   */\n      calldataload\n      sub(shl(0xa0, 0x01), 0x01)\n        /* \"#utility.yul\":4537:4568   */\n      dup2\n      and\n        /* \"#utility.yul\":4527:4569   */\n      dup2\n      eq\n        /* \"#utility.yul\":4517:4587   */\n      tag_298\n      jumpi\n        /* \"#utility.yul\":4583:4584   */\n      0x00\n        /* \"#utility.yul\":4580:4581   */\n      dup1\n        /* \"#utility.yul\":4573:4585   */\n      revert\n        /* \"#utility.yul\":4517:4587   */\n    tag_298:\n        /* \"#utility.yul\":4606:4611   */\n      swap2\n      pop\n        /* \"#utility.yul\":4662:4664   */\n      0x40\n        /* \"#utility.yul\":4647:4665   */\n      dup5\n      add\n        /* \"#utility.yul\":4634:4666   */\n      calldataload\n        /* \"#utility.yul\":4689:4707   */\n      0xffffffffffffffff\n        /* \"#utility.yul\":4678:4708   */\n      dup2\n      gt\n        /* \"#utility.yul\":4675:4725   */\n      iszero\n      tag_299\n      jumpi\n        /* \"#utility.yul\":4721:4722   */\n      0x00\n        /* \"#utility.yul\":4718:4719   */\n      dup1\n        /* \"#utility.yul\":4711:4723   */\n      revert\n        /* \"#utility.yul\":4675:4725   */\n    tag_299:\n        /* \"#utility.yul\":4744:4794   */\n      tag_300\n        /* \"#utility.yul\":4786:4793   */\n      dup7\n        /* \"#utility.yul\":4777:4783   */\n      dup3\n        /* \"#utility.yul\":4766:4775   */\n      dup8\n        /* \"#utility.yul\":4762:4784   */\n      add\n        /* \"#utility.yul\":4744:4794   */\n      tag_243\n      jump\t// in\n    tag_300:\n        /* \"#utility.yul\":4734:4794   */\n      swap2\n      pop\n      pop\n        /* \"#utility.yul\":4236:4800   */\n      swap3\n      pop\n      swap3\n      pop\n      swap3\n      jump\t// out\n        /* \"#utility.yul\":4987:5237   */\n    tag_246:\n        /* \"#utility.yul\":5072:5073   */\n      0x00\n        /* \"#utility.yul\":5082:5195   */\n    tag_303:\n        /* \"#utility.yul\":5096:5102   */\n      dup4\n        /* \"#utility.yul\":5093:5094   */\n      dup2\n        /* \"#utility.yul\":5090:5103   */\n      lt\n        /* \"#utility.yul\":5082:5195   */\n      iszero\n      tag_305\n      jumpi\n        /* \"#utility.yul\":5172:5183   */\n      dup2\n      dup2\n      add\n        /* \"#utility.yul\":5166:5184   */\n      mload\n        /* \"#utility.yul\":5153:5164   */\n      dup4\n      dup3\n      add\n        /* \"#utility.yul\":5146:5185   */\n      mstore\n        /* \"#utility.yul\":5118:5120   */\n      0x20\n        /* \"#utility.yul\":5111:5121   */\n      add\n        /* \"#utility.yul\":5082:5195   */\n      jump(tag_303)\n    tag_305:\n      pop\n      pop\n        /* \"#utility.yul\":5229:5230   */\n      0x00\n        /* \"#utility.yul\":5211:5227   */\n      swap2\n      add\n        /* \"#utility.yul\":5204:5231   */\n      mstore\n        /* \"#utility.yul\":4987:5237   */\n      jump\t// out\n        /* \"#utility.yul\":5242:5513   */\n    tag_247:\n        /* \"#utility.yul\":5284:5287   */\n      0x00\n        /* \"#utility.yul\":5322:5327   */\n      dup2\n        /* \"#utility.yul\":5316:5328   */\n      mload\n        /* \"#utility.yul\":5349:5355   */\n      dup1\n        /* \"#utility.yul\":5344:5347   */\n      dup5\n        /* \"#utility.yul\":5337:5356   */\n      mstore\n        /* \"#utility.yul\":5365:5441   */\n      tag_307\n        /* \"#utility.yul\":5434:5440   */\n      dup2\n        /* \"#utility.yul\":5427:5431   */\n      0x20\n        /* \"#utility.yul\":5422:5425   */\n      dup7\n        /* \"#utility.yul\":5418:5432   */\n      add\n        /* \"#utility.yul\":5411:5415   */\n      0x20\n        /* \"#utility.yul\":5404:5409   */\n      dup7\n        /* \"#utility.yul\":5400:5416   */\n      add\n        /* \"#utility.yul\":5365:5441   */\n      tag_246\n      jump\t// in\n    tag_307:\n        /* \"#utility.yul\":5495:5497   */\n      0x1f\n        /* \"#utility.yul\":5474:5489   */\n      add\n      not(0x1f)\n        /* \"#utility.yul\":5470:5499   */\n      and\n        /* \"#utility.yul\":5461:5500   */\n      swap3\n      swap1\n      swap3\n      add\n        /* \"#utility.yul\":5502:5506   */\n      0x20\n        /* \"#utility.yul\":5457:5507   */\n      add\n      swap3\n        /* \"#utility.yul\":5242:5513   */\n      swap2\n      pop\n      pop\n      jump\t// out\n        /* \"#utility.yul\":5518:5998   */\n    tag_52:\n        /* \"#utility.yul\":5691:5693   */\n      0x20\n        /* \"#utility.yul\":5680:5689   */\n      dup2\n        /* \"#utility.yul\":5673:5694   */\n      mstore\n        /* \"#utility.yul\":5736:5742   */\n      dup2\n        /* \"#utility.yul\":5730:5743   */\n      mload\n        /* \"#utility.yul\":5725:5727   */\n      0x20\n        /* \"#utility.yul\":5714:5723   */\n      dup3\n        /* \"#utility.yul\":5710:5728   */\n      add\n        /* \"#utility.yul\":5703:5744   */\n      mstore\n        /* \"#utility.yul\":5825:5826   */\n      0x01\n        /* \"#utility.yul\":5821:5822   */\n      dup1\n        /* \"#utility.yul\":5816:5819   */\n      0xa0\n        /* \"#utility.yul\":5812:5823   */\n      shl\n        /* \"#utility.yul\":5808:5827   */\n      sub\n        /* \"#utility.yul\":5802:5804   */\n      0x20\n        /* \"#utility.yul\":5794:5800   */\n      dup4\n        /* \"#utility.yul\":5790:5805   */\n      add\n        /* \"#utility.yul\":5784:5806   */\n      mload\n        /* \"#utility.yul\":5780:5828   */\n      and\n        /* \"#utility.yul\":5775:5777   */\n      0x40\n        /* \"#utility.yul\":5764:5773   */\n      dup3\n        /* \"#utility.yul\":5760:5778   */\n      add\n        /* \"#utility.yul\":5753:5829   */\n      mstore\n        /* \"#utility.yul\":5654:5658   */\n      0x00\n        /* \"#utility.yul\":5876:5878   */\n      0x40\n        /* \"#utility.yul\":5868:5874   */\n      dup4\n        /* \"#utility.yul\":5864:5879   */\n      add\n        /* \"#utility.yul\":5858:5880   */\n      mload\n        /* \"#utility.yul\":5918:5922   */\n      0x60\n        /* \"#utility.yul\":5911:5915   */\n      dup1\n        /* \"#utility.yul\":5900:5909   */\n      dup5\n        /* \"#utility.yul\":5896:5916   */\n      add\n        /* \"#utility.yul\":5889:5923   */\n      mstore\n        /* \"#utility.yul\":5940:5992   */\n      tag_309\n        /* \"#utility.yul\":5987:5990   */\n      0x80\n        /* \"#utility.yul\":5976:5985   */\n      dup5\n        /* \"#utility.yul\":5972:5991   */\n      add\n        /* \"#utility.yul\":5958:5970   */\n      dup3\n        /* \"#utility.yul\":5940:5992   */\n      tag_247\n      jump\t// in\n    tag_309:\n        /* \"#utility.yul\":5932:5992   */\n      swap5\n        /* \"#utility.yul\":5518:5998   */\n      swap4\n      pop\n      pop\n      pop\n      pop\n      jump\t// out\n        /* \"#utility.yul\":6003:7619   */\n    tag_55:\n        /* \"#utility.yul\":6178:6184   */\n      0x00\n        /* \"#utility.yul\":6186:6192   */\n      dup1\n        /* \"#utility.yul\":6194:6200   */\n      0x00\n        /* \"#utility.yul\":6202:6208   */\n      dup1\n        /* \"#utility.yul\":6210:6216   */\n      0x00\n        /* \"#utility.yul\":6263:6266   */\n      0xa0\n        /* \"#utility.yul\":6251:6260   */\n      dup7\n        /* \"#utility.yul\":6242:6249   */\n      dup9\n        /* \"#utility.yul\":6238:6261   */\n      sub\n        /* \"#utility.yul\":6234:6267   */\n      slt\n        /* \"#utility.yul\":6231:6284   */\n      iszero\n      tag_311\n      jumpi\n        /* \"#utility.yul\":6280:6281   */\n      0x00\n        /* \"#utility.yul\":6277:6278   */\n      dup1\n        /* \"#utility.yul\":6270:6282   */\n      revert\n        /* \"#utility.yul\":6231:6284   */\n    tag_311:\n        /* \"#utility.yul\":6320:6329   */\n      dup6\n        /* \"#utility.yul\":6307:6330   */\n      calldataload\n        /* \"#utility.yul\":6349:6367   */\n      0xffffffffffffffff\n        /* \"#utility.yul\":6390:6392   */\n      dup1\n        /* \"#utility.yul\":6382:6388   */\n      dup3\n        /* \"#utility.yul\":6379:6393   */\n      gt\n        /* \"#utility.yul\":6376:6410   */\n      iszero\n      tag_312\n      jumpi\n        /* \"#utility.yul\":6406:6407   */\n      0x00\n        /* \"#utility.yul\":6403:6404   */\n      dup1\n        /* \"#utility.yul\":6396:6408   */\n      revert\n        /* \"#utility.yul\":6376:6410   */\n    tag_312:\n        /* \"#utility.yul\":6429:6479   */\n      tag_313\n        /* \"#utility.yul\":6471:6478   */\n      dup10\n        /* \"#utility.yul\":6462:6468   */\n      dup4\n        /* \"#utility.yul\":6451:6460   */\n      dup11\n        /* \"#utility.yul\":6447:6469   */\n      add\n        /* \"#utility.yul\":6429:6479   */\n      tag_243\n      jump\t// in\n    tag_313:\n        /* \"#utility.yul\":6419:6479   */\n      swap7\n      pop\n        /* \"#utility.yul\":6498:6500   */\n      0x20\n        /* \"#utility.yul\":6488:6500   */\n      swap2\n      pop\n        /* \"#utility.yul\":6553:6555   */\n      dup2\n        /* \"#utility.yul\":6542:6551   */\n      dup9\n        /* \"#utility.yul\":6538:6556   */\n      add\n        /* \"#utility.yul\":6525:6557   */\n      calldataload\n        /* \"#utility.yul\":6582:6584   */\n      dup2\n        /* \"#utility.yul\":6572:6580   */\n      dup2\n        /* \"#utility.yul\":6569:6585   */\n      gt\n        /* \"#utility.yul\":6566:6602   */\n      iszero\n      tag_314\n      jumpi\n        /* \"#utility.yul\":6598:6599   */\n      0x00\n        /* \"#utility.yul\":6595:6596   */\n      dup1\n        /* \"#utility.yul\":6588:6600   */\n      revert\n        /* \"#utility.yul\":6566:6602   */\n    tag_314:\n        /* \"#utility.yul\":6621:6673   */\n      tag_315\n        /* \"#utility.yul\":6665:6672   */\n      dup11\n        /* \"#utility.yul\":6654:6662   */\n      dup3\n        /* \"#utility.yul\":6643:6652   */\n      dup12\n        /* \"#utility.yul\":6639:6663   */\n      add\n        /* \"#utility.yul\":6621:6673   */\n      tag_243\n      jump\t// in\n    tag_315:\n        /* \"#utility.yul\":6611:6673   */\n      swap7\n      pop\n      pop\n        /* \"#utility.yul\":6720:6722   */\n      0x40\n        /* \"#utility.yul\":6709:6718   */\n      dup9\n        /* \"#utility.yul\":6705:6723   */\n      add\n        /* \"#utility.yul\":6692:6724   */\n      calldataload\n        /* \"#utility.yul\":6682:6724   */\n      swap5\n      pop\n        /* \"#utility.yul\":6777:6779   */\n      0x60\n        /* \"#utility.yul\":6766:6775   */\n      dup9\n        /* \"#utility.yul\":6762:6780   */\n      add\n        /* \"#utility.yul\":6749:6781   */\n      calldataload\n        /* \"#utility.yul\":6806:6808   */\n      dup2\n        /* \"#utility.yul\":6796:6804   */\n      dup2\n        /* \"#utility.yul\":6793:6809   */\n      gt\n        /* \"#utility.yul\":6790:6826   */\n      iszero\n      tag_316\n      jumpi\n        /* \"#utility.yul\":6822:6823   */\n      0x00\n        /* \"#utility.yul\":6819:6820   */\n      dup1\n        /* \"#utility.yul\":6812:6824   */\n      revert\n        /* \"#utility.yul\":6790:6826   */\n    tag_316:\n        /* \"#utility.yul\":6845:6907   */\n      tag_317\n        /* \"#utility.yul\":6899:6906   */\n      dup11\n        /* \"#utility.yul\":6888:6896   */\n      dup3\n        /* \"#utility.yul\":6877:6886   */\n      dup12\n        /* \"#utility.yul\":6873:6897   */\n      add\n        /* \"#utility.yul\":6845:6907   */\n      tag_245\n      jump\t// in\n    tag_317:\n        /* \"#utility.yul\":6835:6907   */\n      swap5\n      pop\n      pop\n        /* \"#utility.yul\":6960:6963   */\n      0x80\n        /* \"#utility.yul\":6949:6958   */\n      dup9\n        /* \"#utility.yul\":6945:6964   */\n      add\n        /* \"#utility.yul\":6932:6965   */\n      calldataload\n        /* \"#utility.yul\":6990:6992   */\n      dup2\n        /* \"#utility.yul\":6980:6988   */\n      dup2\n        /* \"#utility.yul\":6977:6993   */\n      gt\n        /* \"#utility.yul\":6974:7010   */\n      iszero\n      tag_318\n      jumpi\n        /* \"#utility.yul\":7006:7007   */\n      0x00\n        /* \"#utility.yul\":7003:7004   */\n      dup1\n        /* \"#utility.yul\":6996:7008   */\n      revert\n        /* \"#utility.yul\":6974:7010   */\n    tag_318:\n        /* \"#utility.yul\":7029:7053   */\n      dup9\n      add\n      swap1\n      pop\n        /* \"#utility.yul\":7084:7088   */\n      0x1f\n        /* \"#utility.yul\":7076:7089   */\n      dup2\n      add\n        /* \"#utility.yul\":7072:7099   */\n      dup10\n      sgt\n        /* \"#utility.yul\":7062:7117   */\n      tag_319\n      jumpi\n        /* \"#utility.yul\":7113:7114   */\n      0x00\n        /* \"#utility.yul\":7110:7111   */\n      dup1\n        /* \"#utility.yul\":7103:7115   */\n      revert\n        /* \"#utility.yul\":7062:7117   */\n    tag_319:\n        /* \"#utility.yul\":7149:7151   */\n      dup1\n        /* \"#utility.yul\":7136:7152   */\n      calldataload\n        /* \"#utility.yul\":7172:7231   */\n      tag_320\n        /* \"#utility.yul\":7188:7230   */\n      tag_271\n        /* \"#utility.yul\":7227:7229   */\n      dup3\n        /* \"#utility.yul\":7188:7230   */\n      tag_244\n      jump\t// in\n        /* \"#utility.yul\":7172:7231   */\n    tag_320:\n        /* \"#utility.yul\":7265:7280   */\n      dup2\n      dup2\n      mstore\n        /* \"#utility.yul\":7347:7348   */\n      0x05\n        /* \"#utility.yul\":7343:7353   */\n      swap2\n      swap1\n      swap2\n      shl\n        /* \"#utility.yul\":7335:7354   */\n      dup3\n      add\n        /* \"#utility.yul\":7331:7359   */\n      dup4\n      add\n      swap1\n        /* \"#utility.yul\":7296:7308   */\n      dup4\n      dup2\n      add\n      swap1\n        /* \"#utility.yul\":7371:7390   */\n      dup12\n      dup4\n      gt\n        /* \"#utility.yul\":7368:7407   */\n      iszero\n      tag_322\n      jumpi\n        /* \"#utility.yul\":7403:7404   */\n      0x00\n        /* \"#utility.yul\":7400:7401   */\n      dup1\n        /* \"#utility.yul\":7393:7405   */\n      revert\n        /* \"#utility.yul\":7368:7407   */\n    tag_322:\n        /* \"#utility.yul\":7427:7438   */\n      swap3\n      dup5\n      add\n      swap3\n        /* \"#utility.yul\":7447:7589   */\n    tag_323:\n        /* \"#utility.yul\":7463:7469   */\n      dup3\n        /* \"#utility.yul\":7458:7461   */\n      dup5\n        /* \"#utility.yul\":7455:7470   */\n      lt\n        /* \"#utility.yul\":7447:7589   */\n      iszero\n      tag_325\n      jumpi\n        /* \"#utility.yul\":7529:7546   */\n      dup4\n      calldataload\n        /* \"#utility.yul\":7517:7547   */\n      dup3\n      mstore\n        /* \"#utility.yul\":7480:7492   */\n      swap3\n      dup5\n      add\n      swap3\n        /* \"#utility.yul\":7567:7579   */\n      swap1\n      dup5\n      add\n      swap1\n        /* \"#utility.yul\":7447:7589   */\n      jump(tag_323)\n    tag_325:\n        /* \"#utility.yul\":7608:7613   */\n      dup1\n        /* \"#utility.yul\":7598:7613   */\n      swap6\n      pop\n      pop\n      pop\n      pop\n      pop\n      pop\n        /* \"#utility.yul\":6003:7619   */\n      swap3\n      swap6\n      pop\n      swap3\n      swap6\n      swap1\n      swap4\n      pop\n      jump\t// out\n        /* \"#utility.yul\":7624:8222   */\n    tag_248:\n        /* \"#utility.yul\":7676:7679   */\n      0x00\n        /* \"#utility.yul\":7707:7710   */\n      dup3\n        /* \"#utility.yul\":7739:7744   */\n      dup3\n        /* \"#utility.yul\":7733:7745   */\n      mload\n        /* \"#utility.yul\":7766:7772   */\n      dup1\n        /* \"#utility.yul\":7761:7764   */\n      dup6\n        /* \"#utility.yul\":7754:7773   */\n      mstore\n        /* \"#utility.yul\":7792:7796   */\n      0x20\n        /* \"#utility.yul\":7821:7825   */\n      dup1\n        /* \"#utility.yul\":7816:7819   */\n      dup7\n        /* \"#utility.yul\":7812:7826   */\n      add\n        /* \"#utility.yul\":7805:7826   */\n      swap6\n      pop\n        /* \"#utility.yul\":7879:7883   */\n      0x20\n        /* \"#utility.yul\":7869:7875   */\n      dup3\n        /* \"#utility.yul\":7866:7867   */\n      0x05\n        /* \"#utility.yul\":7862:7876   */\n      shl\n        /* \"#utility.yul\":7855:7860   */\n      dup5\n        /* \"#utility.yul\":7851:7877   */\n      add\n        /* \"#utility.yul\":7847:7884   */\n      add\n        /* \"#utility.yul\":7918:7922   */\n      0x20\n        /* \"#utility.yul\":7911:7916   */\n      dup7\n        /* \"#utility.yul\":7907:7923   */\n      add\n        /* \"#utility.yul\":7941:7942   */\n      0x00\n        /* \"#utility.yul\":7951:8196   */\n    tag_327:\n        /* \"#utility.yul\":7965:7971   */\n      dup5\n        /* \"#utility.yul\":7962:7963   */\n      dup2\n        /* \"#utility.yul\":7959:7972   */\n      lt\n        /* \"#utility.yul\":7951:8196   */\n      iszero\n      tag_329\n      jumpi\n        /* \"#utility.yul\":8052:8054   */\n      0x1f\n        /* \"#utility.yul\":8048:8055   */\n      not\n        /* \"#utility.yul\":8040:8045   */\n      dup7\n        /* \"#utility.yul\":8034:8038   */\n      dup5\n        /* \"#utility.yul\":8030:8046   */\n      sub\n        /* \"#utility.yul\":8026:8056   */\n      add\n        /* \"#utility.yul\":8021:8024   */\n      dup10\n        /* \"#utility.yul\":8014:8057   */\n      mstore\n        /* \"#utility.yul\":8078:8116   */\n      tag_330\n        /* \"#utility.yul\":8111:8115   */\n      dup4\n        /* \"#utility.yul\":8102:8108   */\n      dup4\n        /* \"#utility.yul\":8096:8109   */\n      mload\n        /* \"#utility.yul\":8078:8116   */\n      tag_247\n      jump\t// in\n    tag_330:\n        /* \"#utility.yul\":8174:8186   */\n      swap9\n      dup5\n      add\n      swap9\n        /* \"#utility.yul\":8070:8116   */\n      swap3\n      pop\n        /* \"#utility.yul\":8139:8154   */\n      swap1\n      dup4\n      add\n      swap1\n        /* \"#utility.yul\":7987:7988   */\n      0x01\n        /* \"#utility.yul\":7980:7989   */\n      add\n        /* \"#utility.yul\":7951:8196   */\n      jump(tag_327)\n    tag_329:\n      pop\n        /* \"#utility.yul\":8212:8216   */\n      swap1\n      swap8\n        /* \"#utility.yul\":7624:8222   */\n      swap7\n      pop\n      pop\n      pop\n      pop\n      pop\n      pop\n      pop\n      jump\t// out\n        /* \"#utility.yul\":8227:8666   */\n    tag_249:\n        /* \"#utility.yul\":8280:8283   */\n      0x00\n        /* \"#utility.yul\":8318:8323   */\n      dup2\n        /* \"#utility.yul\":8312:8324   */\n      mload\n        /* \"#utility.yul\":8345:8351   */\n      dup1\n        /* \"#utility.yul\":8340:8343   */\n      dup5\n        /* \"#utility.yul\":8333:8352   */\n      mstore\n        /* \"#utility.yul\":8371:8375   */\n      0x20\n        /* \"#utility.yul\":8400:8404   */\n      dup1\n        /* \"#utility.yul\":8395:8398   */\n      dup6\n        /* \"#utility.yul\":8391:8405   */\n      add\n        /* \"#utility.yul\":8384:8405   */\n      swap5\n      pop\n        /* \"#utility.yul\":8439:8443   */\n      0x20\n        /* \"#utility.yul\":8432:8437   */\n      dup5\n        /* \"#utility.yul\":8428:8444   */\n      add\n        /* \"#utility.yul\":8462:8463   */\n      0x00\n        /* \"#utility.yul\":8472:8641   */\n    tag_332:\n        /* \"#utility.yul\":8486:8492   */\n      dup4\n        /* \"#utility.yul\":8483:8484   */\n      dup2\n        /* \"#utility.yul\":8480:8493   */\n      lt\n        /* \"#utility.yul\":8472:8641   */\n      iszero\n      tag_334\n      jumpi\n        /* \"#utility.yul\":8547:8560   */\n      dup2\n      mload\n        /* \"#utility.yul\":8535:8561   */\n      dup8\n      mstore\n        /* \"#utility.yul\":8581:8593   */\n      swap6\n      dup3\n      add\n      swap6\n        /* \"#utility.yul\":8616:8631   */\n      swap1\n      dup3\n      add\n      swap1\n        /* \"#utility.yul\":8508:8509   */\n      0x01\n        /* \"#utility.yul\":8501:8510   */\n      add\n        /* \"#utility.yul\":8472:8641   */\n      jump(tag_332)\n    tag_334:\n      pop\n        /* \"#utility.yul\":8657:8660   */\n      swap5\n      swap6\n        /* \"#utility.yul\":8227:8666   */\n      swap5\n      pop\n      pop\n      pop\n      pop\n      pop\n      jump\t// out\n        /* \"#utility.yul\":8671:10191   */\n    tag_61:\n        /* \"#utility.yul\":8815:8819   */\n      0x00\n        /* \"#utility.yul\":8844:8846   */\n      0x20\n        /* \"#utility.yul\":8873:8875   */\n      dup1\n        /* \"#utility.yul\":8862:8871   */\n      dup4\n        /* \"#utility.yul\":8855:8876   */\n      mstore\n        /* \"#utility.yul\":8911:8917   */\n      dup4\n        /* \"#utility.yul\":8905:8918   */\n      mload\n        /* \"#utility.yul\":8954:8958   */\n      0xc0\n        /* \"#utility.yul\":8949:8951   */\n      dup3\n        /* \"#utility.yul\":8938:8947   */\n      dup6\n        /* \"#utility.yul\":8934:8952   */\n      add\n        /* \"#utility.yul\":8927:8959   */\n      mstore\n        /* \"#utility.yul\":8982:9034   */\n      tag_336\n        /* \"#utility.yul\":9029:9032   */\n      0xe0\n        /* \"#utility.yul\":9018:9027   */\n      dup6\n        /* \"#utility.yul\":9014:9033   */\n      add\n        /* \"#utility.yul\":9000:9012   */\n      dup3\n        /* \"#utility.yul\":8982:9034   */\n      tag_247\n      jump\t// in\n    tag_336:\n        /* \"#utility.yul\":8968:9034   */\n      swap1\n      pop\n        /* \"#utility.yul\":9083:9085   */\n      dup2\n        /* \"#utility.yul\":9075:9081   */\n      dup6\n        /* \"#utility.yul\":9071:9086   */\n      add\n        /* \"#utility.yul\":9065:9087   */\n      mload\n        /* \"#utility.yul\":9110:9112   */\n      0x1f\n        /* \"#utility.yul\":9106:9113   */\n      not\n        /* \"#utility.yul\":9177:9179   */\n      dup1\n        /* \"#utility.yul\":9165:9174   */\n      dup7\n        /* \"#utility.yul\":9157:9163   */\n      dup5\n        /* \"#utility.yul\":9153:9175   */\n      sub\n        /* \"#utility.yul\":9149:9180   */\n      add\n        /* \"#utility.yul\":9144:9146   */\n      0x40\n        /* \"#utility.yul\":9133:9142   */\n      dup8\n        /* \"#utility.yul\":9129:9147   */\n      add\n        /* \"#utility.yul\":9122:9181   */\n      mstore\n        /* \"#utility.yul\":9204:9245   */\n      tag_337\n        /* \"#utility.yul\":9238:9244   */\n      dup4\n        /* \"#utility.yul\":9222:9236   */\n      dup4\n        /* \"#utility.yul\":9204:9245   */\n      tag_247\n      jump\t// in\n    tag_337:\n        /* \"#utility.yul\":9190:9245   */\n      swap3\n      pop\n        /* \"#utility.yul\":9299:9301   */\n      0x40\n        /* \"#utility.yul\":9291:9297   */\n      dup8\n        /* \"#utility.yul\":9287:9302   */\n      add\n        /* \"#utility.yul\":9281:9303   */\n      mload\n        /* \"#utility.yul\":9276:9278   */\n      0x60\n        /* \"#utility.yul\":9265:9274   */\n      dup8\n        /* \"#utility.yul\":9261:9279   */\n      add\n        /* \"#utility.yul\":9254:9304   */\n      mstore\n        /* \"#utility.yul\":9353:9355   */\n      0x60\n        /* \"#utility.yul\":9345:9351   */\n      dup8\n        /* \"#utility.yul\":9341:9356   */\n      add\n        /* \"#utility.yul\":9335:9357   */\n      mload\n        /* \"#utility.yul\":9313:9357   */\n      swap2\n      pop\n        /* \"#utility.yul\":9422:9424   */\n      dup1\n        /* \"#utility.yul\":9410:9419   */\n      dup7\n        /* \"#utility.yul\":9402:9408   */\n      dup5\n        /* \"#utility.yul\":9398:9420   */\n      sub\n        /* \"#utility.yul\":9394:9425   */\n      add\n        /* \"#utility.yul\":9388:9391   */\n      0x80\n        /* \"#utility.yul\":9377:9386   */\n      dup8\n        /* \"#utility.yul\":9373:9392   */\n      add\n        /* \"#utility.yul\":9366:9426   */\n      mstore\n        /* \"#utility.yul\":9449:9500   */\n      tag_338\n        /* \"#utility.yul\":9493:9499   */\n      dup4\n        /* \"#utility.yul\":9477:9491   */\n      dup4\n        /* \"#utility.yul\":9449:9500   */\n      tag_248\n      jump\t// in\n    tag_338:\n        /* \"#utility.yul\":9549:9552   */\n      0x80\n        /* \"#utility.yul\":9537:9553   */\n      dup9\n      add\n        /* \"#utility.yul\":9531:9554   */\n      mload\n        /* \"#utility.yul\":9595:9617   */\n      dup8\n      dup3\n      sub\n        /* \"#utility.yul\":9591:9622   */\n      dup4\n      add\n        /* \"#utility.yul\":9585:9588   */\n      0xa0\n        /* \"#utility.yul\":9570:9589   */\n      dup10\n      add\n        /* \"#utility.yul\":9563:9623   */\n      mstore\n        /* \"#utility.yul\":9672:9693   */\n      dup1\n      mload\n        /* \"#utility.yul\":9702:9724   */\n      dup1\n      dup4\n      mstore\n        /* \"#utility.yul\":9778:9801   */\n      swap1\n      dup7\n      add\n      swap5\n      pop\n        /* \"#utility.yul\":9819:9820   */\n      0x00\n      swap4\n      pop\n        /* \"#utility.yul\":9740:9755   */\n      swap1\n      dup6\n      add\n      swap1\n        /* \"#utility.yul\":9829:9998   */\n    tag_339:\n        /* \"#utility.yul\":9843:9849   */\n      dup1\n        /* \"#utility.yul\":9840:9841   */\n      dup5\n        /* \"#utility.yul\":9837:9850   */\n      lt\n        /* \"#utility.yul\":9829:9998   */\n      iszero\n      tag_341\n      jumpi\n        /* \"#utility.yul\":9904:9917   */\n      dup5\n      mload\n        /* \"#utility.yul\":9892:9918   */\n      dup3\n      mstore\n        /* \"#utility.yul\":9973:9988   */\n      swap4\n      dup6\n      add\n      swap4\n        /* \"#utility.yul\":9865:9866   */\n      0x01\n        /* \"#utility.yul\":9858:9867   */\n      swap4\n      swap1\n      swap4\n      add\n      swap3\n        /* \"#utility.yul\":9938:9950   */\n      swap1\n      dup6\n      add\n      swap1\n        /* \"#utility.yul\":9829:9998   */\n      jump(tag_339)\n    tag_341:\n        /* \"#utility.yul\":9833:9836   */\n      pop\n        /* \"#utility.yul\":10047:10050   */\n      0xa0\n        /* \"#utility.yul\":10039:10045   */\n      dup9\n        /* \"#utility.yul\":10035:10051   */\n      add\n        /* \"#utility.yul\":10029:10052   */\n      mload\n        /* \"#utility.yul\":10007:10052   */\n      swap5\n      pop\n        /* \"#utility.yul\":10115:10117   */\n      dup2\n        /* \"#utility.yul\":10103:10112   */\n      dup8\n        /* \"#utility.yul\":10098:10101   */\n      dup3\n        /* \"#utility.yul\":10094:10113   */\n      sub\n        /* \"#utility.yul\":10090:10118   */\n      add\n        /* \"#utility.yul\":10083:10087   */\n      0xc0\n        /* \"#utility.yul\":10072:10081   */\n      dup9\n        /* \"#utility.yul\":10068:10088   */\n      add\n        /* \"#utility.yul\":10061:10119   */\n      mstore\n        /* \"#utility.yul\":10136:10185   */\n      tag_342\n        /* \"#utility.yul\":10181:10184   */\n      dup2\n        /* \"#utility.yul\":10165:10179   */\n      dup7\n        /* \"#utility.yul\":10136:10185   */\n      tag_249\n      jump\t// in\n    tag_342:\n        /* \"#utility.yul\":10128:10185   */\n      swap9\n        /* \"#utility.yul\":8671:10191   */\n      swap8\n      pop\n      pop\n      pop\n      pop\n      pop\n      pop\n      pop\n      pop\n      jump\t// out\n        /* \"#utility.yul\":10196:11198   */\n    tag_66:\n        /* \"#utility.yul\":10383:10385   */\n      0x20\n        /* \"#utility.yul\":10372:10381   */\n      dup2\n        /* \"#utility.yul\":10365:10386   */\n      mstore\n        /* \"#utility.yul\":10428:10434   */\n      dup2\n        /* \"#utility.yul\":10422:10435   */\n      mload\n        /* \"#utility.yul\":10417:10419   */\n      0x20\n        /* \"#utility.yul\":10406:10415   */\n      dup3\n        /* \"#utility.yul\":10402:10420   */\n      add\n        /* \"#utility.yul\":10395:10436   */\n      mstore\n        /* \"#utility.yul\":10346:10350   */\n      0x00\n        /* \"#utility.yul\":10483:10485   */\n      0x20\n        /* \"#utility.yul\":10475:10481   */\n      dup4\n        /* \"#utility.yul\":10471:10486   */\n      add\n        /* \"#utility.yul\":10465:10487   */\n      mload\n        /* \"#utility.yul\":10523:10527   */\n      0xa0\n        /* \"#utility.yul\":10518:10520   */\n      0x40\n        /* \"#utility.yul\":10507:10516   */\n      dup5\n        /* \"#utility.yul\":10503:10521   */\n      add\n        /* \"#utility.yul\":10496:10528   */\n      mstore\n        /* \"#utility.yul\":10551:10603   */\n      tag_344\n        /* \"#utility.yul\":10598:10601   */\n      0xc0\n        /* \"#utility.yul\":10587:10596   */\n      dup5\n        /* \"#utility.yul\":10583:10602   */\n      add\n        /* \"#utility.yul\":10569:10581   */\n      dup3\n        /* \"#utility.yul\":10551:10603   */\n      tag_247\n      jump\t// in\n    tag_344:\n        /* \"#utility.yul\":10537:10603   */\n      swap1\n      pop\n        /* \"#utility.yul\":10652:10654   */\n      0x40\n        /* \"#utility.yul\":10644:10650   */\n      dup5\n        /* \"#utility.yul\":10640:10655   */\n      add\n        /* \"#utility.yul\":10634:10656   */\n      mload\n        /* \"#utility.yul\":10679:10681   */\n      0x1f\n        /* \"#utility.yul\":10675:10682   */\n      not\n        /* \"#utility.yul\":10746:10748   */\n      dup1\n        /* \"#utility.yul\":10734:10743   */\n      dup6\n        /* \"#utility.yul\":10726:10732   */\n      dup5\n        /* \"#utility.yul\":10722:10744   */\n      sub\n        /* \"#utility.yul\":10718:10749   */\n      add\n        /* \"#utility.yul\":10713:10715   */\n      0x60\n        /* \"#utility.yul\":10702:10711   */\n      dup7\n        /* \"#utility.yul\":10698:10716   */\n      add\n        /* \"#utility.yul\":10691:10750   */\n      mstore\n        /* \"#utility.yul\":10773:10814   */\n      tag_345\n        /* \"#utility.yul\":10807:10813   */\n      dup4\n        /* \"#utility.yul\":10791:10805   */\n      dup4\n        /* \"#utility.yul\":10773:10814   */\n      tag_247\n      jump\t// in\n    tag_345:\n        /* \"#utility.yul\":10759:10814   */\n      swap3\n      pop\n        /* \"#utility.yul\":10863:10865   */\n      0x60\n        /* \"#utility.yul\":10855:10861   */\n      dup7\n        /* \"#utility.yul\":10851:10866   */\n      add\n        /* \"#utility.yul\":10845:10867   */\n      mload\n        /* \"#utility.yul\":10823:10867   */\n      swap2\n      pop\n        /* \"#utility.yul\":10932:10934   */\n      dup1\n        /* \"#utility.yul\":10920:10929   */\n      dup6\n        /* \"#utility.yul\":10912:10918   */\n      dup5\n        /* \"#utility.yul\":10908:10930   */\n      sub\n        /* \"#utility.yul\":10904:10935   */\n      add\n        /* \"#utility.yul\":10898:10901   */\n      0x80\n        /* \"#utility.yul\":10887:10896   */\n      dup7\n        /* \"#utility.yul\":10883:10902   */\n      add\n        /* \"#utility.yul\":10876:10936   */\n      mstore\n        /* \"#utility.yul\":10959:11000   */\n      tag_346\n        /* \"#utility.yul\":10993:10999   */\n      dup4\n        /* \"#utility.yul\":10977:10991   */\n      dup4\n        /* \"#utility.yul\":10959:11000   */\n      tag_247\n      jump\t// in\n    tag_346:\n        /* \"#utility.yul\":10945:11000   */\n      swap3\n      pop\n        /* \"#utility.yul\":11049:11052   */\n      0x80\n        /* \"#utility.yul\":11041:11047   */\n      dup7\n        /* \"#utility.yul\":11037:11053   */\n      add\n        /* \"#utility.yul\":11031:11054   */\n      mload\n        /* \"#utility.yul\":11009:11054   */\n      swap2\n      pop\n        /* \"#utility.yul\":11120:11122   */\n      dup1\n        /* \"#utility.yul\":11108:11117   */\n      dup6\n        /* \"#utility.yul\":11100:11106   */\n      dup5\n        /* \"#utility.yul\":11096:11118   */\n      sub\n        /* \"#utility.yul\":11092:11123   */\n      add\n        /* \"#utility.yul\":11085:11089   */\n      0xa0\n        /* \"#utility.yul\":11074:11083   */\n      dup7\n        /* \"#utility.yul\":11070:11090   */\n      add\n        /* \"#utility.yul\":11063:11124   */\n      mstore\n      pop\n        /* \"#utility.yul\":11141:11192   */\n      tag_347\n        /* \"#utility.yul\":11185:11191   */\n      dup3\n        /* \"#utility.yul\":11169:11183   */\n      dup3\n        /* \"#utility.yul\":11141:11192   */\n      tag_248\n      jump\t// in\n    tag_347:\n        /* \"#utility.yul\":11133:11192   */\n      swap6\n        /* \"#utility.yul\":10196:11198   */\n      swap5\n      pop\n      pop\n      pop\n      pop\n      pop\n      jump\t// out\n        /* \"#utility.yul\":11203:11617   */\n    tag_70:\n        /* \"#utility.yul\":11405:11407   */\n      0x20\n        /* \"#utility.yul\":11387:11408   */\n      dup1\n      dup3\n      mstore\n        /* \"#utility.yul\":11444:11446   */\n      0x32\n        /* \"#utility.yul\":11424:11442   */\n      swap1\n      dup3\n      add\n        /* \"#utility.yul\":11417:11447   */\n      mstore\n        /* \"#utility.yul\":11483:11517   */\n      0x4f6e6c792074686520636f6e7472616374206f776e65722063616e2070657266\n        /* \"#utility.yul\":11478:11480   */\n      0x40\n        /* \"#utility.yul\":11463:11481   */\n      dup3\n      add\n        /* \"#utility.yul\":11456:11518   */\n      mstore\n      shl(0x71, 0x37b936903a3434b99037b832b930ba34b7b7)\n        /* \"#utility.yul\":11549:11551   */\n      0x60\n        /* \"#utility.yul\":11534:11552   */\n      dup3\n      add\n        /* \"#utility.yul\":11527:11575   */\n      mstore\n        /* \"#utility.yul\":11607:11610   */\n      0x80\n        /* \"#utility.yul\":11592:11611   */\n      add\n      swap1\n        /* \"#utility.yul\":11203:11617   */\n      jump\t// out\n        /* \"#utility.yul\":11622:12002   */\n    tag_120:\n        /* \"#utility.yul\":11701:11702   */\n      0x01\n        /* \"#utility.yul\":11697:11709   */\n      dup2\n      dup2\n      shr\n      swap1\n        /* \"#utility.yul\":11744:11756   */\n      dup3\n      and\n      dup1\n        /* \"#utility.yul\":11765:11826   */\n      tag_350\n      jumpi\n        /* \"#utility.yul\":11819:11823   */\n      0x7f\n        /* \"#utility.yul\":11811:11817   */\n      dup3\n        /* \"#utility.yul\":11807:11824   */\n      and\n        /* \"#utility.yul\":11797:11824   */\n      swap2\n      pop\n        /* \"#utility.yul\":11765:11826   */\n    tag_350:\n        /* \"#utility.yul\":11872:11874   */\n      0x20\n        /* \"#utility.yul\":11864:11870   */\n      dup3\n        /* \"#utility.yul\":11861:11875   */\n      lt\n        /* \"#utility.yul\":11841:11859   */\n      dup2\n        /* \"#utility.yul\":11838:11876   */\n      sub\n        /* \"#utility.yul\":11835:11996   */\n      tag_351\n      jumpi\n        /* \"#utility.yul\":11918:11928   */\n      0x4e487b71\n        /* \"#utility.yul\":11913:11916   */\n      0xe0\n        /* \"#utility.yul\":11909:11929   */\n      shl\n        /* \"#utility.yul\":11906:11907   */\n      0x00\n        /* \"#utility.yul\":11899:11930   */\n      mstore\n        /* \"#utility.yul\":11953:11957   */\n      0x22\n        /* \"#utility.yul\":11950:11951   */\n      0x04\n        /* \"#utility.yul\":11943:11958   */\n      mstore\n        /* \"#utility.yul\":11981:11985   */\n      0x24\n        /* \"#utility.yul\":11978:11979   */\n      0x00\n        /* \"#utility.yul\":11971:11986   */\n      revert\n        /* \"#utility.yul\":11835:11996   */\n    tag_351:\n      pop\n        /* \"#utility.yul\":11622:12002   */\n      swap2\n      swap1\n      pop\n      jump\t// out\n        /* \"#utility.yul\":12133:12651   */\n    tag_251:\n        /* \"#utility.yul\":12235:12237   */\n      0x1f\n        /* \"#utility.yul\":12230:12233   */\n      dup3\n        /* \"#utility.yul\":12227:12238   */\n      gt\n        /* \"#utility.yul\":12224:12645   */\n      iszero\n      tag_354\n      jumpi\n        /* \"#utility.yul\":12271:12276   */\n      dup1\n        /* \"#utility.yul\":12268:12269   */\n      0x00\n        /* \"#utility.yul\":12261:12277   */\n      mstore\n        /* \"#utility.yul\":12315:12319   */\n      0x20\n        /* \"#utility.yul\":12312:12313   */\n      0x00\n        /* \"#utility.yul\":12302:12320   */\n      keccak256\n        /* \"#utility.yul\":12385:12387   */\n      0x1f\n        /* \"#utility.yul\":12373:12383   */\n      dup5\n        /* \"#utility.yul\":12369:12388   */\n      add\n        /* \"#utility.yul\":12366:12367   */\n      0x05\n        /* \"#utility.yul\":12362:12389   */\n      shr\n        /* \"#utility.yul\":12356:12360   */\n      dup2\n        /* \"#utility.yul\":12352:12390   */\n      add\n        /* \"#utility.yul\":12421:12425   */\n      0x20\n        /* \"#utility.yul\":12409:12419   */\n      dup6\n        /* \"#utility.yul\":12406:12426   */\n      lt\n        /* \"#utility.yul\":12403:12450   */\n      iszero\n      tag_355\n      jumpi\n      pop\n        /* \"#utility.yul\":12444:12448   */\n      dup1\n        /* \"#utility.yul\":12403:12450   */\n    tag_355:\n        /* \"#utility.yul\":12499:12501   */\n      0x1f\n        /* \"#utility.yul\":12494:12497   */\n      dup5\n        /* \"#utility.yul\":12490:12502   */\n      add\n        /* \"#utility.yul\":12487:12488   */\n      0x05\n        /* \"#utility.yul\":12483:12503   */\n      shr\n        /* \"#utility.yul\":12477:12481   */\n      dup3\n        /* \"#utility.yul\":12473:12504   */\n      add\n        /* \"#utility.yul\":12463:12504   */\n      swap2\n      pop\n        /* \"#utility.yul\":12554:12635   */\n    tag_356:\n        /* \"#utility.yul\":12572:12574   */\n      dup2\n        /* \"#utility.yul\":12565:12570   */\n      dup2\n        /* \"#utility.yul\":12562:12575   */\n      lt\n        /* \"#utility.yul\":12554:12635   */\n      iszero\n      tag_358\n      jumpi\n        /* \"#utility.yul\":12631:12632   */\n      0x00\n        /* \"#utility.yul\":12617:12633   */\n      dup2\n      sstore\n        /* \"#utility.yul\":12598:12599   */\n      0x01\n        /* \"#utility.yul\":12587:12600   */\n      add\n        /* \"#utility.yul\":12554:12635   */\n      jump(tag_356)\n    tag_358:\n        /* \"#utility.yul\":12558:12561   */\n      pop\n      pop\n        /* \"#utility.yul\":12224:12645   */\n    tag_354:\n        /* \"#utility.yul\":12133:12651   */\n      pop\n      pop\n      pop\n      jump\t// out\n        /* \"#utility.yul\":12827:14172   */\n    tag_73:\n        /* \"#utility.yul\":12953:12956   */\n      dup2\n        /* \"#utility.yul\":12947:12957   */\n      mload\n        /* \"#utility.yul\":12980:12998   */\n      0xffffffffffffffff\n        /* \"#utility.yul\":12972:12978   */\n      dup2\n        /* \"#utility.yul\":12969:12999   */\n      gt\n        /* \"#utility.yul\":12966:13022   */\n      iszero\n      tag_362\n      jumpi\n        /* \"#utility.yul\":13002:13020   */\n      tag_362\n      tag_132\n      jump\t// in\n    tag_362:\n        /* \"#utility.yul\":13031:13128   */\n      tag_363\n        /* \"#utility.yul\":13121:13127   */\n      dup2\n        /* \"#utility.yul\":13081:13119   */\n      tag_364\n        /* \"#utility.yul\":13113:13117   */\n      dup5\n        /* \"#utility.yul\":13107:13118   */\n      sload\n        /* \"#utility.yul\":13081:13119   */\n      tag_120\n      jump\t// in\n    tag_364:\n        /* \"#utility.yul\":13075:13079   */\n      dup5\n        /* \"#utility.yul\":13031:13128   */\n      tag_251\n      jump\t// in\n    tag_363:\n        /* \"#utility.yul\":13183:13187   */\n      0x20\n      dup1\n        /* \"#utility.yul\":13240:13242   */\n      0x1f\n        /* \"#utility.yul\":13229:13243   */\n      dup4\n      gt\n        /* \"#utility.yul\":13257:13258   */\n      0x01\n        /* \"#utility.yul\":13252:13915   */\n      dup2\n      eq\n      tag_366\n      jumpi\n        /* \"#utility.yul\":13959:13960   */\n      0x00\n        /* \"#utility.yul\":13976:13982   */\n      dup5\n        /* \"#utility.yul\":13973:14062   */\n      iszero\n      tag_367\n      jumpi\n      pop\n        /* \"#utility.yul\":14028:14047   */\n      dup6\n      dup4\n      add\n        /* \"#utility.yul\":14022:14048   */\n      mload\n        /* \"#utility.yul\":13973:14062   */\n    tag_367:\n      not(0x00)\n        /* \"#utility.yul\":12784:12785   */\n      0x03\n        /* \"#utility.yul\":12780:12791   */\n      dup7\n      swap1\n      shl\n        /* \"#utility.yul\":12776:12800   */\n      shr\n        /* \"#utility.yul\":12772:12801   */\n      not\n        /* \"#utility.yul\":12762:12802   */\n      and\n        /* \"#utility.yul\":12808:12809   */\n      0x01\n        /* \"#utility.yul\":12804:12815   */\n      dup6\n      swap1\n      shl\n        /* \"#utility.yul\":12759:12816   */\n      or\n        /* \"#utility.yul\":14075:14156   */\n      dup6\n      sstore\n        /* \"#utility.yul\":13222:14166   */\n      jump(tag_365)\n        /* \"#utility.yul\":13252:13915   */\n    tag_366:\n        /* \"#utility.yul\":12080:12081   */\n      0x00\n        /* \"#utility.yul\":12073:12087   */\n      dup6\n      dup2\n      mstore\n        /* \"#utility.yul\":12117:12121   */\n      0x20\n        /* \"#utility.yul\":12104:12122   */\n      dup2\n      keccak256\n      not(0x1f)\n        /* \"#utility.yul\":13288:13308   */\n      dup7\n      and\n      swap2\n        /* \"#utility.yul\":13406:13642   */\n    tag_370:\n        /* \"#utility.yul\":13420:13427   */\n      dup3\n        /* \"#utility.yul\":13417:13418   */\n      dup2\n        /* \"#utility.yul\":13414:13428   */\n      lt\n        /* \"#utility.yul\":13406:13642   */\n      iszero\n      tag_372\n      jumpi\n        /* \"#utility.yul\":13509:13528   */\n      dup9\n      dup7\n      add\n        /* \"#utility.yul\":13503:13529   */\n      mload\n        /* \"#utility.yul\":13488:13530   */\n      dup3\n      sstore\n        /* \"#utility.yul\":13601:13628   */\n      swap5\n      dup5\n      add\n      swap5\n        /* \"#utility.yul\":13569:13570   */\n      0x01\n        /* \"#utility.yul\":13557:13571   */\n      swap1\n      swap2\n      add\n      swap1\n        /* \"#utility.yul\":13436:13455   */\n      dup5\n      add\n        /* \"#utility.yul\":13406:13642   */\n      jump(tag_370)\n    tag_372:\n        /* \"#utility.yul\":13410:13413   */\n      pop\n        /* \"#utility.yul\":13670:13676   */\n      dup6\n        /* \"#utility.yul\":13661:13668   */\n      dup3\n        /* \"#utility.yul\":13658:13677   */\n      lt\n        /* \"#utility.yul\":13655:13856   */\n      iszero\n      tag_373\n      jumpi\n        /* \"#utility.yul\":13731:13750   */\n      dup8\n      dup6\n      add\n        /* \"#utility.yul\":13725:13751   */\n      mload\n      not(0x00)\n        /* \"#utility.yul\":13814:13815   */\n      0x03\n        /* \"#utility.yul\":13810:13824   */\n      dup9\n      swap1\n      shl\n        /* \"#utility.yul\":13826:13829   */\n      0xf8\n        /* \"#utility.yul\":13806:13830   */\n      and\n        /* \"#utility.yul\":13802:13839   */\n      shr\n        /* \"#utility.yul\":13798:13840   */\n      not\n        /* \"#utility.yul\":13783:13841   */\n      and\n        /* \"#utility.yul\":13768:13842   */\n      dup2\n      sstore\n        /* \"#utility.yul\":13655:13856   */\n    tag_373:\n      pop\n      pop\n        /* \"#utility.yul\":13902:13903   */\n      0x01\n        /* \"#utility.yul\":13893:13899   */\n      dup5\n        /* \"#utility.yul\":13890:13891   */\n      0x01\n        /* \"#utility.yul\":13886:13900   */\n      shl\n        /* \"#utility.yul\":13882:13904   */\n      add\n        /* \"#utility.yul\":13876:13880   */\n      dup6\n        /* \"#utility.yul\":13869:13905   */\n      sstore\n        /* \"#utility.yul\":13222:14166   */\n    tag_365:\n      pop\n      pop\n      pop\n      pop\n        /* \"#utility.yul\":12827:14172   */\n      pop\n      pop\n      jump\t// out\n        /* \"#utility.yul\":14177:14409   */\n    tag_79:\n        /* \"#utility.yul\":14216:14219   */\n      0x00\n        /* \"#utility.yul\":14237:14254   */\n      0x01\n      dup3\n      add\n        /* \"#utility.yul\":14234:14374   */\n      tag_375\n      jumpi\n        /* \"#utility.yul\":14296:14306   */\n      0x4e487b71\n        /* \"#utility.yul\":14291:14294   */\n      0xe0\n        /* \"#utility.yul\":14287:14307   */\n      shl\n        /* \"#utility.yul\":14284:14285   */\n      0x00\n        /* \"#utility.yul\":14277:14308   */\n      mstore\n        /* \"#utility.yul\":14331:14335   */\n      0x11\n        /* \"#utility.yul\":14328:14329   */\n      0x04\n        /* \"#utility.yul\":14321:14336   */\n      mstore\n        /* \"#utility.yul\":14359:14363   */\n      0x24\n        /* \"#utility.yul\":14356:14357   */\n      0x00\n        /* \"#utility.yul\":14349:14364   */\n      revert\n        /* \"#utility.yul\":14234:14374   */\n    tag_375:\n      pop\n        /* \"#utility.yul\":14401:14402   */\n      0x01\n        /* \"#utility.yul\":14390:14403   */\n      add\n      swap1\n        /* \"#utility.yul\":14177:14409   */\n      jump\t// out\n        /* \"#utility.yul\":14414:14766   */\n    tag_89:\n        /* \"#utility.yul\":14616:14618   */\n      0x20\n        /* \"#utility.yul\":14598:14619   */\n      dup1\n      dup3\n      mstore\n        /* \"#utility.yul\":14655:14657   */\n      0x1c\n        /* \"#utility.yul\":14635:14653   */\n      swap1\n      dup3\n      add\n        /* \"#utility.yul\":14628:14658   */\n      mstore\n        /* \"#utility.yul\":14694:14724   */\n      0x506572736f6e616c4461746120646f6573206e6f742065786973742e00000000\n        /* \"#utility.yul\":14689:14691   */\n      0x40\n        /* \"#utility.yul\":14674:14692   */\n      dup3\n      add\n        /* \"#utility.yul\":14667:14725   */\n      mstore\n        /* \"#utility.yul\":14757:14759   */\n      0x60\n        /* \"#utility.yul\":14742:14760   */\n      add\n      swap1\n        /* \"#utility.yul\":14414:14766   */\n      jump\t// out\n        /* \"#utility.yul\":14771:15494   */\n    tag_253:\n        /* \"#utility.yul\":14821:14824   */\n      0x00\n        /* \"#utility.yul\":14862:14867   */\n      dup2\n        /* \"#utility.yul\":14856:14868   */\n      sload\n        /* \"#utility.yul\":14891:14927   */\n      tag_378\n        /* \"#utility.yul\":14917:14926   */\n      dup2\n        /* \"#utility.yul\":14891:14927   */\n      tag_120\n      jump\t// in\n    tag_378:\n        /* \"#utility.yul\":14946:14947   */\n      0x01\n        /* \"#utility.yul\":14963:14980   */\n      dup3\n      dup2\n      and\n        /* \"#utility.yul\":14989:15122   */\n      dup1\n      iszero\n      tag_380\n      jumpi\n        /* \"#utility.yul\":15136:15137   */\n      0x01\n        /* \"#utility.yul\":15131:15488   */\n      dup2\n      eq\n      tag_381\n      jumpi\n        /* \"#utility.yul\":14956:15488   */\n      jump(tag_379)\n        /* \"#utility.yul\":14989:15122   */\n    tag_380:\n      not(0xff)\n        /* \"#utility.yul\":15022:15046   */\n      dup5\n      and\n        /* \"#utility.yul\":15010:15047   */\n      dup8\n      mstore\n        /* \"#utility.yul\":15095:15109   */\n      dup3\n      iszero\n        /* \"#utility.yul\":15088:15110   */\n      iszero\n        /* \"#utility.yul\":15076:15111   */\n      dup4\n      mul\n        /* \"#utility.yul\":15067:15112   */\n      dup8\n      add\n      swap5\n      pop\n        /* \"#utility.yul\":14989:15122   */\n      jump(tag_379)\n        /* \"#utility.yul\":15131:15488   */\n    tag_381:\n        /* \"#utility.yul\":15162:15167   */\n      dup6\n        /* \"#utility.yul\":15159:15160   */\n      0x00\n        /* \"#utility.yul\":15152:15168   */\n      mstore\n        /* \"#utility.yul\":15191:15195   */\n      0x20\n        /* \"#utility.yul\":15236:15240   */\n      dup1\n        /* \"#utility.yul\":15233:15234   */\n      0x00\n        /* \"#utility.yul\":15223:15241   */\n      keccak256\n        /* \"#utility.yul\":15263:15264   */\n      0x00\n        /* \"#utility.yul\":15277:15442   */\n    tag_382:\n        /* \"#utility.yul\":15291:15297   */\n      dup6\n        /* \"#utility.yul\":15288:15289   */\n      dup2\n        /* \"#utility.yul\":15285:15298   */\n      lt\n        /* \"#utility.yul\":15277:15442   */\n      iszero\n      tag_384\n      jumpi\n        /* \"#utility.yul\":15369:15383   */\n      dup2\n      sload\n        /* \"#utility.yul\":15356:15367   */\n      dup11\n      dup3\n      add\n        /* \"#utility.yul\":15349:15384   */\n      mstore\n        /* \"#utility.yul\":15412:15428   */\n      swap1\n      dup5\n      add\n      swap1\n        /* \"#utility.yul\":15306:15316   */\n      dup3\n      add\n        /* \"#utility.yul\":15277:15442   */\n      jump(tag_382)\n    tag_384:\n        /* \"#utility.yul\":15281:15284   */\n      pop\n      pop\n      pop\n        /* \"#utility.yul\":15471:15477   */\n      dup3\n        /* \"#utility.yul\":15466:15469   */\n      dup8\n        /* \"#utility.yul\":15462:15478   */\n      add\n        /* \"#utility.yul\":15455:15478   */\n      swap5\n      pop\n        /* \"#utility.yul\":14956:15488   */\n    tag_379:\n      pop\n      pop\n      pop\n      pop\n        /* \"#utility.yul\":14771:15494   */\n      swap3\n      swap2\n      pop\n      pop\n      jump\t// out\n        /* \"#utility.yul\":15499:15856   */\n    tag_91:\n        /* \"#utility.yul\":15717:15720   */\n      0x00\n        /* \"#utility.yul\":15742:15850   */\n      tag_347\n        /* \"#utility.yul\":15776:15849   */\n      tag_387\n        /* \"#utility.yul\":15810:15848   */\n      tag_388\n        /* \"#utility.yul\":15844:15847   */\n      dup5\n        /* \"#utility.yul\":15836:15842   */\n      dup9\n        /* \"#utility.yul\":15810:15848   */\n      tag_253\n      jump\t// in\n    tag_388:\n        /* \"#utility.yul\":15802:15808   */\n      dup7\n        /* \"#utility.yul\":15776:15849   */\n      tag_253\n      jump\t// in\n    tag_387:\n        /* \"#utility.yul\":15768:15774   */\n      dup5\n        /* \"#utility.yul\":15742:15850   */\n      tag_253\n      jump\t// in\n        /* \"#utility.yul\":15861:15988   */\n    tag_97:\n        /* \"#utility.yul\":15922:15932   */\n      0x4e487b71\n        /* \"#utility.yul\":15917:15920   */\n      0xe0\n        /* \"#utility.yul\":15913:15933   */\n      shl\n        /* \"#utility.yul\":15910:15911   */\n      0x00\n        /* \"#utility.yul\":15903:15934   */\n      mstore\n        /* \"#utility.yul\":15953:15957   */\n      0x32\n        /* \"#utility.yul\":15950:15951   */\n      0x04\n        /* \"#utility.yul\":15943:15958   */\n      mstore\n        /* \"#utility.yul\":15977:15981   */\n      0x24\n        /* \"#utility.yul\":15974:15975   */\n      0x00\n        /* \"#utility.yul\":15967:15982   */\n      revert\n        /* \"#utility.yul\":15993:16360   */\n    tag_100:\n        /* \"#utility.yul\":16167:16170   */\n      0x00\n        /* \"#utility.yul\":16205:16211   */\n      dup4\n        /* \"#utility.yul\":16199:16212   */\n      mload\n        /* \"#utility.yul\":16221:16287   */\n      tag_391\n        /* \"#utility.yul\":16280:16286   */\n      dup2\n        /* \"#utility.yul\":16275:16278   */\n      dup5\n        /* \"#utility.yul\":16268:16272   */\n      0x20\n        /* \"#utility.yul\":16260:16266   */\n      dup9\n        /* \"#utility.yul\":16256:16273   */\n      add\n        /* \"#utility.yul\":16221:16287   */\n      tag_246\n      jump\t// in\n    tag_391:\n        /* \"#utility.yul\":16303:16354   */\n      tag_347\n        /* \"#utility.yul\":16346:16352   */\n      dup2\n        /* \"#utility.yul\":16341:16344   */\n      dup5\n        /* \"#utility.yul\":16337:16353   */\n      add\n        /* \"#utility.yul\":16329:16335   */\n      dup6\n        /* \"#utility.yul\":16303:16354   */\n      tag_253\n      jump\t// in\n\n    auxdata: 0xa2646970667358221220623d26cb6e10d89ed50fff416b99834b6c140fd1656333d96bd01ad6ae2cc92864736f6c63430008180033\n}\n",
				"bytecode": {
					"linkReferences": {},
					"object": "60806040525f6005555f600755348015610017575f80fd5b505f80546001600160a01b03191633179055611940806100365f395ff3fe608060405234801561000f575f80fd5b50600436106100b1575f3560e01c80639d8a91901161006e5780639d8a91901461013f578063b61798f614610152578063c585665d14610165578063ca07b12214610185578063d2b0649a14610198578063d8a761d9146101b8575f80fd5b80630dab7cd9146100b55780633a918356146100ca5780633f81de59146100e85780634b58fbe9146100fb578063682477d71461010d5780638da5cb5b14610115575b5f80fd5b6100c86100c3366004611185565b6101d8565b005b6100d26102bb565b6040516100df9190611234565b60405180910390f35b6100c86100f6366004611277565b610311565b6007545b6040519081526020016100df565b6005546100ff565b5f54610127906001600160a01b031681565b6040516001600160a01b0390911681526020016100df565b6100c861014d36600461128e565b61040e565b6100ff610160366004611277565b6104d8565b610178610173366004611277565b61054a565b6040516100df919061133b565b6100c8610193366004611379565b610685565b6101ab6101a6366004611277565b6108a9565b6040516100df919061150d565b6101cb6101c6366004611277565b610bf9565b6040516100df91906115d5565b5f546001600160a01b0316331461020a5760405162461bcd60e51b81526004016102019061165c565b60405180910390fd5b6040805160a081018252868152602080820187815282840187905260608301869052608083018590525f898152600390925292902081518155915190919060018201906102579082611732565b506040820151600282019061026c9082611732565b50606082015160038201906102819082611732565b506080820151805161029d916004840191602090910190610f23565b50506007805491505f6102af836117f2565b91905055505050505050565b6060600680548060200260200160405190810160405280929190818152602001828054801561030757602002820191905f5260205f20905b8154815260200190600101908083116102f3575b5050505050905090565b5f546001600160a01b0316331461033a5760405162461bcd60e51b81526004016102019061165c565b600754811061035b5760405162461bcd60e51b815260040161020190611816565b5f8181526003602081815260409283902092516060926103889260018601926002870192870191016118bc565b60405160208183030381529060405290505f5b60048301548110156103f057818360040182815481106103bd576103bd6118d9565b905f5260205f20016040516020016103d69291906118ed565b60408051601f19818403018152919052915060010161039b565b5080516020918201205f938452600490915260409092209190915550565b5f546001600160a01b031633146104375760405162461bcd60e51b81526004016102019061165c565b604080516060810182528481526001600160a01b0384811660208084019182528385018681525f898152600292839052959095208451815591516001830180546001600160a01b031916919094161790925592519192919082019061049c9082611732565b5050600680546001810182555f919091527ff652222313e28459528d920b65115c16c04f3efc82aaedc97be59f3f377c0d3f0193909355505050565b5f60075482106105385760405162461bcd60e51b815260206004820152602560248201527f50726f636573736564506572736f6e616c4461746120646f6573206e6f7420656044820152643c34b9ba1760d91b6064820152608401610201565b505f9081526004602052604090205490565b60408051606080820183525f8083526020830152918101919091525f8281526002602052604081205490036105b95760405162461bcd60e51b815260206004820152601560248201527420b1ba37b9103237b2b9903737ba1032bc34b9ba1760591b6044820152606401610201565b5f8281526002602081815260409283902083516060810185528154815260018201546001600160a01b031692810192909252918201805491938401916105fe906116ae565b80601f016020809104026020016040519081016040528092919081815260200182805461062a906116ae565b80156106755780601f1061064c57610100808354040283529160200191610675565b820191905f5260205f20905b81548152906001019060200180831161065857829003601f168201915b5050505050815250509050919050565b5f546001600160a01b031633146106ae5760405162461bcd60e51b81526004016102019061165c565b600580545f91826106be836117f2565b9190505590505f825167ffffffffffffffff8111156106df576106df611026565b604051908082528060200260200182016040528015610708578160200160208202803683370190505b5090505f5b83518110156107975760075484828151811061072b5761072b6118d9565b6020026020010151106107505760405162461bcd60e51b815260040161020190611816565b610772848281518110610765576107656118d9565b60200260200101516104d8565b828281518110610784576107846118d9565b602090810291909101015260010161070d565b506040805160c0810182528881526020808201899052818301889052606082018790526080820186905260a082018490525f858152600190915291909120815181906107e39082611732565b50602082015160018201906107f89082611732565b50604082015160028201556060820151805161081e916003840191602090910190610f23565b506080820151805161083a916004840191602090910190610f77565b5060a08201518051610856916005840191602090910190610f77565b50506005805491505f610868836117f2565b90915550506040518281527f7a3ca1959c02ca697e03705bf9d6d67c3acc38961b57c23a5f95fb0ef1c0ca009060200160405180910390a150505050505050565b6108e16040518060c0016040528060608152602001606081526020015f81526020016060815260200160608152602001606081525090565b60055482106109325760405162461bcd60e51b815260206004820152601960248201527f44617461557361676520646f6573206e6f742065786973742e000000000000006044820152606401610201565b5f8281526001602052604090819020815160c08101909252805482908290610959906116ae565b80601f0160208091040260200160405190810160405280929190818152602001828054610985906116ae565b80156109d05780601f106109a7576101008083540402835291602001916109d0565b820191905f5260205f20905b8154815290600101906020018083116109b357829003601f168201915b505050505081526020016001820180546109e9906116ae565b80601f0160208091040260200160405190810160405280929190818152602001828054610a15906116ae565b8015610a605780601f10610a3757610100808354040283529160200191610a60565b820191905f5260205f20905b815481529060010190602001808311610a4357829003601f168201915b505050505081526020016002820154815260200160038201805480602002602001604051908101604052809291908181526020015f905b82821015610b3f578382905f5260205f20018054610ab4906116ae565b80601f0160208091040260200160405190810160405280929190818152602001828054610ae0906116ae565b8015610b2b5780601f10610b0257610100808354040283529160200191610b2b565b820191905f5260205f20905b815481529060010190602001808311610b0e57829003601f168201915b505050505081526020019060010190610a97565b50505050815260200160048201805480602002602001604051908101604052809291908181526020018280548015610b9457602002820191905f5260205f20905b815481526020019060010190808311610b80575b505050505081526020016005820180548060200260200160405190810160405280929190818152602001828054801561067557602002820191905f5260205f20905b815481526020019060010190808311610bd6575050505050815250509050919050565b610c2a6040518060a001604052805f8152602001606081526020016060815260200160608152602001606081525090565b5f546001600160a01b03163314610c535760405162461bcd60e51b81526004016102019061165c565b6007548210610c745760405162461bcd60e51b815260040161020190611816565b60035f8381526020019081526020015f206040518060a00160405290815f8201548152602001600182018054610ca9906116ae565b80601f0160208091040260200160405190810160405280929190818152602001828054610cd5906116ae565b8015610d205780601f10610cf757610100808354040283529160200191610d20565b820191905f5260205f20905b815481529060010190602001808311610d0357829003601f168201915b50505050508152602001600282018054610d39906116ae565b80601f0160208091040260200160405190810160405280929190818152602001828054610d65906116ae565b8015610db05780601f10610d8757610100808354040283529160200191610db0565b820191905f5260205f20905b815481529060010190602001808311610d9357829003601f168201915b50505050508152602001600382018054610dc9906116ae565b80601f0160208091040260200160405190810160405280929190818152602001828054610df5906116ae565b8015610e405780601f10610e1757610100808354040283529160200191610e40565b820191905f5260205f20905b815481529060010190602001808311610e2357829003601f168201915b5050505050815260200160048201805480602002602001604051908101604052809291908181526020015f905b82821015610f15578382905f5260205f20018054610e8a906116ae565b80601f0160208091040260200160405190810160405280929190818152602001828054610eb6906116ae565b8015610f015780601f10610ed857610100808354040283529160200191610f01565b820191905f5260205f20905b815481529060010190602001808311610ee457829003601f168201915b505050505081526020019060010190610e6d565b505050915250909392505050565b828054828255905f5260205f20908101928215610f67579160200282015b82811115610f675782518290610f579082611732565b5091602001919060010190610f41565b50610f73929150610fbc565b5090565b828054828255905f5260205f20908101928215610fb0579160200282015b82811115610fb0578251825591602001919060010190610f95565b50610f73929150610fd8565b80821115610f73575f610fcf8282610fec565b50600101610fbc565b5b80821115610f73575f8155600101610fd9565b508054610ff8906116ae565b5f825580601f10611007575050565b601f0160209004905f5260205f20908101906110239190610fd8565b50565b634e487b7160e01b5f52604160045260245ffd5b604051601f8201601f1916810167ffffffffffffffff8111828210171561106357611063611026565b604052919050565b5f82601f83011261107a575f80fd5b813567ffffffffffffffff81111561109457611094611026565b6110a7601f8201601f191660200161103a565b8181528460208386010111156110bb575f80fd5b816020850160208301375f918101602001919091529392505050565b5f67ffffffffffffffff8211156110f0576110f0611026565b5060051b60200190565b5f82601f830112611109575f80fd5b8135602061111e611119836110d7565b61103a565b82815260059290921b8401810191818101908684111561113c575f80fd5b8286015b8481101561117a57803567ffffffffffffffff81111561115e575f80fd5b61116c8986838b010161106b565b845250918301918301611140565b509695505050505050565b5f805f805f60a08688031215611199575f80fd5b85359450602086013567ffffffffffffffff808211156111b7575f80fd5b6111c389838a0161106b565b955060408801359150808211156111d8575f80fd5b6111e489838a0161106b565b945060608801359150808211156111f9575f80fd5b61120589838a0161106b565b9350608088013591508082111561121a575f80fd5b50611227888289016110fa565b9150509295509295909350565b602080825282518282018190525f9190848201906040850190845b8181101561126b5783518352928401929184019160010161124f565b50909695505050505050565b5f60208284031215611287575f80fd5b5035919050565b5f805f606084860312156112a0575f80fd5b8335925060208401356001600160a01b03811681146112bd575f80fd5b9150604084013567ffffffffffffffff8111156112d8575f80fd5b6112e48682870161106b565b9150509250925092565b5f5b838110156113085781810151838201526020016112f0565b50505f910152565b5f81518084526113278160208601602086016112ee565b601f01601f19169290920160200192915050565b602081528151602082015260018060a01b0360208301511660408201525f60408301516060808401526113716080840182611310565b949350505050565b5f805f805f60a0868803121561138d575f80fd5b853567ffffffffffffffff808211156113a4575f80fd5b6113b089838a0161106b565b96506020915081880135818111156113c6575f80fd5b6113d28a828b0161106b565b965050604088013594506060880135818111156113ed575f80fd5b6113f98a828b016110fa565b94505060808801358181111561140d575f80fd5b88019050601f8101891361141f575f80fd5b803561142d611119826110d7565b81815260059190911b8201830190838101908b83111561144b575f80fd5b928401925b8284101561146957833582529284019290840190611450565b80955050505050509295509295909350565b5f8282518085526020808601955060208260051b840101602086015f5b848110156114c657601f198684030189526114b4838351611310565b98840198925090830190600101611498565b5090979650505050505050565b5f815180845260208085019450602084015f5b83811015611502578151875295820195908201906001016114e6565b509495945050505050565b5f6020808352835160c08285015261152860e0850182611310565b905081850151601f19808684030160408701526115458383611310565b925060408701516060870152606087015191508086840301608087015261156c838361147b565b6080880151878203830160a0890152805180835290860194505f9350908501905b808410156115ad578451825293850193600193909301929085019061158d565b5060a08801519450818782030160c08801526115c981866114d3565b98975050505050505050565b60208152815160208201525f602083015160a060408401526115fa60c0840182611310565b90506040840151601f19808584030160608601526116188383611310565b925060608601519150808584030160808601526116358383611310565b925060808601519150808584030160a086015250611653828261147b565b95945050505050565b60208082526032908201527f4f6e6c792074686520636f6e7472616374206f776e65722063616e207065726660408201527137b936903a3434b99037b832b930ba34b7b760711b606082015260800190565b600181811c908216806116c257607f821691505b6020821081036116e057634e487b7160e01b5f52602260045260245ffd5b50919050565b601f82111561172d57805f5260205f20601f840160051c8101602085101561170b5750805b601f840160051c820191505b8181101561172a575f8155600101611717565b50505b505050565b815167ffffffffffffffff81111561174c5761174c611026565b6117608161175a84546116ae565b846116e6565b602080601f831160018114611793575f841561177c5750858301515b5f19600386901b1c1916600185901b1785556117ea565b5f85815260208120601f198616915b828110156117c1578886015182559484019460019091019084016117a2565b50858210156117de57878501515f19600388901b60f8161c191681555b505060018460011b0185555b505050505050565b5f6001820161180f57634e487b7160e01b5f52601160045260245ffd5b5060010190565b6020808252601c908201527f506572736f6e616c4461746120646f6573206e6f742065786973742e00000000604082015260600190565b5f8154611859816116ae565b600182811680156118715760018114611886576118b2565b60ff19841687528215158302870194506118b2565b855f526020805f205f5b858110156118a95781548a820152908401908201611890565b50505082870194505b5050505092915050565b5f6116536118d36118cd848861184d565b8661184d565b8461184d565b634e487b7160e01b5f52603260045260245ffd5b5f83516118fe8184602088016112ee565b6116538184018561184d56fea2646970667358221220623d26cb6e10d89ed50fff416b99834b6c140fd1656333d96bd01ad6ae2cc92864736f6c63430008180033",
					"opcodes": "PUSH1 0x80 PUSH1 0x40 MSTORE PUSH0 PUSH1 0x5 SSTORE PUSH0 PUSH1 0x7 SSTORE CALLVALUE DUP1 ISZERO PUSH2 0x17 JUMPI PUSH0 DUP1 REVERT JUMPDEST POP PUSH0 DUP1 SLOAD PUSH1 0x1 PUSH1 0x1 PUSH1 0xA0 SHL SUB NOT AND CALLER OR SWAP1 SSTORE PUSH2 0x1940 DUP1 PUSH2 0x36 PUSH0 CODECOPY PUSH0 RETURN INVALID PUSH1 0x80 PUSH1 0x40 MSTORE CALLVALUE DUP1 ISZERO PUSH2 0xF JUMPI PUSH0 DUP1 REVERT JUMPDEST POP PUSH1 0x4 CALLDATASIZE LT PUSH2 0xB1 JUMPI PUSH0 CALLDATALOAD PUSH1 0xE0 SHR DUP1 PUSH4 0x9D8A9190 GT PUSH2 0x6E JUMPI DUP1 PUSH4 0x9D8A9190 EQ PUSH2 0x13F JUMPI DUP1 PUSH4 0xB61798F6 EQ PUSH2 0x152 JUMPI DUP1 PUSH4 0xC585665D EQ PUSH2 0x165 JUMPI DUP1 PUSH4 0xCA07B122 EQ PUSH2 0x185 JUMPI DUP1 PUSH4 0xD2B0649A EQ PUSH2 0x198 JUMPI DUP1 PUSH4 0xD8A761D9 EQ PUSH2 0x1B8 JUMPI PUSH0 DUP1 REVERT JUMPDEST DUP1 PUSH4 0xDAB7CD9 EQ PUSH2 0xB5 JUMPI DUP1 PUSH4 0x3A918356 EQ PUSH2 0xCA JUMPI DUP1 PUSH4 0x3F81DE59 EQ PUSH2 0xE8 JUMPI DUP1 PUSH4 0x4B58FBE9 EQ PUSH2 0xFB JUMPI DUP1 PUSH4 0x682477D7 EQ PUSH2 0x10D JUMPI DUP1 PUSH4 0x8DA5CB5B EQ PUSH2 0x115 JUMPI JUMPDEST PUSH0 DUP1 REVERT JUMPDEST PUSH2 0xC8 PUSH2 0xC3 CALLDATASIZE PUSH1 0x4 PUSH2 0x1185 JUMP JUMPDEST PUSH2 0x1D8 JUMP JUMPDEST STOP JUMPDEST PUSH2 0xD2 PUSH2 0x2BB JUMP JUMPDEST PUSH1 0x40 MLOAD PUSH2 0xDF SWAP2 SWAP1 PUSH2 0x1234 JUMP JUMPDEST PUSH1 0x40 MLOAD DUP1 SWAP2 SUB SWAP1 RETURN JUMPDEST PUSH2 0xC8 PUSH2 0xF6 CALLDATASIZE PUSH1 0x4 PUSH2 0x1277 JUMP JUMPDEST PUSH2 0x311 JUMP JUMPDEST PUSH1 0x7 SLOAD JUMPDEST PUSH1 0x40 MLOAD SWAP1 DUP2 MSTORE PUSH1 0x20 ADD PUSH2 0xDF JUMP JUMPDEST PUSH1 0x5 SLOAD PUSH2 0xFF JUMP JUMPDEST PUSH0 SLOAD PUSH2 0x127 SWAP1 PUSH1 0x1 PUSH1 0x1 PUSH1 0xA0 SHL SUB AND DUP2 JUMP JUMPDEST PUSH1 0x40 MLOAD PUSH1 0x1 PUSH1 0x1 PUSH1 0xA0 SHL SUB SWAP1 SWAP2 AND DUP2 MSTORE PUSH1 0x20 ADD PUSH2 0xDF JUMP JUMPDEST PUSH2 0xC8 PUSH2 0x14D CALLDATASIZE PUSH1 0x4 PUSH2 0x128E JUMP JUMPDEST PUSH2 0x40E JUMP JUMPDEST PUSH2 0xFF PUSH2 0x160 CALLDATASIZE PUSH1 0x4 PUSH2 0x1277 JUMP JUMPDEST PUSH2 0x4D8 JUMP JUMPDEST PUSH2 0x178 PUSH2 0x173 CALLDATASIZE PUSH1 0x4 PUSH2 0x1277 JUMP JUMPDEST PUSH2 0x54A JUMP JUMPDEST PUSH1 0x40 MLOAD PUSH2 0xDF SWAP2 SWAP1 PUSH2 0x133B JUMP JUMPDEST PUSH2 0xC8 PUSH2 0x193 CALLDATASIZE PUSH1 0x4 PUSH2 0x1379 JUMP JUMPDEST PUSH2 0x685 JUMP JUMPDEST PUSH2 0x1AB PUSH2 0x1A6 CALLDATASIZE PUSH1 0x4 PUSH2 0x1277 JUMP JUMPDEST PUSH2 0x8A9 JUMP JUMPDEST PUSH1 0x40 MLOAD PUSH2 0xDF SWAP2 SWAP1 PUSH2 0x150D JUMP JUMPDEST PUSH2 0x1CB PUSH2 0x1C6 CALLDATASIZE PUSH1 0x4 PUSH2 0x1277 JUMP JUMPDEST PUSH2 0xBF9 JUMP JUMPDEST PUSH1 0x40 MLOAD PUSH2 0xDF SWAP2 SWAP1 PUSH2 0x15D5 JUMP JUMPDEST PUSH0 SLOAD PUSH1 0x1 PUSH1 0x1 PUSH1 0xA0 SHL SUB AND CALLER EQ PUSH2 0x20A JUMPI PUSH1 0x40 MLOAD PUSH3 0x461BCD PUSH1 0xE5 SHL DUP2 MSTORE PUSH1 0x4 ADD PUSH2 0x201 SWAP1 PUSH2 0x165C JUMP JUMPDEST PUSH1 0x40 MLOAD DUP1 SWAP2 SUB SWAP1 REVERT JUMPDEST PUSH1 0x40 DUP1 MLOAD PUSH1 0xA0 DUP2 ADD DUP3 MSTORE DUP7 DUP2 MSTORE PUSH1 0x20 DUP1 DUP3 ADD DUP8 DUP2 MSTORE DUP3 DUP5 ADD DUP8 SWAP1 MSTORE PUSH1 0x60 DUP4 ADD DUP7 SWAP1 MSTORE PUSH1 0x80 DUP4 ADD DUP6 SWAP1 MSTORE PUSH0 DUP10 DUP2 MSTORE PUSH1 0x3 SWAP1 SWAP3 MSTORE SWAP3 SWAP1 KECCAK256 DUP2 MLOAD DUP2 SSTORE SWAP2 MLOAD SWAP1 SWAP2 SWAP1 PUSH1 0x1 DUP3 ADD SWAP1 PUSH2 0x257 SWAP1 DUP3 PUSH2 0x1732 JUMP JUMPDEST POP PUSH1 0x40 DUP3 ADD MLOAD PUSH1 0x2 DUP3 ADD SWAP1 PUSH2 0x26C SWAP1 DUP3 PUSH2 0x1732 JUMP JUMPDEST POP PUSH1 0x60 DUP3 ADD MLOAD PUSH1 0x3 DUP3 ADD SWAP1 PUSH2 0x281 SWAP1 DUP3 PUSH2 0x1732 JUMP JUMPDEST POP PUSH1 0x80 DUP3 ADD MLOAD DUP1 MLOAD PUSH2 0x29D SWAP2 PUSH1 0x4 DUP5 ADD SWAP2 PUSH1 0x20 SWAP1 SWAP2 ADD SWAP1 PUSH2 0xF23 JUMP JUMPDEST POP POP PUSH1 0x7 DUP1 SLOAD SWAP2 POP PUSH0 PUSH2 0x2AF DUP4 PUSH2 0x17F2 JUMP JUMPDEST SWAP2 SWAP1 POP SSTORE POP POP POP POP POP POP JUMP JUMPDEST PUSH1 0x60 PUSH1 0x6 DUP1 SLOAD DUP1 PUSH1 0x20 MUL PUSH1 0x20 ADD PUSH1 0x40 MLOAD SWAP1 DUP2 ADD PUSH1 0x40 MSTORE DUP1 SWAP3 SWAP2 SWAP1 DUP2 DUP2 MSTORE PUSH1 0x20 ADD DUP3 DUP1 SLOAD DUP1 ISZERO PUSH2 0x307 JUMPI PUSH1 0x20 MUL DUP3 ADD SWAP2 SWAP1 PUSH0 MSTORE PUSH1 0x20 PUSH0 KECCAK256 SWAP1 JUMPDEST DUP2 SLOAD DUP2 MSTORE PUSH1 0x20 ADD SWAP1 PUSH1 0x1 ADD SWAP1 DUP1 DUP4 GT PUSH2 0x2F3 JUMPI JUMPDEST POP POP POP POP POP SWAP1 POP SWAP1 JUMP JUMPDEST PUSH0 SLOAD PUSH1 0x1 PUSH1 0x1 PUSH1 0xA0 SHL SUB AND CALLER EQ PUSH2 0x33A JUMPI PUSH1 0x40 MLOAD PUSH3 0x461BCD PUSH1 0xE5 SHL DUP2 MSTORE PUSH1 0x4 ADD PUSH2 0x201 SWAP1 PUSH2 0x165C JUMP JUMPDEST PUSH1 0x7 SLOAD DUP2 LT PUSH2 0x35B JUMPI PUSH1 0x40 MLOAD PUSH3 0x461BCD PUSH1 0xE5 SHL DUP2 MSTORE PUSH1 0x4 ADD PUSH2 0x201 SWAP1 PUSH2 0x1816 JUMP JUMPDEST PUSH0 DUP2 DUP2 MSTORE PUSH1 0x3 PUSH1 0x20 DUP2 DUP2 MSTORE PUSH1 0x40 SWAP3 DUP4 SWAP1 KECCAK256 SWAP3 MLOAD PUSH1 0x60 SWAP3 PUSH2 0x388 SWAP3 PUSH1 0x1 DUP7 ADD SWAP3 PUSH1 0x2 DUP8 ADD SWAP3 DUP8 ADD SWAP2 ADD PUSH2 0x18BC JUMP JUMPDEST PUSH1 0x40 MLOAD PUSH1 0x20 DUP2 DUP4 SUB SUB DUP2 MSTORE SWAP1 PUSH1 0x40 MSTORE SWAP1 POP PUSH0 JUMPDEST PUSH1 0x4 DUP4 ADD SLOAD DUP2 LT ISZERO PUSH2 0x3F0 JUMPI DUP2 DUP4 PUSH1 0x4 ADD DUP3 DUP2 SLOAD DUP2 LT PUSH2 0x3BD JUMPI PUSH2 0x3BD PUSH2 0x18D9 JUMP JUMPDEST SWAP1 PUSH0 MSTORE PUSH1 0x20 PUSH0 KECCAK256 ADD PUSH1 0x40 MLOAD PUSH1 0x20 ADD PUSH2 0x3D6 SWAP3 SWAP2 SWAP1 PUSH2 0x18ED JUMP JUMPDEST PUSH1 0x40 DUP1 MLOAD PUSH1 0x1F NOT DUP2 DUP5 SUB ADD DUP2 MSTORE SWAP2 SWAP1 MSTORE SWAP2 POP PUSH1 0x1 ADD PUSH2 0x39B JUMP JUMPDEST POP DUP1 MLOAD PUSH1 0x20 SWAP2 DUP3 ADD KECCAK256 PUSH0 SWAP4 DUP5 MSTORE PUSH1 0x4 SWAP1 SWAP2 MSTORE PUSH1 0x40 SWAP1 SWAP3 KECCAK256 SWAP2 SWAP1 SWAP2 SSTORE POP JUMP JUMPDEST PUSH0 SLOAD PUSH1 0x1 PUSH1 0x1 PUSH1 0xA0 SHL SUB AND CALLER EQ PUSH2 0x437 JUMPI PUSH1 0x40 MLOAD PUSH3 0x461BCD PUSH1 0xE5 SHL DUP2 MSTORE PUSH1 0x4 ADD PUSH2 0x201 SWAP1 PUSH2 0x165C JUMP JUMPDEST PUSH1 0x40 DUP1 MLOAD PUSH1 0x60 DUP2 ADD DUP3 MSTORE DUP5 DUP2 MSTORE PUSH1 0x1 PUSH1 0x1 PUSH1 0xA0 SHL SUB DUP5 DUP2 AND PUSH1 0x20 DUP1 DUP5 ADD SWAP2 DUP3 MSTORE DUP4 DUP6 ADD DUP7 DUP2 MSTORE PUSH0 DUP10 DUP2 MSTORE PUSH1 0x2 SWAP3 DUP4 SWAP1 MSTORE SWAP6 SWAP1 SWAP6 KECCAK256 DUP5 MLOAD DUP2 SSTORE SWAP2 MLOAD PUSH1 0x1 DUP4 ADD DUP1 SLOAD PUSH1 0x1 PUSH1 0x1 PUSH1 0xA0 SHL SUB NOT AND SWAP2 SWAP1 SWAP5 AND OR SWAP1 SWAP3 SSTORE SWAP3 MLOAD SWAP2 SWAP3 SWAP2 SWAP1 DUP3 ADD SWAP1 PUSH2 0x49C SWAP1 DUP3 PUSH2 0x1732 JUMP JUMPDEST POP POP PUSH1 0x6 DUP1 SLOAD PUSH1 0x1 DUP2 ADD DUP3 SSTORE PUSH0 SWAP2 SWAP1 SWAP2 MSTORE PUSH32 0xF652222313E28459528D920B65115C16C04F3EFC82AAEDC97BE59F3F377C0D3F ADD SWAP4 SWAP1 SWAP4 SSTORE POP POP POP JUMP JUMPDEST PUSH0 PUSH1 0x7 SLOAD DUP3 LT PUSH2 0x538 JUMPI PUSH1 0x40 MLOAD PUSH3 0x461BCD PUSH1 0xE5 SHL DUP2 MSTORE PUSH1 0x20 PUSH1 0x4 DUP3 ADD MSTORE PUSH1 0x25 PUSH1 0x24 DUP3 ADD MSTORE PUSH32 0x50726F636573736564506572736F6E616C4461746120646F6573206E6F742065 PUSH1 0x44 DUP3 ADD MSTORE PUSH5 0x3C34B9BA17 PUSH1 0xD9 SHL PUSH1 0x64 DUP3 ADD MSTORE PUSH1 0x84 ADD PUSH2 0x201 JUMP JUMPDEST POP PUSH0 SWAP1 DUP2 MSTORE PUSH1 0x4 PUSH1 0x20 MSTORE PUSH1 0x40 SWAP1 KECCAK256 SLOAD SWAP1 JUMP JUMPDEST PUSH1 0x40 DUP1 MLOAD PUSH1 0x60 DUP1 DUP3 ADD DUP4 MSTORE PUSH0 DUP1 DUP4 MSTORE PUSH1 0x20 DUP4 ADD MSTORE SWAP2 DUP2 ADD SWAP2 SWAP1 SWAP2 MSTORE PUSH0 DUP3 DUP2 MSTORE PUSH1 0x2 PUSH1 0x20 MSTORE PUSH1 0x40 DUP2 KECCAK256 SLOAD SWAP1 SUB PUSH2 0x5B9 JUMPI PUSH1 0x40 MLOAD PUSH3 0x461BCD PUSH1 0xE5 SHL DUP2 MSTORE PUSH1 0x20 PUSH1 0x4 DUP3 ADD MSTORE PUSH1 0x15 PUSH1 0x24 DUP3 ADD MSTORE PUSH21 0x20B1BA37B9103237B2B9903737BA1032BC34B9BA17 PUSH1 0x59 SHL PUSH1 0x44 DUP3 ADD MSTORE PUSH1 0x64 ADD PUSH2 0x201 JUMP JUMPDEST PUSH0 DUP3 DUP2 MSTORE PUSH1 0x2 PUSH1 0x20 DUP2 DUP2 MSTORE PUSH1 0x40 SWAP3 DUP4 SWAP1 KECCAK256 DUP4 MLOAD PUSH1 0x60 DUP2 ADD DUP6 MSTORE DUP2 SLOAD DUP2 MSTORE PUSH1 0x1 DUP3 ADD SLOAD PUSH1 0x1 PUSH1 0x1 PUSH1 0xA0 SHL SUB AND SWAP3 DUP2 ADD SWAP3 SWAP1 SWAP3 MSTORE SWAP2 DUP3 ADD DUP1 SLOAD SWAP2 SWAP4 DUP5 ADD SWAP2 PUSH2 0x5FE SWAP1 PUSH2 0x16AE JUMP JUMPDEST DUP1 PUSH1 0x1F ADD PUSH1 0x20 DUP1 SWAP2 DIV MUL PUSH1 0x20 ADD PUSH1 0x40 MLOAD SWAP1 DUP2 ADD PUSH1 0x40 MSTORE DUP1 SWAP3 SWAP2 SWAP1 DUP2 DUP2 MSTORE PUSH1 0x20 ADD DUP3 DUP1 SLOAD PUSH2 0x62A SWAP1 PUSH2 0x16AE JUMP JUMPDEST DUP1 ISZERO PUSH2 0x675 JUMPI DUP1 PUSH1 0x1F LT PUSH2 0x64C JUMPI PUSH2 0x100 DUP1 DUP4 SLOAD DIV MUL DUP4 MSTORE SWAP2 PUSH1 0x20 ADD SWAP2 PUSH2 0x675 JUMP JUMPDEST DUP3 ADD SWAP2 SWAP1 PUSH0 MSTORE PUSH1 0x20 PUSH0 KECCAK256 SWAP1 JUMPDEST DUP2 SLOAD DUP2 MSTORE SWAP1 PUSH1 0x1 ADD SWAP1 PUSH1 0x20 ADD DUP1 DUP4 GT PUSH2 0x658 JUMPI DUP3 SWAP1 SUB PUSH1 0x1F AND DUP3 ADD SWAP2 JUMPDEST POP POP POP POP POP DUP2 MSTORE POP POP SWAP1 POP SWAP2 SWAP1 POP JUMP JUMPDEST PUSH0 SLOAD PUSH1 0x1 PUSH1 0x1 PUSH1 0xA0 SHL SUB AND CALLER EQ PUSH2 0x6AE JUMPI PUSH1 0x40 MLOAD PUSH3 0x461BCD PUSH1 0xE5 SHL DUP2 MSTORE PUSH1 0x4 ADD PUSH2 0x201 SWAP1 PUSH2 0x165C JUMP JUMPDEST PUSH1 0x5 DUP1 SLOAD PUSH0 SWAP2 DUP3 PUSH2 0x6BE DUP4 PUSH2 0x17F2 JUMP JUMPDEST SWAP2 SWAP1 POP SSTORE SWAP1 POP PUSH0 DUP3 MLOAD PUSH8 0xFFFFFFFFFFFFFFFF DUP2 GT ISZERO PUSH2 0x6DF JUMPI PUSH2 0x6DF PUSH2 0x1026 JUMP JUMPDEST PUSH1 0x40 MLOAD SWAP1 DUP1 DUP3 MSTORE DUP1 PUSH1 0x20 MUL PUSH1 0x20 ADD DUP3 ADD PUSH1 0x40 MSTORE DUP1 ISZERO PUSH2 0x708 JUMPI DUP2 PUSH1 0x20 ADD PUSH1 0x20 DUP3 MUL DUP1 CALLDATASIZE DUP4 CALLDATACOPY ADD SWAP1 POP JUMPDEST POP SWAP1 POP PUSH0 JUMPDEST DUP4 MLOAD DUP2 LT ISZERO PUSH2 0x797 JUMPI PUSH1 0x7 SLOAD DUP5 DUP3 DUP2 MLOAD DUP2 LT PUSH2 0x72B JUMPI PUSH2 0x72B PUSH2 0x18D9 JUMP JUMPDEST PUSH1 0x20 MUL PUSH1 0x20 ADD ADD MLOAD LT PUSH2 0x750 JUMPI PUSH1 0x40 MLOAD PUSH3 0x461BCD PUSH1 0xE5 SHL DUP2 MSTORE PUSH1 0x4 ADD PUSH2 0x201 SWAP1 PUSH2 0x1816 JUMP JUMPDEST PUSH2 0x772 DUP5 DUP3 DUP2 MLOAD DUP2 LT PUSH2 0x765 JUMPI PUSH2 0x765 PUSH2 0x18D9 JUMP JUMPDEST PUSH1 0x20 MUL PUSH1 0x20 ADD ADD MLOAD PUSH2 0x4D8 JUMP JUMPDEST DUP3 DUP3 DUP2 MLOAD DUP2 LT PUSH2 0x784 JUMPI PUSH2 0x784 PUSH2 0x18D9 JUMP JUMPDEST PUSH1 0x20 SWAP1 DUP2 MUL SWAP2 SWAP1 SWAP2 ADD ADD MSTORE PUSH1 0x1 ADD PUSH2 0x70D JUMP JUMPDEST POP PUSH1 0x40 DUP1 MLOAD PUSH1 0xC0 DUP2 ADD DUP3 MSTORE DUP9 DUP2 MSTORE PUSH1 0x20 DUP1 DUP3 ADD DUP10 SWAP1 MSTORE DUP2 DUP4 ADD DUP9 SWAP1 MSTORE PUSH1 0x60 DUP3 ADD DUP8 SWAP1 MSTORE PUSH1 0x80 DUP3 ADD DUP7 SWAP1 MSTORE PUSH1 0xA0 DUP3 ADD DUP5 SWAP1 MSTORE PUSH0 DUP6 DUP2 MSTORE PUSH1 0x1 SWAP1 SWAP2 MSTORE SWAP2 SWAP1 SWAP2 KECCAK256 DUP2 MLOAD DUP2 SWAP1 PUSH2 0x7E3 SWAP1 DUP3 PUSH2 0x1732 JUMP JUMPDEST POP PUSH1 0x20 DUP3 ADD MLOAD PUSH1 0x1 DUP3 ADD SWAP1 PUSH2 0x7F8 SWAP1 DUP3 PUSH2 0x1732 JUMP JUMPDEST POP PUSH1 0x40 DUP3 ADD MLOAD PUSH1 0x2 DUP3 ADD SSTORE PUSH1 0x60 DUP3 ADD MLOAD DUP1 MLOAD PUSH2 0x81E SWAP2 PUSH1 0x3 DUP5 ADD SWAP2 PUSH1 0x20 SWAP1 SWAP2 ADD SWAP1 PUSH2 0xF23 JUMP JUMPDEST POP PUSH1 0x80 DUP3 ADD MLOAD DUP1 MLOAD PUSH2 0x83A SWAP2 PUSH1 0x4 DUP5 ADD SWAP2 PUSH1 0x20 SWAP1 SWAP2 ADD SWAP1 PUSH2 0xF77 JUMP JUMPDEST POP PUSH1 0xA0 DUP3 ADD MLOAD DUP1 MLOAD PUSH2 0x856 SWAP2 PUSH1 0x5 DUP5 ADD SWAP2 PUSH1 0x20 SWAP1 SWAP2 ADD SWAP1 PUSH2 0xF77 JUMP JUMPDEST POP POP PUSH1 0x5 DUP1 SLOAD SWAP2 POP PUSH0 PUSH2 0x868 DUP4 PUSH2 0x17F2 JUMP JUMPDEST SWAP1 SWAP2 SSTORE POP POP PUSH1 0x40 MLOAD DUP3 DUP2 MSTORE PUSH32 0x7A3CA1959C02CA697E03705BF9D6D67C3ACC38961B57C23A5F95FB0EF1C0CA00 SWAP1 PUSH1 0x20 ADD PUSH1 0x40 MLOAD DUP1 SWAP2 SUB SWAP1 LOG1 POP POP POP POP POP POP POP JUMP JUMPDEST PUSH2 0x8E1 PUSH1 0x40 MLOAD DUP1 PUSH1 0xC0 ADD PUSH1 0x40 MSTORE DUP1 PUSH1 0x60 DUP2 MSTORE PUSH1 0x20 ADD PUSH1 0x60 DUP2 MSTORE PUSH1 0x20 ADD PUSH0 DUP2 MSTORE PUSH1 0x20 ADD PUSH1 0x60 DUP2 MSTORE PUSH1 0x20 ADD PUSH1 0x60 DUP2 MSTORE PUSH1 0x20 ADD PUSH1 0x60 DUP2 MSTORE POP SWAP1 JUMP JUMPDEST PUSH1 0x5 SLOAD DUP3 LT PUSH2 0x932 JUMPI PUSH1 0x40 MLOAD PUSH3 0x461BCD PUSH1 0xE5 SHL DUP2 MSTORE PUSH1 0x20 PUSH1 0x4 DUP3 ADD MSTORE PUSH1 0x19 PUSH1 0x24 DUP3 ADD MSTORE PUSH32 0x44617461557361676520646F6573206E6F742065786973742E00000000000000 PUSH1 0x44 DUP3 ADD MSTORE PUSH1 0x64 ADD PUSH2 0x201 JUMP JUMPDEST PUSH0 DUP3 DUP2 MSTORE PUSH1 0x1 PUSH1 0x20 MSTORE PUSH1 0x40 SWAP1 DUP2 SWAP1 KECCAK256 DUP2 MLOAD PUSH1 0xC0 DUP2 ADD SWAP1 SWAP3 MSTORE DUP1 SLOAD DUP3 SWAP1 DUP3 SWAP1 PUSH2 0x959 SWAP1 PUSH2 0x16AE JUMP JUMPDEST DUP1 PUSH1 0x1F ADD PUSH1 0x20 DUP1 SWAP2 DIV MUL PUSH1 0x20 ADD PUSH1 0x40 MLOAD SWAP1 DUP2 ADD PUSH1 0x40 MSTORE DUP1 SWAP3 SWAP2 SWAP1 DUP2 DUP2 MSTORE PUSH1 0x20 ADD DUP3 DUP1 SLOAD PUSH2 0x985 SWAP1 PUSH2 0x16AE JUMP JUMPDEST DUP1 ISZERO PUSH2 0x9D0 JUMPI DUP1 PUSH1 0x1F LT PUSH2 0x9A7 JUMPI PUSH2 0x100 DUP1 DUP4 SLOAD DIV MUL DUP4 MSTORE SWAP2 PUSH1 0x20 ADD SWAP2 PUSH2 0x9D0 JUMP JUMPDEST DUP3 ADD SWAP2 SWAP1 PUSH0 MSTORE PUSH1 0x20 PUSH0 KECCAK256 SWAP1 JUMPDEST DUP2 SLOAD DUP2 MSTORE SWAP1 PUSH1 0x1 ADD SWAP1 PUSH1 0x20 ADD DUP1 DUP4 GT PUSH2 0x9B3 JUMPI DUP3 SWAP1 SUB PUSH1 0x1F AND DUP3 ADD SWAP2 JUMPDEST POP POP POP POP POP DUP2 MSTORE PUSH1 0x20 ADD PUSH1 0x1 DUP3 ADD DUP1 SLOAD PUSH2 0x9E9 SWAP1 PUSH2 0x16AE JUMP JUMPDEST DUP1 PUSH1 0x1F ADD PUSH1 0x20 DUP1 SWAP2 DIV MUL PUSH1 0x20 ADD PUSH1 0x40 MLOAD SWAP1 DUP2 ADD PUSH1 0x40 MSTORE DUP1 SWAP3 SWAP2 SWAP1 DUP2 DUP2 MSTORE PUSH1 0x20 ADD DUP3 DUP1 SLOAD PUSH2 0xA15 SWAP1 PUSH2 0x16AE JUMP JUMPDEST DUP1 ISZERO PUSH2 0xA60 JUMPI DUP1 PUSH1 0x1F LT PUSH2 0xA37 JUMPI PUSH2 0x100 DUP1 DUP4 SLOAD DIV MUL DUP4 MSTORE SWAP2 PUSH1 0x20 ADD SWAP2 PUSH2 0xA60 JUMP JUMPDEST DUP3 ADD SWAP2 SWAP1 PUSH0 MSTORE PUSH1 0x20 PUSH0 KECCAK256 SWAP1 JUMPDEST DUP2 SLOAD DUP2 MSTORE SWAP1 PUSH1 0x1 ADD SWAP1 PUSH1 0x20 ADD DUP1 DUP4 GT PUSH2 0xA43 JUMPI DUP3 SWAP1 SUB PUSH1 0x1F AND DUP3 ADD SWAP2 JUMPDEST POP POP POP POP POP DUP2 MSTORE PUSH1 0x20 ADD PUSH1 0x2 DUP3 ADD SLOAD DUP2 MSTORE PUSH1 0x20 ADD PUSH1 0x3 DUP3 ADD DUP1 SLOAD DUP1 PUSH1 0x20 MUL PUSH1 0x20 ADD PUSH1 0x40 MLOAD SWAP1 DUP2 ADD PUSH1 0x40 MSTORE DUP1 SWAP3 SWAP2 SWAP1 DUP2 DUP2 MSTORE PUSH1 0x20 ADD PUSH0 SWAP1 JUMPDEST DUP3 DUP3 LT ISZERO PUSH2 0xB3F JUMPI DUP4 DUP3 SWAP1 PUSH0 MSTORE PUSH1 0x20 PUSH0 KECCAK256 ADD DUP1 SLOAD PUSH2 0xAB4 SWAP1 PUSH2 0x16AE JUMP JUMPDEST DUP1 PUSH1 0x1F ADD PUSH1 0x20 DUP1 SWAP2 DIV MUL PUSH1 0x20 ADD PUSH1 0x40 MLOAD SWAP1 DUP2 ADD PUSH1 0x40 MSTORE DUP1 SWAP3 SWAP2 SWAP1 DUP2 DUP2 MSTORE PUSH1 0x20 ADD DUP3 DUP1 SLOAD PUSH2 0xAE0 SWAP1 PUSH2 0x16AE JUMP JUMPDEST DUP1 ISZERO PUSH2 0xB2B JUMPI DUP1 PUSH1 0x1F LT PUSH2 0xB02 JUMPI PUSH2 0x100 DUP1 DUP4 SLOAD DIV MUL DUP4 MSTORE SWAP2 PUSH1 0x20 ADD SWAP2 PUSH2 0xB2B JUMP JUMPDEST DUP3 ADD SWAP2 SWAP1 PUSH0 MSTORE PUSH1 0x20 PUSH0 KECCAK256 SWAP1 JUMPDEST DUP2 SLOAD DUP2 MSTORE SWAP1 PUSH1 0x1 ADD SWAP1 PUSH1 0x20 ADD DUP1 DUP4 GT PUSH2 0xB0E JUMPI DUP3 SWAP1 SUB PUSH1 0x1F AND DUP3 ADD SWAP2 JUMPDEST POP POP POP POP POP DUP2 MSTORE PUSH1 0x20 ADD SWAP1 PUSH1 0x1 ADD SWAP1 PUSH2 0xA97 JUMP JUMPDEST POP POP POP POP DUP2 MSTORE PUSH1 0x20 ADD PUSH1 0x4 DUP3 ADD DUP1 SLOAD DUP1 PUSH1 0x20 MUL PUSH1 0x20 ADD PUSH1 0x40 MLOAD SWAP1 DUP2 ADD PUSH1 0x40 MSTORE DUP1 SWAP3 SWAP2 SWAP1 DUP2 DUP2 MSTORE PUSH1 0x20 ADD DUP3 DUP1 SLOAD DUP1 ISZERO PUSH2 0xB94 JUMPI PUSH1 0x20 MUL DUP3 ADD SWAP2 SWAP1 PUSH0 MSTORE PUSH1 0x20 PUSH0 KECCAK256 SWAP1 JUMPDEST DUP2 SLOAD DUP2 MSTORE PUSH1 0x20 ADD SWAP1 PUSH1 0x1 ADD SWAP1 DUP1 DUP4 GT PUSH2 0xB80 JUMPI JUMPDEST POP POP POP POP POP DUP2 MSTORE PUSH1 0x20 ADD PUSH1 0x5 DUP3 ADD DUP1 SLOAD DUP1 PUSH1 0x20 MUL PUSH1 0x20 ADD PUSH1 0x40 MLOAD SWAP1 DUP2 ADD PUSH1 0x40 MSTORE DUP1 SWAP3 SWAP2 SWAP1 DUP2 DUP2 MSTORE PUSH1 0x20 ADD DUP3 DUP1 SLOAD DUP1 ISZERO PUSH2 0x675 JUMPI PUSH1 0x20 MUL DUP3 ADD SWAP2 SWAP1 PUSH0 MSTORE PUSH1 0x20 PUSH0 KECCAK256 SWAP1 JUMPDEST DUP2 SLOAD DUP2 MSTORE PUSH1 0x20 ADD SWAP1 PUSH1 0x1 ADD SWAP1 DUP1 DUP4 GT PUSH2 0xBD6 JUMPI POP POP POP POP POP DUP2 MSTORE POP POP SWAP1 POP SWAP2 SWAP1 POP JUMP JUMPDEST PUSH2 0xC2A PUSH1 0x40 MLOAD DUP1 PUSH1 0xA0 ADD PUSH1 0x40 MSTORE DUP1 PUSH0 DUP2 MSTORE PUSH1 0x20 ADD PUSH1 0x60 DUP2 MSTORE PUSH1 0x20 ADD PUSH1 0x60 DUP2 MSTORE PUSH1 0x20 ADD PUSH1 0x60 DUP2 MSTORE PUSH1 0x20 ADD PUSH1 0x60 DUP2 MSTORE POP SWAP1 JUMP JUMPDEST PUSH0 SLOAD PUSH1 0x1 PUSH1 0x1 PUSH1 0xA0 SHL SUB AND CALLER EQ PUSH2 0xC53 JUMPI PUSH1 0x40 MLOAD PUSH3 0x461BCD PUSH1 0xE5 SHL DUP2 MSTORE PUSH1 0x4 ADD PUSH2 0x201 SWAP1 PUSH2 0x165C JUMP JUMPDEST PUSH1 0x7 SLOAD DUP3 LT PUSH2 0xC74 JUMPI PUSH1 0x40 MLOAD PUSH3 0x461BCD PUSH1 0xE5 SHL DUP2 MSTORE PUSH1 0x4 ADD PUSH2 0x201 SWAP1 PUSH2 0x1816 JUMP JUMPDEST PUSH1 0x3 PUSH0 DUP4 DUP2 MSTORE PUSH1 0x20 ADD SWAP1 DUP2 MSTORE PUSH1 0x20 ADD PUSH0 KECCAK256 PUSH1 0x40 MLOAD DUP1 PUSH1 0xA0 ADD PUSH1 0x40 MSTORE SWAP1 DUP2 PUSH0 DUP3 ADD SLOAD DUP2 MSTORE PUSH1 0x20 ADD PUSH1 0x1 DUP3 ADD DUP1 SLOAD PUSH2 0xCA9 SWAP1 PUSH2 0x16AE JUMP JUMPDEST DUP1 PUSH1 0x1F ADD PUSH1 0x20 DUP1 SWAP2 DIV MUL PUSH1 0x20 ADD PUSH1 0x40 MLOAD SWAP1 DUP2 ADD PUSH1 0x40 MSTORE DUP1 SWAP3 SWAP2 SWAP1 DUP2 DUP2 MSTORE PUSH1 0x20 ADD DUP3 DUP1 SLOAD PUSH2 0xCD5 SWAP1 PUSH2 0x16AE JUMP JUMPDEST DUP1 ISZERO PUSH2 0xD20 JUMPI DUP1 PUSH1 0x1F LT PUSH2 0xCF7 JUMPI PUSH2 0x100 DUP1 DUP4 SLOAD DIV MUL DUP4 MSTORE SWAP2 PUSH1 0x20 ADD SWAP2 PUSH2 0xD20 JUMP JUMPDEST DUP3 ADD SWAP2 SWAP1 PUSH0 MSTORE PUSH1 0x20 PUSH0 KECCAK256 SWAP1 JUMPDEST DUP2 SLOAD DUP2 MSTORE SWAP1 PUSH1 0x1 ADD SWAP1 PUSH1 0x20 ADD DUP1 DUP4 GT PUSH2 0xD03 JUMPI DUP3 SWAP1 SUB PUSH1 0x1F AND DUP3 ADD SWAP2 JUMPDEST POP POP POP POP POP DUP2 MSTORE PUSH1 0x20 ADD PUSH1 0x2 DUP3 ADD DUP1 SLOAD PUSH2 0xD39 SWAP1 PUSH2 0x16AE JUMP JUMPDEST DUP1 PUSH1 0x1F ADD PUSH1 0x20 DUP1 SWAP2 DIV MUL PUSH1 0x20 ADD PUSH1 0x40 MLOAD SWAP1 DUP2 ADD PUSH1 0x40 MSTORE DUP1 SWAP3 SWAP2 SWAP1 DUP2 DUP2 MSTORE PUSH1 0x20 ADD DUP3 DUP1 SLOAD PUSH2 0xD65 SWAP1 PUSH2 0x16AE JUMP JUMPDEST DUP1 ISZERO PUSH2 0xDB0 JUMPI DUP1 PUSH1 0x1F LT PUSH2 0xD87 JUMPI PUSH2 0x100 DUP1 DUP4 SLOAD DIV MUL DUP4 MSTORE SWAP2 PUSH1 0x20 ADD SWAP2 PUSH2 0xDB0 JUMP JUMPDEST DUP3 ADD SWAP2 SWAP1 PUSH0 MSTORE PUSH1 0x20 PUSH0 KECCAK256 SWAP1 JUMPDEST DUP2 SLOAD DUP2 MSTORE SWAP1 PUSH1 0x1 ADD SWAP1 PUSH1 0x20 ADD DUP1 DUP4 GT PUSH2 0xD93 JUMPI DUP3 SWAP1 SUB PUSH1 0x1F AND DUP3 ADD SWAP2 JUMPDEST POP POP POP POP POP DUP2 MSTORE PUSH1 0x20 ADD PUSH1 0x3 DUP3 ADD DUP1 SLOAD PUSH2 0xDC9 SWAP1 PUSH2 0x16AE JUMP JUMPDEST DUP1 PUSH1 0x1F ADD PUSH1 0x20 DUP1 SWAP2 DIV MUL PUSH1 0x20 ADD PUSH1 0x40 MLOAD SWAP1 DUP2 ADD PUSH1 0x40 MSTORE DUP1 SWAP3 SWAP2 SWAP1 DUP2 DUP2 MSTORE PUSH1 0x20 ADD DUP3 DUP1 SLOAD PUSH2 0xDF5 SWAP1 PUSH2 0x16AE JUMP JUMPDEST DUP1 ISZERO PUSH2 0xE40 JUMPI DUP1 PUSH1 0x1F LT PUSH2 0xE17 JUMPI PUSH2 0x100 DUP1 DUP4 SLOAD DIV MUL DUP4 MSTORE SWAP2 PUSH1 0x20 ADD SWAP2 PUSH2 0xE40 JUMP JUMPDEST DUP3 ADD SWAP2 SWAP1 PUSH0 MSTORE PUSH1 0x20 PUSH0 KECCAK256 SWAP1 JUMPDEST DUP2 SLOAD DUP2 MSTORE SWAP1 PUSH1 0x1 ADD SWAP1 PUSH1 0x20 ADD DUP1 DUP4 GT PUSH2 0xE23 JUMPI DUP3 SWAP1 SUB PUSH1 0x1F AND DUP3 ADD SWAP2 JUMPDEST POP POP POP POP POP DUP2 MSTORE PUSH1 0x20 ADD PUSH1 0x4 DUP3 ADD DUP1 SLOAD DUP1 PUSH1 0x20 MUL PUSH1 0x20 ADD PUSH1 0x40 MLOAD SWAP1 DUP2 ADD PUSH1 0x40 MSTORE DUP1 SWAP3 SWAP2 SWAP1 DUP2 DUP2 MSTORE PUSH1 0x20 ADD PUSH0 SWAP1 JUMPDEST DUP3 DUP3 LT ISZERO PUSH2 0xF15 JUMPI DUP4 DUP3 SWAP1 PUSH0 MSTORE PUSH1 0x20 PUSH0 KECCAK256 ADD DUP1 SLOAD PUSH2 0xE8A SWAP1 PUSH2 0x16AE JUMP JUMPDEST DUP1 PUSH1 0x1F ADD PUSH1 0x20 DUP1 SWAP2 DIV MUL PUSH1 0x20 ADD PUSH1 0x40 MLOAD SWAP1 DUP2 ADD PUSH1 0x40 MSTORE DUP1 SWAP3 SWAP2 SWAP1 DUP2 DUP2 MSTORE PUSH1 0x20 ADD DUP3 DUP1 SLOAD PUSH2 0xEB6 SWAP1 PUSH2 0x16AE JUMP JUMPDEST DUP1 ISZERO PUSH2 0xF01 JUMPI DUP1 PUSH1 0x1F LT PUSH2 0xED8 JUMPI PUSH2 0x100 DUP1 DUP4 SLOAD DIV MUL DUP4 MSTORE SWAP2 PUSH1 0x20 ADD SWAP2 PUSH2 0xF01 JUMP JUMPDEST DUP3 ADD SWAP2 SWAP1 PUSH0 MSTORE PUSH1 0x20 PUSH0 KECCAK256 SWAP1 JUMPDEST DUP2 SLOAD DUP2 MSTORE SWAP1 PUSH1 0x1 ADD SWAP1 PUSH1 0x20 ADD DUP1 DUP4 GT PUSH2 0xEE4 JUMPI DUP3 SWAP1 SUB PUSH1 0x1F AND DUP3 ADD SWAP2 JUMPDEST POP POP POP POP POP DUP2 MSTORE PUSH1 0x20 ADD SWAP1 PUSH1 0x1 ADD SWAP1 PUSH2 0xE6D JUMP JUMPDEST POP POP POP SWAP2 MSTORE POP SWAP1 SWAP4 SWAP3 POP POP POP JUMP JUMPDEST DUP3 DUP1 SLOAD DUP3 DUP3 SSTORE SWAP1 PUSH0 MSTORE PUSH1 0x20 PUSH0 KECCAK256 SWAP1 DUP2 ADD SWAP3 DUP3 ISZERO PUSH2 0xF67 JUMPI SWAP2 PUSH1 0x20 MUL DUP3 ADD JUMPDEST DUP3 DUP2 GT ISZERO PUSH2 0xF67 JUMPI DUP3 MLOAD DUP3 SWAP1 PUSH2 0xF57 SWAP1 DUP3 PUSH2 0x1732 JUMP JUMPDEST POP SWAP2 PUSH1 0x20 ADD SWAP2 SWAP1 PUSH1 0x1 ADD SWAP1 PUSH2 0xF41 JUMP JUMPDEST POP PUSH2 0xF73 SWAP3 SWAP2 POP PUSH2 0xFBC JUMP JUMPDEST POP SWAP1 JUMP JUMPDEST DUP3 DUP1 SLOAD DUP3 DUP3 SSTORE SWAP1 PUSH0 MSTORE PUSH1 0x20 PUSH0 KECCAK256 SWAP1 DUP2 ADD SWAP3 DUP3 ISZERO PUSH2 0xFB0 JUMPI SWAP2 PUSH1 0x20 MUL DUP3 ADD JUMPDEST DUP3 DUP2 GT ISZERO PUSH2 0xFB0 JUMPI DUP3 MLOAD DUP3 SSTORE SWAP2 PUSH1 0x20 ADD SWAP2 SWAP1 PUSH1 0x1 ADD SWAP1 PUSH2 0xF95 JUMP JUMPDEST POP PUSH2 0xF73 SWAP3 SWAP2 POP PUSH2 0xFD8 JUMP JUMPDEST DUP1 DUP3 GT ISZERO PUSH2 0xF73 JUMPI PUSH0 PUSH2 0xFCF DUP3 DUP3 PUSH2 0xFEC JUMP JUMPDEST POP PUSH1 0x1 ADD PUSH2 0xFBC JUMP JUMPDEST JUMPDEST DUP1 DUP3 GT ISZERO PUSH2 0xF73 JUMPI PUSH0 DUP2 SSTORE PUSH1 0x1 ADD PUSH2 0xFD9 JUMP JUMPDEST POP DUP1 SLOAD PUSH2 0xFF8 SWAP1 PUSH2 0x16AE JUMP JUMPDEST PUSH0 DUP3 SSTORE DUP1 PUSH1 0x1F LT PUSH2 0x1007 JUMPI POP POP JUMP JUMPDEST PUSH1 0x1F ADD PUSH1 0x20 SWAP1 DIV SWAP1 PUSH0 MSTORE PUSH1 0x20 PUSH0 KECCAK256 SWAP1 DUP2 ADD SWAP1 PUSH2 0x1023 SWAP2 SWAP1 PUSH2 0xFD8 JUMP JUMPDEST POP JUMP JUMPDEST PUSH4 0x4E487B71 PUSH1 0xE0 SHL PUSH0 MSTORE PUSH1 0x41 PUSH1 0x4 MSTORE PUSH1 0x24 PUSH0 REVERT JUMPDEST PUSH1 0x40 MLOAD PUSH1 0x1F DUP3 ADD PUSH1 0x1F NOT AND DUP2 ADD PUSH8 0xFFFFFFFFFFFFFFFF DUP2 GT DUP3 DUP3 LT OR ISZERO PUSH2 0x1063 JUMPI PUSH2 0x1063 PUSH2 0x1026 JUMP JUMPDEST PUSH1 0x40 MSTORE SWAP2 SWAP1 POP JUMP JUMPDEST PUSH0 DUP3 PUSH1 0x1F DUP4 ADD SLT PUSH2 0x107A JUMPI PUSH0 DUP1 REVERT JUMPDEST DUP2 CALLDATALOAD PUSH8 0xFFFFFFFFFFFFFFFF DUP2 GT ISZERO PUSH2 0x1094 JUMPI PUSH2 0x1094 PUSH2 0x1026 JUMP JUMPDEST PUSH2 0x10A7 PUSH1 0x1F DUP3 ADD PUSH1 0x1F NOT AND PUSH1 0x20 ADD PUSH2 0x103A JUMP JUMPDEST DUP2 DUP2 MSTORE DUP5 PUSH1 0x20 DUP4 DUP7 ADD ADD GT ISZERO PUSH2 0x10BB JUMPI PUSH0 DUP1 REVERT JUMPDEST DUP2 PUSH1 0x20 DUP6 ADD PUSH1 0x20 DUP4 ADD CALLDATACOPY PUSH0 SWAP2 DUP2 ADD PUSH1 0x20 ADD SWAP2 SWAP1 SWAP2 MSTORE SWAP4 SWAP3 POP POP POP JUMP JUMPDEST PUSH0 PUSH8 0xFFFFFFFFFFFFFFFF DUP3 GT ISZERO PUSH2 0x10F0 JUMPI PUSH2 0x10F0 PUSH2 0x1026 JUMP JUMPDEST POP PUSH1 0x5 SHL PUSH1 0x20 ADD SWAP1 JUMP JUMPDEST PUSH0 DUP3 PUSH1 0x1F DUP4 ADD SLT PUSH2 0x1109 JUMPI PUSH0 DUP1 REVERT JUMPDEST DUP2 CALLDATALOAD PUSH1 0x20 PUSH2 0x111E PUSH2 0x1119 DUP4 PUSH2 0x10D7 JUMP JUMPDEST PUSH2 0x103A JUMP JUMPDEST DUP3 DUP2 MSTORE PUSH1 0x5 SWAP3 SWAP1 SWAP3 SHL DUP5 ADD DUP2 ADD SWAP2 DUP2 DUP2 ADD SWAP1 DUP7 DUP5 GT ISZERO PUSH2 0x113C JUMPI PUSH0 DUP1 REVERT JUMPDEST DUP3 DUP7 ADD JUMPDEST DUP5 DUP2 LT ISZERO PUSH2 0x117A JUMPI DUP1 CALLDATALOAD PUSH8 0xFFFFFFFFFFFFFFFF DUP2 GT ISZERO PUSH2 0x115E JUMPI PUSH0 DUP1 REVERT JUMPDEST PUSH2 0x116C DUP10 DUP7 DUP4 DUP12 ADD ADD PUSH2 0x106B JUMP JUMPDEST DUP5 MSTORE POP SWAP2 DUP4 ADD SWAP2 DUP4 ADD PUSH2 0x1140 JUMP JUMPDEST POP SWAP7 SWAP6 POP POP POP POP POP POP JUMP JUMPDEST PUSH0 DUP1 PUSH0 DUP1 PUSH0 PUSH1 0xA0 DUP7 DUP9 SUB SLT ISZERO PUSH2 0x1199 JUMPI PUSH0 DUP1 REVERT JUMPDEST DUP6 CALLDATALOAD SWAP5 POP PUSH1 0x20 DUP7 ADD CALLDATALOAD PUSH8 0xFFFFFFFFFFFFFFFF DUP1 DUP3 GT ISZERO PUSH2 0x11B7 JUMPI PUSH0 DUP1 REVERT JUMPDEST PUSH2 0x11C3 DUP10 DUP4 DUP11 ADD PUSH2 0x106B JUMP JUMPDEST SWAP6 POP PUSH1 0x40 DUP9 ADD CALLDATALOAD SWAP2 POP DUP1 DUP3 GT ISZERO PUSH2 0x11D8 JUMPI PUSH0 DUP1 REVERT JUMPDEST PUSH2 0x11E4 DUP10 DUP4 DUP11 ADD PUSH2 0x106B JUMP JUMPDEST SWAP5 POP PUSH1 0x60 DUP9 ADD CALLDATALOAD SWAP2 POP DUP1 DUP3 GT ISZERO PUSH2 0x11F9 JUMPI PUSH0 DUP1 REVERT JUMPDEST PUSH2 0x1205 DUP10 DUP4 DUP11 ADD PUSH2 0x106B JUMP JUMPDEST SWAP4 POP PUSH1 0x80 DUP9 ADD CALLDATALOAD SWAP2 POP DUP1 DUP3 GT ISZERO PUSH2 0x121A JUMPI PUSH0 DUP1 REVERT JUMPDEST POP PUSH2 0x1227 DUP9 DUP3 DUP10 ADD PUSH2 0x10FA JUMP JUMPDEST SWAP2 POP POP SWAP3 SWAP6 POP SWAP3 SWAP6 SWAP1 SWAP4 POP JUMP JUMPDEST PUSH1 0x20 DUP1 DUP3 MSTORE DUP3 MLOAD DUP3 DUP3 ADD DUP2 SWAP1 MSTORE PUSH0 SWAP2 SWAP1 DUP5 DUP3 ADD SWAP1 PUSH1 0x40 DUP6 ADD SWAP1 DUP5 JUMPDEST DUP2 DUP2 LT ISZERO PUSH2 0x126B JUMPI DUP4 MLOAD DUP4 MSTORE SWAP3 DUP5 ADD SWAP3 SWAP2 DUP5 ADD SWAP2 PUSH1 0x1 ADD PUSH2 0x124F JUMP JUMPDEST POP SWAP1 SWAP7 SWAP6 POP POP POP POP POP POP JUMP JUMPDEST PUSH0 PUSH1 0x20 DUP3 DUP5 SUB SLT ISZERO PUSH2 0x1287 JUMPI PUSH0 DUP1 REVERT JUMPDEST POP CALLDATALOAD SWAP2 SWAP1 POP JUMP JUMPDEST PUSH0 DUP1 PUSH0 PUSH1 0x60 DUP5 DUP7 SUB SLT ISZERO PUSH2 0x12A0 JUMPI PUSH0 DUP1 REVERT JUMPDEST DUP4 CALLDATALOAD SWAP3 POP PUSH1 0x20 DUP5 ADD CALLDATALOAD PUSH1 0x1 PUSH1 0x1 PUSH1 0xA0 SHL SUB DUP2 AND DUP2 EQ PUSH2 0x12BD JUMPI PUSH0 DUP1 REVERT JUMPDEST SWAP2 POP PUSH1 0x40 DUP5 ADD CALLDATALOAD PUSH8 0xFFFFFFFFFFFFFFFF DUP2 GT ISZERO PUSH2 0x12D8 JUMPI PUSH0 DUP1 REVERT JUMPDEST PUSH2 0x12E4 DUP7 DUP3 DUP8 ADD PUSH2 0x106B JUMP JUMPDEST SWAP2 POP POP SWAP3 POP SWAP3 POP SWAP3 JUMP JUMPDEST PUSH0 JUMPDEST DUP4 DUP2 LT ISZERO PUSH2 0x1308 JUMPI DUP2 DUP2 ADD MLOAD DUP4 DUP3 ADD MSTORE PUSH1 0x20 ADD PUSH2 0x12F0 JUMP JUMPDEST POP POP PUSH0 SWAP2 ADD MSTORE JUMP JUMPDEST PUSH0 DUP2 MLOAD DUP1 DUP5 MSTORE PUSH2 0x1327 DUP2 PUSH1 0x20 DUP7 ADD PUSH1 0x20 DUP7 ADD PUSH2 0x12EE JUMP JUMPDEST PUSH1 0x1F ADD PUSH1 0x1F NOT AND SWAP3 SWAP1 SWAP3 ADD PUSH1 0x20 ADD SWAP3 SWAP2 POP POP JUMP JUMPDEST PUSH1 0x20 DUP2 MSTORE DUP2 MLOAD PUSH1 0x20 DUP3 ADD MSTORE PUSH1 0x1 DUP1 PUSH1 0xA0 SHL SUB PUSH1 0x20 DUP4 ADD MLOAD AND PUSH1 0x40 DUP3 ADD MSTORE PUSH0 PUSH1 0x40 DUP4 ADD MLOAD PUSH1 0x60 DUP1 DUP5 ADD MSTORE PUSH2 0x1371 PUSH1 0x80 DUP5 ADD DUP3 PUSH2 0x1310 JUMP JUMPDEST SWAP5 SWAP4 POP POP POP POP JUMP JUMPDEST PUSH0 DUP1 PUSH0 DUP1 PUSH0 PUSH1 0xA0 DUP7 DUP9 SUB SLT ISZERO PUSH2 0x138D JUMPI PUSH0 DUP1 REVERT JUMPDEST DUP6 CALLDATALOAD PUSH8 0xFFFFFFFFFFFFFFFF DUP1 DUP3 GT ISZERO PUSH2 0x13A4 JUMPI PUSH0 DUP1 REVERT JUMPDEST PUSH2 0x13B0 DUP10 DUP4 DUP11 ADD PUSH2 0x106B JUMP JUMPDEST SWAP7 POP PUSH1 0x20 SWAP2 POP DUP2 DUP9 ADD CALLDATALOAD DUP2 DUP2 GT ISZERO PUSH2 0x13C6 JUMPI PUSH0 DUP1 REVERT JUMPDEST PUSH2 0x13D2 DUP11 DUP3 DUP12 ADD PUSH2 0x106B JUMP JUMPDEST SWAP7 POP POP PUSH1 0x40 DUP9 ADD CALLDATALOAD SWAP5 POP PUSH1 0x60 DUP9 ADD CALLDATALOAD DUP2 DUP2 GT ISZERO PUSH2 0x13ED JUMPI PUSH0 DUP1 REVERT JUMPDEST PUSH2 0x13F9 DUP11 DUP3 DUP12 ADD PUSH2 0x10FA JUMP JUMPDEST SWAP5 POP POP PUSH1 0x80 DUP9 ADD CALLDATALOAD DUP2 DUP2 GT ISZERO PUSH2 0x140D JUMPI PUSH0 DUP1 REVERT JUMPDEST DUP9 ADD SWAP1 POP PUSH1 0x1F DUP2 ADD DUP10 SGT PUSH2 0x141F JUMPI PUSH0 DUP1 REVERT JUMPDEST DUP1 CALLDATALOAD PUSH2 0x142D PUSH2 0x1119 DUP3 PUSH2 0x10D7 JUMP JUMPDEST DUP2 DUP2 MSTORE PUSH1 0x5 SWAP2 SWAP1 SWAP2 SHL DUP3 ADD DUP4 ADD SWAP1 DUP4 DUP2 ADD SWAP1 DUP12 DUP4 GT ISZERO PUSH2 0x144B JUMPI PUSH0 DUP1 REVERT JUMPDEST SWAP3 DUP5 ADD SWAP3 JUMPDEST DUP3 DUP5 LT ISZERO PUSH2 0x1469 JUMPI DUP4 CALLDATALOAD DUP3 MSTORE SWAP3 DUP5 ADD SWAP3 SWAP1 DUP5 ADD SWAP1 PUSH2 0x1450 JUMP JUMPDEST DUP1 SWAP6 POP POP POP POP POP POP SWAP3 SWAP6 POP SWAP3 SWAP6 SWAP1 SWAP4 POP JUMP JUMPDEST PUSH0 DUP3 DUP3 MLOAD DUP1 DUP6 MSTORE PUSH1 0x20 DUP1 DUP7 ADD SWAP6 POP PUSH1 0x20 DUP3 PUSH1 0x5 SHL DUP5 ADD ADD PUSH1 0x20 DUP7 ADD PUSH0 JUMPDEST DUP5 DUP2 LT ISZERO PUSH2 0x14C6 JUMPI PUSH1 0x1F NOT DUP7 DUP5 SUB ADD DUP10 MSTORE PUSH2 0x14B4 DUP4 DUP4 MLOAD PUSH2 0x1310 JUMP JUMPDEST SWAP9 DUP5 ADD SWAP9 SWAP3 POP SWAP1 DUP4 ADD SWAP1 PUSH1 0x1 ADD PUSH2 0x1498 JUMP JUMPDEST POP SWAP1 SWAP8 SWAP7 POP POP POP POP POP POP POP JUMP JUMPDEST PUSH0 DUP2 MLOAD DUP1 DUP5 MSTORE PUSH1 0x20 DUP1 DUP6 ADD SWAP5 POP PUSH1 0x20 DUP5 ADD PUSH0 JUMPDEST DUP4 DUP2 LT ISZERO PUSH2 0x1502 JUMPI DUP2 MLOAD DUP8 MSTORE SWAP6 DUP3 ADD SWAP6 SWAP1 DUP3 ADD SWAP1 PUSH1 0x1 ADD PUSH2 0x14E6 JUMP JUMPDEST POP SWAP5 SWAP6 SWAP5 POP POP POP POP POP JUMP JUMPDEST PUSH0 PUSH1 0x20 DUP1 DUP4 MSTORE DUP4 MLOAD PUSH1 0xC0 DUP3 DUP6 ADD MSTORE PUSH2 0x1528 PUSH1 0xE0 DUP6 ADD DUP3 PUSH2 0x1310 JUMP JUMPDEST SWAP1 POP DUP2 DUP6 ADD MLOAD PUSH1 0x1F NOT DUP1 DUP7 DUP5 SUB ADD PUSH1 0x40 DUP8 ADD MSTORE PUSH2 0x1545 DUP4 DUP4 PUSH2 0x1310 JUMP JUMPDEST SWAP3 POP PUSH1 0x40 DUP8 ADD MLOAD PUSH1 0x60 DUP8 ADD MSTORE PUSH1 0x60 DUP8 ADD MLOAD SWAP2 POP DUP1 DUP7 DUP5 SUB ADD PUSH1 0x80 DUP8 ADD MSTORE PUSH2 0x156C DUP4 DUP4 PUSH2 0x147B JUMP JUMPDEST PUSH1 0x80 DUP9 ADD MLOAD DUP8 DUP3 SUB DUP4 ADD PUSH1 0xA0 DUP10 ADD MSTORE DUP1 MLOAD DUP1 DUP4 MSTORE SWAP1 DUP7 ADD SWAP5 POP PUSH0 SWAP4 POP SWAP1 DUP6 ADD SWAP1 JUMPDEST DUP1 DUP5 LT ISZERO PUSH2 0x15AD JUMPI DUP5 MLOAD DUP3 MSTORE SWAP4 DUP6 ADD SWAP4 PUSH1 0x1 SWAP4 SWAP1 SWAP4 ADD SWAP3 SWAP1 DUP6 ADD SWAP1 PUSH2 0x158D JUMP JUMPDEST POP PUSH1 0xA0 DUP9 ADD MLOAD SWAP5 POP DUP2 DUP8 DUP3 SUB ADD PUSH1 0xC0 DUP9 ADD MSTORE PUSH2 0x15C9 DUP2 DUP7 PUSH2 0x14D3 JUMP JUMPDEST SWAP9 SWAP8 POP POP POP POP POP POP POP POP JUMP JUMPDEST PUSH1 0x20 DUP2 MSTORE DUP2 MLOAD PUSH1 0x20 DUP3 ADD MSTORE PUSH0 PUSH1 0x20 DUP4 ADD MLOAD PUSH1 0xA0 PUSH1 0x40 DUP5 ADD MSTORE PUSH2 0x15FA PUSH1 0xC0 DUP5 ADD DUP3 PUSH2 0x1310 JUMP JUMPDEST SWAP1 POP PUSH1 0x40 DUP5 ADD MLOAD PUSH1 0x1F NOT DUP1 DUP6 DUP5 SUB ADD PUSH1 0x60 DUP7 ADD MSTORE PUSH2 0x1618 DUP4 DUP4 PUSH2 0x1310 JUMP JUMPDEST SWAP3 POP PUSH1 0x60 DUP7 ADD MLOAD SWAP2 POP DUP1 DUP6 DUP5 SUB ADD PUSH1 0x80 DUP7 ADD MSTORE PUSH2 0x1635 DUP4 DUP4 PUSH2 0x1310 JUMP JUMPDEST SWAP3 POP PUSH1 0x80 DUP7 ADD MLOAD SWAP2 POP DUP1 DUP6 DUP5 SUB ADD PUSH1 0xA0 DUP7 ADD MSTORE POP PUSH2 0x1653 DUP3 DUP3 PUSH2 0x147B JUMP JUMPDEST SWAP6 SWAP5 POP POP POP POP POP JUMP JUMPDEST PUSH1 0x20 DUP1 DUP3 MSTORE PUSH1 0x32 SWAP1 DUP3 ADD MSTORE PUSH32 0x4F6E6C792074686520636F6E7472616374206F776E65722063616E2070657266 PUSH1 0x40 DUP3 ADD MSTORE PUSH18 0x37B936903A3434B99037B832B930BA34B7B7 PUSH1 0x71 SHL PUSH1 0x60 DUP3 ADD MSTORE PUSH1 0x80 ADD SWAP1 JUMP JUMPDEST PUSH1 0x1 DUP2 DUP2 SHR SWAP1 DUP3 AND DUP1 PUSH2 0x16C2 JUMPI PUSH1 0x7F DUP3 AND SWAP2 POP JUMPDEST PUSH1 0x20 DUP3 LT DUP2 SUB PUSH2 0x16E0 JUMPI PUSH4 0x4E487B71 PUSH1 0xE0 SHL PUSH0 MSTORE PUSH1 0x22 PUSH1 0x4 MSTORE PUSH1 0x24 PUSH0 REVERT JUMPDEST POP SWAP2 SWAP1 POP JUMP JUMPDEST PUSH1 0x1F DUP3 GT ISZERO PUSH2 0x172D JUMPI DUP1 PUSH0 MSTORE PUSH1 0x20 PUSH0 KECCAK256 PUSH1 0x1F DUP5 ADD PUSH1 0x5 SHR DUP2 ADD PUSH1 0x20 DUP6 LT ISZERO PUSH2 0x170B JUMPI POP DUP1 JUMPDEST PUSH1 0x1F DUP5 ADD PUSH1 0x5 SHR DUP3 ADD SWAP2 POP JUMPDEST DUP2 DUP2 LT ISZERO PUSH2 0x172A JUMPI PUSH0 DUP2 SSTORE PUSH1 0x1 ADD PUSH2 0x1717 JUMP JUMPDEST POP POP JUMPDEST POP POP POP JUMP JUMPDEST DUP2 MLOAD PUSH8 0xFFFFFFFFFFFFFFFF DUP2 GT ISZERO PUSH2 0x174C JUMPI PUSH2 0x174C PUSH2 0x1026 JUMP JUMPDEST PUSH2 0x1760 DUP2 PUSH2 0x175A DUP5 SLOAD PUSH2 0x16AE JUMP JUMPDEST DUP5 PUSH2 0x16E6 JUMP JUMPDEST PUSH1 0x20 DUP1 PUSH1 0x1F DUP4 GT PUSH1 0x1 DUP2 EQ PUSH2 0x1793 JUMPI PUSH0 DUP5 ISZERO PUSH2 0x177C JUMPI POP DUP6 DUP4 ADD MLOAD JUMPDEST PUSH0 NOT PUSH1 0x3 DUP7 SWAP1 SHL SHR NOT AND PUSH1 0x1 DUP6 SWAP1 SHL OR DUP6 SSTORE PUSH2 0x17EA JUMP JUMPDEST PUSH0 DUP6 DUP2 MSTORE PUSH1 0x20 DUP2 KECCAK256 PUSH1 0x1F NOT DUP7 AND SWAP2 JUMPDEST DUP3 DUP2 LT ISZERO PUSH2 0x17C1 JUMPI DUP9 DUP7 ADD MLOAD DUP3 SSTORE SWAP5 DUP5 ADD SWAP5 PUSH1 0x1 SWAP1 SWAP2 ADD SWAP1 DUP5 ADD PUSH2 0x17A2 JUMP JUMPDEST POP DUP6 DUP3 LT ISZERO PUSH2 0x17DE JUMPI DUP8 DUP6 ADD MLOAD PUSH0 NOT PUSH1 0x3 DUP9 SWAP1 SHL PUSH1 0xF8 AND SHR NOT AND DUP2 SSTORE JUMPDEST POP POP PUSH1 0x1 DUP5 PUSH1 0x1 SHL ADD DUP6 SSTORE JUMPDEST POP POP POP POP POP POP JUMP JUMPDEST PUSH0 PUSH1 0x1 DUP3 ADD PUSH2 0x180F JUMPI PUSH4 0x4E487B71 PUSH1 0xE0 SHL PUSH0 MSTORE PUSH1 0x11 PUSH1 0x4 MSTORE PUSH1 0x24 PUSH0 REVERT JUMPDEST POP PUSH1 0x1 ADD SWAP1 JUMP JUMPDEST PUSH1 0x20 DUP1 DUP3 MSTORE PUSH1 0x1C SWAP1 DUP3 ADD MSTORE PUSH32 0x506572736F6E616C4461746120646F6573206E6F742065786973742E00000000 PUSH1 0x40 DUP3 ADD MSTORE PUSH1 0x60 ADD SWAP1 JUMP JUMPDEST PUSH0 DUP2 SLOAD PUSH2 0x1859 DUP2 PUSH2 0x16AE JUMP JUMPDEST PUSH1 0x1 DUP3 DUP2 AND DUP1 ISZERO PUSH2 0x1871 JUMPI PUSH1 0x1 DUP2 EQ PUSH2 0x1886 JUMPI PUSH2 0x18B2 JUMP JUMPDEST PUSH1 0xFF NOT DUP5 AND DUP8 MSTORE DUP3 ISZERO ISZERO DUP4 MUL DUP8 ADD SWAP5 POP PUSH2 0x18B2 JUMP JUMPDEST DUP6 PUSH0 MSTORE PUSH1 0x20 DUP1 PUSH0 KECCAK256 PUSH0 JUMPDEST DUP6 DUP2 LT ISZERO PUSH2 0x18A9 JUMPI DUP2 SLOAD DUP11 DUP3 ADD MSTORE SWAP1 DUP5 ADD SWAP1 DUP3 ADD PUSH2 0x1890 JUMP JUMPDEST POP POP POP DUP3 DUP8 ADD SWAP5 POP JUMPDEST POP POP POP POP SWAP3 SWAP2 POP POP JUMP JUMPDEST PUSH0 PUSH2 0x1653 PUSH2 0x18D3 PUSH2 0x18CD DUP5 DUP9 PUSH2 0x184D JUMP JUMPDEST DUP7 PUSH2 0x184D JUMP JUMPDEST DUP5 PUSH2 0x184D JUMP JUMPDEST PUSH4 0x4E487B71 PUSH1 0xE0 SHL PUSH0 MSTORE PUSH1 0x32 PUSH1 0x4 MSTORE PUSH1 0x24 PUSH0 REVERT JUMPDEST PUSH0 DUP4 MLOAD PUSH2 0x18FE DUP2 DUP5 PUSH1 0x20 DUP9 ADD PUSH2 0x12EE JUMP JUMPDEST PUSH2 0x1653 DUP2 DUP5 ADD DUP6 PUSH2 0x184D JUMP INVALID LOG2 PUSH5 0x6970667358 0x22 SLT KECCAK256 PUSH3 0x3D26CB PUSH15 0x10D89ED50FFF416B99834B6C140FD1 PUSH6 0x6333D96BD01A 0xD6 0xAE 0x2C 0xC9 0x28 PUSH5 0x736F6C6343 STOP ADDMOD XOR STOP CALLER "
				},
				"gasEstimates": {
					"creation": {
						"codeDepositCost": "1292800",
						"executionCost": "35584",
						"totalCost": "1328384"
					},
					"external": {
						"addActor(uint256,address,string)": "infinite",
						"addDataUsage(string,string,uint256,string[],uint256[])": "infinite",
						"addPersonalData(uint256,string,string,string,string[])": "infinite",
						"addProcessedPersonalData(uint256)": "infinite",
						"getActorByKey(uint256)": "infinite",
						"getActorIds()": "infinite",
						"getDataUsageByKey(uint256)": "infinite",
						"getDataUsageCounter()": "2380",
						"getPersonalDataByKey(uint256)": "infinite",
						"getPersonalDataCounter()": "2347",
						"getProcessedPersonalDataByKey(uint256)": "4596",
						"owner()": "2446"
					}
				},
				"methodIdentifiers": {
					"addActor(uint256,address,string)": "9d8a9190",
					"addDataUsage(string,string,uint256,string[],uint256[])": "ca07b122",
					"addPersonalData(uint256,string,string,string,string[])": "0dab7cd9",
					"addProcessedPersonalData(uint256)": "3f81de59",
					"getActorByKey(uint256)": "c585665d",
					"getActorIds()": "3a918356",
					"getDataUsageByKey(uint256)": "d2b0649a",
					"getDataUsageCounter()": "682477d7",
					"getPersonalDataByKey(uint256)": "d8a761d9",
					"getPersonalDataCounter()": "4b58fbe9",
					"getProcessedPersonalDataByKey(uint256)": "b61798f6",
					"owner()": "8da5cb5b"
				}
			},
			"storageLayout": {
				"storage": [
					{
						"astId": 3,
						"contract": "contracts/DataUsageSmartContract.sol:DataUsageSmartContract",
						"label": "owner",
						"offset": 0,
						"slot": "0",
						"type": "t_address"
					},
					{
						"astId": 209,
						"contract": "contracts/DataUsageSmartContract.sol:DataUsageSmartContract",
						"label": "dataUsages",
						"offset": 0,
						"slot": "1",
						"type": "t_mapping(t_uint256,t_struct(DataUsage)185_storage)"
					},
					{
						"astId": 214,
						"contract": "contracts/DataUsageSmartContract.sol:DataUsageSmartContract",
						"label": "actors",
						"offset": 0,
						"slot": "2",
						"type": "t_mapping(t_uint256,t_struct(Actor)192_storage)"
					},
					{
						"astId": 219,
						"contract": "contracts/DataUsageSmartContract.sol:DataUsageSmartContract",
						"label": "personalDatas",
						"offset": 0,
						"slot": "3",
						"type": "t_mapping(t_uint256,t_struct(PersonalData)204_storage)"
					},
					{
						"astId": 223,
						"contract": "contracts/DataUsageSmartContract.sol:DataUsageSmartContract",
						"label": "processedPersonalDatas",
						"offset": 0,
						"slot": "4",
						"type": "t_mapping(t_uint256,t_bytes32)"
					},
					{
						"astId": 226,
						"contract": "contracts/DataUsageSmartContract.sol:DataUsageSmartContract",
						"label": "dataUsageCounter",
						"offset": 0,
						"slot": "5",
						"type": "t_uint256"
					},
					{
						"astId": 229,
						"contract": "contracts/DataUsageSmartContract.sol:DataUsageSmartContract",
						"label": "actorIds",
						"offset": 0,
						"slot": "6",
						"type": "t_array(t_uint256)dyn_storage"
					},
					{
						"astId": 232,
						"contract": "contracts/DataUsageSmartContract.sol:DataUsageSmartContract",
						"label": "personalDataCounter",
						"offset": 0,
						"slot": "7",
						"type": "t_uint256"
					}
				],
				"types": {
					"t_address": {
						"encoding": "inplace",
						"label": "address",
						"numberOfBytes": "20"
					},
					"t_array(t_bytes32)dyn_storage": {
						"base": "t_bytes32",
						"encoding": "dynamic_array",
						"label": "bytes32[]",
						"numberOfBytes": "32"
					},
					"t_array(t_string_storage)dyn_storage": {
						"base": "t_string_storage",
						"encoding": "dynamic_array",
						"label": "string[]",
						"numberOfBytes": "32"
					},
					"t_array(t_uint256)dyn_storage": {
						"base": "t_uint256",
						"encoding": "dynamic_array",
						"label": "uint256[]",
						"numberOfBytes": "32"
					},
					"t_bytes32": {
						"encoding": "inplace",
						"label": "bytes32",
						"numberOfBytes": "32"
					},
					"t_mapping(t_uint256,t_bytes32)": {
						"encoding": "mapping",
						"key": "t_uint256",
						"label": "mapping(uint256 => bytes32)",
						"numberOfBytes": "32",
						"value": "t_bytes32"
					},
					"t_mapping(t_uint256,t_struct(Actor)192_storage)": {
						"encoding": "mapping",
						"key": "t_uint256",
						"label": "mapping(uint256 => struct DataUsageSmartContract.Actor)",
						"numberOfBytes": "32",
						"value": "t_struct(Actor)192_storage"
					},
					"t_mapping(t_uint256,t_struct(DataUsage)185_storage)": {
						"encoding": "mapping",
						"key": "t_uint256",
						"label": "mapping(uint256 => struct DataUsageSmartContract.DataUsage)",
						"numberOfBytes": "32",
						"value": "t_struct(DataUsage)185_storage"
					},
					"t_mapping(t_uint256,t_struct(PersonalData)204_storage)": {
						"encoding": "mapping",
						"key": "t_uint256",
						"label": "mapping(uint256 => struct DataUsageSmartContract.PersonalData)",
						"numberOfBytes": "32",
						"value": "t_struct(PersonalData)204_storage"
					},
					"t_string_storage": {
						"encoding": "bytes",
						"label": "string",
						"numberOfBytes": "32"
					},
					"t_struct(Actor)192_storage": {
						"encoding": "inplace",
						"label": "struct DataUsageSmartContract.Actor",
						"members": [
							{
								"astId": 187,
								"contract": "contracts/DataUsageSmartContract.sol:DataUsageSmartContract",
								"label": "actorId",
								"offset": 0,
								"slot": "0",
								"type": "t_uint256"
							},
							{
								"astId": 189,
								"contract": "contracts/DataUsageSmartContract.sol:DataUsageSmartContract",
								"label": "actorAddress",
								"offset": 0,
								"slot": "1",
								"type": "t_address"
							},
							{
								"astId": 191,
								"contract": "contracts/DataUsageSmartContract.sol:DataUsageSmartContract",
								"label": "actorName",
								"offset": 0,
								"slot": "2",
								"type": "t_string_storage"
							}
						],
						"numberOfBytes": "96"
					},
					"t_struct(DataUsage)185_storage": {
						"encoding": "inplace",
						"label": "struct DataUsageSmartContract.DataUsage",
						"members": [
							{
								"astId": 171,
								"contract": "contracts/DataUsageSmartContract.sol:DataUsageSmartContract",
								"label": "serviceName",
								"offset": 0,
								"slot": "0",
								"type": "t_string_storage"
							},
							{
								"astId": 173,
								"contract": "contracts/DataUsageSmartContract.sol:DataUsageSmartContract",
								"label": "servicePurpose",
								"offset": 0,
								"slot": "1",
								"type": "t_string_storage"
							},
							{
								"astId": 175,
								"contract": "contracts/DataUsageSmartContract.sol:DataUsageSmartContract",
								"label": "actorId",
								"offset": 0,
								"slot": "2",
								"type": "t_uint256"
							},
							{
								"astId": 178,
								"contract": "contracts/DataUsageSmartContract.sol:DataUsageSmartContract",
								"label": "operations",
								"offset": 0,
								"slot": "3",
								"type": "t_array(t_string_storage)dyn_storage"
							},
							{
								"astId": 181,
								"contract": "contracts/DataUsageSmartContract.sol:DataUsageSmartContract",
								"label": "personalDataIds",
								"offset": 0,
								"slot": "4",
								"type": "t_array(t_uint256)dyn_storage"
							},
							{
								"astId": 184,
								"contract": "contracts/DataUsageSmartContract.sol:DataUsageSmartContract",
								"label": "processedPersonalDatas",
								"offset": 0,
								"slot": "5",
								"type": "t_array(t_bytes32)dyn_storage"
							}
						],
						"numberOfBytes": "192"
					},
					"t_struct(PersonalData)204_storage": {
						"encoding": "inplace",
						"label": "struct DataUsageSmartContract.PersonalData",
						"members": [
							{
								"astId": 194,
								"contract": "contracts/DataUsageSmartContract.sol:DataUsageSmartContract",
								"label": "userId",
								"offset": 0,
								"slot": "0",
								"type": "t_uint256"
							},
							{
								"astId": 196,
								"contract": "contracts/DataUsageSmartContract.sol:DataUsageSmartContract",
								"label": "userName",
								"offset": 0,
								"slot": "1",
								"type": "t_string_storage"
							},
							{
								"astId": 198,
								"contract": "contracts/DataUsageSmartContract.sol:DataUsageSmartContract",
								"label": "userAddress",
								"offset": 0,
								"slot": "2",
								"type": "t_string_storage"
							},
							{
								"astId": 200,
								"contract": "contracts/DataUsageSmartContract.sol:DataUsageSmartContract",
								"label": "userTelephone",
								"offset": 0,
								"slot": "3",
								"type": "t_string_storage"
							},
							{
								"astId": 203,
								"contract": "contracts/DataUsageSmartContract.sol:DataUsageSmartContract",
								"label": "additionalInfos",
								"offset": 0,
								"slot": "4",
								"type": "t_array(t_string_storage)dyn_storage"
							}
						],
						"numberOfBytes": "160"
					},
					"t_uint256": {
						"encoding": "inplace",
						"label": "uint256",
						"numberOfBytes": "32"
					}
				}
			},
			"userdoc": {
				"kind": "user",
				"methods": {},
				"version": 1
			}
		}
	}
}