{
	"contracts/DataUsageSmartContract.sol": {
		"DataUsageSmartContract": {
			"abi": [
				{
					"anonymous": false,
					"inputs": [
						{
							"indexed": false,
							"internalType": "uint256",
							"name": "dataUsageId",
							"type": "uint256"
						}
					],
					"name": "DataUsageAdded",
					"type": "event"
				},
				{
					"inputs": [
						{
							"internalType": "uint256",
							"name": "_actorId",
							"type": "uint256"
						},
						{
							"internalType": "string",
							"name": "_actorName",
							"type": "string"
						}
					],
					"name": "addActor",
					"outputs": [],
					"stateMutability": "nonpayable",
					"type": "function"
				},
				{
					"inputs": [
						{
							"internalType": "string",
							"name": "_serviceName",
							"type": "string"
						},
						{
							"internalType": "string",
							"name": "_servicePurpose",
							"type": "string"
						},
						{
							"internalType": "uint256",
							"name": "_actorId",
							"type": "uint256"
						},
						{
							"internalType": "string[]",
							"name": "_operations",
							"type": "string[]"
						},
						{
							"internalType": "uint256[]",
							"name": "_personalDataIds",
							"type": "uint256[]"
						}
					],
					"name": "addDataUsage",
					"outputs": [],
					"stateMutability": "nonpayable",
					"type": "function"
				},
				{
					"inputs": [
						{
							"internalType": "uint256",
							"name": "_userId",
							"type": "uint256"
						},
						{
							"internalType": "string",
							"name": "_userName",
							"type": "string"
						},
						{
							"internalType": "string",
							"name": "_userAddress",
							"type": "string"
						},
						{
							"internalType": "string",
							"name": "_userTelephone",
							"type": "string"
						},
						{
							"internalType": "string[]",
							"name": "additionalInfos",
							"type": "string[]"
						}
					],
					"name": "addPersonalData",
					"outputs": [],
					"stateMutability": "nonpayable",
					"type": "function"
				},
				{
					"inputs": [
						{
							"internalType": "uint256",
							"name": "_personalDataId",
							"type": "uint256"
						}
					],
					"name": "addProcessedPersonalData",
					"outputs": [],
					"stateMutability": "nonpayable",
					"type": "function"
				},
				{
					"inputs": [
						{
							"internalType": "uint256",
							"name": "_actorId",
							"type": "uint256"
						}
					],
					"name": "getActorByKey",
					"outputs": [
						{
							"components": [
								{
									"internalType": "uint256",
									"name": "actorId",
									"type": "uint256"
								},
								{
									"internalType": "string",
									"name": "actorName",
									"type": "string"
								}
							],
							"internalType": "struct DataUsageSmartContract.Actor",
							"name": "",
							"type": "tuple"
						}
					],
					"stateMutability": "view",
					"type": "function"
				},
				{
					"inputs": [],
					"name": "getActorIds",
					"outputs": [
						{
							"internalType": "uint256[]",
							"name": "",
							"type": "uint256[]"
						}
					],
					"stateMutability": "view",
					"type": "function"
				},
				{
					"inputs": [
						{
							"internalType": "uint256",
							"name": "_actorConsentId",
							"type": "uint256"
						}
					],
					"name": "getDataUsageByKey",
					"outputs": [
						{
							"components": [
								{
									"internalType": "string",
									"name": "serviceName",
									"type": "string"
								},
								{
									"internalType": "string",
									"name": "servicePurpose",
									"type": "string"
								},
								{
									"internalType": "uint256",
									"name": "actorConsentId",
									"type": "uint256"
								},
								{
									"internalType": "string[]",
									"name": "operations",
									"type": "string[]"
								},
								{
									"internalType": "uint256[]",
									"name": "personalDataIds",
									"type": "uint256[]"
								},
								{
									"internalType": "bytes32[]",
									"name": "processedPersonalDatas",
									"type": "bytes32[]"
								}
							],
							"internalType": "struct DataUsageSmartContract.DataUsage",
							"name": "",
							"type": "tuple"
						}
					],
					"stateMutability": "view",
					"type": "function"
				},
				{
					"inputs": [],
					"name": "getDataUsageCounter",
					"outputs": [
						{
							"internalType": "uint256",
							"name": "",
							"type": "uint256"
						}
					],
					"stateMutability": "view",
					"type": "function"
				},
				{
					"inputs": [
						{
							"internalType": "uint256",
							"name": "_personalDataId",
							"type": "uint256"
						}
					],
					"name": "getPersonalDataByKey",
					"outputs": [
						{
							"components": [
								{
									"internalType": "uint256",
									"name": "userId",
									"type": "uint256"
								},
								{
									"internalType": "string",
									"name": "userName",
									"type": "string"
								},
								{
									"internalType": "string",
									"name": "userAddress",
									"type": "string"
								},
								{
									"internalType": "string",
									"name": "userTelephone",
									"type": "string"
								},
								{
									"internalType": "string[]",
									"name": "additionalInfos",
									"type": "string[]"
								}
							],
							"internalType": "struct DataUsageSmartContract.PersonalData",
							"name": "",
							"type": "tuple"
						}
					],
					"stateMutability": "view",
					"type": "function"
				},
				{
					"inputs": [],
					"name": "getPersonalDataCounter",
					"outputs": [
						{
							"internalType": "uint256",
							"name": "",
							"type": "uint256"
						}
					],
					"stateMutability": "view",
					"type": "function"
				},
				{
					"inputs": [
						{
							"internalType": "uint256",
							"name": "_personalDataId",
							"type": "uint256"
						}
					],
					"name": "getProcessedPersonalDataByKey",
					"outputs": [
						{
							"internalType": "bytes32",
							"name": "",
							"type": "bytes32"
						}
					],
					"stateMutability": "view",
					"type": "function"
				},
				{
					"inputs": [],
					"name": "owner",
					"outputs": [
						{
							"internalType": "address",
							"name": "",
							"type": "address"
						}
					],
					"stateMutability": "view",
					"type": "function"
				}
			],
			"devdoc": {
				"kind": "dev",
				"methods": {},
				"version": 1
			},
			"evm": {
				"assembly": "    /* \"contracts/DataUsageSmartContract.sol\":94:6714  contract DataUsageSmartContract is AccessControl {... */\n  mstore(0x40, 0x80)\n    /* \"contracts/DataUsageSmartContract.sol\":1462:1463  0 */\n  0x00\n    /* \"contracts/DataUsageSmartContract.sol\":1430:1463  uint private dataUsageCounter = 0 */\n  0x05\n  sstore\n    /* \"contracts/DataUsageSmartContract.sol\":1535:1536  0 */\n  0x00\n    /* \"contracts/DataUsageSmartContract.sol\":1500:1536  uint private personalDataCounter = 0 */\n  0x07\n  sstore\n    /* \"contracts/DataUsageSmartContract.sol\":94:6714  contract DataUsageSmartContract is AccessControl {... */\n  callvalue\n  dup1\n  iszero\n  tag_1\n  jumpi\n  0x00\n  dup1\n  revert\ntag_1:\n  pop\n    /* \"contracts/AccessControl.sol\":145:155  msg.sender */\n  caller\n    /* \"contracts/AccessControl.sol\":137:142  owner */\n  0x00\n  dup1\n    /* \"contracts/AccessControl.sol\":137:155  owner = msg.sender */\n  0x0100\n  exp\n  dup2\n  sload\n  dup2\n  0xffffffffffffffffffffffffffffffffffffffff\n  mul\n  not\n  and\n  swap1\n  dup4\n  0xffffffffffffffffffffffffffffffffffffffff\n  and\n  mul\n  or\n  swap1\n  sstore\n  pop\n    /* \"contracts/DataUsageSmartContract.sol\":94:6714  contract DataUsageSmartContract is AccessControl {... */\n  dataSize(sub_0)\n  dup1\n  dataOffset(sub_0)\n  0x00\n  codecopy\n  0x00\n  return\nstop\n\nsub_0: assembly {\n        /* \"contracts/DataUsageSmartContract.sol\":94:6714  contract DataUsageSmartContract is AccessControl {... */\n      mstore(0x40, 0x80)\n      callvalue\n      dup1\n      iszero\n      tag_1\n      jumpi\n      0x00\n      dup1\n      revert\n    tag_1:\n      pop\n      jumpi(tag_2, lt(calldatasize, 0x04))\n      shr(0xe0, calldataload(0x00))\n      dup1\n      0x8da5cb5b\n      gt\n      tag_15\n      jumpi\n      dup1\n      0x8da5cb5b\n      eq\n      tag_9\n      jumpi\n      dup1\n      0xb61798f6\n      eq\n      tag_10\n      jumpi\n      dup1\n      0xc585665d\n      eq\n      tag_11\n      jumpi\n      dup1\n      0xca07b122\n      eq\n      tag_12\n      jumpi\n      dup1\n      0xd2b0649a\n      eq\n      tag_13\n      jumpi\n      dup1\n      0xd8a761d9\n      eq\n      tag_14\n      jumpi\n      jump(tag_2)\n    tag_15:\n      dup1\n      0x0dab7cd9\n      eq\n      tag_3\n      jumpi\n      dup1\n      0x3a918356\n      eq\n      tag_4\n      jumpi\n      dup1\n      0x3f81de59\n      eq\n      tag_5\n      jumpi\n      dup1\n      0x4b58fbe9\n      eq\n      tag_6\n      jumpi\n      dup1\n      0x682477d7\n      eq\n      tag_7\n      jumpi\n      dup1\n      0x68e92436\n      eq\n      tag_8\n      jumpi\n    tag_2:\n      0x00\n      dup1\n      revert\n        /* \"contracts/DataUsageSmartContract.sol\":1906:2426  function addPersonalData(... */\n    tag_3:\n      tag_16\n      0x04\n      dup1\n      calldatasize\n      sub\n      dup2\n      add\n      swap1\n      tag_17\n      swap2\n      swap1\n      tag_18\n      jump\t// in\n    tag_17:\n      tag_19\n      jump\t// in\n    tag_16:\n      stop\n        /* \"contracts/DataUsageSmartContract.sol\":5071:5164  function getActorIds() public view returns (uint[] memory) {... */\n    tag_4:\n      tag_20\n      tag_21\n      jump\t// in\n    tag_20:\n      mload(0x40)\n      tag_22\n      swap2\n      swap1\n      tag_23\n      jump\t// in\n    tag_22:\n      mload(0x40)\n      dup1\n      swap2\n      sub\n      swap1\n      return\n        /* \"contracts/DataUsageSmartContract.sol\":2924:4125  function addProcessedPersonalData(uint _personalDataId) public onlyOwner {... */\n    tag_5:\n      tag_24\n      0x04\n      dup1\n      calldatasize\n      sub\n      dup2\n      add\n      swap1\n      tag_25\n      swap2\n      swap1\n      tag_26\n      jump\t// in\n    tag_25:\n      tag_27\n      jump\t// in\n    tag_24:\n      stop\n        /* \"contracts/DataUsageSmartContract.sol\":2687:2793  function getPersonalDataCounter() public view returns (uint) {... */\n    tag_6:\n      tag_28\n      tag_29\n      jump\t// in\n    tag_28:\n      mload(0x40)\n      tag_30\n      swap2\n      swap1\n      tag_31\n      jump\t// in\n    tag_30:\n      mload(0x40)\n      dup1\n      swap2\n      sub\n      swap1\n      return\n        /* \"contracts/DataUsageSmartContract.sol\":6611:6711  function getDataUsageCounter() public view returns (uint) {... */\n    tag_7:\n      tag_32\n      tag_33\n      jump\t// in\n    tag_32:\n      mload(0x40)\n      tag_34\n      swap2\n      swap1\n      tag_31\n      jump\t// in\n    tag_34:\n      mload(0x40)\n      dup1\n      swap2\n      sub\n      swap1\n      return\n        /* \"contracts/DataUsageSmartContract.sol\":4529:4834  function addActor(uint _actorId, string memory _actorName) public onlyOwner {... */\n    tag_8:\n      tag_35\n      0x04\n      dup1\n      calldatasize\n      sub\n      dup2\n      add\n      swap1\n      tag_36\n      swap2\n      swap1\n      tag_37\n      jump\t// in\n    tag_36:\n      tag_38\n      jump\t// in\n    tag_35:\n      stop\n        /* \"contracts/AccessControl.sol\":86:106  address public owner */\n    tag_9:\n      tag_39\n      tag_40\n      jump\t// in\n    tag_39:\n      mload(0x40)\n      tag_41\n      swap2\n      swap1\n      tag_42\n      jump\t// in\n    tag_41:\n      mload(0x40)\n      dup1\n      swap2\n      sub\n      swap1\n      return\n        /* \"contracts/DataUsageSmartContract.sol\":4133:4414  function getProcessedPersonalDataByKey(uint _personalDataId) public view returns (bytes32) {... */\n    tag_10:\n      tag_43\n      0x04\n      dup1\n      calldatasize\n      sub\n      dup2\n      add\n      swap1\n      tag_44\n      swap2\n      swap1\n      tag_26\n      jump\t// in\n    tag_44:\n      tag_45\n      jump\t// in\n    tag_43:\n      mload(0x40)\n      tag_46\n      swap2\n      swap1\n      tag_47\n      jump\t// in\n    tag_46:\n      mload(0x40)\n      dup1\n      swap2\n      sub\n      swap1\n      return\n        /* \"contracts/DataUsageSmartContract.sol\":4842:5063  function getActorByKey(uint _actorId) public view returns (Actor memory) {... */\n    tag_11:\n      tag_48\n      0x04\n      dup1\n      calldatasize\n      sub\n      dup2\n      add\n      swap1\n      tag_49\n      swap2\n      swap1\n      tag_26\n      jump\t// in\n    tag_49:\n      tag_50\n      jump\t// in\n    tag_48:\n      mload(0x40)\n      tag_51\n      swap2\n      swap1\n      tag_52\n      jump\t// in\n    tag_51:\n      mload(0x40)\n      dup1\n      swap2\n      sub\n      swap1\n      return\n        /* \"contracts/DataUsageSmartContract.sol\":5283:6356  function addDataUsage(... */\n    tag_12:\n      tag_53\n      0x04\n      dup1\n      calldatasize\n      sub\n      dup2\n      add\n      swap1\n      tag_54\n      swap2\n      swap1\n      tag_55\n      jump\t// in\n    tag_54:\n      tag_56\n      jump\t// in\n    tag_53:\n      stop\n        /* \"contracts/DataUsageSmartContract.sol\":6366:6603  function getDataUsageByKey(uint _actorConsentId) public view returns (DataUsage memory) {... */\n    tag_13:\n      tag_57\n      0x04\n      dup1\n      calldatasize\n      sub\n      dup2\n      add\n      swap1\n      tag_58\n      swap2\n      swap1\n      tag_26\n      jump\t// in\n    tag_58:\n      tag_59\n      jump\t// in\n    tag_57:\n      mload(0x40)\n      tag_60\n      swap2\n      swap1\n      tag_61\n      jump\t// in\n    tag_60:\n      mload(0x40)\n      dup1\n      swap2\n      sub\n      swap1\n      return\n        /* \"contracts/DataUsageSmartContract.sol\":2434:2679  function getPersonalDataByKey(uint _personalDataId) public view returns (PersonalData memory) {... */\n    tag_14:\n      tag_62\n      0x04\n      dup1\n      calldatasize\n      sub\n      dup2\n      add\n      swap1\n      tag_63\n      swap2\n      swap1\n      tag_26\n      jump\t// in\n    tag_63:\n      tag_64\n      jump\t// in\n    tag_62:\n      mload(0x40)\n      tag_65\n      swap2\n      swap1\n      tag_66\n      jump\t// in\n    tag_65:\n      mload(0x40)\n      dup1\n      swap2\n      sub\n      swap1\n      return\n        /* \"contracts/DataUsageSmartContract.sol\":1906:2426  function addPersonalData(... */\n    tag_19:\n        /* \"contracts/AccessControl.sol\":220:225  owner */\n      0x00\n      dup1\n      sload\n      swap1\n      0x0100\n      exp\n      swap1\n      div\n      0xffffffffffffffffffffffffffffffffffffffff\n      and\n        /* \"contracts/AccessControl.sol\":206:225  msg.sender == owner */\n      0xffffffffffffffffffffffffffffffffffffffff\n      and\n        /* \"contracts/AccessControl.sol\":206:216  msg.sender */\n      caller\n        /* \"contracts/AccessControl.sol\":206:225  msg.sender == owner */\n      0xffffffffffffffffffffffffffffffffffffffff\n      and\n      eq\n        /* \"contracts/AccessControl.sol\":198:280  require(msg.sender == owner, \"Only the contract owner can perform this operation\") */\n      tag_68\n      jumpi\n      mload(0x40)\n      0x08c379a000000000000000000000000000000000000000000000000000000000\n      dup2\n      mstore\n      0x04\n      add\n      tag_69\n      swap1\n      tag_70\n      jump\t// in\n    tag_69:\n      mload(0x40)\n      dup1\n      swap2\n      sub\n      swap1\n      revert\n    tag_68:\n        /* \"contracts/DataUsageSmartContract.sol\":2166:2386  PersonalData({... */\n      mload(0x40)\n      dup1\n      0xa0\n      add\n      0x40\n      mstore\n      dup1\n        /* \"contracts/DataUsageSmartContract.sol\":2202:2209  _userId */\n      dup7\n        /* \"contracts/DataUsageSmartContract.sol\":2166:2386  PersonalData({... */\n      dup2\n      mstore\n      0x20\n      add\n        /* \"contracts/DataUsageSmartContract.sol\":2234:2243  _userName */\n      dup6\n        /* \"contracts/DataUsageSmartContract.sol\":2166:2386  PersonalData({... */\n      dup2\n      mstore\n      0x20\n      add\n        /* \"contracts/DataUsageSmartContract.sol\":2271:2283  _userAddress */\n      dup5\n        /* \"contracts/DataUsageSmartContract.sol\":2166:2386  PersonalData({... */\n      dup2\n      mstore\n      0x20\n      add\n        /* \"contracts/DataUsageSmartContract.sol\":2313:2327  _userTelephone */\n      dup4\n        /* \"contracts/DataUsageSmartContract.sol\":2166:2386  PersonalData({... */\n      dup2\n      mstore\n      0x20\n      add\n        /* \"contracts/DataUsageSmartContract.sol\":2359:2374  additionalInfos */\n      dup3\n        /* \"contracts/DataUsageSmartContract.sol\":2166:2386  PersonalData({... */\n      dup2\n      mstore\n      pop\n        /* \"contracts/DataUsageSmartContract.sol\":2141:2154  personalDatas */\n      0x03\n        /* \"contracts/DataUsageSmartContract.sol\":2141:2163  personalDatas[_userId] */\n      0x00\n        /* \"contracts/DataUsageSmartContract.sol\":2155:2162  _userId */\n      dup8\n        /* \"contracts/DataUsageSmartContract.sol\":2141:2163  personalDatas[_userId] */\n      dup2\n      mstore\n      0x20\n      add\n      swap1\n      dup2\n      mstore\n      0x20\n      add\n      0x00\n      keccak256\n        /* \"contracts/DataUsageSmartContract.sol\":2141:2386  personalDatas[_userId] = PersonalData({... */\n      0x00\n      dup3\n      add\n      mload\n      dup2\n      0x00\n      add\n      sstore\n      0x20\n      dup3\n      add\n      mload\n      dup2\n      0x01\n      add\n      swap1\n      dup2\n      tag_72\n      swap2\n      swap1\n      tag_73\n      jump\t// in\n    tag_72:\n      pop\n      0x40\n      dup3\n      add\n      mload\n      dup2\n      0x02\n      add\n      swap1\n      dup2\n      tag_74\n      swap2\n      swap1\n      tag_73\n      jump\t// in\n    tag_74:\n      pop\n      0x60\n      dup3\n      add\n      mload\n      dup2\n      0x03\n      add\n      swap1\n      dup2\n      tag_75\n      swap2\n      swap1\n      tag_73\n      jump\t// in\n    tag_75:\n      pop\n      0x80\n      dup3\n      add\n      mload\n      dup2\n      0x04\n      add\n      swap1\n      dup1\n      mload\n      swap1\n      0x20\n      add\n      swap1\n      tag_76\n      swap3\n      swap2\n      swap1\n      tag_77\n      jump\t// in\n    tag_76:\n      pop\n      swap1\n      pop\n      pop\n        /* \"contracts/DataUsageSmartContract.sol\":2397:2416  personalDataCounter */\n      0x07\n      0x00\n        /* \"contracts/DataUsageSmartContract.sol\":2397:2418  personalDataCounter++ */\n      dup2\n      sload\n      dup1\n      swap3\n      swap2\n      swap1\n      tag_78\n      swap1\n      tag_79\n      jump\t// in\n    tag_78:\n      swap2\n      swap1\n      pop\n      sstore\n      pop\n        /* \"contracts/DataUsageSmartContract.sol\":1906:2426  function addPersonalData(... */\n      pop\n      pop\n      pop\n      pop\n      pop\n      jump\t// out\n        /* \"contracts/DataUsageSmartContract.sol\":5071:5164  function getActorIds() public view returns (uint[] memory) {... */\n    tag_21:\n        /* \"contracts/DataUsageSmartContract.sol\":5115:5128  uint[] memory */\n      0x60\n        /* \"contracts/DataUsageSmartContract.sol\":5148:5156  actorIds */\n      0x06\n        /* \"contracts/DataUsageSmartContract.sol\":5141:5156  return actorIds */\n      dup1\n      sload\n      dup1\n      0x20\n      mul\n      0x20\n      add\n      mload(0x40)\n      swap1\n      dup2\n      add\n      0x40\n      mstore\n      dup1\n      swap3\n      swap2\n      swap1\n      dup2\n      dup2\n      mstore\n      0x20\n      add\n      dup3\n      dup1\n      sload\n      dup1\n      iszero\n      tag_81\n      jumpi\n      0x20\n      mul\n      dup3\n      add\n      swap2\n      swap1\n      0x00\n      mstore\n      keccak256(0x00, 0x20)\n      swap1\n    tag_82:\n      dup2\n      sload\n      dup2\n      mstore\n      0x20\n      add\n      swap1\n      0x01\n      add\n      swap1\n      dup1\n      dup4\n      gt\n      tag_82\n      jumpi\n    tag_81:\n      pop\n      pop\n      pop\n      pop\n      pop\n      swap1\n      pop\n        /* \"contracts/DataUsageSmartContract.sol\":5071:5164  function getActorIds() public view returns (uint[] memory) {... */\n      swap1\n      jump\t// out\n        /* \"contracts/DataUsageSmartContract.sol\":2924:4125  function addProcessedPersonalData(uint _personalDataId) public onlyOwner {... */\n    tag_27:\n        /* \"contracts/AccessControl.sol\":220:225  owner */\n      0x00\n      dup1\n      sload\n      swap1\n      0x0100\n      exp\n      swap1\n      div\n      0xffffffffffffffffffffffffffffffffffffffff\n      and\n        /* \"contracts/AccessControl.sol\":206:225  msg.sender == owner */\n      0xffffffffffffffffffffffffffffffffffffffff\n      and\n        /* \"contracts/AccessControl.sol\":206:216  msg.sender */\n      caller\n        /* \"contracts/AccessControl.sol\":206:225  msg.sender == owner */\n      0xffffffffffffffffffffffffffffffffffffffff\n      and\n      eq\n        /* \"contracts/AccessControl.sol\":198:280  require(msg.sender == owner, \"Only the contract owner can perform this operation\") */\n      tag_84\n      jumpi\n      mload(0x40)\n      0x08c379a000000000000000000000000000000000000000000000000000000000\n      dup2\n      mstore\n      0x04\n      add\n      tag_85\n      swap1\n      tag_70\n      jump\t// in\n    tag_85:\n      mload(0x40)\n      dup1\n      swap2\n      sub\n      swap1\n      revert\n    tag_84:\n        /* \"contracts/DataUsageSmartContract.sol\":3193:3226  PersonalData storage personalData */\n      0x00\n        /* \"contracts/DataUsageSmartContract.sol\":3229:3242  personalDatas */\n      0x03\n        /* \"contracts/DataUsageSmartContract.sol\":3229:3259  personalDatas[_personalDataId] */\n      0x00\n        /* \"contracts/DataUsageSmartContract.sol\":3243:3258  _personalDataId */\n      dup4\n        /* \"contracts/DataUsageSmartContract.sol\":3229:3259  personalDatas[_personalDataId] */\n      dup2\n      mstore\n      0x20\n      add\n      swap1\n      dup2\n      mstore\n      0x20\n      add\n      0x00\n      keccak256\n        /* \"contracts/DataUsageSmartContract.sol\":3193:3259  PersonalData storage personalData = personalDatas[_personalDataId] */\n      swap1\n      pop\n        /* \"contracts/DataUsageSmartContract.sol\":3350:3373  bytes memory dataToHash */\n      0x60\n        /* \"contracts/DataUsageSmartContract.sol\":3472:3484  personalData */\n      dup2\n        /* \"contracts/DataUsageSmartContract.sol\":3472:3493  personalData.userName */\n      0x01\n      add\n        /* \"contracts/DataUsageSmartContract.sol\":3508:3520  personalData */\n      dup3\n        /* \"contracts/DataUsageSmartContract.sol\":3508:3532  personalData.userAddress */\n      0x02\n      add\n        /* \"contracts/DataUsageSmartContract.sol\":3547:3559  personalData */\n      dup4\n        /* \"contracts/DataUsageSmartContract.sol\":3547:3573  personalData.userTelephone */\n      0x03\n      add\n        /* \"contracts/DataUsageSmartContract.sol\":3441:3584  abi.encodePacked(... */\n      add(0x20, mload(0x40))\n      tag_87\n      swap4\n      swap3\n      swap2\n      swap1\n      tag_88\n      jump\t// in\n    tag_87:\n      mload(0x40)\n      0x20\n      dup2\n      dup4\n      sub\n      sub\n      dup2\n      mstore\n      swap1\n      0x40\n      mstore\n        /* \"contracts/DataUsageSmartContract.sol\":3428:3584  dataToHash = abi.encodePacked(... */\n      swap1\n      pop\n        /* \"contracts/DataUsageSmartContract.sol\":3686:3692  uint i */\n      0x00\n        /* \"contracts/DataUsageSmartContract.sol\":3681:3845  for (uint i = 0; i < personalData.additionalInfos.length; i++) {... */\n    tag_89:\n        /* \"contracts/DataUsageSmartContract.sol\":3702:3714  personalData */\n      dup3\n        /* \"contracts/DataUsageSmartContract.sol\":3702:3730  personalData.additionalInfos */\n      0x04\n      add\n        /* \"contracts/DataUsageSmartContract.sol\":3702:3737  personalData.additionalInfos.length */\n      dup1\n      sload\n      swap1\n      pop\n        /* \"contracts/DataUsageSmartContract.sol\":3698:3699  i */\n      dup2\n        /* \"contracts/DataUsageSmartContract.sol\":3698:3737  i < personalData.additionalInfos.length */\n      lt\n        /* \"contracts/DataUsageSmartContract.sol\":3681:3845  for (uint i = 0; i < personalData.additionalInfos.length; i++) {... */\n      iszero\n      tag_90\n      jumpi\n        /* \"contracts/DataUsageSmartContract.sol\":3789:3799  dataToHash */\n      dup2\n        /* \"contracts/DataUsageSmartContract.sol\":3801:3813  personalData */\n      dup4\n        /* \"contracts/DataUsageSmartContract.sol\":3801:3829  personalData.additionalInfos */\n      0x04\n      add\n        /* \"contracts/DataUsageSmartContract.sol\":3830:3831  i */\n      dup3\n        /* \"contracts/DataUsageSmartContract.sol\":3801:3832  personalData.additionalInfos[i] */\n      dup2\n      sload\n      dup2\n      lt\n      tag_92\n      jumpi\n      tag_93\n      tag_94\n      jump\t// in\n    tag_93:\n    tag_92:\n      swap1\n      0x00\n      mstore\n      keccak256(0x00, 0x20)\n      add\n        /* \"contracts/DataUsageSmartContract.sol\":3772:3833  abi.encodePacked(dataToHash, personalData.additionalInfos[i]) */\n      add(0x20, mload(0x40))\n      tag_96\n      swap3\n      swap2\n      swap1\n      tag_97\n      jump\t// in\n    tag_96:\n      mload(0x40)\n      0x20\n      dup2\n      dup4\n      sub\n      sub\n      dup2\n      mstore\n      swap1\n      0x40\n      mstore\n        /* \"contracts/DataUsageSmartContract.sol\":3759:3833  dataToHash = abi.encodePacked(dataToHash, personalData.additionalInfos[i]) */\n      swap2\n      pop\n        /* \"contracts/DataUsageSmartContract.sol\":3739:3742  i++ */\n      dup1\n      dup1\n      0x01\n      add\n      swap2\n      pop\n      pop\n        /* \"contracts/DataUsageSmartContract.sol\":3681:3845  for (uint i = 0; i < personalData.additionalInfos.length; i++) {... */\n      jump(tag_89)\n    tag_90:\n      pop\n        /* \"contracts/DataUsageSmartContract.sol\":3913:3942  bytes32 processedPersonalData */\n      0x00\n        /* \"contracts/DataUsageSmartContract.sol\":3955:3965  dataToHash */\n      dup2\n        /* \"contracts/DataUsageSmartContract.sol\":3945:3966  keccak256(dataToHash) */\n      dup1\n      mload\n      swap1\n      0x20\n      add\n      keccak256\n        /* \"contracts/DataUsageSmartContract.sol\":3913:3966  bytes32 processedPersonalData = keccak256(dataToHash) */\n      swap1\n      pop\n        /* \"contracts/DataUsageSmartContract.sol\":4093:4114  processedPersonalData */\n      dup1\n        /* \"contracts/DataUsageSmartContract.sol\":4051:4073  processedPersonalDatas */\n      0x04\n        /* \"contracts/DataUsageSmartContract.sol\":4051:4090  processedPersonalDatas[_personalDataId] */\n      0x00\n        /* \"contracts/DataUsageSmartContract.sol\":4074:4089  _personalDataId */\n      dup7\n        /* \"contracts/DataUsageSmartContract.sol\":4051:4090  processedPersonalDatas[_personalDataId] */\n      dup2\n      mstore\n      0x20\n      add\n      swap1\n      dup2\n      mstore\n      0x20\n      add\n      0x00\n      keccak256\n        /* \"contracts/DataUsageSmartContract.sol\":4051:4114  processedPersonalDatas[_personalDataId] = processedPersonalData */\n      dup2\n      swap1\n      sstore\n      pop\n        /* \"contracts/DataUsageSmartContract.sol\":2997:4125  {... */\n      pop\n      pop\n      pop\n        /* \"contracts/DataUsageSmartContract.sol\":2924:4125  function addProcessedPersonalData(uint _personalDataId) public onlyOwner {... */\n      pop\n      jump\t// out\n        /* \"contracts/DataUsageSmartContract.sol\":2687:2793  function getPersonalDataCounter() public view returns (uint) {... */\n    tag_29:\n        /* \"contracts/DataUsageSmartContract.sol\":2742:2746  uint */\n      0x00\n        /* \"contracts/DataUsageSmartContract.sol\":2766:2785  personalDataCounter */\n      sload(0x07)\n        /* \"contracts/DataUsageSmartContract.sol\":2759:2785  return personalDataCounter */\n      swap1\n      pop\n        /* \"contracts/DataUsageSmartContract.sol\":2687:2793  function getPersonalDataCounter() public view returns (uint) {... */\n      swap1\n      jump\t// out\n        /* \"contracts/DataUsageSmartContract.sol\":6611:6711  function getDataUsageCounter() public view returns (uint) {... */\n    tag_33:\n        /* \"contracts/DataUsageSmartContract.sol\":6663:6667  uint */\n      0x00\n        /* \"contracts/DataUsageSmartContract.sol\":6687:6703  dataUsageCounter */\n      sload(0x05)\n        /* \"contracts/DataUsageSmartContract.sol\":6680:6703  return dataUsageCounter */\n      swap1\n      pop\n        /* \"contracts/DataUsageSmartContract.sol\":6611:6711  function getDataUsageCounter() public view returns (uint) {... */\n      swap1\n      jump\t// out\n        /* \"contracts/DataUsageSmartContract.sol\":4529:4834  function addActor(uint _actorId, string memory _actorName) public onlyOwner {... */\n    tag_38:\n        /* \"contracts/AccessControl.sol\":220:225  owner */\n      0x00\n      dup1\n      sload\n      swap1\n      0x0100\n      exp\n      swap1\n      div\n      0xffffffffffffffffffffffffffffffffffffffff\n      and\n        /* \"contracts/AccessControl.sol\":206:225  msg.sender == owner */\n      0xffffffffffffffffffffffffffffffffffffffff\n      and\n        /* \"contracts/AccessControl.sol\":206:216  msg.sender */\n      caller\n        /* \"contracts/AccessControl.sol\":206:225  msg.sender == owner */\n      0xffffffffffffffffffffffffffffffffffffffff\n      and\n      eq\n        /* \"contracts/AccessControl.sol\":198:280  require(msg.sender == owner, \"Only the contract owner can perform this operation\") */\n      tag_101\n      jumpi\n      mload(0x40)\n      0x08c379a000000000000000000000000000000000000000000000000000000000\n      dup2\n      mstore\n      0x04\n      add\n      tag_102\n      swap1\n      tag_70\n      jump\t// in\n    tag_102:\n      mload(0x40)\n      dup1\n      swap2\n      sub\n      swap1\n      revert\n    tag_101:\n        /* \"contracts/DataUsageSmartContract.sol\":4635:4721  Actor({... */\n      mload(0x40)\n      dup1\n      0x40\n      add\n      0x40\n      mstore\n      dup1\n        /* \"contracts/DataUsageSmartContract.sol\":4665:4673  _actorId */\n      dup4\n        /* \"contracts/DataUsageSmartContract.sol\":4635:4721  Actor({... */\n      dup2\n      mstore\n      0x20\n      add\n        /* \"contracts/DataUsageSmartContract.sol\":4699:4709  _actorName */\n      dup3\n        /* \"contracts/DataUsageSmartContract.sol\":4635:4721  Actor({... */\n      dup2\n      mstore\n      pop\n        /* \"contracts/DataUsageSmartContract.sol\":4616:4622  actors */\n      0x02\n        /* \"contracts/DataUsageSmartContract.sol\":4616:4632  actors[_actorId] */\n      0x00\n        /* \"contracts/DataUsageSmartContract.sol\":4623:4631  _actorId */\n      dup5\n        /* \"contracts/DataUsageSmartContract.sol\":4616:4632  actors[_actorId] */\n      dup2\n      mstore\n      0x20\n      add\n      swap1\n      dup2\n      mstore\n      0x20\n      add\n      0x00\n      keccak256\n        /* \"contracts/DataUsageSmartContract.sol\":4616:4721  actors[_actorId] = Actor({... */\n      0x00\n      dup3\n      add\n      mload\n      dup2\n      0x00\n      add\n      sstore\n      0x20\n      dup3\n      add\n      mload\n      dup2\n      0x01\n      add\n      swap1\n      dup2\n      tag_104\n      swap2\n      swap1\n      tag_73\n      jump\t// in\n    tag_104:\n      pop\n      swap1\n      pop\n      pop\n        /* \"contracts/DataUsageSmartContract.sol\":4803:4811  actorIds */\n      0x06\n        /* \"contracts/DataUsageSmartContract.sol\":4817:4825  _actorId */\n      dup3\n        /* \"contracts/DataUsageSmartContract.sol\":4803:4826  actorIds.push(_actorId) */\n      swap1\n      dup1\n      0x01\n      dup2\n      sload\n      add\n      dup1\n      dup3\n      sstore\n      dup1\n      swap2\n      pop\n      pop\n      0x01\n      swap1\n      sub\n      swap1\n      0x00\n      mstore\n      keccak256(0x00, 0x20)\n      add\n      0x00\n      swap1\n      swap2\n      swap1\n      swap2\n      swap1\n      swap2\n      pop\n      sstore\n        /* \"contracts/DataUsageSmartContract.sol\":4529:4834  function addActor(uint _actorId, string memory _actorName) public onlyOwner {... */\n      pop\n      pop\n      jump\t// out\n        /* \"contracts/AccessControl.sol\":86:106  address public owner */\n    tag_40:\n      0x00\n      dup1\n      sload\n      swap1\n      0x0100\n      exp\n      swap1\n      div\n      0xffffffffffffffffffffffffffffffffffffffff\n      and\n      dup2\n      jump\t// out\n        /* \"contracts/DataUsageSmartContract.sol\":4133:4414  function getProcessedPersonalDataByKey(uint _personalDataId) public view returns (bytes32) {... */\n    tag_45:\n        /* \"contracts/DataUsageSmartContract.sol\":4215:4222  bytes32 */\n      0x00\n        /* \"contracts/DataUsageSmartContract.sol\":4367:4389  processedPersonalDatas */\n      0x04\n        /* \"contracts/DataUsageSmartContract.sol\":4367:4406  processedPersonalDatas[_personalDataId] */\n      0x00\n        /* \"contracts/DataUsageSmartContract.sol\":4390:4405  _personalDataId */\n      dup4\n        /* \"contracts/DataUsageSmartContract.sol\":4367:4406  processedPersonalDatas[_personalDataId] */\n      dup2\n      mstore\n      0x20\n      add\n      swap1\n      dup2\n      mstore\n      0x20\n      add\n      0x00\n      keccak256\n      sload\n        /* \"contracts/DataUsageSmartContract.sol\":4360:4406  return processedPersonalDatas[_personalDataId] */\n      swap1\n      pop\n        /* \"contracts/DataUsageSmartContract.sol\":4133:4414  function getProcessedPersonalDataByKey(uint _personalDataId) public view returns (bytes32) {... */\n      swap2\n      swap1\n      pop\n      jump\t// out\n        /* \"contracts/DataUsageSmartContract.sol\":4842:5063  function getActorByKey(uint _actorId) public view returns (Actor memory) {... */\n    tag_50:\n        /* \"contracts/DataUsageSmartContract.sol\":4901:4913  Actor memory */\n      tag_107\n      tag_108\n      jump\t// in\n    tag_107:\n        /* \"contracts/DataUsageSmartContract.sol\":4962:4963  0 */\n      0x00\n        /* \"contracts/DataUsageSmartContract.sol\":4934:4940  actors */\n      0x02\n        /* \"contracts/DataUsageSmartContract.sol\":4934:4950  actors[_actorId] */\n      0x00\n        /* \"contracts/DataUsageSmartContract.sol\":4941:4949  _actorId */\n      dup5\n        /* \"contracts/DataUsageSmartContract.sol\":4934:4950  actors[_actorId] */\n      dup2\n      mstore\n      0x20\n      add\n      swap1\n      dup2\n      mstore\n      0x20\n      add\n      0x00\n      keccak256\n        /* \"contracts/DataUsageSmartContract.sol\":4934:4958  actors[_actorId].actorId */\n      0x00\n      add\n      sload\n        /* \"contracts/DataUsageSmartContract.sol\":4934:4963  actors[_actorId].actorId != 0 */\n      sub\n        /* \"contracts/DataUsageSmartContract.sol\":4926:4989  require(actors[_actorId].actorId != 0, \"Actor does not exist.\") */\n      tag_110\n      jumpi\n      mload(0x40)\n      0x08c379a000000000000000000000000000000000000000000000000000000000\n      dup2\n      mstore\n      0x04\n      add\n      tag_111\n      swap1\n      tag_112\n      jump\t// in\n    tag_111:\n      mload(0x40)\n      dup1\n      swap2\n      sub\n      swap1\n      revert\n    tag_110:\n        /* \"contracts/DataUsageSmartContract.sol\":5039:5045  actors */\n      0x02\n        /* \"contracts/DataUsageSmartContract.sol\":5039:5055  actors[_actorId] */\n      0x00\n        /* \"contracts/DataUsageSmartContract.sol\":5046:5054  _actorId */\n      dup4\n        /* \"contracts/DataUsageSmartContract.sol\":5039:5055  actors[_actorId] */\n      dup2\n      mstore\n      0x20\n      add\n      swap1\n      dup2\n      mstore\n      0x20\n      add\n      0x00\n      keccak256\n        /* \"contracts/DataUsageSmartContract.sol\":5032:5055  return actors[_actorId] */\n      mload(0x40)\n      dup1\n      0x40\n      add\n      0x40\n      mstore\n      swap1\n      dup2\n      0x00\n      dup3\n      add\n      sload\n      dup2\n      mstore\n      0x20\n      add\n      0x01\n      dup3\n      add\n      dup1\n      sload\n      tag_113\n      swap1\n      tag_114\n      jump\t// in\n    tag_113:\n      dup1\n      0x1f\n      add\n      0x20\n      dup1\n      swap2\n      div\n      mul\n      0x20\n      add\n      mload(0x40)\n      swap1\n      dup2\n      add\n      0x40\n      mstore\n      dup1\n      swap3\n      swap2\n      swap1\n      dup2\n      dup2\n      mstore\n      0x20\n      add\n      dup3\n      dup1\n      sload\n      tag_115\n      swap1\n      tag_114\n      jump\t// in\n    tag_115:\n      dup1\n      iszero\n      tag_116\n      jumpi\n      dup1\n      0x1f\n      lt\n      tag_117\n      jumpi\n      0x0100\n      dup1\n      dup4\n      sload\n      div\n      mul\n      dup4\n      mstore\n      swap2\n      0x20\n      add\n      swap2\n      jump(tag_116)\n    tag_117:\n      dup3\n      add\n      swap2\n      swap1\n      0x00\n      mstore\n      keccak256(0x00, 0x20)\n      swap1\n    tag_118:\n      dup2\n      sload\n      dup2\n      mstore\n      swap1\n      0x01\n      add\n      swap1\n      0x20\n      add\n      dup1\n      dup4\n      gt\n      tag_118\n      jumpi\n      dup3\n      swap1\n      sub\n      0x1f\n      and\n      dup3\n      add\n      swap2\n    tag_116:\n      pop\n      pop\n      pop\n      pop\n      pop\n      dup2\n      mstore\n      pop\n      pop\n      swap1\n      pop\n        /* \"contracts/DataUsageSmartContract.sol\":4842:5063  function getActorByKey(uint _actorId) public view returns (Actor memory) {... */\n      swap2\n      swap1\n      pop\n      jump\t// out\n        /* \"contracts/DataUsageSmartContract.sol\":5283:6356  function addDataUsage(... */\n    tag_56:\n        /* \"contracts/AccessControl.sol\":220:225  owner */\n      0x00\n      dup1\n      sload\n      swap1\n      0x0100\n      exp\n      swap1\n      div\n      0xffffffffffffffffffffffffffffffffffffffff\n      and\n        /* \"contracts/AccessControl.sol\":206:225  msg.sender == owner */\n      0xffffffffffffffffffffffffffffffffffffffff\n      and\n        /* \"contracts/AccessControl.sol\":206:216  msg.sender */\n      caller\n        /* \"contracts/AccessControl.sol\":206:225  msg.sender == owner */\n      0xffffffffffffffffffffffffffffffffffffffff\n      and\n      eq\n        /* \"contracts/AccessControl.sol\":198:280  require(msg.sender == owner, \"Only the contract owner can perform this operation\") */\n      tag_120\n      jumpi\n      mload(0x40)\n      0x08c379a000000000000000000000000000000000000000000000000000000000\n      dup2\n      mstore\n      0x04\n      add\n      tag_121\n      swap1\n      tag_70\n      jump\t// in\n    tag_121:\n      mload(0x40)\n      dup1\n      swap2\n      sub\n      swap1\n      revert\n    tag_120:\n        /* \"contracts/DataUsageSmartContract.sol\":5528:5559  bytes32[] memory processedDatas */\n      0x00\n        /* \"contracts/DataUsageSmartContract.sol\":5576:5592  _personalDataIds */\n      dup2\n        /* \"contracts/DataUsageSmartContract.sol\":5576:5599  _personalDataIds.length */\n      mload\n        /* \"contracts/DataUsageSmartContract.sol\":5562:5600  new bytes32[](_personalDataIds.length) */\n      0xffffffffffffffff\n      dup2\n      gt\n      iszero\n      tag_123\n      jumpi\n      tag_124\n      tag_125\n      jump\t// in\n    tag_124:\n    tag_123:\n      mload(0x40)\n      swap1\n      dup1\n      dup3\n      mstore\n      dup1\n      0x20\n      mul\n      0x20\n      add\n      dup3\n      add\n      0x40\n      mstore\n      dup1\n      iszero\n      tag_126\n      jumpi\n      dup2\n      0x20\n      add\n      0x20\n      dup3\n      mul\n      dup1\n      calldatasize\n      dup4\n      calldatacopy\n      dup1\n      dup3\n      add\n      swap2\n      pop\n      pop\n      swap1\n      pop\n    tag_126:\n      pop\n        /* \"contracts/DataUsageSmartContract.sol\":5528:5600  bytes32[] memory processedDatas = new bytes32[](_personalDataIds.length) */\n      swap1\n      pop\n        /* \"contracts/DataUsageSmartContract.sol\":5626:5632  uint i */\n      0x00\n        /* \"contracts/DataUsageSmartContract.sol\":5621:5869  for (uint i = 0; i < _personalDataIds.length; i++) {... */\n    tag_127:\n        /* \"contracts/DataUsageSmartContract.sol\":5642:5658  _personalDataIds */\n      dup3\n        /* \"contracts/DataUsageSmartContract.sol\":5642:5665  _personalDataIds.length */\n      mload\n        /* \"contracts/DataUsageSmartContract.sol\":5638:5639  i */\n      dup2\n        /* \"contracts/DataUsageSmartContract.sol\":5638:5665  i < _personalDataIds.length */\n      lt\n        /* \"contracts/DataUsageSmartContract.sol\":5621:5869  for (uint i = 0; i < _personalDataIds.length; i++) {... */\n      iszero\n      tag_128\n      jumpi\n        /* \"contracts/DataUsageSmartContract.sol\":5807:5857  getProcessedPersonalDataByKey(_personalDataIds[i]) */\n      tag_130\n        /* \"contracts/DataUsageSmartContract.sol\":5837:5853  _personalDataIds */\n      dup4\n        /* \"contracts/DataUsageSmartContract.sol\":5854:5855  i */\n      dup3\n        /* \"contracts/DataUsageSmartContract.sol\":5837:5856  _personalDataIds[i] */\n      dup2\n      mload\n      dup2\n      lt\n      tag_131\n      jumpi\n      tag_132\n      tag_94\n      jump\t// in\n    tag_132:\n    tag_131:\n      0x20\n      mul\n      0x20\n      add\n      add\n      mload\n        /* \"contracts/DataUsageSmartContract.sol\":5807:5836  getProcessedPersonalDataByKey */\n      tag_45\n        /* \"contracts/DataUsageSmartContract.sol\":5807:5857  getProcessedPersonalDataByKey(_personalDataIds[i]) */\n      jump\t// in\n    tag_130:\n        /* \"contracts/DataUsageSmartContract.sol\":5787:5801  processedDatas */\n      dup3\n        /* \"contracts/DataUsageSmartContract.sol\":5802:5803  i */\n      dup3\n        /* \"contracts/DataUsageSmartContract.sol\":5787:5804  processedDatas[i] */\n      dup2\n      mload\n      dup2\n      lt\n      tag_133\n      jumpi\n      tag_134\n      tag_94\n      jump\t// in\n    tag_134:\n    tag_133:\n      0x20\n      mul\n      0x20\n      add\n      add\n        /* \"contracts/DataUsageSmartContract.sol\":5787:5857  processedDatas[i] = getProcessedPersonalDataByKey(_personalDataIds[i]) */\n      dup2\n      dup2\n      mstore\n      pop\n      pop\n        /* \"contracts/DataUsageSmartContract.sol\":5667:5670  i++ */\n      dup1\n      dup1\n      0x01\n      add\n      swap2\n      pop\n      pop\n        /* \"contracts/DataUsageSmartContract.sol\":5621:5869  for (uint i = 0; i < _personalDataIds.length; i++) {... */\n      jump(tag_127)\n    tag_128:\n      pop\n        /* \"contracts/DataUsageSmartContract.sol\":5979:6265  DataUsage({... */\n      mload(0x40)\n      dup1\n      0xc0\n      add\n      0x40\n      mstore\n      dup1\n        /* \"contracts/DataUsageSmartContract.sol\":6017:6029  _serviceName */\n      dup8\n        /* \"contracts/DataUsageSmartContract.sol\":5979:6265  DataUsage({... */\n      dup2\n      mstore\n      0x20\n      add\n        /* \"contracts/DataUsageSmartContract.sol\":6060:6075  _servicePurpose */\n      dup7\n        /* \"contracts/DataUsageSmartContract.sol\":5979:6265  DataUsage({... */\n      dup2\n      mstore\n      0x20\n      add\n        /* \"contracts/DataUsageSmartContract.sol\":6106:6114  _actorId */\n      dup6\n        /* \"contracts/DataUsageSmartContract.sol\":5979:6265  DataUsage({... */\n      dup2\n      mstore\n      0x20\n      add\n        /* \"contracts/DataUsageSmartContract.sol\":6141:6152  _operations */\n      dup5\n        /* \"contracts/DataUsageSmartContract.sol\":5979:6265  DataUsage({... */\n      dup2\n      mstore\n      0x20\n      add\n        /* \"contracts/DataUsageSmartContract.sol\":6184:6200  _personalDataIds */\n      dup4\n        /* \"contracts/DataUsageSmartContract.sol\":5979:6265  DataUsage({... */\n      dup2\n      mstore\n      0x20\n      add\n        /* \"contracts/DataUsageSmartContract.sol\":6239:6253  processedDatas */\n      dup3\n        /* \"contracts/DataUsageSmartContract.sol\":5979:6265  DataUsage({... */\n      dup2\n      mstore\n      pop\n        /* \"contracts/DataUsageSmartContract.sol\":5956:5966  dataUsages */\n      0x01\n        /* \"contracts/DataUsageSmartContract.sol\":5956:5976  dataUsages[_actorId] */\n      0x00\n        /* \"contracts/DataUsageSmartContract.sol\":5967:5975  _actorId */\n      dup7\n        /* \"contracts/DataUsageSmartContract.sol\":5956:5976  dataUsages[_actorId] */\n      dup2\n      mstore\n      0x20\n      add\n      swap1\n      dup2\n      mstore\n      0x20\n      add\n      0x00\n      keccak256\n        /* \"contracts/DataUsageSmartContract.sol\":5956:6265  dataUsages[_actorId] = DataUsage({... */\n      0x00\n      dup3\n      add\n      mload\n      dup2\n      0x00\n      add\n      swap1\n      dup2\n      tag_135\n      swap2\n      swap1\n      tag_73\n      jump\t// in\n    tag_135:\n      pop\n      0x20\n      dup3\n      add\n      mload\n      dup2\n      0x01\n      add\n      swap1\n      dup2\n      tag_136\n      swap2\n      swap1\n      tag_73\n      jump\t// in\n    tag_136:\n      pop\n      0x40\n      dup3\n      add\n      mload\n      dup2\n      0x02\n      add\n      sstore\n      0x60\n      dup3\n      add\n      mload\n      dup2\n      0x03\n      add\n      swap1\n      dup1\n      mload\n      swap1\n      0x20\n      add\n      swap1\n      tag_137\n      swap3\n      swap2\n      swap1\n      tag_77\n      jump\t// in\n    tag_137:\n      pop\n      0x80\n      dup3\n      add\n      mload\n      dup2\n      0x04\n      add\n      swap1\n      dup1\n      mload\n      swap1\n      0x20\n      add\n      swap1\n      tag_138\n      swap3\n      swap2\n      swap1\n      tag_139\n      jump\t// in\n    tag_138:\n      pop\n      0xa0\n      dup3\n      add\n      mload\n      dup2\n      0x05\n      add\n      swap1\n      dup1\n      mload\n      swap1\n      0x20\n      add\n      swap1\n      tag_140\n      swap3\n      swap2\n      swap1\n      tag_141\n      jump\t// in\n    tag_140:\n      pop\n      swap1\n      pop\n      pop\n        /* \"contracts/DataUsageSmartContract.sol\":6328:6344  dataUsageCounter */\n      0x05\n      0x00\n        /* \"contracts/DataUsageSmartContract.sol\":6328:6346  dataUsageCounter++ */\n      dup2\n      sload\n      dup1\n      swap3\n      swap2\n      swap1\n      tag_142\n      swap1\n      tag_79\n      jump\t// in\n    tag_142:\n      swap2\n      swap1\n      pop\n      sstore\n      pop\n        /* \"contracts/DataUsageSmartContract.sol\":5509:6356  {... */\n      pop\n        /* \"contracts/DataUsageSmartContract.sol\":5283:6356  function addDataUsage(... */\n      pop\n      pop\n      pop\n      pop\n      pop\n      jump\t// out\n        /* \"contracts/DataUsageSmartContract.sol\":6366:6603  function getDataUsageByKey(uint _actorConsentId) public view returns (DataUsage memory) {... */\n    tag_59:\n        /* \"contracts/DataUsageSmartContract.sol\":6436:6452  DataUsage memory */\n      tag_143\n      tag_144\n      jump\t// in\n    tag_143:\n        /* \"contracts/DataUsageSmartContract.sol\":6519:6520  0 */\n      0x00\n        /* \"contracts/DataUsageSmartContract.sol\":6473:6483  dataUsages */\n      0x01\n        /* \"contracts/DataUsageSmartContract.sol\":6473:6500  dataUsages[_actorConsentId] */\n      0x00\n        /* \"contracts/DataUsageSmartContract.sol\":6484:6499  _actorConsentId */\n      dup5\n        /* \"contracts/DataUsageSmartContract.sol\":6473:6500  dataUsages[_actorConsentId] */\n      dup2\n      mstore\n      0x20\n      add\n      swap1\n      dup2\n      mstore\n      0x20\n      add\n      0x00\n      keccak256\n        /* \"contracts/DataUsageSmartContract.sol\":6473:6515  dataUsages[_actorConsentId].actorConsentId */\n      0x02\n      add\n      sload\n        /* \"contracts/DataUsageSmartContract.sol\":6473:6520  dataUsages[_actorConsentId].actorConsentId != 0 */\n      sub\n        /* \"contracts/DataUsageSmartContract.sol\":6465:6550  require(dataUsages[_actorConsentId].actorConsentId != 0, \"Data User does not exist.\") */\n      tag_146\n      jumpi\n      mload(0x40)\n      0x08c379a000000000000000000000000000000000000000000000000000000000\n      dup2\n      mstore\n      0x04\n      add\n      tag_147\n      swap1\n      tag_148\n      jump\t// in\n    tag_147:\n      mload(0x40)\n      dup1\n      swap2\n      sub\n      swap1\n      revert\n    tag_146:\n        /* \"contracts/DataUsageSmartContract.sol\":6568:6578  dataUsages */\n      0x01\n        /* \"contracts/DataUsageSmartContract.sol\":6568:6595  dataUsages[_actorConsentId] */\n      0x00\n        /* \"contracts/DataUsageSmartContract.sol\":6579:6594  _actorConsentId */\n      dup4\n        /* \"contracts/DataUsageSmartContract.sol\":6568:6595  dataUsages[_actorConsentId] */\n      dup2\n      mstore\n      0x20\n      add\n      swap1\n      dup2\n      mstore\n      0x20\n      add\n      0x00\n      keccak256\n        /* \"contracts/DataUsageSmartContract.sol\":6561:6595  return dataUsages[_actorConsentId] */\n      mload(0x40)\n      dup1\n      0xc0\n      add\n      0x40\n      mstore\n      swap1\n      dup2\n      0x00\n      dup3\n      add\n      dup1\n      sload\n      tag_149\n      swap1\n      tag_114\n      jump\t// in\n    tag_149:\n      dup1\n      0x1f\n      add\n      0x20\n      dup1\n      swap2\n      div\n      mul\n      0x20\n      add\n      mload(0x40)\n      swap1\n      dup2\n      add\n      0x40\n      mstore\n      dup1\n      swap3\n      swap2\n      swap1\n      dup2\n      dup2\n      mstore\n      0x20\n      add\n      dup3\n      dup1\n      sload\n      tag_150\n      swap1\n      tag_114\n      jump\t// in\n    tag_150:\n      dup1\n      iszero\n      tag_151\n      jumpi\n      dup1\n      0x1f\n      lt\n      tag_152\n      jumpi\n      0x0100\n      dup1\n      dup4\n      sload\n      div\n      mul\n      dup4\n      mstore\n      swap2\n      0x20\n      add\n      swap2\n      jump(tag_151)\n    tag_152:\n      dup3\n      add\n      swap2\n      swap1\n      0x00\n      mstore\n      keccak256(0x00, 0x20)\n      swap1\n    tag_153:\n      dup2\n      sload\n      dup2\n      mstore\n      swap1\n      0x01\n      add\n      swap1\n      0x20\n      add\n      dup1\n      dup4\n      gt\n      tag_153\n      jumpi\n      dup3\n      swap1\n      sub\n      0x1f\n      and\n      dup3\n      add\n      swap2\n    tag_151:\n      pop\n      pop\n      pop\n      pop\n      pop\n      dup2\n      mstore\n      0x20\n      add\n      0x01\n      dup3\n      add\n      dup1\n      sload\n      tag_154\n      swap1\n      tag_114\n      jump\t// in\n    tag_154:\n      dup1\n      0x1f\n      add\n      0x20\n      dup1\n      swap2\n      div\n      mul\n      0x20\n      add\n      mload(0x40)\n      swap1\n      dup2\n      add\n      0x40\n      mstore\n      dup1\n      swap3\n      swap2\n      swap1\n      dup2\n      dup2\n      mstore\n      0x20\n      add\n      dup3\n      dup1\n      sload\n      tag_155\n      swap1\n      tag_114\n      jump\t// in\n    tag_155:\n      dup1\n      iszero\n      tag_156\n      jumpi\n      dup1\n      0x1f\n      lt\n      tag_157\n      jumpi\n      0x0100\n      dup1\n      dup4\n      sload\n      div\n      mul\n      dup4\n      mstore\n      swap2\n      0x20\n      add\n      swap2\n      jump(tag_156)\n    tag_157:\n      dup3\n      add\n      swap2\n      swap1\n      0x00\n      mstore\n      keccak256(0x00, 0x20)\n      swap1\n    tag_158:\n      dup2\n      sload\n      dup2\n      mstore\n      swap1\n      0x01\n      add\n      swap1\n      0x20\n      add\n      dup1\n      dup4\n      gt\n      tag_158\n      jumpi\n      dup3\n      swap1\n      sub\n      0x1f\n      and\n      dup3\n      add\n      swap2\n    tag_156:\n      pop\n      pop\n      pop\n      pop\n      pop\n      dup2\n      mstore\n      0x20\n      add\n      0x02\n      dup3\n      add\n      sload\n      dup2\n      mstore\n      0x20\n      add\n      0x03\n      dup3\n      add\n      dup1\n      sload\n      dup1\n      0x20\n      mul\n      0x20\n      add\n      mload(0x40)\n      swap1\n      dup2\n      add\n      0x40\n      mstore\n      dup1\n      swap3\n      swap2\n      swap1\n      dup2\n      dup2\n      mstore\n      0x20\n      add\n      0x00\n      swap1\n    tag_159:\n      dup3\n      dup3\n      lt\n      iszero\n      tag_160\n      jumpi\n      dup4\n      dup3\n      swap1\n      0x00\n      mstore\n      keccak256(0x00, 0x20)\n      add\n      dup1\n      sload\n      tag_162\n      swap1\n      tag_114\n      jump\t// in\n    tag_162:\n      dup1\n      0x1f\n      add\n      0x20\n      dup1\n      swap2\n      div\n      mul\n      0x20\n      add\n      mload(0x40)\n      swap1\n      dup2\n      add\n      0x40\n      mstore\n      dup1\n      swap3\n      swap2\n      swap1\n      dup2\n      dup2\n      mstore\n      0x20\n      add\n      dup3\n      dup1\n      sload\n      tag_163\n      swap1\n      tag_114\n      jump\t// in\n    tag_163:\n      dup1\n      iszero\n      tag_164\n      jumpi\n      dup1\n      0x1f\n      lt\n      tag_165\n      jumpi\n      0x0100\n      dup1\n      dup4\n      sload\n      div\n      mul\n      dup4\n      mstore\n      swap2\n      0x20\n      add\n      swap2\n      jump(tag_164)\n    tag_165:\n      dup3\n      add\n      swap2\n      swap1\n      0x00\n      mstore\n      keccak256(0x00, 0x20)\n      swap1\n    tag_166:\n      dup2\n      sload\n      dup2\n      mstore\n      swap1\n      0x01\n      add\n      swap1\n      0x20\n      add\n      dup1\n      dup4\n      gt\n      tag_166\n      jumpi\n      dup3\n      swap1\n      sub\n      0x1f\n      and\n      dup3\n      add\n      swap2\n    tag_164:\n      pop\n      pop\n      pop\n      pop\n      pop\n      dup2\n      mstore\n      0x20\n      add\n      swap1\n      0x01\n      add\n      swap1\n      jump(tag_159)\n    tag_160:\n      pop\n      pop\n      pop\n      pop\n      dup2\n      mstore\n      0x20\n      add\n      0x04\n      dup3\n      add\n      dup1\n      sload\n      dup1\n      0x20\n      mul\n      0x20\n      add\n      mload(0x40)\n      swap1\n      dup2\n      add\n      0x40\n      mstore\n      dup1\n      swap3\n      swap2\n      swap1\n      dup2\n      dup2\n      mstore\n      0x20\n      add\n      dup3\n      dup1\n      sload\n      dup1\n      iszero\n      tag_167\n      jumpi\n      0x20\n      mul\n      dup3\n      add\n      swap2\n      swap1\n      0x00\n      mstore\n      keccak256(0x00, 0x20)\n      swap1\n    tag_168:\n      dup2\n      sload\n      dup2\n      mstore\n      0x20\n      add\n      swap1\n      0x01\n      add\n      swap1\n      dup1\n      dup4\n      gt\n      tag_168\n      jumpi\n    tag_167:\n      pop\n      pop\n      pop\n      pop\n      pop\n      dup2\n      mstore\n      0x20\n      add\n      0x05\n      dup3\n      add\n      dup1\n      sload\n      dup1\n      0x20\n      mul\n      0x20\n      add\n      mload(0x40)\n      swap1\n      dup2\n      add\n      0x40\n      mstore\n      dup1\n      swap3\n      swap2\n      swap1\n      dup2\n      dup2\n      mstore\n      0x20\n      add\n      dup3\n      dup1\n      sload\n      dup1\n      iszero\n      tag_169\n      jumpi\n      0x20\n      mul\n      dup3\n      add\n      swap2\n      swap1\n      0x00\n      mstore\n      keccak256(0x00, 0x20)\n      swap1\n    tag_170:\n      dup2\n      sload\n      dup2\n      mstore\n      0x20\n      add\n      swap1\n      0x01\n      add\n      swap1\n      dup1\n      dup4\n      gt\n      tag_170\n      jumpi\n    tag_169:\n      pop\n      pop\n      pop\n      pop\n      pop\n      dup2\n      mstore\n      pop\n      pop\n      swap1\n      pop\n        /* \"contracts/DataUsageSmartContract.sol\":6366:6603  function getDataUsageByKey(uint _actorConsentId) public view returns (DataUsage memory) {... */\n      swap2\n      swap1\n      pop\n      jump\t// out\n        /* \"contracts/DataUsageSmartContract.sol\":2434:2679  function getPersonalDataByKey(uint _personalDataId) public view returns (PersonalData memory) {... */\n    tag_64:\n        /* \"contracts/DataUsageSmartContract.sol\":2507:2526  PersonalData memory */\n      tag_171\n      tag_172\n      jump\t// in\n    tag_171:\n        /* \"contracts/DataUsageSmartContract.sol\":2589:2590  0 */\n      0x00\n        /* \"contracts/DataUsageSmartContract.sol\":2548:2561  personalDatas */\n      0x03\n        /* \"contracts/DataUsageSmartContract.sol\":2548:2578  personalDatas[_personalDataId] */\n      0x00\n        /* \"contracts/DataUsageSmartContract.sol\":2562:2577  _personalDataId */\n      dup5\n        /* \"contracts/DataUsageSmartContract.sol\":2548:2578  personalDatas[_personalDataId] */\n      dup2\n      mstore\n      0x20\n      add\n      swap1\n      dup2\n      mstore\n      0x20\n      add\n      0x00\n      keccak256\n        /* \"contracts/DataUsageSmartContract.sol\":2548:2585  personalDatas[_personalDataId].userId */\n      0x00\n      add\n      sload\n        /* \"contracts/DataUsageSmartContract.sol\":2548:2590  personalDatas[_personalDataId].userId != 0 */\n      sub\n        /* \"contracts/DataUsageSmartContract.sol\":2540:2623  require(personalDatas[_personalDataId].userId != 0, \"PersonalData does not exist.\") */\n      tag_174\n      jumpi\n      mload(0x40)\n      0x08c379a000000000000000000000000000000000000000000000000000000000\n      dup2\n      mstore\n      0x04\n      add\n      tag_175\n      swap1\n      tag_176\n      jump\t// in\n    tag_175:\n      mload(0x40)\n      dup1\n      swap2\n      sub\n      swap1\n      revert\n    tag_174:\n        /* \"contracts/DataUsageSmartContract.sol\":2641:2654  personalDatas */\n      0x03\n        /* \"contracts/DataUsageSmartContract.sol\":2641:2671  personalDatas[_personalDataId] */\n      0x00\n        /* \"contracts/DataUsageSmartContract.sol\":2655:2670  _personalDataId */\n      dup4\n        /* \"contracts/DataUsageSmartContract.sol\":2641:2671  personalDatas[_personalDataId] */\n      dup2\n      mstore\n      0x20\n      add\n      swap1\n      dup2\n      mstore\n      0x20\n      add\n      0x00\n      keccak256\n        /* \"contracts/DataUsageSmartContract.sol\":2634:2671  return personalDatas[_personalDataId] */\n      mload(0x40)\n      dup1\n      0xa0\n      add\n      0x40\n      mstore\n      swap1\n      dup2\n      0x00\n      dup3\n      add\n      sload\n      dup2\n      mstore\n      0x20\n      add\n      0x01\n      dup3\n      add\n      dup1\n      sload\n      tag_177\n      swap1\n      tag_114\n      jump\t// in\n    tag_177:\n      dup1\n      0x1f\n      add\n      0x20\n      dup1\n      swap2\n      div\n      mul\n      0x20\n      add\n      mload(0x40)\n      swap1\n      dup2\n      add\n      0x40\n      mstore\n      dup1\n      swap3\n      swap2\n      swap1\n      dup2\n      dup2\n      mstore\n      0x20\n      add\n      dup3\n      dup1\n      sload\n      tag_178\n      swap1\n      tag_114\n      jump\t// in\n    tag_178:\n      dup1\n      iszero\n      tag_179\n      jumpi\n      dup1\n      0x1f\n      lt\n      tag_180\n      jumpi\n      0x0100\n      dup1\n      dup4\n      sload\n      div\n      mul\n      dup4\n      mstore\n      swap2\n      0x20\n      add\n      swap2\n      jump(tag_179)\n    tag_180:\n      dup3\n      add\n      swap2\n      swap1\n      0x00\n      mstore\n      keccak256(0x00, 0x20)\n      swap1\n    tag_181:\n      dup2\n      sload\n      dup2\n      mstore\n      swap1\n      0x01\n      add\n      swap1\n      0x20\n      add\n      dup1\n      dup4\n      gt\n      tag_181\n      jumpi\n      dup3\n      swap1\n      sub\n      0x1f\n      and\n      dup3\n      add\n      swap2\n    tag_179:\n      pop\n      pop\n      pop\n      pop\n      pop\n      dup2\n      mstore\n      0x20\n      add\n      0x02\n      dup3\n      add\n      dup1\n      sload\n      tag_182\n      swap1\n      tag_114\n      jump\t// in\n    tag_182:\n      dup1\n      0x1f\n      add\n      0x20\n      dup1\n      swap2\n      div\n      mul\n      0x20\n      add\n      mload(0x40)\n      swap1\n      dup2\n      add\n      0x40\n      mstore\n      dup1\n      swap3\n      swap2\n      swap1\n      dup2\n      dup2\n      mstore\n      0x20\n      add\n      dup3\n      dup1\n      sload\n      tag_183\n      swap1\n      tag_114\n      jump\t// in\n    tag_183:\n      dup1\n      iszero\n      tag_184\n      jumpi\n      dup1\n      0x1f\n      lt\n      tag_185\n      jumpi\n      0x0100\n      dup1\n      dup4\n      sload\n      div\n      mul\n      dup4\n      mstore\n      swap2\n      0x20\n      add\n      swap2\n      jump(tag_184)\n    tag_185:\n      dup3\n      add\n      swap2\n      swap1\n      0x00\n      mstore\n      keccak256(0x00, 0x20)\n      swap1\n    tag_186:\n      dup2\n      sload\n      dup2\n      mstore\n      swap1\n      0x01\n      add\n      swap1\n      0x20\n      add\n      dup1\n      dup4\n      gt\n      tag_186\n      jumpi\n      dup3\n      swap1\n      sub\n      0x1f\n      and\n      dup3\n      add\n      swap2\n    tag_184:\n      pop\n      pop\n      pop\n      pop\n      pop\n      dup2\n      mstore\n      0x20\n      add\n      0x03\n      dup3\n      add\n      dup1\n      sload\n      tag_187\n      swap1\n      tag_114\n      jump\t// in\n    tag_187:\n      dup1\n      0x1f\n      add\n      0x20\n      dup1\n      swap2\n      div\n      mul\n      0x20\n      add\n      mload(0x40)\n      swap1\n      dup2\n      add\n      0x40\n      mstore\n      dup1\n      swap3\n      swap2\n      swap1\n      dup2\n      dup2\n      mstore\n      0x20\n      add\n      dup3\n      dup1\n      sload\n      tag_188\n      swap1\n      tag_114\n      jump\t// in\n    tag_188:\n      dup1\n      iszero\n      tag_189\n      jumpi\n      dup1\n      0x1f\n      lt\n      tag_190\n      jumpi\n      0x0100\n      dup1\n      dup4\n      sload\n      div\n      mul\n      dup4\n      mstore\n      swap2\n      0x20\n      add\n      swap2\n      jump(tag_189)\n    tag_190:\n      dup3\n      add\n      swap2\n      swap1\n      0x00\n      mstore\n      keccak256(0x00, 0x20)\n      swap1\n    tag_191:\n      dup2\n      sload\n      dup2\n      mstore\n      swap1\n      0x01\n      add\n      swap1\n      0x20\n      add\n      dup1\n      dup4\n      gt\n      tag_191\n      jumpi\n      dup3\n      swap1\n      sub\n      0x1f\n      and\n      dup3\n      add\n      swap2\n    tag_189:\n      pop\n      pop\n      pop\n      pop\n      pop\n      dup2\n      mstore\n      0x20\n      add\n      0x04\n      dup3\n      add\n      dup1\n      sload\n      dup1\n      0x20\n      mul\n      0x20\n      add\n      mload(0x40)\n      swap1\n      dup2\n      add\n      0x40\n      mstore\n      dup1\n      swap3\n      swap2\n      swap1\n      dup2\n      dup2\n      mstore\n      0x20\n      add\n      0x00\n      swap1\n    tag_192:\n      dup3\n      dup3\n      lt\n      iszero\n      tag_193\n      jumpi\n      dup4\n      dup3\n      swap1\n      0x00\n      mstore\n      keccak256(0x00, 0x20)\n      add\n      dup1\n      sload\n      tag_195\n      swap1\n      tag_114\n      jump\t// in\n    tag_195:\n      dup1\n      0x1f\n      add\n      0x20\n      dup1\n      swap2\n      div\n      mul\n      0x20\n      add\n      mload(0x40)\n      swap1\n      dup2\n      add\n      0x40\n      mstore\n      dup1\n      swap3\n      swap2\n      swap1\n      dup2\n      dup2\n      mstore\n      0x20\n      add\n      dup3\n      dup1\n      sload\n      tag_196\n      swap1\n      tag_114\n      jump\t// in\n    tag_196:\n      dup1\n      iszero\n      tag_197\n      jumpi\n      dup1\n      0x1f\n      lt\n      tag_198\n      jumpi\n      0x0100\n      dup1\n      dup4\n      sload\n      div\n      mul\n      dup4\n      mstore\n      swap2\n      0x20\n      add\n      swap2\n      jump(tag_197)\n    tag_198:\n      dup3\n      add\n      swap2\n      swap1\n      0x00\n      mstore\n      keccak256(0x00, 0x20)\n      swap1\n    tag_199:\n      dup2\n      sload\n      dup2\n      mstore\n      swap1\n      0x01\n      add\n      swap1\n      0x20\n      add\n      dup1\n      dup4\n      gt\n      tag_199\n      jumpi\n      dup3\n      swap1\n      sub\n      0x1f\n      and\n      dup3\n      add\n      swap2\n    tag_197:\n      pop\n      pop\n      pop\n      pop\n      pop\n      dup2\n      mstore\n      0x20\n      add\n      swap1\n      0x01\n      add\n      swap1\n      jump(tag_192)\n    tag_193:\n      pop\n      pop\n      pop\n      pop\n      dup2\n      mstore\n      pop\n      pop\n      swap1\n      pop\n        /* \"contracts/DataUsageSmartContract.sol\":2434:2679  function getPersonalDataByKey(uint _personalDataId) public view returns (PersonalData memory) {... */\n      swap2\n      swap1\n      pop\n      jump\t// out\n    tag_77:\n      dup3\n      dup1\n      sload\n      dup3\n      dup3\n      sstore\n      swap1\n      0x00\n      mstore\n      keccak256(0x00, 0x20)\n      swap1\n      dup2\n      add\n      swap3\n      dup3\n      iszero\n      tag_200\n      jumpi\n      swap2\n      0x20\n      mul\n      dup3\n      add\n    tag_201:\n      dup3\n      dup2\n      gt\n      iszero\n      tag_202\n      jumpi\n      dup3\n      mload\n      dup3\n      swap1\n      dup2\n      tag_203\n      swap2\n      swap1\n      tag_73\n      jump\t// in\n    tag_203:\n      pop\n      swap2\n      0x20\n      add\n      swap2\n      swap1\n      0x01\n      add\n      swap1\n      jump(tag_201)\n    tag_202:\n    tag_200:\n      pop\n      swap1\n      pop\n      tag_204\n      swap2\n      swap1\n      tag_205\n      jump\t// in\n    tag_204:\n      pop\n      swap1\n      jump\t// out\n    tag_108:\n      mload(0x40)\n      dup1\n      0x40\n      add\n      0x40\n      mstore\n      dup1\n      0x00\n      dup2\n      mstore\n      0x20\n      add\n      0x60\n      dup2\n      mstore\n      pop\n      swap1\n      jump\t// out\n    tag_139:\n      dup3\n      dup1\n      sload\n      dup3\n      dup3\n      sstore\n      swap1\n      0x00\n      mstore\n      keccak256(0x00, 0x20)\n      swap1\n      dup2\n      add\n      swap3\n      dup3\n      iszero\n      tag_206\n      jumpi\n      swap2\n      0x20\n      mul\n      dup3\n      add\n    tag_207:\n      dup3\n      dup2\n      gt\n      iszero\n      tag_208\n      jumpi\n      dup3\n      mload\n      dup3\n      sstore\n      swap2\n      0x20\n      add\n      swap2\n      swap1\n      0x01\n      add\n      swap1\n      jump(tag_207)\n    tag_208:\n    tag_206:\n      pop\n      swap1\n      pop\n      tag_209\n      swap2\n      swap1\n      tag_210\n      jump\t// in\n    tag_209:\n      pop\n      swap1\n      jump\t// out\n    tag_141:\n      dup3\n      dup1\n      sload\n      dup3\n      dup3\n      sstore\n      swap1\n      0x00\n      mstore\n      keccak256(0x00, 0x20)\n      swap1\n      dup2\n      add\n      swap3\n      dup3\n      iszero\n      tag_211\n      jumpi\n      swap2\n      0x20\n      mul\n      dup3\n      add\n    tag_212:\n      dup3\n      dup2\n      gt\n      iszero\n      tag_213\n      jumpi\n      dup3\n      mload\n      dup3\n      sstore\n      swap2\n      0x20\n      add\n      swap2\n      swap1\n      0x01\n      add\n      swap1\n      jump(tag_212)\n    tag_213:\n    tag_211:\n      pop\n      swap1\n      pop\n      tag_214\n      swap2\n      swap1\n      tag_215\n      jump\t// in\n    tag_214:\n      pop\n      swap1\n      jump\t// out\n    tag_144:\n      mload(0x40)\n      dup1\n      0xc0\n      add\n      0x40\n      mstore\n      dup1\n      0x60\n      dup2\n      mstore\n      0x20\n      add\n      0x60\n      dup2\n      mstore\n      0x20\n      add\n      0x00\n      dup2\n      mstore\n      0x20\n      add\n      0x60\n      dup2\n      mstore\n      0x20\n      add\n      0x60\n      dup2\n      mstore\n      0x20\n      add\n      0x60\n      dup2\n      mstore\n      pop\n      swap1\n      jump\t// out\n    tag_172:\n      mload(0x40)\n      dup1\n      0xa0\n      add\n      0x40\n      mstore\n      dup1\n      0x00\n      dup2\n      mstore\n      0x20\n      add\n      0x60\n      dup2\n      mstore\n      0x20\n      add\n      0x60\n      dup2\n      mstore\n      0x20\n      add\n      0x60\n      dup2\n      mstore\n      0x20\n      add\n      0x60\n      dup2\n      mstore\n      pop\n      swap1\n      jump\t// out\n    tag_205:\n    tag_216:\n      dup1\n      dup3\n      gt\n      iszero\n      tag_217\n      jumpi\n      0x00\n      dup2\n      dup2\n      tag_218\n      swap2\n      swap1\n      tag_219\n      jump\t// in\n    tag_218:\n      pop\n      0x01\n      add\n      jump(tag_216)\n    tag_217:\n      pop\n      swap1\n      jump\t// out\n    tag_210:\n    tag_220:\n      dup1\n      dup3\n      gt\n      iszero\n      tag_221\n      jumpi\n      0x00\n      dup2\n      0x00\n      swap1\n      sstore\n      pop\n      0x01\n      add\n      jump(tag_220)\n    tag_221:\n      pop\n      swap1\n      jump\t// out\n    tag_215:\n    tag_222:\n      dup1\n      dup3\n      gt\n      iszero\n      tag_223\n      jumpi\n      0x00\n      dup2\n      0x00\n      swap1\n      sstore\n      pop\n      0x01\n      add\n      jump(tag_222)\n    tag_223:\n      pop\n      swap1\n      jump\t// out\n    tag_219:\n      pop\n      dup1\n      sload\n      tag_224\n      swap1\n      tag_114\n      jump\t// in\n    tag_224:\n      0x00\n      dup3\n      sstore\n      dup1\n      0x1f\n      lt\n      tag_226\n      jumpi\n      pop\n      jump(tag_225)\n    tag_226:\n      0x1f\n      add\n      0x20\n      swap1\n      div\n      swap1\n      0x00\n      mstore\n      keccak256(0x00, 0x20)\n      swap1\n      dup2\n      add\n      swap1\n      tag_227\n      swap2\n      swap1\n      tag_210\n      jump\t// in\n    tag_227:\n    tag_225:\n      pop\n      jump\t// out\n        /* \"#utility.yul\":7:82   */\n    tag_228:\n        /* \"#utility.yul\":40:46   */\n      0x00\n        /* \"#utility.yul\":73:75   */\n      0x40\n        /* \"#utility.yul\":67:76   */\n      mload\n        /* \"#utility.yul\":57:76   */\n      swap1\n      pop\n        /* \"#utility.yul\":7:82   */\n      swap1\n      jump\t// out\n        /* \"#utility.yul\":88:205   */\n    tag_229:\n        /* \"#utility.yul\":197:198   */\n      0x00\n        /* \"#utility.yul\":194:195   */\n      dup1\n        /* \"#utility.yul\":187:199   */\n      revert\n        /* \"#utility.yul\":211:328   */\n    tag_230:\n        /* \"#utility.yul\":320:321   */\n      0x00\n        /* \"#utility.yul\":317:318   */\n      dup1\n        /* \"#utility.yul\":310:322   */\n      revert\n        /* \"#utility.yul\":334:411   */\n    tag_231:\n        /* \"#utility.yul\":371:378   */\n      0x00\n        /* \"#utility.yul\":400:405   */\n      dup2\n        /* \"#utility.yul\":389:405   */\n      swap1\n      pop\n        /* \"#utility.yul\":334:411   */\n      swap2\n      swap1\n      pop\n      jump\t// out\n        /* \"#utility.yul\":417:539   */\n    tag_232:\n        /* \"#utility.yul\":490:514   */\n      tag_322\n        /* \"#utility.yul\":508:513   */\n      dup2\n        /* \"#utility.yul\":490:514   */\n      tag_231\n      jump\t// in\n    tag_322:\n        /* \"#utility.yul\":483:488   */\n      dup2\n        /* \"#utility.yul\":480:515   */\n      eq\n        /* \"#utility.yul\":470:533   */\n      tag_323\n      jumpi\n        /* \"#utility.yul\":529:530   */\n      0x00\n        /* \"#utility.yul\":526:527   */\n      dup1\n        /* \"#utility.yul\":519:531   */\n      revert\n        /* \"#utility.yul\":470:533   */\n    tag_323:\n        /* \"#utility.yul\":417:539   */\n      pop\n      jump\t// out\n        /* \"#utility.yul\":545:684   */\n    tag_233:\n        /* \"#utility.yul\":591:596   */\n      0x00\n        /* \"#utility.yul\":629:635   */\n      dup2\n        /* \"#utility.yul\":616:636   */\n      calldataload\n        /* \"#utility.yul\":607:636   */\n      swap1\n      pop\n        /* \"#utility.yul\":645:678   */\n      tag_325\n        /* \"#utility.yul\":672:677   */\n      dup2\n        /* \"#utility.yul\":645:678   */\n      tag_232\n      jump\t// in\n    tag_325:\n        /* \"#utility.yul\":545:684   */\n      swap3\n      swap2\n      pop\n      pop\n      jump\t// out\n        /* \"#utility.yul\":690:807   */\n    tag_234:\n        /* \"#utility.yul\":799:800   */\n      0x00\n        /* \"#utility.yul\":796:797   */\n      dup1\n        /* \"#utility.yul\":789:801   */\n      revert\n        /* \"#utility.yul\":813:930   */\n    tag_235:\n        /* \"#utility.yul\":922:923   */\n      0x00\n        /* \"#utility.yul\":919:920   */\n      dup1\n        /* \"#utility.yul\":912:924   */\n      revert\n        /* \"#utility.yul\":936:1038   */\n    tag_236:\n        /* \"#utility.yul\":977:983   */\n      0x00\n        /* \"#utility.yul\":1028:1030   */\n      0x1f\n        /* \"#utility.yul\":1024:1031   */\n      not\n        /* \"#utility.yul\":1019:1021   */\n      0x1f\n        /* \"#utility.yul\":1012:1017   */\n      dup4\n        /* \"#utility.yul\":1008:1022   */\n      add\n        /* \"#utility.yul\":1004:1032   */\n      and\n        /* \"#utility.yul\":994:1032   */\n      swap1\n      pop\n        /* \"#utility.yul\":936:1038   */\n      swap2\n      swap1\n      pop\n      jump\t// out\n        /* \"#utility.yul\":1044:1224   */\n    tag_125:\n        /* \"#utility.yul\":1092:1169   */\n      0x4e487b7100000000000000000000000000000000000000000000000000000000\n        /* \"#utility.yul\":1089:1090   */\n      0x00\n        /* \"#utility.yul\":1082:1170   */\n      mstore\n        /* \"#utility.yul\":1189:1193   */\n      0x41\n        /* \"#utility.yul\":1186:1187   */\n      0x04\n        /* \"#utility.yul\":1179:1194   */\n      mstore\n        /* \"#utility.yul\":1213:1217   */\n      0x24\n        /* \"#utility.yul\":1210:1211   */\n      0x00\n        /* \"#utility.yul\":1203:1218   */\n      revert\n        /* \"#utility.yul\":1230:1511   */\n    tag_237:\n        /* \"#utility.yul\":1313:1340   */\n      tag_331\n        /* \"#utility.yul\":1335:1339   */\n      dup3\n        /* \"#utility.yul\":1313:1340   */\n      tag_236\n      jump\t// in\n    tag_331:\n        /* \"#utility.yul\":1305:1311   */\n      dup2\n        /* \"#utility.yul\":1301:1341   */\n      add\n        /* \"#utility.yul\":1443:1449   */\n      dup2\n        /* \"#utility.yul\":1431:1441   */\n      dup2\n        /* \"#utility.yul\":1428:1450   */\n      lt\n        /* \"#utility.yul\":1407:1425   */\n      0xffffffffffffffff\n        /* \"#utility.yul\":1395:1405   */\n      dup3\n        /* \"#utility.yul\":1392:1426   */\n      gt\n        /* \"#utility.yul\":1389:1451   */\n      or\n        /* \"#utility.yul\":1386:1474   */\n      iszero\n      tag_332\n      jumpi\n        /* \"#utility.yul\":1454:1472   */\n      tag_333\n      tag_125\n      jump\t// in\n    tag_333:\n        /* \"#utility.yul\":1386:1474   */\n    tag_332:\n        /* \"#utility.yul\":1494:1504   */\n      dup1\n        /* \"#utility.yul\":1490:1492   */\n      0x40\n        /* \"#utility.yul\":1483:1505   */\n      mstore\n        /* \"#utility.yul\":1273:1511   */\n      pop\n        /* \"#utility.yul\":1230:1511   */\n      pop\n      pop\n      jump\t// out\n        /* \"#utility.yul\":1517:1646   */\n    tag_238:\n        /* \"#utility.yul\":1551:1557   */\n      0x00\n        /* \"#utility.yul\":1578:1598   */\n      tag_335\n      tag_228\n      jump\t// in\n    tag_335:\n        /* \"#utility.yul\":1568:1598   */\n      swap1\n      pop\n        /* \"#utility.yul\":1607:1640   */\n      tag_336\n        /* \"#utility.yul\":1635:1639   */\n      dup3\n        /* \"#utility.yul\":1627:1633   */\n      dup3\n        /* \"#utility.yul\":1607:1640   */\n      tag_237\n      jump\t// in\n    tag_336:\n        /* \"#utility.yul\":1517:1646   */\n      swap2\n      swap1\n      pop\n      jump\t// out\n        /* \"#utility.yul\":1652:1960   */\n    tag_239:\n        /* \"#utility.yul\":1714:1718   */\n      0x00\n        /* \"#utility.yul\":1804:1822   */\n      0xffffffffffffffff\n        /* \"#utility.yul\":1796:1802   */\n      dup3\n        /* \"#utility.yul\":1793:1823   */\n      gt\n        /* \"#utility.yul\":1790:1846   */\n      iszero\n      tag_338\n      jumpi\n        /* \"#utility.yul\":1826:1844   */\n      tag_339\n      tag_125\n      jump\t// in\n    tag_339:\n        /* \"#utility.yul\":1790:1846   */\n    tag_338:\n        /* \"#utility.yul\":1864:1893   */\n      tag_340\n        /* \"#utility.yul\":1886:1892   */\n      dup3\n        /* \"#utility.yul\":1864:1893   */\n      tag_236\n      jump\t// in\n    tag_340:\n        /* \"#utility.yul\":1856:1893   */\n      swap1\n      pop\n        /* \"#utility.yul\":1948:1952   */\n      0x20\n        /* \"#utility.yul\":1942:1946   */\n      dup2\n        /* \"#utility.yul\":1938:1953   */\n      add\n        /* \"#utility.yul\":1930:1953   */\n      swap1\n      pop\n        /* \"#utility.yul\":1652:1960   */\n      swap2\n      swap1\n      pop\n      jump\t// out\n        /* \"#utility.yul\":1966:2112   */\n    tag_240:\n        /* \"#utility.yul\":2063:2069   */\n      dup3\n        /* \"#utility.yul\":2058:2061   */\n      dup2\n        /* \"#utility.yul\":2053:2056   */\n      dup4\n        /* \"#utility.yul\":2040:2070   */\n      calldatacopy\n        /* \"#utility.yul\":2104:2105   */\n      0x00\n        /* \"#utility.yul\":2095:2101   */\n      dup4\n        /* \"#utility.yul\":2090:2093   */\n      dup4\n        /* \"#utility.yul\":2086:2102   */\n      add\n        /* \"#utility.yul\":2079:2106   */\n      mstore\n        /* \"#utility.yul\":1966:2112   */\n      pop\n      pop\n      pop\n      jump\t// out\n        /* \"#utility.yul\":2118:2543   */\n    tag_241:\n        /* \"#utility.yul\":2196:2201   */\n      0x00\n        /* \"#utility.yul\":2221:2287   */\n      tag_343\n        /* \"#utility.yul\":2237:2286   */\n      tag_344\n        /* \"#utility.yul\":2279:2285   */\n      dup5\n        /* \"#utility.yul\":2237:2286   */\n      tag_239\n      jump\t// in\n    tag_344:\n        /* \"#utility.yul\":2221:2287   */\n      tag_238\n      jump\t// in\n    tag_343:\n        /* \"#utility.yul\":2212:2287   */\n      swap1\n      pop\n        /* \"#utility.yul\":2310:2316   */\n      dup3\n        /* \"#utility.yul\":2303:2308   */\n      dup2\n        /* \"#utility.yul\":2296:2317   */\n      mstore\n        /* \"#utility.yul\":2348:2352   */\n      0x20\n        /* \"#utility.yul\":2341:2346   */\n      dup2\n        /* \"#utility.yul\":2337:2353   */\n      add\n        /* \"#utility.yul\":2386:2389   */\n      dup5\n        /* \"#utility.yul\":2377:2383   */\n      dup5\n        /* \"#utility.yul\":2372:2375   */\n      dup5\n        /* \"#utility.yul\":2368:2384   */\n      add\n        /* \"#utility.yul\":2365:2390   */\n      gt\n        /* \"#utility.yul\":2362:2474   */\n      iszero\n      tag_345\n      jumpi\n        /* \"#utility.yul\":2393:2472   */\n      tag_346\n      tag_235\n      jump\t// in\n    tag_346:\n        /* \"#utility.yul\":2362:2474   */\n    tag_345:\n        /* \"#utility.yul\":2483:2537   */\n      tag_347\n        /* \"#utility.yul\":2530:2536   */\n      dup5\n        /* \"#utility.yul\":2525:2528   */\n      dup3\n        /* \"#utility.yul\":2520:2523   */\n      dup6\n        /* \"#utility.yul\":2483:2537   */\n      tag_240\n      jump\t// in\n    tag_347:\n        /* \"#utility.yul\":2202:2543   */\n      pop\n        /* \"#utility.yul\":2118:2543   */\n      swap4\n      swap3\n      pop\n      pop\n      pop\n      jump\t// out\n        /* \"#utility.yul\":2563:2903   */\n    tag_242:\n        /* \"#utility.yul\":2619:2624   */\n      0x00\n        /* \"#utility.yul\":2668:2671   */\n      dup3\n        /* \"#utility.yul\":2661:2665   */\n      0x1f\n        /* \"#utility.yul\":2653:2659   */\n      dup4\n        /* \"#utility.yul\":2649:2666   */\n      add\n        /* \"#utility.yul\":2645:2672   */\n      slt\n        /* \"#utility.yul\":2635:2757   */\n      tag_349\n      jumpi\n        /* \"#utility.yul\":2676:2755   */\n      tag_350\n      tag_234\n      jump\t// in\n    tag_350:\n        /* \"#utility.yul\":2635:2757   */\n    tag_349:\n        /* \"#utility.yul\":2793:2799   */\n      dup2\n        /* \"#utility.yul\":2780:2800   */\n      calldataload\n        /* \"#utility.yul\":2818:2897   */\n      tag_351\n        /* \"#utility.yul\":2893:2896   */\n      dup5\n        /* \"#utility.yul\":2885:2891   */\n      dup3\n        /* \"#utility.yul\":2878:2882   */\n      0x20\n        /* \"#utility.yul\":2870:2876   */\n      dup7\n        /* \"#utility.yul\":2866:2883   */\n      add\n        /* \"#utility.yul\":2818:2897   */\n      tag_241\n      jump\t// in\n    tag_351:\n        /* \"#utility.yul\":2809:2897   */\n      swap2\n      pop\n        /* \"#utility.yul\":2625:2903   */\n      pop\n        /* \"#utility.yul\":2563:2903   */\n      swap3\n      swap2\n      pop\n      pop\n      jump\t// out\n        /* \"#utility.yul\":2909:3230   */\n    tag_243:\n        /* \"#utility.yul\":2996:3000   */\n      0x00\n        /* \"#utility.yul\":3086:3104   */\n      0xffffffffffffffff\n        /* \"#utility.yul\":3078:3084   */\n      dup3\n        /* \"#utility.yul\":3075:3105   */\n      gt\n        /* \"#utility.yul\":3072:3128   */\n      iszero\n      tag_353\n      jumpi\n        /* \"#utility.yul\":3108:3126   */\n      tag_354\n      tag_125\n      jump\t// in\n    tag_354:\n        /* \"#utility.yul\":3072:3128   */\n    tag_353:\n        /* \"#utility.yul\":3158:3162   */\n      0x20\n        /* \"#utility.yul\":3150:3156   */\n      dup3\n        /* \"#utility.yul\":3146:3163   */\n      mul\n        /* \"#utility.yul\":3138:3163   */\n      swap1\n      pop\n        /* \"#utility.yul\":3218:3222   */\n      0x20\n        /* \"#utility.yul\":3212:3216   */\n      dup2\n        /* \"#utility.yul\":3208:3223   */\n      add\n        /* \"#utility.yul\":3200:3223   */\n      swap1\n      pop\n        /* \"#utility.yul\":2909:3230   */\n      swap2\n      swap1\n      pop\n      jump\t// out\n        /* \"#utility.yul\":3236:3353   */\n    tag_244:\n        /* \"#utility.yul\":3345:3346   */\n      0x00\n        /* \"#utility.yul\":3342:3343   */\n      dup1\n        /* \"#utility.yul\":3335:3347   */\n      revert\n        /* \"#utility.yul\":3375:4320   */\n    tag_245:\n        /* \"#utility.yul\":3481:3486   */\n      0x00\n        /* \"#utility.yul\":3506:3597   */\n      tag_357\n        /* \"#utility.yul\":3522:3596   */\n      tag_358\n        /* \"#utility.yul\":3589:3595   */\n      dup5\n        /* \"#utility.yul\":3522:3596   */\n      tag_243\n      jump\t// in\n    tag_358:\n        /* \"#utility.yul\":3506:3597   */\n      tag_238\n      jump\t// in\n    tag_357:\n        /* \"#utility.yul\":3497:3597   */\n      swap1\n      pop\n        /* \"#utility.yul\":3617:3622   */\n      dup1\n        /* \"#utility.yul\":3646:3652   */\n      dup4\n        /* \"#utility.yul\":3639:3644   */\n      dup3\n        /* \"#utility.yul\":3632:3653   */\n      mstore\n        /* \"#utility.yul\":3680:3684   */\n      0x20\n        /* \"#utility.yul\":3673:3678   */\n      dup3\n        /* \"#utility.yul\":3669:3685   */\n      add\n        /* \"#utility.yul\":3662:3685   */\n      swap1\n      pop\n        /* \"#utility.yul\":3733:3737   */\n      0x20\n        /* \"#utility.yul\":3725:3731   */\n      dup5\n        /* \"#utility.yul\":3721:3738   */\n      mul\n        /* \"#utility.yul\":3713:3719   */\n      dup4\n        /* \"#utility.yul\":3709:3739   */\n      add\n        /* \"#utility.yul\":3762:3765   */\n      dup6\n        /* \"#utility.yul\":3754:3760   */\n      dup2\n        /* \"#utility.yul\":3751:3766   */\n      gt\n        /* \"#utility.yul\":3748:3870   */\n      iszero\n      tag_359\n      jumpi\n        /* \"#utility.yul\":3781:3860   */\n      tag_360\n      tag_244\n      jump\t// in\n    tag_360:\n        /* \"#utility.yul\":3748:3870   */\n    tag_359:\n        /* \"#utility.yul\":3896:3902   */\n      dup4\n        /* \"#utility.yul\":3879:4314   */\n    tag_361:\n        /* \"#utility.yul\":3913:3919   */\n      dup2\n        /* \"#utility.yul\":3908:3911   */\n      dup2\n        /* \"#utility.yul\":3905:3920   */\n      lt\n        /* \"#utility.yul\":3879:4314   */\n      iszero\n      tag_363\n      jumpi\n        /* \"#utility.yul\":4002:4005   */\n      dup1\n        /* \"#utility.yul\":3989:4006   */\n      calldataload\n        /* \"#utility.yul\":4038:4056   */\n      0xffffffffffffffff\n        /* \"#utility.yul\":4025:4036   */\n      dup2\n        /* \"#utility.yul\":4022:4057   */\n      gt\n        /* \"#utility.yul\":4019:4141   */\n      iszero\n      tag_364\n      jumpi\n        /* \"#utility.yul\":4060:4139   */\n      tag_365\n      tag_234\n      jump\t// in\n    tag_365:\n        /* \"#utility.yul\":4019:4141   */\n    tag_364:\n        /* \"#utility.yul\":4184:4195   */\n      dup1\n        /* \"#utility.yul\":4176:4182   */\n      dup7\n        /* \"#utility.yul\":4172:4196   */\n      add\n        /* \"#utility.yul\":4222:4269   */\n      tag_366\n        /* \"#utility.yul\":4265:4268   */\n      dup10\n        /* \"#utility.yul\":4253:4263   */\n      dup3\n        /* \"#utility.yul\":4222:4269   */\n      tag_242\n      jump\t// in\n    tag_366:\n        /* \"#utility.yul\":4217:4220   */\n      dup6\n        /* \"#utility.yul\":4210:4270   */\n      mstore\n        /* \"#utility.yul\":4299:4303   */\n      0x20\n        /* \"#utility.yul\":4294:4297   */\n      dup6\n        /* \"#utility.yul\":4290:4304   */\n      add\n        /* \"#utility.yul\":4283:4304   */\n      swap5\n      pop\n        /* \"#utility.yul\":3955:4314   */\n      pop\n      pop\n        /* \"#utility.yul\":3939:3943   */\n      0x20\n        /* \"#utility.yul\":3934:3937   */\n      dup2\n        /* \"#utility.yul\":3930:3944   */\n      add\n        /* \"#utility.yul\":3923:3944   */\n      swap1\n      pop\n        /* \"#utility.yul\":3879:4314   */\n      jump(tag_361)\n    tag_363:\n        /* \"#utility.yul\":3883:3904   */\n      pop\n        /* \"#utility.yul\":3487:4320   */\n      pop\n      pop\n        /* \"#utility.yul\":3375:4320   */\n      swap4\n      swap3\n      pop\n      pop\n      pop\n      jump\t// out\n        /* \"#utility.yul\":4342:4732   */\n    tag_246:\n        /* \"#utility.yul\":4423:4428   */\n      0x00\n        /* \"#utility.yul\":4472:4475   */\n      dup3\n        /* \"#utility.yul\":4465:4469   */\n      0x1f\n        /* \"#utility.yul\":4457:4463   */\n      dup4\n        /* \"#utility.yul\":4453:4470   */\n      add\n        /* \"#utility.yul\":4449:4476   */\n      slt\n        /* \"#utility.yul\":4439:4561   */\n      tag_368\n      jumpi\n        /* \"#utility.yul\":4480:4559   */\n      tag_369\n      tag_234\n      jump\t// in\n    tag_369:\n        /* \"#utility.yul\":4439:4561   */\n    tag_368:\n        /* \"#utility.yul\":4597:4603   */\n      dup2\n        /* \"#utility.yul\":4584:4604   */\n      calldataload\n        /* \"#utility.yul\":4622:4726   */\n      tag_370\n        /* \"#utility.yul\":4722:4725   */\n      dup5\n        /* \"#utility.yul\":4714:4720   */\n      dup3\n        /* \"#utility.yul\":4707:4711   */\n      0x20\n        /* \"#utility.yul\":4699:4705   */\n      dup7\n        /* \"#utility.yul\":4695:4712   */\n      add\n        /* \"#utility.yul\":4622:4726   */\n      tag_245\n      jump\t// in\n    tag_370:\n        /* \"#utility.yul\":4613:4726   */\n      swap2\n      pop\n        /* \"#utility.yul\":4429:4732   */\n      pop\n        /* \"#utility.yul\":4342:4732   */\n      swap3\n      swap2\n      pop\n      pop\n      jump\t// out\n        /* \"#utility.yul\":4738:6419   */\n    tag_18:\n        /* \"#utility.yul\":4898:4904   */\n      0x00\n        /* \"#utility.yul\":4906:4912   */\n      dup1\n        /* \"#utility.yul\":4914:4920   */\n      0x00\n        /* \"#utility.yul\":4922:4928   */\n      dup1\n        /* \"#utility.yul\":4930:4936   */\n      0x00\n        /* \"#utility.yul\":4979:4982   */\n      0xa0\n        /* \"#utility.yul\":4967:4976   */\n      dup7\n        /* \"#utility.yul\":4958:4965   */\n      dup9\n        /* \"#utility.yul\":4954:4977   */\n      sub\n        /* \"#utility.yul\":4950:4983   */\n      slt\n        /* \"#utility.yul\":4947:5067   */\n      iszero\n      tag_372\n      jumpi\n        /* \"#utility.yul\":4986:5065   */\n      tag_373\n      tag_229\n      jump\t// in\n    tag_373:\n        /* \"#utility.yul\":4947:5067   */\n    tag_372:\n        /* \"#utility.yul\":5106:5107   */\n      0x00\n        /* \"#utility.yul\":5131:5184   */\n      tag_374\n        /* \"#utility.yul\":5176:5183   */\n      dup9\n        /* \"#utility.yul\":5167:5173   */\n      dup3\n        /* \"#utility.yul\":5156:5165   */\n      dup10\n        /* \"#utility.yul\":5152:5174   */\n      add\n        /* \"#utility.yul\":5131:5184   */\n      tag_233\n      jump\t// in\n    tag_374:\n        /* \"#utility.yul\":5121:5184   */\n      swap6\n      pop\n        /* \"#utility.yul\":5077:5194   */\n      pop\n        /* \"#utility.yul\":5261:5263   */\n      0x20\n        /* \"#utility.yul\":5250:5259   */\n      dup7\n        /* \"#utility.yul\":5246:5264   */\n      add\n        /* \"#utility.yul\":5233:5265   */\n      calldataload\n        /* \"#utility.yul\":5292:5310   */\n      0xffffffffffffffff\n        /* \"#utility.yul\":5284:5290   */\n      dup2\n        /* \"#utility.yul\":5281:5311   */\n      gt\n        /* \"#utility.yul\":5278:5395   */\n      iszero\n      tag_375\n      jumpi\n        /* \"#utility.yul\":5314:5393   */\n      tag_376\n      tag_230\n      jump\t// in\n    tag_376:\n        /* \"#utility.yul\":5278:5395   */\n    tag_375:\n        /* \"#utility.yul\":5419:5482   */\n      tag_377\n        /* \"#utility.yul\":5474:5481   */\n      dup9\n        /* \"#utility.yul\":5465:5471   */\n      dup3\n        /* \"#utility.yul\":5454:5463   */\n      dup10\n        /* \"#utility.yul\":5450:5472   */\n      add\n        /* \"#utility.yul\":5419:5482   */\n      tag_242\n      jump\t// in\n    tag_377:\n        /* \"#utility.yul\":5409:5482   */\n      swap5\n      pop\n        /* \"#utility.yul\":5204:5492   */\n      pop\n        /* \"#utility.yul\":5559:5561   */\n      0x40\n        /* \"#utility.yul\":5548:5557   */\n      dup7\n        /* \"#utility.yul\":5544:5562   */\n      add\n        /* \"#utility.yul\":5531:5563   */\n      calldataload\n        /* \"#utility.yul\":5590:5608   */\n      0xffffffffffffffff\n        /* \"#utility.yul\":5582:5588   */\n      dup2\n        /* \"#utility.yul\":5579:5609   */\n      gt\n        /* \"#utility.yul\":5576:5693   */\n      iszero\n      tag_378\n      jumpi\n        /* \"#utility.yul\":5612:5691   */\n      tag_379\n      tag_230\n      jump\t// in\n    tag_379:\n        /* \"#utility.yul\":5576:5693   */\n    tag_378:\n        /* \"#utility.yul\":5717:5780   */\n      tag_380\n        /* \"#utility.yul\":5772:5779   */\n      dup9\n        /* \"#utility.yul\":5763:5769   */\n      dup3\n        /* \"#utility.yul\":5752:5761   */\n      dup10\n        /* \"#utility.yul\":5748:5770   */\n      add\n        /* \"#utility.yul\":5717:5780   */\n      tag_242\n      jump\t// in\n    tag_380:\n        /* \"#utility.yul\":5707:5780   */\n      swap4\n      pop\n        /* \"#utility.yul\":5502:5790   */\n      pop\n        /* \"#utility.yul\":5857:5859   */\n      0x60\n        /* \"#utility.yul\":5846:5855   */\n      dup7\n        /* \"#utility.yul\":5842:5860   */\n      add\n        /* \"#utility.yul\":5829:5861   */\n      calldataload\n        /* \"#utility.yul\":5888:5906   */\n      0xffffffffffffffff\n        /* \"#utility.yul\":5880:5886   */\n      dup2\n        /* \"#utility.yul\":5877:5907   */\n      gt\n        /* \"#utility.yul\":5874:5991   */\n      iszero\n      tag_381\n      jumpi\n        /* \"#utility.yul\":5910:5989   */\n      tag_382\n      tag_230\n      jump\t// in\n    tag_382:\n        /* \"#utility.yul\":5874:5991   */\n    tag_381:\n        /* \"#utility.yul\":6015:6078   */\n      tag_383\n        /* \"#utility.yul\":6070:6077   */\n      dup9\n        /* \"#utility.yul\":6061:6067   */\n      dup3\n        /* \"#utility.yul\":6050:6059   */\n      dup10\n        /* \"#utility.yul\":6046:6068   */\n      add\n        /* \"#utility.yul\":6015:6078   */\n      tag_242\n      jump\t// in\n    tag_383:\n        /* \"#utility.yul\":6005:6078   */\n      swap3\n      pop\n        /* \"#utility.yul\":5800:6088   */\n      pop\n        /* \"#utility.yul\":6155:6158   */\n      0x80\n        /* \"#utility.yul\":6144:6153   */\n      dup7\n        /* \"#utility.yul\":6140:6159   */\n      add\n        /* \"#utility.yul\":6127:6160   */\n      calldataload\n        /* \"#utility.yul\":6187:6205   */\n      0xffffffffffffffff\n        /* \"#utility.yul\":6179:6185   */\n      dup2\n        /* \"#utility.yul\":6176:6206   */\n      gt\n        /* \"#utility.yul\":6173:6290   */\n      iszero\n      tag_384\n      jumpi\n        /* \"#utility.yul\":6209:6288   */\n      tag_385\n      tag_230\n      jump\t// in\n    tag_385:\n        /* \"#utility.yul\":6173:6290   */\n    tag_384:\n        /* \"#utility.yul\":6314:6402   */\n      tag_386\n        /* \"#utility.yul\":6394:6401   */\n      dup9\n        /* \"#utility.yul\":6385:6391   */\n      dup3\n        /* \"#utility.yul\":6374:6383   */\n      dup10\n        /* \"#utility.yul\":6370:6392   */\n      add\n        /* \"#utility.yul\":6314:6402   */\n      tag_246\n      jump\t// in\n    tag_386:\n        /* \"#utility.yul\":6304:6402   */\n      swap2\n      pop\n        /* \"#utility.yul\":6098:6412   */\n      pop\n        /* \"#utility.yul\":4738:6419   */\n      swap3\n      swap6\n      pop\n      swap3\n      swap6\n      swap1\n      swap4\n      pop\n      jump\t// out\n        /* \"#utility.yul\":6425:6539   */\n    tag_247:\n        /* \"#utility.yul\":6492:6498   */\n      0x00\n        /* \"#utility.yul\":6526:6531   */\n      dup2\n        /* \"#utility.yul\":6520:6532   */\n      mload\n        /* \"#utility.yul\":6510:6532   */\n      swap1\n      pop\n        /* \"#utility.yul\":6425:6539   */\n      swap2\n      swap1\n      pop\n      jump\t// out\n        /* \"#utility.yul\":6545:6729   */\n    tag_248:\n        /* \"#utility.yul\":6644:6655   */\n      0x00\n        /* \"#utility.yul\":6678:6684   */\n      dup3\n        /* \"#utility.yul\":6673:6676   */\n      dup3\n        /* \"#utility.yul\":6666:6685   */\n      mstore\n        /* \"#utility.yul\":6718:6722   */\n      0x20\n        /* \"#utility.yul\":6713:6716   */\n      dup3\n        /* \"#utility.yul\":6709:6723   */\n      add\n        /* \"#utility.yul\":6694:6723   */\n      swap1\n      pop\n        /* \"#utility.yul\":6545:6729   */\n      swap3\n      swap2\n      pop\n      pop\n      jump\t// out\n        /* \"#utility.yul\":6735:6867   */\n    tag_249:\n        /* \"#utility.yul\":6802:6806   */\n      0x00\n        /* \"#utility.yul\":6825:6828   */\n      dup2\n        /* \"#utility.yul\":6817:6828   */\n      swap1\n      pop\n        /* \"#utility.yul\":6855:6859   */\n      0x20\n        /* \"#utility.yul\":6850:6853   */\n      dup3\n        /* \"#utility.yul\":6846:6860   */\n      add\n        /* \"#utility.yul\":6838:6860   */\n      swap1\n      pop\n        /* \"#utility.yul\":6735:6867   */\n      swap2\n      swap1\n      pop\n      jump\t// out\n        /* \"#utility.yul\":6873:6981   */\n    tag_250:\n        /* \"#utility.yul\":6950:6974   */\n      tag_391\n        /* \"#utility.yul\":6968:6973   */\n      dup2\n        /* \"#utility.yul\":6950:6974   */\n      tag_231\n      jump\t// in\n    tag_391:\n        /* \"#utility.yul\":6945:6948   */\n      dup3\n        /* \"#utility.yul\":6938:6975   */\n      mstore\n        /* \"#utility.yul\":6873:6981   */\n      pop\n      pop\n      jump\t// out\n        /* \"#utility.yul\":6987:7166   */\n    tag_251:\n        /* \"#utility.yul\":7056:7066   */\n      0x00\n        /* \"#utility.yul\":7077:7123   */\n      tag_393\n        /* \"#utility.yul\":7119:7122   */\n      dup4\n        /* \"#utility.yul\":7111:7117   */\n      dup4\n        /* \"#utility.yul\":7077:7123   */\n      tag_250\n      jump\t// in\n    tag_393:\n        /* \"#utility.yul\":7155:7159   */\n      0x20\n        /* \"#utility.yul\":7150:7153   */\n      dup4\n        /* \"#utility.yul\":7146:7160   */\n      add\n        /* \"#utility.yul\":7132:7160   */\n      swap1\n      pop\n        /* \"#utility.yul\":6987:7166   */\n      swap3\n      swap2\n      pop\n      pop\n      jump\t// out\n        /* \"#utility.yul\":7172:7285   */\n    tag_252:\n        /* \"#utility.yul\":7242:7246   */\n      0x00\n        /* \"#utility.yul\":7274:7278   */\n      0x20\n        /* \"#utility.yul\":7269:7272   */\n      dup3\n        /* \"#utility.yul\":7265:7279   */\n      add\n        /* \"#utility.yul\":7257:7279   */\n      swap1\n      pop\n        /* \"#utility.yul\":7172:7285   */\n      swap2\n      swap1\n      pop\n      jump\t// out\n        /* \"#utility.yul\":7321:8053   */\n    tag_253:\n        /* \"#utility.yul\":7440:7443   */\n      0x00\n        /* \"#utility.yul\":7469:7523   */\n      tag_396\n        /* \"#utility.yul\":7517:7522   */\n      dup3\n        /* \"#utility.yul\":7469:7523   */\n      tag_247\n      jump\t// in\n    tag_396:\n        /* \"#utility.yul\":7539:7625   */\n      tag_397\n        /* \"#utility.yul\":7618:7624   */\n      dup2\n        /* \"#utility.yul\":7613:7616   */\n      dup6\n        /* \"#utility.yul\":7539:7625   */\n      tag_248\n      jump\t// in\n    tag_397:\n        /* \"#utility.yul\":7532:7625   */\n      swap4\n      pop\n        /* \"#utility.yul\":7649:7705   */\n      tag_398\n        /* \"#utility.yul\":7699:7704   */\n      dup4\n        /* \"#utility.yul\":7649:7705   */\n      tag_249\n      jump\t// in\n    tag_398:\n        /* \"#utility.yul\":7728:7735   */\n      dup1\n        /* \"#utility.yul\":7759:7760   */\n      0x00\n        /* \"#utility.yul\":7744:8028   */\n    tag_399:\n        /* \"#utility.yul\":7769:7775   */\n      dup4\n        /* \"#utility.yul\":7766:7767   */\n      dup2\n        /* \"#utility.yul\":7763:7776   */\n      lt\n        /* \"#utility.yul\":7744:8028   */\n      iszero\n      tag_401\n      jumpi\n        /* \"#utility.yul\":7845:7851   */\n      dup2\n        /* \"#utility.yul\":7839:7852   */\n      mload\n        /* \"#utility.yul\":7872:7935   */\n      tag_402\n        /* \"#utility.yul\":7931:7934   */\n      dup9\n        /* \"#utility.yul\":7916:7929   */\n      dup3\n        /* \"#utility.yul\":7872:7935   */\n      tag_251\n      jump\t// in\n    tag_402:\n        /* \"#utility.yul\":7865:7935   */\n      swap8\n      pop\n        /* \"#utility.yul\":7958:8018   */\n      tag_403\n        /* \"#utility.yul\":8011:8017   */\n      dup4\n        /* \"#utility.yul\":7958:8018   */\n      tag_252\n      jump\t// in\n    tag_403:\n        /* \"#utility.yul\":7948:8018   */\n      swap3\n      pop\n        /* \"#utility.yul\":7804:8028   */\n      pop\n        /* \"#utility.yul\":7791:7792   */\n      0x01\n        /* \"#utility.yul\":7788:7789   */\n      dup2\n        /* \"#utility.yul\":7784:7793   */\n      add\n        /* \"#utility.yul\":7779:7793   */\n      swap1\n      pop\n        /* \"#utility.yul\":7744:8028   */\n      jump(tag_399)\n    tag_401:\n        /* \"#utility.yul\":7748:7762   */\n      pop\n        /* \"#utility.yul\":8044:8047   */\n      dup6\n        /* \"#utility.yul\":8037:8047   */\n      swap4\n      pop\n        /* \"#utility.yul\":7445:8053   */\n      pop\n      pop\n      pop\n        /* \"#utility.yul\":7321:8053   */\n      swap3\n      swap2\n      pop\n      pop\n      jump\t// out\n        /* \"#utility.yul\":8059:8432   */\n    tag_23:\n        /* \"#utility.yul\":8202:8206   */\n      0x00\n        /* \"#utility.yul\":8240:8242   */\n      0x20\n        /* \"#utility.yul\":8229:8238   */\n      dup3\n        /* \"#utility.yul\":8225:8243   */\n      add\n        /* \"#utility.yul\":8217:8243   */\n      swap1\n      pop\n        /* \"#utility.yul\":8289:8298   */\n      dup2\n        /* \"#utility.yul\":8283:8287   */\n      dup2\n        /* \"#utility.yul\":8279:8299   */\n      sub\n        /* \"#utility.yul\":8275:8276   */\n      0x00\n        /* \"#utility.yul\":8264:8273   */\n      dup4\n        /* \"#utility.yul\":8260:8277   */\n      add\n        /* \"#utility.yul\":8253:8300   */\n      mstore\n        /* \"#utility.yul\":8317:8425   */\n      tag_405\n        /* \"#utility.yul\":8420:8424   */\n      dup2\n        /* \"#utility.yul\":8411:8417   */\n      dup5\n        /* \"#utility.yul\":8317:8425   */\n      tag_253\n      jump\t// in\n    tag_405:\n        /* \"#utility.yul\":8309:8425   */\n      swap1\n      pop\n        /* \"#utility.yul\":8059:8432   */\n      swap3\n      swap2\n      pop\n      pop\n      jump\t// out\n        /* \"#utility.yul\":8438:8767   */\n    tag_26:\n        /* \"#utility.yul\":8497:8503   */\n      0x00\n        /* \"#utility.yul\":8546:8548   */\n      0x20\n        /* \"#utility.yul\":8534:8543   */\n      dup3\n        /* \"#utility.yul\":8525:8532   */\n      dup5\n        /* \"#utility.yul\":8521:8544   */\n      sub\n        /* \"#utility.yul\":8517:8549   */\n      slt\n        /* \"#utility.yul\":8514:8633   */\n      iszero\n      tag_407\n      jumpi\n        /* \"#utility.yul\":8552:8631   */\n      tag_408\n      tag_229\n      jump\t// in\n    tag_408:\n        /* \"#utility.yul\":8514:8633   */\n    tag_407:\n        /* \"#utility.yul\":8672:8673   */\n      0x00\n        /* \"#utility.yul\":8697:8750   */\n      tag_409\n        /* \"#utility.yul\":8742:8749   */\n      dup5\n        /* \"#utility.yul\":8733:8739   */\n      dup3\n        /* \"#utility.yul\":8722:8731   */\n      dup6\n        /* \"#utility.yul\":8718:8740   */\n      add\n        /* \"#utility.yul\":8697:8750   */\n      tag_233\n      jump\t// in\n    tag_409:\n        /* \"#utility.yul\":8687:8750   */\n      swap2\n      pop\n        /* \"#utility.yul\":8643:8760   */\n      pop\n        /* \"#utility.yul\":8438:8767   */\n      swap3\n      swap2\n      pop\n      pop\n      jump\t// out\n        /* \"#utility.yul\":8773:8891   */\n    tag_254:\n        /* \"#utility.yul\":8860:8884   */\n      tag_411\n        /* \"#utility.yul\":8878:8883   */\n      dup2\n        /* \"#utility.yul\":8860:8884   */\n      tag_231\n      jump\t// in\n    tag_411:\n        /* \"#utility.yul\":8855:8858   */\n      dup3\n        /* \"#utility.yul\":8848:8885   */\n      mstore\n        /* \"#utility.yul\":8773:8891   */\n      pop\n      pop\n      jump\t// out\n        /* \"#utility.yul\":8897:9119   */\n    tag_31:\n        /* \"#utility.yul\":8990:8994   */\n      0x00\n        /* \"#utility.yul\":9028:9030   */\n      0x20\n        /* \"#utility.yul\":9017:9026   */\n      dup3\n        /* \"#utility.yul\":9013:9031   */\n      add\n        /* \"#utility.yul\":9005:9031   */\n      swap1\n      pop\n        /* \"#utility.yul\":9041:9112   */\n      tag_413\n        /* \"#utility.yul\":9109:9110   */\n      0x00\n        /* \"#utility.yul\":9098:9107   */\n      dup4\n        /* \"#utility.yul\":9094:9111   */\n      add\n        /* \"#utility.yul\":9085:9091   */\n      dup5\n        /* \"#utility.yul\":9041:9112   */\n      tag_254\n      jump\t// in\n    tag_413:\n        /* \"#utility.yul\":8897:9119   */\n      swap3\n      swap2\n      pop\n      pop\n      jump\t// out\n        /* \"#utility.yul\":9125:9779   */\n    tag_37:\n        /* \"#utility.yul\":9203:9209   */\n      0x00\n        /* \"#utility.yul\":9211:9217   */\n      dup1\n        /* \"#utility.yul\":9260:9262   */\n      0x40\n        /* \"#utility.yul\":9248:9257   */\n      dup4\n        /* \"#utility.yul\":9239:9246   */\n      dup6\n        /* \"#utility.yul\":9235:9258   */\n      sub\n        /* \"#utility.yul\":9231:9263   */\n      slt\n        /* \"#utility.yul\":9228:9347   */\n      iszero\n      tag_415\n      jumpi\n        /* \"#utility.yul\":9266:9345   */\n      tag_416\n      tag_229\n      jump\t// in\n    tag_416:\n        /* \"#utility.yul\":9228:9347   */\n    tag_415:\n        /* \"#utility.yul\":9386:9387   */\n      0x00\n        /* \"#utility.yul\":9411:9464   */\n      tag_417\n        /* \"#utility.yul\":9456:9463   */\n      dup6\n        /* \"#utility.yul\":9447:9453   */\n      dup3\n        /* \"#utility.yul\":9436:9445   */\n      dup7\n        /* \"#utility.yul\":9432:9454   */\n      add\n        /* \"#utility.yul\":9411:9464   */\n      tag_233\n      jump\t// in\n    tag_417:\n        /* \"#utility.yul\":9401:9464   */\n      swap3\n      pop\n        /* \"#utility.yul\":9357:9474   */\n      pop\n        /* \"#utility.yul\":9541:9543   */\n      0x20\n        /* \"#utility.yul\":9530:9539   */\n      dup4\n        /* \"#utility.yul\":9526:9544   */\n      add\n        /* \"#utility.yul\":9513:9545   */\n      calldataload\n        /* \"#utility.yul\":9572:9590   */\n      0xffffffffffffffff\n        /* \"#utility.yul\":9564:9570   */\n      dup2\n        /* \"#utility.yul\":9561:9591   */\n      gt\n        /* \"#utility.yul\":9558:9675   */\n      iszero\n      tag_418\n      jumpi\n        /* \"#utility.yul\":9594:9673   */\n      tag_419\n      tag_230\n      jump\t// in\n    tag_419:\n        /* \"#utility.yul\":9558:9675   */\n    tag_418:\n        /* \"#utility.yul\":9699:9762   */\n      tag_420\n        /* \"#utility.yul\":9754:9761   */\n      dup6\n        /* \"#utility.yul\":9745:9751   */\n      dup3\n        /* \"#utility.yul\":9734:9743   */\n      dup7\n        /* \"#utility.yul\":9730:9752   */\n      add\n        /* \"#utility.yul\":9699:9762   */\n      tag_242\n      jump\t// in\n    tag_420:\n        /* \"#utility.yul\":9689:9762   */\n      swap2\n      pop\n        /* \"#utility.yul\":9484:9772   */\n      pop\n        /* \"#utility.yul\":9125:9779   */\n      swap3\n      pop\n      swap3\n      swap1\n      pop\n      jump\t// out\n        /* \"#utility.yul\":9785:9911   */\n    tag_255:\n        /* \"#utility.yul\":9822:9829   */\n      0x00\n        /* \"#utility.yul\":9862:9904   */\n      0xffffffffffffffffffffffffffffffffffffffff\n        /* \"#utility.yul\":9855:9860   */\n      dup3\n        /* \"#utility.yul\":9851:9905   */\n      and\n        /* \"#utility.yul\":9840:9905   */\n      swap1\n      pop\n        /* \"#utility.yul\":9785:9911   */\n      swap2\n      swap1\n      pop\n      jump\t// out\n        /* \"#utility.yul\":9917:10013   */\n    tag_256:\n        /* \"#utility.yul\":9954:9961   */\n      0x00\n        /* \"#utility.yul\":9983:10007   */\n      tag_423\n        /* \"#utility.yul\":10001:10006   */\n      dup3\n        /* \"#utility.yul\":9983:10007   */\n      tag_255\n      jump\t// in\n    tag_423:\n        /* \"#utility.yul\":9972:10007   */\n      swap1\n      pop\n        /* \"#utility.yul\":9917:10013   */\n      swap2\n      swap1\n      pop\n      jump\t// out\n        /* \"#utility.yul\":10019:10137   */\n    tag_257:\n        /* \"#utility.yul\":10106:10130   */\n      tag_425\n        /* \"#utility.yul\":10124:10129   */\n      dup2\n        /* \"#utility.yul\":10106:10130   */\n      tag_256\n      jump\t// in\n    tag_425:\n        /* \"#utility.yul\":10101:10104   */\n      dup3\n        /* \"#utility.yul\":10094:10131   */\n      mstore\n        /* \"#utility.yul\":10019:10137   */\n      pop\n      pop\n      jump\t// out\n        /* \"#utility.yul\":10143:10365   */\n    tag_42:\n        /* \"#utility.yul\":10236:10240   */\n      0x00\n        /* \"#utility.yul\":10274:10276   */\n      0x20\n        /* \"#utility.yul\":10263:10272   */\n      dup3\n        /* \"#utility.yul\":10259:10277   */\n      add\n        /* \"#utility.yul\":10251:10277   */\n      swap1\n      pop\n        /* \"#utility.yul\":10287:10358   */\n      tag_427\n        /* \"#utility.yul\":10355:10356   */\n      0x00\n        /* \"#utility.yul\":10344:10353   */\n      dup4\n        /* \"#utility.yul\":10340:10357   */\n      add\n        /* \"#utility.yul\":10331:10337   */\n      dup5\n        /* \"#utility.yul\":10287:10358   */\n      tag_257\n      jump\t// in\n    tag_427:\n        /* \"#utility.yul\":10143:10365   */\n      swap3\n      swap2\n      pop\n      pop\n      jump\t// out\n        /* \"#utility.yul\":10371:10448   */\n    tag_258:\n        /* \"#utility.yul\":10408:10415   */\n      0x00\n        /* \"#utility.yul\":10437:10442   */\n      dup2\n        /* \"#utility.yul\":10426:10442   */\n      swap1\n      pop\n        /* \"#utility.yul\":10371:10448   */\n      swap2\n      swap1\n      pop\n      jump\t// out\n        /* \"#utility.yul\":10454:10572   */\n    tag_259:\n        /* \"#utility.yul\":10541:10565   */\n      tag_430\n        /* \"#utility.yul\":10559:10564   */\n      dup2\n        /* \"#utility.yul\":10541:10565   */\n      tag_258\n      jump\t// in\n    tag_430:\n        /* \"#utility.yul\":10536:10539   */\n      dup3\n        /* \"#utility.yul\":10529:10566   */\n      mstore\n        /* \"#utility.yul\":10454:10572   */\n      pop\n      pop\n      jump\t// out\n        /* \"#utility.yul\":10578:10800   */\n    tag_47:\n        /* \"#utility.yul\":10671:10675   */\n      0x00\n        /* \"#utility.yul\":10709:10711   */\n      0x20\n        /* \"#utility.yul\":10698:10707   */\n      dup3\n        /* \"#utility.yul\":10694:10712   */\n      add\n        /* \"#utility.yul\":10686:10712   */\n      swap1\n      pop\n        /* \"#utility.yul\":10722:10793   */\n      tag_432\n        /* \"#utility.yul\":10790:10791   */\n      0x00\n        /* \"#utility.yul\":10779:10788   */\n      dup4\n        /* \"#utility.yul\":10775:10792   */\n      add\n        /* \"#utility.yul\":10766:10772   */\n      dup5\n        /* \"#utility.yul\":10722:10793   */\n      tag_259\n      jump\t// in\n    tag_432:\n        /* \"#utility.yul\":10578:10800   */\n      swap3\n      swap2\n      pop\n      pop\n      jump\t// out\n        /* \"#utility.yul\":10806:10905   */\n    tag_260:\n        /* \"#utility.yul\":10858:10864   */\n      0x00\n        /* \"#utility.yul\":10892:10897   */\n      dup2\n        /* \"#utility.yul\":10886:10898   */\n      mload\n        /* \"#utility.yul\":10876:10898   */\n      swap1\n      pop\n        /* \"#utility.yul\":10806:10905   */\n      swap2\n      swap1\n      pop\n      jump\t// out\n        /* \"#utility.yul\":10911:11070   */\n    tag_261:\n        /* \"#utility.yul\":10985:10996   */\n      0x00\n        /* \"#utility.yul\":11019:11025   */\n      dup3\n        /* \"#utility.yul\":11014:11017   */\n      dup3\n        /* \"#utility.yul\":11007:11026   */\n      mstore\n        /* \"#utility.yul\":11059:11063   */\n      0x20\n        /* \"#utility.yul\":11054:11057   */\n      dup3\n        /* \"#utility.yul\":11050:11064   */\n      add\n        /* \"#utility.yul\":11035:11064   */\n      swap1\n      pop\n        /* \"#utility.yul\":10911:11070   */\n      swap3\n      swap2\n      pop\n      pop\n      jump\t// out\n        /* \"#utility.yul\":11076:11322   */\n    tag_262:\n        /* \"#utility.yul\":11157:11158   */\n      0x00\n        /* \"#utility.yul\":11167:11280   */\n    tag_436:\n        /* \"#utility.yul\":11181:11187   */\n      dup4\n        /* \"#utility.yul\":11178:11179   */\n      dup2\n        /* \"#utility.yul\":11175:11188   */\n      lt\n        /* \"#utility.yul\":11167:11280   */\n      iszero\n      tag_438\n      jumpi\n        /* \"#utility.yul\":11266:11267   */\n      dup1\n        /* \"#utility.yul\":11261:11264   */\n      dup3\n        /* \"#utility.yul\":11257:11268   */\n      add\n        /* \"#utility.yul\":11251:11269   */\n      mload\n        /* \"#utility.yul\":11247:11248   */\n      dup2\n        /* \"#utility.yul\":11242:11245   */\n      dup5\n        /* \"#utility.yul\":11238:11249   */\n      add\n        /* \"#utility.yul\":11231:11270   */\n      mstore\n        /* \"#utility.yul\":11203:11205   */\n      0x20\n        /* \"#utility.yul\":11200:11201   */\n      dup2\n        /* \"#utility.yul\":11196:11206   */\n      add\n        /* \"#utility.yul\":11191:11206   */\n      swap1\n      pop\n        /* \"#utility.yul\":11167:11280   */\n      jump(tag_436)\n    tag_438:\n        /* \"#utility.yul\":11314:11315   */\n      0x00\n        /* \"#utility.yul\":11305:11311   */\n      dup5\n        /* \"#utility.yul\":11300:11303   */\n      dup5\n        /* \"#utility.yul\":11296:11312   */\n      add\n        /* \"#utility.yul\":11289:11316   */\n      mstore\n        /* \"#utility.yul\":11138:11322   */\n      pop\n        /* \"#utility.yul\":11076:11322   */\n      pop\n      pop\n      pop\n      jump\t// out\n        /* \"#utility.yul\":11328:11685   */\n    tag_263:\n        /* \"#utility.yul\":11406:11409   */\n      0x00\n        /* \"#utility.yul\":11434:11473   */\n      tag_440\n        /* \"#utility.yul\":11467:11472   */\n      dup3\n        /* \"#utility.yul\":11434:11473   */\n      tag_260\n      jump\t// in\n    tag_440:\n        /* \"#utility.yul\":11489:11550   */\n      tag_441\n        /* \"#utility.yul\":11543:11549   */\n      dup2\n        /* \"#utility.yul\":11538:11541   */\n      dup6\n        /* \"#utility.yul\":11489:11550   */\n      tag_261\n      jump\t// in\n    tag_441:\n        /* \"#utility.yul\":11482:11550   */\n      swap4\n      pop\n        /* \"#utility.yul\":11559:11624   */\n      tag_442\n        /* \"#utility.yul\":11617:11623   */\n      dup2\n        /* \"#utility.yul\":11612:11615   */\n      dup6\n        /* \"#utility.yul\":11605:11609   */\n      0x20\n        /* \"#utility.yul\":11598:11603   */\n      dup7\n        /* \"#utility.yul\":11594:11610   */\n      add\n        /* \"#utility.yul\":11559:11624   */\n      tag_262\n      jump\t// in\n    tag_442:\n        /* \"#utility.yul\":11649:11678   */\n      tag_443\n        /* \"#utility.yul\":11671:11677   */\n      dup2\n        /* \"#utility.yul\":11649:11678   */\n      tag_236\n      jump\t// in\n    tag_443:\n        /* \"#utility.yul\":11644:11647   */\n      dup5\n        /* \"#utility.yul\":11640:11679   */\n      add\n        /* \"#utility.yul\":11633:11679   */\n      swap2\n      pop\n        /* \"#utility.yul\":11410:11685   */\n      pop\n        /* \"#utility.yul\":11328:11685   */\n      swap3\n      swap2\n      pop\n      pop\n      jump\t// out\n        /* \"#utility.yul\":11773:12379   */\n    tag_264:\n        /* \"#utility.yul\":11884:11887   */\n      0x00\n        /* \"#utility.yul\":11920:11924   */\n      0x40\n        /* \"#utility.yul\":11915:11918   */\n      dup4\n        /* \"#utility.yul\":11911:11925   */\n      add\n        /* \"#utility.yul\":12010:12014   */\n      0x00\n        /* \"#utility.yul\":12003:12008   */\n      dup4\n        /* \"#utility.yul\":11999:12015   */\n      add\n        /* \"#utility.yul\":11993:12016   */\n      mload\n        /* \"#utility.yul\":12029:12092   */\n      tag_445\n        /* \"#utility.yul\":12086:12090   */\n      0x00\n        /* \"#utility.yul\":12081:12084   */\n      dup7\n        /* \"#utility.yul\":12077:12091   */\n      add\n        /* \"#utility.yul\":12063:12075   */\n      dup3\n        /* \"#utility.yul\":12029:12092   */\n      tag_250\n      jump\t// in\n    tag_445:\n        /* \"#utility.yul\":11935:12102   */\n      pop\n        /* \"#utility.yul\":12189:12193   */\n      0x20\n        /* \"#utility.yul\":12182:12187   */\n      dup4\n        /* \"#utility.yul\":12178:12194   */\n      add\n        /* \"#utility.yul\":12172:12195   */\n      mload\n        /* \"#utility.yul\":12242:12245   */\n      dup5\n        /* \"#utility.yul\":12236:12240   */\n      dup3\n        /* \"#utility.yul\":12232:12246   */\n      sub\n        /* \"#utility.yul\":12225:12229   */\n      0x20\n        /* \"#utility.yul\":12220:12223   */\n      dup7\n        /* \"#utility.yul\":12216:12230   */\n      add\n        /* \"#utility.yul\":12209:12247   */\n      mstore\n        /* \"#utility.yul\":12268:12341   */\n      tag_446\n        /* \"#utility.yul\":12336:12340   */\n      dup3\n        /* \"#utility.yul\":12322:12334   */\n      dup3\n        /* \"#utility.yul\":12268:12341   */\n      tag_263\n      jump\t// in\n    tag_446:\n        /* \"#utility.yul\":12260:12341   */\n      swap2\n      pop\n        /* \"#utility.yul\":12112:12352   */\n      pop\n        /* \"#utility.yul\":12369:12373   */\n      dup1\n        /* \"#utility.yul\":12362:12373   */\n      swap2\n      pop\n        /* \"#utility.yul\":11889:12379   */\n      pop\n        /* \"#utility.yul\":11773:12379   */\n      swap3\n      swap2\n      pop\n      pop\n      jump\t// out\n        /* \"#utility.yul\":12385:12742   */\n    tag_52:\n        /* \"#utility.yul\":12520:12524   */\n      0x00\n        /* \"#utility.yul\":12558:12560   */\n      0x20\n        /* \"#utility.yul\":12547:12556   */\n      dup3\n        /* \"#utility.yul\":12543:12561   */\n      add\n        /* \"#utility.yul\":12535:12561   */\n      swap1\n      pop\n        /* \"#utility.yul\":12607:12616   */\n      dup2\n        /* \"#utility.yul\":12601:12605   */\n      dup2\n        /* \"#utility.yul\":12597:12617   */\n      sub\n        /* \"#utility.yul\":12593:12594   */\n      0x00\n        /* \"#utility.yul\":12582:12591   */\n      dup4\n        /* \"#utility.yul\":12578:12595   */\n      add\n        /* \"#utility.yul\":12571:12618   */\n      mstore\n        /* \"#utility.yul\":12635:12735   */\n      tag_448\n        /* \"#utility.yul\":12730:12734   */\n      dup2\n        /* \"#utility.yul\":12721:12727   */\n      dup5\n        /* \"#utility.yul\":12635:12735   */\n      tag_264\n      jump\t// in\n    tag_448:\n        /* \"#utility.yul\":12627:12735   */\n      swap1\n      pop\n        /* \"#utility.yul\":12385:12742   */\n      swap3\n      swap2\n      pop\n      pop\n      jump\t// out\n        /* \"#utility.yul\":12748:13059   */\n    tag_265:\n        /* \"#utility.yul\":12825:12829   */\n      0x00\n        /* \"#utility.yul\":12915:12933   */\n      0xffffffffffffffff\n        /* \"#utility.yul\":12907:12913   */\n      dup3\n        /* \"#utility.yul\":12904:12934   */\n      gt\n        /* \"#utility.yul\":12901:12957   */\n      iszero\n      tag_450\n      jumpi\n        /* \"#utility.yul\":12937:12955   */\n      tag_451\n      tag_125\n      jump\t// in\n    tag_451:\n        /* \"#utility.yul\":12901:12957   */\n    tag_450:\n        /* \"#utility.yul\":12987:12991   */\n      0x20\n        /* \"#utility.yul\":12979:12985   */\n      dup3\n        /* \"#utility.yul\":12975:12992   */\n      mul\n        /* \"#utility.yul\":12967:12992   */\n      swap1\n      pop\n        /* \"#utility.yul\":13047:13051   */\n      0x20\n        /* \"#utility.yul\":13041:13045   */\n      dup2\n        /* \"#utility.yul\":13037:13052   */\n      add\n        /* \"#utility.yul\":13029:13052   */\n      swap1\n      pop\n        /* \"#utility.yul\":12748:13059   */\n      swap2\n      swap1\n      pop\n      jump\t// out\n        /* \"#utility.yul\":13082:13792   */\n    tag_266:\n        /* \"#utility.yul\":13178:13183   */\n      0x00\n        /* \"#utility.yul\":13203:13284   */\n      tag_453\n        /* \"#utility.yul\":13219:13283   */\n      tag_454\n        /* \"#utility.yul\":13276:13282   */\n      dup5\n        /* \"#utility.yul\":13219:13283   */\n      tag_265\n      jump\t// in\n    tag_454:\n        /* \"#utility.yul\":13203:13284   */\n      tag_238\n      jump\t// in\n    tag_453:\n        /* \"#utility.yul\":13194:13284   */\n      swap1\n      pop\n        /* \"#utility.yul\":13304:13309   */\n      dup1\n        /* \"#utility.yul\":13333:13339   */\n      dup4\n        /* \"#utility.yul\":13326:13331   */\n      dup3\n        /* \"#utility.yul\":13319:13340   */\n      mstore\n        /* \"#utility.yul\":13367:13371   */\n      0x20\n        /* \"#utility.yul\":13360:13365   */\n      dup3\n        /* \"#utility.yul\":13356:13372   */\n      add\n        /* \"#utility.yul\":13349:13372   */\n      swap1\n      pop\n        /* \"#utility.yul\":13420:13424   */\n      0x20\n        /* \"#utility.yul\":13412:13418   */\n      dup5\n        /* \"#utility.yul\":13408:13425   */\n      mul\n        /* \"#utility.yul\":13400:13406   */\n      dup4\n        /* \"#utility.yul\":13396:13426   */\n      add\n        /* \"#utility.yul\":13449:13452   */\n      dup6\n        /* \"#utility.yul\":13441:13447   */\n      dup2\n        /* \"#utility.yul\":13438:13453   */\n      gt\n        /* \"#utility.yul\":13435:13557   */\n      iszero\n      tag_455\n      jumpi\n        /* \"#utility.yul\":13468:13547   */\n      tag_456\n      tag_244\n      jump\t// in\n    tag_456:\n        /* \"#utility.yul\":13435:13557   */\n    tag_455:\n        /* \"#utility.yul\":13583:13589   */\n      dup4\n        /* \"#utility.yul\":13566:13786   */\n    tag_457:\n        /* \"#utility.yul\":13600:13606   */\n      dup2\n        /* \"#utility.yul\":13595:13598   */\n      dup2\n        /* \"#utility.yul\":13592:13607   */\n      lt\n        /* \"#utility.yul\":13566:13786   */\n      iszero\n      tag_459\n      jumpi\n        /* \"#utility.yul\":13675:13678   */\n      dup1\n        /* \"#utility.yul\":13704:13741   */\n      tag_460\n        /* \"#utility.yul\":13737:13740   */\n      dup9\n        /* \"#utility.yul\":13725:13735   */\n      dup3\n        /* \"#utility.yul\":13704:13741   */\n      tag_233\n      jump\t// in\n    tag_460:\n        /* \"#utility.yul\":13699:13702   */\n      dup5\n        /* \"#utility.yul\":13692:13742   */\n      mstore\n        /* \"#utility.yul\":13771:13775   */\n      0x20\n        /* \"#utility.yul\":13766:13769   */\n      dup5\n        /* \"#utility.yul\":13762:13776   */\n      add\n        /* \"#utility.yul\":13755:13776   */\n      swap4\n      pop\n        /* \"#utility.yul\":13642:13786   */\n      pop\n        /* \"#utility.yul\":13626:13630   */\n      0x20\n        /* \"#utility.yul\":13621:13624   */\n      dup2\n        /* \"#utility.yul\":13617:13631   */\n      add\n        /* \"#utility.yul\":13610:13631   */\n      swap1\n      pop\n        /* \"#utility.yul\":13566:13786   */\n      jump(tag_457)\n    tag_459:\n        /* \"#utility.yul\":13570:13591   */\n      pop\n        /* \"#utility.yul\":13184:13792   */\n      pop\n      pop\n        /* \"#utility.yul\":13082:13792   */\n      swap4\n      swap3\n      pop\n      pop\n      pop\n      jump\t// out\n        /* \"#utility.yul\":13815:14185   */\n    tag_267:\n        /* \"#utility.yul\":13886:13891   */\n      0x00\n        /* \"#utility.yul\":13935:13938   */\n      dup3\n        /* \"#utility.yul\":13928:13932   */\n      0x1f\n        /* \"#utility.yul\":13920:13926   */\n      dup4\n        /* \"#utility.yul\":13916:13933   */\n      add\n        /* \"#utility.yul\":13912:13939   */\n      slt\n        /* \"#utility.yul\":13902:14024   */\n      tag_462\n      jumpi\n        /* \"#utility.yul\":13943:14022   */\n      tag_463\n      tag_234\n      jump\t// in\n    tag_463:\n        /* \"#utility.yul\":13902:14024   */\n    tag_462:\n        /* \"#utility.yul\":14060:14066   */\n      dup2\n        /* \"#utility.yul\":14047:14067   */\n      calldataload\n        /* \"#utility.yul\":14085:14179   */\n      tag_464\n        /* \"#utility.yul\":14175:14178   */\n      dup5\n        /* \"#utility.yul\":14167:14173   */\n      dup3\n        /* \"#utility.yul\":14160:14164   */\n      0x20\n        /* \"#utility.yul\":14152:14158   */\n      dup7\n        /* \"#utility.yul\":14148:14165   */\n      add\n        /* \"#utility.yul\":14085:14179   */\n      tag_266\n      jump\t// in\n    tag_464:\n        /* \"#utility.yul\":14076:14179   */\n      swap2\n      pop\n        /* \"#utility.yul\":13892:14185   */\n      pop\n        /* \"#utility.yul\":13815:14185   */\n      swap3\n      swap2\n      pop\n      pop\n      jump\t// out\n        /* \"#utility.yul\":14191:15902   */\n    tag_55:\n        /* \"#utility.yul\":14366:14372   */\n      0x00\n        /* \"#utility.yul\":14374:14380   */\n      dup1\n        /* \"#utility.yul\":14382:14388   */\n      0x00\n        /* \"#utility.yul\":14390:14396   */\n      dup1\n        /* \"#utility.yul\":14398:14404   */\n      0x00\n        /* \"#utility.yul\":14447:14450   */\n      0xa0\n        /* \"#utility.yul\":14435:14444   */\n      dup7\n        /* \"#utility.yul\":14426:14433   */\n      dup9\n        /* \"#utility.yul\":14422:14445   */\n      sub\n        /* \"#utility.yul\":14418:14451   */\n      slt\n        /* \"#utility.yul\":14415:14535   */\n      iszero\n      tag_466\n      jumpi\n        /* \"#utility.yul\":14454:14533   */\n      tag_467\n      tag_229\n      jump\t// in\n    tag_467:\n        /* \"#utility.yul\":14415:14535   */\n    tag_466:\n        /* \"#utility.yul\":14602:14603   */\n      0x00\n        /* \"#utility.yul\":14591:14600   */\n      dup7\n        /* \"#utility.yul\":14587:14604   */\n      add\n        /* \"#utility.yul\":14574:14605   */\n      calldataload\n        /* \"#utility.yul\":14632:14650   */\n      0xffffffffffffffff\n        /* \"#utility.yul\":14624:14630   */\n      dup2\n        /* \"#utility.yul\":14621:14651   */\n      gt\n        /* \"#utility.yul\":14618:14735   */\n      iszero\n      tag_468\n      jumpi\n        /* \"#utility.yul\":14654:14733   */\n      tag_469\n      tag_230\n      jump\t// in\n    tag_469:\n        /* \"#utility.yul\":14618:14735   */\n    tag_468:\n        /* \"#utility.yul\":14759:14822   */\n      tag_470\n        /* \"#utility.yul\":14814:14821   */\n      dup9\n        /* \"#utility.yul\":14805:14811   */\n      dup3\n        /* \"#utility.yul\":14794:14803   */\n      dup10\n        /* \"#utility.yul\":14790:14812   */\n      add\n        /* \"#utility.yul\":14759:14822   */\n      tag_242\n      jump\t// in\n    tag_470:\n        /* \"#utility.yul\":14749:14822   */\n      swap6\n      pop\n        /* \"#utility.yul\":14545:14832   */\n      pop\n        /* \"#utility.yul\":14899:14901   */\n      0x20\n        /* \"#utility.yul\":14888:14897   */\n      dup7\n        /* \"#utility.yul\":14884:14902   */\n      add\n        /* \"#utility.yul\":14871:14903   */\n      calldataload\n        /* \"#utility.yul\":14930:14948   */\n      0xffffffffffffffff\n        /* \"#utility.yul\":14922:14928   */\n      dup2\n        /* \"#utility.yul\":14919:14949   */\n      gt\n        /* \"#utility.yul\":14916:15033   */\n      iszero\n      tag_471\n      jumpi\n        /* \"#utility.yul\":14952:15031   */\n      tag_472\n      tag_230\n      jump\t// in\n    tag_472:\n        /* \"#utility.yul\":14916:15033   */\n    tag_471:\n        /* \"#utility.yul\":15057:15120   */\n      tag_473\n        /* \"#utility.yul\":15112:15119   */\n      dup9\n        /* \"#utility.yul\":15103:15109   */\n      dup3\n        /* \"#utility.yul\":15092:15101   */\n      dup10\n        /* \"#utility.yul\":15088:15110   */\n      add\n        /* \"#utility.yul\":15057:15120   */\n      tag_242\n      jump\t// in\n    tag_473:\n        /* \"#utility.yul\":15047:15120   */\n      swap5\n      pop\n        /* \"#utility.yul\":14842:15130   */\n      pop\n        /* \"#utility.yul\":15169:15171   */\n      0x40\n        /* \"#utility.yul\":15195:15248   */\n      tag_474\n        /* \"#utility.yul\":15240:15247   */\n      dup9\n        /* \"#utility.yul\":15231:15237   */\n      dup3\n        /* \"#utility.yul\":15220:15229   */\n      dup10\n        /* \"#utility.yul\":15216:15238   */\n      add\n        /* \"#utility.yul\":15195:15248   */\n      tag_233\n      jump\t// in\n    tag_474:\n        /* \"#utility.yul\":15185:15248   */\n      swap4\n      pop\n        /* \"#utility.yul\":15140:15258   */\n      pop\n        /* \"#utility.yul\":15325:15327   */\n      0x60\n        /* \"#utility.yul\":15314:15323   */\n      dup7\n        /* \"#utility.yul\":15310:15328   */\n      add\n        /* \"#utility.yul\":15297:15329   */\n      calldataload\n        /* \"#utility.yul\":15356:15374   */\n      0xffffffffffffffff\n        /* \"#utility.yul\":15348:15354   */\n      dup2\n        /* \"#utility.yul\":15345:15375   */\n      gt\n        /* \"#utility.yul\":15342:15459   */\n      iszero\n      tag_475\n      jumpi\n        /* \"#utility.yul\":15378:15457   */\n      tag_476\n      tag_230\n      jump\t// in\n    tag_476:\n        /* \"#utility.yul\":15342:15459   */\n    tag_475:\n        /* \"#utility.yul\":15483:15571   */\n      tag_477\n        /* \"#utility.yul\":15563:15570   */\n      dup9\n        /* \"#utility.yul\":15554:15560   */\n      dup3\n        /* \"#utility.yul\":15543:15552   */\n      dup10\n        /* \"#utility.yul\":15539:15561   */\n      add\n        /* \"#utility.yul\":15483:15571   */\n      tag_246\n      jump\t// in\n    tag_477:\n        /* \"#utility.yul\":15473:15571   */\n      swap3\n      pop\n        /* \"#utility.yul\":15268:15581   */\n      pop\n        /* \"#utility.yul\":15648:15651   */\n      0x80\n        /* \"#utility.yul\":15637:15646   */\n      dup7\n        /* \"#utility.yul\":15633:15652   */\n      add\n        /* \"#utility.yul\":15620:15653   */\n      calldataload\n        /* \"#utility.yul\":15680:15698   */\n      0xffffffffffffffff\n        /* \"#utility.yul\":15672:15678   */\n      dup2\n        /* \"#utility.yul\":15669:15699   */\n      gt\n        /* \"#utility.yul\":15666:15783   */\n      iszero\n      tag_478\n      jumpi\n        /* \"#utility.yul\":15702:15781   */\n      tag_479\n      tag_230\n      jump\t// in\n    tag_479:\n        /* \"#utility.yul\":15666:15783   */\n    tag_478:\n        /* \"#utility.yul\":15807:15885   */\n      tag_480\n        /* \"#utility.yul\":15877:15884   */\n      dup9\n        /* \"#utility.yul\":15868:15874   */\n      dup3\n        /* \"#utility.yul\":15857:15866   */\n      dup10\n        /* \"#utility.yul\":15853:15875   */\n      add\n        /* \"#utility.yul\":15807:15885   */\n      tag_267\n      jump\t// in\n    tag_480:\n        /* \"#utility.yul\":15797:15885   */\n      swap2\n      pop\n        /* \"#utility.yul\":15591:15895   */\n      pop\n        /* \"#utility.yul\":14191:15902   */\n      swap3\n      swap6\n      pop\n      swap3\n      swap6\n      swap1\n      swap4\n      pop\n      jump\t// out\n        /* \"#utility.yul\":15908:16032   */\n    tag_268:\n        /* \"#utility.yul\":15985:15991   */\n      0x00\n        /* \"#utility.yul\":16019:16024   */\n      dup2\n        /* \"#utility.yul\":16013:16025   */\n      mload\n        /* \"#utility.yul\":16003:16025   */\n      swap1\n      pop\n        /* \"#utility.yul\":15908:16032   */\n      swap2\n      swap1\n      pop\n      jump\t// out\n        /* \"#utility.yul\":16038:16222   */\n    tag_269:\n        /* \"#utility.yul\":16137:16148   */\n      0x00\n        /* \"#utility.yul\":16171:16177   */\n      dup3\n        /* \"#utility.yul\":16166:16169   */\n      dup3\n        /* \"#utility.yul\":16159:16178   */\n      mstore\n        /* \"#utility.yul\":16211:16215   */\n      0x20\n        /* \"#utility.yul\":16206:16209   */\n      dup3\n        /* \"#utility.yul\":16202:16216   */\n      add\n        /* \"#utility.yul\":16187:16216   */\n      swap1\n      pop\n        /* \"#utility.yul\":16038:16222   */\n      swap3\n      swap2\n      pop\n      pop\n      jump\t// out\n        /* \"#utility.yul\":16228:16370   */\n    tag_270:\n        /* \"#utility.yul\":16305:16309   */\n      0x00\n        /* \"#utility.yul\":16328:16331   */\n      dup2\n        /* \"#utility.yul\":16320:16331   */\n      swap1\n      pop\n        /* \"#utility.yul\":16358:16362   */\n      0x20\n        /* \"#utility.yul\":16353:16356   */\n      dup3\n        /* \"#utility.yul\":16349:16363   */\n      add\n        /* \"#utility.yul\":16341:16363   */\n      swap1\n      pop\n        /* \"#utility.yul\":16228:16370   */\n      swap2\n      swap1\n      pop\n      jump\t// out\n        /* \"#utility.yul\":16376:16572   */\n    tag_271:\n        /* \"#utility.yul\":16465:16475   */\n      0x00\n        /* \"#utility.yul\":16500:16566   */\n      tag_485\n        /* \"#utility.yul\":16562:16565   */\n      dup4\n        /* \"#utility.yul\":16554:16560   */\n      dup4\n        /* \"#utility.yul\":16500:16566   */\n      tag_263\n      jump\t// in\n    tag_485:\n        /* \"#utility.yul\":16486:16566   */\n      swap1\n      pop\n        /* \"#utility.yul\":16376:16572   */\n      swap3\n      swap2\n      pop\n      pop\n      jump\t// out\n        /* \"#utility.yul\":16578:16701   */\n    tag_272:\n        /* \"#utility.yul\":16658:16662   */\n      0x00\n        /* \"#utility.yul\":16690:16694   */\n      0x20\n        /* \"#utility.yul\":16685:16688   */\n      dup3\n        /* \"#utility.yul\":16681:16695   */\n      add\n        /* \"#utility.yul\":16673:16695   */\n      swap1\n      pop\n        /* \"#utility.yul\":16578:16701   */\n      swap2\n      swap1\n      pop\n      jump\t// out\n        /* \"#utility.yul\":16735:17706   */\n    tag_273:\n        /* \"#utility.yul\":16864:16867   */\n      0x00\n        /* \"#utility.yul\":16893:16957   */\n      tag_488\n        /* \"#utility.yul\":16951:16956   */\n      dup3\n        /* \"#utility.yul\":16893:16957   */\n      tag_268\n      jump\t// in\n    tag_488:\n        /* \"#utility.yul\":16973:17059   */\n      tag_489\n        /* \"#utility.yul\":17052:17058   */\n      dup2\n        /* \"#utility.yul\":17047:17050   */\n      dup6\n        /* \"#utility.yul\":16973:17059   */\n      tag_269\n      jump\t// in\n    tag_489:\n        /* \"#utility.yul\":16966:17059   */\n      swap4\n      pop\n        /* \"#utility.yul\":17085:17088   */\n      dup4\n        /* \"#utility.yul\":17130:17134   */\n      0x20\n        /* \"#utility.yul\":17122:17128   */\n      dup3\n        /* \"#utility.yul\":17118:17135   */\n      mul\n        /* \"#utility.yul\":17113:17116   */\n      dup6\n        /* \"#utility.yul\":17109:17136   */\n      add\n        /* \"#utility.yul\":17160:17226   */\n      tag_490\n        /* \"#utility.yul\":17220:17225   */\n      dup6\n        /* \"#utility.yul\":17160:17226   */\n      tag_270\n      jump\t// in\n    tag_490:\n        /* \"#utility.yul\":17249:17256   */\n      dup1\n        /* \"#utility.yul\":17280:17281   */\n      0x00\n        /* \"#utility.yul\":17265:17661   */\n    tag_491:\n        /* \"#utility.yul\":17290:17296   */\n      dup6\n        /* \"#utility.yul\":17287:17288   */\n      dup2\n        /* \"#utility.yul\":17284:17297   */\n      lt\n        /* \"#utility.yul\":17265:17661   */\n      iszero\n      tag_493\n      jumpi\n        /* \"#utility.yul\":17361:17370   */\n      dup5\n        /* \"#utility.yul\":17355:17359   */\n      dup5\n        /* \"#utility.yul\":17351:17371   */\n      sub\n        /* \"#utility.yul\":17346:17349   */\n      dup10\n        /* \"#utility.yul\":17339:17372   */\n      mstore\n        /* \"#utility.yul\":17412:17418   */\n      dup2\n        /* \"#utility.yul\":17406:17419   */\n      mload\n        /* \"#utility.yul\":17440:17524   */\n      tag_494\n        /* \"#utility.yul\":17519:17523   */\n      dup6\n        /* \"#utility.yul\":17504:17517   */\n      dup3\n        /* \"#utility.yul\":17440:17524   */\n      tag_271\n      jump\t// in\n    tag_494:\n        /* \"#utility.yul\":17432:17524   */\n      swap5\n      pop\n        /* \"#utility.yul\":17547:17617   */\n      tag_495\n        /* \"#utility.yul\":17610:17616   */\n      dup4\n        /* \"#utility.yul\":17547:17617   */\n      tag_272\n      jump\t// in\n    tag_495:\n        /* \"#utility.yul\":17537:17617   */\n      swap3\n      pop\n        /* \"#utility.yul\":17646:17650   */\n      0x20\n        /* \"#utility.yul\":17641:17644   */\n      dup11\n        /* \"#utility.yul\":17637:17651   */\n      add\n        /* \"#utility.yul\":17630:17651   */\n      swap10\n      pop\n        /* \"#utility.yul\":17325:17661   */\n      pop\n        /* \"#utility.yul\":17312:17313   */\n      0x01\n        /* \"#utility.yul\":17309:17310   */\n      dup2\n        /* \"#utility.yul\":17305:17314   */\n      add\n        /* \"#utility.yul\":17300:17314   */\n      swap1\n      pop\n        /* \"#utility.yul\":17265:17661   */\n      jump(tag_491)\n    tag_493:\n        /* \"#utility.yul\":17269:17283   */\n      pop\n        /* \"#utility.yul\":17677:17681   */\n      dup3\n        /* \"#utility.yul\":17670:17681   */\n      swap8\n      pop\n        /* \"#utility.yul\":17697:17700   */\n      dup8\n        /* \"#utility.yul\":17690:17700   */\n      swap6\n      pop\n        /* \"#utility.yul\":16869:17706   */\n      pop\n      pop\n      pop\n      pop\n      pop\n        /* \"#utility.yul\":16735:17706   */\n      swap3\n      swap2\n      pop\n      pop\n      jump\t// out\n        /* \"#utility.yul\":17712:17886   */\n    tag_274:\n        /* \"#utility.yul\":17801:17812   */\n      0x00\n        /* \"#utility.yul\":17835:17841   */\n      dup3\n        /* \"#utility.yul\":17830:17833   */\n      dup3\n        /* \"#utility.yul\":17823:17842   */\n      mstore\n        /* \"#utility.yul\":17875:17879   */\n      0x20\n        /* \"#utility.yul\":17870:17873   */\n      dup3\n        /* \"#utility.yul\":17866:17880   */\n      add\n        /* \"#utility.yul\":17851:17880   */\n      swap1\n      pop\n        /* \"#utility.yul\":17712:17886   */\n      swap3\n      swap2\n      pop\n      pop\n      jump\t// out\n        /* \"#utility.yul\":17922:18634   */\n    tag_275:\n        /* \"#utility.yul\":18031:18034   */\n      0x00\n        /* \"#utility.yul\":18060:18114   */\n      tag_498\n        /* \"#utility.yul\":18108:18113   */\n      dup3\n        /* \"#utility.yul\":18060:18114   */\n      tag_247\n      jump\t// in\n    tag_498:\n        /* \"#utility.yul\":18130:18206   */\n      tag_499\n        /* \"#utility.yul\":18199:18205   */\n      dup2\n        /* \"#utility.yul\":18194:18197   */\n      dup6\n        /* \"#utility.yul\":18130:18206   */\n      tag_274\n      jump\t// in\n    tag_499:\n        /* \"#utility.yul\":18123:18206   */\n      swap4\n      pop\n        /* \"#utility.yul\":18230:18286   */\n      tag_500\n        /* \"#utility.yul\":18280:18285   */\n      dup4\n        /* \"#utility.yul\":18230:18286   */\n      tag_249\n      jump\t// in\n    tag_500:\n        /* \"#utility.yul\":18309:18316   */\n      dup1\n        /* \"#utility.yul\":18340:18341   */\n      0x00\n        /* \"#utility.yul\":18325:18609   */\n    tag_501:\n        /* \"#utility.yul\":18350:18356   */\n      dup4\n        /* \"#utility.yul\":18347:18348   */\n      dup2\n        /* \"#utility.yul\":18344:18357   */\n      lt\n        /* \"#utility.yul\":18325:18609   */\n      iszero\n      tag_503\n      jumpi\n        /* \"#utility.yul\":18426:18432   */\n      dup2\n        /* \"#utility.yul\":18420:18433   */\n      mload\n        /* \"#utility.yul\":18453:18516   */\n      tag_504\n        /* \"#utility.yul\":18512:18515   */\n      dup9\n        /* \"#utility.yul\":18497:18510   */\n      dup3\n        /* \"#utility.yul\":18453:18516   */\n      tag_251\n      jump\t// in\n    tag_504:\n        /* \"#utility.yul\":18446:18516   */\n      swap8\n      pop\n        /* \"#utility.yul\":18539:18599   */\n      tag_505\n        /* \"#utility.yul\":18592:18598   */\n      dup4\n        /* \"#utility.yul\":18539:18599   */\n      tag_252\n      jump\t// in\n    tag_505:\n        /* \"#utility.yul\":18529:18599   */\n      swap3\n      pop\n        /* \"#utility.yul\":18385:18609   */\n      pop\n        /* \"#utility.yul\":18372:18373   */\n      0x01\n        /* \"#utility.yul\":18369:18370   */\n      dup2\n        /* \"#utility.yul\":18365:18374   */\n      add\n        /* \"#utility.yul\":18360:18374   */\n      swap1\n      pop\n        /* \"#utility.yul\":18325:18609   */\n      jump(tag_501)\n    tag_503:\n        /* \"#utility.yul\":18329:18343   */\n      pop\n        /* \"#utility.yul\":18625:18628   */\n      dup6\n        /* \"#utility.yul\":18618:18628   */\n      swap4\n      pop\n        /* \"#utility.yul\":18036:18634   */\n      pop\n      pop\n      pop\n        /* \"#utility.yul\":17922:18634   */\n      swap3\n      swap2\n      pop\n      pop\n      jump\t// out\n        /* \"#utility.yul\":18640:18754   */\n    tag_276:\n        /* \"#utility.yul\":18707:18713   */\n      0x00\n        /* \"#utility.yul\":18741:18746   */\n      dup2\n        /* \"#utility.yul\":18735:18747   */\n      mload\n        /* \"#utility.yul\":18725:18747   */\n      swap1\n      pop\n        /* \"#utility.yul\":18640:18754   */\n      swap2\n      swap1\n      pop\n      jump\t// out\n        /* \"#utility.yul\":18760:18934   */\n    tag_277:\n        /* \"#utility.yul\":18849:18860   */\n      0x00\n        /* \"#utility.yul\":18883:18889   */\n      dup3\n        /* \"#utility.yul\":18878:18881   */\n      dup3\n        /* \"#utility.yul\":18871:18890   */\n      mstore\n        /* \"#utility.yul\":18923:18927   */\n      0x20\n        /* \"#utility.yul\":18918:18921   */\n      dup3\n        /* \"#utility.yul\":18914:18928   */\n      add\n        /* \"#utility.yul\":18899:18928   */\n      swap1\n      pop\n        /* \"#utility.yul\":18760:18934   */\n      swap3\n      swap2\n      pop\n      pop\n      jump\t// out\n        /* \"#utility.yul\":18940:19072   */\n    tag_278:\n        /* \"#utility.yul\":19007:19011   */\n      0x00\n        /* \"#utility.yul\":19030:19033   */\n      dup2\n        /* \"#utility.yul\":19022:19033   */\n      swap1\n      pop\n        /* \"#utility.yul\":19060:19064   */\n      0x20\n        /* \"#utility.yul\":19055:19058   */\n      dup3\n        /* \"#utility.yul\":19051:19065   */\n      add\n        /* \"#utility.yul\":19043:19065   */\n      swap1\n      pop\n        /* \"#utility.yul\":18940:19072   */\n      swap2\n      swap1\n      pop\n      jump\t// out\n        /* \"#utility.yul\":19078:19186   */\n    tag_279:\n        /* \"#utility.yul\":19155:19179   */\n      tag_510\n        /* \"#utility.yul\":19173:19178   */\n      dup2\n        /* \"#utility.yul\":19155:19179   */\n      tag_258\n      jump\t// in\n    tag_510:\n        /* \"#utility.yul\":19150:19153   */\n      dup3\n        /* \"#utility.yul\":19143:19180   */\n      mstore\n        /* \"#utility.yul\":19078:19186   */\n      pop\n      pop\n      jump\t// out\n        /* \"#utility.yul\":19192:19371   */\n    tag_280:\n        /* \"#utility.yul\":19261:19271   */\n      0x00\n        /* \"#utility.yul\":19282:19328   */\n      tag_512\n        /* \"#utility.yul\":19324:19327   */\n      dup4\n        /* \"#utility.yul\":19316:19322   */\n      dup4\n        /* \"#utility.yul\":19282:19328   */\n      tag_279\n      jump\t// in\n    tag_512:\n        /* \"#utility.yul\":19360:19364   */\n      0x20\n        /* \"#utility.yul\":19355:19358   */\n      dup4\n        /* \"#utility.yul\":19351:19365   */\n      add\n        /* \"#utility.yul\":19337:19365   */\n      swap1\n      pop\n        /* \"#utility.yul\":19192:19371   */\n      swap3\n      swap2\n      pop\n      pop\n      jump\t// out\n        /* \"#utility.yul\":19377:19490   */\n    tag_281:\n        /* \"#utility.yul\":19447:19451   */\n      0x00\n        /* \"#utility.yul\":19479:19483   */\n      0x20\n        /* \"#utility.yul\":19474:19477   */\n      dup3\n        /* \"#utility.yul\":19470:19484   */\n      add\n        /* \"#utility.yul\":19462:19484   */\n      swap1\n      pop\n        /* \"#utility.yul\":19377:19490   */\n      swap2\n      swap1\n      pop\n      jump\t// out\n        /* \"#utility.yul\":19526:20238   */\n    tag_282:\n        /* \"#utility.yul\":19635:19638   */\n      0x00\n        /* \"#utility.yul\":19664:19718   */\n      tag_515\n        /* \"#utility.yul\":19712:19717   */\n      dup3\n        /* \"#utility.yul\":19664:19718   */\n      tag_276\n      jump\t// in\n    tag_515:\n        /* \"#utility.yul\":19734:19810   */\n      tag_516\n        /* \"#utility.yul\":19803:19809   */\n      dup2\n        /* \"#utility.yul\":19798:19801   */\n      dup6\n        /* \"#utility.yul\":19734:19810   */\n      tag_277\n      jump\t// in\n    tag_516:\n        /* \"#utility.yul\":19727:19810   */\n      swap4\n      pop\n        /* \"#utility.yul\":19834:19890   */\n      tag_517\n        /* \"#utility.yul\":19884:19889   */\n      dup4\n        /* \"#utility.yul\":19834:19890   */\n      tag_278\n      jump\t// in\n    tag_517:\n        /* \"#utility.yul\":19913:19920   */\n      dup1\n        /* \"#utility.yul\":19944:19945   */\n      0x00\n        /* \"#utility.yul\":19929:20213   */\n    tag_518:\n        /* \"#utility.yul\":19954:19960   */\n      dup4\n        /* \"#utility.yul\":19951:19952   */\n      dup2\n        /* \"#utility.yul\":19948:19961   */\n      lt\n        /* \"#utility.yul\":19929:20213   */\n      iszero\n      tag_520\n      jumpi\n        /* \"#utility.yul\":20030:20036   */\n      dup2\n        /* \"#utility.yul\":20024:20037   */\n      mload\n        /* \"#utility.yul\":20057:20120   */\n      tag_521\n        /* \"#utility.yul\":20116:20119   */\n      dup9\n        /* \"#utility.yul\":20101:20114   */\n      dup3\n        /* \"#utility.yul\":20057:20120   */\n      tag_280\n      jump\t// in\n    tag_521:\n        /* \"#utility.yul\":20050:20120   */\n      swap8\n      pop\n        /* \"#utility.yul\":20143:20203   */\n      tag_522\n        /* \"#utility.yul\":20196:20202   */\n      dup4\n        /* \"#utility.yul\":20143:20203   */\n      tag_281\n      jump\t// in\n    tag_522:\n        /* \"#utility.yul\":20133:20203   */\n      swap3\n      pop\n        /* \"#utility.yul\":19989:20213   */\n      pop\n        /* \"#utility.yul\":19976:19977   */\n      0x01\n        /* \"#utility.yul\":19973:19974   */\n      dup2\n        /* \"#utility.yul\":19969:19978   */\n      add\n        /* \"#utility.yul\":19964:19978   */\n      swap1\n      pop\n        /* \"#utility.yul\":19929:20213   */\n      jump(tag_518)\n    tag_520:\n        /* \"#utility.yul\":19933:19947   */\n      pop\n        /* \"#utility.yul\":20229:20232   */\n      dup6\n        /* \"#utility.yul\":20222:20232   */\n      swap4\n      pop\n        /* \"#utility.yul\":19640:20238   */\n      pop\n      pop\n      pop\n        /* \"#utility.yul\":19526:20238   */\n      swap3\n      swap2\n      pop\n      pop\n      jump\t// out\n        /* \"#utility.yul\":20334:22092   */\n    tag_283:\n        /* \"#utility.yul\":20453:20456   */\n      0x00\n        /* \"#utility.yul\":20489:20493   */\n      0xc0\n        /* \"#utility.yul\":20484:20487   */\n      dup4\n        /* \"#utility.yul\":20480:20494   */\n      add\n        /* \"#utility.yul\":20583:20587   */\n      0x00\n        /* \"#utility.yul\":20576:20581   */\n      dup4\n        /* \"#utility.yul\":20572:20588   */\n      add\n        /* \"#utility.yul\":20566:20589   */\n      mload\n        /* \"#utility.yul\":20636:20639   */\n      dup5\n        /* \"#utility.yul\":20630:20634   */\n      dup3\n        /* \"#utility.yul\":20626:20640   */\n      sub\n        /* \"#utility.yul\":20619:20623   */\n      0x00\n        /* \"#utility.yul\":20614:20617   */\n      dup7\n        /* \"#utility.yul\":20610:20624   */\n      add\n        /* \"#utility.yul\":20603:20641   */\n      mstore\n        /* \"#utility.yul\":20662:20735   */\n      tag_524\n        /* \"#utility.yul\":20730:20734   */\n      dup3\n        /* \"#utility.yul\":20716:20728   */\n      dup3\n        /* \"#utility.yul\":20662:20735   */\n      tag_263\n      jump\t// in\n    tag_524:\n        /* \"#utility.yul\":20654:20735   */\n      swap2\n      pop\n        /* \"#utility.yul\":20504:20746   */\n      pop\n        /* \"#utility.yul\":20838:20842   */\n      0x20\n        /* \"#utility.yul\":20831:20836   */\n      dup4\n        /* \"#utility.yul\":20827:20843   */\n      add\n        /* \"#utility.yul\":20821:20844   */\n      mload\n        /* \"#utility.yul\":20891:20894   */\n      dup5\n        /* \"#utility.yul\":20885:20889   */\n      dup3\n        /* \"#utility.yul\":20881:20895   */\n      sub\n        /* \"#utility.yul\":20874:20878   */\n      0x20\n        /* \"#utility.yul\":20869:20872   */\n      dup7\n        /* \"#utility.yul\":20865:20879   */\n      add\n        /* \"#utility.yul\":20858:20896   */\n      mstore\n        /* \"#utility.yul\":20917:20990   */\n      tag_525\n        /* \"#utility.yul\":20985:20989   */\n      dup3\n        /* \"#utility.yul\":20971:20983   */\n      dup3\n        /* \"#utility.yul\":20917:20990   */\n      tag_263\n      jump\t// in\n    tag_525:\n        /* \"#utility.yul\":20909:20990   */\n      swap2\n      pop\n        /* \"#utility.yul\":20756:21001   */\n      pop\n        /* \"#utility.yul\":21093:21097   */\n      0x40\n        /* \"#utility.yul\":21086:21091   */\n      dup4\n        /* \"#utility.yul\":21082:21098   */\n      add\n        /* \"#utility.yul\":21076:21099   */\n      mload\n        /* \"#utility.yul\":21112:21175   */\n      tag_526\n        /* \"#utility.yul\":21169:21173   */\n      0x40\n        /* \"#utility.yul\":21164:21167   */\n      dup7\n        /* \"#utility.yul\":21160:21174   */\n      add\n        /* \"#utility.yul\":21146:21158   */\n      dup3\n        /* \"#utility.yul\":21112:21175   */\n      tag_250\n      jump\t// in\n    tag_526:\n        /* \"#utility.yul\":21011:21185   */\n      pop\n        /* \"#utility.yul\":21273:21277   */\n      0x60\n        /* \"#utility.yul\":21266:21271   */\n      dup4\n        /* \"#utility.yul\":21262:21278   */\n      add\n        /* \"#utility.yul\":21256:21279   */\n      mload\n        /* \"#utility.yul\":21326:21329   */\n      dup5\n        /* \"#utility.yul\":21320:21324   */\n      dup3\n        /* \"#utility.yul\":21316:21330   */\n      sub\n        /* \"#utility.yul\":21309:21313   */\n      0x60\n        /* \"#utility.yul\":21304:21307   */\n      dup7\n        /* \"#utility.yul\":21300:21314   */\n      add\n        /* \"#utility.yul\":21293:21331   */\n      mstore\n        /* \"#utility.yul\":21352:21475   */\n      tag_527\n        /* \"#utility.yul\":21470:21474   */\n      dup3\n        /* \"#utility.yul\":21456:21468   */\n      dup3\n        /* \"#utility.yul\":21352:21475   */\n      tag_273\n      jump\t// in\n    tag_527:\n        /* \"#utility.yul\":21344:21475   */\n      swap2\n      pop\n        /* \"#utility.yul\":21195:21486   */\n      pop\n        /* \"#utility.yul\":21579:21583   */\n      0x80\n        /* \"#utility.yul\":21572:21577   */\n      dup4\n        /* \"#utility.yul\":21568:21584   */\n      add\n        /* \"#utility.yul\":21562:21585   */\n      mload\n        /* \"#utility.yul\":21632:21635   */\n      dup5\n        /* \"#utility.yul\":21626:21630   */\n      dup3\n        /* \"#utility.yul\":21622:21636   */\n      sub\n        /* \"#utility.yul\":21615:21619   */\n      0x80\n        /* \"#utility.yul\":21610:21613   */\n      dup7\n        /* \"#utility.yul\":21606:21620   */\n      add\n        /* \"#utility.yul\":21599:21637   */\n      mstore\n        /* \"#utility.yul\":21658:21761   */\n      tag_528\n        /* \"#utility.yul\":21756:21760   */\n      dup3\n        /* \"#utility.yul\":21742:21754   */\n      dup3\n        /* \"#utility.yul\":21658:21761   */\n      tag_275\n      jump\t// in\n    tag_528:\n        /* \"#utility.yul\":21650:21761   */\n      swap2\n      pop\n        /* \"#utility.yul\":21496:21772   */\n      pop\n        /* \"#utility.yul\":21872:21876   */\n      0xa0\n        /* \"#utility.yul\":21865:21870   */\n      dup4\n        /* \"#utility.yul\":21861:21877   */\n      add\n        /* \"#utility.yul\":21855:21878   */\n      mload\n        /* \"#utility.yul\":21925:21928   */\n      dup5\n        /* \"#utility.yul\":21919:21923   */\n      dup3\n        /* \"#utility.yul\":21915:21929   */\n      sub\n        /* \"#utility.yul\":21908:21912   */\n      0xa0\n        /* \"#utility.yul\":21903:21906   */\n      dup7\n        /* \"#utility.yul\":21899:21913   */\n      add\n        /* \"#utility.yul\":21892:21930   */\n      mstore\n        /* \"#utility.yul\":21951:22054   */\n      tag_529\n        /* \"#utility.yul\":22049:22053   */\n      dup3\n        /* \"#utility.yul\":22035:22047   */\n      dup3\n        /* \"#utility.yul\":21951:22054   */\n      tag_282\n      jump\t// in\n    tag_529:\n        /* \"#utility.yul\":21943:22054   */\n      swap2\n      pop\n        /* \"#utility.yul\":21782:22065   */\n      pop\n        /* \"#utility.yul\":22082:22086   */\n      dup1\n        /* \"#utility.yul\":22075:22086   */\n      swap2\n      pop\n        /* \"#utility.yul\":20458:22092   */\n      pop\n        /* \"#utility.yul\":20334:22092   */\n      swap3\n      swap2\n      pop\n      pop\n      jump\t// out\n        /* \"#utility.yul\":22098:22471   */\n    tag_61:\n        /* \"#utility.yul\":22241:22245   */\n      0x00\n        /* \"#utility.yul\":22279:22281   */\n      0x20\n        /* \"#utility.yul\":22268:22277   */\n      dup3\n        /* \"#utility.yul\":22264:22282   */\n      add\n        /* \"#utility.yul\":22256:22282   */\n      swap1\n      pop\n        /* \"#utility.yul\":22328:22337   */\n      dup2\n        /* \"#utility.yul\":22322:22326   */\n      dup2\n        /* \"#utility.yul\":22318:22338   */\n      sub\n        /* \"#utility.yul\":22314:22315   */\n      0x00\n        /* \"#utility.yul\":22303:22312   */\n      dup4\n        /* \"#utility.yul\":22299:22316   */\n      add\n        /* \"#utility.yul\":22292:22339   */\n      mstore\n        /* \"#utility.yul\":22356:22464   */\n      tag_531\n        /* \"#utility.yul\":22459:22463   */\n      dup2\n        /* \"#utility.yul\":22450:22456   */\n      dup5\n        /* \"#utility.yul\":22356:22464   */\n      tag_283\n      jump\t// in\n    tag_531:\n        /* \"#utility.yul\":22348:22464   */\n      swap1\n      pop\n        /* \"#utility.yul\":22098:22471   */\n      swap3\n      swap2\n      pop\n      pop\n      jump\t// out\n        /* \"#utility.yul\":22573:24003   */\n    tag_284:\n        /* \"#utility.yul\":22698:22701   */\n      0x00\n        /* \"#utility.yul\":22734:22738   */\n      0xa0\n        /* \"#utility.yul\":22729:22732   */\n      dup4\n        /* \"#utility.yul\":22725:22739   */\n      add\n        /* \"#utility.yul\":22823:22827   */\n      0x00\n        /* \"#utility.yul\":22816:22821   */\n      dup4\n        /* \"#utility.yul\":22812:22828   */\n      add\n        /* \"#utility.yul\":22806:22829   */\n      mload\n        /* \"#utility.yul\":22842:22905   */\n      tag_533\n        /* \"#utility.yul\":22899:22903   */\n      0x00\n        /* \"#utility.yul\":22894:22897   */\n      dup7\n        /* \"#utility.yul\":22890:22904   */\n      add\n        /* \"#utility.yul\":22876:22888   */\n      dup3\n        /* \"#utility.yul\":22842:22905   */\n      tag_250\n      jump\t// in\n    tag_533:\n        /* \"#utility.yul\":22749:22915   */\n      pop\n        /* \"#utility.yul\":23001:23005   */\n      0x20\n        /* \"#utility.yul\":22994:22999   */\n      dup4\n        /* \"#utility.yul\":22990:23006   */\n      add\n        /* \"#utility.yul\":22984:23007   */\n      mload\n        /* \"#utility.yul\":23054:23057   */\n      dup5\n        /* \"#utility.yul\":23048:23052   */\n      dup3\n        /* \"#utility.yul\":23044:23058   */\n      sub\n        /* \"#utility.yul\":23037:23041   */\n      0x20\n        /* \"#utility.yul\":23032:23035   */\n      dup7\n        /* \"#utility.yul\":23028:23042   */\n      add\n        /* \"#utility.yul\":23021:23059   */\n      mstore\n        /* \"#utility.yul\":23080:23153   */\n      tag_534\n        /* \"#utility.yul\":23148:23152   */\n      dup3\n        /* \"#utility.yul\":23134:23146   */\n      dup3\n        /* \"#utility.yul\":23080:23153   */\n      tag_263\n      jump\t// in\n    tag_534:\n        /* \"#utility.yul\":23072:23153   */\n      swap2\n      pop\n        /* \"#utility.yul\":22925:23164   */\n      pop\n        /* \"#utility.yul\":23253:23257   */\n      0x40\n        /* \"#utility.yul\":23246:23251   */\n      dup4\n        /* \"#utility.yul\":23242:23258   */\n      add\n        /* \"#utility.yul\":23236:23259   */\n      mload\n        /* \"#utility.yul\":23306:23309   */\n      dup5\n        /* \"#utility.yul\":23300:23304   */\n      dup3\n        /* \"#utility.yul\":23296:23310   */\n      sub\n        /* \"#utility.yul\":23289:23293   */\n      0x40\n        /* \"#utility.yul\":23284:23287   */\n      dup7\n        /* \"#utility.yul\":23280:23294   */\n      add\n        /* \"#utility.yul\":23273:23311   */\n      mstore\n        /* \"#utility.yul\":23332:23405   */\n      tag_535\n        /* \"#utility.yul\":23400:23404   */\n      dup3\n        /* \"#utility.yul\":23386:23398   */\n      dup3\n        /* \"#utility.yul\":23332:23405   */\n      tag_263\n      jump\t// in\n    tag_535:\n        /* \"#utility.yul\":23324:23405   */\n      swap2\n      pop\n        /* \"#utility.yul\":23174:23416   */\n      pop\n        /* \"#utility.yul\":23507:23511   */\n      0x60\n        /* \"#utility.yul\":23500:23505   */\n      dup4\n        /* \"#utility.yul\":23496:23512   */\n      add\n        /* \"#utility.yul\":23490:23513   */\n      mload\n        /* \"#utility.yul\":23560:23563   */\n      dup5\n        /* \"#utility.yul\":23554:23558   */\n      dup3\n        /* \"#utility.yul\":23550:23564   */\n      sub\n        /* \"#utility.yul\":23543:23547   */\n      0x60\n        /* \"#utility.yul\":23538:23541   */\n      dup7\n        /* \"#utility.yul\":23534:23548   */\n      add\n        /* \"#utility.yul\":23527:23565   */\n      mstore\n        /* \"#utility.yul\":23586:23659   */\n      tag_536\n        /* \"#utility.yul\":23654:23658   */\n      dup3\n        /* \"#utility.yul\":23640:23652   */\n      dup3\n        /* \"#utility.yul\":23586:23659   */\n      tag_263\n      jump\t// in\n    tag_536:\n        /* \"#utility.yul\":23578:23659   */\n      swap2\n      pop\n        /* \"#utility.yul\":23426:23670   */\n      pop\n        /* \"#utility.yul\":23763:23767   */\n      0x80\n        /* \"#utility.yul\":23756:23761   */\n      dup4\n        /* \"#utility.yul\":23752:23768   */\n      add\n        /* \"#utility.yul\":23746:23769   */\n      mload\n        /* \"#utility.yul\":23816:23819   */\n      dup5\n        /* \"#utility.yul\":23810:23814   */\n      dup3\n        /* \"#utility.yul\":23806:23820   */\n      sub\n        /* \"#utility.yul\":23799:23803   */\n      0x80\n        /* \"#utility.yul\":23794:23797   */\n      dup7\n        /* \"#utility.yul\":23790:23804   */\n      add\n        /* \"#utility.yul\":23783:23821   */\n      mstore\n        /* \"#utility.yul\":23842:23965   */\n      tag_537\n        /* \"#utility.yul\":23960:23964   */\n      dup3\n        /* \"#utility.yul\":23946:23958   */\n      dup3\n        /* \"#utility.yul\":23842:23965   */\n      tag_273\n      jump\t// in\n    tag_537:\n        /* \"#utility.yul\":23834:23965   */\n      swap2\n      pop\n        /* \"#utility.yul\":23680:23976   */\n      pop\n        /* \"#utility.yul\":23993:23997   */\n      dup1\n        /* \"#utility.yul\":23986:23997   */\n      swap2\n      pop\n        /* \"#utility.yul\":22703:24003   */\n      pop\n        /* \"#utility.yul\":22573:24003   */\n      swap3\n      swap2\n      pop\n      pop\n      jump\t// out\n        /* \"#utility.yul\":24009:24394   */\n    tag_66:\n        /* \"#utility.yul\":24158:24162   */\n      0x00\n        /* \"#utility.yul\":24196:24198   */\n      0x20\n        /* \"#utility.yul\":24185:24194   */\n      dup3\n        /* \"#utility.yul\":24181:24199   */\n      add\n        /* \"#utility.yul\":24173:24199   */\n      swap1\n      pop\n        /* \"#utility.yul\":24245:24254   */\n      dup2\n        /* \"#utility.yul\":24239:24243   */\n      dup2\n        /* \"#utility.yul\":24235:24255   */\n      sub\n        /* \"#utility.yul\":24231:24232   */\n      0x00\n        /* \"#utility.yul\":24220:24229   */\n      dup4\n        /* \"#utility.yul\":24216:24233   */\n      add\n        /* \"#utility.yul\":24209:24256   */\n      mstore\n        /* \"#utility.yul\":24273:24387   */\n      tag_539\n        /* \"#utility.yul\":24382:24386   */\n      dup2\n        /* \"#utility.yul\":24373:24379   */\n      dup5\n        /* \"#utility.yul\":24273:24387   */\n      tag_284\n      jump\t// in\n    tag_539:\n        /* \"#utility.yul\":24265:24387   */\n      swap1\n      pop\n        /* \"#utility.yul\":24009:24394   */\n      swap3\n      swap2\n      pop\n      pop\n      jump\t// out\n        /* \"#utility.yul\":24400:24569   */\n    tag_285:\n        /* \"#utility.yul\":24484:24495   */\n      0x00\n        /* \"#utility.yul\":24518:24524   */\n      dup3\n        /* \"#utility.yul\":24513:24516   */\n      dup3\n        /* \"#utility.yul\":24506:24525   */\n      mstore\n        /* \"#utility.yul\":24558:24562   */\n      0x20\n        /* \"#utility.yul\":24553:24556   */\n      dup3\n        /* \"#utility.yul\":24549:24563   */\n      add\n        /* \"#utility.yul\":24534:24563   */\n      swap1\n      pop\n        /* \"#utility.yul\":24400:24569   */\n      swap3\n      swap2\n      pop\n      pop\n      jump\t// out\n        /* \"#utility.yul\":24575:24812   */\n    tag_286:\n        /* \"#utility.yul\":24715:24749   */\n      0x4f6e6c792074686520636f6e7472616374206f776e65722063616e2070657266\n        /* \"#utility.yul\":24711:24712   */\n      0x00\n        /* \"#utility.yul\":24703:24709   */\n      dup3\n        /* \"#utility.yul\":24699:24713   */\n      add\n        /* \"#utility.yul\":24692:24750   */\n      mstore\n        /* \"#utility.yul\":24784:24804   */\n      0x6f726d2074686973206f7065726174696f6e0000000000000000000000000000\n        /* \"#utility.yul\":24779:24781   */\n      0x20\n        /* \"#utility.yul\":24771:24777   */\n      dup3\n        /* \"#utility.yul\":24767:24782   */\n      add\n        /* \"#utility.yul\":24760:24805   */\n      mstore\n        /* \"#utility.yul\":24575:24812   */\n      pop\n      jump\t// out\n        /* \"#utility.yul\":24818:25184   */\n    tag_287:\n        /* \"#utility.yul\":24960:24963   */\n      0x00\n        /* \"#utility.yul\":24981:25048   */\n      tag_543\n        /* \"#utility.yul\":25045:25047   */\n      0x32\n        /* \"#utility.yul\":25040:25043   */\n      dup4\n        /* \"#utility.yul\":24981:25048   */\n      tag_285\n      jump\t// in\n    tag_543:\n        /* \"#utility.yul\":24974:25048   */\n      swap2\n      pop\n        /* \"#utility.yul\":25057:25150   */\n      tag_544\n        /* \"#utility.yul\":25146:25149   */\n      dup3\n        /* \"#utility.yul\":25057:25150   */\n      tag_286\n      jump\t// in\n    tag_544:\n        /* \"#utility.yul\":25175:25177   */\n      0x40\n        /* \"#utility.yul\":25170:25173   */\n      dup3\n        /* \"#utility.yul\":25166:25178   */\n      add\n        /* \"#utility.yul\":25159:25178   */\n      swap1\n      pop\n        /* \"#utility.yul\":24818:25184   */\n      swap2\n      swap1\n      pop\n      jump\t// out\n        /* \"#utility.yul\":25190:25609   */\n    tag_70:\n        /* \"#utility.yul\":25356:25360   */\n      0x00\n        /* \"#utility.yul\":25394:25396   */\n      0x20\n        /* \"#utility.yul\":25383:25392   */\n      dup3\n        /* \"#utility.yul\":25379:25397   */\n      add\n        /* \"#utility.yul\":25371:25397   */\n      swap1\n      pop\n        /* \"#utility.yul\":25443:25452   */\n      dup2\n        /* \"#utility.yul\":25437:25441   */\n      dup2\n        /* \"#utility.yul\":25433:25453   */\n      sub\n        /* \"#utility.yul\":25429:25430   */\n      0x00\n        /* \"#utility.yul\":25418:25427   */\n      dup4\n        /* \"#utility.yul\":25414:25431   */\n      add\n        /* \"#utility.yul\":25407:25454   */\n      mstore\n        /* \"#utility.yul\":25471:25602   */\n      tag_546\n        /* \"#utility.yul\":25597:25601   */\n      dup2\n        /* \"#utility.yul\":25471:25602   */\n      tag_287\n      jump\t// in\n    tag_546:\n        /* \"#utility.yul\":25463:25602   */\n      swap1\n      pop\n        /* \"#utility.yul\":25190:25609   */\n      swap2\n      swap1\n      pop\n      jump\t// out\n        /* \"#utility.yul\":25615:25795   */\n    tag_288:\n        /* \"#utility.yul\":25663:25740   */\n      0x4e487b7100000000000000000000000000000000000000000000000000000000\n        /* \"#utility.yul\":25660:25661   */\n      0x00\n        /* \"#utility.yul\":25653:25741   */\n      mstore\n        /* \"#utility.yul\":25760:25764   */\n      0x22\n        /* \"#utility.yul\":25757:25758   */\n      0x04\n        /* \"#utility.yul\":25750:25765   */\n      mstore\n        /* \"#utility.yul\":25784:25788   */\n      0x24\n        /* \"#utility.yul\":25781:25782   */\n      0x00\n        /* \"#utility.yul\":25774:25789   */\n      revert\n        /* \"#utility.yul\":25801:26121   */\n    tag_114:\n        /* \"#utility.yul\":25845:25851   */\n      0x00\n        /* \"#utility.yul\":25882:25883   */\n      0x02\n        /* \"#utility.yul\":25876:25880   */\n      dup3\n        /* \"#utility.yul\":25872:25884   */\n      div\n        /* \"#utility.yul\":25862:25884   */\n      swap1\n      pop\n        /* \"#utility.yul\":25929:25930   */\n      0x01\n        /* \"#utility.yul\":25923:25927   */\n      dup3\n        /* \"#utility.yul\":25919:25931   */\n      and\n        /* \"#utility.yul\":25950:25968   */\n      dup1\n        /* \"#utility.yul\":25940:26021   */\n      tag_549\n      jumpi\n        /* \"#utility.yul\":26006:26010   */\n      0x7f\n        /* \"#utility.yul\":25998:26004   */\n      dup3\n        /* \"#utility.yul\":25994:26011   */\n      and\n        /* \"#utility.yul\":25984:26011   */\n      swap2\n      pop\n        /* \"#utility.yul\":25940:26021   */\n    tag_549:\n        /* \"#utility.yul\":26068:26070   */\n      0x20\n        /* \"#utility.yul\":26060:26066   */\n      dup3\n        /* \"#utility.yul\":26057:26071   */\n      lt\n        /* \"#utility.yul\":26037:26055   */\n      dup2\n        /* \"#utility.yul\":26034:26072   */\n      sub\n        /* \"#utility.yul\":26031:26115   */\n      tag_550\n      jumpi\n        /* \"#utility.yul\":26087:26105   */\n      tag_551\n      tag_288\n      jump\t// in\n    tag_551:\n        /* \"#utility.yul\":26031:26115   */\n    tag_550:\n        /* \"#utility.yul\":25852:26121   */\n      pop\n        /* \"#utility.yul\":25801:26121   */\n      swap2\n      swap1\n      pop\n      jump\t// out\n        /* \"#utility.yul\":26127:26268   */\n    tag_289:\n        /* \"#utility.yul\":26176:26180   */\n      0x00\n        /* \"#utility.yul\":26199:26202   */\n      dup2\n        /* \"#utility.yul\":26191:26202   */\n      swap1\n      pop\n        /* \"#utility.yul\":26222:26225   */\n      dup2\n        /* \"#utility.yul\":26219:26220   */\n      0x00\n        /* \"#utility.yul\":26212:26226   */\n      mstore\n        /* \"#utility.yul\":26256:26260   */\n      0x20\n        /* \"#utility.yul\":26253:26254   */\n      0x00\n        /* \"#utility.yul\":26243:26261   */\n      keccak256\n        /* \"#utility.yul\":26235:26261   */\n      swap1\n      pop\n        /* \"#utility.yul\":26127:26268   */\n      swap2\n      swap1\n      pop\n      jump\t// out\n        /* \"#utility.yul\":26274:26367   */\n    tag_290:\n        /* \"#utility.yul\":26311:26317   */\n      0x00\n        /* \"#utility.yul\":26358:26360   */\n      0x20\n        /* \"#utility.yul\":26353:26355   */\n      0x1f\n        /* \"#utility.yul\":26346:26351   */\n      dup4\n        /* \"#utility.yul\":26342:26356   */\n      add\n        /* \"#utility.yul\":26338:26361   */\n      div\n        /* \"#utility.yul\":26328:26361   */\n      swap1\n      pop\n        /* \"#utility.yul\":26274:26367   */\n      swap2\n      swap1\n      pop\n      jump\t// out\n        /* \"#utility.yul\":26373:26480   */\n    tag_291:\n        /* \"#utility.yul\":26417:26425   */\n      0x00\n        /* \"#utility.yul\":26467:26472   */\n      dup3\n        /* \"#utility.yul\":26461:26465   */\n      dup3\n        /* \"#utility.yul\":26457:26473   */\n      shl\n        /* \"#utility.yul\":26436:26473   */\n      swap1\n      pop\n        /* \"#utility.yul\":26373:26480   */\n      swap3\n      swap2\n      pop\n      pop\n      jump\t// out\n        /* \"#utility.yul\":26486:26879   */\n    tag_292:\n        /* \"#utility.yul\":26555:26561   */\n      0x00\n        /* \"#utility.yul\":26605:26606   */\n      0x08\n        /* \"#utility.yul\":26593:26603   */\n      dup4\n        /* \"#utility.yul\":26589:26607   */\n      mul\n        /* \"#utility.yul\":26628:26725   */\n      tag_556\n        /* \"#utility.yul\":26658:26724   */\n      0xffffffffffffffffffffffffffffffffffffffffffffffffffffffffffffffff\n        /* \"#utility.yul\":26647:26656   */\n      dup3\n        /* \"#utility.yul\":26628:26725   */\n      tag_291\n      jump\t// in\n    tag_556:\n        /* \"#utility.yul\":26746:26785   */\n      tag_557\n        /* \"#utility.yul\":26776:26784   */\n      dup7\n        /* \"#utility.yul\":26765:26774   */\n      dup4\n        /* \"#utility.yul\":26746:26785   */\n      tag_291\n      jump\t// in\n    tag_557:\n        /* \"#utility.yul\":26734:26785   */\n      swap6\n      pop\n        /* \"#utility.yul\":26818:26822   */\n      dup1\n        /* \"#utility.yul\":26814:26823   */\n      not\n        /* \"#utility.yul\":26807:26812   */\n      dup5\n        /* \"#utility.yul\":26803:26824   */\n      and\n        /* \"#utility.yul\":26794:26824   */\n      swap4\n      pop\n        /* \"#utility.yul\":26867:26871   */\n      dup1\n        /* \"#utility.yul\":26857:26865   */\n      dup7\n        /* \"#utility.yul\":26853:26872   */\n      and\n        /* \"#utility.yul\":26846:26851   */\n      dup5\n        /* \"#utility.yul\":26843:26873   */\n      or\n        /* \"#utility.yul\":26833:26873   */\n      swap3\n      pop\n        /* \"#utility.yul\":26562:26879   */\n      pop\n      pop\n        /* \"#utility.yul\":26486:26879   */\n      swap4\n      swap3\n      pop\n      pop\n      pop\n      jump\t// out\n        /* \"#utility.yul\":26885:26945   */\n    tag_293:\n        /* \"#utility.yul\":26913:26916   */\n      0x00\n        /* \"#utility.yul\":26934:26939   */\n      dup2\n        /* \"#utility.yul\":26927:26939   */\n      swap1\n      pop\n        /* \"#utility.yul\":26885:26945   */\n      swap2\n      swap1\n      pop\n      jump\t// out\n        /* \"#utility.yul\":26951:27093   */\n    tag_294:\n        /* \"#utility.yul\":27001:27010   */\n      0x00\n        /* \"#utility.yul\":27034:27087   */\n      tag_560\n        /* \"#utility.yul\":27052:27086   */\n      tag_561\n        /* \"#utility.yul\":27061:27085   */\n      tag_562\n        /* \"#utility.yul\":27079:27084   */\n      dup5\n        /* \"#utility.yul\":27061:27085   */\n      tag_231\n      jump\t// in\n    tag_562:\n        /* \"#utility.yul\":27052:27086   */\n      tag_293\n      jump\t// in\n    tag_561:\n        /* \"#utility.yul\":27034:27087   */\n      tag_231\n      jump\t// in\n    tag_560:\n        /* \"#utility.yul\":27021:27087   */\n      swap1\n      pop\n        /* \"#utility.yul\":26951:27093   */\n      swap2\n      swap1\n      pop\n      jump\t// out\n        /* \"#utility.yul\":27099:27174   */\n    tag_295:\n        /* \"#utility.yul\":27142:27145   */\n      0x00\n        /* \"#utility.yul\":27163:27168   */\n      dup2\n        /* \"#utility.yul\":27156:27168   */\n      swap1\n      pop\n        /* \"#utility.yul\":27099:27174   */\n      swap2\n      swap1\n      pop\n      jump\t// out\n        /* \"#utility.yul\":27180:27449   */\n    tag_296:\n        /* \"#utility.yul\":27290:27329   */\n      tag_565\n        /* \"#utility.yul\":27321:27328   */\n      dup4\n        /* \"#utility.yul\":27290:27329   */\n      tag_294\n      jump\t// in\n    tag_565:\n        /* \"#utility.yul\":27351:27442   */\n      tag_566\n        /* \"#utility.yul\":27400:27441   */\n      tag_567\n        /* \"#utility.yul\":27424:27440   */\n      dup3\n        /* \"#utility.yul\":27400:27441   */\n      tag_295\n      jump\t// in\n    tag_567:\n        /* \"#utility.yul\":27392:27398   */\n      dup5\n        /* \"#utility.yul\":27385:27389   */\n      dup5\n        /* \"#utility.yul\":27379:27390   */\n      sload\n        /* \"#utility.yul\":27351:27442   */\n      tag_292\n      jump\t// in\n    tag_566:\n        /* \"#utility.yul\":27345:27349   */\n      dup3\n        /* \"#utility.yul\":27338:27443   */\n      sstore\n        /* \"#utility.yul\":27256:27449   */\n      pop\n        /* \"#utility.yul\":27180:27449   */\n      pop\n      pop\n      pop\n      jump\t// out\n        /* \"#utility.yul\":27455:27528   */\n    tag_297:\n        /* \"#utility.yul\":27500:27503   */\n      0x00\n        /* \"#utility.yul\":27455:27528   */\n      swap1\n      jump\t// out\n        /* \"#utility.yul\":27534:27723   */\n    tag_298:\n        /* \"#utility.yul\":27611:27643   */\n      tag_570\n      tag_297\n      jump\t// in\n    tag_570:\n        /* \"#utility.yul\":27652:27717   */\n      tag_571\n        /* \"#utility.yul\":27710:27716   */\n      dup2\n        /* \"#utility.yul\":27702:27708   */\n      dup5\n        /* \"#utility.yul\":27696:27700   */\n      dup5\n        /* \"#utility.yul\":27652:27717   */\n      tag_296\n      jump\t// in\n    tag_571:\n        /* \"#utility.yul\":27587:27723   */\n      pop\n        /* \"#utility.yul\":27534:27723   */\n      pop\n      pop\n      jump\t// out\n        /* \"#utility.yul\":27729:27915   */\n    tag_299:\n        /* \"#utility.yul\":27789:27909   */\n    tag_573:\n        /* \"#utility.yul\":27806:27809   */\n      dup2\n        /* \"#utility.yul\":27799:27804   */\n      dup2\n        /* \"#utility.yul\":27796:27810   */\n      lt\n        /* \"#utility.yul\":27789:27909   */\n      iszero\n      tag_575\n      jumpi\n        /* \"#utility.yul\":27860:27899   */\n      tag_576\n        /* \"#utility.yul\":27897:27898   */\n      0x00\n        /* \"#utility.yul\":27890:27895   */\n      dup3\n        /* \"#utility.yul\":27860:27899   */\n      tag_298\n      jump\t// in\n    tag_576:\n        /* \"#utility.yul\":27833:27834   */\n      0x01\n        /* \"#utility.yul\":27826:27831   */\n      dup2\n        /* \"#utility.yul\":27822:27835   */\n      add\n        /* \"#utility.yul\":27813:27835   */\n      swap1\n      pop\n        /* \"#utility.yul\":27789:27909   */\n      jump(tag_573)\n    tag_575:\n        /* \"#utility.yul\":27729:27915   */\n      pop\n      pop\n      jump\t// out\n        /* \"#utility.yul\":27921:28464   */\n    tag_300:\n        /* \"#utility.yul\":28022:28024   */\n      0x1f\n        /* \"#utility.yul\":28017:28020   */\n      dup3\n        /* \"#utility.yul\":28014:28025   */\n      gt\n        /* \"#utility.yul\":28011:28457   */\n      iszero\n      tag_578\n      jumpi\n        /* \"#utility.yul\":28056:28094   */\n      tag_579\n        /* \"#utility.yul\":28088:28093   */\n      dup2\n        /* \"#utility.yul\":28056:28094   */\n      tag_289\n      jump\t// in\n    tag_579:\n        /* \"#utility.yul\":28140:28169   */\n      tag_580\n        /* \"#utility.yul\":28158:28168   */\n      dup5\n        /* \"#utility.yul\":28140:28169   */\n      tag_290\n      jump\t// in\n    tag_580:\n        /* \"#utility.yul\":28130:28138   */\n      dup2\n        /* \"#utility.yul\":28126:28170   */\n      add\n        /* \"#utility.yul\":28323:28325   */\n      0x20\n        /* \"#utility.yul\":28311:28321   */\n      dup6\n        /* \"#utility.yul\":28308:28326   */\n      lt\n        /* \"#utility.yul\":28305:28354   */\n      iszero\n      tag_581\n      jumpi\n        /* \"#utility.yul\":28344:28352   */\n      dup2\n        /* \"#utility.yul\":28329:28352   */\n      swap1\n      pop\n        /* \"#utility.yul\":28305:28354   */\n    tag_581:\n        /* \"#utility.yul\":28367:28447   */\n      tag_582\n        /* \"#utility.yul\":28423:28445   */\n      tag_583\n        /* \"#utility.yul\":28441:28444   */\n      dup6\n        /* \"#utility.yul\":28423:28445   */\n      tag_290\n      jump\t// in\n    tag_583:\n        /* \"#utility.yul\":28413:28421   */\n      dup4\n        /* \"#utility.yul\":28409:28446   */\n      add\n        /* \"#utility.yul\":28396:28407   */\n      dup3\n        /* \"#utility.yul\":28367:28447   */\n      tag_299\n      jump\t// in\n    tag_582:\n        /* \"#utility.yul\":28026:28457   */\n      pop\n      pop\n        /* \"#utility.yul\":28011:28457   */\n    tag_578:\n        /* \"#utility.yul\":27921:28464   */\n      pop\n      pop\n      pop\n      jump\t// out\n        /* \"#utility.yul\":28470:28587   */\n    tag_301:\n        /* \"#utility.yul\":28524:28532   */\n      0x00\n        /* \"#utility.yul\":28574:28579   */\n      dup3\n        /* \"#utility.yul\":28568:28572   */\n      dup3\n        /* \"#utility.yul\":28564:28580   */\n      shr\n        /* \"#utility.yul\":28543:28580   */\n      swap1\n      pop\n        /* \"#utility.yul\":28470:28587   */\n      swap3\n      swap2\n      pop\n      pop\n      jump\t// out\n        /* \"#utility.yul\":28593:28762   */\n    tag_302:\n        /* \"#utility.yul\":28637:28643   */\n      0x00\n        /* \"#utility.yul\":28670:28721   */\n      tag_586\n        /* \"#utility.yul\":28718:28719   */\n      0x00\n        /* \"#utility.yul\":28714:28720   */\n      not\n        /* \"#utility.yul\":28706:28711   */\n      dup5\n        /* \"#utility.yul\":28703:28704   */\n      0x08\n        /* \"#utility.yul\":28699:28712   */\n      mul\n        /* \"#utility.yul\":28670:28721   */\n      tag_301\n      jump\t// in\n    tag_586:\n        /* \"#utility.yul\":28666:28722   */\n      not\n        /* \"#utility.yul\":28751:28755   */\n      dup1\n        /* \"#utility.yul\":28745:28749   */\n      dup4\n        /* \"#utility.yul\":28741:28756   */\n      and\n        /* \"#utility.yul\":28731:28756   */\n      swap2\n      pop\n        /* \"#utility.yul\":28644:28762   */\n      pop\n        /* \"#utility.yul\":28593:28762   */\n      swap3\n      swap2\n      pop\n      pop\n      jump\t// out\n        /* \"#utility.yul\":28767:29062   */\n    tag_303:\n        /* \"#utility.yul\":28843:28847   */\n      0x00\n        /* \"#utility.yul\":28989:29018   */\n      tag_588\n        /* \"#utility.yul\":29014:29017   */\n      dup4\n        /* \"#utility.yul\":29008:29012   */\n      dup4\n        /* \"#utility.yul\":28989:29018   */\n      tag_302\n      jump\t// in\n    tag_588:\n        /* \"#utility.yul\":28981:29018   */\n      swap2\n      pop\n        /* \"#utility.yul\":29051:29054   */\n      dup3\n        /* \"#utility.yul\":29048:29049   */\n      0x02\n        /* \"#utility.yul\":29044:29055   */\n      mul\n        /* \"#utility.yul\":29038:29042   */\n      dup3\n        /* \"#utility.yul\":29035:29056   */\n      or\n        /* \"#utility.yul\":29027:29056   */\n      swap1\n      pop\n        /* \"#utility.yul\":28767:29062   */\n      swap3\n      swap2\n      pop\n      pop\n      jump\t// out\n        /* \"#utility.yul\":29067:30462   */\n    tag_73:\n        /* \"#utility.yul\":29184:29221   */\n      tag_590\n        /* \"#utility.yul\":29217:29220   */\n      dup3\n        /* \"#utility.yul\":29184:29221   */\n      tag_260\n      jump\t// in\n    tag_590:\n        /* \"#utility.yul\":29286:29304   */\n      0xffffffffffffffff\n        /* \"#utility.yul\":29278:29284   */\n      dup2\n        /* \"#utility.yul\":29275:29305   */\n      gt\n        /* \"#utility.yul\":29272:29328   */\n      iszero\n      tag_591\n      jumpi\n        /* \"#utility.yul\":29308:29326   */\n      tag_592\n      tag_125\n      jump\t// in\n    tag_592:\n        /* \"#utility.yul\":29272:29328   */\n    tag_591:\n        /* \"#utility.yul\":29352:29390   */\n      tag_593\n        /* \"#utility.yul\":29384:29388   */\n      dup3\n        /* \"#utility.yul\":29378:29389   */\n      sload\n        /* \"#utility.yul\":29352:29390   */\n      tag_114\n      jump\t// in\n    tag_593:\n        /* \"#utility.yul\":29437:29504   */\n      tag_594\n        /* \"#utility.yul\":29497:29503   */\n      dup3\n        /* \"#utility.yul\":29489:29495   */\n      dup3\n        /* \"#utility.yul\":29483:29487   */\n      dup6\n        /* \"#utility.yul\":29437:29504   */\n      tag_300\n      jump\t// in\n    tag_594:\n        /* \"#utility.yul\":29531:29532   */\n      0x00\n        /* \"#utility.yul\":29555:29559   */\n      0x20\n        /* \"#utility.yul\":29542:29559   */\n      swap1\n      pop\n        /* \"#utility.yul\":29587:29589   */\n      0x1f\n        /* \"#utility.yul\":29579:29585   */\n      dup4\n        /* \"#utility.yul\":29576:29590   */\n      gt\n        /* \"#utility.yul\":29604:29605   */\n      0x01\n        /* \"#utility.yul\":29599:30217   */\n      dup2\n      eq\n      tag_596\n      jumpi\n        /* \"#utility.yul\":30261:30262   */\n      0x00\n        /* \"#utility.yul\":30278:30284   */\n      dup5\n        /* \"#utility.yul\":30275:30352   */\n      iszero\n      tag_597\n      jumpi\n        /* \"#utility.yul\":30327:30336   */\n      dup3\n        /* \"#utility.yul\":30322:30325   */\n      dup8\n        /* \"#utility.yul\":30318:30337   */\n      add\n        /* \"#utility.yul\":30312:30338   */\n      mload\n        /* \"#utility.yul\":30303:30338   */\n      swap1\n      pop\n        /* \"#utility.yul\":30275:30352   */\n    tag_597:\n        /* \"#utility.yul\":30378:30445   */\n      tag_598\n        /* \"#utility.yul\":30438:30444   */\n      dup6\n        /* \"#utility.yul\":30431:30436   */\n      dup3\n        /* \"#utility.yul\":30378:30445   */\n      tag_303\n      jump\t// in\n    tag_598:\n        /* \"#utility.yul\":30372:30376   */\n      dup7\n        /* \"#utility.yul\":30365:30446   */\n      sstore\n        /* \"#utility.yul\":30234:30456   */\n      pop\n        /* \"#utility.yul\":29569:30456   */\n      jump(tag_595)\n        /* \"#utility.yul\":29599:30217   */\n    tag_596:\n        /* \"#utility.yul\":29651:29655   */\n      0x1f\n        /* \"#utility.yul\":29647:29656   */\n      not\n        /* \"#utility.yul\":29639:29645   */\n      dup5\n        /* \"#utility.yul\":29635:29657   */\n      and\n        /* \"#utility.yul\":29685:29722   */\n      tag_599\n        /* \"#utility.yul\":29717:29721   */\n      dup7\n        /* \"#utility.yul\":29685:29722   */\n      tag_289\n      jump\t// in\n    tag_599:\n        /* \"#utility.yul\":29744:29745   */\n      0x00\n        /* \"#utility.yul\":29758:29966   */\n    tag_600:\n        /* \"#utility.yul\":29772:29779   */\n      dup3\n        /* \"#utility.yul\":29769:29770   */\n      dup2\n        /* \"#utility.yul\":29766:29780   */\n      lt\n        /* \"#utility.yul\":29758:29966   */\n      iszero\n      tag_602\n      jumpi\n        /* \"#utility.yul\":29851:29860   */\n      dup5\n        /* \"#utility.yul\":29846:29849   */\n      dup10\n        /* \"#utility.yul\":29842:29861   */\n      add\n        /* \"#utility.yul\":29836:29862   */\n      mload\n        /* \"#utility.yul\":29828:29834   */\n      dup3\n        /* \"#utility.yul\":29821:29863   */\n      sstore\n        /* \"#utility.yul\":29902:29903   */\n      0x01\n        /* \"#utility.yul\":29894:29900   */\n      dup3\n        /* \"#utility.yul\":29890:29904   */\n      add\n        /* \"#utility.yul\":29880:29904   */\n      swap2\n      pop\n        /* \"#utility.yul\":29949:29951   */\n      0x20\n        /* \"#utility.yul\":29938:29947   */\n      dup6\n        /* \"#utility.yul\":29934:29952   */\n      add\n        /* \"#utility.yul\":29921:29952   */\n      swap5\n      pop\n        /* \"#utility.yul\":29795:29799   */\n      0x20\n        /* \"#utility.yul\":29792:29793   */\n      dup2\n        /* \"#utility.yul\":29788:29800   */\n      add\n        /* \"#utility.yul\":29783:29800   */\n      swap1\n      pop\n        /* \"#utility.yul\":29758:29966   */\n      jump(tag_600)\n    tag_602:\n        /* \"#utility.yul\":29994:30000   */\n      dup7\n        /* \"#utility.yul\":29985:29992   */\n      dup4\n        /* \"#utility.yul\":29982:30001   */\n      lt\n        /* \"#utility.yul\":29979:30158   */\n      iszero\n      tag_603\n      jumpi\n        /* \"#utility.yul\":30052:30061   */\n      dup5\n        /* \"#utility.yul\":30047:30050   */\n      dup10\n        /* \"#utility.yul\":30043:30062   */\n      add\n        /* \"#utility.yul\":30037:30063   */\n      mload\n        /* \"#utility.yul\":30095:30143   */\n      tag_604\n        /* \"#utility.yul\":30137:30141   */\n      0x1f\n        /* \"#utility.yul\":30129:30135   */\n      dup10\n        /* \"#utility.yul\":30125:30142   */\n      and\n        /* \"#utility.yul\":30114:30123   */\n      dup3\n        /* \"#utility.yul\":30095:30143   */\n      tag_302\n      jump\t// in\n    tag_604:\n        /* \"#utility.yul\":30087:30093   */\n      dup4\n        /* \"#utility.yul\":30080:30144   */\n      sstore\n        /* \"#utility.yul\":30002:30158   */\n      pop\n        /* \"#utility.yul\":29979:30158   */\n    tag_603:\n        /* \"#utility.yul\":30204:30205   */\n      0x01\n        /* \"#utility.yul\":30200:30201   */\n      0x02\n        /* \"#utility.yul\":30192:30198   */\n      dup9\n        /* \"#utility.yul\":30188:30202   */\n      mul\n        /* \"#utility.yul\":30184:30206   */\n      add\n        /* \"#utility.yul\":30178:30182   */\n      dup9\n        /* \"#utility.yul\":30171:30207   */\n      sstore\n        /* \"#utility.yul\":29606:30217   */\n      pop\n      pop\n      pop\n        /* \"#utility.yul\":29569:30456   */\n    tag_595:\n      pop\n        /* \"#utility.yul\":29159:30462   */\n      pop\n      pop\n      pop\n        /* \"#utility.yul\":29067:30462   */\n      pop\n      pop\n      jump\t// out\n        /* \"#utility.yul\":30468:30648   */\n    tag_304:\n        /* \"#utility.yul\":30516:30593   */\n      0x4e487b7100000000000000000000000000000000000000000000000000000000\n        /* \"#utility.yul\":30513:30514   */\n      0x00\n        /* \"#utility.yul\":30506:30594   */\n      mstore\n        /* \"#utility.yul\":30613:30617   */\n      0x11\n        /* \"#utility.yul\":30610:30611   */\n      0x04\n        /* \"#utility.yul\":30603:30618   */\n      mstore\n        /* \"#utility.yul\":30637:30641   */\n      0x24\n        /* \"#utility.yul\":30634:30635   */\n      0x00\n        /* \"#utility.yul\":30627:30642   */\n      revert\n        /* \"#utility.yul\":30654:30887   */\n    tag_79:\n        /* \"#utility.yul\":30693:30696   */\n      0x00\n        /* \"#utility.yul\":30716:30740   */\n      tag_607\n        /* \"#utility.yul\":30734:30739   */\n      dup3\n        /* \"#utility.yul\":30716:30740   */\n      tag_231\n      jump\t// in\n    tag_607:\n        /* \"#utility.yul\":30707:30740   */\n      swap2\n      pop\n        /* \"#utility.yul\":30762:30828   */\n      0xffffffffffffffffffffffffffffffffffffffffffffffffffffffffffffffff\n        /* \"#utility.yul\":30755:30760   */\n      dup3\n        /* \"#utility.yul\":30752:30829   */\n      sub\n        /* \"#utility.yul\":30749:30852   */\n      tag_608\n      jumpi\n        /* \"#utility.yul\":30832:30850   */\n      tag_609\n      tag_304\n      jump\t// in\n    tag_609:\n        /* \"#utility.yul\":30749:30852   */\n    tag_608:\n        /* \"#utility.yul\":30879:30880   */\n      0x01\n        /* \"#utility.yul\":30872:30877   */\n      dup3\n        /* \"#utility.yul\":30868:30881   */\n      add\n        /* \"#utility.yul\":30861:30881   */\n      swap1\n      pop\n        /* \"#utility.yul\":30654:30887   */\n      swap2\n      swap1\n      pop\n      jump\t// out\n        /* \"#utility.yul\":30893:31041   */\n    tag_305:\n        /* \"#utility.yul\":30995:31006   */\n      0x00\n        /* \"#utility.yul\":31032:31035   */\n      dup2\n        /* \"#utility.yul\":31017:31035   */\n      swap1\n      pop\n        /* \"#utility.yul\":30893:31041   */\n      swap3\n      swap2\n      pop\n      pop\n      jump\t// out\n        /* \"#utility.yul\":31071:31945   */\n    tag_306:\n        /* \"#utility.yul\":31174:31177   */\n      0x00\n        /* \"#utility.yul\":31211:31216   */\n      dup2\n        /* \"#utility.yul\":31205:31217   */\n      sload\n        /* \"#utility.yul\":31240:31276   */\n      tag_612\n        /* \"#utility.yul\":31266:31275   */\n      dup2\n        /* \"#utility.yul\":31240:31276   */\n      tag_114\n      jump\t// in\n    tag_612:\n        /* \"#utility.yul\":31292:31381   */\n      tag_613\n        /* \"#utility.yul\":31374:31380   */\n      dup2\n        /* \"#utility.yul\":31369:31372   */\n      dup7\n        /* \"#utility.yul\":31292:31381   */\n      tag_305\n      jump\t// in\n    tag_613:\n        /* \"#utility.yul\":31285:31381   */\n      swap5\n      pop\n        /* \"#utility.yul\":31412:31413   */\n      0x01\n        /* \"#utility.yul\":31401:31410   */\n      dup3\n        /* \"#utility.yul\":31397:31414   */\n      and\n        /* \"#utility.yul\":31428:31429   */\n      0x00\n        /* \"#utility.yul\":31423:31589   */\n      dup2\n      eq\n      tag_615\n      jumpi\n        /* \"#utility.yul\":31603:31604   */\n      0x01\n        /* \"#utility.yul\":31598:31939   */\n      dup2\n      eq\n      tag_616\n      jumpi\n        /* \"#utility.yul\":31390:31939   */\n      jump(tag_614)\n        /* \"#utility.yul\":31423:31589   */\n    tag_615:\n        /* \"#utility.yul\":31507:31511   */\n      0xff\n        /* \"#utility.yul\":31503:31512   */\n      not\n        /* \"#utility.yul\":31492:31501   */\n      dup4\n        /* \"#utility.yul\":31488:31513   */\n      and\n        /* \"#utility.yul\":31483:31486   */\n      dup7\n        /* \"#utility.yul\":31476:31514   */\n      mstore\n        /* \"#utility.yul\":31569:31575   */\n      dup2\n        /* \"#utility.yul\":31562:31576   */\n      iszero\n        /* \"#utility.yul\":31555:31577   */\n      iszero\n        /* \"#utility.yul\":31547:31553   */\n      dup3\n        /* \"#utility.yul\":31543:31578   */\n      mul\n        /* \"#utility.yul\":31538:31541   */\n      dup7\n        /* \"#utility.yul\":31534:31579   */\n      add\n        /* \"#utility.yul\":31527:31579   */\n      swap4\n      pop\n        /* \"#utility.yul\":31423:31589   */\n      jump(tag_614)\n        /* \"#utility.yul\":31598:31939   */\n    tag_616:\n        /* \"#utility.yul\":31665:31703   */\n      tag_617\n        /* \"#utility.yul\":31697:31702   */\n      dup6\n        /* \"#utility.yul\":31665:31703   */\n      tag_289\n      jump\t// in\n    tag_617:\n        /* \"#utility.yul\":31725:31726   */\n      0x00\n        /* \"#utility.yul\":31739:31893   */\n    tag_618:\n        /* \"#utility.yul\":31753:31759   */\n      dup4\n        /* \"#utility.yul\":31750:31751   */\n      dup2\n        /* \"#utility.yul\":31747:31760   */\n      lt\n        /* \"#utility.yul\":31739:31893   */\n      iszero\n      tag_620\n      jumpi\n        /* \"#utility.yul\":31827:31834   */\n      dup2\n        /* \"#utility.yul\":31821:31835   */\n      sload\n        /* \"#utility.yul\":31817:31818   */\n      dup2\n        /* \"#utility.yul\":31812:31815   */\n      dup10\n        /* \"#utility.yul\":31808:31819   */\n      add\n        /* \"#utility.yul\":31801:31836   */\n      mstore\n        /* \"#utility.yul\":31877:31878   */\n      0x01\n        /* \"#utility.yul\":31868:31875   */\n      dup3\n        /* \"#utility.yul\":31864:31879   */\n      add\n        /* \"#utility.yul\":31853:31879   */\n      swap2\n      pop\n        /* \"#utility.yul\":31775:31779   */\n      0x20\n        /* \"#utility.yul\":31772:31773   */\n      dup2\n        /* \"#utility.yul\":31768:31780   */\n      add\n        /* \"#utility.yul\":31763:31780   */\n      swap1\n      pop\n        /* \"#utility.yul\":31739:31893   */\n      jump(tag_618)\n    tag_620:\n        /* \"#utility.yul\":31922:31928   */\n      dup4\n        /* \"#utility.yul\":31917:31920   */\n      dup9\n        /* \"#utility.yul\":31913:31929   */\n      add\n        /* \"#utility.yul\":31906:31929   */\n      swap6\n      pop\n        /* \"#utility.yul\":31605:31939   */\n      pop\n      pop\n        /* \"#utility.yul\":31390:31939   */\n    tag_614:\n      pop\n        /* \"#utility.yul\":31178:31945   */\n      pop\n      pop\n        /* \"#utility.yul\":31071:31945   */\n      swap3\n      swap2\n      pop\n      pop\n      jump\t// out\n        /* \"#utility.yul\":31951:32528   */\n    tag_88:\n        /* \"#utility.yul\":32170:32173   */\n      0x00\n        /* \"#utility.yul\":32192:32284   */\n      tag_622\n        /* \"#utility.yul\":32280:32283   */\n      dup3\n        /* \"#utility.yul\":32271:32277   */\n      dup7\n        /* \"#utility.yul\":32192:32284   */\n      tag_306\n      jump\t// in\n    tag_622:\n        /* \"#utility.yul\":32185:32284   */\n      swap2\n      pop\n        /* \"#utility.yul\":32301:32393   */\n      tag_623\n        /* \"#utility.yul\":32389:32392   */\n      dup3\n        /* \"#utility.yul\":32380:32386   */\n      dup6\n        /* \"#utility.yul\":32301:32393   */\n      tag_306\n      jump\t// in\n    tag_623:\n        /* \"#utility.yul\":32294:32393   */\n      swap2\n      pop\n        /* \"#utility.yul\":32410:32502   */\n      tag_624\n        /* \"#utility.yul\":32498:32501   */\n      dup3\n        /* \"#utility.yul\":32489:32495   */\n      dup5\n        /* \"#utility.yul\":32410:32502   */\n      tag_306\n      jump\t// in\n    tag_624:\n        /* \"#utility.yul\":32403:32502   */\n      swap2\n      pop\n        /* \"#utility.yul\":32519:32522   */\n      dup2\n        /* \"#utility.yul\":32512:32522   */\n      swap1\n      pop\n        /* \"#utility.yul\":31951:32528   */\n      swap5\n      swap4\n      pop\n      pop\n      pop\n      pop\n      jump\t// out\n        /* \"#utility.yul\":32534:32714   */\n    tag_94:\n        /* \"#utility.yul\":32582:32659   */\n      0x4e487b7100000000000000000000000000000000000000000000000000000000\n        /* \"#utility.yul\":32579:32580   */\n      0x00\n        /* \"#utility.yul\":32572:32660   */\n      mstore\n        /* \"#utility.yul\":32679:32683   */\n      0x32\n        /* \"#utility.yul\":32676:32677   */\n      0x04\n        /* \"#utility.yul\":32669:32684   */\n      mstore\n        /* \"#utility.yul\":32703:32707   */\n      0x24\n        /* \"#utility.yul\":32700:32701   */\n      0x00\n        /* \"#utility.yul\":32693:32708   */\n      revert\n        /* \"#utility.yul\":32720:32818   */\n    tag_307:\n        /* \"#utility.yul\":32771:32777   */\n      0x00\n        /* \"#utility.yul\":32805:32810   */\n      dup2\n        /* \"#utility.yul\":32799:32811   */\n      mload\n        /* \"#utility.yul\":32789:32811   */\n      swap1\n      pop\n        /* \"#utility.yul\":32720:32818   */\n      swap2\n      swap1\n      pop\n      jump\t// out\n        /* \"#utility.yul\":32824:32971   */\n    tag_308:\n        /* \"#utility.yul\":32925:32936   */\n      0x00\n        /* \"#utility.yul\":32962:32965   */\n      dup2\n        /* \"#utility.yul\":32947:32965   */\n      swap1\n      pop\n        /* \"#utility.yul\":32824:32971   */\n      swap3\n      swap2\n      pop\n      pop\n      jump\t// out\n        /* \"#utility.yul\":32977:33363   */\n    tag_309:\n        /* \"#utility.yul\":33081:33084   */\n      0x00\n        /* \"#utility.yul\":33109:33147   */\n      tag_629\n        /* \"#utility.yul\":33141:33146   */\n      dup3\n        /* \"#utility.yul\":33109:33147   */\n      tag_307\n      jump\t// in\n    tag_629:\n        /* \"#utility.yul\":33163:33251   */\n      tag_630\n        /* \"#utility.yul\":33244:33250   */\n      dup2\n        /* \"#utility.yul\":33239:33242   */\n      dup6\n        /* \"#utility.yul\":33163:33251   */\n      tag_308\n      jump\t// in\n    tag_630:\n        /* \"#utility.yul\":33156:33251   */\n      swap4\n      pop\n        /* \"#utility.yul\":33260:33325   */\n      tag_631\n        /* \"#utility.yul\":33318:33324   */\n      dup2\n        /* \"#utility.yul\":33313:33316   */\n      dup6\n        /* \"#utility.yul\":33306:33310   */\n      0x20\n        /* \"#utility.yul\":33299:33304   */\n      dup7\n        /* \"#utility.yul\":33295:33311   */\n      add\n        /* \"#utility.yul\":33260:33325   */\n      tag_262\n      jump\t// in\n    tag_631:\n        /* \"#utility.yul\":33350:33356   */\n      dup1\n        /* \"#utility.yul\":33345:33348   */\n      dup5\n        /* \"#utility.yul\":33341:33357   */\n      add\n        /* \"#utility.yul\":33334:33357   */\n      swap2\n      pop\n        /* \"#utility.yul\":33085:33363   */\n      pop\n        /* \"#utility.yul\":32977:33363   */\n      swap3\n      swap2\n      pop\n      pop\n      jump\t// out\n        /* \"#utility.yul\":33369:33794   */\n    tag_97:\n        /* \"#utility.yul\":33544:33547   */\n      0x00\n        /* \"#utility.yul\":33566:33659   */\n      tag_633\n        /* \"#utility.yul\":33655:33658   */\n      dup3\n        /* \"#utility.yul\":33646:33652   */\n      dup6\n        /* \"#utility.yul\":33566:33659   */\n      tag_309\n      jump\t// in\n    tag_633:\n        /* \"#utility.yul\":33559:33659   */\n      swap2\n      pop\n        /* \"#utility.yul\":33676:33768   */\n      tag_634\n        /* \"#utility.yul\":33764:33767   */\n      dup3\n        /* \"#utility.yul\":33755:33761   */\n      dup5\n        /* \"#utility.yul\":33676:33768   */\n      tag_306\n      jump\t// in\n    tag_634:\n        /* \"#utility.yul\":33669:33768   */\n      swap2\n      pop\n        /* \"#utility.yul\":33785:33788   */\n      dup2\n        /* \"#utility.yul\":33778:33788   */\n      swap1\n      pop\n        /* \"#utility.yul\":33369:33794   */\n      swap4\n      swap3\n      pop\n      pop\n      pop\n      jump\t// out\n        /* \"#utility.yul\":33800:33971   */\n    tag_310:\n        /* \"#utility.yul\":33940:33963   */\n      0x4163746f7220646f6573206e6f742065786973742e0000000000000000000000\n        /* \"#utility.yul\":33936:33937   */\n      0x00\n        /* \"#utility.yul\":33928:33934   */\n      dup3\n        /* \"#utility.yul\":33924:33938   */\n      add\n        /* \"#utility.yul\":33917:33964   */\n      mstore\n        /* \"#utility.yul\":33800:33971   */\n      pop\n      jump\t// out\n        /* \"#utility.yul\":33977:34343   */\n    tag_311:\n        /* \"#utility.yul\":34119:34122   */\n      0x00\n        /* \"#utility.yul\":34140:34207   */\n      tag_637\n        /* \"#utility.yul\":34204:34206   */\n      0x15\n        /* \"#utility.yul\":34199:34202   */\n      dup4\n        /* \"#utility.yul\":34140:34207   */\n      tag_285\n      jump\t// in\n    tag_637:\n        /* \"#utility.yul\":34133:34207   */\n      swap2\n      pop\n        /* \"#utility.yul\":34216:34309   */\n      tag_638\n        /* \"#utility.yul\":34305:34308   */\n      dup3\n        /* \"#utility.yul\":34216:34309   */\n      tag_310\n      jump\t// in\n    tag_638:\n        /* \"#utility.yul\":34334:34336   */\n      0x20\n        /* \"#utility.yul\":34329:34332   */\n      dup3\n        /* \"#utility.yul\":34325:34337   */\n      add\n        /* \"#utility.yul\":34318:34337   */\n      swap1\n      pop\n        /* \"#utility.yul\":33977:34343   */\n      swap2\n      swap1\n      pop\n      jump\t// out\n        /* \"#utility.yul\":34349:34768   */\n    tag_112:\n        /* \"#utility.yul\":34515:34519   */\n      0x00\n        /* \"#utility.yul\":34553:34555   */\n      0x20\n        /* \"#utility.yul\":34542:34551   */\n      dup3\n        /* \"#utility.yul\":34538:34556   */\n      add\n        /* \"#utility.yul\":34530:34556   */\n      swap1\n      pop\n        /* \"#utility.yul\":34602:34611   */\n      dup2\n        /* \"#utility.yul\":34596:34600   */\n      dup2\n        /* \"#utility.yul\":34592:34612   */\n      sub\n        /* \"#utility.yul\":34588:34589   */\n      0x00\n        /* \"#utility.yul\":34577:34586   */\n      dup4\n        /* \"#utility.yul\":34573:34590   */\n      add\n        /* \"#utility.yul\":34566:34613   */\n      mstore\n        /* \"#utility.yul\":34630:34761   */\n      tag_640\n        /* \"#utility.yul\":34756:34760   */\n      dup2\n        /* \"#utility.yul\":34630:34761   */\n      tag_311\n      jump\t// in\n    tag_640:\n        /* \"#utility.yul\":34622:34761   */\n      swap1\n      pop\n        /* \"#utility.yul\":34349:34768   */\n      swap2\n      swap1\n      pop\n      jump\t// out\n        /* \"#utility.yul\":34774:34949   */\n    tag_312:\n        /* \"#utility.yul\":34914:34941   */\n      0x44617461205573657220646f6573206e6f742065786973742e00000000000000\n        /* \"#utility.yul\":34910:34911   */\n      0x00\n        /* \"#utility.yul\":34902:34908   */\n      dup3\n        /* \"#utility.yul\":34898:34912   */\n      add\n        /* \"#utility.yul\":34891:34942   */\n      mstore\n        /* \"#utility.yul\":34774:34949   */\n      pop\n      jump\t// out\n        /* \"#utility.yul\":34955:35321   */\n    tag_313:\n        /* \"#utility.yul\":35097:35100   */\n      0x00\n        /* \"#utility.yul\":35118:35185   */\n      tag_643\n        /* \"#utility.yul\":35182:35184   */\n      0x19\n        /* \"#utility.yul\":35177:35180   */\n      dup4\n        /* \"#utility.yul\":35118:35185   */\n      tag_285\n      jump\t// in\n    tag_643:\n        /* \"#utility.yul\":35111:35185   */\n      swap2\n      pop\n        /* \"#utility.yul\":35194:35287   */\n      tag_644\n        /* \"#utility.yul\":35283:35286   */\n      dup3\n        /* \"#utility.yul\":35194:35287   */\n      tag_312\n      jump\t// in\n    tag_644:\n        /* \"#utility.yul\":35312:35314   */\n      0x20\n        /* \"#utility.yul\":35307:35310   */\n      dup3\n        /* \"#utility.yul\":35303:35315   */\n      add\n        /* \"#utility.yul\":35296:35315   */\n      swap1\n      pop\n        /* \"#utility.yul\":34955:35321   */\n      swap2\n      swap1\n      pop\n      jump\t// out\n        /* \"#utility.yul\":35327:35746   */\n    tag_148:\n        /* \"#utility.yul\":35493:35497   */\n      0x00\n        /* \"#utility.yul\":35531:35533   */\n      0x20\n        /* \"#utility.yul\":35520:35529   */\n      dup3\n        /* \"#utility.yul\":35516:35534   */\n      add\n        /* \"#utility.yul\":35508:35534   */\n      swap1\n      pop\n        /* \"#utility.yul\":35580:35589   */\n      dup2\n        /* \"#utility.yul\":35574:35578   */\n      dup2\n        /* \"#utility.yul\":35570:35590   */\n      sub\n        /* \"#utility.yul\":35566:35567   */\n      0x00\n        /* \"#utility.yul\":35555:35564   */\n      dup4\n        /* \"#utility.yul\":35551:35568   */\n      add\n        /* \"#utility.yul\":35544:35591   */\n      mstore\n        /* \"#utility.yul\":35608:35739   */\n      tag_646\n        /* \"#utility.yul\":35734:35738   */\n      dup2\n        /* \"#utility.yul\":35608:35739   */\n      tag_313\n      jump\t// in\n    tag_646:\n        /* \"#utility.yul\":35600:35739   */\n      swap1\n      pop\n        /* \"#utility.yul\":35327:35746   */\n      swap2\n      swap1\n      pop\n      jump\t// out\n        /* \"#utility.yul\":35752:35930   */\n    tag_314:\n        /* \"#utility.yul\":35892:35922   */\n      0x506572736f6e616c4461746120646f6573206e6f742065786973742e00000000\n        /* \"#utility.yul\":35888:35889   */\n      0x00\n        /* \"#utility.yul\":35880:35886   */\n      dup3\n        /* \"#utility.yul\":35876:35890   */\n      add\n        /* \"#utility.yul\":35869:35923   */\n      mstore\n        /* \"#utility.yul\":35752:35930   */\n      pop\n      jump\t// out\n        /* \"#utility.yul\":35936:36302   */\n    tag_315:\n        /* \"#utility.yul\":36078:36081   */\n      0x00\n        /* \"#utility.yul\":36099:36166   */\n      tag_649\n        /* \"#utility.yul\":36163:36165   */\n      0x1c\n        /* \"#utility.yul\":36158:36161   */\n      dup4\n        /* \"#utility.yul\":36099:36166   */\n      tag_285\n      jump\t// in\n    tag_649:\n        /* \"#utility.yul\":36092:36166   */\n      swap2\n      pop\n        /* \"#utility.yul\":36175:36268   */\n      tag_650\n        /* \"#utility.yul\":36264:36267   */\n      dup3\n        /* \"#utility.yul\":36175:36268   */\n      tag_314\n      jump\t// in\n    tag_650:\n        /* \"#utility.yul\":36293:36295   */\n      0x20\n        /* \"#utility.yul\":36288:36291   */\n      dup3\n        /* \"#utility.yul\":36284:36296   */\n      add\n        /* \"#utility.yul\":36277:36296   */\n      swap1\n      pop\n        /* \"#utility.yul\":35936:36302   */\n      swap2\n      swap1\n      pop\n      jump\t// out\n        /* \"#utility.yul\":36308:36727   */\n    tag_176:\n        /* \"#utility.yul\":36474:36478   */\n      0x00\n        /* \"#utility.yul\":36512:36514   */\n      0x20\n        /* \"#utility.yul\":36501:36510   */\n      dup3\n        /* \"#utility.yul\":36497:36515   */\n      add\n        /* \"#utility.yul\":36489:36515   */\n      swap1\n      pop\n        /* \"#utility.yul\":36561:36570   */\n      dup2\n        /* \"#utility.yul\":36555:36559   */\n      dup2\n        /* \"#utility.yul\":36551:36571   */\n      sub\n        /* \"#utility.yul\":36547:36548   */\n      0x00\n        /* \"#utility.yul\":36536:36545   */\n      dup4\n        /* \"#utility.yul\":36532:36549   */\n      add\n        /* \"#utility.yul\":36525:36572   */\n      mstore\n        /* \"#utility.yul\":36589:36720   */\n      tag_652\n        /* \"#utility.yul\":36715:36719   */\n      dup2\n        /* \"#utility.yul\":36589:36720   */\n      tag_315\n      jump\t// in\n    tag_652:\n        /* \"#utility.yul\":36581:36720   */\n      swap1\n      pop\n        /* \"#utility.yul\":36308:36727   */\n      swap2\n      swap1\n      pop\n      jump\t// out\n\n    auxdata: 0xa2646970667358221220fa16bbbabe840822511143d98aa6f81f2f674738e9e3a7dc769e4316ad3d7fa064736f6c63430008180033\n}\n",
				"bytecode": {
					"linkReferences": {},
					"object": "60806040525f6005555f600755348015610017575f80fd5b50335f806101000a81548173ffffffffffffffffffffffffffffffffffffffff021916908373ffffffffffffffffffffffffffffffffffffffff1602179055506123c6806100645f395ff3fe608060405234801561000f575f80fd5b50600436106100b2575f3560e01c80638da5cb5b1161006f5780638da5cb5b14610164578063b61798f614610182578063c585665d146101b2578063ca07b122146101e2578063d2b0649a146101fe578063d8a761d91461022e576100b2565b80630dab7cd9146100b65780633a918356146100d25780633f81de59146100f05780634b58fbe91461010c578063682477d71461012a57806368e9243614610148575b5f80fd5b6100d060048036038101906100cb9190611478565b61025e565b005b6100da6103ab565b6040516100e79190611616565b60405180910390f35b61010a60048036038101906101059190611636565b610401565b005b61011461055a565b6040516101219190611670565b60405180910390f35b610132610563565b60405161013f9190611670565b60405180910390f35b610162600480360381019061015d9190611689565b61056c565b005b61016c61066a565b6040516101799190611722565b60405180910390f35b61019c60048036038101906101979190611636565b61068d565b6040516101a99190611753565b60405180910390f35b6101cc60048036038101906101c79190611636565b6106a7565b6040516101d99190611820565b60405180910390f35b6101fc60048036038101906101f79190611900565b6107c0565b005b61021860048036038101906102139190611636565b6109e0565b6040516102259190611c67565b60405180910390f35b61024860048036038101906102439190611636565b610d0a565b6040516102559190611d0f565b60405180910390f35b5f8054906101000a900473ffffffffffffffffffffffffffffffffffffffff1673ffffffffffffffffffffffffffffffffffffffff163373ffffffffffffffffffffffffffffffffffffffff16146102eb576040517f08c379a00000000000000000000000000000000000000000000000000000000081526004016102e290611daf565b60405180910390fd5b6040518060a001604052808681526020018581526020018481526020018381526020018281525060035f8781526020019081526020015f205f820151815f015560208201518160010190816103409190611fc7565b5060408201518160020190816103569190611fc7565b50606082015181600301908161036c9190611fc7565b506080820151816004019080519060200190610389929190611017565b5090505060075f81548092919061039f906120c3565b91905055505050505050565b606060068054806020026020016040519081016040528092919081815260200182805480156103f757602002820191905f5260205f20905b8154815260200190600101908083116103e3575b5050505050905090565b5f8054906101000a900473ffffffffffffffffffffffffffffffffffffffff1673ffffffffffffffffffffffffffffffffffffffff163373ffffffffffffffffffffffffffffffffffffffff161461048e576040517f08c379a000000000000000000000000000000000000000000000000000000000815260040161048590611daf565b60405180910390fd5b5f60035f8381526020019081526020015f20905060608160010182600201836003016040516020016104c293929190612194565b60405160208183030381529060405290505f5b826004018054905081101561053257818360040182815481106104fb576104fa6121c4565b5b905f5260205f2001604051602001610514929190612235565b604051602081830303815290604052915080806001019150506104d5565b505f818051906020012090508060045f8681526020019081526020015f208190555050505050565b5f600754905090565b5f600554905090565b5f8054906101000a900473ffffffffffffffffffffffffffffffffffffffff1673ffffffffffffffffffffffffffffffffffffffff163373ffffffffffffffffffffffffffffffffffffffff16146105f9576040517f08c379a00000000000000000000000000000000000000000000000000000000081526004016105f090611daf565b60405180910390fd5b60405180604001604052808381526020018281525060025f8481526020019081526020015f205f820151815f0155602082015181600101908161063c9190611fc7565b50905050600682908060018154018082558091505060019003905f5260205f20015f90919091909150555050565b5f8054906101000a900473ffffffffffffffffffffffffffffffffffffffff1681565b5f60045f8381526020019081526020015f20549050919050565b6106af61106e565b5f60025f8481526020019081526020015f205f015403610704576040517f08c379a00000000000000000000000000000000000000000000000000000000081526004016106fb906122a2565b60405180910390fd5b60025f8381526020019081526020015f206040518060400160405290815f820154815260200160018201805461073990611dfa565b80601f016020809104026020016040519081016040528092919081815260200182805461076590611dfa565b80156107b05780601f10610787576101008083540402835291602001916107b0565b820191905f5260205f20905b81548152906001019060200180831161079357829003601f168201915b5050505050815250509050919050565b5f8054906101000a900473ffffffffffffffffffffffffffffffffffffffff1673ffffffffffffffffffffffffffffffffffffffff163373ffffffffffffffffffffffffffffffffffffffff161461084d576040517f08c379a000000000000000000000000000000000000000000000000000000000815260040161084490611daf565b60405180910390fd5b5f815167ffffffffffffffff81111561086957610868611272565b5b6040519080825280602002602001820160405280156108975781602001602082028036833780820191505090505b5090505f5b82518110156108f4576108c88382815181106108bb576108ba6121c4565b5b602002602001015161068d565b8282815181106108db576108da6121c4565b5b602002602001018181525050808060010191505061089c565b506040518060c001604052808781526020018681526020018581526020018481526020018381526020018281525060015f8681526020019081526020015f205f820151815f0190816109469190611fc7565b50602082015181600101908161095c9190611fc7565b50604082015181600201556060820151816003019080519060200190610983929190611017565b5060808201518160040190805190602001906109a0929190611087565b5060a08201518160050190805190602001906109bd9291906110d2565b5090505060055f8154809291906109d3906120c3565b9190505550505050505050565b6109e861111d565b5f60015f8481526020019081526020015f206002015403610a3e576040517f08c379a0000000000000000000000000000000000000000000000000000000008152600401610a359061230a565b60405180910390fd5b60015f8381526020019081526020015f206040518060c00160405290815f82018054610a6990611dfa565b80601f0160208091040260200160405190810160405280929190818152602001828054610a9590611dfa565b8015610ae05780601f10610ab757610100808354040283529160200191610ae0565b820191905f5260205f20905b815481529060010190602001808311610ac357829003601f168201915b50505050508152602001600182018054610af990611dfa565b80601f0160208091040260200160405190810160405280929190818152602001828054610b2590611dfa565b8015610b705780601f10610b4757610100808354040283529160200191610b70565b820191905f5260205f20905b815481529060010190602001808311610b5357829003601f168201915b505050505081526020016002820154815260200160038201805480602002602001604051908101604052809291908181526020015f905b82821015610c4f578382905f5260205f20018054610bc490611dfa565b80601f0160208091040260200160405190810160405280929190818152602001828054610bf090611dfa565b8015610c3b5780601f10610c1257610100808354040283529160200191610c3b565b820191905f5260205f20905b815481529060010190602001808311610c1e57829003601f168201915b505050505081526020019060010190610ba7565b50505050815260200160048201805480602002602001604051908101604052809291908181526020018280548015610ca457602002820191905f5260205f20905b815481526020019060010190808311610c90575b5050505050815260200160058201805480602002602001604051908101604052809291908181526020018280548015610cfa57602002820191905f5260205f20905b815481526020019060010190808311610ce6575b5050505050815250509050919050565b610d12611152565b5f60035f8481526020019081526020015f205f015403610d67576040517f08c379a0000000000000000000000000000000000000000000000000000000008152600401610d5e90612372565b60405180910390fd5b60035f8381526020019081526020015f206040518060a00160405290815f8201548152602001600182018054610d9c90611dfa565b80601f0160208091040260200160405190810160405280929190818152602001828054610dc890611dfa565b8015610e135780601f10610dea57610100808354040283529160200191610e13565b820191905f5260205f20905b815481529060010190602001808311610df657829003601f168201915b50505050508152602001600282018054610e2c90611dfa565b80601f0160208091040260200160405190810160405280929190818152602001828054610e5890611dfa565b8015610ea35780601f10610e7a57610100808354040283529160200191610ea3565b820191905f5260205f20905b815481529060010190602001808311610e8657829003601f168201915b50505050508152602001600382018054610ebc90611dfa565b80601f0160208091040260200160405190810160405280929190818152602001828054610ee890611dfa565b8015610f335780601f10610f0a57610100808354040283529160200191610f33565b820191905f5260205f20905b815481529060010190602001808311610f1657829003601f168201915b5050505050815260200160048201805480602002602001604051908101604052809291908181526020015f905b82821015611008578382905f5260205f20018054610f7d90611dfa565b80601f0160208091040260200160405190810160405280929190818152602001828054610fa990611dfa565b8015610ff45780601f10610fcb57610100808354040283529160200191610ff4565b820191905f5260205f20905b815481529060010190602001808311610fd757829003601f168201915b505050505081526020019060010190610f60565b50505050815250509050919050565b828054828255905f5260205f2090810192821561105d579160200282015b8281111561105c57825182908161104c9190611fc7565b5091602001919060010190611035565b5b50905061106a9190611180565b5090565b60405180604001604052805f8152602001606081525090565b828054828255905f5260205f209081019282156110c1579160200282015b828111156110c05782518255916020019190600101906110a5565b5b5090506110ce91906111a3565b5090565b828054828255905f5260205f2090810192821561110c579160200282015b8281111561110b5782518255916020019190600101906110f0565b5b50905061111991906111be565b5090565b6040518060c0016040528060608152602001606081526020015f81526020016060815260200160608152602001606081525090565b6040518060a001604052805f8152602001606081526020016060815260200160608152602001606081525090565b5b8082111561119f575f818161119691906111d9565b50600101611181565b5090565b5b808211156111ba575f815f9055506001016111a4565b5090565b5b808211156111d5575f815f9055506001016111bf565b5090565b5080546111e590611dfa565b5f825580601f106111f65750611213565b601f0160209004905f5260205f209081019061121291906111a3565b5b50565b5f604051905090565b5f80fd5b5f80fd5b5f819050919050565b61123981611227565b8114611243575f80fd5b50565b5f8135905061125481611230565b92915050565b5f80fd5b5f80fd5b5f601f19601f8301169050919050565b7f4e487b71000000000000000000000000000000000000000000000000000000005f52604160045260245ffd5b6112a882611262565b810181811067ffffffffffffffff821117156112c7576112c6611272565b5b80604052505050565b5f6112d9611216565b90506112e5828261129f565b919050565b5f67ffffffffffffffff82111561130457611303611272565b5b61130d82611262565b9050602081019050919050565b828183375f83830152505050565b5f61133a611335846112ea565b6112d0565b9050828152602081018484840111156113565761135561125e565b5b61136184828561131a565b509392505050565b5f82601f83011261137d5761137c61125a565b5b813561138d848260208601611328565b91505092915050565b5f67ffffffffffffffff8211156113b0576113af611272565b5b602082029050602081019050919050565b5f80fd5b5f6113d76113d284611396565b6112d0565b905080838252602082019050602084028301858111156113fa576113f96113c1565b5b835b8181101561144157803567ffffffffffffffff81111561141f5761141e61125a565b5b80860161142c8982611369565b855260208501945050506020810190506113fc565b5050509392505050565b5f82601f83011261145f5761145e61125a565b5b813561146f8482602086016113c5565b91505092915050565b5f805f805f60a086880312156114915761149061121f565b5b5f61149e88828901611246565b955050602086013567ffffffffffffffff8111156114bf576114be611223565b5b6114cb88828901611369565b945050604086013567ffffffffffffffff8111156114ec576114eb611223565b5b6114f888828901611369565b935050606086013567ffffffffffffffff81111561151957611518611223565b5b61152588828901611369565b925050608086013567ffffffffffffffff81111561154657611545611223565b5b6115528882890161144b565b9150509295509295909350565b5f81519050919050565b5f82825260208201905092915050565b5f819050602082019050919050565b61159181611227565b82525050565b5f6115a28383611588565b60208301905092915050565b5f602082019050919050565b5f6115c48261155f565b6115ce8185611569565b93506115d983611579565b805f5b838110156116095781516115f08882611597565b97506115fb836115ae565b9250506001810190506115dc565b5085935050505092915050565b5f6020820190508181035f83015261162e81846115ba565b905092915050565b5f6020828403121561164b5761164a61121f565b5b5f61165884828501611246565b91505092915050565b61166a81611227565b82525050565b5f6020820190506116835f830184611661565b92915050565b5f806040838503121561169f5761169e61121f565b5b5f6116ac85828601611246565b925050602083013567ffffffffffffffff8111156116cd576116cc611223565b5b6116d985828601611369565b9150509250929050565b5f73ffffffffffffffffffffffffffffffffffffffff82169050919050565b5f61170c826116e3565b9050919050565b61171c81611702565b82525050565b5f6020820190506117355f830184611713565b92915050565b5f819050919050565b61174d8161173b565b82525050565b5f6020820190506117665f830184611744565b92915050565b5f81519050919050565b5f82825260208201905092915050565b5f5b838110156117a3578082015181840152602081019050611788565b5f8484015250505050565b5f6117b88261176c565b6117c28185611776565b93506117d2818560208601611786565b6117db81611262565b840191505092915050565b5f604083015f8301516117fb5f860182611588565b506020830151848203602086015261181382826117ae565b9150508091505092915050565b5f6020820190508181035f83015261183881846117e6565b905092915050565b5f67ffffffffffffffff82111561185a57611859611272565b5b602082029050602081019050919050565b5f61187d61187884611840565b6112d0565b905080838252602082019050602084028301858111156118a05761189f6113c1565b5b835b818110156118c957806118b58882611246565b8452602084019350506020810190506118a2565b5050509392505050565b5f82601f8301126118e7576118e661125a565b5b81356118f784826020860161186b565b91505092915050565b5f805f805f60a086880312156119195761191861121f565b5b5f86013567ffffffffffffffff81111561193657611935611223565b5b61194288828901611369565b955050602086013567ffffffffffffffff81111561196357611962611223565b5b61196f88828901611369565b945050604061198088828901611246565b935050606086013567ffffffffffffffff8111156119a1576119a0611223565b5b6119ad8882890161144b565b925050608086013567ffffffffffffffff8111156119ce576119cd611223565b5b6119da888289016118d3565b9150509295509295909350565b5f81519050919050565b5f82825260208201905092915050565b5f819050602082019050919050565b5f611a1b83836117ae565b905092915050565b5f602082019050919050565b5f611a39826119e7565b611a4381856119f1565b935083602082028501611a5585611a01565b805f5b85811015611a905784840389528151611a718582611a10565b9450611a7c83611a23565b925060208a01995050600181019050611a58565b50829750879550505050505092915050565b5f82825260208201905092915050565b5f611abc8261155f565b611ac68185611aa2565b9350611ad183611579565b805f5b83811015611b01578151611ae88882611597565b9750611af3836115ae565b925050600181019050611ad4565b5085935050505092915050565b5f81519050919050565b5f82825260208201905092915050565b5f819050602082019050919050565b611b408161173b565b82525050565b5f611b518383611b37565b60208301905092915050565b5f602082019050919050565b5f611b7382611b0e565b611b7d8185611b18565b9350611b8883611b28565b805f5b83811015611bb8578151611b9f8882611b46565b9750611baa83611b5d565b925050600181019050611b8b565b5085935050505092915050565b5f60c083015f8301518482035f860152611bdf82826117ae565b91505060208301518482036020860152611bf982826117ae565b9150506040830151611c0e6040860182611588565b5060608301518482036060860152611c268282611a2f565b91505060808301518482036080860152611c408282611ab2565b91505060a083015184820360a0860152611c5a8282611b69565b9150508091505092915050565b5f6020820190508181035f830152611c7f8184611bc5565b905092915050565b5f60a083015f830151611c9c5f860182611588565b5060208301518482036020860152611cb482826117ae565b91505060408301518482036040860152611cce82826117ae565b91505060608301518482036060860152611ce882826117ae565b91505060808301518482036080860152611d028282611a2f565b9150508091505092915050565b5f6020820190508181035f830152611d278184611c87565b905092915050565b5f82825260208201905092915050565b7f4f6e6c792074686520636f6e7472616374206f776e65722063616e20706572665f8201527f6f726d2074686973206f7065726174696f6e0000000000000000000000000000602082015250565b5f611d99603283611d2f565b9150611da482611d3f565b604082019050919050565b5f6020820190508181035f830152611dc681611d8d565b9050919050565b7f4e487b71000000000000000000000000000000000000000000000000000000005f52602260045260245ffd5b5f6002820490506001821680611e1157607f821691505b602082108103611e2457611e23611dcd565b5b50919050565b5f819050815f5260205f209050919050565b5f6020601f8301049050919050565b5f82821b905092915050565b5f60088302611e867fffffffffffffffffffffffffffffffffffffffffffffffffffffffffffffffff82611e4b565b611e908683611e4b565b95508019841693508086168417925050509392505050565b5f819050919050565b5f611ecb611ec6611ec184611227565b611ea8565b611227565b9050919050565b5f819050919050565b611ee483611eb1565b611ef8611ef082611ed2565b848454611e57565b825550505050565b5f90565b611f0c611f00565b611f17818484611edb565b505050565b5b81811015611f3a57611f2f5f82611f04565b600181019050611f1d565b5050565b601f821115611f7f57611f5081611e2a565b611f5984611e3c565b81016020851015611f68578190505b611f7c611f7485611e3c565b830182611f1c565b50505b505050565b5f82821c905092915050565b5f611f9f5f1984600802611f84565b1980831691505092915050565b5f611fb78383611f90565b9150826002028217905092915050565b611fd08261176c565b67ffffffffffffffff811115611fe957611fe8611272565b5b611ff38254611dfa565b611ffe828285611f3e565b5f60209050601f83116001811461202f575f841561201d578287015190505b6120278582611fac565b86555061208e565b601f19841661203d86611e2a565b5f5b828110156120645784890151825560018201915060208501945060208101905061203f565b86831015612081578489015161207d601f891682611f90565b8355505b6001600288020188555050505b505050505050565b7f4e487b71000000000000000000000000000000000000000000000000000000005f52601160045260245ffd5b5f6120cd82611227565b91507fffffffffffffffffffffffffffffffffffffffffffffffffffffffffffffffff82036120ff576120fe612096565b5b600182019050919050565b5f81905092915050565b5f815461212081611dfa565b61212a818661210a565b9450600182165f811461214457600181146121595761218b565b60ff198316865281151582028601935061218b565b61216285611e2a565b5f5b8381101561218357815481890152600182019150602081019050612164565b838801955050505b50505092915050565b5f61219f8286612114565b91506121ab8285612114565b91506121b78284612114565b9150819050949350505050565b7f4e487b71000000000000000000000000000000000000000000000000000000005f52603260045260245ffd5b5f81519050919050565b5f81905092915050565b5f61220f826121f1565b61221981856121fb565b9350612229818560208601611786565b80840191505092915050565b5f6122408285612205565b915061224c8284612114565b91508190509392505050565b7f4163746f7220646f6573206e6f742065786973742e00000000000000000000005f82015250565b5f61228c601583611d2f565b915061229782612258565b602082019050919050565b5f6020820190508181035f8301526122b981612280565b9050919050565b7f44617461205573657220646f6573206e6f742065786973742e000000000000005f82015250565b5f6122f4601983611d2f565b91506122ff826122c0565b602082019050919050565b5f6020820190508181035f830152612321816122e8565b9050919050565b7f506572736f6e616c4461746120646f6573206e6f742065786973742e000000005f82015250565b5f61235c601c83611d2f565b915061236782612328565b602082019050919050565b5f6020820190508181035f83015261238981612350565b905091905056fea2646970667358221220fa16bbbabe840822511143d98aa6f81f2f674738e9e3a7dc769e4316ad3d7fa064736f6c63430008180033",
					"opcodes": "PUSH1 0x80 PUSH1 0x40 MSTORE PUSH0 PUSH1 0x5 SSTORE PUSH0 PUSH1 0x7 SSTORE CALLVALUE DUP1 ISZERO PUSH2 0x17 JUMPI PUSH0 DUP1 REVERT JUMPDEST POP CALLER PUSH0 DUP1 PUSH2 0x100 EXP DUP2 SLOAD DUP2 PUSH20 0xFFFFFFFFFFFFFFFFFFFFFFFFFFFFFFFFFFFFFFFF MUL NOT AND SWAP1 DUP4 PUSH20 0xFFFFFFFFFFFFFFFFFFFFFFFFFFFFFFFFFFFFFFFF AND MUL OR SWAP1 SSTORE POP PUSH2 0x23C6 DUP1 PUSH2 0x64 PUSH0 CODECOPY PUSH0 RETURN INVALID PUSH1 0x80 PUSH1 0x40 MSTORE CALLVALUE DUP1 ISZERO PUSH2 0xF JUMPI PUSH0 DUP1 REVERT JUMPDEST POP PUSH1 0x4 CALLDATASIZE LT PUSH2 0xB2 JUMPI PUSH0 CALLDATALOAD PUSH1 0xE0 SHR DUP1 PUSH4 0x8DA5CB5B GT PUSH2 0x6F JUMPI DUP1 PUSH4 0x8DA5CB5B EQ PUSH2 0x164 JUMPI DUP1 PUSH4 0xB61798F6 EQ PUSH2 0x182 JUMPI DUP1 PUSH4 0xC585665D EQ PUSH2 0x1B2 JUMPI DUP1 PUSH4 0xCA07B122 EQ PUSH2 0x1E2 JUMPI DUP1 PUSH4 0xD2B0649A EQ PUSH2 0x1FE JUMPI DUP1 PUSH4 0xD8A761D9 EQ PUSH2 0x22E JUMPI PUSH2 0xB2 JUMP JUMPDEST DUP1 PUSH4 0xDAB7CD9 EQ PUSH2 0xB6 JUMPI DUP1 PUSH4 0x3A918356 EQ PUSH2 0xD2 JUMPI DUP1 PUSH4 0x3F81DE59 EQ PUSH2 0xF0 JUMPI DUP1 PUSH4 0x4B58FBE9 EQ PUSH2 0x10C JUMPI DUP1 PUSH4 0x682477D7 EQ PUSH2 0x12A JUMPI DUP1 PUSH4 0x68E92436 EQ PUSH2 0x148 JUMPI JUMPDEST PUSH0 DUP1 REVERT JUMPDEST PUSH2 0xD0 PUSH1 0x4 DUP1 CALLDATASIZE SUB DUP2 ADD SWAP1 PUSH2 0xCB SWAP2 SWAP1 PUSH2 0x1478 JUMP JUMPDEST PUSH2 0x25E JUMP JUMPDEST STOP JUMPDEST PUSH2 0xDA PUSH2 0x3AB JUMP JUMPDEST PUSH1 0x40 MLOAD PUSH2 0xE7 SWAP2 SWAP1 PUSH2 0x1616 JUMP JUMPDEST PUSH1 0x40 MLOAD DUP1 SWAP2 SUB SWAP1 RETURN JUMPDEST PUSH2 0x10A PUSH1 0x4 DUP1 CALLDATASIZE SUB DUP2 ADD SWAP1 PUSH2 0x105 SWAP2 SWAP1 PUSH2 0x1636 JUMP JUMPDEST PUSH2 0x401 JUMP JUMPDEST STOP JUMPDEST PUSH2 0x114 PUSH2 0x55A JUMP JUMPDEST PUSH1 0x40 MLOAD PUSH2 0x121 SWAP2 SWAP1 PUSH2 0x1670 JUMP JUMPDEST PUSH1 0x40 MLOAD DUP1 SWAP2 SUB SWAP1 RETURN JUMPDEST PUSH2 0x132 PUSH2 0x563 JUMP JUMPDEST PUSH1 0x40 MLOAD PUSH2 0x13F SWAP2 SWAP1 PUSH2 0x1670 JUMP JUMPDEST PUSH1 0x40 MLOAD DUP1 SWAP2 SUB SWAP1 RETURN JUMPDEST PUSH2 0x162 PUSH1 0x4 DUP1 CALLDATASIZE SUB DUP2 ADD SWAP1 PUSH2 0x15D SWAP2 SWAP1 PUSH2 0x1689 JUMP JUMPDEST PUSH2 0x56C JUMP JUMPDEST STOP JUMPDEST PUSH2 0x16C PUSH2 0x66A JUMP JUMPDEST PUSH1 0x40 MLOAD PUSH2 0x179 SWAP2 SWAP1 PUSH2 0x1722 JUMP JUMPDEST PUSH1 0x40 MLOAD DUP1 SWAP2 SUB SWAP1 RETURN JUMPDEST PUSH2 0x19C PUSH1 0x4 DUP1 CALLDATASIZE SUB DUP2 ADD SWAP1 PUSH2 0x197 SWAP2 SWAP1 PUSH2 0x1636 JUMP JUMPDEST PUSH2 0x68D JUMP JUMPDEST PUSH1 0x40 MLOAD PUSH2 0x1A9 SWAP2 SWAP1 PUSH2 0x1753 JUMP JUMPDEST PUSH1 0x40 MLOAD DUP1 SWAP2 SUB SWAP1 RETURN JUMPDEST PUSH2 0x1CC PUSH1 0x4 DUP1 CALLDATASIZE SUB DUP2 ADD SWAP1 PUSH2 0x1C7 SWAP2 SWAP1 PUSH2 0x1636 JUMP JUMPDEST PUSH2 0x6A7 JUMP JUMPDEST PUSH1 0x40 MLOAD PUSH2 0x1D9 SWAP2 SWAP1 PUSH2 0x1820 JUMP JUMPDEST PUSH1 0x40 MLOAD DUP1 SWAP2 SUB SWAP1 RETURN JUMPDEST PUSH2 0x1FC PUSH1 0x4 DUP1 CALLDATASIZE SUB DUP2 ADD SWAP1 PUSH2 0x1F7 SWAP2 SWAP1 PUSH2 0x1900 JUMP JUMPDEST PUSH2 0x7C0 JUMP JUMPDEST STOP JUMPDEST PUSH2 0x218 PUSH1 0x4 DUP1 CALLDATASIZE SUB DUP2 ADD SWAP1 PUSH2 0x213 SWAP2 SWAP1 PUSH2 0x1636 JUMP JUMPDEST PUSH2 0x9E0 JUMP JUMPDEST PUSH1 0x40 MLOAD PUSH2 0x225 SWAP2 SWAP1 PUSH2 0x1C67 JUMP JUMPDEST PUSH1 0x40 MLOAD DUP1 SWAP2 SUB SWAP1 RETURN JUMPDEST PUSH2 0x248 PUSH1 0x4 DUP1 CALLDATASIZE SUB DUP2 ADD SWAP1 PUSH2 0x243 SWAP2 SWAP1 PUSH2 0x1636 JUMP JUMPDEST PUSH2 0xD0A JUMP JUMPDEST PUSH1 0x40 MLOAD PUSH2 0x255 SWAP2 SWAP1 PUSH2 0x1D0F JUMP JUMPDEST PUSH1 0x40 MLOAD DUP1 SWAP2 SUB SWAP1 RETURN JUMPDEST PUSH0 DUP1 SLOAD SWAP1 PUSH2 0x100 EXP SWAP1 DIV PUSH20 0xFFFFFFFFFFFFFFFFFFFFFFFFFFFFFFFFFFFFFFFF AND PUSH20 0xFFFFFFFFFFFFFFFFFFFFFFFFFFFFFFFFFFFFFFFF AND CALLER PUSH20 0xFFFFFFFFFFFFFFFFFFFFFFFFFFFFFFFFFFFFFFFF AND EQ PUSH2 0x2EB JUMPI PUSH1 0x40 MLOAD PUSH32 0x8C379A000000000000000000000000000000000000000000000000000000000 DUP2 MSTORE PUSH1 0x4 ADD PUSH2 0x2E2 SWAP1 PUSH2 0x1DAF JUMP JUMPDEST PUSH1 0x40 MLOAD DUP1 SWAP2 SUB SWAP1 REVERT JUMPDEST PUSH1 0x40 MLOAD DUP1 PUSH1 0xA0 ADD PUSH1 0x40 MSTORE DUP1 DUP7 DUP2 MSTORE PUSH1 0x20 ADD DUP6 DUP2 MSTORE PUSH1 0x20 ADD DUP5 DUP2 MSTORE PUSH1 0x20 ADD DUP4 DUP2 MSTORE PUSH1 0x20 ADD DUP3 DUP2 MSTORE POP PUSH1 0x3 PUSH0 DUP8 DUP2 MSTORE PUSH1 0x20 ADD SWAP1 DUP2 MSTORE PUSH1 0x20 ADD PUSH0 KECCAK256 PUSH0 DUP3 ADD MLOAD DUP2 PUSH0 ADD SSTORE PUSH1 0x20 DUP3 ADD MLOAD DUP2 PUSH1 0x1 ADD SWAP1 DUP2 PUSH2 0x340 SWAP2 SWAP1 PUSH2 0x1FC7 JUMP JUMPDEST POP PUSH1 0x40 DUP3 ADD MLOAD DUP2 PUSH1 0x2 ADD SWAP1 DUP2 PUSH2 0x356 SWAP2 SWAP1 PUSH2 0x1FC7 JUMP JUMPDEST POP PUSH1 0x60 DUP3 ADD MLOAD DUP2 PUSH1 0x3 ADD SWAP1 DUP2 PUSH2 0x36C SWAP2 SWAP1 PUSH2 0x1FC7 JUMP JUMPDEST POP PUSH1 0x80 DUP3 ADD MLOAD DUP2 PUSH1 0x4 ADD SWAP1 DUP1 MLOAD SWAP1 PUSH1 0x20 ADD SWAP1 PUSH2 0x389 SWAP3 SWAP2 SWAP1 PUSH2 0x1017 JUMP JUMPDEST POP SWAP1 POP POP PUSH1 0x7 PUSH0 DUP2 SLOAD DUP1 SWAP3 SWAP2 SWAP1 PUSH2 0x39F SWAP1 PUSH2 0x20C3 JUMP JUMPDEST SWAP2 SWAP1 POP SSTORE POP POP POP POP POP POP JUMP JUMPDEST PUSH1 0x60 PUSH1 0x6 DUP1 SLOAD DUP1 PUSH1 0x20 MUL PUSH1 0x20 ADD PUSH1 0x40 MLOAD SWAP1 DUP2 ADD PUSH1 0x40 MSTORE DUP1 SWAP3 SWAP2 SWAP1 DUP2 DUP2 MSTORE PUSH1 0x20 ADD DUP3 DUP1 SLOAD DUP1 ISZERO PUSH2 0x3F7 JUMPI PUSH1 0x20 MUL DUP3 ADD SWAP2 SWAP1 PUSH0 MSTORE PUSH1 0x20 PUSH0 KECCAK256 SWAP1 JUMPDEST DUP2 SLOAD DUP2 MSTORE PUSH1 0x20 ADD SWAP1 PUSH1 0x1 ADD SWAP1 DUP1 DUP4 GT PUSH2 0x3E3 JUMPI JUMPDEST POP POP POP POP POP SWAP1 POP SWAP1 JUMP JUMPDEST PUSH0 DUP1 SLOAD SWAP1 PUSH2 0x100 EXP SWAP1 DIV PUSH20 0xFFFFFFFFFFFFFFFFFFFFFFFFFFFFFFFFFFFFFFFF AND PUSH20 0xFFFFFFFFFFFFFFFFFFFFFFFFFFFFFFFFFFFFFFFF AND CALLER PUSH20 0xFFFFFFFFFFFFFFFFFFFFFFFFFFFFFFFFFFFFFFFF AND EQ PUSH2 0x48E JUMPI PUSH1 0x40 MLOAD PUSH32 0x8C379A000000000000000000000000000000000000000000000000000000000 DUP2 MSTORE PUSH1 0x4 ADD PUSH2 0x485 SWAP1 PUSH2 0x1DAF JUMP JUMPDEST PUSH1 0x40 MLOAD DUP1 SWAP2 SUB SWAP1 REVERT JUMPDEST PUSH0 PUSH1 0x3 PUSH0 DUP4 DUP2 MSTORE PUSH1 0x20 ADD SWAP1 DUP2 MSTORE PUSH1 0x20 ADD PUSH0 KECCAK256 SWAP1 POP PUSH1 0x60 DUP2 PUSH1 0x1 ADD DUP3 PUSH1 0x2 ADD DUP4 PUSH1 0x3 ADD PUSH1 0x40 MLOAD PUSH1 0x20 ADD PUSH2 0x4C2 SWAP4 SWAP3 SWAP2 SWAP1 PUSH2 0x2194 JUMP JUMPDEST PUSH1 0x40 MLOAD PUSH1 0x20 DUP2 DUP4 SUB SUB DUP2 MSTORE SWAP1 PUSH1 0x40 MSTORE SWAP1 POP PUSH0 JUMPDEST DUP3 PUSH1 0x4 ADD DUP1 SLOAD SWAP1 POP DUP2 LT ISZERO PUSH2 0x532 JUMPI DUP2 DUP4 PUSH1 0x4 ADD DUP3 DUP2 SLOAD DUP2 LT PUSH2 0x4FB JUMPI PUSH2 0x4FA PUSH2 0x21C4 JUMP JUMPDEST JUMPDEST SWAP1 PUSH0 MSTORE PUSH1 0x20 PUSH0 KECCAK256 ADD PUSH1 0x40 MLOAD PUSH1 0x20 ADD PUSH2 0x514 SWAP3 SWAP2 SWAP1 PUSH2 0x2235 JUMP JUMPDEST PUSH1 0x40 MLOAD PUSH1 0x20 DUP2 DUP4 SUB SUB DUP2 MSTORE SWAP1 PUSH1 0x40 MSTORE SWAP2 POP DUP1 DUP1 PUSH1 0x1 ADD SWAP2 POP POP PUSH2 0x4D5 JUMP JUMPDEST POP PUSH0 DUP2 DUP1 MLOAD SWAP1 PUSH1 0x20 ADD KECCAK256 SWAP1 POP DUP1 PUSH1 0x4 PUSH0 DUP7 DUP2 MSTORE PUSH1 0x20 ADD SWAP1 DUP2 MSTORE PUSH1 0x20 ADD PUSH0 KECCAK256 DUP2 SWAP1 SSTORE POP POP POP POP POP JUMP JUMPDEST PUSH0 PUSH1 0x7 SLOAD SWAP1 POP SWAP1 JUMP JUMPDEST PUSH0 PUSH1 0x5 SLOAD SWAP1 POP SWAP1 JUMP JUMPDEST PUSH0 DUP1 SLOAD SWAP1 PUSH2 0x100 EXP SWAP1 DIV PUSH20 0xFFFFFFFFFFFFFFFFFFFFFFFFFFFFFFFFFFFFFFFF AND PUSH20 0xFFFFFFFFFFFFFFFFFFFFFFFFFFFFFFFFFFFFFFFF AND CALLER PUSH20 0xFFFFFFFFFFFFFFFFFFFFFFFFFFFFFFFFFFFFFFFF AND EQ PUSH2 0x5F9 JUMPI PUSH1 0x40 MLOAD PUSH32 0x8C379A000000000000000000000000000000000000000000000000000000000 DUP2 MSTORE PUSH1 0x4 ADD PUSH2 0x5F0 SWAP1 PUSH2 0x1DAF JUMP JUMPDEST PUSH1 0x40 MLOAD DUP1 SWAP2 SUB SWAP1 REVERT JUMPDEST PUSH1 0x40 MLOAD DUP1 PUSH1 0x40 ADD PUSH1 0x40 MSTORE DUP1 DUP4 DUP2 MSTORE PUSH1 0x20 ADD DUP3 DUP2 MSTORE POP PUSH1 0x2 PUSH0 DUP5 DUP2 MSTORE PUSH1 0x20 ADD SWAP1 DUP2 MSTORE PUSH1 0x20 ADD PUSH0 KECCAK256 PUSH0 DUP3 ADD MLOAD DUP2 PUSH0 ADD SSTORE PUSH1 0x20 DUP3 ADD MLOAD DUP2 PUSH1 0x1 ADD SWAP1 DUP2 PUSH2 0x63C SWAP2 SWAP1 PUSH2 0x1FC7 JUMP JUMPDEST POP SWAP1 POP POP PUSH1 0x6 DUP3 SWAP1 DUP1 PUSH1 0x1 DUP2 SLOAD ADD DUP1 DUP3 SSTORE DUP1 SWAP2 POP POP PUSH1 0x1 SWAP1 SUB SWAP1 PUSH0 MSTORE PUSH1 0x20 PUSH0 KECCAK256 ADD PUSH0 SWAP1 SWAP2 SWAP1 SWAP2 SWAP1 SWAP2 POP SSTORE POP POP JUMP JUMPDEST PUSH0 DUP1 SLOAD SWAP1 PUSH2 0x100 EXP SWAP1 DIV PUSH20 0xFFFFFFFFFFFFFFFFFFFFFFFFFFFFFFFFFFFFFFFF AND DUP2 JUMP JUMPDEST PUSH0 PUSH1 0x4 PUSH0 DUP4 DUP2 MSTORE PUSH1 0x20 ADD SWAP1 DUP2 MSTORE PUSH1 0x20 ADD PUSH0 KECCAK256 SLOAD SWAP1 POP SWAP2 SWAP1 POP JUMP JUMPDEST PUSH2 0x6AF PUSH2 0x106E JUMP JUMPDEST PUSH0 PUSH1 0x2 PUSH0 DUP5 DUP2 MSTORE PUSH1 0x20 ADD SWAP1 DUP2 MSTORE PUSH1 0x20 ADD PUSH0 KECCAK256 PUSH0 ADD SLOAD SUB PUSH2 0x704 JUMPI PUSH1 0x40 MLOAD PUSH32 0x8C379A000000000000000000000000000000000000000000000000000000000 DUP2 MSTORE PUSH1 0x4 ADD PUSH2 0x6FB SWAP1 PUSH2 0x22A2 JUMP JUMPDEST PUSH1 0x40 MLOAD DUP1 SWAP2 SUB SWAP1 REVERT JUMPDEST PUSH1 0x2 PUSH0 DUP4 DUP2 MSTORE PUSH1 0x20 ADD SWAP1 DUP2 MSTORE PUSH1 0x20 ADD PUSH0 KECCAK256 PUSH1 0x40 MLOAD DUP1 PUSH1 0x40 ADD PUSH1 0x40 MSTORE SWAP1 DUP2 PUSH0 DUP3 ADD SLOAD DUP2 MSTORE PUSH1 0x20 ADD PUSH1 0x1 DUP3 ADD DUP1 SLOAD PUSH2 0x739 SWAP1 PUSH2 0x1DFA JUMP JUMPDEST DUP1 PUSH1 0x1F ADD PUSH1 0x20 DUP1 SWAP2 DIV MUL PUSH1 0x20 ADD PUSH1 0x40 MLOAD SWAP1 DUP2 ADD PUSH1 0x40 MSTORE DUP1 SWAP3 SWAP2 SWAP1 DUP2 DUP2 MSTORE PUSH1 0x20 ADD DUP3 DUP1 SLOAD PUSH2 0x765 SWAP1 PUSH2 0x1DFA JUMP JUMPDEST DUP1 ISZERO PUSH2 0x7B0 JUMPI DUP1 PUSH1 0x1F LT PUSH2 0x787 JUMPI PUSH2 0x100 DUP1 DUP4 SLOAD DIV MUL DUP4 MSTORE SWAP2 PUSH1 0x20 ADD SWAP2 PUSH2 0x7B0 JUMP JUMPDEST DUP3 ADD SWAP2 SWAP1 PUSH0 MSTORE PUSH1 0x20 PUSH0 KECCAK256 SWAP1 JUMPDEST DUP2 SLOAD DUP2 MSTORE SWAP1 PUSH1 0x1 ADD SWAP1 PUSH1 0x20 ADD DUP1 DUP4 GT PUSH2 0x793 JUMPI DUP3 SWAP1 SUB PUSH1 0x1F AND DUP3 ADD SWAP2 JUMPDEST POP POP POP POP POP DUP2 MSTORE POP POP SWAP1 POP SWAP2 SWAP1 POP JUMP JUMPDEST PUSH0 DUP1 SLOAD SWAP1 PUSH2 0x100 EXP SWAP1 DIV PUSH20 0xFFFFFFFFFFFFFFFFFFFFFFFFFFFFFFFFFFFFFFFF AND PUSH20 0xFFFFFFFFFFFFFFFFFFFFFFFFFFFFFFFFFFFFFFFF AND CALLER PUSH20 0xFFFFFFFFFFFFFFFFFFFFFFFFFFFFFFFFFFFFFFFF AND EQ PUSH2 0x84D JUMPI PUSH1 0x40 MLOAD PUSH32 0x8C379A000000000000000000000000000000000000000000000000000000000 DUP2 MSTORE PUSH1 0x4 ADD PUSH2 0x844 SWAP1 PUSH2 0x1DAF JUMP JUMPDEST PUSH1 0x40 MLOAD DUP1 SWAP2 SUB SWAP1 REVERT JUMPDEST PUSH0 DUP2 MLOAD PUSH8 0xFFFFFFFFFFFFFFFF DUP2 GT ISZERO PUSH2 0x869 JUMPI PUSH2 0x868 PUSH2 0x1272 JUMP JUMPDEST JUMPDEST PUSH1 0x40 MLOAD SWAP1 DUP1 DUP3 MSTORE DUP1 PUSH1 0x20 MUL PUSH1 0x20 ADD DUP3 ADD PUSH1 0x40 MSTORE DUP1 ISZERO PUSH2 0x897 JUMPI DUP2 PUSH1 0x20 ADD PUSH1 0x20 DUP3 MUL DUP1 CALLDATASIZE DUP4 CALLDATACOPY DUP1 DUP3 ADD SWAP2 POP POP SWAP1 POP JUMPDEST POP SWAP1 POP PUSH0 JUMPDEST DUP3 MLOAD DUP2 LT ISZERO PUSH2 0x8F4 JUMPI PUSH2 0x8C8 DUP4 DUP3 DUP2 MLOAD DUP2 LT PUSH2 0x8BB JUMPI PUSH2 0x8BA PUSH2 0x21C4 JUMP JUMPDEST JUMPDEST PUSH1 0x20 MUL PUSH1 0x20 ADD ADD MLOAD PUSH2 0x68D JUMP JUMPDEST DUP3 DUP3 DUP2 MLOAD DUP2 LT PUSH2 0x8DB JUMPI PUSH2 0x8DA PUSH2 0x21C4 JUMP JUMPDEST JUMPDEST PUSH1 0x20 MUL PUSH1 0x20 ADD ADD DUP2 DUP2 MSTORE POP POP DUP1 DUP1 PUSH1 0x1 ADD SWAP2 POP POP PUSH2 0x89C JUMP JUMPDEST POP PUSH1 0x40 MLOAD DUP1 PUSH1 0xC0 ADD PUSH1 0x40 MSTORE DUP1 DUP8 DUP2 MSTORE PUSH1 0x20 ADD DUP7 DUP2 MSTORE PUSH1 0x20 ADD DUP6 DUP2 MSTORE PUSH1 0x20 ADD DUP5 DUP2 MSTORE PUSH1 0x20 ADD DUP4 DUP2 MSTORE PUSH1 0x20 ADD DUP3 DUP2 MSTORE POP PUSH1 0x1 PUSH0 DUP7 DUP2 MSTORE PUSH1 0x20 ADD SWAP1 DUP2 MSTORE PUSH1 0x20 ADD PUSH0 KECCAK256 PUSH0 DUP3 ADD MLOAD DUP2 PUSH0 ADD SWAP1 DUP2 PUSH2 0x946 SWAP2 SWAP1 PUSH2 0x1FC7 JUMP JUMPDEST POP PUSH1 0x20 DUP3 ADD MLOAD DUP2 PUSH1 0x1 ADD SWAP1 DUP2 PUSH2 0x95C SWAP2 SWAP1 PUSH2 0x1FC7 JUMP JUMPDEST POP PUSH1 0x40 DUP3 ADD MLOAD DUP2 PUSH1 0x2 ADD SSTORE PUSH1 0x60 DUP3 ADD MLOAD DUP2 PUSH1 0x3 ADD SWAP1 DUP1 MLOAD SWAP1 PUSH1 0x20 ADD SWAP1 PUSH2 0x983 SWAP3 SWAP2 SWAP1 PUSH2 0x1017 JUMP JUMPDEST POP PUSH1 0x80 DUP3 ADD MLOAD DUP2 PUSH1 0x4 ADD SWAP1 DUP1 MLOAD SWAP1 PUSH1 0x20 ADD SWAP1 PUSH2 0x9A0 SWAP3 SWAP2 SWAP1 PUSH2 0x1087 JUMP JUMPDEST POP PUSH1 0xA0 DUP3 ADD MLOAD DUP2 PUSH1 0x5 ADD SWAP1 DUP1 MLOAD SWAP1 PUSH1 0x20 ADD SWAP1 PUSH2 0x9BD SWAP3 SWAP2 SWAP1 PUSH2 0x10D2 JUMP JUMPDEST POP SWAP1 POP POP PUSH1 0x5 PUSH0 DUP2 SLOAD DUP1 SWAP3 SWAP2 SWAP1 PUSH2 0x9D3 SWAP1 PUSH2 0x20C3 JUMP JUMPDEST SWAP2 SWAP1 POP SSTORE POP POP POP POP POP POP POP JUMP JUMPDEST PUSH2 0x9E8 PUSH2 0x111D JUMP JUMPDEST PUSH0 PUSH1 0x1 PUSH0 DUP5 DUP2 MSTORE PUSH1 0x20 ADD SWAP1 DUP2 MSTORE PUSH1 0x20 ADD PUSH0 KECCAK256 PUSH1 0x2 ADD SLOAD SUB PUSH2 0xA3E JUMPI PUSH1 0x40 MLOAD PUSH32 0x8C379A000000000000000000000000000000000000000000000000000000000 DUP2 MSTORE PUSH1 0x4 ADD PUSH2 0xA35 SWAP1 PUSH2 0x230A JUMP JUMPDEST PUSH1 0x40 MLOAD DUP1 SWAP2 SUB SWAP1 REVERT JUMPDEST PUSH1 0x1 PUSH0 DUP4 DUP2 MSTORE PUSH1 0x20 ADD SWAP1 DUP2 MSTORE PUSH1 0x20 ADD PUSH0 KECCAK256 PUSH1 0x40 MLOAD DUP1 PUSH1 0xC0 ADD PUSH1 0x40 MSTORE SWAP1 DUP2 PUSH0 DUP3 ADD DUP1 SLOAD PUSH2 0xA69 SWAP1 PUSH2 0x1DFA JUMP JUMPDEST DUP1 PUSH1 0x1F ADD PUSH1 0x20 DUP1 SWAP2 DIV MUL PUSH1 0x20 ADD PUSH1 0x40 MLOAD SWAP1 DUP2 ADD PUSH1 0x40 MSTORE DUP1 SWAP3 SWAP2 SWAP1 DUP2 DUP2 MSTORE PUSH1 0x20 ADD DUP3 DUP1 SLOAD PUSH2 0xA95 SWAP1 PUSH2 0x1DFA JUMP JUMPDEST DUP1 ISZERO PUSH2 0xAE0 JUMPI DUP1 PUSH1 0x1F LT PUSH2 0xAB7 JUMPI PUSH2 0x100 DUP1 DUP4 SLOAD DIV MUL DUP4 MSTORE SWAP2 PUSH1 0x20 ADD SWAP2 PUSH2 0xAE0 JUMP JUMPDEST DUP3 ADD SWAP2 SWAP1 PUSH0 MSTORE PUSH1 0x20 PUSH0 KECCAK256 SWAP1 JUMPDEST DUP2 SLOAD DUP2 MSTORE SWAP1 PUSH1 0x1 ADD SWAP1 PUSH1 0x20 ADD DUP1 DUP4 GT PUSH2 0xAC3 JUMPI DUP3 SWAP1 SUB PUSH1 0x1F AND DUP3 ADD SWAP2 JUMPDEST POP POP POP POP POP DUP2 MSTORE PUSH1 0x20 ADD PUSH1 0x1 DUP3 ADD DUP1 SLOAD PUSH2 0xAF9 SWAP1 PUSH2 0x1DFA JUMP JUMPDEST DUP1 PUSH1 0x1F ADD PUSH1 0x20 DUP1 SWAP2 DIV MUL PUSH1 0x20 ADD PUSH1 0x40 MLOAD SWAP1 DUP2 ADD PUSH1 0x40 MSTORE DUP1 SWAP3 SWAP2 SWAP1 DUP2 DUP2 MSTORE PUSH1 0x20 ADD DUP3 DUP1 SLOAD PUSH2 0xB25 SWAP1 PUSH2 0x1DFA JUMP JUMPDEST DUP1 ISZERO PUSH2 0xB70 JUMPI DUP1 PUSH1 0x1F LT PUSH2 0xB47 JUMPI PUSH2 0x100 DUP1 DUP4 SLOAD DIV MUL DUP4 MSTORE SWAP2 PUSH1 0x20 ADD SWAP2 PUSH2 0xB70 JUMP JUMPDEST DUP3 ADD SWAP2 SWAP1 PUSH0 MSTORE PUSH1 0x20 PUSH0 KECCAK256 SWAP1 JUMPDEST DUP2 SLOAD DUP2 MSTORE SWAP1 PUSH1 0x1 ADD SWAP1 PUSH1 0x20 ADD DUP1 DUP4 GT PUSH2 0xB53 JUMPI DUP3 SWAP1 SUB PUSH1 0x1F AND DUP3 ADD SWAP2 JUMPDEST POP POP POP POP POP DUP2 MSTORE PUSH1 0x20 ADD PUSH1 0x2 DUP3 ADD SLOAD DUP2 MSTORE PUSH1 0x20 ADD PUSH1 0x3 DUP3 ADD DUP1 SLOAD DUP1 PUSH1 0x20 MUL PUSH1 0x20 ADD PUSH1 0x40 MLOAD SWAP1 DUP2 ADD PUSH1 0x40 MSTORE DUP1 SWAP3 SWAP2 SWAP1 DUP2 DUP2 MSTORE PUSH1 0x20 ADD PUSH0 SWAP1 JUMPDEST DUP3 DUP3 LT ISZERO PUSH2 0xC4F JUMPI DUP4 DUP3 SWAP1 PUSH0 MSTORE PUSH1 0x20 PUSH0 KECCAK256 ADD DUP1 SLOAD PUSH2 0xBC4 SWAP1 PUSH2 0x1DFA JUMP JUMPDEST DUP1 PUSH1 0x1F ADD PUSH1 0x20 DUP1 SWAP2 DIV MUL PUSH1 0x20 ADD PUSH1 0x40 MLOAD SWAP1 DUP2 ADD PUSH1 0x40 MSTORE DUP1 SWAP3 SWAP2 SWAP1 DUP2 DUP2 MSTORE PUSH1 0x20 ADD DUP3 DUP1 SLOAD PUSH2 0xBF0 SWAP1 PUSH2 0x1DFA JUMP JUMPDEST DUP1 ISZERO PUSH2 0xC3B JUMPI DUP1 PUSH1 0x1F LT PUSH2 0xC12 JUMPI PUSH2 0x100 DUP1 DUP4 SLOAD DIV MUL DUP4 MSTORE SWAP2 PUSH1 0x20 ADD SWAP2 PUSH2 0xC3B JUMP JUMPDEST DUP3 ADD SWAP2 SWAP1 PUSH0 MSTORE PUSH1 0x20 PUSH0 KECCAK256 SWAP1 JUMPDEST DUP2 SLOAD DUP2 MSTORE SWAP1 PUSH1 0x1 ADD SWAP1 PUSH1 0x20 ADD DUP1 DUP4 GT PUSH2 0xC1E JUMPI DUP3 SWAP1 SUB PUSH1 0x1F AND DUP3 ADD SWAP2 JUMPDEST POP POP POP POP POP DUP2 MSTORE PUSH1 0x20 ADD SWAP1 PUSH1 0x1 ADD SWAP1 PUSH2 0xBA7 JUMP JUMPDEST POP POP POP POP DUP2 MSTORE PUSH1 0x20 ADD PUSH1 0x4 DUP3 ADD DUP1 SLOAD DUP1 PUSH1 0x20 MUL PUSH1 0x20 ADD PUSH1 0x40 MLOAD SWAP1 DUP2 ADD PUSH1 0x40 MSTORE DUP1 SWAP3 SWAP2 SWAP1 DUP2 DUP2 MSTORE PUSH1 0x20 ADD DUP3 DUP1 SLOAD DUP1 ISZERO PUSH2 0xCA4 JUMPI PUSH1 0x20 MUL DUP3 ADD SWAP2 SWAP1 PUSH0 MSTORE PUSH1 0x20 PUSH0 KECCAK256 SWAP1 JUMPDEST DUP2 SLOAD DUP2 MSTORE PUSH1 0x20 ADD SWAP1 PUSH1 0x1 ADD SWAP1 DUP1 DUP4 GT PUSH2 0xC90 JUMPI JUMPDEST POP POP POP POP POP DUP2 MSTORE PUSH1 0x20 ADD PUSH1 0x5 DUP3 ADD DUP1 SLOAD DUP1 PUSH1 0x20 MUL PUSH1 0x20 ADD PUSH1 0x40 MLOAD SWAP1 DUP2 ADD PUSH1 0x40 MSTORE DUP1 SWAP3 SWAP2 SWAP1 DUP2 DUP2 MSTORE PUSH1 0x20 ADD DUP3 DUP1 SLOAD DUP1 ISZERO PUSH2 0xCFA JUMPI PUSH1 0x20 MUL DUP3 ADD SWAP2 SWAP1 PUSH0 MSTORE PUSH1 0x20 PUSH0 KECCAK256 SWAP1 JUMPDEST DUP2 SLOAD DUP2 MSTORE PUSH1 0x20 ADD SWAP1 PUSH1 0x1 ADD SWAP1 DUP1 DUP4 GT PUSH2 0xCE6 JUMPI JUMPDEST POP POP POP POP POP DUP2 MSTORE POP POP SWAP1 POP SWAP2 SWAP1 POP JUMP JUMPDEST PUSH2 0xD12 PUSH2 0x1152 JUMP JUMPDEST PUSH0 PUSH1 0x3 PUSH0 DUP5 DUP2 MSTORE PUSH1 0x20 ADD SWAP1 DUP2 MSTORE PUSH1 0x20 ADD PUSH0 KECCAK256 PUSH0 ADD SLOAD SUB PUSH2 0xD67 JUMPI PUSH1 0x40 MLOAD PUSH32 0x8C379A000000000000000000000000000000000000000000000000000000000 DUP2 MSTORE PUSH1 0x4 ADD PUSH2 0xD5E SWAP1 PUSH2 0x2372 JUMP JUMPDEST PUSH1 0x40 MLOAD DUP1 SWAP2 SUB SWAP1 REVERT JUMPDEST PUSH1 0x3 PUSH0 DUP4 DUP2 MSTORE PUSH1 0x20 ADD SWAP1 DUP2 MSTORE PUSH1 0x20 ADD PUSH0 KECCAK256 PUSH1 0x40 MLOAD DUP1 PUSH1 0xA0 ADD PUSH1 0x40 MSTORE SWAP1 DUP2 PUSH0 DUP3 ADD SLOAD DUP2 MSTORE PUSH1 0x20 ADD PUSH1 0x1 DUP3 ADD DUP1 SLOAD PUSH2 0xD9C SWAP1 PUSH2 0x1DFA JUMP JUMPDEST DUP1 PUSH1 0x1F ADD PUSH1 0x20 DUP1 SWAP2 DIV MUL PUSH1 0x20 ADD PUSH1 0x40 MLOAD SWAP1 DUP2 ADD PUSH1 0x40 MSTORE DUP1 SWAP3 SWAP2 SWAP1 DUP2 DUP2 MSTORE PUSH1 0x20 ADD DUP3 DUP1 SLOAD PUSH2 0xDC8 SWAP1 PUSH2 0x1DFA JUMP JUMPDEST DUP1 ISZERO PUSH2 0xE13 JUMPI DUP1 PUSH1 0x1F LT PUSH2 0xDEA JUMPI PUSH2 0x100 DUP1 DUP4 SLOAD DIV MUL DUP4 MSTORE SWAP2 PUSH1 0x20 ADD SWAP2 PUSH2 0xE13 JUMP JUMPDEST DUP3 ADD SWAP2 SWAP1 PUSH0 MSTORE PUSH1 0x20 PUSH0 KECCAK256 SWAP1 JUMPDEST DUP2 SLOAD DUP2 MSTORE SWAP1 PUSH1 0x1 ADD SWAP1 PUSH1 0x20 ADD DUP1 DUP4 GT PUSH2 0xDF6 JUMPI DUP3 SWAP1 SUB PUSH1 0x1F AND DUP3 ADD SWAP2 JUMPDEST POP POP POP POP POP DUP2 MSTORE PUSH1 0x20 ADD PUSH1 0x2 DUP3 ADD DUP1 SLOAD PUSH2 0xE2C SWAP1 PUSH2 0x1DFA JUMP JUMPDEST DUP1 PUSH1 0x1F ADD PUSH1 0x20 DUP1 SWAP2 DIV MUL PUSH1 0x20 ADD PUSH1 0x40 MLOAD SWAP1 DUP2 ADD PUSH1 0x40 MSTORE DUP1 SWAP3 SWAP2 SWAP1 DUP2 DUP2 MSTORE PUSH1 0x20 ADD DUP3 DUP1 SLOAD PUSH2 0xE58 SWAP1 PUSH2 0x1DFA JUMP JUMPDEST DUP1 ISZERO PUSH2 0xEA3 JUMPI DUP1 PUSH1 0x1F LT PUSH2 0xE7A JUMPI PUSH2 0x100 DUP1 DUP4 SLOAD DIV MUL DUP4 MSTORE SWAP2 PUSH1 0x20 ADD SWAP2 PUSH2 0xEA3 JUMP JUMPDEST DUP3 ADD SWAP2 SWAP1 PUSH0 MSTORE PUSH1 0x20 PUSH0 KECCAK256 SWAP1 JUMPDEST DUP2 SLOAD DUP2 MSTORE SWAP1 PUSH1 0x1 ADD SWAP1 PUSH1 0x20 ADD DUP1 DUP4 GT PUSH2 0xE86 JUMPI DUP3 SWAP1 SUB PUSH1 0x1F AND DUP3 ADD SWAP2 JUMPDEST POP POP POP POP POP DUP2 MSTORE PUSH1 0x20 ADD PUSH1 0x3 DUP3 ADD DUP1 SLOAD PUSH2 0xEBC SWAP1 PUSH2 0x1DFA JUMP JUMPDEST DUP1 PUSH1 0x1F ADD PUSH1 0x20 DUP1 SWAP2 DIV MUL PUSH1 0x20 ADD PUSH1 0x40 MLOAD SWAP1 DUP2 ADD PUSH1 0x40 MSTORE DUP1 SWAP3 SWAP2 SWAP1 DUP2 DUP2 MSTORE PUSH1 0x20 ADD DUP3 DUP1 SLOAD PUSH2 0xEE8 SWAP1 PUSH2 0x1DFA JUMP JUMPDEST DUP1 ISZERO PUSH2 0xF33 JUMPI DUP1 PUSH1 0x1F LT PUSH2 0xF0A JUMPI PUSH2 0x100 DUP1 DUP4 SLOAD DIV MUL DUP4 MSTORE SWAP2 PUSH1 0x20 ADD SWAP2 PUSH2 0xF33 JUMP JUMPDEST DUP3 ADD SWAP2 SWAP1 PUSH0 MSTORE PUSH1 0x20 PUSH0 KECCAK256 SWAP1 JUMPDEST DUP2 SLOAD DUP2 MSTORE SWAP1 PUSH1 0x1 ADD SWAP1 PUSH1 0x20 ADD DUP1 DUP4 GT PUSH2 0xF16 JUMPI DUP3 SWAP1 SUB PUSH1 0x1F AND DUP3 ADD SWAP2 JUMPDEST POP POP POP POP POP DUP2 MSTORE PUSH1 0x20 ADD PUSH1 0x4 DUP3 ADD DUP1 SLOAD DUP1 PUSH1 0x20 MUL PUSH1 0x20 ADD PUSH1 0x40 MLOAD SWAP1 DUP2 ADD PUSH1 0x40 MSTORE DUP1 SWAP3 SWAP2 SWAP1 DUP2 DUP2 MSTORE PUSH1 0x20 ADD PUSH0 SWAP1 JUMPDEST DUP3 DUP3 LT ISZERO PUSH2 0x1008 JUMPI DUP4 DUP3 SWAP1 PUSH0 MSTORE PUSH1 0x20 PUSH0 KECCAK256 ADD DUP1 SLOAD PUSH2 0xF7D SWAP1 PUSH2 0x1DFA JUMP JUMPDEST DUP1 PUSH1 0x1F ADD PUSH1 0x20 DUP1 SWAP2 DIV MUL PUSH1 0x20 ADD PUSH1 0x40 MLOAD SWAP1 DUP2 ADD PUSH1 0x40 MSTORE DUP1 SWAP3 SWAP2 SWAP1 DUP2 DUP2 MSTORE PUSH1 0x20 ADD DUP3 DUP1 SLOAD PUSH2 0xFA9 SWAP1 PUSH2 0x1DFA JUMP JUMPDEST DUP1 ISZERO PUSH2 0xFF4 JUMPI DUP1 PUSH1 0x1F LT PUSH2 0xFCB JUMPI PUSH2 0x100 DUP1 DUP4 SLOAD DIV MUL DUP4 MSTORE SWAP2 PUSH1 0x20 ADD SWAP2 PUSH2 0xFF4 JUMP JUMPDEST DUP3 ADD SWAP2 SWAP1 PUSH0 MSTORE PUSH1 0x20 PUSH0 KECCAK256 SWAP1 JUMPDEST DUP2 SLOAD DUP2 MSTORE SWAP1 PUSH1 0x1 ADD SWAP1 PUSH1 0x20 ADD DUP1 DUP4 GT PUSH2 0xFD7 JUMPI DUP3 SWAP1 SUB PUSH1 0x1F AND DUP3 ADD SWAP2 JUMPDEST POP POP POP POP POP DUP2 MSTORE PUSH1 0x20 ADD SWAP1 PUSH1 0x1 ADD SWAP1 PUSH2 0xF60 JUMP JUMPDEST POP POP POP POP DUP2 MSTORE POP POP SWAP1 POP SWAP2 SWAP1 POP JUMP JUMPDEST DUP3 DUP1 SLOAD DUP3 DUP3 SSTORE SWAP1 PUSH0 MSTORE PUSH1 0x20 PUSH0 KECCAK256 SWAP1 DUP2 ADD SWAP3 DUP3 ISZERO PUSH2 0x105D JUMPI SWAP2 PUSH1 0x20 MUL DUP3 ADD JUMPDEST DUP3 DUP2 GT ISZERO PUSH2 0x105C JUMPI DUP3 MLOAD DUP3 SWAP1 DUP2 PUSH2 0x104C SWAP2 SWAP1 PUSH2 0x1FC7 JUMP JUMPDEST POP SWAP2 PUSH1 0x20 ADD SWAP2 SWAP1 PUSH1 0x1 ADD SWAP1 PUSH2 0x1035 JUMP JUMPDEST JUMPDEST POP SWAP1 POP PUSH2 0x106A SWAP2 SWAP1 PUSH2 0x1180 JUMP JUMPDEST POP SWAP1 JUMP JUMPDEST PUSH1 0x40 MLOAD DUP1 PUSH1 0x40 ADD PUSH1 0x40 MSTORE DUP1 PUSH0 DUP2 MSTORE PUSH1 0x20 ADD PUSH1 0x60 DUP2 MSTORE POP SWAP1 JUMP JUMPDEST DUP3 DUP1 SLOAD DUP3 DUP3 SSTORE SWAP1 PUSH0 MSTORE PUSH1 0x20 PUSH0 KECCAK256 SWAP1 DUP2 ADD SWAP3 DUP3 ISZERO PUSH2 0x10C1 JUMPI SWAP2 PUSH1 0x20 MUL DUP3 ADD JUMPDEST DUP3 DUP2 GT ISZERO PUSH2 0x10C0 JUMPI DUP3 MLOAD DUP3 SSTORE SWAP2 PUSH1 0x20 ADD SWAP2 SWAP1 PUSH1 0x1 ADD SWAP1 PUSH2 0x10A5 JUMP JUMPDEST JUMPDEST POP SWAP1 POP PUSH2 0x10CE SWAP2 SWAP1 PUSH2 0x11A3 JUMP JUMPDEST POP SWAP1 JUMP JUMPDEST DUP3 DUP1 SLOAD DUP3 DUP3 SSTORE SWAP1 PUSH0 MSTORE PUSH1 0x20 PUSH0 KECCAK256 SWAP1 DUP2 ADD SWAP3 DUP3 ISZERO PUSH2 0x110C JUMPI SWAP2 PUSH1 0x20 MUL DUP3 ADD JUMPDEST DUP3 DUP2 GT ISZERO PUSH2 0x110B JUMPI DUP3 MLOAD DUP3 SSTORE SWAP2 PUSH1 0x20 ADD SWAP2 SWAP1 PUSH1 0x1 ADD SWAP1 PUSH2 0x10F0 JUMP JUMPDEST JUMPDEST POP SWAP1 POP PUSH2 0x1119 SWAP2 SWAP1 PUSH2 0x11BE JUMP JUMPDEST POP SWAP1 JUMP JUMPDEST PUSH1 0x40 MLOAD DUP1 PUSH1 0xC0 ADD PUSH1 0x40 MSTORE DUP1 PUSH1 0x60 DUP2 MSTORE PUSH1 0x20 ADD PUSH1 0x60 DUP2 MSTORE PUSH1 0x20 ADD PUSH0 DUP2 MSTORE PUSH1 0x20 ADD PUSH1 0x60 DUP2 MSTORE PUSH1 0x20 ADD PUSH1 0x60 DUP2 MSTORE PUSH1 0x20 ADD PUSH1 0x60 DUP2 MSTORE POP SWAP1 JUMP JUMPDEST PUSH1 0x40 MLOAD DUP1 PUSH1 0xA0 ADD PUSH1 0x40 MSTORE DUP1 PUSH0 DUP2 MSTORE PUSH1 0x20 ADD PUSH1 0x60 DUP2 MSTORE PUSH1 0x20 ADD PUSH1 0x60 DUP2 MSTORE PUSH1 0x20 ADD PUSH1 0x60 DUP2 MSTORE PUSH1 0x20 ADD PUSH1 0x60 DUP2 MSTORE POP SWAP1 JUMP JUMPDEST JUMPDEST DUP1 DUP3 GT ISZERO PUSH2 0x119F JUMPI PUSH0 DUP2 DUP2 PUSH2 0x1196 SWAP2 SWAP1 PUSH2 0x11D9 JUMP JUMPDEST POP PUSH1 0x1 ADD PUSH2 0x1181 JUMP JUMPDEST POP SWAP1 JUMP JUMPDEST JUMPDEST DUP1 DUP3 GT ISZERO PUSH2 0x11BA JUMPI PUSH0 DUP2 PUSH0 SWAP1 SSTORE POP PUSH1 0x1 ADD PUSH2 0x11A4 JUMP JUMPDEST POP SWAP1 JUMP JUMPDEST JUMPDEST DUP1 DUP3 GT ISZERO PUSH2 0x11D5 JUMPI PUSH0 DUP2 PUSH0 SWAP1 SSTORE POP PUSH1 0x1 ADD PUSH2 0x11BF JUMP JUMPDEST POP SWAP1 JUMP JUMPDEST POP DUP1 SLOAD PUSH2 0x11E5 SWAP1 PUSH2 0x1DFA JUMP JUMPDEST PUSH0 DUP3 SSTORE DUP1 PUSH1 0x1F LT PUSH2 0x11F6 JUMPI POP PUSH2 0x1213 JUMP JUMPDEST PUSH1 0x1F ADD PUSH1 0x20 SWAP1 DIV SWAP1 PUSH0 MSTORE PUSH1 0x20 PUSH0 KECCAK256 SWAP1 DUP2 ADD SWAP1 PUSH2 0x1212 SWAP2 SWAP1 PUSH2 0x11A3 JUMP JUMPDEST JUMPDEST POP JUMP JUMPDEST PUSH0 PUSH1 0x40 MLOAD SWAP1 POP SWAP1 JUMP JUMPDEST PUSH0 DUP1 REVERT JUMPDEST PUSH0 DUP1 REVERT JUMPDEST PUSH0 DUP2 SWAP1 POP SWAP2 SWAP1 POP JUMP JUMPDEST PUSH2 0x1239 DUP2 PUSH2 0x1227 JUMP JUMPDEST DUP2 EQ PUSH2 0x1243 JUMPI PUSH0 DUP1 REVERT JUMPDEST POP JUMP JUMPDEST PUSH0 DUP2 CALLDATALOAD SWAP1 POP PUSH2 0x1254 DUP2 PUSH2 0x1230 JUMP JUMPDEST SWAP3 SWAP2 POP POP JUMP JUMPDEST PUSH0 DUP1 REVERT JUMPDEST PUSH0 DUP1 REVERT JUMPDEST PUSH0 PUSH1 0x1F NOT PUSH1 0x1F DUP4 ADD AND SWAP1 POP SWAP2 SWAP1 POP JUMP JUMPDEST PUSH32 0x4E487B7100000000000000000000000000000000000000000000000000000000 PUSH0 MSTORE PUSH1 0x41 PUSH1 0x4 MSTORE PUSH1 0x24 PUSH0 REVERT JUMPDEST PUSH2 0x12A8 DUP3 PUSH2 0x1262 JUMP JUMPDEST DUP2 ADD DUP2 DUP2 LT PUSH8 0xFFFFFFFFFFFFFFFF DUP3 GT OR ISZERO PUSH2 0x12C7 JUMPI PUSH2 0x12C6 PUSH2 0x1272 JUMP JUMPDEST JUMPDEST DUP1 PUSH1 0x40 MSTORE POP POP POP JUMP JUMPDEST PUSH0 PUSH2 0x12D9 PUSH2 0x1216 JUMP JUMPDEST SWAP1 POP PUSH2 0x12E5 DUP3 DUP3 PUSH2 0x129F JUMP JUMPDEST SWAP2 SWAP1 POP JUMP JUMPDEST PUSH0 PUSH8 0xFFFFFFFFFFFFFFFF DUP3 GT ISZERO PUSH2 0x1304 JUMPI PUSH2 0x1303 PUSH2 0x1272 JUMP JUMPDEST JUMPDEST PUSH2 0x130D DUP3 PUSH2 0x1262 JUMP JUMPDEST SWAP1 POP PUSH1 0x20 DUP2 ADD SWAP1 POP SWAP2 SWAP1 POP JUMP JUMPDEST DUP3 DUP2 DUP4 CALLDATACOPY PUSH0 DUP4 DUP4 ADD MSTORE POP POP POP JUMP JUMPDEST PUSH0 PUSH2 0x133A PUSH2 0x1335 DUP5 PUSH2 0x12EA JUMP JUMPDEST PUSH2 0x12D0 JUMP JUMPDEST SWAP1 POP DUP3 DUP2 MSTORE PUSH1 0x20 DUP2 ADD DUP5 DUP5 DUP5 ADD GT ISZERO PUSH2 0x1356 JUMPI PUSH2 0x1355 PUSH2 0x125E JUMP JUMPDEST JUMPDEST PUSH2 0x1361 DUP5 DUP3 DUP6 PUSH2 0x131A JUMP JUMPDEST POP SWAP4 SWAP3 POP POP POP JUMP JUMPDEST PUSH0 DUP3 PUSH1 0x1F DUP4 ADD SLT PUSH2 0x137D JUMPI PUSH2 0x137C PUSH2 0x125A JUMP JUMPDEST JUMPDEST DUP2 CALLDATALOAD PUSH2 0x138D DUP5 DUP3 PUSH1 0x20 DUP7 ADD PUSH2 0x1328 JUMP JUMPDEST SWAP2 POP POP SWAP3 SWAP2 POP POP JUMP JUMPDEST PUSH0 PUSH8 0xFFFFFFFFFFFFFFFF DUP3 GT ISZERO PUSH2 0x13B0 JUMPI PUSH2 0x13AF PUSH2 0x1272 JUMP JUMPDEST JUMPDEST PUSH1 0x20 DUP3 MUL SWAP1 POP PUSH1 0x20 DUP2 ADD SWAP1 POP SWAP2 SWAP1 POP JUMP JUMPDEST PUSH0 DUP1 REVERT JUMPDEST PUSH0 PUSH2 0x13D7 PUSH2 0x13D2 DUP5 PUSH2 0x1396 JUMP JUMPDEST PUSH2 0x12D0 JUMP JUMPDEST SWAP1 POP DUP1 DUP4 DUP3 MSTORE PUSH1 0x20 DUP3 ADD SWAP1 POP PUSH1 0x20 DUP5 MUL DUP4 ADD DUP6 DUP2 GT ISZERO PUSH2 0x13FA JUMPI PUSH2 0x13F9 PUSH2 0x13C1 JUMP JUMPDEST JUMPDEST DUP4 JUMPDEST DUP2 DUP2 LT ISZERO PUSH2 0x1441 JUMPI DUP1 CALLDATALOAD PUSH8 0xFFFFFFFFFFFFFFFF DUP2 GT ISZERO PUSH2 0x141F JUMPI PUSH2 0x141E PUSH2 0x125A JUMP JUMPDEST JUMPDEST DUP1 DUP7 ADD PUSH2 0x142C DUP10 DUP3 PUSH2 0x1369 JUMP JUMPDEST DUP6 MSTORE PUSH1 0x20 DUP6 ADD SWAP5 POP POP POP PUSH1 0x20 DUP2 ADD SWAP1 POP PUSH2 0x13FC JUMP JUMPDEST POP POP POP SWAP4 SWAP3 POP POP POP JUMP JUMPDEST PUSH0 DUP3 PUSH1 0x1F DUP4 ADD SLT PUSH2 0x145F JUMPI PUSH2 0x145E PUSH2 0x125A JUMP JUMPDEST JUMPDEST DUP2 CALLDATALOAD PUSH2 0x146F DUP5 DUP3 PUSH1 0x20 DUP7 ADD PUSH2 0x13C5 JUMP JUMPDEST SWAP2 POP POP SWAP3 SWAP2 POP POP JUMP JUMPDEST PUSH0 DUP1 PUSH0 DUP1 PUSH0 PUSH1 0xA0 DUP7 DUP9 SUB SLT ISZERO PUSH2 0x1491 JUMPI PUSH2 0x1490 PUSH2 0x121F JUMP JUMPDEST JUMPDEST PUSH0 PUSH2 0x149E DUP9 DUP3 DUP10 ADD PUSH2 0x1246 JUMP JUMPDEST SWAP6 POP POP PUSH1 0x20 DUP7 ADD CALLDATALOAD PUSH8 0xFFFFFFFFFFFFFFFF DUP2 GT ISZERO PUSH2 0x14BF JUMPI PUSH2 0x14BE PUSH2 0x1223 JUMP JUMPDEST JUMPDEST PUSH2 0x14CB DUP9 DUP3 DUP10 ADD PUSH2 0x1369 JUMP JUMPDEST SWAP5 POP POP PUSH1 0x40 DUP7 ADD CALLDATALOAD PUSH8 0xFFFFFFFFFFFFFFFF DUP2 GT ISZERO PUSH2 0x14EC JUMPI PUSH2 0x14EB PUSH2 0x1223 JUMP JUMPDEST JUMPDEST PUSH2 0x14F8 DUP9 DUP3 DUP10 ADD PUSH2 0x1369 JUMP JUMPDEST SWAP4 POP POP PUSH1 0x60 DUP7 ADD CALLDATALOAD PUSH8 0xFFFFFFFFFFFFFFFF DUP2 GT ISZERO PUSH2 0x1519 JUMPI PUSH2 0x1518 PUSH2 0x1223 JUMP JUMPDEST JUMPDEST PUSH2 0x1525 DUP9 DUP3 DUP10 ADD PUSH2 0x1369 JUMP JUMPDEST SWAP3 POP POP PUSH1 0x80 DUP7 ADD CALLDATALOAD PUSH8 0xFFFFFFFFFFFFFFFF DUP2 GT ISZERO PUSH2 0x1546 JUMPI PUSH2 0x1545 PUSH2 0x1223 JUMP JUMPDEST JUMPDEST PUSH2 0x1552 DUP9 DUP3 DUP10 ADD PUSH2 0x144B JUMP JUMPDEST SWAP2 POP POP SWAP3 SWAP6 POP SWAP3 SWAP6 SWAP1 SWAP4 POP JUMP JUMPDEST PUSH0 DUP2 MLOAD SWAP1 POP SWAP2 SWAP1 POP JUMP JUMPDEST PUSH0 DUP3 DUP3 MSTORE PUSH1 0x20 DUP3 ADD SWAP1 POP SWAP3 SWAP2 POP POP JUMP JUMPDEST PUSH0 DUP2 SWAP1 POP PUSH1 0x20 DUP3 ADD SWAP1 POP SWAP2 SWAP1 POP JUMP JUMPDEST PUSH2 0x1591 DUP2 PUSH2 0x1227 JUMP JUMPDEST DUP3 MSTORE POP POP JUMP JUMPDEST PUSH0 PUSH2 0x15A2 DUP4 DUP4 PUSH2 0x1588 JUMP JUMPDEST PUSH1 0x20 DUP4 ADD SWAP1 POP SWAP3 SWAP2 POP POP JUMP JUMPDEST PUSH0 PUSH1 0x20 DUP3 ADD SWAP1 POP SWAP2 SWAP1 POP JUMP JUMPDEST PUSH0 PUSH2 0x15C4 DUP3 PUSH2 0x155F JUMP JUMPDEST PUSH2 0x15CE DUP2 DUP6 PUSH2 0x1569 JUMP JUMPDEST SWAP4 POP PUSH2 0x15D9 DUP4 PUSH2 0x1579 JUMP JUMPDEST DUP1 PUSH0 JUMPDEST DUP4 DUP2 LT ISZERO PUSH2 0x1609 JUMPI DUP2 MLOAD PUSH2 0x15F0 DUP9 DUP3 PUSH2 0x1597 JUMP JUMPDEST SWAP8 POP PUSH2 0x15FB DUP4 PUSH2 0x15AE JUMP JUMPDEST SWAP3 POP POP PUSH1 0x1 DUP2 ADD SWAP1 POP PUSH2 0x15DC JUMP JUMPDEST POP DUP6 SWAP4 POP POP POP POP SWAP3 SWAP2 POP POP JUMP JUMPDEST PUSH0 PUSH1 0x20 DUP3 ADD SWAP1 POP DUP2 DUP2 SUB PUSH0 DUP4 ADD MSTORE PUSH2 0x162E DUP2 DUP5 PUSH2 0x15BA JUMP JUMPDEST SWAP1 POP SWAP3 SWAP2 POP POP JUMP JUMPDEST PUSH0 PUSH1 0x20 DUP3 DUP5 SUB SLT ISZERO PUSH2 0x164B JUMPI PUSH2 0x164A PUSH2 0x121F JUMP JUMPDEST JUMPDEST PUSH0 PUSH2 0x1658 DUP5 DUP3 DUP6 ADD PUSH2 0x1246 JUMP JUMPDEST SWAP2 POP POP SWAP3 SWAP2 POP POP JUMP JUMPDEST PUSH2 0x166A DUP2 PUSH2 0x1227 JUMP JUMPDEST DUP3 MSTORE POP POP JUMP JUMPDEST PUSH0 PUSH1 0x20 DUP3 ADD SWAP1 POP PUSH2 0x1683 PUSH0 DUP4 ADD DUP5 PUSH2 0x1661 JUMP JUMPDEST SWAP3 SWAP2 POP POP JUMP JUMPDEST PUSH0 DUP1 PUSH1 0x40 DUP4 DUP6 SUB SLT ISZERO PUSH2 0x169F JUMPI PUSH2 0x169E PUSH2 0x121F JUMP JUMPDEST JUMPDEST PUSH0 PUSH2 0x16AC DUP6 DUP3 DUP7 ADD PUSH2 0x1246 JUMP JUMPDEST SWAP3 POP POP PUSH1 0x20 DUP4 ADD CALLDATALOAD PUSH8 0xFFFFFFFFFFFFFFFF DUP2 GT ISZERO PUSH2 0x16CD JUMPI PUSH2 0x16CC PUSH2 0x1223 JUMP JUMPDEST JUMPDEST PUSH2 0x16D9 DUP6 DUP3 DUP7 ADD PUSH2 0x1369 JUMP JUMPDEST SWAP2 POP POP SWAP3 POP SWAP3 SWAP1 POP JUMP JUMPDEST PUSH0 PUSH20 0xFFFFFFFFFFFFFFFFFFFFFFFFFFFFFFFFFFFFFFFF DUP3 AND SWAP1 POP SWAP2 SWAP1 POP JUMP JUMPDEST PUSH0 PUSH2 0x170C DUP3 PUSH2 0x16E3 JUMP JUMPDEST SWAP1 POP SWAP2 SWAP1 POP JUMP JUMPDEST PUSH2 0x171C DUP2 PUSH2 0x1702 JUMP JUMPDEST DUP3 MSTORE POP POP JUMP JUMPDEST PUSH0 PUSH1 0x20 DUP3 ADD SWAP1 POP PUSH2 0x1735 PUSH0 DUP4 ADD DUP5 PUSH2 0x1713 JUMP JUMPDEST SWAP3 SWAP2 POP POP JUMP JUMPDEST PUSH0 DUP2 SWAP1 POP SWAP2 SWAP1 POP JUMP JUMPDEST PUSH2 0x174D DUP2 PUSH2 0x173B JUMP JUMPDEST DUP3 MSTORE POP POP JUMP JUMPDEST PUSH0 PUSH1 0x20 DUP3 ADD SWAP1 POP PUSH2 0x1766 PUSH0 DUP4 ADD DUP5 PUSH2 0x1744 JUMP JUMPDEST SWAP3 SWAP2 POP POP JUMP JUMPDEST PUSH0 DUP2 MLOAD SWAP1 POP SWAP2 SWAP1 POP JUMP JUMPDEST PUSH0 DUP3 DUP3 MSTORE PUSH1 0x20 DUP3 ADD SWAP1 POP SWAP3 SWAP2 POP POP JUMP JUMPDEST PUSH0 JUMPDEST DUP4 DUP2 LT ISZERO PUSH2 0x17A3 JUMPI DUP1 DUP3 ADD MLOAD DUP2 DUP5 ADD MSTORE PUSH1 0x20 DUP2 ADD SWAP1 POP PUSH2 0x1788 JUMP JUMPDEST PUSH0 DUP5 DUP5 ADD MSTORE POP POP POP POP JUMP JUMPDEST PUSH0 PUSH2 0x17B8 DUP3 PUSH2 0x176C JUMP JUMPDEST PUSH2 0x17C2 DUP2 DUP6 PUSH2 0x1776 JUMP JUMPDEST SWAP4 POP PUSH2 0x17D2 DUP2 DUP6 PUSH1 0x20 DUP7 ADD PUSH2 0x1786 JUMP JUMPDEST PUSH2 0x17DB DUP2 PUSH2 0x1262 JUMP JUMPDEST DUP5 ADD SWAP2 POP POP SWAP3 SWAP2 POP POP JUMP JUMPDEST PUSH0 PUSH1 0x40 DUP4 ADD PUSH0 DUP4 ADD MLOAD PUSH2 0x17FB PUSH0 DUP7 ADD DUP3 PUSH2 0x1588 JUMP JUMPDEST POP PUSH1 0x20 DUP4 ADD MLOAD DUP5 DUP3 SUB PUSH1 0x20 DUP7 ADD MSTORE PUSH2 0x1813 DUP3 DUP3 PUSH2 0x17AE JUMP JUMPDEST SWAP2 POP POP DUP1 SWAP2 POP POP SWAP3 SWAP2 POP POP JUMP JUMPDEST PUSH0 PUSH1 0x20 DUP3 ADD SWAP1 POP DUP2 DUP2 SUB PUSH0 DUP4 ADD MSTORE PUSH2 0x1838 DUP2 DUP5 PUSH2 0x17E6 JUMP JUMPDEST SWAP1 POP SWAP3 SWAP2 POP POP JUMP JUMPDEST PUSH0 PUSH8 0xFFFFFFFFFFFFFFFF DUP3 GT ISZERO PUSH2 0x185A JUMPI PUSH2 0x1859 PUSH2 0x1272 JUMP JUMPDEST JUMPDEST PUSH1 0x20 DUP3 MUL SWAP1 POP PUSH1 0x20 DUP2 ADD SWAP1 POP SWAP2 SWAP1 POP JUMP JUMPDEST PUSH0 PUSH2 0x187D PUSH2 0x1878 DUP5 PUSH2 0x1840 JUMP JUMPDEST PUSH2 0x12D0 JUMP JUMPDEST SWAP1 POP DUP1 DUP4 DUP3 MSTORE PUSH1 0x20 DUP3 ADD SWAP1 POP PUSH1 0x20 DUP5 MUL DUP4 ADD DUP6 DUP2 GT ISZERO PUSH2 0x18A0 JUMPI PUSH2 0x189F PUSH2 0x13C1 JUMP JUMPDEST JUMPDEST DUP4 JUMPDEST DUP2 DUP2 LT ISZERO PUSH2 0x18C9 JUMPI DUP1 PUSH2 0x18B5 DUP9 DUP3 PUSH2 0x1246 JUMP JUMPDEST DUP5 MSTORE PUSH1 0x20 DUP5 ADD SWAP4 POP POP PUSH1 0x20 DUP2 ADD SWAP1 POP PUSH2 0x18A2 JUMP JUMPDEST POP POP POP SWAP4 SWAP3 POP POP POP JUMP JUMPDEST PUSH0 DUP3 PUSH1 0x1F DUP4 ADD SLT PUSH2 0x18E7 JUMPI PUSH2 0x18E6 PUSH2 0x125A JUMP JUMPDEST JUMPDEST DUP2 CALLDATALOAD PUSH2 0x18F7 DUP5 DUP3 PUSH1 0x20 DUP7 ADD PUSH2 0x186B JUMP JUMPDEST SWAP2 POP POP SWAP3 SWAP2 POP POP JUMP JUMPDEST PUSH0 DUP1 PUSH0 DUP1 PUSH0 PUSH1 0xA0 DUP7 DUP9 SUB SLT ISZERO PUSH2 0x1919 JUMPI PUSH2 0x1918 PUSH2 0x121F JUMP JUMPDEST JUMPDEST PUSH0 DUP7 ADD CALLDATALOAD PUSH8 0xFFFFFFFFFFFFFFFF DUP2 GT ISZERO PUSH2 0x1936 JUMPI PUSH2 0x1935 PUSH2 0x1223 JUMP JUMPDEST JUMPDEST PUSH2 0x1942 DUP9 DUP3 DUP10 ADD PUSH2 0x1369 JUMP JUMPDEST SWAP6 POP POP PUSH1 0x20 DUP7 ADD CALLDATALOAD PUSH8 0xFFFFFFFFFFFFFFFF DUP2 GT ISZERO PUSH2 0x1963 JUMPI PUSH2 0x1962 PUSH2 0x1223 JUMP JUMPDEST JUMPDEST PUSH2 0x196F DUP9 DUP3 DUP10 ADD PUSH2 0x1369 JUMP JUMPDEST SWAP5 POP POP PUSH1 0x40 PUSH2 0x1980 DUP9 DUP3 DUP10 ADD PUSH2 0x1246 JUMP JUMPDEST SWAP4 POP POP PUSH1 0x60 DUP7 ADD CALLDATALOAD PUSH8 0xFFFFFFFFFFFFFFFF DUP2 GT ISZERO PUSH2 0x19A1 JUMPI PUSH2 0x19A0 PUSH2 0x1223 JUMP JUMPDEST JUMPDEST PUSH2 0x19AD DUP9 DUP3 DUP10 ADD PUSH2 0x144B JUMP JUMPDEST SWAP3 POP POP PUSH1 0x80 DUP7 ADD CALLDATALOAD PUSH8 0xFFFFFFFFFFFFFFFF DUP2 GT ISZERO PUSH2 0x19CE JUMPI PUSH2 0x19CD PUSH2 0x1223 JUMP JUMPDEST JUMPDEST PUSH2 0x19DA DUP9 DUP3 DUP10 ADD PUSH2 0x18D3 JUMP JUMPDEST SWAP2 POP POP SWAP3 SWAP6 POP SWAP3 SWAP6 SWAP1 SWAP4 POP JUMP JUMPDEST PUSH0 DUP2 MLOAD SWAP1 POP SWAP2 SWAP1 POP JUMP JUMPDEST PUSH0 DUP3 DUP3 MSTORE PUSH1 0x20 DUP3 ADD SWAP1 POP SWAP3 SWAP2 POP POP JUMP JUMPDEST PUSH0 DUP2 SWAP1 POP PUSH1 0x20 DUP3 ADD SWAP1 POP SWAP2 SWAP1 POP JUMP JUMPDEST PUSH0 PUSH2 0x1A1B DUP4 DUP4 PUSH2 0x17AE JUMP JUMPDEST SWAP1 POP SWAP3 SWAP2 POP POP JUMP JUMPDEST PUSH0 PUSH1 0x20 DUP3 ADD SWAP1 POP SWAP2 SWAP1 POP JUMP JUMPDEST PUSH0 PUSH2 0x1A39 DUP3 PUSH2 0x19E7 JUMP JUMPDEST PUSH2 0x1A43 DUP2 DUP6 PUSH2 0x19F1 JUMP JUMPDEST SWAP4 POP DUP4 PUSH1 0x20 DUP3 MUL DUP6 ADD PUSH2 0x1A55 DUP6 PUSH2 0x1A01 JUMP JUMPDEST DUP1 PUSH0 JUMPDEST DUP6 DUP2 LT ISZERO PUSH2 0x1A90 JUMPI DUP5 DUP5 SUB DUP10 MSTORE DUP2 MLOAD PUSH2 0x1A71 DUP6 DUP3 PUSH2 0x1A10 JUMP JUMPDEST SWAP5 POP PUSH2 0x1A7C DUP4 PUSH2 0x1A23 JUMP JUMPDEST SWAP3 POP PUSH1 0x20 DUP11 ADD SWAP10 POP POP PUSH1 0x1 DUP2 ADD SWAP1 POP PUSH2 0x1A58 JUMP JUMPDEST POP DUP3 SWAP8 POP DUP8 SWAP6 POP POP POP POP POP POP SWAP3 SWAP2 POP POP JUMP JUMPDEST PUSH0 DUP3 DUP3 MSTORE PUSH1 0x20 DUP3 ADD SWAP1 POP SWAP3 SWAP2 POP POP JUMP JUMPDEST PUSH0 PUSH2 0x1ABC DUP3 PUSH2 0x155F JUMP JUMPDEST PUSH2 0x1AC6 DUP2 DUP6 PUSH2 0x1AA2 JUMP JUMPDEST SWAP4 POP PUSH2 0x1AD1 DUP4 PUSH2 0x1579 JUMP JUMPDEST DUP1 PUSH0 JUMPDEST DUP4 DUP2 LT ISZERO PUSH2 0x1B01 JUMPI DUP2 MLOAD PUSH2 0x1AE8 DUP9 DUP3 PUSH2 0x1597 JUMP JUMPDEST SWAP8 POP PUSH2 0x1AF3 DUP4 PUSH2 0x15AE JUMP JUMPDEST SWAP3 POP POP PUSH1 0x1 DUP2 ADD SWAP1 POP PUSH2 0x1AD4 JUMP JUMPDEST POP DUP6 SWAP4 POP POP POP POP SWAP3 SWAP2 POP POP JUMP JUMPDEST PUSH0 DUP2 MLOAD SWAP1 POP SWAP2 SWAP1 POP JUMP JUMPDEST PUSH0 DUP3 DUP3 MSTORE PUSH1 0x20 DUP3 ADD SWAP1 POP SWAP3 SWAP2 POP POP JUMP JUMPDEST PUSH0 DUP2 SWAP1 POP PUSH1 0x20 DUP3 ADD SWAP1 POP SWAP2 SWAP1 POP JUMP JUMPDEST PUSH2 0x1B40 DUP2 PUSH2 0x173B JUMP JUMPDEST DUP3 MSTORE POP POP JUMP JUMPDEST PUSH0 PUSH2 0x1B51 DUP4 DUP4 PUSH2 0x1B37 JUMP JUMPDEST PUSH1 0x20 DUP4 ADD SWAP1 POP SWAP3 SWAP2 POP POP JUMP JUMPDEST PUSH0 PUSH1 0x20 DUP3 ADD SWAP1 POP SWAP2 SWAP1 POP JUMP JUMPDEST PUSH0 PUSH2 0x1B73 DUP3 PUSH2 0x1B0E JUMP JUMPDEST PUSH2 0x1B7D DUP2 DUP6 PUSH2 0x1B18 JUMP JUMPDEST SWAP4 POP PUSH2 0x1B88 DUP4 PUSH2 0x1B28 JUMP JUMPDEST DUP1 PUSH0 JUMPDEST DUP4 DUP2 LT ISZERO PUSH2 0x1BB8 JUMPI DUP2 MLOAD PUSH2 0x1B9F DUP9 DUP3 PUSH2 0x1B46 JUMP JUMPDEST SWAP8 POP PUSH2 0x1BAA DUP4 PUSH2 0x1B5D JUMP JUMPDEST SWAP3 POP POP PUSH1 0x1 DUP2 ADD SWAP1 POP PUSH2 0x1B8B JUMP JUMPDEST POP DUP6 SWAP4 POP POP POP POP SWAP3 SWAP2 POP POP JUMP JUMPDEST PUSH0 PUSH1 0xC0 DUP4 ADD PUSH0 DUP4 ADD MLOAD DUP5 DUP3 SUB PUSH0 DUP7 ADD MSTORE PUSH2 0x1BDF DUP3 DUP3 PUSH2 0x17AE JUMP JUMPDEST SWAP2 POP POP PUSH1 0x20 DUP4 ADD MLOAD DUP5 DUP3 SUB PUSH1 0x20 DUP7 ADD MSTORE PUSH2 0x1BF9 DUP3 DUP3 PUSH2 0x17AE JUMP JUMPDEST SWAP2 POP POP PUSH1 0x40 DUP4 ADD MLOAD PUSH2 0x1C0E PUSH1 0x40 DUP7 ADD DUP3 PUSH2 0x1588 JUMP JUMPDEST POP PUSH1 0x60 DUP4 ADD MLOAD DUP5 DUP3 SUB PUSH1 0x60 DUP7 ADD MSTORE PUSH2 0x1C26 DUP3 DUP3 PUSH2 0x1A2F JUMP JUMPDEST SWAP2 POP POP PUSH1 0x80 DUP4 ADD MLOAD DUP5 DUP3 SUB PUSH1 0x80 DUP7 ADD MSTORE PUSH2 0x1C40 DUP3 DUP3 PUSH2 0x1AB2 JUMP JUMPDEST SWAP2 POP POP PUSH1 0xA0 DUP4 ADD MLOAD DUP5 DUP3 SUB PUSH1 0xA0 DUP7 ADD MSTORE PUSH2 0x1C5A DUP3 DUP3 PUSH2 0x1B69 JUMP JUMPDEST SWAP2 POP POP DUP1 SWAP2 POP POP SWAP3 SWAP2 POP POP JUMP JUMPDEST PUSH0 PUSH1 0x20 DUP3 ADD SWAP1 POP DUP2 DUP2 SUB PUSH0 DUP4 ADD MSTORE PUSH2 0x1C7F DUP2 DUP5 PUSH2 0x1BC5 JUMP JUMPDEST SWAP1 POP SWAP3 SWAP2 POP POP JUMP JUMPDEST PUSH0 PUSH1 0xA0 DUP4 ADD PUSH0 DUP4 ADD MLOAD PUSH2 0x1C9C PUSH0 DUP7 ADD DUP3 PUSH2 0x1588 JUMP JUMPDEST POP PUSH1 0x20 DUP4 ADD MLOAD DUP5 DUP3 SUB PUSH1 0x20 DUP7 ADD MSTORE PUSH2 0x1CB4 DUP3 DUP3 PUSH2 0x17AE JUMP JUMPDEST SWAP2 POP POP PUSH1 0x40 DUP4 ADD MLOAD DUP5 DUP3 SUB PUSH1 0x40 DUP7 ADD MSTORE PUSH2 0x1CCE DUP3 DUP3 PUSH2 0x17AE JUMP JUMPDEST SWAP2 POP POP PUSH1 0x60 DUP4 ADD MLOAD DUP5 DUP3 SUB PUSH1 0x60 DUP7 ADD MSTORE PUSH2 0x1CE8 DUP3 DUP3 PUSH2 0x17AE JUMP JUMPDEST SWAP2 POP POP PUSH1 0x80 DUP4 ADD MLOAD DUP5 DUP3 SUB PUSH1 0x80 DUP7 ADD MSTORE PUSH2 0x1D02 DUP3 DUP3 PUSH2 0x1A2F JUMP JUMPDEST SWAP2 POP POP DUP1 SWAP2 POP POP SWAP3 SWAP2 POP POP JUMP JUMPDEST PUSH0 PUSH1 0x20 DUP3 ADD SWAP1 POP DUP2 DUP2 SUB PUSH0 DUP4 ADD MSTORE PUSH2 0x1D27 DUP2 DUP5 PUSH2 0x1C87 JUMP JUMPDEST SWAP1 POP SWAP3 SWAP2 POP POP JUMP JUMPDEST PUSH0 DUP3 DUP3 MSTORE PUSH1 0x20 DUP3 ADD SWAP1 POP SWAP3 SWAP2 POP POP JUMP JUMPDEST PUSH32 0x4F6E6C792074686520636F6E7472616374206F776E65722063616E2070657266 PUSH0 DUP3 ADD MSTORE PUSH32 0x6F726D2074686973206F7065726174696F6E0000000000000000000000000000 PUSH1 0x20 DUP3 ADD MSTORE POP JUMP JUMPDEST PUSH0 PUSH2 0x1D99 PUSH1 0x32 DUP4 PUSH2 0x1D2F JUMP JUMPDEST SWAP2 POP PUSH2 0x1DA4 DUP3 PUSH2 0x1D3F JUMP JUMPDEST PUSH1 0x40 DUP3 ADD SWAP1 POP SWAP2 SWAP1 POP JUMP JUMPDEST PUSH0 PUSH1 0x20 DUP3 ADD SWAP1 POP DUP2 DUP2 SUB PUSH0 DUP4 ADD MSTORE PUSH2 0x1DC6 DUP2 PUSH2 0x1D8D JUMP JUMPDEST SWAP1 POP SWAP2 SWAP1 POP JUMP JUMPDEST PUSH32 0x4E487B7100000000000000000000000000000000000000000000000000000000 PUSH0 MSTORE PUSH1 0x22 PUSH1 0x4 MSTORE PUSH1 0x24 PUSH0 REVERT JUMPDEST PUSH0 PUSH1 0x2 DUP3 DIV SWAP1 POP PUSH1 0x1 DUP3 AND DUP1 PUSH2 0x1E11 JUMPI PUSH1 0x7F DUP3 AND SWAP2 POP JUMPDEST PUSH1 0x20 DUP3 LT DUP2 SUB PUSH2 0x1E24 JUMPI PUSH2 0x1E23 PUSH2 0x1DCD JUMP JUMPDEST JUMPDEST POP SWAP2 SWAP1 POP JUMP JUMPDEST PUSH0 DUP2 SWAP1 POP DUP2 PUSH0 MSTORE PUSH1 0x20 PUSH0 KECCAK256 SWAP1 POP SWAP2 SWAP1 POP JUMP JUMPDEST PUSH0 PUSH1 0x20 PUSH1 0x1F DUP4 ADD DIV SWAP1 POP SWAP2 SWAP1 POP JUMP JUMPDEST PUSH0 DUP3 DUP3 SHL SWAP1 POP SWAP3 SWAP2 POP POP JUMP JUMPDEST PUSH0 PUSH1 0x8 DUP4 MUL PUSH2 0x1E86 PUSH32 0xFFFFFFFFFFFFFFFFFFFFFFFFFFFFFFFFFFFFFFFFFFFFFFFFFFFFFFFFFFFFFFFF DUP3 PUSH2 0x1E4B JUMP JUMPDEST PUSH2 0x1E90 DUP7 DUP4 PUSH2 0x1E4B JUMP JUMPDEST SWAP6 POP DUP1 NOT DUP5 AND SWAP4 POP DUP1 DUP7 AND DUP5 OR SWAP3 POP POP POP SWAP4 SWAP3 POP POP POP JUMP JUMPDEST PUSH0 DUP2 SWAP1 POP SWAP2 SWAP1 POP JUMP JUMPDEST PUSH0 PUSH2 0x1ECB PUSH2 0x1EC6 PUSH2 0x1EC1 DUP5 PUSH2 0x1227 JUMP JUMPDEST PUSH2 0x1EA8 JUMP JUMPDEST PUSH2 0x1227 JUMP JUMPDEST SWAP1 POP SWAP2 SWAP1 POP JUMP JUMPDEST PUSH0 DUP2 SWAP1 POP SWAP2 SWAP1 POP JUMP JUMPDEST PUSH2 0x1EE4 DUP4 PUSH2 0x1EB1 JUMP JUMPDEST PUSH2 0x1EF8 PUSH2 0x1EF0 DUP3 PUSH2 0x1ED2 JUMP JUMPDEST DUP5 DUP5 SLOAD PUSH2 0x1E57 JUMP JUMPDEST DUP3 SSTORE POP POP POP POP JUMP JUMPDEST PUSH0 SWAP1 JUMP JUMPDEST PUSH2 0x1F0C PUSH2 0x1F00 JUMP JUMPDEST PUSH2 0x1F17 DUP2 DUP5 DUP5 PUSH2 0x1EDB JUMP JUMPDEST POP POP POP JUMP JUMPDEST JUMPDEST DUP2 DUP2 LT ISZERO PUSH2 0x1F3A JUMPI PUSH2 0x1F2F PUSH0 DUP3 PUSH2 0x1F04 JUMP JUMPDEST PUSH1 0x1 DUP2 ADD SWAP1 POP PUSH2 0x1F1D JUMP JUMPDEST POP POP JUMP JUMPDEST PUSH1 0x1F DUP3 GT ISZERO PUSH2 0x1F7F JUMPI PUSH2 0x1F50 DUP2 PUSH2 0x1E2A JUMP JUMPDEST PUSH2 0x1F59 DUP5 PUSH2 0x1E3C JUMP JUMPDEST DUP2 ADD PUSH1 0x20 DUP6 LT ISZERO PUSH2 0x1F68 JUMPI DUP2 SWAP1 POP JUMPDEST PUSH2 0x1F7C PUSH2 0x1F74 DUP6 PUSH2 0x1E3C JUMP JUMPDEST DUP4 ADD DUP3 PUSH2 0x1F1C JUMP JUMPDEST POP POP JUMPDEST POP POP POP JUMP JUMPDEST PUSH0 DUP3 DUP3 SHR SWAP1 POP SWAP3 SWAP2 POP POP JUMP JUMPDEST PUSH0 PUSH2 0x1F9F PUSH0 NOT DUP5 PUSH1 0x8 MUL PUSH2 0x1F84 JUMP JUMPDEST NOT DUP1 DUP4 AND SWAP2 POP POP SWAP3 SWAP2 POP POP JUMP JUMPDEST PUSH0 PUSH2 0x1FB7 DUP4 DUP4 PUSH2 0x1F90 JUMP JUMPDEST SWAP2 POP DUP3 PUSH1 0x2 MUL DUP3 OR SWAP1 POP SWAP3 SWAP2 POP POP JUMP JUMPDEST PUSH2 0x1FD0 DUP3 PUSH2 0x176C JUMP JUMPDEST PUSH8 0xFFFFFFFFFFFFFFFF DUP2 GT ISZERO PUSH2 0x1FE9 JUMPI PUSH2 0x1FE8 PUSH2 0x1272 JUMP JUMPDEST JUMPDEST PUSH2 0x1FF3 DUP3 SLOAD PUSH2 0x1DFA JUMP JUMPDEST PUSH2 0x1FFE DUP3 DUP3 DUP6 PUSH2 0x1F3E JUMP JUMPDEST PUSH0 PUSH1 0x20 SWAP1 POP PUSH1 0x1F DUP4 GT PUSH1 0x1 DUP2 EQ PUSH2 0x202F JUMPI PUSH0 DUP5 ISZERO PUSH2 0x201D JUMPI DUP3 DUP8 ADD MLOAD SWAP1 POP JUMPDEST PUSH2 0x2027 DUP6 DUP3 PUSH2 0x1FAC JUMP JUMPDEST DUP7 SSTORE POP PUSH2 0x208E JUMP JUMPDEST PUSH1 0x1F NOT DUP5 AND PUSH2 0x203D DUP7 PUSH2 0x1E2A JUMP JUMPDEST PUSH0 JUMPDEST DUP3 DUP2 LT ISZERO PUSH2 0x2064 JUMPI DUP5 DUP10 ADD MLOAD DUP3 SSTORE PUSH1 0x1 DUP3 ADD SWAP2 POP PUSH1 0x20 DUP6 ADD SWAP5 POP PUSH1 0x20 DUP2 ADD SWAP1 POP PUSH2 0x203F JUMP JUMPDEST DUP7 DUP4 LT ISZERO PUSH2 0x2081 JUMPI DUP5 DUP10 ADD MLOAD PUSH2 0x207D PUSH1 0x1F DUP10 AND DUP3 PUSH2 0x1F90 JUMP JUMPDEST DUP4 SSTORE POP JUMPDEST PUSH1 0x1 PUSH1 0x2 DUP9 MUL ADD DUP9 SSTORE POP POP POP JUMPDEST POP POP POP POP POP POP JUMP JUMPDEST PUSH32 0x4E487B7100000000000000000000000000000000000000000000000000000000 PUSH0 MSTORE PUSH1 0x11 PUSH1 0x4 MSTORE PUSH1 0x24 PUSH0 REVERT JUMPDEST PUSH0 PUSH2 0x20CD DUP3 PUSH2 0x1227 JUMP JUMPDEST SWAP2 POP PUSH32 0xFFFFFFFFFFFFFFFFFFFFFFFFFFFFFFFFFFFFFFFFFFFFFFFFFFFFFFFFFFFFFFFF DUP3 SUB PUSH2 0x20FF JUMPI PUSH2 0x20FE PUSH2 0x2096 JUMP JUMPDEST JUMPDEST PUSH1 0x1 DUP3 ADD SWAP1 POP SWAP2 SWAP1 POP JUMP JUMPDEST PUSH0 DUP2 SWAP1 POP SWAP3 SWAP2 POP POP JUMP JUMPDEST PUSH0 DUP2 SLOAD PUSH2 0x2120 DUP2 PUSH2 0x1DFA JUMP JUMPDEST PUSH2 0x212A DUP2 DUP7 PUSH2 0x210A JUMP JUMPDEST SWAP5 POP PUSH1 0x1 DUP3 AND PUSH0 DUP2 EQ PUSH2 0x2144 JUMPI PUSH1 0x1 DUP2 EQ PUSH2 0x2159 JUMPI PUSH2 0x218B JUMP JUMPDEST PUSH1 0xFF NOT DUP4 AND DUP7 MSTORE DUP2 ISZERO ISZERO DUP3 MUL DUP7 ADD SWAP4 POP PUSH2 0x218B JUMP JUMPDEST PUSH2 0x2162 DUP6 PUSH2 0x1E2A JUMP JUMPDEST PUSH0 JUMPDEST DUP4 DUP2 LT ISZERO PUSH2 0x2183 JUMPI DUP2 SLOAD DUP2 DUP10 ADD MSTORE PUSH1 0x1 DUP3 ADD SWAP2 POP PUSH1 0x20 DUP2 ADD SWAP1 POP PUSH2 0x2164 JUMP JUMPDEST DUP4 DUP9 ADD SWAP6 POP POP POP JUMPDEST POP POP POP SWAP3 SWAP2 POP POP JUMP JUMPDEST PUSH0 PUSH2 0x219F DUP3 DUP7 PUSH2 0x2114 JUMP JUMPDEST SWAP2 POP PUSH2 0x21AB DUP3 DUP6 PUSH2 0x2114 JUMP JUMPDEST SWAP2 POP PUSH2 0x21B7 DUP3 DUP5 PUSH2 0x2114 JUMP JUMPDEST SWAP2 POP DUP2 SWAP1 POP SWAP5 SWAP4 POP POP POP POP JUMP JUMPDEST PUSH32 0x4E487B7100000000000000000000000000000000000000000000000000000000 PUSH0 MSTORE PUSH1 0x32 PUSH1 0x4 MSTORE PUSH1 0x24 PUSH0 REVERT JUMPDEST PUSH0 DUP2 MLOAD SWAP1 POP SWAP2 SWAP1 POP JUMP JUMPDEST PUSH0 DUP2 SWAP1 POP SWAP3 SWAP2 POP POP JUMP JUMPDEST PUSH0 PUSH2 0x220F DUP3 PUSH2 0x21F1 JUMP JUMPDEST PUSH2 0x2219 DUP2 DUP6 PUSH2 0x21FB JUMP JUMPDEST SWAP4 POP PUSH2 0x2229 DUP2 DUP6 PUSH1 0x20 DUP7 ADD PUSH2 0x1786 JUMP JUMPDEST DUP1 DUP5 ADD SWAP2 POP POP SWAP3 SWAP2 POP POP JUMP JUMPDEST PUSH0 PUSH2 0x2240 DUP3 DUP6 PUSH2 0x2205 JUMP JUMPDEST SWAP2 POP PUSH2 0x224C DUP3 DUP5 PUSH2 0x2114 JUMP JUMPDEST SWAP2 POP DUP2 SWAP1 POP SWAP4 SWAP3 POP POP POP JUMP JUMPDEST PUSH32 0x4163746F7220646F6573206E6F742065786973742E0000000000000000000000 PUSH0 DUP3 ADD MSTORE POP JUMP JUMPDEST PUSH0 PUSH2 0x228C PUSH1 0x15 DUP4 PUSH2 0x1D2F JUMP JUMPDEST SWAP2 POP PUSH2 0x2297 DUP3 PUSH2 0x2258 JUMP JUMPDEST PUSH1 0x20 DUP3 ADD SWAP1 POP SWAP2 SWAP1 POP JUMP JUMPDEST PUSH0 PUSH1 0x20 DUP3 ADD SWAP1 POP DUP2 DUP2 SUB PUSH0 DUP4 ADD MSTORE PUSH2 0x22B9 DUP2 PUSH2 0x2280 JUMP JUMPDEST SWAP1 POP SWAP2 SWAP1 POP JUMP JUMPDEST PUSH32 0x44617461205573657220646F6573206E6F742065786973742E00000000000000 PUSH0 DUP3 ADD MSTORE POP JUMP JUMPDEST PUSH0 PUSH2 0x22F4 PUSH1 0x19 DUP4 PUSH2 0x1D2F JUMP JUMPDEST SWAP2 POP PUSH2 0x22FF DUP3 PUSH2 0x22C0 JUMP JUMPDEST PUSH1 0x20 DUP3 ADD SWAP1 POP SWAP2 SWAP1 POP JUMP JUMPDEST PUSH0 PUSH1 0x20 DUP3 ADD SWAP1 POP DUP2 DUP2 SUB PUSH0 DUP4 ADD MSTORE PUSH2 0x2321 DUP2 PUSH2 0x22E8 JUMP JUMPDEST SWAP1 POP SWAP2 SWAP1 POP JUMP JUMPDEST PUSH32 0x506572736F6E616C4461746120646F6573206E6F742065786973742E00000000 PUSH0 DUP3 ADD MSTORE POP JUMP JUMPDEST PUSH0 PUSH2 0x235C PUSH1 0x1C DUP4 PUSH2 0x1D2F JUMP JUMPDEST SWAP2 POP PUSH2 0x2367 DUP3 PUSH2 0x2328 JUMP JUMPDEST PUSH1 0x20 DUP3 ADD SWAP1 POP SWAP2 SWAP1 POP JUMP JUMPDEST PUSH0 PUSH1 0x20 DUP3 ADD SWAP1 POP DUP2 DUP2 SUB PUSH0 DUP4 ADD MSTORE PUSH2 0x2389 DUP2 PUSH2 0x2350 JUMP JUMPDEST SWAP1 POP SWAP2 SWAP1 POP JUMP INVALID LOG2 PUSH5 0x6970667358 0x22 SLT KECCAK256 STATICCALL AND 0xBB 0xBA 0xBE DUP5 ADDMOD 0x22 MLOAD GT NUMBER 0xD9 DUP11 0xA6 0xF8 0x1F 0x2F PUSH8 0x4738E9E3A7DC769E NUMBER AND 0xAD RETURNDATASIZE PUSH32 0xA064736F6C634300081800330000000000000000000000000000000000000000 "
				},
				"gasEstimates": {
					"creation": {
						"codeDepositCost": "1831600",
						"executionCost": "36206",
						"totalCost": "1867806"
					},
					"external": {
						"addActor(uint256,string)": "infinite",
						"addDataUsage(string,string,uint256,string[],uint256[])": "infinite",
						"addPersonalData(uint256,string,string,string,string[])": "infinite",
						"addProcessedPersonalData(uint256)": "infinite",
						"getActorByKey(uint256)": "infinite",
						"getActorIds()": "infinite",
						"getDataUsageByKey(uint256)": "infinite",
						"getDataUsageCounter()": "2521",
						"getPersonalDataByKey(uint256)": "infinite",
						"getPersonalDataCounter()": "2499",
						"getProcessedPersonalDataByKey(uint256)": "2791",
						"owner()": "2505"
					}
				},
				"methodIdentifiers": {
					"addActor(uint256,string)": "68e92436",
					"addDataUsage(string,string,uint256,string[],uint256[])": "ca07b122",
					"addPersonalData(uint256,string,string,string,string[])": "0dab7cd9",
					"addProcessedPersonalData(uint256)": "3f81de59",
					"getActorByKey(uint256)": "c585665d",
					"getActorIds()": "3a918356",
					"getDataUsageByKey(uint256)": "d2b0649a",
					"getDataUsageCounter()": "682477d7",
					"getPersonalDataByKey(uint256)": "d8a761d9",
					"getPersonalDataCounter()": "4b58fbe9",
					"getProcessedPersonalDataByKey(uint256)": "b61798f6",
					"owner()": "8da5cb5b"
				}
			},
			"storageLayout": {
				"storage": [
					{
						"astId": 3,
						"contract": "contracts/DataUsageSmartContract.sol:DataUsageSmartContract",
						"label": "owner",
						"offset": 0,
						"slot": "0",
						"type": "t_address"
					},
					{
						"astId": 68,
						"contract": "contracts/DataUsageSmartContract.sol:DataUsageSmartContract",
						"label": "dataUsages",
						"offset": 0,
						"slot": "1",
						"type": "t_mapping(t_uint256,t_struct(DataUsage)46_storage)"
					},
					{
						"astId": 73,
						"contract": "contracts/DataUsageSmartContract.sol:DataUsageSmartContract",
						"label": "actors",
						"offset": 0,
						"slot": "2",
						"type": "t_mapping(t_uint256,t_struct(Actor)51_storage)"
					},
					{
						"astId": 78,
						"contract": "contracts/DataUsageSmartContract.sol:DataUsageSmartContract",
						"label": "personalDatas",
						"offset": 0,
						"slot": "3",
						"type": "t_mapping(t_uint256,t_struct(PersonalData)63_storage)"
					},
					{
						"astId": 82,
						"contract": "contracts/DataUsageSmartContract.sol:DataUsageSmartContract",
						"label": "processedPersonalDatas",
						"offset": 0,
						"slot": "4",
						"type": "t_mapping(t_uint256,t_bytes32)"
					},
					{
						"astId": 85,
						"contract": "contracts/DataUsageSmartContract.sol:DataUsageSmartContract",
						"label": "dataUsageCounter",
						"offset": 0,
						"slot": "5",
						"type": "t_uint256"
					},
					{
						"astId": 88,
						"contract": "contracts/DataUsageSmartContract.sol:DataUsageSmartContract",
						"label": "actorIds",
						"offset": 0,
						"slot": "6",
						"type": "t_array(t_uint256)dyn_storage"
					},
					{
						"astId": 91,
						"contract": "contracts/DataUsageSmartContract.sol:DataUsageSmartContract",
						"label": "personalDataCounter",
						"offset": 0,
						"slot": "7",
						"type": "t_uint256"
					}
				],
				"types": {
					"t_address": {
						"encoding": "inplace",
						"label": "address",
						"numberOfBytes": "20"
					},
					"t_array(t_bytes32)dyn_storage": {
						"base": "t_bytes32",
						"encoding": "dynamic_array",
						"label": "bytes32[]",
						"numberOfBytes": "32"
					},
					"t_array(t_string_storage)dyn_storage": {
						"base": "t_string_storage",
						"encoding": "dynamic_array",
						"label": "string[]",
						"numberOfBytes": "32"
					},
					"t_array(t_uint256)dyn_storage": {
						"base": "t_uint256",
						"encoding": "dynamic_array",
						"label": "uint256[]",
						"numberOfBytes": "32"
					},
					"t_bytes32": {
						"encoding": "inplace",
						"label": "bytes32",
						"numberOfBytes": "32"
					},
					"t_mapping(t_uint256,t_bytes32)": {
						"encoding": "mapping",
						"key": "t_uint256",
						"label": "mapping(uint256 => bytes32)",
						"numberOfBytes": "32",
						"value": "t_bytes32"
					},
					"t_mapping(t_uint256,t_struct(Actor)51_storage)": {
						"encoding": "mapping",
						"key": "t_uint256",
						"label": "mapping(uint256 => struct DataUsageSmartContract.Actor)",
						"numberOfBytes": "32",
						"value": "t_struct(Actor)51_storage"
					},
					"t_mapping(t_uint256,t_struct(DataUsage)46_storage)": {
						"encoding": "mapping",
						"key": "t_uint256",
						"label": "mapping(uint256 => struct DataUsageSmartContract.DataUsage)",
						"numberOfBytes": "32",
						"value": "t_struct(DataUsage)46_storage"
					},
					"t_mapping(t_uint256,t_struct(PersonalData)63_storage)": {
						"encoding": "mapping",
						"key": "t_uint256",
						"label": "mapping(uint256 => struct DataUsageSmartContract.PersonalData)",
						"numberOfBytes": "32",
						"value": "t_struct(PersonalData)63_storage"
					},
					"t_string_storage": {
						"encoding": "bytes",
						"label": "string",
						"numberOfBytes": "32"
					},
					"t_struct(Actor)51_storage": {
						"encoding": "inplace",
						"label": "struct DataUsageSmartContract.Actor",
						"members": [
							{
								"astId": 48,
								"contract": "contracts/DataUsageSmartContract.sol:DataUsageSmartContract",
								"label": "actorId",
								"offset": 0,
								"slot": "0",
								"type": "t_uint256"
							},
							{
								"astId": 50,
								"contract": "contracts/DataUsageSmartContract.sol:DataUsageSmartContract",
								"label": "actorName",
								"offset": 0,
								"slot": "1",
								"type": "t_string_storage"
							}
						],
						"numberOfBytes": "64"
					},
					"t_struct(DataUsage)46_storage": {
						"encoding": "inplace",
						"label": "struct DataUsageSmartContract.DataUsage",
						"members": [
							{
								"astId": 32,
								"contract": "contracts/DataUsageSmartContract.sol:DataUsageSmartContract",
								"label": "serviceName",
								"offset": 0,
								"slot": "0",
								"type": "t_string_storage"
							},
							{
								"astId": 34,
								"contract": "contracts/DataUsageSmartContract.sol:DataUsageSmartContract",
								"label": "servicePurpose",
								"offset": 0,
								"slot": "1",
								"type": "t_string_storage"
							},
							{
								"astId": 36,
								"contract": "contracts/DataUsageSmartContract.sol:DataUsageSmartContract",
								"label": "actorConsentId",
								"offset": 0,
								"slot": "2",
								"type": "t_uint256"
							},
							{
								"astId": 39,
								"contract": "contracts/DataUsageSmartContract.sol:DataUsageSmartContract",
								"label": "operations",
								"offset": 0,
								"slot": "3",
								"type": "t_array(t_string_storage)dyn_storage"
							},
							{
								"astId": 42,
								"contract": "contracts/DataUsageSmartContract.sol:DataUsageSmartContract",
								"label": "personalDataIds",
								"offset": 0,
								"slot": "4",
								"type": "t_array(t_uint256)dyn_storage"
							},
							{
								"astId": 45,
								"contract": "contracts/DataUsageSmartContract.sol:DataUsageSmartContract",
								"label": "processedPersonalDatas",
								"offset": 0,
								"slot": "5",
								"type": "t_array(t_bytes32)dyn_storage"
							}
						],
						"numberOfBytes": "192"
					},
					"t_struct(PersonalData)63_storage": {
						"encoding": "inplace",
						"label": "struct DataUsageSmartContract.PersonalData",
						"members": [
							{
								"astId": 53,
								"contract": "contracts/DataUsageSmartContract.sol:DataUsageSmartContract",
								"label": "userId",
								"offset": 0,
								"slot": "0",
								"type": "t_uint256"
							},
							{
								"astId": 55,
								"contract": "contracts/DataUsageSmartContract.sol:DataUsageSmartContract",
								"label": "userName",
								"offset": 0,
								"slot": "1",
								"type": "t_string_storage"
							},
							{
								"astId": 57,
								"contract": "contracts/DataUsageSmartContract.sol:DataUsageSmartContract",
								"label": "userAddress",
								"offset": 0,
								"slot": "2",
								"type": "t_string_storage"
							},
							{
								"astId": 59,
								"contract": "contracts/DataUsageSmartContract.sol:DataUsageSmartContract",
								"label": "userTelephone",
								"offset": 0,
								"slot": "3",
								"type": "t_string_storage"
							},
							{
								"astId": 62,
								"contract": "contracts/DataUsageSmartContract.sol:DataUsageSmartContract",
								"label": "additionalInfos",
								"offset": 0,
								"slot": "4",
								"type": "t_array(t_string_storage)dyn_storage"
							}
						],
						"numberOfBytes": "160"
					},
					"t_uint256": {
						"encoding": "inplace",
						"label": "uint256",
						"numberOfBytes": "32"
					}
				}
			},
			"userdoc": {
				"kind": "user",
				"methods": {},
				"version": 1
			}
		}
	}
}