{
	"contracts/2_Agreement.sol": {
		"AgreementContract": {
			"abi": [
				{
					"inputs": [
						{
							"internalType": "bytes32",
							"name": "_purposeBlockHash",
							"type": "bytes32"
						},
						{
							"internalType": "address",
							"name": "_userId",
							"type": "address"
						},
						{
							"internalType": "bool",
							"name": "_consent",
							"type": "bool"
						}
					],
					"name": "addAgreement",
					"outputs": [],
					"stateMutability": "nonpayable",
					"type": "function"
				},
				{
					"inputs": [
						{
							"internalType": "uint256",
							"name": "",
							"type": "uint256"
						}
					],
					"name": "agreements",
					"outputs": [
						{
							"internalType": "bytes32",
							"name": "purposeBlockHash",
							"type": "bytes32"
						},
						{
							"internalType": "address",
							"name": "userId",
							"type": "address"
						},
						{
							"internalType": "bool",
							"name": "consent",
							"type": "bool"
						}
					],
					"stateMutability": "view",
					"type": "function"
				},
				{
					"inputs": [
						{
							"internalType": "uint256",
							"name": "_index",
							"type": "uint256"
						}
					],
					"name": "getAgreement",
					"outputs": [
						{
							"internalType": "bytes32",
							"name": "purposeBlockHash",
							"type": "bytes32"
						},
						{
							"internalType": "address",
							"name": "userId",
							"type": "address"
						},
						{
							"internalType": "bool",
							"name": "consent",
							"type": "bool"
						}
					],
					"stateMutability": "view",
					"type": "function"
				}
			],
			"devdoc": {
				"kind": "dev",
				"methods": {},
				"version": 1
			},
			"evm": {
				"assembly": "    /* \"contracts/2_Agreement.sol\":69:786  contract AgreementContract {... */\n  mstore(0x40, 0x80)\n  callvalue\n  dup1\n  iszero\n  tag_1\n  jumpi\n  0x00\n  dup1\n  revert\ntag_1:\n  pop\n  dataSize(sub_0)\n  dup1\n  dataOffset(sub_0)\n  0x00\n  codecopy\n  0x00\n  return\nstop\n\nsub_0: assembly {\n        /* \"contracts/2_Agreement.sol\":69:786  contract AgreementContract {... */\n      mstore(0x40, 0x80)\n      callvalue\n      dup1\n      iszero\n      tag_1\n      jumpi\n      0x00\n      dup1\n      revert\n    tag_1:\n      pop\n      jumpi(tag_2, lt(calldatasize, 0x04))\n      shr(0xe0, calldataload(0x00))\n      dup1\n      0x4f9f6fe6\n      eq\n      tag_3\n      jumpi\n      dup1\n      0x7af5882b\n      eq\n      tag_4\n      jumpi\n      dup1\n      0xbd14de96\n      eq\n      tag_5\n      jumpi\n    tag_2:\n      0x00\n      dup1\n      revert\n        /* \"contracts/2_Agreement.sol\":457:784  function getAgreement(uint _index) public view returns (bytes32 purposeBlockHash, address userId, bool consent) {... */\n    tag_3:\n      tag_6\n      0x04\n      dup1\n      calldatasize\n      sub\n      dup2\n      add\n      swap1\n      tag_7\n      swap2\n      swap1\n      tag_8\n      jump\t// in\n    tag_7:\n      tag_9\n      jump\t// in\n    tag_6:\n      mload(0x40)\n      tag_10\n      swap4\n      swap3\n      swap2\n      swap1\n      tag_11\n      jump\t// in\n    tag_10:\n      mload(0x40)\n      dup1\n      swap2\n      sub\n      swap1\n      return\n        /* \"contracts/2_Agreement.sol\":248:447  function addAgreement(... */\n    tag_4:\n      tag_12\n      0x04\n      dup1\n      calldatasize\n      sub\n      dup2\n      add\n      swap1\n      tag_13\n      swap2\n      swap1\n      tag_14\n      jump\t// in\n    tag_13:\n      tag_15\n      jump\t// in\n    tag_12:\n      stop\n        /* \"contracts/2_Agreement.sol\":212:241  Agreement[] public agreements */\n    tag_5:\n      tag_16\n      0x04\n      dup1\n      calldatasize\n      sub\n      dup2\n      add\n      swap1\n      tag_17\n      swap2\n      swap1\n      tag_8\n      jump\t// in\n    tag_17:\n      tag_18\n      jump\t// in\n    tag_16:\n      mload(0x40)\n      tag_19\n      swap4\n      swap3\n      swap2\n      swap1\n      tag_11\n      jump\t// in\n    tag_19:\n      mload(0x40)\n      dup1\n      swap2\n      sub\n      swap1\n      return\n        /* \"contracts/2_Agreement.sol\":457:784  function getAgreement(uint _index) public view returns (bytes32 purposeBlockHash, address userId, bool consent) {... */\n    tag_9:\n        /* \"contracts/2_Agreement.sol\":513:537  bytes32 purposeBlockHash */\n      0x00\n        /* \"contracts/2_Agreement.sol\":539:553  address userId */\n      dup1\n        /* \"contracts/2_Agreement.sol\":555:567  bool consent */\n      0x00\n        /* \"contracts/2_Agreement.sol\":596:606  agreements */\n      dup1\n        /* \"contracts/2_Agreement.sol\":596:613  agreements.length */\n      dup1\n      sload\n      swap1\n      pop\n        /* \"contracts/2_Agreement.sol\":587:593  _index */\n      dup5\n        /* \"contracts/2_Agreement.sol\":587:613  _index < agreements.length */\n      lt\n        /* \"contracts/2_Agreement.sol\":579:637  require(_index < agreements.length, \"Index out of bounds\") */\n      tag_21\n      jumpi\n      mload(0x40)\n      0x08c379a000000000000000000000000000000000000000000000000000000000\n      dup2\n      mstore\n      0x04\n      add\n      tag_22\n      swap1\n      tag_23\n      jump\t// in\n    tag_22:\n      mload(0x40)\n      dup1\n      swap2\n      sub\n      swap1\n      revert\n    tag_21:\n        /* \"contracts/2_Agreement.sol\":647:674  Agreement storage agreement */\n      0x00\n        /* \"contracts/2_Agreement.sol\":677:687  agreements */\n      dup1\n        /* \"contracts/2_Agreement.sol\":688:694  _index */\n      dup6\n        /* \"contracts/2_Agreement.sol\":677:695  agreements[_index] */\n      dup2\n      sload\n      dup2\n      lt\n      tag_24\n      jumpi\n      tag_25\n      tag_26\n      jump\t// in\n    tag_25:\n    tag_24:\n      swap1\n      0x00\n      mstore\n      keccak256(0x00, 0x20)\n      swap1\n      0x02\n      mul\n      add\n        /* \"contracts/2_Agreement.sol\":647:695  Agreement storage agreement = agreements[_index] */\n      swap1\n      pop\n        /* \"contracts/2_Agreement.sol\":713:722  agreement */\n      dup1\n        /* \"contracts/2_Agreement.sol\":713:739  agreement.purposeBlockHash */\n      0x00\n      add\n      sload\n        /* \"contracts/2_Agreement.sol\":741:750  agreement */\n      dup2\n        /* \"contracts/2_Agreement.sol\":741:757  agreement.userId */\n      0x01\n      add\n      0x00\n      swap1\n      sload\n      swap1\n      0x0100\n      exp\n      swap1\n      div\n      0xffffffffffffffffffffffffffffffffffffffff\n      and\n        /* \"contracts/2_Agreement.sol\":759:768  agreement */\n      dup3\n        /* \"contracts/2_Agreement.sol\":759:776  agreement.consent */\n      0x01\n      add\n      0x14\n      swap1\n      sload\n      swap1\n      0x0100\n      exp\n      swap1\n      div\n      0xff\n      and\n        /* \"contracts/2_Agreement.sol\":705:777  return (agreement.purposeBlockHash, agreement.userId, agreement.consent) */\n      swap4\n      pop\n      swap4\n      pop\n      swap4\n      pop\n      pop\n        /* \"contracts/2_Agreement.sol\":457:784  function getAgreement(uint _index) public view returns (bytes32 purposeBlockHash, address userId, bool consent) {... */\n      swap2\n      swap4\n      swap1\n      swap3\n      pop\n      jump\t// out\n        /* \"contracts/2_Agreement.sol\":248:447  function addAgreement(... */\n    tag_15:\n        /* \"contracts/2_Agreement.sol\":376:386  agreements */\n      0x00\n        /* \"contracts/2_Agreement.sol\":392:439  Agreement(_purposeBlockHash, _userId, _consent) */\n      mload(0x40)\n      dup1\n      0x60\n      add\n      0x40\n      mstore\n      dup1\n        /* \"contracts/2_Agreement.sol\":402:419  _purposeBlockHash */\n      dup6\n        /* \"contracts/2_Agreement.sol\":392:439  Agreement(_purposeBlockHash, _userId, _consent) */\n      dup2\n      mstore\n      0x20\n      add\n        /* \"contracts/2_Agreement.sol\":421:428  _userId */\n      dup5\n        /* \"contracts/2_Agreement.sol\":392:439  Agreement(_purposeBlockHash, _userId, _consent) */\n      0xffffffffffffffffffffffffffffffffffffffff\n      and\n      dup2\n      mstore\n      0x20\n      add\n        /* \"contracts/2_Agreement.sol\":430:438  _consent */\n      dup4\n        /* \"contracts/2_Agreement.sol\":392:439  Agreement(_purposeBlockHash, _userId, _consent) */\n      iszero\n      iszero\n      dup2\n      mstore\n      pop\n        /* \"contracts/2_Agreement.sol\":376:440  agreements.push(Agreement(_purposeBlockHash, _userId, _consent)) */\n      swap1\n      dup1\n      0x01\n      dup2\n      sload\n      add\n      dup1\n      dup3\n      sstore\n      dup1\n      swap2\n      pop\n      pop\n      0x01\n      swap1\n      sub\n      swap1\n      0x00\n      mstore\n      keccak256(0x00, 0x20)\n      swap1\n      0x02\n      mul\n      add\n      0x00\n      swap1\n      swap2\n      swap1\n      swap2\n      swap1\n      swap2\n      pop\n      0x00\n      dup3\n      add\n      mload\n      dup2\n      0x00\n      add\n      sstore\n      0x20\n      dup3\n      add\n      mload\n      dup2\n      0x01\n      add\n      exp(0x0100, 0x00)\n      dup2\n      sload\n      dup2\n      0xffffffffffffffffffffffffffffffffffffffff\n      mul\n      not\n      and\n      swap1\n      dup4\n      0xffffffffffffffffffffffffffffffffffffffff\n      and\n      mul\n      or\n      swap1\n      sstore\n      pop\n      0x40\n      dup3\n      add\n      mload\n      dup2\n      0x01\n      add\n      exp(0x0100, 0x14)\n      dup2\n      sload\n      dup2\n      0xff\n      mul\n      not\n      and\n      swap1\n      dup4\n      iszero\n      iszero\n      mul\n      or\n      swap1\n      sstore\n      pop\n      pop\n      pop\n        /* \"contracts/2_Agreement.sol\":248:447  function addAgreement(... */\n      pop\n      pop\n      pop\n      jump\t// out\n        /* \"contracts/2_Agreement.sol\":212:241  Agreement[] public agreements */\n    tag_18:\n      0x00\n      dup2\n      dup2\n      sload\n      dup2\n      lt\n      tag_30\n      jumpi\n      0x00\n      dup1\n      revert\n    tag_30:\n      swap1\n      0x00\n      mstore\n      keccak256(0x00, 0x20)\n      swap1\n      0x02\n      mul\n      add\n      0x00\n      swap2\n      pop\n      swap1\n      pop\n      dup1\n      0x00\n      add\n      sload\n      swap1\n      dup1\n      0x01\n      add\n      0x00\n      swap1\n      sload\n      swap1\n      0x0100\n      exp\n      swap1\n      div\n      0xffffffffffffffffffffffffffffffffffffffff\n      and\n      swap1\n      dup1\n      0x01\n      add\n      0x14\n      swap1\n      sload\n      swap1\n      0x0100\n      exp\n      swap1\n      div\n      0xff\n      and\n      swap1\n      pop\n      dup4\n      jump\t// out\n        /* \"#utility.yul\":88:205   */\n    tag_33:\n        /* \"#utility.yul\":197:198   */\n      0x00\n        /* \"#utility.yul\":194:195   */\n      dup1\n        /* \"#utility.yul\":187:199   */\n      revert\n        /* \"#utility.yul\":334:411   */\n    tag_35:\n        /* \"#utility.yul\":371:378   */\n      0x00\n        /* \"#utility.yul\":400:405   */\n      dup2\n        /* \"#utility.yul\":389:405   */\n      swap1\n      pop\n        /* \"#utility.yul\":334:411   */\n      swap2\n      swap1\n      pop\n      jump\t// out\n        /* \"#utility.yul\":417:539   */\n    tag_36:\n        /* \"#utility.yul\":490:514   */\n      tag_60\n        /* \"#utility.yul\":508:513   */\n      dup2\n        /* \"#utility.yul\":490:514   */\n      tag_35\n      jump\t// in\n    tag_60:\n        /* \"#utility.yul\":483:488   */\n      dup2\n        /* \"#utility.yul\":480:515   */\n      eq\n        /* \"#utility.yul\":470:533   */\n      tag_61\n      jumpi\n        /* \"#utility.yul\":529:530   */\n      0x00\n        /* \"#utility.yul\":526:527   */\n      dup1\n        /* \"#utility.yul\":519:531   */\n      revert\n        /* \"#utility.yul\":470:533   */\n    tag_61:\n        /* \"#utility.yul\":417:539   */\n      pop\n      jump\t// out\n        /* \"#utility.yul\":545:684   */\n    tag_37:\n        /* \"#utility.yul\":591:596   */\n      0x00\n        /* \"#utility.yul\":629:635   */\n      dup2\n        /* \"#utility.yul\":616:636   */\n      calldataload\n        /* \"#utility.yul\":607:636   */\n      swap1\n      pop\n        /* \"#utility.yul\":645:678   */\n      tag_63\n        /* \"#utility.yul\":672:677   */\n      dup2\n        /* \"#utility.yul\":645:678   */\n      tag_36\n      jump\t// in\n    tag_63:\n        /* \"#utility.yul\":545:684   */\n      swap3\n      swap2\n      pop\n      pop\n      jump\t// out\n        /* \"#utility.yul\":690:1019   */\n    tag_8:\n        /* \"#utility.yul\":749:755   */\n      0x00\n        /* \"#utility.yul\":798:800   */\n      0x20\n        /* \"#utility.yul\":786:795   */\n      dup3\n        /* \"#utility.yul\":777:784   */\n      dup5\n        /* \"#utility.yul\":773:796   */\n      sub\n        /* \"#utility.yul\":769:801   */\n      slt\n        /* \"#utility.yul\":766:885   */\n      iszero\n      tag_65\n      jumpi\n        /* \"#utility.yul\":804:883   */\n      tag_66\n      tag_33\n      jump\t// in\n    tag_66:\n        /* \"#utility.yul\":766:885   */\n    tag_65:\n        /* \"#utility.yul\":924:925   */\n      0x00\n        /* \"#utility.yul\":949:1002   */\n      tag_67\n        /* \"#utility.yul\":994:1001   */\n      dup5\n        /* \"#utility.yul\":985:991   */\n      dup3\n        /* \"#utility.yul\":974:983   */\n      dup6\n        /* \"#utility.yul\":970:992   */\n      add\n        /* \"#utility.yul\":949:1002   */\n      tag_37\n      jump\t// in\n    tag_67:\n        /* \"#utility.yul\":939:1002   */\n      swap2\n      pop\n        /* \"#utility.yul\":895:1012   */\n      pop\n        /* \"#utility.yul\":690:1019   */\n      swap3\n      swap2\n      pop\n      pop\n      jump\t// out\n        /* \"#utility.yul\":1025:1102   */\n    tag_38:\n        /* \"#utility.yul\":1062:1069   */\n      0x00\n        /* \"#utility.yul\":1091:1096   */\n      dup2\n        /* \"#utility.yul\":1080:1096   */\n      swap1\n      pop\n        /* \"#utility.yul\":1025:1102   */\n      swap2\n      swap1\n      pop\n      jump\t// out\n        /* \"#utility.yul\":1108:1226   */\n    tag_39:\n        /* \"#utility.yul\":1195:1219   */\n      tag_70\n        /* \"#utility.yul\":1213:1218   */\n      dup2\n        /* \"#utility.yul\":1195:1219   */\n      tag_38\n      jump\t// in\n    tag_70:\n        /* \"#utility.yul\":1190:1193   */\n      dup3\n        /* \"#utility.yul\":1183:1220   */\n      mstore\n        /* \"#utility.yul\":1108:1226   */\n      pop\n      pop\n      jump\t// out\n        /* \"#utility.yul\":1232:1358   */\n    tag_40:\n        /* \"#utility.yul\":1269:1276   */\n      0x00\n        /* \"#utility.yul\":1309:1351   */\n      0xffffffffffffffffffffffffffffffffffffffff\n        /* \"#utility.yul\":1302:1307   */\n      dup3\n        /* \"#utility.yul\":1298:1352   */\n      and\n        /* \"#utility.yul\":1287:1352   */\n      swap1\n      pop\n        /* \"#utility.yul\":1232:1358   */\n      swap2\n      swap1\n      pop\n      jump\t// out\n        /* \"#utility.yul\":1364:1460   */\n    tag_41:\n        /* \"#utility.yul\":1401:1408   */\n      0x00\n        /* \"#utility.yul\":1430:1454   */\n      tag_73\n        /* \"#utility.yul\":1448:1453   */\n      dup3\n        /* \"#utility.yul\":1430:1454   */\n      tag_40\n      jump\t// in\n    tag_73:\n        /* \"#utility.yul\":1419:1454   */\n      swap1\n      pop\n        /* \"#utility.yul\":1364:1460   */\n      swap2\n      swap1\n      pop\n      jump\t// out\n        /* \"#utility.yul\":1466:1584   */\n    tag_42:\n        /* \"#utility.yul\":1553:1577   */\n      tag_75\n        /* \"#utility.yul\":1571:1576   */\n      dup2\n        /* \"#utility.yul\":1553:1577   */\n      tag_41\n      jump\t// in\n    tag_75:\n        /* \"#utility.yul\":1548:1551   */\n      dup3\n        /* \"#utility.yul\":1541:1578   */\n      mstore\n        /* \"#utility.yul\":1466:1584   */\n      pop\n      pop\n      jump\t// out\n        /* \"#utility.yul\":1590:1680   */\n    tag_43:\n        /* \"#utility.yul\":1624:1631   */\n      0x00\n        /* \"#utility.yul\":1667:1672   */\n      dup2\n        /* \"#utility.yul\":1660:1673   */\n      iszero\n        /* \"#utility.yul\":1653:1674   */\n      iszero\n        /* \"#utility.yul\":1642:1674   */\n      swap1\n      pop\n        /* \"#utility.yul\":1590:1680   */\n      swap2\n      swap1\n      pop\n      jump\t// out\n        /* \"#utility.yul\":1686:1795   */\n    tag_44:\n        /* \"#utility.yul\":1767:1788   */\n      tag_78\n        /* \"#utility.yul\":1782:1787   */\n      dup2\n        /* \"#utility.yul\":1767:1788   */\n      tag_43\n      jump\t// in\n    tag_78:\n        /* \"#utility.yul\":1762:1765   */\n      dup3\n        /* \"#utility.yul\":1755:1789   */\n      mstore\n        /* \"#utility.yul\":1686:1795   */\n      pop\n      pop\n      jump\t// out\n        /* \"#utility.yul\":1801:2231   */\n    tag_11:\n        /* \"#utility.yul\":1944:1948   */\n      0x00\n        /* \"#utility.yul\":1982:1984   */\n      0x60\n        /* \"#utility.yul\":1971:1980   */\n      dup3\n        /* \"#utility.yul\":1967:1985   */\n      add\n        /* \"#utility.yul\":1959:1985   */\n      swap1\n      pop\n        /* \"#utility.yul\":1995:2066   */\n      tag_80\n        /* \"#utility.yul\":2063:2064   */\n      0x00\n        /* \"#utility.yul\":2052:2061   */\n      dup4\n        /* \"#utility.yul\":2048:2065   */\n      add\n        /* \"#utility.yul\":2039:2045   */\n      dup7\n        /* \"#utility.yul\":1995:2066   */\n      tag_39\n      jump\t// in\n    tag_80:\n        /* \"#utility.yul\":2076:2148   */\n      tag_81\n        /* \"#utility.yul\":2144:2146   */\n      0x20\n        /* \"#utility.yul\":2133:2142   */\n      dup4\n        /* \"#utility.yul\":2129:2147   */\n      add\n        /* \"#utility.yul\":2120:2126   */\n      dup6\n        /* \"#utility.yul\":2076:2148   */\n      tag_42\n      jump\t// in\n    tag_81:\n        /* \"#utility.yul\":2158:2224   */\n      tag_82\n        /* \"#utility.yul\":2220:2222   */\n      0x40\n        /* \"#utility.yul\":2209:2218   */\n      dup4\n        /* \"#utility.yul\":2205:2223   */\n      add\n        /* \"#utility.yul\":2196:2202   */\n      dup5\n        /* \"#utility.yul\":2158:2224   */\n      tag_44\n      jump\t// in\n    tag_82:\n        /* \"#utility.yul\":1801:2231   */\n      swap5\n      swap4\n      pop\n      pop\n      pop\n      pop\n      jump\t// out\n        /* \"#utility.yul\":2237:2359   */\n    tag_45:\n        /* \"#utility.yul\":2310:2334   */\n      tag_84\n        /* \"#utility.yul\":2328:2333   */\n      dup2\n        /* \"#utility.yul\":2310:2334   */\n      tag_38\n      jump\t// in\n    tag_84:\n        /* \"#utility.yul\":2303:2308   */\n      dup2\n        /* \"#utility.yul\":2300:2335   */\n      eq\n        /* \"#utility.yul\":2290:2353   */\n      tag_85\n      jumpi\n        /* \"#utility.yul\":2349:2350   */\n      0x00\n        /* \"#utility.yul\":2346:2347   */\n      dup1\n        /* \"#utility.yul\":2339:2351   */\n      revert\n        /* \"#utility.yul\":2290:2353   */\n    tag_85:\n        /* \"#utility.yul\":2237:2359   */\n      pop\n      jump\t// out\n        /* \"#utility.yul\":2365:2504   */\n    tag_46:\n        /* \"#utility.yul\":2411:2416   */\n      0x00\n        /* \"#utility.yul\":2449:2455   */\n      dup2\n        /* \"#utility.yul\":2436:2456   */\n      calldataload\n        /* \"#utility.yul\":2427:2456   */\n      swap1\n      pop\n        /* \"#utility.yul\":2465:2498   */\n      tag_87\n        /* \"#utility.yul\":2492:2497   */\n      dup2\n        /* \"#utility.yul\":2465:2498   */\n      tag_45\n      jump\t// in\n    tag_87:\n        /* \"#utility.yul\":2365:2504   */\n      swap3\n      swap2\n      pop\n      pop\n      jump\t// out\n        /* \"#utility.yul\":2510:2632   */\n    tag_47:\n        /* \"#utility.yul\":2583:2607   */\n      tag_89\n        /* \"#utility.yul\":2601:2606   */\n      dup2\n        /* \"#utility.yul\":2583:2607   */\n      tag_41\n      jump\t// in\n    tag_89:\n        /* \"#utility.yul\":2576:2581   */\n      dup2\n        /* \"#utility.yul\":2573:2608   */\n      eq\n        /* \"#utility.yul\":2563:2626   */\n      tag_90\n      jumpi\n        /* \"#utility.yul\":2622:2623   */\n      0x00\n        /* \"#utility.yul\":2619:2620   */\n      dup1\n        /* \"#utility.yul\":2612:2624   */\n      revert\n        /* \"#utility.yul\":2563:2626   */\n    tag_90:\n        /* \"#utility.yul\":2510:2632   */\n      pop\n      jump\t// out\n        /* \"#utility.yul\":2638:2777   */\n    tag_48:\n        /* \"#utility.yul\":2684:2689   */\n      0x00\n        /* \"#utility.yul\":2722:2728   */\n      dup2\n        /* \"#utility.yul\":2709:2729   */\n      calldataload\n        /* \"#utility.yul\":2700:2729   */\n      swap1\n      pop\n        /* \"#utility.yul\":2738:2771   */\n      tag_92\n        /* \"#utility.yul\":2765:2770   */\n      dup2\n        /* \"#utility.yul\":2738:2771   */\n      tag_47\n      jump\t// in\n    tag_92:\n        /* \"#utility.yul\":2638:2777   */\n      swap3\n      swap2\n      pop\n      pop\n      jump\t// out\n        /* \"#utility.yul\":2783:2899   */\n    tag_49:\n        /* \"#utility.yul\":2853:2874   */\n      tag_94\n        /* \"#utility.yul\":2868:2873   */\n      dup2\n        /* \"#utility.yul\":2853:2874   */\n      tag_43\n      jump\t// in\n    tag_94:\n        /* \"#utility.yul\":2846:2851   */\n      dup2\n        /* \"#utility.yul\":2843:2875   */\n      eq\n        /* \"#utility.yul\":2833:2893   */\n      tag_95\n      jumpi\n        /* \"#utility.yul\":2889:2890   */\n      0x00\n        /* \"#utility.yul\":2886:2887   */\n      dup1\n        /* \"#utility.yul\":2879:2891   */\n      revert\n        /* \"#utility.yul\":2833:2893   */\n    tag_95:\n        /* \"#utility.yul\":2783:2899   */\n      pop\n      jump\t// out\n        /* \"#utility.yul\":2905:3038   */\n    tag_50:\n        /* \"#utility.yul\":2948:2953   */\n      0x00\n        /* \"#utility.yul\":2986:2992   */\n      dup2\n        /* \"#utility.yul\":2973:2993   */\n      calldataload\n        /* \"#utility.yul\":2964:2993   */\n      swap1\n      pop\n        /* \"#utility.yul\":3002:3032   */\n      tag_97\n        /* \"#utility.yul\":3026:3031   */\n      dup2\n        /* \"#utility.yul\":3002:3032   */\n      tag_49\n      jump\t// in\n    tag_97:\n        /* \"#utility.yul\":2905:3038   */\n      swap3\n      swap2\n      pop\n      pop\n      jump\t// out\n        /* \"#utility.yul\":3044:3657   */\n    tag_14:\n        /* \"#utility.yul\":3118:3124   */\n      0x00\n        /* \"#utility.yul\":3126:3132   */\n      dup1\n        /* \"#utility.yul\":3134:3140   */\n      0x00\n        /* \"#utility.yul\":3183:3185   */\n      0x60\n        /* \"#utility.yul\":3171:3180   */\n      dup5\n        /* \"#utility.yul\":3162:3169   */\n      dup7\n        /* \"#utility.yul\":3158:3181   */\n      sub\n        /* \"#utility.yul\":3154:3186   */\n      slt\n        /* \"#utility.yul\":3151:3270   */\n      iszero\n      tag_99\n      jumpi\n        /* \"#utility.yul\":3189:3268   */\n      tag_100\n      tag_33\n      jump\t// in\n    tag_100:\n        /* \"#utility.yul\":3151:3270   */\n    tag_99:\n        /* \"#utility.yul\":3309:3310   */\n      0x00\n        /* \"#utility.yul\":3334:3387   */\n      tag_101\n        /* \"#utility.yul\":3379:3386   */\n      dup7\n        /* \"#utility.yul\":3370:3376   */\n      dup3\n        /* \"#utility.yul\":3359:3368   */\n      dup8\n        /* \"#utility.yul\":3355:3377   */\n      add\n        /* \"#utility.yul\":3334:3387   */\n      tag_46\n      jump\t// in\n    tag_101:\n        /* \"#utility.yul\":3324:3387   */\n      swap4\n      pop\n        /* \"#utility.yul\":3280:3397   */\n      pop\n        /* \"#utility.yul\":3436:3438   */\n      0x20\n        /* \"#utility.yul\":3462:3515   */\n      tag_102\n        /* \"#utility.yul\":3507:3514   */\n      dup7\n        /* \"#utility.yul\":3498:3504   */\n      dup3\n        /* \"#utility.yul\":3487:3496   */\n      dup8\n        /* \"#utility.yul\":3483:3505   */\n      add\n        /* \"#utility.yul\":3462:3515   */\n      tag_48\n      jump\t// in\n    tag_102:\n        /* \"#utility.yul\":3452:3515   */\n      swap3\n      pop\n        /* \"#utility.yul\":3407:3525   */\n      pop\n        /* \"#utility.yul\":3564:3566   */\n      0x40\n        /* \"#utility.yul\":3590:3640   */\n      tag_103\n        /* \"#utility.yul\":3632:3639   */\n      dup7\n        /* \"#utility.yul\":3623:3629   */\n      dup3\n        /* \"#utility.yul\":3612:3621   */\n      dup8\n        /* \"#utility.yul\":3608:3630   */\n      add\n        /* \"#utility.yul\":3590:3640   */\n      tag_50\n      jump\t// in\n    tag_103:\n        /* \"#utility.yul\":3580:3640   */\n      swap2\n      pop\n        /* \"#utility.yul\":3535:3650   */\n      pop\n        /* \"#utility.yul\":3044:3657   */\n      swap3\n      pop\n      swap3\n      pop\n      swap3\n      jump\t// out\n        /* \"#utility.yul\":3663:3832   */\n    tag_51:\n        /* \"#utility.yul\":3747:3758   */\n      0x00\n        /* \"#utility.yul\":3781:3787   */\n      dup3\n        /* \"#utility.yul\":3776:3779   */\n      dup3\n        /* \"#utility.yul\":3769:3788   */\n      mstore\n        /* \"#utility.yul\":3821:3825   */\n      0x20\n        /* \"#utility.yul\":3816:3819   */\n      dup3\n        /* \"#utility.yul\":3812:3826   */\n      add\n        /* \"#utility.yul\":3797:3826   */\n      swap1\n      pop\n        /* \"#utility.yul\":3663:3832   */\n      swap3\n      swap2\n      pop\n      pop\n      jump\t// out\n        /* \"#utility.yul\":3838:4007   */\n    tag_52:\n        /* \"#utility.yul\":3978:3999   */\n      0x496e646578206f7574206f6620626f756e647300000000000000000000000000\n        /* \"#utility.yul\":3974:3975   */\n      0x00\n        /* \"#utility.yul\":3966:3972   */\n      dup3\n        /* \"#utility.yul\":3962:3976   */\n      add\n        /* \"#utility.yul\":3955:4000   */\n      mstore\n        /* \"#utility.yul\":3838:4007   */\n      pop\n      jump\t// out\n        /* \"#utility.yul\":4013:4379   */\n    tag_53:\n        /* \"#utility.yul\":4155:4158   */\n      0x00\n        /* \"#utility.yul\":4176:4243   */\n      tag_107\n        /* \"#utility.yul\":4240:4242   */\n      0x13\n        /* \"#utility.yul\":4235:4238   */\n      dup4\n        /* \"#utility.yul\":4176:4243   */\n      tag_51\n      jump\t// in\n    tag_107:\n        /* \"#utility.yul\":4169:4243   */\n      swap2\n      pop\n        /* \"#utility.yul\":4252:4345   */\n      tag_108\n        /* \"#utility.yul\":4341:4344   */\n      dup3\n        /* \"#utility.yul\":4252:4345   */\n      tag_52\n      jump\t// in\n    tag_108:\n        /* \"#utility.yul\":4370:4372   */\n      0x20\n        /* \"#utility.yul\":4365:4368   */\n      dup3\n        /* \"#utility.yul\":4361:4373   */\n      add\n        /* \"#utility.yul\":4354:4373   */\n      swap1\n      pop\n        /* \"#utility.yul\":4013:4379   */\n      swap2\n      swap1\n      pop\n      jump\t// out\n        /* \"#utility.yul\":4385:4804   */\n    tag_23:\n        /* \"#utility.yul\":4551:4555   */\n      0x00\n        /* \"#utility.yul\":4589:4591   */\n      0x20\n        /* \"#utility.yul\":4578:4587   */\n      dup3\n        /* \"#utility.yul\":4574:4592   */\n      add\n        /* \"#utility.yul\":4566:4592   */\n      swap1\n      pop\n        /* \"#utility.yul\":4638:4647   */\n      dup2\n        /* \"#utility.yul\":4632:4636   */\n      dup2\n        /* \"#utility.yul\":4628:4648   */\n      sub\n        /* \"#utility.yul\":4624:4625   */\n      0x00\n        /* \"#utility.yul\":4613:4622   */\n      dup4\n        /* \"#utility.yul\":4609:4626   */\n      add\n        /* \"#utility.yul\":4602:4649   */\n      mstore\n        /* \"#utility.yul\":4666:4797   */\n      tag_110\n        /* \"#utility.yul\":4792:4796   */\n      dup2\n        /* \"#utility.yul\":4666:4797   */\n      tag_53\n      jump\t// in\n    tag_110:\n        /* \"#utility.yul\":4658:4797   */\n      swap1\n      pop\n        /* \"#utility.yul\":4385:4804   */\n      swap2\n      swap1\n      pop\n      jump\t// out\n        /* \"#utility.yul\":4810:4990   */\n    tag_26:\n        /* \"#utility.yul\":4858:4935   */\n      0x4e487b7100000000000000000000000000000000000000000000000000000000\n        /* \"#utility.yul\":4855:4856   */\n      0x00\n        /* \"#utility.yul\":4848:4936   */\n      mstore\n        /* \"#utility.yul\":4955:4959   */\n      0x32\n        /* \"#utility.yul\":4952:4953   */\n      0x04\n        /* \"#utility.yul\":4945:4960   */\n      mstore\n        /* \"#utility.yul\":4979:4983   */\n      0x24\n        /* \"#utility.yul\":4976:4977   */\n      0x00\n        /* \"#utility.yul\":4969:4984   */\n      revert\n\n    auxdata: 0xa2646970667358221220ca4835fe947e29f8abe06f6a947284acbafa65c6876842df8a6f48ae1bc4d0dd64736f6c63430008180033\n}\n",
				"bytecode": {
					"linkReferences": {},
					"object": "608060405234801561000f575f80fd5b506105568061001d5f395ff3fe608060405234801561000f575f80fd5b506004361061003f575f3560e01c80634f9f6fe6146100435780637af5882b14610075578063bd14de9614610091575b5f80fd5b61005d600480360381019061005891906102dc565b6100c3565b60405161006c93929190610378565b60405180910390f35b61008f600480360381019061008a919061042b565b610176565b005b6100ab60048036038101906100a691906102dc565b610245565b6040516100ba93929190610378565b60405180910390f35b5f805f8080549050841061010c576040517f08c379a0000000000000000000000000000000000000000000000000000000008152600401610103906104d5565b60405180910390fd5b5f8085815481106101205761011f6104f3565b5b905f5260205f2090600202019050805f0154816001015f9054906101000a900473ffffffffffffffffffffffffffffffffffffffff168260010160149054906101000a900460ff16935093509350509193909250565b5f60405180606001604052808581526020018473ffffffffffffffffffffffffffffffffffffffff168152602001831515815250908060018154018082558091505060019003905f5260205f2090600202015f909190919091505f820151815f01556020820151816001015f6101000a81548173ffffffffffffffffffffffffffffffffffffffff021916908373ffffffffffffffffffffffffffffffffffffffff16021790555060408201518160010160146101000a81548160ff0219169083151502179055505050505050565b5f8181548110610253575f80fd5b905f5260205f2090600202015f91509050805f015490806001015f9054906101000a900473ffffffffffffffffffffffffffffffffffffffff16908060010160149054906101000a900460ff16905083565b5f80fd5b5f819050919050565b6102bb816102a9565b81146102c5575f80fd5b50565b5f813590506102d6816102b2565b92915050565b5f602082840312156102f1576102f06102a5565b5b5f6102fe848285016102c8565b91505092915050565b5f819050919050565b61031981610307565b82525050565b5f73ffffffffffffffffffffffffffffffffffffffff82169050919050565b5f6103488261031f565b9050919050565b6103588161033e565b82525050565b5f8115159050919050565b6103728161035e565b82525050565b5f60608201905061038b5f830186610310565b610398602083018561034f565b6103a56040830184610369565b949350505050565b6103b681610307565b81146103c0575f80fd5b50565b5f813590506103d1816103ad565b92915050565b6103e08161033e565b81146103ea575f80fd5b50565b5f813590506103fb816103d7565b92915050565b61040a8161035e565b8114610414575f80fd5b50565b5f8135905061042581610401565b92915050565b5f805f60608486031215610442576104416102a5565b5b5f61044f868287016103c3565b9350506020610460868287016103ed565b925050604061047186828701610417565b9150509250925092565b5f82825260208201905092915050565b7f496e646578206f7574206f6620626f756e6473000000000000000000000000005f82015250565b5f6104bf60138361047b565b91506104ca8261048b565b602082019050919050565b5f6020820190508181035f8301526104ec816104b3565b9050919050565b7f4e487b71000000000000000000000000000000000000000000000000000000005f52603260045260245ffdfea2646970667358221220ca4835fe947e29f8abe06f6a947284acbafa65c6876842df8a6f48ae1bc4d0dd64736f6c63430008180033",
					"opcodes": "PUSH1 0x80 PUSH1 0x40 MSTORE CALLVALUE DUP1 ISZERO PUSH2 0xF JUMPI PUSH0 DUP1 REVERT JUMPDEST POP PUSH2 0x556 DUP1 PUSH2 0x1D PUSH0 CODECOPY PUSH0 RETURN INVALID PUSH1 0x80 PUSH1 0x40 MSTORE CALLVALUE DUP1 ISZERO PUSH2 0xF JUMPI PUSH0 DUP1 REVERT JUMPDEST POP PUSH1 0x4 CALLDATASIZE LT PUSH2 0x3F JUMPI PUSH0 CALLDATALOAD PUSH1 0xE0 SHR DUP1 PUSH4 0x4F9F6FE6 EQ PUSH2 0x43 JUMPI DUP1 PUSH4 0x7AF5882B EQ PUSH2 0x75 JUMPI DUP1 PUSH4 0xBD14DE96 EQ PUSH2 0x91 JUMPI JUMPDEST PUSH0 DUP1 REVERT JUMPDEST PUSH2 0x5D PUSH1 0x4 DUP1 CALLDATASIZE SUB DUP2 ADD SWAP1 PUSH2 0x58 SWAP2 SWAP1 PUSH2 0x2DC JUMP JUMPDEST PUSH2 0xC3 JUMP JUMPDEST PUSH1 0x40 MLOAD PUSH2 0x6C SWAP4 SWAP3 SWAP2 SWAP1 PUSH2 0x378 JUMP JUMPDEST PUSH1 0x40 MLOAD DUP1 SWAP2 SUB SWAP1 RETURN JUMPDEST PUSH2 0x8F PUSH1 0x4 DUP1 CALLDATASIZE SUB DUP2 ADD SWAP1 PUSH2 0x8A SWAP2 SWAP1 PUSH2 0x42B JUMP JUMPDEST PUSH2 0x176 JUMP JUMPDEST STOP JUMPDEST PUSH2 0xAB PUSH1 0x4 DUP1 CALLDATASIZE SUB DUP2 ADD SWAP1 PUSH2 0xA6 SWAP2 SWAP1 PUSH2 0x2DC JUMP JUMPDEST PUSH2 0x245 JUMP JUMPDEST PUSH1 0x40 MLOAD PUSH2 0xBA SWAP4 SWAP3 SWAP2 SWAP1 PUSH2 0x378 JUMP JUMPDEST PUSH1 0x40 MLOAD DUP1 SWAP2 SUB SWAP1 RETURN JUMPDEST PUSH0 DUP1 PUSH0 DUP1 DUP1 SLOAD SWAP1 POP DUP5 LT PUSH2 0x10C JUMPI PUSH1 0x40 MLOAD PUSH32 0x8C379A000000000000000000000000000000000000000000000000000000000 DUP2 MSTORE PUSH1 0x4 ADD PUSH2 0x103 SWAP1 PUSH2 0x4D5 JUMP JUMPDEST PUSH1 0x40 MLOAD DUP1 SWAP2 SUB SWAP1 REVERT JUMPDEST PUSH0 DUP1 DUP6 DUP2 SLOAD DUP2 LT PUSH2 0x120 JUMPI PUSH2 0x11F PUSH2 0x4F3 JUMP JUMPDEST JUMPDEST SWAP1 PUSH0 MSTORE PUSH1 0x20 PUSH0 KECCAK256 SWAP1 PUSH1 0x2 MUL ADD SWAP1 POP DUP1 PUSH0 ADD SLOAD DUP2 PUSH1 0x1 ADD PUSH0 SWAP1 SLOAD SWAP1 PUSH2 0x100 EXP SWAP1 DIV PUSH20 0xFFFFFFFFFFFFFFFFFFFFFFFFFFFFFFFFFFFFFFFF AND DUP3 PUSH1 0x1 ADD PUSH1 0x14 SWAP1 SLOAD SWAP1 PUSH2 0x100 EXP SWAP1 DIV PUSH1 0xFF AND SWAP4 POP SWAP4 POP SWAP4 POP POP SWAP2 SWAP4 SWAP1 SWAP3 POP JUMP JUMPDEST PUSH0 PUSH1 0x40 MLOAD DUP1 PUSH1 0x60 ADD PUSH1 0x40 MSTORE DUP1 DUP6 DUP2 MSTORE PUSH1 0x20 ADD DUP5 PUSH20 0xFFFFFFFFFFFFFFFFFFFFFFFFFFFFFFFFFFFFFFFF AND DUP2 MSTORE PUSH1 0x20 ADD DUP4 ISZERO ISZERO DUP2 MSTORE POP SWAP1 DUP1 PUSH1 0x1 DUP2 SLOAD ADD DUP1 DUP3 SSTORE DUP1 SWAP2 POP POP PUSH1 0x1 SWAP1 SUB SWAP1 PUSH0 MSTORE PUSH1 0x20 PUSH0 KECCAK256 SWAP1 PUSH1 0x2 MUL ADD PUSH0 SWAP1 SWAP2 SWAP1 SWAP2 SWAP1 SWAP2 POP PUSH0 DUP3 ADD MLOAD DUP2 PUSH0 ADD SSTORE PUSH1 0x20 DUP3 ADD MLOAD DUP2 PUSH1 0x1 ADD PUSH0 PUSH2 0x100 EXP DUP2 SLOAD DUP2 PUSH20 0xFFFFFFFFFFFFFFFFFFFFFFFFFFFFFFFFFFFFFFFF MUL NOT AND SWAP1 DUP4 PUSH20 0xFFFFFFFFFFFFFFFFFFFFFFFFFFFFFFFFFFFFFFFF AND MUL OR SWAP1 SSTORE POP PUSH1 0x40 DUP3 ADD MLOAD DUP2 PUSH1 0x1 ADD PUSH1 0x14 PUSH2 0x100 EXP DUP2 SLOAD DUP2 PUSH1 0xFF MUL NOT AND SWAP1 DUP4 ISZERO ISZERO MUL OR SWAP1 SSTORE POP POP POP POP POP POP JUMP JUMPDEST PUSH0 DUP2 DUP2 SLOAD DUP2 LT PUSH2 0x253 JUMPI PUSH0 DUP1 REVERT JUMPDEST SWAP1 PUSH0 MSTORE PUSH1 0x20 PUSH0 KECCAK256 SWAP1 PUSH1 0x2 MUL ADD PUSH0 SWAP2 POP SWAP1 POP DUP1 PUSH0 ADD SLOAD SWAP1 DUP1 PUSH1 0x1 ADD PUSH0 SWAP1 SLOAD SWAP1 PUSH2 0x100 EXP SWAP1 DIV PUSH20 0xFFFFFFFFFFFFFFFFFFFFFFFFFFFFFFFFFFFFFFFF AND SWAP1 DUP1 PUSH1 0x1 ADD PUSH1 0x14 SWAP1 SLOAD SWAP1 PUSH2 0x100 EXP SWAP1 DIV PUSH1 0xFF AND SWAP1 POP DUP4 JUMP JUMPDEST PUSH0 DUP1 REVERT JUMPDEST PUSH0 DUP2 SWAP1 POP SWAP2 SWAP1 POP JUMP JUMPDEST PUSH2 0x2BB DUP2 PUSH2 0x2A9 JUMP JUMPDEST DUP2 EQ PUSH2 0x2C5 JUMPI PUSH0 DUP1 REVERT JUMPDEST POP JUMP JUMPDEST PUSH0 DUP2 CALLDATALOAD SWAP1 POP PUSH2 0x2D6 DUP2 PUSH2 0x2B2 JUMP JUMPDEST SWAP3 SWAP2 POP POP JUMP JUMPDEST PUSH0 PUSH1 0x20 DUP3 DUP5 SUB SLT ISZERO PUSH2 0x2F1 JUMPI PUSH2 0x2F0 PUSH2 0x2A5 JUMP JUMPDEST JUMPDEST PUSH0 PUSH2 0x2FE DUP5 DUP3 DUP6 ADD PUSH2 0x2C8 JUMP JUMPDEST SWAP2 POP POP SWAP3 SWAP2 POP POP JUMP JUMPDEST PUSH0 DUP2 SWAP1 POP SWAP2 SWAP1 POP JUMP JUMPDEST PUSH2 0x319 DUP2 PUSH2 0x307 JUMP JUMPDEST DUP3 MSTORE POP POP JUMP JUMPDEST PUSH0 PUSH20 0xFFFFFFFFFFFFFFFFFFFFFFFFFFFFFFFFFFFFFFFF DUP3 AND SWAP1 POP SWAP2 SWAP1 POP JUMP JUMPDEST PUSH0 PUSH2 0x348 DUP3 PUSH2 0x31F JUMP JUMPDEST SWAP1 POP SWAP2 SWAP1 POP JUMP JUMPDEST PUSH2 0x358 DUP2 PUSH2 0x33E JUMP JUMPDEST DUP3 MSTORE POP POP JUMP JUMPDEST PUSH0 DUP2 ISZERO ISZERO SWAP1 POP SWAP2 SWAP1 POP JUMP JUMPDEST PUSH2 0x372 DUP2 PUSH2 0x35E JUMP JUMPDEST DUP3 MSTORE POP POP JUMP JUMPDEST PUSH0 PUSH1 0x60 DUP3 ADD SWAP1 POP PUSH2 0x38B PUSH0 DUP4 ADD DUP7 PUSH2 0x310 JUMP JUMPDEST PUSH2 0x398 PUSH1 0x20 DUP4 ADD DUP6 PUSH2 0x34F JUMP JUMPDEST PUSH2 0x3A5 PUSH1 0x40 DUP4 ADD DUP5 PUSH2 0x369 JUMP JUMPDEST SWAP5 SWAP4 POP POP POP POP JUMP JUMPDEST PUSH2 0x3B6 DUP2 PUSH2 0x307 JUMP JUMPDEST DUP2 EQ PUSH2 0x3C0 JUMPI PUSH0 DUP1 REVERT JUMPDEST POP JUMP JUMPDEST PUSH0 DUP2 CALLDATALOAD SWAP1 POP PUSH2 0x3D1 DUP2 PUSH2 0x3AD JUMP JUMPDEST SWAP3 SWAP2 POP POP JUMP JUMPDEST PUSH2 0x3E0 DUP2 PUSH2 0x33E JUMP JUMPDEST DUP2 EQ PUSH2 0x3EA JUMPI PUSH0 DUP1 REVERT JUMPDEST POP JUMP JUMPDEST PUSH0 DUP2 CALLDATALOAD SWAP1 POP PUSH2 0x3FB DUP2 PUSH2 0x3D7 JUMP JUMPDEST SWAP3 SWAP2 POP POP JUMP JUMPDEST PUSH2 0x40A DUP2 PUSH2 0x35E JUMP JUMPDEST DUP2 EQ PUSH2 0x414 JUMPI PUSH0 DUP1 REVERT JUMPDEST POP JUMP JUMPDEST PUSH0 DUP2 CALLDATALOAD SWAP1 POP PUSH2 0x425 DUP2 PUSH2 0x401 JUMP JUMPDEST SWAP3 SWAP2 POP POP JUMP JUMPDEST PUSH0 DUP1 PUSH0 PUSH1 0x60 DUP5 DUP7 SUB SLT ISZERO PUSH2 0x442 JUMPI PUSH2 0x441 PUSH2 0x2A5 JUMP JUMPDEST JUMPDEST PUSH0 PUSH2 0x44F DUP7 DUP3 DUP8 ADD PUSH2 0x3C3 JUMP JUMPDEST SWAP4 POP POP PUSH1 0x20 PUSH2 0x460 DUP7 DUP3 DUP8 ADD PUSH2 0x3ED JUMP JUMPDEST SWAP3 POP POP PUSH1 0x40 PUSH2 0x471 DUP7 DUP3 DUP8 ADD PUSH2 0x417 JUMP JUMPDEST SWAP2 POP POP SWAP3 POP SWAP3 POP SWAP3 JUMP JUMPDEST PUSH0 DUP3 DUP3 MSTORE PUSH1 0x20 DUP3 ADD SWAP1 POP SWAP3 SWAP2 POP POP JUMP JUMPDEST PUSH32 0x496E646578206F7574206F6620626F756E647300000000000000000000000000 PUSH0 DUP3 ADD MSTORE POP JUMP JUMPDEST PUSH0 PUSH2 0x4BF PUSH1 0x13 DUP4 PUSH2 0x47B JUMP JUMPDEST SWAP2 POP PUSH2 0x4CA DUP3 PUSH2 0x48B JUMP JUMPDEST PUSH1 0x20 DUP3 ADD SWAP1 POP SWAP2 SWAP1 POP JUMP JUMPDEST PUSH0 PUSH1 0x20 DUP3 ADD SWAP1 POP DUP2 DUP2 SUB PUSH0 DUP4 ADD MSTORE PUSH2 0x4EC DUP2 PUSH2 0x4B3 JUMP JUMPDEST SWAP1 POP SWAP2 SWAP1 POP JUMP JUMPDEST PUSH32 0x4E487B7100000000000000000000000000000000000000000000000000000000 PUSH0 MSTORE PUSH1 0x32 PUSH1 0x4 MSTORE PUSH1 0x24 PUSH0 REVERT INVALID LOG2 PUSH5 0x6970667358 0x22 SLT KECCAK256 0xCA BASEFEE CALLDATALOAD INVALID SWAP5 PUSH31 0x29F8ABE06F6A947284ACBAFA65C6876842DF8A6F48AE1BC4D0DD64736F6C63 NUMBER STOP ADDMOD XOR STOP CALLER "
				},
				"gasEstimates": {
					"creation": {
						"codeDepositCost": "273200",
						"executionCost": "310",
						"totalCost": "273510"
					},
					"external": {
						"addAgreement(bytes32,address,bool)": "95945",
						"agreements(uint256)": "9513",
						"getAgreement(uint256)": "11620"
					}
				},
				"methodIdentifiers": {
					"addAgreement(bytes32,address,bool)": "7af5882b",
					"agreements(uint256)": "bd14de96",
					"getAgreement(uint256)": "4f9f6fe6"
				}
			},
			"storageLayout": {
				"storage": [
					{
						"astId": 12,
						"contract": "contracts/2_Agreement.sol:AgreementContract",
						"label": "agreements",
						"offset": 0,
						"slot": "0",
						"type": "t_array(t_struct(Agreement)8_storage)dyn_storage"
					}
				],
				"types": {
					"t_address": {
						"encoding": "inplace",
						"label": "address",
						"numberOfBytes": "20"
					},
					"t_array(t_struct(Agreement)8_storage)dyn_storage": {
						"base": "t_struct(Agreement)8_storage",
						"encoding": "dynamic_array",
						"label": "struct AgreementContract.Agreement[]",
						"numberOfBytes": "32"
					},
					"t_bool": {
						"encoding": "inplace",
						"label": "bool",
						"numberOfBytes": "1"
					},
					"t_bytes32": {
						"encoding": "inplace",
						"label": "bytes32",
						"numberOfBytes": "32"
					},
					"t_struct(Agreement)8_storage": {
						"encoding": "inplace",
						"label": "struct AgreementContract.Agreement",
						"members": [
							{
								"astId": 3,
								"contract": "contracts/2_Agreement.sol:AgreementContract",
								"label": "purposeBlockHash",
								"offset": 0,
								"slot": "0",
								"type": "t_bytes32"
							},
							{
								"astId": 5,
								"contract": "contracts/2_Agreement.sol:AgreementContract",
								"label": "userId",
								"offset": 0,
								"slot": "1",
								"type": "t_address"
							},
							{
								"astId": 7,
								"contract": "contracts/2_Agreement.sol:AgreementContract",
								"label": "consent",
								"offset": 20,
								"slot": "1",
								"type": "t_bool"
							}
						],
						"numberOfBytes": "64"
					}
				}
			},
			"userdoc": {
				"kind": "user",
				"methods": {},
				"version": 1
			}
		}
	}
}