{
	"contracts/DataUsageSmartContract.sol": {
		"DataUsageSmartContract": {
			"abi": [
				{
					"anonymous": false,
					"inputs": [
						{
							"indexed": false,
							"internalType": "uint256",
							"name": "dataUsageId",
							"type": "uint256"
						}
					],
					"name": "DataUsageAdded",
					"type": "event"
				},
				{
					"inputs": [
						{
							"internalType": "uint256",
							"name": "_actorId",
							"type": "uint256"
						},
						{
							"internalType": "string",
							"name": "_actorName",
							"type": "string"
						}
					],
					"name": "addActor",
					"outputs": [],
					"stateMutability": "nonpayable",
					"type": "function"
				},
				{
					"inputs": [
						{
							"internalType": "string",
							"name": "_serviceName",
							"type": "string"
						},
						{
							"internalType": "string",
							"name": "_servicePurpose",
							"type": "string"
						},
						{
							"internalType": "uint256",
							"name": "_actorId",
							"type": "uint256"
						},
						{
							"internalType": "string[]",
							"name": "_operations",
							"type": "string[]"
						},
						{
							"internalType": "uint256[]",
							"name": "_personalDataIds",
							"type": "uint256[]"
						}
					],
					"name": "addDataUsage",
					"outputs": [],
					"stateMutability": "nonpayable",
					"type": "function"
				},
				{
					"inputs": [
						{
							"internalType": "uint256",
							"name": "_userId",
							"type": "uint256"
						},
						{
							"internalType": "string",
							"name": "_userName",
							"type": "string"
						},
						{
							"internalType": "string",
							"name": "_userAddress",
							"type": "string"
						},
						{
							"internalType": "string",
							"name": "_userTelephone",
							"type": "string"
						},
						{
							"internalType": "string[]",
							"name": "additionalInfos",
							"type": "string[]"
						}
					],
					"name": "addPersonalData",
					"outputs": [],
					"stateMutability": "nonpayable",
					"type": "function"
				},
				{
					"inputs": [
						{
							"internalType": "uint256",
							"name": "_personalDataId",
							"type": "uint256"
						}
					],
					"name": "addProcessedPersonalData",
					"outputs": [],
					"stateMutability": "nonpayable",
					"type": "function"
				},
				{
					"inputs": [
						{
							"internalType": "uint256",
							"name": "_actorId",
							"type": "uint256"
						}
					],
					"name": "getActorByKey",
					"outputs": [
						{
							"components": [
								{
									"internalType": "uint256",
									"name": "actorId",
									"type": "uint256"
								},
								{
									"internalType": "string",
									"name": "actorName",
									"type": "string"
								}
							],
							"internalType": "struct DataUsageSmartContract.Actor",
							"name": "",
							"type": "tuple"
						}
					],
					"stateMutability": "view",
					"type": "function"
				},
				{
					"inputs": [],
					"name": "getActorIds",
					"outputs": [
						{
							"internalType": "uint256[]",
							"name": "",
							"type": "uint256[]"
						}
					],
					"stateMutability": "view",
					"type": "function"
				},
				{
					"inputs": [
						{
							"internalType": "uint256",
							"name": "_dataUsageId",
							"type": "uint256"
						}
					],
					"name": "getDataUsageByKey",
					"outputs": [
						{
							"components": [
								{
									"internalType": "string",
									"name": "serviceName",
									"type": "string"
								},
								{
									"internalType": "string",
									"name": "servicePurpose",
									"type": "string"
								},
								{
									"internalType": "uint256",
									"name": "actorId",
									"type": "uint256"
								},
								{
									"internalType": "string[]",
									"name": "operations",
									"type": "string[]"
								},
								{
									"internalType": "uint256[]",
									"name": "personalDataIds",
									"type": "uint256[]"
								},
								{
									"internalType": "bytes32[]",
									"name": "processedPersonalDatas",
									"type": "bytes32[]"
								}
							],
							"internalType": "struct DataUsageSmartContract.DataUsage",
							"name": "",
							"type": "tuple"
						}
					],
					"stateMutability": "view",
					"type": "function"
				},
				{
					"inputs": [],
					"name": "getDataUsageCounter",
					"outputs": [
						{
							"internalType": "uint256",
							"name": "",
							"type": "uint256"
						}
					],
					"stateMutability": "view",
					"type": "function"
				},
				{
					"inputs": [
						{
							"internalType": "uint256",
							"name": "_personalDataId",
							"type": "uint256"
						}
					],
					"name": "getPersonalDataByKey",
					"outputs": [
						{
							"components": [
								{
									"internalType": "uint256",
									"name": "userId",
									"type": "uint256"
								},
								{
									"internalType": "string",
									"name": "userName",
									"type": "string"
								},
								{
									"internalType": "string",
									"name": "userAddress",
									"type": "string"
								},
								{
									"internalType": "string",
									"name": "userTelephone",
									"type": "string"
								},
								{
									"internalType": "string[]",
									"name": "additionalInfos",
									"type": "string[]"
								}
							],
							"internalType": "struct DataUsageSmartContract.PersonalData",
							"name": "",
							"type": "tuple"
						}
					],
					"stateMutability": "view",
					"type": "function"
				},
				{
					"inputs": [],
					"name": "getPersonalDataCounter",
					"outputs": [
						{
							"internalType": "uint256",
							"name": "",
							"type": "uint256"
						}
					],
					"stateMutability": "view",
					"type": "function"
				},
				{
					"inputs": [
						{
							"internalType": "uint256",
							"name": "_personalDataId",
							"type": "uint256"
						}
					],
					"name": "getProcessedPersonalDataByKey",
					"outputs": [
						{
							"internalType": "bytes32",
							"name": "",
							"type": "bytes32"
						}
					],
					"stateMutability": "view",
					"type": "function"
				},
				{
					"inputs": [],
					"name": "owner",
					"outputs": [
						{
							"internalType": "address",
							"name": "",
							"type": "address"
						}
					],
					"stateMutability": "view",
					"type": "function"
				}
			],
			"devdoc": {
				"kind": "dev",
				"methods": {},
				"version": 1
			},
			"evm": {
				"assembly": "    /* \"contracts/DataUsageSmartContract.sol\":94:6726  contract DataUsageSmartContract is AccessControl {... */\n  mstore(0x40, 0x80)\n    /* \"contracts/DataUsageSmartContract.sol\":1447:1448  0 */\n  0x00\n    /* \"contracts/DataUsageSmartContract.sol\":1415:1448  uint private dataUsageCounter = 0 */\n  0x05\n  sstore\n    /* \"contracts/DataUsageSmartContract.sol\":1520:1521  0 */\n  0x00\n    /* \"contracts/DataUsageSmartContract.sol\":1485:1521  uint private personalDataCounter = 0 */\n  0x07\n  sstore\n    /* \"contracts/DataUsageSmartContract.sol\":94:6726  contract DataUsageSmartContract is AccessControl {... */\n  callvalue\n  dup1\n  iszero\n  tag_1\n  jumpi\n  0x00\n  dup1\n  revert\ntag_1:\n  pop\n    /* \"contracts/AccessControl.sol\":145:155  msg.sender */\n  caller\n    /* \"contracts/AccessControl.sol\":137:142  owner */\n  0x00\n  dup1\n    /* \"contracts/AccessControl.sol\":137:155  owner = msg.sender */\n  0x0100\n  exp\n  dup2\n  sload\n  dup2\n  0xffffffffffffffffffffffffffffffffffffffff\n  mul\n  not\n  and\n  swap1\n  dup4\n  0xffffffffffffffffffffffffffffffffffffffff\n  and\n  mul\n  or\n  swap1\n  sstore\n  pop\n    /* \"contracts/DataUsageSmartContract.sol\":94:6726  contract DataUsageSmartContract is AccessControl {... */\n  dataSize(sub_0)\n  dup1\n  dataOffset(sub_0)\n  0x00\n  codecopy\n  0x00\n  return\nstop\n\nsub_0: assembly {\n        /* \"contracts/DataUsageSmartContract.sol\":94:6726  contract DataUsageSmartContract is AccessControl {... */\n      mstore(0x40, 0x80)\n      callvalue\n      dup1\n      iszero\n      tag_1\n      jumpi\n      0x00\n      dup1\n      revert\n    tag_1:\n      pop\n      jumpi(tag_2, lt(calldatasize, 0x04))\n      shr(0xe0, calldataload(0x00))\n      dup1\n      0x8da5cb5b\n      gt\n      tag_15\n      jumpi\n      dup1\n      0x8da5cb5b\n      eq\n      tag_9\n      jumpi\n      dup1\n      0xb61798f6\n      eq\n      tag_10\n      jumpi\n      dup1\n      0xc585665d\n      eq\n      tag_11\n      jumpi\n      dup1\n      0xca07b122\n      eq\n      tag_12\n      jumpi\n      dup1\n      0xd2b0649a\n      eq\n      tag_13\n      jumpi\n      dup1\n      0xd8a761d9\n      eq\n      tag_14\n      jumpi\n      jump(tag_2)\n    tag_15:\n      dup1\n      0x0dab7cd9\n      eq\n      tag_3\n      jumpi\n      dup1\n      0x3a918356\n      eq\n      tag_4\n      jumpi\n      dup1\n      0x3f81de59\n      eq\n      tag_5\n      jumpi\n      dup1\n      0x4b58fbe9\n      eq\n      tag_6\n      jumpi\n      dup1\n      0x682477d7\n      eq\n      tag_7\n      jumpi\n      dup1\n      0x68e92436\n      eq\n      tag_8\n      jumpi\n    tag_2:\n      0x00\n      dup1\n      revert\n        /* \"contracts/DataUsageSmartContract.sol\":1891:2411  function addPersonalData(... */\n    tag_3:\n      tag_16\n      0x04\n      dup1\n      calldatasize\n      sub\n      dup2\n      add\n      swap1\n      tag_17\n      swap2\n      swap1\n      tag_18\n      jump\t// in\n    tag_17:\n      tag_19\n      jump\t// in\n    tag_16:\n      stop\n        /* \"contracts/DataUsageSmartContract.sol\":5020:5113  function getActorIds() public view returns (uint[] memory) {... */\n    tag_4:\n      tag_20\n      tag_21\n      jump\t// in\n    tag_20:\n      mload(0x40)\n      tag_22\n      swap2\n      swap1\n      tag_23\n      jump\t// in\n    tag_22:\n      mload(0x40)\n      dup1\n      swap2\n      sub\n      swap1\n      return\n        /* \"contracts/DataUsageSmartContract.sol\":2903:4101  function addProcessedPersonalData(uint _personalDataId) public onlyOwner {... */\n    tag_5:\n      tag_24\n      0x04\n      dup1\n      calldatasize\n      sub\n      dup2\n      add\n      swap1\n      tag_25\n      swap2\n      swap1\n      tag_26\n      jump\t// in\n    tag_25:\n      tag_27\n      jump\t// in\n    tag_24:\n      stop\n        /* \"contracts/DataUsageSmartContract.sol\":2666:2772  function getPersonalDataCounter() public view returns (uint) {... */\n    tag_6:\n      tag_28\n      tag_29\n      jump\t// in\n    tag_28:\n      mload(0x40)\n      tag_30\n      swap2\n      swap1\n      tag_31\n      jump\t// in\n    tag_30:\n      mload(0x40)\n      dup1\n      swap2\n      sub\n      swap1\n      return\n        /* \"contracts/DataUsageSmartContract.sol\":6623:6723  function getDataUsageCounter() public view returns (uint) {... */\n    tag_7:\n      tag_32\n      tag_33\n      jump\t// in\n    tag_32:\n      mload(0x40)\n      tag_34\n      swap2\n      swap1\n      tag_31\n      jump\t// in\n    tag_34:\n      mload(0x40)\n      dup1\n      swap2\n      sub\n      swap1\n      return\n        /* \"contracts/DataUsageSmartContract.sol\":4478:4783  function addActor(uint _actorId, string memory _actorName) public onlyOwner {... */\n    tag_8:\n      tag_35\n      0x04\n      dup1\n      calldatasize\n      sub\n      dup2\n      add\n      swap1\n      tag_36\n      swap2\n      swap1\n      tag_37\n      jump\t// in\n    tag_36:\n      tag_38\n      jump\t// in\n    tag_35:\n      stop\n        /* \"contracts/AccessControl.sol\":86:106  address public owner */\n    tag_9:\n      tag_39\n      tag_40\n      jump\t// in\n    tag_39:\n      mload(0x40)\n      tag_41\n      swap2\n      swap1\n      tag_42\n      jump\t// in\n    tag_41:\n      mload(0x40)\n      dup1\n      swap2\n      sub\n      swap1\n      return\n        /* \"contracts/DataUsageSmartContract.sol\":4109:4363  function getProcessedPersonalDataByKey(uint _personalDataId) public view returns (bytes32) {... */\n    tag_10:\n      tag_43\n      0x04\n      dup1\n      calldatasize\n      sub\n      dup2\n      add\n      swap1\n      tag_44\n      swap2\n      swap1\n      tag_26\n      jump\t// in\n    tag_44:\n      tag_45\n      jump\t// in\n    tag_43:\n      mload(0x40)\n      tag_46\n      swap2\n      swap1\n      tag_47\n      jump\t// in\n    tag_46:\n      mload(0x40)\n      dup1\n      swap2\n      sub\n      swap1\n      return\n        /* \"contracts/DataUsageSmartContract.sol\":4791:5012  function getActorByKey(uint _actorId) public view returns (Actor memory) {... */\n    tag_11:\n      tag_48\n      0x04\n      dup1\n      calldatasize\n      sub\n      dup2\n      add\n      swap1\n      tag_49\n      swap2\n      swap1\n      tag_26\n      jump\t// in\n    tag_49:\n      tag_50\n      jump\t// in\n    tag_48:\n      mload(0x40)\n      tag_51\n      swap2\n      swap1\n      tag_52\n      jump\t// in\n    tag_51:\n      mload(0x40)\n      dup1\n      swap2\n      sub\n      swap1\n      return\n        /* \"contracts/DataUsageSmartContract.sol\":5232:6390  function addDataUsage(... */\n    tag_12:\n      tag_53\n      0x04\n      dup1\n      calldatasize\n      sub\n      dup2\n      add\n      swap1\n      tag_54\n      swap2\n      swap1\n      tag_55\n      jump\t// in\n    tag_54:\n      tag_56\n      jump\t// in\n    tag_53:\n      stop\n        /* \"contracts/DataUsageSmartContract.sol\":6400:6615  function getDataUsageByKey(uint _dataUsageId) public view returns (DataUsage memory) {... */\n    tag_13:\n      tag_57\n      0x04\n      dup1\n      calldatasize\n      sub\n      dup2\n      add\n      swap1\n      tag_58\n      swap2\n      swap1\n      tag_26\n      jump\t// in\n    tag_58:\n      tag_59\n      jump\t// in\n    tag_57:\n      mload(0x40)\n      tag_60\n      swap2\n      swap1\n      tag_61\n      jump\t// in\n    tag_60:\n      mload(0x40)\n      dup1\n      swap2\n      sub\n      swap1\n      return\n        /* \"contracts/DataUsageSmartContract.sol\":2419:2658  function getPersonalDataByKey(uint _personalDataId) public view returns (PersonalData memory) {... */\n    tag_14:\n      tag_62\n      0x04\n      dup1\n      calldatasize\n      sub\n      dup2\n      add\n      swap1\n      tag_63\n      swap2\n      swap1\n      tag_26\n      jump\t// in\n    tag_63:\n      tag_64\n      jump\t// in\n    tag_62:\n      mload(0x40)\n      tag_65\n      swap2\n      swap1\n      tag_66\n      jump\t// in\n    tag_65:\n      mload(0x40)\n      dup1\n      swap2\n      sub\n      swap1\n      return\n        /* \"contracts/DataUsageSmartContract.sol\":1891:2411  function addPersonalData(... */\n    tag_19:\n        /* \"contracts/AccessControl.sol\":220:225  owner */\n      0x00\n      dup1\n      sload\n      swap1\n      0x0100\n      exp\n      swap1\n      div\n      0xffffffffffffffffffffffffffffffffffffffff\n      and\n        /* \"contracts/AccessControl.sol\":206:225  msg.sender == owner */\n      0xffffffffffffffffffffffffffffffffffffffff\n      and\n        /* \"contracts/AccessControl.sol\":206:216  msg.sender */\n      caller\n        /* \"contracts/AccessControl.sol\":206:225  msg.sender == owner */\n      0xffffffffffffffffffffffffffffffffffffffff\n      and\n      eq\n        /* \"contracts/AccessControl.sol\":198:280  require(msg.sender == owner, \"Only the contract owner can perform this operation\") */\n      tag_68\n      jumpi\n      mload(0x40)\n      0x08c379a000000000000000000000000000000000000000000000000000000000\n      dup2\n      mstore\n      0x04\n      add\n      tag_69\n      swap1\n      tag_70\n      jump\t// in\n    tag_69:\n      mload(0x40)\n      dup1\n      swap2\n      sub\n      swap1\n      revert\n    tag_68:\n        /* \"contracts/DataUsageSmartContract.sol\":2151:2371  PersonalData({... */\n      mload(0x40)\n      dup1\n      0xa0\n      add\n      0x40\n      mstore\n      dup1\n        /* \"contracts/DataUsageSmartContract.sol\":2187:2194  _userId */\n      dup7\n        /* \"contracts/DataUsageSmartContract.sol\":2151:2371  PersonalData({... */\n      dup2\n      mstore\n      0x20\n      add\n        /* \"contracts/DataUsageSmartContract.sol\":2219:2228  _userName */\n      dup6\n        /* \"contracts/DataUsageSmartContract.sol\":2151:2371  PersonalData({... */\n      dup2\n      mstore\n      0x20\n      add\n        /* \"contracts/DataUsageSmartContract.sol\":2256:2268  _userAddress */\n      dup5\n        /* \"contracts/DataUsageSmartContract.sol\":2151:2371  PersonalData({... */\n      dup2\n      mstore\n      0x20\n      add\n        /* \"contracts/DataUsageSmartContract.sol\":2298:2312  _userTelephone */\n      dup4\n        /* \"contracts/DataUsageSmartContract.sol\":2151:2371  PersonalData({... */\n      dup2\n      mstore\n      0x20\n      add\n        /* \"contracts/DataUsageSmartContract.sol\":2344:2359  additionalInfos */\n      dup3\n        /* \"contracts/DataUsageSmartContract.sol\":2151:2371  PersonalData({... */\n      dup2\n      mstore\n      pop\n        /* \"contracts/DataUsageSmartContract.sol\":2126:2139  personalDatas */\n      0x03\n        /* \"contracts/DataUsageSmartContract.sol\":2126:2148  personalDatas[_userId] */\n      0x00\n        /* \"contracts/DataUsageSmartContract.sol\":2140:2147  _userId */\n      dup8\n        /* \"contracts/DataUsageSmartContract.sol\":2126:2148  personalDatas[_userId] */\n      dup2\n      mstore\n      0x20\n      add\n      swap1\n      dup2\n      mstore\n      0x20\n      add\n      0x00\n      keccak256\n        /* \"contracts/DataUsageSmartContract.sol\":2126:2371  personalDatas[_userId] = PersonalData({... */\n      0x00\n      dup3\n      add\n      mload\n      dup2\n      0x00\n      add\n      sstore\n      0x20\n      dup3\n      add\n      mload\n      dup2\n      0x01\n      add\n      swap1\n      dup2\n      tag_72\n      swap2\n      swap1\n      tag_73\n      jump\t// in\n    tag_72:\n      pop\n      0x40\n      dup3\n      add\n      mload\n      dup2\n      0x02\n      add\n      swap1\n      dup2\n      tag_74\n      swap2\n      swap1\n      tag_73\n      jump\t// in\n    tag_74:\n      pop\n      0x60\n      dup3\n      add\n      mload\n      dup2\n      0x03\n      add\n      swap1\n      dup2\n      tag_75\n      swap2\n      swap1\n      tag_73\n      jump\t// in\n    tag_75:\n      pop\n      0x80\n      dup3\n      add\n      mload\n      dup2\n      0x04\n      add\n      swap1\n      dup1\n      mload\n      swap1\n      0x20\n      add\n      swap1\n      tag_76\n      swap3\n      swap2\n      swap1\n      tag_77\n      jump\t// in\n    tag_76:\n      pop\n      swap1\n      pop\n      pop\n        /* \"contracts/DataUsageSmartContract.sol\":2382:2401  personalDataCounter */\n      0x07\n      0x00\n        /* \"contracts/DataUsageSmartContract.sol\":2382:2403  personalDataCounter++ */\n      dup2\n      sload\n      dup1\n      swap3\n      swap2\n      swap1\n      tag_78\n      swap1\n      tag_79\n      jump\t// in\n    tag_78:\n      swap2\n      swap1\n      pop\n      sstore\n      pop\n        /* \"contracts/DataUsageSmartContract.sol\":1891:2411  function addPersonalData(... */\n      pop\n      pop\n      pop\n      pop\n      pop\n      jump\t// out\n        /* \"contracts/DataUsageSmartContract.sol\":5020:5113  function getActorIds() public view returns (uint[] memory) {... */\n    tag_21:\n        /* \"contracts/DataUsageSmartContract.sol\":5064:5077  uint[] memory */\n      0x60\n        /* \"contracts/DataUsageSmartContract.sol\":5097:5105  actorIds */\n      0x06\n        /* \"contracts/DataUsageSmartContract.sol\":5090:5105  return actorIds */\n      dup1\n      sload\n      dup1\n      0x20\n      mul\n      0x20\n      add\n      mload(0x40)\n      swap1\n      dup2\n      add\n      0x40\n      mstore\n      dup1\n      swap3\n      swap2\n      swap1\n      dup2\n      dup2\n      mstore\n      0x20\n      add\n      dup3\n      dup1\n      sload\n      dup1\n      iszero\n      tag_81\n      jumpi\n      0x20\n      mul\n      dup3\n      add\n      swap2\n      swap1\n      0x00\n      mstore\n      keccak256(0x00, 0x20)\n      swap1\n    tag_82:\n      dup2\n      sload\n      dup2\n      mstore\n      0x20\n      add\n      swap1\n      0x01\n      add\n      swap1\n      dup1\n      dup4\n      gt\n      tag_82\n      jumpi\n    tag_81:\n      pop\n      pop\n      pop\n      pop\n      pop\n      swap1\n      pop\n        /* \"contracts/DataUsageSmartContract.sol\":5020:5113  function getActorIds() public view returns (uint[] memory) {... */\n      swap1\n      jump\t// out\n        /* \"contracts/DataUsageSmartContract.sol\":2903:4101  function addProcessedPersonalData(uint _personalDataId) public onlyOwner {... */\n    tag_27:\n        /* \"contracts/AccessControl.sol\":220:225  owner */\n      0x00\n      dup1\n      sload\n      swap1\n      0x0100\n      exp\n      swap1\n      div\n      0xffffffffffffffffffffffffffffffffffffffff\n      and\n        /* \"contracts/AccessControl.sol\":206:225  msg.sender == owner */\n      0xffffffffffffffffffffffffffffffffffffffff\n      and\n        /* \"contracts/AccessControl.sol\":206:216  msg.sender */\n      caller\n        /* \"contracts/AccessControl.sol\":206:225  msg.sender == owner */\n      0xffffffffffffffffffffffffffffffffffffffff\n      and\n      eq\n        /* \"contracts/AccessControl.sol\":198:280  require(msg.sender == owner, \"Only the contract owner can perform this operation\") */\n      tag_84\n      jumpi\n      mload(0x40)\n      0x08c379a000000000000000000000000000000000000000000000000000000000\n      dup2\n      mstore\n      0x04\n      add\n      tag_85\n      swap1\n      tag_70\n      jump\t// in\n    tag_85:\n      mload(0x40)\n      dup1\n      swap2\n      sub\n      swap1\n      revert\n    tag_84:\n        /* \"contracts/DataUsageSmartContract.sol\":3062:3081  personalDataCounter */\n      sload(0x07)\n        /* \"contracts/DataUsageSmartContract.sol\":3044:3059  _personalDataId */\n      dup2\n        /* \"contracts/DataUsageSmartContract.sol\":3044:3081  _personalDataId < personalDataCounter */\n      lt\n        /* \"contracts/DataUsageSmartContract.sol\":3036:3114  require(_personalDataId < personalDataCounter, \"PersonalData does not exist.\") */\n      tag_87\n      jumpi\n      mload(0x40)\n      0x08c379a000000000000000000000000000000000000000000000000000000000\n      dup2\n      mstore\n      0x04\n      add\n      tag_88\n      swap1\n      tag_89\n      jump\t// in\n    tag_88:\n      mload(0x40)\n      dup1\n      swap2\n      sub\n      swap1\n      revert\n    tag_87:\n        /* \"contracts/DataUsageSmartContract.sol\":3170:3203  PersonalData storage personalData */\n      0x00\n        /* \"contracts/DataUsageSmartContract.sol\":3206:3219  personalDatas */\n      0x03\n        /* \"contracts/DataUsageSmartContract.sol\":3206:3236  personalDatas[_personalDataId] */\n      0x00\n        /* \"contracts/DataUsageSmartContract.sol\":3220:3235  _personalDataId */\n      dup4\n        /* \"contracts/DataUsageSmartContract.sol\":3206:3236  personalDatas[_personalDataId] */\n      dup2\n      mstore\n      0x20\n      add\n      swap1\n      dup2\n      mstore\n      0x20\n      add\n      0x00\n      keccak256\n        /* \"contracts/DataUsageSmartContract.sol\":3170:3236  PersonalData storage personalData = personalDatas[_personalDataId] */\n      swap1\n      pop\n        /* \"contracts/DataUsageSmartContract.sol\":3327:3350  bytes memory dataToHash */\n      0x60\n        /* \"contracts/DataUsageSmartContract.sol\":3449:3461  personalData */\n      dup2\n        /* \"contracts/DataUsageSmartContract.sol\":3449:3470  personalData.userName */\n      0x01\n      add\n        /* \"contracts/DataUsageSmartContract.sol\":3485:3497  personalData */\n      dup3\n        /* \"contracts/DataUsageSmartContract.sol\":3485:3509  personalData.userAddress */\n      0x02\n      add\n        /* \"contracts/DataUsageSmartContract.sol\":3524:3536  personalData */\n      dup4\n        /* \"contracts/DataUsageSmartContract.sol\":3524:3550  personalData.userTelephone */\n      0x03\n      add\n        /* \"contracts/DataUsageSmartContract.sol\":3418:3561  abi.encodePacked(... */\n      add(0x20, mload(0x40))\n      tag_90\n      swap4\n      swap3\n      swap2\n      swap1\n      tag_91\n      jump\t// in\n    tag_90:\n      mload(0x40)\n      0x20\n      dup2\n      dup4\n      sub\n      sub\n      dup2\n      mstore\n      swap1\n      0x40\n      mstore\n        /* \"contracts/DataUsageSmartContract.sol\":3405:3561  dataToHash = abi.encodePacked(... */\n      swap1\n      pop\n        /* \"contracts/DataUsageSmartContract.sol\":3663:3669  uint i */\n      0x00\n        /* \"contracts/DataUsageSmartContract.sol\":3658:3822  for (uint i = 0; i < personalData.additionalInfos.length; i++) {... */\n    tag_92:\n        /* \"contracts/DataUsageSmartContract.sol\":3679:3691  personalData */\n      dup3\n        /* \"contracts/DataUsageSmartContract.sol\":3679:3707  personalData.additionalInfos */\n      0x04\n      add\n        /* \"contracts/DataUsageSmartContract.sol\":3679:3714  personalData.additionalInfos.length */\n      dup1\n      sload\n      swap1\n      pop\n        /* \"contracts/DataUsageSmartContract.sol\":3675:3676  i */\n      dup2\n        /* \"contracts/DataUsageSmartContract.sol\":3675:3714  i < personalData.additionalInfos.length */\n      lt\n        /* \"contracts/DataUsageSmartContract.sol\":3658:3822  for (uint i = 0; i < personalData.additionalInfos.length; i++) {... */\n      iszero\n      tag_93\n      jumpi\n        /* \"contracts/DataUsageSmartContract.sol\":3766:3776  dataToHash */\n      dup2\n        /* \"contracts/DataUsageSmartContract.sol\":3778:3790  personalData */\n      dup4\n        /* \"contracts/DataUsageSmartContract.sol\":3778:3806  personalData.additionalInfos */\n      0x04\n      add\n        /* \"contracts/DataUsageSmartContract.sol\":3807:3808  i */\n      dup3\n        /* \"contracts/DataUsageSmartContract.sol\":3778:3809  personalData.additionalInfos[i] */\n      dup2\n      sload\n      dup2\n      lt\n      tag_95\n      jumpi\n      tag_96\n      tag_97\n      jump\t// in\n    tag_96:\n    tag_95:\n      swap1\n      0x00\n      mstore\n      keccak256(0x00, 0x20)\n      add\n        /* \"contracts/DataUsageSmartContract.sol\":3749:3810  abi.encodePacked(dataToHash, personalData.additionalInfos[i]) */\n      add(0x20, mload(0x40))\n      tag_99\n      swap3\n      swap2\n      swap1\n      tag_100\n      jump\t// in\n    tag_99:\n      mload(0x40)\n      0x20\n      dup2\n      dup4\n      sub\n      sub\n      dup2\n      mstore\n      swap1\n      0x40\n      mstore\n        /* \"contracts/DataUsageSmartContract.sol\":3736:3810  dataToHash = abi.encodePacked(dataToHash, personalData.additionalInfos[i]) */\n      swap2\n      pop\n        /* \"contracts/DataUsageSmartContract.sol\":3716:3719  i++ */\n      dup1\n      dup1\n      0x01\n      add\n      swap2\n      pop\n      pop\n        /* \"contracts/DataUsageSmartContract.sol\":3658:3822  for (uint i = 0; i < personalData.additionalInfos.length; i++) {... */\n      jump(tag_92)\n    tag_93:\n      pop\n        /* \"contracts/DataUsageSmartContract.sol\":3889:3918  bytes32 processedPersonalData */\n      0x00\n        /* \"contracts/DataUsageSmartContract.sol\":3931:3941  dataToHash */\n      dup2\n        /* \"contracts/DataUsageSmartContract.sol\":3921:3942  keccak256(dataToHash) */\n      dup1\n      mload\n      swap1\n      0x20\n      add\n      keccak256\n        /* \"contracts/DataUsageSmartContract.sol\":3889:3942  bytes32 processedPersonalData = keccak256(dataToHash) */\n      swap1\n      pop\n        /* \"contracts/DataUsageSmartContract.sol\":4069:4090  processedPersonalData */\n      dup1\n        /* \"contracts/DataUsageSmartContract.sol\":4027:4049  processedPersonalDatas */\n      0x04\n        /* \"contracts/DataUsageSmartContract.sol\":4027:4066  processedPersonalDatas[_personalDataId] */\n      0x00\n        /* \"contracts/DataUsageSmartContract.sol\":4050:4065  _personalDataId */\n      dup7\n        /* \"contracts/DataUsageSmartContract.sol\":4027:4066  processedPersonalDatas[_personalDataId] */\n      dup2\n      mstore\n      0x20\n      add\n      swap1\n      dup2\n      mstore\n      0x20\n      add\n      0x00\n      keccak256\n        /* \"contracts/DataUsageSmartContract.sol\":4027:4090  processedPersonalDatas[_personalDataId] = processedPersonalData */\n      dup2\n      swap1\n      sstore\n      pop\n        /* \"contracts/DataUsageSmartContract.sol\":2976:4101  {... */\n      pop\n      pop\n      pop\n        /* \"contracts/DataUsageSmartContract.sol\":2903:4101  function addProcessedPersonalData(uint _personalDataId) public onlyOwner {... */\n      pop\n      jump\t// out\n        /* \"contracts/DataUsageSmartContract.sol\":2666:2772  function getPersonalDataCounter() public view returns (uint) {... */\n    tag_29:\n        /* \"contracts/DataUsageSmartContract.sol\":2721:2725  uint */\n      0x00\n        /* \"contracts/DataUsageSmartContract.sol\":2745:2764  personalDataCounter */\n      sload(0x07)\n        /* \"contracts/DataUsageSmartContract.sol\":2738:2764  return personalDataCounter */\n      swap1\n      pop\n        /* \"contracts/DataUsageSmartContract.sol\":2666:2772  function getPersonalDataCounter() public view returns (uint) {... */\n      swap1\n      jump\t// out\n        /* \"contracts/DataUsageSmartContract.sol\":6623:6723  function getDataUsageCounter() public view returns (uint) {... */\n    tag_33:\n        /* \"contracts/DataUsageSmartContract.sol\":6675:6679  uint */\n      0x00\n        /* \"contracts/DataUsageSmartContract.sol\":6699:6715  dataUsageCounter */\n      sload(0x05)\n        /* \"contracts/DataUsageSmartContract.sol\":6692:6715  return dataUsageCounter */\n      swap1\n      pop\n        /* \"contracts/DataUsageSmartContract.sol\":6623:6723  function getDataUsageCounter() public view returns (uint) {... */\n      swap1\n      jump\t// out\n        /* \"contracts/DataUsageSmartContract.sol\":4478:4783  function addActor(uint _actorId, string memory _actorName) public onlyOwner {... */\n    tag_38:\n        /* \"contracts/AccessControl.sol\":220:225  owner */\n      0x00\n      dup1\n      sload\n      swap1\n      0x0100\n      exp\n      swap1\n      div\n      0xffffffffffffffffffffffffffffffffffffffff\n      and\n        /* \"contracts/AccessControl.sol\":206:225  msg.sender == owner */\n      0xffffffffffffffffffffffffffffffffffffffff\n      and\n        /* \"contracts/AccessControl.sol\":206:216  msg.sender */\n      caller\n        /* \"contracts/AccessControl.sol\":206:225  msg.sender == owner */\n      0xffffffffffffffffffffffffffffffffffffffff\n      and\n      eq\n        /* \"contracts/AccessControl.sol\":198:280  require(msg.sender == owner, \"Only the contract owner can perform this operation\") */\n      tag_104\n      jumpi\n      mload(0x40)\n      0x08c379a000000000000000000000000000000000000000000000000000000000\n      dup2\n      mstore\n      0x04\n      add\n      tag_105\n      swap1\n      tag_70\n      jump\t// in\n    tag_105:\n      mload(0x40)\n      dup1\n      swap2\n      sub\n      swap1\n      revert\n    tag_104:\n        /* \"contracts/DataUsageSmartContract.sol\":4584:4670  Actor({... */\n      mload(0x40)\n      dup1\n      0x40\n      add\n      0x40\n      mstore\n      dup1\n        /* \"contracts/DataUsageSmartContract.sol\":4614:4622  _actorId */\n      dup4\n        /* \"contracts/DataUsageSmartContract.sol\":4584:4670  Actor({... */\n      dup2\n      mstore\n      0x20\n      add\n        /* \"contracts/DataUsageSmartContract.sol\":4648:4658  _actorName */\n      dup3\n        /* \"contracts/DataUsageSmartContract.sol\":4584:4670  Actor({... */\n      dup2\n      mstore\n      pop\n        /* \"contracts/DataUsageSmartContract.sol\":4565:4571  actors */\n      0x02\n        /* \"contracts/DataUsageSmartContract.sol\":4565:4581  actors[_actorId] */\n      0x00\n        /* \"contracts/DataUsageSmartContract.sol\":4572:4580  _actorId */\n      dup5\n        /* \"contracts/DataUsageSmartContract.sol\":4565:4581  actors[_actorId] */\n      dup2\n      mstore\n      0x20\n      add\n      swap1\n      dup2\n      mstore\n      0x20\n      add\n      0x00\n      keccak256\n        /* \"contracts/DataUsageSmartContract.sol\":4565:4670  actors[_actorId] = Actor({... */\n      0x00\n      dup3\n      add\n      mload\n      dup2\n      0x00\n      add\n      sstore\n      0x20\n      dup3\n      add\n      mload\n      dup2\n      0x01\n      add\n      swap1\n      dup2\n      tag_107\n      swap2\n      swap1\n      tag_73\n      jump\t// in\n    tag_107:\n      pop\n      swap1\n      pop\n      pop\n        /* \"contracts/DataUsageSmartContract.sol\":4752:4760  actorIds */\n      0x06\n        /* \"contracts/DataUsageSmartContract.sol\":4766:4774  _actorId */\n      dup3\n        /* \"contracts/DataUsageSmartContract.sol\":4752:4775  actorIds.push(_actorId) */\n      swap1\n      dup1\n      0x01\n      dup2\n      sload\n      add\n      dup1\n      dup3\n      sstore\n      dup1\n      swap2\n      pop\n      pop\n      0x01\n      swap1\n      sub\n      swap1\n      0x00\n      mstore\n      keccak256(0x00, 0x20)\n      add\n      0x00\n      swap1\n      swap2\n      swap1\n      swap2\n      swap1\n      swap2\n      pop\n      sstore\n        /* \"contracts/DataUsageSmartContract.sol\":4478:4783  function addActor(uint _actorId, string memory _actorName) public onlyOwner {... */\n      pop\n      pop\n      jump\t// out\n        /* \"contracts/AccessControl.sol\":86:106  address public owner */\n    tag_40:\n      0x00\n      dup1\n      sload\n      swap1\n      0x0100\n      exp\n      swap1\n      div\n      0xffffffffffffffffffffffffffffffffffffffff\n      and\n      dup2\n      jump\t// out\n        /* \"contracts/DataUsageSmartContract.sol\":4109:4363  function getProcessedPersonalDataByKey(uint _personalDataId) public view returns (bytes32) {... */\n    tag_45:\n        /* \"contracts/DataUsageSmartContract.sol\":4191:4198  bytes32 */\n      0x00\n        /* \"contracts/DataUsageSmartContract.sol\":4237:4256  personalDataCounter */\n      sload(0x07)\n        /* \"contracts/DataUsageSmartContract.sol\":4219:4234  _personalDataId */\n      dup3\n        /* \"contracts/DataUsageSmartContract.sol\":4219:4256  _personalDataId < personalDataCounter */\n      lt\n        /* \"contracts/DataUsageSmartContract.sol\":4211:4298  require(_personalDataId < personalDataCounter, \"ProcessedPersonalData does not exist.\") */\n      tag_110\n      jumpi\n      mload(0x40)\n      0x08c379a000000000000000000000000000000000000000000000000000000000\n      dup2\n      mstore\n      0x04\n      add\n      tag_111\n      swap1\n      tag_112\n      jump\t// in\n    tag_111:\n      mload(0x40)\n      dup1\n      swap2\n      sub\n      swap1\n      revert\n    tag_110:\n        /* \"contracts/DataUsageSmartContract.sol\":4316:4338  processedPersonalDatas */\n      0x04\n        /* \"contracts/DataUsageSmartContract.sol\":4316:4355  processedPersonalDatas[_personalDataId] */\n      0x00\n        /* \"contracts/DataUsageSmartContract.sol\":4339:4354  _personalDataId */\n      dup4\n        /* \"contracts/DataUsageSmartContract.sol\":4316:4355  processedPersonalDatas[_personalDataId] */\n      dup2\n      mstore\n      0x20\n      add\n      swap1\n      dup2\n      mstore\n      0x20\n      add\n      0x00\n      keccak256\n      sload\n        /* \"contracts/DataUsageSmartContract.sol\":4309:4355  return processedPersonalDatas[_personalDataId] */\n      swap1\n      pop\n        /* \"contracts/DataUsageSmartContract.sol\":4109:4363  function getProcessedPersonalDataByKey(uint _personalDataId) public view returns (bytes32) {... */\n      swap2\n      swap1\n      pop\n      jump\t// out\n        /* \"contracts/DataUsageSmartContract.sol\":4791:5012  function getActorByKey(uint _actorId) public view returns (Actor memory) {... */\n    tag_50:\n        /* \"contracts/DataUsageSmartContract.sol\":4850:4862  Actor memory */\n      tag_113\n      tag_114\n      jump\t// in\n    tag_113:\n        /* \"contracts/DataUsageSmartContract.sol\":4911:4912  0 */\n      0x00\n        /* \"contracts/DataUsageSmartContract.sol\":4883:4889  actors */\n      0x02\n        /* \"contracts/DataUsageSmartContract.sol\":4883:4899  actors[_actorId] */\n      0x00\n        /* \"contracts/DataUsageSmartContract.sol\":4890:4898  _actorId */\n      dup5\n        /* \"contracts/DataUsageSmartContract.sol\":4883:4899  actors[_actorId] */\n      dup2\n      mstore\n      0x20\n      add\n      swap1\n      dup2\n      mstore\n      0x20\n      add\n      0x00\n      keccak256\n        /* \"contracts/DataUsageSmartContract.sol\":4883:4907  actors[_actorId].actorId */\n      0x00\n      add\n      sload\n        /* \"contracts/DataUsageSmartContract.sol\":4883:4912  actors[_actorId].actorId != 0 */\n      sub\n        /* \"contracts/DataUsageSmartContract.sol\":4875:4938  require(actors[_actorId].actorId != 0, \"Actor does not exist.\") */\n      tag_116\n      jumpi\n      mload(0x40)\n      0x08c379a000000000000000000000000000000000000000000000000000000000\n      dup2\n      mstore\n      0x04\n      add\n      tag_117\n      swap1\n      tag_118\n      jump\t// in\n    tag_117:\n      mload(0x40)\n      dup1\n      swap2\n      sub\n      swap1\n      revert\n    tag_116:\n        /* \"contracts/DataUsageSmartContract.sol\":4988:4994  actors */\n      0x02\n        /* \"contracts/DataUsageSmartContract.sol\":4988:5004  actors[_actorId] */\n      0x00\n        /* \"contracts/DataUsageSmartContract.sol\":4995:5003  _actorId */\n      dup4\n        /* \"contracts/DataUsageSmartContract.sol\":4988:5004  actors[_actorId] */\n      dup2\n      mstore\n      0x20\n      add\n      swap1\n      dup2\n      mstore\n      0x20\n      add\n      0x00\n      keccak256\n        /* \"contracts/DataUsageSmartContract.sol\":4981:5004  return actors[_actorId] */\n      mload(0x40)\n      dup1\n      0x40\n      add\n      0x40\n      mstore\n      swap1\n      dup2\n      0x00\n      dup3\n      add\n      sload\n      dup2\n      mstore\n      0x20\n      add\n      0x01\n      dup3\n      add\n      dup1\n      sload\n      tag_119\n      swap1\n      tag_120\n      jump\t// in\n    tag_119:\n      dup1\n      0x1f\n      add\n      0x20\n      dup1\n      swap2\n      div\n      mul\n      0x20\n      add\n      mload(0x40)\n      swap1\n      dup2\n      add\n      0x40\n      mstore\n      dup1\n      swap3\n      swap2\n      swap1\n      dup2\n      dup2\n      mstore\n      0x20\n      add\n      dup3\n      dup1\n      sload\n      tag_121\n      swap1\n      tag_120\n      jump\t// in\n    tag_121:\n      dup1\n      iszero\n      tag_122\n      jumpi\n      dup1\n      0x1f\n      lt\n      tag_123\n      jumpi\n      0x0100\n      dup1\n      dup4\n      sload\n      div\n      mul\n      dup4\n      mstore\n      swap2\n      0x20\n      add\n      swap2\n      jump(tag_122)\n    tag_123:\n      dup3\n      add\n      swap2\n      swap1\n      0x00\n      mstore\n      keccak256(0x00, 0x20)\n      swap1\n    tag_124:\n      dup2\n      sload\n      dup2\n      mstore\n      swap1\n      0x01\n      add\n      swap1\n      0x20\n      add\n      dup1\n      dup4\n      gt\n      tag_124\n      jumpi\n      dup3\n      swap1\n      sub\n      0x1f\n      and\n      dup3\n      add\n      swap2\n    tag_122:\n      pop\n      pop\n      pop\n      pop\n      pop\n      dup2\n      mstore\n      pop\n      pop\n      swap1\n      pop\n        /* \"contracts/DataUsageSmartContract.sol\":4791:5012  function getActorByKey(uint _actorId) public view returns (Actor memory) {... */\n      swap2\n      swap1\n      pop\n      jump\t// out\n        /* \"contracts/DataUsageSmartContract.sol\":5232:6390  function addDataUsage(... */\n    tag_56:\n        /* \"contracts/AccessControl.sol\":220:225  owner */\n      0x00\n      dup1\n      sload\n      swap1\n      0x0100\n      exp\n      swap1\n      div\n      0xffffffffffffffffffffffffffffffffffffffff\n      and\n        /* \"contracts/AccessControl.sol\":206:225  msg.sender == owner */\n      0xffffffffffffffffffffffffffffffffffffffff\n      and\n        /* \"contracts/AccessControl.sol\":206:216  msg.sender */\n      caller\n        /* \"contracts/AccessControl.sol\":206:225  msg.sender == owner */\n      0xffffffffffffffffffffffffffffffffffffffff\n      and\n      eq\n        /* \"contracts/AccessControl.sol\":198:280  require(msg.sender == owner, \"Only the contract owner can perform this operation\") */\n      tag_126\n      jumpi\n      mload(0x40)\n      0x08c379a000000000000000000000000000000000000000000000000000000000\n      dup2\n      mstore\n      0x04\n      add\n      tag_127\n      swap1\n      tag_70\n      jump\t// in\n    tag_127:\n      mload(0x40)\n      dup1\n      swap2\n      sub\n      swap1\n      revert\n    tag_126:\n        /* \"contracts/DataUsageSmartContract.sol\":5469:5488  uint newDataUsageId */\n      0x00\n        /* \"contracts/DataUsageSmartContract.sol\":5491:5507  dataUsageCounter */\n      0x05\n      0x00\n        /* \"contracts/DataUsageSmartContract.sol\":5491:5509  dataUsageCounter++ */\n      dup2\n      sload\n      dup1\n      swap3\n      swap2\n      swap1\n      tag_129\n      swap1\n      tag_79\n      jump\t// in\n    tag_129:\n      swap2\n      swap1\n      pop\n      sstore\n        /* \"contracts/DataUsageSmartContract.sol\":5469:5509  uint newDataUsageId = dataUsageCounter++ */\n      swap1\n      pop\n        /* \"contracts/DataUsageSmartContract.sol\":5520:5551  bytes32[] memory processedDatas */\n      0x00\n        /* \"contracts/DataUsageSmartContract.sol\":5568:5584  _personalDataIds */\n      dup3\n        /* \"contracts/DataUsageSmartContract.sol\":5568:5591  _personalDataIds.length */\n      mload\n        /* \"contracts/DataUsageSmartContract.sol\":5554:5592  new bytes32[](_personalDataIds.length) */\n      0xffffffffffffffff\n      dup2\n      gt\n      iszero\n      tag_130\n      jumpi\n      tag_131\n      tag_132\n      jump\t// in\n    tag_131:\n    tag_130:\n      mload(0x40)\n      swap1\n      dup1\n      dup3\n      mstore\n      dup1\n      0x20\n      mul\n      0x20\n      add\n      dup3\n      add\n      0x40\n      mstore\n      dup1\n      iszero\n      tag_133\n      jumpi\n      dup2\n      0x20\n      add\n      0x20\n      dup3\n      mul\n      dup1\n      calldatasize\n      dup4\n      calldatacopy\n      dup1\n      dup3\n      add\n      swap2\n      pop\n      pop\n      swap1\n      pop\n    tag_133:\n      pop\n        /* \"contracts/DataUsageSmartContract.sol\":5520:5592  bytes32[] memory processedDatas = new bytes32[](_personalDataIds.length) */\n      swap1\n      pop\n        /* \"contracts/DataUsageSmartContract.sol\":5618:5624  uint i */\n      0x00\n        /* \"contracts/DataUsageSmartContract.sol\":5613:5858  for (uint i = 0; i < _personalDataIds.length; i++) {... */\n    tag_134:\n        /* \"contracts/DataUsageSmartContract.sol\":5634:5650  _personalDataIds */\n      dup4\n        /* \"contracts/DataUsageSmartContract.sol\":5634:5657  _personalDataIds.length */\n      mload\n        /* \"contracts/DataUsageSmartContract.sol\":5630:5631  i */\n      dup2\n        /* \"contracts/DataUsageSmartContract.sol\":5630:5657  i < _personalDataIds.length */\n      lt\n        /* \"contracts/DataUsageSmartContract.sol\":5613:5858  for (uint i = 0; i < _personalDataIds.length; i++) {... */\n      iszero\n      tag_135\n      jumpi\n        /* \"contracts/DataUsageSmartContract.sol\":5709:5728  personalDataCounter */\n      sload(0x07)\n        /* \"contracts/DataUsageSmartContract.sol\":5687:5703  _personalDataIds */\n      dup5\n        /* \"contracts/DataUsageSmartContract.sol\":5704:5705  i */\n      dup3\n        /* \"contracts/DataUsageSmartContract.sol\":5687:5706  _personalDataIds[i] */\n      dup2\n      mload\n      dup2\n      lt\n      tag_137\n      jumpi\n      tag_138\n      tag_97\n      jump\t// in\n    tag_138:\n    tag_137:\n      0x20\n      mul\n      0x20\n      add\n      add\n      mload\n        /* \"contracts/DataUsageSmartContract.sol\":5687:5728  _personalDataIds[i] < personalDataCounter */\n      lt\n        /* \"contracts/DataUsageSmartContract.sol\":5679:5761  require(_personalDataIds[i] < personalDataCounter, \"PersonalData does not exist.\") */\n      tag_139\n      jumpi\n      mload(0x40)\n      0x08c379a000000000000000000000000000000000000000000000000000000000\n      dup2\n      mstore\n      0x04\n      add\n      tag_140\n      swap1\n      tag_89\n      jump\t// in\n    tag_140:\n      mload(0x40)\n      dup1\n      swap2\n      sub\n      swap1\n      revert\n    tag_139:\n        /* \"contracts/DataUsageSmartContract.sol\":5796:5846  getProcessedPersonalDataByKey(_personalDataIds[i]) */\n      tag_141\n        /* \"contracts/DataUsageSmartContract.sol\":5826:5842  _personalDataIds */\n      dup5\n        /* \"contracts/DataUsageSmartContract.sol\":5843:5844  i */\n      dup3\n        /* \"contracts/DataUsageSmartContract.sol\":5826:5845  _personalDataIds[i] */\n      dup2\n      mload\n      dup2\n      lt\n      tag_142\n      jumpi\n      tag_143\n      tag_97\n      jump\t// in\n    tag_143:\n    tag_142:\n      0x20\n      mul\n      0x20\n      add\n      add\n      mload\n        /* \"contracts/DataUsageSmartContract.sol\":5796:5825  getProcessedPersonalDataByKey */\n      tag_45\n        /* \"contracts/DataUsageSmartContract.sol\":5796:5846  getProcessedPersonalDataByKey(_personalDataIds[i]) */\n      jump\t// in\n    tag_141:\n        /* \"contracts/DataUsageSmartContract.sol\":5776:5790  processedDatas */\n      dup3\n        /* \"contracts/DataUsageSmartContract.sol\":5791:5792  i */\n      dup3\n        /* \"contracts/DataUsageSmartContract.sol\":5776:5793  processedDatas[i] */\n      dup2\n      mload\n      dup2\n      lt\n      tag_144\n      jumpi\n      tag_145\n      tag_97\n      jump\t// in\n    tag_145:\n    tag_144:\n      0x20\n      mul\n      0x20\n      add\n      add\n        /* \"contracts/DataUsageSmartContract.sol\":5776:5846  processedDatas[i] = getProcessedPersonalDataByKey(_personalDataIds[i]) */\n      dup2\n      dup2\n      mstore\n      pop\n      pop\n        /* \"contracts/DataUsageSmartContract.sol\":5659:5662  i++ */\n      dup1\n      dup1\n      0x01\n      add\n      swap2\n      pop\n      pop\n        /* \"contracts/DataUsageSmartContract.sol\":5613:5858  for (uint i = 0; i < _personalDataIds.length; i++) {... */\n      jump(tag_134)\n    tag_135:\n      pop\n        /* \"contracts/DataUsageSmartContract.sol\":5974:6253  DataUsage({... */\n      mload(0x40)\n      dup1\n      0xc0\n      add\n      0x40\n      mstore\n      dup1\n        /* \"contracts/DataUsageSmartContract.sol\":6012:6024  _serviceName */\n      dup9\n        /* \"contracts/DataUsageSmartContract.sol\":5974:6253  DataUsage({... */\n      dup2\n      mstore\n      0x20\n      add\n        /* \"contracts/DataUsageSmartContract.sol\":6055:6070  _servicePurpose */\n      dup8\n        /* \"contracts/DataUsageSmartContract.sol\":5974:6253  DataUsage({... */\n      dup2\n      mstore\n      0x20\n      add\n        /* \"contracts/DataUsageSmartContract.sol\":6094:6102  _actorId */\n      dup7\n        /* \"contracts/DataUsageSmartContract.sol\":5974:6253  DataUsage({... */\n      dup2\n      mstore\n      0x20\n      add\n        /* \"contracts/DataUsageSmartContract.sol\":6129:6140  _operations */\n      dup6\n        /* \"contracts/DataUsageSmartContract.sol\":5974:6253  DataUsage({... */\n      dup2\n      mstore\n      0x20\n      add\n        /* \"contracts/DataUsageSmartContract.sol\":6172:6188  _personalDataIds */\n      dup5\n        /* \"contracts/DataUsageSmartContract.sol\":5974:6253  DataUsage({... */\n      dup2\n      mstore\n      0x20\n      add\n        /* \"contracts/DataUsageSmartContract.sol\":6227:6241  processedDatas */\n      dup3\n        /* \"contracts/DataUsageSmartContract.sol\":5974:6253  DataUsage({... */\n      dup2\n      mstore\n      pop\n        /* \"contracts/DataUsageSmartContract.sol\":5945:5955  dataUsages */\n      0x01\n        /* \"contracts/DataUsageSmartContract.sol\":5945:5971  dataUsages[newDataUsageId] */\n      0x00\n        /* \"contracts/DataUsageSmartContract.sol\":5956:5970  newDataUsageId */\n      dup5\n        /* \"contracts/DataUsageSmartContract.sol\":5945:5971  dataUsages[newDataUsageId] */\n      dup2\n      mstore\n      0x20\n      add\n      swap1\n      dup2\n      mstore\n      0x20\n      add\n      0x00\n      keccak256\n        /* \"contracts/DataUsageSmartContract.sol\":5945:6253  dataUsages[newDataUsageId] = DataUsage({... */\n      0x00\n      dup3\n      add\n      mload\n      dup2\n      0x00\n      add\n      swap1\n      dup2\n      tag_146\n      swap2\n      swap1\n      tag_73\n      jump\t// in\n    tag_146:\n      pop\n      0x20\n      dup3\n      add\n      mload\n      dup2\n      0x01\n      add\n      swap1\n      dup2\n      tag_147\n      swap2\n      swap1\n      tag_73\n      jump\t// in\n    tag_147:\n      pop\n      0x40\n      dup3\n      add\n      mload\n      dup2\n      0x02\n      add\n      sstore\n      0x60\n      dup3\n      add\n      mload\n      dup2\n      0x03\n      add\n      swap1\n      dup1\n      mload\n      swap1\n      0x20\n      add\n      swap1\n      tag_148\n      swap3\n      swap2\n      swap1\n      tag_77\n      jump\t// in\n    tag_148:\n      pop\n      0x80\n      dup3\n      add\n      mload\n      dup2\n      0x04\n      add\n      swap1\n      dup1\n      mload\n      swap1\n      0x20\n      add\n      swap1\n      tag_149\n      swap3\n      swap2\n      swap1\n      tag_150\n      jump\t// in\n    tag_149:\n      pop\n      0xa0\n      dup3\n      add\n      mload\n      dup2\n      0x05\n      add\n      swap1\n      dup1\n      mload\n      swap1\n      0x20\n      add\n      swap1\n      tag_151\n      swap3\n      swap2\n      swap1\n      tag_152\n      jump\t// in\n    tag_151:\n      pop\n      swap1\n      pop\n      pop\n        /* \"contracts/DataUsageSmartContract.sol\":6316:6332  dataUsageCounter */\n      0x05\n      0x00\n        /* \"contracts/DataUsageSmartContract.sol\":6316:6334  dataUsageCounter++ */\n      dup2\n      sload\n      dup1\n      swap3\n      swap2\n      swap1\n      tag_153\n      swap1\n      tag_79\n      jump\t// in\n    tag_153:\n      swap2\n      swap1\n      pop\n      sstore\n      pop\n        /* \"contracts/DataUsageSmartContract.sol\":6352:6382  DataUsageAdded(newDataUsageId) */\n      0x7a3ca1959c02ca697e03705bf9d6d67c3acc38961b57c23a5f95fb0ef1c0ca00\n        /* \"contracts/DataUsageSmartContract.sol\":6367:6381  newDataUsageId */\n      dup3\n        /* \"contracts/DataUsageSmartContract.sol\":6352:6382  DataUsageAdded(newDataUsageId) */\n      mload(0x40)\n      tag_154\n      swap2\n      swap1\n      tag_31\n      jump\t// in\n    tag_154:\n      mload(0x40)\n      dup1\n      swap2\n      sub\n      swap1\n      log1\n        /* \"contracts/DataUsageSmartContract.sol\":5458:6390  {... */\n      pop\n      pop\n        /* \"contracts/DataUsageSmartContract.sol\":5232:6390  function addDataUsage(... */\n      pop\n      pop\n      pop\n      pop\n      pop\n      jump\t// out\n        /* \"contracts/DataUsageSmartContract.sol\":6400:6615  function getDataUsageByKey(uint _dataUsageId) public view returns (DataUsage memory) {... */\n    tag_59:\n        /* \"contracts/DataUsageSmartContract.sol\":6467:6483  DataUsage memory */\n      tag_155\n      tag_156\n      jump\t// in\n    tag_155:\n        /* \"contracts/DataUsageSmartContract.sol\":6519:6535  dataUsageCounter */\n      sload(0x05)\n        /* \"contracts/DataUsageSmartContract.sol\":6504:6516  _dataUsageId */\n      dup3\n        /* \"contracts/DataUsageSmartContract.sol\":6504:6535  _dataUsageId < dataUsageCounter */\n      lt\n        /* \"contracts/DataUsageSmartContract.sol\":6496:6565  require(_dataUsageId < dataUsageCounter, \"DataUsage does not exist.\") */\n      tag_158\n      jumpi\n      mload(0x40)\n      0x08c379a000000000000000000000000000000000000000000000000000000000\n      dup2\n      mstore\n      0x04\n      add\n      tag_159\n      swap1\n      tag_160\n      jump\t// in\n    tag_159:\n      mload(0x40)\n      dup1\n      swap2\n      sub\n      swap1\n      revert\n    tag_158:\n        /* \"contracts/DataUsageSmartContract.sol\":6583:6593  dataUsages */\n      0x01\n        /* \"contracts/DataUsageSmartContract.sol\":6583:6607  dataUsages[_dataUsageId] */\n      0x00\n        /* \"contracts/DataUsageSmartContract.sol\":6594:6606  _dataUsageId */\n      dup4\n        /* \"contracts/DataUsageSmartContract.sol\":6583:6607  dataUsages[_dataUsageId] */\n      dup2\n      mstore\n      0x20\n      add\n      swap1\n      dup2\n      mstore\n      0x20\n      add\n      0x00\n      keccak256\n        /* \"contracts/DataUsageSmartContract.sol\":6576:6607  return dataUsages[_dataUsageId] */\n      mload(0x40)\n      dup1\n      0xc0\n      add\n      0x40\n      mstore\n      swap1\n      dup2\n      0x00\n      dup3\n      add\n      dup1\n      sload\n      tag_161\n      swap1\n      tag_120\n      jump\t// in\n    tag_161:\n      dup1\n      0x1f\n      add\n      0x20\n      dup1\n      swap2\n      div\n      mul\n      0x20\n      add\n      mload(0x40)\n      swap1\n      dup2\n      add\n      0x40\n      mstore\n      dup1\n      swap3\n      swap2\n      swap1\n      dup2\n      dup2\n      mstore\n      0x20\n      add\n      dup3\n      dup1\n      sload\n      tag_162\n      swap1\n      tag_120\n      jump\t// in\n    tag_162:\n      dup1\n      iszero\n      tag_163\n      jumpi\n      dup1\n      0x1f\n      lt\n      tag_164\n      jumpi\n      0x0100\n      dup1\n      dup4\n      sload\n      div\n      mul\n      dup4\n      mstore\n      swap2\n      0x20\n      add\n      swap2\n      jump(tag_163)\n    tag_164:\n      dup3\n      add\n      swap2\n      swap1\n      0x00\n      mstore\n      keccak256(0x00, 0x20)\n      swap1\n    tag_165:\n      dup2\n      sload\n      dup2\n      mstore\n      swap1\n      0x01\n      add\n      swap1\n      0x20\n      add\n      dup1\n      dup4\n      gt\n      tag_165\n      jumpi\n      dup3\n      swap1\n      sub\n      0x1f\n      and\n      dup3\n      add\n      swap2\n    tag_163:\n      pop\n      pop\n      pop\n      pop\n      pop\n      dup2\n      mstore\n      0x20\n      add\n      0x01\n      dup3\n      add\n      dup1\n      sload\n      tag_166\n      swap1\n      tag_120\n      jump\t// in\n    tag_166:\n      dup1\n      0x1f\n      add\n      0x20\n      dup1\n      swap2\n      div\n      mul\n      0x20\n      add\n      mload(0x40)\n      swap1\n      dup2\n      add\n      0x40\n      mstore\n      dup1\n      swap3\n      swap2\n      swap1\n      dup2\n      dup2\n      mstore\n      0x20\n      add\n      dup3\n      dup1\n      sload\n      tag_167\n      swap1\n      tag_120\n      jump\t// in\n    tag_167:\n      dup1\n      iszero\n      tag_168\n      jumpi\n      dup1\n      0x1f\n      lt\n      tag_169\n      jumpi\n      0x0100\n      dup1\n      dup4\n      sload\n      div\n      mul\n      dup4\n      mstore\n      swap2\n      0x20\n      add\n      swap2\n      jump(tag_168)\n    tag_169:\n      dup3\n      add\n      swap2\n      swap1\n      0x00\n      mstore\n      keccak256(0x00, 0x20)\n      swap1\n    tag_170:\n      dup2\n      sload\n      dup2\n      mstore\n      swap1\n      0x01\n      add\n      swap1\n      0x20\n      add\n      dup1\n      dup4\n      gt\n      tag_170\n      jumpi\n      dup3\n      swap1\n      sub\n      0x1f\n      and\n      dup3\n      add\n      swap2\n    tag_168:\n      pop\n      pop\n      pop\n      pop\n      pop\n      dup2\n      mstore\n      0x20\n      add\n      0x02\n      dup3\n      add\n      sload\n      dup2\n      mstore\n      0x20\n      add\n      0x03\n      dup3\n      add\n      dup1\n      sload\n      dup1\n      0x20\n      mul\n      0x20\n      add\n      mload(0x40)\n      swap1\n      dup2\n      add\n      0x40\n      mstore\n      dup1\n      swap3\n      swap2\n      swap1\n      dup2\n      dup2\n      mstore\n      0x20\n      add\n      0x00\n      swap1\n    tag_171:\n      dup3\n      dup3\n      lt\n      iszero\n      tag_172\n      jumpi\n      dup4\n      dup3\n      swap1\n      0x00\n      mstore\n      keccak256(0x00, 0x20)\n      add\n      dup1\n      sload\n      tag_174\n      swap1\n      tag_120\n      jump\t// in\n    tag_174:\n      dup1\n      0x1f\n      add\n      0x20\n      dup1\n      swap2\n      div\n      mul\n      0x20\n      add\n      mload(0x40)\n      swap1\n      dup2\n      add\n      0x40\n      mstore\n      dup1\n      swap3\n      swap2\n      swap1\n      dup2\n      dup2\n      mstore\n      0x20\n      add\n      dup3\n      dup1\n      sload\n      tag_175\n      swap1\n      tag_120\n      jump\t// in\n    tag_175:\n      dup1\n      iszero\n      tag_176\n      jumpi\n      dup1\n      0x1f\n      lt\n      tag_177\n      jumpi\n      0x0100\n      dup1\n      dup4\n      sload\n      div\n      mul\n      dup4\n      mstore\n      swap2\n      0x20\n      add\n      swap2\n      jump(tag_176)\n    tag_177:\n      dup3\n      add\n      swap2\n      swap1\n      0x00\n      mstore\n      keccak256(0x00, 0x20)\n      swap1\n    tag_178:\n      dup2\n      sload\n      dup2\n      mstore\n      swap1\n      0x01\n      add\n      swap1\n      0x20\n      add\n      dup1\n      dup4\n      gt\n      tag_178\n      jumpi\n      dup3\n      swap1\n      sub\n      0x1f\n      and\n      dup3\n      add\n      swap2\n    tag_176:\n      pop\n      pop\n      pop\n      pop\n      pop\n      dup2\n      mstore\n      0x20\n      add\n      swap1\n      0x01\n      add\n      swap1\n      jump(tag_171)\n    tag_172:\n      pop\n      pop\n      pop\n      pop\n      dup2\n      mstore\n      0x20\n      add\n      0x04\n      dup3\n      add\n      dup1\n      sload\n      dup1\n      0x20\n      mul\n      0x20\n      add\n      mload(0x40)\n      swap1\n      dup2\n      add\n      0x40\n      mstore\n      dup1\n      swap3\n      swap2\n      swap1\n      dup2\n      dup2\n      mstore\n      0x20\n      add\n      dup3\n      dup1\n      sload\n      dup1\n      iszero\n      tag_179\n      jumpi\n      0x20\n      mul\n      dup3\n      add\n      swap2\n      swap1\n      0x00\n      mstore\n      keccak256(0x00, 0x20)\n      swap1\n    tag_180:\n      dup2\n      sload\n      dup2\n      mstore\n      0x20\n      add\n      swap1\n      0x01\n      add\n      swap1\n      dup1\n      dup4\n      gt\n      tag_180\n      jumpi\n    tag_179:\n      pop\n      pop\n      pop\n      pop\n      pop\n      dup2\n      mstore\n      0x20\n      add\n      0x05\n      dup3\n      add\n      dup1\n      sload\n      dup1\n      0x20\n      mul\n      0x20\n      add\n      mload(0x40)\n      swap1\n      dup2\n      add\n      0x40\n      mstore\n      dup1\n      swap3\n      swap2\n      swap1\n      dup2\n      dup2\n      mstore\n      0x20\n      add\n      dup3\n      dup1\n      sload\n      dup1\n      iszero\n      tag_181\n      jumpi\n      0x20\n      mul\n      dup3\n      add\n      swap2\n      swap1\n      0x00\n      mstore\n      keccak256(0x00, 0x20)\n      swap1\n    tag_182:\n      dup2\n      sload\n      dup2\n      mstore\n      0x20\n      add\n      swap1\n      0x01\n      add\n      swap1\n      dup1\n      dup4\n      gt\n      tag_182\n      jumpi\n    tag_181:\n      pop\n      pop\n      pop\n      pop\n      pop\n      dup2\n      mstore\n      pop\n      pop\n      swap1\n      pop\n        /* \"contracts/DataUsageSmartContract.sol\":6400:6615  function getDataUsageByKey(uint _dataUsageId) public view returns (DataUsage memory) {... */\n      swap2\n      swap1\n      pop\n      jump\t// out\n        /* \"contracts/DataUsageSmartContract.sol\":2419:2658  function getPersonalDataByKey(uint _personalDataId) public view returns (PersonalData memory) {... */\n    tag_64:\n        /* \"contracts/DataUsageSmartContract.sol\":2492:2511  PersonalData memory */\n      tag_183\n      tag_184\n      jump\t// in\n    tag_183:\n        /* \"contracts/DataUsageSmartContract.sol\":2550:2569  personalDataCounter */\n      sload(0x07)\n        /* \"contracts/DataUsageSmartContract.sol\":2532:2547  _personalDataId */\n      dup3\n        /* \"contracts/DataUsageSmartContract.sol\":2532:2569  _personalDataId < personalDataCounter */\n      lt\n        /* \"contracts/DataUsageSmartContract.sol\":2524:2602  require(_personalDataId < personalDataCounter, \"PersonalData does not exist.\") */\n      tag_186\n      jumpi\n      mload(0x40)\n      0x08c379a000000000000000000000000000000000000000000000000000000000\n      dup2\n      mstore\n      0x04\n      add\n      tag_187\n      swap1\n      tag_89\n      jump\t// in\n    tag_187:\n      mload(0x40)\n      dup1\n      swap2\n      sub\n      swap1\n      revert\n    tag_186:\n        /* \"contracts/DataUsageSmartContract.sol\":2620:2633  personalDatas */\n      0x03\n        /* \"contracts/DataUsageSmartContract.sol\":2620:2650  personalDatas[_personalDataId] */\n      0x00\n        /* \"contracts/DataUsageSmartContract.sol\":2634:2649  _personalDataId */\n      dup4\n        /* \"contracts/DataUsageSmartContract.sol\":2620:2650  personalDatas[_personalDataId] */\n      dup2\n      mstore\n      0x20\n      add\n      swap1\n      dup2\n      mstore\n      0x20\n      add\n      0x00\n      keccak256\n        /* \"contracts/DataUsageSmartContract.sol\":2613:2650  return personalDatas[_personalDataId] */\n      mload(0x40)\n      dup1\n      0xa0\n      add\n      0x40\n      mstore\n      swap1\n      dup2\n      0x00\n      dup3\n      add\n      sload\n      dup2\n      mstore\n      0x20\n      add\n      0x01\n      dup3\n      add\n      dup1\n      sload\n      tag_188\n      swap1\n      tag_120\n      jump\t// in\n    tag_188:\n      dup1\n      0x1f\n      add\n      0x20\n      dup1\n      swap2\n      div\n      mul\n      0x20\n      add\n      mload(0x40)\n      swap1\n      dup2\n      add\n      0x40\n      mstore\n      dup1\n      swap3\n      swap2\n      swap1\n      dup2\n      dup2\n      mstore\n      0x20\n      add\n      dup3\n      dup1\n      sload\n      tag_189\n      swap1\n      tag_120\n      jump\t// in\n    tag_189:\n      dup1\n      iszero\n      tag_190\n      jumpi\n      dup1\n      0x1f\n      lt\n      tag_191\n      jumpi\n      0x0100\n      dup1\n      dup4\n      sload\n      div\n      mul\n      dup4\n      mstore\n      swap2\n      0x20\n      add\n      swap2\n      jump(tag_190)\n    tag_191:\n      dup3\n      add\n      swap2\n      swap1\n      0x00\n      mstore\n      keccak256(0x00, 0x20)\n      swap1\n    tag_192:\n      dup2\n      sload\n      dup2\n      mstore\n      swap1\n      0x01\n      add\n      swap1\n      0x20\n      add\n      dup1\n      dup4\n      gt\n      tag_192\n      jumpi\n      dup3\n      swap1\n      sub\n      0x1f\n      and\n      dup3\n      add\n      swap2\n    tag_190:\n      pop\n      pop\n      pop\n      pop\n      pop\n      dup2\n      mstore\n      0x20\n      add\n      0x02\n      dup3\n      add\n      dup1\n      sload\n      tag_193\n      swap1\n      tag_120\n      jump\t// in\n    tag_193:\n      dup1\n      0x1f\n      add\n      0x20\n      dup1\n      swap2\n      div\n      mul\n      0x20\n      add\n      mload(0x40)\n      swap1\n      dup2\n      add\n      0x40\n      mstore\n      dup1\n      swap3\n      swap2\n      swap1\n      dup2\n      dup2\n      mstore\n      0x20\n      add\n      dup3\n      dup1\n      sload\n      tag_194\n      swap1\n      tag_120\n      jump\t// in\n    tag_194:\n      dup1\n      iszero\n      tag_195\n      jumpi\n      dup1\n      0x1f\n      lt\n      tag_196\n      jumpi\n      0x0100\n      dup1\n      dup4\n      sload\n      div\n      mul\n      dup4\n      mstore\n      swap2\n      0x20\n      add\n      swap2\n      jump(tag_195)\n    tag_196:\n      dup3\n      add\n      swap2\n      swap1\n      0x00\n      mstore\n      keccak256(0x00, 0x20)\n      swap1\n    tag_197:\n      dup2\n      sload\n      dup2\n      mstore\n      swap1\n      0x01\n      add\n      swap1\n      0x20\n      add\n      dup1\n      dup4\n      gt\n      tag_197\n      jumpi\n      dup3\n      swap1\n      sub\n      0x1f\n      and\n      dup3\n      add\n      swap2\n    tag_195:\n      pop\n      pop\n      pop\n      pop\n      pop\n      dup2\n      mstore\n      0x20\n      add\n      0x03\n      dup3\n      add\n      dup1\n      sload\n      tag_198\n      swap1\n      tag_120\n      jump\t// in\n    tag_198:\n      dup1\n      0x1f\n      add\n      0x20\n      dup1\n      swap2\n      div\n      mul\n      0x20\n      add\n      mload(0x40)\n      swap1\n      dup2\n      add\n      0x40\n      mstore\n      dup1\n      swap3\n      swap2\n      swap1\n      dup2\n      dup2\n      mstore\n      0x20\n      add\n      dup3\n      dup1\n      sload\n      tag_199\n      swap1\n      tag_120\n      jump\t// in\n    tag_199:\n      dup1\n      iszero\n      tag_200\n      jumpi\n      dup1\n      0x1f\n      lt\n      tag_201\n      jumpi\n      0x0100\n      dup1\n      dup4\n      sload\n      div\n      mul\n      dup4\n      mstore\n      swap2\n      0x20\n      add\n      swap2\n      jump(tag_200)\n    tag_201:\n      dup3\n      add\n      swap2\n      swap1\n      0x00\n      mstore\n      keccak256(0x00, 0x20)\n      swap1\n    tag_202:\n      dup2\n      sload\n      dup2\n      mstore\n      swap1\n      0x01\n      add\n      swap1\n      0x20\n      add\n      dup1\n      dup4\n      gt\n      tag_202\n      jumpi\n      dup3\n      swap1\n      sub\n      0x1f\n      and\n      dup3\n      add\n      swap2\n    tag_200:\n      pop\n      pop\n      pop\n      pop\n      pop\n      dup2\n      mstore\n      0x20\n      add\n      0x04\n      dup3\n      add\n      dup1\n      sload\n      dup1\n      0x20\n      mul\n      0x20\n      add\n      mload(0x40)\n      swap1\n      dup2\n      add\n      0x40\n      mstore\n      dup1\n      swap3\n      swap2\n      swap1\n      dup2\n      dup2\n      mstore\n      0x20\n      add\n      0x00\n      swap1\n    tag_203:\n      dup3\n      dup3\n      lt\n      iszero\n      tag_204\n      jumpi\n      dup4\n      dup3\n      swap1\n      0x00\n      mstore\n      keccak256(0x00, 0x20)\n      add\n      dup1\n      sload\n      tag_206\n      swap1\n      tag_120\n      jump\t// in\n    tag_206:\n      dup1\n      0x1f\n      add\n      0x20\n      dup1\n      swap2\n      div\n      mul\n      0x20\n      add\n      mload(0x40)\n      swap1\n      dup2\n      add\n      0x40\n      mstore\n      dup1\n      swap3\n      swap2\n      swap1\n      dup2\n      dup2\n      mstore\n      0x20\n      add\n      dup3\n      dup1\n      sload\n      tag_207\n      swap1\n      tag_120\n      jump\t// in\n    tag_207:\n      dup1\n      iszero\n      tag_208\n      jumpi\n      dup1\n      0x1f\n      lt\n      tag_209\n      jumpi\n      0x0100\n      dup1\n      dup4\n      sload\n      div\n      mul\n      dup4\n      mstore\n      swap2\n      0x20\n      add\n      swap2\n      jump(tag_208)\n    tag_209:\n      dup3\n      add\n      swap2\n      swap1\n      0x00\n      mstore\n      keccak256(0x00, 0x20)\n      swap1\n    tag_210:\n      dup2\n      sload\n      dup2\n      mstore\n      swap1\n      0x01\n      add\n      swap1\n      0x20\n      add\n      dup1\n      dup4\n      gt\n      tag_210\n      jumpi\n      dup3\n      swap1\n      sub\n      0x1f\n      and\n      dup3\n      add\n      swap2\n    tag_208:\n      pop\n      pop\n      pop\n      pop\n      pop\n      dup2\n      mstore\n      0x20\n      add\n      swap1\n      0x01\n      add\n      swap1\n      jump(tag_203)\n    tag_204:\n      pop\n      pop\n      pop\n      pop\n      dup2\n      mstore\n      pop\n      pop\n      swap1\n      pop\n        /* \"contracts/DataUsageSmartContract.sol\":2419:2658  function getPersonalDataByKey(uint _personalDataId) public view returns (PersonalData memory) {... */\n      swap2\n      swap1\n      pop\n      jump\t// out\n    tag_77:\n      dup3\n      dup1\n      sload\n      dup3\n      dup3\n      sstore\n      swap1\n      0x00\n      mstore\n      keccak256(0x00, 0x20)\n      swap1\n      dup2\n      add\n      swap3\n      dup3\n      iszero\n      tag_211\n      jumpi\n      swap2\n      0x20\n      mul\n      dup3\n      add\n    tag_212:\n      dup3\n      dup2\n      gt\n      iszero\n      tag_213\n      jumpi\n      dup3\n      mload\n      dup3\n      swap1\n      dup2\n      tag_214\n      swap2\n      swap1\n      tag_73\n      jump\t// in\n    tag_214:\n      pop\n      swap2\n      0x20\n      add\n      swap2\n      swap1\n      0x01\n      add\n      swap1\n      jump(tag_212)\n    tag_213:\n    tag_211:\n      pop\n      swap1\n      pop\n      tag_215\n      swap2\n      swap1\n      tag_216\n      jump\t// in\n    tag_215:\n      pop\n      swap1\n      jump\t// out\n    tag_114:\n      mload(0x40)\n      dup1\n      0x40\n      add\n      0x40\n      mstore\n      dup1\n      0x00\n      dup2\n      mstore\n      0x20\n      add\n      0x60\n      dup2\n      mstore\n      pop\n      swap1\n      jump\t// out\n    tag_150:\n      dup3\n      dup1\n      sload\n      dup3\n      dup3\n      sstore\n      swap1\n      0x00\n      mstore\n      keccak256(0x00, 0x20)\n      swap1\n      dup2\n      add\n      swap3\n      dup3\n      iszero\n      tag_217\n      jumpi\n      swap2\n      0x20\n      mul\n      dup3\n      add\n    tag_218:\n      dup3\n      dup2\n      gt\n      iszero\n      tag_219\n      jumpi\n      dup3\n      mload\n      dup3\n      sstore\n      swap2\n      0x20\n      add\n      swap2\n      swap1\n      0x01\n      add\n      swap1\n      jump(tag_218)\n    tag_219:\n    tag_217:\n      pop\n      swap1\n      pop\n      tag_220\n      swap2\n      swap1\n      tag_221\n      jump\t// in\n    tag_220:\n      pop\n      swap1\n      jump\t// out\n    tag_152:\n      dup3\n      dup1\n      sload\n      dup3\n      dup3\n      sstore\n      swap1\n      0x00\n      mstore\n      keccak256(0x00, 0x20)\n      swap1\n      dup2\n      add\n      swap3\n      dup3\n      iszero\n      tag_222\n      jumpi\n      swap2\n      0x20\n      mul\n      dup3\n      add\n    tag_223:\n      dup3\n      dup2\n      gt\n      iszero\n      tag_224\n      jumpi\n      dup3\n      mload\n      dup3\n      sstore\n      swap2\n      0x20\n      add\n      swap2\n      swap1\n      0x01\n      add\n      swap1\n      jump(tag_223)\n    tag_224:\n    tag_222:\n      pop\n      swap1\n      pop\n      tag_225\n      swap2\n      swap1\n      tag_226\n      jump\t// in\n    tag_225:\n      pop\n      swap1\n      jump\t// out\n    tag_156:\n      mload(0x40)\n      dup1\n      0xc0\n      add\n      0x40\n      mstore\n      dup1\n      0x60\n      dup2\n      mstore\n      0x20\n      add\n      0x60\n      dup2\n      mstore\n      0x20\n      add\n      0x00\n      dup2\n      mstore\n      0x20\n      add\n      0x60\n      dup2\n      mstore\n      0x20\n      add\n      0x60\n      dup2\n      mstore\n      0x20\n      add\n      0x60\n      dup2\n      mstore\n      pop\n      swap1\n      jump\t// out\n    tag_184:\n      mload(0x40)\n      dup1\n      0xa0\n      add\n      0x40\n      mstore\n      dup1\n      0x00\n      dup2\n      mstore\n      0x20\n      add\n      0x60\n      dup2\n      mstore\n      0x20\n      add\n      0x60\n      dup2\n      mstore\n      0x20\n      add\n      0x60\n      dup2\n      mstore\n      0x20\n      add\n      0x60\n      dup2\n      mstore\n      pop\n      swap1\n      jump\t// out\n    tag_216:\n    tag_227:\n      dup1\n      dup3\n      gt\n      iszero\n      tag_228\n      jumpi\n      0x00\n      dup2\n      dup2\n      tag_229\n      swap2\n      swap1\n      tag_230\n      jump\t// in\n    tag_229:\n      pop\n      0x01\n      add\n      jump(tag_227)\n    tag_228:\n      pop\n      swap1\n      jump\t// out\n    tag_221:\n    tag_231:\n      dup1\n      dup3\n      gt\n      iszero\n      tag_232\n      jumpi\n      0x00\n      dup2\n      0x00\n      swap1\n      sstore\n      pop\n      0x01\n      add\n      jump(tag_231)\n    tag_232:\n      pop\n      swap1\n      jump\t// out\n    tag_226:\n    tag_233:\n      dup1\n      dup3\n      gt\n      iszero\n      tag_234\n      jumpi\n      0x00\n      dup2\n      0x00\n      swap1\n      sstore\n      pop\n      0x01\n      add\n      jump(tag_233)\n    tag_234:\n      pop\n      swap1\n      jump\t// out\n    tag_230:\n      pop\n      dup1\n      sload\n      tag_235\n      swap1\n      tag_120\n      jump\t// in\n    tag_235:\n      0x00\n      dup3\n      sstore\n      dup1\n      0x1f\n      lt\n      tag_237\n      jumpi\n      pop\n      jump(tag_236)\n    tag_237:\n      0x1f\n      add\n      0x20\n      swap1\n      div\n      swap1\n      0x00\n      mstore\n      keccak256(0x00, 0x20)\n      swap1\n      dup2\n      add\n      swap1\n      tag_238\n      swap2\n      swap1\n      tag_221\n      jump\t// in\n    tag_238:\n    tag_236:\n      pop\n      jump\t// out\n        /* \"#utility.yul\":7:82   */\n    tag_239:\n        /* \"#utility.yul\":40:46   */\n      0x00\n        /* \"#utility.yul\":73:75   */\n      0x40\n        /* \"#utility.yul\":67:76   */\n      mload\n        /* \"#utility.yul\":57:76   */\n      swap1\n      pop\n        /* \"#utility.yul\":7:82   */\n      swap1\n      jump\t// out\n        /* \"#utility.yul\":88:205   */\n    tag_240:\n        /* \"#utility.yul\":197:198   */\n      0x00\n        /* \"#utility.yul\":194:195   */\n      dup1\n        /* \"#utility.yul\":187:199   */\n      revert\n        /* \"#utility.yul\":211:328   */\n    tag_241:\n        /* \"#utility.yul\":320:321   */\n      0x00\n        /* \"#utility.yul\":317:318   */\n      dup1\n        /* \"#utility.yul\":310:322   */\n      revert\n        /* \"#utility.yul\":334:411   */\n    tag_242:\n        /* \"#utility.yul\":371:378   */\n      0x00\n        /* \"#utility.yul\":400:405   */\n      dup2\n        /* \"#utility.yul\":389:405   */\n      swap1\n      pop\n        /* \"#utility.yul\":334:411   */\n      swap2\n      swap1\n      pop\n      jump\t// out\n        /* \"#utility.yul\":417:539   */\n    tag_243:\n        /* \"#utility.yul\":490:514   */\n      tag_335\n        /* \"#utility.yul\":508:513   */\n      dup2\n        /* \"#utility.yul\":490:514   */\n      tag_242\n      jump\t// in\n    tag_335:\n        /* \"#utility.yul\":483:488   */\n      dup2\n        /* \"#utility.yul\":480:515   */\n      eq\n        /* \"#utility.yul\":470:533   */\n      tag_336\n      jumpi\n        /* \"#utility.yul\":529:530   */\n      0x00\n        /* \"#utility.yul\":526:527   */\n      dup1\n        /* \"#utility.yul\":519:531   */\n      revert\n        /* \"#utility.yul\":470:533   */\n    tag_336:\n        /* \"#utility.yul\":417:539   */\n      pop\n      jump\t// out\n        /* \"#utility.yul\":545:684   */\n    tag_244:\n        /* \"#utility.yul\":591:596   */\n      0x00\n        /* \"#utility.yul\":629:635   */\n      dup2\n        /* \"#utility.yul\":616:636   */\n      calldataload\n        /* \"#utility.yul\":607:636   */\n      swap1\n      pop\n        /* \"#utility.yul\":645:678   */\n      tag_338\n        /* \"#utility.yul\":672:677   */\n      dup2\n        /* \"#utility.yul\":645:678   */\n      tag_243\n      jump\t// in\n    tag_338:\n        /* \"#utility.yul\":545:684   */\n      swap3\n      swap2\n      pop\n      pop\n      jump\t// out\n        /* \"#utility.yul\":690:807   */\n    tag_245:\n        /* \"#utility.yul\":799:800   */\n      0x00\n        /* \"#utility.yul\":796:797   */\n      dup1\n        /* \"#utility.yul\":789:801   */\n      revert\n        /* \"#utility.yul\":813:930   */\n    tag_246:\n        /* \"#utility.yul\":922:923   */\n      0x00\n        /* \"#utility.yul\":919:920   */\n      dup1\n        /* \"#utility.yul\":912:924   */\n      revert\n        /* \"#utility.yul\":936:1038   */\n    tag_247:\n        /* \"#utility.yul\":977:983   */\n      0x00\n        /* \"#utility.yul\":1028:1030   */\n      0x1f\n        /* \"#utility.yul\":1024:1031   */\n      not\n        /* \"#utility.yul\":1019:1021   */\n      0x1f\n        /* \"#utility.yul\":1012:1017   */\n      dup4\n        /* \"#utility.yul\":1008:1022   */\n      add\n        /* \"#utility.yul\":1004:1032   */\n      and\n        /* \"#utility.yul\":994:1032   */\n      swap1\n      pop\n        /* \"#utility.yul\":936:1038   */\n      swap2\n      swap1\n      pop\n      jump\t// out\n        /* \"#utility.yul\":1044:1224   */\n    tag_132:\n        /* \"#utility.yul\":1092:1169   */\n      0x4e487b7100000000000000000000000000000000000000000000000000000000\n        /* \"#utility.yul\":1089:1090   */\n      0x00\n        /* \"#utility.yul\":1082:1170   */\n      mstore\n        /* \"#utility.yul\":1189:1193   */\n      0x41\n        /* \"#utility.yul\":1186:1187   */\n      0x04\n        /* \"#utility.yul\":1179:1194   */\n      mstore\n        /* \"#utility.yul\":1213:1217   */\n      0x24\n        /* \"#utility.yul\":1210:1211   */\n      0x00\n        /* \"#utility.yul\":1203:1218   */\n      revert\n        /* \"#utility.yul\":1230:1511   */\n    tag_248:\n        /* \"#utility.yul\":1313:1340   */\n      tag_344\n        /* \"#utility.yul\":1335:1339   */\n      dup3\n        /* \"#utility.yul\":1313:1340   */\n      tag_247\n      jump\t// in\n    tag_344:\n        /* \"#utility.yul\":1305:1311   */\n      dup2\n        /* \"#utility.yul\":1301:1341   */\n      add\n        /* \"#utility.yul\":1443:1449   */\n      dup2\n        /* \"#utility.yul\":1431:1441   */\n      dup2\n        /* \"#utility.yul\":1428:1450   */\n      lt\n        /* \"#utility.yul\":1407:1425   */\n      0xffffffffffffffff\n        /* \"#utility.yul\":1395:1405   */\n      dup3\n        /* \"#utility.yul\":1392:1426   */\n      gt\n        /* \"#utility.yul\":1389:1451   */\n      or\n        /* \"#utility.yul\":1386:1474   */\n      iszero\n      tag_345\n      jumpi\n        /* \"#utility.yul\":1454:1472   */\n      tag_346\n      tag_132\n      jump\t// in\n    tag_346:\n        /* \"#utility.yul\":1386:1474   */\n    tag_345:\n        /* \"#utility.yul\":1494:1504   */\n      dup1\n        /* \"#utility.yul\":1490:1492   */\n      0x40\n        /* \"#utility.yul\":1483:1505   */\n      mstore\n        /* \"#utility.yul\":1273:1511   */\n      pop\n        /* \"#utility.yul\":1230:1511   */\n      pop\n      pop\n      jump\t// out\n        /* \"#utility.yul\":1517:1646   */\n    tag_249:\n        /* \"#utility.yul\":1551:1557   */\n      0x00\n        /* \"#utility.yul\":1578:1598   */\n      tag_348\n      tag_239\n      jump\t// in\n    tag_348:\n        /* \"#utility.yul\":1568:1598   */\n      swap1\n      pop\n        /* \"#utility.yul\":1607:1640   */\n      tag_349\n        /* \"#utility.yul\":1635:1639   */\n      dup3\n        /* \"#utility.yul\":1627:1633   */\n      dup3\n        /* \"#utility.yul\":1607:1640   */\n      tag_248\n      jump\t// in\n    tag_349:\n        /* \"#utility.yul\":1517:1646   */\n      swap2\n      swap1\n      pop\n      jump\t// out\n        /* \"#utility.yul\":1652:1960   */\n    tag_250:\n        /* \"#utility.yul\":1714:1718   */\n      0x00\n        /* \"#utility.yul\":1804:1822   */\n      0xffffffffffffffff\n        /* \"#utility.yul\":1796:1802   */\n      dup3\n        /* \"#utility.yul\":1793:1823   */\n      gt\n        /* \"#utility.yul\":1790:1846   */\n      iszero\n      tag_351\n      jumpi\n        /* \"#utility.yul\":1826:1844   */\n      tag_352\n      tag_132\n      jump\t// in\n    tag_352:\n        /* \"#utility.yul\":1790:1846   */\n    tag_351:\n        /* \"#utility.yul\":1864:1893   */\n      tag_353\n        /* \"#utility.yul\":1886:1892   */\n      dup3\n        /* \"#utility.yul\":1864:1893   */\n      tag_247\n      jump\t// in\n    tag_353:\n        /* \"#utility.yul\":1856:1893   */\n      swap1\n      pop\n        /* \"#utility.yul\":1948:1952   */\n      0x20\n        /* \"#utility.yul\":1942:1946   */\n      dup2\n        /* \"#utility.yul\":1938:1953   */\n      add\n        /* \"#utility.yul\":1930:1953   */\n      swap1\n      pop\n        /* \"#utility.yul\":1652:1960   */\n      swap2\n      swap1\n      pop\n      jump\t// out\n        /* \"#utility.yul\":1966:2112   */\n    tag_251:\n        /* \"#utility.yul\":2063:2069   */\n      dup3\n        /* \"#utility.yul\":2058:2061   */\n      dup2\n        /* \"#utility.yul\":2053:2056   */\n      dup4\n        /* \"#utility.yul\":2040:2070   */\n      calldatacopy\n        /* \"#utility.yul\":2104:2105   */\n      0x00\n        /* \"#utility.yul\":2095:2101   */\n      dup4\n        /* \"#utility.yul\":2090:2093   */\n      dup4\n        /* \"#utility.yul\":2086:2102   */\n      add\n        /* \"#utility.yul\":2079:2106   */\n      mstore\n        /* \"#utility.yul\":1966:2112   */\n      pop\n      pop\n      pop\n      jump\t// out\n        /* \"#utility.yul\":2118:2543   */\n    tag_252:\n        /* \"#utility.yul\":2196:2201   */\n      0x00\n        /* \"#utility.yul\":2221:2287   */\n      tag_356\n        /* \"#utility.yul\":2237:2286   */\n      tag_357\n        /* \"#utility.yul\":2279:2285   */\n      dup5\n        /* \"#utility.yul\":2237:2286   */\n      tag_250\n      jump\t// in\n    tag_357:\n        /* \"#utility.yul\":2221:2287   */\n      tag_249\n      jump\t// in\n    tag_356:\n        /* \"#utility.yul\":2212:2287   */\n      swap1\n      pop\n        /* \"#utility.yul\":2310:2316   */\n      dup3\n        /* \"#utility.yul\":2303:2308   */\n      dup2\n        /* \"#utility.yul\":2296:2317   */\n      mstore\n        /* \"#utility.yul\":2348:2352   */\n      0x20\n        /* \"#utility.yul\":2341:2346   */\n      dup2\n        /* \"#utility.yul\":2337:2353   */\n      add\n        /* \"#utility.yul\":2386:2389   */\n      dup5\n        /* \"#utility.yul\":2377:2383   */\n      dup5\n        /* \"#utility.yul\":2372:2375   */\n      dup5\n        /* \"#utility.yul\":2368:2384   */\n      add\n        /* \"#utility.yul\":2365:2390   */\n      gt\n        /* \"#utility.yul\":2362:2474   */\n      iszero\n      tag_358\n      jumpi\n        /* \"#utility.yul\":2393:2472   */\n      tag_359\n      tag_246\n      jump\t// in\n    tag_359:\n        /* \"#utility.yul\":2362:2474   */\n    tag_358:\n        /* \"#utility.yul\":2483:2537   */\n      tag_360\n        /* \"#utility.yul\":2530:2536   */\n      dup5\n        /* \"#utility.yul\":2525:2528   */\n      dup3\n        /* \"#utility.yul\":2520:2523   */\n      dup6\n        /* \"#utility.yul\":2483:2537   */\n      tag_251\n      jump\t// in\n    tag_360:\n        /* \"#utility.yul\":2202:2543   */\n      pop\n        /* \"#utility.yul\":2118:2543   */\n      swap4\n      swap3\n      pop\n      pop\n      pop\n      jump\t// out\n        /* \"#utility.yul\":2563:2903   */\n    tag_253:\n        /* \"#utility.yul\":2619:2624   */\n      0x00\n        /* \"#utility.yul\":2668:2671   */\n      dup3\n        /* \"#utility.yul\":2661:2665   */\n      0x1f\n        /* \"#utility.yul\":2653:2659   */\n      dup4\n        /* \"#utility.yul\":2649:2666   */\n      add\n        /* \"#utility.yul\":2645:2672   */\n      slt\n        /* \"#utility.yul\":2635:2757   */\n      tag_362\n      jumpi\n        /* \"#utility.yul\":2676:2755   */\n      tag_363\n      tag_245\n      jump\t// in\n    tag_363:\n        /* \"#utility.yul\":2635:2757   */\n    tag_362:\n        /* \"#utility.yul\":2793:2799   */\n      dup2\n        /* \"#utility.yul\":2780:2800   */\n      calldataload\n        /* \"#utility.yul\":2818:2897   */\n      tag_364\n        /* \"#utility.yul\":2893:2896   */\n      dup5\n        /* \"#utility.yul\":2885:2891   */\n      dup3\n        /* \"#utility.yul\":2878:2882   */\n      0x20\n        /* \"#utility.yul\":2870:2876   */\n      dup7\n        /* \"#utility.yul\":2866:2883   */\n      add\n        /* \"#utility.yul\":2818:2897   */\n      tag_252\n      jump\t// in\n    tag_364:\n        /* \"#utility.yul\":2809:2897   */\n      swap2\n      pop\n        /* \"#utility.yul\":2625:2903   */\n      pop\n        /* \"#utility.yul\":2563:2903   */\n      swap3\n      swap2\n      pop\n      pop\n      jump\t// out\n        /* \"#utility.yul\":2909:3230   */\n    tag_254:\n        /* \"#utility.yul\":2996:3000   */\n      0x00\n        /* \"#utility.yul\":3086:3104   */\n      0xffffffffffffffff\n        /* \"#utility.yul\":3078:3084   */\n      dup3\n        /* \"#utility.yul\":3075:3105   */\n      gt\n        /* \"#utility.yul\":3072:3128   */\n      iszero\n      tag_366\n      jumpi\n        /* \"#utility.yul\":3108:3126   */\n      tag_367\n      tag_132\n      jump\t// in\n    tag_367:\n        /* \"#utility.yul\":3072:3128   */\n    tag_366:\n        /* \"#utility.yul\":3158:3162   */\n      0x20\n        /* \"#utility.yul\":3150:3156   */\n      dup3\n        /* \"#utility.yul\":3146:3163   */\n      mul\n        /* \"#utility.yul\":3138:3163   */\n      swap1\n      pop\n        /* \"#utility.yul\":3218:3222   */\n      0x20\n        /* \"#utility.yul\":3212:3216   */\n      dup2\n        /* \"#utility.yul\":3208:3223   */\n      add\n        /* \"#utility.yul\":3200:3223   */\n      swap1\n      pop\n        /* \"#utility.yul\":2909:3230   */\n      swap2\n      swap1\n      pop\n      jump\t// out\n        /* \"#utility.yul\":3236:3353   */\n    tag_255:\n        /* \"#utility.yul\":3345:3346   */\n      0x00\n        /* \"#utility.yul\":3342:3343   */\n      dup1\n        /* \"#utility.yul\":3335:3347   */\n      revert\n        /* \"#utility.yul\":3375:4320   */\n    tag_256:\n        /* \"#utility.yul\":3481:3486   */\n      0x00\n        /* \"#utility.yul\":3506:3597   */\n      tag_370\n        /* \"#utility.yul\":3522:3596   */\n      tag_371\n        /* \"#utility.yul\":3589:3595   */\n      dup5\n        /* \"#utility.yul\":3522:3596   */\n      tag_254\n      jump\t// in\n    tag_371:\n        /* \"#utility.yul\":3506:3597   */\n      tag_249\n      jump\t// in\n    tag_370:\n        /* \"#utility.yul\":3497:3597   */\n      swap1\n      pop\n        /* \"#utility.yul\":3617:3622   */\n      dup1\n        /* \"#utility.yul\":3646:3652   */\n      dup4\n        /* \"#utility.yul\":3639:3644   */\n      dup3\n        /* \"#utility.yul\":3632:3653   */\n      mstore\n        /* \"#utility.yul\":3680:3684   */\n      0x20\n        /* \"#utility.yul\":3673:3678   */\n      dup3\n        /* \"#utility.yul\":3669:3685   */\n      add\n        /* \"#utility.yul\":3662:3685   */\n      swap1\n      pop\n        /* \"#utility.yul\":3733:3737   */\n      0x20\n        /* \"#utility.yul\":3725:3731   */\n      dup5\n        /* \"#utility.yul\":3721:3738   */\n      mul\n        /* \"#utility.yul\":3713:3719   */\n      dup4\n        /* \"#utility.yul\":3709:3739   */\n      add\n        /* \"#utility.yul\":3762:3765   */\n      dup6\n        /* \"#utility.yul\":3754:3760   */\n      dup2\n        /* \"#utility.yul\":3751:3766   */\n      gt\n        /* \"#utility.yul\":3748:3870   */\n      iszero\n      tag_372\n      jumpi\n        /* \"#utility.yul\":3781:3860   */\n      tag_373\n      tag_255\n      jump\t// in\n    tag_373:\n        /* \"#utility.yul\":3748:3870   */\n    tag_372:\n        /* \"#utility.yul\":3896:3902   */\n      dup4\n        /* \"#utility.yul\":3879:4314   */\n    tag_374:\n        /* \"#utility.yul\":3913:3919   */\n      dup2\n        /* \"#utility.yul\":3908:3911   */\n      dup2\n        /* \"#utility.yul\":3905:3920   */\n      lt\n        /* \"#utility.yul\":3879:4314   */\n      iszero\n      tag_376\n      jumpi\n        /* \"#utility.yul\":4002:4005   */\n      dup1\n        /* \"#utility.yul\":3989:4006   */\n      calldataload\n        /* \"#utility.yul\":4038:4056   */\n      0xffffffffffffffff\n        /* \"#utility.yul\":4025:4036   */\n      dup2\n        /* \"#utility.yul\":4022:4057   */\n      gt\n        /* \"#utility.yul\":4019:4141   */\n      iszero\n      tag_377\n      jumpi\n        /* \"#utility.yul\":4060:4139   */\n      tag_378\n      tag_245\n      jump\t// in\n    tag_378:\n        /* \"#utility.yul\":4019:4141   */\n    tag_377:\n        /* \"#utility.yul\":4184:4195   */\n      dup1\n        /* \"#utility.yul\":4176:4182   */\n      dup7\n        /* \"#utility.yul\":4172:4196   */\n      add\n        /* \"#utility.yul\":4222:4269   */\n      tag_379\n        /* \"#utility.yul\":4265:4268   */\n      dup10\n        /* \"#utility.yul\":4253:4263   */\n      dup3\n        /* \"#utility.yul\":4222:4269   */\n      tag_253\n      jump\t// in\n    tag_379:\n        /* \"#utility.yul\":4217:4220   */\n      dup6\n        /* \"#utility.yul\":4210:4270   */\n      mstore\n        /* \"#utility.yul\":4299:4303   */\n      0x20\n        /* \"#utility.yul\":4294:4297   */\n      dup6\n        /* \"#utility.yul\":4290:4304   */\n      add\n        /* \"#utility.yul\":4283:4304   */\n      swap5\n      pop\n        /* \"#utility.yul\":3955:4314   */\n      pop\n      pop\n        /* \"#utility.yul\":3939:3943   */\n      0x20\n        /* \"#utility.yul\":3934:3937   */\n      dup2\n        /* \"#utility.yul\":3930:3944   */\n      add\n        /* \"#utility.yul\":3923:3944   */\n      swap1\n      pop\n        /* \"#utility.yul\":3879:4314   */\n      jump(tag_374)\n    tag_376:\n        /* \"#utility.yul\":3883:3904   */\n      pop\n        /* \"#utility.yul\":3487:4320   */\n      pop\n      pop\n        /* \"#utility.yul\":3375:4320   */\n      swap4\n      swap3\n      pop\n      pop\n      pop\n      jump\t// out\n        /* \"#utility.yul\":4342:4732   */\n    tag_257:\n        /* \"#utility.yul\":4423:4428   */\n      0x00\n        /* \"#utility.yul\":4472:4475   */\n      dup3\n        /* \"#utility.yul\":4465:4469   */\n      0x1f\n        /* \"#utility.yul\":4457:4463   */\n      dup4\n        /* \"#utility.yul\":4453:4470   */\n      add\n        /* \"#utility.yul\":4449:4476   */\n      slt\n        /* \"#utility.yul\":4439:4561   */\n      tag_381\n      jumpi\n        /* \"#utility.yul\":4480:4559   */\n      tag_382\n      tag_245\n      jump\t// in\n    tag_382:\n        /* \"#utility.yul\":4439:4561   */\n    tag_381:\n        /* \"#utility.yul\":4597:4603   */\n      dup2\n        /* \"#utility.yul\":4584:4604   */\n      calldataload\n        /* \"#utility.yul\":4622:4726   */\n      tag_383\n        /* \"#utility.yul\":4722:4725   */\n      dup5\n        /* \"#utility.yul\":4714:4720   */\n      dup3\n        /* \"#utility.yul\":4707:4711   */\n      0x20\n        /* \"#utility.yul\":4699:4705   */\n      dup7\n        /* \"#utility.yul\":4695:4712   */\n      add\n        /* \"#utility.yul\":4622:4726   */\n      tag_256\n      jump\t// in\n    tag_383:\n        /* \"#utility.yul\":4613:4726   */\n      swap2\n      pop\n        /* \"#utility.yul\":4429:4732   */\n      pop\n        /* \"#utility.yul\":4342:4732   */\n      swap3\n      swap2\n      pop\n      pop\n      jump\t// out\n        /* \"#utility.yul\":4738:6419   */\n    tag_18:\n        /* \"#utility.yul\":4898:4904   */\n      0x00\n        /* \"#utility.yul\":4906:4912   */\n      dup1\n        /* \"#utility.yul\":4914:4920   */\n      0x00\n        /* \"#utility.yul\":4922:4928   */\n      dup1\n        /* \"#utility.yul\":4930:4936   */\n      0x00\n        /* \"#utility.yul\":4979:4982   */\n      0xa0\n        /* \"#utility.yul\":4967:4976   */\n      dup7\n        /* \"#utility.yul\":4958:4965   */\n      dup9\n        /* \"#utility.yul\":4954:4977   */\n      sub\n        /* \"#utility.yul\":4950:4983   */\n      slt\n        /* \"#utility.yul\":4947:5067   */\n      iszero\n      tag_385\n      jumpi\n        /* \"#utility.yul\":4986:5065   */\n      tag_386\n      tag_240\n      jump\t// in\n    tag_386:\n        /* \"#utility.yul\":4947:5067   */\n    tag_385:\n        /* \"#utility.yul\":5106:5107   */\n      0x00\n        /* \"#utility.yul\":5131:5184   */\n      tag_387\n        /* \"#utility.yul\":5176:5183   */\n      dup9\n        /* \"#utility.yul\":5167:5173   */\n      dup3\n        /* \"#utility.yul\":5156:5165   */\n      dup10\n        /* \"#utility.yul\":5152:5174   */\n      add\n        /* \"#utility.yul\":5131:5184   */\n      tag_244\n      jump\t// in\n    tag_387:\n        /* \"#utility.yul\":5121:5184   */\n      swap6\n      pop\n        /* \"#utility.yul\":5077:5194   */\n      pop\n        /* \"#utility.yul\":5261:5263   */\n      0x20\n        /* \"#utility.yul\":5250:5259   */\n      dup7\n        /* \"#utility.yul\":5246:5264   */\n      add\n        /* \"#utility.yul\":5233:5265   */\n      calldataload\n        /* \"#utility.yul\":5292:5310   */\n      0xffffffffffffffff\n        /* \"#utility.yul\":5284:5290   */\n      dup2\n        /* \"#utility.yul\":5281:5311   */\n      gt\n        /* \"#utility.yul\":5278:5395   */\n      iszero\n      tag_388\n      jumpi\n        /* \"#utility.yul\":5314:5393   */\n      tag_389\n      tag_241\n      jump\t// in\n    tag_389:\n        /* \"#utility.yul\":5278:5395   */\n    tag_388:\n        /* \"#utility.yul\":5419:5482   */\n      tag_390\n        /* \"#utility.yul\":5474:5481   */\n      dup9\n        /* \"#utility.yul\":5465:5471   */\n      dup3\n        /* \"#utility.yul\":5454:5463   */\n      dup10\n        /* \"#utility.yul\":5450:5472   */\n      add\n        /* \"#utility.yul\":5419:5482   */\n      tag_253\n      jump\t// in\n    tag_390:\n        /* \"#utility.yul\":5409:5482   */\n      swap5\n      pop\n        /* \"#utility.yul\":5204:5492   */\n      pop\n        /* \"#utility.yul\":5559:5561   */\n      0x40\n        /* \"#utility.yul\":5548:5557   */\n      dup7\n        /* \"#utility.yul\":5544:5562   */\n      add\n        /* \"#utility.yul\":5531:5563   */\n      calldataload\n        /* \"#utility.yul\":5590:5608   */\n      0xffffffffffffffff\n        /* \"#utility.yul\":5582:5588   */\n      dup2\n        /* \"#utility.yul\":5579:5609   */\n      gt\n        /* \"#utility.yul\":5576:5693   */\n      iszero\n      tag_391\n      jumpi\n        /* \"#utility.yul\":5612:5691   */\n      tag_392\n      tag_241\n      jump\t// in\n    tag_392:\n        /* \"#utility.yul\":5576:5693   */\n    tag_391:\n        /* \"#utility.yul\":5717:5780   */\n      tag_393\n        /* \"#utility.yul\":5772:5779   */\n      dup9\n        /* \"#utility.yul\":5763:5769   */\n      dup3\n        /* \"#utility.yul\":5752:5761   */\n      dup10\n        /* \"#utility.yul\":5748:5770   */\n      add\n        /* \"#utility.yul\":5717:5780   */\n      tag_253\n      jump\t// in\n    tag_393:\n        /* \"#utility.yul\":5707:5780   */\n      swap4\n      pop\n        /* \"#utility.yul\":5502:5790   */\n      pop\n        /* \"#utility.yul\":5857:5859   */\n      0x60\n        /* \"#utility.yul\":5846:5855   */\n      dup7\n        /* \"#utility.yul\":5842:5860   */\n      add\n        /* \"#utility.yul\":5829:5861   */\n      calldataload\n        /* \"#utility.yul\":5888:5906   */\n      0xffffffffffffffff\n        /* \"#utility.yul\":5880:5886   */\n      dup2\n        /* \"#utility.yul\":5877:5907   */\n      gt\n        /* \"#utility.yul\":5874:5991   */\n      iszero\n      tag_394\n      jumpi\n        /* \"#utility.yul\":5910:5989   */\n      tag_395\n      tag_241\n      jump\t// in\n    tag_395:\n        /* \"#utility.yul\":5874:5991   */\n    tag_394:\n        /* \"#utility.yul\":6015:6078   */\n      tag_396\n        /* \"#utility.yul\":6070:6077   */\n      dup9\n        /* \"#utility.yul\":6061:6067   */\n      dup3\n        /* \"#utility.yul\":6050:6059   */\n      dup10\n        /* \"#utility.yul\":6046:6068   */\n      add\n        /* \"#utility.yul\":6015:6078   */\n      tag_253\n      jump\t// in\n    tag_396:\n        /* \"#utility.yul\":6005:6078   */\n      swap3\n      pop\n        /* \"#utility.yul\":5800:6088   */\n      pop\n        /* \"#utility.yul\":6155:6158   */\n      0x80\n        /* \"#utility.yul\":6144:6153   */\n      dup7\n        /* \"#utility.yul\":6140:6159   */\n      add\n        /* \"#utility.yul\":6127:6160   */\n      calldataload\n        /* \"#utility.yul\":6187:6205   */\n      0xffffffffffffffff\n        /* \"#utility.yul\":6179:6185   */\n      dup2\n        /* \"#utility.yul\":6176:6206   */\n      gt\n        /* \"#utility.yul\":6173:6290   */\n      iszero\n      tag_397\n      jumpi\n        /* \"#utility.yul\":6209:6288   */\n      tag_398\n      tag_241\n      jump\t// in\n    tag_398:\n        /* \"#utility.yul\":6173:6290   */\n    tag_397:\n        /* \"#utility.yul\":6314:6402   */\n      tag_399\n        /* \"#utility.yul\":6394:6401   */\n      dup9\n        /* \"#utility.yul\":6385:6391   */\n      dup3\n        /* \"#utility.yul\":6374:6383   */\n      dup10\n        /* \"#utility.yul\":6370:6392   */\n      add\n        /* \"#utility.yul\":6314:6402   */\n      tag_257\n      jump\t// in\n    tag_399:\n        /* \"#utility.yul\":6304:6402   */\n      swap2\n      pop\n        /* \"#utility.yul\":6098:6412   */\n      pop\n        /* \"#utility.yul\":4738:6419   */\n      swap3\n      swap6\n      pop\n      swap3\n      swap6\n      swap1\n      swap4\n      pop\n      jump\t// out\n        /* \"#utility.yul\":6425:6539   */\n    tag_258:\n        /* \"#utility.yul\":6492:6498   */\n      0x00\n        /* \"#utility.yul\":6526:6531   */\n      dup2\n        /* \"#utility.yul\":6520:6532   */\n      mload\n        /* \"#utility.yul\":6510:6532   */\n      swap1\n      pop\n        /* \"#utility.yul\":6425:6539   */\n      swap2\n      swap1\n      pop\n      jump\t// out\n        /* \"#utility.yul\":6545:6729   */\n    tag_259:\n        /* \"#utility.yul\":6644:6655   */\n      0x00\n        /* \"#utility.yul\":6678:6684   */\n      dup3\n        /* \"#utility.yul\":6673:6676   */\n      dup3\n        /* \"#utility.yul\":6666:6685   */\n      mstore\n        /* \"#utility.yul\":6718:6722   */\n      0x20\n        /* \"#utility.yul\":6713:6716   */\n      dup3\n        /* \"#utility.yul\":6709:6723   */\n      add\n        /* \"#utility.yul\":6694:6723   */\n      swap1\n      pop\n        /* \"#utility.yul\":6545:6729   */\n      swap3\n      swap2\n      pop\n      pop\n      jump\t// out\n        /* \"#utility.yul\":6735:6867   */\n    tag_260:\n        /* \"#utility.yul\":6802:6806   */\n      0x00\n        /* \"#utility.yul\":6825:6828   */\n      dup2\n        /* \"#utility.yul\":6817:6828   */\n      swap1\n      pop\n        /* \"#utility.yul\":6855:6859   */\n      0x20\n        /* \"#utility.yul\":6850:6853   */\n      dup3\n        /* \"#utility.yul\":6846:6860   */\n      add\n        /* \"#utility.yul\":6838:6860   */\n      swap1\n      pop\n        /* \"#utility.yul\":6735:6867   */\n      swap2\n      swap1\n      pop\n      jump\t// out\n        /* \"#utility.yul\":6873:6981   */\n    tag_261:\n        /* \"#utility.yul\":6950:6974   */\n      tag_404\n        /* \"#utility.yul\":6968:6973   */\n      dup2\n        /* \"#utility.yul\":6950:6974   */\n      tag_242\n      jump\t// in\n    tag_404:\n        /* \"#utility.yul\":6945:6948   */\n      dup3\n        /* \"#utility.yul\":6938:6975   */\n      mstore\n        /* \"#utility.yul\":6873:6981   */\n      pop\n      pop\n      jump\t// out\n        /* \"#utility.yul\":6987:7166   */\n    tag_262:\n        /* \"#utility.yul\":7056:7066   */\n      0x00\n        /* \"#utility.yul\":7077:7123   */\n      tag_406\n        /* \"#utility.yul\":7119:7122   */\n      dup4\n        /* \"#utility.yul\":7111:7117   */\n      dup4\n        /* \"#utility.yul\":7077:7123   */\n      tag_261\n      jump\t// in\n    tag_406:\n        /* \"#utility.yul\":7155:7159   */\n      0x20\n        /* \"#utility.yul\":7150:7153   */\n      dup4\n        /* \"#utility.yul\":7146:7160   */\n      add\n        /* \"#utility.yul\":7132:7160   */\n      swap1\n      pop\n        /* \"#utility.yul\":6987:7166   */\n      swap3\n      swap2\n      pop\n      pop\n      jump\t// out\n        /* \"#utility.yul\":7172:7285   */\n    tag_263:\n        /* \"#utility.yul\":7242:7246   */\n      0x00\n        /* \"#utility.yul\":7274:7278   */\n      0x20\n        /* \"#utility.yul\":7269:7272   */\n      dup3\n        /* \"#utility.yul\":7265:7279   */\n      add\n        /* \"#utility.yul\":7257:7279   */\n      swap1\n      pop\n        /* \"#utility.yul\":7172:7285   */\n      swap2\n      swap1\n      pop\n      jump\t// out\n        /* \"#utility.yul\":7321:8053   */\n    tag_264:\n        /* \"#utility.yul\":7440:7443   */\n      0x00\n        /* \"#utility.yul\":7469:7523   */\n      tag_409\n        /* \"#utility.yul\":7517:7522   */\n      dup3\n        /* \"#utility.yul\":7469:7523   */\n      tag_258\n      jump\t// in\n    tag_409:\n        /* \"#utility.yul\":7539:7625   */\n      tag_410\n        /* \"#utility.yul\":7618:7624   */\n      dup2\n        /* \"#utility.yul\":7613:7616   */\n      dup6\n        /* \"#utility.yul\":7539:7625   */\n      tag_259\n      jump\t// in\n    tag_410:\n        /* \"#utility.yul\":7532:7625   */\n      swap4\n      pop\n        /* \"#utility.yul\":7649:7705   */\n      tag_411\n        /* \"#utility.yul\":7699:7704   */\n      dup4\n        /* \"#utility.yul\":7649:7705   */\n      tag_260\n      jump\t// in\n    tag_411:\n        /* \"#utility.yul\":7728:7735   */\n      dup1\n        /* \"#utility.yul\":7759:7760   */\n      0x00\n        /* \"#utility.yul\":7744:8028   */\n    tag_412:\n        /* \"#utility.yul\":7769:7775   */\n      dup4\n        /* \"#utility.yul\":7766:7767   */\n      dup2\n        /* \"#utility.yul\":7763:7776   */\n      lt\n        /* \"#utility.yul\":7744:8028   */\n      iszero\n      tag_414\n      jumpi\n        /* \"#utility.yul\":7845:7851   */\n      dup2\n        /* \"#utility.yul\":7839:7852   */\n      mload\n        /* \"#utility.yul\":7872:7935   */\n      tag_415\n        /* \"#utility.yul\":7931:7934   */\n      dup9\n        /* \"#utility.yul\":7916:7929   */\n      dup3\n        /* \"#utility.yul\":7872:7935   */\n      tag_262\n      jump\t// in\n    tag_415:\n        /* \"#utility.yul\":7865:7935   */\n      swap8\n      pop\n        /* \"#utility.yul\":7958:8018   */\n      tag_416\n        /* \"#utility.yul\":8011:8017   */\n      dup4\n        /* \"#utility.yul\":7958:8018   */\n      tag_263\n      jump\t// in\n    tag_416:\n        /* \"#utility.yul\":7948:8018   */\n      swap3\n      pop\n        /* \"#utility.yul\":7804:8028   */\n      pop\n        /* \"#utility.yul\":7791:7792   */\n      0x01\n        /* \"#utility.yul\":7788:7789   */\n      dup2\n        /* \"#utility.yul\":7784:7793   */\n      add\n        /* \"#utility.yul\":7779:7793   */\n      swap1\n      pop\n        /* \"#utility.yul\":7744:8028   */\n      jump(tag_412)\n    tag_414:\n        /* \"#utility.yul\":7748:7762   */\n      pop\n        /* \"#utility.yul\":8044:8047   */\n      dup6\n        /* \"#utility.yul\":8037:8047   */\n      swap4\n      pop\n        /* \"#utility.yul\":7445:8053   */\n      pop\n      pop\n      pop\n        /* \"#utility.yul\":7321:8053   */\n      swap3\n      swap2\n      pop\n      pop\n      jump\t// out\n        /* \"#utility.yul\":8059:8432   */\n    tag_23:\n        /* \"#utility.yul\":8202:8206   */\n      0x00\n        /* \"#utility.yul\":8240:8242   */\n      0x20\n        /* \"#utility.yul\":8229:8238   */\n      dup3\n        /* \"#utility.yul\":8225:8243   */\n      add\n        /* \"#utility.yul\":8217:8243   */\n      swap1\n      pop\n        /* \"#utility.yul\":8289:8298   */\n      dup2\n        /* \"#utility.yul\":8283:8287   */\n      dup2\n        /* \"#utility.yul\":8279:8299   */\n      sub\n        /* \"#utility.yul\":8275:8276   */\n      0x00\n        /* \"#utility.yul\":8264:8273   */\n      dup4\n        /* \"#utility.yul\":8260:8277   */\n      add\n        /* \"#utility.yul\":8253:8300   */\n      mstore\n        /* \"#utility.yul\":8317:8425   */\n      tag_418\n        /* \"#utility.yul\":8420:8424   */\n      dup2\n        /* \"#utility.yul\":8411:8417   */\n      dup5\n        /* \"#utility.yul\":8317:8425   */\n      tag_264\n      jump\t// in\n    tag_418:\n        /* \"#utility.yul\":8309:8425   */\n      swap1\n      pop\n        /* \"#utility.yul\":8059:8432   */\n      swap3\n      swap2\n      pop\n      pop\n      jump\t// out\n        /* \"#utility.yul\":8438:8767   */\n    tag_26:\n        /* \"#utility.yul\":8497:8503   */\n      0x00\n        /* \"#utility.yul\":8546:8548   */\n      0x20\n        /* \"#utility.yul\":8534:8543   */\n      dup3\n        /* \"#utility.yul\":8525:8532   */\n      dup5\n        /* \"#utility.yul\":8521:8544   */\n      sub\n        /* \"#utility.yul\":8517:8549   */\n      slt\n        /* \"#utility.yul\":8514:8633   */\n      iszero\n      tag_420\n      jumpi\n        /* \"#utility.yul\":8552:8631   */\n      tag_421\n      tag_240\n      jump\t// in\n    tag_421:\n        /* \"#utility.yul\":8514:8633   */\n    tag_420:\n        /* \"#utility.yul\":8672:8673   */\n      0x00\n        /* \"#utility.yul\":8697:8750   */\n      tag_422\n        /* \"#utility.yul\":8742:8749   */\n      dup5\n        /* \"#utility.yul\":8733:8739   */\n      dup3\n        /* \"#utility.yul\":8722:8731   */\n      dup6\n        /* \"#utility.yul\":8718:8740   */\n      add\n        /* \"#utility.yul\":8697:8750   */\n      tag_244\n      jump\t// in\n    tag_422:\n        /* \"#utility.yul\":8687:8750   */\n      swap2\n      pop\n        /* \"#utility.yul\":8643:8760   */\n      pop\n        /* \"#utility.yul\":8438:8767   */\n      swap3\n      swap2\n      pop\n      pop\n      jump\t// out\n        /* \"#utility.yul\":8773:8891   */\n    tag_265:\n        /* \"#utility.yul\":8860:8884   */\n      tag_424\n        /* \"#utility.yul\":8878:8883   */\n      dup2\n        /* \"#utility.yul\":8860:8884   */\n      tag_242\n      jump\t// in\n    tag_424:\n        /* \"#utility.yul\":8855:8858   */\n      dup3\n        /* \"#utility.yul\":8848:8885   */\n      mstore\n        /* \"#utility.yul\":8773:8891   */\n      pop\n      pop\n      jump\t// out\n        /* \"#utility.yul\":8897:9119   */\n    tag_31:\n        /* \"#utility.yul\":8990:8994   */\n      0x00\n        /* \"#utility.yul\":9028:9030   */\n      0x20\n        /* \"#utility.yul\":9017:9026   */\n      dup3\n        /* \"#utility.yul\":9013:9031   */\n      add\n        /* \"#utility.yul\":9005:9031   */\n      swap1\n      pop\n        /* \"#utility.yul\":9041:9112   */\n      tag_426\n        /* \"#utility.yul\":9109:9110   */\n      0x00\n        /* \"#utility.yul\":9098:9107   */\n      dup4\n        /* \"#utility.yul\":9094:9111   */\n      add\n        /* \"#utility.yul\":9085:9091   */\n      dup5\n        /* \"#utility.yul\":9041:9112   */\n      tag_265\n      jump\t// in\n    tag_426:\n        /* \"#utility.yul\":8897:9119   */\n      swap3\n      swap2\n      pop\n      pop\n      jump\t// out\n        /* \"#utility.yul\":9125:9779   */\n    tag_37:\n        /* \"#utility.yul\":9203:9209   */\n      0x00\n        /* \"#utility.yul\":9211:9217   */\n      dup1\n        /* \"#utility.yul\":9260:9262   */\n      0x40\n        /* \"#utility.yul\":9248:9257   */\n      dup4\n        /* \"#utility.yul\":9239:9246   */\n      dup6\n        /* \"#utility.yul\":9235:9258   */\n      sub\n        /* \"#utility.yul\":9231:9263   */\n      slt\n        /* \"#utility.yul\":9228:9347   */\n      iszero\n      tag_428\n      jumpi\n        /* \"#utility.yul\":9266:9345   */\n      tag_429\n      tag_240\n      jump\t// in\n    tag_429:\n        /* \"#utility.yul\":9228:9347   */\n    tag_428:\n        /* \"#utility.yul\":9386:9387   */\n      0x00\n        /* \"#utility.yul\":9411:9464   */\n      tag_430\n        /* \"#utility.yul\":9456:9463   */\n      dup6\n        /* \"#utility.yul\":9447:9453   */\n      dup3\n        /* \"#utility.yul\":9436:9445   */\n      dup7\n        /* \"#utility.yul\":9432:9454   */\n      add\n        /* \"#utility.yul\":9411:9464   */\n      tag_244\n      jump\t// in\n    tag_430:\n        /* \"#utility.yul\":9401:9464   */\n      swap3\n      pop\n        /* \"#utility.yul\":9357:9474   */\n      pop\n        /* \"#utility.yul\":9541:9543   */\n      0x20\n        /* \"#utility.yul\":9530:9539   */\n      dup4\n        /* \"#utility.yul\":9526:9544   */\n      add\n        /* \"#utility.yul\":9513:9545   */\n      calldataload\n        /* \"#utility.yul\":9572:9590   */\n      0xffffffffffffffff\n        /* \"#utility.yul\":9564:9570   */\n      dup2\n        /* \"#utility.yul\":9561:9591   */\n      gt\n        /* \"#utility.yul\":9558:9675   */\n      iszero\n      tag_431\n      jumpi\n        /* \"#utility.yul\":9594:9673   */\n      tag_432\n      tag_241\n      jump\t// in\n    tag_432:\n        /* \"#utility.yul\":9558:9675   */\n    tag_431:\n        /* \"#utility.yul\":9699:9762   */\n      tag_433\n        /* \"#utility.yul\":9754:9761   */\n      dup6\n        /* \"#utility.yul\":9745:9751   */\n      dup3\n        /* \"#utility.yul\":9734:9743   */\n      dup7\n        /* \"#utility.yul\":9730:9752   */\n      add\n        /* \"#utility.yul\":9699:9762   */\n      tag_253\n      jump\t// in\n    tag_433:\n        /* \"#utility.yul\":9689:9762   */\n      swap2\n      pop\n        /* \"#utility.yul\":9484:9772   */\n      pop\n        /* \"#utility.yul\":9125:9779   */\n      swap3\n      pop\n      swap3\n      swap1\n      pop\n      jump\t// out\n        /* \"#utility.yul\":9785:9911   */\n    tag_266:\n        /* \"#utility.yul\":9822:9829   */\n      0x00\n        /* \"#utility.yul\":9862:9904   */\n      0xffffffffffffffffffffffffffffffffffffffff\n        /* \"#utility.yul\":9855:9860   */\n      dup3\n        /* \"#utility.yul\":9851:9905   */\n      and\n        /* \"#utility.yul\":9840:9905   */\n      swap1\n      pop\n        /* \"#utility.yul\":9785:9911   */\n      swap2\n      swap1\n      pop\n      jump\t// out\n        /* \"#utility.yul\":9917:10013   */\n    tag_267:\n        /* \"#utility.yul\":9954:9961   */\n      0x00\n        /* \"#utility.yul\":9983:10007   */\n      tag_436\n        /* \"#utility.yul\":10001:10006   */\n      dup3\n        /* \"#utility.yul\":9983:10007   */\n      tag_266\n      jump\t// in\n    tag_436:\n        /* \"#utility.yul\":9972:10007   */\n      swap1\n      pop\n        /* \"#utility.yul\":9917:10013   */\n      swap2\n      swap1\n      pop\n      jump\t// out\n        /* \"#utility.yul\":10019:10137   */\n    tag_268:\n        /* \"#utility.yul\":10106:10130   */\n      tag_438\n        /* \"#utility.yul\":10124:10129   */\n      dup2\n        /* \"#utility.yul\":10106:10130   */\n      tag_267\n      jump\t// in\n    tag_438:\n        /* \"#utility.yul\":10101:10104   */\n      dup3\n        /* \"#utility.yul\":10094:10131   */\n      mstore\n        /* \"#utility.yul\":10019:10137   */\n      pop\n      pop\n      jump\t// out\n        /* \"#utility.yul\":10143:10365   */\n    tag_42:\n        /* \"#utility.yul\":10236:10240   */\n      0x00\n        /* \"#utility.yul\":10274:10276   */\n      0x20\n        /* \"#utility.yul\":10263:10272   */\n      dup3\n        /* \"#utility.yul\":10259:10277   */\n      add\n        /* \"#utility.yul\":10251:10277   */\n      swap1\n      pop\n        /* \"#utility.yul\":10287:10358   */\n      tag_440\n        /* \"#utility.yul\":10355:10356   */\n      0x00\n        /* \"#utility.yul\":10344:10353   */\n      dup4\n        /* \"#utility.yul\":10340:10357   */\n      add\n        /* \"#utility.yul\":10331:10337   */\n      dup5\n        /* \"#utility.yul\":10287:10358   */\n      tag_268\n      jump\t// in\n    tag_440:\n        /* \"#utility.yul\":10143:10365   */\n      swap3\n      swap2\n      pop\n      pop\n      jump\t// out\n        /* \"#utility.yul\":10371:10448   */\n    tag_269:\n        /* \"#utility.yul\":10408:10415   */\n      0x00\n        /* \"#utility.yul\":10437:10442   */\n      dup2\n        /* \"#utility.yul\":10426:10442   */\n      swap1\n      pop\n        /* \"#utility.yul\":10371:10448   */\n      swap2\n      swap1\n      pop\n      jump\t// out\n        /* \"#utility.yul\":10454:10572   */\n    tag_270:\n        /* \"#utility.yul\":10541:10565   */\n      tag_443\n        /* \"#utility.yul\":10559:10564   */\n      dup2\n        /* \"#utility.yul\":10541:10565   */\n      tag_269\n      jump\t// in\n    tag_443:\n        /* \"#utility.yul\":10536:10539   */\n      dup3\n        /* \"#utility.yul\":10529:10566   */\n      mstore\n        /* \"#utility.yul\":10454:10572   */\n      pop\n      pop\n      jump\t// out\n        /* \"#utility.yul\":10578:10800   */\n    tag_47:\n        /* \"#utility.yul\":10671:10675   */\n      0x00\n        /* \"#utility.yul\":10709:10711   */\n      0x20\n        /* \"#utility.yul\":10698:10707   */\n      dup3\n        /* \"#utility.yul\":10694:10712   */\n      add\n        /* \"#utility.yul\":10686:10712   */\n      swap1\n      pop\n        /* \"#utility.yul\":10722:10793   */\n      tag_445\n        /* \"#utility.yul\":10790:10791   */\n      0x00\n        /* \"#utility.yul\":10779:10788   */\n      dup4\n        /* \"#utility.yul\":10775:10792   */\n      add\n        /* \"#utility.yul\":10766:10772   */\n      dup5\n        /* \"#utility.yul\":10722:10793   */\n      tag_270\n      jump\t// in\n    tag_445:\n        /* \"#utility.yul\":10578:10800   */\n      swap3\n      swap2\n      pop\n      pop\n      jump\t// out\n        /* \"#utility.yul\":10806:10905   */\n    tag_271:\n        /* \"#utility.yul\":10858:10864   */\n      0x00\n        /* \"#utility.yul\":10892:10897   */\n      dup2\n        /* \"#utility.yul\":10886:10898   */\n      mload\n        /* \"#utility.yul\":10876:10898   */\n      swap1\n      pop\n        /* \"#utility.yul\":10806:10905   */\n      swap2\n      swap1\n      pop\n      jump\t// out\n        /* \"#utility.yul\":10911:11070   */\n    tag_272:\n        /* \"#utility.yul\":10985:10996   */\n      0x00\n        /* \"#utility.yul\":11019:11025   */\n      dup3\n        /* \"#utility.yul\":11014:11017   */\n      dup3\n        /* \"#utility.yul\":11007:11026   */\n      mstore\n        /* \"#utility.yul\":11059:11063   */\n      0x20\n        /* \"#utility.yul\":11054:11057   */\n      dup3\n        /* \"#utility.yul\":11050:11064   */\n      add\n        /* \"#utility.yul\":11035:11064   */\n      swap1\n      pop\n        /* \"#utility.yul\":10911:11070   */\n      swap3\n      swap2\n      pop\n      pop\n      jump\t// out\n        /* \"#utility.yul\":11076:11322   */\n    tag_273:\n        /* \"#utility.yul\":11157:11158   */\n      0x00\n        /* \"#utility.yul\":11167:11280   */\n    tag_449:\n        /* \"#utility.yul\":11181:11187   */\n      dup4\n        /* \"#utility.yul\":11178:11179   */\n      dup2\n        /* \"#utility.yul\":11175:11188   */\n      lt\n        /* \"#utility.yul\":11167:11280   */\n      iszero\n      tag_451\n      jumpi\n        /* \"#utility.yul\":11266:11267   */\n      dup1\n        /* \"#utility.yul\":11261:11264   */\n      dup3\n        /* \"#utility.yul\":11257:11268   */\n      add\n        /* \"#utility.yul\":11251:11269   */\n      mload\n        /* \"#utility.yul\":11247:11248   */\n      dup2\n        /* \"#utility.yul\":11242:11245   */\n      dup5\n        /* \"#utility.yul\":11238:11249   */\n      add\n        /* \"#utility.yul\":11231:11270   */\n      mstore\n        /* \"#utility.yul\":11203:11205   */\n      0x20\n        /* \"#utility.yul\":11200:11201   */\n      dup2\n        /* \"#utility.yul\":11196:11206   */\n      add\n        /* \"#utility.yul\":11191:11206   */\n      swap1\n      pop\n        /* \"#utility.yul\":11167:11280   */\n      jump(tag_449)\n    tag_451:\n        /* \"#utility.yul\":11314:11315   */\n      0x00\n        /* \"#utility.yul\":11305:11311   */\n      dup5\n        /* \"#utility.yul\":11300:11303   */\n      dup5\n        /* \"#utility.yul\":11296:11312   */\n      add\n        /* \"#utility.yul\":11289:11316   */\n      mstore\n        /* \"#utility.yul\":11138:11322   */\n      pop\n        /* \"#utility.yul\":11076:11322   */\n      pop\n      pop\n      pop\n      jump\t// out\n        /* \"#utility.yul\":11328:11685   */\n    tag_274:\n        /* \"#utility.yul\":11406:11409   */\n      0x00\n        /* \"#utility.yul\":11434:11473   */\n      tag_453\n        /* \"#utility.yul\":11467:11472   */\n      dup3\n        /* \"#utility.yul\":11434:11473   */\n      tag_271\n      jump\t// in\n    tag_453:\n        /* \"#utility.yul\":11489:11550   */\n      tag_454\n        /* \"#utility.yul\":11543:11549   */\n      dup2\n        /* \"#utility.yul\":11538:11541   */\n      dup6\n        /* \"#utility.yul\":11489:11550   */\n      tag_272\n      jump\t// in\n    tag_454:\n        /* \"#utility.yul\":11482:11550   */\n      swap4\n      pop\n        /* \"#utility.yul\":11559:11624   */\n      tag_455\n        /* \"#utility.yul\":11617:11623   */\n      dup2\n        /* \"#utility.yul\":11612:11615   */\n      dup6\n        /* \"#utility.yul\":11605:11609   */\n      0x20\n        /* \"#utility.yul\":11598:11603   */\n      dup7\n        /* \"#utility.yul\":11594:11610   */\n      add\n        /* \"#utility.yul\":11559:11624   */\n      tag_273\n      jump\t// in\n    tag_455:\n        /* \"#utility.yul\":11649:11678   */\n      tag_456\n        /* \"#utility.yul\":11671:11677   */\n      dup2\n        /* \"#utility.yul\":11649:11678   */\n      tag_247\n      jump\t// in\n    tag_456:\n        /* \"#utility.yul\":11644:11647   */\n      dup5\n        /* \"#utility.yul\":11640:11679   */\n      add\n        /* \"#utility.yul\":11633:11679   */\n      swap2\n      pop\n        /* \"#utility.yul\":11410:11685   */\n      pop\n        /* \"#utility.yul\":11328:11685   */\n      swap3\n      swap2\n      pop\n      pop\n      jump\t// out\n        /* \"#utility.yul\":11773:12379   */\n    tag_275:\n        /* \"#utility.yul\":11884:11887   */\n      0x00\n        /* \"#utility.yul\":11920:11924   */\n      0x40\n        /* \"#utility.yul\":11915:11918   */\n      dup4\n        /* \"#utility.yul\":11911:11925   */\n      add\n        /* \"#utility.yul\":12010:12014   */\n      0x00\n        /* \"#utility.yul\":12003:12008   */\n      dup4\n        /* \"#utility.yul\":11999:12015   */\n      add\n        /* \"#utility.yul\":11993:12016   */\n      mload\n        /* \"#utility.yul\":12029:12092   */\n      tag_458\n        /* \"#utility.yul\":12086:12090   */\n      0x00\n        /* \"#utility.yul\":12081:12084   */\n      dup7\n        /* \"#utility.yul\":12077:12091   */\n      add\n        /* \"#utility.yul\":12063:12075   */\n      dup3\n        /* \"#utility.yul\":12029:12092   */\n      tag_261\n      jump\t// in\n    tag_458:\n        /* \"#utility.yul\":11935:12102   */\n      pop\n        /* \"#utility.yul\":12189:12193   */\n      0x20\n        /* \"#utility.yul\":12182:12187   */\n      dup4\n        /* \"#utility.yul\":12178:12194   */\n      add\n        /* \"#utility.yul\":12172:12195   */\n      mload\n        /* \"#utility.yul\":12242:12245   */\n      dup5\n        /* \"#utility.yul\":12236:12240   */\n      dup3\n        /* \"#utility.yul\":12232:12246   */\n      sub\n        /* \"#utility.yul\":12225:12229   */\n      0x20\n        /* \"#utility.yul\":12220:12223   */\n      dup7\n        /* \"#utility.yul\":12216:12230   */\n      add\n        /* \"#utility.yul\":12209:12247   */\n      mstore\n        /* \"#utility.yul\":12268:12341   */\n      tag_459\n        /* \"#utility.yul\":12336:12340   */\n      dup3\n        /* \"#utility.yul\":12322:12334   */\n      dup3\n        /* \"#utility.yul\":12268:12341   */\n      tag_274\n      jump\t// in\n    tag_459:\n        /* \"#utility.yul\":12260:12341   */\n      swap2\n      pop\n        /* \"#utility.yul\":12112:12352   */\n      pop\n        /* \"#utility.yul\":12369:12373   */\n      dup1\n        /* \"#utility.yul\":12362:12373   */\n      swap2\n      pop\n        /* \"#utility.yul\":11889:12379   */\n      pop\n        /* \"#utility.yul\":11773:12379   */\n      swap3\n      swap2\n      pop\n      pop\n      jump\t// out\n        /* \"#utility.yul\":12385:12742   */\n    tag_52:\n        /* \"#utility.yul\":12520:12524   */\n      0x00\n        /* \"#utility.yul\":12558:12560   */\n      0x20\n        /* \"#utility.yul\":12547:12556   */\n      dup3\n        /* \"#utility.yul\":12543:12561   */\n      add\n        /* \"#utility.yul\":12535:12561   */\n      swap1\n      pop\n        /* \"#utility.yul\":12607:12616   */\n      dup2\n        /* \"#utility.yul\":12601:12605   */\n      dup2\n        /* \"#utility.yul\":12597:12617   */\n      sub\n        /* \"#utility.yul\":12593:12594   */\n      0x00\n        /* \"#utility.yul\":12582:12591   */\n      dup4\n        /* \"#utility.yul\":12578:12595   */\n      add\n        /* \"#utility.yul\":12571:12618   */\n      mstore\n        /* \"#utility.yul\":12635:12735   */\n      tag_461\n        /* \"#utility.yul\":12730:12734   */\n      dup2\n        /* \"#utility.yul\":12721:12727   */\n      dup5\n        /* \"#utility.yul\":12635:12735   */\n      tag_275\n      jump\t// in\n    tag_461:\n        /* \"#utility.yul\":12627:12735   */\n      swap1\n      pop\n        /* \"#utility.yul\":12385:12742   */\n      swap3\n      swap2\n      pop\n      pop\n      jump\t// out\n        /* \"#utility.yul\":12748:13059   */\n    tag_276:\n        /* \"#utility.yul\":12825:12829   */\n      0x00\n        /* \"#utility.yul\":12915:12933   */\n      0xffffffffffffffff\n        /* \"#utility.yul\":12907:12913   */\n      dup3\n        /* \"#utility.yul\":12904:12934   */\n      gt\n        /* \"#utility.yul\":12901:12957   */\n      iszero\n      tag_463\n      jumpi\n        /* \"#utility.yul\":12937:12955   */\n      tag_464\n      tag_132\n      jump\t// in\n    tag_464:\n        /* \"#utility.yul\":12901:12957   */\n    tag_463:\n        /* \"#utility.yul\":12987:12991   */\n      0x20\n        /* \"#utility.yul\":12979:12985   */\n      dup3\n        /* \"#utility.yul\":12975:12992   */\n      mul\n        /* \"#utility.yul\":12967:12992   */\n      swap1\n      pop\n        /* \"#utility.yul\":13047:13051   */\n      0x20\n        /* \"#utility.yul\":13041:13045   */\n      dup2\n        /* \"#utility.yul\":13037:13052   */\n      add\n        /* \"#utility.yul\":13029:13052   */\n      swap1\n      pop\n        /* \"#utility.yul\":12748:13059   */\n      swap2\n      swap1\n      pop\n      jump\t// out\n        /* \"#utility.yul\":13082:13792   */\n    tag_277:\n        /* \"#utility.yul\":13178:13183   */\n      0x00\n        /* \"#utility.yul\":13203:13284   */\n      tag_466\n        /* \"#utility.yul\":13219:13283   */\n      tag_467\n        /* \"#utility.yul\":13276:13282   */\n      dup5\n        /* \"#utility.yul\":13219:13283   */\n      tag_276\n      jump\t// in\n    tag_467:\n        /* \"#utility.yul\":13203:13284   */\n      tag_249\n      jump\t// in\n    tag_466:\n        /* \"#utility.yul\":13194:13284   */\n      swap1\n      pop\n        /* \"#utility.yul\":13304:13309   */\n      dup1\n        /* \"#utility.yul\":13333:13339   */\n      dup4\n        /* \"#utility.yul\":13326:13331   */\n      dup3\n        /* \"#utility.yul\":13319:13340   */\n      mstore\n        /* \"#utility.yul\":13367:13371   */\n      0x20\n        /* \"#utility.yul\":13360:13365   */\n      dup3\n        /* \"#utility.yul\":13356:13372   */\n      add\n        /* \"#utility.yul\":13349:13372   */\n      swap1\n      pop\n        /* \"#utility.yul\":13420:13424   */\n      0x20\n        /* \"#utility.yul\":13412:13418   */\n      dup5\n        /* \"#utility.yul\":13408:13425   */\n      mul\n        /* \"#utility.yul\":13400:13406   */\n      dup4\n        /* \"#utility.yul\":13396:13426   */\n      add\n        /* \"#utility.yul\":13449:13452   */\n      dup6\n        /* \"#utility.yul\":13441:13447   */\n      dup2\n        /* \"#utility.yul\":13438:13453   */\n      gt\n        /* \"#utility.yul\":13435:13557   */\n      iszero\n      tag_468\n      jumpi\n        /* \"#utility.yul\":13468:13547   */\n      tag_469\n      tag_255\n      jump\t// in\n    tag_469:\n        /* \"#utility.yul\":13435:13557   */\n    tag_468:\n        /* \"#utility.yul\":13583:13589   */\n      dup4\n        /* \"#utility.yul\":13566:13786   */\n    tag_470:\n        /* \"#utility.yul\":13600:13606   */\n      dup2\n        /* \"#utility.yul\":13595:13598   */\n      dup2\n        /* \"#utility.yul\":13592:13607   */\n      lt\n        /* \"#utility.yul\":13566:13786   */\n      iszero\n      tag_472\n      jumpi\n        /* \"#utility.yul\":13675:13678   */\n      dup1\n        /* \"#utility.yul\":13704:13741   */\n      tag_473\n        /* \"#utility.yul\":13737:13740   */\n      dup9\n        /* \"#utility.yul\":13725:13735   */\n      dup3\n        /* \"#utility.yul\":13704:13741   */\n      tag_244\n      jump\t// in\n    tag_473:\n        /* \"#utility.yul\":13699:13702   */\n      dup5\n        /* \"#utility.yul\":13692:13742   */\n      mstore\n        /* \"#utility.yul\":13771:13775   */\n      0x20\n        /* \"#utility.yul\":13766:13769   */\n      dup5\n        /* \"#utility.yul\":13762:13776   */\n      add\n        /* \"#utility.yul\":13755:13776   */\n      swap4\n      pop\n        /* \"#utility.yul\":13642:13786   */\n      pop\n        /* \"#utility.yul\":13626:13630   */\n      0x20\n        /* \"#utility.yul\":13621:13624   */\n      dup2\n        /* \"#utility.yul\":13617:13631   */\n      add\n        /* \"#utility.yul\":13610:13631   */\n      swap1\n      pop\n        /* \"#utility.yul\":13566:13786   */\n      jump(tag_470)\n    tag_472:\n        /* \"#utility.yul\":13570:13591   */\n      pop\n        /* \"#utility.yul\":13184:13792   */\n      pop\n      pop\n        /* \"#utility.yul\":13082:13792   */\n      swap4\n      swap3\n      pop\n      pop\n      pop\n      jump\t// out\n        /* \"#utility.yul\":13815:14185   */\n    tag_278:\n        /* \"#utility.yul\":13886:13891   */\n      0x00\n        /* \"#utility.yul\":13935:13938   */\n      dup3\n        /* \"#utility.yul\":13928:13932   */\n      0x1f\n        /* \"#utility.yul\":13920:13926   */\n      dup4\n        /* \"#utility.yul\":13916:13933   */\n      add\n        /* \"#utility.yul\":13912:13939   */\n      slt\n        /* \"#utility.yul\":13902:14024   */\n      tag_475\n      jumpi\n        /* \"#utility.yul\":13943:14022   */\n      tag_476\n      tag_245\n      jump\t// in\n    tag_476:\n        /* \"#utility.yul\":13902:14024   */\n    tag_475:\n        /* \"#utility.yul\":14060:14066   */\n      dup2\n        /* \"#utility.yul\":14047:14067   */\n      calldataload\n        /* \"#utility.yul\":14085:14179   */\n      tag_477\n        /* \"#utility.yul\":14175:14178   */\n      dup5\n        /* \"#utility.yul\":14167:14173   */\n      dup3\n        /* \"#utility.yul\":14160:14164   */\n      0x20\n        /* \"#utility.yul\":14152:14158   */\n      dup7\n        /* \"#utility.yul\":14148:14165   */\n      add\n        /* \"#utility.yul\":14085:14179   */\n      tag_277\n      jump\t// in\n    tag_477:\n        /* \"#utility.yul\":14076:14179   */\n      swap2\n      pop\n        /* \"#utility.yul\":13892:14185   */\n      pop\n        /* \"#utility.yul\":13815:14185   */\n      swap3\n      swap2\n      pop\n      pop\n      jump\t// out\n        /* \"#utility.yul\":14191:15902   */\n    tag_55:\n        /* \"#utility.yul\":14366:14372   */\n      0x00\n        /* \"#utility.yul\":14374:14380   */\n      dup1\n        /* \"#utility.yul\":14382:14388   */\n      0x00\n        /* \"#utility.yul\":14390:14396   */\n      dup1\n        /* \"#utility.yul\":14398:14404   */\n      0x00\n        /* \"#utility.yul\":14447:14450   */\n      0xa0\n        /* \"#utility.yul\":14435:14444   */\n      dup7\n        /* \"#utility.yul\":14426:14433   */\n      dup9\n        /* \"#utility.yul\":14422:14445   */\n      sub\n        /* \"#utility.yul\":14418:14451   */\n      slt\n        /* \"#utility.yul\":14415:14535   */\n      iszero\n      tag_479\n      jumpi\n        /* \"#utility.yul\":14454:14533   */\n      tag_480\n      tag_240\n      jump\t// in\n    tag_480:\n        /* \"#utility.yul\":14415:14535   */\n    tag_479:\n        /* \"#utility.yul\":14602:14603   */\n      0x00\n        /* \"#utility.yul\":14591:14600   */\n      dup7\n        /* \"#utility.yul\":14587:14604   */\n      add\n        /* \"#utility.yul\":14574:14605   */\n      calldataload\n        /* \"#utility.yul\":14632:14650   */\n      0xffffffffffffffff\n        /* \"#utility.yul\":14624:14630   */\n      dup2\n        /* \"#utility.yul\":14621:14651   */\n      gt\n        /* \"#utility.yul\":14618:14735   */\n      iszero\n      tag_481\n      jumpi\n        /* \"#utility.yul\":14654:14733   */\n      tag_482\n      tag_241\n      jump\t// in\n    tag_482:\n        /* \"#utility.yul\":14618:14735   */\n    tag_481:\n        /* \"#utility.yul\":14759:14822   */\n      tag_483\n        /* \"#utility.yul\":14814:14821   */\n      dup9\n        /* \"#utility.yul\":14805:14811   */\n      dup3\n        /* \"#utility.yul\":14794:14803   */\n      dup10\n        /* \"#utility.yul\":14790:14812   */\n      add\n        /* \"#utility.yul\":14759:14822   */\n      tag_253\n      jump\t// in\n    tag_483:\n        /* \"#utility.yul\":14749:14822   */\n      swap6\n      pop\n        /* \"#utility.yul\":14545:14832   */\n      pop\n        /* \"#utility.yul\":14899:14901   */\n      0x20\n        /* \"#utility.yul\":14888:14897   */\n      dup7\n        /* \"#utility.yul\":14884:14902   */\n      add\n        /* \"#utility.yul\":14871:14903   */\n      calldataload\n        /* \"#utility.yul\":14930:14948   */\n      0xffffffffffffffff\n        /* \"#utility.yul\":14922:14928   */\n      dup2\n        /* \"#utility.yul\":14919:14949   */\n      gt\n        /* \"#utility.yul\":14916:15033   */\n      iszero\n      tag_484\n      jumpi\n        /* \"#utility.yul\":14952:15031   */\n      tag_485\n      tag_241\n      jump\t// in\n    tag_485:\n        /* \"#utility.yul\":14916:15033   */\n    tag_484:\n        /* \"#utility.yul\":15057:15120   */\n      tag_486\n        /* \"#utility.yul\":15112:15119   */\n      dup9\n        /* \"#utility.yul\":15103:15109   */\n      dup3\n        /* \"#utility.yul\":15092:15101   */\n      dup10\n        /* \"#utility.yul\":15088:15110   */\n      add\n        /* \"#utility.yul\":15057:15120   */\n      tag_253\n      jump\t// in\n    tag_486:\n        /* \"#utility.yul\":15047:15120   */\n      swap5\n      pop\n        /* \"#utility.yul\":14842:15130   */\n      pop\n        /* \"#utility.yul\":15169:15171   */\n      0x40\n        /* \"#utility.yul\":15195:15248   */\n      tag_487\n        /* \"#utility.yul\":15240:15247   */\n      dup9\n        /* \"#utility.yul\":15231:15237   */\n      dup3\n        /* \"#utility.yul\":15220:15229   */\n      dup10\n        /* \"#utility.yul\":15216:15238   */\n      add\n        /* \"#utility.yul\":15195:15248   */\n      tag_244\n      jump\t// in\n    tag_487:\n        /* \"#utility.yul\":15185:15248   */\n      swap4\n      pop\n        /* \"#utility.yul\":15140:15258   */\n      pop\n        /* \"#utility.yul\":15325:15327   */\n      0x60\n        /* \"#utility.yul\":15314:15323   */\n      dup7\n        /* \"#utility.yul\":15310:15328   */\n      add\n        /* \"#utility.yul\":15297:15329   */\n      calldataload\n        /* \"#utility.yul\":15356:15374   */\n      0xffffffffffffffff\n        /* \"#utility.yul\":15348:15354   */\n      dup2\n        /* \"#utility.yul\":15345:15375   */\n      gt\n        /* \"#utility.yul\":15342:15459   */\n      iszero\n      tag_488\n      jumpi\n        /* \"#utility.yul\":15378:15457   */\n      tag_489\n      tag_241\n      jump\t// in\n    tag_489:\n        /* \"#utility.yul\":15342:15459   */\n    tag_488:\n        /* \"#utility.yul\":15483:15571   */\n      tag_490\n        /* \"#utility.yul\":15563:15570   */\n      dup9\n        /* \"#utility.yul\":15554:15560   */\n      dup3\n        /* \"#utility.yul\":15543:15552   */\n      dup10\n        /* \"#utility.yul\":15539:15561   */\n      add\n        /* \"#utility.yul\":15483:15571   */\n      tag_257\n      jump\t// in\n    tag_490:\n        /* \"#utility.yul\":15473:15571   */\n      swap3\n      pop\n        /* \"#utility.yul\":15268:15581   */\n      pop\n        /* \"#utility.yul\":15648:15651   */\n      0x80\n        /* \"#utility.yul\":15637:15646   */\n      dup7\n        /* \"#utility.yul\":15633:15652   */\n      add\n        /* \"#utility.yul\":15620:15653   */\n      calldataload\n        /* \"#utility.yul\":15680:15698   */\n      0xffffffffffffffff\n        /* \"#utility.yul\":15672:15678   */\n      dup2\n        /* \"#utility.yul\":15669:15699   */\n      gt\n        /* \"#utility.yul\":15666:15783   */\n      iszero\n      tag_491\n      jumpi\n        /* \"#utility.yul\":15702:15781   */\n      tag_492\n      tag_241\n      jump\t// in\n    tag_492:\n        /* \"#utility.yul\":15666:15783   */\n    tag_491:\n        /* \"#utility.yul\":15807:15885   */\n      tag_493\n        /* \"#utility.yul\":15877:15884   */\n      dup9\n        /* \"#utility.yul\":15868:15874   */\n      dup3\n        /* \"#utility.yul\":15857:15866   */\n      dup10\n        /* \"#utility.yul\":15853:15875   */\n      add\n        /* \"#utility.yul\":15807:15885   */\n      tag_278\n      jump\t// in\n    tag_493:\n        /* \"#utility.yul\":15797:15885   */\n      swap2\n      pop\n        /* \"#utility.yul\":15591:15895   */\n      pop\n        /* \"#utility.yul\":14191:15902   */\n      swap3\n      swap6\n      pop\n      swap3\n      swap6\n      swap1\n      swap4\n      pop\n      jump\t// out\n        /* \"#utility.yul\":15908:16032   */\n    tag_279:\n        /* \"#utility.yul\":15985:15991   */\n      0x00\n        /* \"#utility.yul\":16019:16024   */\n      dup2\n        /* \"#utility.yul\":16013:16025   */\n      mload\n        /* \"#utility.yul\":16003:16025   */\n      swap1\n      pop\n        /* \"#utility.yul\":15908:16032   */\n      swap2\n      swap1\n      pop\n      jump\t// out\n        /* \"#utility.yul\":16038:16222   */\n    tag_280:\n        /* \"#utility.yul\":16137:16148   */\n      0x00\n        /* \"#utility.yul\":16171:16177   */\n      dup3\n        /* \"#utility.yul\":16166:16169   */\n      dup3\n        /* \"#utility.yul\":16159:16178   */\n      mstore\n        /* \"#utility.yul\":16211:16215   */\n      0x20\n        /* \"#utility.yul\":16206:16209   */\n      dup3\n        /* \"#utility.yul\":16202:16216   */\n      add\n        /* \"#utility.yul\":16187:16216   */\n      swap1\n      pop\n        /* \"#utility.yul\":16038:16222   */\n      swap3\n      swap2\n      pop\n      pop\n      jump\t// out\n        /* \"#utility.yul\":16228:16370   */\n    tag_281:\n        /* \"#utility.yul\":16305:16309   */\n      0x00\n        /* \"#utility.yul\":16328:16331   */\n      dup2\n        /* \"#utility.yul\":16320:16331   */\n      swap1\n      pop\n        /* \"#utility.yul\":16358:16362   */\n      0x20\n        /* \"#utility.yul\":16353:16356   */\n      dup3\n        /* \"#utility.yul\":16349:16363   */\n      add\n        /* \"#utility.yul\":16341:16363   */\n      swap1\n      pop\n        /* \"#utility.yul\":16228:16370   */\n      swap2\n      swap1\n      pop\n      jump\t// out\n        /* \"#utility.yul\":16376:16572   */\n    tag_282:\n        /* \"#utility.yul\":16465:16475   */\n      0x00\n        /* \"#utility.yul\":16500:16566   */\n      tag_498\n        /* \"#utility.yul\":16562:16565   */\n      dup4\n        /* \"#utility.yul\":16554:16560   */\n      dup4\n        /* \"#utility.yul\":16500:16566   */\n      tag_274\n      jump\t// in\n    tag_498:\n        /* \"#utility.yul\":16486:16566   */\n      swap1\n      pop\n        /* \"#utility.yul\":16376:16572   */\n      swap3\n      swap2\n      pop\n      pop\n      jump\t// out\n        /* \"#utility.yul\":16578:16701   */\n    tag_283:\n        /* \"#utility.yul\":16658:16662   */\n      0x00\n        /* \"#utility.yul\":16690:16694   */\n      0x20\n        /* \"#utility.yul\":16685:16688   */\n      dup3\n        /* \"#utility.yul\":16681:16695   */\n      add\n        /* \"#utility.yul\":16673:16695   */\n      swap1\n      pop\n        /* \"#utility.yul\":16578:16701   */\n      swap2\n      swap1\n      pop\n      jump\t// out\n        /* \"#utility.yul\":16735:17706   */\n    tag_284:\n        /* \"#utility.yul\":16864:16867   */\n      0x00\n        /* \"#utility.yul\":16893:16957   */\n      tag_501\n        /* \"#utility.yul\":16951:16956   */\n      dup3\n        /* \"#utility.yul\":16893:16957   */\n      tag_279\n      jump\t// in\n    tag_501:\n        /* \"#utility.yul\":16973:17059   */\n      tag_502\n        /* \"#utility.yul\":17052:17058   */\n      dup2\n        /* \"#utility.yul\":17047:17050   */\n      dup6\n        /* \"#utility.yul\":16973:17059   */\n      tag_280\n      jump\t// in\n    tag_502:\n        /* \"#utility.yul\":16966:17059   */\n      swap4\n      pop\n        /* \"#utility.yul\":17085:17088   */\n      dup4\n        /* \"#utility.yul\":17130:17134   */\n      0x20\n        /* \"#utility.yul\":17122:17128   */\n      dup3\n        /* \"#utility.yul\":17118:17135   */\n      mul\n        /* \"#utility.yul\":17113:17116   */\n      dup6\n        /* \"#utility.yul\":17109:17136   */\n      add\n        /* \"#utility.yul\":17160:17226   */\n      tag_503\n        /* \"#utility.yul\":17220:17225   */\n      dup6\n        /* \"#utility.yul\":17160:17226   */\n      tag_281\n      jump\t// in\n    tag_503:\n        /* \"#utility.yul\":17249:17256   */\n      dup1\n        /* \"#utility.yul\":17280:17281   */\n      0x00\n        /* \"#utility.yul\":17265:17661   */\n    tag_504:\n        /* \"#utility.yul\":17290:17296   */\n      dup6\n        /* \"#utility.yul\":17287:17288   */\n      dup2\n        /* \"#utility.yul\":17284:17297   */\n      lt\n        /* \"#utility.yul\":17265:17661   */\n      iszero\n      tag_506\n      jumpi\n        /* \"#utility.yul\":17361:17370   */\n      dup5\n        /* \"#utility.yul\":17355:17359   */\n      dup5\n        /* \"#utility.yul\":17351:17371   */\n      sub\n        /* \"#utility.yul\":17346:17349   */\n      dup10\n        /* \"#utility.yul\":17339:17372   */\n      mstore\n        /* \"#utility.yul\":17412:17418   */\n      dup2\n        /* \"#utility.yul\":17406:17419   */\n      mload\n        /* \"#utility.yul\":17440:17524   */\n      tag_507\n        /* \"#utility.yul\":17519:17523   */\n      dup6\n        /* \"#utility.yul\":17504:17517   */\n      dup3\n        /* \"#utility.yul\":17440:17524   */\n      tag_282\n      jump\t// in\n    tag_507:\n        /* \"#utility.yul\":17432:17524   */\n      swap5\n      pop\n        /* \"#utility.yul\":17547:17617   */\n      tag_508\n        /* \"#utility.yul\":17610:17616   */\n      dup4\n        /* \"#utility.yul\":17547:17617   */\n      tag_283\n      jump\t// in\n    tag_508:\n        /* \"#utility.yul\":17537:17617   */\n      swap3\n      pop\n        /* \"#utility.yul\":17646:17650   */\n      0x20\n        /* \"#utility.yul\":17641:17644   */\n      dup11\n        /* \"#utility.yul\":17637:17651   */\n      add\n        /* \"#utility.yul\":17630:17651   */\n      swap10\n      pop\n        /* \"#utility.yul\":17325:17661   */\n      pop\n        /* \"#utility.yul\":17312:17313   */\n      0x01\n        /* \"#utility.yul\":17309:17310   */\n      dup2\n        /* \"#utility.yul\":17305:17314   */\n      add\n        /* \"#utility.yul\":17300:17314   */\n      swap1\n      pop\n        /* \"#utility.yul\":17265:17661   */\n      jump(tag_504)\n    tag_506:\n        /* \"#utility.yul\":17269:17283   */\n      pop\n        /* \"#utility.yul\":17677:17681   */\n      dup3\n        /* \"#utility.yul\":17670:17681   */\n      swap8\n      pop\n        /* \"#utility.yul\":17697:17700   */\n      dup8\n        /* \"#utility.yul\":17690:17700   */\n      swap6\n      pop\n        /* \"#utility.yul\":16869:17706   */\n      pop\n      pop\n      pop\n      pop\n      pop\n        /* \"#utility.yul\":16735:17706   */\n      swap3\n      swap2\n      pop\n      pop\n      jump\t// out\n        /* \"#utility.yul\":17712:17886   */\n    tag_285:\n        /* \"#utility.yul\":17801:17812   */\n      0x00\n        /* \"#utility.yul\":17835:17841   */\n      dup3\n        /* \"#utility.yul\":17830:17833   */\n      dup3\n        /* \"#utility.yul\":17823:17842   */\n      mstore\n        /* \"#utility.yul\":17875:17879   */\n      0x20\n        /* \"#utility.yul\":17870:17873   */\n      dup3\n        /* \"#utility.yul\":17866:17880   */\n      add\n        /* \"#utility.yul\":17851:17880   */\n      swap1\n      pop\n        /* \"#utility.yul\":17712:17886   */\n      swap3\n      swap2\n      pop\n      pop\n      jump\t// out\n        /* \"#utility.yul\":17922:18634   */\n    tag_286:\n        /* \"#utility.yul\":18031:18034   */\n      0x00\n        /* \"#utility.yul\":18060:18114   */\n      tag_511\n        /* \"#utility.yul\":18108:18113   */\n      dup3\n        /* \"#utility.yul\":18060:18114   */\n      tag_258\n      jump\t// in\n    tag_511:\n        /* \"#utility.yul\":18130:18206   */\n      tag_512\n        /* \"#utility.yul\":18199:18205   */\n      dup2\n        /* \"#utility.yul\":18194:18197   */\n      dup6\n        /* \"#utility.yul\":18130:18206   */\n      tag_285\n      jump\t// in\n    tag_512:\n        /* \"#utility.yul\":18123:18206   */\n      swap4\n      pop\n        /* \"#utility.yul\":18230:18286   */\n      tag_513\n        /* \"#utility.yul\":18280:18285   */\n      dup4\n        /* \"#utility.yul\":18230:18286   */\n      tag_260\n      jump\t// in\n    tag_513:\n        /* \"#utility.yul\":18309:18316   */\n      dup1\n        /* \"#utility.yul\":18340:18341   */\n      0x00\n        /* \"#utility.yul\":18325:18609   */\n    tag_514:\n        /* \"#utility.yul\":18350:18356   */\n      dup4\n        /* \"#utility.yul\":18347:18348   */\n      dup2\n        /* \"#utility.yul\":18344:18357   */\n      lt\n        /* \"#utility.yul\":18325:18609   */\n      iszero\n      tag_516\n      jumpi\n        /* \"#utility.yul\":18426:18432   */\n      dup2\n        /* \"#utility.yul\":18420:18433   */\n      mload\n        /* \"#utility.yul\":18453:18516   */\n      tag_517\n        /* \"#utility.yul\":18512:18515   */\n      dup9\n        /* \"#utility.yul\":18497:18510   */\n      dup3\n        /* \"#utility.yul\":18453:18516   */\n      tag_262\n      jump\t// in\n    tag_517:\n        /* \"#utility.yul\":18446:18516   */\n      swap8\n      pop\n        /* \"#utility.yul\":18539:18599   */\n      tag_518\n        /* \"#utility.yul\":18592:18598   */\n      dup4\n        /* \"#utility.yul\":18539:18599   */\n      tag_263\n      jump\t// in\n    tag_518:\n        /* \"#utility.yul\":18529:18599   */\n      swap3\n      pop\n        /* \"#utility.yul\":18385:18609   */\n      pop\n        /* \"#utility.yul\":18372:18373   */\n      0x01\n        /* \"#utility.yul\":18369:18370   */\n      dup2\n        /* \"#utility.yul\":18365:18374   */\n      add\n        /* \"#utility.yul\":18360:18374   */\n      swap1\n      pop\n        /* \"#utility.yul\":18325:18609   */\n      jump(tag_514)\n    tag_516:\n        /* \"#utility.yul\":18329:18343   */\n      pop\n        /* \"#utility.yul\":18625:18628   */\n      dup6\n        /* \"#utility.yul\":18618:18628   */\n      swap4\n      pop\n        /* \"#utility.yul\":18036:18634   */\n      pop\n      pop\n      pop\n        /* \"#utility.yul\":17922:18634   */\n      swap3\n      swap2\n      pop\n      pop\n      jump\t// out\n        /* \"#utility.yul\":18640:18754   */\n    tag_287:\n        /* \"#utility.yul\":18707:18713   */\n      0x00\n        /* \"#utility.yul\":18741:18746   */\n      dup2\n        /* \"#utility.yul\":18735:18747   */\n      mload\n        /* \"#utility.yul\":18725:18747   */\n      swap1\n      pop\n        /* \"#utility.yul\":18640:18754   */\n      swap2\n      swap1\n      pop\n      jump\t// out\n        /* \"#utility.yul\":18760:18934   */\n    tag_288:\n        /* \"#utility.yul\":18849:18860   */\n      0x00\n        /* \"#utility.yul\":18883:18889   */\n      dup3\n        /* \"#utility.yul\":18878:18881   */\n      dup3\n        /* \"#utility.yul\":18871:18890   */\n      mstore\n        /* \"#utility.yul\":18923:18927   */\n      0x20\n        /* \"#utility.yul\":18918:18921   */\n      dup3\n        /* \"#utility.yul\":18914:18928   */\n      add\n        /* \"#utility.yul\":18899:18928   */\n      swap1\n      pop\n        /* \"#utility.yul\":18760:18934   */\n      swap3\n      swap2\n      pop\n      pop\n      jump\t// out\n        /* \"#utility.yul\":18940:19072   */\n    tag_289:\n        /* \"#utility.yul\":19007:19011   */\n      0x00\n        /* \"#utility.yul\":19030:19033   */\n      dup2\n        /* \"#utility.yul\":19022:19033   */\n      swap1\n      pop\n        /* \"#utility.yul\":19060:19064   */\n      0x20\n        /* \"#utility.yul\":19055:19058   */\n      dup3\n        /* \"#utility.yul\":19051:19065   */\n      add\n        /* \"#utility.yul\":19043:19065   */\n      swap1\n      pop\n        /* \"#utility.yul\":18940:19072   */\n      swap2\n      swap1\n      pop\n      jump\t// out\n        /* \"#utility.yul\":19078:19186   */\n    tag_290:\n        /* \"#utility.yul\":19155:19179   */\n      tag_523\n        /* \"#utility.yul\":19173:19178   */\n      dup2\n        /* \"#utility.yul\":19155:19179   */\n      tag_269\n      jump\t// in\n    tag_523:\n        /* \"#utility.yul\":19150:19153   */\n      dup3\n        /* \"#utility.yul\":19143:19180   */\n      mstore\n        /* \"#utility.yul\":19078:19186   */\n      pop\n      pop\n      jump\t// out\n        /* \"#utility.yul\":19192:19371   */\n    tag_291:\n        /* \"#utility.yul\":19261:19271   */\n      0x00\n        /* \"#utility.yul\":19282:19328   */\n      tag_525\n        /* \"#utility.yul\":19324:19327   */\n      dup4\n        /* \"#utility.yul\":19316:19322   */\n      dup4\n        /* \"#utility.yul\":19282:19328   */\n      tag_290\n      jump\t// in\n    tag_525:\n        /* \"#utility.yul\":19360:19364   */\n      0x20\n        /* \"#utility.yul\":19355:19358   */\n      dup4\n        /* \"#utility.yul\":19351:19365   */\n      add\n        /* \"#utility.yul\":19337:19365   */\n      swap1\n      pop\n        /* \"#utility.yul\":19192:19371   */\n      swap3\n      swap2\n      pop\n      pop\n      jump\t// out\n        /* \"#utility.yul\":19377:19490   */\n    tag_292:\n        /* \"#utility.yul\":19447:19451   */\n      0x00\n        /* \"#utility.yul\":19479:19483   */\n      0x20\n        /* \"#utility.yul\":19474:19477   */\n      dup3\n        /* \"#utility.yul\":19470:19484   */\n      add\n        /* \"#utility.yul\":19462:19484   */\n      swap1\n      pop\n        /* \"#utility.yul\":19377:19490   */\n      swap2\n      swap1\n      pop\n      jump\t// out\n        /* \"#utility.yul\":19526:20238   */\n    tag_293:\n        /* \"#utility.yul\":19635:19638   */\n      0x00\n        /* \"#utility.yul\":19664:19718   */\n      tag_528\n        /* \"#utility.yul\":19712:19717   */\n      dup3\n        /* \"#utility.yul\":19664:19718   */\n      tag_287\n      jump\t// in\n    tag_528:\n        /* \"#utility.yul\":19734:19810   */\n      tag_529\n        /* \"#utility.yul\":19803:19809   */\n      dup2\n        /* \"#utility.yul\":19798:19801   */\n      dup6\n        /* \"#utility.yul\":19734:19810   */\n      tag_288\n      jump\t// in\n    tag_529:\n        /* \"#utility.yul\":19727:19810   */\n      swap4\n      pop\n        /* \"#utility.yul\":19834:19890   */\n      tag_530\n        /* \"#utility.yul\":19884:19889   */\n      dup4\n        /* \"#utility.yul\":19834:19890   */\n      tag_289\n      jump\t// in\n    tag_530:\n        /* \"#utility.yul\":19913:19920   */\n      dup1\n        /* \"#utility.yul\":19944:19945   */\n      0x00\n        /* \"#utility.yul\":19929:20213   */\n    tag_531:\n        /* \"#utility.yul\":19954:19960   */\n      dup4\n        /* \"#utility.yul\":19951:19952   */\n      dup2\n        /* \"#utility.yul\":19948:19961   */\n      lt\n        /* \"#utility.yul\":19929:20213   */\n      iszero\n      tag_533\n      jumpi\n        /* \"#utility.yul\":20030:20036   */\n      dup2\n        /* \"#utility.yul\":20024:20037   */\n      mload\n        /* \"#utility.yul\":20057:20120   */\n      tag_534\n        /* \"#utility.yul\":20116:20119   */\n      dup9\n        /* \"#utility.yul\":20101:20114   */\n      dup3\n        /* \"#utility.yul\":20057:20120   */\n      tag_291\n      jump\t// in\n    tag_534:\n        /* \"#utility.yul\":20050:20120   */\n      swap8\n      pop\n        /* \"#utility.yul\":20143:20203   */\n      tag_535\n        /* \"#utility.yul\":20196:20202   */\n      dup4\n        /* \"#utility.yul\":20143:20203   */\n      tag_292\n      jump\t// in\n    tag_535:\n        /* \"#utility.yul\":20133:20203   */\n      swap3\n      pop\n        /* \"#utility.yul\":19989:20213   */\n      pop\n        /* \"#utility.yul\":19976:19977   */\n      0x01\n        /* \"#utility.yul\":19973:19974   */\n      dup2\n        /* \"#utility.yul\":19969:19978   */\n      add\n        /* \"#utility.yul\":19964:19978   */\n      swap1\n      pop\n        /* \"#utility.yul\":19929:20213   */\n      jump(tag_531)\n    tag_533:\n        /* \"#utility.yul\":19933:19947   */\n      pop\n        /* \"#utility.yul\":20229:20232   */\n      dup6\n        /* \"#utility.yul\":20222:20232   */\n      swap4\n      pop\n        /* \"#utility.yul\":19640:20238   */\n      pop\n      pop\n      pop\n        /* \"#utility.yul\":19526:20238   */\n      swap3\n      swap2\n      pop\n      pop\n      jump\t// out\n        /* \"#utility.yul\":20334:22085   */\n    tag_294:\n        /* \"#utility.yul\":20453:20456   */\n      0x00\n        /* \"#utility.yul\":20489:20493   */\n      0xc0\n        /* \"#utility.yul\":20484:20487   */\n      dup4\n        /* \"#utility.yul\":20480:20494   */\n      add\n        /* \"#utility.yul\":20583:20587   */\n      0x00\n        /* \"#utility.yul\":20576:20581   */\n      dup4\n        /* \"#utility.yul\":20572:20588   */\n      add\n        /* \"#utility.yul\":20566:20589   */\n      mload\n        /* \"#utility.yul\":20636:20639   */\n      dup5\n        /* \"#utility.yul\":20630:20634   */\n      dup3\n        /* \"#utility.yul\":20626:20640   */\n      sub\n        /* \"#utility.yul\":20619:20623   */\n      0x00\n        /* \"#utility.yul\":20614:20617   */\n      dup7\n        /* \"#utility.yul\":20610:20624   */\n      add\n        /* \"#utility.yul\":20603:20641   */\n      mstore\n        /* \"#utility.yul\":20662:20735   */\n      tag_537\n        /* \"#utility.yul\":20730:20734   */\n      dup3\n        /* \"#utility.yul\":20716:20728   */\n      dup3\n        /* \"#utility.yul\":20662:20735   */\n      tag_274\n      jump\t// in\n    tag_537:\n        /* \"#utility.yul\":20654:20735   */\n      swap2\n      pop\n        /* \"#utility.yul\":20504:20746   */\n      pop\n        /* \"#utility.yul\":20838:20842   */\n      0x20\n        /* \"#utility.yul\":20831:20836   */\n      dup4\n        /* \"#utility.yul\":20827:20843   */\n      add\n        /* \"#utility.yul\":20821:20844   */\n      mload\n        /* \"#utility.yul\":20891:20894   */\n      dup5\n        /* \"#utility.yul\":20885:20889   */\n      dup3\n        /* \"#utility.yul\":20881:20895   */\n      sub\n        /* \"#utility.yul\":20874:20878   */\n      0x20\n        /* \"#utility.yul\":20869:20872   */\n      dup7\n        /* \"#utility.yul\":20865:20879   */\n      add\n        /* \"#utility.yul\":20858:20896   */\n      mstore\n        /* \"#utility.yul\":20917:20990   */\n      tag_538\n        /* \"#utility.yul\":20985:20989   */\n      dup3\n        /* \"#utility.yul\":20971:20983   */\n      dup3\n        /* \"#utility.yul\":20917:20990   */\n      tag_274\n      jump\t// in\n    tag_538:\n        /* \"#utility.yul\":20909:20990   */\n      swap2\n      pop\n        /* \"#utility.yul\":20756:21001   */\n      pop\n        /* \"#utility.yul\":21086:21090   */\n      0x40\n        /* \"#utility.yul\":21079:21084   */\n      dup4\n        /* \"#utility.yul\":21075:21091   */\n      add\n        /* \"#utility.yul\":21069:21092   */\n      mload\n        /* \"#utility.yul\":21105:21168   */\n      tag_539\n        /* \"#utility.yul\":21162:21166   */\n      0x40\n        /* \"#utility.yul\":21157:21160   */\n      dup7\n        /* \"#utility.yul\":21153:21167   */\n      add\n        /* \"#utility.yul\":21139:21151   */\n      dup3\n        /* \"#utility.yul\":21105:21168   */\n      tag_261\n      jump\t// in\n    tag_539:\n        /* \"#utility.yul\":21011:21178   */\n      pop\n        /* \"#utility.yul\":21266:21270   */\n      0x60\n        /* \"#utility.yul\":21259:21264   */\n      dup4\n        /* \"#utility.yul\":21255:21271   */\n      add\n        /* \"#utility.yul\":21249:21272   */\n      mload\n        /* \"#utility.yul\":21319:21322   */\n      dup5\n        /* \"#utility.yul\":21313:21317   */\n      dup3\n        /* \"#utility.yul\":21309:21323   */\n      sub\n        /* \"#utility.yul\":21302:21306   */\n      0x60\n        /* \"#utility.yul\":21297:21300   */\n      dup7\n        /* \"#utility.yul\":21293:21307   */\n      add\n        /* \"#utility.yul\":21286:21324   */\n      mstore\n        /* \"#utility.yul\":21345:21468   */\n      tag_540\n        /* \"#utility.yul\":21463:21467   */\n      dup3\n        /* \"#utility.yul\":21449:21461   */\n      dup3\n        /* \"#utility.yul\":21345:21468   */\n      tag_284\n      jump\t// in\n    tag_540:\n        /* \"#utility.yul\":21337:21468   */\n      swap2\n      pop\n        /* \"#utility.yul\":21188:21479   */\n      pop\n        /* \"#utility.yul\":21572:21576   */\n      0x80\n        /* \"#utility.yul\":21565:21570   */\n      dup4\n        /* \"#utility.yul\":21561:21577   */\n      add\n        /* \"#utility.yul\":21555:21578   */\n      mload\n        /* \"#utility.yul\":21625:21628   */\n      dup5\n        /* \"#utility.yul\":21619:21623   */\n      dup3\n        /* \"#utility.yul\":21615:21629   */\n      sub\n        /* \"#utility.yul\":21608:21612   */\n      0x80\n        /* \"#utility.yul\":21603:21606   */\n      dup7\n        /* \"#utility.yul\":21599:21613   */\n      add\n        /* \"#utility.yul\":21592:21630   */\n      mstore\n        /* \"#utility.yul\":21651:21754   */\n      tag_541\n        /* \"#utility.yul\":21749:21753   */\n      dup3\n        /* \"#utility.yul\":21735:21747   */\n      dup3\n        /* \"#utility.yul\":21651:21754   */\n      tag_286\n      jump\t// in\n    tag_541:\n        /* \"#utility.yul\":21643:21754   */\n      swap2\n      pop\n        /* \"#utility.yul\":21489:21765   */\n      pop\n        /* \"#utility.yul\":21865:21869   */\n      0xa0\n        /* \"#utility.yul\":21858:21863   */\n      dup4\n        /* \"#utility.yul\":21854:21870   */\n      add\n        /* \"#utility.yul\":21848:21871   */\n      mload\n        /* \"#utility.yul\":21918:21921   */\n      dup5\n        /* \"#utility.yul\":21912:21916   */\n      dup3\n        /* \"#utility.yul\":21908:21922   */\n      sub\n        /* \"#utility.yul\":21901:21905   */\n      0xa0\n        /* \"#utility.yul\":21896:21899   */\n      dup7\n        /* \"#utility.yul\":21892:21906   */\n      add\n        /* \"#utility.yul\":21885:21923   */\n      mstore\n        /* \"#utility.yul\":21944:22047   */\n      tag_542\n        /* \"#utility.yul\":22042:22046   */\n      dup3\n        /* \"#utility.yul\":22028:22040   */\n      dup3\n        /* \"#utility.yul\":21944:22047   */\n      tag_293\n      jump\t// in\n    tag_542:\n        /* \"#utility.yul\":21936:22047   */\n      swap2\n      pop\n        /* \"#utility.yul\":21775:22058   */\n      pop\n        /* \"#utility.yul\":22075:22079   */\n      dup1\n        /* \"#utility.yul\":22068:22079   */\n      swap2\n      pop\n        /* \"#utility.yul\":20458:22085   */\n      pop\n        /* \"#utility.yul\":20334:22085   */\n      swap3\n      swap2\n      pop\n      pop\n      jump\t// out\n        /* \"#utility.yul\":22091:22464   */\n    tag_61:\n        /* \"#utility.yul\":22234:22238   */\n      0x00\n        /* \"#utility.yul\":22272:22274   */\n      0x20\n        /* \"#utility.yul\":22261:22270   */\n      dup3\n        /* \"#utility.yul\":22257:22275   */\n      add\n        /* \"#utility.yul\":22249:22275   */\n      swap1\n      pop\n        /* \"#utility.yul\":22321:22330   */\n      dup2\n        /* \"#utility.yul\":22315:22319   */\n      dup2\n        /* \"#utility.yul\":22311:22331   */\n      sub\n        /* \"#utility.yul\":22307:22308   */\n      0x00\n        /* \"#utility.yul\":22296:22305   */\n      dup4\n        /* \"#utility.yul\":22292:22309   */\n      add\n        /* \"#utility.yul\":22285:22332   */\n      mstore\n        /* \"#utility.yul\":22349:22457   */\n      tag_544\n        /* \"#utility.yul\":22452:22456   */\n      dup2\n        /* \"#utility.yul\":22443:22449   */\n      dup5\n        /* \"#utility.yul\":22349:22457   */\n      tag_294\n      jump\t// in\n    tag_544:\n        /* \"#utility.yul\":22341:22457   */\n      swap1\n      pop\n        /* \"#utility.yul\":22091:22464   */\n      swap3\n      swap2\n      pop\n      pop\n      jump\t// out\n        /* \"#utility.yul\":22566:23996   */\n    tag_295:\n        /* \"#utility.yul\":22691:22694   */\n      0x00\n        /* \"#utility.yul\":22727:22731   */\n      0xa0\n        /* \"#utility.yul\":22722:22725   */\n      dup4\n        /* \"#utility.yul\":22718:22732   */\n      add\n        /* \"#utility.yul\":22816:22820   */\n      0x00\n        /* \"#utility.yul\":22809:22814   */\n      dup4\n        /* \"#utility.yul\":22805:22821   */\n      add\n        /* \"#utility.yul\":22799:22822   */\n      mload\n        /* \"#utility.yul\":22835:22898   */\n      tag_546\n        /* \"#utility.yul\":22892:22896   */\n      0x00\n        /* \"#utility.yul\":22887:22890   */\n      dup7\n        /* \"#utility.yul\":22883:22897   */\n      add\n        /* \"#utility.yul\":22869:22881   */\n      dup3\n        /* \"#utility.yul\":22835:22898   */\n      tag_261\n      jump\t// in\n    tag_546:\n        /* \"#utility.yul\":22742:22908   */\n      pop\n        /* \"#utility.yul\":22994:22998   */\n      0x20\n        /* \"#utility.yul\":22987:22992   */\n      dup4\n        /* \"#utility.yul\":22983:22999   */\n      add\n        /* \"#utility.yul\":22977:23000   */\n      mload\n        /* \"#utility.yul\":23047:23050   */\n      dup5\n        /* \"#utility.yul\":23041:23045   */\n      dup3\n        /* \"#utility.yul\":23037:23051   */\n      sub\n        /* \"#utility.yul\":23030:23034   */\n      0x20\n        /* \"#utility.yul\":23025:23028   */\n      dup7\n        /* \"#utility.yul\":23021:23035   */\n      add\n        /* \"#utility.yul\":23014:23052   */\n      mstore\n        /* \"#utility.yul\":23073:23146   */\n      tag_547\n        /* \"#utility.yul\":23141:23145   */\n      dup3\n        /* \"#utility.yul\":23127:23139   */\n      dup3\n        /* \"#utility.yul\":23073:23146   */\n      tag_274\n      jump\t// in\n    tag_547:\n        /* \"#utility.yul\":23065:23146   */\n      swap2\n      pop\n        /* \"#utility.yul\":22918:23157   */\n      pop\n        /* \"#utility.yul\":23246:23250   */\n      0x40\n        /* \"#utility.yul\":23239:23244   */\n      dup4\n        /* \"#utility.yul\":23235:23251   */\n      add\n        /* \"#utility.yul\":23229:23252   */\n      mload\n        /* \"#utility.yul\":23299:23302   */\n      dup5\n        /* \"#utility.yul\":23293:23297   */\n      dup3\n        /* \"#utility.yul\":23289:23303   */\n      sub\n        /* \"#utility.yul\":23282:23286   */\n      0x40\n        /* \"#utility.yul\":23277:23280   */\n      dup7\n        /* \"#utility.yul\":23273:23287   */\n      add\n        /* \"#utility.yul\":23266:23304   */\n      mstore\n        /* \"#utility.yul\":23325:23398   */\n      tag_548\n        /* \"#utility.yul\":23393:23397   */\n      dup3\n        /* \"#utility.yul\":23379:23391   */\n      dup3\n        /* \"#utility.yul\":23325:23398   */\n      tag_274\n      jump\t// in\n    tag_548:\n        /* \"#utility.yul\":23317:23398   */\n      swap2\n      pop\n        /* \"#utility.yul\":23167:23409   */\n      pop\n        /* \"#utility.yul\":23500:23504   */\n      0x60\n        /* \"#utility.yul\":23493:23498   */\n      dup4\n        /* \"#utility.yul\":23489:23505   */\n      add\n        /* \"#utility.yul\":23483:23506   */\n      mload\n        /* \"#utility.yul\":23553:23556   */\n      dup5\n        /* \"#utility.yul\":23547:23551   */\n      dup3\n        /* \"#utility.yul\":23543:23557   */\n      sub\n        /* \"#utility.yul\":23536:23540   */\n      0x60\n        /* \"#utility.yul\":23531:23534   */\n      dup7\n        /* \"#utility.yul\":23527:23541   */\n      add\n        /* \"#utility.yul\":23520:23558   */\n      mstore\n        /* \"#utility.yul\":23579:23652   */\n      tag_549\n        /* \"#utility.yul\":23647:23651   */\n      dup3\n        /* \"#utility.yul\":23633:23645   */\n      dup3\n        /* \"#utility.yul\":23579:23652   */\n      tag_274\n      jump\t// in\n    tag_549:\n        /* \"#utility.yul\":23571:23652   */\n      swap2\n      pop\n        /* \"#utility.yul\":23419:23663   */\n      pop\n        /* \"#utility.yul\":23756:23760   */\n      0x80\n        /* \"#utility.yul\":23749:23754   */\n      dup4\n        /* \"#utility.yul\":23745:23761   */\n      add\n        /* \"#utility.yul\":23739:23762   */\n      mload\n        /* \"#utility.yul\":23809:23812   */\n      dup5\n        /* \"#utility.yul\":23803:23807   */\n      dup3\n        /* \"#utility.yul\":23799:23813   */\n      sub\n        /* \"#utility.yul\":23792:23796   */\n      0x80\n        /* \"#utility.yul\":23787:23790   */\n      dup7\n        /* \"#utility.yul\":23783:23797   */\n      add\n        /* \"#utility.yul\":23776:23814   */\n      mstore\n        /* \"#utility.yul\":23835:23958   */\n      tag_550\n        /* \"#utility.yul\":23953:23957   */\n      dup3\n        /* \"#utility.yul\":23939:23951   */\n      dup3\n        /* \"#utility.yul\":23835:23958   */\n      tag_284\n      jump\t// in\n    tag_550:\n        /* \"#utility.yul\":23827:23958   */\n      swap2\n      pop\n        /* \"#utility.yul\":23673:23969   */\n      pop\n        /* \"#utility.yul\":23986:23990   */\n      dup1\n        /* \"#utility.yul\":23979:23990   */\n      swap2\n      pop\n        /* \"#utility.yul\":22696:23996   */\n      pop\n        /* \"#utility.yul\":22566:23996   */\n      swap3\n      swap2\n      pop\n      pop\n      jump\t// out\n        /* \"#utility.yul\":24002:24387   */\n    tag_66:\n        /* \"#utility.yul\":24151:24155   */\n      0x00\n        /* \"#utility.yul\":24189:24191   */\n      0x20\n        /* \"#utility.yul\":24178:24187   */\n      dup3\n        /* \"#utility.yul\":24174:24192   */\n      add\n        /* \"#utility.yul\":24166:24192   */\n      swap1\n      pop\n        /* \"#utility.yul\":24238:24247   */\n      dup2\n        /* \"#utility.yul\":24232:24236   */\n      dup2\n        /* \"#utility.yul\":24228:24248   */\n      sub\n        /* \"#utility.yul\":24224:24225   */\n      0x00\n        /* \"#utility.yul\":24213:24222   */\n      dup4\n        /* \"#utility.yul\":24209:24226   */\n      add\n        /* \"#utility.yul\":24202:24249   */\n      mstore\n        /* \"#utility.yul\":24266:24380   */\n      tag_552\n        /* \"#utility.yul\":24375:24379   */\n      dup2\n        /* \"#utility.yul\":24366:24372   */\n      dup5\n        /* \"#utility.yul\":24266:24380   */\n      tag_295\n      jump\t// in\n    tag_552:\n        /* \"#utility.yul\":24258:24380   */\n      swap1\n      pop\n        /* \"#utility.yul\":24002:24387   */\n      swap3\n      swap2\n      pop\n      pop\n      jump\t// out\n        /* \"#utility.yul\":24393:24562   */\n    tag_296:\n        /* \"#utility.yul\":24477:24488   */\n      0x00\n        /* \"#utility.yul\":24511:24517   */\n      dup3\n        /* \"#utility.yul\":24506:24509   */\n      dup3\n        /* \"#utility.yul\":24499:24518   */\n      mstore\n        /* \"#utility.yul\":24551:24555   */\n      0x20\n        /* \"#utility.yul\":24546:24549   */\n      dup3\n        /* \"#utility.yul\":24542:24556   */\n      add\n        /* \"#utility.yul\":24527:24556   */\n      swap1\n      pop\n        /* \"#utility.yul\":24393:24562   */\n      swap3\n      swap2\n      pop\n      pop\n      jump\t// out\n        /* \"#utility.yul\":24568:24805   */\n    tag_297:\n        /* \"#utility.yul\":24708:24742   */\n      0x4f6e6c792074686520636f6e7472616374206f776e65722063616e2070657266\n        /* \"#utility.yul\":24704:24705   */\n      0x00\n        /* \"#utility.yul\":24696:24702   */\n      dup3\n        /* \"#utility.yul\":24692:24706   */\n      add\n        /* \"#utility.yul\":24685:24743   */\n      mstore\n        /* \"#utility.yul\":24777:24797   */\n      0x6f726d2074686973206f7065726174696f6e0000000000000000000000000000\n        /* \"#utility.yul\":24772:24774   */\n      0x20\n        /* \"#utility.yul\":24764:24770   */\n      dup3\n        /* \"#utility.yul\":24760:24775   */\n      add\n        /* \"#utility.yul\":24753:24798   */\n      mstore\n        /* \"#utility.yul\":24568:24805   */\n      pop\n      jump\t// out\n        /* \"#utility.yul\":24811:25177   */\n    tag_298:\n        /* \"#utility.yul\":24953:24956   */\n      0x00\n        /* \"#utility.yul\":24974:25041   */\n      tag_556\n        /* \"#utility.yul\":25038:25040   */\n      0x32\n        /* \"#utility.yul\":25033:25036   */\n      dup4\n        /* \"#utility.yul\":24974:25041   */\n      tag_296\n      jump\t// in\n    tag_556:\n        /* \"#utility.yul\":24967:25041   */\n      swap2\n      pop\n        /* \"#utility.yul\":25050:25143   */\n      tag_557\n        /* \"#utility.yul\":25139:25142   */\n      dup3\n        /* \"#utility.yul\":25050:25143   */\n      tag_297\n      jump\t// in\n    tag_557:\n        /* \"#utility.yul\":25168:25170   */\n      0x40\n        /* \"#utility.yul\":25163:25166   */\n      dup3\n        /* \"#utility.yul\":25159:25171   */\n      add\n        /* \"#utility.yul\":25152:25171   */\n      swap1\n      pop\n        /* \"#utility.yul\":24811:25177   */\n      swap2\n      swap1\n      pop\n      jump\t// out\n        /* \"#utility.yul\":25183:25602   */\n    tag_70:\n        /* \"#utility.yul\":25349:25353   */\n      0x00\n        /* \"#utility.yul\":25387:25389   */\n      0x20\n        /* \"#utility.yul\":25376:25385   */\n      dup3\n        /* \"#utility.yul\":25372:25390   */\n      add\n        /* \"#utility.yul\":25364:25390   */\n      swap1\n      pop\n        /* \"#utility.yul\":25436:25445   */\n      dup2\n        /* \"#utility.yul\":25430:25434   */\n      dup2\n        /* \"#utility.yul\":25426:25446   */\n      sub\n        /* \"#utility.yul\":25422:25423   */\n      0x00\n        /* \"#utility.yul\":25411:25420   */\n      dup4\n        /* \"#utility.yul\":25407:25424   */\n      add\n        /* \"#utility.yul\":25400:25447   */\n      mstore\n        /* \"#utility.yul\":25464:25595   */\n      tag_559\n        /* \"#utility.yul\":25590:25594   */\n      dup2\n        /* \"#utility.yul\":25464:25595   */\n      tag_298\n      jump\t// in\n    tag_559:\n        /* \"#utility.yul\":25456:25595   */\n      swap1\n      pop\n        /* \"#utility.yul\":25183:25602   */\n      swap2\n      swap1\n      pop\n      jump\t// out\n        /* \"#utility.yul\":25608:25788   */\n    tag_299:\n        /* \"#utility.yul\":25656:25733   */\n      0x4e487b7100000000000000000000000000000000000000000000000000000000\n        /* \"#utility.yul\":25653:25654   */\n      0x00\n        /* \"#utility.yul\":25646:25734   */\n      mstore\n        /* \"#utility.yul\":25753:25757   */\n      0x22\n        /* \"#utility.yul\":25750:25751   */\n      0x04\n        /* \"#utility.yul\":25743:25758   */\n      mstore\n        /* \"#utility.yul\":25777:25781   */\n      0x24\n        /* \"#utility.yul\":25774:25775   */\n      0x00\n        /* \"#utility.yul\":25767:25782   */\n      revert\n        /* \"#utility.yul\":25794:26114   */\n    tag_120:\n        /* \"#utility.yul\":25838:25844   */\n      0x00\n        /* \"#utility.yul\":25875:25876   */\n      0x02\n        /* \"#utility.yul\":25869:25873   */\n      dup3\n        /* \"#utility.yul\":25865:25877   */\n      div\n        /* \"#utility.yul\":25855:25877   */\n      swap1\n      pop\n        /* \"#utility.yul\":25922:25923   */\n      0x01\n        /* \"#utility.yul\":25916:25920   */\n      dup3\n        /* \"#utility.yul\":25912:25924   */\n      and\n        /* \"#utility.yul\":25943:25961   */\n      dup1\n        /* \"#utility.yul\":25933:26014   */\n      tag_562\n      jumpi\n        /* \"#utility.yul\":25999:26003   */\n      0x7f\n        /* \"#utility.yul\":25991:25997   */\n      dup3\n        /* \"#utility.yul\":25987:26004   */\n      and\n        /* \"#utility.yul\":25977:26004   */\n      swap2\n      pop\n        /* \"#utility.yul\":25933:26014   */\n    tag_562:\n        /* \"#utility.yul\":26061:26063   */\n      0x20\n        /* \"#utility.yul\":26053:26059   */\n      dup3\n        /* \"#utility.yul\":26050:26064   */\n      lt\n        /* \"#utility.yul\":26030:26048   */\n      dup2\n        /* \"#utility.yul\":26027:26065   */\n      sub\n        /* \"#utility.yul\":26024:26108   */\n      tag_563\n      jumpi\n        /* \"#utility.yul\":26080:26098   */\n      tag_564\n      tag_299\n      jump\t// in\n    tag_564:\n        /* \"#utility.yul\":26024:26108   */\n    tag_563:\n        /* \"#utility.yul\":25845:26114   */\n      pop\n        /* \"#utility.yul\":25794:26114   */\n      swap2\n      swap1\n      pop\n      jump\t// out\n        /* \"#utility.yul\":26120:26261   */\n    tag_300:\n        /* \"#utility.yul\":26169:26173   */\n      0x00\n        /* \"#utility.yul\":26192:26195   */\n      dup2\n        /* \"#utility.yul\":26184:26195   */\n      swap1\n      pop\n        /* \"#utility.yul\":26215:26218   */\n      dup2\n        /* \"#utility.yul\":26212:26213   */\n      0x00\n        /* \"#utility.yul\":26205:26219   */\n      mstore\n        /* \"#utility.yul\":26249:26253   */\n      0x20\n        /* \"#utility.yul\":26246:26247   */\n      0x00\n        /* \"#utility.yul\":26236:26254   */\n      keccak256\n        /* \"#utility.yul\":26228:26254   */\n      swap1\n      pop\n        /* \"#utility.yul\":26120:26261   */\n      swap2\n      swap1\n      pop\n      jump\t// out\n        /* \"#utility.yul\":26267:26360   */\n    tag_301:\n        /* \"#utility.yul\":26304:26310   */\n      0x00\n        /* \"#utility.yul\":26351:26353   */\n      0x20\n        /* \"#utility.yul\":26346:26348   */\n      0x1f\n        /* \"#utility.yul\":26339:26344   */\n      dup4\n        /* \"#utility.yul\":26335:26349   */\n      add\n        /* \"#utility.yul\":26331:26354   */\n      div\n        /* \"#utility.yul\":26321:26354   */\n      swap1\n      pop\n        /* \"#utility.yul\":26267:26360   */\n      swap2\n      swap1\n      pop\n      jump\t// out\n        /* \"#utility.yul\":26366:26473   */\n    tag_302:\n        /* \"#utility.yul\":26410:26418   */\n      0x00\n        /* \"#utility.yul\":26460:26465   */\n      dup3\n        /* \"#utility.yul\":26454:26458   */\n      dup3\n        /* \"#utility.yul\":26450:26466   */\n      shl\n        /* \"#utility.yul\":26429:26466   */\n      swap1\n      pop\n        /* \"#utility.yul\":26366:26473   */\n      swap3\n      swap2\n      pop\n      pop\n      jump\t// out\n        /* \"#utility.yul\":26479:26872   */\n    tag_303:\n        /* \"#utility.yul\":26548:26554   */\n      0x00\n        /* \"#utility.yul\":26598:26599   */\n      0x08\n        /* \"#utility.yul\":26586:26596   */\n      dup4\n        /* \"#utility.yul\":26582:26600   */\n      mul\n        /* \"#utility.yul\":26621:26718   */\n      tag_569\n        /* \"#utility.yul\":26651:26717   */\n      0xffffffffffffffffffffffffffffffffffffffffffffffffffffffffffffffff\n        /* \"#utility.yul\":26640:26649   */\n      dup3\n        /* \"#utility.yul\":26621:26718   */\n      tag_302\n      jump\t// in\n    tag_569:\n        /* \"#utility.yul\":26739:26778   */\n      tag_570\n        /* \"#utility.yul\":26769:26777   */\n      dup7\n        /* \"#utility.yul\":26758:26767   */\n      dup4\n        /* \"#utility.yul\":26739:26778   */\n      tag_302\n      jump\t// in\n    tag_570:\n        /* \"#utility.yul\":26727:26778   */\n      swap6\n      pop\n        /* \"#utility.yul\":26811:26815   */\n      dup1\n        /* \"#utility.yul\":26807:26816   */\n      not\n        /* \"#utility.yul\":26800:26805   */\n      dup5\n        /* \"#utility.yul\":26796:26817   */\n      and\n        /* \"#utility.yul\":26787:26817   */\n      swap4\n      pop\n        /* \"#utility.yul\":26860:26864   */\n      dup1\n        /* \"#utility.yul\":26850:26858   */\n      dup7\n        /* \"#utility.yul\":26846:26865   */\n      and\n        /* \"#utility.yul\":26839:26844   */\n      dup5\n        /* \"#utility.yul\":26836:26866   */\n      or\n        /* \"#utility.yul\":26826:26866   */\n      swap3\n      pop\n        /* \"#utility.yul\":26555:26872   */\n      pop\n      pop\n        /* \"#utility.yul\":26479:26872   */\n      swap4\n      swap3\n      pop\n      pop\n      pop\n      jump\t// out\n        /* \"#utility.yul\":26878:26938   */\n    tag_304:\n        /* \"#utility.yul\":26906:26909   */\n      0x00\n        /* \"#utility.yul\":26927:26932   */\n      dup2\n        /* \"#utility.yul\":26920:26932   */\n      swap1\n      pop\n        /* \"#utility.yul\":26878:26938   */\n      swap2\n      swap1\n      pop\n      jump\t// out\n        /* \"#utility.yul\":26944:27086   */\n    tag_305:\n        /* \"#utility.yul\":26994:27003   */\n      0x00\n        /* \"#utility.yul\":27027:27080   */\n      tag_573\n        /* \"#utility.yul\":27045:27079   */\n      tag_574\n        /* \"#utility.yul\":27054:27078   */\n      tag_575\n        /* \"#utility.yul\":27072:27077   */\n      dup5\n        /* \"#utility.yul\":27054:27078   */\n      tag_242\n      jump\t// in\n    tag_575:\n        /* \"#utility.yul\":27045:27079   */\n      tag_304\n      jump\t// in\n    tag_574:\n        /* \"#utility.yul\":27027:27080   */\n      tag_242\n      jump\t// in\n    tag_573:\n        /* \"#utility.yul\":27014:27080   */\n      swap1\n      pop\n        /* \"#utility.yul\":26944:27086   */\n      swap2\n      swap1\n      pop\n      jump\t// out\n        /* \"#utility.yul\":27092:27167   */\n    tag_306:\n        /* \"#utility.yul\":27135:27138   */\n      0x00\n        /* \"#utility.yul\":27156:27161   */\n      dup2\n        /* \"#utility.yul\":27149:27161   */\n      swap1\n      pop\n        /* \"#utility.yul\":27092:27167   */\n      swap2\n      swap1\n      pop\n      jump\t// out\n        /* \"#utility.yul\":27173:27442   */\n    tag_307:\n        /* \"#utility.yul\":27283:27322   */\n      tag_578\n        /* \"#utility.yul\":27314:27321   */\n      dup4\n        /* \"#utility.yul\":27283:27322   */\n      tag_305\n      jump\t// in\n    tag_578:\n        /* \"#utility.yul\":27344:27435   */\n      tag_579\n        /* \"#utility.yul\":27393:27434   */\n      tag_580\n        /* \"#utility.yul\":27417:27433   */\n      dup3\n        /* \"#utility.yul\":27393:27434   */\n      tag_306\n      jump\t// in\n    tag_580:\n        /* \"#utility.yul\":27385:27391   */\n      dup5\n        /* \"#utility.yul\":27378:27382   */\n      dup5\n        /* \"#utility.yul\":27372:27383   */\n      sload\n        /* \"#utility.yul\":27344:27435   */\n      tag_303\n      jump\t// in\n    tag_579:\n        /* \"#utility.yul\":27338:27342   */\n      dup3\n        /* \"#utility.yul\":27331:27436   */\n      sstore\n        /* \"#utility.yul\":27249:27442   */\n      pop\n        /* \"#utility.yul\":27173:27442   */\n      pop\n      pop\n      pop\n      jump\t// out\n        /* \"#utility.yul\":27448:27521   */\n    tag_308:\n        /* \"#utility.yul\":27493:27496   */\n      0x00\n        /* \"#utility.yul\":27448:27521   */\n      swap1\n      jump\t// out\n        /* \"#utility.yul\":27527:27716   */\n    tag_309:\n        /* \"#utility.yul\":27604:27636   */\n      tag_583\n      tag_308\n      jump\t// in\n    tag_583:\n        /* \"#utility.yul\":27645:27710   */\n      tag_584\n        /* \"#utility.yul\":27703:27709   */\n      dup2\n        /* \"#utility.yul\":27695:27701   */\n      dup5\n        /* \"#utility.yul\":27689:27693   */\n      dup5\n        /* \"#utility.yul\":27645:27710   */\n      tag_307\n      jump\t// in\n    tag_584:\n        /* \"#utility.yul\":27580:27716   */\n      pop\n        /* \"#utility.yul\":27527:27716   */\n      pop\n      pop\n      jump\t// out\n        /* \"#utility.yul\":27722:27908   */\n    tag_310:\n        /* \"#utility.yul\":27782:27902   */\n    tag_586:\n        /* \"#utility.yul\":27799:27802   */\n      dup2\n        /* \"#utility.yul\":27792:27797   */\n      dup2\n        /* \"#utility.yul\":27789:27803   */\n      lt\n        /* \"#utility.yul\":27782:27902   */\n      iszero\n      tag_588\n      jumpi\n        /* \"#utility.yul\":27853:27892   */\n      tag_589\n        /* \"#utility.yul\":27890:27891   */\n      0x00\n        /* \"#utility.yul\":27883:27888   */\n      dup3\n        /* \"#utility.yul\":27853:27892   */\n      tag_309\n      jump\t// in\n    tag_589:\n        /* \"#utility.yul\":27826:27827   */\n      0x01\n        /* \"#utility.yul\":27819:27824   */\n      dup2\n        /* \"#utility.yul\":27815:27828   */\n      add\n        /* \"#utility.yul\":27806:27828   */\n      swap1\n      pop\n        /* \"#utility.yul\":27782:27902   */\n      jump(tag_586)\n    tag_588:\n        /* \"#utility.yul\":27722:27908   */\n      pop\n      pop\n      jump\t// out\n        /* \"#utility.yul\":27914:28457   */\n    tag_311:\n        /* \"#utility.yul\":28015:28017   */\n      0x1f\n        /* \"#utility.yul\":28010:28013   */\n      dup3\n        /* \"#utility.yul\":28007:28018   */\n      gt\n        /* \"#utility.yul\":28004:28450   */\n      iszero\n      tag_591\n      jumpi\n        /* \"#utility.yul\":28049:28087   */\n      tag_592\n        /* \"#utility.yul\":28081:28086   */\n      dup2\n        /* \"#utility.yul\":28049:28087   */\n      tag_300\n      jump\t// in\n    tag_592:\n        /* \"#utility.yul\":28133:28162   */\n      tag_593\n        /* \"#utility.yul\":28151:28161   */\n      dup5\n        /* \"#utility.yul\":28133:28162   */\n      tag_301\n      jump\t// in\n    tag_593:\n        /* \"#utility.yul\":28123:28131   */\n      dup2\n        /* \"#utility.yul\":28119:28163   */\n      add\n        /* \"#utility.yul\":28316:28318   */\n      0x20\n        /* \"#utility.yul\":28304:28314   */\n      dup6\n        /* \"#utility.yul\":28301:28319   */\n      lt\n        /* \"#utility.yul\":28298:28347   */\n      iszero\n      tag_594\n      jumpi\n        /* \"#utility.yul\":28337:28345   */\n      dup2\n        /* \"#utility.yul\":28322:28345   */\n      swap1\n      pop\n        /* \"#utility.yul\":28298:28347   */\n    tag_594:\n        /* \"#utility.yul\":28360:28440   */\n      tag_595\n        /* \"#utility.yul\":28416:28438   */\n      tag_596\n        /* \"#utility.yul\":28434:28437   */\n      dup6\n        /* \"#utility.yul\":28416:28438   */\n      tag_301\n      jump\t// in\n    tag_596:\n        /* \"#utility.yul\":28406:28414   */\n      dup4\n        /* \"#utility.yul\":28402:28439   */\n      add\n        /* \"#utility.yul\":28389:28400   */\n      dup3\n        /* \"#utility.yul\":28360:28440   */\n      tag_310\n      jump\t// in\n    tag_595:\n        /* \"#utility.yul\":28019:28450   */\n      pop\n      pop\n        /* \"#utility.yul\":28004:28450   */\n    tag_591:\n        /* \"#utility.yul\":27914:28457   */\n      pop\n      pop\n      pop\n      jump\t// out\n        /* \"#utility.yul\":28463:28580   */\n    tag_312:\n        /* \"#utility.yul\":28517:28525   */\n      0x00\n        /* \"#utility.yul\":28567:28572   */\n      dup3\n        /* \"#utility.yul\":28561:28565   */\n      dup3\n        /* \"#utility.yul\":28557:28573   */\n      shr\n        /* \"#utility.yul\":28536:28573   */\n      swap1\n      pop\n        /* \"#utility.yul\":28463:28580   */\n      swap3\n      swap2\n      pop\n      pop\n      jump\t// out\n        /* \"#utility.yul\":28586:28755   */\n    tag_313:\n        /* \"#utility.yul\":28630:28636   */\n      0x00\n        /* \"#utility.yul\":28663:28714   */\n      tag_599\n        /* \"#utility.yul\":28711:28712   */\n      0x00\n        /* \"#utility.yul\":28707:28713   */\n      not\n        /* \"#utility.yul\":28699:28704   */\n      dup5\n        /* \"#utility.yul\":28696:28697   */\n      0x08\n        /* \"#utility.yul\":28692:28705   */\n      mul\n        /* \"#utility.yul\":28663:28714   */\n      tag_312\n      jump\t// in\n    tag_599:\n        /* \"#utility.yul\":28659:28715   */\n      not\n        /* \"#utility.yul\":28744:28748   */\n      dup1\n        /* \"#utility.yul\":28738:28742   */\n      dup4\n        /* \"#utility.yul\":28734:28749   */\n      and\n        /* \"#utility.yul\":28724:28749   */\n      swap2\n      pop\n        /* \"#utility.yul\":28637:28755   */\n      pop\n        /* \"#utility.yul\":28586:28755   */\n      swap3\n      swap2\n      pop\n      pop\n      jump\t// out\n        /* \"#utility.yul\":28760:29055   */\n    tag_314:\n        /* \"#utility.yul\":28836:28840   */\n      0x00\n        /* \"#utility.yul\":28982:29011   */\n      tag_601\n        /* \"#utility.yul\":29007:29010   */\n      dup4\n        /* \"#utility.yul\":29001:29005   */\n      dup4\n        /* \"#utility.yul\":28982:29011   */\n      tag_313\n      jump\t// in\n    tag_601:\n        /* \"#utility.yul\":28974:29011   */\n      swap2\n      pop\n        /* \"#utility.yul\":29044:29047   */\n      dup3\n        /* \"#utility.yul\":29041:29042   */\n      0x02\n        /* \"#utility.yul\":29037:29048   */\n      mul\n        /* \"#utility.yul\":29031:29035   */\n      dup3\n        /* \"#utility.yul\":29028:29049   */\n      or\n        /* \"#utility.yul\":29020:29049   */\n      swap1\n      pop\n        /* \"#utility.yul\":28760:29055   */\n      swap3\n      swap2\n      pop\n      pop\n      jump\t// out\n        /* \"#utility.yul\":29060:30455   */\n    tag_73:\n        /* \"#utility.yul\":29177:29214   */\n      tag_603\n        /* \"#utility.yul\":29210:29213   */\n      dup3\n        /* \"#utility.yul\":29177:29214   */\n      tag_271\n      jump\t// in\n    tag_603:\n        /* \"#utility.yul\":29279:29297   */\n      0xffffffffffffffff\n        /* \"#utility.yul\":29271:29277   */\n      dup2\n        /* \"#utility.yul\":29268:29298   */\n      gt\n        /* \"#utility.yul\":29265:29321   */\n      iszero\n      tag_604\n      jumpi\n        /* \"#utility.yul\":29301:29319   */\n      tag_605\n      tag_132\n      jump\t// in\n    tag_605:\n        /* \"#utility.yul\":29265:29321   */\n    tag_604:\n        /* \"#utility.yul\":29345:29383   */\n      tag_606\n        /* \"#utility.yul\":29377:29381   */\n      dup3\n        /* \"#utility.yul\":29371:29382   */\n      sload\n        /* \"#utility.yul\":29345:29383   */\n      tag_120\n      jump\t// in\n    tag_606:\n        /* \"#utility.yul\":29430:29497   */\n      tag_607\n        /* \"#utility.yul\":29490:29496   */\n      dup3\n        /* \"#utility.yul\":29482:29488   */\n      dup3\n        /* \"#utility.yul\":29476:29480   */\n      dup6\n        /* \"#utility.yul\":29430:29497   */\n      tag_311\n      jump\t// in\n    tag_607:\n        /* \"#utility.yul\":29524:29525   */\n      0x00\n        /* \"#utility.yul\":29548:29552   */\n      0x20\n        /* \"#utility.yul\":29535:29552   */\n      swap1\n      pop\n        /* \"#utility.yul\":29580:29582   */\n      0x1f\n        /* \"#utility.yul\":29572:29578   */\n      dup4\n        /* \"#utility.yul\":29569:29583   */\n      gt\n        /* \"#utility.yul\":29597:29598   */\n      0x01\n        /* \"#utility.yul\":29592:30210   */\n      dup2\n      eq\n      tag_609\n      jumpi\n        /* \"#utility.yul\":30254:30255   */\n      0x00\n        /* \"#utility.yul\":30271:30277   */\n      dup5\n        /* \"#utility.yul\":30268:30345   */\n      iszero\n      tag_610\n      jumpi\n        /* \"#utility.yul\":30320:30329   */\n      dup3\n        /* \"#utility.yul\":30315:30318   */\n      dup8\n        /* \"#utility.yul\":30311:30330   */\n      add\n        /* \"#utility.yul\":30305:30331   */\n      mload\n        /* \"#utility.yul\":30296:30331   */\n      swap1\n      pop\n        /* \"#utility.yul\":30268:30345   */\n    tag_610:\n        /* \"#utility.yul\":30371:30438   */\n      tag_611\n        /* \"#utility.yul\":30431:30437   */\n      dup6\n        /* \"#utility.yul\":30424:30429   */\n      dup3\n        /* \"#utility.yul\":30371:30438   */\n      tag_314\n      jump\t// in\n    tag_611:\n        /* \"#utility.yul\":30365:30369   */\n      dup7\n        /* \"#utility.yul\":30358:30439   */\n      sstore\n        /* \"#utility.yul\":30227:30449   */\n      pop\n        /* \"#utility.yul\":29562:30449   */\n      jump(tag_608)\n        /* \"#utility.yul\":29592:30210   */\n    tag_609:\n        /* \"#utility.yul\":29644:29648   */\n      0x1f\n        /* \"#utility.yul\":29640:29649   */\n      not\n        /* \"#utility.yul\":29632:29638   */\n      dup5\n        /* \"#utility.yul\":29628:29650   */\n      and\n        /* \"#utility.yul\":29678:29715   */\n      tag_612\n        /* \"#utility.yul\":29710:29714   */\n      dup7\n        /* \"#utility.yul\":29678:29715   */\n      tag_300\n      jump\t// in\n    tag_612:\n        /* \"#utility.yul\":29737:29738   */\n      0x00\n        /* \"#utility.yul\":29751:29959   */\n    tag_613:\n        /* \"#utility.yul\":29765:29772   */\n      dup3\n        /* \"#utility.yul\":29762:29763   */\n      dup2\n        /* \"#utility.yul\":29759:29773   */\n      lt\n        /* \"#utility.yul\":29751:29959   */\n      iszero\n      tag_615\n      jumpi\n        /* \"#utility.yul\":29844:29853   */\n      dup5\n        /* \"#utility.yul\":29839:29842   */\n      dup10\n        /* \"#utility.yul\":29835:29854   */\n      add\n        /* \"#utility.yul\":29829:29855   */\n      mload\n        /* \"#utility.yul\":29821:29827   */\n      dup3\n        /* \"#utility.yul\":29814:29856   */\n      sstore\n        /* \"#utility.yul\":29895:29896   */\n      0x01\n        /* \"#utility.yul\":29887:29893   */\n      dup3\n        /* \"#utility.yul\":29883:29897   */\n      add\n        /* \"#utility.yul\":29873:29897   */\n      swap2\n      pop\n        /* \"#utility.yul\":29942:29944   */\n      0x20\n        /* \"#utility.yul\":29931:29940   */\n      dup6\n        /* \"#utility.yul\":29927:29945   */\n      add\n        /* \"#utility.yul\":29914:29945   */\n      swap5\n      pop\n        /* \"#utility.yul\":29788:29792   */\n      0x20\n        /* \"#utility.yul\":29785:29786   */\n      dup2\n        /* \"#utility.yul\":29781:29793   */\n      add\n        /* \"#utility.yul\":29776:29793   */\n      swap1\n      pop\n        /* \"#utility.yul\":29751:29959   */\n      jump(tag_613)\n    tag_615:\n        /* \"#utility.yul\":29987:29993   */\n      dup7\n        /* \"#utility.yul\":29978:29985   */\n      dup4\n        /* \"#utility.yul\":29975:29994   */\n      lt\n        /* \"#utility.yul\":29972:30151   */\n      iszero\n      tag_616\n      jumpi\n        /* \"#utility.yul\":30045:30054   */\n      dup5\n        /* \"#utility.yul\":30040:30043   */\n      dup10\n        /* \"#utility.yul\":30036:30055   */\n      add\n        /* \"#utility.yul\":30030:30056   */\n      mload\n        /* \"#utility.yul\":30088:30136   */\n      tag_617\n        /* \"#utility.yul\":30130:30134   */\n      0x1f\n        /* \"#utility.yul\":30122:30128   */\n      dup10\n        /* \"#utility.yul\":30118:30135   */\n      and\n        /* \"#utility.yul\":30107:30116   */\n      dup3\n        /* \"#utility.yul\":30088:30136   */\n      tag_313\n      jump\t// in\n    tag_617:\n        /* \"#utility.yul\":30080:30086   */\n      dup4\n        /* \"#utility.yul\":30073:30137   */\n      sstore\n        /* \"#utility.yul\":29995:30151   */\n      pop\n        /* \"#utility.yul\":29972:30151   */\n    tag_616:\n        /* \"#utility.yul\":30197:30198   */\n      0x01\n        /* \"#utility.yul\":30193:30194   */\n      0x02\n        /* \"#utility.yul\":30185:30191   */\n      dup9\n        /* \"#utility.yul\":30181:30195   */\n      mul\n        /* \"#utility.yul\":30177:30199   */\n      add\n        /* \"#utility.yul\":30171:30175   */\n      dup9\n        /* \"#utility.yul\":30164:30200   */\n      sstore\n        /* \"#utility.yul\":29599:30210   */\n      pop\n      pop\n      pop\n        /* \"#utility.yul\":29562:30449   */\n    tag_608:\n      pop\n        /* \"#utility.yul\":29152:30455   */\n      pop\n      pop\n      pop\n        /* \"#utility.yul\":29060:30455   */\n      pop\n      pop\n      jump\t// out\n        /* \"#utility.yul\":30461:30641   */\n    tag_315:\n        /* \"#utility.yul\":30509:30586   */\n      0x4e487b7100000000000000000000000000000000000000000000000000000000\n        /* \"#utility.yul\":30506:30507   */\n      0x00\n        /* \"#utility.yul\":30499:30587   */\n      mstore\n        /* \"#utility.yul\":30606:30610   */\n      0x11\n        /* \"#utility.yul\":30603:30604   */\n      0x04\n        /* \"#utility.yul\":30596:30611   */\n      mstore\n        /* \"#utility.yul\":30630:30634   */\n      0x24\n        /* \"#utility.yul\":30627:30628   */\n      0x00\n        /* \"#utility.yul\":30620:30635   */\n      revert\n        /* \"#utility.yul\":30647:30880   */\n    tag_79:\n        /* \"#utility.yul\":30686:30689   */\n      0x00\n        /* \"#utility.yul\":30709:30733   */\n      tag_620\n        /* \"#utility.yul\":30727:30732   */\n      dup3\n        /* \"#utility.yul\":30709:30733   */\n      tag_242\n      jump\t// in\n    tag_620:\n        /* \"#utility.yul\":30700:30733   */\n      swap2\n      pop\n        /* \"#utility.yul\":30755:30821   */\n      0xffffffffffffffffffffffffffffffffffffffffffffffffffffffffffffffff\n        /* \"#utility.yul\":30748:30753   */\n      dup3\n        /* \"#utility.yul\":30745:30822   */\n      sub\n        /* \"#utility.yul\":30742:30845   */\n      tag_621\n      jumpi\n        /* \"#utility.yul\":30825:30843   */\n      tag_622\n      tag_315\n      jump\t// in\n    tag_622:\n        /* \"#utility.yul\":30742:30845   */\n    tag_621:\n        /* \"#utility.yul\":30872:30873   */\n      0x01\n        /* \"#utility.yul\":30865:30870   */\n      dup3\n        /* \"#utility.yul\":30861:30874   */\n      add\n        /* \"#utility.yul\":30854:30874   */\n      swap1\n      pop\n        /* \"#utility.yul\":30647:30880   */\n      swap2\n      swap1\n      pop\n      jump\t// out\n        /* \"#utility.yul\":30886:31064   */\n    tag_316:\n        /* \"#utility.yul\":31026:31056   */\n      0x506572736f6e616c4461746120646f6573206e6f742065786973742e00000000\n        /* \"#utility.yul\":31022:31023   */\n      0x00\n        /* \"#utility.yul\":31014:31020   */\n      dup3\n        /* \"#utility.yul\":31010:31024   */\n      add\n        /* \"#utility.yul\":31003:31057   */\n      mstore\n        /* \"#utility.yul\":30886:31064   */\n      pop\n      jump\t// out\n        /* \"#utility.yul\":31070:31436   */\n    tag_317:\n        /* \"#utility.yul\":31212:31215   */\n      0x00\n        /* \"#utility.yul\":31233:31300   */\n      tag_625\n        /* \"#utility.yul\":31297:31299   */\n      0x1c\n        /* \"#utility.yul\":31292:31295   */\n      dup4\n        /* \"#utility.yul\":31233:31300   */\n      tag_296\n      jump\t// in\n    tag_625:\n        /* \"#utility.yul\":31226:31300   */\n      swap2\n      pop\n        /* \"#utility.yul\":31309:31402   */\n      tag_626\n        /* \"#utility.yul\":31398:31401   */\n      dup3\n        /* \"#utility.yul\":31309:31402   */\n      tag_316\n      jump\t// in\n    tag_626:\n        /* \"#utility.yul\":31427:31429   */\n      0x20\n        /* \"#utility.yul\":31422:31425   */\n      dup3\n        /* \"#utility.yul\":31418:31430   */\n      add\n        /* \"#utility.yul\":31411:31430   */\n      swap1\n      pop\n        /* \"#utility.yul\":31070:31436   */\n      swap2\n      swap1\n      pop\n      jump\t// out\n        /* \"#utility.yul\":31442:31861   */\n    tag_89:\n        /* \"#utility.yul\":31608:31612   */\n      0x00\n        /* \"#utility.yul\":31646:31648   */\n      0x20\n        /* \"#utility.yul\":31635:31644   */\n      dup3\n        /* \"#utility.yul\":31631:31649   */\n      add\n        /* \"#utility.yul\":31623:31649   */\n      swap1\n      pop\n        /* \"#utility.yul\":31695:31704   */\n      dup2\n        /* \"#utility.yul\":31689:31693   */\n      dup2\n        /* \"#utility.yul\":31685:31705   */\n      sub\n        /* \"#utility.yul\":31681:31682   */\n      0x00\n        /* \"#utility.yul\":31670:31679   */\n      dup4\n        /* \"#utility.yul\":31666:31683   */\n      add\n        /* \"#utility.yul\":31659:31706   */\n      mstore\n        /* \"#utility.yul\":31723:31854   */\n      tag_628\n        /* \"#utility.yul\":31849:31853   */\n      dup2\n        /* \"#utility.yul\":31723:31854   */\n      tag_317\n      jump\t// in\n    tag_628:\n        /* \"#utility.yul\":31715:31854   */\n      swap1\n      pop\n        /* \"#utility.yul\":31442:31861   */\n      swap2\n      swap1\n      pop\n      jump\t// out\n        /* \"#utility.yul\":31867:32015   */\n    tag_318:\n        /* \"#utility.yul\":31969:31980   */\n      0x00\n        /* \"#utility.yul\":32006:32009   */\n      dup2\n        /* \"#utility.yul\":31991:32009   */\n      swap1\n      pop\n        /* \"#utility.yul\":31867:32015   */\n      swap3\n      swap2\n      pop\n      pop\n      jump\t// out\n        /* \"#utility.yul\":32045:32919   */\n    tag_319:\n        /* \"#utility.yul\":32148:32151   */\n      0x00\n        /* \"#utility.yul\":32185:32190   */\n      dup2\n        /* \"#utility.yul\":32179:32191   */\n      sload\n        /* \"#utility.yul\":32214:32250   */\n      tag_631\n        /* \"#utility.yul\":32240:32249   */\n      dup2\n        /* \"#utility.yul\":32214:32250   */\n      tag_120\n      jump\t// in\n    tag_631:\n        /* \"#utility.yul\":32266:32355   */\n      tag_632\n        /* \"#utility.yul\":32348:32354   */\n      dup2\n        /* \"#utility.yul\":32343:32346   */\n      dup7\n        /* \"#utility.yul\":32266:32355   */\n      tag_318\n      jump\t// in\n    tag_632:\n        /* \"#utility.yul\":32259:32355   */\n      swap5\n      pop\n        /* \"#utility.yul\":32386:32387   */\n      0x01\n        /* \"#utility.yul\":32375:32384   */\n      dup3\n        /* \"#utility.yul\":32371:32388   */\n      and\n        /* \"#utility.yul\":32402:32403   */\n      0x00\n        /* \"#utility.yul\":32397:32563   */\n      dup2\n      eq\n      tag_634\n      jumpi\n        /* \"#utility.yul\":32577:32578   */\n      0x01\n        /* \"#utility.yul\":32572:32913   */\n      dup2\n      eq\n      tag_635\n      jumpi\n        /* \"#utility.yul\":32364:32913   */\n      jump(tag_633)\n        /* \"#utility.yul\":32397:32563   */\n    tag_634:\n        /* \"#utility.yul\":32481:32485   */\n      0xff\n        /* \"#utility.yul\":32477:32486   */\n      not\n        /* \"#utility.yul\":32466:32475   */\n      dup4\n        /* \"#utility.yul\":32462:32487   */\n      and\n        /* \"#utility.yul\":32457:32460   */\n      dup7\n        /* \"#utility.yul\":32450:32488   */\n      mstore\n        /* \"#utility.yul\":32543:32549   */\n      dup2\n        /* \"#utility.yul\":32536:32550   */\n      iszero\n        /* \"#utility.yul\":32529:32551   */\n      iszero\n        /* \"#utility.yul\":32521:32527   */\n      dup3\n        /* \"#utility.yul\":32517:32552   */\n      mul\n        /* \"#utility.yul\":32512:32515   */\n      dup7\n        /* \"#utility.yul\":32508:32553   */\n      add\n        /* \"#utility.yul\":32501:32553   */\n      swap4\n      pop\n        /* \"#utility.yul\":32397:32563   */\n      jump(tag_633)\n        /* \"#utility.yul\":32572:32913   */\n    tag_635:\n        /* \"#utility.yul\":32639:32677   */\n      tag_636\n        /* \"#utility.yul\":32671:32676   */\n      dup6\n        /* \"#utility.yul\":32639:32677   */\n      tag_300\n      jump\t// in\n    tag_636:\n        /* \"#utility.yul\":32699:32700   */\n      0x00\n        /* \"#utility.yul\":32713:32867   */\n    tag_637:\n        /* \"#utility.yul\":32727:32733   */\n      dup4\n        /* \"#utility.yul\":32724:32725   */\n      dup2\n        /* \"#utility.yul\":32721:32734   */\n      lt\n        /* \"#utility.yul\":32713:32867   */\n      iszero\n      tag_639\n      jumpi\n        /* \"#utility.yul\":32801:32808   */\n      dup2\n        /* \"#utility.yul\":32795:32809   */\n      sload\n        /* \"#utility.yul\":32791:32792   */\n      dup2\n        /* \"#utility.yul\":32786:32789   */\n      dup10\n        /* \"#utility.yul\":32782:32793   */\n      add\n        /* \"#utility.yul\":32775:32810   */\n      mstore\n        /* \"#utility.yul\":32851:32852   */\n      0x01\n        /* \"#utility.yul\":32842:32849   */\n      dup3\n        /* \"#utility.yul\":32838:32853   */\n      add\n        /* \"#utility.yul\":32827:32853   */\n      swap2\n      pop\n        /* \"#utility.yul\":32749:32753   */\n      0x20\n        /* \"#utility.yul\":32746:32747   */\n      dup2\n        /* \"#utility.yul\":32742:32754   */\n      add\n        /* \"#utility.yul\":32737:32754   */\n      swap1\n      pop\n        /* \"#utility.yul\":32713:32867   */\n      jump(tag_637)\n    tag_639:\n        /* \"#utility.yul\":32896:32902   */\n      dup4\n        /* \"#utility.yul\":32891:32894   */\n      dup9\n        /* \"#utility.yul\":32887:32903   */\n      add\n        /* \"#utility.yul\":32880:32903   */\n      swap6\n      pop\n        /* \"#utility.yul\":32579:32913   */\n      pop\n      pop\n        /* \"#utility.yul\":32364:32913   */\n    tag_633:\n      pop\n        /* \"#utility.yul\":32152:32919   */\n      pop\n      pop\n        /* \"#utility.yul\":32045:32919   */\n      swap3\n      swap2\n      pop\n      pop\n      jump\t// out\n        /* \"#utility.yul\":32925:33502   */\n    tag_91:\n        /* \"#utility.yul\":33144:33147   */\n      0x00\n        /* \"#utility.yul\":33166:33258   */\n      tag_641\n        /* \"#utility.yul\":33254:33257   */\n      dup3\n        /* \"#utility.yul\":33245:33251   */\n      dup7\n        /* \"#utility.yul\":33166:33258   */\n      tag_319\n      jump\t// in\n    tag_641:\n        /* \"#utility.yul\":33159:33258   */\n      swap2\n      pop\n        /* \"#utility.yul\":33275:33367   */\n      tag_642\n        /* \"#utility.yul\":33363:33366   */\n      dup3\n        /* \"#utility.yul\":33354:33360   */\n      dup6\n        /* \"#utility.yul\":33275:33367   */\n      tag_319\n      jump\t// in\n    tag_642:\n        /* \"#utility.yul\":33268:33367   */\n      swap2\n      pop\n        /* \"#utility.yul\":33384:33476   */\n      tag_643\n        /* \"#utility.yul\":33472:33475   */\n      dup3\n        /* \"#utility.yul\":33463:33469   */\n      dup5\n        /* \"#utility.yul\":33384:33476   */\n      tag_319\n      jump\t// in\n    tag_643:\n        /* \"#utility.yul\":33377:33476   */\n      swap2\n      pop\n        /* \"#utility.yul\":33493:33496   */\n      dup2\n        /* \"#utility.yul\":33486:33496   */\n      swap1\n      pop\n        /* \"#utility.yul\":32925:33502   */\n      swap5\n      swap4\n      pop\n      pop\n      pop\n      pop\n      jump\t// out\n        /* \"#utility.yul\":33508:33688   */\n    tag_97:\n        /* \"#utility.yul\":33556:33633   */\n      0x4e487b7100000000000000000000000000000000000000000000000000000000\n        /* \"#utility.yul\":33553:33554   */\n      0x00\n        /* \"#utility.yul\":33546:33634   */\n      mstore\n        /* \"#utility.yul\":33653:33657   */\n      0x32\n        /* \"#utility.yul\":33650:33651   */\n      0x04\n        /* \"#utility.yul\":33643:33658   */\n      mstore\n        /* \"#utility.yul\":33677:33681   */\n      0x24\n        /* \"#utility.yul\":33674:33675   */\n      0x00\n        /* \"#utility.yul\":33667:33682   */\n      revert\n        /* \"#utility.yul\":33694:33792   */\n    tag_320:\n        /* \"#utility.yul\":33745:33751   */\n      0x00\n        /* \"#utility.yul\":33779:33784   */\n      dup2\n        /* \"#utility.yul\":33773:33785   */\n      mload\n        /* \"#utility.yul\":33763:33785   */\n      swap1\n      pop\n        /* \"#utility.yul\":33694:33792   */\n      swap2\n      swap1\n      pop\n      jump\t// out\n        /* \"#utility.yul\":33798:33945   */\n    tag_321:\n        /* \"#utility.yul\":33899:33910   */\n      0x00\n        /* \"#utility.yul\":33936:33939   */\n      dup2\n        /* \"#utility.yul\":33921:33939   */\n      swap1\n      pop\n        /* \"#utility.yul\":33798:33945   */\n      swap3\n      swap2\n      pop\n      pop\n      jump\t// out\n        /* \"#utility.yul\":33951:34337   */\n    tag_322:\n        /* \"#utility.yul\":34055:34058   */\n      0x00\n        /* \"#utility.yul\":34083:34121   */\n      tag_648\n        /* \"#utility.yul\":34115:34120   */\n      dup3\n        /* \"#utility.yul\":34083:34121   */\n      tag_320\n      jump\t// in\n    tag_648:\n        /* \"#utility.yul\":34137:34225   */\n      tag_649\n        /* \"#utility.yul\":34218:34224   */\n      dup2\n        /* \"#utility.yul\":34213:34216   */\n      dup6\n        /* \"#utility.yul\":34137:34225   */\n      tag_321\n      jump\t// in\n    tag_649:\n        /* \"#utility.yul\":34130:34225   */\n      swap4\n      pop\n        /* \"#utility.yul\":34234:34299   */\n      tag_650\n        /* \"#utility.yul\":34292:34298   */\n      dup2\n        /* \"#utility.yul\":34287:34290   */\n      dup6\n        /* \"#utility.yul\":34280:34284   */\n      0x20\n        /* \"#utility.yul\":34273:34278   */\n      dup7\n        /* \"#utility.yul\":34269:34285   */\n      add\n        /* \"#utility.yul\":34234:34299   */\n      tag_273\n      jump\t// in\n    tag_650:\n        /* \"#utility.yul\":34324:34330   */\n      dup1\n        /* \"#utility.yul\":34319:34322   */\n      dup5\n        /* \"#utility.yul\":34315:34331   */\n      add\n        /* \"#utility.yul\":34308:34331   */\n      swap2\n      pop\n        /* \"#utility.yul\":34059:34337   */\n      pop\n        /* \"#utility.yul\":33951:34337   */\n      swap3\n      swap2\n      pop\n      pop\n      jump\t// out\n        /* \"#utility.yul\":34343:34768   */\n    tag_100:\n        /* \"#utility.yul\":34518:34521   */\n      0x00\n        /* \"#utility.yul\":34540:34633   */\n      tag_652\n        /* \"#utility.yul\":34629:34632   */\n      dup3\n        /* \"#utility.yul\":34620:34626   */\n      dup6\n        /* \"#utility.yul\":34540:34633   */\n      tag_322\n      jump\t// in\n    tag_652:\n        /* \"#utility.yul\":34533:34633   */\n      swap2\n      pop\n        /* \"#utility.yul\":34650:34742   */\n      tag_653\n        /* \"#utility.yul\":34738:34741   */\n      dup3\n        /* \"#utility.yul\":34729:34735   */\n      dup5\n        /* \"#utility.yul\":34650:34742   */\n      tag_319\n      jump\t// in\n    tag_653:\n        /* \"#utility.yul\":34643:34742   */\n      swap2\n      pop\n        /* \"#utility.yul\":34759:34762   */\n      dup2\n        /* \"#utility.yul\":34752:34762   */\n      swap1\n      pop\n        /* \"#utility.yul\":34343:34768   */\n      swap4\n      swap3\n      pop\n      pop\n      pop\n      jump\t// out\n        /* \"#utility.yul\":34774:34998   */\n    tag_323:\n        /* \"#utility.yul\":34914:34948   */\n      0x50726f636573736564506572736f6e616c4461746120646f6573206e6f742065\n        /* \"#utility.yul\":34910:34911   */\n      0x00\n        /* \"#utility.yul\":34902:34908   */\n      dup3\n        /* \"#utility.yul\":34898:34912   */\n      add\n        /* \"#utility.yul\":34891:34949   */\n      mstore\n        /* \"#utility.yul\":34983:34990   */\n      0x786973742e000000000000000000000000000000000000000000000000000000\n        /* \"#utility.yul\":34978:34980   */\n      0x20\n        /* \"#utility.yul\":34970:34976   */\n      dup3\n        /* \"#utility.yul\":34966:34981   */\n      add\n        /* \"#utility.yul\":34959:34991   */\n      mstore\n        /* \"#utility.yul\":34774:34998   */\n      pop\n      jump\t// out\n        /* \"#utility.yul\":35004:35370   */\n    tag_324:\n        /* \"#utility.yul\":35146:35149   */\n      0x00\n        /* \"#utility.yul\":35167:35234   */\n      tag_656\n        /* \"#utility.yul\":35231:35233   */\n      0x25\n        /* \"#utility.yul\":35226:35229   */\n      dup4\n        /* \"#utility.yul\":35167:35234   */\n      tag_296\n      jump\t// in\n    tag_656:\n        /* \"#utility.yul\":35160:35234   */\n      swap2\n      pop\n        /* \"#utility.yul\":35243:35336   */\n      tag_657\n        /* \"#utility.yul\":35332:35335   */\n      dup3\n        /* \"#utility.yul\":35243:35336   */\n      tag_323\n      jump\t// in\n    tag_657:\n        /* \"#utility.yul\":35361:35363   */\n      0x40\n        /* \"#utility.yul\":35356:35359   */\n      dup3\n        /* \"#utility.yul\":35352:35364   */\n      add\n        /* \"#utility.yul\":35345:35364   */\n      swap1\n      pop\n        /* \"#utility.yul\":35004:35370   */\n      swap2\n      swap1\n      pop\n      jump\t// out\n        /* \"#utility.yul\":35376:35795   */\n    tag_112:\n        /* \"#utility.yul\":35542:35546   */\n      0x00\n        /* \"#utility.yul\":35580:35582   */\n      0x20\n        /* \"#utility.yul\":35569:35578   */\n      dup3\n        /* \"#utility.yul\":35565:35583   */\n      add\n        /* \"#utility.yul\":35557:35583   */\n      swap1\n      pop\n        /* \"#utility.yul\":35629:35638   */\n      dup2\n        /* \"#utility.yul\":35623:35627   */\n      dup2\n        /* \"#utility.yul\":35619:35639   */\n      sub\n        /* \"#utility.yul\":35615:35616   */\n      0x00\n        /* \"#utility.yul\":35604:35613   */\n      dup4\n        /* \"#utility.yul\":35600:35617   */\n      add\n        /* \"#utility.yul\":35593:35640   */\n      mstore\n        /* \"#utility.yul\":35657:35788   */\n      tag_659\n        /* \"#utility.yul\":35783:35787   */\n      dup2\n        /* \"#utility.yul\":35657:35788   */\n      tag_324\n      jump\t// in\n    tag_659:\n        /* \"#utility.yul\":35649:35788   */\n      swap1\n      pop\n        /* \"#utility.yul\":35376:35795   */\n      swap2\n      swap1\n      pop\n      jump\t// out\n        /* \"#utility.yul\":35801:35972   */\n    tag_325:\n        /* \"#utility.yul\":35941:35964   */\n      0x4163746f7220646f6573206e6f742065786973742e0000000000000000000000\n        /* \"#utility.yul\":35937:35938   */\n      0x00\n        /* \"#utility.yul\":35929:35935   */\n      dup3\n        /* \"#utility.yul\":35925:35939   */\n      add\n        /* \"#utility.yul\":35918:35965   */\n      mstore\n        /* \"#utility.yul\":35801:35972   */\n      pop\n      jump\t// out\n        /* \"#utility.yul\":35978:36344   */\n    tag_326:\n        /* \"#utility.yul\":36120:36123   */\n      0x00\n        /* \"#utility.yul\":36141:36208   */\n      tag_662\n        /* \"#utility.yul\":36205:36207   */\n      0x15\n        /* \"#utility.yul\":36200:36203   */\n      dup4\n        /* \"#utility.yul\":36141:36208   */\n      tag_296\n      jump\t// in\n    tag_662:\n        /* \"#utility.yul\":36134:36208   */\n      swap2\n      pop\n        /* \"#utility.yul\":36217:36310   */\n      tag_663\n        /* \"#utility.yul\":36306:36309   */\n      dup3\n        /* \"#utility.yul\":36217:36310   */\n      tag_325\n      jump\t// in\n    tag_663:\n        /* \"#utility.yul\":36335:36337   */\n      0x20\n        /* \"#utility.yul\":36330:36333   */\n      dup3\n        /* \"#utility.yul\":36326:36338   */\n      add\n        /* \"#utility.yul\":36319:36338   */\n      swap1\n      pop\n        /* \"#utility.yul\":35978:36344   */\n      swap2\n      swap1\n      pop\n      jump\t// out\n        /* \"#utility.yul\":36350:36769   */\n    tag_118:\n        /* \"#utility.yul\":36516:36520   */\n      0x00\n        /* \"#utility.yul\":36554:36556   */\n      0x20\n        /* \"#utility.yul\":36543:36552   */\n      dup3\n        /* \"#utility.yul\":36539:36557   */\n      add\n        /* \"#utility.yul\":36531:36557   */\n      swap1\n      pop\n        /* \"#utility.yul\":36603:36612   */\n      dup2\n        /* \"#utility.yul\":36597:36601   */\n      dup2\n        /* \"#utility.yul\":36593:36613   */\n      sub\n        /* \"#utility.yul\":36589:36590   */\n      0x00\n        /* \"#utility.yul\":36578:36587   */\n      dup4\n        /* \"#utility.yul\":36574:36591   */\n      add\n        /* \"#utility.yul\":36567:36614   */\n      mstore\n        /* \"#utility.yul\":36631:36762   */\n      tag_665\n        /* \"#utility.yul\":36757:36761   */\n      dup2\n        /* \"#utility.yul\":36631:36762   */\n      tag_326\n      jump\t// in\n    tag_665:\n        /* \"#utility.yul\":36623:36762   */\n      swap1\n      pop\n        /* \"#utility.yul\":36350:36769   */\n      swap2\n      swap1\n      pop\n      jump\t// out\n        /* \"#utility.yul\":36775:36950   */\n    tag_327:\n        /* \"#utility.yul\":36915:36942   */\n      0x44617461557361676520646f6573206e6f742065786973742e00000000000000\n        /* \"#utility.yul\":36911:36912   */\n      0x00\n        /* \"#utility.yul\":36903:36909   */\n      dup3\n        /* \"#utility.yul\":36899:36913   */\n      add\n        /* \"#utility.yul\":36892:36943   */\n      mstore\n        /* \"#utility.yul\":36775:36950   */\n      pop\n      jump\t// out\n        /* \"#utility.yul\":36956:37322   */\n    tag_328:\n        /* \"#utility.yul\":37098:37101   */\n      0x00\n        /* \"#utility.yul\":37119:37186   */\n      tag_668\n        /* \"#utility.yul\":37183:37185   */\n      0x19\n        /* \"#utility.yul\":37178:37181   */\n      dup4\n        /* \"#utility.yul\":37119:37186   */\n      tag_296\n      jump\t// in\n    tag_668:\n        /* \"#utility.yul\":37112:37186   */\n      swap2\n      pop\n        /* \"#utility.yul\":37195:37288   */\n      tag_669\n        /* \"#utility.yul\":37284:37287   */\n      dup3\n        /* \"#utility.yul\":37195:37288   */\n      tag_327\n      jump\t// in\n    tag_669:\n        /* \"#utility.yul\":37313:37315   */\n      0x20\n        /* \"#utility.yul\":37308:37311   */\n      dup3\n        /* \"#utility.yul\":37304:37316   */\n      add\n        /* \"#utility.yul\":37297:37316   */\n      swap1\n      pop\n        /* \"#utility.yul\":36956:37322   */\n      swap2\n      swap1\n      pop\n      jump\t// out\n        /* \"#utility.yul\":37328:37747   */\n    tag_160:\n        /* \"#utility.yul\":37494:37498   */\n      0x00\n        /* \"#utility.yul\":37532:37534   */\n      0x20\n        /* \"#utility.yul\":37521:37530   */\n      dup3\n        /* \"#utility.yul\":37517:37535   */\n      add\n        /* \"#utility.yul\":37509:37535   */\n      swap1\n      pop\n        /* \"#utility.yul\":37581:37590   */\n      dup2\n        /* \"#utility.yul\":37575:37579   */\n      dup2\n        /* \"#utility.yul\":37571:37591   */\n      sub\n        /* \"#utility.yul\":37567:37568   */\n      0x00\n        /* \"#utility.yul\":37556:37565   */\n      dup4\n        /* \"#utility.yul\":37552:37569   */\n      add\n        /* \"#utility.yul\":37545:37592   */\n      mstore\n        /* \"#utility.yul\":37609:37740   */\n      tag_671\n        /* \"#utility.yul\":37735:37739   */\n      dup2\n        /* \"#utility.yul\":37609:37740   */\n      tag_328\n      jump\t// in\n    tag_671:\n        /* \"#utility.yul\":37601:37740   */\n      swap1\n      pop\n        /* \"#utility.yul\":37328:37747   */\n      swap2\n      swap1\n      pop\n      jump\t// out\n\n    auxdata: 0xa26469706673582212200385405e034fbebf8097646f3aee2e1236985c48040666538095a5e0a22cb53d64736f6c63430008180033\n}\n",
				"bytecode": {
					"linkReferences": {},
					"object": "60806040525f6005555f600755348015610017575f80fd5b50335f806101000a81548173ffffffffffffffffffffffffffffffffffffffff021916908373ffffffffffffffffffffffffffffffffffffffff160217905550612568806100645f395ff3fe608060405234801561000f575f80fd5b50600436106100b2575f3560e01c80638da5cb5b1161006f5780638da5cb5b14610164578063b61798f614610182578063c585665d146101b2578063ca07b122146101e2578063d2b0649a146101fe578063d8a761d91461022e576100b2565b80630dab7cd9146100b65780633a918356146100d25780633f81de59146100f05780634b58fbe91461010c578063682477d71461012a57806368e9243614610148575b5f80fd5b6100d060048036038101906100cb919061158c565b61025e565b005b6100da6103ab565b6040516100e7919061172a565b60405180910390f35b61010a6004803603810190610105919061174a565b610401565b005b61011461059e565b6040516101219190611784565b60405180910390f35b6101326105a7565b60405161013f9190611784565b60405180910390f35b610162600480360381019061015d919061179d565b6105b0565b005b61016c6106ae565b6040516101799190611836565b60405180910390f35b61019c6004803603810190610197919061174a565b6106d1565b6040516101a99190611867565b60405180910390f35b6101cc60048036038101906101c7919061174a565b61072f565b6040516101d99190611934565b60405180910390f35b6101fc60048036038101906101f79190611a14565b610848565b005b6102186004803603810190610213919061174a565b610b17565b6040516102259190611d7b565b60405180910390f35b6102486004803603810190610243919061174a565b610e2f565b6040516102559190611e23565b60405180910390f35b5f8054906101000a900473ffffffffffffffffffffffffffffffffffffffff1673ffffffffffffffffffffffffffffffffffffffff163373ffffffffffffffffffffffffffffffffffffffff16146102eb576040517f08c379a00000000000000000000000000000000000000000000000000000000081526004016102e290611ec3565b60405180910390fd5b6040518060a001604052808681526020018581526020018481526020018381526020018281525060035f8781526020019081526020015f205f820151815f0155602082015181600101908161034091906120db565b50604082015181600201908161035691906120db565b50606082015181600301908161036c91906120db565b50608082015181600401908051906020019061038992919061112b565b5090505060075f81548092919061039f906121d7565b91905055505050505050565b606060068054806020026020016040519081016040528092919081815260200182805480156103f757602002820191905f5260205f20905b8154815260200190600101908083116103e3575b5050505050905090565b5f8054906101000a900473ffffffffffffffffffffffffffffffffffffffff1673ffffffffffffffffffffffffffffffffffffffff163373ffffffffffffffffffffffffffffffffffffffff161461048e576040517f08c379a000000000000000000000000000000000000000000000000000000000815260040161048590611ec3565b60405180910390fd5b60075481106104d2576040517f08c379a00000000000000000000000000000000000000000000000000000000081526004016104c990612268565b60405180910390fd5b5f60035f8381526020019081526020015f209050606081600101826002018360030160405160200161050693929190612310565b60405160208183030381529060405290505f5b8260040180549050811015610576578183600401828154811061053f5761053e612340565b5b905f5260205f20016040516020016105589291906123b1565b60405160208183030381529060405291508080600101915050610519565b505f818051906020012090508060045f8681526020019081526020015f208190555050505050565b5f600754905090565b5f600554905090565b5f8054906101000a900473ffffffffffffffffffffffffffffffffffffffff1673ffffffffffffffffffffffffffffffffffffffff163373ffffffffffffffffffffffffffffffffffffffff161461063d576040517f08c379a000000000000000000000000000000000000000000000000000000000815260040161063490611ec3565b60405180910390fd5b60405180604001604052808381526020018281525060025f8481526020019081526020015f205f820151815f0155602082015181600101908161068091906120db565b50905050600682908060018154018082558091505060019003905f5260205f20015f90919091909150555050565b5f8054906101000a900473ffffffffffffffffffffffffffffffffffffffff1681565b5f6007548210610716576040517f08c379a000000000000000000000000000000000000000000000000000000000815260040161070d90612444565b60405180910390fd5b60045f8381526020019081526020015f20549050919050565b610737611182565b5f60025f8481526020019081526020015f205f01540361078c576040517f08c379a0000000000000000000000000000000000000000000000000000000008152600401610783906124ac565b60405180910390fd5b60025f8381526020019081526020015f206040518060400160405290815f82015481526020016001820180546107c190611f0e565b80601f01602080910402602001604051908101604052809291908181526020018280546107ed90611f0e565b80156108385780601f1061080f57610100808354040283529160200191610838565b820191905f5260205f20905b81548152906001019060200180831161081b57829003601f168201915b5050505050815250509050919050565b5f8054906101000a900473ffffffffffffffffffffffffffffffffffffffff1673ffffffffffffffffffffffffffffffffffffffff163373ffffffffffffffffffffffffffffffffffffffff16146108d5576040517f08c379a00000000000000000000000000000000000000000000000000000000081526004016108cc90611ec3565b60405180910390fd5b5f60055f8154809291906108e8906121d7565b9190505590505f825167ffffffffffffffff81111561090a57610909611386565b5b6040519080825280602002602001820160405280156109385781602001602082028036833780820191505090505b5090505f5b83518110156109f35760075484828151811061095c5761095b612340565b5b6020026020010151106109a4576040517f08c379a000000000000000000000000000000000000000000000000000000000815260040161099b90612268565b60405180910390fd5b6109c78482815181106109ba576109b9612340565b5b60200260200101516106d1565b8282815181106109da576109d9612340565b5b602002602001018181525050808060010191505061093d565b506040518060c001604052808881526020018781526020018681526020018581526020018481526020018281525060015f8481526020019081526020015f205f820151815f019081610a4591906120db565b506020820151816001019081610a5b91906120db565b50604082015181600201556060820151816003019080519060200190610a8292919061112b565b506080820151816004019080519060200190610a9f92919061119b565b5060a0820151816005019080519060200190610abc9291906111e6565b5090505060055f815480929190610ad2906121d7565b91905055507f7a3ca1959c02ca697e03705bf9d6d67c3acc38961b57c23a5f95fb0ef1c0ca0082604051610b069190611784565b60405180910390a150505050505050565b610b1f611231565b6005548210610b63576040517f08c379a0000000000000000000000000000000000000000000000000000000008152600401610b5a90612514565b60405180910390fd5b60015f8381526020019081526020015f206040518060c00160405290815f82018054610b8e90611f0e565b80601f0160208091040260200160405190810160405280929190818152602001828054610bba90611f0e565b8015610c055780601f10610bdc57610100808354040283529160200191610c05565b820191905f5260205f20905b815481529060010190602001808311610be857829003601f168201915b50505050508152602001600182018054610c1e90611f0e565b80601f0160208091040260200160405190810160405280929190818152602001828054610c4a90611f0e565b8015610c955780601f10610c6c57610100808354040283529160200191610c95565b820191905f5260205f20905b815481529060010190602001808311610c7857829003601f168201915b505050505081526020016002820154815260200160038201805480602002602001604051908101604052809291908181526020015f905b82821015610d74578382905f5260205f20018054610ce990611f0e565b80601f0160208091040260200160405190810160405280929190818152602001828054610d1590611f0e565b8015610d605780601f10610d3757610100808354040283529160200191610d60565b820191905f5260205f20905b815481529060010190602001808311610d4357829003601f168201915b505050505081526020019060010190610ccc565b50505050815260200160048201805480602002602001604051908101604052809291908181526020018280548015610dc957602002820191905f5260205f20905b815481526020019060010190808311610db5575b5050505050815260200160058201805480602002602001604051908101604052809291908181526020018280548015610e1f57602002820191905f5260205f20905b815481526020019060010190808311610e0b575b5050505050815250509050919050565b610e37611266565b6007548210610e7b576040517f08c379a0000000000000000000000000000000000000000000000000000000008152600401610e7290612268565b60405180910390fd5b60035f8381526020019081526020015f206040518060a00160405290815f8201548152602001600182018054610eb090611f0e565b80601f0160208091040260200160405190810160405280929190818152602001828054610edc90611f0e565b8015610f275780601f10610efe57610100808354040283529160200191610f27565b820191905f5260205f20905b815481529060010190602001808311610f0a57829003601f168201915b50505050508152602001600282018054610f4090611f0e565b80601f0160208091040260200160405190810160405280929190818152602001828054610f6c90611f0e565b8015610fb75780601f10610f8e57610100808354040283529160200191610fb7565b820191905f5260205f20905b815481529060010190602001808311610f9a57829003601f168201915b50505050508152602001600382018054610fd090611f0e565b80601f0160208091040260200160405190810160405280929190818152602001828054610ffc90611f0e565b80156110475780601f1061101e57610100808354040283529160200191611047565b820191905f5260205f20905b81548152906001019060200180831161102a57829003601f168201915b5050505050815260200160048201805480602002602001604051908101604052809291908181526020015f905b8282101561111c578382905f5260205f2001805461109190611f0e565b80601f01602080910402602001604051908101604052809291908181526020018280546110bd90611f0e565b80156111085780601f106110df57610100808354040283529160200191611108565b820191905f5260205f20905b8154815290600101906020018083116110eb57829003601f168201915b505050505081526020019060010190611074565b50505050815250509050919050565b828054828255905f5260205f20908101928215611171579160200282015b8281111561117057825182908161116091906120db565b5091602001919060010190611149565b5b50905061117e9190611294565b5090565b60405180604001604052805f8152602001606081525090565b828054828255905f5260205f209081019282156111d5579160200282015b828111156111d45782518255916020019190600101906111b9565b5b5090506111e291906112b7565b5090565b828054828255905f5260205f20908101928215611220579160200282015b8281111561121f578251825591602001919060010190611204565b5b50905061122d91906112d2565b5090565b6040518060c0016040528060608152602001606081526020015f81526020016060815260200160608152602001606081525090565b6040518060a001604052805f8152602001606081526020016060815260200160608152602001606081525090565b5b808211156112b3575f81816112aa91906112ed565b50600101611295565b5090565b5b808211156112ce575f815f9055506001016112b8565b5090565b5b808211156112e9575f815f9055506001016112d3565b5090565b5080546112f990611f0e565b5f825580601f1061130a5750611327565b601f0160209004905f5260205f209081019061132691906112b7565b5b50565b5f604051905090565b5f80fd5b5f80fd5b5f819050919050565b61134d8161133b565b8114611357575f80fd5b50565b5f8135905061136881611344565b92915050565b5f80fd5b5f80fd5b5f601f19601f8301169050919050565b7f4e487b71000000000000000000000000000000000000000000000000000000005f52604160045260245ffd5b6113bc82611376565b810181811067ffffffffffffffff821117156113db576113da611386565b5b80604052505050565b5f6113ed61132a565b90506113f982826113b3565b919050565b5f67ffffffffffffffff82111561141857611417611386565b5b61142182611376565b9050602081019050919050565b828183375f83830152505050565b5f61144e611449846113fe565b6113e4565b90508281526020810184848401111561146a57611469611372565b5b61147584828561142e565b509392505050565b5f82601f8301126114915761149061136e565b5b81356114a184826020860161143c565b91505092915050565b5f67ffffffffffffffff8211156114c4576114c3611386565b5b602082029050602081019050919050565b5f80fd5b5f6114eb6114e6846114aa565b6113e4565b9050808382526020820190506020840283018581111561150e5761150d6114d5565b5b835b8181101561155557803567ffffffffffffffff8111156115335761153261136e565b5b808601611540898261147d565b85526020850194505050602081019050611510565b5050509392505050565b5f82601f8301126115735761157261136e565b5b81356115838482602086016114d9565b91505092915050565b5f805f805f60a086880312156115a5576115a4611333565b5b5f6115b28882890161135a565b955050602086013567ffffffffffffffff8111156115d3576115d2611337565b5b6115df8882890161147d565b945050604086013567ffffffffffffffff811115611600576115ff611337565b5b61160c8882890161147d565b935050606086013567ffffffffffffffff81111561162d5761162c611337565b5b6116398882890161147d565b925050608086013567ffffffffffffffff81111561165a57611659611337565b5b6116668882890161155f565b9150509295509295909350565b5f81519050919050565b5f82825260208201905092915050565b5f819050602082019050919050565b6116a58161133b565b82525050565b5f6116b6838361169c565b60208301905092915050565b5f602082019050919050565b5f6116d882611673565b6116e2818561167d565b93506116ed8361168d565b805f5b8381101561171d57815161170488826116ab565b975061170f836116c2565b9250506001810190506116f0565b5085935050505092915050565b5f6020820190508181035f83015261174281846116ce565b905092915050565b5f6020828403121561175f5761175e611333565b5b5f61176c8482850161135a565b91505092915050565b61177e8161133b565b82525050565b5f6020820190506117975f830184611775565b92915050565b5f80604083850312156117b3576117b2611333565b5b5f6117c08582860161135a565b925050602083013567ffffffffffffffff8111156117e1576117e0611337565b5b6117ed8582860161147d565b9150509250929050565b5f73ffffffffffffffffffffffffffffffffffffffff82169050919050565b5f611820826117f7565b9050919050565b61183081611816565b82525050565b5f6020820190506118495f830184611827565b92915050565b5f819050919050565b6118618161184f565b82525050565b5f60208201905061187a5f830184611858565b92915050565b5f81519050919050565b5f82825260208201905092915050565b5f5b838110156118b757808201518184015260208101905061189c565b5f8484015250505050565b5f6118cc82611880565b6118d6818561188a565b93506118e681856020860161189a565b6118ef81611376565b840191505092915050565b5f604083015f83015161190f5f86018261169c565b506020830151848203602086015261192782826118c2565b9150508091505092915050565b5f6020820190508181035f83015261194c81846118fa565b905092915050565b5f67ffffffffffffffff82111561196e5761196d611386565b5b602082029050602081019050919050565b5f61199161198c84611954565b6113e4565b905080838252602082019050602084028301858111156119b4576119b36114d5565b5b835b818110156119dd57806119c9888261135a565b8452602084019350506020810190506119b6565b5050509392505050565b5f82601f8301126119fb576119fa61136e565b5b8135611a0b84826020860161197f565b91505092915050565b5f805f805f60a08688031215611a2d57611a2c611333565b5b5f86013567ffffffffffffffff811115611a4a57611a49611337565b5b611a568882890161147d565b955050602086013567ffffffffffffffff811115611a7757611a76611337565b5b611a838882890161147d565b9450506040611a948882890161135a565b935050606086013567ffffffffffffffff811115611ab557611ab4611337565b5b611ac18882890161155f565b925050608086013567ffffffffffffffff811115611ae257611ae1611337565b5b611aee888289016119e7565b9150509295509295909350565b5f81519050919050565b5f82825260208201905092915050565b5f819050602082019050919050565b5f611b2f83836118c2565b905092915050565b5f602082019050919050565b5f611b4d82611afb565b611b578185611b05565b935083602082028501611b6985611b15565b805f5b85811015611ba45784840389528151611b858582611b24565b9450611b9083611b37565b925060208a01995050600181019050611b6c565b50829750879550505050505092915050565b5f82825260208201905092915050565b5f611bd082611673565b611bda8185611bb6565b9350611be58361168d565b805f5b83811015611c15578151611bfc88826116ab565b9750611c07836116c2565b925050600181019050611be8565b5085935050505092915050565b5f81519050919050565b5f82825260208201905092915050565b5f819050602082019050919050565b611c548161184f565b82525050565b5f611c658383611c4b565b60208301905092915050565b5f602082019050919050565b5f611c8782611c22565b611c918185611c2c565b9350611c9c83611c3c565b805f5b83811015611ccc578151611cb38882611c5a565b9750611cbe83611c71565b925050600181019050611c9f565b5085935050505092915050565b5f60c083015f8301518482035f860152611cf382826118c2565b91505060208301518482036020860152611d0d82826118c2565b9150506040830151611d22604086018261169c565b5060608301518482036060860152611d3a8282611b43565b91505060808301518482036080860152611d548282611bc6565b91505060a083015184820360a0860152611d6e8282611c7d565b9150508091505092915050565b5f6020820190508181035f830152611d938184611cd9565b905092915050565b5f60a083015f830151611db05f86018261169c565b5060208301518482036020860152611dc882826118c2565b91505060408301518482036040860152611de282826118c2565b91505060608301518482036060860152611dfc82826118c2565b91505060808301518482036080860152611e168282611b43565b9150508091505092915050565b5f6020820190508181035f830152611e3b8184611d9b565b905092915050565b5f82825260208201905092915050565b7f4f6e6c792074686520636f6e7472616374206f776e65722063616e20706572665f8201527f6f726d2074686973206f7065726174696f6e0000000000000000000000000000602082015250565b5f611ead603283611e43565b9150611eb882611e53565b604082019050919050565b5f6020820190508181035f830152611eda81611ea1565b9050919050565b7f4e487b71000000000000000000000000000000000000000000000000000000005f52602260045260245ffd5b5f6002820490506001821680611f2557607f821691505b602082108103611f3857611f37611ee1565b5b50919050565b5f819050815f5260205f209050919050565b5f6020601f8301049050919050565b5f82821b905092915050565b5f60088302611f9a7fffffffffffffffffffffffffffffffffffffffffffffffffffffffffffffffff82611f5f565b611fa48683611f5f565b95508019841693508086168417925050509392505050565b5f819050919050565b5f611fdf611fda611fd58461133b565b611fbc565b61133b565b9050919050565b5f819050919050565b611ff883611fc5565b61200c61200482611fe6565b848454611f6b565b825550505050565b5f90565b612020612014565b61202b818484611fef565b505050565b5b8181101561204e576120435f82612018565b600181019050612031565b5050565b601f8211156120935761206481611f3e565b61206d84611f50565b8101602085101561207c578190505b61209061208885611f50565b830182612030565b50505b505050565b5f82821c905092915050565b5f6120b35f1984600802612098565b1980831691505092915050565b5f6120cb83836120a4565b9150826002028217905092915050565b6120e482611880565b67ffffffffffffffff8111156120fd576120fc611386565b5b6121078254611f0e565b612112828285612052565b5f60209050601f831160018114612143575f8415612131578287015190505b61213b85826120c0565b8655506121a2565b601f19841661215186611f3e565b5f5b8281101561217857848901518255600182019150602085019450602081019050612153565b868310156121955784890151612191601f8916826120a4565b8355505b6001600288020188555050505b505050505050565b7f4e487b71000000000000000000000000000000000000000000000000000000005f52601160045260245ffd5b5f6121e18261133b565b91507fffffffffffffffffffffffffffffffffffffffffffffffffffffffffffffffff8203612213576122126121aa565b5b600182019050919050565b7f506572736f6e616c4461746120646f6573206e6f742065786973742e000000005f82015250565b5f612252601c83611e43565b915061225d8261221e565b602082019050919050565b5f6020820190508181035f83015261227f81612246565b9050919050565b5f81905092915050565b5f815461229c81611f0e565b6122a68186612286565b9450600182165f81146122c057600181146122d557612307565b60ff1983168652811515820286019350612307565b6122de85611f3e565b5f5b838110156122ff578154818901526001820191506020810190506122e0565b838801955050505b50505092915050565b5f61231b8286612290565b91506123278285612290565b91506123338284612290565b9150819050949350505050565b7f4e487b71000000000000000000000000000000000000000000000000000000005f52603260045260245ffd5b5f81519050919050565b5f81905092915050565b5f61238b8261236d565b6123958185612377565b93506123a581856020860161189a565b80840191505092915050565b5f6123bc8285612381565b91506123c88284612290565b91508190509392505050565b7f50726f636573736564506572736f6e616c4461746120646f6573206e6f7420655f8201527f786973742e000000000000000000000000000000000000000000000000000000602082015250565b5f61242e602583611e43565b9150612439826123d4565b604082019050919050565b5f6020820190508181035f83015261245b81612422565b9050919050565b7f4163746f7220646f6573206e6f742065786973742e00000000000000000000005f82015250565b5f612496601583611e43565b91506124a182612462565b602082019050919050565b5f6020820190508181035f8301526124c38161248a565b9050919050565b7f44617461557361676520646f6573206e6f742065786973742e000000000000005f82015250565b5f6124fe601983611e43565b9150612509826124ca565b602082019050919050565b5f6020820190508181035f83015261252b816124f2565b905091905056fea26469706673582212200385405e034fbebf8097646f3aee2e1236985c48040666538095a5e0a22cb53d64736f6c63430008180033",
					"opcodes": "PUSH1 0x80 PUSH1 0x40 MSTORE PUSH0 PUSH1 0x5 SSTORE PUSH0 PUSH1 0x7 SSTORE CALLVALUE DUP1 ISZERO PUSH2 0x17 JUMPI PUSH0 DUP1 REVERT JUMPDEST POP CALLER PUSH0 DUP1 PUSH2 0x100 EXP DUP2 SLOAD DUP2 PUSH20 0xFFFFFFFFFFFFFFFFFFFFFFFFFFFFFFFFFFFFFFFF MUL NOT AND SWAP1 DUP4 PUSH20 0xFFFFFFFFFFFFFFFFFFFFFFFFFFFFFFFFFFFFFFFF AND MUL OR SWAP1 SSTORE POP PUSH2 0x2568 DUP1 PUSH2 0x64 PUSH0 CODECOPY PUSH0 RETURN INVALID PUSH1 0x80 PUSH1 0x40 MSTORE CALLVALUE DUP1 ISZERO PUSH2 0xF JUMPI PUSH0 DUP1 REVERT JUMPDEST POP PUSH1 0x4 CALLDATASIZE LT PUSH2 0xB2 JUMPI PUSH0 CALLDATALOAD PUSH1 0xE0 SHR DUP1 PUSH4 0x8DA5CB5B GT PUSH2 0x6F JUMPI DUP1 PUSH4 0x8DA5CB5B EQ PUSH2 0x164 JUMPI DUP1 PUSH4 0xB61798F6 EQ PUSH2 0x182 JUMPI DUP1 PUSH4 0xC585665D EQ PUSH2 0x1B2 JUMPI DUP1 PUSH4 0xCA07B122 EQ PUSH2 0x1E2 JUMPI DUP1 PUSH4 0xD2B0649A EQ PUSH2 0x1FE JUMPI DUP1 PUSH4 0xD8A761D9 EQ PUSH2 0x22E JUMPI PUSH2 0xB2 JUMP JUMPDEST DUP1 PUSH4 0xDAB7CD9 EQ PUSH2 0xB6 JUMPI DUP1 PUSH4 0x3A918356 EQ PUSH2 0xD2 JUMPI DUP1 PUSH4 0x3F81DE59 EQ PUSH2 0xF0 JUMPI DUP1 PUSH4 0x4B58FBE9 EQ PUSH2 0x10C JUMPI DUP1 PUSH4 0x682477D7 EQ PUSH2 0x12A JUMPI DUP1 PUSH4 0x68E92436 EQ PUSH2 0x148 JUMPI JUMPDEST PUSH0 DUP1 REVERT JUMPDEST PUSH2 0xD0 PUSH1 0x4 DUP1 CALLDATASIZE SUB DUP2 ADD SWAP1 PUSH2 0xCB SWAP2 SWAP1 PUSH2 0x158C JUMP JUMPDEST PUSH2 0x25E JUMP JUMPDEST STOP JUMPDEST PUSH2 0xDA PUSH2 0x3AB JUMP JUMPDEST PUSH1 0x40 MLOAD PUSH2 0xE7 SWAP2 SWAP1 PUSH2 0x172A JUMP JUMPDEST PUSH1 0x40 MLOAD DUP1 SWAP2 SUB SWAP1 RETURN JUMPDEST PUSH2 0x10A PUSH1 0x4 DUP1 CALLDATASIZE SUB DUP2 ADD SWAP1 PUSH2 0x105 SWAP2 SWAP1 PUSH2 0x174A JUMP JUMPDEST PUSH2 0x401 JUMP JUMPDEST STOP JUMPDEST PUSH2 0x114 PUSH2 0x59E JUMP JUMPDEST PUSH1 0x40 MLOAD PUSH2 0x121 SWAP2 SWAP1 PUSH2 0x1784 JUMP JUMPDEST PUSH1 0x40 MLOAD DUP1 SWAP2 SUB SWAP1 RETURN JUMPDEST PUSH2 0x132 PUSH2 0x5A7 JUMP JUMPDEST PUSH1 0x40 MLOAD PUSH2 0x13F SWAP2 SWAP1 PUSH2 0x1784 JUMP JUMPDEST PUSH1 0x40 MLOAD DUP1 SWAP2 SUB SWAP1 RETURN JUMPDEST PUSH2 0x162 PUSH1 0x4 DUP1 CALLDATASIZE SUB DUP2 ADD SWAP1 PUSH2 0x15D SWAP2 SWAP1 PUSH2 0x179D JUMP JUMPDEST PUSH2 0x5B0 JUMP JUMPDEST STOP JUMPDEST PUSH2 0x16C PUSH2 0x6AE JUMP JUMPDEST PUSH1 0x40 MLOAD PUSH2 0x179 SWAP2 SWAP1 PUSH2 0x1836 JUMP JUMPDEST PUSH1 0x40 MLOAD DUP1 SWAP2 SUB SWAP1 RETURN JUMPDEST PUSH2 0x19C PUSH1 0x4 DUP1 CALLDATASIZE SUB DUP2 ADD SWAP1 PUSH2 0x197 SWAP2 SWAP1 PUSH2 0x174A JUMP JUMPDEST PUSH2 0x6D1 JUMP JUMPDEST PUSH1 0x40 MLOAD PUSH2 0x1A9 SWAP2 SWAP1 PUSH2 0x1867 JUMP JUMPDEST PUSH1 0x40 MLOAD DUP1 SWAP2 SUB SWAP1 RETURN JUMPDEST PUSH2 0x1CC PUSH1 0x4 DUP1 CALLDATASIZE SUB DUP2 ADD SWAP1 PUSH2 0x1C7 SWAP2 SWAP1 PUSH2 0x174A JUMP JUMPDEST PUSH2 0x72F JUMP JUMPDEST PUSH1 0x40 MLOAD PUSH2 0x1D9 SWAP2 SWAP1 PUSH2 0x1934 JUMP JUMPDEST PUSH1 0x40 MLOAD DUP1 SWAP2 SUB SWAP1 RETURN JUMPDEST PUSH2 0x1FC PUSH1 0x4 DUP1 CALLDATASIZE SUB DUP2 ADD SWAP1 PUSH2 0x1F7 SWAP2 SWAP1 PUSH2 0x1A14 JUMP JUMPDEST PUSH2 0x848 JUMP JUMPDEST STOP JUMPDEST PUSH2 0x218 PUSH1 0x4 DUP1 CALLDATASIZE SUB DUP2 ADD SWAP1 PUSH2 0x213 SWAP2 SWAP1 PUSH2 0x174A JUMP JUMPDEST PUSH2 0xB17 JUMP JUMPDEST PUSH1 0x40 MLOAD PUSH2 0x225 SWAP2 SWAP1 PUSH2 0x1D7B JUMP JUMPDEST PUSH1 0x40 MLOAD DUP1 SWAP2 SUB SWAP1 RETURN JUMPDEST PUSH2 0x248 PUSH1 0x4 DUP1 CALLDATASIZE SUB DUP2 ADD SWAP1 PUSH2 0x243 SWAP2 SWAP1 PUSH2 0x174A JUMP JUMPDEST PUSH2 0xE2F JUMP JUMPDEST PUSH1 0x40 MLOAD PUSH2 0x255 SWAP2 SWAP1 PUSH2 0x1E23 JUMP JUMPDEST PUSH1 0x40 MLOAD DUP1 SWAP2 SUB SWAP1 RETURN JUMPDEST PUSH0 DUP1 SLOAD SWAP1 PUSH2 0x100 EXP SWAP1 DIV PUSH20 0xFFFFFFFFFFFFFFFFFFFFFFFFFFFFFFFFFFFFFFFF AND PUSH20 0xFFFFFFFFFFFFFFFFFFFFFFFFFFFFFFFFFFFFFFFF AND CALLER PUSH20 0xFFFFFFFFFFFFFFFFFFFFFFFFFFFFFFFFFFFFFFFF AND EQ PUSH2 0x2EB JUMPI PUSH1 0x40 MLOAD PUSH32 0x8C379A000000000000000000000000000000000000000000000000000000000 DUP2 MSTORE PUSH1 0x4 ADD PUSH2 0x2E2 SWAP1 PUSH2 0x1EC3 JUMP JUMPDEST PUSH1 0x40 MLOAD DUP1 SWAP2 SUB SWAP1 REVERT JUMPDEST PUSH1 0x40 MLOAD DUP1 PUSH1 0xA0 ADD PUSH1 0x40 MSTORE DUP1 DUP7 DUP2 MSTORE PUSH1 0x20 ADD DUP6 DUP2 MSTORE PUSH1 0x20 ADD DUP5 DUP2 MSTORE PUSH1 0x20 ADD DUP4 DUP2 MSTORE PUSH1 0x20 ADD DUP3 DUP2 MSTORE POP PUSH1 0x3 PUSH0 DUP8 DUP2 MSTORE PUSH1 0x20 ADD SWAP1 DUP2 MSTORE PUSH1 0x20 ADD PUSH0 KECCAK256 PUSH0 DUP3 ADD MLOAD DUP2 PUSH0 ADD SSTORE PUSH1 0x20 DUP3 ADD MLOAD DUP2 PUSH1 0x1 ADD SWAP1 DUP2 PUSH2 0x340 SWAP2 SWAP1 PUSH2 0x20DB JUMP JUMPDEST POP PUSH1 0x40 DUP3 ADD MLOAD DUP2 PUSH1 0x2 ADD SWAP1 DUP2 PUSH2 0x356 SWAP2 SWAP1 PUSH2 0x20DB JUMP JUMPDEST POP PUSH1 0x60 DUP3 ADD MLOAD DUP2 PUSH1 0x3 ADD SWAP1 DUP2 PUSH2 0x36C SWAP2 SWAP1 PUSH2 0x20DB JUMP JUMPDEST POP PUSH1 0x80 DUP3 ADD MLOAD DUP2 PUSH1 0x4 ADD SWAP1 DUP1 MLOAD SWAP1 PUSH1 0x20 ADD SWAP1 PUSH2 0x389 SWAP3 SWAP2 SWAP1 PUSH2 0x112B JUMP JUMPDEST POP SWAP1 POP POP PUSH1 0x7 PUSH0 DUP2 SLOAD DUP1 SWAP3 SWAP2 SWAP1 PUSH2 0x39F SWAP1 PUSH2 0x21D7 JUMP JUMPDEST SWAP2 SWAP1 POP SSTORE POP POP POP POP POP POP JUMP JUMPDEST PUSH1 0x60 PUSH1 0x6 DUP1 SLOAD DUP1 PUSH1 0x20 MUL PUSH1 0x20 ADD PUSH1 0x40 MLOAD SWAP1 DUP2 ADD PUSH1 0x40 MSTORE DUP1 SWAP3 SWAP2 SWAP1 DUP2 DUP2 MSTORE PUSH1 0x20 ADD DUP3 DUP1 SLOAD DUP1 ISZERO PUSH2 0x3F7 JUMPI PUSH1 0x20 MUL DUP3 ADD SWAP2 SWAP1 PUSH0 MSTORE PUSH1 0x20 PUSH0 KECCAK256 SWAP1 JUMPDEST DUP2 SLOAD DUP2 MSTORE PUSH1 0x20 ADD SWAP1 PUSH1 0x1 ADD SWAP1 DUP1 DUP4 GT PUSH2 0x3E3 JUMPI JUMPDEST POP POP POP POP POP SWAP1 POP SWAP1 JUMP JUMPDEST PUSH0 DUP1 SLOAD SWAP1 PUSH2 0x100 EXP SWAP1 DIV PUSH20 0xFFFFFFFFFFFFFFFFFFFFFFFFFFFFFFFFFFFFFFFF AND PUSH20 0xFFFFFFFFFFFFFFFFFFFFFFFFFFFFFFFFFFFFFFFF AND CALLER PUSH20 0xFFFFFFFFFFFFFFFFFFFFFFFFFFFFFFFFFFFFFFFF AND EQ PUSH2 0x48E JUMPI PUSH1 0x40 MLOAD PUSH32 0x8C379A000000000000000000000000000000000000000000000000000000000 DUP2 MSTORE PUSH1 0x4 ADD PUSH2 0x485 SWAP1 PUSH2 0x1EC3 JUMP JUMPDEST PUSH1 0x40 MLOAD DUP1 SWAP2 SUB SWAP1 REVERT JUMPDEST PUSH1 0x7 SLOAD DUP2 LT PUSH2 0x4D2 JUMPI PUSH1 0x40 MLOAD PUSH32 0x8C379A000000000000000000000000000000000000000000000000000000000 DUP2 MSTORE PUSH1 0x4 ADD PUSH2 0x4C9 SWAP1 PUSH2 0x2268 JUMP JUMPDEST PUSH1 0x40 MLOAD DUP1 SWAP2 SUB SWAP1 REVERT JUMPDEST PUSH0 PUSH1 0x3 PUSH0 DUP4 DUP2 MSTORE PUSH1 0x20 ADD SWAP1 DUP2 MSTORE PUSH1 0x20 ADD PUSH0 KECCAK256 SWAP1 POP PUSH1 0x60 DUP2 PUSH1 0x1 ADD DUP3 PUSH1 0x2 ADD DUP4 PUSH1 0x3 ADD PUSH1 0x40 MLOAD PUSH1 0x20 ADD PUSH2 0x506 SWAP4 SWAP3 SWAP2 SWAP1 PUSH2 0x2310 JUMP JUMPDEST PUSH1 0x40 MLOAD PUSH1 0x20 DUP2 DUP4 SUB SUB DUP2 MSTORE SWAP1 PUSH1 0x40 MSTORE SWAP1 POP PUSH0 JUMPDEST DUP3 PUSH1 0x4 ADD DUP1 SLOAD SWAP1 POP DUP2 LT ISZERO PUSH2 0x576 JUMPI DUP2 DUP4 PUSH1 0x4 ADD DUP3 DUP2 SLOAD DUP2 LT PUSH2 0x53F JUMPI PUSH2 0x53E PUSH2 0x2340 JUMP JUMPDEST JUMPDEST SWAP1 PUSH0 MSTORE PUSH1 0x20 PUSH0 KECCAK256 ADD PUSH1 0x40 MLOAD PUSH1 0x20 ADD PUSH2 0x558 SWAP3 SWAP2 SWAP1 PUSH2 0x23B1 JUMP JUMPDEST PUSH1 0x40 MLOAD PUSH1 0x20 DUP2 DUP4 SUB SUB DUP2 MSTORE SWAP1 PUSH1 0x40 MSTORE SWAP2 POP DUP1 DUP1 PUSH1 0x1 ADD SWAP2 POP POP PUSH2 0x519 JUMP JUMPDEST POP PUSH0 DUP2 DUP1 MLOAD SWAP1 PUSH1 0x20 ADD KECCAK256 SWAP1 POP DUP1 PUSH1 0x4 PUSH0 DUP7 DUP2 MSTORE PUSH1 0x20 ADD SWAP1 DUP2 MSTORE PUSH1 0x20 ADD PUSH0 KECCAK256 DUP2 SWAP1 SSTORE POP POP POP POP POP JUMP JUMPDEST PUSH0 PUSH1 0x7 SLOAD SWAP1 POP SWAP1 JUMP JUMPDEST PUSH0 PUSH1 0x5 SLOAD SWAP1 POP SWAP1 JUMP JUMPDEST PUSH0 DUP1 SLOAD SWAP1 PUSH2 0x100 EXP SWAP1 DIV PUSH20 0xFFFFFFFFFFFFFFFFFFFFFFFFFFFFFFFFFFFFFFFF AND PUSH20 0xFFFFFFFFFFFFFFFFFFFFFFFFFFFFFFFFFFFFFFFF AND CALLER PUSH20 0xFFFFFFFFFFFFFFFFFFFFFFFFFFFFFFFFFFFFFFFF AND EQ PUSH2 0x63D JUMPI PUSH1 0x40 MLOAD PUSH32 0x8C379A000000000000000000000000000000000000000000000000000000000 DUP2 MSTORE PUSH1 0x4 ADD PUSH2 0x634 SWAP1 PUSH2 0x1EC3 JUMP JUMPDEST PUSH1 0x40 MLOAD DUP1 SWAP2 SUB SWAP1 REVERT JUMPDEST PUSH1 0x40 MLOAD DUP1 PUSH1 0x40 ADD PUSH1 0x40 MSTORE DUP1 DUP4 DUP2 MSTORE PUSH1 0x20 ADD DUP3 DUP2 MSTORE POP PUSH1 0x2 PUSH0 DUP5 DUP2 MSTORE PUSH1 0x20 ADD SWAP1 DUP2 MSTORE PUSH1 0x20 ADD PUSH0 KECCAK256 PUSH0 DUP3 ADD MLOAD DUP2 PUSH0 ADD SSTORE PUSH1 0x20 DUP3 ADD MLOAD DUP2 PUSH1 0x1 ADD SWAP1 DUP2 PUSH2 0x680 SWAP2 SWAP1 PUSH2 0x20DB JUMP JUMPDEST POP SWAP1 POP POP PUSH1 0x6 DUP3 SWAP1 DUP1 PUSH1 0x1 DUP2 SLOAD ADD DUP1 DUP3 SSTORE DUP1 SWAP2 POP POP PUSH1 0x1 SWAP1 SUB SWAP1 PUSH0 MSTORE PUSH1 0x20 PUSH0 KECCAK256 ADD PUSH0 SWAP1 SWAP2 SWAP1 SWAP2 SWAP1 SWAP2 POP SSTORE POP POP JUMP JUMPDEST PUSH0 DUP1 SLOAD SWAP1 PUSH2 0x100 EXP SWAP1 DIV PUSH20 0xFFFFFFFFFFFFFFFFFFFFFFFFFFFFFFFFFFFFFFFF AND DUP2 JUMP JUMPDEST PUSH0 PUSH1 0x7 SLOAD DUP3 LT PUSH2 0x716 JUMPI PUSH1 0x40 MLOAD PUSH32 0x8C379A000000000000000000000000000000000000000000000000000000000 DUP2 MSTORE PUSH1 0x4 ADD PUSH2 0x70D SWAP1 PUSH2 0x2444 JUMP JUMPDEST PUSH1 0x40 MLOAD DUP1 SWAP2 SUB SWAP1 REVERT JUMPDEST PUSH1 0x4 PUSH0 DUP4 DUP2 MSTORE PUSH1 0x20 ADD SWAP1 DUP2 MSTORE PUSH1 0x20 ADD PUSH0 KECCAK256 SLOAD SWAP1 POP SWAP2 SWAP1 POP JUMP JUMPDEST PUSH2 0x737 PUSH2 0x1182 JUMP JUMPDEST PUSH0 PUSH1 0x2 PUSH0 DUP5 DUP2 MSTORE PUSH1 0x20 ADD SWAP1 DUP2 MSTORE PUSH1 0x20 ADD PUSH0 KECCAK256 PUSH0 ADD SLOAD SUB PUSH2 0x78C JUMPI PUSH1 0x40 MLOAD PUSH32 0x8C379A000000000000000000000000000000000000000000000000000000000 DUP2 MSTORE PUSH1 0x4 ADD PUSH2 0x783 SWAP1 PUSH2 0x24AC JUMP JUMPDEST PUSH1 0x40 MLOAD DUP1 SWAP2 SUB SWAP1 REVERT JUMPDEST PUSH1 0x2 PUSH0 DUP4 DUP2 MSTORE PUSH1 0x20 ADD SWAP1 DUP2 MSTORE PUSH1 0x20 ADD PUSH0 KECCAK256 PUSH1 0x40 MLOAD DUP1 PUSH1 0x40 ADD PUSH1 0x40 MSTORE SWAP1 DUP2 PUSH0 DUP3 ADD SLOAD DUP2 MSTORE PUSH1 0x20 ADD PUSH1 0x1 DUP3 ADD DUP1 SLOAD PUSH2 0x7C1 SWAP1 PUSH2 0x1F0E JUMP JUMPDEST DUP1 PUSH1 0x1F ADD PUSH1 0x20 DUP1 SWAP2 DIV MUL PUSH1 0x20 ADD PUSH1 0x40 MLOAD SWAP1 DUP2 ADD PUSH1 0x40 MSTORE DUP1 SWAP3 SWAP2 SWAP1 DUP2 DUP2 MSTORE PUSH1 0x20 ADD DUP3 DUP1 SLOAD PUSH2 0x7ED SWAP1 PUSH2 0x1F0E JUMP JUMPDEST DUP1 ISZERO PUSH2 0x838 JUMPI DUP1 PUSH1 0x1F LT PUSH2 0x80F JUMPI PUSH2 0x100 DUP1 DUP4 SLOAD DIV MUL DUP4 MSTORE SWAP2 PUSH1 0x20 ADD SWAP2 PUSH2 0x838 JUMP JUMPDEST DUP3 ADD SWAP2 SWAP1 PUSH0 MSTORE PUSH1 0x20 PUSH0 KECCAK256 SWAP1 JUMPDEST DUP2 SLOAD DUP2 MSTORE SWAP1 PUSH1 0x1 ADD SWAP1 PUSH1 0x20 ADD DUP1 DUP4 GT PUSH2 0x81B JUMPI DUP3 SWAP1 SUB PUSH1 0x1F AND DUP3 ADD SWAP2 JUMPDEST POP POP POP POP POP DUP2 MSTORE POP POP SWAP1 POP SWAP2 SWAP1 POP JUMP JUMPDEST PUSH0 DUP1 SLOAD SWAP1 PUSH2 0x100 EXP SWAP1 DIV PUSH20 0xFFFFFFFFFFFFFFFFFFFFFFFFFFFFFFFFFFFFFFFF AND PUSH20 0xFFFFFFFFFFFFFFFFFFFFFFFFFFFFFFFFFFFFFFFF AND CALLER PUSH20 0xFFFFFFFFFFFFFFFFFFFFFFFFFFFFFFFFFFFFFFFF AND EQ PUSH2 0x8D5 JUMPI PUSH1 0x40 MLOAD PUSH32 0x8C379A000000000000000000000000000000000000000000000000000000000 DUP2 MSTORE PUSH1 0x4 ADD PUSH2 0x8CC SWAP1 PUSH2 0x1EC3 JUMP JUMPDEST PUSH1 0x40 MLOAD DUP1 SWAP2 SUB SWAP1 REVERT JUMPDEST PUSH0 PUSH1 0x5 PUSH0 DUP2 SLOAD DUP1 SWAP3 SWAP2 SWAP1 PUSH2 0x8E8 SWAP1 PUSH2 0x21D7 JUMP JUMPDEST SWAP2 SWAP1 POP SSTORE SWAP1 POP PUSH0 DUP3 MLOAD PUSH8 0xFFFFFFFFFFFFFFFF DUP2 GT ISZERO PUSH2 0x90A JUMPI PUSH2 0x909 PUSH2 0x1386 JUMP JUMPDEST JUMPDEST PUSH1 0x40 MLOAD SWAP1 DUP1 DUP3 MSTORE DUP1 PUSH1 0x20 MUL PUSH1 0x20 ADD DUP3 ADD PUSH1 0x40 MSTORE DUP1 ISZERO PUSH2 0x938 JUMPI DUP2 PUSH1 0x20 ADD PUSH1 0x20 DUP3 MUL DUP1 CALLDATASIZE DUP4 CALLDATACOPY DUP1 DUP3 ADD SWAP2 POP POP SWAP1 POP JUMPDEST POP SWAP1 POP PUSH0 JUMPDEST DUP4 MLOAD DUP2 LT ISZERO PUSH2 0x9F3 JUMPI PUSH1 0x7 SLOAD DUP5 DUP3 DUP2 MLOAD DUP2 LT PUSH2 0x95C JUMPI PUSH2 0x95B PUSH2 0x2340 JUMP JUMPDEST JUMPDEST PUSH1 0x20 MUL PUSH1 0x20 ADD ADD MLOAD LT PUSH2 0x9A4 JUMPI PUSH1 0x40 MLOAD PUSH32 0x8C379A000000000000000000000000000000000000000000000000000000000 DUP2 MSTORE PUSH1 0x4 ADD PUSH2 0x99B SWAP1 PUSH2 0x2268 JUMP JUMPDEST PUSH1 0x40 MLOAD DUP1 SWAP2 SUB SWAP1 REVERT JUMPDEST PUSH2 0x9C7 DUP5 DUP3 DUP2 MLOAD DUP2 LT PUSH2 0x9BA JUMPI PUSH2 0x9B9 PUSH2 0x2340 JUMP JUMPDEST JUMPDEST PUSH1 0x20 MUL PUSH1 0x20 ADD ADD MLOAD PUSH2 0x6D1 JUMP JUMPDEST DUP3 DUP3 DUP2 MLOAD DUP2 LT PUSH2 0x9DA JUMPI PUSH2 0x9D9 PUSH2 0x2340 JUMP JUMPDEST JUMPDEST PUSH1 0x20 MUL PUSH1 0x20 ADD ADD DUP2 DUP2 MSTORE POP POP DUP1 DUP1 PUSH1 0x1 ADD SWAP2 POP POP PUSH2 0x93D JUMP JUMPDEST POP PUSH1 0x40 MLOAD DUP1 PUSH1 0xC0 ADD PUSH1 0x40 MSTORE DUP1 DUP9 DUP2 MSTORE PUSH1 0x20 ADD DUP8 DUP2 MSTORE PUSH1 0x20 ADD DUP7 DUP2 MSTORE PUSH1 0x20 ADD DUP6 DUP2 MSTORE PUSH1 0x20 ADD DUP5 DUP2 MSTORE PUSH1 0x20 ADD DUP3 DUP2 MSTORE POP PUSH1 0x1 PUSH0 DUP5 DUP2 MSTORE PUSH1 0x20 ADD SWAP1 DUP2 MSTORE PUSH1 0x20 ADD PUSH0 KECCAK256 PUSH0 DUP3 ADD MLOAD DUP2 PUSH0 ADD SWAP1 DUP2 PUSH2 0xA45 SWAP2 SWAP1 PUSH2 0x20DB JUMP JUMPDEST POP PUSH1 0x20 DUP3 ADD MLOAD DUP2 PUSH1 0x1 ADD SWAP1 DUP2 PUSH2 0xA5B SWAP2 SWAP1 PUSH2 0x20DB JUMP JUMPDEST POP PUSH1 0x40 DUP3 ADD MLOAD DUP2 PUSH1 0x2 ADD SSTORE PUSH1 0x60 DUP3 ADD MLOAD DUP2 PUSH1 0x3 ADD SWAP1 DUP1 MLOAD SWAP1 PUSH1 0x20 ADD SWAP1 PUSH2 0xA82 SWAP3 SWAP2 SWAP1 PUSH2 0x112B JUMP JUMPDEST POP PUSH1 0x80 DUP3 ADD MLOAD DUP2 PUSH1 0x4 ADD SWAP1 DUP1 MLOAD SWAP1 PUSH1 0x20 ADD SWAP1 PUSH2 0xA9F SWAP3 SWAP2 SWAP1 PUSH2 0x119B JUMP JUMPDEST POP PUSH1 0xA0 DUP3 ADD MLOAD DUP2 PUSH1 0x5 ADD SWAP1 DUP1 MLOAD SWAP1 PUSH1 0x20 ADD SWAP1 PUSH2 0xABC SWAP3 SWAP2 SWAP1 PUSH2 0x11E6 JUMP JUMPDEST POP SWAP1 POP POP PUSH1 0x5 PUSH0 DUP2 SLOAD DUP1 SWAP3 SWAP2 SWAP1 PUSH2 0xAD2 SWAP1 PUSH2 0x21D7 JUMP JUMPDEST SWAP2 SWAP1 POP SSTORE POP PUSH32 0x7A3CA1959C02CA697E03705BF9D6D67C3ACC38961B57C23A5F95FB0EF1C0CA00 DUP3 PUSH1 0x40 MLOAD PUSH2 0xB06 SWAP2 SWAP1 PUSH2 0x1784 JUMP JUMPDEST PUSH1 0x40 MLOAD DUP1 SWAP2 SUB SWAP1 LOG1 POP POP POP POP POP POP POP JUMP JUMPDEST PUSH2 0xB1F PUSH2 0x1231 JUMP JUMPDEST PUSH1 0x5 SLOAD DUP3 LT PUSH2 0xB63 JUMPI PUSH1 0x40 MLOAD PUSH32 0x8C379A000000000000000000000000000000000000000000000000000000000 DUP2 MSTORE PUSH1 0x4 ADD PUSH2 0xB5A SWAP1 PUSH2 0x2514 JUMP JUMPDEST PUSH1 0x40 MLOAD DUP1 SWAP2 SUB SWAP1 REVERT JUMPDEST PUSH1 0x1 PUSH0 DUP4 DUP2 MSTORE PUSH1 0x20 ADD SWAP1 DUP2 MSTORE PUSH1 0x20 ADD PUSH0 KECCAK256 PUSH1 0x40 MLOAD DUP1 PUSH1 0xC0 ADD PUSH1 0x40 MSTORE SWAP1 DUP2 PUSH0 DUP3 ADD DUP1 SLOAD PUSH2 0xB8E SWAP1 PUSH2 0x1F0E JUMP JUMPDEST DUP1 PUSH1 0x1F ADD PUSH1 0x20 DUP1 SWAP2 DIV MUL PUSH1 0x20 ADD PUSH1 0x40 MLOAD SWAP1 DUP2 ADD PUSH1 0x40 MSTORE DUP1 SWAP3 SWAP2 SWAP1 DUP2 DUP2 MSTORE PUSH1 0x20 ADD DUP3 DUP1 SLOAD PUSH2 0xBBA SWAP1 PUSH2 0x1F0E JUMP JUMPDEST DUP1 ISZERO PUSH2 0xC05 JUMPI DUP1 PUSH1 0x1F LT PUSH2 0xBDC JUMPI PUSH2 0x100 DUP1 DUP4 SLOAD DIV MUL DUP4 MSTORE SWAP2 PUSH1 0x20 ADD SWAP2 PUSH2 0xC05 JUMP JUMPDEST DUP3 ADD SWAP2 SWAP1 PUSH0 MSTORE PUSH1 0x20 PUSH0 KECCAK256 SWAP1 JUMPDEST DUP2 SLOAD DUP2 MSTORE SWAP1 PUSH1 0x1 ADD SWAP1 PUSH1 0x20 ADD DUP1 DUP4 GT PUSH2 0xBE8 JUMPI DUP3 SWAP1 SUB PUSH1 0x1F AND DUP3 ADD SWAP2 JUMPDEST POP POP POP POP POP DUP2 MSTORE PUSH1 0x20 ADD PUSH1 0x1 DUP3 ADD DUP1 SLOAD PUSH2 0xC1E SWAP1 PUSH2 0x1F0E JUMP JUMPDEST DUP1 PUSH1 0x1F ADD PUSH1 0x20 DUP1 SWAP2 DIV MUL PUSH1 0x20 ADD PUSH1 0x40 MLOAD SWAP1 DUP2 ADD PUSH1 0x40 MSTORE DUP1 SWAP3 SWAP2 SWAP1 DUP2 DUP2 MSTORE PUSH1 0x20 ADD DUP3 DUP1 SLOAD PUSH2 0xC4A SWAP1 PUSH2 0x1F0E JUMP JUMPDEST DUP1 ISZERO PUSH2 0xC95 JUMPI DUP1 PUSH1 0x1F LT PUSH2 0xC6C JUMPI PUSH2 0x100 DUP1 DUP4 SLOAD DIV MUL DUP4 MSTORE SWAP2 PUSH1 0x20 ADD SWAP2 PUSH2 0xC95 JUMP JUMPDEST DUP3 ADD SWAP2 SWAP1 PUSH0 MSTORE PUSH1 0x20 PUSH0 KECCAK256 SWAP1 JUMPDEST DUP2 SLOAD DUP2 MSTORE SWAP1 PUSH1 0x1 ADD SWAP1 PUSH1 0x20 ADD DUP1 DUP4 GT PUSH2 0xC78 JUMPI DUP3 SWAP1 SUB PUSH1 0x1F AND DUP3 ADD SWAP2 JUMPDEST POP POP POP POP POP DUP2 MSTORE PUSH1 0x20 ADD PUSH1 0x2 DUP3 ADD SLOAD DUP2 MSTORE PUSH1 0x20 ADD PUSH1 0x3 DUP3 ADD DUP1 SLOAD DUP1 PUSH1 0x20 MUL PUSH1 0x20 ADD PUSH1 0x40 MLOAD SWAP1 DUP2 ADD PUSH1 0x40 MSTORE DUP1 SWAP3 SWAP2 SWAP1 DUP2 DUP2 MSTORE PUSH1 0x20 ADD PUSH0 SWAP1 JUMPDEST DUP3 DUP3 LT ISZERO PUSH2 0xD74 JUMPI DUP4 DUP3 SWAP1 PUSH0 MSTORE PUSH1 0x20 PUSH0 KECCAK256 ADD DUP1 SLOAD PUSH2 0xCE9 SWAP1 PUSH2 0x1F0E JUMP JUMPDEST DUP1 PUSH1 0x1F ADD PUSH1 0x20 DUP1 SWAP2 DIV MUL PUSH1 0x20 ADD PUSH1 0x40 MLOAD SWAP1 DUP2 ADD PUSH1 0x40 MSTORE DUP1 SWAP3 SWAP2 SWAP1 DUP2 DUP2 MSTORE PUSH1 0x20 ADD DUP3 DUP1 SLOAD PUSH2 0xD15 SWAP1 PUSH2 0x1F0E JUMP JUMPDEST DUP1 ISZERO PUSH2 0xD60 JUMPI DUP1 PUSH1 0x1F LT PUSH2 0xD37 JUMPI PUSH2 0x100 DUP1 DUP4 SLOAD DIV MUL DUP4 MSTORE SWAP2 PUSH1 0x20 ADD SWAP2 PUSH2 0xD60 JUMP JUMPDEST DUP3 ADD SWAP2 SWAP1 PUSH0 MSTORE PUSH1 0x20 PUSH0 KECCAK256 SWAP1 JUMPDEST DUP2 SLOAD DUP2 MSTORE SWAP1 PUSH1 0x1 ADD SWAP1 PUSH1 0x20 ADD DUP1 DUP4 GT PUSH2 0xD43 JUMPI DUP3 SWAP1 SUB PUSH1 0x1F AND DUP3 ADD SWAP2 JUMPDEST POP POP POP POP POP DUP2 MSTORE PUSH1 0x20 ADD SWAP1 PUSH1 0x1 ADD SWAP1 PUSH2 0xCCC JUMP JUMPDEST POP POP POP POP DUP2 MSTORE PUSH1 0x20 ADD PUSH1 0x4 DUP3 ADD DUP1 SLOAD DUP1 PUSH1 0x20 MUL PUSH1 0x20 ADD PUSH1 0x40 MLOAD SWAP1 DUP2 ADD PUSH1 0x40 MSTORE DUP1 SWAP3 SWAP2 SWAP1 DUP2 DUP2 MSTORE PUSH1 0x20 ADD DUP3 DUP1 SLOAD DUP1 ISZERO PUSH2 0xDC9 JUMPI PUSH1 0x20 MUL DUP3 ADD SWAP2 SWAP1 PUSH0 MSTORE PUSH1 0x20 PUSH0 KECCAK256 SWAP1 JUMPDEST DUP2 SLOAD DUP2 MSTORE PUSH1 0x20 ADD SWAP1 PUSH1 0x1 ADD SWAP1 DUP1 DUP4 GT PUSH2 0xDB5 JUMPI JUMPDEST POP POP POP POP POP DUP2 MSTORE PUSH1 0x20 ADD PUSH1 0x5 DUP3 ADD DUP1 SLOAD DUP1 PUSH1 0x20 MUL PUSH1 0x20 ADD PUSH1 0x40 MLOAD SWAP1 DUP2 ADD PUSH1 0x40 MSTORE DUP1 SWAP3 SWAP2 SWAP1 DUP2 DUP2 MSTORE PUSH1 0x20 ADD DUP3 DUP1 SLOAD DUP1 ISZERO PUSH2 0xE1F JUMPI PUSH1 0x20 MUL DUP3 ADD SWAP2 SWAP1 PUSH0 MSTORE PUSH1 0x20 PUSH0 KECCAK256 SWAP1 JUMPDEST DUP2 SLOAD DUP2 MSTORE PUSH1 0x20 ADD SWAP1 PUSH1 0x1 ADD SWAP1 DUP1 DUP4 GT PUSH2 0xE0B JUMPI JUMPDEST POP POP POP POP POP DUP2 MSTORE POP POP SWAP1 POP SWAP2 SWAP1 POP JUMP JUMPDEST PUSH2 0xE37 PUSH2 0x1266 JUMP JUMPDEST PUSH1 0x7 SLOAD DUP3 LT PUSH2 0xE7B JUMPI PUSH1 0x40 MLOAD PUSH32 0x8C379A000000000000000000000000000000000000000000000000000000000 DUP2 MSTORE PUSH1 0x4 ADD PUSH2 0xE72 SWAP1 PUSH2 0x2268 JUMP JUMPDEST PUSH1 0x40 MLOAD DUP1 SWAP2 SUB SWAP1 REVERT JUMPDEST PUSH1 0x3 PUSH0 DUP4 DUP2 MSTORE PUSH1 0x20 ADD SWAP1 DUP2 MSTORE PUSH1 0x20 ADD PUSH0 KECCAK256 PUSH1 0x40 MLOAD DUP1 PUSH1 0xA0 ADD PUSH1 0x40 MSTORE SWAP1 DUP2 PUSH0 DUP3 ADD SLOAD DUP2 MSTORE PUSH1 0x20 ADD PUSH1 0x1 DUP3 ADD DUP1 SLOAD PUSH2 0xEB0 SWAP1 PUSH2 0x1F0E JUMP JUMPDEST DUP1 PUSH1 0x1F ADD PUSH1 0x20 DUP1 SWAP2 DIV MUL PUSH1 0x20 ADD PUSH1 0x40 MLOAD SWAP1 DUP2 ADD PUSH1 0x40 MSTORE DUP1 SWAP3 SWAP2 SWAP1 DUP2 DUP2 MSTORE PUSH1 0x20 ADD DUP3 DUP1 SLOAD PUSH2 0xEDC SWAP1 PUSH2 0x1F0E JUMP JUMPDEST DUP1 ISZERO PUSH2 0xF27 JUMPI DUP1 PUSH1 0x1F LT PUSH2 0xEFE JUMPI PUSH2 0x100 DUP1 DUP4 SLOAD DIV MUL DUP4 MSTORE SWAP2 PUSH1 0x20 ADD SWAP2 PUSH2 0xF27 JUMP JUMPDEST DUP3 ADD SWAP2 SWAP1 PUSH0 MSTORE PUSH1 0x20 PUSH0 KECCAK256 SWAP1 JUMPDEST DUP2 SLOAD DUP2 MSTORE SWAP1 PUSH1 0x1 ADD SWAP1 PUSH1 0x20 ADD DUP1 DUP4 GT PUSH2 0xF0A JUMPI DUP3 SWAP1 SUB PUSH1 0x1F AND DUP3 ADD SWAP2 JUMPDEST POP POP POP POP POP DUP2 MSTORE PUSH1 0x20 ADD PUSH1 0x2 DUP3 ADD DUP1 SLOAD PUSH2 0xF40 SWAP1 PUSH2 0x1F0E JUMP JUMPDEST DUP1 PUSH1 0x1F ADD PUSH1 0x20 DUP1 SWAP2 DIV MUL PUSH1 0x20 ADD PUSH1 0x40 MLOAD SWAP1 DUP2 ADD PUSH1 0x40 MSTORE DUP1 SWAP3 SWAP2 SWAP1 DUP2 DUP2 MSTORE PUSH1 0x20 ADD DUP3 DUP1 SLOAD PUSH2 0xF6C SWAP1 PUSH2 0x1F0E JUMP JUMPDEST DUP1 ISZERO PUSH2 0xFB7 JUMPI DUP1 PUSH1 0x1F LT PUSH2 0xF8E JUMPI PUSH2 0x100 DUP1 DUP4 SLOAD DIV MUL DUP4 MSTORE SWAP2 PUSH1 0x20 ADD SWAP2 PUSH2 0xFB7 JUMP JUMPDEST DUP3 ADD SWAP2 SWAP1 PUSH0 MSTORE PUSH1 0x20 PUSH0 KECCAK256 SWAP1 JUMPDEST DUP2 SLOAD DUP2 MSTORE SWAP1 PUSH1 0x1 ADD SWAP1 PUSH1 0x20 ADD DUP1 DUP4 GT PUSH2 0xF9A JUMPI DUP3 SWAP1 SUB PUSH1 0x1F AND DUP3 ADD SWAP2 JUMPDEST POP POP POP POP POP DUP2 MSTORE PUSH1 0x20 ADD PUSH1 0x3 DUP3 ADD DUP1 SLOAD PUSH2 0xFD0 SWAP1 PUSH2 0x1F0E JUMP JUMPDEST DUP1 PUSH1 0x1F ADD PUSH1 0x20 DUP1 SWAP2 DIV MUL PUSH1 0x20 ADD PUSH1 0x40 MLOAD SWAP1 DUP2 ADD PUSH1 0x40 MSTORE DUP1 SWAP3 SWAP2 SWAP1 DUP2 DUP2 MSTORE PUSH1 0x20 ADD DUP3 DUP1 SLOAD PUSH2 0xFFC SWAP1 PUSH2 0x1F0E JUMP JUMPDEST DUP1 ISZERO PUSH2 0x1047 JUMPI DUP1 PUSH1 0x1F LT PUSH2 0x101E JUMPI PUSH2 0x100 DUP1 DUP4 SLOAD DIV MUL DUP4 MSTORE SWAP2 PUSH1 0x20 ADD SWAP2 PUSH2 0x1047 JUMP JUMPDEST DUP3 ADD SWAP2 SWAP1 PUSH0 MSTORE PUSH1 0x20 PUSH0 KECCAK256 SWAP1 JUMPDEST DUP2 SLOAD DUP2 MSTORE SWAP1 PUSH1 0x1 ADD SWAP1 PUSH1 0x20 ADD DUP1 DUP4 GT PUSH2 0x102A JUMPI DUP3 SWAP1 SUB PUSH1 0x1F AND DUP3 ADD SWAP2 JUMPDEST POP POP POP POP POP DUP2 MSTORE PUSH1 0x20 ADD PUSH1 0x4 DUP3 ADD DUP1 SLOAD DUP1 PUSH1 0x20 MUL PUSH1 0x20 ADD PUSH1 0x40 MLOAD SWAP1 DUP2 ADD PUSH1 0x40 MSTORE DUP1 SWAP3 SWAP2 SWAP1 DUP2 DUP2 MSTORE PUSH1 0x20 ADD PUSH0 SWAP1 JUMPDEST DUP3 DUP3 LT ISZERO PUSH2 0x111C JUMPI DUP4 DUP3 SWAP1 PUSH0 MSTORE PUSH1 0x20 PUSH0 KECCAK256 ADD DUP1 SLOAD PUSH2 0x1091 SWAP1 PUSH2 0x1F0E JUMP JUMPDEST DUP1 PUSH1 0x1F ADD PUSH1 0x20 DUP1 SWAP2 DIV MUL PUSH1 0x20 ADD PUSH1 0x40 MLOAD SWAP1 DUP2 ADD PUSH1 0x40 MSTORE DUP1 SWAP3 SWAP2 SWAP1 DUP2 DUP2 MSTORE PUSH1 0x20 ADD DUP3 DUP1 SLOAD PUSH2 0x10BD SWAP1 PUSH2 0x1F0E JUMP JUMPDEST DUP1 ISZERO PUSH2 0x1108 JUMPI DUP1 PUSH1 0x1F LT PUSH2 0x10DF JUMPI PUSH2 0x100 DUP1 DUP4 SLOAD DIV MUL DUP4 MSTORE SWAP2 PUSH1 0x20 ADD SWAP2 PUSH2 0x1108 JUMP JUMPDEST DUP3 ADD SWAP2 SWAP1 PUSH0 MSTORE PUSH1 0x20 PUSH0 KECCAK256 SWAP1 JUMPDEST DUP2 SLOAD DUP2 MSTORE SWAP1 PUSH1 0x1 ADD SWAP1 PUSH1 0x20 ADD DUP1 DUP4 GT PUSH2 0x10EB JUMPI DUP3 SWAP1 SUB PUSH1 0x1F AND DUP3 ADD SWAP2 JUMPDEST POP POP POP POP POP DUP2 MSTORE PUSH1 0x20 ADD SWAP1 PUSH1 0x1 ADD SWAP1 PUSH2 0x1074 JUMP JUMPDEST POP POP POP POP DUP2 MSTORE POP POP SWAP1 POP SWAP2 SWAP1 POP JUMP JUMPDEST DUP3 DUP1 SLOAD DUP3 DUP3 SSTORE SWAP1 PUSH0 MSTORE PUSH1 0x20 PUSH0 KECCAK256 SWAP1 DUP2 ADD SWAP3 DUP3 ISZERO PUSH2 0x1171 JUMPI SWAP2 PUSH1 0x20 MUL DUP3 ADD JUMPDEST DUP3 DUP2 GT ISZERO PUSH2 0x1170 JUMPI DUP3 MLOAD DUP3 SWAP1 DUP2 PUSH2 0x1160 SWAP2 SWAP1 PUSH2 0x20DB JUMP JUMPDEST POP SWAP2 PUSH1 0x20 ADD SWAP2 SWAP1 PUSH1 0x1 ADD SWAP1 PUSH2 0x1149 JUMP JUMPDEST JUMPDEST POP SWAP1 POP PUSH2 0x117E SWAP2 SWAP1 PUSH2 0x1294 JUMP JUMPDEST POP SWAP1 JUMP JUMPDEST PUSH1 0x40 MLOAD DUP1 PUSH1 0x40 ADD PUSH1 0x40 MSTORE DUP1 PUSH0 DUP2 MSTORE PUSH1 0x20 ADD PUSH1 0x60 DUP2 MSTORE POP SWAP1 JUMP JUMPDEST DUP3 DUP1 SLOAD DUP3 DUP3 SSTORE SWAP1 PUSH0 MSTORE PUSH1 0x20 PUSH0 KECCAK256 SWAP1 DUP2 ADD SWAP3 DUP3 ISZERO PUSH2 0x11D5 JUMPI SWAP2 PUSH1 0x20 MUL DUP3 ADD JUMPDEST DUP3 DUP2 GT ISZERO PUSH2 0x11D4 JUMPI DUP3 MLOAD DUP3 SSTORE SWAP2 PUSH1 0x20 ADD SWAP2 SWAP1 PUSH1 0x1 ADD SWAP1 PUSH2 0x11B9 JUMP JUMPDEST JUMPDEST POP SWAP1 POP PUSH2 0x11E2 SWAP2 SWAP1 PUSH2 0x12B7 JUMP JUMPDEST POP SWAP1 JUMP JUMPDEST DUP3 DUP1 SLOAD DUP3 DUP3 SSTORE SWAP1 PUSH0 MSTORE PUSH1 0x20 PUSH0 KECCAK256 SWAP1 DUP2 ADD SWAP3 DUP3 ISZERO PUSH2 0x1220 JUMPI SWAP2 PUSH1 0x20 MUL DUP3 ADD JUMPDEST DUP3 DUP2 GT ISZERO PUSH2 0x121F JUMPI DUP3 MLOAD DUP3 SSTORE SWAP2 PUSH1 0x20 ADD SWAP2 SWAP1 PUSH1 0x1 ADD SWAP1 PUSH2 0x1204 JUMP JUMPDEST JUMPDEST POP SWAP1 POP PUSH2 0x122D SWAP2 SWAP1 PUSH2 0x12D2 JUMP JUMPDEST POP SWAP1 JUMP JUMPDEST PUSH1 0x40 MLOAD DUP1 PUSH1 0xC0 ADD PUSH1 0x40 MSTORE DUP1 PUSH1 0x60 DUP2 MSTORE PUSH1 0x20 ADD PUSH1 0x60 DUP2 MSTORE PUSH1 0x20 ADD PUSH0 DUP2 MSTORE PUSH1 0x20 ADD PUSH1 0x60 DUP2 MSTORE PUSH1 0x20 ADD PUSH1 0x60 DUP2 MSTORE PUSH1 0x20 ADD PUSH1 0x60 DUP2 MSTORE POP SWAP1 JUMP JUMPDEST PUSH1 0x40 MLOAD DUP1 PUSH1 0xA0 ADD PUSH1 0x40 MSTORE DUP1 PUSH0 DUP2 MSTORE PUSH1 0x20 ADD PUSH1 0x60 DUP2 MSTORE PUSH1 0x20 ADD PUSH1 0x60 DUP2 MSTORE PUSH1 0x20 ADD PUSH1 0x60 DUP2 MSTORE PUSH1 0x20 ADD PUSH1 0x60 DUP2 MSTORE POP SWAP1 JUMP JUMPDEST JUMPDEST DUP1 DUP3 GT ISZERO PUSH2 0x12B3 JUMPI PUSH0 DUP2 DUP2 PUSH2 0x12AA SWAP2 SWAP1 PUSH2 0x12ED JUMP JUMPDEST POP PUSH1 0x1 ADD PUSH2 0x1295 JUMP JUMPDEST POP SWAP1 JUMP JUMPDEST JUMPDEST DUP1 DUP3 GT ISZERO PUSH2 0x12CE JUMPI PUSH0 DUP2 PUSH0 SWAP1 SSTORE POP PUSH1 0x1 ADD PUSH2 0x12B8 JUMP JUMPDEST POP SWAP1 JUMP JUMPDEST JUMPDEST DUP1 DUP3 GT ISZERO PUSH2 0x12E9 JUMPI PUSH0 DUP2 PUSH0 SWAP1 SSTORE POP PUSH1 0x1 ADD PUSH2 0x12D3 JUMP JUMPDEST POP SWAP1 JUMP JUMPDEST POP DUP1 SLOAD PUSH2 0x12F9 SWAP1 PUSH2 0x1F0E JUMP JUMPDEST PUSH0 DUP3 SSTORE DUP1 PUSH1 0x1F LT PUSH2 0x130A JUMPI POP PUSH2 0x1327 JUMP JUMPDEST PUSH1 0x1F ADD PUSH1 0x20 SWAP1 DIV SWAP1 PUSH0 MSTORE PUSH1 0x20 PUSH0 KECCAK256 SWAP1 DUP2 ADD SWAP1 PUSH2 0x1326 SWAP2 SWAP1 PUSH2 0x12B7 JUMP JUMPDEST JUMPDEST POP JUMP JUMPDEST PUSH0 PUSH1 0x40 MLOAD SWAP1 POP SWAP1 JUMP JUMPDEST PUSH0 DUP1 REVERT JUMPDEST PUSH0 DUP1 REVERT JUMPDEST PUSH0 DUP2 SWAP1 POP SWAP2 SWAP1 POP JUMP JUMPDEST PUSH2 0x134D DUP2 PUSH2 0x133B JUMP JUMPDEST DUP2 EQ PUSH2 0x1357 JUMPI PUSH0 DUP1 REVERT JUMPDEST POP JUMP JUMPDEST PUSH0 DUP2 CALLDATALOAD SWAP1 POP PUSH2 0x1368 DUP2 PUSH2 0x1344 JUMP JUMPDEST SWAP3 SWAP2 POP POP JUMP JUMPDEST PUSH0 DUP1 REVERT JUMPDEST PUSH0 DUP1 REVERT JUMPDEST PUSH0 PUSH1 0x1F NOT PUSH1 0x1F DUP4 ADD AND SWAP1 POP SWAP2 SWAP1 POP JUMP JUMPDEST PUSH32 0x4E487B7100000000000000000000000000000000000000000000000000000000 PUSH0 MSTORE PUSH1 0x41 PUSH1 0x4 MSTORE PUSH1 0x24 PUSH0 REVERT JUMPDEST PUSH2 0x13BC DUP3 PUSH2 0x1376 JUMP JUMPDEST DUP2 ADD DUP2 DUP2 LT PUSH8 0xFFFFFFFFFFFFFFFF DUP3 GT OR ISZERO PUSH2 0x13DB JUMPI PUSH2 0x13DA PUSH2 0x1386 JUMP JUMPDEST JUMPDEST DUP1 PUSH1 0x40 MSTORE POP POP POP JUMP JUMPDEST PUSH0 PUSH2 0x13ED PUSH2 0x132A JUMP JUMPDEST SWAP1 POP PUSH2 0x13F9 DUP3 DUP3 PUSH2 0x13B3 JUMP JUMPDEST SWAP2 SWAP1 POP JUMP JUMPDEST PUSH0 PUSH8 0xFFFFFFFFFFFFFFFF DUP3 GT ISZERO PUSH2 0x1418 JUMPI PUSH2 0x1417 PUSH2 0x1386 JUMP JUMPDEST JUMPDEST PUSH2 0x1421 DUP3 PUSH2 0x1376 JUMP JUMPDEST SWAP1 POP PUSH1 0x20 DUP2 ADD SWAP1 POP SWAP2 SWAP1 POP JUMP JUMPDEST DUP3 DUP2 DUP4 CALLDATACOPY PUSH0 DUP4 DUP4 ADD MSTORE POP POP POP JUMP JUMPDEST PUSH0 PUSH2 0x144E PUSH2 0x1449 DUP5 PUSH2 0x13FE JUMP JUMPDEST PUSH2 0x13E4 JUMP JUMPDEST SWAP1 POP DUP3 DUP2 MSTORE PUSH1 0x20 DUP2 ADD DUP5 DUP5 DUP5 ADD GT ISZERO PUSH2 0x146A JUMPI PUSH2 0x1469 PUSH2 0x1372 JUMP JUMPDEST JUMPDEST PUSH2 0x1475 DUP5 DUP3 DUP6 PUSH2 0x142E JUMP JUMPDEST POP SWAP4 SWAP3 POP POP POP JUMP JUMPDEST PUSH0 DUP3 PUSH1 0x1F DUP4 ADD SLT PUSH2 0x1491 JUMPI PUSH2 0x1490 PUSH2 0x136E JUMP JUMPDEST JUMPDEST DUP2 CALLDATALOAD PUSH2 0x14A1 DUP5 DUP3 PUSH1 0x20 DUP7 ADD PUSH2 0x143C JUMP JUMPDEST SWAP2 POP POP SWAP3 SWAP2 POP POP JUMP JUMPDEST PUSH0 PUSH8 0xFFFFFFFFFFFFFFFF DUP3 GT ISZERO PUSH2 0x14C4 JUMPI PUSH2 0x14C3 PUSH2 0x1386 JUMP JUMPDEST JUMPDEST PUSH1 0x20 DUP3 MUL SWAP1 POP PUSH1 0x20 DUP2 ADD SWAP1 POP SWAP2 SWAP1 POP JUMP JUMPDEST PUSH0 DUP1 REVERT JUMPDEST PUSH0 PUSH2 0x14EB PUSH2 0x14E6 DUP5 PUSH2 0x14AA JUMP JUMPDEST PUSH2 0x13E4 JUMP JUMPDEST SWAP1 POP DUP1 DUP4 DUP3 MSTORE PUSH1 0x20 DUP3 ADD SWAP1 POP PUSH1 0x20 DUP5 MUL DUP4 ADD DUP6 DUP2 GT ISZERO PUSH2 0x150E JUMPI PUSH2 0x150D PUSH2 0x14D5 JUMP JUMPDEST JUMPDEST DUP4 JUMPDEST DUP2 DUP2 LT ISZERO PUSH2 0x1555 JUMPI DUP1 CALLDATALOAD PUSH8 0xFFFFFFFFFFFFFFFF DUP2 GT ISZERO PUSH2 0x1533 JUMPI PUSH2 0x1532 PUSH2 0x136E JUMP JUMPDEST JUMPDEST DUP1 DUP7 ADD PUSH2 0x1540 DUP10 DUP3 PUSH2 0x147D JUMP JUMPDEST DUP6 MSTORE PUSH1 0x20 DUP6 ADD SWAP5 POP POP POP PUSH1 0x20 DUP2 ADD SWAP1 POP PUSH2 0x1510 JUMP JUMPDEST POP POP POP SWAP4 SWAP3 POP POP POP JUMP JUMPDEST PUSH0 DUP3 PUSH1 0x1F DUP4 ADD SLT PUSH2 0x1573 JUMPI PUSH2 0x1572 PUSH2 0x136E JUMP JUMPDEST JUMPDEST DUP2 CALLDATALOAD PUSH2 0x1583 DUP5 DUP3 PUSH1 0x20 DUP7 ADD PUSH2 0x14D9 JUMP JUMPDEST SWAP2 POP POP SWAP3 SWAP2 POP POP JUMP JUMPDEST PUSH0 DUP1 PUSH0 DUP1 PUSH0 PUSH1 0xA0 DUP7 DUP9 SUB SLT ISZERO PUSH2 0x15A5 JUMPI PUSH2 0x15A4 PUSH2 0x1333 JUMP JUMPDEST JUMPDEST PUSH0 PUSH2 0x15B2 DUP9 DUP3 DUP10 ADD PUSH2 0x135A JUMP JUMPDEST SWAP6 POP POP PUSH1 0x20 DUP7 ADD CALLDATALOAD PUSH8 0xFFFFFFFFFFFFFFFF DUP2 GT ISZERO PUSH2 0x15D3 JUMPI PUSH2 0x15D2 PUSH2 0x1337 JUMP JUMPDEST JUMPDEST PUSH2 0x15DF DUP9 DUP3 DUP10 ADD PUSH2 0x147D JUMP JUMPDEST SWAP5 POP POP PUSH1 0x40 DUP7 ADD CALLDATALOAD PUSH8 0xFFFFFFFFFFFFFFFF DUP2 GT ISZERO PUSH2 0x1600 JUMPI PUSH2 0x15FF PUSH2 0x1337 JUMP JUMPDEST JUMPDEST PUSH2 0x160C DUP9 DUP3 DUP10 ADD PUSH2 0x147D JUMP JUMPDEST SWAP4 POP POP PUSH1 0x60 DUP7 ADD CALLDATALOAD PUSH8 0xFFFFFFFFFFFFFFFF DUP2 GT ISZERO PUSH2 0x162D JUMPI PUSH2 0x162C PUSH2 0x1337 JUMP JUMPDEST JUMPDEST PUSH2 0x1639 DUP9 DUP3 DUP10 ADD PUSH2 0x147D JUMP JUMPDEST SWAP3 POP POP PUSH1 0x80 DUP7 ADD CALLDATALOAD PUSH8 0xFFFFFFFFFFFFFFFF DUP2 GT ISZERO PUSH2 0x165A JUMPI PUSH2 0x1659 PUSH2 0x1337 JUMP JUMPDEST JUMPDEST PUSH2 0x1666 DUP9 DUP3 DUP10 ADD PUSH2 0x155F JUMP JUMPDEST SWAP2 POP POP SWAP3 SWAP6 POP SWAP3 SWAP6 SWAP1 SWAP4 POP JUMP JUMPDEST PUSH0 DUP2 MLOAD SWAP1 POP SWAP2 SWAP1 POP JUMP JUMPDEST PUSH0 DUP3 DUP3 MSTORE PUSH1 0x20 DUP3 ADD SWAP1 POP SWAP3 SWAP2 POP POP JUMP JUMPDEST PUSH0 DUP2 SWAP1 POP PUSH1 0x20 DUP3 ADD SWAP1 POP SWAP2 SWAP1 POP JUMP JUMPDEST PUSH2 0x16A5 DUP2 PUSH2 0x133B JUMP JUMPDEST DUP3 MSTORE POP POP JUMP JUMPDEST PUSH0 PUSH2 0x16B6 DUP4 DUP4 PUSH2 0x169C JUMP JUMPDEST PUSH1 0x20 DUP4 ADD SWAP1 POP SWAP3 SWAP2 POP POP JUMP JUMPDEST PUSH0 PUSH1 0x20 DUP3 ADD SWAP1 POP SWAP2 SWAP1 POP JUMP JUMPDEST PUSH0 PUSH2 0x16D8 DUP3 PUSH2 0x1673 JUMP JUMPDEST PUSH2 0x16E2 DUP2 DUP6 PUSH2 0x167D JUMP JUMPDEST SWAP4 POP PUSH2 0x16ED DUP4 PUSH2 0x168D JUMP JUMPDEST DUP1 PUSH0 JUMPDEST DUP4 DUP2 LT ISZERO PUSH2 0x171D JUMPI DUP2 MLOAD PUSH2 0x1704 DUP9 DUP3 PUSH2 0x16AB JUMP JUMPDEST SWAP8 POP PUSH2 0x170F DUP4 PUSH2 0x16C2 JUMP JUMPDEST SWAP3 POP POP PUSH1 0x1 DUP2 ADD SWAP1 POP PUSH2 0x16F0 JUMP JUMPDEST POP DUP6 SWAP4 POP POP POP POP SWAP3 SWAP2 POP POP JUMP JUMPDEST PUSH0 PUSH1 0x20 DUP3 ADD SWAP1 POP DUP2 DUP2 SUB PUSH0 DUP4 ADD MSTORE PUSH2 0x1742 DUP2 DUP5 PUSH2 0x16CE JUMP JUMPDEST SWAP1 POP SWAP3 SWAP2 POP POP JUMP JUMPDEST PUSH0 PUSH1 0x20 DUP3 DUP5 SUB SLT ISZERO PUSH2 0x175F JUMPI PUSH2 0x175E PUSH2 0x1333 JUMP JUMPDEST JUMPDEST PUSH0 PUSH2 0x176C DUP5 DUP3 DUP6 ADD PUSH2 0x135A JUMP JUMPDEST SWAP2 POP POP SWAP3 SWAP2 POP POP JUMP JUMPDEST PUSH2 0x177E DUP2 PUSH2 0x133B JUMP JUMPDEST DUP3 MSTORE POP POP JUMP JUMPDEST PUSH0 PUSH1 0x20 DUP3 ADD SWAP1 POP PUSH2 0x1797 PUSH0 DUP4 ADD DUP5 PUSH2 0x1775 JUMP JUMPDEST SWAP3 SWAP2 POP POP JUMP JUMPDEST PUSH0 DUP1 PUSH1 0x40 DUP4 DUP6 SUB SLT ISZERO PUSH2 0x17B3 JUMPI PUSH2 0x17B2 PUSH2 0x1333 JUMP JUMPDEST JUMPDEST PUSH0 PUSH2 0x17C0 DUP6 DUP3 DUP7 ADD PUSH2 0x135A JUMP JUMPDEST SWAP3 POP POP PUSH1 0x20 DUP4 ADD CALLDATALOAD PUSH8 0xFFFFFFFFFFFFFFFF DUP2 GT ISZERO PUSH2 0x17E1 JUMPI PUSH2 0x17E0 PUSH2 0x1337 JUMP JUMPDEST JUMPDEST PUSH2 0x17ED DUP6 DUP3 DUP7 ADD PUSH2 0x147D JUMP JUMPDEST SWAP2 POP POP SWAP3 POP SWAP3 SWAP1 POP JUMP JUMPDEST PUSH0 PUSH20 0xFFFFFFFFFFFFFFFFFFFFFFFFFFFFFFFFFFFFFFFF DUP3 AND SWAP1 POP SWAP2 SWAP1 POP JUMP JUMPDEST PUSH0 PUSH2 0x1820 DUP3 PUSH2 0x17F7 JUMP JUMPDEST SWAP1 POP SWAP2 SWAP1 POP JUMP JUMPDEST PUSH2 0x1830 DUP2 PUSH2 0x1816 JUMP JUMPDEST DUP3 MSTORE POP POP JUMP JUMPDEST PUSH0 PUSH1 0x20 DUP3 ADD SWAP1 POP PUSH2 0x1849 PUSH0 DUP4 ADD DUP5 PUSH2 0x1827 JUMP JUMPDEST SWAP3 SWAP2 POP POP JUMP JUMPDEST PUSH0 DUP2 SWAP1 POP SWAP2 SWAP1 POP JUMP JUMPDEST PUSH2 0x1861 DUP2 PUSH2 0x184F JUMP JUMPDEST DUP3 MSTORE POP POP JUMP JUMPDEST PUSH0 PUSH1 0x20 DUP3 ADD SWAP1 POP PUSH2 0x187A PUSH0 DUP4 ADD DUP5 PUSH2 0x1858 JUMP JUMPDEST SWAP3 SWAP2 POP POP JUMP JUMPDEST PUSH0 DUP2 MLOAD SWAP1 POP SWAP2 SWAP1 POP JUMP JUMPDEST PUSH0 DUP3 DUP3 MSTORE PUSH1 0x20 DUP3 ADD SWAP1 POP SWAP3 SWAP2 POP POP JUMP JUMPDEST PUSH0 JUMPDEST DUP4 DUP2 LT ISZERO PUSH2 0x18B7 JUMPI DUP1 DUP3 ADD MLOAD DUP2 DUP5 ADD MSTORE PUSH1 0x20 DUP2 ADD SWAP1 POP PUSH2 0x189C JUMP JUMPDEST PUSH0 DUP5 DUP5 ADD MSTORE POP POP POP POP JUMP JUMPDEST PUSH0 PUSH2 0x18CC DUP3 PUSH2 0x1880 JUMP JUMPDEST PUSH2 0x18D6 DUP2 DUP6 PUSH2 0x188A JUMP JUMPDEST SWAP4 POP PUSH2 0x18E6 DUP2 DUP6 PUSH1 0x20 DUP7 ADD PUSH2 0x189A JUMP JUMPDEST PUSH2 0x18EF DUP2 PUSH2 0x1376 JUMP JUMPDEST DUP5 ADD SWAP2 POP POP SWAP3 SWAP2 POP POP JUMP JUMPDEST PUSH0 PUSH1 0x40 DUP4 ADD PUSH0 DUP4 ADD MLOAD PUSH2 0x190F PUSH0 DUP7 ADD DUP3 PUSH2 0x169C JUMP JUMPDEST POP PUSH1 0x20 DUP4 ADD MLOAD DUP5 DUP3 SUB PUSH1 0x20 DUP7 ADD MSTORE PUSH2 0x1927 DUP3 DUP3 PUSH2 0x18C2 JUMP JUMPDEST SWAP2 POP POP DUP1 SWAP2 POP POP SWAP3 SWAP2 POP POP JUMP JUMPDEST PUSH0 PUSH1 0x20 DUP3 ADD SWAP1 POP DUP2 DUP2 SUB PUSH0 DUP4 ADD MSTORE PUSH2 0x194C DUP2 DUP5 PUSH2 0x18FA JUMP JUMPDEST SWAP1 POP SWAP3 SWAP2 POP POP JUMP JUMPDEST PUSH0 PUSH8 0xFFFFFFFFFFFFFFFF DUP3 GT ISZERO PUSH2 0x196E JUMPI PUSH2 0x196D PUSH2 0x1386 JUMP JUMPDEST JUMPDEST PUSH1 0x20 DUP3 MUL SWAP1 POP PUSH1 0x20 DUP2 ADD SWAP1 POP SWAP2 SWAP1 POP JUMP JUMPDEST PUSH0 PUSH2 0x1991 PUSH2 0x198C DUP5 PUSH2 0x1954 JUMP JUMPDEST PUSH2 0x13E4 JUMP JUMPDEST SWAP1 POP DUP1 DUP4 DUP3 MSTORE PUSH1 0x20 DUP3 ADD SWAP1 POP PUSH1 0x20 DUP5 MUL DUP4 ADD DUP6 DUP2 GT ISZERO PUSH2 0x19B4 JUMPI PUSH2 0x19B3 PUSH2 0x14D5 JUMP JUMPDEST JUMPDEST DUP4 JUMPDEST DUP2 DUP2 LT ISZERO PUSH2 0x19DD JUMPI DUP1 PUSH2 0x19C9 DUP9 DUP3 PUSH2 0x135A JUMP JUMPDEST DUP5 MSTORE PUSH1 0x20 DUP5 ADD SWAP4 POP POP PUSH1 0x20 DUP2 ADD SWAP1 POP PUSH2 0x19B6 JUMP JUMPDEST POP POP POP SWAP4 SWAP3 POP POP POP JUMP JUMPDEST PUSH0 DUP3 PUSH1 0x1F DUP4 ADD SLT PUSH2 0x19FB JUMPI PUSH2 0x19FA PUSH2 0x136E JUMP JUMPDEST JUMPDEST DUP2 CALLDATALOAD PUSH2 0x1A0B DUP5 DUP3 PUSH1 0x20 DUP7 ADD PUSH2 0x197F JUMP JUMPDEST SWAP2 POP POP SWAP3 SWAP2 POP POP JUMP JUMPDEST PUSH0 DUP1 PUSH0 DUP1 PUSH0 PUSH1 0xA0 DUP7 DUP9 SUB SLT ISZERO PUSH2 0x1A2D JUMPI PUSH2 0x1A2C PUSH2 0x1333 JUMP JUMPDEST JUMPDEST PUSH0 DUP7 ADD CALLDATALOAD PUSH8 0xFFFFFFFFFFFFFFFF DUP2 GT ISZERO PUSH2 0x1A4A JUMPI PUSH2 0x1A49 PUSH2 0x1337 JUMP JUMPDEST JUMPDEST PUSH2 0x1A56 DUP9 DUP3 DUP10 ADD PUSH2 0x147D JUMP JUMPDEST SWAP6 POP POP PUSH1 0x20 DUP7 ADD CALLDATALOAD PUSH8 0xFFFFFFFFFFFFFFFF DUP2 GT ISZERO PUSH2 0x1A77 JUMPI PUSH2 0x1A76 PUSH2 0x1337 JUMP JUMPDEST JUMPDEST PUSH2 0x1A83 DUP9 DUP3 DUP10 ADD PUSH2 0x147D JUMP JUMPDEST SWAP5 POP POP PUSH1 0x40 PUSH2 0x1A94 DUP9 DUP3 DUP10 ADD PUSH2 0x135A JUMP JUMPDEST SWAP4 POP POP PUSH1 0x60 DUP7 ADD CALLDATALOAD PUSH8 0xFFFFFFFFFFFFFFFF DUP2 GT ISZERO PUSH2 0x1AB5 JUMPI PUSH2 0x1AB4 PUSH2 0x1337 JUMP JUMPDEST JUMPDEST PUSH2 0x1AC1 DUP9 DUP3 DUP10 ADD PUSH2 0x155F JUMP JUMPDEST SWAP3 POP POP PUSH1 0x80 DUP7 ADD CALLDATALOAD PUSH8 0xFFFFFFFFFFFFFFFF DUP2 GT ISZERO PUSH2 0x1AE2 JUMPI PUSH2 0x1AE1 PUSH2 0x1337 JUMP JUMPDEST JUMPDEST PUSH2 0x1AEE DUP9 DUP3 DUP10 ADD PUSH2 0x19E7 JUMP JUMPDEST SWAP2 POP POP SWAP3 SWAP6 POP SWAP3 SWAP6 SWAP1 SWAP4 POP JUMP JUMPDEST PUSH0 DUP2 MLOAD SWAP1 POP SWAP2 SWAP1 POP JUMP JUMPDEST PUSH0 DUP3 DUP3 MSTORE PUSH1 0x20 DUP3 ADD SWAP1 POP SWAP3 SWAP2 POP POP JUMP JUMPDEST PUSH0 DUP2 SWAP1 POP PUSH1 0x20 DUP3 ADD SWAP1 POP SWAP2 SWAP1 POP JUMP JUMPDEST PUSH0 PUSH2 0x1B2F DUP4 DUP4 PUSH2 0x18C2 JUMP JUMPDEST SWAP1 POP SWAP3 SWAP2 POP POP JUMP JUMPDEST PUSH0 PUSH1 0x20 DUP3 ADD SWAP1 POP SWAP2 SWAP1 POP JUMP JUMPDEST PUSH0 PUSH2 0x1B4D DUP3 PUSH2 0x1AFB JUMP JUMPDEST PUSH2 0x1B57 DUP2 DUP6 PUSH2 0x1B05 JUMP JUMPDEST SWAP4 POP DUP4 PUSH1 0x20 DUP3 MUL DUP6 ADD PUSH2 0x1B69 DUP6 PUSH2 0x1B15 JUMP JUMPDEST DUP1 PUSH0 JUMPDEST DUP6 DUP2 LT ISZERO PUSH2 0x1BA4 JUMPI DUP5 DUP5 SUB DUP10 MSTORE DUP2 MLOAD PUSH2 0x1B85 DUP6 DUP3 PUSH2 0x1B24 JUMP JUMPDEST SWAP5 POP PUSH2 0x1B90 DUP4 PUSH2 0x1B37 JUMP JUMPDEST SWAP3 POP PUSH1 0x20 DUP11 ADD SWAP10 POP POP PUSH1 0x1 DUP2 ADD SWAP1 POP PUSH2 0x1B6C JUMP JUMPDEST POP DUP3 SWAP8 POP DUP8 SWAP6 POP POP POP POP POP POP SWAP3 SWAP2 POP POP JUMP JUMPDEST PUSH0 DUP3 DUP3 MSTORE PUSH1 0x20 DUP3 ADD SWAP1 POP SWAP3 SWAP2 POP POP JUMP JUMPDEST PUSH0 PUSH2 0x1BD0 DUP3 PUSH2 0x1673 JUMP JUMPDEST PUSH2 0x1BDA DUP2 DUP6 PUSH2 0x1BB6 JUMP JUMPDEST SWAP4 POP PUSH2 0x1BE5 DUP4 PUSH2 0x168D JUMP JUMPDEST DUP1 PUSH0 JUMPDEST DUP4 DUP2 LT ISZERO PUSH2 0x1C15 JUMPI DUP2 MLOAD PUSH2 0x1BFC DUP9 DUP3 PUSH2 0x16AB JUMP JUMPDEST SWAP8 POP PUSH2 0x1C07 DUP4 PUSH2 0x16C2 JUMP JUMPDEST SWAP3 POP POP PUSH1 0x1 DUP2 ADD SWAP1 POP PUSH2 0x1BE8 JUMP JUMPDEST POP DUP6 SWAP4 POP POP POP POP SWAP3 SWAP2 POP POP JUMP JUMPDEST PUSH0 DUP2 MLOAD SWAP1 POP SWAP2 SWAP1 POP JUMP JUMPDEST PUSH0 DUP3 DUP3 MSTORE PUSH1 0x20 DUP3 ADD SWAP1 POP SWAP3 SWAP2 POP POP JUMP JUMPDEST PUSH0 DUP2 SWAP1 POP PUSH1 0x20 DUP3 ADD SWAP1 POP SWAP2 SWAP1 POP JUMP JUMPDEST PUSH2 0x1C54 DUP2 PUSH2 0x184F JUMP JUMPDEST DUP3 MSTORE POP POP JUMP JUMPDEST PUSH0 PUSH2 0x1C65 DUP4 DUP4 PUSH2 0x1C4B JUMP JUMPDEST PUSH1 0x20 DUP4 ADD SWAP1 POP SWAP3 SWAP2 POP POP JUMP JUMPDEST PUSH0 PUSH1 0x20 DUP3 ADD SWAP1 POP SWAP2 SWAP1 POP JUMP JUMPDEST PUSH0 PUSH2 0x1C87 DUP3 PUSH2 0x1C22 JUMP JUMPDEST PUSH2 0x1C91 DUP2 DUP6 PUSH2 0x1C2C JUMP JUMPDEST SWAP4 POP PUSH2 0x1C9C DUP4 PUSH2 0x1C3C JUMP JUMPDEST DUP1 PUSH0 JUMPDEST DUP4 DUP2 LT ISZERO PUSH2 0x1CCC JUMPI DUP2 MLOAD PUSH2 0x1CB3 DUP9 DUP3 PUSH2 0x1C5A JUMP JUMPDEST SWAP8 POP PUSH2 0x1CBE DUP4 PUSH2 0x1C71 JUMP JUMPDEST SWAP3 POP POP PUSH1 0x1 DUP2 ADD SWAP1 POP PUSH2 0x1C9F JUMP JUMPDEST POP DUP6 SWAP4 POP POP POP POP SWAP3 SWAP2 POP POP JUMP JUMPDEST PUSH0 PUSH1 0xC0 DUP4 ADD PUSH0 DUP4 ADD MLOAD DUP5 DUP3 SUB PUSH0 DUP7 ADD MSTORE PUSH2 0x1CF3 DUP3 DUP3 PUSH2 0x18C2 JUMP JUMPDEST SWAP2 POP POP PUSH1 0x20 DUP4 ADD MLOAD DUP5 DUP3 SUB PUSH1 0x20 DUP7 ADD MSTORE PUSH2 0x1D0D DUP3 DUP3 PUSH2 0x18C2 JUMP JUMPDEST SWAP2 POP POP PUSH1 0x40 DUP4 ADD MLOAD PUSH2 0x1D22 PUSH1 0x40 DUP7 ADD DUP3 PUSH2 0x169C JUMP JUMPDEST POP PUSH1 0x60 DUP4 ADD MLOAD DUP5 DUP3 SUB PUSH1 0x60 DUP7 ADD MSTORE PUSH2 0x1D3A DUP3 DUP3 PUSH2 0x1B43 JUMP JUMPDEST SWAP2 POP POP PUSH1 0x80 DUP4 ADD MLOAD DUP5 DUP3 SUB PUSH1 0x80 DUP7 ADD MSTORE PUSH2 0x1D54 DUP3 DUP3 PUSH2 0x1BC6 JUMP JUMPDEST SWAP2 POP POP PUSH1 0xA0 DUP4 ADD MLOAD DUP5 DUP3 SUB PUSH1 0xA0 DUP7 ADD MSTORE PUSH2 0x1D6E DUP3 DUP3 PUSH2 0x1C7D JUMP JUMPDEST SWAP2 POP POP DUP1 SWAP2 POP POP SWAP3 SWAP2 POP POP JUMP JUMPDEST PUSH0 PUSH1 0x20 DUP3 ADD SWAP1 POP DUP2 DUP2 SUB PUSH0 DUP4 ADD MSTORE PUSH2 0x1D93 DUP2 DUP5 PUSH2 0x1CD9 JUMP JUMPDEST SWAP1 POP SWAP3 SWAP2 POP POP JUMP JUMPDEST PUSH0 PUSH1 0xA0 DUP4 ADD PUSH0 DUP4 ADD MLOAD PUSH2 0x1DB0 PUSH0 DUP7 ADD DUP3 PUSH2 0x169C JUMP JUMPDEST POP PUSH1 0x20 DUP4 ADD MLOAD DUP5 DUP3 SUB PUSH1 0x20 DUP7 ADD MSTORE PUSH2 0x1DC8 DUP3 DUP3 PUSH2 0x18C2 JUMP JUMPDEST SWAP2 POP POP PUSH1 0x40 DUP4 ADD MLOAD DUP5 DUP3 SUB PUSH1 0x40 DUP7 ADD MSTORE PUSH2 0x1DE2 DUP3 DUP3 PUSH2 0x18C2 JUMP JUMPDEST SWAP2 POP POP PUSH1 0x60 DUP4 ADD MLOAD DUP5 DUP3 SUB PUSH1 0x60 DUP7 ADD MSTORE PUSH2 0x1DFC DUP3 DUP3 PUSH2 0x18C2 JUMP JUMPDEST SWAP2 POP POP PUSH1 0x80 DUP4 ADD MLOAD DUP5 DUP3 SUB PUSH1 0x80 DUP7 ADD MSTORE PUSH2 0x1E16 DUP3 DUP3 PUSH2 0x1B43 JUMP JUMPDEST SWAP2 POP POP DUP1 SWAP2 POP POP SWAP3 SWAP2 POP POP JUMP JUMPDEST PUSH0 PUSH1 0x20 DUP3 ADD SWAP1 POP DUP2 DUP2 SUB PUSH0 DUP4 ADD MSTORE PUSH2 0x1E3B DUP2 DUP5 PUSH2 0x1D9B JUMP JUMPDEST SWAP1 POP SWAP3 SWAP2 POP POP JUMP JUMPDEST PUSH0 DUP3 DUP3 MSTORE PUSH1 0x20 DUP3 ADD SWAP1 POP SWAP3 SWAP2 POP POP JUMP JUMPDEST PUSH32 0x4F6E6C792074686520636F6E7472616374206F776E65722063616E2070657266 PUSH0 DUP3 ADD MSTORE PUSH32 0x6F726D2074686973206F7065726174696F6E0000000000000000000000000000 PUSH1 0x20 DUP3 ADD MSTORE POP JUMP JUMPDEST PUSH0 PUSH2 0x1EAD PUSH1 0x32 DUP4 PUSH2 0x1E43 JUMP JUMPDEST SWAP2 POP PUSH2 0x1EB8 DUP3 PUSH2 0x1E53 JUMP JUMPDEST PUSH1 0x40 DUP3 ADD SWAP1 POP SWAP2 SWAP1 POP JUMP JUMPDEST PUSH0 PUSH1 0x20 DUP3 ADD SWAP1 POP DUP2 DUP2 SUB PUSH0 DUP4 ADD MSTORE PUSH2 0x1EDA DUP2 PUSH2 0x1EA1 JUMP JUMPDEST SWAP1 POP SWAP2 SWAP1 POP JUMP JUMPDEST PUSH32 0x4E487B7100000000000000000000000000000000000000000000000000000000 PUSH0 MSTORE PUSH1 0x22 PUSH1 0x4 MSTORE PUSH1 0x24 PUSH0 REVERT JUMPDEST PUSH0 PUSH1 0x2 DUP3 DIV SWAP1 POP PUSH1 0x1 DUP3 AND DUP1 PUSH2 0x1F25 JUMPI PUSH1 0x7F DUP3 AND SWAP2 POP JUMPDEST PUSH1 0x20 DUP3 LT DUP2 SUB PUSH2 0x1F38 JUMPI PUSH2 0x1F37 PUSH2 0x1EE1 JUMP JUMPDEST JUMPDEST POP SWAP2 SWAP1 POP JUMP JUMPDEST PUSH0 DUP2 SWAP1 POP DUP2 PUSH0 MSTORE PUSH1 0x20 PUSH0 KECCAK256 SWAP1 POP SWAP2 SWAP1 POP JUMP JUMPDEST PUSH0 PUSH1 0x20 PUSH1 0x1F DUP4 ADD DIV SWAP1 POP SWAP2 SWAP1 POP JUMP JUMPDEST PUSH0 DUP3 DUP3 SHL SWAP1 POP SWAP3 SWAP2 POP POP JUMP JUMPDEST PUSH0 PUSH1 0x8 DUP4 MUL PUSH2 0x1F9A PUSH32 0xFFFFFFFFFFFFFFFFFFFFFFFFFFFFFFFFFFFFFFFFFFFFFFFFFFFFFFFFFFFFFFFF DUP3 PUSH2 0x1F5F JUMP JUMPDEST PUSH2 0x1FA4 DUP7 DUP4 PUSH2 0x1F5F JUMP JUMPDEST SWAP6 POP DUP1 NOT DUP5 AND SWAP4 POP DUP1 DUP7 AND DUP5 OR SWAP3 POP POP POP SWAP4 SWAP3 POP POP POP JUMP JUMPDEST PUSH0 DUP2 SWAP1 POP SWAP2 SWAP1 POP JUMP JUMPDEST PUSH0 PUSH2 0x1FDF PUSH2 0x1FDA PUSH2 0x1FD5 DUP5 PUSH2 0x133B JUMP JUMPDEST PUSH2 0x1FBC JUMP JUMPDEST PUSH2 0x133B JUMP JUMPDEST SWAP1 POP SWAP2 SWAP1 POP JUMP JUMPDEST PUSH0 DUP2 SWAP1 POP SWAP2 SWAP1 POP JUMP JUMPDEST PUSH2 0x1FF8 DUP4 PUSH2 0x1FC5 JUMP JUMPDEST PUSH2 0x200C PUSH2 0x2004 DUP3 PUSH2 0x1FE6 JUMP JUMPDEST DUP5 DUP5 SLOAD PUSH2 0x1F6B JUMP JUMPDEST DUP3 SSTORE POP POP POP POP JUMP JUMPDEST PUSH0 SWAP1 JUMP JUMPDEST PUSH2 0x2020 PUSH2 0x2014 JUMP JUMPDEST PUSH2 0x202B DUP2 DUP5 DUP5 PUSH2 0x1FEF JUMP JUMPDEST POP POP POP JUMP JUMPDEST JUMPDEST DUP2 DUP2 LT ISZERO PUSH2 0x204E JUMPI PUSH2 0x2043 PUSH0 DUP3 PUSH2 0x2018 JUMP JUMPDEST PUSH1 0x1 DUP2 ADD SWAP1 POP PUSH2 0x2031 JUMP JUMPDEST POP POP JUMP JUMPDEST PUSH1 0x1F DUP3 GT ISZERO PUSH2 0x2093 JUMPI PUSH2 0x2064 DUP2 PUSH2 0x1F3E JUMP JUMPDEST PUSH2 0x206D DUP5 PUSH2 0x1F50 JUMP JUMPDEST DUP2 ADD PUSH1 0x20 DUP6 LT ISZERO PUSH2 0x207C JUMPI DUP2 SWAP1 POP JUMPDEST PUSH2 0x2090 PUSH2 0x2088 DUP6 PUSH2 0x1F50 JUMP JUMPDEST DUP4 ADD DUP3 PUSH2 0x2030 JUMP JUMPDEST POP POP JUMPDEST POP POP POP JUMP JUMPDEST PUSH0 DUP3 DUP3 SHR SWAP1 POP SWAP3 SWAP2 POP POP JUMP JUMPDEST PUSH0 PUSH2 0x20B3 PUSH0 NOT DUP5 PUSH1 0x8 MUL PUSH2 0x2098 JUMP JUMPDEST NOT DUP1 DUP4 AND SWAP2 POP POP SWAP3 SWAP2 POP POP JUMP JUMPDEST PUSH0 PUSH2 0x20CB DUP4 DUP4 PUSH2 0x20A4 JUMP JUMPDEST SWAP2 POP DUP3 PUSH1 0x2 MUL DUP3 OR SWAP1 POP SWAP3 SWAP2 POP POP JUMP JUMPDEST PUSH2 0x20E4 DUP3 PUSH2 0x1880 JUMP JUMPDEST PUSH8 0xFFFFFFFFFFFFFFFF DUP2 GT ISZERO PUSH2 0x20FD JUMPI PUSH2 0x20FC PUSH2 0x1386 JUMP JUMPDEST JUMPDEST PUSH2 0x2107 DUP3 SLOAD PUSH2 0x1F0E JUMP JUMPDEST PUSH2 0x2112 DUP3 DUP3 DUP6 PUSH2 0x2052 JUMP JUMPDEST PUSH0 PUSH1 0x20 SWAP1 POP PUSH1 0x1F DUP4 GT PUSH1 0x1 DUP2 EQ PUSH2 0x2143 JUMPI PUSH0 DUP5 ISZERO PUSH2 0x2131 JUMPI DUP3 DUP8 ADD MLOAD SWAP1 POP JUMPDEST PUSH2 0x213B DUP6 DUP3 PUSH2 0x20C0 JUMP JUMPDEST DUP7 SSTORE POP PUSH2 0x21A2 JUMP JUMPDEST PUSH1 0x1F NOT DUP5 AND PUSH2 0x2151 DUP7 PUSH2 0x1F3E JUMP JUMPDEST PUSH0 JUMPDEST DUP3 DUP2 LT ISZERO PUSH2 0x2178 JUMPI DUP5 DUP10 ADD MLOAD DUP3 SSTORE PUSH1 0x1 DUP3 ADD SWAP2 POP PUSH1 0x20 DUP6 ADD SWAP5 POP PUSH1 0x20 DUP2 ADD SWAP1 POP PUSH2 0x2153 JUMP JUMPDEST DUP7 DUP4 LT ISZERO PUSH2 0x2195 JUMPI DUP5 DUP10 ADD MLOAD PUSH2 0x2191 PUSH1 0x1F DUP10 AND DUP3 PUSH2 0x20A4 JUMP JUMPDEST DUP4 SSTORE POP JUMPDEST PUSH1 0x1 PUSH1 0x2 DUP9 MUL ADD DUP9 SSTORE POP POP POP JUMPDEST POP POP POP POP POP POP JUMP JUMPDEST PUSH32 0x4E487B7100000000000000000000000000000000000000000000000000000000 PUSH0 MSTORE PUSH1 0x11 PUSH1 0x4 MSTORE PUSH1 0x24 PUSH0 REVERT JUMPDEST PUSH0 PUSH2 0x21E1 DUP3 PUSH2 0x133B JUMP JUMPDEST SWAP2 POP PUSH32 0xFFFFFFFFFFFFFFFFFFFFFFFFFFFFFFFFFFFFFFFFFFFFFFFFFFFFFFFFFFFFFFFF DUP3 SUB PUSH2 0x2213 JUMPI PUSH2 0x2212 PUSH2 0x21AA JUMP JUMPDEST JUMPDEST PUSH1 0x1 DUP3 ADD SWAP1 POP SWAP2 SWAP1 POP JUMP JUMPDEST PUSH32 0x506572736F6E616C4461746120646F6573206E6F742065786973742E00000000 PUSH0 DUP3 ADD MSTORE POP JUMP JUMPDEST PUSH0 PUSH2 0x2252 PUSH1 0x1C DUP4 PUSH2 0x1E43 JUMP JUMPDEST SWAP2 POP PUSH2 0x225D DUP3 PUSH2 0x221E JUMP JUMPDEST PUSH1 0x20 DUP3 ADD SWAP1 POP SWAP2 SWAP1 POP JUMP JUMPDEST PUSH0 PUSH1 0x20 DUP3 ADD SWAP1 POP DUP2 DUP2 SUB PUSH0 DUP4 ADD MSTORE PUSH2 0x227F DUP2 PUSH2 0x2246 JUMP JUMPDEST SWAP1 POP SWAP2 SWAP1 POP JUMP JUMPDEST PUSH0 DUP2 SWAP1 POP SWAP3 SWAP2 POP POP JUMP JUMPDEST PUSH0 DUP2 SLOAD PUSH2 0x229C DUP2 PUSH2 0x1F0E JUMP JUMPDEST PUSH2 0x22A6 DUP2 DUP7 PUSH2 0x2286 JUMP JUMPDEST SWAP5 POP PUSH1 0x1 DUP3 AND PUSH0 DUP2 EQ PUSH2 0x22C0 JUMPI PUSH1 0x1 DUP2 EQ PUSH2 0x22D5 JUMPI PUSH2 0x2307 JUMP JUMPDEST PUSH1 0xFF NOT DUP4 AND DUP7 MSTORE DUP2 ISZERO ISZERO DUP3 MUL DUP7 ADD SWAP4 POP PUSH2 0x2307 JUMP JUMPDEST PUSH2 0x22DE DUP6 PUSH2 0x1F3E JUMP JUMPDEST PUSH0 JUMPDEST DUP4 DUP2 LT ISZERO PUSH2 0x22FF JUMPI DUP2 SLOAD DUP2 DUP10 ADD MSTORE PUSH1 0x1 DUP3 ADD SWAP2 POP PUSH1 0x20 DUP2 ADD SWAP1 POP PUSH2 0x22E0 JUMP JUMPDEST DUP4 DUP9 ADD SWAP6 POP POP POP JUMPDEST POP POP POP SWAP3 SWAP2 POP POP JUMP JUMPDEST PUSH0 PUSH2 0x231B DUP3 DUP7 PUSH2 0x2290 JUMP JUMPDEST SWAP2 POP PUSH2 0x2327 DUP3 DUP6 PUSH2 0x2290 JUMP JUMPDEST SWAP2 POP PUSH2 0x2333 DUP3 DUP5 PUSH2 0x2290 JUMP JUMPDEST SWAP2 POP DUP2 SWAP1 POP SWAP5 SWAP4 POP POP POP POP JUMP JUMPDEST PUSH32 0x4E487B7100000000000000000000000000000000000000000000000000000000 PUSH0 MSTORE PUSH1 0x32 PUSH1 0x4 MSTORE PUSH1 0x24 PUSH0 REVERT JUMPDEST PUSH0 DUP2 MLOAD SWAP1 POP SWAP2 SWAP1 POP JUMP JUMPDEST PUSH0 DUP2 SWAP1 POP SWAP3 SWAP2 POP POP JUMP JUMPDEST PUSH0 PUSH2 0x238B DUP3 PUSH2 0x236D JUMP JUMPDEST PUSH2 0x2395 DUP2 DUP6 PUSH2 0x2377 JUMP JUMPDEST SWAP4 POP PUSH2 0x23A5 DUP2 DUP6 PUSH1 0x20 DUP7 ADD PUSH2 0x189A JUMP JUMPDEST DUP1 DUP5 ADD SWAP2 POP POP SWAP3 SWAP2 POP POP JUMP JUMPDEST PUSH0 PUSH2 0x23BC DUP3 DUP6 PUSH2 0x2381 JUMP JUMPDEST SWAP2 POP PUSH2 0x23C8 DUP3 DUP5 PUSH2 0x2290 JUMP JUMPDEST SWAP2 POP DUP2 SWAP1 POP SWAP4 SWAP3 POP POP POP JUMP JUMPDEST PUSH32 0x50726F636573736564506572736F6E616C4461746120646F6573206E6F742065 PUSH0 DUP3 ADD MSTORE PUSH32 0x786973742E000000000000000000000000000000000000000000000000000000 PUSH1 0x20 DUP3 ADD MSTORE POP JUMP JUMPDEST PUSH0 PUSH2 0x242E PUSH1 0x25 DUP4 PUSH2 0x1E43 JUMP JUMPDEST SWAP2 POP PUSH2 0x2439 DUP3 PUSH2 0x23D4 JUMP JUMPDEST PUSH1 0x40 DUP3 ADD SWAP1 POP SWAP2 SWAP1 POP JUMP JUMPDEST PUSH0 PUSH1 0x20 DUP3 ADD SWAP1 POP DUP2 DUP2 SUB PUSH0 DUP4 ADD MSTORE PUSH2 0x245B DUP2 PUSH2 0x2422 JUMP JUMPDEST SWAP1 POP SWAP2 SWAP1 POP JUMP JUMPDEST PUSH32 0x4163746F7220646F6573206E6F742065786973742E0000000000000000000000 PUSH0 DUP3 ADD MSTORE POP JUMP JUMPDEST PUSH0 PUSH2 0x2496 PUSH1 0x15 DUP4 PUSH2 0x1E43 JUMP JUMPDEST SWAP2 POP PUSH2 0x24A1 DUP3 PUSH2 0x2462 JUMP JUMPDEST PUSH1 0x20 DUP3 ADD SWAP1 POP SWAP2 SWAP1 POP JUMP JUMPDEST PUSH0 PUSH1 0x20 DUP3 ADD SWAP1 POP DUP2 DUP2 SUB PUSH0 DUP4 ADD MSTORE PUSH2 0x24C3 DUP2 PUSH2 0x248A JUMP JUMPDEST SWAP1 POP SWAP2 SWAP1 POP JUMP JUMPDEST PUSH32 0x44617461557361676520646F6573206E6F742065786973742E00000000000000 PUSH0 DUP3 ADD MSTORE POP JUMP JUMPDEST PUSH0 PUSH2 0x24FE PUSH1 0x19 DUP4 PUSH2 0x1E43 JUMP JUMPDEST SWAP2 POP PUSH2 0x2509 DUP3 PUSH2 0x24CA JUMP JUMPDEST PUSH1 0x20 DUP3 ADD SWAP1 POP SWAP2 SWAP1 POP JUMP JUMPDEST PUSH0 PUSH1 0x20 DUP3 ADD SWAP1 POP DUP2 DUP2 SUB PUSH0 DUP4 ADD MSTORE PUSH2 0x252B DUP2 PUSH2 0x24F2 JUMP JUMPDEST SWAP1 POP SWAP2 SWAP1 POP JUMP INVALID LOG2 PUSH5 0x6970667358 0x22 SLT KECCAK256 SUB DUP6 BLOCKHASH MCOPY SUB 0x4F 0xBE 0xBF DUP1 SWAP8 PUSH5 0x6F3AEE2E12 CALLDATASIZE SWAP9 TLOAD BASEFEE DIV MOD PUSH7 0x538095A5E0A22C 0xB5 RETURNDATASIZE PUSH5 0x736F6C6343 STOP ADDMOD XOR STOP CALLER "
				},
				"gasEstimates": {
					"creation": {
						"codeDepositCost": "1915200",
						"executionCost": "36299",
						"totalCost": "1951499"
					},
					"external": {
						"addActor(uint256,string)": "infinite",
						"addDataUsage(string,string,uint256,string[],uint256[])": "infinite",
						"addPersonalData(uint256,string,string,string,string[])": "infinite",
						"addProcessedPersonalData(uint256)": "infinite",
						"getActorByKey(uint256)": "infinite",
						"getActorIds()": "infinite",
						"getDataUsageByKey(uint256)": "infinite",
						"getDataUsageCounter()": "2521",
						"getPersonalDataByKey(uint256)": "infinite",
						"getPersonalDataCounter()": "2499",
						"getProcessedPersonalDataByKey(uint256)": "4914",
						"owner()": "2505"
					}
				},
				"methodIdentifiers": {
					"addActor(uint256,string)": "68e92436",
					"addDataUsage(string,string,uint256,string[],uint256[])": "ca07b122",
					"addPersonalData(uint256,string,string,string,string[])": "0dab7cd9",
					"addProcessedPersonalData(uint256)": "3f81de59",
					"getActorByKey(uint256)": "c585665d",
					"getActorIds()": "3a918356",
					"getDataUsageByKey(uint256)": "d2b0649a",
					"getDataUsageCounter()": "682477d7",
					"getPersonalDataByKey(uint256)": "d8a761d9",
					"getPersonalDataCounter()": "4b58fbe9",
					"getProcessedPersonalDataByKey(uint256)": "b61798f6",
					"owner()": "8da5cb5b"
				}
			},
			"storageLayout": {
				"storage": [
					{
						"astId": 3,
						"contract": "contracts/DataUsageSmartContract.sol:DataUsageSmartContract",
						"label": "owner",
						"offset": 0,
						"slot": "0",
						"type": "t_address"
					},
					{
						"astId": 68,
						"contract": "contracts/DataUsageSmartContract.sol:DataUsageSmartContract",
						"label": "dataUsages",
						"offset": 0,
						"slot": "1",
						"type": "t_mapping(t_uint256,t_struct(DataUsage)46_storage)"
					},
					{
						"astId": 73,
						"contract": "contracts/DataUsageSmartContract.sol:DataUsageSmartContract",
						"label": "actors",
						"offset": 0,
						"slot": "2",
						"type": "t_mapping(t_uint256,t_struct(Actor)51_storage)"
					},
					{
						"astId": 78,
						"contract": "contracts/DataUsageSmartContract.sol:DataUsageSmartContract",
						"label": "personalDatas",
						"offset": 0,
						"slot": "3",
						"type": "t_mapping(t_uint256,t_struct(PersonalData)63_storage)"
					},
					{
						"astId": 82,
						"contract": "contracts/DataUsageSmartContract.sol:DataUsageSmartContract",
						"label": "processedPersonalDatas",
						"offset": 0,
						"slot": "4",
						"type": "t_mapping(t_uint256,t_bytes32)"
					},
					{
						"astId": 85,
						"contract": "contracts/DataUsageSmartContract.sol:DataUsageSmartContract",
						"label": "dataUsageCounter",
						"offset": 0,
						"slot": "5",
						"type": "t_uint256"
					},
					{
						"astId": 88,
						"contract": "contracts/DataUsageSmartContract.sol:DataUsageSmartContract",
						"label": "actorIds",
						"offset": 0,
						"slot": "6",
						"type": "t_array(t_uint256)dyn_storage"
					},
					{
						"astId": 91,
						"contract": "contracts/DataUsageSmartContract.sol:DataUsageSmartContract",
						"label": "personalDataCounter",
						"offset": 0,
						"slot": "7",
						"type": "t_uint256"
					}
				],
				"types": {
					"t_address": {
						"encoding": "inplace",
						"label": "address",
						"numberOfBytes": "20"
					},
					"t_array(t_bytes32)dyn_storage": {
						"base": "t_bytes32",
						"encoding": "dynamic_array",
						"label": "bytes32[]",
						"numberOfBytes": "32"
					},
					"t_array(t_string_storage)dyn_storage": {
						"base": "t_string_storage",
						"encoding": "dynamic_array",
						"label": "string[]",
						"numberOfBytes": "32"
					},
					"t_array(t_uint256)dyn_storage": {
						"base": "t_uint256",
						"encoding": "dynamic_array",
						"label": "uint256[]",
						"numberOfBytes": "32"
					},
					"t_bytes32": {
						"encoding": "inplace",
						"label": "bytes32",
						"numberOfBytes": "32"
					},
					"t_mapping(t_uint256,t_bytes32)": {
						"encoding": "mapping",
						"key": "t_uint256",
						"label": "mapping(uint256 => bytes32)",
						"numberOfBytes": "32",
						"value": "t_bytes32"
					},
					"t_mapping(t_uint256,t_struct(Actor)51_storage)": {
						"encoding": "mapping",
						"key": "t_uint256",
						"label": "mapping(uint256 => struct DataUsageSmartContract.Actor)",
						"numberOfBytes": "32",
						"value": "t_struct(Actor)51_storage"
					},
					"t_mapping(t_uint256,t_struct(DataUsage)46_storage)": {
						"encoding": "mapping",
						"key": "t_uint256",
						"label": "mapping(uint256 => struct DataUsageSmartContract.DataUsage)",
						"numberOfBytes": "32",
						"value": "t_struct(DataUsage)46_storage"
					},
					"t_mapping(t_uint256,t_struct(PersonalData)63_storage)": {
						"encoding": "mapping",
						"key": "t_uint256",
						"label": "mapping(uint256 => struct DataUsageSmartContract.PersonalData)",
						"numberOfBytes": "32",
						"value": "t_struct(PersonalData)63_storage"
					},
					"t_string_storage": {
						"encoding": "bytes",
						"label": "string",
						"numberOfBytes": "32"
					},
					"t_struct(Actor)51_storage": {
						"encoding": "inplace",
						"label": "struct DataUsageSmartContract.Actor",
						"members": [
							{
								"astId": 48,
								"contract": "contracts/DataUsageSmartContract.sol:DataUsageSmartContract",
								"label": "actorId",
								"offset": 0,
								"slot": "0",
								"type": "t_uint256"
							},
							{
								"astId": 50,
								"contract": "contracts/DataUsageSmartContract.sol:DataUsageSmartContract",
								"label": "actorName",
								"offset": 0,
								"slot": "1",
								"type": "t_string_storage"
							}
						],
						"numberOfBytes": "64"
					},
					"t_struct(DataUsage)46_storage": {
						"encoding": "inplace",
						"label": "struct DataUsageSmartContract.DataUsage",
						"members": [
							{
								"astId": 32,
								"contract": "contracts/DataUsageSmartContract.sol:DataUsageSmartContract",
								"label": "serviceName",
								"offset": 0,
								"slot": "0",
								"type": "t_string_storage"
							},
							{
								"astId": 34,
								"contract": "contracts/DataUsageSmartContract.sol:DataUsageSmartContract",
								"label": "servicePurpose",
								"offset": 0,
								"slot": "1",
								"type": "t_string_storage"
							},
							{
								"astId": 36,
								"contract": "contracts/DataUsageSmartContract.sol:DataUsageSmartContract",
								"label": "actorId",
								"offset": 0,
								"slot": "2",
								"type": "t_uint256"
							},
							{
								"astId": 39,
								"contract": "contracts/DataUsageSmartContract.sol:DataUsageSmartContract",
								"label": "operations",
								"offset": 0,
								"slot": "3",
								"type": "t_array(t_string_storage)dyn_storage"
							},
							{
								"astId": 42,
								"contract": "contracts/DataUsageSmartContract.sol:DataUsageSmartContract",
								"label": "personalDataIds",
								"offset": 0,
								"slot": "4",
								"type": "t_array(t_uint256)dyn_storage"
							},
							{
								"astId": 45,
								"contract": "contracts/DataUsageSmartContract.sol:DataUsageSmartContract",
								"label": "processedPersonalDatas",
								"offset": 0,
								"slot": "5",
								"type": "t_array(t_bytes32)dyn_storage"
							}
						],
						"numberOfBytes": "192"
					},
					"t_struct(PersonalData)63_storage": {
						"encoding": "inplace",
						"label": "struct DataUsageSmartContract.PersonalData",
						"members": [
							{
								"astId": 53,
								"contract": "contracts/DataUsageSmartContract.sol:DataUsageSmartContract",
								"label": "userId",
								"offset": 0,
								"slot": "0",
								"type": "t_uint256"
							},
							{
								"astId": 55,
								"contract": "contracts/DataUsageSmartContract.sol:DataUsageSmartContract",
								"label": "userName",
								"offset": 0,
								"slot": "1",
								"type": "t_string_storage"
							},
							{
								"astId": 57,
								"contract": "contracts/DataUsageSmartContract.sol:DataUsageSmartContract",
								"label": "userAddress",
								"offset": 0,
								"slot": "2",
								"type": "t_string_storage"
							},
							{
								"astId": 59,
								"contract": "contracts/DataUsageSmartContract.sol:DataUsageSmartContract",
								"label": "userTelephone",
								"offset": 0,
								"slot": "3",
								"type": "t_string_storage"
							},
							{
								"astId": 62,
								"contract": "contracts/DataUsageSmartContract.sol:DataUsageSmartContract",
								"label": "additionalInfos",
								"offset": 0,
								"slot": "4",
								"type": "t_array(t_string_storage)dyn_storage"
							}
						],
						"numberOfBytes": "160"
					},
					"t_uint256": {
						"encoding": "inplace",
						"label": "uint256",
						"numberOfBytes": "32"
					}
				}
			},
			"userdoc": {
				"kind": "user",
				"methods": {},
				"version": 1
			}
		}
	}
}