{
	"contracts/LogSmartContract.sol": {
		"LogSmartContract": {
			"abi": [
				{
					"inputs": [
						{
							"internalType": "address",
							"name": "_dataUsageSmartContractAddress",
							"type": "address"
						}
					],
					"stateMutability": "nonpayable",
					"type": "constructor"
				},
				{
					"anonymous": false,
					"inputs": [
						{
							"indexed": false,
							"internalType": "uint256",
							"name": "dataUsageId",
							"type": "uint256"
						}
					],
					"name": "LogAdded",
					"type": "event"
				},
				{
					"inputs": [
						{
							"internalType": "uint256",
							"name": "_dataUsageId",
							"type": "uint256"
						}
					],
					"name": "addLog",
					"outputs": [],
					"stateMutability": "nonpayable",
					"type": "function"
				},
				{
					"inputs": [
						{
							"internalType": "uint256",
							"name": "_dataUsageId",
							"type": "uint256"
						}
					],
					"name": "getLogByKey",
					"outputs": [
						{
							"components": [
								{
									"internalType": "uint256",
									"name": "dataUsageId",
									"type": "uint256"
								},
								{
									"internalType": "uint256",
									"name": "actorId",
									"type": "uint256"
								},
								{
									"internalType": "string[]",
									"name": "operations",
									"type": "string[]"
								},
								{
									"internalType": "bytes32",
									"name": "serviceName",
									"type": "bytes32"
								},
								{
									"internalType": "bytes32[]",
									"name": "processedPersonalDatas",
									"type": "bytes32[]"
								}
							],
							"internalType": "struct LogSmartContract.Log",
							"name": "",
							"type": "tuple"
						}
					],
					"stateMutability": "view",
					"type": "function"
				},
				{
					"inputs": [],
					"name": "getLogCounter",
					"outputs": [
						{
							"internalType": "uint256",
							"name": "",
							"type": "uint256"
						}
					],
					"stateMutability": "view",
					"type": "function"
				},
				{
					"inputs": [],
					"name": "getLogKeys",
					"outputs": [
						{
							"internalType": "uint256[]",
							"name": "",
							"type": "uint256[]"
						}
					],
					"stateMutability": "view",
					"type": "function"
				},
				{
					"inputs": [],
					"name": "owner",
					"outputs": [
						{
							"internalType": "address",
							"name": "",
							"type": "address"
						}
					],
					"stateMutability": "view",
					"type": "function"
				}
			],
			"devdoc": {
				"kind": "dev",
				"methods": {},
				"version": 1
			},
			"evm": {
				"assembly": "    /* \"contracts/LogSmartContract.sol\":128:2773  contract LogSmartContract is AccessControl {... */\n  mstore(0x40, 0x80)\n    /* \"contracts/LogSmartContract.sol\":857:858  0 */\n  0x00\n    /* \"contracts/LogSmartContract.sol\":831:858  uint private logCounter = 0 */\n  0x04\n  sstore\n    /* \"contracts/LogSmartContract.sol\":998:1255  constructor(address _dataUsageSmartContractAddress) {... */\n  callvalue\n  dup1\n  iszero\n  tag_1\n  jumpi\n  0x00\n  dup1\n  revert\ntag_1:\n  pop\n  mload(0x40)\n  sub(codesize, bytecodeSize)\n  dup1\n  bytecodeSize\n  dup4\n  codecopy\n  dup2\n  dup2\n  add\n  0x40\n  mstore\n  dup2\n  add\n  swap1\n  tag_2\n  swap2\n  swap1\n  tag_3\n  jump\t// in\ntag_2:\n    /* \"contracts/AccessControl.sol\":145:155  msg.sender */\n  caller\n    /* \"contracts/AccessControl.sol\":137:142  owner */\n  0x00\n  dup1\n    /* \"contracts/AccessControl.sol\":137:155  owner = msg.sender */\n  0x0100\n  exp\n  dup2\n  sload\n  dup2\n  0xffffffffffffffffffffffffffffffffffffffff\n  mul\n  not\n  and\n  swap1\n  dup4\n  0xffffffffffffffffffffffffffffffffffffffff\n  and\n  mul\n  or\n  swap1\n  sstore\n  pop\n    /* \"contracts/LogSmartContract.sol\":1108:1138  _dataUsageSmartContractAddress */\n  dup1\n    /* \"contracts/LogSmartContract.sol\":1060:1082  dataUsageSmartContract */\n  0x01\n  0x00\n    /* \"contracts/LogSmartContract.sol\":1060:1139  dataUsageSmartContract = DataUsageSmartContract(_dataUsageSmartContractAddress) */\n  0x0100\n  exp\n  dup2\n  sload\n  dup2\n  0xffffffffffffffffffffffffffffffffffffffff\n  mul\n  not\n  and\n  swap1\n  dup4\n  0xffffffffffffffffffffffffffffffffffffffff\n  and\n  mul\n  or\n  swap1\n  sstore\n  pop\n    /* \"contracts/LogSmartContract.sol\":1199:1200  0 */\n  0x00\n    /* \"contracts/LogSmartContract.sol\":1157:1201  _dataUsageSmartContractAddress != address(0) */\n  0xffffffffffffffffffffffffffffffffffffffff\n  and\n    /* \"contracts/LogSmartContract.sol\":1157:1187  _dataUsageSmartContractAddress */\n  dup2\n    /* \"contracts/LogSmartContract.sol\":1157:1201  _dataUsageSmartContractAddress != address(0) */\n  0xffffffffffffffffffffffffffffffffffffffff\n  and\n  sub\n    /* \"contracts/LogSmartContract.sol\":1149:1248  require(_dataUsageSmartContractAddress != address(0), \"DataUsageSmartContract address is invalid.\") */\n  tag_8\n  jumpi\n  mload(0x40)\n  0x08c379a000000000000000000000000000000000000000000000000000000000\n  dup2\n  mstore\n  0x04\n  add\n  tag_9\n  swap1\n  tag_10\n  jump\t// in\ntag_9:\n  mload(0x40)\n  dup1\n  swap2\n  sub\n  swap1\n  revert\ntag_8:\n    /* \"contracts/LogSmartContract.sol\":998:1255  constructor(address _dataUsageSmartContractAddress) {... */\n  pop\n    /* \"contracts/LogSmartContract.sol\":128:2773  contract LogSmartContract is AccessControl {... */\n  jump(tag_11)\n    /* \"#utility.yul\":88:205   */\ntag_13:\n    /* \"#utility.yul\":197:198   */\n  0x00\n    /* \"#utility.yul\":194:195   */\n  dup1\n    /* \"#utility.yul\":187:199   */\n  revert\n    /* \"#utility.yul\":334:460   */\ntag_15:\n    /* \"#utility.yul\":371:378   */\n  0x00\n    /* \"#utility.yul\":411:453   */\n  0xffffffffffffffffffffffffffffffffffffffff\n    /* \"#utility.yul\":404:409   */\n  dup3\n    /* \"#utility.yul\":400:454   */\n  and\n    /* \"#utility.yul\":389:454   */\n  swap1\n  pop\n    /* \"#utility.yul\":334:460   */\n  swap2\n  swap1\n  pop\n  jump\t// out\n    /* \"#utility.yul\":466:562   */\ntag_16:\n    /* \"#utility.yul\":503:510   */\n  0x00\n    /* \"#utility.yul\":532:556   */\n  tag_28\n    /* \"#utility.yul\":550:555   */\n  dup3\n    /* \"#utility.yul\":532:556   */\n  tag_15\n  jump\t// in\ntag_28:\n    /* \"#utility.yul\":521:556   */\n  swap1\n  pop\n    /* \"#utility.yul\":466:562   */\n  swap2\n  swap1\n  pop\n  jump\t// out\n    /* \"#utility.yul\":568:690   */\ntag_17:\n    /* \"#utility.yul\":641:665   */\n  tag_30\n    /* \"#utility.yul\":659:664   */\n  dup2\n    /* \"#utility.yul\":641:665   */\n  tag_16\n  jump\t// in\ntag_30:\n    /* \"#utility.yul\":634:639   */\n  dup2\n    /* \"#utility.yul\":631:666   */\n  eq\n    /* \"#utility.yul\":621:684   */\n  tag_31\n  jumpi\n    /* \"#utility.yul\":680:681   */\n  0x00\n    /* \"#utility.yul\":677:678   */\n  dup1\n    /* \"#utility.yul\":670:682   */\n  revert\n    /* \"#utility.yul\":621:684   */\ntag_31:\n    /* \"#utility.yul\":568:690   */\n  pop\n  jump\t// out\n    /* \"#utility.yul\":696:839   */\ntag_18:\n    /* \"#utility.yul\":753:758   */\n  0x00\n    /* \"#utility.yul\":784:790   */\n  dup2\n    /* \"#utility.yul\":778:791   */\n  mload\n    /* \"#utility.yul\":769:791   */\n  swap1\n  pop\n    /* \"#utility.yul\":800:833   */\n  tag_33\n    /* \"#utility.yul\":827:832   */\n  dup2\n    /* \"#utility.yul\":800:833   */\n  tag_17\n  jump\t// in\ntag_33:\n    /* \"#utility.yul\":696:839   */\n  swap3\n  swap2\n  pop\n  pop\n  jump\t// out\n    /* \"#utility.yul\":845:1196   */\ntag_3:\n    /* \"#utility.yul\":915:921   */\n  0x00\n    /* \"#utility.yul\":964:966   */\n  0x20\n    /* \"#utility.yul\":952:961   */\n  dup3\n    /* \"#utility.yul\":943:950   */\n  dup5\n    /* \"#utility.yul\":939:962   */\n  sub\n    /* \"#utility.yul\":935:967   */\n  slt\n    /* \"#utility.yul\":932:1051   */\n  iszero\n  tag_35\n  jumpi\n    /* \"#utility.yul\":970:1049   */\n  tag_36\n  tag_13\n  jump\t// in\ntag_36:\n    /* \"#utility.yul\":932:1051   */\ntag_35:\n    /* \"#utility.yul\":1090:1091   */\n  0x00\n    /* \"#utility.yul\":1115:1179   */\n  tag_37\n    /* \"#utility.yul\":1171:1178   */\n  dup5\n    /* \"#utility.yul\":1162:1168   */\n  dup3\n    /* \"#utility.yul\":1151:1160   */\n  dup6\n    /* \"#utility.yul\":1147:1169   */\n  add\n    /* \"#utility.yul\":1115:1179   */\n  tag_18\n  jump\t// in\ntag_37:\n    /* \"#utility.yul\":1105:1179   */\n  swap2\n  pop\n    /* \"#utility.yul\":1061:1189   */\n  pop\n    /* \"#utility.yul\":845:1196   */\n  swap3\n  swap2\n  pop\n  pop\n  jump\t// out\n    /* \"#utility.yul\":1202:1371   */\ntag_19:\n    /* \"#utility.yul\":1286:1297   */\n  0x00\n    /* \"#utility.yul\":1320:1326   */\n  dup3\n    /* \"#utility.yul\":1315:1318   */\n  dup3\n    /* \"#utility.yul\":1308:1327   */\n  mstore\n    /* \"#utility.yul\":1360:1364   */\n  0x20\n    /* \"#utility.yul\":1355:1358   */\n  dup3\n    /* \"#utility.yul\":1351:1365   */\n  add\n    /* \"#utility.yul\":1336:1365   */\n  swap1\n  pop\n    /* \"#utility.yul\":1202:1371   */\n  swap3\n  swap2\n  pop\n  pop\n  jump\t// out\n    /* \"#utility.yul\":1377:1606   */\ntag_20:\n    /* \"#utility.yul\":1517:1551   */\n  0x446174615573616765536d617274436f6e747261637420616464726573732069\n    /* \"#utility.yul\":1513:1514   */\n  0x00\n    /* \"#utility.yul\":1505:1511   */\n  dup3\n    /* \"#utility.yul\":1501:1515   */\n  add\n    /* \"#utility.yul\":1494:1552   */\n  mstore\n    /* \"#utility.yul\":1586:1598   */\n  0x7320696e76616c69642e00000000000000000000000000000000000000000000\n    /* \"#utility.yul\":1581:1583   */\n  0x20\n    /* \"#utility.yul\":1573:1579   */\n  dup3\n    /* \"#utility.yul\":1569:1584   */\n  add\n    /* \"#utility.yul\":1562:1599   */\n  mstore\n    /* \"#utility.yul\":1377:1606   */\n  pop\n  jump\t// out\n    /* \"#utility.yul\":1612:1978   */\ntag_21:\n    /* \"#utility.yul\":1754:1757   */\n  0x00\n    /* \"#utility.yul\":1775:1842   */\n  tag_41\n    /* \"#utility.yul\":1839:1841   */\n  0x2a\n    /* \"#utility.yul\":1834:1837   */\n  dup4\n    /* \"#utility.yul\":1775:1842   */\n  tag_19\n  jump\t// in\ntag_41:\n    /* \"#utility.yul\":1768:1842   */\n  swap2\n  pop\n    /* \"#utility.yul\":1851:1944   */\n  tag_42\n    /* \"#utility.yul\":1940:1943   */\n  dup3\n    /* \"#utility.yul\":1851:1944   */\n  tag_20\n  jump\t// in\ntag_42:\n    /* \"#utility.yul\":1969:1971   */\n  0x40\n    /* \"#utility.yul\":1964:1967   */\n  dup3\n    /* \"#utility.yul\":1960:1972   */\n  add\n    /* \"#utility.yul\":1953:1972   */\n  swap1\n  pop\n    /* \"#utility.yul\":1612:1978   */\n  swap2\n  swap1\n  pop\n  jump\t// out\n    /* \"#utility.yul\":1984:2403   */\ntag_10:\n    /* \"#utility.yul\":2150:2154   */\n  0x00\n    /* \"#utility.yul\":2188:2190   */\n  0x20\n    /* \"#utility.yul\":2177:2186   */\n  dup3\n    /* \"#utility.yul\":2173:2191   */\n  add\n    /* \"#utility.yul\":2165:2191   */\n  swap1\n  pop\n    /* \"#utility.yul\":2237:2246   */\n  dup2\n    /* \"#utility.yul\":2231:2235   */\n  dup2\n    /* \"#utility.yul\":2227:2247   */\n  sub\n    /* \"#utility.yul\":2223:2224   */\n  0x00\n    /* \"#utility.yul\":2212:2221   */\n  dup4\n    /* \"#utility.yul\":2208:2225   */\n  add\n    /* \"#utility.yul\":2201:2248   */\n  mstore\n    /* \"#utility.yul\":2265:2396   */\n  tag_44\n    /* \"#utility.yul\":2391:2395   */\n  dup2\n    /* \"#utility.yul\":2265:2396   */\n  tag_21\n  jump\t// in\ntag_44:\n    /* \"#utility.yul\":2257:2396   */\n  swap1\n  pop\n    /* \"#utility.yul\":1984:2403   */\n  swap2\n  swap1\n  pop\n  jump\t// out\n    /* \"contracts/LogSmartContract.sol\":128:2773  contract LogSmartContract is AccessControl {... */\ntag_11:\n  dataSize(sub_0)\n  dup1\n  dataOffset(sub_0)\n  0x00\n  codecopy\n  0x00\n  return\nstop\n\nsub_0: assembly {\n        /* \"contracts/LogSmartContract.sol\":128:2773  contract LogSmartContract is AccessControl {... */\n      mstore(0x40, 0x80)\n      callvalue\n      dup1\n      iszero\n      tag_1\n      jumpi\n      0x00\n      dup1\n      revert\n    tag_1:\n      pop\n      jumpi(tag_2, lt(calldatasize, 0x04))\n      shr(0xe0, calldataload(0x00))\n      dup1\n      0x03e4d77f\n      eq\n      tag_3\n      jumpi\n      dup1\n      0x28e8be60\n      eq\n      tag_4\n      jumpi\n      dup1\n      0x3d1fee84\n      eq\n      tag_5\n      jumpi\n      dup1\n      0x8ae0be40\n      eq\n      tag_6\n      jumpi\n      dup1\n      0x8da5cb5b\n      eq\n      tag_7\n      jumpi\n    tag_2:\n      0x00\n      dup1\n      revert\n        /* \"contracts/LogSmartContract.sol\":2469:2584  function getLogByKey(uint _dataUsageId) public view returns (Log memory) {... */\n    tag_3:\n      tag_8\n      0x04\n      dup1\n      calldatasize\n      sub\n      dup2\n      add\n      swap1\n      tag_9\n      swap2\n      swap1\n      tag_10\n      jump\t// in\n    tag_9:\n      tag_11\n      jump\t// in\n    tag_8:\n      mload(0x40)\n      tag_12\n      swap2\n      swap1\n      tag_13\n      jump\t// in\n    tag_12:\n      mload(0x40)\n      dup1\n      swap2\n      sub\n      swap1\n      return\n        /* \"contracts/LogSmartContract.sol\":2590:2676  function getLogCounter() public view returns (uint) {... */\n    tag_4:\n      tag_14\n      tag_15\n      jump\t// in\n    tag_14:\n      mload(0x40)\n      tag_16\n      swap2\n      swap1\n      tag_17\n      jump\t// in\n    tag_16:\n      mload(0x40)\n      dup1\n      swap2\n      sub\n      swap1\n      return\n        /* \"contracts/LogSmartContract.sol\":1279:2463  function addLog(uint _dataUsageId) public onlyOwner {... */\n    tag_5:\n      tag_18\n      0x04\n      dup1\n      calldatasize\n      sub\n      dup2\n      add\n      swap1\n      tag_19\n      swap2\n      swap1\n      tag_10\n      jump\t// in\n    tag_19:\n      tag_20\n      jump\t// in\n    tag_18:\n      stop\n        /* \"contracts/LogSmartContract.sol\":2682:2771  function getLogKeys() public view returns (uint[] memory) {... */\n    tag_6:\n      tag_21\n      tag_22\n      jump\t// in\n    tag_21:\n      mload(0x40)\n      tag_23\n      swap2\n      swap1\n      tag_24\n      jump\t// in\n    tag_23:\n      mload(0x40)\n      dup1\n      swap2\n      sub\n      swap1\n      return\n        /* \"contracts/AccessControl.sol\":86:106  address public owner */\n    tag_7:\n      tag_25\n      tag_26\n      jump\t// in\n    tag_25:\n      mload(0x40)\n      tag_27\n      swap2\n      swap1\n      tag_28\n      jump\t// in\n    tag_27:\n      mload(0x40)\n      dup1\n      swap2\n      sub\n      swap1\n      return\n        /* \"contracts/LogSmartContract.sol\":2469:2584  function getLogByKey(uint _dataUsageId) public view returns (Log memory) {... */\n    tag_11:\n        /* \"contracts/LogSmartContract.sol\":2530:2540  Log memory */\n      tag_29\n      tag_30\n      jump\t// in\n    tag_29:\n        /* \"contracts/LogSmartContract.sol\":2559:2563  logs */\n      0x02\n        /* \"contracts/LogSmartContract.sol\":2559:2577  logs[_dataUsageId] */\n      0x00\n        /* \"contracts/LogSmartContract.sol\":2564:2576  _dataUsageId */\n      dup4\n        /* \"contracts/LogSmartContract.sol\":2559:2577  logs[_dataUsageId] */\n      dup2\n      mstore\n      0x20\n      add\n      swap1\n      dup2\n      mstore\n      0x20\n      add\n      0x00\n      keccak256\n        /* \"contracts/LogSmartContract.sol\":2552:2577  return logs[_dataUsageId] */\n      mload(0x40)\n      dup1\n      0xa0\n      add\n      0x40\n      mstore\n      swap1\n      dup2\n      0x00\n      dup3\n      add\n      sload\n      dup2\n      mstore\n      0x20\n      add\n      0x01\n      dup3\n      add\n      sload\n      dup2\n      mstore\n      0x20\n      add\n      0x02\n      dup3\n      add\n      dup1\n      sload\n      dup1\n      0x20\n      mul\n      0x20\n      add\n      mload(0x40)\n      swap1\n      dup2\n      add\n      0x40\n      mstore\n      dup1\n      swap3\n      swap2\n      swap1\n      dup2\n      dup2\n      mstore\n      0x20\n      add\n      0x00\n      swap1\n    tag_32:\n      dup3\n      dup3\n      lt\n      iszero\n      tag_33\n      jumpi\n      dup4\n      dup3\n      swap1\n      0x00\n      mstore\n      keccak256(0x00, 0x20)\n      add\n      dup1\n      sload\n      tag_35\n      swap1\n      tag_36\n      jump\t// in\n    tag_35:\n      dup1\n      0x1f\n      add\n      0x20\n      dup1\n      swap2\n      div\n      mul\n      0x20\n      add\n      mload(0x40)\n      swap1\n      dup2\n      add\n      0x40\n      mstore\n      dup1\n      swap3\n      swap2\n      swap1\n      dup2\n      dup2\n      mstore\n      0x20\n      add\n      dup3\n      dup1\n      sload\n      tag_37\n      swap1\n      tag_36\n      jump\t// in\n    tag_37:\n      dup1\n      iszero\n      tag_38\n      jumpi\n      dup1\n      0x1f\n      lt\n      tag_39\n      jumpi\n      0x0100\n      dup1\n      dup4\n      sload\n      div\n      mul\n      dup4\n      mstore\n      swap2\n      0x20\n      add\n      swap2\n      jump(tag_38)\n    tag_39:\n      dup3\n      add\n      swap2\n      swap1\n      0x00\n      mstore\n      keccak256(0x00, 0x20)\n      swap1\n    tag_40:\n      dup2\n      sload\n      dup2\n      mstore\n      swap1\n      0x01\n      add\n      swap1\n      0x20\n      add\n      dup1\n      dup4\n      gt\n      tag_40\n      jumpi\n      dup3\n      swap1\n      sub\n      0x1f\n      and\n      dup3\n      add\n      swap2\n    tag_38:\n      pop\n      pop\n      pop\n      pop\n      pop\n      dup2\n      mstore\n      0x20\n      add\n      swap1\n      0x01\n      add\n      swap1\n      jump(tag_32)\n    tag_33:\n      pop\n      pop\n      pop\n      pop\n      dup2\n      mstore\n      0x20\n      add\n      0x03\n      dup3\n      add\n      sload\n      dup2\n      mstore\n      0x20\n      add\n      0x04\n      dup3\n      add\n      dup1\n      sload\n      dup1\n      0x20\n      mul\n      0x20\n      add\n      mload(0x40)\n      swap1\n      dup2\n      add\n      0x40\n      mstore\n      dup1\n      swap3\n      swap2\n      swap1\n      dup2\n      dup2\n      mstore\n      0x20\n      add\n      dup3\n      dup1\n      sload\n      dup1\n      iszero\n      tag_41\n      jumpi\n      0x20\n      mul\n      dup3\n      add\n      swap2\n      swap1\n      0x00\n      mstore\n      keccak256(0x00, 0x20)\n      swap1\n    tag_42:\n      dup2\n      sload\n      dup2\n      mstore\n      0x20\n      add\n      swap1\n      0x01\n      add\n      swap1\n      dup1\n      dup4\n      gt\n      tag_42\n      jumpi\n    tag_41:\n      pop\n      pop\n      pop\n      pop\n      pop\n      dup2\n      mstore\n      pop\n      pop\n      swap1\n      pop\n        /* \"contracts/LogSmartContract.sol\":2469:2584  function getLogByKey(uint _dataUsageId) public view returns (Log memory) {... */\n      swap2\n      swap1\n      pop\n      jump\t// out\n        /* \"contracts/LogSmartContract.sol\":2590:2676  function getLogCounter() public view returns (uint) {... */\n    tag_15:\n        /* \"contracts/LogSmartContract.sol\":2636:2640  uint */\n      0x00\n        /* \"contracts/LogSmartContract.sol\":2659:2669  logCounter */\n      sload(0x04)\n        /* \"contracts/LogSmartContract.sol\":2652:2669  return logCounter */\n      swap1\n      pop\n        /* \"contracts/LogSmartContract.sol\":2590:2676  function getLogCounter() public view returns (uint) {... */\n      swap1\n      jump\t// out\n        /* \"contracts/LogSmartContract.sol\":1279:2463  function addLog(uint _dataUsageId) public onlyOwner {... */\n    tag_20:\n        /* \"contracts/AccessControl.sol\":220:225  owner */\n      0x00\n      dup1\n      sload\n      swap1\n      0x0100\n      exp\n      swap1\n      div\n      0xffffffffffffffffffffffffffffffffffffffff\n      and\n        /* \"contracts/AccessControl.sol\":206:225  msg.sender == owner */\n      0xffffffffffffffffffffffffffffffffffffffff\n      and\n        /* \"contracts/AccessControl.sol\":206:216  msg.sender */\n      caller\n        /* \"contracts/AccessControl.sol\":206:225  msg.sender == owner */\n      0xffffffffffffffffffffffffffffffffffffffff\n      and\n      eq\n        /* \"contracts/AccessControl.sol\":198:280  require(msg.sender == owner, \"Only the contract owner can perform this operation\") */\n      tag_45\n      jumpi\n      mload(0x40)\n      0x08c379a000000000000000000000000000000000000000000000000000000000\n      dup2\n      mstore\n      0x04\n      add\n      tag_46\n      swap1\n      tag_47\n      jump\t// in\n    tag_46:\n      mload(0x40)\n      dup1\n      swap2\n      sub\n      swap1\n      revert\n    tag_45:\n        /* \"contracts/LogSmartContract.sol\":1529:1578  DataUsageSmartContract.DataUsage memory dataUsage */\n      0x00\n        /* \"contracts/LogSmartContract.sol\":1581:1603  dataUsageSmartContract */\n      0x01\n      0x00\n      swap1\n      sload\n      swap1\n      0x0100\n      exp\n      swap1\n      div\n      0xffffffffffffffffffffffffffffffffffffffff\n      and\n        /* \"contracts/LogSmartContract.sol\":1581:1621  dataUsageSmartContract.getDataUsageByKey */\n      0xffffffffffffffffffffffffffffffffffffffff\n      and\n      0xd2b0649a\n        /* \"contracts/LogSmartContract.sol\":1622:1634  _dataUsageId */\n      dup4\n        /* \"contracts/LogSmartContract.sol\":1581:1635  dataUsageSmartContract.getDataUsageByKey(_dataUsageId) */\n      mload(0x40)\n      dup3\n      0xffffffff\n      and\n      0xe0\n      shl\n      dup2\n      mstore\n      0x04\n      add\n      tag_49\n      swap2\n      swap1\n      tag_17\n      jump\t// in\n    tag_49:\n      0x00\n      mload(0x40)\n      dup1\n      dup4\n      sub\n      dup2\n      dup7\n      gas\n      staticcall\n      iszero\n      dup1\n      iszero\n      tag_51\n      jumpi\n      returndatasize\n      0x00\n      dup1\n      returndatacopy\n      revert(0x00, returndatasize)\n    tag_51:\n      pop\n      pop\n      pop\n      pop\n      mload(0x40)\n      returndatasize\n      0x00\n      dup3\n      returndatacopy\n      returndatasize\n      not(0x1f)\n      0x1f\n      dup3\n      add\n      and\n      dup3\n      add\n      dup1\n      0x40\n      mstore\n      pop\n      dup2\n      add\n      swap1\n      tag_52\n      swap2\n      swap1\n      tag_53\n      jump\t// in\n    tag_52:\n        /* \"contracts/LogSmartContract.sol\":1529:1635  DataUsageSmartContract.DataUsage memory dataUsage = dataUsageSmartContract.getDataUsageByKey(_dataUsageId) */\n      swap1\n      pop\n        /* \"contracts/LogSmartContract.sol\":1778:1809  bytes32[] memory processedDatas */\n      0x00\n        /* \"contracts/LogSmartContract.sol\":1826:1835  dataUsage */\n      dup2\n        /* \"contracts/LogSmartContract.sol\":1826:1851  dataUsage.personalDataIds */\n      0x80\n      add\n      mload\n        /* \"contracts/LogSmartContract.sol\":1826:1858  dataUsage.personalDataIds.length */\n      mload\n        /* \"contracts/LogSmartContract.sol\":1812:1859  new bytes32[](dataUsage.personalDataIds.length) */\n      0xffffffffffffffff\n      dup2\n      gt\n      iszero\n      tag_54\n      jumpi\n      tag_55\n      tag_56\n      jump\t// in\n    tag_55:\n    tag_54:\n      mload(0x40)\n      swap1\n      dup1\n      dup3\n      mstore\n      dup1\n      0x20\n      mul\n      0x20\n      add\n      dup3\n      add\n      0x40\n      mstore\n      dup1\n      iszero\n      tag_57\n      jumpi\n      dup2\n      0x20\n      add\n      0x20\n      dup3\n      mul\n      dup1\n      calldatasize\n      dup4\n      calldatacopy\n      dup1\n      dup3\n      add\n      swap2\n      pop\n      pop\n      swap1\n      pop\n    tag_57:\n      pop\n        /* \"contracts/LogSmartContract.sol\":1778:1859  bytes32[] memory processedDatas = new bytes32[](dataUsage.personalDataIds.length) */\n      swap1\n      pop\n        /* \"contracts/LogSmartContract.sol\":1873:1879  uint i */\n      0x00\n        /* \"contracts/LogSmartContract.sol\":1869:2055  for(uint i = 0; i < dataUsage.personalDataIds.length; ++i) {... */\n    tag_58:\n        /* \"contracts/LogSmartContract.sol\":1889:1898  dataUsage */\n      dup3\n        /* \"contracts/LogSmartContract.sol\":1889:1914  dataUsage.personalDataIds */\n      0x80\n      add\n      mload\n        /* \"contracts/LogSmartContract.sol\":1889:1921  dataUsage.personalDataIds.length */\n      mload\n        /* \"contracts/LogSmartContract.sol\":1885:1886  i */\n      dup2\n        /* \"contracts/LogSmartContract.sol\":1885:1921  i < dataUsage.personalDataIds.length */\n      lt\n        /* \"contracts/LogSmartContract.sol\":1869:2055  for(uint i = 0; i < dataUsage.personalDataIds.length; ++i) {... */\n      iszero\n      tag_59\n      jumpi\n        /* \"contracts/LogSmartContract.sol\":1962:1984  dataUsageSmartContract */\n      0x01\n      0x00\n      swap1\n      sload\n      swap1\n      0x0100\n      exp\n      swap1\n      div\n      0xffffffffffffffffffffffffffffffffffffffff\n      and\n        /* \"contracts/LogSmartContract.sol\":1962:2014  dataUsageSmartContract.getProcessedPersonalDataByKey */\n      0xffffffffffffffffffffffffffffffffffffffff\n      and\n      0xb61798f6\n        /* \"contracts/LogSmartContract.sol\":2015:2024  dataUsage */\n      dup5\n        /* \"contracts/LogSmartContract.sol\":2015:2040  dataUsage.personalDataIds */\n      0x80\n      add\n      mload\n        /* \"contracts/LogSmartContract.sol\":2041:2042  i */\n      dup4\n        /* \"contracts/LogSmartContract.sol\":2015:2043  dataUsage.personalDataIds[i] */\n      dup2\n      mload\n      dup2\n      lt\n      tag_61\n      jumpi\n      tag_62\n      tag_63\n      jump\t// in\n    tag_62:\n    tag_61:\n      0x20\n      mul\n      0x20\n      add\n      add\n      mload\n        /* \"contracts/LogSmartContract.sol\":1962:2044  dataUsageSmartContract.getProcessedPersonalDataByKey(dataUsage.personalDataIds[i]) */\n      mload(0x40)\n      dup3\n      0xffffffff\n      and\n      0xe0\n      shl\n      dup2\n      mstore\n      0x04\n      add\n      tag_64\n      swap2\n      swap1\n      tag_17\n      jump\t// in\n    tag_64:\n      0x20\n      mload(0x40)\n      dup1\n      dup4\n      sub\n      dup2\n      dup7\n      gas\n      staticcall\n      iszero\n      dup1\n      iszero\n      tag_66\n      jumpi\n      returndatasize\n      0x00\n      dup1\n      returndatacopy\n      revert(0x00, returndatasize)\n    tag_66:\n      pop\n      pop\n      pop\n      pop\n      mload(0x40)\n      returndatasize\n      not(0x1f)\n      0x1f\n      dup3\n      add\n      and\n      dup3\n      add\n      dup1\n      0x40\n      mstore\n      pop\n      dup2\n      add\n      swap1\n      tag_67\n      swap2\n      swap1\n      tag_68\n      jump\t// in\n    tag_67:\n        /* \"contracts/LogSmartContract.sol\":1942:1956  processedDatas */\n      dup3\n        /* \"contracts/LogSmartContract.sol\":1957:1958  i */\n      dup3\n        /* \"contracts/LogSmartContract.sol\":1942:1959  processedDatas[i] */\n      dup2\n      mload\n      dup2\n      lt\n      tag_69\n      jumpi\n      tag_70\n      tag_63\n      jump\t// in\n    tag_70:\n    tag_69:\n      0x20\n      mul\n      0x20\n      add\n      add\n        /* \"contracts/LogSmartContract.sol\":1942:2044  processedDatas[i] = dataUsageSmartContract.getProcessedPersonalDataByKey(dataUsage.personalDataIds[i]) */\n      dup2\n      dup2\n      mstore\n      pop\n      pop\n        /* \"contracts/LogSmartContract.sol\":1923:1926  ++i */\n      dup1\n      0x01\n      add\n      swap1\n      pop\n        /* \"contracts/LogSmartContract.sol\":1869:2055  for(uint i = 0; i < dataUsage.personalDataIds.length; ++i) {... */\n      jump(tag_58)\n    tag_59:\n      pop\n        /* \"contracts/LogSmartContract.sol\":2119:2359  Log({... */\n      mload(0x40)\n      dup1\n      0xa0\n      add\n      0x40\n      mstore\n      dup1\n        /* \"contracts/LogSmartContract.sol\":2150:2162  _dataUsageId */\n      dup5\n        /* \"contracts/LogSmartContract.sol\":2119:2359  Log({... */\n      dup2\n      mstore\n      0x20\n      add\n        /* \"contracts/LogSmartContract.sol\":2185:2194  dataUsage */\n      dup4\n        /* \"contracts/LogSmartContract.sol\":2185:2202  dataUsage.actorId */\n      0x40\n      add\n      mload\n        /* \"contracts/LogSmartContract.sol\":2119:2359  Log({... */\n      dup2\n      mstore\n      0x20\n      add\n        /* \"contracts/LogSmartContract.sol\":2228:2237  dataUsage */\n      dup4\n        /* \"contracts/LogSmartContract.sol\":2228:2248  dataUsage.operations */\n      0x60\n      add\n      mload\n        /* \"contracts/LogSmartContract.sol\":2119:2359  Log({... */\n      dup2\n      mstore\n      0x20\n      add\n        /* \"contracts/LogSmartContract.sol\":2275:2284  dataUsage */\n      dup4\n        /* \"contracts/LogSmartContract.sol\":2275:2296  dataUsage.serviceName */\n      0x00\n      add\n      mload\n        /* \"contracts/LogSmartContract.sol\":2119:2359  Log({... */\n      dup2\n      mstore\n      0x20\n      add\n        /* \"contracts/LogSmartContract.sol\":2334:2348  processedDatas */\n      dup3\n        /* \"contracts/LogSmartContract.sol\":2119:2359  Log({... */\n      dup2\n      mstore\n      pop\n        /* \"contracts/LogSmartContract.sol\":2098:2102  logs */\n      0x02\n        /* \"contracts/LogSmartContract.sol\":2098:2116  logs[_dataUsageId] */\n      0x00\n        /* \"contracts/LogSmartContract.sol\":2103:2115  _dataUsageId */\n      dup6\n        /* \"contracts/LogSmartContract.sol\":2098:2116  logs[_dataUsageId] */\n      dup2\n      mstore\n      0x20\n      add\n      swap1\n      dup2\n      mstore\n      0x20\n      add\n      0x00\n      keccak256\n        /* \"contracts/LogSmartContract.sol\":2098:2359  logs[_dataUsageId] = Log({... */\n      0x00\n      dup3\n      add\n      mload\n      dup2\n      0x00\n      add\n      sstore\n      0x20\n      dup3\n      add\n      mload\n      dup2\n      0x01\n      add\n      sstore\n      0x40\n      dup3\n      add\n      mload\n      dup2\n      0x02\n      add\n      swap1\n      dup1\n      mload\n      swap1\n      0x20\n      add\n      swap1\n      tag_71\n      swap3\n      swap2\n      swap1\n      tag_72\n      jump\t// in\n    tag_71:\n      pop\n      0x60\n      dup3\n      add\n      mload\n      dup2\n      0x03\n      add\n      sstore\n      0x80\n      dup3\n      add\n      mload\n      dup2\n      0x04\n      add\n      swap1\n      dup1\n      mload\n      swap1\n      0x20\n      add\n      swap1\n      tag_73\n      swap3\n      swap2\n      swap1\n      tag_74\n      jump\t// in\n    tag_73:\n      pop\n      swap1\n      pop\n      pop\n        /* \"contracts/LogSmartContract.sol\":2370:2377  logKeys */\n      0x03\n        /* \"contracts/LogSmartContract.sol\":2383:2395  _dataUsageId */\n      dup4\n        /* \"contracts/LogSmartContract.sol\":2370:2396  logKeys.push(_dataUsageId) */\n      swap1\n      dup1\n      0x01\n      dup2\n      sload\n      add\n      dup1\n      dup3\n      sstore\n      dup1\n      swap2\n      pop\n      pop\n      0x01\n      swap1\n      sub\n      swap1\n      0x00\n      mstore\n      keccak256(0x00, 0x20)\n      add\n      0x00\n      swap1\n      swap2\n      swap1\n      swap2\n      swap1\n      swap2\n      pop\n      sstore\n        /* \"contracts/LogSmartContract.sol\":2406:2416  logCounter */\n      0x04\n      0x00\n        /* \"contracts/LogSmartContract.sol\":2406:2418  logCounter++ */\n      dup2\n      sload\n      dup1\n      swap3\n      swap2\n      swap1\n      tag_76\n      swap1\n      tag_77\n      jump\t// in\n    tag_76:\n      swap2\n      swap1\n      pop\n      sstore\n      pop\n        /* \"contracts/LogSmartContract.sol\":2434:2456  LogAdded(_dataUsageId) */\n      0xc59b02a267f48426e708065a28f0948a454dafa87d33f04d8187b99b7203869f\n        /* \"contracts/LogSmartContract.sol\":2443:2455  _dataUsageId */\n      dup4\n        /* \"contracts/LogSmartContract.sol\":2434:2456  LogAdded(_dataUsageId) */\n      mload(0x40)\n      tag_78\n      swap2\n      swap1\n      tag_17\n      jump\t// in\n    tag_78:\n      mload(0x40)\n      dup1\n      swap2\n      sub\n      swap1\n      log1\n        /* \"contracts/LogSmartContract.sol\":1331:2463  {... */\n      pop\n      pop\n        /* \"contracts/LogSmartContract.sol\":1279:2463  function addLog(uint _dataUsageId) public onlyOwner {... */\n      pop\n      jump\t// out\n        /* \"contracts/LogSmartContract.sol\":2682:2771  function getLogKeys() public view returns (uint[] memory) {... */\n    tag_22:\n        /* \"contracts/LogSmartContract.sol\":2725:2738  uint[] memory */\n      0x60\n        /* \"contracts/LogSmartContract.sol\":2757:2764  logKeys */\n      0x03\n        /* \"contracts/LogSmartContract.sol\":2750:2764  return logKeys */\n      dup1\n      sload\n      dup1\n      0x20\n      mul\n      0x20\n      add\n      mload(0x40)\n      swap1\n      dup2\n      add\n      0x40\n      mstore\n      dup1\n      swap3\n      swap2\n      swap1\n      dup2\n      dup2\n      mstore\n      0x20\n      add\n      dup3\n      dup1\n      sload\n      dup1\n      iszero\n      tag_80\n      jumpi\n      0x20\n      mul\n      dup3\n      add\n      swap2\n      swap1\n      0x00\n      mstore\n      keccak256(0x00, 0x20)\n      swap1\n    tag_81:\n      dup2\n      sload\n      dup2\n      mstore\n      0x20\n      add\n      swap1\n      0x01\n      add\n      swap1\n      dup1\n      dup4\n      gt\n      tag_81\n      jumpi\n    tag_80:\n      pop\n      pop\n      pop\n      pop\n      pop\n      swap1\n      pop\n        /* \"contracts/LogSmartContract.sol\":2682:2771  function getLogKeys() public view returns (uint[] memory) {... */\n      swap1\n      jump\t// out\n        /* \"contracts/AccessControl.sol\":86:106  address public owner */\n    tag_26:\n      0x00\n      dup1\n      sload\n      swap1\n      0x0100\n      exp\n      swap1\n      div\n      0xffffffffffffffffffffffffffffffffffffffff\n      and\n      dup2\n      jump\t// out\n    tag_30:\n      mload(0x40)\n      dup1\n      0xa0\n      add\n      0x40\n      mstore\n      dup1\n      0x00\n      dup2\n      mstore\n      0x20\n      add\n      0x00\n      dup2\n      mstore\n      0x20\n      add\n      0x60\n      dup2\n      mstore\n      0x20\n      add\n      0x00\n      dup1\n      not\n      and\n      dup2\n      mstore\n      0x20\n      add\n      0x60\n      dup2\n      mstore\n      pop\n      swap1\n      jump\t// out\n    tag_72:\n      dup3\n      dup1\n      sload\n      dup3\n      dup3\n      sstore\n      swap1\n      0x00\n      mstore\n      keccak256(0x00, 0x20)\n      swap1\n      dup2\n      add\n      swap3\n      dup3\n      iszero\n      tag_82\n      jumpi\n      swap2\n      0x20\n      mul\n      dup3\n      add\n    tag_83:\n      dup3\n      dup2\n      gt\n      iszero\n      tag_84\n      jumpi\n      dup3\n      mload\n      dup3\n      swap1\n      dup2\n      tag_85\n      swap2\n      swap1\n      tag_86\n      jump\t// in\n    tag_85:\n      pop\n      swap2\n      0x20\n      add\n      swap2\n      swap1\n      0x01\n      add\n      swap1\n      jump(tag_83)\n    tag_84:\n    tag_82:\n      pop\n      swap1\n      pop\n      tag_87\n      swap2\n      swap1\n      tag_88\n      jump\t// in\n    tag_87:\n      pop\n      swap1\n      jump\t// out\n    tag_74:\n      dup3\n      dup1\n      sload\n      dup3\n      dup3\n      sstore\n      swap1\n      0x00\n      mstore\n      keccak256(0x00, 0x20)\n      swap1\n      dup2\n      add\n      swap3\n      dup3\n      iszero\n      tag_89\n      jumpi\n      swap2\n      0x20\n      mul\n      dup3\n      add\n    tag_90:\n      dup3\n      dup2\n      gt\n      iszero\n      tag_91\n      jumpi\n      dup3\n      mload\n      dup3\n      sstore\n      swap2\n      0x20\n      add\n      swap2\n      swap1\n      0x01\n      add\n      swap1\n      jump(tag_90)\n    tag_91:\n    tag_89:\n      pop\n      swap1\n      pop\n      tag_92\n      swap2\n      swap1\n      tag_93\n      jump\t// in\n    tag_92:\n      pop\n      swap1\n      jump\t// out\n    tag_88:\n    tag_94:\n      dup1\n      dup3\n      gt\n      iszero\n      tag_95\n      jumpi\n      0x00\n      dup2\n      dup2\n      tag_96\n      swap2\n      swap1\n      tag_97\n      jump\t// in\n    tag_96:\n      pop\n      0x01\n      add\n      jump(tag_94)\n    tag_95:\n      pop\n      swap1\n      jump\t// out\n    tag_93:\n    tag_98:\n      dup1\n      dup3\n      gt\n      iszero\n      tag_99\n      jumpi\n      0x00\n      dup2\n      0x00\n      swap1\n      sstore\n      pop\n      0x01\n      add\n      jump(tag_98)\n    tag_99:\n      pop\n      swap1\n      jump\t// out\n    tag_97:\n      pop\n      dup1\n      sload\n      tag_100\n      swap1\n      tag_36\n      jump\t// in\n    tag_100:\n      0x00\n      dup3\n      sstore\n      dup1\n      0x1f\n      lt\n      tag_102\n      jumpi\n      pop\n      jump(tag_101)\n    tag_102:\n      0x1f\n      add\n      0x20\n      swap1\n      div\n      swap1\n      0x00\n      mstore\n      keccak256(0x00, 0x20)\n      swap1\n      dup2\n      add\n      swap1\n      tag_103\n      swap2\n      swap1\n      tag_104\n      jump\t// in\n    tag_103:\n    tag_101:\n      pop\n      jump\t// out\n    tag_104:\n    tag_105:\n      dup1\n      dup3\n      gt\n      iszero\n      tag_106\n      jumpi\n      0x00\n      dup2\n      0x00\n      swap1\n      sstore\n      pop\n      0x01\n      add\n      jump(tag_105)\n    tag_106:\n      pop\n      swap1\n      jump\t// out\n        /* \"#utility.yul\":7:82   */\n    tag_107:\n        /* \"#utility.yul\":40:46   */\n      0x00\n        /* \"#utility.yul\":73:75   */\n      0x40\n        /* \"#utility.yul\":67:76   */\n      mload\n        /* \"#utility.yul\":57:76   */\n      swap1\n      pop\n        /* \"#utility.yul\":7:82   */\n      swap1\n      jump\t// out\n        /* \"#utility.yul\":88:205   */\n    tag_108:\n        /* \"#utility.yul\":197:198   */\n      0x00\n        /* \"#utility.yul\":194:195   */\n      dup1\n        /* \"#utility.yul\":187:199   */\n      revert\n        /* \"#utility.yul\":211:328   */\n    tag_109:\n        /* \"#utility.yul\":320:321   */\n      0x00\n        /* \"#utility.yul\":317:318   */\n      dup1\n        /* \"#utility.yul\":310:322   */\n      revert\n        /* \"#utility.yul\":334:411   */\n    tag_110:\n        /* \"#utility.yul\":371:378   */\n      0x00\n        /* \"#utility.yul\":400:405   */\n      dup2\n        /* \"#utility.yul\":389:405   */\n      swap1\n      pop\n        /* \"#utility.yul\":334:411   */\n      swap2\n      swap1\n      pop\n      jump\t// out\n        /* \"#utility.yul\":417:539   */\n    tag_111:\n        /* \"#utility.yul\":490:514   */\n      tag_193\n        /* \"#utility.yul\":508:513   */\n      dup2\n        /* \"#utility.yul\":490:514   */\n      tag_110\n      jump\t// in\n    tag_193:\n        /* \"#utility.yul\":483:488   */\n      dup2\n        /* \"#utility.yul\":480:515   */\n      eq\n        /* \"#utility.yul\":470:533   */\n      tag_194\n      jumpi\n        /* \"#utility.yul\":529:530   */\n      0x00\n        /* \"#utility.yul\":526:527   */\n      dup1\n        /* \"#utility.yul\":519:531   */\n      revert\n        /* \"#utility.yul\":470:533   */\n    tag_194:\n        /* \"#utility.yul\":417:539   */\n      pop\n      jump\t// out\n        /* \"#utility.yul\":545:684   */\n    tag_112:\n        /* \"#utility.yul\":591:596   */\n      0x00\n        /* \"#utility.yul\":629:635   */\n      dup2\n        /* \"#utility.yul\":616:636   */\n      calldataload\n        /* \"#utility.yul\":607:636   */\n      swap1\n      pop\n        /* \"#utility.yul\":645:678   */\n      tag_196\n        /* \"#utility.yul\":672:677   */\n      dup2\n        /* \"#utility.yul\":645:678   */\n      tag_111\n      jump\t// in\n    tag_196:\n        /* \"#utility.yul\":545:684   */\n      swap3\n      swap2\n      pop\n      pop\n      jump\t// out\n        /* \"#utility.yul\":690:1019   */\n    tag_10:\n        /* \"#utility.yul\":749:755   */\n      0x00\n        /* \"#utility.yul\":798:800   */\n      0x20\n        /* \"#utility.yul\":786:795   */\n      dup3\n        /* \"#utility.yul\":777:784   */\n      dup5\n        /* \"#utility.yul\":773:796   */\n      sub\n        /* \"#utility.yul\":769:801   */\n      slt\n        /* \"#utility.yul\":766:885   */\n      iszero\n      tag_198\n      jumpi\n        /* \"#utility.yul\":804:883   */\n      tag_199\n      tag_108\n      jump\t// in\n    tag_199:\n        /* \"#utility.yul\":766:885   */\n    tag_198:\n        /* \"#utility.yul\":924:925   */\n      0x00\n        /* \"#utility.yul\":949:1002   */\n      tag_200\n        /* \"#utility.yul\":994:1001   */\n      dup5\n        /* \"#utility.yul\":985:991   */\n      dup3\n        /* \"#utility.yul\":974:983   */\n      dup6\n        /* \"#utility.yul\":970:992   */\n      add\n        /* \"#utility.yul\":949:1002   */\n      tag_112\n      jump\t// in\n    tag_200:\n        /* \"#utility.yul\":939:1002   */\n      swap2\n      pop\n        /* \"#utility.yul\":895:1012   */\n      pop\n        /* \"#utility.yul\":690:1019   */\n      swap3\n      swap2\n      pop\n      pop\n      jump\t// out\n        /* \"#utility.yul\":1025:1133   */\n    tag_113:\n        /* \"#utility.yul\":1102:1126   */\n      tag_202\n        /* \"#utility.yul\":1120:1125   */\n      dup2\n        /* \"#utility.yul\":1102:1126   */\n      tag_110\n      jump\t// in\n    tag_202:\n        /* \"#utility.yul\":1097:1100   */\n      dup3\n        /* \"#utility.yul\":1090:1127   */\n      mstore\n        /* \"#utility.yul\":1025:1133   */\n      pop\n      pop\n      jump\t// out\n        /* \"#utility.yul\":1139:1263   */\n    tag_114:\n        /* \"#utility.yul\":1216:1222   */\n      0x00\n        /* \"#utility.yul\":1250:1255   */\n      dup2\n        /* \"#utility.yul\":1244:1256   */\n      mload\n        /* \"#utility.yul\":1234:1256   */\n      swap1\n      pop\n        /* \"#utility.yul\":1139:1263   */\n      swap2\n      swap1\n      pop\n      jump\t// out\n        /* \"#utility.yul\":1269:1453   */\n    tag_115:\n        /* \"#utility.yul\":1368:1379   */\n      0x00\n        /* \"#utility.yul\":1402:1408   */\n      dup3\n        /* \"#utility.yul\":1397:1400   */\n      dup3\n        /* \"#utility.yul\":1390:1409   */\n      mstore\n        /* \"#utility.yul\":1442:1446   */\n      0x20\n        /* \"#utility.yul\":1437:1440   */\n      dup3\n        /* \"#utility.yul\":1433:1447   */\n      add\n        /* \"#utility.yul\":1418:1447   */\n      swap1\n      pop\n        /* \"#utility.yul\":1269:1453   */\n      swap3\n      swap2\n      pop\n      pop\n      jump\t// out\n        /* \"#utility.yul\":1459:1601   */\n    tag_116:\n        /* \"#utility.yul\":1536:1540   */\n      0x00\n        /* \"#utility.yul\":1559:1562   */\n      dup2\n        /* \"#utility.yul\":1551:1562   */\n      swap1\n      pop\n        /* \"#utility.yul\":1589:1593   */\n      0x20\n        /* \"#utility.yul\":1584:1587   */\n      dup3\n        /* \"#utility.yul\":1580:1594   */\n      add\n        /* \"#utility.yul\":1572:1594   */\n      swap1\n      pop\n        /* \"#utility.yul\":1459:1601   */\n      swap2\n      swap1\n      pop\n      jump\t// out\n        /* \"#utility.yul\":1607:1706   */\n    tag_117:\n        /* \"#utility.yul\":1659:1665   */\n      0x00\n        /* \"#utility.yul\":1693:1698   */\n      dup2\n        /* \"#utility.yul\":1687:1699   */\n      mload\n        /* \"#utility.yul\":1677:1699   */\n      swap1\n      pop\n        /* \"#utility.yul\":1607:1706   */\n      swap2\n      swap1\n      pop\n      jump\t// out\n        /* \"#utility.yul\":1712:1871   */\n    tag_118:\n        /* \"#utility.yul\":1786:1797   */\n      0x00\n        /* \"#utility.yul\":1820:1826   */\n      dup3\n        /* \"#utility.yul\":1815:1818   */\n      dup3\n        /* \"#utility.yul\":1808:1827   */\n      mstore\n        /* \"#utility.yul\":1860:1864   */\n      0x20\n        /* \"#utility.yul\":1855:1858   */\n      dup3\n        /* \"#utility.yul\":1851:1865   */\n      add\n        /* \"#utility.yul\":1836:1865   */\n      swap1\n      pop\n        /* \"#utility.yul\":1712:1871   */\n      swap3\n      swap2\n      pop\n      pop\n      jump\t// out\n        /* \"#utility.yul\":1877:2123   */\n    tag_119:\n        /* \"#utility.yul\":1958:1959   */\n      0x00\n        /* \"#utility.yul\":1968:2081   */\n    tag_209:\n        /* \"#utility.yul\":1982:1988   */\n      dup4\n        /* \"#utility.yul\":1979:1980   */\n      dup2\n        /* \"#utility.yul\":1976:1989   */\n      lt\n        /* \"#utility.yul\":1968:2081   */\n      iszero\n      tag_211\n      jumpi\n        /* \"#utility.yul\":2067:2068   */\n      dup1\n        /* \"#utility.yul\":2062:2065   */\n      dup3\n        /* \"#utility.yul\":2058:2069   */\n      add\n        /* \"#utility.yul\":2052:2070   */\n      mload\n        /* \"#utility.yul\":2048:2049   */\n      dup2\n        /* \"#utility.yul\":2043:2046   */\n      dup5\n        /* \"#utility.yul\":2039:2050   */\n      add\n        /* \"#utility.yul\":2032:2071   */\n      mstore\n        /* \"#utility.yul\":2004:2006   */\n      0x20\n        /* \"#utility.yul\":2001:2002   */\n      dup2\n        /* \"#utility.yul\":1997:2007   */\n      add\n        /* \"#utility.yul\":1992:2007   */\n      swap1\n      pop\n        /* \"#utility.yul\":1968:2081   */\n      jump(tag_209)\n    tag_211:\n        /* \"#utility.yul\":2115:2116   */\n      0x00\n        /* \"#utility.yul\":2106:2112   */\n      dup5\n        /* \"#utility.yul\":2101:2104   */\n      dup5\n        /* \"#utility.yul\":2097:2113   */\n      add\n        /* \"#utility.yul\":2090:2117   */\n      mstore\n        /* \"#utility.yul\":1939:2123   */\n      pop\n        /* \"#utility.yul\":1877:2123   */\n      pop\n      pop\n      pop\n      jump\t// out\n        /* \"#utility.yul\":2129:2231   */\n    tag_120:\n        /* \"#utility.yul\":2170:2176   */\n      0x00\n        /* \"#utility.yul\":2221:2223   */\n      0x1f\n        /* \"#utility.yul\":2217:2224   */\n      not\n        /* \"#utility.yul\":2212:2214   */\n      0x1f\n        /* \"#utility.yul\":2205:2210   */\n      dup4\n        /* \"#utility.yul\":2201:2215   */\n      add\n        /* \"#utility.yul\":2197:2225   */\n      and\n        /* \"#utility.yul\":2187:2225   */\n      swap1\n      pop\n        /* \"#utility.yul\":2129:2231   */\n      swap2\n      swap1\n      pop\n      jump\t// out\n        /* \"#utility.yul\":2237:2594   */\n    tag_121:\n        /* \"#utility.yul\":2315:2318   */\n      0x00\n        /* \"#utility.yul\":2343:2382   */\n      tag_214\n        /* \"#utility.yul\":2376:2381   */\n      dup3\n        /* \"#utility.yul\":2343:2382   */\n      tag_117\n      jump\t// in\n    tag_214:\n        /* \"#utility.yul\":2398:2459   */\n      tag_215\n        /* \"#utility.yul\":2452:2458   */\n      dup2\n        /* \"#utility.yul\":2447:2450   */\n      dup6\n        /* \"#utility.yul\":2398:2459   */\n      tag_118\n      jump\t// in\n    tag_215:\n        /* \"#utility.yul\":2391:2459   */\n      swap4\n      pop\n        /* \"#utility.yul\":2468:2533   */\n      tag_216\n        /* \"#utility.yul\":2526:2532   */\n      dup2\n        /* \"#utility.yul\":2521:2524   */\n      dup6\n        /* \"#utility.yul\":2514:2518   */\n      0x20\n        /* \"#utility.yul\":2507:2512   */\n      dup7\n        /* \"#utility.yul\":2503:2519   */\n      add\n        /* \"#utility.yul\":2468:2533   */\n      tag_119\n      jump\t// in\n    tag_216:\n        /* \"#utility.yul\":2558:2587   */\n      tag_217\n        /* \"#utility.yul\":2580:2586   */\n      dup2\n        /* \"#utility.yul\":2558:2587   */\n      tag_120\n      jump\t// in\n    tag_217:\n        /* \"#utility.yul\":2553:2556   */\n      dup5\n        /* \"#utility.yul\":2549:2588   */\n      add\n        /* \"#utility.yul\":2542:2588   */\n      swap2\n      pop\n        /* \"#utility.yul\":2319:2594   */\n      pop\n        /* \"#utility.yul\":2237:2594   */\n      swap3\n      swap2\n      pop\n      pop\n      jump\t// out\n        /* \"#utility.yul\":2600:2796   */\n    tag_122:\n        /* \"#utility.yul\":2689:2699   */\n      0x00\n        /* \"#utility.yul\":2724:2790   */\n      tag_219\n        /* \"#utility.yul\":2786:2789   */\n      dup4\n        /* \"#utility.yul\":2778:2784   */\n      dup4\n        /* \"#utility.yul\":2724:2790   */\n      tag_121\n      jump\t// in\n    tag_219:\n        /* \"#utility.yul\":2710:2790   */\n      swap1\n      pop\n        /* \"#utility.yul\":2600:2796   */\n      swap3\n      swap2\n      pop\n      pop\n      jump\t// out\n        /* \"#utility.yul\":2802:2925   */\n    tag_123:\n        /* \"#utility.yul\":2882:2886   */\n      0x00\n        /* \"#utility.yul\":2914:2918   */\n      0x20\n        /* \"#utility.yul\":2909:2912   */\n      dup3\n        /* \"#utility.yul\":2905:2919   */\n      add\n        /* \"#utility.yul\":2897:2919   */\n      swap1\n      pop\n        /* \"#utility.yul\":2802:2925   */\n      swap2\n      swap1\n      pop\n      jump\t// out\n        /* \"#utility.yul\":2959:3930   */\n    tag_124:\n        /* \"#utility.yul\":3088:3091   */\n      0x00\n        /* \"#utility.yul\":3117:3181   */\n      tag_222\n        /* \"#utility.yul\":3175:3180   */\n      dup3\n        /* \"#utility.yul\":3117:3181   */\n      tag_114\n      jump\t// in\n    tag_222:\n        /* \"#utility.yul\":3197:3283   */\n      tag_223\n        /* \"#utility.yul\":3276:3282   */\n      dup2\n        /* \"#utility.yul\":3271:3274   */\n      dup6\n        /* \"#utility.yul\":3197:3283   */\n      tag_115\n      jump\t// in\n    tag_223:\n        /* \"#utility.yul\":3190:3283   */\n      swap4\n      pop\n        /* \"#utility.yul\":3309:3312   */\n      dup4\n        /* \"#utility.yul\":3354:3358   */\n      0x20\n        /* \"#utility.yul\":3346:3352   */\n      dup3\n        /* \"#utility.yul\":3342:3359   */\n      mul\n        /* \"#utility.yul\":3337:3340   */\n      dup6\n        /* \"#utility.yul\":3333:3360   */\n      add\n        /* \"#utility.yul\":3384:3450   */\n      tag_224\n        /* \"#utility.yul\":3444:3449   */\n      dup6\n        /* \"#utility.yul\":3384:3450   */\n      tag_116\n      jump\t// in\n    tag_224:\n        /* \"#utility.yul\":3473:3480   */\n      dup1\n        /* \"#utility.yul\":3504:3505   */\n      0x00\n        /* \"#utility.yul\":3489:3885   */\n    tag_225:\n        /* \"#utility.yul\":3514:3520   */\n      dup6\n        /* \"#utility.yul\":3511:3512   */\n      dup2\n        /* \"#utility.yul\":3508:3521   */\n      lt\n        /* \"#utility.yul\":3489:3885   */\n      iszero\n      tag_227\n      jumpi\n        /* \"#utility.yul\":3585:3594   */\n      dup5\n        /* \"#utility.yul\":3579:3583   */\n      dup5\n        /* \"#utility.yul\":3575:3595   */\n      sub\n        /* \"#utility.yul\":3570:3573   */\n      dup10\n        /* \"#utility.yul\":3563:3596   */\n      mstore\n        /* \"#utility.yul\":3636:3642   */\n      dup2\n        /* \"#utility.yul\":3630:3643   */\n      mload\n        /* \"#utility.yul\":3664:3748   */\n      tag_228\n        /* \"#utility.yul\":3743:3747   */\n      dup6\n        /* \"#utility.yul\":3728:3741   */\n      dup3\n        /* \"#utility.yul\":3664:3748   */\n      tag_122\n      jump\t// in\n    tag_228:\n        /* \"#utility.yul\":3656:3748   */\n      swap5\n      pop\n        /* \"#utility.yul\":3771:3841   */\n      tag_229\n        /* \"#utility.yul\":3834:3840   */\n      dup4\n        /* \"#utility.yul\":3771:3841   */\n      tag_123\n      jump\t// in\n    tag_229:\n        /* \"#utility.yul\":3761:3841   */\n      swap3\n      pop\n        /* \"#utility.yul\":3870:3874   */\n      0x20\n        /* \"#utility.yul\":3865:3868   */\n      dup11\n        /* \"#utility.yul\":3861:3875   */\n      add\n        /* \"#utility.yul\":3854:3875   */\n      swap10\n      pop\n        /* \"#utility.yul\":3549:3885   */\n      pop\n        /* \"#utility.yul\":3536:3537   */\n      0x01\n        /* \"#utility.yul\":3533:3534   */\n      dup2\n        /* \"#utility.yul\":3529:3538   */\n      add\n        /* \"#utility.yul\":3524:3538   */\n      swap1\n      pop\n        /* \"#utility.yul\":3489:3885   */\n      jump(tag_225)\n    tag_227:\n        /* \"#utility.yul\":3493:3507   */\n      pop\n        /* \"#utility.yul\":3901:3905   */\n      dup3\n        /* \"#utility.yul\":3894:3905   */\n      swap8\n      pop\n        /* \"#utility.yul\":3921:3924   */\n      dup8\n        /* \"#utility.yul\":3914:3924   */\n      swap6\n      pop\n        /* \"#utility.yul\":3093:3930   */\n      pop\n      pop\n      pop\n      pop\n      pop\n        /* \"#utility.yul\":2959:3930   */\n      swap3\n      swap2\n      pop\n      pop\n      jump\t// out\n        /* \"#utility.yul\":3936:4013   */\n    tag_125:\n        /* \"#utility.yul\":3973:3980   */\n      0x00\n        /* \"#utility.yul\":4002:4007   */\n      dup2\n        /* \"#utility.yul\":3991:4007   */\n      swap1\n      pop\n        /* \"#utility.yul\":3936:4013   */\n      swap2\n      swap1\n      pop\n      jump\t// out\n        /* \"#utility.yul\":4019:4127   */\n    tag_126:\n        /* \"#utility.yul\":4096:4120   */\n      tag_232\n        /* \"#utility.yul\":4114:4119   */\n      dup2\n        /* \"#utility.yul\":4096:4120   */\n      tag_125\n      jump\t// in\n    tag_232:\n        /* \"#utility.yul\":4091:4094   */\n      dup3\n        /* \"#utility.yul\":4084:4121   */\n      mstore\n        /* \"#utility.yul\":4019:4127   */\n      pop\n      pop\n      jump\t// out\n        /* \"#utility.yul\":4133:4247   */\n    tag_127:\n        /* \"#utility.yul\":4200:4206   */\n      0x00\n        /* \"#utility.yul\":4234:4239   */\n      dup2\n        /* \"#utility.yul\":4228:4240   */\n      mload\n        /* \"#utility.yul\":4218:4240   */\n      swap1\n      pop\n        /* \"#utility.yul\":4133:4247   */\n      swap2\n      swap1\n      pop\n      jump\t// out\n        /* \"#utility.yul\":4253:4427   */\n    tag_128:\n        /* \"#utility.yul\":4342:4353   */\n      0x00\n        /* \"#utility.yul\":4376:4382   */\n      dup3\n        /* \"#utility.yul\":4371:4374   */\n      dup3\n        /* \"#utility.yul\":4364:4383   */\n      mstore\n        /* \"#utility.yul\":4416:4420   */\n      0x20\n        /* \"#utility.yul\":4411:4414   */\n      dup3\n        /* \"#utility.yul\":4407:4421   */\n      add\n        /* \"#utility.yul\":4392:4421   */\n      swap1\n      pop\n        /* \"#utility.yul\":4253:4427   */\n      swap3\n      swap2\n      pop\n      pop\n      jump\t// out\n        /* \"#utility.yul\":4433:4565   */\n    tag_129:\n        /* \"#utility.yul\":4500:4504   */\n      0x00\n        /* \"#utility.yul\":4523:4526   */\n      dup2\n        /* \"#utility.yul\":4515:4526   */\n      swap1\n      pop\n        /* \"#utility.yul\":4553:4557   */\n      0x20\n        /* \"#utility.yul\":4548:4551   */\n      dup3\n        /* \"#utility.yul\":4544:4558   */\n      add\n        /* \"#utility.yul\":4536:4558   */\n      swap1\n      pop\n        /* \"#utility.yul\":4433:4565   */\n      swap2\n      swap1\n      pop\n      jump\t// out\n        /* \"#utility.yul\":4571:4750   */\n    tag_130:\n        /* \"#utility.yul\":4640:4650   */\n      0x00\n        /* \"#utility.yul\":4661:4707   */\n      tag_237\n        /* \"#utility.yul\":4703:4706   */\n      dup4\n        /* \"#utility.yul\":4695:4701   */\n      dup4\n        /* \"#utility.yul\":4661:4707   */\n      tag_126\n      jump\t// in\n    tag_237:\n        /* \"#utility.yul\":4739:4743   */\n      0x20\n        /* \"#utility.yul\":4734:4737   */\n      dup4\n        /* \"#utility.yul\":4730:4744   */\n      add\n        /* \"#utility.yul\":4716:4744   */\n      swap1\n      pop\n        /* \"#utility.yul\":4571:4750   */\n      swap3\n      swap2\n      pop\n      pop\n      jump\t// out\n        /* \"#utility.yul\":4756:4869   */\n    tag_131:\n        /* \"#utility.yul\":4826:4830   */\n      0x00\n        /* \"#utility.yul\":4858:4862   */\n      0x20\n        /* \"#utility.yul\":4853:4856   */\n      dup3\n        /* \"#utility.yul\":4849:4863   */\n      add\n        /* \"#utility.yul\":4841:4863   */\n      swap1\n      pop\n        /* \"#utility.yul\":4756:4869   */\n      swap2\n      swap1\n      pop\n      jump\t// out\n        /* \"#utility.yul\":4905:5617   */\n    tag_132:\n        /* \"#utility.yul\":5014:5017   */\n      0x00\n        /* \"#utility.yul\":5043:5097   */\n      tag_240\n        /* \"#utility.yul\":5091:5096   */\n      dup3\n        /* \"#utility.yul\":5043:5097   */\n      tag_127\n      jump\t// in\n    tag_240:\n        /* \"#utility.yul\":5113:5189   */\n      tag_241\n        /* \"#utility.yul\":5182:5188   */\n      dup2\n        /* \"#utility.yul\":5177:5180   */\n      dup6\n        /* \"#utility.yul\":5113:5189   */\n      tag_128\n      jump\t// in\n    tag_241:\n        /* \"#utility.yul\":5106:5189   */\n      swap4\n      pop\n        /* \"#utility.yul\":5213:5269   */\n      tag_242\n        /* \"#utility.yul\":5263:5268   */\n      dup4\n        /* \"#utility.yul\":5213:5269   */\n      tag_129\n      jump\t// in\n    tag_242:\n        /* \"#utility.yul\":5292:5299   */\n      dup1\n        /* \"#utility.yul\":5323:5324   */\n      0x00\n        /* \"#utility.yul\":5308:5592   */\n    tag_243:\n        /* \"#utility.yul\":5333:5339   */\n      dup4\n        /* \"#utility.yul\":5330:5331   */\n      dup2\n        /* \"#utility.yul\":5327:5340   */\n      lt\n        /* \"#utility.yul\":5308:5592   */\n      iszero\n      tag_245\n      jumpi\n        /* \"#utility.yul\":5409:5415   */\n      dup2\n        /* \"#utility.yul\":5403:5416   */\n      mload\n        /* \"#utility.yul\":5436:5499   */\n      tag_246\n        /* \"#utility.yul\":5495:5498   */\n      dup9\n        /* \"#utility.yul\":5480:5493   */\n      dup3\n        /* \"#utility.yul\":5436:5499   */\n      tag_130\n      jump\t// in\n    tag_246:\n        /* \"#utility.yul\":5429:5499   */\n      swap8\n      pop\n        /* \"#utility.yul\":5522:5582   */\n      tag_247\n        /* \"#utility.yul\":5575:5581   */\n      dup4\n        /* \"#utility.yul\":5522:5582   */\n      tag_131\n      jump\t// in\n    tag_247:\n        /* \"#utility.yul\":5512:5582   */\n      swap3\n      pop\n        /* \"#utility.yul\":5368:5592   */\n      pop\n        /* \"#utility.yul\":5355:5356   */\n      0x01\n        /* \"#utility.yul\":5352:5353   */\n      dup2\n        /* \"#utility.yul\":5348:5357   */\n      add\n        /* \"#utility.yul\":5343:5357   */\n      swap1\n      pop\n        /* \"#utility.yul\":5308:5592   */\n      jump(tag_243)\n    tag_245:\n        /* \"#utility.yul\":5312:5326   */\n      pop\n        /* \"#utility.yul\":5608:5611   */\n      dup6\n        /* \"#utility.yul\":5601:5611   */\n      swap4\n      pop\n        /* \"#utility.yul\":5019:5617   */\n      pop\n      pop\n      pop\n        /* \"#utility.yul\":4905:5617   */\n      swap3\n      swap2\n      pop\n      pop\n      jump\t// out\n        /* \"#utility.yul\":5689:6999   */\n    tag_133:\n        /* \"#utility.yul\":5798:5801   */\n      0x00\n        /* \"#utility.yul\":5834:5838   */\n      0xa0\n        /* \"#utility.yul\":5829:5832   */\n      dup4\n        /* \"#utility.yul\":5825:5839   */\n      add\n        /* \"#utility.yul\":5928:5932   */\n      0x00\n        /* \"#utility.yul\":5921:5926   */\n      dup4\n        /* \"#utility.yul\":5917:5933   */\n      add\n        /* \"#utility.yul\":5911:5934   */\n      mload\n        /* \"#utility.yul\":5947:6010   */\n      tag_249\n        /* \"#utility.yul\":6004:6008   */\n      0x00\n        /* \"#utility.yul\":5999:6002   */\n      dup7\n        /* \"#utility.yul\":5995:6009   */\n      add\n        /* \"#utility.yul\":5981:5993   */\n      dup3\n        /* \"#utility.yul\":5947:6010   */\n      tag_113\n      jump\t// in\n    tag_249:\n        /* \"#utility.yul\":5849:6020   */\n      pop\n        /* \"#utility.yul\":6105:6109   */\n      0x20\n        /* \"#utility.yul\":6098:6103   */\n      dup4\n        /* \"#utility.yul\":6094:6110   */\n      add\n        /* \"#utility.yul\":6088:6111   */\n      mload\n        /* \"#utility.yul\":6124:6187   */\n      tag_250\n        /* \"#utility.yul\":6181:6185   */\n      0x20\n        /* \"#utility.yul\":6176:6179   */\n      dup7\n        /* \"#utility.yul\":6172:6186   */\n      add\n        /* \"#utility.yul\":6158:6170   */\n      dup3\n        /* \"#utility.yul\":6124:6187   */\n      tag_113\n      jump\t// in\n    tag_250:\n        /* \"#utility.yul\":6030:6197   */\n      pop\n        /* \"#utility.yul\":6285:6289   */\n      0x40\n        /* \"#utility.yul\":6278:6283   */\n      dup4\n        /* \"#utility.yul\":6274:6290   */\n      add\n        /* \"#utility.yul\":6268:6291   */\n      mload\n        /* \"#utility.yul\":6338:6341   */\n      dup5\n        /* \"#utility.yul\":6332:6336   */\n      dup3\n        /* \"#utility.yul\":6328:6342   */\n      sub\n        /* \"#utility.yul\":6321:6325   */\n      0x40\n        /* \"#utility.yul\":6316:6319   */\n      dup7\n        /* \"#utility.yul\":6312:6326   */\n      add\n        /* \"#utility.yul\":6305:6343   */\n      mstore\n        /* \"#utility.yul\":6364:6487   */\n      tag_251\n        /* \"#utility.yul\":6482:6486   */\n      dup3\n        /* \"#utility.yul\":6468:6480   */\n      dup3\n        /* \"#utility.yul\":6364:6487   */\n      tag_124\n      jump\t// in\n    tag_251:\n        /* \"#utility.yul\":6356:6487   */\n      swap2\n      pop\n        /* \"#utility.yul\":6207:6498   */\n      pop\n        /* \"#utility.yul\":6587:6591   */\n      0x60\n        /* \"#utility.yul\":6580:6585   */\n      dup4\n        /* \"#utility.yul\":6576:6592   */\n      add\n        /* \"#utility.yul\":6570:6593   */\n      mload\n        /* \"#utility.yul\":6606:6669   */\n      tag_252\n        /* \"#utility.yul\":6663:6667   */\n      0x60\n        /* \"#utility.yul\":6658:6661   */\n      dup7\n        /* \"#utility.yul\":6654:6668   */\n      add\n        /* \"#utility.yul\":6640:6652   */\n      dup3\n        /* \"#utility.yul\":6606:6669   */\n      tag_126\n      jump\t// in\n    tag_252:\n        /* \"#utility.yul\":6508:6679   */\n      pop\n        /* \"#utility.yul\":6779:6783   */\n      0x80\n        /* \"#utility.yul\":6772:6777   */\n      dup4\n        /* \"#utility.yul\":6768:6784   */\n      add\n        /* \"#utility.yul\":6762:6785   */\n      mload\n        /* \"#utility.yul\":6832:6835   */\n      dup5\n        /* \"#utility.yul\":6826:6830   */\n      dup3\n        /* \"#utility.yul\":6822:6836   */\n      sub\n        /* \"#utility.yul\":6815:6819   */\n      0x80\n        /* \"#utility.yul\":6810:6813   */\n      dup7\n        /* \"#utility.yul\":6806:6820   */\n      add\n        /* \"#utility.yul\":6799:6837   */\n      mstore\n        /* \"#utility.yul\":6858:6961   */\n      tag_253\n        /* \"#utility.yul\":6956:6960   */\n      dup3\n        /* \"#utility.yul\":6942:6954   */\n      dup3\n        /* \"#utility.yul\":6858:6961   */\n      tag_132\n      jump\t// in\n    tag_253:\n        /* \"#utility.yul\":6850:6961   */\n      swap2\n      pop\n        /* \"#utility.yul\":6689:6972   */\n      pop\n        /* \"#utility.yul\":6989:6993   */\n      dup1\n        /* \"#utility.yul\":6982:6993   */\n      swap2\n      pop\n        /* \"#utility.yul\":5803:6999   */\n      pop\n        /* \"#utility.yul\":5689:6999   */\n      swap3\n      swap2\n      pop\n      pop\n      jump\t// out\n        /* \"#utility.yul\":7005:7358   */\n    tag_13:\n        /* \"#utility.yul\":7138:7142   */\n      0x00\n        /* \"#utility.yul\":7176:7178   */\n      0x20\n        /* \"#utility.yul\":7165:7174   */\n      dup3\n        /* \"#utility.yul\":7161:7179   */\n      add\n        /* \"#utility.yul\":7153:7179   */\n      swap1\n      pop\n        /* \"#utility.yul\":7225:7234   */\n      dup2\n        /* \"#utility.yul\":7219:7223   */\n      dup2\n        /* \"#utility.yul\":7215:7235   */\n      sub\n        /* \"#utility.yul\":7211:7212   */\n      0x00\n        /* \"#utility.yul\":7200:7209   */\n      dup4\n        /* \"#utility.yul\":7196:7213   */\n      add\n        /* \"#utility.yul\":7189:7236   */\n      mstore\n        /* \"#utility.yul\":7253:7351   */\n      tag_255\n        /* \"#utility.yul\":7346:7350   */\n      dup2\n        /* \"#utility.yul\":7337:7343   */\n      dup5\n        /* \"#utility.yul\":7253:7351   */\n      tag_133\n      jump\t// in\n    tag_255:\n        /* \"#utility.yul\":7245:7351   */\n      swap1\n      pop\n        /* \"#utility.yul\":7005:7358   */\n      swap3\n      swap2\n      pop\n      pop\n      jump\t// out\n        /* \"#utility.yul\":7364:7482   */\n    tag_134:\n        /* \"#utility.yul\":7451:7475   */\n      tag_257\n        /* \"#utility.yul\":7469:7474   */\n      dup2\n        /* \"#utility.yul\":7451:7475   */\n      tag_110\n      jump\t// in\n    tag_257:\n        /* \"#utility.yul\":7446:7449   */\n      dup3\n        /* \"#utility.yul\":7439:7476   */\n      mstore\n        /* \"#utility.yul\":7364:7482   */\n      pop\n      pop\n      jump\t// out\n        /* \"#utility.yul\":7488:7710   */\n    tag_17:\n        /* \"#utility.yul\":7581:7585   */\n      0x00\n        /* \"#utility.yul\":7619:7621   */\n      0x20\n        /* \"#utility.yul\":7608:7617   */\n      dup3\n        /* \"#utility.yul\":7604:7622   */\n      add\n        /* \"#utility.yul\":7596:7622   */\n      swap1\n      pop\n        /* \"#utility.yul\":7632:7703   */\n      tag_259\n        /* \"#utility.yul\":7700:7701   */\n      0x00\n        /* \"#utility.yul\":7689:7698   */\n      dup4\n        /* \"#utility.yul\":7685:7702   */\n      add\n        /* \"#utility.yul\":7676:7682   */\n      dup5\n        /* \"#utility.yul\":7632:7703   */\n      tag_134\n      jump\t// in\n    tag_259:\n        /* \"#utility.yul\":7488:7710   */\n      swap3\n      swap2\n      pop\n      pop\n      jump\t// out\n        /* \"#utility.yul\":7716:7830   */\n    tag_135:\n        /* \"#utility.yul\":7783:7789   */\n      0x00\n        /* \"#utility.yul\":7817:7822   */\n      dup2\n        /* \"#utility.yul\":7811:7823   */\n      mload\n        /* \"#utility.yul\":7801:7823   */\n      swap1\n      pop\n        /* \"#utility.yul\":7716:7830   */\n      swap2\n      swap1\n      pop\n      jump\t// out\n        /* \"#utility.yul\":7836:8020   */\n    tag_136:\n        /* \"#utility.yul\":7935:7946   */\n      0x00\n        /* \"#utility.yul\":7969:7975   */\n      dup3\n        /* \"#utility.yul\":7964:7967   */\n      dup3\n        /* \"#utility.yul\":7957:7976   */\n      mstore\n        /* \"#utility.yul\":8009:8013   */\n      0x20\n        /* \"#utility.yul\":8004:8007   */\n      dup3\n        /* \"#utility.yul\":8000:8014   */\n      add\n        /* \"#utility.yul\":7985:8014   */\n      swap1\n      pop\n        /* \"#utility.yul\":7836:8020   */\n      swap3\n      swap2\n      pop\n      pop\n      jump\t// out\n        /* \"#utility.yul\":8026:8158   */\n    tag_137:\n        /* \"#utility.yul\":8093:8097   */\n      0x00\n        /* \"#utility.yul\":8116:8119   */\n      dup2\n        /* \"#utility.yul\":8108:8119   */\n      swap1\n      pop\n        /* \"#utility.yul\":8146:8150   */\n      0x20\n        /* \"#utility.yul\":8141:8144   */\n      dup3\n        /* \"#utility.yul\":8137:8151   */\n      add\n        /* \"#utility.yul\":8129:8151   */\n      swap1\n      pop\n        /* \"#utility.yul\":8026:8158   */\n      swap2\n      swap1\n      pop\n      jump\t// out\n        /* \"#utility.yul\":8164:8343   */\n    tag_138:\n        /* \"#utility.yul\":8233:8243   */\n      0x00\n        /* \"#utility.yul\":8254:8300   */\n      tag_264\n        /* \"#utility.yul\":8296:8299   */\n      dup4\n        /* \"#utility.yul\":8288:8294   */\n      dup4\n        /* \"#utility.yul\":8254:8300   */\n      tag_113\n      jump\t// in\n    tag_264:\n        /* \"#utility.yul\":8332:8336   */\n      0x20\n        /* \"#utility.yul\":8327:8330   */\n      dup4\n        /* \"#utility.yul\":8323:8337   */\n      add\n        /* \"#utility.yul\":8309:8337   */\n      swap1\n      pop\n        /* \"#utility.yul\":8164:8343   */\n      swap3\n      swap2\n      pop\n      pop\n      jump\t// out\n        /* \"#utility.yul\":8349:8462   */\n    tag_139:\n        /* \"#utility.yul\":8419:8423   */\n      0x00\n        /* \"#utility.yul\":8451:8455   */\n      0x20\n        /* \"#utility.yul\":8446:8449   */\n      dup3\n        /* \"#utility.yul\":8442:8456   */\n      add\n        /* \"#utility.yul\":8434:8456   */\n      swap1\n      pop\n        /* \"#utility.yul\":8349:8462   */\n      swap2\n      swap1\n      pop\n      jump\t// out\n        /* \"#utility.yul\":8498:9230   */\n    tag_140:\n        /* \"#utility.yul\":8617:8620   */\n      0x00\n        /* \"#utility.yul\":8646:8700   */\n      tag_267\n        /* \"#utility.yul\":8694:8699   */\n      dup3\n        /* \"#utility.yul\":8646:8700   */\n      tag_135\n      jump\t// in\n    tag_267:\n        /* \"#utility.yul\":8716:8802   */\n      tag_268\n        /* \"#utility.yul\":8795:8801   */\n      dup2\n        /* \"#utility.yul\":8790:8793   */\n      dup6\n        /* \"#utility.yul\":8716:8802   */\n      tag_136\n      jump\t// in\n    tag_268:\n        /* \"#utility.yul\":8709:8802   */\n      swap4\n      pop\n        /* \"#utility.yul\":8826:8882   */\n      tag_269\n        /* \"#utility.yul\":8876:8881   */\n      dup4\n        /* \"#utility.yul\":8826:8882   */\n      tag_137\n      jump\t// in\n    tag_269:\n        /* \"#utility.yul\":8905:8912   */\n      dup1\n        /* \"#utility.yul\":8936:8937   */\n      0x00\n        /* \"#utility.yul\":8921:9205   */\n    tag_270:\n        /* \"#utility.yul\":8946:8952   */\n      dup4\n        /* \"#utility.yul\":8943:8944   */\n      dup2\n        /* \"#utility.yul\":8940:8953   */\n      lt\n        /* \"#utility.yul\":8921:9205   */\n      iszero\n      tag_272\n      jumpi\n        /* \"#utility.yul\":9022:9028   */\n      dup2\n        /* \"#utility.yul\":9016:9029   */\n      mload\n        /* \"#utility.yul\":9049:9112   */\n      tag_273\n        /* \"#utility.yul\":9108:9111   */\n      dup9\n        /* \"#utility.yul\":9093:9106   */\n      dup3\n        /* \"#utility.yul\":9049:9112   */\n      tag_138\n      jump\t// in\n    tag_273:\n        /* \"#utility.yul\":9042:9112   */\n      swap8\n      pop\n        /* \"#utility.yul\":9135:9195   */\n      tag_274\n        /* \"#utility.yul\":9188:9194   */\n      dup4\n        /* \"#utility.yul\":9135:9195   */\n      tag_139\n      jump\t// in\n    tag_274:\n        /* \"#utility.yul\":9125:9195   */\n      swap3\n      pop\n        /* \"#utility.yul\":8981:9205   */\n      pop\n        /* \"#utility.yul\":8968:8969   */\n      0x01\n        /* \"#utility.yul\":8965:8966   */\n      dup2\n        /* \"#utility.yul\":8961:8970   */\n      add\n        /* \"#utility.yul\":8956:8970   */\n      swap1\n      pop\n        /* \"#utility.yul\":8921:9205   */\n      jump(tag_270)\n    tag_272:\n        /* \"#utility.yul\":8925:8939   */\n      pop\n        /* \"#utility.yul\":9221:9224   */\n      dup6\n        /* \"#utility.yul\":9214:9224   */\n      swap4\n      pop\n        /* \"#utility.yul\":8622:9230   */\n      pop\n      pop\n      pop\n        /* \"#utility.yul\":8498:9230   */\n      swap3\n      swap2\n      pop\n      pop\n      jump\t// out\n        /* \"#utility.yul\":9236:9609   */\n    tag_24:\n        /* \"#utility.yul\":9379:9383   */\n      0x00\n        /* \"#utility.yul\":9417:9419   */\n      0x20\n        /* \"#utility.yul\":9406:9415   */\n      dup3\n        /* \"#utility.yul\":9402:9420   */\n      add\n        /* \"#utility.yul\":9394:9420   */\n      swap1\n      pop\n        /* \"#utility.yul\":9466:9475   */\n      dup2\n        /* \"#utility.yul\":9460:9464   */\n      dup2\n        /* \"#utility.yul\":9456:9476   */\n      sub\n        /* \"#utility.yul\":9452:9453   */\n      0x00\n        /* \"#utility.yul\":9441:9450   */\n      dup4\n        /* \"#utility.yul\":9437:9454   */\n      add\n        /* \"#utility.yul\":9430:9477   */\n      mstore\n        /* \"#utility.yul\":9494:9602   */\n      tag_276\n        /* \"#utility.yul\":9597:9601   */\n      dup2\n        /* \"#utility.yul\":9588:9594   */\n      dup5\n        /* \"#utility.yul\":9494:9602   */\n      tag_140\n      jump\t// in\n    tag_276:\n        /* \"#utility.yul\":9486:9602   */\n      swap1\n      pop\n        /* \"#utility.yul\":9236:9609   */\n      swap3\n      swap2\n      pop\n      pop\n      jump\t// out\n        /* \"#utility.yul\":9615:9741   */\n    tag_141:\n        /* \"#utility.yul\":9652:9659   */\n      0x00\n        /* \"#utility.yul\":9692:9734   */\n      0xffffffffffffffffffffffffffffffffffffffff\n        /* \"#utility.yul\":9685:9690   */\n      dup3\n        /* \"#utility.yul\":9681:9735   */\n      and\n        /* \"#utility.yul\":9670:9735   */\n      swap1\n      pop\n        /* \"#utility.yul\":9615:9741   */\n      swap2\n      swap1\n      pop\n      jump\t// out\n        /* \"#utility.yul\":9747:9843   */\n    tag_142:\n        /* \"#utility.yul\":9784:9791   */\n      0x00\n        /* \"#utility.yul\":9813:9837   */\n      tag_279\n        /* \"#utility.yul\":9831:9836   */\n      dup3\n        /* \"#utility.yul\":9813:9837   */\n      tag_141\n      jump\t// in\n    tag_279:\n        /* \"#utility.yul\":9802:9837   */\n      swap1\n      pop\n        /* \"#utility.yul\":9747:9843   */\n      swap2\n      swap1\n      pop\n      jump\t// out\n        /* \"#utility.yul\":9849:9967   */\n    tag_143:\n        /* \"#utility.yul\":9936:9960   */\n      tag_281\n        /* \"#utility.yul\":9954:9959   */\n      dup2\n        /* \"#utility.yul\":9936:9960   */\n      tag_142\n      jump\t// in\n    tag_281:\n        /* \"#utility.yul\":9931:9934   */\n      dup3\n        /* \"#utility.yul\":9924:9961   */\n      mstore\n        /* \"#utility.yul\":9849:9967   */\n      pop\n      pop\n      jump\t// out\n        /* \"#utility.yul\":9973:10195   */\n    tag_28:\n        /* \"#utility.yul\":10066:10070   */\n      0x00\n        /* \"#utility.yul\":10104:10106   */\n      0x20\n        /* \"#utility.yul\":10093:10102   */\n      dup3\n        /* \"#utility.yul\":10089:10107   */\n      add\n        /* \"#utility.yul\":10081:10107   */\n      swap1\n      pop\n        /* \"#utility.yul\":10117:10188   */\n      tag_283\n        /* \"#utility.yul\":10185:10186   */\n      0x00\n        /* \"#utility.yul\":10174:10183   */\n      dup4\n        /* \"#utility.yul\":10170:10187   */\n      add\n        /* \"#utility.yul\":10161:10167   */\n      dup5\n        /* \"#utility.yul\":10117:10188   */\n      tag_143\n      jump\t// in\n    tag_283:\n        /* \"#utility.yul\":9973:10195   */\n      swap3\n      swap2\n      pop\n      pop\n      jump\t// out\n        /* \"#utility.yul\":10201:10381   */\n    tag_144:\n        /* \"#utility.yul\":10249:10326   */\n      0x4e487b7100000000000000000000000000000000000000000000000000000000\n        /* \"#utility.yul\":10246:10247   */\n      0x00\n        /* \"#utility.yul\":10239:10327   */\n      mstore\n        /* \"#utility.yul\":10346:10350   */\n      0x22\n        /* \"#utility.yul\":10343:10344   */\n      0x04\n        /* \"#utility.yul\":10336:10351   */\n      mstore\n        /* \"#utility.yul\":10370:10374   */\n      0x24\n        /* \"#utility.yul\":10367:10368   */\n      0x00\n        /* \"#utility.yul\":10360:10375   */\n      revert\n        /* \"#utility.yul\":10387:10707   */\n    tag_36:\n        /* \"#utility.yul\":10431:10437   */\n      0x00\n        /* \"#utility.yul\":10468:10469   */\n      0x02\n        /* \"#utility.yul\":10462:10466   */\n      dup3\n        /* \"#utility.yul\":10458:10470   */\n      div\n        /* \"#utility.yul\":10448:10470   */\n      swap1\n      pop\n        /* \"#utility.yul\":10515:10516   */\n      0x01\n        /* \"#utility.yul\":10509:10513   */\n      dup3\n        /* \"#utility.yul\":10505:10517   */\n      and\n        /* \"#utility.yul\":10536:10554   */\n      dup1\n        /* \"#utility.yul\":10526:10607   */\n      tag_286\n      jumpi\n        /* \"#utility.yul\":10592:10596   */\n      0x7f\n        /* \"#utility.yul\":10584:10590   */\n      dup3\n        /* \"#utility.yul\":10580:10597   */\n      and\n        /* \"#utility.yul\":10570:10597   */\n      swap2\n      pop\n        /* \"#utility.yul\":10526:10607   */\n    tag_286:\n        /* \"#utility.yul\":10654:10656   */\n      0x20\n        /* \"#utility.yul\":10646:10652   */\n      dup3\n        /* \"#utility.yul\":10643:10657   */\n      lt\n        /* \"#utility.yul\":10623:10641   */\n      dup2\n        /* \"#utility.yul\":10620:10658   */\n      sub\n        /* \"#utility.yul\":10617:10701   */\n      tag_287\n      jumpi\n        /* \"#utility.yul\":10673:10691   */\n      tag_288\n      tag_144\n      jump\t// in\n    tag_288:\n        /* \"#utility.yul\":10617:10701   */\n    tag_287:\n        /* \"#utility.yul\":10438:10707   */\n      pop\n        /* \"#utility.yul\":10387:10707   */\n      swap2\n      swap1\n      pop\n      jump\t// out\n        /* \"#utility.yul\":10713:10882   */\n    tag_145:\n        /* \"#utility.yul\":10797:10808   */\n      0x00\n        /* \"#utility.yul\":10831:10837   */\n      dup3\n        /* \"#utility.yul\":10826:10829   */\n      dup3\n        /* \"#utility.yul\":10819:10838   */\n      mstore\n        /* \"#utility.yul\":10871:10875   */\n      0x20\n        /* \"#utility.yul\":10866:10869   */\n      dup3\n        /* \"#utility.yul\":10862:10876   */\n      add\n        /* \"#utility.yul\":10847:10876   */\n      swap1\n      pop\n        /* \"#utility.yul\":10713:10882   */\n      swap3\n      swap2\n      pop\n      pop\n      jump\t// out\n        /* \"#utility.yul\":10888:11125   */\n    tag_146:\n        /* \"#utility.yul\":11028:11062   */\n      0x4f6e6c792074686520636f6e7472616374206f776e65722063616e2070657266\n        /* \"#utility.yul\":11024:11025   */\n      0x00\n        /* \"#utility.yul\":11016:11022   */\n      dup3\n        /* \"#utility.yul\":11012:11026   */\n      add\n        /* \"#utility.yul\":11005:11063   */\n      mstore\n        /* \"#utility.yul\":11097:11117   */\n      0x6f726d2074686973206f7065726174696f6e0000000000000000000000000000\n        /* \"#utility.yul\":11092:11094   */\n      0x20\n        /* \"#utility.yul\":11084:11090   */\n      dup3\n        /* \"#utility.yul\":11080:11095   */\n      add\n        /* \"#utility.yul\":11073:11118   */\n      mstore\n        /* \"#utility.yul\":10888:11125   */\n      pop\n      jump\t// out\n        /* \"#utility.yul\":11131:11497   */\n    tag_147:\n        /* \"#utility.yul\":11273:11276   */\n      0x00\n        /* \"#utility.yul\":11294:11361   */\n      tag_292\n        /* \"#utility.yul\":11358:11360   */\n      0x32\n        /* \"#utility.yul\":11353:11356   */\n      dup4\n        /* \"#utility.yul\":11294:11361   */\n      tag_145\n      jump\t// in\n    tag_292:\n        /* \"#utility.yul\":11287:11361   */\n      swap2\n      pop\n        /* \"#utility.yul\":11370:11463   */\n      tag_293\n        /* \"#utility.yul\":11459:11462   */\n      dup3\n        /* \"#utility.yul\":11370:11463   */\n      tag_146\n      jump\t// in\n    tag_293:\n        /* \"#utility.yul\":11488:11490   */\n      0x40\n        /* \"#utility.yul\":11483:11486   */\n      dup3\n        /* \"#utility.yul\":11479:11491   */\n      add\n        /* \"#utility.yul\":11472:11491   */\n      swap1\n      pop\n        /* \"#utility.yul\":11131:11497   */\n      swap2\n      swap1\n      pop\n      jump\t// out\n        /* \"#utility.yul\":11503:11922   */\n    tag_47:\n        /* \"#utility.yul\":11669:11673   */\n      0x00\n        /* \"#utility.yul\":11707:11709   */\n      0x20\n        /* \"#utility.yul\":11696:11705   */\n      dup3\n        /* \"#utility.yul\":11692:11710   */\n      add\n        /* \"#utility.yul\":11684:11710   */\n      swap1\n      pop\n        /* \"#utility.yul\":11756:11765   */\n      dup2\n        /* \"#utility.yul\":11750:11754   */\n      dup2\n        /* \"#utility.yul\":11746:11766   */\n      sub\n        /* \"#utility.yul\":11742:11743   */\n      0x00\n        /* \"#utility.yul\":11731:11740   */\n      dup4\n        /* \"#utility.yul\":11727:11744   */\n      add\n        /* \"#utility.yul\":11720:11767   */\n      mstore\n        /* \"#utility.yul\":11784:11915   */\n      tag_295\n        /* \"#utility.yul\":11910:11914   */\n      dup2\n        /* \"#utility.yul\":11784:11915   */\n      tag_147\n      jump\t// in\n    tag_295:\n        /* \"#utility.yul\":11776:11915   */\n      swap1\n      pop\n        /* \"#utility.yul\":11503:11922   */\n      swap2\n      swap1\n      pop\n      jump\t// out\n        /* \"#utility.yul\":11928:12045   */\n    tag_148:\n        /* \"#utility.yul\":12037:12038   */\n      0x00\n        /* \"#utility.yul\":12034:12035   */\n      dup1\n        /* \"#utility.yul\":12027:12039   */\n      revert\n        /* \"#utility.yul\":12051:12231   */\n    tag_56:\n        /* \"#utility.yul\":12099:12176   */\n      0x4e487b7100000000000000000000000000000000000000000000000000000000\n        /* \"#utility.yul\":12096:12097   */\n      0x00\n        /* \"#utility.yul\":12089:12177   */\n      mstore\n        /* \"#utility.yul\":12196:12200   */\n      0x41\n        /* \"#utility.yul\":12193:12194   */\n      0x04\n        /* \"#utility.yul\":12186:12201   */\n      mstore\n        /* \"#utility.yul\":12220:12224   */\n      0x24\n        /* \"#utility.yul\":12217:12218   */\n      0x00\n        /* \"#utility.yul\":12210:12225   */\n      revert\n        /* \"#utility.yul\":12237:12518   */\n    tag_149:\n        /* \"#utility.yul\":12320:12347   */\n      tag_299\n        /* \"#utility.yul\":12342:12346   */\n      dup3\n        /* \"#utility.yul\":12320:12347   */\n      tag_120\n      jump\t// in\n    tag_299:\n        /* \"#utility.yul\":12312:12318   */\n      dup2\n        /* \"#utility.yul\":12308:12348   */\n      add\n        /* \"#utility.yul\":12450:12456   */\n      dup2\n        /* \"#utility.yul\":12438:12448   */\n      dup2\n        /* \"#utility.yul\":12435:12457   */\n      lt\n        /* \"#utility.yul\":12414:12432   */\n      0xffffffffffffffff\n        /* \"#utility.yul\":12402:12412   */\n      dup3\n        /* \"#utility.yul\":12399:12433   */\n      gt\n        /* \"#utility.yul\":12396:12458   */\n      or\n        /* \"#utility.yul\":12393:12481   */\n      iszero\n      tag_300\n      jumpi\n        /* \"#utility.yul\":12461:12479   */\n      tag_301\n      tag_56\n      jump\t// in\n    tag_301:\n        /* \"#utility.yul\":12393:12481   */\n    tag_300:\n        /* \"#utility.yul\":12501:12511   */\n      dup1\n        /* \"#utility.yul\":12497:12499   */\n      0x40\n        /* \"#utility.yul\":12490:12512   */\n      mstore\n        /* \"#utility.yul\":12280:12518   */\n      pop\n        /* \"#utility.yul\":12237:12518   */\n      pop\n      pop\n      jump\t// out\n        /* \"#utility.yul\":12524:12653   */\n    tag_150:\n        /* \"#utility.yul\":12558:12564   */\n      0x00\n        /* \"#utility.yul\":12585:12605   */\n      tag_303\n      tag_107\n      jump\t// in\n    tag_303:\n        /* \"#utility.yul\":12575:12605   */\n      swap1\n      pop\n        /* \"#utility.yul\":12614:12647   */\n      tag_304\n        /* \"#utility.yul\":12642:12646   */\n      dup3\n        /* \"#utility.yul\":12634:12640   */\n      dup3\n        /* \"#utility.yul\":12614:12647   */\n      tag_149\n      jump\t// in\n    tag_304:\n        /* \"#utility.yul\":12524:12653   */\n      swap2\n      swap1\n      pop\n      jump\t// out\n        /* \"#utility.yul\":12659:12776   */\n    tag_151:\n        /* \"#utility.yul\":12768:12769   */\n      0x00\n        /* \"#utility.yul\":12765:12766   */\n      dup1\n        /* \"#utility.yul\":12758:12770   */\n      revert\n        /* \"#utility.yul\":12782:12904   */\n    tag_152:\n        /* \"#utility.yul\":12855:12879   */\n      tag_307\n        /* \"#utility.yul\":12873:12878   */\n      dup2\n        /* \"#utility.yul\":12855:12879   */\n      tag_125\n      jump\t// in\n    tag_307:\n        /* \"#utility.yul\":12848:12853   */\n      dup2\n        /* \"#utility.yul\":12845:12880   */\n      eq\n        /* \"#utility.yul\":12835:12898   */\n      tag_308\n      jumpi\n        /* \"#utility.yul\":12894:12895   */\n      0x00\n        /* \"#utility.yul\":12891:12892   */\n      dup1\n        /* \"#utility.yul\":12884:12896   */\n      revert\n        /* \"#utility.yul\":12835:12898   */\n    tag_308:\n        /* \"#utility.yul\":12782:12904   */\n      pop\n      jump\t// out\n        /* \"#utility.yul\":12910:13053   */\n    tag_153:\n        /* \"#utility.yul\":12967:12972   */\n      0x00\n        /* \"#utility.yul\":12998:13004   */\n      dup2\n        /* \"#utility.yul\":12992:13005   */\n      mload\n        /* \"#utility.yul\":12983:13005   */\n      swap1\n      pop\n        /* \"#utility.yul\":13014:13047   */\n      tag_310\n        /* \"#utility.yul\":13041:13046   */\n      dup2\n        /* \"#utility.yul\":13014:13047   */\n      tag_152\n      jump\t// in\n    tag_310:\n        /* \"#utility.yul\":12910:13053   */\n      swap3\n      swap2\n      pop\n      pop\n      jump\t// out\n        /* \"#utility.yul\":13059:13202   */\n    tag_154:\n        /* \"#utility.yul\":13116:13121   */\n      0x00\n        /* \"#utility.yul\":13147:13153   */\n      dup2\n        /* \"#utility.yul\":13141:13154   */\n      mload\n        /* \"#utility.yul\":13132:13154   */\n      swap1\n      pop\n        /* \"#utility.yul\":13163:13196   */\n      tag_312\n        /* \"#utility.yul\":13190:13195   */\n      dup2\n        /* \"#utility.yul\":13163:13196   */\n      tag_111\n      jump\t// in\n    tag_312:\n        /* \"#utility.yul\":13059:13202   */\n      swap3\n      swap2\n      pop\n      pop\n      jump\t// out\n        /* \"#utility.yul\":13208:13325   */\n    tag_155:\n        /* \"#utility.yul\":13317:13318   */\n      0x00\n        /* \"#utility.yul\":13314:13315   */\n      dup1\n        /* \"#utility.yul\":13307:13319   */\n      revert\n        /* \"#utility.yul\":13331:13652   */\n    tag_156:\n        /* \"#utility.yul\":13418:13422   */\n      0x00\n        /* \"#utility.yul\":13508:13526   */\n      0xffffffffffffffff\n        /* \"#utility.yul\":13500:13506   */\n      dup3\n        /* \"#utility.yul\":13497:13527   */\n      gt\n        /* \"#utility.yul\":13494:13550   */\n      iszero\n      tag_315\n      jumpi\n        /* \"#utility.yul\":13530:13548   */\n      tag_316\n      tag_56\n      jump\t// in\n    tag_316:\n        /* \"#utility.yul\":13494:13550   */\n    tag_315:\n        /* \"#utility.yul\":13580:13584   */\n      0x20\n        /* \"#utility.yul\":13572:13578   */\n      dup3\n        /* \"#utility.yul\":13568:13585   */\n      mul\n        /* \"#utility.yul\":13560:13585   */\n      swap1\n      pop\n        /* \"#utility.yul\":13640:13644   */\n      0x20\n        /* \"#utility.yul\":13634:13638   */\n      dup2\n        /* \"#utility.yul\":13630:13645   */\n      add\n        /* \"#utility.yul\":13622:13645   */\n      swap1\n      pop\n        /* \"#utility.yul\":13331:13652   */\n      swap2\n      swap1\n      pop\n      jump\t// out\n        /* \"#utility.yul\":13658:13775   */\n    tag_157:\n        /* \"#utility.yul\":13767:13768   */\n      0x00\n        /* \"#utility.yul\":13764:13765   */\n      dup1\n        /* \"#utility.yul\":13757:13769   */\n      revert\n        /* \"#utility.yul\":13781:13898   */\n    tag_158:\n        /* \"#utility.yul\":13890:13891   */\n      0x00\n        /* \"#utility.yul\":13887:13888   */\n      dup1\n        /* \"#utility.yul\":13880:13892   */\n      revert\n        /* \"#utility.yul\":13904:14212   */\n    tag_159:\n        /* \"#utility.yul\":13966:13970   */\n      0x00\n        /* \"#utility.yul\":14056:14074   */\n      0xffffffffffffffff\n        /* \"#utility.yul\":14048:14054   */\n      dup3\n        /* \"#utility.yul\":14045:14075   */\n      gt\n        /* \"#utility.yul\":14042:14098   */\n      iszero\n      tag_320\n      jumpi\n        /* \"#utility.yul\":14078:14096   */\n      tag_321\n      tag_56\n      jump\t// in\n    tag_321:\n        /* \"#utility.yul\":14042:14098   */\n    tag_320:\n        /* \"#utility.yul\":14116:14145   */\n      tag_322\n        /* \"#utility.yul\":14138:14144   */\n      dup3\n        /* \"#utility.yul\":14116:14145   */\n      tag_120\n      jump\t// in\n    tag_322:\n        /* \"#utility.yul\":14108:14145   */\n      swap1\n      pop\n        /* \"#utility.yul\":14200:14204   */\n      0x20\n        /* \"#utility.yul\":14194:14198   */\n      dup2\n        /* \"#utility.yul\":14190:14205   */\n      add\n        /* \"#utility.yul\":14182:14205   */\n      swap1\n      pop\n        /* \"#utility.yul\":13904:14212   */\n      swap2\n      swap1\n      pop\n      jump\t// out\n        /* \"#utility.yul\":14218:14652   */\n    tag_160:\n        /* \"#utility.yul\":14307:14312   */\n      0x00\n        /* \"#utility.yul\":14332:14398   */\n      tag_324\n        /* \"#utility.yul\":14348:14397   */\n      tag_325\n        /* \"#utility.yul\":14390:14396   */\n      dup5\n        /* \"#utility.yul\":14348:14397   */\n      tag_159\n      jump\t// in\n    tag_325:\n        /* \"#utility.yul\":14332:14398   */\n      tag_150\n      jump\t// in\n    tag_324:\n        /* \"#utility.yul\":14323:14398   */\n      swap1\n      pop\n        /* \"#utility.yul\":14421:14427   */\n      dup3\n        /* \"#utility.yul\":14414:14419   */\n      dup2\n        /* \"#utility.yul\":14407:14428   */\n      mstore\n        /* \"#utility.yul\":14459:14463   */\n      0x20\n        /* \"#utility.yul\":14452:14457   */\n      dup2\n        /* \"#utility.yul\":14448:14464   */\n      add\n        /* \"#utility.yul\":14497:14500   */\n      dup5\n        /* \"#utility.yul\":14488:14494   */\n      dup5\n        /* \"#utility.yul\":14483:14486   */\n      dup5\n        /* \"#utility.yul\":14479:14495   */\n      add\n        /* \"#utility.yul\":14476:14501   */\n      gt\n        /* \"#utility.yul\":14473:14585   */\n      iszero\n      tag_326\n      jumpi\n        /* \"#utility.yul\":14504:14583   */\n      tag_327\n      tag_158\n      jump\t// in\n    tag_327:\n        /* \"#utility.yul\":14473:14585   */\n    tag_326:\n        /* \"#utility.yul\":14594:14646   */\n      tag_328\n        /* \"#utility.yul\":14639:14645   */\n      dup5\n        /* \"#utility.yul\":14634:14637   */\n      dup3\n        /* \"#utility.yul\":14629:14632   */\n      dup6\n        /* \"#utility.yul\":14594:14646   */\n      tag_119\n      jump\t// in\n    tag_328:\n        /* \"#utility.yul\":14313:14652   */\n      pop\n        /* \"#utility.yul\":14218:14652   */\n      swap4\n      swap3\n      pop\n      pop\n      pop\n      jump\t// out\n        /* \"#utility.yul\":14672:15027   */\n    tag_161:\n        /* \"#utility.yul\":14739:14744   */\n      0x00\n        /* \"#utility.yul\":14788:14791   */\n      dup3\n        /* \"#utility.yul\":14781:14785   */\n      0x1f\n        /* \"#utility.yul\":14773:14779   */\n      dup4\n        /* \"#utility.yul\":14769:14786   */\n      add\n        /* \"#utility.yul\":14765:14792   */\n      slt\n        /* \"#utility.yul\":14755:14877   */\n      tag_330\n      jumpi\n        /* \"#utility.yul\":14796:14875   */\n      tag_331\n      tag_155\n      jump\t// in\n    tag_331:\n        /* \"#utility.yul\":14755:14877   */\n    tag_330:\n        /* \"#utility.yul\":14906:14912   */\n      dup2\n        /* \"#utility.yul\":14900:14913   */\n      mload\n        /* \"#utility.yul\":14931:15021   */\n      tag_332\n        /* \"#utility.yul\":15017:15020   */\n      dup5\n        /* \"#utility.yul\":15009:15015   */\n      dup3\n        /* \"#utility.yul\":15002:15006   */\n      0x20\n        /* \"#utility.yul\":14994:15000   */\n      dup7\n        /* \"#utility.yul\":14990:15007   */\n      add\n        /* \"#utility.yul\":14931:15021   */\n      tag_160\n      jump\t// in\n    tag_332:\n        /* \"#utility.yul\":14922:15021   */\n      swap2\n      pop\n        /* \"#utility.yul\":14745:15027   */\n      pop\n        /* \"#utility.yul\":14672:15027   */\n      swap3\n      swap2\n      pop\n      pop\n      jump\t// out\n        /* \"#utility.yul\":15049:16009   */\n    tag_162:\n        /* \"#utility.yul\":15166:15171   */\n      0x00\n        /* \"#utility.yul\":15191:15282   */\n      tag_334\n        /* \"#utility.yul\":15207:15281   */\n      tag_335\n        /* \"#utility.yul\":15274:15280   */\n      dup5\n        /* \"#utility.yul\":15207:15281   */\n      tag_156\n      jump\t// in\n    tag_335:\n        /* \"#utility.yul\":15191:15282   */\n      tag_150\n      jump\t// in\n    tag_334:\n        /* \"#utility.yul\":15182:15282   */\n      swap1\n      pop\n        /* \"#utility.yul\":15302:15307   */\n      dup1\n        /* \"#utility.yul\":15331:15337   */\n      dup4\n        /* \"#utility.yul\":15324:15329   */\n      dup3\n        /* \"#utility.yul\":15317:15338   */\n      mstore\n        /* \"#utility.yul\":15365:15369   */\n      0x20\n        /* \"#utility.yul\":15358:15363   */\n      dup3\n        /* \"#utility.yul\":15354:15370   */\n      add\n        /* \"#utility.yul\":15347:15370   */\n      swap1\n      pop\n        /* \"#utility.yul\":15418:15422   */\n      0x20\n        /* \"#utility.yul\":15410:15416   */\n      dup5\n        /* \"#utility.yul\":15406:15423   */\n      mul\n        /* \"#utility.yul\":15398:15404   */\n      dup4\n        /* \"#utility.yul\":15394:15424   */\n      add\n        /* \"#utility.yul\":15447:15450   */\n      dup6\n        /* \"#utility.yul\":15439:15445   */\n      dup2\n        /* \"#utility.yul\":15436:15451   */\n      gt\n        /* \"#utility.yul\":15433:15555   */\n      iszero\n      tag_336\n      jumpi\n        /* \"#utility.yul\":15466:15545   */\n      tag_337\n      tag_157\n      jump\t// in\n    tag_337:\n        /* \"#utility.yul\":15433:15555   */\n    tag_336:\n        /* \"#utility.yul\":15581:15587   */\n      dup4\n        /* \"#utility.yul\":15564:16003   */\n    tag_338:\n        /* \"#utility.yul\":15598:15604   */\n      dup2\n        /* \"#utility.yul\":15593:15596   */\n      dup2\n        /* \"#utility.yul\":15590:15605   */\n      lt\n        /* \"#utility.yul\":15564:16003   */\n      iszero\n      tag_340\n      jumpi\n        /* \"#utility.yul\":15680:15683   */\n      dup1\n        /* \"#utility.yul\":15674:15684   */\n      mload\n        /* \"#utility.yul\":15716:15734   */\n      0xffffffffffffffff\n        /* \"#utility.yul\":15703:15714   */\n      dup2\n        /* \"#utility.yul\":15700:15735   */\n      gt\n        /* \"#utility.yul\":15697:15819   */\n      iszero\n      tag_341\n      jumpi\n        /* \"#utility.yul\":15738:15817   */\n      tag_342\n      tag_155\n      jump\t// in\n    tag_342:\n        /* \"#utility.yul\":15697:15819   */\n    tag_341:\n        /* \"#utility.yul\":15862:15873   */\n      dup1\n        /* \"#utility.yul\":15854:15860   */\n      dup7\n        /* \"#utility.yul\":15850:15874   */\n      add\n        /* \"#utility.yul\":15900:15958   */\n      tag_343\n        /* \"#utility.yul\":15954:15957   */\n      dup10\n        /* \"#utility.yul\":15942:15952   */\n      dup3\n        /* \"#utility.yul\":15900:15958   */\n      tag_161\n      jump\t// in\n    tag_343:\n        /* \"#utility.yul\":15895:15898   */\n      dup6\n        /* \"#utility.yul\":15888:15959   */\n      mstore\n        /* \"#utility.yul\":15988:15992   */\n      0x20\n        /* \"#utility.yul\":15983:15986   */\n      dup6\n        /* \"#utility.yul\":15979:15993   */\n      add\n        /* \"#utility.yul\":15972:15993   */\n      swap5\n      pop\n        /* \"#utility.yul\":15640:16003   */\n      pop\n      pop\n        /* \"#utility.yul\":15624:15628   */\n      0x20\n        /* \"#utility.yul\":15619:15622   */\n      dup2\n        /* \"#utility.yul\":15615:15629   */\n      add\n        /* \"#utility.yul\":15608:15629   */\n      swap1\n      pop\n        /* \"#utility.yul\":15564:16003   */\n      jump(tag_338)\n    tag_340:\n        /* \"#utility.yul\":15568:15589   */\n      pop\n        /* \"#utility.yul\":15172:16009   */\n      pop\n      pop\n        /* \"#utility.yul\":15049:16009   */\n      swap4\n      swap3\n      pop\n      pop\n      pop\n      jump\t// out\n        /* \"#utility.yul\":16031:16436   */\n    tag_163:\n        /* \"#utility.yul\":16123:16128   */\n      0x00\n        /* \"#utility.yul\":16172:16175   */\n      dup3\n        /* \"#utility.yul\":16165:16169   */\n      0x1f\n        /* \"#utility.yul\":16157:16163   */\n      dup4\n        /* \"#utility.yul\":16153:16170   */\n      add\n        /* \"#utility.yul\":16149:16176   */\n      slt\n        /* \"#utility.yul\":16139:16261   */\n      tag_345\n      jumpi\n        /* \"#utility.yul\":16180:16259   */\n      tag_346\n      tag_155\n      jump\t// in\n    tag_346:\n        /* \"#utility.yul\":16139:16261   */\n    tag_345:\n        /* \"#utility.yul\":16290:16296   */\n      dup2\n        /* \"#utility.yul\":16284:16297   */\n      mload\n        /* \"#utility.yul\":16315:16430   */\n      tag_347\n        /* \"#utility.yul\":16426:16429   */\n      dup5\n        /* \"#utility.yul\":16418:16424   */\n      dup3\n        /* \"#utility.yul\":16411:16415   */\n      0x20\n        /* \"#utility.yul\":16403:16409   */\n      dup7\n        /* \"#utility.yul\":16399:16416   */\n      add\n        /* \"#utility.yul\":16315:16430   */\n      tag_162\n      jump\t// in\n    tag_347:\n        /* \"#utility.yul\":16306:16430   */\n      swap2\n      pop\n        /* \"#utility.yul\":16129:16436   */\n      pop\n        /* \"#utility.yul\":16031:16436   */\n      swap3\n      swap2\n      pop\n      pop\n      jump\t// out\n        /* \"#utility.yul\":16442:16753   */\n    tag_164:\n        /* \"#utility.yul\":16519:16523   */\n      0x00\n        /* \"#utility.yul\":16609:16627   */\n      0xffffffffffffffff\n        /* \"#utility.yul\":16601:16607   */\n      dup3\n        /* \"#utility.yul\":16598:16628   */\n      gt\n        /* \"#utility.yul\":16595:16651   */\n      iszero\n      tag_349\n      jumpi\n        /* \"#utility.yul\":16631:16649   */\n      tag_350\n      tag_56\n      jump\t// in\n    tag_350:\n        /* \"#utility.yul\":16595:16651   */\n    tag_349:\n        /* \"#utility.yul\":16681:16685   */\n      0x20\n        /* \"#utility.yul\":16673:16679   */\n      dup3\n        /* \"#utility.yul\":16669:16686   */\n      mul\n        /* \"#utility.yul\":16661:16686   */\n      swap1\n      pop\n        /* \"#utility.yul\":16741:16745   */\n      0x20\n        /* \"#utility.yul\":16735:16739   */\n      dup2\n        /* \"#utility.yul\":16731:16746   */\n      add\n        /* \"#utility.yul\":16723:16746   */\n      swap1\n      pop\n        /* \"#utility.yul\":16442:16753   */\n      swap2\n      swap1\n      pop\n      jump\t// out\n        /* \"#utility.yul\":16776:17508   */\n    tag_165:\n        /* \"#utility.yul\":16883:16888   */\n      0x00\n        /* \"#utility.yul\":16908:16989   */\n      tag_352\n        /* \"#utility.yul\":16924:16988   */\n      tag_353\n        /* \"#utility.yul\":16981:16987   */\n      dup5\n        /* \"#utility.yul\":16924:16988   */\n      tag_164\n      jump\t// in\n    tag_353:\n        /* \"#utility.yul\":16908:16989   */\n      tag_150\n      jump\t// in\n    tag_352:\n        /* \"#utility.yul\":16899:16989   */\n      swap1\n      pop\n        /* \"#utility.yul\":17009:17014   */\n      dup1\n        /* \"#utility.yul\":17038:17044   */\n      dup4\n        /* \"#utility.yul\":17031:17036   */\n      dup3\n        /* \"#utility.yul\":17024:17045   */\n      mstore\n        /* \"#utility.yul\":17072:17076   */\n      0x20\n        /* \"#utility.yul\":17065:17070   */\n      dup3\n        /* \"#utility.yul\":17061:17077   */\n      add\n        /* \"#utility.yul\":17054:17077   */\n      swap1\n      pop\n        /* \"#utility.yul\":17125:17129   */\n      0x20\n        /* \"#utility.yul\":17117:17123   */\n      dup5\n        /* \"#utility.yul\":17113:17130   */\n      mul\n        /* \"#utility.yul\":17105:17111   */\n      dup4\n        /* \"#utility.yul\":17101:17131   */\n      add\n        /* \"#utility.yul\":17154:17157   */\n      dup6\n        /* \"#utility.yul\":17146:17152   */\n      dup2\n        /* \"#utility.yul\":17143:17158   */\n      gt\n        /* \"#utility.yul\":17140:17262   */\n      iszero\n      tag_354\n      jumpi\n        /* \"#utility.yul\":17173:17252   */\n      tag_355\n      tag_157\n      jump\t// in\n    tag_355:\n        /* \"#utility.yul\":17140:17262   */\n    tag_354:\n        /* \"#utility.yul\":17288:17294   */\n      dup4\n        /* \"#utility.yul\":17271:17502   */\n    tag_356:\n        /* \"#utility.yul\":17305:17311   */\n      dup2\n        /* \"#utility.yul\":17300:17303   */\n      dup2\n        /* \"#utility.yul\":17297:17312   */\n      lt\n        /* \"#utility.yul\":17271:17502   */\n      iszero\n      tag_358\n      jumpi\n        /* \"#utility.yul\":17380:17383   */\n      dup1\n        /* \"#utility.yul\":17409:17457   */\n      tag_359\n        /* \"#utility.yul\":17453:17456   */\n      dup9\n        /* \"#utility.yul\":17441:17451   */\n      dup3\n        /* \"#utility.yul\":17409:17457   */\n      tag_154\n      jump\t// in\n    tag_359:\n        /* \"#utility.yul\":17404:17407   */\n      dup5\n        /* \"#utility.yul\":17397:17458   */\n      mstore\n        /* \"#utility.yul\":17487:17491   */\n      0x20\n        /* \"#utility.yul\":17482:17485   */\n      dup5\n        /* \"#utility.yul\":17478:17492   */\n      add\n        /* \"#utility.yul\":17471:17492   */\n      swap4\n      pop\n        /* \"#utility.yul\":17347:17502   */\n      pop\n        /* \"#utility.yul\":17331:17335   */\n      0x20\n        /* \"#utility.yul\":17326:17329   */\n      dup2\n        /* \"#utility.yul\":17322:17336   */\n      add\n        /* \"#utility.yul\":17315:17336   */\n      swap1\n      pop\n        /* \"#utility.yul\":17271:17502   */\n      jump(tag_356)\n    tag_358:\n        /* \"#utility.yul\":17275:17296   */\n      pop\n        /* \"#utility.yul\":16889:17508   */\n      pop\n      pop\n        /* \"#utility.yul\":16776:17508   */\n      swap4\n      swap3\n      pop\n      pop\n      pop\n      jump\t// out\n        /* \"#utility.yul\":17531:17916   */\n    tag_166:\n        /* \"#utility.yul\":17613:17618   */\n      0x00\n        /* \"#utility.yul\":17662:17665   */\n      dup3\n        /* \"#utility.yul\":17655:17659   */\n      0x1f\n        /* \"#utility.yul\":17647:17653   */\n      dup4\n        /* \"#utility.yul\":17643:17660   */\n      add\n        /* \"#utility.yul\":17639:17666   */\n      slt\n        /* \"#utility.yul\":17629:17751   */\n      tag_361\n      jumpi\n        /* \"#utility.yul\":17670:17749   */\n      tag_362\n      tag_155\n      jump\t// in\n    tag_362:\n        /* \"#utility.yul\":17629:17751   */\n    tag_361:\n        /* \"#utility.yul\":17780:17786   */\n      dup2\n        /* \"#utility.yul\":17774:17787   */\n      mload\n        /* \"#utility.yul\":17805:17910   */\n      tag_363\n        /* \"#utility.yul\":17906:17909   */\n      dup5\n        /* \"#utility.yul\":17898:17904   */\n      dup3\n        /* \"#utility.yul\":17891:17895   */\n      0x20\n        /* \"#utility.yul\":17883:17889   */\n      dup7\n        /* \"#utility.yul\":17879:17896   */\n      add\n        /* \"#utility.yul\":17805:17910   */\n      tag_165\n      jump\t// in\n    tag_363:\n        /* \"#utility.yul\":17796:17910   */\n      swap2\n      pop\n        /* \"#utility.yul\":17619:17916   */\n      pop\n        /* \"#utility.yul\":17531:17916   */\n      swap3\n      swap2\n      pop\n      pop\n      jump\t// out\n        /* \"#utility.yul\":17922:18233   */\n    tag_167:\n        /* \"#utility.yul\":17999:18003   */\n      0x00\n        /* \"#utility.yul\":18089:18107   */\n      0xffffffffffffffff\n        /* \"#utility.yul\":18081:18087   */\n      dup3\n        /* \"#utility.yul\":18078:18108   */\n      gt\n        /* \"#utility.yul\":18075:18131   */\n      iszero\n      tag_365\n      jumpi\n        /* \"#utility.yul\":18111:18129   */\n      tag_366\n      tag_56\n      jump\t// in\n    tag_366:\n        /* \"#utility.yul\":18075:18131   */\n    tag_365:\n        /* \"#utility.yul\":18161:18165   */\n      0x20\n        /* \"#utility.yul\":18153:18159   */\n      dup3\n        /* \"#utility.yul\":18149:18166   */\n      mul\n        /* \"#utility.yul\":18141:18166   */\n      swap1\n      pop\n        /* \"#utility.yul\":18221:18225   */\n      0x20\n        /* \"#utility.yul\":18215:18219   */\n      dup2\n        /* \"#utility.yul\":18211:18226   */\n      add\n        /* \"#utility.yul\":18203:18226   */\n      swap1\n      pop\n        /* \"#utility.yul\":17922:18233   */\n      swap2\n      swap1\n      pop\n      jump\t// out\n        /* \"#utility.yul\":18256:18988   */\n    tag_168:\n        /* \"#utility.yul\":18363:18368   */\n      0x00\n        /* \"#utility.yul\":18388:18469   */\n      tag_368\n        /* \"#utility.yul\":18404:18468   */\n      tag_369\n        /* \"#utility.yul\":18461:18467   */\n      dup5\n        /* \"#utility.yul\":18404:18468   */\n      tag_167\n      jump\t// in\n    tag_369:\n        /* \"#utility.yul\":18388:18469   */\n      tag_150\n      jump\t// in\n    tag_368:\n        /* \"#utility.yul\":18379:18469   */\n      swap1\n      pop\n        /* \"#utility.yul\":18489:18494   */\n      dup1\n        /* \"#utility.yul\":18518:18524   */\n      dup4\n        /* \"#utility.yul\":18511:18516   */\n      dup3\n        /* \"#utility.yul\":18504:18525   */\n      mstore\n        /* \"#utility.yul\":18552:18556   */\n      0x20\n        /* \"#utility.yul\":18545:18550   */\n      dup3\n        /* \"#utility.yul\":18541:18557   */\n      add\n        /* \"#utility.yul\":18534:18557   */\n      swap1\n      pop\n        /* \"#utility.yul\":18605:18609   */\n      0x20\n        /* \"#utility.yul\":18597:18603   */\n      dup5\n        /* \"#utility.yul\":18593:18610   */\n      mul\n        /* \"#utility.yul\":18585:18591   */\n      dup4\n        /* \"#utility.yul\":18581:18611   */\n      add\n        /* \"#utility.yul\":18634:18637   */\n      dup6\n        /* \"#utility.yul\":18626:18632   */\n      dup2\n        /* \"#utility.yul\":18623:18638   */\n      gt\n        /* \"#utility.yul\":18620:18742   */\n      iszero\n      tag_370\n      jumpi\n        /* \"#utility.yul\":18653:18732   */\n      tag_371\n      tag_157\n      jump\t// in\n    tag_371:\n        /* \"#utility.yul\":18620:18742   */\n    tag_370:\n        /* \"#utility.yul\":18768:18774   */\n      dup4\n        /* \"#utility.yul\":18751:18982   */\n    tag_372:\n        /* \"#utility.yul\":18785:18791   */\n      dup2\n        /* \"#utility.yul\":18780:18783   */\n      dup2\n        /* \"#utility.yul\":18777:18792   */\n      lt\n        /* \"#utility.yul\":18751:18982   */\n      iszero\n      tag_374\n      jumpi\n        /* \"#utility.yul\":18860:18863   */\n      dup1\n        /* \"#utility.yul\":18889:18937   */\n      tag_375\n        /* \"#utility.yul\":18933:18936   */\n      dup9\n        /* \"#utility.yul\":18921:18931   */\n      dup3\n        /* \"#utility.yul\":18889:18937   */\n      tag_153\n      jump\t// in\n    tag_375:\n        /* \"#utility.yul\":18884:18887   */\n      dup5\n        /* \"#utility.yul\":18877:18938   */\n      mstore\n        /* \"#utility.yul\":18967:18971   */\n      0x20\n        /* \"#utility.yul\":18962:18965   */\n      dup5\n        /* \"#utility.yul\":18958:18972   */\n      add\n        /* \"#utility.yul\":18951:18972   */\n      swap4\n      pop\n        /* \"#utility.yul\":18827:18982   */\n      pop\n        /* \"#utility.yul\":18811:18815   */\n      0x20\n        /* \"#utility.yul\":18806:18809   */\n      dup2\n        /* \"#utility.yul\":18802:18816   */\n      add\n        /* \"#utility.yul\":18795:18816   */\n      swap1\n      pop\n        /* \"#utility.yul\":18751:18982   */\n      jump(tag_372)\n    tag_374:\n        /* \"#utility.yul\":18755:18776   */\n      pop\n        /* \"#utility.yul\":18369:18988   */\n      pop\n      pop\n        /* \"#utility.yul\":18256:18988   */\n      swap4\n      swap3\n      pop\n      pop\n      pop\n      jump\t// out\n        /* \"#utility.yul\":19011:19396   */\n    tag_169:\n        /* \"#utility.yul\":19093:19098   */\n      0x00\n        /* \"#utility.yul\":19142:19145   */\n      dup3\n        /* \"#utility.yul\":19135:19139   */\n      0x1f\n        /* \"#utility.yul\":19127:19133   */\n      dup4\n        /* \"#utility.yul\":19123:19140   */\n      add\n        /* \"#utility.yul\":19119:19146   */\n      slt\n        /* \"#utility.yul\":19109:19231   */\n      tag_377\n      jumpi\n        /* \"#utility.yul\":19150:19229   */\n      tag_378\n      tag_155\n      jump\t// in\n    tag_378:\n        /* \"#utility.yul\":19109:19231   */\n    tag_377:\n        /* \"#utility.yul\":19260:19266   */\n      dup2\n        /* \"#utility.yul\":19254:19267   */\n      mload\n        /* \"#utility.yul\":19285:19390   */\n      tag_379\n        /* \"#utility.yul\":19386:19389   */\n      dup5\n        /* \"#utility.yul\":19378:19384   */\n      dup3\n        /* \"#utility.yul\":19371:19375   */\n      0x20\n        /* \"#utility.yul\":19363:19369   */\n      dup7\n        /* \"#utility.yul\":19359:19376   */\n      add\n        /* \"#utility.yul\":19285:19390   */\n      tag_168\n      jump\t// in\n    tag_379:\n        /* \"#utility.yul\":19276:19390   */\n      swap2\n      pop\n        /* \"#utility.yul\":19099:19396   */\n      pop\n        /* \"#utility.yul\":19011:19396   */\n      swap3\n      swap2\n      pop\n      pop\n      jump\t// out\n        /* \"#utility.yul\":19449:21345   */\n    tag_170:\n        /* \"#utility.yul\":19534:19539   */\n      0x00\n        /* \"#utility.yul\":19578:19582   */\n      0xc0\n        /* \"#utility.yul\":19566:19575   */\n      dup3\n        /* \"#utility.yul\":19561:19564   */\n      dup5\n        /* \"#utility.yul\":19557:19576   */\n      sub\n        /* \"#utility.yul\":19553:19583   */\n      slt\n        /* \"#utility.yul\":19550:19667   */\n      iszero\n      tag_381\n      jumpi\n        /* \"#utility.yul\":19586:19665   */\n      tag_382\n      tag_148\n      jump\t// in\n    tag_382:\n        /* \"#utility.yul\":19550:19667   */\n    tag_381:\n        /* \"#utility.yul\":19685:19706   */\n      tag_383\n        /* \"#utility.yul\":19701:19705   */\n      0xc0\n        /* \"#utility.yul\":19685:19706   */\n      tag_150\n      jump\t// in\n    tag_383:\n        /* \"#utility.yul\":19676:19706   */\n      swap1\n      pop\n        /* \"#utility.yul\":19772:19773   */\n      0x00\n        /* \"#utility.yul\":19812:19872   */\n      tag_384\n        /* \"#utility.yul\":19868:19871   */\n      dup5\n        /* \"#utility.yul\":19859:19865   */\n      dup3\n        /* \"#utility.yul\":19848:19857   */\n      dup6\n        /* \"#utility.yul\":19844:19866   */\n      add\n        /* \"#utility.yul\":19812:19872   */\n      tag_153\n      jump\t// in\n    tag_384:\n        /* \"#utility.yul\":19805:19809   */\n      0x00\n        /* \"#utility.yul\":19798:19803   */\n      dup4\n        /* \"#utility.yul\":19794:19810   */\n      add\n        /* \"#utility.yul\":19787:19873   */\n      mstore\n        /* \"#utility.yul\":19716:19884   */\n      pop\n        /* \"#utility.yul\":19953:19955   */\n      0x20\n        /* \"#utility.yul\":19994:20054   */\n      tag_385\n        /* \"#utility.yul\":20050:20053   */\n      dup5\n        /* \"#utility.yul\":20041:20047   */\n      dup3\n        /* \"#utility.yul\":20030:20039   */\n      dup6\n        /* \"#utility.yul\":20026:20048   */\n      add\n        /* \"#utility.yul\":19994:20054   */\n      tag_153\n      jump\t// in\n    tag_385:\n        /* \"#utility.yul\":19987:19991   */\n      0x20\n        /* \"#utility.yul\":19980:19985   */\n      dup4\n        /* \"#utility.yul\":19976:19992   */\n      add\n        /* \"#utility.yul\":19969:20055   */\n      mstore\n        /* \"#utility.yul\":19894:20066   */\n      pop\n        /* \"#utility.yul\":20128:20130   */\n      0x40\n        /* \"#utility.yul\":20169:20229   */\n      tag_386\n        /* \"#utility.yul\":20225:20228   */\n      dup5\n        /* \"#utility.yul\":20216:20222   */\n      dup3\n        /* \"#utility.yul\":20205:20214   */\n      dup6\n        /* \"#utility.yul\":20201:20223   */\n      add\n        /* \"#utility.yul\":20169:20229   */\n      tag_154\n      jump\t// in\n    tag_386:\n        /* \"#utility.yul\":20162:20166   */\n      0x40\n        /* \"#utility.yul\":20155:20160   */\n      dup4\n        /* \"#utility.yul\":20151:20167   */\n      add\n        /* \"#utility.yul\":20144:20230   */\n      mstore\n        /* \"#utility.yul\":20076:20241   */\n      pop\n        /* \"#utility.yul\":20327:20329   */\n      0x60\n        /* \"#utility.yul\":20316:20325   */\n      dup3\n        /* \"#utility.yul\":20312:20330   */\n      add\n        /* \"#utility.yul\":20306:20331   */\n      mload\n        /* \"#utility.yul\":20358:20376   */\n      0xffffffffffffffff\n        /* \"#utility.yul\":20350:20356   */\n      dup2\n        /* \"#utility.yul\":20347:20377   */\n      gt\n        /* \"#utility.yul\":20344:20461   */\n      iszero\n      tag_387\n      jumpi\n        /* \"#utility.yul\":20380:20459   */\n      tag_388\n      tag_151\n      jump\t// in\n    tag_388:\n        /* \"#utility.yul\":20344:20461   */\n    tag_387:\n        /* \"#utility.yul\":20500:20595   */\n      tag_389\n        /* \"#utility.yul\":20591:20594   */\n      dup5\n        /* \"#utility.yul\":20582:20588   */\n      dup3\n        /* \"#utility.yul\":20571:20580   */\n      dup6\n        /* \"#utility.yul\":20567:20589   */\n      add\n        /* \"#utility.yul\":20500:20595   */\n      tag_163\n      jump\t// in\n    tag_389:\n        /* \"#utility.yul\":20493:20497   */\n      0x60\n        /* \"#utility.yul\":20486:20491   */\n      dup4\n        /* \"#utility.yul\":20482:20498   */\n      add\n        /* \"#utility.yul\":20475:20596   */\n      mstore\n        /* \"#utility.yul\":20251:20607   */\n      pop\n        /* \"#utility.yul\":20698:20701   */\n      0x80\n        /* \"#utility.yul\":20687:20696   */\n      dup3\n        /* \"#utility.yul\":20683:20702   */\n      add\n        /* \"#utility.yul\":20677:20703   */\n      mload\n        /* \"#utility.yul\":20730:20748   */\n      0xffffffffffffffff\n        /* \"#utility.yul\":20722:20728   */\n      dup2\n        /* \"#utility.yul\":20719:20749   */\n      gt\n        /* \"#utility.yul\":20716:20833   */\n      iszero\n      tag_390\n      jumpi\n        /* \"#utility.yul\":20752:20831   */\n      tag_391\n      tag_151\n      jump\t// in\n    tag_391:\n        /* \"#utility.yul\":20716:20833   */\n    tag_390:\n        /* \"#utility.yul\":20872:20957   */\n      tag_392\n        /* \"#utility.yul\":20953:20956   */\n      dup5\n        /* \"#utility.yul\":20944:20950   */\n      dup3\n        /* \"#utility.yul\":20933:20942   */\n      dup6\n        /* \"#utility.yul\":20929:20951   */\n      add\n        /* \"#utility.yul\":20872:20957   */\n      tag_166\n      jump\t// in\n    tag_392:\n        /* \"#utility.yul\":20865:20869   */\n      0x80\n        /* \"#utility.yul\":20858:20863   */\n      dup4\n        /* \"#utility.yul\":20854:20870   */\n      add\n        /* \"#utility.yul\":20847:20958   */\n      mstore\n        /* \"#utility.yul\":20617:20969   */\n      pop\n        /* \"#utility.yul\":21067:21070   */\n      0xa0\n        /* \"#utility.yul\":21056:21065   */\n      dup3\n        /* \"#utility.yul\":21052:21071   */\n      add\n        /* \"#utility.yul\":21046:21072   */\n      mload\n        /* \"#utility.yul\":21099:21117   */\n      0xffffffffffffffff\n        /* \"#utility.yul\":21091:21097   */\n      dup2\n        /* \"#utility.yul\":21088:21118   */\n      gt\n        /* \"#utility.yul\":21085:21202   */\n      iszero\n      tag_393\n      jumpi\n        /* \"#utility.yul\":21121:21200   */\n      tag_394\n      tag_151\n      jump\t// in\n    tag_394:\n        /* \"#utility.yul\":21085:21202   */\n    tag_393:\n        /* \"#utility.yul\":21241:21326   */\n      tag_395\n        /* \"#utility.yul\":21322:21325   */\n      dup5\n        /* \"#utility.yul\":21313:21319   */\n      dup3\n        /* \"#utility.yul\":21302:21311   */\n      dup6\n        /* \"#utility.yul\":21298:21320   */\n      add\n        /* \"#utility.yul\":21241:21326   */\n      tag_169\n      jump\t// in\n    tag_395:\n        /* \"#utility.yul\":21234:21238   */\n      0xa0\n        /* \"#utility.yul\":21227:21232   */\n      dup4\n        /* \"#utility.yul\":21223:21239   */\n      add\n        /* \"#utility.yul\":21216:21327   */\n      mstore\n        /* \"#utility.yul\":20979:21338   */\n      pop\n        /* \"#utility.yul\":19449:21345   */\n      swap3\n      swap2\n      pop\n      pop\n      jump\t// out\n        /* \"#utility.yul\":21351:21905   */\n    tag_53:\n        /* \"#utility.yul\":21446:21452   */\n      0x00\n        /* \"#utility.yul\":21495:21497   */\n      0x20\n        /* \"#utility.yul\":21483:21492   */\n      dup3\n        /* \"#utility.yul\":21474:21481   */\n      dup5\n        /* \"#utility.yul\":21470:21493   */\n      sub\n        /* \"#utility.yul\":21466:21498   */\n      slt\n        /* \"#utility.yul\":21463:21582   */\n      iszero\n      tag_397\n      jumpi\n        /* \"#utility.yul\":21501:21580   */\n      tag_398\n      tag_108\n      jump\t// in\n    tag_398:\n        /* \"#utility.yul\":21463:21582   */\n    tag_397:\n        /* \"#utility.yul\":21642:21643   */\n      0x00\n        /* \"#utility.yul\":21631:21640   */\n      dup3\n        /* \"#utility.yul\":21627:21644   */\n      add\n        /* \"#utility.yul\":21621:21645   */\n      mload\n        /* \"#utility.yul\":21672:21690   */\n      0xffffffffffffffff\n        /* \"#utility.yul\":21664:21670   */\n      dup2\n        /* \"#utility.yul\":21661:21691   */\n      gt\n        /* \"#utility.yul\":21658:21775   */\n      iszero\n      tag_399\n      jumpi\n        /* \"#utility.yul\":21694:21773   */\n      tag_400\n      tag_109\n      jump\t// in\n    tag_400:\n        /* \"#utility.yul\":21658:21775   */\n    tag_399:\n        /* \"#utility.yul\":21799:21888   */\n      tag_401\n        /* \"#utility.yul\":21880:21887   */\n      dup5\n        /* \"#utility.yul\":21871:21877   */\n      dup3\n        /* \"#utility.yul\":21860:21869   */\n      dup6\n        /* \"#utility.yul\":21856:21878   */\n      add\n        /* \"#utility.yul\":21799:21888   */\n      tag_170\n      jump\t// in\n    tag_401:\n        /* \"#utility.yul\":21789:21888   */\n      swap2\n      pop\n        /* \"#utility.yul\":21592:21898   */\n      pop\n        /* \"#utility.yul\":21351:21905   */\n      swap3\n      swap2\n      pop\n      pop\n      jump\t// out\n        /* \"#utility.yul\":21911:22091   */\n    tag_63:\n        /* \"#utility.yul\":21959:22036   */\n      0x4e487b7100000000000000000000000000000000000000000000000000000000\n        /* \"#utility.yul\":21956:21957   */\n      0x00\n        /* \"#utility.yul\":21949:22037   */\n      mstore\n        /* \"#utility.yul\":22056:22060   */\n      0x32\n        /* \"#utility.yul\":22053:22054   */\n      0x04\n        /* \"#utility.yul\":22046:22061   */\n      mstore\n        /* \"#utility.yul\":22080:22084   */\n      0x24\n        /* \"#utility.yul\":22077:22078   */\n      0x00\n        /* \"#utility.yul\":22070:22085   */\n      revert\n        /* \"#utility.yul\":22097:22448   */\n    tag_68:\n        /* \"#utility.yul\":22167:22173   */\n      0x00\n        /* \"#utility.yul\":22216:22218   */\n      0x20\n        /* \"#utility.yul\":22204:22213   */\n      dup3\n        /* \"#utility.yul\":22195:22202   */\n      dup5\n        /* \"#utility.yul\":22191:22214   */\n      sub\n        /* \"#utility.yul\":22187:22219   */\n      slt\n        /* \"#utility.yul\":22184:22303   */\n      iszero\n      tag_404\n      jumpi\n        /* \"#utility.yul\":22222:22301   */\n      tag_405\n      tag_108\n      jump\t// in\n    tag_405:\n        /* \"#utility.yul\":22184:22303   */\n    tag_404:\n        /* \"#utility.yul\":22342:22343   */\n      0x00\n        /* \"#utility.yul\":22367:22431   */\n      tag_406\n        /* \"#utility.yul\":22423:22430   */\n      dup5\n        /* \"#utility.yul\":22414:22420   */\n      dup3\n        /* \"#utility.yul\":22403:22412   */\n      dup6\n        /* \"#utility.yul\":22399:22421   */\n      add\n        /* \"#utility.yul\":22367:22431   */\n      tag_153\n      jump\t// in\n    tag_406:\n        /* \"#utility.yul\":22357:22431   */\n      swap2\n      pop\n        /* \"#utility.yul\":22313:22441   */\n      pop\n        /* \"#utility.yul\":22097:22448   */\n      swap3\n      swap2\n      pop\n      pop\n      jump\t// out\n        /* \"#utility.yul\":22454:22634   */\n    tag_171:\n        /* \"#utility.yul\":22502:22579   */\n      0x4e487b7100000000000000000000000000000000000000000000000000000000\n        /* \"#utility.yul\":22499:22500   */\n      0x00\n        /* \"#utility.yul\":22492:22580   */\n      mstore\n        /* \"#utility.yul\":22599:22603   */\n      0x11\n        /* \"#utility.yul\":22596:22597   */\n      0x04\n        /* \"#utility.yul\":22589:22604   */\n      mstore\n        /* \"#utility.yul\":22623:22627   */\n      0x24\n        /* \"#utility.yul\":22620:22621   */\n      0x00\n        /* \"#utility.yul\":22613:22628   */\n      revert\n        /* \"#utility.yul\":22640:22873   */\n    tag_77:\n        /* \"#utility.yul\":22679:22682   */\n      0x00\n        /* \"#utility.yul\":22702:22726   */\n      tag_409\n        /* \"#utility.yul\":22720:22725   */\n      dup3\n        /* \"#utility.yul\":22702:22726   */\n      tag_110\n      jump\t// in\n    tag_409:\n        /* \"#utility.yul\":22693:22726   */\n      swap2\n      pop\n        /* \"#utility.yul\":22748:22814   */\n      0xffffffffffffffffffffffffffffffffffffffffffffffffffffffffffffffff\n        /* \"#utility.yul\":22741:22746   */\n      dup3\n        /* \"#utility.yul\":22738:22815   */\n      sub\n        /* \"#utility.yul\":22735:22838   */\n      tag_410\n      jumpi\n        /* \"#utility.yul\":22818:22836   */\n      tag_411\n      tag_171\n      jump\t// in\n    tag_411:\n        /* \"#utility.yul\":22735:22838   */\n    tag_410:\n        /* \"#utility.yul\":22865:22866   */\n      0x01\n        /* \"#utility.yul\":22858:22863   */\n      dup3\n        /* \"#utility.yul\":22854:22867   */\n      add\n        /* \"#utility.yul\":22847:22867   */\n      swap1\n      pop\n        /* \"#utility.yul\":22640:22873   */\n      swap2\n      swap1\n      pop\n      jump\t// out\n        /* \"#utility.yul\":22879:23020   */\n    tag_172:\n        /* \"#utility.yul\":22928:22932   */\n      0x00\n        /* \"#utility.yul\":22951:22954   */\n      dup2\n        /* \"#utility.yul\":22943:22954   */\n      swap1\n      pop\n        /* \"#utility.yul\":22974:22977   */\n      dup2\n        /* \"#utility.yul\":22971:22972   */\n      0x00\n        /* \"#utility.yul\":22964:22978   */\n      mstore\n        /* \"#utility.yul\":23008:23012   */\n      0x20\n        /* \"#utility.yul\":23005:23006   */\n      0x00\n        /* \"#utility.yul\":22995:23013   */\n      keccak256\n        /* \"#utility.yul\":22987:23013   */\n      swap1\n      pop\n        /* \"#utility.yul\":22879:23020   */\n      swap2\n      swap1\n      pop\n      jump\t// out\n        /* \"#utility.yul\":23026:23119   */\n    tag_173:\n        /* \"#utility.yul\":23063:23069   */\n      0x00\n        /* \"#utility.yul\":23110:23112   */\n      0x20\n        /* \"#utility.yul\":23105:23107   */\n      0x1f\n        /* \"#utility.yul\":23098:23103   */\n      dup4\n        /* \"#utility.yul\":23094:23108   */\n      add\n        /* \"#utility.yul\":23090:23113   */\n      div\n        /* \"#utility.yul\":23080:23113   */\n      swap1\n      pop\n        /* \"#utility.yul\":23026:23119   */\n      swap2\n      swap1\n      pop\n      jump\t// out\n        /* \"#utility.yul\":23125:23232   */\n    tag_174:\n        /* \"#utility.yul\":23169:23177   */\n      0x00\n        /* \"#utility.yul\":23219:23224   */\n      dup3\n        /* \"#utility.yul\":23213:23217   */\n      dup3\n        /* \"#utility.yul\":23209:23225   */\n      shl\n        /* \"#utility.yul\":23188:23225   */\n      swap1\n      pop\n        /* \"#utility.yul\":23125:23232   */\n      swap3\n      swap2\n      pop\n      pop\n      jump\t// out\n        /* \"#utility.yul\":23238:23631   */\n    tag_175:\n        /* \"#utility.yul\":23307:23313   */\n      0x00\n        /* \"#utility.yul\":23357:23358   */\n      0x08\n        /* \"#utility.yul\":23345:23355   */\n      dup4\n        /* \"#utility.yul\":23341:23359   */\n      mul\n        /* \"#utility.yul\":23380:23477   */\n      tag_416\n        /* \"#utility.yul\":23410:23476   */\n      0xffffffffffffffffffffffffffffffffffffffffffffffffffffffffffffffff\n        /* \"#utility.yul\":23399:23408   */\n      dup3\n        /* \"#utility.yul\":23380:23477   */\n      tag_174\n      jump\t// in\n    tag_416:\n        /* \"#utility.yul\":23498:23537   */\n      tag_417\n        /* \"#utility.yul\":23528:23536   */\n      dup7\n        /* \"#utility.yul\":23517:23526   */\n      dup4\n        /* \"#utility.yul\":23498:23537   */\n      tag_174\n      jump\t// in\n    tag_417:\n        /* \"#utility.yul\":23486:23537   */\n      swap6\n      pop\n        /* \"#utility.yul\":23570:23574   */\n      dup1\n        /* \"#utility.yul\":23566:23575   */\n      not\n        /* \"#utility.yul\":23559:23564   */\n      dup5\n        /* \"#utility.yul\":23555:23576   */\n      and\n        /* \"#utility.yul\":23546:23576   */\n      swap4\n      pop\n        /* \"#utility.yul\":23619:23623   */\n      dup1\n        /* \"#utility.yul\":23609:23617   */\n      dup7\n        /* \"#utility.yul\":23605:23624   */\n      and\n        /* \"#utility.yul\":23598:23603   */\n      dup5\n        /* \"#utility.yul\":23595:23625   */\n      or\n        /* \"#utility.yul\":23585:23625   */\n      swap3\n      pop\n        /* \"#utility.yul\":23314:23631   */\n      pop\n      pop\n        /* \"#utility.yul\":23238:23631   */\n      swap4\n      swap3\n      pop\n      pop\n      pop\n      jump\t// out\n        /* \"#utility.yul\":23637:23697   */\n    tag_176:\n        /* \"#utility.yul\":23665:23668   */\n      0x00\n        /* \"#utility.yul\":23686:23691   */\n      dup2\n        /* \"#utility.yul\":23679:23691   */\n      swap1\n      pop\n        /* \"#utility.yul\":23637:23697   */\n      swap2\n      swap1\n      pop\n      jump\t// out\n        /* \"#utility.yul\":23703:23845   */\n    tag_177:\n        /* \"#utility.yul\":23753:23762   */\n      0x00\n        /* \"#utility.yul\":23786:23839   */\n      tag_420\n        /* \"#utility.yul\":23804:23838   */\n      tag_421\n        /* \"#utility.yul\":23813:23837   */\n      tag_422\n        /* \"#utility.yul\":23831:23836   */\n      dup5\n        /* \"#utility.yul\":23813:23837   */\n      tag_110\n      jump\t// in\n    tag_422:\n        /* \"#utility.yul\":23804:23838   */\n      tag_176\n      jump\t// in\n    tag_421:\n        /* \"#utility.yul\":23786:23839   */\n      tag_110\n      jump\t// in\n    tag_420:\n        /* \"#utility.yul\":23773:23839   */\n      swap1\n      pop\n        /* \"#utility.yul\":23703:23845   */\n      swap2\n      swap1\n      pop\n      jump\t// out\n        /* \"#utility.yul\":23851:23926   */\n    tag_178:\n        /* \"#utility.yul\":23894:23897   */\n      0x00\n        /* \"#utility.yul\":23915:23920   */\n      dup2\n        /* \"#utility.yul\":23908:23920   */\n      swap1\n      pop\n        /* \"#utility.yul\":23851:23926   */\n      swap2\n      swap1\n      pop\n      jump\t// out\n        /* \"#utility.yul\":23932:24201   */\n    tag_179:\n        /* \"#utility.yul\":24042:24081   */\n      tag_425\n        /* \"#utility.yul\":24073:24080   */\n      dup4\n        /* \"#utility.yul\":24042:24081   */\n      tag_177\n      jump\t// in\n    tag_425:\n        /* \"#utility.yul\":24103:24194   */\n      tag_426\n        /* \"#utility.yul\":24152:24193   */\n      tag_427\n        /* \"#utility.yul\":24176:24192   */\n      dup3\n        /* \"#utility.yul\":24152:24193   */\n      tag_178\n      jump\t// in\n    tag_427:\n        /* \"#utility.yul\":24144:24150   */\n      dup5\n        /* \"#utility.yul\":24137:24141   */\n      dup5\n        /* \"#utility.yul\":24131:24142   */\n      sload\n        /* \"#utility.yul\":24103:24194   */\n      tag_175\n      jump\t// in\n    tag_426:\n        /* \"#utility.yul\":24097:24101   */\n      dup3\n        /* \"#utility.yul\":24090:24195   */\n      sstore\n        /* \"#utility.yul\":24008:24201   */\n      pop\n        /* \"#utility.yul\":23932:24201   */\n      pop\n      pop\n      pop\n      jump\t// out\n        /* \"#utility.yul\":24207:24280   */\n    tag_180:\n        /* \"#utility.yul\":24252:24255   */\n      0x00\n        /* \"#utility.yul\":24207:24280   */\n      swap1\n      jump\t// out\n        /* \"#utility.yul\":24286:24475   */\n    tag_181:\n        /* \"#utility.yul\":24363:24395   */\n      tag_430\n      tag_180\n      jump\t// in\n    tag_430:\n        /* \"#utility.yul\":24404:24469   */\n      tag_431\n        /* \"#utility.yul\":24462:24468   */\n      dup2\n        /* \"#utility.yul\":24454:24460   */\n      dup5\n        /* \"#utility.yul\":24448:24452   */\n      dup5\n        /* \"#utility.yul\":24404:24469   */\n      tag_179\n      jump\t// in\n    tag_431:\n        /* \"#utility.yul\":24339:24475   */\n      pop\n        /* \"#utility.yul\":24286:24475   */\n      pop\n      pop\n      jump\t// out\n        /* \"#utility.yul\":24481:24667   */\n    tag_182:\n        /* \"#utility.yul\":24541:24661   */\n    tag_433:\n        /* \"#utility.yul\":24558:24561   */\n      dup2\n        /* \"#utility.yul\":24551:24556   */\n      dup2\n        /* \"#utility.yul\":24548:24562   */\n      lt\n        /* \"#utility.yul\":24541:24661   */\n      iszero\n      tag_435\n      jumpi\n        /* \"#utility.yul\":24612:24651   */\n      tag_436\n        /* \"#utility.yul\":24649:24650   */\n      0x00\n        /* \"#utility.yul\":24642:24647   */\n      dup3\n        /* \"#utility.yul\":24612:24651   */\n      tag_181\n      jump\t// in\n    tag_436:\n        /* \"#utility.yul\":24585:24586   */\n      0x01\n        /* \"#utility.yul\":24578:24583   */\n      dup2\n        /* \"#utility.yul\":24574:24587   */\n      add\n        /* \"#utility.yul\":24565:24587   */\n      swap1\n      pop\n        /* \"#utility.yul\":24541:24661   */\n      jump(tag_433)\n    tag_435:\n        /* \"#utility.yul\":24481:24667   */\n      pop\n      pop\n      jump\t// out\n        /* \"#utility.yul\":24673:25216   */\n    tag_183:\n        /* \"#utility.yul\":24774:24776   */\n      0x1f\n        /* \"#utility.yul\":24769:24772   */\n      dup3\n        /* \"#utility.yul\":24766:24777   */\n      gt\n        /* \"#utility.yul\":24763:25209   */\n      iszero\n      tag_438\n      jumpi\n        /* \"#utility.yul\":24808:24846   */\n      tag_439\n        /* \"#utility.yul\":24840:24845   */\n      dup2\n        /* \"#utility.yul\":24808:24846   */\n      tag_172\n      jump\t// in\n    tag_439:\n        /* \"#utility.yul\":24892:24921   */\n      tag_440\n        /* \"#utility.yul\":24910:24920   */\n      dup5\n        /* \"#utility.yul\":24892:24921   */\n      tag_173\n      jump\t// in\n    tag_440:\n        /* \"#utility.yul\":24882:24890   */\n      dup2\n        /* \"#utility.yul\":24878:24922   */\n      add\n        /* \"#utility.yul\":25075:25077   */\n      0x20\n        /* \"#utility.yul\":25063:25073   */\n      dup6\n        /* \"#utility.yul\":25060:25078   */\n      lt\n        /* \"#utility.yul\":25057:25106   */\n      iszero\n      tag_441\n      jumpi\n        /* \"#utility.yul\":25096:25104   */\n      dup2\n        /* \"#utility.yul\":25081:25104   */\n      swap1\n      pop\n        /* \"#utility.yul\":25057:25106   */\n    tag_441:\n        /* \"#utility.yul\":25119:25199   */\n      tag_442\n        /* \"#utility.yul\":25175:25197   */\n      tag_443\n        /* \"#utility.yul\":25193:25196   */\n      dup6\n        /* \"#utility.yul\":25175:25197   */\n      tag_173\n      jump\t// in\n    tag_443:\n        /* \"#utility.yul\":25165:25173   */\n      dup4\n        /* \"#utility.yul\":25161:25198   */\n      add\n        /* \"#utility.yul\":25148:25159   */\n      dup3\n        /* \"#utility.yul\":25119:25199   */\n      tag_182\n      jump\t// in\n    tag_442:\n        /* \"#utility.yul\":24778:25209   */\n      pop\n      pop\n        /* \"#utility.yul\":24763:25209   */\n    tag_438:\n        /* \"#utility.yul\":24673:25216   */\n      pop\n      pop\n      pop\n      jump\t// out\n        /* \"#utility.yul\":25222:25339   */\n    tag_184:\n        /* \"#utility.yul\":25276:25284   */\n      0x00\n        /* \"#utility.yul\":25326:25331   */\n      dup3\n        /* \"#utility.yul\":25320:25324   */\n      dup3\n        /* \"#utility.yul\":25316:25332   */\n      shr\n        /* \"#utility.yul\":25295:25332   */\n      swap1\n      pop\n        /* \"#utility.yul\":25222:25339   */\n      swap3\n      swap2\n      pop\n      pop\n      jump\t// out\n        /* \"#utility.yul\":25345:25514   */\n    tag_185:\n        /* \"#utility.yul\":25389:25395   */\n      0x00\n        /* \"#utility.yul\":25422:25473   */\n      tag_446\n        /* \"#utility.yul\":25470:25471   */\n      0x00\n        /* \"#utility.yul\":25466:25472   */\n      not\n        /* \"#utility.yul\":25458:25463   */\n      dup5\n        /* \"#utility.yul\":25455:25456   */\n      0x08\n        /* \"#utility.yul\":25451:25464   */\n      mul\n        /* \"#utility.yul\":25422:25473   */\n      tag_184\n      jump\t// in\n    tag_446:\n        /* \"#utility.yul\":25418:25474   */\n      not\n        /* \"#utility.yul\":25503:25507   */\n      dup1\n        /* \"#utility.yul\":25497:25501   */\n      dup4\n        /* \"#utility.yul\":25493:25508   */\n      and\n        /* \"#utility.yul\":25483:25508   */\n      swap2\n      pop\n        /* \"#utility.yul\":25396:25514   */\n      pop\n        /* \"#utility.yul\":25345:25514   */\n      swap3\n      swap2\n      pop\n      pop\n      jump\t// out\n        /* \"#utility.yul\":25519:25814   */\n    tag_186:\n        /* \"#utility.yul\":25595:25599   */\n      0x00\n        /* \"#utility.yul\":25741:25770   */\n      tag_448\n        /* \"#utility.yul\":25766:25769   */\n      dup4\n        /* \"#utility.yul\":25760:25764   */\n      dup4\n        /* \"#utility.yul\":25741:25770   */\n      tag_185\n      jump\t// in\n    tag_448:\n        /* \"#utility.yul\":25733:25770   */\n      swap2\n      pop\n        /* \"#utility.yul\":25803:25806   */\n      dup3\n        /* \"#utility.yul\":25800:25801   */\n      0x02\n        /* \"#utility.yul\":25796:25807   */\n      mul\n        /* \"#utility.yul\":25790:25794   */\n      dup3\n        /* \"#utility.yul\":25787:25808   */\n      or\n        /* \"#utility.yul\":25779:25808   */\n      swap1\n      pop\n        /* \"#utility.yul\":25519:25814   */\n      swap3\n      swap2\n      pop\n      pop\n      jump\t// out\n        /* \"#utility.yul\":25819:27214   */\n    tag_86:\n        /* \"#utility.yul\":25936:25973   */\n      tag_450\n        /* \"#utility.yul\":25969:25972   */\n      dup3\n        /* \"#utility.yul\":25936:25973   */\n      tag_117\n      jump\t// in\n    tag_450:\n        /* \"#utility.yul\":26038:26056   */\n      0xffffffffffffffff\n        /* \"#utility.yul\":26030:26036   */\n      dup2\n        /* \"#utility.yul\":26027:26057   */\n      gt\n        /* \"#utility.yul\":26024:26080   */\n      iszero\n      tag_451\n      jumpi\n        /* \"#utility.yul\":26060:26078   */\n      tag_452\n      tag_56\n      jump\t// in\n    tag_452:\n        /* \"#utility.yul\":26024:26080   */\n    tag_451:\n        /* \"#utility.yul\":26104:26142   */\n      tag_453\n        /* \"#utility.yul\":26136:26140   */\n      dup3\n        /* \"#utility.yul\":26130:26141   */\n      sload\n        /* \"#utility.yul\":26104:26142   */\n      tag_36\n      jump\t// in\n    tag_453:\n        /* \"#utility.yul\":26189:26256   */\n      tag_454\n        /* \"#utility.yul\":26249:26255   */\n      dup3\n        /* \"#utility.yul\":26241:26247   */\n      dup3\n        /* \"#utility.yul\":26235:26239   */\n      dup6\n        /* \"#utility.yul\":26189:26256   */\n      tag_183\n      jump\t// in\n    tag_454:\n        /* \"#utility.yul\":26283:26284   */\n      0x00\n        /* \"#utility.yul\":26307:26311   */\n      0x20\n        /* \"#utility.yul\":26294:26311   */\n      swap1\n      pop\n        /* \"#utility.yul\":26339:26341   */\n      0x1f\n        /* \"#utility.yul\":26331:26337   */\n      dup4\n        /* \"#utility.yul\":26328:26342   */\n      gt\n        /* \"#utility.yul\":26356:26357   */\n      0x01\n        /* \"#utility.yul\":26351:26969   */\n      dup2\n      eq\n      tag_456\n      jumpi\n        /* \"#utility.yul\":27013:27014   */\n      0x00\n        /* \"#utility.yul\":27030:27036   */\n      dup5\n        /* \"#utility.yul\":27027:27104   */\n      iszero\n      tag_457\n      jumpi\n        /* \"#utility.yul\":27079:27088   */\n      dup3\n        /* \"#utility.yul\":27074:27077   */\n      dup8\n        /* \"#utility.yul\":27070:27089   */\n      add\n        /* \"#utility.yul\":27064:27090   */\n      mload\n        /* \"#utility.yul\":27055:27090   */\n      swap1\n      pop\n        /* \"#utility.yul\":27027:27104   */\n    tag_457:\n        /* \"#utility.yul\":27130:27197   */\n      tag_458\n        /* \"#utility.yul\":27190:27196   */\n      dup6\n        /* \"#utility.yul\":27183:27188   */\n      dup3\n        /* \"#utility.yul\":27130:27197   */\n      tag_186\n      jump\t// in\n    tag_458:\n        /* \"#utility.yul\":27124:27128   */\n      dup7\n        /* \"#utility.yul\":27117:27198   */\n      sstore\n        /* \"#utility.yul\":26986:27208   */\n      pop\n        /* \"#utility.yul\":26321:27208   */\n      jump(tag_455)\n        /* \"#utility.yul\":26351:26969   */\n    tag_456:\n        /* \"#utility.yul\":26403:26407   */\n      0x1f\n        /* \"#utility.yul\":26399:26408   */\n      not\n        /* \"#utility.yul\":26391:26397   */\n      dup5\n        /* \"#utility.yul\":26387:26409   */\n      and\n        /* \"#utility.yul\":26437:26474   */\n      tag_459\n        /* \"#utility.yul\":26469:26473   */\n      dup7\n        /* \"#utility.yul\":26437:26474   */\n      tag_172\n      jump\t// in\n    tag_459:\n        /* \"#utility.yul\":26496:26497   */\n      0x00\n        /* \"#utility.yul\":26510:26718   */\n    tag_460:\n        /* \"#utility.yul\":26524:26531   */\n      dup3\n        /* \"#utility.yul\":26521:26522   */\n      dup2\n        /* \"#utility.yul\":26518:26532   */\n      lt\n        /* \"#utility.yul\":26510:26718   */\n      iszero\n      tag_462\n      jumpi\n        /* \"#utility.yul\":26603:26612   */\n      dup5\n        /* \"#utility.yul\":26598:26601   */\n      dup10\n        /* \"#utility.yul\":26594:26613   */\n      add\n        /* \"#utility.yul\":26588:26614   */\n      mload\n        /* \"#utility.yul\":26580:26586   */\n      dup3\n        /* \"#utility.yul\":26573:26615   */\n      sstore\n        /* \"#utility.yul\":26654:26655   */\n      0x01\n        /* \"#utility.yul\":26646:26652   */\n      dup3\n        /* \"#utility.yul\":26642:26656   */\n      add\n        /* \"#utility.yul\":26632:26656   */\n      swap2\n      pop\n        /* \"#utility.yul\":26701:26703   */\n      0x20\n        /* \"#utility.yul\":26690:26699   */\n      dup6\n        /* \"#utility.yul\":26686:26704   */\n      add\n        /* \"#utility.yul\":26673:26704   */\n      swap5\n      pop\n        /* \"#utility.yul\":26547:26551   */\n      0x20\n        /* \"#utility.yul\":26544:26545   */\n      dup2\n        /* \"#utility.yul\":26540:26552   */\n      add\n        /* \"#utility.yul\":26535:26552   */\n      swap1\n      pop\n        /* \"#utility.yul\":26510:26718   */\n      jump(tag_460)\n    tag_462:\n        /* \"#utility.yul\":26746:26752   */\n      dup7\n        /* \"#utility.yul\":26737:26744   */\n      dup4\n        /* \"#utility.yul\":26734:26753   */\n      lt\n        /* \"#utility.yul\":26731:26910   */\n      iszero\n      tag_463\n      jumpi\n        /* \"#utility.yul\":26804:26813   */\n      dup5\n        /* \"#utility.yul\":26799:26802   */\n      dup10\n        /* \"#utility.yul\":26795:26814   */\n      add\n        /* \"#utility.yul\":26789:26815   */\n      mload\n        /* \"#utility.yul\":26847:26895   */\n      tag_464\n        /* \"#utility.yul\":26889:26893   */\n      0x1f\n        /* \"#utility.yul\":26881:26887   */\n      dup10\n        /* \"#utility.yul\":26877:26894   */\n      and\n        /* \"#utility.yul\":26866:26875   */\n      dup3\n        /* \"#utility.yul\":26847:26895   */\n      tag_185\n      jump\t// in\n    tag_464:\n        /* \"#utility.yul\":26839:26845   */\n      dup4\n        /* \"#utility.yul\":26832:26896   */\n      sstore\n        /* \"#utility.yul\":26754:26910   */\n      pop\n        /* \"#utility.yul\":26731:26910   */\n    tag_463:\n        /* \"#utility.yul\":26956:26957   */\n      0x01\n        /* \"#utility.yul\":26952:26953   */\n      0x02\n        /* \"#utility.yul\":26944:26950   */\n      dup9\n        /* \"#utility.yul\":26940:26954   */\n      mul\n        /* \"#utility.yul\":26936:26958   */\n      add\n        /* \"#utility.yul\":26930:26934   */\n      dup9\n        /* \"#utility.yul\":26923:26959   */\n      sstore\n        /* \"#utility.yul\":26358:26969   */\n      pop\n      pop\n      pop\n        /* \"#utility.yul\":26321:27208   */\n    tag_455:\n      pop\n        /* \"#utility.yul\":25911:27214   */\n      pop\n      pop\n      pop\n        /* \"#utility.yul\":25819:27214   */\n      pop\n      pop\n      jump\t// out\n\n    auxdata: 0xa2646970667358221220568a92e620bcc9b1041d0868140d3d35ac26a036cbd27bb5ab4aeaba7e70105964736f6c63430008180033\n}\n",
				"bytecode": {
					"linkReferences": {},
					"object": "60806040525f60045534801562000014575f80fd5b50604051620018213803806200182183398181016040528101906200003a919062000196565b335f806101000a81548173ffffffffffffffffffffffffffffffffffffffff021916908373ffffffffffffffffffffffffffffffffffffffff1602179055508060015f6101000a81548173ffffffffffffffffffffffffffffffffffffffff021916908373ffffffffffffffffffffffffffffffffffffffff1602179055505f73ffffffffffffffffffffffffffffffffffffffff168173ffffffffffffffffffffffffffffffffffffffff16036200012a576040517f08c379a000000000000000000000000000000000000000000000000000000000815260040162000121906200024a565b60405180910390fd5b506200026a565b5f80fd5b5f73ffffffffffffffffffffffffffffffffffffffff82169050919050565b5f620001608262000135565b9050919050565b620001728162000154565b81146200017d575f80fd5b50565b5f81519050620001908162000167565b92915050565b5f60208284031215620001ae57620001ad62000131565b5b5f620001bd8482850162000180565b91505092915050565b5f82825260208201905092915050565b7f446174615573616765536d617274436f6e7472616374206164647265737320695f8201527f7320696e76616c69642e00000000000000000000000000000000000000000000602082015250565b5f62000232602a83620001c6565b91506200023f82620001d6565b604082019050919050565b5f6020820190508181035f830152620002638162000224565b9050919050565b6115a980620002785f395ff3fe608060405234801561000f575f80fd5b5060043610610055575f3560e01c806303e4d77f1461005957806328e8be60146100895780633d1fee84146100a75780638ae0be40146100c35780638da5cb5b146100e1575b5f80fd5b610073600480360381019061006e9190610821565b6100ff565b6040516100809190610ada565b60405180910390f35b610091610271565b60405161009e9190610b09565b60405180910390f35b6100c160048036038101906100bc9190610821565b61027a565b005b6100cb6105fd565b6040516100d89190610bca565b60405180910390f35b6100e9610653565b6040516100f69190610c29565b60405180910390f35b610107610676565b60025f8381526020019081526020015f206040518060a00160405290815f82015481526020016001820154815260200160028201805480602002602001604051908101604052809291908181526020015f905b82821015610202578382905f5260205f2001805461017790610c6f565b80601f01602080910402602001604051908101604052809291908181526020018280546101a390610c6f565b80156101ee5780601f106101c5576101008083540402835291602001916101ee565b820191905f5260205f20905b8154815290600101906020018083116101d157829003601f168201915b50505050508152602001906001019061015a565b505050508152602001600382015481526020016004820180548060200260200160405190810160405280929190818152602001828054801561026157602002820191905f5260205f20905b81548152602001906001019080831161024d575b5050505050815250509050919050565b5f600454905090565b5f8054906101000a900473ffffffffffffffffffffffffffffffffffffffff1673ffffffffffffffffffffffffffffffffffffffff163373ffffffffffffffffffffffffffffffffffffffff1614610307576040517f08c379a00000000000000000000000000000000000000000000000000000000081526004016102fe90610d1f565b60405180910390fd5b5f60015f9054906101000a900473ffffffffffffffffffffffffffffffffffffffff1673ffffffffffffffffffffffffffffffffffffffff1663d2b0649a836040518263ffffffff1660e01b81526004016103629190610b09565b5f60405180830381865afa15801561037c573d5f803e3d5ffd5b505050506040513d5f823e3d601f19601f820116820180604052508101906103a491906111f4565b90505f81608001515167ffffffffffffffff8111156103c6576103c5610d41565b5b6040519080825280602002602001820160405280156103f45781602001602082028036833780820191505090505b5090505f5b8260800151518110156104e75760015f9054906101000a900473ffffffffffffffffffffffffffffffffffffffff1673ffffffffffffffffffffffffffffffffffffffff1663b61798f68460800151838151811061045a5761045961123b565b5b60200260200101516040518263ffffffff1660e01b815260040161047e9190610b09565b602060405180830381865afa158015610499573d5f803e3d5ffd5b505050506040513d601f19601f820116820180604052508101906104bd9190611268565b8282815181106104d0576104cf61123b565b5b6020026020010181815250508060010190506103f9565b506040518060a001604052808481526020018360400151815260200183606001518152602001835f015181526020018281525060025f8581526020019081526020015f205f820151815f01556020820151816001015560408201518160020190805190602001906105599291906106a5565b506060820151816003015560808201518160040190805190602001906105809291906106fc565b50905050600383908060018154018082558091505060019003905f5260205f20015f909190919091505560045f8154809291906105bc906112c0565b91905055507fc59b02a267f48426e708065a28f0948a454dafa87d33f04d8187b99b7203869f836040516105f09190610b09565b60405180910390a1505050565b6060600380548060200260200160405190810160405280929190818152602001828054801561064957602002820191905f5260205f20905b815481526020019060010190808311610635575b5050505050905090565b5f8054906101000a900473ffffffffffffffffffffffffffffffffffffffff1681565b6040518060a001604052805f81526020015f8152602001606081526020015f8019168152602001606081525090565b828054828255905f5260205f209081019282156106eb579160200282015b828111156106ea5782518290816106da91906114a4565b50916020019190600101906106c3565b5b5090506106f89190610747565b5090565b828054828255905f5260205f20908101928215610736579160200282015b8281111561073557825182559160200191906001019061071a565b5b509050610743919061076a565b5090565b5b80821115610766575f818161075d9190610785565b50600101610748565b5090565b5b80821115610781575f815f90555060010161076b565b5090565b50805461079190610c6f565b5f825580601f106107a257506107bf565b601f0160209004905f5260205f20908101906107be91906107c2565b5b50565b5b808211156107d9575f815f9055506001016107c3565b5090565b5f604051905090565b5f80fd5b5f80fd5b5f819050919050565b610800816107ee565b811461080a575f80fd5b50565b5f8135905061081b816107f7565b92915050565b5f60208284031215610836576108356107e6565b5b5f6108438482850161080d565b91505092915050565b610855816107ee565b82525050565b5f81519050919050565b5f82825260208201905092915050565b5f819050602082019050919050565b5f81519050919050565b5f82825260208201905092915050565b5f5b838110156108bb5780820151818401526020810190506108a0565b5f8484015250505050565b5f601f19601f8301169050919050565b5f6108e082610884565b6108ea818561088e565b93506108fa81856020860161089e565b610903816108c6565b840191505092915050565b5f61091983836108d6565b905092915050565b5f602082019050919050565b5f6109378261085b565b6109418185610865565b93508360208202850161095385610875565b805f5b8581101561098e578484038952815161096f858261090e565b945061097a83610921565b925060208a01995050600181019050610956565b50829750879550505050505092915050565b5f819050919050565b6109b2816109a0565b82525050565b5f81519050919050565b5f82825260208201905092915050565b5f819050602082019050919050565b5f6109ec83836109a9565b60208301905092915050565b5f602082019050919050565b5f610a0e826109b8565b610a1881856109c2565b9350610a23836109d2565b805f5b83811015610a53578151610a3a88826109e1565b9750610a45836109f8565b925050600181019050610a26565b5085935050505092915050565b5f60a083015f830151610a755f86018261084c565b506020830151610a88602086018261084c565b5060408301518482036040860152610aa0828261092d565b9150506060830151610ab560608601826109a9565b5060808301518482036080860152610acd8282610a04565b9150508091505092915050565b5f6020820190508181035f830152610af28184610a60565b905092915050565b610b03816107ee565b82525050565b5f602082019050610b1c5f830184610afa565b92915050565b5f81519050919050565b5f82825260208201905092915050565b5f819050602082019050919050565b5f610b56838361084c565b60208301905092915050565b5f602082019050919050565b5f610b7882610b22565b610b828185610b2c565b9350610b8d83610b3c565b805f5b83811015610bbd578151610ba48882610b4b565b9750610baf83610b62565b925050600181019050610b90565b5085935050505092915050565b5f6020820190508181035f830152610be28184610b6e565b905092915050565b5f73ffffffffffffffffffffffffffffffffffffffff82169050919050565b5f610c1382610bea565b9050919050565b610c2381610c09565b82525050565b5f602082019050610c3c5f830184610c1a565b92915050565b7f4e487b71000000000000000000000000000000000000000000000000000000005f52602260045260245ffd5b5f6002820490506001821680610c8657607f821691505b602082108103610c9957610c98610c42565b5b50919050565b5f82825260208201905092915050565b7f4f6e6c792074686520636f6e7472616374206f776e65722063616e20706572665f8201527f6f726d2074686973206f7065726174696f6e0000000000000000000000000000602082015250565b5f610d09603283610c9f565b9150610d1482610caf565b604082019050919050565b5f6020820190508181035f830152610d3681610cfd565b9050919050565b5f80fd5b7f4e487b71000000000000000000000000000000000000000000000000000000005f52604160045260245ffd5b610d77826108c6565b810181811067ffffffffffffffff82111715610d9657610d95610d41565b5b80604052505050565b5f610da86107dd565b9050610db48282610d6e565b919050565b5f80fd5b610dc6816109a0565b8114610dd0575f80fd5b50565b5f81519050610de181610dbd565b92915050565b5f81519050610df5816107f7565b92915050565b5f80fd5b5f67ffffffffffffffff821115610e1957610e18610d41565b5b602082029050602081019050919050565b5f80fd5b5f80fd5b5f67ffffffffffffffff821115610e4c57610e4b610d41565b5b610e55826108c6565b9050602081019050919050565b5f610e74610e6f84610e32565b610d9f565b905082815260208101848484011115610e9057610e8f610e2e565b5b610e9b84828561089e565b509392505050565b5f82601f830112610eb757610eb6610dfb565b5b8151610ec7848260208601610e62565b91505092915050565b5f610ee2610edd84610dff565b610d9f565b90508083825260208201905060208402830185811115610f0557610f04610e2a565b5b835b81811015610f4c57805167ffffffffffffffff811115610f2a57610f29610dfb565b5b808601610f378982610ea3565b85526020850194505050602081019050610f07565b5050509392505050565b5f82601f830112610f6a57610f69610dfb565b5b8151610f7a848260208601610ed0565b91505092915050565b5f67ffffffffffffffff821115610f9d57610f9c610d41565b5b602082029050602081019050919050565b5f610fc0610fbb84610f83565b610d9f565b90508083825260208201905060208402830185811115610fe357610fe2610e2a565b5b835b8181101561100c5780610ff88882610de7565b845260208401935050602081019050610fe5565b5050509392505050565b5f82601f83011261102a57611029610dfb565b5b815161103a848260208601610fae565b91505092915050565b5f67ffffffffffffffff82111561105d5761105c610d41565b5b602082029050602081019050919050565b5f61108061107b84611043565b610d9f565b905080838252602082019050602084028301858111156110a3576110a2610e2a565b5b835b818110156110cc57806110b88882610dd3565b8452602084019350506020810190506110a5565b5050509392505050565b5f82601f8301126110ea576110e9610dfb565b5b81516110fa84826020860161106e565b91505092915050565b5f60c0828403121561111857611117610d3d565b5b61112260c0610d9f565b90505f61113184828501610dd3565b5f83015250602061114484828501610dd3565b602083015250604061115884828501610de7565b604083015250606082015167ffffffffffffffff81111561117c5761117b610db9565b5b61118884828501610f56565b606083015250608082015167ffffffffffffffff8111156111ac576111ab610db9565b5b6111b884828501611016565b60808301525060a082015167ffffffffffffffff8111156111dc576111db610db9565b5b6111e8848285016110d6565b60a08301525092915050565b5f60208284031215611209576112086107e6565b5b5f82015167ffffffffffffffff811115611226576112256107ea565b5b61123284828501611103565b91505092915050565b7f4e487b71000000000000000000000000000000000000000000000000000000005f52603260045260245ffd5b5f6020828403121561127d5761127c6107e6565b5b5f61128a84828501610dd3565b91505092915050565b7f4e487b71000000000000000000000000000000000000000000000000000000005f52601160045260245ffd5b5f6112ca826107ee565b91507fffffffffffffffffffffffffffffffffffffffffffffffffffffffffffffffff82036112fc576112fb611293565b5b600182019050919050565b5f819050815f5260205f209050919050565b5f6020601f8301049050919050565b5f82821b905092915050565b5f600883026113637fffffffffffffffffffffffffffffffffffffffffffffffffffffffffffffffff82611328565b61136d8683611328565b95508019841693508086168417925050509392505050565b5f819050919050565b5f6113a86113a361139e846107ee565b611385565b6107ee565b9050919050565b5f819050919050565b6113c18361138e565b6113d56113cd826113af565b848454611334565b825550505050565b5f90565b6113e96113dd565b6113f48184846113b8565b505050565b5b818110156114175761140c5f826113e1565b6001810190506113fa565b5050565b601f82111561145c5761142d81611307565b61143684611319565b81016020851015611445578190505b61145961145185611319565b8301826113f9565b50505b505050565b5f82821c905092915050565b5f61147c5f1984600802611461565b1980831691505092915050565b5f611494838361146d565b9150826002028217905092915050565b6114ad82610884565b67ffffffffffffffff8111156114c6576114c5610d41565b5b6114d08254610c6f565b6114db82828561141b565b5f60209050601f83116001811461150c575f84156114fa578287015190505b6115048582611489565b86555061156b565b601f19841661151a86611307565b5f5b828110156115415784890151825560018201915060208501945060208101905061151c565b8683101561155e578489015161155a601f89168261146d565b8355505b6001600288020188555050505b50505050505056fea2646970667358221220568a92e620bcc9b1041d0868140d3d35ac26a036cbd27bb5ab4aeaba7e70105964736f6c63430008180033",
					"opcodes": "PUSH1 0x80 PUSH1 0x40 MSTORE PUSH0 PUSH1 0x4 SSTORE CALLVALUE DUP1 ISZERO PUSH3 0x14 JUMPI PUSH0 DUP1 REVERT JUMPDEST POP PUSH1 0x40 MLOAD PUSH3 0x1821 CODESIZE SUB DUP1 PUSH3 0x1821 DUP4 CODECOPY DUP2 DUP2 ADD PUSH1 0x40 MSTORE DUP2 ADD SWAP1 PUSH3 0x3A SWAP2 SWAP1 PUSH3 0x196 JUMP JUMPDEST CALLER PUSH0 DUP1 PUSH2 0x100 EXP DUP2 SLOAD DUP2 PUSH20 0xFFFFFFFFFFFFFFFFFFFFFFFFFFFFFFFFFFFFFFFF MUL NOT AND SWAP1 DUP4 PUSH20 0xFFFFFFFFFFFFFFFFFFFFFFFFFFFFFFFFFFFFFFFF AND MUL OR SWAP1 SSTORE POP DUP1 PUSH1 0x1 PUSH0 PUSH2 0x100 EXP DUP2 SLOAD DUP2 PUSH20 0xFFFFFFFFFFFFFFFFFFFFFFFFFFFFFFFFFFFFFFFF MUL NOT AND SWAP1 DUP4 PUSH20 0xFFFFFFFFFFFFFFFFFFFFFFFFFFFFFFFFFFFFFFFF AND MUL OR SWAP1 SSTORE POP PUSH0 PUSH20 0xFFFFFFFFFFFFFFFFFFFFFFFFFFFFFFFFFFFFFFFF AND DUP2 PUSH20 0xFFFFFFFFFFFFFFFFFFFFFFFFFFFFFFFFFFFFFFFF AND SUB PUSH3 0x12A JUMPI PUSH1 0x40 MLOAD PUSH32 0x8C379A000000000000000000000000000000000000000000000000000000000 DUP2 MSTORE PUSH1 0x4 ADD PUSH3 0x121 SWAP1 PUSH3 0x24A JUMP JUMPDEST PUSH1 0x40 MLOAD DUP1 SWAP2 SUB SWAP1 REVERT JUMPDEST POP PUSH3 0x26A JUMP JUMPDEST PUSH0 DUP1 REVERT JUMPDEST PUSH0 PUSH20 0xFFFFFFFFFFFFFFFFFFFFFFFFFFFFFFFFFFFFFFFF DUP3 AND SWAP1 POP SWAP2 SWAP1 POP JUMP JUMPDEST PUSH0 PUSH3 0x160 DUP3 PUSH3 0x135 JUMP JUMPDEST SWAP1 POP SWAP2 SWAP1 POP JUMP JUMPDEST PUSH3 0x172 DUP2 PUSH3 0x154 JUMP JUMPDEST DUP2 EQ PUSH3 0x17D JUMPI PUSH0 DUP1 REVERT JUMPDEST POP JUMP JUMPDEST PUSH0 DUP2 MLOAD SWAP1 POP PUSH3 0x190 DUP2 PUSH3 0x167 JUMP JUMPDEST SWAP3 SWAP2 POP POP JUMP JUMPDEST PUSH0 PUSH1 0x20 DUP3 DUP5 SUB SLT ISZERO PUSH3 0x1AE JUMPI PUSH3 0x1AD PUSH3 0x131 JUMP JUMPDEST JUMPDEST PUSH0 PUSH3 0x1BD DUP5 DUP3 DUP6 ADD PUSH3 0x180 JUMP JUMPDEST SWAP2 POP POP SWAP3 SWAP2 POP POP JUMP JUMPDEST PUSH0 DUP3 DUP3 MSTORE PUSH1 0x20 DUP3 ADD SWAP1 POP SWAP3 SWAP2 POP POP JUMP JUMPDEST PUSH32 0x446174615573616765536D617274436F6E747261637420616464726573732069 PUSH0 DUP3 ADD MSTORE PUSH32 0x7320696E76616C69642E00000000000000000000000000000000000000000000 PUSH1 0x20 DUP3 ADD MSTORE POP JUMP JUMPDEST PUSH0 PUSH3 0x232 PUSH1 0x2A DUP4 PUSH3 0x1C6 JUMP JUMPDEST SWAP2 POP PUSH3 0x23F DUP3 PUSH3 0x1D6 JUMP JUMPDEST PUSH1 0x40 DUP3 ADD SWAP1 POP SWAP2 SWAP1 POP JUMP JUMPDEST PUSH0 PUSH1 0x20 DUP3 ADD SWAP1 POP DUP2 DUP2 SUB PUSH0 DUP4 ADD MSTORE PUSH3 0x263 DUP2 PUSH3 0x224 JUMP JUMPDEST SWAP1 POP SWAP2 SWAP1 POP JUMP JUMPDEST PUSH2 0x15A9 DUP1 PUSH3 0x278 PUSH0 CODECOPY PUSH0 RETURN INVALID PUSH1 0x80 PUSH1 0x40 MSTORE CALLVALUE DUP1 ISZERO PUSH2 0xF JUMPI PUSH0 DUP1 REVERT JUMPDEST POP PUSH1 0x4 CALLDATASIZE LT PUSH2 0x55 JUMPI PUSH0 CALLDATALOAD PUSH1 0xE0 SHR DUP1 PUSH4 0x3E4D77F EQ PUSH2 0x59 JUMPI DUP1 PUSH4 0x28E8BE60 EQ PUSH2 0x89 JUMPI DUP1 PUSH4 0x3D1FEE84 EQ PUSH2 0xA7 JUMPI DUP1 PUSH4 0x8AE0BE40 EQ PUSH2 0xC3 JUMPI DUP1 PUSH4 0x8DA5CB5B EQ PUSH2 0xE1 JUMPI JUMPDEST PUSH0 DUP1 REVERT JUMPDEST PUSH2 0x73 PUSH1 0x4 DUP1 CALLDATASIZE SUB DUP2 ADD SWAP1 PUSH2 0x6E SWAP2 SWAP1 PUSH2 0x821 JUMP JUMPDEST PUSH2 0xFF JUMP JUMPDEST PUSH1 0x40 MLOAD PUSH2 0x80 SWAP2 SWAP1 PUSH2 0xADA JUMP JUMPDEST PUSH1 0x40 MLOAD DUP1 SWAP2 SUB SWAP1 RETURN JUMPDEST PUSH2 0x91 PUSH2 0x271 JUMP JUMPDEST PUSH1 0x40 MLOAD PUSH2 0x9E SWAP2 SWAP1 PUSH2 0xB09 JUMP JUMPDEST PUSH1 0x40 MLOAD DUP1 SWAP2 SUB SWAP1 RETURN JUMPDEST PUSH2 0xC1 PUSH1 0x4 DUP1 CALLDATASIZE SUB DUP2 ADD SWAP1 PUSH2 0xBC SWAP2 SWAP1 PUSH2 0x821 JUMP JUMPDEST PUSH2 0x27A JUMP JUMPDEST STOP JUMPDEST PUSH2 0xCB PUSH2 0x5FD JUMP JUMPDEST PUSH1 0x40 MLOAD PUSH2 0xD8 SWAP2 SWAP1 PUSH2 0xBCA JUMP JUMPDEST PUSH1 0x40 MLOAD DUP1 SWAP2 SUB SWAP1 RETURN JUMPDEST PUSH2 0xE9 PUSH2 0x653 JUMP JUMPDEST PUSH1 0x40 MLOAD PUSH2 0xF6 SWAP2 SWAP1 PUSH2 0xC29 JUMP JUMPDEST PUSH1 0x40 MLOAD DUP1 SWAP2 SUB SWAP1 RETURN JUMPDEST PUSH2 0x107 PUSH2 0x676 JUMP JUMPDEST PUSH1 0x2 PUSH0 DUP4 DUP2 MSTORE PUSH1 0x20 ADD SWAP1 DUP2 MSTORE PUSH1 0x20 ADD PUSH0 KECCAK256 PUSH1 0x40 MLOAD DUP1 PUSH1 0xA0 ADD PUSH1 0x40 MSTORE SWAP1 DUP2 PUSH0 DUP3 ADD SLOAD DUP2 MSTORE PUSH1 0x20 ADD PUSH1 0x1 DUP3 ADD SLOAD DUP2 MSTORE PUSH1 0x20 ADD PUSH1 0x2 DUP3 ADD DUP1 SLOAD DUP1 PUSH1 0x20 MUL PUSH1 0x20 ADD PUSH1 0x40 MLOAD SWAP1 DUP2 ADD PUSH1 0x40 MSTORE DUP1 SWAP3 SWAP2 SWAP1 DUP2 DUP2 MSTORE PUSH1 0x20 ADD PUSH0 SWAP1 JUMPDEST DUP3 DUP3 LT ISZERO PUSH2 0x202 JUMPI DUP4 DUP3 SWAP1 PUSH0 MSTORE PUSH1 0x20 PUSH0 KECCAK256 ADD DUP1 SLOAD PUSH2 0x177 SWAP1 PUSH2 0xC6F JUMP JUMPDEST DUP1 PUSH1 0x1F ADD PUSH1 0x20 DUP1 SWAP2 DIV MUL PUSH1 0x20 ADD PUSH1 0x40 MLOAD SWAP1 DUP2 ADD PUSH1 0x40 MSTORE DUP1 SWAP3 SWAP2 SWAP1 DUP2 DUP2 MSTORE PUSH1 0x20 ADD DUP3 DUP1 SLOAD PUSH2 0x1A3 SWAP1 PUSH2 0xC6F JUMP JUMPDEST DUP1 ISZERO PUSH2 0x1EE JUMPI DUP1 PUSH1 0x1F LT PUSH2 0x1C5 JUMPI PUSH2 0x100 DUP1 DUP4 SLOAD DIV MUL DUP4 MSTORE SWAP2 PUSH1 0x20 ADD SWAP2 PUSH2 0x1EE JUMP JUMPDEST DUP3 ADD SWAP2 SWAP1 PUSH0 MSTORE PUSH1 0x20 PUSH0 KECCAK256 SWAP1 JUMPDEST DUP2 SLOAD DUP2 MSTORE SWAP1 PUSH1 0x1 ADD SWAP1 PUSH1 0x20 ADD DUP1 DUP4 GT PUSH2 0x1D1 JUMPI DUP3 SWAP1 SUB PUSH1 0x1F AND DUP3 ADD SWAP2 JUMPDEST POP POP POP POP POP DUP2 MSTORE PUSH1 0x20 ADD SWAP1 PUSH1 0x1 ADD SWAP1 PUSH2 0x15A JUMP JUMPDEST POP POP POP POP DUP2 MSTORE PUSH1 0x20 ADD PUSH1 0x3 DUP3 ADD SLOAD DUP2 MSTORE PUSH1 0x20 ADD PUSH1 0x4 DUP3 ADD DUP1 SLOAD DUP1 PUSH1 0x20 MUL PUSH1 0x20 ADD PUSH1 0x40 MLOAD SWAP1 DUP2 ADD PUSH1 0x40 MSTORE DUP1 SWAP3 SWAP2 SWAP1 DUP2 DUP2 MSTORE PUSH1 0x20 ADD DUP3 DUP1 SLOAD DUP1 ISZERO PUSH2 0x261 JUMPI PUSH1 0x20 MUL DUP3 ADD SWAP2 SWAP1 PUSH0 MSTORE PUSH1 0x20 PUSH0 KECCAK256 SWAP1 JUMPDEST DUP2 SLOAD DUP2 MSTORE PUSH1 0x20 ADD SWAP1 PUSH1 0x1 ADD SWAP1 DUP1 DUP4 GT PUSH2 0x24D JUMPI JUMPDEST POP POP POP POP POP DUP2 MSTORE POP POP SWAP1 POP SWAP2 SWAP1 POP JUMP JUMPDEST PUSH0 PUSH1 0x4 SLOAD SWAP1 POP SWAP1 JUMP JUMPDEST PUSH0 DUP1 SLOAD SWAP1 PUSH2 0x100 EXP SWAP1 DIV PUSH20 0xFFFFFFFFFFFFFFFFFFFFFFFFFFFFFFFFFFFFFFFF AND PUSH20 0xFFFFFFFFFFFFFFFFFFFFFFFFFFFFFFFFFFFFFFFF AND CALLER PUSH20 0xFFFFFFFFFFFFFFFFFFFFFFFFFFFFFFFFFFFFFFFF AND EQ PUSH2 0x307 JUMPI PUSH1 0x40 MLOAD PUSH32 0x8C379A000000000000000000000000000000000000000000000000000000000 DUP2 MSTORE PUSH1 0x4 ADD PUSH2 0x2FE SWAP1 PUSH2 0xD1F JUMP JUMPDEST PUSH1 0x40 MLOAD DUP1 SWAP2 SUB SWAP1 REVERT JUMPDEST PUSH0 PUSH1 0x1 PUSH0 SWAP1 SLOAD SWAP1 PUSH2 0x100 EXP SWAP1 DIV PUSH20 0xFFFFFFFFFFFFFFFFFFFFFFFFFFFFFFFFFFFFFFFF AND PUSH20 0xFFFFFFFFFFFFFFFFFFFFFFFFFFFFFFFFFFFFFFFF AND PUSH4 0xD2B0649A DUP4 PUSH1 0x40 MLOAD DUP3 PUSH4 0xFFFFFFFF AND PUSH1 0xE0 SHL DUP2 MSTORE PUSH1 0x4 ADD PUSH2 0x362 SWAP2 SWAP1 PUSH2 0xB09 JUMP JUMPDEST PUSH0 PUSH1 0x40 MLOAD DUP1 DUP4 SUB DUP2 DUP7 GAS STATICCALL ISZERO DUP1 ISZERO PUSH2 0x37C JUMPI RETURNDATASIZE PUSH0 DUP1 RETURNDATACOPY RETURNDATASIZE PUSH0 REVERT JUMPDEST POP POP POP POP PUSH1 0x40 MLOAD RETURNDATASIZE PUSH0 DUP3 RETURNDATACOPY RETURNDATASIZE PUSH1 0x1F NOT PUSH1 0x1F DUP3 ADD AND DUP3 ADD DUP1 PUSH1 0x40 MSTORE POP DUP2 ADD SWAP1 PUSH2 0x3A4 SWAP2 SWAP1 PUSH2 0x11F4 JUMP JUMPDEST SWAP1 POP PUSH0 DUP2 PUSH1 0x80 ADD MLOAD MLOAD PUSH8 0xFFFFFFFFFFFFFFFF DUP2 GT ISZERO PUSH2 0x3C6 JUMPI PUSH2 0x3C5 PUSH2 0xD41 JUMP JUMPDEST JUMPDEST PUSH1 0x40 MLOAD SWAP1 DUP1 DUP3 MSTORE DUP1 PUSH1 0x20 MUL PUSH1 0x20 ADD DUP3 ADD PUSH1 0x40 MSTORE DUP1 ISZERO PUSH2 0x3F4 JUMPI DUP2 PUSH1 0x20 ADD PUSH1 0x20 DUP3 MUL DUP1 CALLDATASIZE DUP4 CALLDATACOPY DUP1 DUP3 ADD SWAP2 POP POP SWAP1 POP JUMPDEST POP SWAP1 POP PUSH0 JUMPDEST DUP3 PUSH1 0x80 ADD MLOAD MLOAD DUP2 LT ISZERO PUSH2 0x4E7 JUMPI PUSH1 0x1 PUSH0 SWAP1 SLOAD SWAP1 PUSH2 0x100 EXP SWAP1 DIV PUSH20 0xFFFFFFFFFFFFFFFFFFFFFFFFFFFFFFFFFFFFFFFF AND PUSH20 0xFFFFFFFFFFFFFFFFFFFFFFFFFFFFFFFFFFFFFFFF AND PUSH4 0xB61798F6 DUP5 PUSH1 0x80 ADD MLOAD DUP4 DUP2 MLOAD DUP2 LT PUSH2 0x45A JUMPI PUSH2 0x459 PUSH2 0x123B JUMP JUMPDEST JUMPDEST PUSH1 0x20 MUL PUSH1 0x20 ADD ADD MLOAD PUSH1 0x40 MLOAD DUP3 PUSH4 0xFFFFFFFF AND PUSH1 0xE0 SHL DUP2 MSTORE PUSH1 0x4 ADD PUSH2 0x47E SWAP2 SWAP1 PUSH2 0xB09 JUMP JUMPDEST PUSH1 0x20 PUSH1 0x40 MLOAD DUP1 DUP4 SUB DUP2 DUP7 GAS STATICCALL ISZERO DUP1 ISZERO PUSH2 0x499 JUMPI RETURNDATASIZE PUSH0 DUP1 RETURNDATACOPY RETURNDATASIZE PUSH0 REVERT JUMPDEST POP POP POP POP PUSH1 0x40 MLOAD RETURNDATASIZE PUSH1 0x1F NOT PUSH1 0x1F DUP3 ADD AND DUP3 ADD DUP1 PUSH1 0x40 MSTORE POP DUP2 ADD SWAP1 PUSH2 0x4BD SWAP2 SWAP1 PUSH2 0x1268 JUMP JUMPDEST DUP3 DUP3 DUP2 MLOAD DUP2 LT PUSH2 0x4D0 JUMPI PUSH2 0x4CF PUSH2 0x123B JUMP JUMPDEST JUMPDEST PUSH1 0x20 MUL PUSH1 0x20 ADD ADD DUP2 DUP2 MSTORE POP POP DUP1 PUSH1 0x1 ADD SWAP1 POP PUSH2 0x3F9 JUMP JUMPDEST POP PUSH1 0x40 MLOAD DUP1 PUSH1 0xA0 ADD PUSH1 0x40 MSTORE DUP1 DUP5 DUP2 MSTORE PUSH1 0x20 ADD DUP4 PUSH1 0x40 ADD MLOAD DUP2 MSTORE PUSH1 0x20 ADD DUP4 PUSH1 0x60 ADD MLOAD DUP2 MSTORE PUSH1 0x20 ADD DUP4 PUSH0 ADD MLOAD DUP2 MSTORE PUSH1 0x20 ADD DUP3 DUP2 MSTORE POP PUSH1 0x2 PUSH0 DUP6 DUP2 MSTORE PUSH1 0x20 ADD SWAP1 DUP2 MSTORE PUSH1 0x20 ADD PUSH0 KECCAK256 PUSH0 DUP3 ADD MLOAD DUP2 PUSH0 ADD SSTORE PUSH1 0x20 DUP3 ADD MLOAD DUP2 PUSH1 0x1 ADD SSTORE PUSH1 0x40 DUP3 ADD MLOAD DUP2 PUSH1 0x2 ADD SWAP1 DUP1 MLOAD SWAP1 PUSH1 0x20 ADD SWAP1 PUSH2 0x559 SWAP3 SWAP2 SWAP1 PUSH2 0x6A5 JUMP JUMPDEST POP PUSH1 0x60 DUP3 ADD MLOAD DUP2 PUSH1 0x3 ADD SSTORE PUSH1 0x80 DUP3 ADD MLOAD DUP2 PUSH1 0x4 ADD SWAP1 DUP1 MLOAD SWAP1 PUSH1 0x20 ADD SWAP1 PUSH2 0x580 SWAP3 SWAP2 SWAP1 PUSH2 0x6FC JUMP JUMPDEST POP SWAP1 POP POP PUSH1 0x3 DUP4 SWAP1 DUP1 PUSH1 0x1 DUP2 SLOAD ADD DUP1 DUP3 SSTORE DUP1 SWAP2 POP POP PUSH1 0x1 SWAP1 SUB SWAP1 PUSH0 MSTORE PUSH1 0x20 PUSH0 KECCAK256 ADD PUSH0 SWAP1 SWAP2 SWAP1 SWAP2 SWAP1 SWAP2 POP SSTORE PUSH1 0x4 PUSH0 DUP2 SLOAD DUP1 SWAP3 SWAP2 SWAP1 PUSH2 0x5BC SWAP1 PUSH2 0x12C0 JUMP JUMPDEST SWAP2 SWAP1 POP SSTORE POP PUSH32 0xC59B02A267F48426E708065A28F0948A454DAFA87D33F04D8187B99B7203869F DUP4 PUSH1 0x40 MLOAD PUSH2 0x5F0 SWAP2 SWAP1 PUSH2 0xB09 JUMP JUMPDEST PUSH1 0x40 MLOAD DUP1 SWAP2 SUB SWAP1 LOG1 POP POP POP JUMP JUMPDEST PUSH1 0x60 PUSH1 0x3 DUP1 SLOAD DUP1 PUSH1 0x20 MUL PUSH1 0x20 ADD PUSH1 0x40 MLOAD SWAP1 DUP2 ADD PUSH1 0x40 MSTORE DUP1 SWAP3 SWAP2 SWAP1 DUP2 DUP2 MSTORE PUSH1 0x20 ADD DUP3 DUP1 SLOAD DUP1 ISZERO PUSH2 0x649 JUMPI PUSH1 0x20 MUL DUP3 ADD SWAP2 SWAP1 PUSH0 MSTORE PUSH1 0x20 PUSH0 KECCAK256 SWAP1 JUMPDEST DUP2 SLOAD DUP2 MSTORE PUSH1 0x20 ADD SWAP1 PUSH1 0x1 ADD SWAP1 DUP1 DUP4 GT PUSH2 0x635 JUMPI JUMPDEST POP POP POP POP POP SWAP1 POP SWAP1 JUMP JUMPDEST PUSH0 DUP1 SLOAD SWAP1 PUSH2 0x100 EXP SWAP1 DIV PUSH20 0xFFFFFFFFFFFFFFFFFFFFFFFFFFFFFFFFFFFFFFFF AND DUP2 JUMP JUMPDEST PUSH1 0x40 MLOAD DUP1 PUSH1 0xA0 ADD PUSH1 0x40 MSTORE DUP1 PUSH0 DUP2 MSTORE PUSH1 0x20 ADD PUSH0 DUP2 MSTORE PUSH1 0x20 ADD PUSH1 0x60 DUP2 MSTORE PUSH1 0x20 ADD PUSH0 DUP1 NOT AND DUP2 MSTORE PUSH1 0x20 ADD PUSH1 0x60 DUP2 MSTORE POP SWAP1 JUMP JUMPDEST DUP3 DUP1 SLOAD DUP3 DUP3 SSTORE SWAP1 PUSH0 MSTORE PUSH1 0x20 PUSH0 KECCAK256 SWAP1 DUP2 ADD SWAP3 DUP3 ISZERO PUSH2 0x6EB JUMPI SWAP2 PUSH1 0x20 MUL DUP3 ADD JUMPDEST DUP3 DUP2 GT ISZERO PUSH2 0x6EA JUMPI DUP3 MLOAD DUP3 SWAP1 DUP2 PUSH2 0x6DA SWAP2 SWAP1 PUSH2 0x14A4 JUMP JUMPDEST POP SWAP2 PUSH1 0x20 ADD SWAP2 SWAP1 PUSH1 0x1 ADD SWAP1 PUSH2 0x6C3 JUMP JUMPDEST JUMPDEST POP SWAP1 POP PUSH2 0x6F8 SWAP2 SWAP1 PUSH2 0x747 JUMP JUMPDEST POP SWAP1 JUMP JUMPDEST DUP3 DUP1 SLOAD DUP3 DUP3 SSTORE SWAP1 PUSH0 MSTORE PUSH1 0x20 PUSH0 KECCAK256 SWAP1 DUP2 ADD SWAP3 DUP3 ISZERO PUSH2 0x736 JUMPI SWAP2 PUSH1 0x20 MUL DUP3 ADD JUMPDEST DUP3 DUP2 GT ISZERO PUSH2 0x735 JUMPI DUP3 MLOAD DUP3 SSTORE SWAP2 PUSH1 0x20 ADD SWAP2 SWAP1 PUSH1 0x1 ADD SWAP1 PUSH2 0x71A JUMP JUMPDEST JUMPDEST POP SWAP1 POP PUSH2 0x743 SWAP2 SWAP1 PUSH2 0x76A JUMP JUMPDEST POP SWAP1 JUMP JUMPDEST JUMPDEST DUP1 DUP3 GT ISZERO PUSH2 0x766 JUMPI PUSH0 DUP2 DUP2 PUSH2 0x75D SWAP2 SWAP1 PUSH2 0x785 JUMP JUMPDEST POP PUSH1 0x1 ADD PUSH2 0x748 JUMP JUMPDEST POP SWAP1 JUMP JUMPDEST JUMPDEST DUP1 DUP3 GT ISZERO PUSH2 0x781 JUMPI PUSH0 DUP2 PUSH0 SWAP1 SSTORE POP PUSH1 0x1 ADD PUSH2 0x76B JUMP JUMPDEST POP SWAP1 JUMP JUMPDEST POP DUP1 SLOAD PUSH2 0x791 SWAP1 PUSH2 0xC6F JUMP JUMPDEST PUSH0 DUP3 SSTORE DUP1 PUSH1 0x1F LT PUSH2 0x7A2 JUMPI POP PUSH2 0x7BF JUMP JUMPDEST PUSH1 0x1F ADD PUSH1 0x20 SWAP1 DIV SWAP1 PUSH0 MSTORE PUSH1 0x20 PUSH0 KECCAK256 SWAP1 DUP2 ADD SWAP1 PUSH2 0x7BE SWAP2 SWAP1 PUSH2 0x7C2 JUMP JUMPDEST JUMPDEST POP JUMP JUMPDEST JUMPDEST DUP1 DUP3 GT ISZERO PUSH2 0x7D9 JUMPI PUSH0 DUP2 PUSH0 SWAP1 SSTORE POP PUSH1 0x1 ADD PUSH2 0x7C3 JUMP JUMPDEST POP SWAP1 JUMP JUMPDEST PUSH0 PUSH1 0x40 MLOAD SWAP1 POP SWAP1 JUMP JUMPDEST PUSH0 DUP1 REVERT JUMPDEST PUSH0 DUP1 REVERT JUMPDEST PUSH0 DUP2 SWAP1 POP SWAP2 SWAP1 POP JUMP JUMPDEST PUSH2 0x800 DUP2 PUSH2 0x7EE JUMP JUMPDEST DUP2 EQ PUSH2 0x80A JUMPI PUSH0 DUP1 REVERT JUMPDEST POP JUMP JUMPDEST PUSH0 DUP2 CALLDATALOAD SWAP1 POP PUSH2 0x81B DUP2 PUSH2 0x7F7 JUMP JUMPDEST SWAP3 SWAP2 POP POP JUMP JUMPDEST PUSH0 PUSH1 0x20 DUP3 DUP5 SUB SLT ISZERO PUSH2 0x836 JUMPI PUSH2 0x835 PUSH2 0x7E6 JUMP JUMPDEST JUMPDEST PUSH0 PUSH2 0x843 DUP5 DUP3 DUP6 ADD PUSH2 0x80D JUMP JUMPDEST SWAP2 POP POP SWAP3 SWAP2 POP POP JUMP JUMPDEST PUSH2 0x855 DUP2 PUSH2 0x7EE JUMP JUMPDEST DUP3 MSTORE POP POP JUMP JUMPDEST PUSH0 DUP2 MLOAD SWAP1 POP SWAP2 SWAP1 POP JUMP JUMPDEST PUSH0 DUP3 DUP3 MSTORE PUSH1 0x20 DUP3 ADD SWAP1 POP SWAP3 SWAP2 POP POP JUMP JUMPDEST PUSH0 DUP2 SWAP1 POP PUSH1 0x20 DUP3 ADD SWAP1 POP SWAP2 SWAP1 POP JUMP JUMPDEST PUSH0 DUP2 MLOAD SWAP1 POP SWAP2 SWAP1 POP JUMP JUMPDEST PUSH0 DUP3 DUP3 MSTORE PUSH1 0x20 DUP3 ADD SWAP1 POP SWAP3 SWAP2 POP POP JUMP JUMPDEST PUSH0 JUMPDEST DUP4 DUP2 LT ISZERO PUSH2 0x8BB JUMPI DUP1 DUP3 ADD MLOAD DUP2 DUP5 ADD MSTORE PUSH1 0x20 DUP2 ADD SWAP1 POP PUSH2 0x8A0 JUMP JUMPDEST PUSH0 DUP5 DUP5 ADD MSTORE POP POP POP POP JUMP JUMPDEST PUSH0 PUSH1 0x1F NOT PUSH1 0x1F DUP4 ADD AND SWAP1 POP SWAP2 SWAP1 POP JUMP JUMPDEST PUSH0 PUSH2 0x8E0 DUP3 PUSH2 0x884 JUMP JUMPDEST PUSH2 0x8EA DUP2 DUP6 PUSH2 0x88E JUMP JUMPDEST SWAP4 POP PUSH2 0x8FA DUP2 DUP6 PUSH1 0x20 DUP7 ADD PUSH2 0x89E JUMP JUMPDEST PUSH2 0x903 DUP2 PUSH2 0x8C6 JUMP JUMPDEST DUP5 ADD SWAP2 POP POP SWAP3 SWAP2 POP POP JUMP JUMPDEST PUSH0 PUSH2 0x919 DUP4 DUP4 PUSH2 0x8D6 JUMP JUMPDEST SWAP1 POP SWAP3 SWAP2 POP POP JUMP JUMPDEST PUSH0 PUSH1 0x20 DUP3 ADD SWAP1 POP SWAP2 SWAP1 POP JUMP JUMPDEST PUSH0 PUSH2 0x937 DUP3 PUSH2 0x85B JUMP JUMPDEST PUSH2 0x941 DUP2 DUP6 PUSH2 0x865 JUMP JUMPDEST SWAP4 POP DUP4 PUSH1 0x20 DUP3 MUL DUP6 ADD PUSH2 0x953 DUP6 PUSH2 0x875 JUMP JUMPDEST DUP1 PUSH0 JUMPDEST DUP6 DUP2 LT ISZERO PUSH2 0x98E JUMPI DUP5 DUP5 SUB DUP10 MSTORE DUP2 MLOAD PUSH2 0x96F DUP6 DUP3 PUSH2 0x90E JUMP JUMPDEST SWAP5 POP PUSH2 0x97A DUP4 PUSH2 0x921 JUMP JUMPDEST SWAP3 POP PUSH1 0x20 DUP11 ADD SWAP10 POP POP PUSH1 0x1 DUP2 ADD SWAP1 POP PUSH2 0x956 JUMP JUMPDEST POP DUP3 SWAP8 POP DUP8 SWAP6 POP POP POP POP POP POP SWAP3 SWAP2 POP POP JUMP JUMPDEST PUSH0 DUP2 SWAP1 POP SWAP2 SWAP1 POP JUMP JUMPDEST PUSH2 0x9B2 DUP2 PUSH2 0x9A0 JUMP JUMPDEST DUP3 MSTORE POP POP JUMP JUMPDEST PUSH0 DUP2 MLOAD SWAP1 POP SWAP2 SWAP1 POP JUMP JUMPDEST PUSH0 DUP3 DUP3 MSTORE PUSH1 0x20 DUP3 ADD SWAP1 POP SWAP3 SWAP2 POP POP JUMP JUMPDEST PUSH0 DUP2 SWAP1 POP PUSH1 0x20 DUP3 ADD SWAP1 POP SWAP2 SWAP1 POP JUMP JUMPDEST PUSH0 PUSH2 0x9EC DUP4 DUP4 PUSH2 0x9A9 JUMP JUMPDEST PUSH1 0x20 DUP4 ADD SWAP1 POP SWAP3 SWAP2 POP POP JUMP JUMPDEST PUSH0 PUSH1 0x20 DUP3 ADD SWAP1 POP SWAP2 SWAP1 POP JUMP JUMPDEST PUSH0 PUSH2 0xA0E DUP3 PUSH2 0x9B8 JUMP JUMPDEST PUSH2 0xA18 DUP2 DUP6 PUSH2 0x9C2 JUMP JUMPDEST SWAP4 POP PUSH2 0xA23 DUP4 PUSH2 0x9D2 JUMP JUMPDEST DUP1 PUSH0 JUMPDEST DUP4 DUP2 LT ISZERO PUSH2 0xA53 JUMPI DUP2 MLOAD PUSH2 0xA3A DUP9 DUP3 PUSH2 0x9E1 JUMP JUMPDEST SWAP8 POP PUSH2 0xA45 DUP4 PUSH2 0x9F8 JUMP JUMPDEST SWAP3 POP POP PUSH1 0x1 DUP2 ADD SWAP1 POP PUSH2 0xA26 JUMP JUMPDEST POP DUP6 SWAP4 POP POP POP POP SWAP3 SWAP2 POP POP JUMP JUMPDEST PUSH0 PUSH1 0xA0 DUP4 ADD PUSH0 DUP4 ADD MLOAD PUSH2 0xA75 PUSH0 DUP7 ADD DUP3 PUSH2 0x84C JUMP JUMPDEST POP PUSH1 0x20 DUP4 ADD MLOAD PUSH2 0xA88 PUSH1 0x20 DUP7 ADD DUP3 PUSH2 0x84C JUMP JUMPDEST POP PUSH1 0x40 DUP4 ADD MLOAD DUP5 DUP3 SUB PUSH1 0x40 DUP7 ADD MSTORE PUSH2 0xAA0 DUP3 DUP3 PUSH2 0x92D JUMP JUMPDEST SWAP2 POP POP PUSH1 0x60 DUP4 ADD MLOAD PUSH2 0xAB5 PUSH1 0x60 DUP7 ADD DUP3 PUSH2 0x9A9 JUMP JUMPDEST POP PUSH1 0x80 DUP4 ADD MLOAD DUP5 DUP3 SUB PUSH1 0x80 DUP7 ADD MSTORE PUSH2 0xACD DUP3 DUP3 PUSH2 0xA04 JUMP JUMPDEST SWAP2 POP POP DUP1 SWAP2 POP POP SWAP3 SWAP2 POP POP JUMP JUMPDEST PUSH0 PUSH1 0x20 DUP3 ADD SWAP1 POP DUP2 DUP2 SUB PUSH0 DUP4 ADD MSTORE PUSH2 0xAF2 DUP2 DUP5 PUSH2 0xA60 JUMP JUMPDEST SWAP1 POP SWAP3 SWAP2 POP POP JUMP JUMPDEST PUSH2 0xB03 DUP2 PUSH2 0x7EE JUMP JUMPDEST DUP3 MSTORE POP POP JUMP JUMPDEST PUSH0 PUSH1 0x20 DUP3 ADD SWAP1 POP PUSH2 0xB1C PUSH0 DUP4 ADD DUP5 PUSH2 0xAFA JUMP JUMPDEST SWAP3 SWAP2 POP POP JUMP JUMPDEST PUSH0 DUP2 MLOAD SWAP1 POP SWAP2 SWAP1 POP JUMP JUMPDEST PUSH0 DUP3 DUP3 MSTORE PUSH1 0x20 DUP3 ADD SWAP1 POP SWAP3 SWAP2 POP POP JUMP JUMPDEST PUSH0 DUP2 SWAP1 POP PUSH1 0x20 DUP3 ADD SWAP1 POP SWAP2 SWAP1 POP JUMP JUMPDEST PUSH0 PUSH2 0xB56 DUP4 DUP4 PUSH2 0x84C JUMP JUMPDEST PUSH1 0x20 DUP4 ADD SWAP1 POP SWAP3 SWAP2 POP POP JUMP JUMPDEST PUSH0 PUSH1 0x20 DUP3 ADD SWAP1 POP SWAP2 SWAP1 POP JUMP JUMPDEST PUSH0 PUSH2 0xB78 DUP3 PUSH2 0xB22 JUMP JUMPDEST PUSH2 0xB82 DUP2 DUP6 PUSH2 0xB2C JUMP JUMPDEST SWAP4 POP PUSH2 0xB8D DUP4 PUSH2 0xB3C JUMP JUMPDEST DUP1 PUSH0 JUMPDEST DUP4 DUP2 LT ISZERO PUSH2 0xBBD JUMPI DUP2 MLOAD PUSH2 0xBA4 DUP9 DUP3 PUSH2 0xB4B JUMP JUMPDEST SWAP8 POP PUSH2 0xBAF DUP4 PUSH2 0xB62 JUMP JUMPDEST SWAP3 POP POP PUSH1 0x1 DUP2 ADD SWAP1 POP PUSH2 0xB90 JUMP JUMPDEST POP DUP6 SWAP4 POP POP POP POP SWAP3 SWAP2 POP POP JUMP JUMPDEST PUSH0 PUSH1 0x20 DUP3 ADD SWAP1 POP DUP2 DUP2 SUB PUSH0 DUP4 ADD MSTORE PUSH2 0xBE2 DUP2 DUP5 PUSH2 0xB6E JUMP JUMPDEST SWAP1 POP SWAP3 SWAP2 POP POP JUMP JUMPDEST PUSH0 PUSH20 0xFFFFFFFFFFFFFFFFFFFFFFFFFFFFFFFFFFFFFFFF DUP3 AND SWAP1 POP SWAP2 SWAP1 POP JUMP JUMPDEST PUSH0 PUSH2 0xC13 DUP3 PUSH2 0xBEA JUMP JUMPDEST SWAP1 POP SWAP2 SWAP1 POP JUMP JUMPDEST PUSH2 0xC23 DUP2 PUSH2 0xC09 JUMP JUMPDEST DUP3 MSTORE POP POP JUMP JUMPDEST PUSH0 PUSH1 0x20 DUP3 ADD SWAP1 POP PUSH2 0xC3C PUSH0 DUP4 ADD DUP5 PUSH2 0xC1A JUMP JUMPDEST SWAP3 SWAP2 POP POP JUMP JUMPDEST PUSH32 0x4E487B7100000000000000000000000000000000000000000000000000000000 PUSH0 MSTORE PUSH1 0x22 PUSH1 0x4 MSTORE PUSH1 0x24 PUSH0 REVERT JUMPDEST PUSH0 PUSH1 0x2 DUP3 DIV SWAP1 POP PUSH1 0x1 DUP3 AND DUP1 PUSH2 0xC86 JUMPI PUSH1 0x7F DUP3 AND SWAP2 POP JUMPDEST PUSH1 0x20 DUP3 LT DUP2 SUB PUSH2 0xC99 JUMPI PUSH2 0xC98 PUSH2 0xC42 JUMP JUMPDEST JUMPDEST POP SWAP2 SWAP1 POP JUMP JUMPDEST PUSH0 DUP3 DUP3 MSTORE PUSH1 0x20 DUP3 ADD SWAP1 POP SWAP3 SWAP2 POP POP JUMP JUMPDEST PUSH32 0x4F6E6C792074686520636F6E7472616374206F776E65722063616E2070657266 PUSH0 DUP3 ADD MSTORE PUSH32 0x6F726D2074686973206F7065726174696F6E0000000000000000000000000000 PUSH1 0x20 DUP3 ADD MSTORE POP JUMP JUMPDEST PUSH0 PUSH2 0xD09 PUSH1 0x32 DUP4 PUSH2 0xC9F JUMP JUMPDEST SWAP2 POP PUSH2 0xD14 DUP3 PUSH2 0xCAF JUMP JUMPDEST PUSH1 0x40 DUP3 ADD SWAP1 POP SWAP2 SWAP1 POP JUMP JUMPDEST PUSH0 PUSH1 0x20 DUP3 ADD SWAP1 POP DUP2 DUP2 SUB PUSH0 DUP4 ADD MSTORE PUSH2 0xD36 DUP2 PUSH2 0xCFD JUMP JUMPDEST SWAP1 POP SWAP2 SWAP1 POP JUMP JUMPDEST PUSH0 DUP1 REVERT JUMPDEST PUSH32 0x4E487B7100000000000000000000000000000000000000000000000000000000 PUSH0 MSTORE PUSH1 0x41 PUSH1 0x4 MSTORE PUSH1 0x24 PUSH0 REVERT JUMPDEST PUSH2 0xD77 DUP3 PUSH2 0x8C6 JUMP JUMPDEST DUP2 ADD DUP2 DUP2 LT PUSH8 0xFFFFFFFFFFFFFFFF DUP3 GT OR ISZERO PUSH2 0xD96 JUMPI PUSH2 0xD95 PUSH2 0xD41 JUMP JUMPDEST JUMPDEST DUP1 PUSH1 0x40 MSTORE POP POP POP JUMP JUMPDEST PUSH0 PUSH2 0xDA8 PUSH2 0x7DD JUMP JUMPDEST SWAP1 POP PUSH2 0xDB4 DUP3 DUP3 PUSH2 0xD6E JUMP JUMPDEST SWAP2 SWAP1 POP JUMP JUMPDEST PUSH0 DUP1 REVERT JUMPDEST PUSH2 0xDC6 DUP2 PUSH2 0x9A0 JUMP JUMPDEST DUP2 EQ PUSH2 0xDD0 JUMPI PUSH0 DUP1 REVERT JUMPDEST POP JUMP JUMPDEST PUSH0 DUP2 MLOAD SWAP1 POP PUSH2 0xDE1 DUP2 PUSH2 0xDBD JUMP JUMPDEST SWAP3 SWAP2 POP POP JUMP JUMPDEST PUSH0 DUP2 MLOAD SWAP1 POP PUSH2 0xDF5 DUP2 PUSH2 0x7F7 JUMP JUMPDEST SWAP3 SWAP2 POP POP JUMP JUMPDEST PUSH0 DUP1 REVERT JUMPDEST PUSH0 PUSH8 0xFFFFFFFFFFFFFFFF DUP3 GT ISZERO PUSH2 0xE19 JUMPI PUSH2 0xE18 PUSH2 0xD41 JUMP JUMPDEST JUMPDEST PUSH1 0x20 DUP3 MUL SWAP1 POP PUSH1 0x20 DUP2 ADD SWAP1 POP SWAP2 SWAP1 POP JUMP JUMPDEST PUSH0 DUP1 REVERT JUMPDEST PUSH0 DUP1 REVERT JUMPDEST PUSH0 PUSH8 0xFFFFFFFFFFFFFFFF DUP3 GT ISZERO PUSH2 0xE4C JUMPI PUSH2 0xE4B PUSH2 0xD41 JUMP JUMPDEST JUMPDEST PUSH2 0xE55 DUP3 PUSH2 0x8C6 JUMP JUMPDEST SWAP1 POP PUSH1 0x20 DUP2 ADD SWAP1 POP SWAP2 SWAP1 POP JUMP JUMPDEST PUSH0 PUSH2 0xE74 PUSH2 0xE6F DUP5 PUSH2 0xE32 JUMP JUMPDEST PUSH2 0xD9F JUMP JUMPDEST SWAP1 POP DUP3 DUP2 MSTORE PUSH1 0x20 DUP2 ADD DUP5 DUP5 DUP5 ADD GT ISZERO PUSH2 0xE90 JUMPI PUSH2 0xE8F PUSH2 0xE2E JUMP JUMPDEST JUMPDEST PUSH2 0xE9B DUP5 DUP3 DUP6 PUSH2 0x89E JUMP JUMPDEST POP SWAP4 SWAP3 POP POP POP JUMP JUMPDEST PUSH0 DUP3 PUSH1 0x1F DUP4 ADD SLT PUSH2 0xEB7 JUMPI PUSH2 0xEB6 PUSH2 0xDFB JUMP JUMPDEST JUMPDEST DUP2 MLOAD PUSH2 0xEC7 DUP5 DUP3 PUSH1 0x20 DUP7 ADD PUSH2 0xE62 JUMP JUMPDEST SWAP2 POP POP SWAP3 SWAP2 POP POP JUMP JUMPDEST PUSH0 PUSH2 0xEE2 PUSH2 0xEDD DUP5 PUSH2 0xDFF JUMP JUMPDEST PUSH2 0xD9F JUMP JUMPDEST SWAP1 POP DUP1 DUP4 DUP3 MSTORE PUSH1 0x20 DUP3 ADD SWAP1 POP PUSH1 0x20 DUP5 MUL DUP4 ADD DUP6 DUP2 GT ISZERO PUSH2 0xF05 JUMPI PUSH2 0xF04 PUSH2 0xE2A JUMP JUMPDEST JUMPDEST DUP4 JUMPDEST DUP2 DUP2 LT ISZERO PUSH2 0xF4C JUMPI DUP1 MLOAD PUSH8 0xFFFFFFFFFFFFFFFF DUP2 GT ISZERO PUSH2 0xF2A JUMPI PUSH2 0xF29 PUSH2 0xDFB JUMP JUMPDEST JUMPDEST DUP1 DUP7 ADD PUSH2 0xF37 DUP10 DUP3 PUSH2 0xEA3 JUMP JUMPDEST DUP6 MSTORE PUSH1 0x20 DUP6 ADD SWAP5 POP POP POP PUSH1 0x20 DUP2 ADD SWAP1 POP PUSH2 0xF07 JUMP JUMPDEST POP POP POP SWAP4 SWAP3 POP POP POP JUMP JUMPDEST PUSH0 DUP3 PUSH1 0x1F DUP4 ADD SLT PUSH2 0xF6A JUMPI PUSH2 0xF69 PUSH2 0xDFB JUMP JUMPDEST JUMPDEST DUP2 MLOAD PUSH2 0xF7A DUP5 DUP3 PUSH1 0x20 DUP7 ADD PUSH2 0xED0 JUMP JUMPDEST SWAP2 POP POP SWAP3 SWAP2 POP POP JUMP JUMPDEST PUSH0 PUSH8 0xFFFFFFFFFFFFFFFF DUP3 GT ISZERO PUSH2 0xF9D JUMPI PUSH2 0xF9C PUSH2 0xD41 JUMP JUMPDEST JUMPDEST PUSH1 0x20 DUP3 MUL SWAP1 POP PUSH1 0x20 DUP2 ADD SWAP1 POP SWAP2 SWAP1 POP JUMP JUMPDEST PUSH0 PUSH2 0xFC0 PUSH2 0xFBB DUP5 PUSH2 0xF83 JUMP JUMPDEST PUSH2 0xD9F JUMP JUMPDEST SWAP1 POP DUP1 DUP4 DUP3 MSTORE PUSH1 0x20 DUP3 ADD SWAP1 POP PUSH1 0x20 DUP5 MUL DUP4 ADD DUP6 DUP2 GT ISZERO PUSH2 0xFE3 JUMPI PUSH2 0xFE2 PUSH2 0xE2A JUMP JUMPDEST JUMPDEST DUP4 JUMPDEST DUP2 DUP2 LT ISZERO PUSH2 0x100C JUMPI DUP1 PUSH2 0xFF8 DUP9 DUP3 PUSH2 0xDE7 JUMP JUMPDEST DUP5 MSTORE PUSH1 0x20 DUP5 ADD SWAP4 POP POP PUSH1 0x20 DUP2 ADD SWAP1 POP PUSH2 0xFE5 JUMP JUMPDEST POP POP POP SWAP4 SWAP3 POP POP POP JUMP JUMPDEST PUSH0 DUP3 PUSH1 0x1F DUP4 ADD SLT PUSH2 0x102A JUMPI PUSH2 0x1029 PUSH2 0xDFB JUMP JUMPDEST JUMPDEST DUP2 MLOAD PUSH2 0x103A DUP5 DUP3 PUSH1 0x20 DUP7 ADD PUSH2 0xFAE JUMP JUMPDEST SWAP2 POP POP SWAP3 SWAP2 POP POP JUMP JUMPDEST PUSH0 PUSH8 0xFFFFFFFFFFFFFFFF DUP3 GT ISZERO PUSH2 0x105D JUMPI PUSH2 0x105C PUSH2 0xD41 JUMP JUMPDEST JUMPDEST PUSH1 0x20 DUP3 MUL SWAP1 POP PUSH1 0x20 DUP2 ADD SWAP1 POP SWAP2 SWAP1 POP JUMP JUMPDEST PUSH0 PUSH2 0x1080 PUSH2 0x107B DUP5 PUSH2 0x1043 JUMP JUMPDEST PUSH2 0xD9F JUMP JUMPDEST SWAP1 POP DUP1 DUP4 DUP3 MSTORE PUSH1 0x20 DUP3 ADD SWAP1 POP PUSH1 0x20 DUP5 MUL DUP4 ADD DUP6 DUP2 GT ISZERO PUSH2 0x10A3 JUMPI PUSH2 0x10A2 PUSH2 0xE2A JUMP JUMPDEST JUMPDEST DUP4 JUMPDEST DUP2 DUP2 LT ISZERO PUSH2 0x10CC JUMPI DUP1 PUSH2 0x10B8 DUP9 DUP3 PUSH2 0xDD3 JUMP JUMPDEST DUP5 MSTORE PUSH1 0x20 DUP5 ADD SWAP4 POP POP PUSH1 0x20 DUP2 ADD SWAP1 POP PUSH2 0x10A5 JUMP JUMPDEST POP POP POP SWAP4 SWAP3 POP POP POP JUMP JUMPDEST PUSH0 DUP3 PUSH1 0x1F DUP4 ADD SLT PUSH2 0x10EA JUMPI PUSH2 0x10E9 PUSH2 0xDFB JUMP JUMPDEST JUMPDEST DUP2 MLOAD PUSH2 0x10FA DUP5 DUP3 PUSH1 0x20 DUP7 ADD PUSH2 0x106E JUMP JUMPDEST SWAP2 POP POP SWAP3 SWAP2 POP POP JUMP JUMPDEST PUSH0 PUSH1 0xC0 DUP3 DUP5 SUB SLT ISZERO PUSH2 0x1118 JUMPI PUSH2 0x1117 PUSH2 0xD3D JUMP JUMPDEST JUMPDEST PUSH2 0x1122 PUSH1 0xC0 PUSH2 0xD9F JUMP JUMPDEST SWAP1 POP PUSH0 PUSH2 0x1131 DUP5 DUP3 DUP6 ADD PUSH2 0xDD3 JUMP JUMPDEST PUSH0 DUP4 ADD MSTORE POP PUSH1 0x20 PUSH2 0x1144 DUP5 DUP3 DUP6 ADD PUSH2 0xDD3 JUMP JUMPDEST PUSH1 0x20 DUP4 ADD MSTORE POP PUSH1 0x40 PUSH2 0x1158 DUP5 DUP3 DUP6 ADD PUSH2 0xDE7 JUMP JUMPDEST PUSH1 0x40 DUP4 ADD MSTORE POP PUSH1 0x60 DUP3 ADD MLOAD PUSH8 0xFFFFFFFFFFFFFFFF DUP2 GT ISZERO PUSH2 0x117C JUMPI PUSH2 0x117B PUSH2 0xDB9 JUMP JUMPDEST JUMPDEST PUSH2 0x1188 DUP5 DUP3 DUP6 ADD PUSH2 0xF56 JUMP JUMPDEST PUSH1 0x60 DUP4 ADD MSTORE POP PUSH1 0x80 DUP3 ADD MLOAD PUSH8 0xFFFFFFFFFFFFFFFF DUP2 GT ISZERO PUSH2 0x11AC JUMPI PUSH2 0x11AB PUSH2 0xDB9 JUMP JUMPDEST JUMPDEST PUSH2 0x11B8 DUP5 DUP3 DUP6 ADD PUSH2 0x1016 JUMP JUMPDEST PUSH1 0x80 DUP4 ADD MSTORE POP PUSH1 0xA0 DUP3 ADD MLOAD PUSH8 0xFFFFFFFFFFFFFFFF DUP2 GT ISZERO PUSH2 0x11DC JUMPI PUSH2 0x11DB PUSH2 0xDB9 JUMP JUMPDEST JUMPDEST PUSH2 0x11E8 DUP5 DUP3 DUP6 ADD PUSH2 0x10D6 JUMP JUMPDEST PUSH1 0xA0 DUP4 ADD MSTORE POP SWAP3 SWAP2 POP POP JUMP JUMPDEST PUSH0 PUSH1 0x20 DUP3 DUP5 SUB SLT ISZERO PUSH2 0x1209 JUMPI PUSH2 0x1208 PUSH2 0x7E6 JUMP JUMPDEST JUMPDEST PUSH0 DUP3 ADD MLOAD PUSH8 0xFFFFFFFFFFFFFFFF DUP2 GT ISZERO PUSH2 0x1226 JUMPI PUSH2 0x1225 PUSH2 0x7EA JUMP JUMPDEST JUMPDEST PUSH2 0x1232 DUP5 DUP3 DUP6 ADD PUSH2 0x1103 JUMP JUMPDEST SWAP2 POP POP SWAP3 SWAP2 POP POP JUMP JUMPDEST PUSH32 0x4E487B7100000000000000000000000000000000000000000000000000000000 PUSH0 MSTORE PUSH1 0x32 PUSH1 0x4 MSTORE PUSH1 0x24 PUSH0 REVERT JUMPDEST PUSH0 PUSH1 0x20 DUP3 DUP5 SUB SLT ISZERO PUSH2 0x127D JUMPI PUSH2 0x127C PUSH2 0x7E6 JUMP JUMPDEST JUMPDEST PUSH0 PUSH2 0x128A DUP5 DUP3 DUP6 ADD PUSH2 0xDD3 JUMP JUMPDEST SWAP2 POP POP SWAP3 SWAP2 POP POP JUMP JUMPDEST PUSH32 0x4E487B7100000000000000000000000000000000000000000000000000000000 PUSH0 MSTORE PUSH1 0x11 PUSH1 0x4 MSTORE PUSH1 0x24 PUSH0 REVERT JUMPDEST PUSH0 PUSH2 0x12CA DUP3 PUSH2 0x7EE JUMP JUMPDEST SWAP2 POP PUSH32 0xFFFFFFFFFFFFFFFFFFFFFFFFFFFFFFFFFFFFFFFFFFFFFFFFFFFFFFFFFFFFFFFF DUP3 SUB PUSH2 0x12FC JUMPI PUSH2 0x12FB PUSH2 0x1293 JUMP JUMPDEST JUMPDEST PUSH1 0x1 DUP3 ADD SWAP1 POP SWAP2 SWAP1 POP JUMP JUMPDEST PUSH0 DUP2 SWAP1 POP DUP2 PUSH0 MSTORE PUSH1 0x20 PUSH0 KECCAK256 SWAP1 POP SWAP2 SWAP1 POP JUMP JUMPDEST PUSH0 PUSH1 0x20 PUSH1 0x1F DUP4 ADD DIV SWAP1 POP SWAP2 SWAP1 POP JUMP JUMPDEST PUSH0 DUP3 DUP3 SHL SWAP1 POP SWAP3 SWAP2 POP POP JUMP JUMPDEST PUSH0 PUSH1 0x8 DUP4 MUL PUSH2 0x1363 PUSH32 0xFFFFFFFFFFFFFFFFFFFFFFFFFFFFFFFFFFFFFFFFFFFFFFFFFFFFFFFFFFFFFFFF DUP3 PUSH2 0x1328 JUMP JUMPDEST PUSH2 0x136D DUP7 DUP4 PUSH2 0x1328 JUMP JUMPDEST SWAP6 POP DUP1 NOT DUP5 AND SWAP4 POP DUP1 DUP7 AND DUP5 OR SWAP3 POP POP POP SWAP4 SWAP3 POP POP POP JUMP JUMPDEST PUSH0 DUP2 SWAP1 POP SWAP2 SWAP1 POP JUMP JUMPDEST PUSH0 PUSH2 0x13A8 PUSH2 0x13A3 PUSH2 0x139E DUP5 PUSH2 0x7EE JUMP JUMPDEST PUSH2 0x1385 JUMP JUMPDEST PUSH2 0x7EE JUMP JUMPDEST SWAP1 POP SWAP2 SWAP1 POP JUMP JUMPDEST PUSH0 DUP2 SWAP1 POP SWAP2 SWAP1 POP JUMP JUMPDEST PUSH2 0x13C1 DUP4 PUSH2 0x138E JUMP JUMPDEST PUSH2 0x13D5 PUSH2 0x13CD DUP3 PUSH2 0x13AF JUMP JUMPDEST DUP5 DUP5 SLOAD PUSH2 0x1334 JUMP JUMPDEST DUP3 SSTORE POP POP POP POP JUMP JUMPDEST PUSH0 SWAP1 JUMP JUMPDEST PUSH2 0x13E9 PUSH2 0x13DD JUMP JUMPDEST PUSH2 0x13F4 DUP2 DUP5 DUP5 PUSH2 0x13B8 JUMP JUMPDEST POP POP POP JUMP JUMPDEST JUMPDEST DUP2 DUP2 LT ISZERO PUSH2 0x1417 JUMPI PUSH2 0x140C PUSH0 DUP3 PUSH2 0x13E1 JUMP JUMPDEST PUSH1 0x1 DUP2 ADD SWAP1 POP PUSH2 0x13FA JUMP JUMPDEST POP POP JUMP JUMPDEST PUSH1 0x1F DUP3 GT ISZERO PUSH2 0x145C JUMPI PUSH2 0x142D DUP2 PUSH2 0x1307 JUMP JUMPDEST PUSH2 0x1436 DUP5 PUSH2 0x1319 JUMP JUMPDEST DUP2 ADD PUSH1 0x20 DUP6 LT ISZERO PUSH2 0x1445 JUMPI DUP2 SWAP1 POP JUMPDEST PUSH2 0x1459 PUSH2 0x1451 DUP6 PUSH2 0x1319 JUMP JUMPDEST DUP4 ADD DUP3 PUSH2 0x13F9 JUMP JUMPDEST POP POP JUMPDEST POP POP POP JUMP JUMPDEST PUSH0 DUP3 DUP3 SHR SWAP1 POP SWAP3 SWAP2 POP POP JUMP JUMPDEST PUSH0 PUSH2 0x147C PUSH0 NOT DUP5 PUSH1 0x8 MUL PUSH2 0x1461 JUMP JUMPDEST NOT DUP1 DUP4 AND SWAP2 POP POP SWAP3 SWAP2 POP POP JUMP JUMPDEST PUSH0 PUSH2 0x1494 DUP4 DUP4 PUSH2 0x146D JUMP JUMPDEST SWAP2 POP DUP3 PUSH1 0x2 MUL DUP3 OR SWAP1 POP SWAP3 SWAP2 POP POP JUMP JUMPDEST PUSH2 0x14AD DUP3 PUSH2 0x884 JUMP JUMPDEST PUSH8 0xFFFFFFFFFFFFFFFF DUP2 GT ISZERO PUSH2 0x14C6 JUMPI PUSH2 0x14C5 PUSH2 0xD41 JUMP JUMPDEST JUMPDEST PUSH2 0x14D0 DUP3 SLOAD PUSH2 0xC6F JUMP JUMPDEST PUSH2 0x14DB DUP3 DUP3 DUP6 PUSH2 0x141B JUMP JUMPDEST PUSH0 PUSH1 0x20 SWAP1 POP PUSH1 0x1F DUP4 GT PUSH1 0x1 DUP2 EQ PUSH2 0x150C JUMPI PUSH0 DUP5 ISZERO PUSH2 0x14FA JUMPI DUP3 DUP8 ADD MLOAD SWAP1 POP JUMPDEST PUSH2 0x1504 DUP6 DUP3 PUSH2 0x1489 JUMP JUMPDEST DUP7 SSTORE POP PUSH2 0x156B JUMP JUMPDEST PUSH1 0x1F NOT DUP5 AND PUSH2 0x151A DUP7 PUSH2 0x1307 JUMP JUMPDEST PUSH0 JUMPDEST DUP3 DUP2 LT ISZERO PUSH2 0x1541 JUMPI DUP5 DUP10 ADD MLOAD DUP3 SSTORE PUSH1 0x1 DUP3 ADD SWAP2 POP PUSH1 0x20 DUP6 ADD SWAP5 POP PUSH1 0x20 DUP2 ADD SWAP1 POP PUSH2 0x151C JUMP JUMPDEST DUP7 DUP4 LT ISZERO PUSH2 0x155E JUMPI DUP5 DUP10 ADD MLOAD PUSH2 0x155A PUSH1 0x1F DUP10 AND DUP3 PUSH2 0x146D JUMP JUMPDEST DUP4 SSTORE POP JUMPDEST PUSH1 0x1 PUSH1 0x2 DUP9 MUL ADD DUP9 SSTORE POP POP POP JUMPDEST POP POP POP POP POP POP JUMP INVALID LOG2 PUSH5 0x6970667358 0x22 SLT KECCAK256 JUMP DUP11 SWAP3 0xE6 KECCAK256 0xBC 0xC9 0xB1 DIV SAR ADDMOD PUSH9 0x140D3D35AC26A036CB 0xD2 PUSH28 0xB5AB4AEABA7E70105964736F6C634300081800330000000000000000 "
				},
				"gasEstimates": {
					"creation": {
						"codeDepositCost": "1109000",
						"executionCost": "infinite",
						"totalCost": "infinite"
					},
					"external": {
						"addLog(uint256)": "infinite",
						"getLogByKey(uint256)": "infinite",
						"getLogCounter()": "2432",
						"getLogKeys()": "infinite",
						"owner()": "2571"
					}
				},
				"methodIdentifiers": {
					"addLog(uint256)": "3d1fee84",
					"getLogByKey(uint256)": "03e4d77f",
					"getLogCounter()": "28e8be60",
					"getLogKeys()": "8ae0be40",
					"owner()": "8da5cb5b"
				}
			},
			"storageLayout": {
				"storage": [
					{
						"astId": 3,
						"contract": "contracts/LogSmartContract.sol:LogSmartContract",
						"label": "owner",
						"offset": 0,
						"slot": "0",
						"type": "t_address"
					},
					{
						"astId": 346,
						"contract": "contracts/LogSmartContract.sol:LogSmartContract",
						"label": "dataUsageSmartContract",
						"offset": 0,
						"slot": "1",
						"type": "t_contract(DataUsageSmartContract)324"
					},
					{
						"astId": 351,
						"contract": "contracts/LogSmartContract.sol:LogSmartContract",
						"label": "logs",
						"offset": 0,
						"slot": "2",
						"type": "t_mapping(t_uint256,t_struct(Log)343_storage)"
					},
					{
						"astId": 354,
						"contract": "contracts/LogSmartContract.sol:LogSmartContract",
						"label": "logKeys",
						"offset": 0,
						"slot": "3",
						"type": "t_array(t_uint256)dyn_storage"
					},
					{
						"astId": 357,
						"contract": "contracts/LogSmartContract.sol:LogSmartContract",
						"label": "logCounter",
						"offset": 0,
						"slot": "4",
						"type": "t_uint256"
					}
				],
				"types": {
					"t_address": {
						"encoding": "inplace",
						"label": "address",
						"numberOfBytes": "20"
					},
					"t_array(t_bytes32)dyn_storage": {
						"base": "t_bytes32",
						"encoding": "dynamic_array",
						"label": "bytes32[]",
						"numberOfBytes": "32"
					},
					"t_array(t_string_storage)dyn_storage": {
						"base": "t_string_storage",
						"encoding": "dynamic_array",
						"label": "string[]",
						"numberOfBytes": "32"
					},
					"t_array(t_uint256)dyn_storage": {
						"base": "t_uint256",
						"encoding": "dynamic_array",
						"label": "uint256[]",
						"numberOfBytes": "32"
					},
					"t_bytes32": {
						"encoding": "inplace",
						"label": "bytes32",
						"numberOfBytes": "32"
					},
					"t_contract(DataUsageSmartContract)324": {
						"encoding": "inplace",
						"label": "contract DataUsageSmartContract",
						"numberOfBytes": "20"
					},
					"t_mapping(t_uint256,t_struct(Log)343_storage)": {
						"encoding": "mapping",
						"key": "t_uint256",
						"label": "mapping(uint256 => struct LogSmartContract.Log)",
						"numberOfBytes": "32",
						"value": "t_struct(Log)343_storage"
					},
					"t_string_storage": {
						"encoding": "bytes",
						"label": "string",
						"numberOfBytes": "32"
					},
					"t_struct(Log)343_storage": {
						"encoding": "inplace",
						"label": "struct LogSmartContract.Log",
						"members": [
							{
								"astId": 332,
								"contract": "contracts/LogSmartContract.sol:LogSmartContract",
								"label": "dataUsageId",
								"offset": 0,
								"slot": "0",
								"type": "t_uint256"
							},
							{
								"astId": 334,
								"contract": "contracts/LogSmartContract.sol:LogSmartContract",
								"label": "actorId",
								"offset": 0,
								"slot": "1",
								"type": "t_uint256"
							},
							{
								"astId": 337,
								"contract": "contracts/LogSmartContract.sol:LogSmartContract",
								"label": "operations",
								"offset": 0,
								"slot": "2",
								"type": "t_array(t_string_storage)dyn_storage"
							},
							{
								"astId": 339,
								"contract": "contracts/LogSmartContract.sol:LogSmartContract",
								"label": "serviceName",
								"offset": 0,
								"slot": "3",
								"type": "t_bytes32"
							},
							{
								"astId": 342,
								"contract": "contracts/LogSmartContract.sol:LogSmartContract",
								"label": "processedPersonalDatas",
								"offset": 0,
								"slot": "4",
								"type": "t_array(t_bytes32)dyn_storage"
							}
						],
						"numberOfBytes": "160"
					},
					"t_uint256": {
						"encoding": "inplace",
						"label": "uint256",
						"numberOfBytes": "32"
					}
				}
			},
			"userdoc": {
				"kind": "user",
				"methods": {},
				"version": 1
			}
		}
	}
}