{
	"contracts/DataUsageSmartContract.sol": {
		"DataUsageSmartContract": {
			"abi": [
				{
					"inputs": [
						{
							"internalType": "bytes32",
							"name": "_serviceName",
							"type": "bytes32"
						},
						{
							"internalType": "bytes32",
							"name": "_servicePurpose",
							"type": "bytes32"
						},
						{
							"internalType": "uint256",
							"name": "_actorId",
							"type": "uint256"
						},
						{
							"internalType": "string[]",
							"name": "_operations",
							"type": "string[]"
						},
						{
							"internalType": "uint256[]",
							"name": "_personalDataIds",
							"type": "uint256[]"
						}
					],
					"name": "addDataUsage",
					"outputs": [],
					"stateMutability": "nonpayable",
					"type": "function"
				},
				{
					"inputs": [
						{
							"internalType": "uint256",
							"name": "_userId",
							"type": "uint256"
						},
						{
							"internalType": "bytes32",
							"name": "_userName",
							"type": "bytes32"
						},
						{
							"internalType": "bytes32",
							"name": "_userAddress",
							"type": "bytes32"
						},
						{
							"internalType": "bytes32",
							"name": "_userTelephone",
							"type": "bytes32"
						},
						{
							"internalType": "string[]",
							"name": "additionalInfos",
							"type": "string[]"
						}
					],
					"name": "addPersonalData",
					"outputs": [],
					"stateMutability": "nonpayable",
					"type": "function"
				},
				{
					"inputs": [
						{
							"internalType": "uint256",
							"name": "_personalDataId",
							"type": "uint256"
						}
					],
					"name": "addProcessedPersonalData",
					"outputs": [],
					"stateMutability": "nonpayable",
					"type": "function"
				},
				{
					"inputs": [
						{
							"internalType": "uint256",
							"name": "_actorConsentId",
							"type": "uint256"
						}
					],
					"name": "getDataUsageByKey",
					"outputs": [
						{
							"components": [
								{
									"internalType": "bytes32",
									"name": "serviceName",
									"type": "bytes32"
								},
								{
									"internalType": "bytes32",
									"name": "servicePurpose",
									"type": "bytes32"
								},
								{
									"internalType": "uint256",
									"name": "actorId",
									"type": "uint256"
								},
								{
									"internalType": "string[]",
									"name": "operations",
									"type": "string[]"
								},
								{
									"internalType": "uint256[]",
									"name": "personalDataIds",
									"type": "uint256[]"
								},
								{
									"internalType": "bytes32[]",
									"name": "processedPersonalDatas",
									"type": "bytes32[]"
								}
							],
							"internalType": "struct DataUsageSmartContract.DataUsage",
							"name": "",
							"type": "tuple"
						}
					],
					"stateMutability": "view",
					"type": "function"
				},
				{
					"inputs": [],
					"name": "getDataUsageCounter",
					"outputs": [
						{
							"internalType": "uint256",
							"name": "",
							"type": "uint256"
						}
					],
					"stateMutability": "view",
					"type": "function"
				},
				{
					"inputs": [
						{
							"internalType": "uint256",
							"name": "_personalDataId",
							"type": "uint256"
						}
					],
					"name": "getPersonalDataByKey",
					"outputs": [
						{
							"components": [
								{
									"internalType": "uint256",
									"name": "userId",
									"type": "uint256"
								},
								{
									"internalType": "bytes32",
									"name": "userName",
									"type": "bytes32"
								},
								{
									"internalType": "bytes32",
									"name": "userAddress",
									"type": "bytes32"
								},
								{
									"internalType": "bytes32",
									"name": "userTelephone",
									"type": "bytes32"
								},
								{
									"internalType": "string[]",
									"name": "additionalInfos",
									"type": "string[]"
								}
							],
							"internalType": "struct DataUsageSmartContract.PersonalData",
							"name": "",
							"type": "tuple"
						}
					],
					"stateMutability": "view",
					"type": "function"
				},
				{
					"inputs": [],
					"name": "getPersonalDataCounter",
					"outputs": [
						{
							"internalType": "uint256",
							"name": "",
							"type": "uint256"
						}
					],
					"stateMutability": "view",
					"type": "function"
				},
				{
					"inputs": [
						{
							"internalType": "uint256",
							"name": "_personalDataId",
							"type": "uint256"
						}
					],
					"name": "getProcessedPersonalDataByKey",
					"outputs": [
						{
							"internalType": "bytes32",
							"name": "",
							"type": "bytes32"
						}
					],
					"stateMutability": "view",
					"type": "function"
				},
				{
					"inputs": [],
					"name": "owner",
					"outputs": [
						{
							"internalType": "address",
							"name": "",
							"type": "address"
						}
					],
					"stateMutability": "view",
					"type": "function"
				}
			],
			"devdoc": {
				"kind": "dev",
				"methods": {},
				"version": 1
			},
			"evm": {
				"assembly": "    /* \"contracts/DataUsageSmartContract.sol\":94:5532  contract DataUsageSmartContract is AccessControl {... */\n  mstore(0x40, 0x80)\n    /* \"contracts/DataUsageSmartContract.sol\":1267:1268  0 */\n  0x00\n    /* \"contracts/DataUsageSmartContract.sol\":1235:1268  uint private dataUsageCounter = 0 */\n  0x04\n  sstore\n    /* \"contracts/DataUsageSmartContract.sol\":1340:1341  0 */\n  0x00\n    /* \"contracts/DataUsageSmartContract.sol\":1305:1341  uint private personalDataCounter = 0 */\n  0x06\n  sstore\n    /* \"contracts/DataUsageSmartContract.sol\":94:5532  contract DataUsageSmartContract is AccessControl {... */\n  callvalue\n  dup1\n  iszero\n  tag_1\n  jumpi\n  0x00\n  dup1\n  revert\ntag_1:\n  pop\n    /* \"contracts/AccessControl.sol\":145:155  msg.sender */\n  caller\n    /* \"contracts/AccessControl.sol\":137:142  owner */\n  0x00\n  dup1\n    /* \"contracts/AccessControl.sol\":137:155  owner = msg.sender */\n  0x0100\n  exp\n  dup2\n  sload\n  dup2\n  0xffffffffffffffffffffffffffffffffffffffff\n  mul\n  not\n  and\n  swap1\n  dup4\n  0xffffffffffffffffffffffffffffffffffffffff\n  and\n  mul\n  or\n  swap1\n  sstore\n  pop\n    /* \"contracts/DataUsageSmartContract.sol\":94:5532  contract DataUsageSmartContract is AccessControl {... */\n  dataSize(sub_0)\n  dup1\n  dataOffset(sub_0)\n  0x00\n  codecopy\n  0x00\n  return\nstop\n\nsub_0: assembly {\n        /* \"contracts/DataUsageSmartContract.sol\":94:5532  contract DataUsageSmartContract is AccessControl {... */\n      mstore(0x40, 0x80)\n      callvalue\n      dup1\n      iszero\n      tag_1\n      jumpi\n      0x00\n      dup1\n      revert\n    tag_1:\n      pop\n      jumpi(tag_2, lt(calldatasize, 0x04))\n      shr(0xe0, calldataload(0x00))\n      dup1\n      0x8da5cb5b\n      gt\n      tag_12\n      jumpi\n      dup1\n      0x8da5cb5b\n      eq\n      tag_7\n      jumpi\n      dup1\n      0xac7be736\n      eq\n      tag_8\n      jumpi\n      dup1\n      0xb61798f6\n      eq\n      tag_9\n      jumpi\n      dup1\n      0xd2b0649a\n      eq\n      tag_10\n      jumpi\n      dup1\n      0xd8a761d9\n      eq\n      tag_11\n      jumpi\n      jump(tag_2)\n    tag_12:\n      dup1\n      0x1b61fabd\n      eq\n      tag_3\n      jumpi\n      dup1\n      0x3f81de59\n      eq\n      tag_4\n      jumpi\n      dup1\n      0x4b58fbe9\n      eq\n      tag_5\n      jumpi\n      dup1\n      0x682477d7\n      eq\n      tag_6\n      jumpi\n    tag_2:\n      0x00\n      dup1\n      revert\n        /* \"contracts/DataUsageSmartContract.sol\":4127:5181  function addDataUsage(... */\n    tag_3:\n      tag_13\n      0x04\n      dup1\n      calldatasize\n      sub\n      dup2\n      add\n      swap1\n      tag_14\n      swap2\n      swap1\n      tag_15\n      jump\t// in\n    tag_14:\n      tag_16\n      jump\t// in\n    tag_13:\n      stop\n        /* \"contracts/DataUsageSmartContract.sol\":2516:3717  function addProcessedPersonalData(uint _personalDataId) public onlyOwner {... */\n    tag_4:\n      tag_17\n      0x04\n      dup1\n      calldatasize\n      sub\n      dup2\n      add\n      swap1\n      tag_18\n      swap2\n      swap1\n      tag_19\n      jump\t// in\n    tag_18:\n      tag_20\n      jump\t// in\n    tag_17:\n      stop\n        /* \"contracts/DataUsageSmartContract.sol\":2279:2385  function getPersonalDataCounter() public view returns (uint) {... */\n    tag_5:\n      tag_21\n      tag_22\n      jump\t// in\n    tag_21:\n      mload(0x40)\n      tag_23\n      swap2\n      swap1\n      tag_24\n      jump\t// in\n    tag_23:\n      mload(0x40)\n      dup1\n      swap2\n      sub\n      swap1\n      return\n        /* \"contracts/DataUsageSmartContract.sol\":5429:5529  function getDataUsageCounter() public view returns (uint) {... */\n    tag_6:\n      tag_25\n      tag_26\n      jump\t// in\n    tag_25:\n      mload(0x40)\n      tag_27\n      swap2\n      swap1\n      tag_24\n      jump\t// in\n    tag_27:\n      mload(0x40)\n      dup1\n      swap2\n      sub\n      swap1\n      return\n        /* \"contracts/AccessControl.sol\":86:106  address public owner */\n    tag_7:\n      tag_28\n      tag_29\n      jump\t// in\n    tag_28:\n      mload(0x40)\n      tag_30\n      swap2\n      swap1\n      tag_31\n      jump\t// in\n    tag_30:\n      mload(0x40)\n      dup1\n      swap2\n      sub\n      swap1\n      return\n        /* \"contracts/DataUsageSmartContract.sol\":1513:2018  function addPersonalData(... */\n    tag_8:\n      tag_32\n      0x04\n      dup1\n      calldatasize\n      sub\n      dup2\n      add\n      swap1\n      tag_33\n      swap2\n      swap1\n      tag_34\n      jump\t// in\n    tag_33:\n      tag_35\n      jump\t// in\n    tag_32:\n      stop\n        /* \"contracts/DataUsageSmartContract.sol\":3725:4006  function getProcessedPersonalDataByKey(uint _personalDataId) public view returns (bytes32) {... */\n    tag_9:\n      tag_36\n      0x04\n      dup1\n      calldatasize\n      sub\n      dup2\n      add\n      swap1\n      tag_37\n      swap2\n      swap1\n      tag_19\n      jump\t// in\n    tag_37:\n      tag_38\n      jump\t// in\n    tag_36:\n      mload(0x40)\n      tag_39\n      swap2\n      swap1\n      tag_40\n      jump\t// in\n    tag_39:\n      mload(0x40)\n      dup1\n      swap2\n      sub\n      swap1\n      return\n        /* \"contracts/DataUsageSmartContract.sol\":5191:5421  function getDataUsageByKey(uint _actorConsentId) public view returns (DataUsage memory) {... */\n    tag_10:\n      tag_41\n      0x04\n      dup1\n      calldatasize\n      sub\n      dup2\n      add\n      swap1\n      tag_42\n      swap2\n      swap1\n      tag_19\n      jump\t// in\n    tag_42:\n      tag_43\n      jump\t// in\n    tag_41:\n      mload(0x40)\n      tag_44\n      swap2\n      swap1\n      tag_45\n      jump\t// in\n    tag_44:\n      mload(0x40)\n      dup1\n      swap2\n      sub\n      swap1\n      return\n        /* \"contracts/DataUsageSmartContract.sol\":2026:2271  function getPersonalDataByKey(uint _personalDataId) public view returns (PersonalData memory) {... */\n    tag_11:\n      tag_46\n      0x04\n      dup1\n      calldatasize\n      sub\n      dup2\n      add\n      swap1\n      tag_47\n      swap2\n      swap1\n      tag_19\n      jump\t// in\n    tag_47:\n      tag_48\n      jump\t// in\n    tag_46:\n      mload(0x40)\n      tag_49\n      swap2\n      swap1\n      tag_50\n      jump\t// in\n    tag_49:\n      mload(0x40)\n      dup1\n      swap2\n      sub\n      swap1\n      return\n        /* \"contracts/DataUsageSmartContract.sol\":4127:5181  function addDataUsage(... */\n    tag_16:\n        /* \"contracts/AccessControl.sol\":220:225  owner */\n      0x00\n      dup1\n      sload\n      swap1\n      0x0100\n      exp\n      swap1\n      div\n      0xffffffffffffffffffffffffffffffffffffffff\n      and\n        /* \"contracts/AccessControl.sol\":206:225  msg.sender == owner */\n      0xffffffffffffffffffffffffffffffffffffffff\n      and\n        /* \"contracts/AccessControl.sol\":206:216  msg.sender */\n      caller\n        /* \"contracts/AccessControl.sol\":206:225  msg.sender == owner */\n      0xffffffffffffffffffffffffffffffffffffffff\n      and\n      eq\n        /* \"contracts/AccessControl.sol\":198:280  require(msg.sender == owner, \"Only the contract owner can perform this operation\") */\n      tag_52\n      jumpi\n      mload(0x40)\n      0x08c379a000000000000000000000000000000000000000000000000000000000\n      dup2\n      mstore\n      0x04\n      add\n      tag_53\n      swap1\n      tag_54\n      jump\t// in\n    tag_53:\n      mload(0x40)\n      dup1\n      swap2\n      sub\n      swap1\n      revert\n    tag_52:\n        /* \"contracts/DataUsageSmartContract.sol\":4360:4391  bytes32[] memory processedDatas */\n      0x00\n        /* \"contracts/DataUsageSmartContract.sol\":4408:4424  _personalDataIds */\n      dup2\n        /* \"contracts/DataUsageSmartContract.sol\":4408:4431  _personalDataIds.length */\n      mload\n        /* \"contracts/DataUsageSmartContract.sol\":4394:4432  new bytes32[](_personalDataIds.length) */\n      0xffffffffffffffff\n      dup2\n      gt\n      iszero\n      tag_56\n      jumpi\n      tag_57\n      tag_58\n      jump\t// in\n    tag_57:\n    tag_56:\n      mload(0x40)\n      swap1\n      dup1\n      dup3\n      mstore\n      dup1\n      0x20\n      mul\n      0x20\n      add\n      dup3\n      add\n      0x40\n      mstore\n      dup1\n      iszero\n      tag_59\n      jumpi\n      dup2\n      0x20\n      add\n      0x20\n      dup3\n      mul\n      dup1\n      calldatasize\n      dup4\n      calldatacopy\n      dup1\n      dup3\n      add\n      swap2\n      pop\n      pop\n      swap1\n      pop\n    tag_59:\n      pop\n        /* \"contracts/DataUsageSmartContract.sol\":4360:4432  bytes32[] memory processedDatas = new bytes32[](_personalDataIds.length) */\n      swap1\n      pop\n        /* \"contracts/DataUsageSmartContract.sol\":4458:4464  uint i */\n      0x00\n        /* \"contracts/DataUsageSmartContract.sol\":4453:4701  for (uint i = 0; i < _personalDataIds.length; i++) {... */\n    tag_60:\n        /* \"contracts/DataUsageSmartContract.sol\":4474:4490  _personalDataIds */\n      dup3\n        /* \"contracts/DataUsageSmartContract.sol\":4474:4497  _personalDataIds.length */\n      mload\n        /* \"contracts/DataUsageSmartContract.sol\":4470:4471  i */\n      dup2\n        /* \"contracts/DataUsageSmartContract.sol\":4470:4497  i < _personalDataIds.length */\n      lt\n        /* \"contracts/DataUsageSmartContract.sol\":4453:4701  for (uint i = 0; i < _personalDataIds.length; i++) {... */\n      iszero\n      tag_61\n      jumpi\n        /* \"contracts/DataUsageSmartContract.sol\":4639:4689  getProcessedPersonalDataByKey(_personalDataIds[i]) */\n      tag_63\n        /* \"contracts/DataUsageSmartContract.sol\":4669:4685  _personalDataIds */\n      dup4\n        /* \"contracts/DataUsageSmartContract.sol\":4686:4687  i */\n      dup3\n        /* \"contracts/DataUsageSmartContract.sol\":4669:4688  _personalDataIds[i] */\n      dup2\n      mload\n      dup2\n      lt\n      tag_64\n      jumpi\n      tag_65\n      tag_66\n      jump\t// in\n    tag_65:\n    tag_64:\n      0x20\n      mul\n      0x20\n      add\n      add\n      mload\n        /* \"contracts/DataUsageSmartContract.sol\":4639:4668  getProcessedPersonalDataByKey */\n      tag_38\n        /* \"contracts/DataUsageSmartContract.sol\":4639:4689  getProcessedPersonalDataByKey(_personalDataIds[i]) */\n      jump\t// in\n    tag_63:\n        /* \"contracts/DataUsageSmartContract.sol\":4619:4633  processedDatas */\n      dup3\n        /* \"contracts/DataUsageSmartContract.sol\":4634:4635  i */\n      dup3\n        /* \"contracts/DataUsageSmartContract.sol\":4619:4636  processedDatas[i] */\n      dup2\n      mload\n      dup2\n      lt\n      tag_67\n      jumpi\n      tag_68\n      tag_66\n      jump\t// in\n    tag_68:\n    tag_67:\n      0x20\n      mul\n      0x20\n      add\n      add\n        /* \"contracts/DataUsageSmartContract.sol\":4619:4689  processedDatas[i] = getProcessedPersonalDataByKey(_personalDataIds[i]) */\n      dup2\n      dup2\n      mstore\n      pop\n      pop\n        /* \"contracts/DataUsageSmartContract.sol\":4499:4502  i++ */\n      dup1\n      dup1\n      0x01\n      add\n      swap2\n      pop\n      pop\n        /* \"contracts/DataUsageSmartContract.sol\":4453:4701  for (uint i = 0; i < _personalDataIds.length; i++) {... */\n      jump(tag_60)\n    tag_61:\n      pop\n        /* \"contracts/DataUsageSmartContract.sol\":4811:5090  DataUsage({... */\n      mload(0x40)\n      dup1\n      0xc0\n      add\n      0x40\n      mstore\n      dup1\n        /* \"contracts/DataUsageSmartContract.sol\":4849:4861  _serviceName */\n      dup8\n        /* \"contracts/DataUsageSmartContract.sol\":4811:5090  DataUsage({... */\n      dup2\n      mstore\n      0x20\n      add\n        /* \"contracts/DataUsageSmartContract.sol\":4892:4907  _servicePurpose */\n      dup7\n        /* \"contracts/DataUsageSmartContract.sol\":4811:5090  DataUsage({... */\n      dup2\n      mstore\n      0x20\n      add\n        /* \"contracts/DataUsageSmartContract.sol\":4931:4939  _actorId */\n      dup6\n        /* \"contracts/DataUsageSmartContract.sol\":4811:5090  DataUsage({... */\n      dup2\n      mstore\n      0x20\n      add\n        /* \"contracts/DataUsageSmartContract.sol\":4966:4977  _operations */\n      dup5\n        /* \"contracts/DataUsageSmartContract.sol\":4811:5090  DataUsage({... */\n      dup2\n      mstore\n      0x20\n      add\n        /* \"contracts/DataUsageSmartContract.sol\":5009:5025  _personalDataIds */\n      dup4\n        /* \"contracts/DataUsageSmartContract.sol\":4811:5090  DataUsage({... */\n      dup2\n      mstore\n      0x20\n      add\n        /* \"contracts/DataUsageSmartContract.sol\":5064:5078  processedDatas */\n      dup3\n        /* \"contracts/DataUsageSmartContract.sol\":4811:5090  DataUsage({... */\n      dup2\n      mstore\n      pop\n        /* \"contracts/DataUsageSmartContract.sol\":4788:4798  dataUsages */\n      0x01\n        /* \"contracts/DataUsageSmartContract.sol\":4788:4808  dataUsages[_actorId] */\n      0x00\n        /* \"contracts/DataUsageSmartContract.sol\":4799:4807  _actorId */\n      dup7\n        /* \"contracts/DataUsageSmartContract.sol\":4788:4808  dataUsages[_actorId] */\n      dup2\n      mstore\n      0x20\n      add\n      swap1\n      dup2\n      mstore\n      0x20\n      add\n      0x00\n      keccak256\n        /* \"contracts/DataUsageSmartContract.sol\":4788:5090  dataUsages[_actorId] = DataUsage({... */\n      0x00\n      dup3\n      add\n      mload\n      dup2\n      0x00\n      add\n      sstore\n      0x20\n      dup3\n      add\n      mload\n      dup2\n      0x01\n      add\n      sstore\n      0x40\n      dup3\n      add\n      mload\n      dup2\n      0x02\n      add\n      sstore\n      0x60\n      dup3\n      add\n      mload\n      dup2\n      0x03\n      add\n      swap1\n      dup1\n      mload\n      swap1\n      0x20\n      add\n      swap1\n      tag_69\n      swap3\n      swap2\n      swap1\n      tag_70\n      jump\t// in\n    tag_69:\n      pop\n      0x80\n      dup3\n      add\n      mload\n      dup2\n      0x04\n      add\n      swap1\n      dup1\n      mload\n      swap1\n      0x20\n      add\n      swap1\n      tag_71\n      swap3\n      swap2\n      swap1\n      tag_72\n      jump\t// in\n    tag_71:\n      pop\n      0xa0\n      dup3\n      add\n      mload\n      dup2\n      0x05\n      add\n      swap1\n      dup1\n      mload\n      swap1\n      0x20\n      add\n      swap1\n      tag_73\n      swap3\n      swap2\n      swap1\n      tag_74\n      jump\t// in\n    tag_73:\n      pop\n      swap1\n      pop\n      pop\n        /* \"contracts/DataUsageSmartContract.sol\":5153:5169  dataUsageCounter */\n      0x04\n      0x00\n        /* \"contracts/DataUsageSmartContract.sol\":5153:5171  dataUsageCounter++ */\n      dup2\n      sload\n      dup1\n      swap3\n      swap2\n      swap1\n      tag_75\n      swap1\n      tag_76\n      jump\t// in\n    tag_75:\n      swap2\n      swap1\n      pop\n      sstore\n      pop\n        /* \"contracts/DataUsageSmartContract.sol\":4341:5181  {... */\n      pop\n        /* \"contracts/DataUsageSmartContract.sol\":4127:5181  function addDataUsage(... */\n      pop\n      pop\n      pop\n      pop\n      pop\n      jump\t// out\n        /* \"contracts/DataUsageSmartContract.sol\":2516:3717  function addProcessedPersonalData(uint _personalDataId) public onlyOwner {... */\n    tag_20:\n        /* \"contracts/AccessControl.sol\":220:225  owner */\n      0x00\n      dup1\n      sload\n      swap1\n      0x0100\n      exp\n      swap1\n      div\n      0xffffffffffffffffffffffffffffffffffffffff\n      and\n        /* \"contracts/AccessControl.sol\":206:225  msg.sender == owner */\n      0xffffffffffffffffffffffffffffffffffffffff\n      and\n        /* \"contracts/AccessControl.sol\":206:216  msg.sender */\n      caller\n        /* \"contracts/AccessControl.sol\":206:225  msg.sender == owner */\n      0xffffffffffffffffffffffffffffffffffffffff\n      and\n      eq\n        /* \"contracts/AccessControl.sol\":198:280  require(msg.sender == owner, \"Only the contract owner can perform this operation\") */\n      tag_78\n      jumpi\n      mload(0x40)\n      0x08c379a000000000000000000000000000000000000000000000000000000000\n      dup2\n      mstore\n      0x04\n      add\n      tag_79\n      swap1\n      tag_54\n      jump\t// in\n    tag_79:\n      mload(0x40)\n      dup1\n      swap2\n      sub\n      swap1\n      revert\n    tag_78:\n        /* \"contracts/DataUsageSmartContract.sol\":2785:2818  PersonalData storage personalData */\n      0x00\n        /* \"contracts/DataUsageSmartContract.sol\":2821:2834  personalDatas */\n      0x02\n        /* \"contracts/DataUsageSmartContract.sol\":2821:2851  personalDatas[_personalDataId] */\n      0x00\n        /* \"contracts/DataUsageSmartContract.sol\":2835:2850  _personalDataId */\n      dup4\n        /* \"contracts/DataUsageSmartContract.sol\":2821:2851  personalDatas[_personalDataId] */\n      dup2\n      mstore\n      0x20\n      add\n      swap1\n      dup2\n      mstore\n      0x20\n      add\n      0x00\n      keccak256\n        /* \"contracts/DataUsageSmartContract.sol\":2785:2851  PersonalData storage personalData = personalDatas[_personalDataId] */\n      swap1\n      pop\n        /* \"contracts/DataUsageSmartContract.sol\":2942:2965  bytes memory dataToHash */\n      0x60\n        /* \"contracts/DataUsageSmartContract.sol\":3064:3076  personalData */\n      dup2\n        /* \"contracts/DataUsageSmartContract.sol\":3064:3085  personalData.userName */\n      0x01\n      add\n      sload\n        /* \"contracts/DataUsageSmartContract.sol\":3100:3112  personalData */\n      dup3\n        /* \"contracts/DataUsageSmartContract.sol\":3100:3124  personalData.userAddress */\n      0x02\n      add\n      sload\n        /* \"contracts/DataUsageSmartContract.sol\":3139:3151  personalData */\n      dup4\n        /* \"contracts/DataUsageSmartContract.sol\":3139:3165  personalData.userTelephone */\n      0x03\n      add\n      sload\n        /* \"contracts/DataUsageSmartContract.sol\":3033:3176  abi.encodePacked(... */\n      add(0x20, mload(0x40))\n      tag_81\n      swap4\n      swap3\n      swap2\n      swap1\n      tag_82\n      jump\t// in\n    tag_81:\n      mload(0x40)\n      0x20\n      dup2\n      dup4\n      sub\n      sub\n      dup2\n      mstore\n      swap1\n      0x40\n      mstore\n        /* \"contracts/DataUsageSmartContract.sol\":3020:3176  dataToHash = abi.encodePacked(... */\n      swap1\n      pop\n        /* \"contracts/DataUsageSmartContract.sol\":3278:3284  uint i */\n      0x00\n        /* \"contracts/DataUsageSmartContract.sol\":3273:3437  for (uint i = 0; i < personalData.additionalInfos.length; i++) {... */\n    tag_83:\n        /* \"contracts/DataUsageSmartContract.sol\":3294:3306  personalData */\n      dup3\n        /* \"contracts/DataUsageSmartContract.sol\":3294:3322  personalData.additionalInfos */\n      0x04\n      add\n        /* \"contracts/DataUsageSmartContract.sol\":3294:3329  personalData.additionalInfos.length */\n      dup1\n      sload\n      swap1\n      pop\n        /* \"contracts/DataUsageSmartContract.sol\":3290:3291  i */\n      dup2\n        /* \"contracts/DataUsageSmartContract.sol\":3290:3329  i < personalData.additionalInfos.length */\n      lt\n        /* \"contracts/DataUsageSmartContract.sol\":3273:3437  for (uint i = 0; i < personalData.additionalInfos.length; i++) {... */\n      iszero\n      tag_84\n      jumpi\n        /* \"contracts/DataUsageSmartContract.sol\":3381:3391  dataToHash */\n      dup2\n        /* \"contracts/DataUsageSmartContract.sol\":3393:3405  personalData */\n      dup4\n        /* \"contracts/DataUsageSmartContract.sol\":3393:3421  personalData.additionalInfos */\n      0x04\n      add\n        /* \"contracts/DataUsageSmartContract.sol\":3422:3423  i */\n      dup3\n        /* \"contracts/DataUsageSmartContract.sol\":3393:3424  personalData.additionalInfos[i] */\n      dup2\n      sload\n      dup2\n      lt\n      tag_86\n      jumpi\n      tag_87\n      tag_66\n      jump\t// in\n    tag_87:\n    tag_86:\n      swap1\n      0x00\n      mstore\n      keccak256(0x00, 0x20)\n      add\n        /* \"contracts/DataUsageSmartContract.sol\":3364:3425  abi.encodePacked(dataToHash, personalData.additionalInfos[i]) */\n      add(0x20, mload(0x40))\n      tag_89\n      swap3\n      swap2\n      swap1\n      tag_90\n      jump\t// in\n    tag_89:\n      mload(0x40)\n      0x20\n      dup2\n      dup4\n      sub\n      sub\n      dup2\n      mstore\n      swap1\n      0x40\n      mstore\n        /* \"contracts/DataUsageSmartContract.sol\":3351:3425  dataToHash = abi.encodePacked(dataToHash, personalData.additionalInfos[i]) */\n      swap2\n      pop\n        /* \"contracts/DataUsageSmartContract.sol\":3331:3334  i++ */\n      dup1\n      dup1\n      0x01\n      add\n      swap2\n      pop\n      pop\n        /* \"contracts/DataUsageSmartContract.sol\":3273:3437  for (uint i = 0; i < personalData.additionalInfos.length; i++) {... */\n      jump(tag_83)\n    tag_84:\n      pop\n        /* \"contracts/DataUsageSmartContract.sol\":3505:3534  bytes32 processedPersonalData */\n      0x00\n        /* \"contracts/DataUsageSmartContract.sol\":3547:3557  dataToHash */\n      dup2\n        /* \"contracts/DataUsageSmartContract.sol\":3537:3558  keccak256(dataToHash) */\n      dup1\n      mload\n      swap1\n      0x20\n      add\n      keccak256\n        /* \"contracts/DataUsageSmartContract.sol\":3505:3558  bytes32 processedPersonalData = keccak256(dataToHash) */\n      swap1\n      pop\n        /* \"contracts/DataUsageSmartContract.sol\":3685:3706  processedPersonalData */\n      dup1\n        /* \"contracts/DataUsageSmartContract.sol\":3643:3665  processedPersonalDatas */\n      0x03\n        /* \"contracts/DataUsageSmartContract.sol\":3643:3682  processedPersonalDatas[_personalDataId] */\n      0x00\n        /* \"contracts/DataUsageSmartContract.sol\":3666:3681  _personalDataId */\n      dup7\n        /* \"contracts/DataUsageSmartContract.sol\":3643:3682  processedPersonalDatas[_personalDataId] */\n      dup2\n      mstore\n      0x20\n      add\n      swap1\n      dup2\n      mstore\n      0x20\n      add\n      0x00\n      keccak256\n        /* \"contracts/DataUsageSmartContract.sol\":3643:3706  processedPersonalDatas[_personalDataId] = processedPersonalData */\n      dup2\n      swap1\n      sstore\n      pop\n        /* \"contracts/DataUsageSmartContract.sol\":2589:3717  {... */\n      pop\n      pop\n      pop\n        /* \"contracts/DataUsageSmartContract.sol\":2516:3717  function addProcessedPersonalData(uint _personalDataId) public onlyOwner {... */\n      pop\n      jump\t// out\n        /* \"contracts/DataUsageSmartContract.sol\":2279:2385  function getPersonalDataCounter() public view returns (uint) {... */\n    tag_22:\n        /* \"contracts/DataUsageSmartContract.sol\":2334:2338  uint */\n      0x00\n        /* \"contracts/DataUsageSmartContract.sol\":2358:2377  personalDataCounter */\n      sload(0x06)\n        /* \"contracts/DataUsageSmartContract.sol\":2351:2377  return personalDataCounter */\n      swap1\n      pop\n        /* \"contracts/DataUsageSmartContract.sol\":2279:2385  function getPersonalDataCounter() public view returns (uint) {... */\n      swap1\n      jump\t// out\n        /* \"contracts/DataUsageSmartContract.sol\":5429:5529  function getDataUsageCounter() public view returns (uint) {... */\n    tag_26:\n        /* \"contracts/DataUsageSmartContract.sol\":5481:5485  uint */\n      0x00\n        /* \"contracts/DataUsageSmartContract.sol\":5505:5521  dataUsageCounter */\n      sload(0x04)\n        /* \"contracts/DataUsageSmartContract.sol\":5498:5521  return dataUsageCounter */\n      swap1\n      pop\n        /* \"contracts/DataUsageSmartContract.sol\":5429:5529  function getDataUsageCounter() public view returns (uint) {... */\n      swap1\n      jump\t// out\n        /* \"contracts/AccessControl.sol\":86:106  address public owner */\n    tag_29:\n      0x00\n      dup1\n      sload\n      swap1\n      0x0100\n      exp\n      swap1\n      div\n      0xffffffffffffffffffffffffffffffffffffffff\n      and\n      dup2\n      jump\t// out\n        /* \"contracts/DataUsageSmartContract.sol\":1513:2018  function addPersonalData(... */\n    tag_35:\n        /* \"contracts/AccessControl.sol\":220:225  owner */\n      0x00\n      dup1\n      sload\n      swap1\n      0x0100\n      exp\n      swap1\n      div\n      0xffffffffffffffffffffffffffffffffffffffff\n      and\n        /* \"contracts/AccessControl.sol\":206:225  msg.sender == owner */\n      0xffffffffffffffffffffffffffffffffffffffff\n      and\n        /* \"contracts/AccessControl.sol\":206:216  msg.sender */\n      caller\n        /* \"contracts/AccessControl.sol\":206:225  msg.sender == owner */\n      0xffffffffffffffffffffffffffffffffffffffff\n      and\n      eq\n        /* \"contracts/AccessControl.sol\":198:280  require(msg.sender == owner, \"Only the contract owner can perform this operation\") */\n      tag_94\n      jumpi\n      mload(0x40)\n      0x08c379a000000000000000000000000000000000000000000000000000000000\n      dup2\n      mstore\n      0x04\n      add\n      tag_95\n      swap1\n      tag_54\n      jump\t// in\n    tag_95:\n      mload(0x40)\n      dup1\n      swap2\n      sub\n      swap1\n      revert\n    tag_94:\n        /* \"contracts/DataUsageSmartContract.sol\":1758:1978  PersonalData({... */\n      mload(0x40)\n      dup1\n      0xa0\n      add\n      0x40\n      mstore\n      dup1\n        /* \"contracts/DataUsageSmartContract.sol\":1794:1801  _userId */\n      dup7\n        /* \"contracts/DataUsageSmartContract.sol\":1758:1978  PersonalData({... */\n      dup2\n      mstore\n      0x20\n      add\n        /* \"contracts/DataUsageSmartContract.sol\":1826:1835  _userName */\n      dup6\n        /* \"contracts/DataUsageSmartContract.sol\":1758:1978  PersonalData({... */\n      dup2\n      mstore\n      0x20\n      add\n        /* \"contracts/DataUsageSmartContract.sol\":1863:1875  _userAddress */\n      dup5\n        /* \"contracts/DataUsageSmartContract.sol\":1758:1978  PersonalData({... */\n      dup2\n      mstore\n      0x20\n      add\n        /* \"contracts/DataUsageSmartContract.sol\":1905:1919  _userTelephone */\n      dup4\n        /* \"contracts/DataUsageSmartContract.sol\":1758:1978  PersonalData({... */\n      dup2\n      mstore\n      0x20\n      add\n        /* \"contracts/DataUsageSmartContract.sol\":1951:1966  additionalInfos */\n      dup3\n        /* \"contracts/DataUsageSmartContract.sol\":1758:1978  PersonalData({... */\n      dup2\n      mstore\n      pop\n        /* \"contracts/DataUsageSmartContract.sol\":1733:1746  personalDatas */\n      0x02\n        /* \"contracts/DataUsageSmartContract.sol\":1733:1755  personalDatas[_userId] */\n      0x00\n        /* \"contracts/DataUsageSmartContract.sol\":1747:1754  _userId */\n      dup8\n        /* \"contracts/DataUsageSmartContract.sol\":1733:1755  personalDatas[_userId] */\n      dup2\n      mstore\n      0x20\n      add\n      swap1\n      dup2\n      mstore\n      0x20\n      add\n      0x00\n      keccak256\n        /* \"contracts/DataUsageSmartContract.sol\":1733:1978  personalDatas[_userId] = PersonalData({... */\n      0x00\n      dup3\n      add\n      mload\n      dup2\n      0x00\n      add\n      sstore\n      0x20\n      dup3\n      add\n      mload\n      dup2\n      0x01\n      add\n      sstore\n      0x40\n      dup3\n      add\n      mload\n      dup2\n      0x02\n      add\n      sstore\n      0x60\n      dup3\n      add\n      mload\n      dup2\n      0x03\n      add\n      sstore\n      0x80\n      dup3\n      add\n      mload\n      dup2\n      0x04\n      add\n      swap1\n      dup1\n      mload\n      swap1\n      0x20\n      add\n      swap1\n      tag_97\n      swap3\n      swap2\n      swap1\n      tag_70\n      jump\t// in\n    tag_97:\n      pop\n      swap1\n      pop\n      pop\n        /* \"contracts/DataUsageSmartContract.sol\":1989:2008  personalDataCounter */\n      0x06\n      0x00\n        /* \"contracts/DataUsageSmartContract.sol\":1989:2010  personalDataCounter++ */\n      dup2\n      sload\n      dup1\n      swap3\n      swap2\n      swap1\n      tag_98\n      swap1\n      tag_76\n      jump\t// in\n    tag_98:\n      swap2\n      swap1\n      pop\n      sstore\n      pop\n        /* \"contracts/DataUsageSmartContract.sol\":1513:2018  function addPersonalData(... */\n      pop\n      pop\n      pop\n      pop\n      pop\n      jump\t// out\n        /* \"contracts/DataUsageSmartContract.sol\":3725:4006  function getProcessedPersonalDataByKey(uint _personalDataId) public view returns (bytes32) {... */\n    tag_38:\n        /* \"contracts/DataUsageSmartContract.sol\":3807:3814  bytes32 */\n      0x00\n        /* \"contracts/DataUsageSmartContract.sol\":3959:3981  processedPersonalDatas */\n      0x03\n        /* \"contracts/DataUsageSmartContract.sol\":3959:3998  processedPersonalDatas[_personalDataId] */\n      0x00\n        /* \"contracts/DataUsageSmartContract.sol\":3982:3997  _personalDataId */\n      dup4\n        /* \"contracts/DataUsageSmartContract.sol\":3959:3998  processedPersonalDatas[_personalDataId] */\n      dup2\n      mstore\n      0x20\n      add\n      swap1\n      dup2\n      mstore\n      0x20\n      add\n      0x00\n      keccak256\n      sload\n        /* \"contracts/DataUsageSmartContract.sol\":3952:3998  return processedPersonalDatas[_personalDataId] */\n      swap1\n      pop\n        /* \"contracts/DataUsageSmartContract.sol\":3725:4006  function getProcessedPersonalDataByKey(uint _personalDataId) public view returns (bytes32) {... */\n      swap2\n      swap1\n      pop\n      jump\t// out\n        /* \"contracts/DataUsageSmartContract.sol\":5191:5421  function getDataUsageByKey(uint _actorConsentId) public view returns (DataUsage memory) {... */\n    tag_43:\n        /* \"contracts/DataUsageSmartContract.sol\":5261:5277  DataUsage memory */\n      tag_100\n      tag_101\n      jump\t// in\n    tag_100:\n        /* \"contracts/DataUsageSmartContract.sol\":5337:5338  0 */\n      0x00\n        /* \"contracts/DataUsageSmartContract.sol\":5298:5308  dataUsages */\n      0x01\n        /* \"contracts/DataUsageSmartContract.sol\":5298:5325  dataUsages[_actorConsentId] */\n      0x00\n        /* \"contracts/DataUsageSmartContract.sol\":5309:5324  _actorConsentId */\n      dup5\n        /* \"contracts/DataUsageSmartContract.sol\":5298:5325  dataUsages[_actorConsentId] */\n      dup2\n      mstore\n      0x20\n      add\n      swap1\n      dup2\n      mstore\n      0x20\n      add\n      0x00\n      keccak256\n        /* \"contracts/DataUsageSmartContract.sol\":5298:5333  dataUsages[_actorConsentId].actorId */\n      0x02\n      add\n      sload\n        /* \"contracts/DataUsageSmartContract.sol\":5298:5338  dataUsages[_actorConsentId].actorId != 0 */\n      sub\n        /* \"contracts/DataUsageSmartContract.sol\":5290:5368  require(dataUsages[_actorConsentId].actorId != 0, \"Data User does not exist.\") */\n      tag_103\n      jumpi\n      mload(0x40)\n      0x08c379a000000000000000000000000000000000000000000000000000000000\n      dup2\n      mstore\n      0x04\n      add\n      tag_104\n      swap1\n      tag_105\n      jump\t// in\n    tag_104:\n      mload(0x40)\n      dup1\n      swap2\n      sub\n      swap1\n      revert\n    tag_103:\n        /* \"contracts/DataUsageSmartContract.sol\":5386:5396  dataUsages */\n      0x01\n        /* \"contracts/DataUsageSmartContract.sol\":5386:5413  dataUsages[_actorConsentId] */\n      0x00\n        /* \"contracts/DataUsageSmartContract.sol\":5397:5412  _actorConsentId */\n      dup4\n        /* \"contracts/DataUsageSmartContract.sol\":5386:5413  dataUsages[_actorConsentId] */\n      dup2\n      mstore\n      0x20\n      add\n      swap1\n      dup2\n      mstore\n      0x20\n      add\n      0x00\n      keccak256\n        /* \"contracts/DataUsageSmartContract.sol\":5379:5413  return dataUsages[_actorConsentId] */\n      mload(0x40)\n      dup1\n      0xc0\n      add\n      0x40\n      mstore\n      swap1\n      dup2\n      0x00\n      dup3\n      add\n      sload\n      dup2\n      mstore\n      0x20\n      add\n      0x01\n      dup3\n      add\n      sload\n      dup2\n      mstore\n      0x20\n      add\n      0x02\n      dup3\n      add\n      sload\n      dup2\n      mstore\n      0x20\n      add\n      0x03\n      dup3\n      add\n      dup1\n      sload\n      dup1\n      0x20\n      mul\n      0x20\n      add\n      mload(0x40)\n      swap1\n      dup2\n      add\n      0x40\n      mstore\n      dup1\n      swap3\n      swap2\n      swap1\n      dup2\n      dup2\n      mstore\n      0x20\n      add\n      0x00\n      swap1\n    tag_106:\n      dup3\n      dup3\n      lt\n      iszero\n      tag_107\n      jumpi\n      dup4\n      dup3\n      swap1\n      0x00\n      mstore\n      keccak256(0x00, 0x20)\n      add\n      dup1\n      sload\n      tag_109\n      swap1\n      tag_110\n      jump\t// in\n    tag_109:\n      dup1\n      0x1f\n      add\n      0x20\n      dup1\n      swap2\n      div\n      mul\n      0x20\n      add\n      mload(0x40)\n      swap1\n      dup2\n      add\n      0x40\n      mstore\n      dup1\n      swap3\n      swap2\n      swap1\n      dup2\n      dup2\n      mstore\n      0x20\n      add\n      dup3\n      dup1\n      sload\n      tag_111\n      swap1\n      tag_110\n      jump\t// in\n    tag_111:\n      dup1\n      iszero\n      tag_112\n      jumpi\n      dup1\n      0x1f\n      lt\n      tag_113\n      jumpi\n      0x0100\n      dup1\n      dup4\n      sload\n      div\n      mul\n      dup4\n      mstore\n      swap2\n      0x20\n      add\n      swap2\n      jump(tag_112)\n    tag_113:\n      dup3\n      add\n      swap2\n      swap1\n      0x00\n      mstore\n      keccak256(0x00, 0x20)\n      swap1\n    tag_114:\n      dup2\n      sload\n      dup2\n      mstore\n      swap1\n      0x01\n      add\n      swap1\n      0x20\n      add\n      dup1\n      dup4\n      gt\n      tag_114\n      jumpi\n      dup3\n      swap1\n      sub\n      0x1f\n      and\n      dup3\n      add\n      swap2\n    tag_112:\n      pop\n      pop\n      pop\n      pop\n      pop\n      dup2\n      mstore\n      0x20\n      add\n      swap1\n      0x01\n      add\n      swap1\n      jump(tag_106)\n    tag_107:\n      pop\n      pop\n      pop\n      pop\n      dup2\n      mstore\n      0x20\n      add\n      0x04\n      dup3\n      add\n      dup1\n      sload\n      dup1\n      0x20\n      mul\n      0x20\n      add\n      mload(0x40)\n      swap1\n      dup2\n      add\n      0x40\n      mstore\n      dup1\n      swap3\n      swap2\n      swap1\n      dup2\n      dup2\n      mstore\n      0x20\n      add\n      dup3\n      dup1\n      sload\n      dup1\n      iszero\n      tag_115\n      jumpi\n      0x20\n      mul\n      dup3\n      add\n      swap2\n      swap1\n      0x00\n      mstore\n      keccak256(0x00, 0x20)\n      swap1\n    tag_116:\n      dup2\n      sload\n      dup2\n      mstore\n      0x20\n      add\n      swap1\n      0x01\n      add\n      swap1\n      dup1\n      dup4\n      gt\n      tag_116\n      jumpi\n    tag_115:\n      pop\n      pop\n      pop\n      pop\n      pop\n      dup2\n      mstore\n      0x20\n      add\n      0x05\n      dup3\n      add\n      dup1\n      sload\n      dup1\n      0x20\n      mul\n      0x20\n      add\n      mload(0x40)\n      swap1\n      dup2\n      add\n      0x40\n      mstore\n      dup1\n      swap3\n      swap2\n      swap1\n      dup2\n      dup2\n      mstore\n      0x20\n      add\n      dup3\n      dup1\n      sload\n      dup1\n      iszero\n      tag_117\n      jumpi\n      0x20\n      mul\n      dup3\n      add\n      swap2\n      swap1\n      0x00\n      mstore\n      keccak256(0x00, 0x20)\n      swap1\n    tag_118:\n      dup2\n      sload\n      dup2\n      mstore\n      0x20\n      add\n      swap1\n      0x01\n      add\n      swap1\n      dup1\n      dup4\n      gt\n      tag_118\n      jumpi\n    tag_117:\n      pop\n      pop\n      pop\n      pop\n      pop\n      dup2\n      mstore\n      pop\n      pop\n      swap1\n      pop\n        /* \"contracts/DataUsageSmartContract.sol\":5191:5421  function getDataUsageByKey(uint _actorConsentId) public view returns (DataUsage memory) {... */\n      swap2\n      swap1\n      pop\n      jump\t// out\n        /* \"contracts/DataUsageSmartContract.sol\":2026:2271  function getPersonalDataByKey(uint _personalDataId) public view returns (PersonalData memory) {... */\n    tag_48:\n        /* \"contracts/DataUsageSmartContract.sol\":2099:2118  PersonalData memory */\n      tag_119\n      tag_120\n      jump\t// in\n    tag_119:\n        /* \"contracts/DataUsageSmartContract.sol\":2181:2182  0 */\n      0x00\n        /* \"contracts/DataUsageSmartContract.sol\":2140:2153  personalDatas */\n      0x02\n        /* \"contracts/DataUsageSmartContract.sol\":2140:2170  personalDatas[_personalDataId] */\n      0x00\n        /* \"contracts/DataUsageSmartContract.sol\":2154:2169  _personalDataId */\n      dup5\n        /* \"contracts/DataUsageSmartContract.sol\":2140:2170  personalDatas[_personalDataId] */\n      dup2\n      mstore\n      0x20\n      add\n      swap1\n      dup2\n      mstore\n      0x20\n      add\n      0x00\n      keccak256\n        /* \"contracts/DataUsageSmartContract.sol\":2140:2177  personalDatas[_personalDataId].userId */\n      0x00\n      add\n      sload\n        /* \"contracts/DataUsageSmartContract.sol\":2140:2182  personalDatas[_personalDataId].userId != 0 */\n      sub\n        /* \"contracts/DataUsageSmartContract.sol\":2132:2215  require(personalDatas[_personalDataId].userId != 0, \"PersonalData does not exist.\") */\n      tag_122\n      jumpi\n      mload(0x40)\n      0x08c379a000000000000000000000000000000000000000000000000000000000\n      dup2\n      mstore\n      0x04\n      add\n      tag_123\n      swap1\n      tag_124\n      jump\t// in\n    tag_123:\n      mload(0x40)\n      dup1\n      swap2\n      sub\n      swap1\n      revert\n    tag_122:\n        /* \"contracts/DataUsageSmartContract.sol\":2233:2246  personalDatas */\n      0x02\n        /* \"contracts/DataUsageSmartContract.sol\":2233:2263  personalDatas[_personalDataId] */\n      0x00\n        /* \"contracts/DataUsageSmartContract.sol\":2247:2262  _personalDataId */\n      dup4\n        /* \"contracts/DataUsageSmartContract.sol\":2233:2263  personalDatas[_personalDataId] */\n      dup2\n      mstore\n      0x20\n      add\n      swap1\n      dup2\n      mstore\n      0x20\n      add\n      0x00\n      keccak256\n        /* \"contracts/DataUsageSmartContract.sol\":2226:2263  return personalDatas[_personalDataId] */\n      mload(0x40)\n      dup1\n      0xa0\n      add\n      0x40\n      mstore\n      swap1\n      dup2\n      0x00\n      dup3\n      add\n      sload\n      dup2\n      mstore\n      0x20\n      add\n      0x01\n      dup3\n      add\n      sload\n      dup2\n      mstore\n      0x20\n      add\n      0x02\n      dup3\n      add\n      sload\n      dup2\n      mstore\n      0x20\n      add\n      0x03\n      dup3\n      add\n      sload\n      dup2\n      mstore\n      0x20\n      add\n      0x04\n      dup3\n      add\n      dup1\n      sload\n      dup1\n      0x20\n      mul\n      0x20\n      add\n      mload(0x40)\n      swap1\n      dup2\n      add\n      0x40\n      mstore\n      dup1\n      swap3\n      swap2\n      swap1\n      dup2\n      dup2\n      mstore\n      0x20\n      add\n      0x00\n      swap1\n    tag_125:\n      dup3\n      dup3\n      lt\n      iszero\n      tag_126\n      jumpi\n      dup4\n      dup3\n      swap1\n      0x00\n      mstore\n      keccak256(0x00, 0x20)\n      add\n      dup1\n      sload\n      tag_128\n      swap1\n      tag_110\n      jump\t// in\n    tag_128:\n      dup1\n      0x1f\n      add\n      0x20\n      dup1\n      swap2\n      div\n      mul\n      0x20\n      add\n      mload(0x40)\n      swap1\n      dup2\n      add\n      0x40\n      mstore\n      dup1\n      swap3\n      swap2\n      swap1\n      dup2\n      dup2\n      mstore\n      0x20\n      add\n      dup3\n      dup1\n      sload\n      tag_129\n      swap1\n      tag_110\n      jump\t// in\n    tag_129:\n      dup1\n      iszero\n      tag_130\n      jumpi\n      dup1\n      0x1f\n      lt\n      tag_131\n      jumpi\n      0x0100\n      dup1\n      dup4\n      sload\n      div\n      mul\n      dup4\n      mstore\n      swap2\n      0x20\n      add\n      swap2\n      jump(tag_130)\n    tag_131:\n      dup3\n      add\n      swap2\n      swap1\n      0x00\n      mstore\n      keccak256(0x00, 0x20)\n      swap1\n    tag_132:\n      dup2\n      sload\n      dup2\n      mstore\n      swap1\n      0x01\n      add\n      swap1\n      0x20\n      add\n      dup1\n      dup4\n      gt\n      tag_132\n      jumpi\n      dup3\n      swap1\n      sub\n      0x1f\n      and\n      dup3\n      add\n      swap2\n    tag_130:\n      pop\n      pop\n      pop\n      pop\n      pop\n      dup2\n      mstore\n      0x20\n      add\n      swap1\n      0x01\n      add\n      swap1\n      jump(tag_125)\n    tag_126:\n      pop\n      pop\n      pop\n      pop\n      dup2\n      mstore\n      pop\n      pop\n      swap1\n      pop\n        /* \"contracts/DataUsageSmartContract.sol\":2026:2271  function getPersonalDataByKey(uint _personalDataId) public view returns (PersonalData memory) {... */\n      swap2\n      swap1\n      pop\n      jump\t// out\n    tag_70:\n      dup3\n      dup1\n      sload\n      dup3\n      dup3\n      sstore\n      swap1\n      0x00\n      mstore\n      keccak256(0x00, 0x20)\n      swap1\n      dup2\n      add\n      swap3\n      dup3\n      iszero\n      tag_133\n      jumpi\n      swap2\n      0x20\n      mul\n      dup3\n      add\n    tag_134:\n      dup3\n      dup2\n      gt\n      iszero\n      tag_135\n      jumpi\n      dup3\n      mload\n      dup3\n      swap1\n      dup2\n      tag_136\n      swap2\n      swap1\n      tag_137\n      jump\t// in\n    tag_136:\n      pop\n      swap2\n      0x20\n      add\n      swap2\n      swap1\n      0x01\n      add\n      swap1\n      jump(tag_134)\n    tag_135:\n    tag_133:\n      pop\n      swap1\n      pop\n      tag_138\n      swap2\n      swap1\n      tag_139\n      jump\t// in\n    tag_138:\n      pop\n      swap1\n      jump\t// out\n    tag_72:\n      dup3\n      dup1\n      sload\n      dup3\n      dup3\n      sstore\n      swap1\n      0x00\n      mstore\n      keccak256(0x00, 0x20)\n      swap1\n      dup2\n      add\n      swap3\n      dup3\n      iszero\n      tag_140\n      jumpi\n      swap2\n      0x20\n      mul\n      dup3\n      add\n    tag_141:\n      dup3\n      dup2\n      gt\n      iszero\n      tag_142\n      jumpi\n      dup3\n      mload\n      dup3\n      sstore\n      swap2\n      0x20\n      add\n      swap2\n      swap1\n      0x01\n      add\n      swap1\n      jump(tag_141)\n    tag_142:\n    tag_140:\n      pop\n      swap1\n      pop\n      tag_143\n      swap2\n      swap1\n      tag_144\n      jump\t// in\n    tag_143:\n      pop\n      swap1\n      jump\t// out\n    tag_74:\n      dup3\n      dup1\n      sload\n      dup3\n      dup3\n      sstore\n      swap1\n      0x00\n      mstore\n      keccak256(0x00, 0x20)\n      swap1\n      dup2\n      add\n      swap3\n      dup3\n      iszero\n      tag_145\n      jumpi\n      swap2\n      0x20\n      mul\n      dup3\n      add\n    tag_146:\n      dup3\n      dup2\n      gt\n      iszero\n      tag_147\n      jumpi\n      dup3\n      mload\n      dup3\n      sstore\n      swap2\n      0x20\n      add\n      swap2\n      swap1\n      0x01\n      add\n      swap1\n      jump(tag_146)\n    tag_147:\n    tag_145:\n      pop\n      swap1\n      pop\n      tag_148\n      swap2\n      swap1\n      tag_149\n      jump\t// in\n    tag_148:\n      pop\n      swap1\n      jump\t// out\n    tag_101:\n      mload(0x40)\n      dup1\n      0xc0\n      add\n      0x40\n      mstore\n      dup1\n      0x00\n      dup1\n      not\n      and\n      dup2\n      mstore\n      0x20\n      add\n      0x00\n      dup1\n      not\n      and\n      dup2\n      mstore\n      0x20\n      add\n      0x00\n      dup2\n      mstore\n      0x20\n      add\n      0x60\n      dup2\n      mstore\n      0x20\n      add\n      0x60\n      dup2\n      mstore\n      0x20\n      add\n      0x60\n      dup2\n      mstore\n      pop\n      swap1\n      jump\t// out\n    tag_120:\n      mload(0x40)\n      dup1\n      0xa0\n      add\n      0x40\n      mstore\n      dup1\n      0x00\n      dup2\n      mstore\n      0x20\n      add\n      0x00\n      dup1\n      not\n      and\n      dup2\n      mstore\n      0x20\n      add\n      0x00\n      dup1\n      not\n      and\n      dup2\n      mstore\n      0x20\n      add\n      0x00\n      dup1\n      not\n      and\n      dup2\n      mstore\n      0x20\n      add\n      0x60\n      dup2\n      mstore\n      pop\n      swap1\n      jump\t// out\n    tag_139:\n    tag_150:\n      dup1\n      dup3\n      gt\n      iszero\n      tag_151\n      jumpi\n      0x00\n      dup2\n      dup2\n      tag_152\n      swap2\n      swap1\n      tag_153\n      jump\t// in\n    tag_152:\n      pop\n      0x01\n      add\n      jump(tag_150)\n    tag_151:\n      pop\n      swap1\n      jump\t// out\n    tag_144:\n    tag_154:\n      dup1\n      dup3\n      gt\n      iszero\n      tag_155\n      jumpi\n      0x00\n      dup2\n      0x00\n      swap1\n      sstore\n      pop\n      0x01\n      add\n      jump(tag_154)\n    tag_155:\n      pop\n      swap1\n      jump\t// out\n    tag_149:\n    tag_156:\n      dup1\n      dup3\n      gt\n      iszero\n      tag_157\n      jumpi\n      0x00\n      dup2\n      0x00\n      swap1\n      sstore\n      pop\n      0x01\n      add\n      jump(tag_156)\n    tag_157:\n      pop\n      swap1\n      jump\t// out\n    tag_153:\n      pop\n      dup1\n      sload\n      tag_158\n      swap1\n      tag_110\n      jump\t// in\n    tag_158:\n      0x00\n      dup3\n      sstore\n      dup1\n      0x1f\n      lt\n      tag_160\n      jumpi\n      pop\n      jump(tag_159)\n    tag_160:\n      0x1f\n      add\n      0x20\n      swap1\n      div\n      swap1\n      0x00\n      mstore\n      keccak256(0x00, 0x20)\n      swap1\n      dup2\n      add\n      swap1\n      tag_161\n      swap2\n      swap1\n      tag_144\n      jump\t// in\n    tag_161:\n    tag_159:\n      pop\n      jump\t// out\n        /* \"#utility.yul\":7:82   */\n    tag_162:\n        /* \"#utility.yul\":40:46   */\n      0x00\n        /* \"#utility.yul\":73:75   */\n      0x40\n        /* \"#utility.yul\":67:76   */\n      mload\n        /* \"#utility.yul\":57:76   */\n      swap1\n      pop\n        /* \"#utility.yul\":7:82   */\n      swap1\n      jump\t// out\n        /* \"#utility.yul\":88:205   */\n    tag_163:\n        /* \"#utility.yul\":197:198   */\n      0x00\n        /* \"#utility.yul\":194:195   */\n      dup1\n        /* \"#utility.yul\":187:199   */\n      revert\n        /* \"#utility.yul\":211:328   */\n    tag_164:\n        /* \"#utility.yul\":320:321   */\n      0x00\n        /* \"#utility.yul\":317:318   */\n      dup1\n        /* \"#utility.yul\":310:322   */\n      revert\n        /* \"#utility.yul\":334:411   */\n    tag_165:\n        /* \"#utility.yul\":371:378   */\n      0x00\n        /* \"#utility.yul\":400:405   */\n      dup2\n        /* \"#utility.yul\":389:405   */\n      swap1\n      pop\n        /* \"#utility.yul\":334:411   */\n      swap2\n      swap1\n      pop\n      jump\t// out\n        /* \"#utility.yul\":417:539   */\n    tag_166:\n        /* \"#utility.yul\":490:514   */\n      tag_255\n        /* \"#utility.yul\":508:513   */\n      dup2\n        /* \"#utility.yul\":490:514   */\n      tag_165\n      jump\t// in\n    tag_255:\n        /* \"#utility.yul\":483:488   */\n      dup2\n        /* \"#utility.yul\":480:515   */\n      eq\n        /* \"#utility.yul\":470:533   */\n      tag_256\n      jumpi\n        /* \"#utility.yul\":529:530   */\n      0x00\n        /* \"#utility.yul\":526:527   */\n      dup1\n        /* \"#utility.yul\":519:531   */\n      revert\n        /* \"#utility.yul\":470:533   */\n    tag_256:\n        /* \"#utility.yul\":417:539   */\n      pop\n      jump\t// out\n        /* \"#utility.yul\":545:684   */\n    tag_167:\n        /* \"#utility.yul\":591:596   */\n      0x00\n        /* \"#utility.yul\":629:635   */\n      dup2\n        /* \"#utility.yul\":616:636   */\n      calldataload\n        /* \"#utility.yul\":607:636   */\n      swap1\n      pop\n        /* \"#utility.yul\":645:678   */\n      tag_258\n        /* \"#utility.yul\":672:677   */\n      dup2\n        /* \"#utility.yul\":645:678   */\n      tag_166\n      jump\t// in\n    tag_258:\n        /* \"#utility.yul\":545:684   */\n      swap3\n      swap2\n      pop\n      pop\n      jump\t// out\n        /* \"#utility.yul\":690:767   */\n    tag_168:\n        /* \"#utility.yul\":727:734   */\n      0x00\n        /* \"#utility.yul\":756:761   */\n      dup2\n        /* \"#utility.yul\":745:761   */\n      swap1\n      pop\n        /* \"#utility.yul\":690:767   */\n      swap2\n      swap1\n      pop\n      jump\t// out\n        /* \"#utility.yul\":773:895   */\n    tag_169:\n        /* \"#utility.yul\":846:870   */\n      tag_261\n        /* \"#utility.yul\":864:869   */\n      dup2\n        /* \"#utility.yul\":846:870   */\n      tag_168\n      jump\t// in\n    tag_261:\n        /* \"#utility.yul\":839:844   */\n      dup2\n        /* \"#utility.yul\":836:871   */\n      eq\n        /* \"#utility.yul\":826:889   */\n      tag_262\n      jumpi\n        /* \"#utility.yul\":885:886   */\n      0x00\n        /* \"#utility.yul\":882:883   */\n      dup1\n        /* \"#utility.yul\":875:887   */\n      revert\n        /* \"#utility.yul\":826:889   */\n    tag_262:\n        /* \"#utility.yul\":773:895   */\n      pop\n      jump\t// out\n        /* \"#utility.yul\":901:1040   */\n    tag_170:\n        /* \"#utility.yul\":947:952   */\n      0x00\n        /* \"#utility.yul\":985:991   */\n      dup2\n        /* \"#utility.yul\":972:992   */\n      calldataload\n        /* \"#utility.yul\":963:992   */\n      swap1\n      pop\n        /* \"#utility.yul\":1001:1034   */\n      tag_264\n        /* \"#utility.yul\":1028:1033   */\n      dup2\n        /* \"#utility.yul\":1001:1034   */\n      tag_169\n      jump\t// in\n    tag_264:\n        /* \"#utility.yul\":901:1040   */\n      swap3\n      swap2\n      pop\n      pop\n      jump\t// out\n        /* \"#utility.yul\":1046:1163   */\n    tag_171:\n        /* \"#utility.yul\":1155:1156   */\n      0x00\n        /* \"#utility.yul\":1152:1153   */\n      dup1\n        /* \"#utility.yul\":1145:1157   */\n      revert\n        /* \"#utility.yul\":1169:1271   */\n    tag_172:\n        /* \"#utility.yul\":1210:1216   */\n      0x00\n        /* \"#utility.yul\":1261:1263   */\n      0x1f\n        /* \"#utility.yul\":1257:1264   */\n      not\n        /* \"#utility.yul\":1252:1254   */\n      0x1f\n        /* \"#utility.yul\":1245:1250   */\n      dup4\n        /* \"#utility.yul\":1241:1255   */\n      add\n        /* \"#utility.yul\":1237:1265   */\n      and\n        /* \"#utility.yul\":1227:1265   */\n      swap1\n      pop\n        /* \"#utility.yul\":1169:1271   */\n      swap2\n      swap1\n      pop\n      jump\t// out\n        /* \"#utility.yul\":1277:1457   */\n    tag_58:\n        /* \"#utility.yul\":1325:1402   */\n      0x4e487b7100000000000000000000000000000000000000000000000000000000\n        /* \"#utility.yul\":1322:1323   */\n      0x00\n        /* \"#utility.yul\":1315:1403   */\n      mstore\n        /* \"#utility.yul\":1422:1426   */\n      0x41\n        /* \"#utility.yul\":1419:1420   */\n      0x04\n        /* \"#utility.yul\":1412:1427   */\n      mstore\n        /* \"#utility.yul\":1446:1450   */\n      0x24\n        /* \"#utility.yul\":1443:1444   */\n      0x00\n        /* \"#utility.yul\":1436:1451   */\n      revert\n        /* \"#utility.yul\":1463:1744   */\n    tag_173:\n        /* \"#utility.yul\":1546:1573   */\n      tag_269\n        /* \"#utility.yul\":1568:1572   */\n      dup3\n        /* \"#utility.yul\":1546:1573   */\n      tag_172\n      jump\t// in\n    tag_269:\n        /* \"#utility.yul\":1538:1544   */\n      dup2\n        /* \"#utility.yul\":1534:1574   */\n      add\n        /* \"#utility.yul\":1676:1682   */\n      dup2\n        /* \"#utility.yul\":1664:1674   */\n      dup2\n        /* \"#utility.yul\":1661:1683   */\n      lt\n        /* \"#utility.yul\":1640:1658   */\n      0xffffffffffffffff\n        /* \"#utility.yul\":1628:1638   */\n      dup3\n        /* \"#utility.yul\":1625:1659   */\n      gt\n        /* \"#utility.yul\":1622:1684   */\n      or\n        /* \"#utility.yul\":1619:1707   */\n      iszero\n      tag_270\n      jumpi\n        /* \"#utility.yul\":1687:1705   */\n      tag_271\n      tag_58\n      jump\t// in\n    tag_271:\n        /* \"#utility.yul\":1619:1707   */\n    tag_270:\n        /* \"#utility.yul\":1727:1737   */\n      dup1\n        /* \"#utility.yul\":1723:1725   */\n      0x40\n        /* \"#utility.yul\":1716:1738   */\n      mstore\n        /* \"#utility.yul\":1506:1744   */\n      pop\n        /* \"#utility.yul\":1463:1744   */\n      pop\n      pop\n      jump\t// out\n        /* \"#utility.yul\":1750:1879   */\n    tag_174:\n        /* \"#utility.yul\":1784:1790   */\n      0x00\n        /* \"#utility.yul\":1811:1831   */\n      tag_273\n      tag_162\n      jump\t// in\n    tag_273:\n        /* \"#utility.yul\":1801:1831   */\n      swap1\n      pop\n        /* \"#utility.yul\":1840:1873   */\n      tag_274\n        /* \"#utility.yul\":1868:1872   */\n      dup3\n        /* \"#utility.yul\":1860:1866   */\n      dup3\n        /* \"#utility.yul\":1840:1873   */\n      tag_173\n      jump\t// in\n    tag_274:\n        /* \"#utility.yul\":1750:1879   */\n      swap2\n      swap1\n      pop\n      jump\t// out\n        /* \"#utility.yul\":1885:2206   */\n    tag_175:\n        /* \"#utility.yul\":1972:1976   */\n      0x00\n        /* \"#utility.yul\":2062:2080   */\n      0xffffffffffffffff\n        /* \"#utility.yul\":2054:2060   */\n      dup3\n        /* \"#utility.yul\":2051:2081   */\n      gt\n        /* \"#utility.yul\":2048:2104   */\n      iszero\n      tag_276\n      jumpi\n        /* \"#utility.yul\":2084:2102   */\n      tag_277\n      tag_58\n      jump\t// in\n    tag_277:\n        /* \"#utility.yul\":2048:2104   */\n    tag_276:\n        /* \"#utility.yul\":2134:2138   */\n      0x20\n        /* \"#utility.yul\":2126:2132   */\n      dup3\n        /* \"#utility.yul\":2122:2139   */\n      mul\n        /* \"#utility.yul\":2114:2139   */\n      swap1\n      pop\n        /* \"#utility.yul\":2194:2198   */\n      0x20\n        /* \"#utility.yul\":2188:2192   */\n      dup2\n        /* \"#utility.yul\":2184:2199   */\n      add\n        /* \"#utility.yul\":2176:2199   */\n      swap1\n      pop\n        /* \"#utility.yul\":1885:2206   */\n      swap2\n      swap1\n      pop\n      jump\t// out\n        /* \"#utility.yul\":2212:2329   */\n    tag_176:\n        /* \"#utility.yul\":2321:2322   */\n      0x00\n        /* \"#utility.yul\":2318:2319   */\n      dup1\n        /* \"#utility.yul\":2311:2323   */\n      revert\n        /* \"#utility.yul\":2335:2452   */\n    tag_177:\n        /* \"#utility.yul\":2444:2445   */\n      0x00\n        /* \"#utility.yul\":2441:2442   */\n      dup1\n        /* \"#utility.yul\":2434:2446   */\n      revert\n        /* \"#utility.yul\":2458:2766   */\n    tag_178:\n        /* \"#utility.yul\":2520:2524   */\n      0x00\n        /* \"#utility.yul\":2610:2628   */\n      0xffffffffffffffff\n        /* \"#utility.yul\":2602:2608   */\n      dup3\n        /* \"#utility.yul\":2599:2629   */\n      gt\n        /* \"#utility.yul\":2596:2652   */\n      iszero\n      tag_281\n      jumpi\n        /* \"#utility.yul\":2632:2650   */\n      tag_282\n      tag_58\n      jump\t// in\n    tag_282:\n        /* \"#utility.yul\":2596:2652   */\n    tag_281:\n        /* \"#utility.yul\":2670:2699   */\n      tag_283\n        /* \"#utility.yul\":2692:2698   */\n      dup3\n        /* \"#utility.yul\":2670:2699   */\n      tag_172\n      jump\t// in\n    tag_283:\n        /* \"#utility.yul\":2662:2699   */\n      swap1\n      pop\n        /* \"#utility.yul\":2754:2758   */\n      0x20\n        /* \"#utility.yul\":2748:2752   */\n      dup2\n        /* \"#utility.yul\":2744:2759   */\n      add\n        /* \"#utility.yul\":2736:2759   */\n      swap1\n      pop\n        /* \"#utility.yul\":2458:2766   */\n      swap2\n      swap1\n      pop\n      jump\t// out\n        /* \"#utility.yul\":2772:2918   */\n    tag_179:\n        /* \"#utility.yul\":2869:2875   */\n      dup3\n        /* \"#utility.yul\":2864:2867   */\n      dup2\n        /* \"#utility.yul\":2859:2862   */\n      dup4\n        /* \"#utility.yul\":2846:2876   */\n      calldatacopy\n        /* \"#utility.yul\":2910:2911   */\n      0x00\n        /* \"#utility.yul\":2901:2907   */\n      dup4\n        /* \"#utility.yul\":2896:2899   */\n      dup4\n        /* \"#utility.yul\":2892:2908   */\n      add\n        /* \"#utility.yul\":2885:2912   */\n      mstore\n        /* \"#utility.yul\":2772:2918   */\n      pop\n      pop\n      pop\n      jump\t// out\n        /* \"#utility.yul\":2924:3349   */\n    tag_180:\n        /* \"#utility.yul\":3002:3007   */\n      0x00\n        /* \"#utility.yul\":3027:3093   */\n      tag_286\n        /* \"#utility.yul\":3043:3092   */\n      tag_287\n        /* \"#utility.yul\":3085:3091   */\n      dup5\n        /* \"#utility.yul\":3043:3092   */\n      tag_178\n      jump\t// in\n    tag_287:\n        /* \"#utility.yul\":3027:3093   */\n      tag_174\n      jump\t// in\n    tag_286:\n        /* \"#utility.yul\":3018:3093   */\n      swap1\n      pop\n        /* \"#utility.yul\":3116:3122   */\n      dup3\n        /* \"#utility.yul\":3109:3114   */\n      dup2\n        /* \"#utility.yul\":3102:3123   */\n      mstore\n        /* \"#utility.yul\":3154:3158   */\n      0x20\n        /* \"#utility.yul\":3147:3152   */\n      dup2\n        /* \"#utility.yul\":3143:3159   */\n      add\n        /* \"#utility.yul\":3192:3195   */\n      dup5\n        /* \"#utility.yul\":3183:3189   */\n      dup5\n        /* \"#utility.yul\":3178:3181   */\n      dup5\n        /* \"#utility.yul\":3174:3190   */\n      add\n        /* \"#utility.yul\":3171:3196   */\n      gt\n        /* \"#utility.yul\":3168:3280   */\n      iszero\n      tag_288\n      jumpi\n        /* \"#utility.yul\":3199:3278   */\n      tag_289\n      tag_177\n      jump\t// in\n    tag_289:\n        /* \"#utility.yul\":3168:3280   */\n    tag_288:\n        /* \"#utility.yul\":3289:3343   */\n      tag_290\n        /* \"#utility.yul\":3336:3342   */\n      dup5\n        /* \"#utility.yul\":3331:3334   */\n      dup3\n        /* \"#utility.yul\":3326:3329   */\n      dup6\n        /* \"#utility.yul\":3289:3343   */\n      tag_179\n      jump\t// in\n    tag_290:\n        /* \"#utility.yul\":3008:3349   */\n      pop\n        /* \"#utility.yul\":2924:3349   */\n      swap4\n      swap3\n      pop\n      pop\n      pop\n      jump\t// out\n        /* \"#utility.yul\":3369:3709   */\n    tag_181:\n        /* \"#utility.yul\":3425:3430   */\n      0x00\n        /* \"#utility.yul\":3474:3477   */\n      dup3\n        /* \"#utility.yul\":3467:3471   */\n      0x1f\n        /* \"#utility.yul\":3459:3465   */\n      dup4\n        /* \"#utility.yul\":3455:3472   */\n      add\n        /* \"#utility.yul\":3451:3478   */\n      slt\n        /* \"#utility.yul\":3441:3563   */\n      tag_292\n      jumpi\n        /* \"#utility.yul\":3482:3561   */\n      tag_293\n      tag_171\n      jump\t// in\n    tag_293:\n        /* \"#utility.yul\":3441:3563   */\n    tag_292:\n        /* \"#utility.yul\":3599:3605   */\n      dup2\n        /* \"#utility.yul\":3586:3606   */\n      calldataload\n        /* \"#utility.yul\":3624:3703   */\n      tag_294\n        /* \"#utility.yul\":3699:3702   */\n      dup5\n        /* \"#utility.yul\":3691:3697   */\n      dup3\n        /* \"#utility.yul\":3684:3688   */\n      0x20\n        /* \"#utility.yul\":3676:3682   */\n      dup7\n        /* \"#utility.yul\":3672:3689   */\n      add\n        /* \"#utility.yul\":3624:3703   */\n      tag_180\n      jump\t// in\n    tag_294:\n        /* \"#utility.yul\":3615:3703   */\n      swap2\n      pop\n        /* \"#utility.yul\":3431:3709   */\n      pop\n        /* \"#utility.yul\":3369:3709   */\n      swap3\n      swap2\n      pop\n      pop\n      jump\t// out\n        /* \"#utility.yul\":3731:4676   */\n    tag_182:\n        /* \"#utility.yul\":3837:3842   */\n      0x00\n        /* \"#utility.yul\":3862:3953   */\n      tag_296\n        /* \"#utility.yul\":3878:3952   */\n      tag_297\n        /* \"#utility.yul\":3945:3951   */\n      dup5\n        /* \"#utility.yul\":3878:3952   */\n      tag_175\n      jump\t// in\n    tag_297:\n        /* \"#utility.yul\":3862:3953   */\n      tag_174\n      jump\t// in\n    tag_296:\n        /* \"#utility.yul\":3853:3953   */\n      swap1\n      pop\n        /* \"#utility.yul\":3973:3978   */\n      dup1\n        /* \"#utility.yul\":4002:4008   */\n      dup4\n        /* \"#utility.yul\":3995:4000   */\n      dup3\n        /* \"#utility.yul\":3988:4009   */\n      mstore\n        /* \"#utility.yul\":4036:4040   */\n      0x20\n        /* \"#utility.yul\":4029:4034   */\n      dup3\n        /* \"#utility.yul\":4025:4041   */\n      add\n        /* \"#utility.yul\":4018:4041   */\n      swap1\n      pop\n        /* \"#utility.yul\":4089:4093   */\n      0x20\n        /* \"#utility.yul\":4081:4087   */\n      dup5\n        /* \"#utility.yul\":4077:4094   */\n      mul\n        /* \"#utility.yul\":4069:4075   */\n      dup4\n        /* \"#utility.yul\":4065:4095   */\n      add\n        /* \"#utility.yul\":4118:4121   */\n      dup6\n        /* \"#utility.yul\":4110:4116   */\n      dup2\n        /* \"#utility.yul\":4107:4122   */\n      gt\n        /* \"#utility.yul\":4104:4226   */\n      iszero\n      tag_298\n      jumpi\n        /* \"#utility.yul\":4137:4216   */\n      tag_299\n      tag_176\n      jump\t// in\n    tag_299:\n        /* \"#utility.yul\":4104:4226   */\n    tag_298:\n        /* \"#utility.yul\":4252:4258   */\n      dup4\n        /* \"#utility.yul\":4235:4670   */\n    tag_300:\n        /* \"#utility.yul\":4269:4275   */\n      dup2\n        /* \"#utility.yul\":4264:4267   */\n      dup2\n        /* \"#utility.yul\":4261:4276   */\n      lt\n        /* \"#utility.yul\":4235:4670   */\n      iszero\n      tag_302\n      jumpi\n        /* \"#utility.yul\":4358:4361   */\n      dup1\n        /* \"#utility.yul\":4345:4362   */\n      calldataload\n        /* \"#utility.yul\":4394:4412   */\n      0xffffffffffffffff\n        /* \"#utility.yul\":4381:4392   */\n      dup2\n        /* \"#utility.yul\":4378:4413   */\n      gt\n        /* \"#utility.yul\":4375:4497   */\n      iszero\n      tag_303\n      jumpi\n        /* \"#utility.yul\":4416:4495   */\n      tag_304\n      tag_171\n      jump\t// in\n    tag_304:\n        /* \"#utility.yul\":4375:4497   */\n    tag_303:\n        /* \"#utility.yul\":4540:4551   */\n      dup1\n        /* \"#utility.yul\":4532:4538   */\n      dup7\n        /* \"#utility.yul\":4528:4552   */\n      add\n        /* \"#utility.yul\":4578:4625   */\n      tag_305\n        /* \"#utility.yul\":4621:4624   */\n      dup10\n        /* \"#utility.yul\":4609:4619   */\n      dup3\n        /* \"#utility.yul\":4578:4625   */\n      tag_181\n      jump\t// in\n    tag_305:\n        /* \"#utility.yul\":4573:4576   */\n      dup6\n        /* \"#utility.yul\":4566:4626   */\n      mstore\n        /* \"#utility.yul\":4655:4659   */\n      0x20\n        /* \"#utility.yul\":4650:4653   */\n      dup6\n        /* \"#utility.yul\":4646:4660   */\n      add\n        /* \"#utility.yul\":4639:4660   */\n      swap5\n      pop\n        /* \"#utility.yul\":4311:4670   */\n      pop\n      pop\n        /* \"#utility.yul\":4295:4299   */\n      0x20\n        /* \"#utility.yul\":4290:4293   */\n      dup2\n        /* \"#utility.yul\":4286:4300   */\n      add\n        /* \"#utility.yul\":4279:4300   */\n      swap1\n      pop\n        /* \"#utility.yul\":4235:4670   */\n      jump(tag_300)\n    tag_302:\n        /* \"#utility.yul\":4239:4260   */\n      pop\n        /* \"#utility.yul\":3843:4676   */\n      pop\n      pop\n        /* \"#utility.yul\":3731:4676   */\n      swap4\n      swap3\n      pop\n      pop\n      pop\n      jump\t// out\n        /* \"#utility.yul\":4698:5088   */\n    tag_183:\n        /* \"#utility.yul\":4779:4784   */\n      0x00\n        /* \"#utility.yul\":4828:4831   */\n      dup3\n        /* \"#utility.yul\":4821:4825   */\n      0x1f\n        /* \"#utility.yul\":4813:4819   */\n      dup4\n        /* \"#utility.yul\":4809:4826   */\n      add\n        /* \"#utility.yul\":4805:4832   */\n      slt\n        /* \"#utility.yul\":4795:4917   */\n      tag_307\n      jumpi\n        /* \"#utility.yul\":4836:4915   */\n      tag_308\n      tag_171\n      jump\t// in\n    tag_308:\n        /* \"#utility.yul\":4795:4917   */\n    tag_307:\n        /* \"#utility.yul\":4953:4959   */\n      dup2\n        /* \"#utility.yul\":4940:4960   */\n      calldataload\n        /* \"#utility.yul\":4978:5082   */\n      tag_309\n        /* \"#utility.yul\":5078:5081   */\n      dup5\n        /* \"#utility.yul\":5070:5076   */\n      dup3\n        /* \"#utility.yul\":5063:5067   */\n      0x20\n        /* \"#utility.yul\":5055:5061   */\n      dup7\n        /* \"#utility.yul\":5051:5068   */\n      add\n        /* \"#utility.yul\":4978:5082   */\n      tag_182\n      jump\t// in\n    tag_309:\n        /* \"#utility.yul\":4969:5082   */\n      swap2\n      pop\n        /* \"#utility.yul\":4785:5088   */\n      pop\n        /* \"#utility.yul\":4698:5088   */\n      swap3\n      swap2\n      pop\n      pop\n      jump\t// out\n        /* \"#utility.yul\":5094:5405   */\n    tag_184:\n        /* \"#utility.yul\":5171:5175   */\n      0x00\n        /* \"#utility.yul\":5261:5279   */\n      0xffffffffffffffff\n        /* \"#utility.yul\":5253:5259   */\n      dup3\n        /* \"#utility.yul\":5250:5280   */\n      gt\n        /* \"#utility.yul\":5247:5303   */\n      iszero\n      tag_311\n      jumpi\n        /* \"#utility.yul\":5283:5301   */\n      tag_312\n      tag_58\n      jump\t// in\n    tag_312:\n        /* \"#utility.yul\":5247:5303   */\n    tag_311:\n        /* \"#utility.yul\":5333:5337   */\n      0x20\n        /* \"#utility.yul\":5325:5331   */\n      dup3\n        /* \"#utility.yul\":5321:5338   */\n      mul\n        /* \"#utility.yul\":5313:5338   */\n      swap1\n      pop\n        /* \"#utility.yul\":5393:5397   */\n      0x20\n        /* \"#utility.yul\":5387:5391   */\n      dup2\n        /* \"#utility.yul\":5383:5398   */\n      add\n        /* \"#utility.yul\":5375:5398   */\n      swap1\n      pop\n        /* \"#utility.yul\":5094:5405   */\n      swap2\n      swap1\n      pop\n      jump\t// out\n        /* \"#utility.yul\":5428:6138   */\n    tag_185:\n        /* \"#utility.yul\":5524:5529   */\n      0x00\n        /* \"#utility.yul\":5549:5630   */\n      tag_314\n        /* \"#utility.yul\":5565:5629   */\n      tag_315\n        /* \"#utility.yul\":5622:5628   */\n      dup5\n        /* \"#utility.yul\":5565:5629   */\n      tag_184\n      jump\t// in\n    tag_315:\n        /* \"#utility.yul\":5549:5630   */\n      tag_174\n      jump\t// in\n    tag_314:\n        /* \"#utility.yul\":5540:5630   */\n      swap1\n      pop\n        /* \"#utility.yul\":5650:5655   */\n      dup1\n        /* \"#utility.yul\":5679:5685   */\n      dup4\n        /* \"#utility.yul\":5672:5677   */\n      dup3\n        /* \"#utility.yul\":5665:5686   */\n      mstore\n        /* \"#utility.yul\":5713:5717   */\n      0x20\n        /* \"#utility.yul\":5706:5711   */\n      dup3\n        /* \"#utility.yul\":5702:5718   */\n      add\n        /* \"#utility.yul\":5695:5718   */\n      swap1\n      pop\n        /* \"#utility.yul\":5766:5770   */\n      0x20\n        /* \"#utility.yul\":5758:5764   */\n      dup5\n        /* \"#utility.yul\":5754:5771   */\n      mul\n        /* \"#utility.yul\":5746:5752   */\n      dup4\n        /* \"#utility.yul\":5742:5772   */\n      add\n        /* \"#utility.yul\":5795:5798   */\n      dup6\n        /* \"#utility.yul\":5787:5793   */\n      dup2\n        /* \"#utility.yul\":5784:5799   */\n      gt\n        /* \"#utility.yul\":5781:5903   */\n      iszero\n      tag_316\n      jumpi\n        /* \"#utility.yul\":5814:5893   */\n      tag_317\n      tag_176\n      jump\t// in\n    tag_317:\n        /* \"#utility.yul\":5781:5903   */\n    tag_316:\n        /* \"#utility.yul\":5929:5935   */\n      dup4\n        /* \"#utility.yul\":5912:6132   */\n    tag_318:\n        /* \"#utility.yul\":5946:5952   */\n      dup2\n        /* \"#utility.yul\":5941:5944   */\n      dup2\n        /* \"#utility.yul\":5938:5953   */\n      lt\n        /* \"#utility.yul\":5912:6132   */\n      iszero\n      tag_320\n      jumpi\n        /* \"#utility.yul\":6021:6024   */\n      dup1\n        /* \"#utility.yul\":6050:6087   */\n      tag_321\n        /* \"#utility.yul\":6083:6086   */\n      dup9\n        /* \"#utility.yul\":6071:6081   */\n      dup3\n        /* \"#utility.yul\":6050:6087   */\n      tag_170\n      jump\t// in\n    tag_321:\n        /* \"#utility.yul\":6045:6048   */\n      dup5\n        /* \"#utility.yul\":6038:6088   */\n      mstore\n        /* \"#utility.yul\":6117:6121   */\n      0x20\n        /* \"#utility.yul\":6112:6115   */\n      dup5\n        /* \"#utility.yul\":6108:6122   */\n      add\n        /* \"#utility.yul\":6101:6122   */\n      swap4\n      pop\n        /* \"#utility.yul\":5988:6132   */\n      pop\n        /* \"#utility.yul\":5972:5976   */\n      0x20\n        /* \"#utility.yul\":5967:5970   */\n      dup2\n        /* \"#utility.yul\":5963:5977   */\n      add\n        /* \"#utility.yul\":5956:5977   */\n      swap1\n      pop\n        /* \"#utility.yul\":5912:6132   */\n      jump(tag_318)\n    tag_320:\n        /* \"#utility.yul\":5916:5937   */\n      pop\n        /* \"#utility.yul\":5530:6138   */\n      pop\n      pop\n        /* \"#utility.yul\":5428:6138   */\n      swap4\n      swap3\n      pop\n      pop\n      pop\n      jump\t// out\n        /* \"#utility.yul\":6161:6531   */\n    tag_186:\n        /* \"#utility.yul\":6232:6237   */\n      0x00\n        /* \"#utility.yul\":6281:6284   */\n      dup3\n        /* \"#utility.yul\":6274:6278   */\n      0x1f\n        /* \"#utility.yul\":6266:6272   */\n      dup4\n        /* \"#utility.yul\":6262:6279   */\n      add\n        /* \"#utility.yul\":6258:6285   */\n      slt\n        /* \"#utility.yul\":6248:6370   */\n      tag_323\n      jumpi\n        /* \"#utility.yul\":6289:6368   */\n      tag_324\n      tag_171\n      jump\t// in\n    tag_324:\n        /* \"#utility.yul\":6248:6370   */\n    tag_323:\n        /* \"#utility.yul\":6406:6412   */\n      dup2\n        /* \"#utility.yul\":6393:6413   */\n      calldataload\n        /* \"#utility.yul\":6431:6525   */\n      tag_325\n        /* \"#utility.yul\":6521:6524   */\n      dup5\n        /* \"#utility.yul\":6513:6519   */\n      dup3\n        /* \"#utility.yul\":6506:6510   */\n      0x20\n        /* \"#utility.yul\":6498:6504   */\n      dup7\n        /* \"#utility.yul\":6494:6511   */\n      add\n        /* \"#utility.yul\":6431:6525   */\n      tag_185\n      jump\t// in\n    tag_325:\n        /* \"#utility.yul\":6422:6525   */\n      swap2\n      pop\n        /* \"#utility.yul\":6238:6531   */\n      pop\n        /* \"#utility.yul\":6161:6531   */\n      swap3\n      swap2\n      pop\n      pop\n      jump\t// out\n        /* \"#utility.yul\":6537:7888   */\n    tag_15:\n        /* \"#utility.yul\":6692:6698   */\n      0x00\n        /* \"#utility.yul\":6700:6706   */\n      dup1\n        /* \"#utility.yul\":6708:6714   */\n      0x00\n        /* \"#utility.yul\":6716:6722   */\n      dup1\n        /* \"#utility.yul\":6724:6730   */\n      0x00\n        /* \"#utility.yul\":6773:6776   */\n      0xa0\n        /* \"#utility.yul\":6761:6770   */\n      dup7\n        /* \"#utility.yul\":6752:6759   */\n      dup9\n        /* \"#utility.yul\":6748:6771   */\n      sub\n        /* \"#utility.yul\":6744:6777   */\n      slt\n        /* \"#utility.yul\":6741:6861   */\n      iszero\n      tag_327\n      jumpi\n        /* \"#utility.yul\":6780:6859   */\n      tag_328\n      tag_163\n      jump\t// in\n    tag_328:\n        /* \"#utility.yul\":6741:6861   */\n    tag_327:\n        /* \"#utility.yul\":6900:6901   */\n      0x00\n        /* \"#utility.yul\":6925:6978   */\n      tag_329\n        /* \"#utility.yul\":6970:6977   */\n      dup9\n        /* \"#utility.yul\":6961:6967   */\n      dup3\n        /* \"#utility.yul\":6950:6959   */\n      dup10\n        /* \"#utility.yul\":6946:6968   */\n      add\n        /* \"#utility.yul\":6925:6978   */\n      tag_167\n      jump\t// in\n    tag_329:\n        /* \"#utility.yul\":6915:6978   */\n      swap6\n      pop\n        /* \"#utility.yul\":6871:6988   */\n      pop\n        /* \"#utility.yul\":7027:7029   */\n      0x20\n        /* \"#utility.yul\":7053:7106   */\n      tag_330\n        /* \"#utility.yul\":7098:7105   */\n      dup9\n        /* \"#utility.yul\":7089:7095   */\n      dup3\n        /* \"#utility.yul\":7078:7087   */\n      dup10\n        /* \"#utility.yul\":7074:7096   */\n      add\n        /* \"#utility.yul\":7053:7106   */\n      tag_167\n      jump\t// in\n    tag_330:\n        /* \"#utility.yul\":7043:7106   */\n      swap5\n      pop\n        /* \"#utility.yul\":6998:7116   */\n      pop\n        /* \"#utility.yul\":7155:7157   */\n      0x40\n        /* \"#utility.yul\":7181:7234   */\n      tag_331\n        /* \"#utility.yul\":7226:7233   */\n      dup9\n        /* \"#utility.yul\":7217:7223   */\n      dup3\n        /* \"#utility.yul\":7206:7215   */\n      dup10\n        /* \"#utility.yul\":7202:7224   */\n      add\n        /* \"#utility.yul\":7181:7234   */\n      tag_170\n      jump\t// in\n    tag_331:\n        /* \"#utility.yul\":7171:7234   */\n      swap4\n      pop\n        /* \"#utility.yul\":7126:7244   */\n      pop\n        /* \"#utility.yul\":7311:7313   */\n      0x60\n        /* \"#utility.yul\":7300:7309   */\n      dup7\n        /* \"#utility.yul\":7296:7314   */\n      add\n        /* \"#utility.yul\":7283:7315   */\n      calldataload\n        /* \"#utility.yul\":7342:7360   */\n      0xffffffffffffffff\n        /* \"#utility.yul\":7334:7340   */\n      dup2\n        /* \"#utility.yul\":7331:7361   */\n      gt\n        /* \"#utility.yul\":7328:7445   */\n      iszero\n      tag_332\n      jumpi\n        /* \"#utility.yul\":7364:7443   */\n      tag_333\n      tag_164\n      jump\t// in\n    tag_333:\n        /* \"#utility.yul\":7328:7445   */\n    tag_332:\n        /* \"#utility.yul\":7469:7557   */\n      tag_334\n        /* \"#utility.yul\":7549:7556   */\n      dup9\n        /* \"#utility.yul\":7540:7546   */\n      dup3\n        /* \"#utility.yul\":7529:7538   */\n      dup10\n        /* \"#utility.yul\":7525:7547   */\n      add\n        /* \"#utility.yul\":7469:7557   */\n      tag_183\n      jump\t// in\n    tag_334:\n        /* \"#utility.yul\":7459:7557   */\n      swap3\n      pop\n        /* \"#utility.yul\":7254:7567   */\n      pop\n        /* \"#utility.yul\":7634:7637   */\n      0x80\n        /* \"#utility.yul\":7623:7632   */\n      dup7\n        /* \"#utility.yul\":7619:7638   */\n      add\n        /* \"#utility.yul\":7606:7639   */\n      calldataload\n        /* \"#utility.yul\":7666:7684   */\n      0xffffffffffffffff\n        /* \"#utility.yul\":7658:7664   */\n      dup2\n        /* \"#utility.yul\":7655:7685   */\n      gt\n        /* \"#utility.yul\":7652:7769   */\n      iszero\n      tag_335\n      jumpi\n        /* \"#utility.yul\":7688:7767   */\n      tag_336\n      tag_164\n      jump\t// in\n    tag_336:\n        /* \"#utility.yul\":7652:7769   */\n    tag_335:\n        /* \"#utility.yul\":7793:7871   */\n      tag_337\n        /* \"#utility.yul\":7863:7870   */\n      dup9\n        /* \"#utility.yul\":7854:7860   */\n      dup3\n        /* \"#utility.yul\":7843:7852   */\n      dup10\n        /* \"#utility.yul\":7839:7861   */\n      add\n        /* \"#utility.yul\":7793:7871   */\n      tag_186\n      jump\t// in\n    tag_337:\n        /* \"#utility.yul\":7783:7871   */\n      swap2\n      pop\n        /* \"#utility.yul\":7577:7881   */\n      pop\n        /* \"#utility.yul\":6537:7888   */\n      swap3\n      swap6\n      pop\n      swap3\n      swap6\n      swap1\n      swap4\n      pop\n      jump\t// out\n        /* \"#utility.yul\":7894:8223   */\n    tag_19:\n        /* \"#utility.yul\":7953:7959   */\n      0x00\n        /* \"#utility.yul\":8002:8004   */\n      0x20\n        /* \"#utility.yul\":7990:7999   */\n      dup3\n        /* \"#utility.yul\":7981:7988   */\n      dup5\n        /* \"#utility.yul\":7977:8000   */\n      sub\n        /* \"#utility.yul\":7973:8005   */\n      slt\n        /* \"#utility.yul\":7970:8089   */\n      iszero\n      tag_339\n      jumpi\n        /* \"#utility.yul\":8008:8087   */\n      tag_340\n      tag_163\n      jump\t// in\n    tag_340:\n        /* \"#utility.yul\":7970:8089   */\n    tag_339:\n        /* \"#utility.yul\":8128:8129   */\n      0x00\n        /* \"#utility.yul\":8153:8206   */\n      tag_341\n        /* \"#utility.yul\":8198:8205   */\n      dup5\n        /* \"#utility.yul\":8189:8195   */\n      dup3\n        /* \"#utility.yul\":8178:8187   */\n      dup6\n        /* \"#utility.yul\":8174:8196   */\n      add\n        /* \"#utility.yul\":8153:8206   */\n      tag_170\n      jump\t// in\n    tag_341:\n        /* \"#utility.yul\":8143:8206   */\n      swap2\n      pop\n        /* \"#utility.yul\":8099:8216   */\n      pop\n        /* \"#utility.yul\":7894:8223   */\n      swap3\n      swap2\n      pop\n      pop\n      jump\t// out\n        /* \"#utility.yul\":8229:8347   */\n    tag_187:\n        /* \"#utility.yul\":8316:8340   */\n      tag_343\n        /* \"#utility.yul\":8334:8339   */\n      dup2\n        /* \"#utility.yul\":8316:8340   */\n      tag_168\n      jump\t// in\n    tag_343:\n        /* \"#utility.yul\":8311:8314   */\n      dup3\n        /* \"#utility.yul\":8304:8341   */\n      mstore\n        /* \"#utility.yul\":8229:8347   */\n      pop\n      pop\n      jump\t// out\n        /* \"#utility.yul\":8353:8575   */\n    tag_24:\n        /* \"#utility.yul\":8446:8450   */\n      0x00\n        /* \"#utility.yul\":8484:8486   */\n      0x20\n        /* \"#utility.yul\":8473:8482   */\n      dup3\n        /* \"#utility.yul\":8469:8487   */\n      add\n        /* \"#utility.yul\":8461:8487   */\n      swap1\n      pop\n        /* \"#utility.yul\":8497:8568   */\n      tag_345\n        /* \"#utility.yul\":8565:8566   */\n      0x00\n        /* \"#utility.yul\":8554:8563   */\n      dup4\n        /* \"#utility.yul\":8550:8567   */\n      add\n        /* \"#utility.yul\":8541:8547   */\n      dup5\n        /* \"#utility.yul\":8497:8568   */\n      tag_187\n      jump\t// in\n    tag_345:\n        /* \"#utility.yul\":8353:8575   */\n      swap3\n      swap2\n      pop\n      pop\n      jump\t// out\n        /* \"#utility.yul\":8581:8707   */\n    tag_188:\n        /* \"#utility.yul\":8618:8625   */\n      0x00\n        /* \"#utility.yul\":8658:8700   */\n      0xffffffffffffffffffffffffffffffffffffffff\n        /* \"#utility.yul\":8651:8656   */\n      dup3\n        /* \"#utility.yul\":8647:8701   */\n      and\n        /* \"#utility.yul\":8636:8701   */\n      swap1\n      pop\n        /* \"#utility.yul\":8581:8707   */\n      swap2\n      swap1\n      pop\n      jump\t// out\n        /* \"#utility.yul\":8713:8809   */\n    tag_189:\n        /* \"#utility.yul\":8750:8757   */\n      0x00\n        /* \"#utility.yul\":8779:8803   */\n      tag_348\n        /* \"#utility.yul\":8797:8802   */\n      dup3\n        /* \"#utility.yul\":8779:8803   */\n      tag_188\n      jump\t// in\n    tag_348:\n        /* \"#utility.yul\":8768:8803   */\n      swap1\n      pop\n        /* \"#utility.yul\":8713:8809   */\n      swap2\n      swap1\n      pop\n      jump\t// out\n        /* \"#utility.yul\":8815:8933   */\n    tag_190:\n        /* \"#utility.yul\":8902:8926   */\n      tag_350\n        /* \"#utility.yul\":8920:8925   */\n      dup2\n        /* \"#utility.yul\":8902:8926   */\n      tag_189\n      jump\t// in\n    tag_350:\n        /* \"#utility.yul\":8897:8900   */\n      dup3\n        /* \"#utility.yul\":8890:8927   */\n      mstore\n        /* \"#utility.yul\":8815:8933   */\n      pop\n      pop\n      jump\t// out\n        /* \"#utility.yul\":8939:9161   */\n    tag_31:\n        /* \"#utility.yul\":9032:9036   */\n      0x00\n        /* \"#utility.yul\":9070:9072   */\n      0x20\n        /* \"#utility.yul\":9059:9068   */\n      dup3\n        /* \"#utility.yul\":9055:9073   */\n      add\n        /* \"#utility.yul\":9047:9073   */\n      swap1\n      pop\n        /* \"#utility.yul\":9083:9154   */\n      tag_352\n        /* \"#utility.yul\":9151:9152   */\n      0x00\n        /* \"#utility.yul\":9140:9149   */\n      dup4\n        /* \"#utility.yul\":9136:9153   */\n      add\n        /* \"#utility.yul\":9127:9133   */\n      dup5\n        /* \"#utility.yul\":9083:9154   */\n      tag_190\n      jump\t// in\n    tag_352:\n        /* \"#utility.yul\":8939:9161   */\n      swap3\n      swap2\n      pop\n      pop\n      jump\t// out\n        /* \"#utility.yul\":9167:10308   */\n    tag_34:\n        /* \"#utility.yul\":9297:9303   */\n      0x00\n        /* \"#utility.yul\":9305:9311   */\n      dup1\n        /* \"#utility.yul\":9313:9319   */\n      0x00\n        /* \"#utility.yul\":9321:9327   */\n      dup1\n        /* \"#utility.yul\":9329:9335   */\n      0x00\n        /* \"#utility.yul\":9378:9381   */\n      0xa0\n        /* \"#utility.yul\":9366:9375   */\n      dup7\n        /* \"#utility.yul\":9357:9364   */\n      dup9\n        /* \"#utility.yul\":9353:9376   */\n      sub\n        /* \"#utility.yul\":9349:9382   */\n      slt\n        /* \"#utility.yul\":9346:9466   */\n      iszero\n      tag_354\n      jumpi\n        /* \"#utility.yul\":9385:9464   */\n      tag_355\n      tag_163\n      jump\t// in\n    tag_355:\n        /* \"#utility.yul\":9346:9466   */\n    tag_354:\n        /* \"#utility.yul\":9505:9506   */\n      0x00\n        /* \"#utility.yul\":9530:9583   */\n      tag_356\n        /* \"#utility.yul\":9575:9582   */\n      dup9\n        /* \"#utility.yul\":9566:9572   */\n      dup3\n        /* \"#utility.yul\":9555:9564   */\n      dup10\n        /* \"#utility.yul\":9551:9573   */\n      add\n        /* \"#utility.yul\":9530:9583   */\n      tag_170\n      jump\t// in\n    tag_356:\n        /* \"#utility.yul\":9520:9583   */\n      swap6\n      pop\n        /* \"#utility.yul\":9476:9593   */\n      pop\n        /* \"#utility.yul\":9632:9634   */\n      0x20\n        /* \"#utility.yul\":9658:9711   */\n      tag_357\n        /* \"#utility.yul\":9703:9710   */\n      dup9\n        /* \"#utility.yul\":9694:9700   */\n      dup3\n        /* \"#utility.yul\":9683:9692   */\n      dup10\n        /* \"#utility.yul\":9679:9701   */\n      add\n        /* \"#utility.yul\":9658:9711   */\n      tag_167\n      jump\t// in\n    tag_357:\n        /* \"#utility.yul\":9648:9711   */\n      swap5\n      pop\n        /* \"#utility.yul\":9603:9721   */\n      pop\n        /* \"#utility.yul\":9760:9762   */\n      0x40\n        /* \"#utility.yul\":9786:9839   */\n      tag_358\n        /* \"#utility.yul\":9831:9838   */\n      dup9\n        /* \"#utility.yul\":9822:9828   */\n      dup3\n        /* \"#utility.yul\":9811:9820   */\n      dup10\n        /* \"#utility.yul\":9807:9829   */\n      add\n        /* \"#utility.yul\":9786:9839   */\n      tag_167\n      jump\t// in\n    tag_358:\n        /* \"#utility.yul\":9776:9839   */\n      swap4\n      pop\n        /* \"#utility.yul\":9731:9849   */\n      pop\n        /* \"#utility.yul\":9888:9890   */\n      0x60\n        /* \"#utility.yul\":9914:9967   */\n      tag_359\n        /* \"#utility.yul\":9959:9966   */\n      dup9\n        /* \"#utility.yul\":9950:9956   */\n      dup3\n        /* \"#utility.yul\":9939:9948   */\n      dup10\n        /* \"#utility.yul\":9935:9957   */\n      add\n        /* \"#utility.yul\":9914:9967   */\n      tag_167\n      jump\t// in\n    tag_359:\n        /* \"#utility.yul\":9904:9967   */\n      swap3\n      pop\n        /* \"#utility.yul\":9859:9977   */\n      pop\n        /* \"#utility.yul\":10044:10047   */\n      0x80\n        /* \"#utility.yul\":10033:10042   */\n      dup7\n        /* \"#utility.yul\":10029:10048   */\n      add\n        /* \"#utility.yul\":10016:10049   */\n      calldataload\n        /* \"#utility.yul\":10076:10094   */\n      0xffffffffffffffff\n        /* \"#utility.yul\":10068:10074   */\n      dup2\n        /* \"#utility.yul\":10065:10095   */\n      gt\n        /* \"#utility.yul\":10062:10179   */\n      iszero\n      tag_360\n      jumpi\n        /* \"#utility.yul\":10098:10177   */\n      tag_361\n      tag_164\n      jump\t// in\n    tag_361:\n        /* \"#utility.yul\":10062:10179   */\n    tag_360:\n        /* \"#utility.yul\":10203:10291   */\n      tag_362\n        /* \"#utility.yul\":10283:10290   */\n      dup9\n        /* \"#utility.yul\":10274:10280   */\n      dup3\n        /* \"#utility.yul\":10263:10272   */\n      dup10\n        /* \"#utility.yul\":10259:10281   */\n      add\n        /* \"#utility.yul\":10203:10291   */\n      tag_183\n      jump\t// in\n    tag_362:\n        /* \"#utility.yul\":10193:10291   */\n      swap2\n      pop\n        /* \"#utility.yul\":9987:10301   */\n      pop\n        /* \"#utility.yul\":9167:10308   */\n      swap3\n      swap6\n      pop\n      swap3\n      swap6\n      swap1\n      swap4\n      pop\n      jump\t// out\n        /* \"#utility.yul\":10314:10432   */\n    tag_191:\n        /* \"#utility.yul\":10401:10425   */\n      tag_364\n        /* \"#utility.yul\":10419:10424   */\n      dup2\n        /* \"#utility.yul\":10401:10425   */\n      tag_165\n      jump\t// in\n    tag_364:\n        /* \"#utility.yul\":10396:10399   */\n      dup3\n        /* \"#utility.yul\":10389:10426   */\n      mstore\n        /* \"#utility.yul\":10314:10432   */\n      pop\n      pop\n      jump\t// out\n        /* \"#utility.yul\":10438:10660   */\n    tag_40:\n        /* \"#utility.yul\":10531:10535   */\n      0x00\n        /* \"#utility.yul\":10569:10571   */\n      0x20\n        /* \"#utility.yul\":10558:10567   */\n      dup3\n        /* \"#utility.yul\":10554:10572   */\n      add\n        /* \"#utility.yul\":10546:10572   */\n      swap1\n      pop\n        /* \"#utility.yul\":10582:10653   */\n      tag_366\n        /* \"#utility.yul\":10650:10651   */\n      0x00\n        /* \"#utility.yul\":10639:10648   */\n      dup4\n        /* \"#utility.yul\":10635:10652   */\n      add\n        /* \"#utility.yul\":10626:10632   */\n      dup5\n        /* \"#utility.yul\":10582:10653   */\n      tag_191\n      jump\t// in\n    tag_366:\n        /* \"#utility.yul\":10438:10660   */\n      swap3\n      swap2\n      pop\n      pop\n      jump\t// out\n        /* \"#utility.yul\":10666:10774   */\n    tag_192:\n        /* \"#utility.yul\":10743:10767   */\n      tag_368\n        /* \"#utility.yul\":10761:10766   */\n      dup2\n        /* \"#utility.yul\":10743:10767   */\n      tag_165\n      jump\t// in\n    tag_368:\n        /* \"#utility.yul\":10738:10741   */\n      dup3\n        /* \"#utility.yul\":10731:10768   */\n      mstore\n        /* \"#utility.yul\":10666:10774   */\n      pop\n      pop\n      jump\t// out\n        /* \"#utility.yul\":10780:10888   */\n    tag_193:\n        /* \"#utility.yul\":10857:10881   */\n      tag_370\n        /* \"#utility.yul\":10875:10880   */\n      dup2\n        /* \"#utility.yul\":10857:10881   */\n      tag_168\n      jump\t// in\n    tag_370:\n        /* \"#utility.yul\":10852:10855   */\n      dup3\n        /* \"#utility.yul\":10845:10882   */\n      mstore\n        /* \"#utility.yul\":10780:10888   */\n      pop\n      pop\n      jump\t// out\n        /* \"#utility.yul\":10894:11018   */\n    tag_194:\n        /* \"#utility.yul\":10971:10977   */\n      0x00\n        /* \"#utility.yul\":11005:11010   */\n      dup2\n        /* \"#utility.yul\":10999:11011   */\n      mload\n        /* \"#utility.yul\":10989:11011   */\n      swap1\n      pop\n        /* \"#utility.yul\":10894:11018   */\n      swap2\n      swap1\n      pop\n      jump\t// out\n        /* \"#utility.yul\":11024:11208   */\n    tag_195:\n        /* \"#utility.yul\":11123:11134   */\n      0x00\n        /* \"#utility.yul\":11157:11163   */\n      dup3\n        /* \"#utility.yul\":11152:11155   */\n      dup3\n        /* \"#utility.yul\":11145:11164   */\n      mstore\n        /* \"#utility.yul\":11197:11201   */\n      0x20\n        /* \"#utility.yul\":11192:11195   */\n      dup3\n        /* \"#utility.yul\":11188:11202   */\n      add\n        /* \"#utility.yul\":11173:11202   */\n      swap1\n      pop\n        /* \"#utility.yul\":11024:11208   */\n      swap3\n      swap2\n      pop\n      pop\n      jump\t// out\n        /* \"#utility.yul\":11214:11356   */\n    tag_196:\n        /* \"#utility.yul\":11291:11295   */\n      0x00\n        /* \"#utility.yul\":11314:11317   */\n      dup2\n        /* \"#utility.yul\":11306:11317   */\n      swap1\n      pop\n        /* \"#utility.yul\":11344:11348   */\n      0x20\n        /* \"#utility.yul\":11339:11342   */\n      dup3\n        /* \"#utility.yul\":11335:11349   */\n      add\n        /* \"#utility.yul\":11327:11349   */\n      swap1\n      pop\n        /* \"#utility.yul\":11214:11356   */\n      swap2\n      swap1\n      pop\n      jump\t// out\n        /* \"#utility.yul\":11362:11461   */\n    tag_197:\n        /* \"#utility.yul\":11414:11420   */\n      0x00\n        /* \"#utility.yul\":11448:11453   */\n      dup2\n        /* \"#utility.yul\":11442:11454   */\n      mload\n        /* \"#utility.yul\":11432:11454   */\n      swap1\n      pop\n        /* \"#utility.yul\":11362:11461   */\n      swap2\n      swap1\n      pop\n      jump\t// out\n        /* \"#utility.yul\":11467:11626   */\n    tag_198:\n        /* \"#utility.yul\":11541:11552   */\n      0x00\n        /* \"#utility.yul\":11575:11581   */\n      dup3\n        /* \"#utility.yul\":11570:11573   */\n      dup3\n        /* \"#utility.yul\":11563:11582   */\n      mstore\n        /* \"#utility.yul\":11615:11619   */\n      0x20\n        /* \"#utility.yul\":11610:11613   */\n      dup3\n        /* \"#utility.yul\":11606:11620   */\n      add\n        /* \"#utility.yul\":11591:11620   */\n      swap1\n      pop\n        /* \"#utility.yul\":11467:11626   */\n      swap3\n      swap2\n      pop\n      pop\n      jump\t// out\n        /* \"#utility.yul\":11632:11878   */\n    tag_199:\n        /* \"#utility.yul\":11713:11714   */\n      0x00\n        /* \"#utility.yul\":11723:11836   */\n    tag_377:\n        /* \"#utility.yul\":11737:11743   */\n      dup4\n        /* \"#utility.yul\":11734:11735   */\n      dup2\n        /* \"#utility.yul\":11731:11744   */\n      lt\n        /* \"#utility.yul\":11723:11836   */\n      iszero\n      tag_379\n      jumpi\n        /* \"#utility.yul\":11822:11823   */\n      dup1\n        /* \"#utility.yul\":11817:11820   */\n      dup3\n        /* \"#utility.yul\":11813:11824   */\n      add\n        /* \"#utility.yul\":11807:11825   */\n      mload\n        /* \"#utility.yul\":11803:11804   */\n      dup2\n        /* \"#utility.yul\":11798:11801   */\n      dup5\n        /* \"#utility.yul\":11794:11805   */\n      add\n        /* \"#utility.yul\":11787:11826   */\n      mstore\n        /* \"#utility.yul\":11759:11761   */\n      0x20\n        /* \"#utility.yul\":11756:11757   */\n      dup2\n        /* \"#utility.yul\":11752:11762   */\n      add\n        /* \"#utility.yul\":11747:11762   */\n      swap1\n      pop\n        /* \"#utility.yul\":11723:11836   */\n      jump(tag_377)\n    tag_379:\n        /* \"#utility.yul\":11870:11871   */\n      0x00\n        /* \"#utility.yul\":11861:11867   */\n      dup5\n        /* \"#utility.yul\":11856:11859   */\n      dup5\n        /* \"#utility.yul\":11852:11868   */\n      add\n        /* \"#utility.yul\":11845:11872   */\n      mstore\n        /* \"#utility.yul\":11694:11878   */\n      pop\n        /* \"#utility.yul\":11632:11878   */\n      pop\n      pop\n      pop\n      jump\t// out\n        /* \"#utility.yul\":11884:12241   */\n    tag_200:\n        /* \"#utility.yul\":11962:11965   */\n      0x00\n        /* \"#utility.yul\":11990:12029   */\n      tag_381\n        /* \"#utility.yul\":12023:12028   */\n      dup3\n        /* \"#utility.yul\":11990:12029   */\n      tag_197\n      jump\t// in\n    tag_381:\n        /* \"#utility.yul\":12045:12106   */\n      tag_382\n        /* \"#utility.yul\":12099:12105   */\n      dup2\n        /* \"#utility.yul\":12094:12097   */\n      dup6\n        /* \"#utility.yul\":12045:12106   */\n      tag_198\n      jump\t// in\n    tag_382:\n        /* \"#utility.yul\":12038:12106   */\n      swap4\n      pop\n        /* \"#utility.yul\":12115:12180   */\n      tag_383\n        /* \"#utility.yul\":12173:12179   */\n      dup2\n        /* \"#utility.yul\":12168:12171   */\n      dup6\n        /* \"#utility.yul\":12161:12165   */\n      0x20\n        /* \"#utility.yul\":12154:12159   */\n      dup7\n        /* \"#utility.yul\":12150:12166   */\n      add\n        /* \"#utility.yul\":12115:12180   */\n      tag_199\n      jump\t// in\n    tag_383:\n        /* \"#utility.yul\":12205:12234   */\n      tag_384\n        /* \"#utility.yul\":12227:12233   */\n      dup2\n        /* \"#utility.yul\":12205:12234   */\n      tag_172\n      jump\t// in\n    tag_384:\n        /* \"#utility.yul\":12200:12203   */\n      dup5\n        /* \"#utility.yul\":12196:12235   */\n      add\n        /* \"#utility.yul\":12189:12235   */\n      swap2\n      pop\n        /* \"#utility.yul\":11966:12241   */\n      pop\n        /* \"#utility.yul\":11884:12241   */\n      swap3\n      swap2\n      pop\n      pop\n      jump\t// out\n        /* \"#utility.yul\":12247:12443   */\n    tag_201:\n        /* \"#utility.yul\":12336:12346   */\n      0x00\n        /* \"#utility.yul\":12371:12437   */\n      tag_386\n        /* \"#utility.yul\":12433:12436   */\n      dup4\n        /* \"#utility.yul\":12425:12431   */\n      dup4\n        /* \"#utility.yul\":12371:12437   */\n      tag_200\n      jump\t// in\n    tag_386:\n        /* \"#utility.yul\":12357:12437   */\n      swap1\n      pop\n        /* \"#utility.yul\":12247:12443   */\n      swap3\n      swap2\n      pop\n      pop\n      jump\t// out\n        /* \"#utility.yul\":12449:12572   */\n    tag_202:\n        /* \"#utility.yul\":12529:12533   */\n      0x00\n        /* \"#utility.yul\":12561:12565   */\n      0x20\n        /* \"#utility.yul\":12556:12559   */\n      dup3\n        /* \"#utility.yul\":12552:12566   */\n      add\n        /* \"#utility.yul\":12544:12566   */\n      swap1\n      pop\n        /* \"#utility.yul\":12449:12572   */\n      swap2\n      swap1\n      pop\n      jump\t// out\n        /* \"#utility.yul\":12606:13577   */\n    tag_203:\n        /* \"#utility.yul\":12735:12738   */\n      0x00\n        /* \"#utility.yul\":12764:12828   */\n      tag_389\n        /* \"#utility.yul\":12822:12827   */\n      dup3\n        /* \"#utility.yul\":12764:12828   */\n      tag_194\n      jump\t// in\n    tag_389:\n        /* \"#utility.yul\":12844:12930   */\n      tag_390\n        /* \"#utility.yul\":12923:12929   */\n      dup2\n        /* \"#utility.yul\":12918:12921   */\n      dup6\n        /* \"#utility.yul\":12844:12930   */\n      tag_195\n      jump\t// in\n    tag_390:\n        /* \"#utility.yul\":12837:12930   */\n      swap4\n      pop\n        /* \"#utility.yul\":12956:12959   */\n      dup4\n        /* \"#utility.yul\":13001:13005   */\n      0x20\n        /* \"#utility.yul\":12993:12999   */\n      dup3\n        /* \"#utility.yul\":12989:13006   */\n      mul\n        /* \"#utility.yul\":12984:12987   */\n      dup6\n        /* \"#utility.yul\":12980:13007   */\n      add\n        /* \"#utility.yul\":13031:13097   */\n      tag_391\n        /* \"#utility.yul\":13091:13096   */\n      dup6\n        /* \"#utility.yul\":13031:13097   */\n      tag_196\n      jump\t// in\n    tag_391:\n        /* \"#utility.yul\":13120:13127   */\n      dup1\n        /* \"#utility.yul\":13151:13152   */\n      0x00\n        /* \"#utility.yul\":13136:13532   */\n    tag_392:\n        /* \"#utility.yul\":13161:13167   */\n      dup6\n        /* \"#utility.yul\":13158:13159   */\n      dup2\n        /* \"#utility.yul\":13155:13168   */\n      lt\n        /* \"#utility.yul\":13136:13532   */\n      iszero\n      tag_394\n      jumpi\n        /* \"#utility.yul\":13232:13241   */\n      dup5\n        /* \"#utility.yul\":13226:13230   */\n      dup5\n        /* \"#utility.yul\":13222:13242   */\n      sub\n        /* \"#utility.yul\":13217:13220   */\n      dup10\n        /* \"#utility.yul\":13210:13243   */\n      mstore\n        /* \"#utility.yul\":13283:13289   */\n      dup2\n        /* \"#utility.yul\":13277:13290   */\n      mload\n        /* \"#utility.yul\":13311:13395   */\n      tag_395\n        /* \"#utility.yul\":13390:13394   */\n      dup6\n        /* \"#utility.yul\":13375:13388   */\n      dup3\n        /* \"#utility.yul\":13311:13395   */\n      tag_201\n      jump\t// in\n    tag_395:\n        /* \"#utility.yul\":13303:13395   */\n      swap5\n      pop\n        /* \"#utility.yul\":13418:13488   */\n      tag_396\n        /* \"#utility.yul\":13481:13487   */\n      dup4\n        /* \"#utility.yul\":13418:13488   */\n      tag_202\n      jump\t// in\n    tag_396:\n        /* \"#utility.yul\":13408:13488   */\n      swap3\n      pop\n        /* \"#utility.yul\":13517:13521   */\n      0x20\n        /* \"#utility.yul\":13512:13515   */\n      dup11\n        /* \"#utility.yul\":13508:13522   */\n      add\n        /* \"#utility.yul\":13501:13522   */\n      swap10\n      pop\n        /* \"#utility.yul\":13196:13532   */\n      pop\n        /* \"#utility.yul\":13183:13184   */\n      0x01\n        /* \"#utility.yul\":13180:13181   */\n      dup2\n        /* \"#utility.yul\":13176:13185   */\n      add\n        /* \"#utility.yul\":13171:13185   */\n      swap1\n      pop\n        /* \"#utility.yul\":13136:13532   */\n      jump(tag_392)\n    tag_394:\n        /* \"#utility.yul\":13140:13154   */\n      pop\n        /* \"#utility.yul\":13548:13552   */\n      dup3\n        /* \"#utility.yul\":13541:13552   */\n      swap8\n      pop\n        /* \"#utility.yul\":13568:13571   */\n      dup8\n        /* \"#utility.yul\":13561:13571   */\n      swap6\n      pop\n        /* \"#utility.yul\":12740:13577   */\n      pop\n      pop\n      pop\n      pop\n      pop\n        /* \"#utility.yul\":12606:13577   */\n      swap3\n      swap2\n      pop\n      pop\n      jump\t// out\n        /* \"#utility.yul\":13583:13697   */\n    tag_204:\n        /* \"#utility.yul\":13650:13656   */\n      0x00\n        /* \"#utility.yul\":13684:13689   */\n      dup2\n        /* \"#utility.yul\":13678:13690   */\n      mload\n        /* \"#utility.yul\":13668:13690   */\n      swap1\n      pop\n        /* \"#utility.yul\":13583:13697   */\n      swap2\n      swap1\n      pop\n      jump\t// out\n        /* \"#utility.yul\":13703:13877   */\n    tag_205:\n        /* \"#utility.yul\":13792:13803   */\n      0x00\n        /* \"#utility.yul\":13826:13832   */\n      dup3\n        /* \"#utility.yul\":13821:13824   */\n      dup3\n        /* \"#utility.yul\":13814:13833   */\n      mstore\n        /* \"#utility.yul\":13866:13870   */\n      0x20\n        /* \"#utility.yul\":13861:13864   */\n      dup3\n        /* \"#utility.yul\":13857:13871   */\n      add\n        /* \"#utility.yul\":13842:13871   */\n      swap1\n      pop\n        /* \"#utility.yul\":13703:13877   */\n      swap3\n      swap2\n      pop\n      pop\n      jump\t// out\n        /* \"#utility.yul\":13883:14015   */\n    tag_206:\n        /* \"#utility.yul\":13950:13954   */\n      0x00\n        /* \"#utility.yul\":13973:13976   */\n      dup2\n        /* \"#utility.yul\":13965:13976   */\n      swap1\n      pop\n        /* \"#utility.yul\":14003:14007   */\n      0x20\n        /* \"#utility.yul\":13998:14001   */\n      dup3\n        /* \"#utility.yul\":13994:14008   */\n      add\n        /* \"#utility.yul\":13986:14008   */\n      swap1\n      pop\n        /* \"#utility.yul\":13883:14015   */\n      swap2\n      swap1\n      pop\n      jump\t// out\n        /* \"#utility.yul\":14021:14200   */\n    tag_207:\n        /* \"#utility.yul\":14090:14100   */\n      0x00\n        /* \"#utility.yul\":14111:14157   */\n      tag_401\n        /* \"#utility.yul\":14153:14156   */\n      dup4\n        /* \"#utility.yul\":14145:14151   */\n      dup4\n        /* \"#utility.yul\":14111:14157   */\n      tag_193\n      jump\t// in\n    tag_401:\n        /* \"#utility.yul\":14189:14193   */\n      0x20\n        /* \"#utility.yul\":14184:14187   */\n      dup4\n        /* \"#utility.yul\":14180:14194   */\n      add\n        /* \"#utility.yul\":14166:14194   */\n      swap1\n      pop\n        /* \"#utility.yul\":14021:14200   */\n      swap3\n      swap2\n      pop\n      pop\n      jump\t// out\n        /* \"#utility.yul\":14206:14319   */\n    tag_208:\n        /* \"#utility.yul\":14276:14280   */\n      0x00\n        /* \"#utility.yul\":14308:14312   */\n      0x20\n        /* \"#utility.yul\":14303:14306   */\n      dup3\n        /* \"#utility.yul\":14299:14313   */\n      add\n        /* \"#utility.yul\":14291:14313   */\n      swap1\n      pop\n        /* \"#utility.yul\":14206:14319   */\n      swap2\n      swap1\n      pop\n      jump\t// out\n        /* \"#utility.yul\":14355:15067   */\n    tag_209:\n        /* \"#utility.yul\":14464:14467   */\n      0x00\n        /* \"#utility.yul\":14493:14547   */\n      tag_404\n        /* \"#utility.yul\":14541:14546   */\n      dup3\n        /* \"#utility.yul\":14493:14547   */\n      tag_204\n      jump\t// in\n    tag_404:\n        /* \"#utility.yul\":14563:14639   */\n      tag_405\n        /* \"#utility.yul\":14632:14638   */\n      dup2\n        /* \"#utility.yul\":14627:14630   */\n      dup6\n        /* \"#utility.yul\":14563:14639   */\n      tag_205\n      jump\t// in\n    tag_405:\n        /* \"#utility.yul\":14556:14639   */\n      swap4\n      pop\n        /* \"#utility.yul\":14663:14719   */\n      tag_406\n        /* \"#utility.yul\":14713:14718   */\n      dup4\n        /* \"#utility.yul\":14663:14719   */\n      tag_206\n      jump\t// in\n    tag_406:\n        /* \"#utility.yul\":14742:14749   */\n      dup1\n        /* \"#utility.yul\":14773:14774   */\n      0x00\n        /* \"#utility.yul\":14758:15042   */\n    tag_407:\n        /* \"#utility.yul\":14783:14789   */\n      dup4\n        /* \"#utility.yul\":14780:14781   */\n      dup2\n        /* \"#utility.yul\":14777:14790   */\n      lt\n        /* \"#utility.yul\":14758:15042   */\n      iszero\n      tag_409\n      jumpi\n        /* \"#utility.yul\":14859:14865   */\n      dup2\n        /* \"#utility.yul\":14853:14866   */\n      mload\n        /* \"#utility.yul\":14886:14949   */\n      tag_410\n        /* \"#utility.yul\":14945:14948   */\n      dup9\n        /* \"#utility.yul\":14930:14943   */\n      dup3\n        /* \"#utility.yul\":14886:14949   */\n      tag_207\n      jump\t// in\n    tag_410:\n        /* \"#utility.yul\":14879:14949   */\n      swap8\n      pop\n        /* \"#utility.yul\":14972:15032   */\n      tag_411\n        /* \"#utility.yul\":15025:15031   */\n      dup4\n        /* \"#utility.yul\":14972:15032   */\n      tag_208\n      jump\t// in\n    tag_411:\n        /* \"#utility.yul\":14962:15032   */\n      swap3\n      pop\n        /* \"#utility.yul\":14818:15042   */\n      pop\n        /* \"#utility.yul\":14805:14806   */\n      0x01\n        /* \"#utility.yul\":14802:14803   */\n      dup2\n        /* \"#utility.yul\":14798:14807   */\n      add\n        /* \"#utility.yul\":14793:14807   */\n      swap1\n      pop\n        /* \"#utility.yul\":14758:15042   */\n      jump(tag_407)\n    tag_409:\n        /* \"#utility.yul\":14762:14776   */\n      pop\n        /* \"#utility.yul\":15058:15061   */\n      dup6\n        /* \"#utility.yul\":15051:15061   */\n      swap4\n      pop\n        /* \"#utility.yul\":14469:15067   */\n      pop\n      pop\n      pop\n        /* \"#utility.yul\":14355:15067   */\n      swap3\n      swap2\n      pop\n      pop\n      jump\t// out\n        /* \"#utility.yul\":15073:15187   */\n    tag_210:\n        /* \"#utility.yul\":15140:15146   */\n      0x00\n        /* \"#utility.yul\":15174:15179   */\n      dup2\n        /* \"#utility.yul\":15168:15180   */\n      mload\n        /* \"#utility.yul\":15158:15180   */\n      swap1\n      pop\n        /* \"#utility.yul\":15073:15187   */\n      swap2\n      swap1\n      pop\n      jump\t// out\n        /* \"#utility.yul\":15193:15367   */\n    tag_211:\n        /* \"#utility.yul\":15282:15293   */\n      0x00\n        /* \"#utility.yul\":15316:15322   */\n      dup3\n        /* \"#utility.yul\":15311:15314   */\n      dup3\n        /* \"#utility.yul\":15304:15323   */\n      mstore\n        /* \"#utility.yul\":15356:15360   */\n      0x20\n        /* \"#utility.yul\":15351:15354   */\n      dup3\n        /* \"#utility.yul\":15347:15361   */\n      add\n        /* \"#utility.yul\":15332:15361   */\n      swap1\n      pop\n        /* \"#utility.yul\":15193:15367   */\n      swap3\n      swap2\n      pop\n      pop\n      jump\t// out\n        /* \"#utility.yul\":15373:15505   */\n    tag_212:\n        /* \"#utility.yul\":15440:15444   */\n      0x00\n        /* \"#utility.yul\":15463:15466   */\n      dup2\n        /* \"#utility.yul\":15455:15466   */\n      swap1\n      pop\n        /* \"#utility.yul\":15493:15497   */\n      0x20\n        /* \"#utility.yul\":15488:15491   */\n      dup3\n        /* \"#utility.yul\":15484:15498   */\n      add\n        /* \"#utility.yul\":15476:15498   */\n      swap1\n      pop\n        /* \"#utility.yul\":15373:15505   */\n      swap2\n      swap1\n      pop\n      jump\t// out\n        /* \"#utility.yul\":15511:15690   */\n    tag_213:\n        /* \"#utility.yul\":15580:15590   */\n      0x00\n        /* \"#utility.yul\":15601:15647   */\n      tag_416\n        /* \"#utility.yul\":15643:15646   */\n      dup4\n        /* \"#utility.yul\":15635:15641   */\n      dup4\n        /* \"#utility.yul\":15601:15647   */\n      tag_192\n      jump\t// in\n    tag_416:\n        /* \"#utility.yul\":15679:15683   */\n      0x20\n        /* \"#utility.yul\":15674:15677   */\n      dup4\n        /* \"#utility.yul\":15670:15684   */\n      add\n        /* \"#utility.yul\":15656:15684   */\n      swap1\n      pop\n        /* \"#utility.yul\":15511:15690   */\n      swap3\n      swap2\n      pop\n      pop\n      jump\t// out\n        /* \"#utility.yul\":15696:15809   */\n    tag_214:\n        /* \"#utility.yul\":15766:15770   */\n      0x00\n        /* \"#utility.yul\":15798:15802   */\n      0x20\n        /* \"#utility.yul\":15793:15796   */\n      dup3\n        /* \"#utility.yul\":15789:15803   */\n      add\n        /* \"#utility.yul\":15781:15803   */\n      swap1\n      pop\n        /* \"#utility.yul\":15696:15809   */\n      swap2\n      swap1\n      pop\n      jump\t// out\n        /* \"#utility.yul\":15845:16557   */\n    tag_215:\n        /* \"#utility.yul\":15954:15957   */\n      0x00\n        /* \"#utility.yul\":15983:16037   */\n      tag_419\n        /* \"#utility.yul\":16031:16036   */\n      dup3\n        /* \"#utility.yul\":15983:16037   */\n      tag_210\n      jump\t// in\n    tag_419:\n        /* \"#utility.yul\":16053:16129   */\n      tag_420\n        /* \"#utility.yul\":16122:16128   */\n      dup2\n        /* \"#utility.yul\":16117:16120   */\n      dup6\n        /* \"#utility.yul\":16053:16129   */\n      tag_211\n      jump\t// in\n    tag_420:\n        /* \"#utility.yul\":16046:16129   */\n      swap4\n      pop\n        /* \"#utility.yul\":16153:16209   */\n      tag_421\n        /* \"#utility.yul\":16203:16208   */\n      dup4\n        /* \"#utility.yul\":16153:16209   */\n      tag_212\n      jump\t// in\n    tag_421:\n        /* \"#utility.yul\":16232:16239   */\n      dup1\n        /* \"#utility.yul\":16263:16264   */\n      0x00\n        /* \"#utility.yul\":16248:16532   */\n    tag_422:\n        /* \"#utility.yul\":16273:16279   */\n      dup4\n        /* \"#utility.yul\":16270:16271   */\n      dup2\n        /* \"#utility.yul\":16267:16280   */\n      lt\n        /* \"#utility.yul\":16248:16532   */\n      iszero\n      tag_424\n      jumpi\n        /* \"#utility.yul\":16349:16355   */\n      dup2\n        /* \"#utility.yul\":16343:16356   */\n      mload\n        /* \"#utility.yul\":16376:16439   */\n      tag_425\n        /* \"#utility.yul\":16435:16438   */\n      dup9\n        /* \"#utility.yul\":16420:16433   */\n      dup3\n        /* \"#utility.yul\":16376:16439   */\n      tag_213\n      jump\t// in\n    tag_425:\n        /* \"#utility.yul\":16369:16439   */\n      swap8\n      pop\n        /* \"#utility.yul\":16462:16522   */\n      tag_426\n        /* \"#utility.yul\":16515:16521   */\n      dup4\n        /* \"#utility.yul\":16462:16522   */\n      tag_214\n      jump\t// in\n    tag_426:\n        /* \"#utility.yul\":16452:16522   */\n      swap3\n      pop\n        /* \"#utility.yul\":16308:16532   */\n      pop\n        /* \"#utility.yul\":16295:16296   */\n      0x01\n        /* \"#utility.yul\":16292:16293   */\n      dup2\n        /* \"#utility.yul\":16288:16297   */\n      add\n        /* \"#utility.yul\":16283:16297   */\n      swap1\n      pop\n        /* \"#utility.yul\":16248:16532   */\n      jump(tag_422)\n    tag_424:\n        /* \"#utility.yul\":16252:16266   */\n      pop\n        /* \"#utility.yul\":16548:16551   */\n      dup6\n        /* \"#utility.yul\":16541:16551   */\n      swap4\n      pop\n        /* \"#utility.yul\":15959:16557   */\n      pop\n      pop\n      pop\n        /* \"#utility.yul\":15845:16557   */\n      swap3\n      swap2\n      pop\n      pop\n      jump\t// out\n        /* \"#utility.yul\":16653:18262   */\n    tag_216:\n        /* \"#utility.yul\":16772:16775   */\n      0x00\n        /* \"#utility.yul\":16808:16812   */\n      0xc0\n        /* \"#utility.yul\":16803:16806   */\n      dup4\n        /* \"#utility.yul\":16799:16813   */\n      add\n        /* \"#utility.yul\":16902:16906   */\n      0x00\n        /* \"#utility.yul\":16895:16900   */\n      dup4\n        /* \"#utility.yul\":16891:16907   */\n      add\n        /* \"#utility.yul\":16885:16908   */\n      mload\n        /* \"#utility.yul\":16921:16984   */\n      tag_428\n        /* \"#utility.yul\":16978:16982   */\n      0x00\n        /* \"#utility.yul\":16973:16976   */\n      dup7\n        /* \"#utility.yul\":16969:16983   */\n      add\n        /* \"#utility.yul\":16955:16967   */\n      dup3\n        /* \"#utility.yul\":16921:16984   */\n      tag_192\n      jump\t// in\n    tag_428:\n        /* \"#utility.yul\":16823:16994   */\n      pop\n        /* \"#utility.yul\":17086:17090   */\n      0x20\n        /* \"#utility.yul\":17079:17084   */\n      dup4\n        /* \"#utility.yul\":17075:17091   */\n      add\n        /* \"#utility.yul\":17069:17092   */\n      mload\n        /* \"#utility.yul\":17105:17168   */\n      tag_429\n        /* \"#utility.yul\":17162:17166   */\n      0x20\n        /* \"#utility.yul\":17157:17160   */\n      dup7\n        /* \"#utility.yul\":17153:17167   */\n      add\n        /* \"#utility.yul\":17139:17151   */\n      dup3\n        /* \"#utility.yul\":17105:17168   */\n      tag_192\n      jump\t// in\n    tag_429:\n        /* \"#utility.yul\":17004:17178   */\n      pop\n        /* \"#utility.yul\":17263:17267   */\n      0x40\n        /* \"#utility.yul\":17256:17261   */\n      dup4\n        /* \"#utility.yul\":17252:17268   */\n      add\n        /* \"#utility.yul\":17246:17269   */\n      mload\n        /* \"#utility.yul\":17282:17345   */\n      tag_430\n        /* \"#utility.yul\":17339:17343   */\n      0x40\n        /* \"#utility.yul\":17334:17337   */\n      dup7\n        /* \"#utility.yul\":17330:17344   */\n      add\n        /* \"#utility.yul\":17316:17328   */\n      dup3\n        /* \"#utility.yul\":17282:17345   */\n      tag_193\n      jump\t// in\n    tag_430:\n        /* \"#utility.yul\":17188:17355   */\n      pop\n        /* \"#utility.yul\":17443:17447   */\n      0x60\n        /* \"#utility.yul\":17436:17441   */\n      dup4\n        /* \"#utility.yul\":17432:17448   */\n      add\n        /* \"#utility.yul\":17426:17449   */\n      mload\n        /* \"#utility.yul\":17496:17499   */\n      dup5\n        /* \"#utility.yul\":17490:17494   */\n      dup3\n        /* \"#utility.yul\":17486:17500   */\n      sub\n        /* \"#utility.yul\":17479:17483   */\n      0x60\n        /* \"#utility.yul\":17474:17477   */\n      dup7\n        /* \"#utility.yul\":17470:17484   */\n      add\n        /* \"#utility.yul\":17463:17501   */\n      mstore\n        /* \"#utility.yul\":17522:17645   */\n      tag_431\n        /* \"#utility.yul\":17640:17644   */\n      dup3\n        /* \"#utility.yul\":17626:17638   */\n      dup3\n        /* \"#utility.yul\":17522:17645   */\n      tag_203\n      jump\t// in\n    tag_431:\n        /* \"#utility.yul\":17514:17645   */\n      swap2\n      pop\n        /* \"#utility.yul\":17365:17656   */\n      pop\n        /* \"#utility.yul\":17749:17753   */\n      0x80\n        /* \"#utility.yul\":17742:17747   */\n      dup4\n        /* \"#utility.yul\":17738:17754   */\n      add\n        /* \"#utility.yul\":17732:17755   */\n      mload\n        /* \"#utility.yul\":17802:17805   */\n      dup5\n        /* \"#utility.yul\":17796:17800   */\n      dup3\n        /* \"#utility.yul\":17792:17806   */\n      sub\n        /* \"#utility.yul\":17785:17789   */\n      0x80\n        /* \"#utility.yul\":17780:17783   */\n      dup7\n        /* \"#utility.yul\":17776:17790   */\n      add\n        /* \"#utility.yul\":17769:17807   */\n      mstore\n        /* \"#utility.yul\":17828:17931   */\n      tag_432\n        /* \"#utility.yul\":17926:17930   */\n      dup3\n        /* \"#utility.yul\":17912:17924   */\n      dup3\n        /* \"#utility.yul\":17828:17931   */\n      tag_209\n      jump\t// in\n    tag_432:\n        /* \"#utility.yul\":17820:17931   */\n      swap2\n      pop\n        /* \"#utility.yul\":17666:17942   */\n      pop\n        /* \"#utility.yul\":18042:18046   */\n      0xa0\n        /* \"#utility.yul\":18035:18040   */\n      dup4\n        /* \"#utility.yul\":18031:18047   */\n      add\n        /* \"#utility.yul\":18025:18048   */\n      mload\n        /* \"#utility.yul\":18095:18098   */\n      dup5\n        /* \"#utility.yul\":18089:18093   */\n      dup3\n        /* \"#utility.yul\":18085:18099   */\n      sub\n        /* \"#utility.yul\":18078:18082   */\n      0xa0\n        /* \"#utility.yul\":18073:18076   */\n      dup7\n        /* \"#utility.yul\":18069:18083   */\n      add\n        /* \"#utility.yul\":18062:18100   */\n      mstore\n        /* \"#utility.yul\":18121:18224   */\n      tag_433\n        /* \"#utility.yul\":18219:18223   */\n      dup3\n        /* \"#utility.yul\":18205:18217   */\n      dup3\n        /* \"#utility.yul\":18121:18224   */\n      tag_215\n      jump\t// in\n    tag_433:\n        /* \"#utility.yul\":18113:18224   */\n      swap2\n      pop\n        /* \"#utility.yul\":17952:18235   */\n      pop\n        /* \"#utility.yul\":18252:18256   */\n      dup1\n        /* \"#utility.yul\":18245:18256   */\n      swap2\n      pop\n        /* \"#utility.yul\":16777:18262   */\n      pop\n        /* \"#utility.yul\":16653:18262   */\n      swap3\n      swap2\n      pop\n      pop\n      jump\t// out\n        /* \"#utility.yul\":18268:18641   */\n    tag_45:\n        /* \"#utility.yul\":18411:18415   */\n      0x00\n        /* \"#utility.yul\":18449:18451   */\n      0x20\n        /* \"#utility.yul\":18438:18447   */\n      dup3\n        /* \"#utility.yul\":18434:18452   */\n      add\n        /* \"#utility.yul\":18426:18452   */\n      swap1\n      pop\n        /* \"#utility.yul\":18498:18507   */\n      dup2\n        /* \"#utility.yul\":18492:18496   */\n      dup2\n        /* \"#utility.yul\":18488:18508   */\n      sub\n        /* \"#utility.yul\":18484:18485   */\n      0x00\n        /* \"#utility.yul\":18473:18482   */\n      dup4\n        /* \"#utility.yul\":18469:18486   */\n      add\n        /* \"#utility.yul\":18462:18509   */\n      mstore\n        /* \"#utility.yul\":18526:18634   */\n      tag_435\n        /* \"#utility.yul\":18629:18633   */\n      dup2\n        /* \"#utility.yul\":18620:18626   */\n      dup5\n        /* \"#utility.yul\":18526:18634   */\n      tag_216\n      jump\t// in\n    tag_435:\n        /* \"#utility.yul\":18518:18634   */\n      swap1\n      pop\n        /* \"#utility.yul\":18268:18641   */\n      swap3\n      swap2\n      pop\n      pop\n      jump\t// out\n        /* \"#utility.yul\":18743:19960   */\n    tag_217:\n        /* \"#utility.yul\":18868:18871   */\n      0x00\n        /* \"#utility.yul\":18904:18908   */\n      0xa0\n        /* \"#utility.yul\":18899:18902   */\n      dup4\n        /* \"#utility.yul\":18895:18909   */\n      add\n        /* \"#utility.yul\":18993:18997   */\n      0x00\n        /* \"#utility.yul\":18986:18991   */\n      dup4\n        /* \"#utility.yul\":18982:18998   */\n      add\n        /* \"#utility.yul\":18976:18999   */\n      mload\n        /* \"#utility.yul\":19012:19075   */\n      tag_437\n        /* \"#utility.yul\":19069:19073   */\n      0x00\n        /* \"#utility.yul\":19064:19067   */\n      dup7\n        /* \"#utility.yul\":19060:19074   */\n      add\n        /* \"#utility.yul\":19046:19058   */\n      dup3\n        /* \"#utility.yul\":19012:19075   */\n      tag_193\n      jump\t// in\n    tag_437:\n        /* \"#utility.yul\":18919:19085   */\n      pop\n        /* \"#utility.yul\":19171:19175   */\n      0x20\n        /* \"#utility.yul\":19164:19169   */\n      dup4\n        /* \"#utility.yul\":19160:19176   */\n      add\n        /* \"#utility.yul\":19154:19177   */\n      mload\n        /* \"#utility.yul\":19190:19253   */\n      tag_438\n        /* \"#utility.yul\":19247:19251   */\n      0x20\n        /* \"#utility.yul\":19242:19245   */\n      dup7\n        /* \"#utility.yul\":19238:19252   */\n      add\n        /* \"#utility.yul\":19224:19236   */\n      dup3\n        /* \"#utility.yul\":19190:19253   */\n      tag_192\n      jump\t// in\n    tag_438:\n        /* \"#utility.yul\":19095:19263   */\n      pop\n        /* \"#utility.yul\":19352:19356   */\n      0x40\n        /* \"#utility.yul\":19345:19350   */\n      dup4\n        /* \"#utility.yul\":19341:19357   */\n      add\n        /* \"#utility.yul\":19335:19358   */\n      mload\n        /* \"#utility.yul\":19371:19434   */\n      tag_439\n        /* \"#utility.yul\":19428:19432   */\n      0x40\n        /* \"#utility.yul\":19423:19426   */\n      dup7\n        /* \"#utility.yul\":19419:19433   */\n      add\n        /* \"#utility.yul\":19405:19417   */\n      dup3\n        /* \"#utility.yul\":19371:19434   */\n      tag_192\n      jump\t// in\n    tag_439:\n        /* \"#utility.yul\":19273:19444   */\n      pop\n        /* \"#utility.yul\":19535:19539   */\n      0x60\n        /* \"#utility.yul\":19528:19533   */\n      dup4\n        /* \"#utility.yul\":19524:19540   */\n      add\n        /* \"#utility.yul\":19518:19541   */\n      mload\n        /* \"#utility.yul\":19554:19617   */\n      tag_440\n        /* \"#utility.yul\":19611:19615   */\n      0x60\n        /* \"#utility.yul\":19606:19609   */\n      dup7\n        /* \"#utility.yul\":19602:19616   */\n      add\n        /* \"#utility.yul\":19588:19600   */\n      dup3\n        /* \"#utility.yul\":19554:19617   */\n      tag_192\n      jump\t// in\n    tag_440:\n        /* \"#utility.yul\":19454:19627   */\n      pop\n        /* \"#utility.yul\":19720:19724   */\n      0x80\n        /* \"#utility.yul\":19713:19718   */\n      dup4\n        /* \"#utility.yul\":19709:19725   */\n      add\n        /* \"#utility.yul\":19703:19726   */\n      mload\n        /* \"#utility.yul\":19773:19776   */\n      dup5\n        /* \"#utility.yul\":19767:19771   */\n      dup3\n        /* \"#utility.yul\":19763:19777   */\n      sub\n        /* \"#utility.yul\":19756:19760   */\n      0x80\n        /* \"#utility.yul\":19751:19754   */\n      dup7\n        /* \"#utility.yul\":19747:19761   */\n      add\n        /* \"#utility.yul\":19740:19778   */\n      mstore\n        /* \"#utility.yul\":19799:19922   */\n      tag_441\n        /* \"#utility.yul\":19917:19921   */\n      dup3\n        /* \"#utility.yul\":19903:19915   */\n      dup3\n        /* \"#utility.yul\":19799:19922   */\n      tag_203\n      jump\t// in\n    tag_441:\n        /* \"#utility.yul\":19791:19922   */\n      swap2\n      pop\n        /* \"#utility.yul\":19637:19933   */\n      pop\n        /* \"#utility.yul\":19950:19954   */\n      dup1\n        /* \"#utility.yul\":19943:19954   */\n      swap2\n      pop\n        /* \"#utility.yul\":18873:19960   */\n      pop\n        /* \"#utility.yul\":18743:19960   */\n      swap3\n      swap2\n      pop\n      pop\n      jump\t// out\n        /* \"#utility.yul\":19966:20351   */\n    tag_50:\n        /* \"#utility.yul\":20115:20119   */\n      0x00\n        /* \"#utility.yul\":20153:20155   */\n      0x20\n        /* \"#utility.yul\":20142:20151   */\n      dup3\n        /* \"#utility.yul\":20138:20156   */\n      add\n        /* \"#utility.yul\":20130:20156   */\n      swap1\n      pop\n        /* \"#utility.yul\":20202:20211   */\n      dup2\n        /* \"#utility.yul\":20196:20200   */\n      dup2\n        /* \"#utility.yul\":20192:20212   */\n      sub\n        /* \"#utility.yul\":20188:20189   */\n      0x00\n        /* \"#utility.yul\":20177:20186   */\n      dup4\n        /* \"#utility.yul\":20173:20190   */\n      add\n        /* \"#utility.yul\":20166:20213   */\n      mstore\n        /* \"#utility.yul\":20230:20344   */\n      tag_443\n        /* \"#utility.yul\":20339:20343   */\n      dup2\n        /* \"#utility.yul\":20330:20336   */\n      dup5\n        /* \"#utility.yul\":20230:20344   */\n      tag_217\n      jump\t// in\n    tag_443:\n        /* \"#utility.yul\":20222:20344   */\n      swap1\n      pop\n        /* \"#utility.yul\":19966:20351   */\n      swap3\n      swap2\n      pop\n      pop\n      jump\t// out\n        /* \"#utility.yul\":20357:20526   */\n    tag_218:\n        /* \"#utility.yul\":20441:20452   */\n      0x00\n        /* \"#utility.yul\":20475:20481   */\n      dup3\n        /* \"#utility.yul\":20470:20473   */\n      dup3\n        /* \"#utility.yul\":20463:20482   */\n      mstore\n        /* \"#utility.yul\":20515:20519   */\n      0x20\n        /* \"#utility.yul\":20510:20513   */\n      dup3\n        /* \"#utility.yul\":20506:20520   */\n      add\n        /* \"#utility.yul\":20491:20520   */\n      swap1\n      pop\n        /* \"#utility.yul\":20357:20526   */\n      swap3\n      swap2\n      pop\n      pop\n      jump\t// out\n        /* \"#utility.yul\":20532:20769   */\n    tag_219:\n        /* \"#utility.yul\":20672:20706   */\n      0x4f6e6c792074686520636f6e7472616374206f776e65722063616e2070657266\n        /* \"#utility.yul\":20668:20669   */\n      0x00\n        /* \"#utility.yul\":20660:20666   */\n      dup3\n        /* \"#utility.yul\":20656:20670   */\n      add\n        /* \"#utility.yul\":20649:20707   */\n      mstore\n        /* \"#utility.yul\":20741:20761   */\n      0x6f726d2074686973206f7065726174696f6e0000000000000000000000000000\n        /* \"#utility.yul\":20736:20738   */\n      0x20\n        /* \"#utility.yul\":20728:20734   */\n      dup3\n        /* \"#utility.yul\":20724:20739   */\n      add\n        /* \"#utility.yul\":20717:20762   */\n      mstore\n        /* \"#utility.yul\":20532:20769   */\n      pop\n      jump\t// out\n        /* \"#utility.yul\":20775:21141   */\n    tag_220:\n        /* \"#utility.yul\":20917:20920   */\n      0x00\n        /* \"#utility.yul\":20938:21005   */\n      tag_447\n        /* \"#utility.yul\":21002:21004   */\n      0x32\n        /* \"#utility.yul\":20997:21000   */\n      dup4\n        /* \"#utility.yul\":20938:21005   */\n      tag_218\n      jump\t// in\n    tag_447:\n        /* \"#utility.yul\":20931:21005   */\n      swap2\n      pop\n        /* \"#utility.yul\":21014:21107   */\n      tag_448\n        /* \"#utility.yul\":21103:21106   */\n      dup3\n        /* \"#utility.yul\":21014:21107   */\n      tag_219\n      jump\t// in\n    tag_448:\n        /* \"#utility.yul\":21132:21134   */\n      0x40\n        /* \"#utility.yul\":21127:21130   */\n      dup3\n        /* \"#utility.yul\":21123:21135   */\n      add\n        /* \"#utility.yul\":21116:21135   */\n      swap1\n      pop\n        /* \"#utility.yul\":20775:21141   */\n      swap2\n      swap1\n      pop\n      jump\t// out\n        /* \"#utility.yul\":21147:21566   */\n    tag_54:\n        /* \"#utility.yul\":21313:21317   */\n      0x00\n        /* \"#utility.yul\":21351:21353   */\n      0x20\n        /* \"#utility.yul\":21340:21349   */\n      dup3\n        /* \"#utility.yul\":21336:21354   */\n      add\n        /* \"#utility.yul\":21328:21354   */\n      swap1\n      pop\n        /* \"#utility.yul\":21400:21409   */\n      dup2\n        /* \"#utility.yul\":21394:21398   */\n      dup2\n        /* \"#utility.yul\":21390:21410   */\n      sub\n        /* \"#utility.yul\":21386:21387   */\n      0x00\n        /* \"#utility.yul\":21375:21384   */\n      dup4\n        /* \"#utility.yul\":21371:21388   */\n      add\n        /* \"#utility.yul\":21364:21411   */\n      mstore\n        /* \"#utility.yul\":21428:21559   */\n      tag_450\n        /* \"#utility.yul\":21554:21558   */\n      dup2\n        /* \"#utility.yul\":21428:21559   */\n      tag_220\n      jump\t// in\n    tag_450:\n        /* \"#utility.yul\":21420:21559   */\n      swap1\n      pop\n        /* \"#utility.yul\":21147:21566   */\n      swap2\n      swap1\n      pop\n      jump\t// out\n        /* \"#utility.yul\":21572:21752   */\n    tag_66:\n        /* \"#utility.yul\":21620:21697   */\n      0x4e487b7100000000000000000000000000000000000000000000000000000000\n        /* \"#utility.yul\":21617:21618   */\n      0x00\n        /* \"#utility.yul\":21610:21698   */\n      mstore\n        /* \"#utility.yul\":21717:21721   */\n      0x32\n        /* \"#utility.yul\":21714:21715   */\n      0x04\n        /* \"#utility.yul\":21707:21722   */\n      mstore\n        /* \"#utility.yul\":21741:21745   */\n      0x24\n        /* \"#utility.yul\":21738:21739   */\n      0x00\n        /* \"#utility.yul\":21731:21746   */\n      revert\n        /* \"#utility.yul\":21758:21938   */\n    tag_221:\n        /* \"#utility.yul\":21806:21883   */\n      0x4e487b7100000000000000000000000000000000000000000000000000000000\n        /* \"#utility.yul\":21803:21804   */\n      0x00\n        /* \"#utility.yul\":21796:21884   */\n      mstore\n        /* \"#utility.yul\":21903:21907   */\n      0x11\n        /* \"#utility.yul\":21900:21901   */\n      0x04\n        /* \"#utility.yul\":21893:21908   */\n      mstore\n        /* \"#utility.yul\":21927:21931   */\n      0x24\n        /* \"#utility.yul\":21924:21925   */\n      0x00\n        /* \"#utility.yul\":21917:21932   */\n      revert\n        /* \"#utility.yul\":21944:22177   */\n    tag_76:\n        /* \"#utility.yul\":21983:21986   */\n      0x00\n        /* \"#utility.yul\":22006:22030   */\n      tag_454\n        /* \"#utility.yul\":22024:22029   */\n      dup3\n        /* \"#utility.yul\":22006:22030   */\n      tag_168\n      jump\t// in\n    tag_454:\n        /* \"#utility.yul\":21997:22030   */\n      swap2\n      pop\n        /* \"#utility.yul\":22052:22118   */\n      0xffffffffffffffffffffffffffffffffffffffffffffffffffffffffffffffff\n        /* \"#utility.yul\":22045:22050   */\n      dup3\n        /* \"#utility.yul\":22042:22119   */\n      sub\n        /* \"#utility.yul\":22039:22142   */\n      tag_455\n      jumpi\n        /* \"#utility.yul\":22122:22140   */\n      tag_456\n      tag_221\n      jump\t// in\n    tag_456:\n        /* \"#utility.yul\":22039:22142   */\n    tag_455:\n        /* \"#utility.yul\":22169:22170   */\n      0x01\n        /* \"#utility.yul\":22162:22167   */\n      dup3\n        /* \"#utility.yul\":22158:22171   */\n      add\n        /* \"#utility.yul\":22151:22171   */\n      swap1\n      pop\n        /* \"#utility.yul\":21944:22177   */\n      swap2\n      swap1\n      pop\n      jump\t// out\n        /* \"#utility.yul\":22183:22262   */\n    tag_222:\n        /* \"#utility.yul\":22222:22229   */\n      0x00\n        /* \"#utility.yul\":22251:22256   */\n      dup2\n        /* \"#utility.yul\":22240:22256   */\n      swap1\n      pop\n        /* \"#utility.yul\":22183:22262   */\n      swap2\n      swap1\n      pop\n      jump\t// out\n        /* \"#utility.yul\":22268:22425   */\n    tag_223:\n        /* \"#utility.yul\":22373:22418   */\n      tag_459\n        /* \"#utility.yul\":22393:22417   */\n      tag_460\n        /* \"#utility.yul\":22411:22416   */\n      dup3\n        /* \"#utility.yul\":22393:22417   */\n      tag_165\n      jump\t// in\n    tag_460:\n        /* \"#utility.yul\":22373:22418   */\n      tag_222\n      jump\t// in\n    tag_459:\n        /* \"#utility.yul\":22368:22371   */\n      dup3\n        /* \"#utility.yul\":22361:22419   */\n      mstore\n        /* \"#utility.yul\":22268:22425   */\n      pop\n      pop\n      jump\t// out\n        /* \"#utility.yul\":22431:22969   */\n    tag_82:\n        /* \"#utility.yul\":22599:22602   */\n      0x00\n        /* \"#utility.yul\":22614:22689   */\n      tag_462\n        /* \"#utility.yul\":22685:22688   */\n      dup3\n        /* \"#utility.yul\":22676:22682   */\n      dup7\n        /* \"#utility.yul\":22614:22689   */\n      tag_223\n      jump\t// in\n    tag_462:\n        /* \"#utility.yul\":22714:22716   */\n      0x20\n        /* \"#utility.yul\":22709:22712   */\n      dup3\n        /* \"#utility.yul\":22705:22717   */\n      add\n        /* \"#utility.yul\":22698:22717   */\n      swap2\n      pop\n        /* \"#utility.yul\":22727:22802   */\n      tag_463\n        /* \"#utility.yul\":22798:22801   */\n      dup3\n        /* \"#utility.yul\":22789:22795   */\n      dup6\n        /* \"#utility.yul\":22727:22802   */\n      tag_223\n      jump\t// in\n    tag_463:\n        /* \"#utility.yul\":22827:22829   */\n      0x20\n        /* \"#utility.yul\":22822:22825   */\n      dup3\n        /* \"#utility.yul\":22818:22830   */\n      add\n        /* \"#utility.yul\":22811:22830   */\n      swap2\n      pop\n        /* \"#utility.yul\":22840:22915   */\n      tag_464\n        /* \"#utility.yul\":22911:22914   */\n      dup3\n        /* \"#utility.yul\":22902:22908   */\n      dup5\n        /* \"#utility.yul\":22840:22915   */\n      tag_223\n      jump\t// in\n    tag_464:\n        /* \"#utility.yul\":22940:22942   */\n      0x20\n        /* \"#utility.yul\":22935:22938   */\n      dup3\n        /* \"#utility.yul\":22931:22943   */\n      add\n        /* \"#utility.yul\":22924:22943   */\n      swap2\n      pop\n        /* \"#utility.yul\":22960:22963   */\n      dup2\n        /* \"#utility.yul\":22953:22963   */\n      swap1\n      pop\n        /* \"#utility.yul\":22431:22969   */\n      swap5\n      swap4\n      pop\n      pop\n      pop\n      pop\n      jump\t// out\n        /* \"#utility.yul\":22975:23073   */\n    tag_224:\n        /* \"#utility.yul\":23026:23032   */\n      0x00\n        /* \"#utility.yul\":23060:23065   */\n      dup2\n        /* \"#utility.yul\":23054:23066   */\n      mload\n        /* \"#utility.yul\":23044:23066   */\n      swap1\n      pop\n        /* \"#utility.yul\":22975:23073   */\n      swap2\n      swap1\n      pop\n      jump\t// out\n        /* \"#utility.yul\":23079:23226   */\n    tag_225:\n        /* \"#utility.yul\":23180:23191   */\n      0x00\n        /* \"#utility.yul\":23217:23220   */\n      dup2\n        /* \"#utility.yul\":23202:23220   */\n      swap1\n      pop\n        /* \"#utility.yul\":23079:23226   */\n      swap3\n      swap2\n      pop\n      pop\n      jump\t// out\n        /* \"#utility.yul\":23232:23618   */\n    tag_226:\n        /* \"#utility.yul\":23336:23339   */\n      0x00\n        /* \"#utility.yul\":23364:23402   */\n      tag_468\n        /* \"#utility.yul\":23396:23401   */\n      dup3\n        /* \"#utility.yul\":23364:23402   */\n      tag_224\n      jump\t// in\n    tag_468:\n        /* \"#utility.yul\":23418:23506   */\n      tag_469\n        /* \"#utility.yul\":23499:23505   */\n      dup2\n        /* \"#utility.yul\":23494:23497   */\n      dup6\n        /* \"#utility.yul\":23418:23506   */\n      tag_225\n      jump\t// in\n    tag_469:\n        /* \"#utility.yul\":23411:23506   */\n      swap4\n      pop\n        /* \"#utility.yul\":23515:23580   */\n      tag_470\n        /* \"#utility.yul\":23573:23579   */\n      dup2\n        /* \"#utility.yul\":23568:23571   */\n      dup6\n        /* \"#utility.yul\":23561:23565   */\n      0x20\n        /* \"#utility.yul\":23554:23559   */\n      dup7\n        /* \"#utility.yul\":23550:23566   */\n      add\n        /* \"#utility.yul\":23515:23580   */\n      tag_199\n      jump\t// in\n    tag_470:\n        /* \"#utility.yul\":23605:23611   */\n      dup1\n        /* \"#utility.yul\":23600:23603   */\n      dup5\n        /* \"#utility.yul\":23596:23612   */\n      add\n        /* \"#utility.yul\":23589:23612   */\n      swap2\n      pop\n        /* \"#utility.yul\":23340:23618   */\n      pop\n        /* \"#utility.yul\":23232:23618   */\n      swap3\n      swap2\n      pop\n      pop\n      jump\t// out\n        /* \"#utility.yul\":23624:23804   */\n    tag_227:\n        /* \"#utility.yul\":23672:23749   */\n      0x4e487b7100000000000000000000000000000000000000000000000000000000\n        /* \"#utility.yul\":23669:23670   */\n      0x00\n        /* \"#utility.yul\":23662:23750   */\n      mstore\n        /* \"#utility.yul\":23769:23773   */\n      0x22\n        /* \"#utility.yul\":23766:23767   */\n      0x04\n        /* \"#utility.yul\":23759:23774   */\n      mstore\n        /* \"#utility.yul\":23793:23797   */\n      0x24\n        /* \"#utility.yul\":23790:23791   */\n      0x00\n        /* \"#utility.yul\":23783:23798   */\n      revert\n        /* \"#utility.yul\":23810:24130   */\n    tag_110:\n        /* \"#utility.yul\":23854:23860   */\n      0x00\n        /* \"#utility.yul\":23891:23892   */\n      0x02\n        /* \"#utility.yul\":23885:23889   */\n      dup3\n        /* \"#utility.yul\":23881:23893   */\n      div\n        /* \"#utility.yul\":23871:23893   */\n      swap1\n      pop\n        /* \"#utility.yul\":23938:23939   */\n      0x01\n        /* \"#utility.yul\":23932:23936   */\n      dup3\n        /* \"#utility.yul\":23928:23940   */\n      and\n        /* \"#utility.yul\":23959:23977   */\n      dup1\n        /* \"#utility.yul\":23949:24030   */\n      tag_473\n      jumpi\n        /* \"#utility.yul\":24015:24019   */\n      0x7f\n        /* \"#utility.yul\":24007:24013   */\n      dup3\n        /* \"#utility.yul\":24003:24020   */\n      and\n        /* \"#utility.yul\":23993:24020   */\n      swap2\n      pop\n        /* \"#utility.yul\":23949:24030   */\n    tag_473:\n        /* \"#utility.yul\":24077:24079   */\n      0x20\n        /* \"#utility.yul\":24069:24075   */\n      dup3\n        /* \"#utility.yul\":24066:24080   */\n      lt\n        /* \"#utility.yul\":24046:24064   */\n      dup2\n        /* \"#utility.yul\":24043:24081   */\n      sub\n        /* \"#utility.yul\":24040:24124   */\n      tag_474\n      jumpi\n        /* \"#utility.yul\":24096:24114   */\n      tag_475\n      tag_227\n      jump\t// in\n    tag_475:\n        /* \"#utility.yul\":24040:24124   */\n    tag_474:\n        /* \"#utility.yul\":23861:24130   */\n      pop\n        /* \"#utility.yul\":23810:24130   */\n      swap2\n      swap1\n      pop\n      jump\t// out\n        /* \"#utility.yul\":24136:24284   */\n    tag_228:\n        /* \"#utility.yul\":24238:24249   */\n      0x00\n        /* \"#utility.yul\":24275:24278   */\n      dup2\n        /* \"#utility.yul\":24260:24278   */\n      swap1\n      pop\n        /* \"#utility.yul\":24136:24284   */\n      swap3\n      swap2\n      pop\n      pop\n      jump\t// out\n        /* \"#utility.yul\":24290:24431   */\n    tag_229:\n        /* \"#utility.yul\":24339:24343   */\n      0x00\n        /* \"#utility.yul\":24362:24365   */\n      dup2\n        /* \"#utility.yul\":24354:24365   */\n      swap1\n      pop\n        /* \"#utility.yul\":24385:24388   */\n      dup2\n        /* \"#utility.yul\":24382:24383   */\n      0x00\n        /* \"#utility.yul\":24375:24389   */\n      mstore\n        /* \"#utility.yul\":24419:24423   */\n      0x20\n        /* \"#utility.yul\":24416:24417   */\n      0x00\n        /* \"#utility.yul\":24406:24424   */\n      keccak256\n        /* \"#utility.yul\":24398:24424   */\n      swap1\n      pop\n        /* \"#utility.yul\":24290:24431   */\n      swap2\n      swap1\n      pop\n      jump\t// out\n        /* \"#utility.yul\":24461:25335   */\n    tag_230:\n        /* \"#utility.yul\":24564:24567   */\n      0x00\n        /* \"#utility.yul\":24601:24606   */\n      dup2\n        /* \"#utility.yul\":24595:24607   */\n      sload\n        /* \"#utility.yul\":24630:24666   */\n      tag_479\n        /* \"#utility.yul\":24656:24665   */\n      dup2\n        /* \"#utility.yul\":24630:24666   */\n      tag_110\n      jump\t// in\n    tag_479:\n        /* \"#utility.yul\":24682:24771   */\n      tag_480\n        /* \"#utility.yul\":24764:24770   */\n      dup2\n        /* \"#utility.yul\":24759:24762   */\n      dup7\n        /* \"#utility.yul\":24682:24771   */\n      tag_228\n      jump\t// in\n    tag_480:\n        /* \"#utility.yul\":24675:24771   */\n      swap5\n      pop\n        /* \"#utility.yul\":24802:24803   */\n      0x01\n        /* \"#utility.yul\":24791:24800   */\n      dup3\n        /* \"#utility.yul\":24787:24804   */\n      and\n        /* \"#utility.yul\":24818:24819   */\n      0x00\n        /* \"#utility.yul\":24813:24979   */\n      dup2\n      eq\n      tag_482\n      jumpi\n        /* \"#utility.yul\":24993:24994   */\n      0x01\n        /* \"#utility.yul\":24988:25329   */\n      dup2\n      eq\n      tag_483\n      jumpi\n        /* \"#utility.yul\":24780:25329   */\n      jump(tag_481)\n        /* \"#utility.yul\":24813:24979   */\n    tag_482:\n        /* \"#utility.yul\":24897:24901   */\n      0xff\n        /* \"#utility.yul\":24893:24902   */\n      not\n        /* \"#utility.yul\":24882:24891   */\n      dup4\n        /* \"#utility.yul\":24878:24903   */\n      and\n        /* \"#utility.yul\":24873:24876   */\n      dup7\n        /* \"#utility.yul\":24866:24904   */\n      mstore\n        /* \"#utility.yul\":24959:24965   */\n      dup2\n        /* \"#utility.yul\":24952:24966   */\n      iszero\n        /* \"#utility.yul\":24945:24967   */\n      iszero\n        /* \"#utility.yul\":24937:24943   */\n      dup3\n        /* \"#utility.yul\":24933:24968   */\n      mul\n        /* \"#utility.yul\":24928:24931   */\n      dup7\n        /* \"#utility.yul\":24924:24969   */\n      add\n        /* \"#utility.yul\":24917:24969   */\n      swap4\n      pop\n        /* \"#utility.yul\":24813:24979   */\n      jump(tag_481)\n        /* \"#utility.yul\":24988:25329   */\n    tag_483:\n        /* \"#utility.yul\":25055:25093   */\n      tag_484\n        /* \"#utility.yul\":25087:25092   */\n      dup6\n        /* \"#utility.yul\":25055:25093   */\n      tag_229\n      jump\t// in\n    tag_484:\n        /* \"#utility.yul\":25115:25116   */\n      0x00\n        /* \"#utility.yul\":25129:25283   */\n    tag_485:\n        /* \"#utility.yul\":25143:25149   */\n      dup4\n        /* \"#utility.yul\":25140:25141   */\n      dup2\n        /* \"#utility.yul\":25137:25150   */\n      lt\n        /* \"#utility.yul\":25129:25283   */\n      iszero\n      tag_487\n      jumpi\n        /* \"#utility.yul\":25217:25224   */\n      dup2\n        /* \"#utility.yul\":25211:25225   */\n      sload\n        /* \"#utility.yul\":25207:25208   */\n      dup2\n        /* \"#utility.yul\":25202:25205   */\n      dup10\n        /* \"#utility.yul\":25198:25209   */\n      add\n        /* \"#utility.yul\":25191:25226   */\n      mstore\n        /* \"#utility.yul\":25267:25268   */\n      0x01\n        /* \"#utility.yul\":25258:25265   */\n      dup3\n        /* \"#utility.yul\":25254:25269   */\n      add\n        /* \"#utility.yul\":25243:25269   */\n      swap2\n      pop\n        /* \"#utility.yul\":25165:25169   */\n      0x20\n        /* \"#utility.yul\":25162:25163   */\n      dup2\n        /* \"#utility.yul\":25158:25170   */\n      add\n        /* \"#utility.yul\":25153:25170   */\n      swap1\n      pop\n        /* \"#utility.yul\":25129:25283   */\n      jump(tag_485)\n    tag_487:\n        /* \"#utility.yul\":25312:25318   */\n      dup4\n        /* \"#utility.yul\":25307:25310   */\n      dup9\n        /* \"#utility.yul\":25303:25319   */\n      add\n        /* \"#utility.yul\":25296:25319   */\n      swap6\n      pop\n        /* \"#utility.yul\":24995:25329   */\n      pop\n      pop\n        /* \"#utility.yul\":24780:25329   */\n    tag_481:\n      pop\n        /* \"#utility.yul\":24568:25335   */\n      pop\n      pop\n        /* \"#utility.yul\":24461:25335   */\n      swap3\n      swap2\n      pop\n      pop\n      jump\t// out\n        /* \"#utility.yul\":25341:25766   */\n    tag_90:\n        /* \"#utility.yul\":25516:25519   */\n      0x00\n        /* \"#utility.yul\":25538:25631   */\n      tag_489\n        /* \"#utility.yul\":25627:25630   */\n      dup3\n        /* \"#utility.yul\":25618:25624   */\n      dup6\n        /* \"#utility.yul\":25538:25631   */\n      tag_226\n      jump\t// in\n    tag_489:\n        /* \"#utility.yul\":25531:25631   */\n      swap2\n      pop\n        /* \"#utility.yul\":25648:25740   */\n      tag_490\n        /* \"#utility.yul\":25736:25739   */\n      dup3\n        /* \"#utility.yul\":25727:25733   */\n      dup5\n        /* \"#utility.yul\":25648:25740   */\n      tag_230\n      jump\t// in\n    tag_490:\n        /* \"#utility.yul\":25641:25740   */\n      swap2\n      pop\n        /* \"#utility.yul\":25757:25760   */\n      dup2\n        /* \"#utility.yul\":25750:25760   */\n      swap1\n      pop\n        /* \"#utility.yul\":25341:25766   */\n      swap4\n      swap3\n      pop\n      pop\n      pop\n      jump\t// out\n        /* \"#utility.yul\":25772:25947   */\n    tag_231:\n        /* \"#utility.yul\":25912:25939   */\n      0x44617461205573657220646f6573206e6f742065786973742e00000000000000\n        /* \"#utility.yul\":25908:25909   */\n      0x00\n        /* \"#utility.yul\":25900:25906   */\n      dup3\n        /* \"#utility.yul\":25896:25910   */\n      add\n        /* \"#utility.yul\":25889:25940   */\n      mstore\n        /* \"#utility.yul\":25772:25947   */\n      pop\n      jump\t// out\n        /* \"#utility.yul\":25953:26319   */\n    tag_232:\n        /* \"#utility.yul\":26095:26098   */\n      0x00\n        /* \"#utility.yul\":26116:26183   */\n      tag_493\n        /* \"#utility.yul\":26180:26182   */\n      0x19\n        /* \"#utility.yul\":26175:26178   */\n      dup4\n        /* \"#utility.yul\":26116:26183   */\n      tag_218\n      jump\t// in\n    tag_493:\n        /* \"#utility.yul\":26109:26183   */\n      swap2\n      pop\n        /* \"#utility.yul\":26192:26285   */\n      tag_494\n        /* \"#utility.yul\":26281:26284   */\n      dup3\n        /* \"#utility.yul\":26192:26285   */\n      tag_231\n      jump\t// in\n    tag_494:\n        /* \"#utility.yul\":26310:26312   */\n      0x20\n        /* \"#utility.yul\":26305:26308   */\n      dup3\n        /* \"#utility.yul\":26301:26313   */\n      add\n        /* \"#utility.yul\":26294:26313   */\n      swap1\n      pop\n        /* \"#utility.yul\":25953:26319   */\n      swap2\n      swap1\n      pop\n      jump\t// out\n        /* \"#utility.yul\":26325:26744   */\n    tag_105:\n        /* \"#utility.yul\":26491:26495   */\n      0x00\n        /* \"#utility.yul\":26529:26531   */\n      0x20\n        /* \"#utility.yul\":26518:26527   */\n      dup3\n        /* \"#utility.yul\":26514:26532   */\n      add\n        /* \"#utility.yul\":26506:26532   */\n      swap1\n      pop\n        /* \"#utility.yul\":26578:26587   */\n      dup2\n        /* \"#utility.yul\":26572:26576   */\n      dup2\n        /* \"#utility.yul\":26568:26588   */\n      sub\n        /* \"#utility.yul\":26564:26565   */\n      0x00\n        /* \"#utility.yul\":26553:26562   */\n      dup4\n        /* \"#utility.yul\":26549:26566   */\n      add\n        /* \"#utility.yul\":26542:26589   */\n      mstore\n        /* \"#utility.yul\":26606:26737   */\n      tag_496\n        /* \"#utility.yul\":26732:26736   */\n      dup2\n        /* \"#utility.yul\":26606:26737   */\n      tag_232\n      jump\t// in\n    tag_496:\n        /* \"#utility.yul\":26598:26737   */\n      swap1\n      pop\n        /* \"#utility.yul\":26325:26744   */\n      swap2\n      swap1\n      pop\n      jump\t// out\n        /* \"#utility.yul\":26750:26928   */\n    tag_233:\n        /* \"#utility.yul\":26890:26920   */\n      0x506572736f6e616c4461746120646f6573206e6f742065786973742e00000000\n        /* \"#utility.yul\":26886:26887   */\n      0x00\n        /* \"#utility.yul\":26878:26884   */\n      dup3\n        /* \"#utility.yul\":26874:26888   */\n      add\n        /* \"#utility.yul\":26867:26921   */\n      mstore\n        /* \"#utility.yul\":26750:26928   */\n      pop\n      jump\t// out\n        /* \"#utility.yul\":26934:27300   */\n    tag_234:\n        /* \"#utility.yul\":27076:27079   */\n      0x00\n        /* \"#utility.yul\":27097:27164   */\n      tag_499\n        /* \"#utility.yul\":27161:27163   */\n      0x1c\n        /* \"#utility.yul\":27156:27159   */\n      dup4\n        /* \"#utility.yul\":27097:27164   */\n      tag_218\n      jump\t// in\n    tag_499:\n        /* \"#utility.yul\":27090:27164   */\n      swap2\n      pop\n        /* \"#utility.yul\":27173:27266   */\n      tag_500\n        /* \"#utility.yul\":27262:27265   */\n      dup3\n        /* \"#utility.yul\":27173:27266   */\n      tag_233\n      jump\t// in\n    tag_500:\n        /* \"#utility.yul\":27291:27293   */\n      0x20\n        /* \"#utility.yul\":27286:27289   */\n      dup3\n        /* \"#utility.yul\":27282:27294   */\n      add\n        /* \"#utility.yul\":27275:27294   */\n      swap1\n      pop\n        /* \"#utility.yul\":26934:27300   */\n      swap2\n      swap1\n      pop\n      jump\t// out\n        /* \"#utility.yul\":27306:27725   */\n    tag_124:\n        /* \"#utility.yul\":27472:27476   */\n      0x00\n        /* \"#utility.yul\":27510:27512   */\n      0x20\n        /* \"#utility.yul\":27499:27508   */\n      dup3\n        /* \"#utility.yul\":27495:27513   */\n      add\n        /* \"#utility.yul\":27487:27513   */\n      swap1\n      pop\n        /* \"#utility.yul\":27559:27568   */\n      dup2\n        /* \"#utility.yul\":27553:27557   */\n      dup2\n        /* \"#utility.yul\":27549:27569   */\n      sub\n        /* \"#utility.yul\":27545:27546   */\n      0x00\n        /* \"#utility.yul\":27534:27543   */\n      dup4\n        /* \"#utility.yul\":27530:27547   */\n      add\n        /* \"#utility.yul\":27523:27570   */\n      mstore\n        /* \"#utility.yul\":27587:27718   */\n      tag_502\n        /* \"#utility.yul\":27713:27717   */\n      dup2\n        /* \"#utility.yul\":27587:27718   */\n      tag_234\n      jump\t// in\n    tag_502:\n        /* \"#utility.yul\":27579:27718   */\n      swap1\n      pop\n        /* \"#utility.yul\":27306:27725   */\n      swap2\n      swap1\n      pop\n      jump\t// out\n        /* \"#utility.yul\":27731:27824   */\n    tag_235:\n        /* \"#utility.yul\":27768:27774   */\n      0x00\n        /* \"#utility.yul\":27815:27817   */\n      0x20\n        /* \"#utility.yul\":27810:27812   */\n      0x1f\n        /* \"#utility.yul\":27803:27808   */\n      dup4\n        /* \"#utility.yul\":27799:27813   */\n      add\n        /* \"#utility.yul\":27795:27818   */\n      div\n        /* \"#utility.yul\":27785:27818   */\n      swap1\n      pop\n        /* \"#utility.yul\":27731:27824   */\n      swap2\n      swap1\n      pop\n      jump\t// out\n        /* \"#utility.yul\":27830:27937   */\n    tag_236:\n        /* \"#utility.yul\":27874:27882   */\n      0x00\n        /* \"#utility.yul\":27924:27929   */\n      dup3\n        /* \"#utility.yul\":27918:27922   */\n      dup3\n        /* \"#utility.yul\":27914:27930   */\n      shl\n        /* \"#utility.yul\":27893:27930   */\n      swap1\n      pop\n        /* \"#utility.yul\":27830:27937   */\n      swap3\n      swap2\n      pop\n      pop\n      jump\t// out\n        /* \"#utility.yul\":27943:28336   */\n    tag_237:\n        /* \"#utility.yul\":28012:28018   */\n      0x00\n        /* \"#utility.yul\":28062:28063   */\n      0x08\n        /* \"#utility.yul\":28050:28060   */\n      dup4\n        /* \"#utility.yul\":28046:28064   */\n      mul\n        /* \"#utility.yul\":28085:28182   */\n      tag_506\n        /* \"#utility.yul\":28115:28181   */\n      0xffffffffffffffffffffffffffffffffffffffffffffffffffffffffffffffff\n        /* \"#utility.yul\":28104:28113   */\n      dup3\n        /* \"#utility.yul\":28085:28182   */\n      tag_236\n      jump\t// in\n    tag_506:\n        /* \"#utility.yul\":28203:28242   */\n      tag_507\n        /* \"#utility.yul\":28233:28241   */\n      dup7\n        /* \"#utility.yul\":28222:28231   */\n      dup4\n        /* \"#utility.yul\":28203:28242   */\n      tag_236\n      jump\t// in\n    tag_507:\n        /* \"#utility.yul\":28191:28242   */\n      swap6\n      pop\n        /* \"#utility.yul\":28275:28279   */\n      dup1\n        /* \"#utility.yul\":28271:28280   */\n      not\n        /* \"#utility.yul\":28264:28269   */\n      dup5\n        /* \"#utility.yul\":28260:28281   */\n      and\n        /* \"#utility.yul\":28251:28281   */\n      swap4\n      pop\n        /* \"#utility.yul\":28324:28328   */\n      dup1\n        /* \"#utility.yul\":28314:28322   */\n      dup7\n        /* \"#utility.yul\":28310:28329   */\n      and\n        /* \"#utility.yul\":28303:28308   */\n      dup5\n        /* \"#utility.yul\":28300:28330   */\n      or\n        /* \"#utility.yul\":28290:28330   */\n      swap3\n      pop\n        /* \"#utility.yul\":28019:28336   */\n      pop\n      pop\n        /* \"#utility.yul\":27943:28336   */\n      swap4\n      swap3\n      pop\n      pop\n      pop\n      jump\t// out\n        /* \"#utility.yul\":28342:28402   */\n    tag_238:\n        /* \"#utility.yul\":28370:28373   */\n      0x00\n        /* \"#utility.yul\":28391:28396   */\n      dup2\n        /* \"#utility.yul\":28384:28396   */\n      swap1\n      pop\n        /* \"#utility.yul\":28342:28402   */\n      swap2\n      swap1\n      pop\n      jump\t// out\n        /* \"#utility.yul\":28408:28550   */\n    tag_239:\n        /* \"#utility.yul\":28458:28467   */\n      0x00\n        /* \"#utility.yul\":28491:28544   */\n      tag_510\n        /* \"#utility.yul\":28509:28543   */\n      tag_511\n        /* \"#utility.yul\":28518:28542   */\n      tag_512\n        /* \"#utility.yul\":28536:28541   */\n      dup5\n        /* \"#utility.yul\":28518:28542   */\n      tag_168\n      jump\t// in\n    tag_512:\n        /* \"#utility.yul\":28509:28543   */\n      tag_238\n      jump\t// in\n    tag_511:\n        /* \"#utility.yul\":28491:28544   */\n      tag_168\n      jump\t// in\n    tag_510:\n        /* \"#utility.yul\":28478:28544   */\n      swap1\n      pop\n        /* \"#utility.yul\":28408:28550   */\n      swap2\n      swap1\n      pop\n      jump\t// out\n        /* \"#utility.yul\":28556:28631   */\n    tag_240:\n        /* \"#utility.yul\":28599:28602   */\n      0x00\n        /* \"#utility.yul\":28620:28625   */\n      dup2\n        /* \"#utility.yul\":28613:28625   */\n      swap1\n      pop\n        /* \"#utility.yul\":28556:28631   */\n      swap2\n      swap1\n      pop\n      jump\t// out\n        /* \"#utility.yul\":28637:28906   */\n    tag_241:\n        /* \"#utility.yul\":28747:28786   */\n      tag_515\n        /* \"#utility.yul\":28778:28785   */\n      dup4\n        /* \"#utility.yul\":28747:28786   */\n      tag_239\n      jump\t// in\n    tag_515:\n        /* \"#utility.yul\":28808:28899   */\n      tag_516\n        /* \"#utility.yul\":28857:28898   */\n      tag_517\n        /* \"#utility.yul\":28881:28897   */\n      dup3\n        /* \"#utility.yul\":28857:28898   */\n      tag_240\n      jump\t// in\n    tag_517:\n        /* \"#utility.yul\":28849:28855   */\n      dup5\n        /* \"#utility.yul\":28842:28846   */\n      dup5\n        /* \"#utility.yul\":28836:28847   */\n      sload\n        /* \"#utility.yul\":28808:28899   */\n      tag_237\n      jump\t// in\n    tag_516:\n        /* \"#utility.yul\":28802:28806   */\n      dup3\n        /* \"#utility.yul\":28795:28900   */\n      sstore\n        /* \"#utility.yul\":28713:28906   */\n      pop\n        /* \"#utility.yul\":28637:28906   */\n      pop\n      pop\n      pop\n      jump\t// out\n        /* \"#utility.yul\":28912:28985   */\n    tag_242:\n        /* \"#utility.yul\":28957:28960   */\n      0x00\n        /* \"#utility.yul\":28912:28985   */\n      swap1\n      jump\t// out\n        /* \"#utility.yul\":28991:29180   */\n    tag_243:\n        /* \"#utility.yul\":29068:29100   */\n      tag_520\n      tag_242\n      jump\t// in\n    tag_520:\n        /* \"#utility.yul\":29109:29174   */\n      tag_521\n        /* \"#utility.yul\":29167:29173   */\n      dup2\n        /* \"#utility.yul\":29159:29165   */\n      dup5\n        /* \"#utility.yul\":29153:29157   */\n      dup5\n        /* \"#utility.yul\":29109:29174   */\n      tag_241\n      jump\t// in\n    tag_521:\n        /* \"#utility.yul\":29044:29180   */\n      pop\n        /* \"#utility.yul\":28991:29180   */\n      pop\n      pop\n      jump\t// out\n        /* \"#utility.yul\":29186:29372   */\n    tag_244:\n        /* \"#utility.yul\":29246:29366   */\n    tag_523:\n        /* \"#utility.yul\":29263:29266   */\n      dup2\n        /* \"#utility.yul\":29256:29261   */\n      dup2\n        /* \"#utility.yul\":29253:29267   */\n      lt\n        /* \"#utility.yul\":29246:29366   */\n      iszero\n      tag_525\n      jumpi\n        /* \"#utility.yul\":29317:29356   */\n      tag_526\n        /* \"#utility.yul\":29354:29355   */\n      0x00\n        /* \"#utility.yul\":29347:29352   */\n      dup3\n        /* \"#utility.yul\":29317:29356   */\n      tag_243\n      jump\t// in\n    tag_526:\n        /* \"#utility.yul\":29290:29291   */\n      0x01\n        /* \"#utility.yul\":29283:29288   */\n      dup2\n        /* \"#utility.yul\":29279:29292   */\n      add\n        /* \"#utility.yul\":29270:29292   */\n      swap1\n      pop\n        /* \"#utility.yul\":29246:29366   */\n      jump(tag_523)\n    tag_525:\n        /* \"#utility.yul\":29186:29372   */\n      pop\n      pop\n      jump\t// out\n        /* \"#utility.yul\":29378:29921   */\n    tag_245:\n        /* \"#utility.yul\":29479:29481   */\n      0x1f\n        /* \"#utility.yul\":29474:29477   */\n      dup3\n        /* \"#utility.yul\":29471:29482   */\n      gt\n        /* \"#utility.yul\":29468:29914   */\n      iszero\n      tag_528\n      jumpi\n        /* \"#utility.yul\":29513:29551   */\n      tag_529\n        /* \"#utility.yul\":29545:29550   */\n      dup2\n        /* \"#utility.yul\":29513:29551   */\n      tag_229\n      jump\t// in\n    tag_529:\n        /* \"#utility.yul\":29597:29626   */\n      tag_530\n        /* \"#utility.yul\":29615:29625   */\n      dup5\n        /* \"#utility.yul\":29597:29626   */\n      tag_235\n      jump\t// in\n    tag_530:\n        /* \"#utility.yul\":29587:29595   */\n      dup2\n        /* \"#utility.yul\":29583:29627   */\n      add\n        /* \"#utility.yul\":29780:29782   */\n      0x20\n        /* \"#utility.yul\":29768:29778   */\n      dup6\n        /* \"#utility.yul\":29765:29783   */\n      lt\n        /* \"#utility.yul\":29762:29811   */\n      iszero\n      tag_531\n      jumpi\n        /* \"#utility.yul\":29801:29809   */\n      dup2\n        /* \"#utility.yul\":29786:29809   */\n      swap1\n      pop\n        /* \"#utility.yul\":29762:29811   */\n    tag_531:\n        /* \"#utility.yul\":29824:29904   */\n      tag_532\n        /* \"#utility.yul\":29880:29902   */\n      tag_533\n        /* \"#utility.yul\":29898:29901   */\n      dup6\n        /* \"#utility.yul\":29880:29902   */\n      tag_235\n      jump\t// in\n    tag_533:\n        /* \"#utility.yul\":29870:29878   */\n      dup4\n        /* \"#utility.yul\":29866:29903   */\n      add\n        /* \"#utility.yul\":29853:29864   */\n      dup3\n        /* \"#utility.yul\":29824:29904   */\n      tag_244\n      jump\t// in\n    tag_532:\n        /* \"#utility.yul\":29483:29914   */\n      pop\n      pop\n        /* \"#utility.yul\":29468:29914   */\n    tag_528:\n        /* \"#utility.yul\":29378:29921   */\n      pop\n      pop\n      pop\n      jump\t// out\n        /* \"#utility.yul\":29927:30044   */\n    tag_246:\n        /* \"#utility.yul\":29981:29989   */\n      0x00\n        /* \"#utility.yul\":30031:30036   */\n      dup3\n        /* \"#utility.yul\":30025:30029   */\n      dup3\n        /* \"#utility.yul\":30021:30037   */\n      shr\n        /* \"#utility.yul\":30000:30037   */\n      swap1\n      pop\n        /* \"#utility.yul\":29927:30044   */\n      swap3\n      swap2\n      pop\n      pop\n      jump\t// out\n        /* \"#utility.yul\":30050:30219   */\n    tag_247:\n        /* \"#utility.yul\":30094:30100   */\n      0x00\n        /* \"#utility.yul\":30127:30178   */\n      tag_536\n        /* \"#utility.yul\":30175:30176   */\n      0x00\n        /* \"#utility.yul\":30171:30177   */\n      not\n        /* \"#utility.yul\":30163:30168   */\n      dup5\n        /* \"#utility.yul\":30160:30161   */\n      0x08\n        /* \"#utility.yul\":30156:30169   */\n      mul\n        /* \"#utility.yul\":30127:30178   */\n      tag_246\n      jump\t// in\n    tag_536:\n        /* \"#utility.yul\":30123:30179   */\n      not\n        /* \"#utility.yul\":30208:30212   */\n      dup1\n        /* \"#utility.yul\":30202:30206   */\n      dup4\n        /* \"#utility.yul\":30198:30213   */\n      and\n        /* \"#utility.yul\":30188:30213   */\n      swap2\n      pop\n        /* \"#utility.yul\":30101:30219   */\n      pop\n        /* \"#utility.yul\":30050:30219   */\n      swap3\n      swap2\n      pop\n      pop\n      jump\t// out\n        /* \"#utility.yul\":30224:30519   */\n    tag_248:\n        /* \"#utility.yul\":30300:30304   */\n      0x00\n        /* \"#utility.yul\":30446:30475   */\n      tag_538\n        /* \"#utility.yul\":30471:30474   */\n      dup4\n        /* \"#utility.yul\":30465:30469   */\n      dup4\n        /* \"#utility.yul\":30446:30475   */\n      tag_247\n      jump\t// in\n    tag_538:\n        /* \"#utility.yul\":30438:30475   */\n      swap2\n      pop\n        /* \"#utility.yul\":30508:30511   */\n      dup3\n        /* \"#utility.yul\":30505:30506   */\n      0x02\n        /* \"#utility.yul\":30501:30512   */\n      mul\n        /* \"#utility.yul\":30495:30499   */\n      dup3\n        /* \"#utility.yul\":30492:30513   */\n      or\n        /* \"#utility.yul\":30484:30513   */\n      swap1\n      pop\n        /* \"#utility.yul\":30224:30519   */\n      swap3\n      swap2\n      pop\n      pop\n      jump\t// out\n        /* \"#utility.yul\":30524:31919   */\n    tag_137:\n        /* \"#utility.yul\":30641:30678   */\n      tag_540\n        /* \"#utility.yul\":30674:30677   */\n      dup3\n        /* \"#utility.yul\":30641:30678   */\n      tag_197\n      jump\t// in\n    tag_540:\n        /* \"#utility.yul\":30743:30761   */\n      0xffffffffffffffff\n        /* \"#utility.yul\":30735:30741   */\n      dup2\n        /* \"#utility.yul\":30732:30762   */\n      gt\n        /* \"#utility.yul\":30729:30785   */\n      iszero\n      tag_541\n      jumpi\n        /* \"#utility.yul\":30765:30783   */\n      tag_542\n      tag_58\n      jump\t// in\n    tag_542:\n        /* \"#utility.yul\":30729:30785   */\n    tag_541:\n        /* \"#utility.yul\":30809:30847   */\n      tag_543\n        /* \"#utility.yul\":30841:30845   */\n      dup3\n        /* \"#utility.yul\":30835:30846   */\n      sload\n        /* \"#utility.yul\":30809:30847   */\n      tag_110\n      jump\t// in\n    tag_543:\n        /* \"#utility.yul\":30894:30961   */\n      tag_544\n        /* \"#utility.yul\":30954:30960   */\n      dup3\n        /* \"#utility.yul\":30946:30952   */\n      dup3\n        /* \"#utility.yul\":30940:30944   */\n      dup6\n        /* \"#utility.yul\":30894:30961   */\n      tag_245\n      jump\t// in\n    tag_544:\n        /* \"#utility.yul\":30988:30989   */\n      0x00\n        /* \"#utility.yul\":31012:31016   */\n      0x20\n        /* \"#utility.yul\":30999:31016   */\n      swap1\n      pop\n        /* \"#utility.yul\":31044:31046   */\n      0x1f\n        /* \"#utility.yul\":31036:31042   */\n      dup4\n        /* \"#utility.yul\":31033:31047   */\n      gt\n        /* \"#utility.yul\":31061:31062   */\n      0x01\n        /* \"#utility.yul\":31056:31674   */\n      dup2\n      eq\n      tag_546\n      jumpi\n        /* \"#utility.yul\":31718:31719   */\n      0x00\n        /* \"#utility.yul\":31735:31741   */\n      dup5\n        /* \"#utility.yul\":31732:31809   */\n      iszero\n      tag_547\n      jumpi\n        /* \"#utility.yul\":31784:31793   */\n      dup3\n        /* \"#utility.yul\":31779:31782   */\n      dup8\n        /* \"#utility.yul\":31775:31794   */\n      add\n        /* \"#utility.yul\":31769:31795   */\n      mload\n        /* \"#utility.yul\":31760:31795   */\n      swap1\n      pop\n        /* \"#utility.yul\":31732:31809   */\n    tag_547:\n        /* \"#utility.yul\":31835:31902   */\n      tag_548\n        /* \"#utility.yul\":31895:31901   */\n      dup6\n        /* \"#utility.yul\":31888:31893   */\n      dup3\n        /* \"#utility.yul\":31835:31902   */\n      tag_248\n      jump\t// in\n    tag_548:\n        /* \"#utility.yul\":31829:31833   */\n      dup7\n        /* \"#utility.yul\":31822:31903   */\n      sstore\n        /* \"#utility.yul\":31691:31913   */\n      pop\n        /* \"#utility.yul\":31026:31913   */\n      jump(tag_545)\n        /* \"#utility.yul\":31056:31674   */\n    tag_546:\n        /* \"#utility.yul\":31108:31112   */\n      0x1f\n        /* \"#utility.yul\":31104:31113   */\n      not\n        /* \"#utility.yul\":31096:31102   */\n      dup5\n        /* \"#utility.yul\":31092:31114   */\n      and\n        /* \"#utility.yul\":31142:31179   */\n      tag_549\n        /* \"#utility.yul\":31174:31178   */\n      dup7\n        /* \"#utility.yul\":31142:31179   */\n      tag_229\n      jump\t// in\n    tag_549:\n        /* \"#utility.yul\":31201:31202   */\n      0x00\n        /* \"#utility.yul\":31215:31423   */\n    tag_550:\n        /* \"#utility.yul\":31229:31236   */\n      dup3\n        /* \"#utility.yul\":31226:31227   */\n      dup2\n        /* \"#utility.yul\":31223:31237   */\n      lt\n        /* \"#utility.yul\":31215:31423   */\n      iszero\n      tag_552\n      jumpi\n        /* \"#utility.yul\":31308:31317   */\n      dup5\n        /* \"#utility.yul\":31303:31306   */\n      dup10\n        /* \"#utility.yul\":31299:31318   */\n      add\n        /* \"#utility.yul\":31293:31319   */\n      mload\n        /* \"#utility.yul\":31285:31291   */\n      dup3\n        /* \"#utility.yul\":31278:31320   */\n      sstore\n        /* \"#utility.yul\":31359:31360   */\n      0x01\n        /* \"#utility.yul\":31351:31357   */\n      dup3\n        /* \"#utility.yul\":31347:31361   */\n      add\n        /* \"#utility.yul\":31337:31361   */\n      swap2\n      pop\n        /* \"#utility.yul\":31406:31408   */\n      0x20\n        /* \"#utility.yul\":31395:31404   */\n      dup6\n        /* \"#utility.yul\":31391:31409   */\n      add\n        /* \"#utility.yul\":31378:31409   */\n      swap5\n      pop\n        /* \"#utility.yul\":31252:31256   */\n      0x20\n        /* \"#utility.yul\":31249:31250   */\n      dup2\n        /* \"#utility.yul\":31245:31257   */\n      add\n        /* \"#utility.yul\":31240:31257   */\n      swap1\n      pop\n        /* \"#utility.yul\":31215:31423   */\n      jump(tag_550)\n    tag_552:\n        /* \"#utility.yul\":31451:31457   */\n      dup7\n        /* \"#utility.yul\":31442:31449   */\n      dup4\n        /* \"#utility.yul\":31439:31458   */\n      lt\n        /* \"#utility.yul\":31436:31615   */\n      iszero\n      tag_553\n      jumpi\n        /* \"#utility.yul\":31509:31518   */\n      dup5\n        /* \"#utility.yul\":31504:31507   */\n      dup10\n        /* \"#utility.yul\":31500:31519   */\n      add\n        /* \"#utility.yul\":31494:31520   */\n      mload\n        /* \"#utility.yul\":31552:31600   */\n      tag_554\n        /* \"#utility.yul\":31594:31598   */\n      0x1f\n        /* \"#utility.yul\":31586:31592   */\n      dup10\n        /* \"#utility.yul\":31582:31599   */\n      and\n        /* \"#utility.yul\":31571:31580   */\n      dup3\n        /* \"#utility.yul\":31552:31600   */\n      tag_247\n      jump\t// in\n    tag_554:\n        /* \"#utility.yul\":31544:31550   */\n      dup4\n        /* \"#utility.yul\":31537:31601   */\n      sstore\n        /* \"#utility.yul\":31459:31615   */\n      pop\n        /* \"#utility.yul\":31436:31615   */\n    tag_553:\n        /* \"#utility.yul\":31661:31662   */\n      0x01\n        /* \"#utility.yul\":31657:31658   */\n      0x02\n        /* \"#utility.yul\":31649:31655   */\n      dup9\n        /* \"#utility.yul\":31645:31659   */\n      mul\n        /* \"#utility.yul\":31641:31663   */\n      add\n        /* \"#utility.yul\":31635:31639   */\n      dup9\n        /* \"#utility.yul\":31628:31664   */\n      sstore\n        /* \"#utility.yul\":31063:31674   */\n      pop\n      pop\n      pop\n        /* \"#utility.yul\":31026:31913   */\n    tag_545:\n      pop\n        /* \"#utility.yul\":30616:31919   */\n      pop\n      pop\n      pop\n        /* \"#utility.yul\":30524:31919   */\n      pop\n      pop\n      jump\t// out\n\n    auxdata: 0xa2646970667358221220be5884fe7dec537b480c5793426322c25ce4060d7c2b49ed92815eac345bc80064736f6c63430008180033\n}\n",
				"bytecode": {
					"linkReferences": {},
					"object": "60806040525f6004555f600655348015610017575f80fd5b50335f806101000a81548173ffffffffffffffffffffffffffffffffffffffff021916908373ffffffffffffffffffffffffffffffffffffffff160217905550611be7806100645f395ff3fe608060405234801561000f575f80fd5b5060043610610091575f3560e01c80638da5cb5b116100645780638da5cb5b14610109578063ac7be73614610127578063b61798f614610143578063d2b0649a14610173578063d8a761d9146101a357610091565b80631b61fabd146100955780633f81de59146100b15780634b58fbe9146100cd578063682477d7146100eb575b5f80fd5b6100af60048036038101906100aa9190610f8d565b6101d3565b005b6100cb60048036038101906100c6919061103c565b6103db565b005b6100d5610537565b6040516100e29190611076565b60405180910390f35b6100f3610540565b6040516101009190611076565b60405180910390f35b610111610549565b60405161011e91906110ce565b60405180910390f35b610141600480360381019061013c91906110e7565b61056c565b005b61015d6004803603810190610158919061103c565b610695565b60405161016a9190611189565b60405180910390f35b61018d6004803603810190610188919061103c565b6106af565b60405161019a91906114d9565b60405180910390f35b6101bd60048036038101906101b8919061103c565b6108cd565b6040516101ca919061156c565b60405180910390f35b5f8054906101000a900473ffffffffffffffffffffffffffffffffffffffff1673ffffffffffffffffffffffffffffffffffffffff163373ffffffffffffffffffffffffffffffffffffffff1614610260576040517f08c379a00000000000000000000000000000000000000000000000000000000081526004016102579061160c565b60405180910390fd5b5f815167ffffffffffffffff81111561027c5761027b610cc3565b5b6040519080825280602002602001820160405280156102aa5781602001602082028036833780820191505090505b5090505f5b8251811015610307576102db8382815181106102ce576102cd61162a565b5b6020026020010151610695565b8282815181106102ee576102ed61162a565b5b60200260200101818152505080806001019150506102af565b506040518060c001604052808781526020018681526020018581526020018481526020018381526020018281525060015f8681526020019081526020015f205f820151815f01556020820151816001015560408201518160020155606082015181600301908051906020019061037e929190610a48565b50608082015181600401908051906020019061039b929190610a9f565b5060a08201518160050190805190602001906103b8929190610aea565b5090505060045f8154809291906103ce90611684565b9190505550505050505050565b5f8054906101000a900473ffffffffffffffffffffffffffffffffffffffff1673ffffffffffffffffffffffffffffffffffffffff163373ffffffffffffffffffffffffffffffffffffffff1614610468576040517f08c379a000000000000000000000000000000000000000000000000000000000815260040161045f9061160c565b60405180910390fd5b5f60025f8381526020019081526020015f209050606081600101548260020154836003015460405160200161049f939291906116eb565b60405160208183030381529060405290505f5b826004018054905081101561050f57818360040182815481106104d8576104d761162a565b5b905f5260205f20016040516020016104f1929190611864565b604051602081830303815290604052915080806001019150506104b2565b505f818051906020012090508060035f8681526020019081526020015f208190555050505050565b5f600654905090565b5f600454905090565b5f8054906101000a900473ffffffffffffffffffffffffffffffffffffffff1681565b5f8054906101000a900473ffffffffffffffffffffffffffffffffffffffff1673ffffffffffffffffffffffffffffffffffffffff163373ffffffffffffffffffffffffffffffffffffffff16146105f9576040517f08c379a00000000000000000000000000000000000000000000000000000000081526004016105f09061160c565b60405180910390fd5b6040518060a001604052808681526020018581526020018481526020018381526020018281525060025f8781526020019081526020015f205f820151815f01556020820151816001015560408201518160020155606082015181600301556080820151816004019080519060200190610673929190610a48565b5090505060065f81548092919061068990611684565b91905055505050505050565b5f60035f8381526020019081526020015f20549050919050565b6106b7610b35565b5f60015f8481526020019081526020015f20600201540361070d576040517f08c379a0000000000000000000000000000000000000000000000000000000008152600401610704906118d1565b60405180910390fd5b60015f8381526020019081526020015f206040518060c00160405290815f8201548152602001600182015481526020016002820154815260200160038201805480602002602001604051908101604052809291908181526020015f905b82821015610812578382905f5260205f2001805461078790611798565b80601f01602080910402602001604051908101604052809291908181526020018280546107b390611798565b80156107fe5780601f106107d5576101008083540402835291602001916107fe565b820191905f5260205f20905b8154815290600101906020018083116107e157829003601f168201915b50505050508152602001906001019061076a565b5050505081526020016004820180548060200260200160405190810160405280929190818152602001828054801561086757602002820191905f5260205f20905b815481526020019060010190808311610853575b50505050508152602001600582018054806020026020016040519081016040528092919081815260200182805480156108bd57602002820191905f5260205f20905b8154815260200190600101908083116108a9575b5050505050815250509050919050565b6108d5610b6e565b5f60025f8481526020019081526020015f205f01540361092a576040517f08c379a000000000000000000000000000000000000000000000000000000000815260040161092190611939565b60405180910390fd5b60025f8381526020019081526020015f206040518060a00160405290815f820154815260200160018201548152602001600282015481526020016003820154815260200160048201805480602002602001604051908101604052809291908181526020015f905b82821015610a39578382905f5260205f200180546109ae90611798565b80601f01602080910402602001604051908101604052809291908181526020018280546109da90611798565b8015610a255780601f106109fc57610100808354040283529160200191610a25565b820191905f5260205f20905b815481529060010190602001808311610a0857829003601f168201915b505050505081526020019060010190610991565b50505050815250509050919050565b828054828255905f5260205f20908101928215610a8e579160200282015b82811115610a8d578251829081610a7d9190611ae2565b5091602001919060010190610a66565b5b509050610a9b9190610ba2565b5090565b828054828255905f5260205f20908101928215610ad9579160200282015b82811115610ad8578251825591602001919060010190610abd565b5b509050610ae69190610bc5565b5090565b828054828255905f5260205f20908101928215610b24579160200282015b82811115610b23578251825591602001919060010190610b08565b5b509050610b319190610be0565b5090565b6040518060c001604052805f80191681526020015f80191681526020015f81526020016060815260200160608152602001606081525090565b6040518060a001604052805f81526020015f80191681526020015f80191681526020015f8019168152602001606081525090565b5b80821115610bc1575f8181610bb89190610bfb565b50600101610ba3565b5090565b5b80821115610bdc575f815f905550600101610bc6565b5090565b5b80821115610bf7575f815f905550600101610be1565b5090565b508054610c0790611798565b5f825580601f10610c185750610c35565b601f0160209004905f5260205f2090810190610c349190610bc5565b5b50565b5f604051905090565b5f80fd5b5f80fd5b5f819050919050565b610c5b81610c49565b8114610c65575f80fd5b50565b5f81359050610c7681610c52565b92915050565b5f819050919050565b610c8e81610c7c565b8114610c98575f80fd5b50565b5f81359050610ca981610c85565b92915050565b5f80fd5b5f601f19601f8301169050919050565b7f4e487b71000000000000000000000000000000000000000000000000000000005f52604160045260245ffd5b610cf982610cb3565b810181811067ffffffffffffffff82111715610d1857610d17610cc3565b5b80604052505050565b5f610d2a610c38565b9050610d368282610cf0565b919050565b5f67ffffffffffffffff821115610d5557610d54610cc3565b5b602082029050602081019050919050565b5f80fd5b5f80fd5b5f67ffffffffffffffff821115610d8857610d87610cc3565b5b610d9182610cb3565b9050602081019050919050565b828183375f83830152505050565b5f610dbe610db984610d6e565b610d21565b905082815260208101848484011115610dda57610dd9610d6a565b5b610de5848285610d9e565b509392505050565b5f82601f830112610e0157610e00610caf565b5b8135610e11848260208601610dac565b91505092915050565b5f610e2c610e2784610d3b565b610d21565b90508083825260208201905060208402830185811115610e4f57610e4e610d66565b5b835b81811015610e9657803567ffffffffffffffff811115610e7457610e73610caf565b5b808601610e818982610ded565b85526020850194505050602081019050610e51565b5050509392505050565b5f82601f830112610eb457610eb3610caf565b5b8135610ec4848260208601610e1a565b91505092915050565b5f67ffffffffffffffff821115610ee757610ee6610cc3565b5b602082029050602081019050919050565b5f610f0a610f0584610ecd565b610d21565b90508083825260208201905060208402830185811115610f2d57610f2c610d66565b5b835b81811015610f565780610f428882610c9b565b845260208401935050602081019050610f2f565b5050509392505050565b5f82601f830112610f7457610f73610caf565b5b8135610f84848260208601610ef8565b91505092915050565b5f805f805f60a08688031215610fa657610fa5610c41565b5b5f610fb388828901610c68565b9550506020610fc488828901610c68565b9450506040610fd588828901610c9b565b935050606086013567ffffffffffffffff811115610ff657610ff5610c45565b5b61100288828901610ea0565b925050608086013567ffffffffffffffff81111561102357611022610c45565b5b61102f88828901610f60565b9150509295509295909350565b5f6020828403121561105157611050610c41565b5b5f61105e84828501610c9b565b91505092915050565b61107081610c7c565b82525050565b5f6020820190506110895f830184611067565b92915050565b5f73ffffffffffffffffffffffffffffffffffffffff82169050919050565b5f6110b88261108f565b9050919050565b6110c8816110ae565b82525050565b5f6020820190506110e15f8301846110bf565b92915050565b5f805f805f60a08688031215611100576110ff610c41565b5b5f61110d88828901610c9b565b955050602061111e88828901610c68565b945050604061112f88828901610c68565b935050606061114088828901610c68565b925050608086013567ffffffffffffffff81111561116157611160610c45565b5b61116d88828901610ea0565b9150509295509295909350565b61118381610c49565b82525050565b5f60208201905061119c5f83018461117a565b92915050565b6111ab81610c49565b82525050565b6111ba81610c7c565b82525050565b5f81519050919050565b5f82825260208201905092915050565b5f819050602082019050919050565b5f81519050919050565b5f82825260208201905092915050565b5f5b83811015611220578082015181840152602081019050611205565b5f8484015250505050565b5f611235826111e9565b61123f81856111f3565b935061124f818560208601611203565b61125881610cb3565b840191505092915050565b5f61126e838361122b565b905092915050565b5f602082019050919050565b5f61128c826111c0565b61129681856111ca565b9350836020820285016112a8856111da565b805f5b858110156112e357848403895281516112c48582611263565b94506112cf83611276565b925060208a019950506001810190506112ab565b50829750879550505050505092915050565b5f81519050919050565b5f82825260208201905092915050565b5f819050602082019050919050565b5f61132983836111b1565b60208301905092915050565b5f602082019050919050565b5f61134b826112f5565b61135581856112ff565b93506113608361130f565b805f5b83811015611390578151611377888261131e565b975061138283611335565b925050600181019050611363565b5085935050505092915050565b5f81519050919050565b5f82825260208201905092915050565b5f819050602082019050919050565b5f6113d183836111a2565b60208301905092915050565b5f602082019050919050565b5f6113f38261139d565b6113fd81856113a7565b9350611408836113b7565b805f5b8381101561143857815161141f88826113c6565b975061142a836113dd565b92505060018101905061140b565b5085935050505092915050565b5f60c083015f83015161145a5f8601826111a2565b50602083015161146d60208601826111a2565b50604083015161148060408601826111b1565b50606083015184820360608601526114988282611282565b915050608083015184820360808601526114b28282611341565b91505060a083015184820360a08601526114cc82826113e9565b9150508091505092915050565b5f6020820190508181035f8301526114f18184611445565b905092915050565b5f60a083015f83015161150e5f8601826111b1565b50602083015161152160208601826111a2565b50604083015161153460408601826111a2565b50606083015161154760608601826111a2565b506080830151848203608086015261155f8282611282565b9150508091505092915050565b5f6020820190508181035f83015261158481846114f9565b905092915050565b5f82825260208201905092915050565b7f4f6e6c792074686520636f6e7472616374206f776e65722063616e20706572665f8201527f6f726d2074686973206f7065726174696f6e0000000000000000000000000000602082015250565b5f6115f660328361158c565b91506116018261159c565b604082019050919050565b5f6020820190508181035f830152611623816115ea565b9050919050565b7f4e487b71000000000000000000000000000000000000000000000000000000005f52603260045260245ffd5b7f4e487b71000000000000000000000000000000000000000000000000000000005f52601160045260245ffd5b5f61168e82610c7c565b91507fffffffffffffffffffffffffffffffffffffffffffffffffffffffffffffffff82036116c0576116bf611657565b5b600182019050919050565b5f819050919050565b6116e56116e082610c49565b6116cb565b82525050565b5f6116f682866116d4565b60208201915061170682856116d4565b60208201915061171682846116d4565b602082019150819050949350505050565b5f81519050919050565b5f81905092915050565b5f61174582611727565b61174f8185611731565b935061175f818560208601611203565b80840191505092915050565b7f4e487b71000000000000000000000000000000000000000000000000000000005f52602260045260245ffd5b5f60028204905060018216806117af57607f821691505b6020821081036117c2576117c161176b565b5b50919050565b5f81905092915050565b5f819050815f5260205f209050919050565b5f81546117f081611798565b6117fa81866117c8565b9450600182165f811461181457600181146118295761185b565b60ff198316865281151582028601935061185b565b611832856117d2565b5f5b8381101561185357815481890152600182019150602081019050611834565b838801955050505b50505092915050565b5f61186f828561173b565b915061187b82846117e4565b91508190509392505050565b7f44617461205573657220646f6573206e6f742065786973742e000000000000005f82015250565b5f6118bb60198361158c565b91506118c682611887565b602082019050919050565b5f6020820190508181035f8301526118e8816118af565b9050919050565b7f506572736f6e616c4461746120646f6573206e6f742065786973742e000000005f82015250565b5f611923601c8361158c565b915061192e826118ef565b602082019050919050565b5f6020820190508181035f83015261195081611917565b9050919050565b5f6020601f8301049050919050565b5f82821b905092915050565b5f600883026119a17fffffffffffffffffffffffffffffffffffffffffffffffffffffffffffffffff82611966565b6119ab8683611966565b95508019841693508086168417925050509392505050565b5f819050919050565b5f6119e66119e16119dc84610c7c565b6119c3565b610c7c565b9050919050565b5f819050919050565b6119ff836119cc565b611a13611a0b826119ed565b848454611972565b825550505050565b5f90565b611a27611a1b565b611a328184846119f6565b505050565b5b81811015611a5557611a4a5f82611a1f565b600181019050611a38565b5050565b601f821115611a9a57611a6b816117d2565b611a7484611957565b81016020851015611a83578190505b611a97611a8f85611957565b830182611a37565b50505b505050565b5f82821c905092915050565b5f611aba5f1984600802611a9f565b1980831691505092915050565b5f611ad28383611aab565b9150826002028217905092915050565b611aeb826111e9565b67ffffffffffffffff811115611b0457611b03610cc3565b5b611b0e8254611798565b611b19828285611a59565b5f60209050601f831160018114611b4a575f8415611b38578287015190505b611b428582611ac7565b865550611ba9565b601f198416611b58866117d2565b5f5b82811015611b7f57848901518255600182019150602085019450602081019050611b5a565b86831015611b9c5784890151611b98601f891682611aab565b8355505b6001600288020188555050505b50505050505056fea2646970667358221220be5884fe7dec537b480c5793426322c25ce4060d7c2b49ed92815eac345bc80064736f6c63430008180033",
					"opcodes": "PUSH1 0x80 PUSH1 0x40 MSTORE PUSH0 PUSH1 0x4 SSTORE PUSH0 PUSH1 0x6 SSTORE CALLVALUE DUP1 ISZERO PUSH2 0x17 JUMPI PUSH0 DUP1 REVERT JUMPDEST POP CALLER PUSH0 DUP1 PUSH2 0x100 EXP DUP2 SLOAD DUP2 PUSH20 0xFFFFFFFFFFFFFFFFFFFFFFFFFFFFFFFFFFFFFFFF MUL NOT AND SWAP1 DUP4 PUSH20 0xFFFFFFFFFFFFFFFFFFFFFFFFFFFFFFFFFFFFFFFF AND MUL OR SWAP1 SSTORE POP PUSH2 0x1BE7 DUP1 PUSH2 0x64 PUSH0 CODECOPY PUSH0 RETURN INVALID PUSH1 0x80 PUSH1 0x40 MSTORE CALLVALUE DUP1 ISZERO PUSH2 0xF JUMPI PUSH0 DUP1 REVERT JUMPDEST POP PUSH1 0x4 CALLDATASIZE LT PUSH2 0x91 JUMPI PUSH0 CALLDATALOAD PUSH1 0xE0 SHR DUP1 PUSH4 0x8DA5CB5B GT PUSH2 0x64 JUMPI DUP1 PUSH4 0x8DA5CB5B EQ PUSH2 0x109 JUMPI DUP1 PUSH4 0xAC7BE736 EQ PUSH2 0x127 JUMPI DUP1 PUSH4 0xB61798F6 EQ PUSH2 0x143 JUMPI DUP1 PUSH4 0xD2B0649A EQ PUSH2 0x173 JUMPI DUP1 PUSH4 0xD8A761D9 EQ PUSH2 0x1A3 JUMPI PUSH2 0x91 JUMP JUMPDEST DUP1 PUSH4 0x1B61FABD EQ PUSH2 0x95 JUMPI DUP1 PUSH4 0x3F81DE59 EQ PUSH2 0xB1 JUMPI DUP1 PUSH4 0x4B58FBE9 EQ PUSH2 0xCD JUMPI DUP1 PUSH4 0x682477D7 EQ PUSH2 0xEB JUMPI JUMPDEST PUSH0 DUP1 REVERT JUMPDEST PUSH2 0xAF PUSH1 0x4 DUP1 CALLDATASIZE SUB DUP2 ADD SWAP1 PUSH2 0xAA SWAP2 SWAP1 PUSH2 0xF8D JUMP JUMPDEST PUSH2 0x1D3 JUMP JUMPDEST STOP JUMPDEST PUSH2 0xCB PUSH1 0x4 DUP1 CALLDATASIZE SUB DUP2 ADD SWAP1 PUSH2 0xC6 SWAP2 SWAP1 PUSH2 0x103C JUMP JUMPDEST PUSH2 0x3DB JUMP JUMPDEST STOP JUMPDEST PUSH2 0xD5 PUSH2 0x537 JUMP JUMPDEST PUSH1 0x40 MLOAD PUSH2 0xE2 SWAP2 SWAP1 PUSH2 0x1076 JUMP JUMPDEST PUSH1 0x40 MLOAD DUP1 SWAP2 SUB SWAP1 RETURN JUMPDEST PUSH2 0xF3 PUSH2 0x540 JUMP JUMPDEST PUSH1 0x40 MLOAD PUSH2 0x100 SWAP2 SWAP1 PUSH2 0x1076 JUMP JUMPDEST PUSH1 0x40 MLOAD DUP1 SWAP2 SUB SWAP1 RETURN JUMPDEST PUSH2 0x111 PUSH2 0x549 JUMP JUMPDEST PUSH1 0x40 MLOAD PUSH2 0x11E SWAP2 SWAP1 PUSH2 0x10CE JUMP JUMPDEST PUSH1 0x40 MLOAD DUP1 SWAP2 SUB SWAP1 RETURN JUMPDEST PUSH2 0x141 PUSH1 0x4 DUP1 CALLDATASIZE SUB DUP2 ADD SWAP1 PUSH2 0x13C SWAP2 SWAP1 PUSH2 0x10E7 JUMP JUMPDEST PUSH2 0x56C JUMP JUMPDEST STOP JUMPDEST PUSH2 0x15D PUSH1 0x4 DUP1 CALLDATASIZE SUB DUP2 ADD SWAP1 PUSH2 0x158 SWAP2 SWAP1 PUSH2 0x103C JUMP JUMPDEST PUSH2 0x695 JUMP JUMPDEST PUSH1 0x40 MLOAD PUSH2 0x16A SWAP2 SWAP1 PUSH2 0x1189 JUMP JUMPDEST PUSH1 0x40 MLOAD DUP1 SWAP2 SUB SWAP1 RETURN JUMPDEST PUSH2 0x18D PUSH1 0x4 DUP1 CALLDATASIZE SUB DUP2 ADD SWAP1 PUSH2 0x188 SWAP2 SWAP1 PUSH2 0x103C JUMP JUMPDEST PUSH2 0x6AF JUMP JUMPDEST PUSH1 0x40 MLOAD PUSH2 0x19A SWAP2 SWAP1 PUSH2 0x14D9 JUMP JUMPDEST PUSH1 0x40 MLOAD DUP1 SWAP2 SUB SWAP1 RETURN JUMPDEST PUSH2 0x1BD PUSH1 0x4 DUP1 CALLDATASIZE SUB DUP2 ADD SWAP1 PUSH2 0x1B8 SWAP2 SWAP1 PUSH2 0x103C JUMP JUMPDEST PUSH2 0x8CD JUMP JUMPDEST PUSH1 0x40 MLOAD PUSH2 0x1CA SWAP2 SWAP1 PUSH2 0x156C JUMP JUMPDEST PUSH1 0x40 MLOAD DUP1 SWAP2 SUB SWAP1 RETURN JUMPDEST PUSH0 DUP1 SLOAD SWAP1 PUSH2 0x100 EXP SWAP1 DIV PUSH20 0xFFFFFFFFFFFFFFFFFFFFFFFFFFFFFFFFFFFFFFFF AND PUSH20 0xFFFFFFFFFFFFFFFFFFFFFFFFFFFFFFFFFFFFFFFF AND CALLER PUSH20 0xFFFFFFFFFFFFFFFFFFFFFFFFFFFFFFFFFFFFFFFF AND EQ PUSH2 0x260 JUMPI PUSH1 0x40 MLOAD PUSH32 0x8C379A000000000000000000000000000000000000000000000000000000000 DUP2 MSTORE PUSH1 0x4 ADD PUSH2 0x257 SWAP1 PUSH2 0x160C JUMP JUMPDEST PUSH1 0x40 MLOAD DUP1 SWAP2 SUB SWAP1 REVERT JUMPDEST PUSH0 DUP2 MLOAD PUSH8 0xFFFFFFFFFFFFFFFF DUP2 GT ISZERO PUSH2 0x27C JUMPI PUSH2 0x27B PUSH2 0xCC3 JUMP JUMPDEST JUMPDEST PUSH1 0x40 MLOAD SWAP1 DUP1 DUP3 MSTORE DUP1 PUSH1 0x20 MUL PUSH1 0x20 ADD DUP3 ADD PUSH1 0x40 MSTORE DUP1 ISZERO PUSH2 0x2AA JUMPI DUP2 PUSH1 0x20 ADD PUSH1 0x20 DUP3 MUL DUP1 CALLDATASIZE DUP4 CALLDATACOPY DUP1 DUP3 ADD SWAP2 POP POP SWAP1 POP JUMPDEST POP SWAP1 POP PUSH0 JUMPDEST DUP3 MLOAD DUP2 LT ISZERO PUSH2 0x307 JUMPI PUSH2 0x2DB DUP4 DUP3 DUP2 MLOAD DUP2 LT PUSH2 0x2CE JUMPI PUSH2 0x2CD PUSH2 0x162A JUMP JUMPDEST JUMPDEST PUSH1 0x20 MUL PUSH1 0x20 ADD ADD MLOAD PUSH2 0x695 JUMP JUMPDEST DUP3 DUP3 DUP2 MLOAD DUP2 LT PUSH2 0x2EE JUMPI PUSH2 0x2ED PUSH2 0x162A JUMP JUMPDEST JUMPDEST PUSH1 0x20 MUL PUSH1 0x20 ADD ADD DUP2 DUP2 MSTORE POP POP DUP1 DUP1 PUSH1 0x1 ADD SWAP2 POP POP PUSH2 0x2AF JUMP JUMPDEST POP PUSH1 0x40 MLOAD DUP1 PUSH1 0xC0 ADD PUSH1 0x40 MSTORE DUP1 DUP8 DUP2 MSTORE PUSH1 0x20 ADD DUP7 DUP2 MSTORE PUSH1 0x20 ADD DUP6 DUP2 MSTORE PUSH1 0x20 ADD DUP5 DUP2 MSTORE PUSH1 0x20 ADD DUP4 DUP2 MSTORE PUSH1 0x20 ADD DUP3 DUP2 MSTORE POP PUSH1 0x1 PUSH0 DUP7 DUP2 MSTORE PUSH1 0x20 ADD SWAP1 DUP2 MSTORE PUSH1 0x20 ADD PUSH0 KECCAK256 PUSH0 DUP3 ADD MLOAD DUP2 PUSH0 ADD SSTORE PUSH1 0x20 DUP3 ADD MLOAD DUP2 PUSH1 0x1 ADD SSTORE PUSH1 0x40 DUP3 ADD MLOAD DUP2 PUSH1 0x2 ADD SSTORE PUSH1 0x60 DUP3 ADD MLOAD DUP2 PUSH1 0x3 ADD SWAP1 DUP1 MLOAD SWAP1 PUSH1 0x20 ADD SWAP1 PUSH2 0x37E SWAP3 SWAP2 SWAP1 PUSH2 0xA48 JUMP JUMPDEST POP PUSH1 0x80 DUP3 ADD MLOAD DUP2 PUSH1 0x4 ADD SWAP1 DUP1 MLOAD SWAP1 PUSH1 0x20 ADD SWAP1 PUSH2 0x39B SWAP3 SWAP2 SWAP1 PUSH2 0xA9F JUMP JUMPDEST POP PUSH1 0xA0 DUP3 ADD MLOAD DUP2 PUSH1 0x5 ADD SWAP1 DUP1 MLOAD SWAP1 PUSH1 0x20 ADD SWAP1 PUSH2 0x3B8 SWAP3 SWAP2 SWAP1 PUSH2 0xAEA JUMP JUMPDEST POP SWAP1 POP POP PUSH1 0x4 PUSH0 DUP2 SLOAD DUP1 SWAP3 SWAP2 SWAP1 PUSH2 0x3CE SWAP1 PUSH2 0x1684 JUMP JUMPDEST SWAP2 SWAP1 POP SSTORE POP POP POP POP POP POP POP JUMP JUMPDEST PUSH0 DUP1 SLOAD SWAP1 PUSH2 0x100 EXP SWAP1 DIV PUSH20 0xFFFFFFFFFFFFFFFFFFFFFFFFFFFFFFFFFFFFFFFF AND PUSH20 0xFFFFFFFFFFFFFFFFFFFFFFFFFFFFFFFFFFFFFFFF AND CALLER PUSH20 0xFFFFFFFFFFFFFFFFFFFFFFFFFFFFFFFFFFFFFFFF AND EQ PUSH2 0x468 JUMPI PUSH1 0x40 MLOAD PUSH32 0x8C379A000000000000000000000000000000000000000000000000000000000 DUP2 MSTORE PUSH1 0x4 ADD PUSH2 0x45F SWAP1 PUSH2 0x160C JUMP JUMPDEST PUSH1 0x40 MLOAD DUP1 SWAP2 SUB SWAP1 REVERT JUMPDEST PUSH0 PUSH1 0x2 PUSH0 DUP4 DUP2 MSTORE PUSH1 0x20 ADD SWAP1 DUP2 MSTORE PUSH1 0x20 ADD PUSH0 KECCAK256 SWAP1 POP PUSH1 0x60 DUP2 PUSH1 0x1 ADD SLOAD DUP3 PUSH1 0x2 ADD SLOAD DUP4 PUSH1 0x3 ADD SLOAD PUSH1 0x40 MLOAD PUSH1 0x20 ADD PUSH2 0x49F SWAP4 SWAP3 SWAP2 SWAP1 PUSH2 0x16EB JUMP JUMPDEST PUSH1 0x40 MLOAD PUSH1 0x20 DUP2 DUP4 SUB SUB DUP2 MSTORE SWAP1 PUSH1 0x40 MSTORE SWAP1 POP PUSH0 JUMPDEST DUP3 PUSH1 0x4 ADD DUP1 SLOAD SWAP1 POP DUP2 LT ISZERO PUSH2 0x50F JUMPI DUP2 DUP4 PUSH1 0x4 ADD DUP3 DUP2 SLOAD DUP2 LT PUSH2 0x4D8 JUMPI PUSH2 0x4D7 PUSH2 0x162A JUMP JUMPDEST JUMPDEST SWAP1 PUSH0 MSTORE PUSH1 0x20 PUSH0 KECCAK256 ADD PUSH1 0x40 MLOAD PUSH1 0x20 ADD PUSH2 0x4F1 SWAP3 SWAP2 SWAP1 PUSH2 0x1864 JUMP JUMPDEST PUSH1 0x40 MLOAD PUSH1 0x20 DUP2 DUP4 SUB SUB DUP2 MSTORE SWAP1 PUSH1 0x40 MSTORE SWAP2 POP DUP1 DUP1 PUSH1 0x1 ADD SWAP2 POP POP PUSH2 0x4B2 JUMP JUMPDEST POP PUSH0 DUP2 DUP1 MLOAD SWAP1 PUSH1 0x20 ADD KECCAK256 SWAP1 POP DUP1 PUSH1 0x3 PUSH0 DUP7 DUP2 MSTORE PUSH1 0x20 ADD SWAP1 DUP2 MSTORE PUSH1 0x20 ADD PUSH0 KECCAK256 DUP2 SWAP1 SSTORE POP POP POP POP POP JUMP JUMPDEST PUSH0 PUSH1 0x6 SLOAD SWAP1 POP SWAP1 JUMP JUMPDEST PUSH0 PUSH1 0x4 SLOAD SWAP1 POP SWAP1 JUMP JUMPDEST PUSH0 DUP1 SLOAD SWAP1 PUSH2 0x100 EXP SWAP1 DIV PUSH20 0xFFFFFFFFFFFFFFFFFFFFFFFFFFFFFFFFFFFFFFFF AND DUP2 JUMP JUMPDEST PUSH0 DUP1 SLOAD SWAP1 PUSH2 0x100 EXP SWAP1 DIV PUSH20 0xFFFFFFFFFFFFFFFFFFFFFFFFFFFFFFFFFFFFFFFF AND PUSH20 0xFFFFFFFFFFFFFFFFFFFFFFFFFFFFFFFFFFFFFFFF AND CALLER PUSH20 0xFFFFFFFFFFFFFFFFFFFFFFFFFFFFFFFFFFFFFFFF AND EQ PUSH2 0x5F9 JUMPI PUSH1 0x40 MLOAD PUSH32 0x8C379A000000000000000000000000000000000000000000000000000000000 DUP2 MSTORE PUSH1 0x4 ADD PUSH2 0x5F0 SWAP1 PUSH2 0x160C JUMP JUMPDEST PUSH1 0x40 MLOAD DUP1 SWAP2 SUB SWAP1 REVERT JUMPDEST PUSH1 0x40 MLOAD DUP1 PUSH1 0xA0 ADD PUSH1 0x40 MSTORE DUP1 DUP7 DUP2 MSTORE PUSH1 0x20 ADD DUP6 DUP2 MSTORE PUSH1 0x20 ADD DUP5 DUP2 MSTORE PUSH1 0x20 ADD DUP4 DUP2 MSTORE PUSH1 0x20 ADD DUP3 DUP2 MSTORE POP PUSH1 0x2 PUSH0 DUP8 DUP2 MSTORE PUSH1 0x20 ADD SWAP1 DUP2 MSTORE PUSH1 0x20 ADD PUSH0 KECCAK256 PUSH0 DUP3 ADD MLOAD DUP2 PUSH0 ADD SSTORE PUSH1 0x20 DUP3 ADD MLOAD DUP2 PUSH1 0x1 ADD SSTORE PUSH1 0x40 DUP3 ADD MLOAD DUP2 PUSH1 0x2 ADD SSTORE PUSH1 0x60 DUP3 ADD MLOAD DUP2 PUSH1 0x3 ADD SSTORE PUSH1 0x80 DUP3 ADD MLOAD DUP2 PUSH1 0x4 ADD SWAP1 DUP1 MLOAD SWAP1 PUSH1 0x20 ADD SWAP1 PUSH2 0x673 SWAP3 SWAP2 SWAP1 PUSH2 0xA48 JUMP JUMPDEST POP SWAP1 POP POP PUSH1 0x6 PUSH0 DUP2 SLOAD DUP1 SWAP3 SWAP2 SWAP1 PUSH2 0x689 SWAP1 PUSH2 0x1684 JUMP JUMPDEST SWAP2 SWAP1 POP SSTORE POP POP POP POP POP POP JUMP JUMPDEST PUSH0 PUSH1 0x3 PUSH0 DUP4 DUP2 MSTORE PUSH1 0x20 ADD SWAP1 DUP2 MSTORE PUSH1 0x20 ADD PUSH0 KECCAK256 SLOAD SWAP1 POP SWAP2 SWAP1 POP JUMP JUMPDEST PUSH2 0x6B7 PUSH2 0xB35 JUMP JUMPDEST PUSH0 PUSH1 0x1 PUSH0 DUP5 DUP2 MSTORE PUSH1 0x20 ADD SWAP1 DUP2 MSTORE PUSH1 0x20 ADD PUSH0 KECCAK256 PUSH1 0x2 ADD SLOAD SUB PUSH2 0x70D JUMPI PUSH1 0x40 MLOAD PUSH32 0x8C379A000000000000000000000000000000000000000000000000000000000 DUP2 MSTORE PUSH1 0x4 ADD PUSH2 0x704 SWAP1 PUSH2 0x18D1 JUMP JUMPDEST PUSH1 0x40 MLOAD DUP1 SWAP2 SUB SWAP1 REVERT JUMPDEST PUSH1 0x1 PUSH0 DUP4 DUP2 MSTORE PUSH1 0x20 ADD SWAP1 DUP2 MSTORE PUSH1 0x20 ADD PUSH0 KECCAK256 PUSH1 0x40 MLOAD DUP1 PUSH1 0xC0 ADD PUSH1 0x40 MSTORE SWAP1 DUP2 PUSH0 DUP3 ADD SLOAD DUP2 MSTORE PUSH1 0x20 ADD PUSH1 0x1 DUP3 ADD SLOAD DUP2 MSTORE PUSH1 0x20 ADD PUSH1 0x2 DUP3 ADD SLOAD DUP2 MSTORE PUSH1 0x20 ADD PUSH1 0x3 DUP3 ADD DUP1 SLOAD DUP1 PUSH1 0x20 MUL PUSH1 0x20 ADD PUSH1 0x40 MLOAD SWAP1 DUP2 ADD PUSH1 0x40 MSTORE DUP1 SWAP3 SWAP2 SWAP1 DUP2 DUP2 MSTORE PUSH1 0x20 ADD PUSH0 SWAP1 JUMPDEST DUP3 DUP3 LT ISZERO PUSH2 0x812 JUMPI DUP4 DUP3 SWAP1 PUSH0 MSTORE PUSH1 0x20 PUSH0 KECCAK256 ADD DUP1 SLOAD PUSH2 0x787 SWAP1 PUSH2 0x1798 JUMP JUMPDEST DUP1 PUSH1 0x1F ADD PUSH1 0x20 DUP1 SWAP2 DIV MUL PUSH1 0x20 ADD PUSH1 0x40 MLOAD SWAP1 DUP2 ADD PUSH1 0x40 MSTORE DUP1 SWAP3 SWAP2 SWAP1 DUP2 DUP2 MSTORE PUSH1 0x20 ADD DUP3 DUP1 SLOAD PUSH2 0x7B3 SWAP1 PUSH2 0x1798 JUMP JUMPDEST DUP1 ISZERO PUSH2 0x7FE JUMPI DUP1 PUSH1 0x1F LT PUSH2 0x7D5 JUMPI PUSH2 0x100 DUP1 DUP4 SLOAD DIV MUL DUP4 MSTORE SWAP2 PUSH1 0x20 ADD SWAP2 PUSH2 0x7FE JUMP JUMPDEST DUP3 ADD SWAP2 SWAP1 PUSH0 MSTORE PUSH1 0x20 PUSH0 KECCAK256 SWAP1 JUMPDEST DUP2 SLOAD DUP2 MSTORE SWAP1 PUSH1 0x1 ADD SWAP1 PUSH1 0x20 ADD DUP1 DUP4 GT PUSH2 0x7E1 JUMPI DUP3 SWAP1 SUB PUSH1 0x1F AND DUP3 ADD SWAP2 JUMPDEST POP POP POP POP POP DUP2 MSTORE PUSH1 0x20 ADD SWAP1 PUSH1 0x1 ADD SWAP1 PUSH2 0x76A JUMP JUMPDEST POP POP POP POP DUP2 MSTORE PUSH1 0x20 ADD PUSH1 0x4 DUP3 ADD DUP1 SLOAD DUP1 PUSH1 0x20 MUL PUSH1 0x20 ADD PUSH1 0x40 MLOAD SWAP1 DUP2 ADD PUSH1 0x40 MSTORE DUP1 SWAP3 SWAP2 SWAP1 DUP2 DUP2 MSTORE PUSH1 0x20 ADD DUP3 DUP1 SLOAD DUP1 ISZERO PUSH2 0x867 JUMPI PUSH1 0x20 MUL DUP3 ADD SWAP2 SWAP1 PUSH0 MSTORE PUSH1 0x20 PUSH0 KECCAK256 SWAP1 JUMPDEST DUP2 SLOAD DUP2 MSTORE PUSH1 0x20 ADD SWAP1 PUSH1 0x1 ADD SWAP1 DUP1 DUP4 GT PUSH2 0x853 JUMPI JUMPDEST POP POP POP POP POP DUP2 MSTORE PUSH1 0x20 ADD PUSH1 0x5 DUP3 ADD DUP1 SLOAD DUP1 PUSH1 0x20 MUL PUSH1 0x20 ADD PUSH1 0x40 MLOAD SWAP1 DUP2 ADD PUSH1 0x40 MSTORE DUP1 SWAP3 SWAP2 SWAP1 DUP2 DUP2 MSTORE PUSH1 0x20 ADD DUP3 DUP1 SLOAD DUP1 ISZERO PUSH2 0x8BD JUMPI PUSH1 0x20 MUL DUP3 ADD SWAP2 SWAP1 PUSH0 MSTORE PUSH1 0x20 PUSH0 KECCAK256 SWAP1 JUMPDEST DUP2 SLOAD DUP2 MSTORE PUSH1 0x20 ADD SWAP1 PUSH1 0x1 ADD SWAP1 DUP1 DUP4 GT PUSH2 0x8A9 JUMPI JUMPDEST POP POP POP POP POP DUP2 MSTORE POP POP SWAP1 POP SWAP2 SWAP1 POP JUMP JUMPDEST PUSH2 0x8D5 PUSH2 0xB6E JUMP JUMPDEST PUSH0 PUSH1 0x2 PUSH0 DUP5 DUP2 MSTORE PUSH1 0x20 ADD SWAP1 DUP2 MSTORE PUSH1 0x20 ADD PUSH0 KECCAK256 PUSH0 ADD SLOAD SUB PUSH2 0x92A JUMPI PUSH1 0x40 MLOAD PUSH32 0x8C379A000000000000000000000000000000000000000000000000000000000 DUP2 MSTORE PUSH1 0x4 ADD PUSH2 0x921 SWAP1 PUSH2 0x1939 JUMP JUMPDEST PUSH1 0x40 MLOAD DUP1 SWAP2 SUB SWAP1 REVERT JUMPDEST PUSH1 0x2 PUSH0 DUP4 DUP2 MSTORE PUSH1 0x20 ADD SWAP1 DUP2 MSTORE PUSH1 0x20 ADD PUSH0 KECCAK256 PUSH1 0x40 MLOAD DUP1 PUSH1 0xA0 ADD PUSH1 0x40 MSTORE SWAP1 DUP2 PUSH0 DUP3 ADD SLOAD DUP2 MSTORE PUSH1 0x20 ADD PUSH1 0x1 DUP3 ADD SLOAD DUP2 MSTORE PUSH1 0x20 ADD PUSH1 0x2 DUP3 ADD SLOAD DUP2 MSTORE PUSH1 0x20 ADD PUSH1 0x3 DUP3 ADD SLOAD DUP2 MSTORE PUSH1 0x20 ADD PUSH1 0x4 DUP3 ADD DUP1 SLOAD DUP1 PUSH1 0x20 MUL PUSH1 0x20 ADD PUSH1 0x40 MLOAD SWAP1 DUP2 ADD PUSH1 0x40 MSTORE DUP1 SWAP3 SWAP2 SWAP1 DUP2 DUP2 MSTORE PUSH1 0x20 ADD PUSH0 SWAP1 JUMPDEST DUP3 DUP3 LT ISZERO PUSH2 0xA39 JUMPI DUP4 DUP3 SWAP1 PUSH0 MSTORE PUSH1 0x20 PUSH0 KECCAK256 ADD DUP1 SLOAD PUSH2 0x9AE SWAP1 PUSH2 0x1798 JUMP JUMPDEST DUP1 PUSH1 0x1F ADD PUSH1 0x20 DUP1 SWAP2 DIV MUL PUSH1 0x20 ADD PUSH1 0x40 MLOAD SWAP1 DUP2 ADD PUSH1 0x40 MSTORE DUP1 SWAP3 SWAP2 SWAP1 DUP2 DUP2 MSTORE PUSH1 0x20 ADD DUP3 DUP1 SLOAD PUSH2 0x9DA SWAP1 PUSH2 0x1798 JUMP JUMPDEST DUP1 ISZERO PUSH2 0xA25 JUMPI DUP1 PUSH1 0x1F LT PUSH2 0x9FC JUMPI PUSH2 0x100 DUP1 DUP4 SLOAD DIV MUL DUP4 MSTORE SWAP2 PUSH1 0x20 ADD SWAP2 PUSH2 0xA25 JUMP JUMPDEST DUP3 ADD SWAP2 SWAP1 PUSH0 MSTORE PUSH1 0x20 PUSH0 KECCAK256 SWAP1 JUMPDEST DUP2 SLOAD DUP2 MSTORE SWAP1 PUSH1 0x1 ADD SWAP1 PUSH1 0x20 ADD DUP1 DUP4 GT PUSH2 0xA08 JUMPI DUP3 SWAP1 SUB PUSH1 0x1F AND DUP3 ADD SWAP2 JUMPDEST POP POP POP POP POP DUP2 MSTORE PUSH1 0x20 ADD SWAP1 PUSH1 0x1 ADD SWAP1 PUSH2 0x991 JUMP JUMPDEST POP POP POP POP DUP2 MSTORE POP POP SWAP1 POP SWAP2 SWAP1 POP JUMP JUMPDEST DUP3 DUP1 SLOAD DUP3 DUP3 SSTORE SWAP1 PUSH0 MSTORE PUSH1 0x20 PUSH0 KECCAK256 SWAP1 DUP2 ADD SWAP3 DUP3 ISZERO PUSH2 0xA8E JUMPI SWAP2 PUSH1 0x20 MUL DUP3 ADD JUMPDEST DUP3 DUP2 GT ISZERO PUSH2 0xA8D JUMPI DUP3 MLOAD DUP3 SWAP1 DUP2 PUSH2 0xA7D SWAP2 SWAP1 PUSH2 0x1AE2 JUMP JUMPDEST POP SWAP2 PUSH1 0x20 ADD SWAP2 SWAP1 PUSH1 0x1 ADD SWAP1 PUSH2 0xA66 JUMP JUMPDEST JUMPDEST POP SWAP1 POP PUSH2 0xA9B SWAP2 SWAP1 PUSH2 0xBA2 JUMP JUMPDEST POP SWAP1 JUMP JUMPDEST DUP3 DUP1 SLOAD DUP3 DUP3 SSTORE SWAP1 PUSH0 MSTORE PUSH1 0x20 PUSH0 KECCAK256 SWAP1 DUP2 ADD SWAP3 DUP3 ISZERO PUSH2 0xAD9 JUMPI SWAP2 PUSH1 0x20 MUL DUP3 ADD JUMPDEST DUP3 DUP2 GT ISZERO PUSH2 0xAD8 JUMPI DUP3 MLOAD DUP3 SSTORE SWAP2 PUSH1 0x20 ADD SWAP2 SWAP1 PUSH1 0x1 ADD SWAP1 PUSH2 0xABD JUMP JUMPDEST JUMPDEST POP SWAP1 POP PUSH2 0xAE6 SWAP2 SWAP1 PUSH2 0xBC5 JUMP JUMPDEST POP SWAP1 JUMP JUMPDEST DUP3 DUP1 SLOAD DUP3 DUP3 SSTORE SWAP1 PUSH0 MSTORE PUSH1 0x20 PUSH0 KECCAK256 SWAP1 DUP2 ADD SWAP3 DUP3 ISZERO PUSH2 0xB24 JUMPI SWAP2 PUSH1 0x20 MUL DUP3 ADD JUMPDEST DUP3 DUP2 GT ISZERO PUSH2 0xB23 JUMPI DUP3 MLOAD DUP3 SSTORE SWAP2 PUSH1 0x20 ADD SWAP2 SWAP1 PUSH1 0x1 ADD SWAP1 PUSH2 0xB08 JUMP JUMPDEST JUMPDEST POP SWAP1 POP PUSH2 0xB31 SWAP2 SWAP1 PUSH2 0xBE0 JUMP JUMPDEST POP SWAP1 JUMP JUMPDEST PUSH1 0x40 MLOAD DUP1 PUSH1 0xC0 ADD PUSH1 0x40 MSTORE DUP1 PUSH0 DUP1 NOT AND DUP2 MSTORE PUSH1 0x20 ADD PUSH0 DUP1 NOT AND DUP2 MSTORE PUSH1 0x20 ADD PUSH0 DUP2 MSTORE PUSH1 0x20 ADD PUSH1 0x60 DUP2 MSTORE PUSH1 0x20 ADD PUSH1 0x60 DUP2 MSTORE PUSH1 0x20 ADD PUSH1 0x60 DUP2 MSTORE POP SWAP1 JUMP JUMPDEST PUSH1 0x40 MLOAD DUP1 PUSH1 0xA0 ADD PUSH1 0x40 MSTORE DUP1 PUSH0 DUP2 MSTORE PUSH1 0x20 ADD PUSH0 DUP1 NOT AND DUP2 MSTORE PUSH1 0x20 ADD PUSH0 DUP1 NOT AND DUP2 MSTORE PUSH1 0x20 ADD PUSH0 DUP1 NOT AND DUP2 MSTORE PUSH1 0x20 ADD PUSH1 0x60 DUP2 MSTORE POP SWAP1 JUMP JUMPDEST JUMPDEST DUP1 DUP3 GT ISZERO PUSH2 0xBC1 JUMPI PUSH0 DUP2 DUP2 PUSH2 0xBB8 SWAP2 SWAP1 PUSH2 0xBFB JUMP JUMPDEST POP PUSH1 0x1 ADD PUSH2 0xBA3 JUMP JUMPDEST POP SWAP1 JUMP JUMPDEST JUMPDEST DUP1 DUP3 GT ISZERO PUSH2 0xBDC JUMPI PUSH0 DUP2 PUSH0 SWAP1 SSTORE POP PUSH1 0x1 ADD PUSH2 0xBC6 JUMP JUMPDEST POP SWAP1 JUMP JUMPDEST JUMPDEST DUP1 DUP3 GT ISZERO PUSH2 0xBF7 JUMPI PUSH0 DUP2 PUSH0 SWAP1 SSTORE POP PUSH1 0x1 ADD PUSH2 0xBE1 JUMP JUMPDEST POP SWAP1 JUMP JUMPDEST POP DUP1 SLOAD PUSH2 0xC07 SWAP1 PUSH2 0x1798 JUMP JUMPDEST PUSH0 DUP3 SSTORE DUP1 PUSH1 0x1F LT PUSH2 0xC18 JUMPI POP PUSH2 0xC35 JUMP JUMPDEST PUSH1 0x1F ADD PUSH1 0x20 SWAP1 DIV SWAP1 PUSH0 MSTORE PUSH1 0x20 PUSH0 KECCAK256 SWAP1 DUP2 ADD SWAP1 PUSH2 0xC34 SWAP2 SWAP1 PUSH2 0xBC5 JUMP JUMPDEST JUMPDEST POP JUMP JUMPDEST PUSH0 PUSH1 0x40 MLOAD SWAP1 POP SWAP1 JUMP JUMPDEST PUSH0 DUP1 REVERT JUMPDEST PUSH0 DUP1 REVERT JUMPDEST PUSH0 DUP2 SWAP1 POP SWAP2 SWAP1 POP JUMP JUMPDEST PUSH2 0xC5B DUP2 PUSH2 0xC49 JUMP JUMPDEST DUP2 EQ PUSH2 0xC65 JUMPI PUSH0 DUP1 REVERT JUMPDEST POP JUMP JUMPDEST PUSH0 DUP2 CALLDATALOAD SWAP1 POP PUSH2 0xC76 DUP2 PUSH2 0xC52 JUMP JUMPDEST SWAP3 SWAP2 POP POP JUMP JUMPDEST PUSH0 DUP2 SWAP1 POP SWAP2 SWAP1 POP JUMP JUMPDEST PUSH2 0xC8E DUP2 PUSH2 0xC7C JUMP JUMPDEST DUP2 EQ PUSH2 0xC98 JUMPI PUSH0 DUP1 REVERT JUMPDEST POP JUMP JUMPDEST PUSH0 DUP2 CALLDATALOAD SWAP1 POP PUSH2 0xCA9 DUP2 PUSH2 0xC85 JUMP JUMPDEST SWAP3 SWAP2 POP POP JUMP JUMPDEST PUSH0 DUP1 REVERT JUMPDEST PUSH0 PUSH1 0x1F NOT PUSH1 0x1F DUP4 ADD AND SWAP1 POP SWAP2 SWAP1 POP JUMP JUMPDEST PUSH32 0x4E487B7100000000000000000000000000000000000000000000000000000000 PUSH0 MSTORE PUSH1 0x41 PUSH1 0x4 MSTORE PUSH1 0x24 PUSH0 REVERT JUMPDEST PUSH2 0xCF9 DUP3 PUSH2 0xCB3 JUMP JUMPDEST DUP2 ADD DUP2 DUP2 LT PUSH8 0xFFFFFFFFFFFFFFFF DUP3 GT OR ISZERO PUSH2 0xD18 JUMPI PUSH2 0xD17 PUSH2 0xCC3 JUMP JUMPDEST JUMPDEST DUP1 PUSH1 0x40 MSTORE POP POP POP JUMP JUMPDEST PUSH0 PUSH2 0xD2A PUSH2 0xC38 JUMP JUMPDEST SWAP1 POP PUSH2 0xD36 DUP3 DUP3 PUSH2 0xCF0 JUMP JUMPDEST SWAP2 SWAP1 POP JUMP JUMPDEST PUSH0 PUSH8 0xFFFFFFFFFFFFFFFF DUP3 GT ISZERO PUSH2 0xD55 JUMPI PUSH2 0xD54 PUSH2 0xCC3 JUMP JUMPDEST JUMPDEST PUSH1 0x20 DUP3 MUL SWAP1 POP PUSH1 0x20 DUP2 ADD SWAP1 POP SWAP2 SWAP1 POP JUMP JUMPDEST PUSH0 DUP1 REVERT JUMPDEST PUSH0 DUP1 REVERT JUMPDEST PUSH0 PUSH8 0xFFFFFFFFFFFFFFFF DUP3 GT ISZERO PUSH2 0xD88 JUMPI PUSH2 0xD87 PUSH2 0xCC3 JUMP JUMPDEST JUMPDEST PUSH2 0xD91 DUP3 PUSH2 0xCB3 JUMP JUMPDEST SWAP1 POP PUSH1 0x20 DUP2 ADD SWAP1 POP SWAP2 SWAP1 POP JUMP JUMPDEST DUP3 DUP2 DUP4 CALLDATACOPY PUSH0 DUP4 DUP4 ADD MSTORE POP POP POP JUMP JUMPDEST PUSH0 PUSH2 0xDBE PUSH2 0xDB9 DUP5 PUSH2 0xD6E JUMP JUMPDEST PUSH2 0xD21 JUMP JUMPDEST SWAP1 POP DUP3 DUP2 MSTORE PUSH1 0x20 DUP2 ADD DUP5 DUP5 DUP5 ADD GT ISZERO PUSH2 0xDDA JUMPI PUSH2 0xDD9 PUSH2 0xD6A JUMP JUMPDEST JUMPDEST PUSH2 0xDE5 DUP5 DUP3 DUP6 PUSH2 0xD9E JUMP JUMPDEST POP SWAP4 SWAP3 POP POP POP JUMP JUMPDEST PUSH0 DUP3 PUSH1 0x1F DUP4 ADD SLT PUSH2 0xE01 JUMPI PUSH2 0xE00 PUSH2 0xCAF JUMP JUMPDEST JUMPDEST DUP2 CALLDATALOAD PUSH2 0xE11 DUP5 DUP3 PUSH1 0x20 DUP7 ADD PUSH2 0xDAC JUMP JUMPDEST SWAP2 POP POP SWAP3 SWAP2 POP POP JUMP JUMPDEST PUSH0 PUSH2 0xE2C PUSH2 0xE27 DUP5 PUSH2 0xD3B JUMP JUMPDEST PUSH2 0xD21 JUMP JUMPDEST SWAP1 POP DUP1 DUP4 DUP3 MSTORE PUSH1 0x20 DUP3 ADD SWAP1 POP PUSH1 0x20 DUP5 MUL DUP4 ADD DUP6 DUP2 GT ISZERO PUSH2 0xE4F JUMPI PUSH2 0xE4E PUSH2 0xD66 JUMP JUMPDEST JUMPDEST DUP4 JUMPDEST DUP2 DUP2 LT ISZERO PUSH2 0xE96 JUMPI DUP1 CALLDATALOAD PUSH8 0xFFFFFFFFFFFFFFFF DUP2 GT ISZERO PUSH2 0xE74 JUMPI PUSH2 0xE73 PUSH2 0xCAF JUMP JUMPDEST JUMPDEST DUP1 DUP7 ADD PUSH2 0xE81 DUP10 DUP3 PUSH2 0xDED JUMP JUMPDEST DUP6 MSTORE PUSH1 0x20 DUP6 ADD SWAP5 POP POP POP PUSH1 0x20 DUP2 ADD SWAP1 POP PUSH2 0xE51 JUMP JUMPDEST POP POP POP SWAP4 SWAP3 POP POP POP JUMP JUMPDEST PUSH0 DUP3 PUSH1 0x1F DUP4 ADD SLT PUSH2 0xEB4 JUMPI PUSH2 0xEB3 PUSH2 0xCAF JUMP JUMPDEST JUMPDEST DUP2 CALLDATALOAD PUSH2 0xEC4 DUP5 DUP3 PUSH1 0x20 DUP7 ADD PUSH2 0xE1A JUMP JUMPDEST SWAP2 POP POP SWAP3 SWAP2 POP POP JUMP JUMPDEST PUSH0 PUSH8 0xFFFFFFFFFFFFFFFF DUP3 GT ISZERO PUSH2 0xEE7 JUMPI PUSH2 0xEE6 PUSH2 0xCC3 JUMP JUMPDEST JUMPDEST PUSH1 0x20 DUP3 MUL SWAP1 POP PUSH1 0x20 DUP2 ADD SWAP1 POP SWAP2 SWAP1 POP JUMP JUMPDEST PUSH0 PUSH2 0xF0A PUSH2 0xF05 DUP5 PUSH2 0xECD JUMP JUMPDEST PUSH2 0xD21 JUMP JUMPDEST SWAP1 POP DUP1 DUP4 DUP3 MSTORE PUSH1 0x20 DUP3 ADD SWAP1 POP PUSH1 0x20 DUP5 MUL DUP4 ADD DUP6 DUP2 GT ISZERO PUSH2 0xF2D JUMPI PUSH2 0xF2C PUSH2 0xD66 JUMP JUMPDEST JUMPDEST DUP4 JUMPDEST DUP2 DUP2 LT ISZERO PUSH2 0xF56 JUMPI DUP1 PUSH2 0xF42 DUP9 DUP3 PUSH2 0xC9B JUMP JUMPDEST DUP5 MSTORE PUSH1 0x20 DUP5 ADD SWAP4 POP POP PUSH1 0x20 DUP2 ADD SWAP1 POP PUSH2 0xF2F JUMP JUMPDEST POP POP POP SWAP4 SWAP3 POP POP POP JUMP JUMPDEST PUSH0 DUP3 PUSH1 0x1F DUP4 ADD SLT PUSH2 0xF74 JUMPI PUSH2 0xF73 PUSH2 0xCAF JUMP JUMPDEST JUMPDEST DUP2 CALLDATALOAD PUSH2 0xF84 DUP5 DUP3 PUSH1 0x20 DUP7 ADD PUSH2 0xEF8 JUMP JUMPDEST SWAP2 POP POP SWAP3 SWAP2 POP POP JUMP JUMPDEST PUSH0 DUP1 PUSH0 DUP1 PUSH0 PUSH1 0xA0 DUP7 DUP9 SUB SLT ISZERO PUSH2 0xFA6 JUMPI PUSH2 0xFA5 PUSH2 0xC41 JUMP JUMPDEST JUMPDEST PUSH0 PUSH2 0xFB3 DUP9 DUP3 DUP10 ADD PUSH2 0xC68 JUMP JUMPDEST SWAP6 POP POP PUSH1 0x20 PUSH2 0xFC4 DUP9 DUP3 DUP10 ADD PUSH2 0xC68 JUMP JUMPDEST SWAP5 POP POP PUSH1 0x40 PUSH2 0xFD5 DUP9 DUP3 DUP10 ADD PUSH2 0xC9B JUMP JUMPDEST SWAP4 POP POP PUSH1 0x60 DUP7 ADD CALLDATALOAD PUSH8 0xFFFFFFFFFFFFFFFF DUP2 GT ISZERO PUSH2 0xFF6 JUMPI PUSH2 0xFF5 PUSH2 0xC45 JUMP JUMPDEST JUMPDEST PUSH2 0x1002 DUP9 DUP3 DUP10 ADD PUSH2 0xEA0 JUMP JUMPDEST SWAP3 POP POP PUSH1 0x80 DUP7 ADD CALLDATALOAD PUSH8 0xFFFFFFFFFFFFFFFF DUP2 GT ISZERO PUSH2 0x1023 JUMPI PUSH2 0x1022 PUSH2 0xC45 JUMP JUMPDEST JUMPDEST PUSH2 0x102F DUP9 DUP3 DUP10 ADD PUSH2 0xF60 JUMP JUMPDEST SWAP2 POP POP SWAP3 SWAP6 POP SWAP3 SWAP6 SWAP1 SWAP4 POP JUMP JUMPDEST PUSH0 PUSH1 0x20 DUP3 DUP5 SUB SLT ISZERO PUSH2 0x1051 JUMPI PUSH2 0x1050 PUSH2 0xC41 JUMP JUMPDEST JUMPDEST PUSH0 PUSH2 0x105E DUP5 DUP3 DUP6 ADD PUSH2 0xC9B JUMP JUMPDEST SWAP2 POP POP SWAP3 SWAP2 POP POP JUMP JUMPDEST PUSH2 0x1070 DUP2 PUSH2 0xC7C JUMP JUMPDEST DUP3 MSTORE POP POP JUMP JUMPDEST PUSH0 PUSH1 0x20 DUP3 ADD SWAP1 POP PUSH2 0x1089 PUSH0 DUP4 ADD DUP5 PUSH2 0x1067 JUMP JUMPDEST SWAP3 SWAP2 POP POP JUMP JUMPDEST PUSH0 PUSH20 0xFFFFFFFFFFFFFFFFFFFFFFFFFFFFFFFFFFFFFFFF DUP3 AND SWAP1 POP SWAP2 SWAP1 POP JUMP JUMPDEST PUSH0 PUSH2 0x10B8 DUP3 PUSH2 0x108F JUMP JUMPDEST SWAP1 POP SWAP2 SWAP1 POP JUMP JUMPDEST PUSH2 0x10C8 DUP2 PUSH2 0x10AE JUMP JUMPDEST DUP3 MSTORE POP POP JUMP JUMPDEST PUSH0 PUSH1 0x20 DUP3 ADD SWAP1 POP PUSH2 0x10E1 PUSH0 DUP4 ADD DUP5 PUSH2 0x10BF JUMP JUMPDEST SWAP3 SWAP2 POP POP JUMP JUMPDEST PUSH0 DUP1 PUSH0 DUP1 PUSH0 PUSH1 0xA0 DUP7 DUP9 SUB SLT ISZERO PUSH2 0x1100 JUMPI PUSH2 0x10FF PUSH2 0xC41 JUMP JUMPDEST JUMPDEST PUSH0 PUSH2 0x110D DUP9 DUP3 DUP10 ADD PUSH2 0xC9B JUMP JUMPDEST SWAP6 POP POP PUSH1 0x20 PUSH2 0x111E DUP9 DUP3 DUP10 ADD PUSH2 0xC68 JUMP JUMPDEST SWAP5 POP POP PUSH1 0x40 PUSH2 0x112F DUP9 DUP3 DUP10 ADD PUSH2 0xC68 JUMP JUMPDEST SWAP4 POP POP PUSH1 0x60 PUSH2 0x1140 DUP9 DUP3 DUP10 ADD PUSH2 0xC68 JUMP JUMPDEST SWAP3 POP POP PUSH1 0x80 DUP7 ADD CALLDATALOAD PUSH8 0xFFFFFFFFFFFFFFFF DUP2 GT ISZERO PUSH2 0x1161 JUMPI PUSH2 0x1160 PUSH2 0xC45 JUMP JUMPDEST JUMPDEST PUSH2 0x116D DUP9 DUP3 DUP10 ADD PUSH2 0xEA0 JUMP JUMPDEST SWAP2 POP POP SWAP3 SWAP6 POP SWAP3 SWAP6 SWAP1 SWAP4 POP JUMP JUMPDEST PUSH2 0x1183 DUP2 PUSH2 0xC49 JUMP JUMPDEST DUP3 MSTORE POP POP JUMP JUMPDEST PUSH0 PUSH1 0x20 DUP3 ADD SWAP1 POP PUSH2 0x119C PUSH0 DUP4 ADD DUP5 PUSH2 0x117A JUMP JUMPDEST SWAP3 SWAP2 POP POP JUMP JUMPDEST PUSH2 0x11AB DUP2 PUSH2 0xC49 JUMP JUMPDEST DUP3 MSTORE POP POP JUMP JUMPDEST PUSH2 0x11BA DUP2 PUSH2 0xC7C JUMP JUMPDEST DUP3 MSTORE POP POP JUMP JUMPDEST PUSH0 DUP2 MLOAD SWAP1 POP SWAP2 SWAP1 POP JUMP JUMPDEST PUSH0 DUP3 DUP3 MSTORE PUSH1 0x20 DUP3 ADD SWAP1 POP SWAP3 SWAP2 POP POP JUMP JUMPDEST PUSH0 DUP2 SWAP1 POP PUSH1 0x20 DUP3 ADD SWAP1 POP SWAP2 SWAP1 POP JUMP JUMPDEST PUSH0 DUP2 MLOAD SWAP1 POP SWAP2 SWAP1 POP JUMP JUMPDEST PUSH0 DUP3 DUP3 MSTORE PUSH1 0x20 DUP3 ADD SWAP1 POP SWAP3 SWAP2 POP POP JUMP JUMPDEST PUSH0 JUMPDEST DUP4 DUP2 LT ISZERO PUSH2 0x1220 JUMPI DUP1 DUP3 ADD MLOAD DUP2 DUP5 ADD MSTORE PUSH1 0x20 DUP2 ADD SWAP1 POP PUSH2 0x1205 JUMP JUMPDEST PUSH0 DUP5 DUP5 ADD MSTORE POP POP POP POP JUMP JUMPDEST PUSH0 PUSH2 0x1235 DUP3 PUSH2 0x11E9 JUMP JUMPDEST PUSH2 0x123F DUP2 DUP6 PUSH2 0x11F3 JUMP JUMPDEST SWAP4 POP PUSH2 0x124F DUP2 DUP6 PUSH1 0x20 DUP7 ADD PUSH2 0x1203 JUMP JUMPDEST PUSH2 0x1258 DUP2 PUSH2 0xCB3 JUMP JUMPDEST DUP5 ADD SWAP2 POP POP SWAP3 SWAP2 POP POP JUMP JUMPDEST PUSH0 PUSH2 0x126E DUP4 DUP4 PUSH2 0x122B JUMP JUMPDEST SWAP1 POP SWAP3 SWAP2 POP POP JUMP JUMPDEST PUSH0 PUSH1 0x20 DUP3 ADD SWAP1 POP SWAP2 SWAP1 POP JUMP JUMPDEST PUSH0 PUSH2 0x128C DUP3 PUSH2 0x11C0 JUMP JUMPDEST PUSH2 0x1296 DUP2 DUP6 PUSH2 0x11CA JUMP JUMPDEST SWAP4 POP DUP4 PUSH1 0x20 DUP3 MUL DUP6 ADD PUSH2 0x12A8 DUP6 PUSH2 0x11DA JUMP JUMPDEST DUP1 PUSH0 JUMPDEST DUP6 DUP2 LT ISZERO PUSH2 0x12E3 JUMPI DUP5 DUP5 SUB DUP10 MSTORE DUP2 MLOAD PUSH2 0x12C4 DUP6 DUP3 PUSH2 0x1263 JUMP JUMPDEST SWAP5 POP PUSH2 0x12CF DUP4 PUSH2 0x1276 JUMP JUMPDEST SWAP3 POP PUSH1 0x20 DUP11 ADD SWAP10 POP POP PUSH1 0x1 DUP2 ADD SWAP1 POP PUSH2 0x12AB JUMP JUMPDEST POP DUP3 SWAP8 POP DUP8 SWAP6 POP POP POP POP POP POP SWAP3 SWAP2 POP POP JUMP JUMPDEST PUSH0 DUP2 MLOAD SWAP1 POP SWAP2 SWAP1 POP JUMP JUMPDEST PUSH0 DUP3 DUP3 MSTORE PUSH1 0x20 DUP3 ADD SWAP1 POP SWAP3 SWAP2 POP POP JUMP JUMPDEST PUSH0 DUP2 SWAP1 POP PUSH1 0x20 DUP3 ADD SWAP1 POP SWAP2 SWAP1 POP JUMP JUMPDEST PUSH0 PUSH2 0x1329 DUP4 DUP4 PUSH2 0x11B1 JUMP JUMPDEST PUSH1 0x20 DUP4 ADD SWAP1 POP SWAP3 SWAP2 POP POP JUMP JUMPDEST PUSH0 PUSH1 0x20 DUP3 ADD SWAP1 POP SWAP2 SWAP1 POP JUMP JUMPDEST PUSH0 PUSH2 0x134B DUP3 PUSH2 0x12F5 JUMP JUMPDEST PUSH2 0x1355 DUP2 DUP6 PUSH2 0x12FF JUMP JUMPDEST SWAP4 POP PUSH2 0x1360 DUP4 PUSH2 0x130F JUMP JUMPDEST DUP1 PUSH0 JUMPDEST DUP4 DUP2 LT ISZERO PUSH2 0x1390 JUMPI DUP2 MLOAD PUSH2 0x1377 DUP9 DUP3 PUSH2 0x131E JUMP JUMPDEST SWAP8 POP PUSH2 0x1382 DUP4 PUSH2 0x1335 JUMP JUMPDEST SWAP3 POP POP PUSH1 0x1 DUP2 ADD SWAP1 POP PUSH2 0x1363 JUMP JUMPDEST POP DUP6 SWAP4 POP POP POP POP SWAP3 SWAP2 POP POP JUMP JUMPDEST PUSH0 DUP2 MLOAD SWAP1 POP SWAP2 SWAP1 POP JUMP JUMPDEST PUSH0 DUP3 DUP3 MSTORE PUSH1 0x20 DUP3 ADD SWAP1 POP SWAP3 SWAP2 POP POP JUMP JUMPDEST PUSH0 DUP2 SWAP1 POP PUSH1 0x20 DUP3 ADD SWAP1 POP SWAP2 SWAP1 POP JUMP JUMPDEST PUSH0 PUSH2 0x13D1 DUP4 DUP4 PUSH2 0x11A2 JUMP JUMPDEST PUSH1 0x20 DUP4 ADD SWAP1 POP SWAP3 SWAP2 POP POP JUMP JUMPDEST PUSH0 PUSH1 0x20 DUP3 ADD SWAP1 POP SWAP2 SWAP1 POP JUMP JUMPDEST PUSH0 PUSH2 0x13F3 DUP3 PUSH2 0x139D JUMP JUMPDEST PUSH2 0x13FD DUP2 DUP6 PUSH2 0x13A7 JUMP JUMPDEST SWAP4 POP PUSH2 0x1408 DUP4 PUSH2 0x13B7 JUMP JUMPDEST DUP1 PUSH0 JUMPDEST DUP4 DUP2 LT ISZERO PUSH2 0x1438 JUMPI DUP2 MLOAD PUSH2 0x141F DUP9 DUP3 PUSH2 0x13C6 JUMP JUMPDEST SWAP8 POP PUSH2 0x142A DUP4 PUSH2 0x13DD JUMP JUMPDEST SWAP3 POP POP PUSH1 0x1 DUP2 ADD SWAP1 POP PUSH2 0x140B JUMP JUMPDEST POP DUP6 SWAP4 POP POP POP POP SWAP3 SWAP2 POP POP JUMP JUMPDEST PUSH0 PUSH1 0xC0 DUP4 ADD PUSH0 DUP4 ADD MLOAD PUSH2 0x145A PUSH0 DUP7 ADD DUP3 PUSH2 0x11A2 JUMP JUMPDEST POP PUSH1 0x20 DUP4 ADD MLOAD PUSH2 0x146D PUSH1 0x20 DUP7 ADD DUP3 PUSH2 0x11A2 JUMP JUMPDEST POP PUSH1 0x40 DUP4 ADD MLOAD PUSH2 0x1480 PUSH1 0x40 DUP7 ADD DUP3 PUSH2 0x11B1 JUMP JUMPDEST POP PUSH1 0x60 DUP4 ADD MLOAD DUP5 DUP3 SUB PUSH1 0x60 DUP7 ADD MSTORE PUSH2 0x1498 DUP3 DUP3 PUSH2 0x1282 JUMP JUMPDEST SWAP2 POP POP PUSH1 0x80 DUP4 ADD MLOAD DUP5 DUP3 SUB PUSH1 0x80 DUP7 ADD MSTORE PUSH2 0x14B2 DUP3 DUP3 PUSH2 0x1341 JUMP JUMPDEST SWAP2 POP POP PUSH1 0xA0 DUP4 ADD MLOAD DUP5 DUP3 SUB PUSH1 0xA0 DUP7 ADD MSTORE PUSH2 0x14CC DUP3 DUP3 PUSH2 0x13E9 JUMP JUMPDEST SWAP2 POP POP DUP1 SWAP2 POP POP SWAP3 SWAP2 POP POP JUMP JUMPDEST PUSH0 PUSH1 0x20 DUP3 ADD SWAP1 POP DUP2 DUP2 SUB PUSH0 DUP4 ADD MSTORE PUSH2 0x14F1 DUP2 DUP5 PUSH2 0x1445 JUMP JUMPDEST SWAP1 POP SWAP3 SWAP2 POP POP JUMP JUMPDEST PUSH0 PUSH1 0xA0 DUP4 ADD PUSH0 DUP4 ADD MLOAD PUSH2 0x150E PUSH0 DUP7 ADD DUP3 PUSH2 0x11B1 JUMP JUMPDEST POP PUSH1 0x20 DUP4 ADD MLOAD PUSH2 0x1521 PUSH1 0x20 DUP7 ADD DUP3 PUSH2 0x11A2 JUMP JUMPDEST POP PUSH1 0x40 DUP4 ADD MLOAD PUSH2 0x1534 PUSH1 0x40 DUP7 ADD DUP3 PUSH2 0x11A2 JUMP JUMPDEST POP PUSH1 0x60 DUP4 ADD MLOAD PUSH2 0x1547 PUSH1 0x60 DUP7 ADD DUP3 PUSH2 0x11A2 JUMP JUMPDEST POP PUSH1 0x80 DUP4 ADD MLOAD DUP5 DUP3 SUB PUSH1 0x80 DUP7 ADD MSTORE PUSH2 0x155F DUP3 DUP3 PUSH2 0x1282 JUMP JUMPDEST SWAP2 POP POP DUP1 SWAP2 POP POP SWAP3 SWAP2 POP POP JUMP JUMPDEST PUSH0 PUSH1 0x20 DUP3 ADD SWAP1 POP DUP2 DUP2 SUB PUSH0 DUP4 ADD MSTORE PUSH2 0x1584 DUP2 DUP5 PUSH2 0x14F9 JUMP JUMPDEST SWAP1 POP SWAP3 SWAP2 POP POP JUMP JUMPDEST PUSH0 DUP3 DUP3 MSTORE PUSH1 0x20 DUP3 ADD SWAP1 POP SWAP3 SWAP2 POP POP JUMP JUMPDEST PUSH32 0x4F6E6C792074686520636F6E7472616374206F776E65722063616E2070657266 PUSH0 DUP3 ADD MSTORE PUSH32 0x6F726D2074686973206F7065726174696F6E0000000000000000000000000000 PUSH1 0x20 DUP3 ADD MSTORE POP JUMP JUMPDEST PUSH0 PUSH2 0x15F6 PUSH1 0x32 DUP4 PUSH2 0x158C JUMP JUMPDEST SWAP2 POP PUSH2 0x1601 DUP3 PUSH2 0x159C JUMP JUMPDEST PUSH1 0x40 DUP3 ADD SWAP1 POP SWAP2 SWAP1 POP JUMP JUMPDEST PUSH0 PUSH1 0x20 DUP3 ADD SWAP1 POP DUP2 DUP2 SUB PUSH0 DUP4 ADD MSTORE PUSH2 0x1623 DUP2 PUSH2 0x15EA JUMP JUMPDEST SWAP1 POP SWAP2 SWAP1 POP JUMP JUMPDEST PUSH32 0x4E487B7100000000000000000000000000000000000000000000000000000000 PUSH0 MSTORE PUSH1 0x32 PUSH1 0x4 MSTORE PUSH1 0x24 PUSH0 REVERT JUMPDEST PUSH32 0x4E487B7100000000000000000000000000000000000000000000000000000000 PUSH0 MSTORE PUSH1 0x11 PUSH1 0x4 MSTORE PUSH1 0x24 PUSH0 REVERT JUMPDEST PUSH0 PUSH2 0x168E DUP3 PUSH2 0xC7C JUMP JUMPDEST SWAP2 POP PUSH32 0xFFFFFFFFFFFFFFFFFFFFFFFFFFFFFFFFFFFFFFFFFFFFFFFFFFFFFFFFFFFFFFFF DUP3 SUB PUSH2 0x16C0 JUMPI PUSH2 0x16BF PUSH2 0x1657 JUMP JUMPDEST JUMPDEST PUSH1 0x1 DUP3 ADD SWAP1 POP SWAP2 SWAP1 POP JUMP JUMPDEST PUSH0 DUP2 SWAP1 POP SWAP2 SWAP1 POP JUMP JUMPDEST PUSH2 0x16E5 PUSH2 0x16E0 DUP3 PUSH2 0xC49 JUMP JUMPDEST PUSH2 0x16CB JUMP JUMPDEST DUP3 MSTORE POP POP JUMP JUMPDEST PUSH0 PUSH2 0x16F6 DUP3 DUP7 PUSH2 0x16D4 JUMP JUMPDEST PUSH1 0x20 DUP3 ADD SWAP2 POP PUSH2 0x1706 DUP3 DUP6 PUSH2 0x16D4 JUMP JUMPDEST PUSH1 0x20 DUP3 ADD SWAP2 POP PUSH2 0x1716 DUP3 DUP5 PUSH2 0x16D4 JUMP JUMPDEST PUSH1 0x20 DUP3 ADD SWAP2 POP DUP2 SWAP1 POP SWAP5 SWAP4 POP POP POP POP JUMP JUMPDEST PUSH0 DUP2 MLOAD SWAP1 POP SWAP2 SWAP1 POP JUMP JUMPDEST PUSH0 DUP2 SWAP1 POP SWAP3 SWAP2 POP POP JUMP JUMPDEST PUSH0 PUSH2 0x1745 DUP3 PUSH2 0x1727 JUMP JUMPDEST PUSH2 0x174F DUP2 DUP6 PUSH2 0x1731 JUMP JUMPDEST SWAP4 POP PUSH2 0x175F DUP2 DUP6 PUSH1 0x20 DUP7 ADD PUSH2 0x1203 JUMP JUMPDEST DUP1 DUP5 ADD SWAP2 POP POP SWAP3 SWAP2 POP POP JUMP JUMPDEST PUSH32 0x4E487B7100000000000000000000000000000000000000000000000000000000 PUSH0 MSTORE PUSH1 0x22 PUSH1 0x4 MSTORE PUSH1 0x24 PUSH0 REVERT JUMPDEST PUSH0 PUSH1 0x2 DUP3 DIV SWAP1 POP PUSH1 0x1 DUP3 AND DUP1 PUSH2 0x17AF JUMPI PUSH1 0x7F DUP3 AND SWAP2 POP JUMPDEST PUSH1 0x20 DUP3 LT DUP2 SUB PUSH2 0x17C2 JUMPI PUSH2 0x17C1 PUSH2 0x176B JUMP JUMPDEST JUMPDEST POP SWAP2 SWAP1 POP JUMP JUMPDEST PUSH0 DUP2 SWAP1 POP SWAP3 SWAP2 POP POP JUMP JUMPDEST PUSH0 DUP2 SWAP1 POP DUP2 PUSH0 MSTORE PUSH1 0x20 PUSH0 KECCAK256 SWAP1 POP SWAP2 SWAP1 POP JUMP JUMPDEST PUSH0 DUP2 SLOAD PUSH2 0x17F0 DUP2 PUSH2 0x1798 JUMP JUMPDEST PUSH2 0x17FA DUP2 DUP7 PUSH2 0x17C8 JUMP JUMPDEST SWAP5 POP PUSH1 0x1 DUP3 AND PUSH0 DUP2 EQ PUSH2 0x1814 JUMPI PUSH1 0x1 DUP2 EQ PUSH2 0x1829 JUMPI PUSH2 0x185B JUMP JUMPDEST PUSH1 0xFF NOT DUP4 AND DUP7 MSTORE DUP2 ISZERO ISZERO DUP3 MUL DUP7 ADD SWAP4 POP PUSH2 0x185B JUMP JUMPDEST PUSH2 0x1832 DUP6 PUSH2 0x17D2 JUMP JUMPDEST PUSH0 JUMPDEST DUP4 DUP2 LT ISZERO PUSH2 0x1853 JUMPI DUP2 SLOAD DUP2 DUP10 ADD MSTORE PUSH1 0x1 DUP3 ADD SWAP2 POP PUSH1 0x20 DUP2 ADD SWAP1 POP PUSH2 0x1834 JUMP JUMPDEST DUP4 DUP9 ADD SWAP6 POP POP POP JUMPDEST POP POP POP SWAP3 SWAP2 POP POP JUMP JUMPDEST PUSH0 PUSH2 0x186F DUP3 DUP6 PUSH2 0x173B JUMP JUMPDEST SWAP2 POP PUSH2 0x187B DUP3 DUP5 PUSH2 0x17E4 JUMP JUMPDEST SWAP2 POP DUP2 SWAP1 POP SWAP4 SWAP3 POP POP POP JUMP JUMPDEST PUSH32 0x44617461205573657220646F6573206E6F742065786973742E00000000000000 PUSH0 DUP3 ADD MSTORE POP JUMP JUMPDEST PUSH0 PUSH2 0x18BB PUSH1 0x19 DUP4 PUSH2 0x158C JUMP JUMPDEST SWAP2 POP PUSH2 0x18C6 DUP3 PUSH2 0x1887 JUMP JUMPDEST PUSH1 0x20 DUP3 ADD SWAP1 POP SWAP2 SWAP1 POP JUMP JUMPDEST PUSH0 PUSH1 0x20 DUP3 ADD SWAP1 POP DUP2 DUP2 SUB PUSH0 DUP4 ADD MSTORE PUSH2 0x18E8 DUP2 PUSH2 0x18AF JUMP JUMPDEST SWAP1 POP SWAP2 SWAP1 POP JUMP JUMPDEST PUSH32 0x506572736F6E616C4461746120646F6573206E6F742065786973742E00000000 PUSH0 DUP3 ADD MSTORE POP JUMP JUMPDEST PUSH0 PUSH2 0x1923 PUSH1 0x1C DUP4 PUSH2 0x158C JUMP JUMPDEST SWAP2 POP PUSH2 0x192E DUP3 PUSH2 0x18EF JUMP JUMPDEST PUSH1 0x20 DUP3 ADD SWAP1 POP SWAP2 SWAP1 POP JUMP JUMPDEST PUSH0 PUSH1 0x20 DUP3 ADD SWAP1 POP DUP2 DUP2 SUB PUSH0 DUP4 ADD MSTORE PUSH2 0x1950 DUP2 PUSH2 0x1917 JUMP JUMPDEST SWAP1 POP SWAP2 SWAP1 POP JUMP JUMPDEST PUSH0 PUSH1 0x20 PUSH1 0x1F DUP4 ADD DIV SWAP1 POP SWAP2 SWAP1 POP JUMP JUMPDEST PUSH0 DUP3 DUP3 SHL SWAP1 POP SWAP3 SWAP2 POP POP JUMP JUMPDEST PUSH0 PUSH1 0x8 DUP4 MUL PUSH2 0x19A1 PUSH32 0xFFFFFFFFFFFFFFFFFFFFFFFFFFFFFFFFFFFFFFFFFFFFFFFFFFFFFFFFFFFFFFFF DUP3 PUSH2 0x1966 JUMP JUMPDEST PUSH2 0x19AB DUP7 DUP4 PUSH2 0x1966 JUMP JUMPDEST SWAP6 POP DUP1 NOT DUP5 AND SWAP4 POP DUP1 DUP7 AND DUP5 OR SWAP3 POP POP POP SWAP4 SWAP3 POP POP POP JUMP JUMPDEST PUSH0 DUP2 SWAP1 POP SWAP2 SWAP1 POP JUMP JUMPDEST PUSH0 PUSH2 0x19E6 PUSH2 0x19E1 PUSH2 0x19DC DUP5 PUSH2 0xC7C JUMP JUMPDEST PUSH2 0x19C3 JUMP JUMPDEST PUSH2 0xC7C JUMP JUMPDEST SWAP1 POP SWAP2 SWAP1 POP JUMP JUMPDEST PUSH0 DUP2 SWAP1 POP SWAP2 SWAP1 POP JUMP JUMPDEST PUSH2 0x19FF DUP4 PUSH2 0x19CC JUMP JUMPDEST PUSH2 0x1A13 PUSH2 0x1A0B DUP3 PUSH2 0x19ED JUMP JUMPDEST DUP5 DUP5 SLOAD PUSH2 0x1972 JUMP JUMPDEST DUP3 SSTORE POP POP POP POP JUMP JUMPDEST PUSH0 SWAP1 JUMP JUMPDEST PUSH2 0x1A27 PUSH2 0x1A1B JUMP JUMPDEST PUSH2 0x1A32 DUP2 DUP5 DUP5 PUSH2 0x19F6 JUMP JUMPDEST POP POP POP JUMP JUMPDEST JUMPDEST DUP2 DUP2 LT ISZERO PUSH2 0x1A55 JUMPI PUSH2 0x1A4A PUSH0 DUP3 PUSH2 0x1A1F JUMP JUMPDEST PUSH1 0x1 DUP2 ADD SWAP1 POP PUSH2 0x1A38 JUMP JUMPDEST POP POP JUMP JUMPDEST PUSH1 0x1F DUP3 GT ISZERO PUSH2 0x1A9A JUMPI PUSH2 0x1A6B DUP2 PUSH2 0x17D2 JUMP JUMPDEST PUSH2 0x1A74 DUP5 PUSH2 0x1957 JUMP JUMPDEST DUP2 ADD PUSH1 0x20 DUP6 LT ISZERO PUSH2 0x1A83 JUMPI DUP2 SWAP1 POP JUMPDEST PUSH2 0x1A97 PUSH2 0x1A8F DUP6 PUSH2 0x1957 JUMP JUMPDEST DUP4 ADD DUP3 PUSH2 0x1A37 JUMP JUMPDEST POP POP JUMPDEST POP POP POP JUMP JUMPDEST PUSH0 DUP3 DUP3 SHR SWAP1 POP SWAP3 SWAP2 POP POP JUMP JUMPDEST PUSH0 PUSH2 0x1ABA PUSH0 NOT DUP5 PUSH1 0x8 MUL PUSH2 0x1A9F JUMP JUMPDEST NOT DUP1 DUP4 AND SWAP2 POP POP SWAP3 SWAP2 POP POP JUMP JUMPDEST PUSH0 PUSH2 0x1AD2 DUP4 DUP4 PUSH2 0x1AAB JUMP JUMPDEST SWAP2 POP DUP3 PUSH1 0x2 MUL DUP3 OR SWAP1 POP SWAP3 SWAP2 POP POP JUMP JUMPDEST PUSH2 0x1AEB DUP3 PUSH2 0x11E9 JUMP JUMPDEST PUSH8 0xFFFFFFFFFFFFFFFF DUP2 GT ISZERO PUSH2 0x1B04 JUMPI PUSH2 0x1B03 PUSH2 0xCC3 JUMP JUMPDEST JUMPDEST PUSH2 0x1B0E DUP3 SLOAD PUSH2 0x1798 JUMP JUMPDEST PUSH2 0x1B19 DUP3 DUP3 DUP6 PUSH2 0x1A59 JUMP JUMPDEST PUSH0 PUSH1 0x20 SWAP1 POP PUSH1 0x1F DUP4 GT PUSH1 0x1 DUP2 EQ PUSH2 0x1B4A JUMPI PUSH0 DUP5 ISZERO PUSH2 0x1B38 JUMPI DUP3 DUP8 ADD MLOAD SWAP1 POP JUMPDEST PUSH2 0x1B42 DUP6 DUP3 PUSH2 0x1AC7 JUMP JUMPDEST DUP7 SSTORE POP PUSH2 0x1BA9 JUMP JUMPDEST PUSH1 0x1F NOT DUP5 AND PUSH2 0x1B58 DUP7 PUSH2 0x17D2 JUMP JUMPDEST PUSH0 JUMPDEST DUP3 DUP2 LT ISZERO PUSH2 0x1B7F JUMPI DUP5 DUP10 ADD MLOAD DUP3 SSTORE PUSH1 0x1 DUP3 ADD SWAP2 POP PUSH1 0x20 DUP6 ADD SWAP5 POP PUSH1 0x20 DUP2 ADD SWAP1 POP PUSH2 0x1B5A JUMP JUMPDEST DUP7 DUP4 LT ISZERO PUSH2 0x1B9C JUMPI DUP5 DUP10 ADD MLOAD PUSH2 0x1B98 PUSH1 0x1F DUP10 AND DUP3 PUSH2 0x1AAB JUMP JUMPDEST DUP4 SSTORE POP JUMPDEST PUSH1 0x1 PUSH1 0x2 DUP9 MUL ADD DUP9 SSTORE POP POP POP JUMPDEST POP POP POP POP POP POP JUMP INVALID LOG2 PUSH5 0x6970667358 0x22 SLT KECCAK256 0xBE PC DUP5 INVALID PUSH30 0xEC537B480C5793426322C25CE4060D7C2B49ED92815EAC345BC80064736F PUSH13 0x63430008180033000000000000 "
				},
				"gasEstimates": {
					"creation": {
						"codeDepositCost": "1428600",
						"executionCost": "35766",
						"totalCost": "1464366"
					},
					"external": {
						"addDataUsage(bytes32,bytes32,uint256,string[],uint256[])": "infinite",
						"addPersonalData(uint256,bytes32,bytes32,bytes32,string[])": "infinite",
						"addProcessedPersonalData(uint256)": "infinite",
						"getDataUsageByKey(uint256)": "infinite",
						"getDataUsageCounter()": "2499",
						"getPersonalDataByKey(uint256)": "infinite",
						"getPersonalDataCounter()": "2477",
						"getProcessedPersonalDataByKey(uint256)": "2813",
						"owner()": "2505"
					}
				},
				"methodIdentifiers": {
					"addDataUsage(bytes32,bytes32,uint256,string[],uint256[])": "1b61fabd",
					"addPersonalData(uint256,bytes32,bytes32,bytes32,string[])": "ac7be736",
					"addProcessedPersonalData(uint256)": "3f81de59",
					"getDataUsageByKey(uint256)": "d2b0649a",
					"getDataUsageCounter()": "682477d7",
					"getPersonalDataByKey(uint256)": "d8a761d9",
					"getPersonalDataCounter()": "4b58fbe9",
					"getProcessedPersonalDataByKey(uint256)": "b61798f6",
					"owner()": "8da5cb5b"
				}
			},
			"storageLayout": {
				"storage": [
					{
						"astId": 3,
						"contract": "contracts/DataUsageSmartContract.sol:DataUsageSmartContract",
						"label": "owner",
						"offset": 0,
						"slot": "0",
						"type": "t_address"
					},
					{
						"astId": 63,
						"contract": "contracts/DataUsageSmartContract.sol:DataUsageSmartContract",
						"label": "dataUsages",
						"offset": 0,
						"slot": "1",
						"type": "t_mapping(t_uint256,t_struct(DataUsage)46_storage)"
					},
					{
						"astId": 68,
						"contract": "contracts/DataUsageSmartContract.sol:DataUsageSmartContract",
						"label": "personalDatas",
						"offset": 0,
						"slot": "2",
						"type": "t_mapping(t_uint256,t_struct(PersonalData)58_storage)"
					},
					{
						"astId": 72,
						"contract": "contracts/DataUsageSmartContract.sol:DataUsageSmartContract",
						"label": "processedPersonalDatas",
						"offset": 0,
						"slot": "3",
						"type": "t_mapping(t_uint256,t_bytes32)"
					},
					{
						"astId": 75,
						"contract": "contracts/DataUsageSmartContract.sol:DataUsageSmartContract",
						"label": "dataUsageCounter",
						"offset": 0,
						"slot": "4",
						"type": "t_uint256"
					},
					{
						"astId": 78,
						"contract": "contracts/DataUsageSmartContract.sol:DataUsageSmartContract",
						"label": "actorIds",
						"offset": 0,
						"slot": "5",
						"type": "t_array(t_uint256)dyn_storage"
					},
					{
						"astId": 81,
						"contract": "contracts/DataUsageSmartContract.sol:DataUsageSmartContract",
						"label": "personalDataCounter",
						"offset": 0,
						"slot": "6",
						"type": "t_uint256"
					}
				],
				"types": {
					"t_address": {
						"encoding": "inplace",
						"label": "address",
						"numberOfBytes": "20"
					},
					"t_array(t_bytes32)dyn_storage": {
						"base": "t_bytes32",
						"encoding": "dynamic_array",
						"label": "bytes32[]",
						"numberOfBytes": "32"
					},
					"t_array(t_string_storage)dyn_storage": {
						"base": "t_string_storage",
						"encoding": "dynamic_array",
						"label": "string[]",
						"numberOfBytes": "32"
					},
					"t_array(t_uint256)dyn_storage": {
						"base": "t_uint256",
						"encoding": "dynamic_array",
						"label": "uint256[]",
						"numberOfBytes": "32"
					},
					"t_bytes32": {
						"encoding": "inplace",
						"label": "bytes32",
						"numberOfBytes": "32"
					},
					"t_mapping(t_uint256,t_bytes32)": {
						"encoding": "mapping",
						"key": "t_uint256",
						"label": "mapping(uint256 => bytes32)",
						"numberOfBytes": "32",
						"value": "t_bytes32"
					},
					"t_mapping(t_uint256,t_struct(DataUsage)46_storage)": {
						"encoding": "mapping",
						"key": "t_uint256",
						"label": "mapping(uint256 => struct DataUsageSmartContract.DataUsage)",
						"numberOfBytes": "32",
						"value": "t_struct(DataUsage)46_storage"
					},
					"t_mapping(t_uint256,t_struct(PersonalData)58_storage)": {
						"encoding": "mapping",
						"key": "t_uint256",
						"label": "mapping(uint256 => struct DataUsageSmartContract.PersonalData)",
						"numberOfBytes": "32",
						"value": "t_struct(PersonalData)58_storage"
					},
					"t_string_storage": {
						"encoding": "bytes",
						"label": "string",
						"numberOfBytes": "32"
					},
					"t_struct(DataUsage)46_storage": {
						"encoding": "inplace",
						"label": "struct DataUsageSmartContract.DataUsage",
						"members": [
							{
								"astId": 32,
								"contract": "contracts/DataUsageSmartContract.sol:DataUsageSmartContract",
								"label": "serviceName",
								"offset": 0,
								"slot": "0",
								"type": "t_bytes32"
							},
							{
								"astId": 34,
								"contract": "contracts/DataUsageSmartContract.sol:DataUsageSmartContract",
								"label": "servicePurpose",
								"offset": 0,
								"slot": "1",
								"type": "t_bytes32"
							},
							{
								"astId": 36,
								"contract": "contracts/DataUsageSmartContract.sol:DataUsageSmartContract",
								"label": "actorId",
								"offset": 0,
								"slot": "2",
								"type": "t_uint256"
							},
							{
								"astId": 39,
								"contract": "contracts/DataUsageSmartContract.sol:DataUsageSmartContract",
								"label": "operations",
								"offset": 0,
								"slot": "3",
								"type": "t_array(t_string_storage)dyn_storage"
							},
							{
								"astId": 42,
								"contract": "contracts/DataUsageSmartContract.sol:DataUsageSmartContract",
								"label": "personalDataIds",
								"offset": 0,
								"slot": "4",
								"type": "t_array(t_uint256)dyn_storage"
							},
							{
								"astId": 45,
								"contract": "contracts/DataUsageSmartContract.sol:DataUsageSmartContract",
								"label": "processedPersonalDatas",
								"offset": 0,
								"slot": "5",
								"type": "t_array(t_bytes32)dyn_storage"
							}
						],
						"numberOfBytes": "192"
					},
					"t_struct(PersonalData)58_storage": {
						"encoding": "inplace",
						"label": "struct DataUsageSmartContract.PersonalData",
						"members": [
							{
								"astId": 48,
								"contract": "contracts/DataUsageSmartContract.sol:DataUsageSmartContract",
								"label": "userId",
								"offset": 0,
								"slot": "0",
								"type": "t_uint256"
							},
							{
								"astId": 50,
								"contract": "contracts/DataUsageSmartContract.sol:DataUsageSmartContract",
								"label": "userName",
								"offset": 0,
								"slot": "1",
								"type": "t_bytes32"
							},
							{
								"astId": 52,
								"contract": "contracts/DataUsageSmartContract.sol:DataUsageSmartContract",
								"label": "userAddress",
								"offset": 0,
								"slot": "2",
								"type": "t_bytes32"
							},
							{
								"astId": 54,
								"contract": "contracts/DataUsageSmartContract.sol:DataUsageSmartContract",
								"label": "userTelephone",
								"offset": 0,
								"slot": "3",
								"type": "t_bytes32"
							},
							{
								"astId": 57,
								"contract": "contracts/DataUsageSmartContract.sol:DataUsageSmartContract",
								"label": "additionalInfos",
								"offset": 0,
								"slot": "4",
								"type": "t_array(t_string_storage)dyn_storage"
							}
						],
						"numberOfBytes": "160"
					},
					"t_uint256": {
						"encoding": "inplace",
						"label": "uint256",
						"numberOfBytes": "32"
					}
				}
			},
			"userdoc": {
				"kind": "user",
				"methods": {},
				"version": 1
			}
		}
	}
}