{
	"contracts/utils.sol": {
		"StringUtil": {
			"abi": [
				{
					"inputs": [],
					"name": "generateUniqueActorAddress",
					"outputs": [
						{
							"internalType": "address",
							"name": "",
							"type": "address"
						}
					],
					"stateMutability": "nonpayable",
					"type": "function"
				},
				{
					"inputs": [
						{
							"internalType": "string",
							"name": "_str",
							"type": "string"
						}
					],
					"name": "stringToBytes32",
					"outputs": [
						{
							"internalType": "bytes32",
							"name": "",
							"type": "bytes32"
						}
					],
					"stateMutability": "pure",
					"type": "function"
				}
			],
			"devdoc": {
				"kind": "dev",
				"methods": {},
				"version": 1
			},
			"evm": {
				"assembly": "    /* \"contracts/utils.sol\":61:1175  contract StringUtil {... */\n  mstore(0x40, 0x80)\n  callvalue\n  dup1\n  iszero\n  tag_1\n  jumpi\n  0x00\n  dup1\n  revert\ntag_1:\n  pop\n  dataSize(sub_0)\n  dup1\n  dataOffset(sub_0)\n  0x00\n  codecopy\n  0x00\n  return\nstop\n\nsub_0: assembly {\n        /* \"contracts/utils.sol\":61:1175  contract StringUtil {... */\n      mstore(0x40, 0x80)\n      callvalue\n      dup1\n      iszero\n      tag_1\n      jumpi\n      0x00\n      dup1\n      revert\n    tag_1:\n      pop\n      jumpi(tag_2, lt(calldatasize, 0x04))\n      shr(0xe0, calldataload(0x00))\n      dup1\n      0x579d5846\n      eq\n      tag_3\n      jumpi\n      dup1\n      0xcfb51928\n      eq\n      tag_4\n      jumpi\n    tag_2:\n      0x00\n      dup1\n      revert\n        /* \"contracts/utils.sol\":330:967  function generateUniqueActorAddress() public returns (address) {... */\n    tag_3:\n      tag_5\n      tag_6\n      jump\t// in\n    tag_5:\n      mload(0x40)\n      tag_7\n      swap2\n      swap1\n      tag_8\n      jump\t// in\n    tag_7:\n      mload(0x40)\n      dup1\n      swap2\n      sub\n      swap1\n      return\n        /* \"contracts/utils.sol\":88:295  function stringToBytes32(string memory _str) public pure returns (bytes32) {... */\n    tag_4:\n      tag_9\n      0x04\n      dup1\n      calldatasize\n      sub\n      dup2\n      add\n      swap1\n      tag_10\n      swap2\n      swap1\n      tag_11\n      jump\t// in\n    tag_10:\n      tag_12\n      jump\t// in\n    tag_9:\n      mload(0x40)\n      tag_13\n      swap2\n      swap1\n      tag_14\n      jump\t// in\n    tag_13:\n      mload(0x40)\n      dup1\n      swap2\n      sub\n      swap1\n      return\n        /* \"contracts/utils.sol\":330:967  function generateUniqueActorAddress() public returns (address) {... */\n    tag_6:\n        /* \"contracts/utils.sol\":384:391  address */\n      0x00\n        /* \"contracts/utils.sol\":404:415  uint random */\n      dup1\n        /* \"contracts/utils.sol\":450:465  block.timestamp */\n      timestamp\n        /* \"contracts/utils.sol\":467:477  msg.sender */\n      caller\n        /* \"contracts/utils.sol\":479:484  nonce */\n      sload(0x00)\n        /* \"contracts/utils.sol\":433:485  abi.encodePacked(block.timestamp, msg.sender, nonce) */\n      add(0x20, mload(0x40))\n      tag_16\n      swap4\n      swap3\n      swap2\n      swap1\n      tag_17\n      jump\t// in\n    tag_16:\n      mload(0x40)\n      0x20\n      dup2\n      dup4\n      sub\n      sub\n      dup2\n      mstore\n      swap1\n      0x40\n      mstore\n        /* \"contracts/utils.sol\":423:486  keccak256(abi.encodePacked(block.timestamp, msg.sender, nonce)) */\n      dup1\n      mload\n      swap1\n      0x20\n      add\n      keccak256\n        /* \"contracts/utils.sol\":418:487  uint(keccak256(abi.encodePacked(block.timestamp, msg.sender, nonce))) */\n      0x00\n      shr\n        /* \"contracts/utils.sol\":404:487  uint random = uint(keccak256(abi.encodePacked(block.timestamp, msg.sender, nonce))) */\n      swap1\n      pop\n        /* \"contracts/utils.sol\":498:503  nonce */\n      0x00\n      dup1\n        /* \"contracts/utils.sol\":498:505  nonce++ */\n      dup2\n      sload\n      dup1\n      swap3\n      swap2\n      swap1\n      tag_18\n      swap1\n      tag_19\n      jump\t// in\n    tag_18:\n      swap2\n      swap1\n      pop\n      sstore\n      pop\n        /* \"contracts/utils.sol\":582:602  address actorAddress */\n      0x00\n        /* \"contracts/utils.sol\":629:635  random */\n      dup2\n        /* \"contracts/utils.sol\":582:638  address actorAddress = address(uint160(uint256(random))) */\n      swap1\n      pop\n        /* \"contracts/utils.sol\":702:928  while (addressExists(actorAddress)) {... */\n    tag_20:\n        /* \"contracts/utils.sol\":709:736  addressExists(actorAddress) */\n      tag_22\n        /* \"contracts/utils.sol\":723:735  actorAddress */\n      dup2\n        /* \"contracts/utils.sol\":709:722  addressExists */\n      tag_23\n        /* \"contracts/utils.sol\":709:736  addressExists(actorAddress) */\n      jump\t// in\n    tag_22:\n        /* \"contracts/utils.sol\":702:928  while (addressExists(actorAddress)) {... */\n      iszero\n      tag_21\n      jumpi\n        /* \"contracts/utils.sol\":794:809  block.timestamp */\n      timestamp\n        /* \"contracts/utils.sol\":811:821  msg.sender */\n      caller\n        /* \"contracts/utils.sol\":823:828  nonce */\n      sload(0x00)\n        /* \"contracts/utils.sol\":777:829  abi.encodePacked(block.timestamp, msg.sender, nonce) */\n      add(0x20, mload(0x40))\n      tag_24\n      swap4\n      swap3\n      swap2\n      swap1\n      tag_17\n      jump\t// in\n    tag_24:\n      mload(0x40)\n      0x20\n      dup2\n      dup4\n      sub\n      sub\n      dup2\n      mstore\n      swap1\n      0x40\n      mstore\n        /* \"contracts/utils.sol\":767:830  keccak256(abi.encodePacked(block.timestamp, msg.sender, nonce)) */\n      dup1\n      mload\n      swap1\n      0x20\n      add\n      keccak256\n        /* \"contracts/utils.sol\":762:831  uint(keccak256(abi.encodePacked(block.timestamp, msg.sender, nonce))) */\n      0x00\n      shr\n        /* \"contracts/utils.sol\":753:831  random = uint(keccak256(abi.encodePacked(block.timestamp, msg.sender, nonce))) */\n      swap2\n      pop\n        /* \"contracts/utils.sol\":846:851  nonce */\n      0x00\n      dup1\n        /* \"contracts/utils.sol\":846:853  nonce++ */\n      dup2\n      sload\n      dup1\n      swap3\n      swap2\n      swap1\n      tag_25\n      swap1\n      tag_19\n      jump\t// in\n    tag_25:\n      swap2\n      swap1\n      pop\n      sstore\n      pop\n        /* \"contracts/utils.sol\":907:913  random */\n      dup2\n        /* \"contracts/utils.sol\":868:916  actorAddress = address(uint160(uint256(random))) */\n      swap1\n      pop\n        /* \"contracts/utils.sol\":702:928  while (addressExists(actorAddress)) {... */\n      jump(tag_20)\n    tag_21:\n        /* \"contracts/utils.sol\":947:959  actorAddress */\n      dup1\n        /* \"contracts/utils.sol\":940:959  return actorAddress */\n      swap3\n      pop\n      pop\n      pop\n        /* \"contracts/utils.sol\":330:967  function generateUniqueActorAddress() public returns (address) {... */\n      swap1\n      jump\t// out\n        /* \"contracts/utils.sol\":88:295  function stringToBytes32(string memory _str) public pure returns (bytes32) {... */\n    tag_12:\n        /* \"contracts/utils.sol\":154:161  bytes32 */\n      0x00\n        /* \"contracts/utils.sol\":174:188  bytes32 result */\n      dup1\n        /* \"contracts/utils.sol\":249:251  32 */\n      0x20\n        /* \"contracts/utils.sol\":243:247  _str */\n      dup4\n        /* \"contracts/utils.sol\":239:252  add(_str, 32) */\n      add\n        /* \"contracts/utils.sol\":233:253  mload(add(_str, 32)) */\n      mload\n        /* \"contracts/utils.sol\":223:253  result := mload(add(_str, 32)) */\n      swap1\n      pop\n        /* \"contracts/utils.sol\":281:287  result */\n      dup1\n        /* \"contracts/utils.sol\":274:287  return result */\n      swap2\n      pop\n      pop\n        /* \"contracts/utils.sol\":88:295  function stringToBytes32(string memory _str) public pure returns (bytes32) {... */\n      swap2\n      swap1\n      pop\n      jump\t// out\n        /* \"contracts/utils.sol\":975:1172  function addressExists(address _address) private view returns (bool) {... */\n    tag_23:\n        /* \"contracts/utils.sol\":1038:1042  bool */\n      0x00\n        /* \"contracts/utils.sol\":1055:1064  uint size */\n      dup1\n        /* \"contracts/utils.sol\":1119:1127  _address */\n      dup3\n        /* \"contracts/utils.sol\":1107:1128  extcodesize(_address) */\n      extcodesize\n        /* \"contracts/utils.sol\":1099:1128  size := extcodesize(_address) */\n      swap1\n      pop\n        /* \"contracts/utils.sol\":1163:1164  0 */\n      0x00\n        /* \"contracts/utils.sol\":1156:1160  size */\n      dup2\n        /* \"contracts/utils.sol\":1156:1164  size > 0 */\n      gt\n        /* \"contracts/utils.sol\":1149:1164  return size > 0 */\n      swap2\n      pop\n      pop\n        /* \"contracts/utils.sol\":975:1172  function addressExists(address _address) private view returns (bool) {... */\n      swap2\n      swap1\n      pop\n      jump\t// out\n        /* \"#utility.yul\":7:133   */\n    tag_28:\n        /* \"#utility.yul\":44:51   */\n      0x00\n        /* \"#utility.yul\":84:126   */\n      0xffffffffffffffffffffffffffffffffffffffff\n        /* \"#utility.yul\":77:82   */\n      dup3\n        /* \"#utility.yul\":73:127   */\n      and\n        /* \"#utility.yul\":62:127   */\n      swap1\n      pop\n        /* \"#utility.yul\":7:133   */\n      swap2\n      swap1\n      pop\n      jump\t// out\n        /* \"#utility.yul\":139:235   */\n    tag_29:\n        /* \"#utility.yul\":176:183   */\n      0x00\n        /* \"#utility.yul\":205:229   */\n      tag_57\n        /* \"#utility.yul\":223:228   */\n      dup3\n        /* \"#utility.yul\":205:229   */\n      tag_28\n      jump\t// in\n    tag_57:\n        /* \"#utility.yul\":194:229   */\n      swap1\n      pop\n        /* \"#utility.yul\":139:235   */\n      swap2\n      swap1\n      pop\n      jump\t// out\n        /* \"#utility.yul\":241:359   */\n    tag_30:\n        /* \"#utility.yul\":328:352   */\n      tag_59\n        /* \"#utility.yul\":346:351   */\n      dup2\n        /* \"#utility.yul\":328:352   */\n      tag_29\n      jump\t// in\n    tag_59:\n        /* \"#utility.yul\":323:326   */\n      dup3\n        /* \"#utility.yul\":316:353   */\n      mstore\n        /* \"#utility.yul\":241:359   */\n      pop\n      pop\n      jump\t// out\n        /* \"#utility.yul\":365:587   */\n    tag_8:\n        /* \"#utility.yul\":458:462   */\n      0x00\n        /* \"#utility.yul\":496:498   */\n      0x20\n        /* \"#utility.yul\":485:494   */\n      dup3\n        /* \"#utility.yul\":481:499   */\n      add\n        /* \"#utility.yul\":473:499   */\n      swap1\n      pop\n        /* \"#utility.yul\":509:580   */\n      tag_61\n        /* \"#utility.yul\":577:578   */\n      0x00\n        /* \"#utility.yul\":566:575   */\n      dup4\n        /* \"#utility.yul\":562:579   */\n      add\n        /* \"#utility.yul\":553:559   */\n      dup5\n        /* \"#utility.yul\":509:580   */\n      tag_30\n      jump\t// in\n    tag_61:\n        /* \"#utility.yul\":365:587   */\n      swap3\n      swap2\n      pop\n      pop\n      jump\t// out\n        /* \"#utility.yul\":593:668   */\n    tag_31:\n        /* \"#utility.yul\":626:632   */\n      0x00\n        /* \"#utility.yul\":659:661   */\n      0x40\n        /* \"#utility.yul\":653:662   */\n      mload\n        /* \"#utility.yul\":643:662   */\n      swap1\n      pop\n        /* \"#utility.yul\":593:668   */\n      swap1\n      jump\t// out\n        /* \"#utility.yul\":674:791   */\n    tag_32:\n        /* \"#utility.yul\":783:784   */\n      0x00\n        /* \"#utility.yul\":780:781   */\n      dup1\n        /* \"#utility.yul\":773:785   */\n      revert\n        /* \"#utility.yul\":797:914   */\n    tag_33:\n        /* \"#utility.yul\":906:907   */\n      0x00\n        /* \"#utility.yul\":903:904   */\n      dup1\n        /* \"#utility.yul\":896:908   */\n      revert\n        /* \"#utility.yul\":920:1037   */\n    tag_34:\n        /* \"#utility.yul\":1029:1030   */\n      0x00\n        /* \"#utility.yul\":1026:1027   */\n      dup1\n        /* \"#utility.yul\":1019:1031   */\n      revert\n        /* \"#utility.yul\":1043:1160   */\n    tag_35:\n        /* \"#utility.yul\":1152:1153   */\n      0x00\n        /* \"#utility.yul\":1149:1150   */\n      dup1\n        /* \"#utility.yul\":1142:1154   */\n      revert\n        /* \"#utility.yul\":1166:1268   */\n    tag_36:\n        /* \"#utility.yul\":1207:1213   */\n      0x00\n        /* \"#utility.yul\":1258:1260   */\n      0x1f\n        /* \"#utility.yul\":1254:1261   */\n      not\n        /* \"#utility.yul\":1249:1251   */\n      0x1f\n        /* \"#utility.yul\":1242:1247   */\n      dup4\n        /* \"#utility.yul\":1238:1252   */\n      add\n        /* \"#utility.yul\":1234:1262   */\n      and\n        /* \"#utility.yul\":1224:1262   */\n      swap1\n      pop\n        /* \"#utility.yul\":1166:1268   */\n      swap2\n      swap1\n      pop\n      jump\t// out\n        /* \"#utility.yul\":1274:1454   */\n    tag_37:\n        /* \"#utility.yul\":1322:1399   */\n      0x4e487b7100000000000000000000000000000000000000000000000000000000\n        /* \"#utility.yul\":1319:1320   */\n      0x00\n        /* \"#utility.yul\":1312:1400   */\n      mstore\n        /* \"#utility.yul\":1419:1423   */\n      0x41\n        /* \"#utility.yul\":1416:1417   */\n      0x04\n        /* \"#utility.yul\":1409:1424   */\n      mstore\n        /* \"#utility.yul\":1443:1447   */\n      0x24\n        /* \"#utility.yul\":1440:1441   */\n      0x00\n        /* \"#utility.yul\":1433:1448   */\n      revert\n        /* \"#utility.yul\":1460:1741   */\n    tag_38:\n        /* \"#utility.yul\":1543:1570   */\n      tag_70\n        /* \"#utility.yul\":1565:1569   */\n      dup3\n        /* \"#utility.yul\":1543:1570   */\n      tag_36\n      jump\t// in\n    tag_70:\n        /* \"#utility.yul\":1535:1541   */\n      dup2\n        /* \"#utility.yul\":1531:1571   */\n      add\n        /* \"#utility.yul\":1673:1679   */\n      dup2\n        /* \"#utility.yul\":1661:1671   */\n      dup2\n        /* \"#utility.yul\":1658:1680   */\n      lt\n        /* \"#utility.yul\":1637:1655   */\n      0xffffffffffffffff\n        /* \"#utility.yul\":1625:1635   */\n      dup3\n        /* \"#utility.yul\":1622:1656   */\n      gt\n        /* \"#utility.yul\":1619:1681   */\n      or\n        /* \"#utility.yul\":1616:1704   */\n      iszero\n      tag_71\n      jumpi\n        /* \"#utility.yul\":1684:1702   */\n      tag_72\n      tag_37\n      jump\t// in\n    tag_72:\n        /* \"#utility.yul\":1616:1704   */\n    tag_71:\n        /* \"#utility.yul\":1724:1734   */\n      dup1\n        /* \"#utility.yul\":1720:1722   */\n      0x40\n        /* \"#utility.yul\":1713:1735   */\n      mstore\n        /* \"#utility.yul\":1503:1741   */\n      pop\n        /* \"#utility.yul\":1460:1741   */\n      pop\n      pop\n      jump\t// out\n        /* \"#utility.yul\":1747:1876   */\n    tag_39:\n        /* \"#utility.yul\":1781:1787   */\n      0x00\n        /* \"#utility.yul\":1808:1828   */\n      tag_74\n      tag_31\n      jump\t// in\n    tag_74:\n        /* \"#utility.yul\":1798:1828   */\n      swap1\n      pop\n        /* \"#utility.yul\":1837:1870   */\n      tag_75\n        /* \"#utility.yul\":1865:1869   */\n      dup3\n        /* \"#utility.yul\":1857:1863   */\n      dup3\n        /* \"#utility.yul\":1837:1870   */\n      tag_38\n      jump\t// in\n    tag_75:\n        /* \"#utility.yul\":1747:1876   */\n      swap2\n      swap1\n      pop\n      jump\t// out\n        /* \"#utility.yul\":1882:2190   */\n    tag_40:\n        /* \"#utility.yul\":1944:1948   */\n      0x00\n        /* \"#utility.yul\":2034:2052   */\n      0xffffffffffffffff\n        /* \"#utility.yul\":2026:2032   */\n      dup3\n        /* \"#utility.yul\":2023:2053   */\n      gt\n        /* \"#utility.yul\":2020:2076   */\n      iszero\n      tag_77\n      jumpi\n        /* \"#utility.yul\":2056:2074   */\n      tag_78\n      tag_37\n      jump\t// in\n    tag_78:\n        /* \"#utility.yul\":2020:2076   */\n    tag_77:\n        /* \"#utility.yul\":2094:2123   */\n      tag_79\n        /* \"#utility.yul\":2116:2122   */\n      dup3\n        /* \"#utility.yul\":2094:2123   */\n      tag_36\n      jump\t// in\n    tag_79:\n        /* \"#utility.yul\":2086:2123   */\n      swap1\n      pop\n        /* \"#utility.yul\":2178:2182   */\n      0x20\n        /* \"#utility.yul\":2172:2176   */\n      dup2\n        /* \"#utility.yul\":2168:2183   */\n      add\n        /* \"#utility.yul\":2160:2183   */\n      swap1\n      pop\n        /* \"#utility.yul\":1882:2190   */\n      swap2\n      swap1\n      pop\n      jump\t// out\n        /* \"#utility.yul\":2196:2342   */\n    tag_41:\n        /* \"#utility.yul\":2293:2299   */\n      dup3\n        /* \"#utility.yul\":2288:2291   */\n      dup2\n        /* \"#utility.yul\":2283:2286   */\n      dup4\n        /* \"#utility.yul\":2270:2300   */\n      calldatacopy\n        /* \"#utility.yul\":2334:2335   */\n      0x00\n        /* \"#utility.yul\":2325:2331   */\n      dup4\n        /* \"#utility.yul\":2320:2323   */\n      dup4\n        /* \"#utility.yul\":2316:2332   */\n      add\n        /* \"#utility.yul\":2309:2336   */\n      mstore\n        /* \"#utility.yul\":2196:2342   */\n      pop\n      pop\n      pop\n      jump\t// out\n        /* \"#utility.yul\":2348:2773   */\n    tag_42:\n        /* \"#utility.yul\":2426:2431   */\n      0x00\n        /* \"#utility.yul\":2451:2517   */\n      tag_82\n        /* \"#utility.yul\":2467:2516   */\n      tag_83\n        /* \"#utility.yul\":2509:2515   */\n      dup5\n        /* \"#utility.yul\":2467:2516   */\n      tag_40\n      jump\t// in\n    tag_83:\n        /* \"#utility.yul\":2451:2517   */\n      tag_39\n      jump\t// in\n    tag_82:\n        /* \"#utility.yul\":2442:2517   */\n      swap1\n      pop\n        /* \"#utility.yul\":2540:2546   */\n      dup3\n        /* \"#utility.yul\":2533:2538   */\n      dup2\n        /* \"#utility.yul\":2526:2547   */\n      mstore\n        /* \"#utility.yul\":2578:2582   */\n      0x20\n        /* \"#utility.yul\":2571:2576   */\n      dup2\n        /* \"#utility.yul\":2567:2583   */\n      add\n        /* \"#utility.yul\":2616:2619   */\n      dup5\n        /* \"#utility.yul\":2607:2613   */\n      dup5\n        /* \"#utility.yul\":2602:2605   */\n      dup5\n        /* \"#utility.yul\":2598:2614   */\n      add\n        /* \"#utility.yul\":2595:2620   */\n      gt\n        /* \"#utility.yul\":2592:2704   */\n      iszero\n      tag_84\n      jumpi\n        /* \"#utility.yul\":2623:2702   */\n      tag_85\n      tag_35\n      jump\t// in\n    tag_85:\n        /* \"#utility.yul\":2592:2704   */\n    tag_84:\n        /* \"#utility.yul\":2713:2767   */\n      tag_86\n        /* \"#utility.yul\":2760:2766   */\n      dup5\n        /* \"#utility.yul\":2755:2758   */\n      dup3\n        /* \"#utility.yul\":2750:2753   */\n      dup6\n        /* \"#utility.yul\":2713:2767   */\n      tag_41\n      jump\t// in\n    tag_86:\n        /* \"#utility.yul\":2432:2773   */\n      pop\n        /* \"#utility.yul\":2348:2773   */\n      swap4\n      swap3\n      pop\n      pop\n      pop\n      jump\t// out\n        /* \"#utility.yul\":2793:3133   */\n    tag_43:\n        /* \"#utility.yul\":2849:2854   */\n      0x00\n        /* \"#utility.yul\":2898:2901   */\n      dup3\n        /* \"#utility.yul\":2891:2895   */\n      0x1f\n        /* \"#utility.yul\":2883:2889   */\n      dup4\n        /* \"#utility.yul\":2879:2896   */\n      add\n        /* \"#utility.yul\":2875:2902   */\n      slt\n        /* \"#utility.yul\":2865:2987   */\n      tag_88\n      jumpi\n        /* \"#utility.yul\":2906:2985   */\n      tag_89\n      tag_34\n      jump\t// in\n    tag_89:\n        /* \"#utility.yul\":2865:2987   */\n    tag_88:\n        /* \"#utility.yul\":3023:3029   */\n      dup2\n        /* \"#utility.yul\":3010:3030   */\n      calldataload\n        /* \"#utility.yul\":3048:3127   */\n      tag_90\n        /* \"#utility.yul\":3123:3126   */\n      dup5\n        /* \"#utility.yul\":3115:3121   */\n      dup3\n        /* \"#utility.yul\":3108:3112   */\n      0x20\n        /* \"#utility.yul\":3100:3106   */\n      dup7\n        /* \"#utility.yul\":3096:3113   */\n      add\n        /* \"#utility.yul\":3048:3127   */\n      tag_42\n      jump\t// in\n    tag_90:\n        /* \"#utility.yul\":3039:3127   */\n      swap2\n      pop\n        /* \"#utility.yul\":2855:3133   */\n      pop\n        /* \"#utility.yul\":2793:3133   */\n      swap3\n      swap2\n      pop\n      pop\n      jump\t// out\n        /* \"#utility.yul\":3139:3648   */\n    tag_11:\n        /* \"#utility.yul\":3208:3214   */\n      0x00\n        /* \"#utility.yul\":3257:3259   */\n      0x20\n        /* \"#utility.yul\":3245:3254   */\n      dup3\n        /* \"#utility.yul\":3236:3243   */\n      dup5\n        /* \"#utility.yul\":3232:3255   */\n      sub\n        /* \"#utility.yul\":3228:3260   */\n      slt\n        /* \"#utility.yul\":3225:3344   */\n      iszero\n      tag_92\n      jumpi\n        /* \"#utility.yul\":3263:3342   */\n      tag_93\n      tag_32\n      jump\t// in\n    tag_93:\n        /* \"#utility.yul\":3225:3344   */\n    tag_92:\n        /* \"#utility.yul\":3411:3412   */\n      0x00\n        /* \"#utility.yul\":3400:3409   */\n      dup3\n        /* \"#utility.yul\":3396:3413   */\n      add\n        /* \"#utility.yul\":3383:3414   */\n      calldataload\n        /* \"#utility.yul\":3441:3459   */\n      0xffffffffffffffff\n        /* \"#utility.yul\":3433:3439   */\n      dup2\n        /* \"#utility.yul\":3430:3460   */\n      gt\n        /* \"#utility.yul\":3427:3544   */\n      iszero\n      tag_94\n      jumpi\n        /* \"#utility.yul\":3463:3542   */\n      tag_95\n      tag_33\n      jump\t// in\n    tag_95:\n        /* \"#utility.yul\":3427:3544   */\n    tag_94:\n        /* \"#utility.yul\":3568:3631   */\n      tag_96\n        /* \"#utility.yul\":3623:3630   */\n      dup5\n        /* \"#utility.yul\":3614:3620   */\n      dup3\n        /* \"#utility.yul\":3603:3612   */\n      dup6\n        /* \"#utility.yul\":3599:3621   */\n      add\n        /* \"#utility.yul\":3568:3631   */\n      tag_43\n      jump\t// in\n    tag_96:\n        /* \"#utility.yul\":3558:3631   */\n      swap2\n      pop\n        /* \"#utility.yul\":3354:3641   */\n      pop\n        /* \"#utility.yul\":3139:3648   */\n      swap3\n      swap2\n      pop\n      pop\n      jump\t// out\n        /* \"#utility.yul\":3654:3731   */\n    tag_44:\n        /* \"#utility.yul\":3691:3698   */\n      0x00\n        /* \"#utility.yul\":3720:3725   */\n      dup2\n        /* \"#utility.yul\":3709:3725   */\n      swap1\n      pop\n        /* \"#utility.yul\":3654:3731   */\n      swap2\n      swap1\n      pop\n      jump\t// out\n        /* \"#utility.yul\":3737:3855   */\n    tag_45:\n        /* \"#utility.yul\":3824:3848   */\n      tag_99\n        /* \"#utility.yul\":3842:3847   */\n      dup2\n        /* \"#utility.yul\":3824:3848   */\n      tag_44\n      jump\t// in\n    tag_99:\n        /* \"#utility.yul\":3819:3822   */\n      dup3\n        /* \"#utility.yul\":3812:3849   */\n      mstore\n        /* \"#utility.yul\":3737:3855   */\n      pop\n      pop\n      jump\t// out\n        /* \"#utility.yul\":3861:4083   */\n    tag_14:\n        /* \"#utility.yul\":3954:3958   */\n      0x00\n        /* \"#utility.yul\":3992:3994   */\n      0x20\n        /* \"#utility.yul\":3981:3990   */\n      dup3\n        /* \"#utility.yul\":3977:3995   */\n      add\n        /* \"#utility.yul\":3969:3995   */\n      swap1\n      pop\n        /* \"#utility.yul\":4005:4076   */\n      tag_101\n        /* \"#utility.yul\":4073:4074   */\n      0x00\n        /* \"#utility.yul\":4062:4071   */\n      dup4\n        /* \"#utility.yul\":4058:4075   */\n      add\n        /* \"#utility.yul\":4049:4055   */\n      dup5\n        /* \"#utility.yul\":4005:4076   */\n      tag_45\n      jump\t// in\n    tag_101:\n        /* \"#utility.yul\":3861:4083   */\n      swap3\n      swap2\n      pop\n      pop\n      jump\t// out\n        /* \"#utility.yul\":4089:4166   */\n    tag_46:\n        /* \"#utility.yul\":4126:4133   */\n      0x00\n        /* \"#utility.yul\":4155:4160   */\n      dup2\n        /* \"#utility.yul\":4144:4160   */\n      swap1\n      pop\n        /* \"#utility.yul\":4089:4166   */\n      swap2\n      swap1\n      pop\n      jump\t// out\n        /* \"#utility.yul\":4172:4251   */\n    tag_47:\n        /* \"#utility.yul\":4211:4218   */\n      0x00\n        /* \"#utility.yul\":4240:4245   */\n      dup2\n        /* \"#utility.yul\":4229:4245   */\n      swap1\n      pop\n        /* \"#utility.yul\":4172:4251   */\n      swap2\n      swap1\n      pop\n      jump\t// out\n        /* \"#utility.yul\":4257:4414   */\n    tag_48:\n        /* \"#utility.yul\":4362:4407   */\n      tag_105\n        /* \"#utility.yul\":4382:4406   */\n      tag_106\n        /* \"#utility.yul\":4400:4405   */\n      dup3\n        /* \"#utility.yul\":4382:4406   */\n      tag_46\n      jump\t// in\n    tag_106:\n        /* \"#utility.yul\":4362:4407   */\n      tag_47\n      jump\t// in\n    tag_105:\n        /* \"#utility.yul\":4357:4360   */\n      dup3\n        /* \"#utility.yul\":4350:4408   */\n      mstore\n        /* \"#utility.yul\":4257:4414   */\n      pop\n      pop\n      jump\t// out\n        /* \"#utility.yul\":4420:4514   */\n    tag_49:\n        /* \"#utility.yul\":4453:4461   */\n      0x00\n        /* \"#utility.yul\":4501:4506   */\n      dup2\n        /* \"#utility.yul\":4497:4499   */\n      0x60\n        /* \"#utility.yul\":4493:4507   */\n      shl\n        /* \"#utility.yul\":4472:4507   */\n      swap1\n      pop\n        /* \"#utility.yul\":4420:4514   */\n      swap2\n      swap1\n      pop\n      jump\t// out\n        /* \"#utility.yul\":4520:4614   */\n    tag_50:\n        /* \"#utility.yul\":4559:4566   */\n      0x00\n        /* \"#utility.yul\":4588:4608   */\n      tag_109\n        /* \"#utility.yul\":4602:4607   */\n      dup3\n        /* \"#utility.yul\":4588:4608   */\n      tag_49\n      jump\t// in\n    tag_109:\n        /* \"#utility.yul\":4577:4608   */\n      swap1\n      pop\n        /* \"#utility.yul\":4520:4614   */\n      swap2\n      swap1\n      pop\n      jump\t// out\n        /* \"#utility.yul\":4620:4720   */\n    tag_51:\n        /* \"#utility.yul\":4659:4666   */\n      0x00\n        /* \"#utility.yul\":4688:4714   */\n      tag_111\n        /* \"#utility.yul\":4708:4713   */\n      dup3\n        /* \"#utility.yul\":4688:4714   */\n      tag_50\n      jump\t// in\n    tag_111:\n        /* \"#utility.yul\":4677:4714   */\n      swap1\n      pop\n        /* \"#utility.yul\":4620:4720   */\n      swap2\n      swap1\n      pop\n      jump\t// out\n        /* \"#utility.yul\":4726:4883   */\n    tag_52:\n        /* \"#utility.yul\":4831:4876   */\n      tag_113\n        /* \"#utility.yul\":4851:4875   */\n      tag_114\n        /* \"#utility.yul\":4869:4874   */\n      dup3\n        /* \"#utility.yul\":4851:4875   */\n      tag_29\n      jump\t// in\n    tag_114:\n        /* \"#utility.yul\":4831:4876   */\n      tag_51\n      jump\t// in\n    tag_113:\n        /* \"#utility.yul\":4826:4829   */\n      dup3\n        /* \"#utility.yul\":4819:4877   */\n      mstore\n        /* \"#utility.yul\":4726:4883   */\n      pop\n      pop\n      jump\t// out\n        /* \"#utility.yul\":4889:5427   */\n    tag_17:\n        /* \"#utility.yul\":5057:5060   */\n      0x00\n        /* \"#utility.yul\":5072:5147   */\n      tag_116\n        /* \"#utility.yul\":5143:5146   */\n      dup3\n        /* \"#utility.yul\":5134:5140   */\n      dup7\n        /* \"#utility.yul\":5072:5147   */\n      tag_48\n      jump\t// in\n    tag_116:\n        /* \"#utility.yul\":5172:5174   */\n      0x20\n        /* \"#utility.yul\":5167:5170   */\n      dup3\n        /* \"#utility.yul\":5163:5175   */\n      add\n        /* \"#utility.yul\":5156:5175   */\n      swap2\n      pop\n        /* \"#utility.yul\":5185:5260   */\n      tag_117\n        /* \"#utility.yul\":5256:5259   */\n      dup3\n        /* \"#utility.yul\":5247:5253   */\n      dup6\n        /* \"#utility.yul\":5185:5260   */\n      tag_52\n      jump\t// in\n    tag_117:\n        /* \"#utility.yul\":5285:5287   */\n      0x14\n        /* \"#utility.yul\":5280:5283   */\n      dup3\n        /* \"#utility.yul\":5276:5288   */\n      add\n        /* \"#utility.yul\":5269:5288   */\n      swap2\n      pop\n        /* \"#utility.yul\":5298:5373   */\n      tag_118\n        /* \"#utility.yul\":5369:5372   */\n      dup3\n        /* \"#utility.yul\":5360:5366   */\n      dup5\n        /* \"#utility.yul\":5298:5373   */\n      tag_48\n      jump\t// in\n    tag_118:\n        /* \"#utility.yul\":5398:5400   */\n      0x20\n        /* \"#utility.yul\":5393:5396   */\n      dup3\n        /* \"#utility.yul\":5389:5401   */\n      add\n        /* \"#utility.yul\":5382:5401   */\n      swap2\n      pop\n        /* \"#utility.yul\":5418:5421   */\n      dup2\n        /* \"#utility.yul\":5411:5421   */\n      swap1\n      pop\n        /* \"#utility.yul\":4889:5427   */\n      swap5\n      swap4\n      pop\n      pop\n      pop\n      pop\n      jump\t// out\n        /* \"#utility.yul\":5433:5613   */\n    tag_53:\n        /* \"#utility.yul\":5481:5558   */\n      0x4e487b7100000000000000000000000000000000000000000000000000000000\n        /* \"#utility.yul\":5478:5479   */\n      0x00\n        /* \"#utility.yul\":5471:5559   */\n      mstore\n        /* \"#utility.yul\":5578:5582   */\n      0x11\n        /* \"#utility.yul\":5575:5576   */\n      0x04\n        /* \"#utility.yul\":5568:5583   */\n      mstore\n        /* \"#utility.yul\":5602:5606   */\n      0x24\n        /* \"#utility.yul\":5599:5600   */\n      0x00\n        /* \"#utility.yul\":5592:5607   */\n      revert\n        /* \"#utility.yul\":5619:5852   */\n    tag_19:\n        /* \"#utility.yul\":5658:5661   */\n      0x00\n        /* \"#utility.yul\":5681:5705   */\n      tag_121\n        /* \"#utility.yul\":5699:5704   */\n      dup3\n        /* \"#utility.yul\":5681:5705   */\n      tag_46\n      jump\t// in\n    tag_121:\n        /* \"#utility.yul\":5672:5705   */\n      swap2\n      pop\n        /* \"#utility.yul\":5727:5793   */\n      0xffffffffffffffffffffffffffffffffffffffffffffffffffffffffffffffff\n        /* \"#utility.yul\":5720:5725   */\n      dup3\n        /* \"#utility.yul\":5717:5794   */\n      sub\n        /* \"#utility.yul\":5714:5817   */\n      tag_122\n      jumpi\n        /* \"#utility.yul\":5797:5815   */\n      tag_123\n      tag_53\n      jump\t// in\n    tag_123:\n        /* \"#utility.yul\":5714:5817   */\n    tag_122:\n        /* \"#utility.yul\":5844:5845   */\n      0x01\n        /* \"#utility.yul\":5837:5842   */\n      dup3\n        /* \"#utility.yul\":5833:5846   */\n      add\n        /* \"#utility.yul\":5826:5846   */\n      swap1\n      pop\n        /* \"#utility.yul\":5619:5852   */\n      swap2\n      swap1\n      pop\n      jump\t// out\n\n    auxdata: 0xa2646970667358221220144c40e19a89847ec03353af7fc12b47ff0d0c0b965a79864546317c10d91b2f64736f6c63430008180033\n}\n",
				"bytecode": {
					"linkReferences": {},
					"object": "608060405234801561000f575f80fd5b506104cb8061001d5f395ff3fe608060405234801561000f575f80fd5b5060043610610034575f3560e01c8063579d584614610038578063cfb5192814610056575b5f80fd5b610040610086565b60405161004d9190610199565b60405180910390f35b610070600480360381019061006b91906102ff565b610137565b60405161007d919061035e565b60405180910390f35b5f8042335f5460405160200161009e939291906103e5565b604051602081830303815290604052805190602001205f1c90505f808154809291906100c99061044e565b91905055505f8190505b6100dc81610149565b1561012f5742335f546040516020016100f7939291906103e5565b604051602081830303815290604052805190602001205f1c91505f808154809291906101229061044e565b91905055508190506100d3565b809250505090565b5f806020830151905080915050919050565b5f80823b90505f8111915050919050565b5f73ffffffffffffffffffffffffffffffffffffffff82169050919050565b5f6101838261015a565b9050919050565b61019381610179565b82525050565b5f6020820190506101ac5f83018461018a565b92915050565b5f604051905090565b5f80fd5b5f80fd5b5f80fd5b5f80fd5b5f601f19601f8301169050919050565b7f4e487b71000000000000000000000000000000000000000000000000000000005f52604160045260245ffd5b610211826101cb565b810181811067ffffffffffffffff821117156102305761022f6101db565b5b80604052505050565b5f6102426101b2565b905061024e8282610208565b919050565b5f67ffffffffffffffff82111561026d5761026c6101db565b5b610276826101cb565b9050602081019050919050565b828183375f83830152505050565b5f6102a361029e84610253565b610239565b9050828152602081018484840111156102bf576102be6101c7565b5b6102ca848285610283565b509392505050565b5f82601f8301126102e6576102e56101c3565b5b81356102f6848260208601610291565b91505092915050565b5f60208284031215610314576103136101bb565b5b5f82013567ffffffffffffffff811115610331576103306101bf565b5b61033d848285016102d2565b91505092915050565b5f819050919050565b61035881610346565b82525050565b5f6020820190506103715f83018461034f565b92915050565b5f819050919050565b5f819050919050565b61039a61039582610377565b610380565b82525050565b5f8160601b9050919050565b5f6103b6826103a0565b9050919050565b5f6103c7826103ac565b9050919050565b6103df6103da82610179565b6103bd565b82525050565b5f6103f08286610389565b60208201915061040082856103ce565b6014820191506104108284610389565b602082019150819050949350505050565b7f4e487b71000000000000000000000000000000000000000000000000000000005f52601160045260245ffd5b5f61045882610377565b91507fffffffffffffffffffffffffffffffffffffffffffffffffffffffffffffffff820361048a57610489610421565b5b60018201905091905056fea2646970667358221220144c40e19a89847ec03353af7fc12b47ff0d0c0b965a79864546317c10d91b2f64736f6c63430008180033",
					"opcodes": "PUSH1 0x80 PUSH1 0x40 MSTORE CALLVALUE DUP1 ISZERO PUSH2 0xF JUMPI PUSH0 DUP1 REVERT JUMPDEST POP PUSH2 0x4CB DUP1 PUSH2 0x1D PUSH0 CODECOPY PUSH0 RETURN INVALID PUSH1 0x80 PUSH1 0x40 MSTORE CALLVALUE DUP1 ISZERO PUSH2 0xF JUMPI PUSH0 DUP1 REVERT JUMPDEST POP PUSH1 0x4 CALLDATASIZE LT PUSH2 0x34 JUMPI PUSH0 CALLDATALOAD PUSH1 0xE0 SHR DUP1 PUSH4 0x579D5846 EQ PUSH2 0x38 JUMPI DUP1 PUSH4 0xCFB51928 EQ PUSH2 0x56 JUMPI JUMPDEST PUSH0 DUP1 REVERT JUMPDEST PUSH2 0x40 PUSH2 0x86 JUMP JUMPDEST PUSH1 0x40 MLOAD PUSH2 0x4D SWAP2 SWAP1 PUSH2 0x199 JUMP JUMPDEST PUSH1 0x40 MLOAD DUP1 SWAP2 SUB SWAP1 RETURN JUMPDEST PUSH2 0x70 PUSH1 0x4 DUP1 CALLDATASIZE SUB DUP2 ADD SWAP1 PUSH2 0x6B SWAP2 SWAP1 PUSH2 0x2FF JUMP JUMPDEST PUSH2 0x137 JUMP JUMPDEST PUSH1 0x40 MLOAD PUSH2 0x7D SWAP2 SWAP1 PUSH2 0x35E JUMP JUMPDEST PUSH1 0x40 MLOAD DUP1 SWAP2 SUB SWAP1 RETURN JUMPDEST PUSH0 DUP1 TIMESTAMP CALLER PUSH0 SLOAD PUSH1 0x40 MLOAD PUSH1 0x20 ADD PUSH2 0x9E SWAP4 SWAP3 SWAP2 SWAP1 PUSH2 0x3E5 JUMP JUMPDEST PUSH1 0x40 MLOAD PUSH1 0x20 DUP2 DUP4 SUB SUB DUP2 MSTORE SWAP1 PUSH1 0x40 MSTORE DUP1 MLOAD SWAP1 PUSH1 0x20 ADD KECCAK256 PUSH0 SHR SWAP1 POP PUSH0 DUP1 DUP2 SLOAD DUP1 SWAP3 SWAP2 SWAP1 PUSH2 0xC9 SWAP1 PUSH2 0x44E JUMP JUMPDEST SWAP2 SWAP1 POP SSTORE POP PUSH0 DUP2 SWAP1 POP JUMPDEST PUSH2 0xDC DUP2 PUSH2 0x149 JUMP JUMPDEST ISZERO PUSH2 0x12F JUMPI TIMESTAMP CALLER PUSH0 SLOAD PUSH1 0x40 MLOAD PUSH1 0x20 ADD PUSH2 0xF7 SWAP4 SWAP3 SWAP2 SWAP1 PUSH2 0x3E5 JUMP JUMPDEST PUSH1 0x40 MLOAD PUSH1 0x20 DUP2 DUP4 SUB SUB DUP2 MSTORE SWAP1 PUSH1 0x40 MSTORE DUP1 MLOAD SWAP1 PUSH1 0x20 ADD KECCAK256 PUSH0 SHR SWAP2 POP PUSH0 DUP1 DUP2 SLOAD DUP1 SWAP3 SWAP2 SWAP1 PUSH2 0x122 SWAP1 PUSH2 0x44E JUMP JUMPDEST SWAP2 SWAP1 POP SSTORE POP DUP2 SWAP1 POP PUSH2 0xD3 JUMP JUMPDEST DUP1 SWAP3 POP POP POP SWAP1 JUMP JUMPDEST PUSH0 DUP1 PUSH1 0x20 DUP4 ADD MLOAD SWAP1 POP DUP1 SWAP2 POP POP SWAP2 SWAP1 POP JUMP JUMPDEST PUSH0 DUP1 DUP3 EXTCODESIZE SWAP1 POP PUSH0 DUP2 GT SWAP2 POP POP SWAP2 SWAP1 POP JUMP JUMPDEST PUSH0 PUSH20 0xFFFFFFFFFFFFFFFFFFFFFFFFFFFFFFFFFFFFFFFF DUP3 AND SWAP1 POP SWAP2 SWAP1 POP JUMP JUMPDEST PUSH0 PUSH2 0x183 DUP3 PUSH2 0x15A JUMP JUMPDEST SWAP1 POP SWAP2 SWAP1 POP JUMP JUMPDEST PUSH2 0x193 DUP2 PUSH2 0x179 JUMP JUMPDEST DUP3 MSTORE POP POP JUMP JUMPDEST PUSH0 PUSH1 0x20 DUP3 ADD SWAP1 POP PUSH2 0x1AC PUSH0 DUP4 ADD DUP5 PUSH2 0x18A JUMP JUMPDEST SWAP3 SWAP2 POP POP JUMP JUMPDEST PUSH0 PUSH1 0x40 MLOAD SWAP1 POP SWAP1 JUMP JUMPDEST PUSH0 DUP1 REVERT JUMPDEST PUSH0 DUP1 REVERT JUMPDEST PUSH0 DUP1 REVERT JUMPDEST PUSH0 DUP1 REVERT JUMPDEST PUSH0 PUSH1 0x1F NOT PUSH1 0x1F DUP4 ADD AND SWAP1 POP SWAP2 SWAP1 POP JUMP JUMPDEST PUSH32 0x4E487B7100000000000000000000000000000000000000000000000000000000 PUSH0 MSTORE PUSH1 0x41 PUSH1 0x4 MSTORE PUSH1 0x24 PUSH0 REVERT JUMPDEST PUSH2 0x211 DUP3 PUSH2 0x1CB JUMP JUMPDEST DUP2 ADD DUP2 DUP2 LT PUSH8 0xFFFFFFFFFFFFFFFF DUP3 GT OR ISZERO PUSH2 0x230 JUMPI PUSH2 0x22F PUSH2 0x1DB JUMP JUMPDEST JUMPDEST DUP1 PUSH1 0x40 MSTORE POP POP POP JUMP JUMPDEST PUSH0 PUSH2 0x242 PUSH2 0x1B2 JUMP JUMPDEST SWAP1 POP PUSH2 0x24E DUP3 DUP3 PUSH2 0x208 JUMP JUMPDEST SWAP2 SWAP1 POP JUMP JUMPDEST PUSH0 PUSH8 0xFFFFFFFFFFFFFFFF DUP3 GT ISZERO PUSH2 0x26D JUMPI PUSH2 0x26C PUSH2 0x1DB JUMP JUMPDEST JUMPDEST PUSH2 0x276 DUP3 PUSH2 0x1CB JUMP JUMPDEST SWAP1 POP PUSH1 0x20 DUP2 ADD SWAP1 POP SWAP2 SWAP1 POP JUMP JUMPDEST DUP3 DUP2 DUP4 CALLDATACOPY PUSH0 DUP4 DUP4 ADD MSTORE POP POP POP JUMP JUMPDEST PUSH0 PUSH2 0x2A3 PUSH2 0x29E DUP5 PUSH2 0x253 JUMP JUMPDEST PUSH2 0x239 JUMP JUMPDEST SWAP1 POP DUP3 DUP2 MSTORE PUSH1 0x20 DUP2 ADD DUP5 DUP5 DUP5 ADD GT ISZERO PUSH2 0x2BF JUMPI PUSH2 0x2BE PUSH2 0x1C7 JUMP JUMPDEST JUMPDEST PUSH2 0x2CA DUP5 DUP3 DUP6 PUSH2 0x283 JUMP JUMPDEST POP SWAP4 SWAP3 POP POP POP JUMP JUMPDEST PUSH0 DUP3 PUSH1 0x1F DUP4 ADD SLT PUSH2 0x2E6 JUMPI PUSH2 0x2E5 PUSH2 0x1C3 JUMP JUMPDEST JUMPDEST DUP2 CALLDATALOAD PUSH2 0x2F6 DUP5 DUP3 PUSH1 0x20 DUP7 ADD PUSH2 0x291 JUMP JUMPDEST SWAP2 POP POP SWAP3 SWAP2 POP POP JUMP JUMPDEST PUSH0 PUSH1 0x20 DUP3 DUP5 SUB SLT ISZERO PUSH2 0x314 JUMPI PUSH2 0x313 PUSH2 0x1BB JUMP JUMPDEST JUMPDEST PUSH0 DUP3 ADD CALLDATALOAD PUSH8 0xFFFFFFFFFFFFFFFF DUP2 GT ISZERO PUSH2 0x331 JUMPI PUSH2 0x330 PUSH2 0x1BF JUMP JUMPDEST JUMPDEST PUSH2 0x33D DUP5 DUP3 DUP6 ADD PUSH2 0x2D2 JUMP JUMPDEST SWAP2 POP POP SWAP3 SWAP2 POP POP JUMP JUMPDEST PUSH0 DUP2 SWAP1 POP SWAP2 SWAP1 POP JUMP JUMPDEST PUSH2 0x358 DUP2 PUSH2 0x346 JUMP JUMPDEST DUP3 MSTORE POP POP JUMP JUMPDEST PUSH0 PUSH1 0x20 DUP3 ADD SWAP1 POP PUSH2 0x371 PUSH0 DUP4 ADD DUP5 PUSH2 0x34F JUMP JUMPDEST SWAP3 SWAP2 POP POP JUMP JUMPDEST PUSH0 DUP2 SWAP1 POP SWAP2 SWAP1 POP JUMP JUMPDEST PUSH0 DUP2 SWAP1 POP SWAP2 SWAP1 POP JUMP JUMPDEST PUSH2 0x39A PUSH2 0x395 DUP3 PUSH2 0x377 JUMP JUMPDEST PUSH2 0x380 JUMP JUMPDEST DUP3 MSTORE POP POP JUMP JUMPDEST PUSH0 DUP2 PUSH1 0x60 SHL SWAP1 POP SWAP2 SWAP1 POP JUMP JUMPDEST PUSH0 PUSH2 0x3B6 DUP3 PUSH2 0x3A0 JUMP JUMPDEST SWAP1 POP SWAP2 SWAP1 POP JUMP JUMPDEST PUSH0 PUSH2 0x3C7 DUP3 PUSH2 0x3AC JUMP JUMPDEST SWAP1 POP SWAP2 SWAP1 POP JUMP JUMPDEST PUSH2 0x3DF PUSH2 0x3DA DUP3 PUSH2 0x179 JUMP JUMPDEST PUSH2 0x3BD JUMP JUMPDEST DUP3 MSTORE POP POP JUMP JUMPDEST PUSH0 PUSH2 0x3F0 DUP3 DUP7 PUSH2 0x389 JUMP JUMPDEST PUSH1 0x20 DUP3 ADD SWAP2 POP PUSH2 0x400 DUP3 DUP6 PUSH2 0x3CE JUMP JUMPDEST PUSH1 0x14 DUP3 ADD SWAP2 POP PUSH2 0x410 DUP3 DUP5 PUSH2 0x389 JUMP JUMPDEST PUSH1 0x20 DUP3 ADD SWAP2 POP DUP2 SWAP1 POP SWAP5 SWAP4 POP POP POP POP JUMP JUMPDEST PUSH32 0x4E487B7100000000000000000000000000000000000000000000000000000000 PUSH0 MSTORE PUSH1 0x11 PUSH1 0x4 MSTORE PUSH1 0x24 PUSH0 REVERT JUMPDEST PUSH0 PUSH2 0x458 DUP3 PUSH2 0x377 JUMP JUMPDEST SWAP2 POP PUSH32 0xFFFFFFFFFFFFFFFFFFFFFFFFFFFFFFFFFFFFFFFFFFFFFFFFFFFFFFFFFFFFFFFF DUP3 SUB PUSH2 0x48A JUMPI PUSH2 0x489 PUSH2 0x421 JUMP JUMPDEST JUMPDEST PUSH1 0x1 DUP3 ADD SWAP1 POP SWAP2 SWAP1 POP JUMP INVALID LOG2 PUSH5 0x6970667358 0x22 SLT KECCAK256 EQ 0x4C BLOCKHASH 0xE1 SWAP11 DUP10 DUP5 PUSH31 0xC03353AF7FC12B47FF0D0C0B965A79864546317C10D91B2F64736F6C634300 ADDMOD XOR STOP CALLER "
				},
				"gasEstimates": {
					"creation": {
						"codeDepositCost": "245400",
						"executionCost": "285",
						"totalCost": "245685"
					},
					"external": {
						"generateUniqueActorAddress()": "infinite",
						"stringToBytes32(string)": "infinite"
					},
					"internal": {
						"addressExists(address)": "2645"
					}
				},
				"methodIdentifiers": {
					"generateUniqueActorAddress()": "579d5846",
					"stringToBytes32(string)": "cfb51928"
				}
			},
			"storageLayout": {
				"storage": [
					{
						"astId": 17,
						"contract": "contracts/utils.sol:StringUtil",
						"label": "nonce",
						"offset": 0,
						"slot": "0",
						"type": "t_uint256"
					}
				],
				"types": {
					"t_uint256": {
						"encoding": "inplace",
						"label": "uint256",
						"numberOfBytes": "32"
					}
				}
			},
			"userdoc": {
				"kind": "user",
				"methods": {},
				"version": 1
			}
		}
	}
}