{
	"contracts/LogSmartContract.sol": {
		"LogSmartContract": {
			"abi": [
				{
					"inputs": [
						{
							"internalType": "uint256",
							"name": "_actorId",
							"type": "uint256"
						},
						{
							"internalType": "string",
							"name": "_operation",
							"type": "string"
						},
						{
							"internalType": "bytes32",
							"name": "_processPersonalData",
							"type": "bytes32"
						},
						{
							"internalType": "string",
							"name": "_serviceName",
							"type": "string"
						}
					],
					"name": "addLog",
					"outputs": [],
					"stateMutability": "nonpayable",
					"type": "function"
				},
				{
					"inputs": [
						{
							"internalType": "uint256",
							"name": "_dataActorId",
							"type": "uint256"
						}
					],
					"name": "getLogByKey",
					"outputs": [
						{
							"components": [
								{
									"internalType": "uint256",
									"name": "actorId",
									"type": "uint256"
								},
								{
									"internalType": "string",
									"name": "operations",
									"type": "string"
								},
								{
									"internalType": "string",
									"name": "serviceName",
									"type": "string"
								},
								{
									"internalType": "bytes32",
									"name": "processedPersonalDatas",
									"type": "bytes32"
								}
							],
							"internalType": "struct LogSmartContract.Log",
							"name": "",
							"type": "tuple"
						}
					],
					"stateMutability": "view",
					"type": "function"
				},
				{
					"inputs": [],
					"name": "getLogCounter",
					"outputs": [
						{
							"internalType": "uint256",
							"name": "",
							"type": "uint256"
						}
					],
					"stateMutability": "view",
					"type": "function"
				},
				{
					"inputs": [],
					"name": "getLogKeys",
					"outputs": [
						{
							"internalType": "uint256[]",
							"name": "",
							"type": "uint256[]"
						}
					],
					"stateMutability": "view",
					"type": "function"
				},
				{
					"inputs": [],
					"name": "owner",
					"outputs": [
						{
							"internalType": "address",
							"name": "",
							"type": "address"
						}
					],
					"stateMutability": "view",
					"type": "function"
				}
			],
			"devdoc": {
				"kind": "dev",
				"methods": {},
				"version": 1
			},
			"evm": {
				"assembly": "    /* \"contracts/LogSmartContract.sol\":128:1674  contract LogSmartContract is AccessControl {... */\n  mstore(0x40, 0x80)\n    /* \"contracts/LogSmartContract.sol\":641:642  0 */\n  0x00\n    /* \"contracts/LogSmartContract.sol\":615:642  uint private logCounter = 0 */\n  0x03\n  sstore\n    /* \"contracts/LogSmartContract.sol\":128:1674  contract LogSmartContract is AccessControl {... */\n  callvalue\n  dup1\n  iszero\n  tag_1\n  jumpi\n  0x00\n  dup1\n  revert\ntag_1:\n  pop\n    /* \"contracts/AccessControl.sol\":145:155  msg.sender */\n  caller\n    /* \"contracts/AccessControl.sol\":137:142  owner */\n  0x00\n  dup1\n    /* \"contracts/AccessControl.sol\":137:155  owner = msg.sender */\n  0x0100\n  exp\n  dup2\n  sload\n  dup2\n  0xffffffffffffffffffffffffffffffffffffffff\n  mul\n  not\n  and\n  swap1\n  dup4\n  0xffffffffffffffffffffffffffffffffffffffff\n  and\n  mul\n  or\n  swap1\n  sstore\n  pop\n    /* \"contracts/LogSmartContract.sol\":128:1674  contract LogSmartContract is AccessControl {... */\n  dataSize(sub_0)\n  dup1\n  dataOffset(sub_0)\n  0x00\n  codecopy\n  0x00\n  return\nstop\n\nsub_0: assembly {\n        /* \"contracts/LogSmartContract.sol\":128:1674  contract LogSmartContract is AccessControl {... */\n      mstore(0x40, 0x80)\n      callvalue\n      dup1\n      iszero\n      tag_1\n      jumpi\n      0x00\n      dup1\n      revert\n    tag_1:\n      pop\n      jumpi(tag_2, lt(calldatasize, 0x04))\n      shr(0xe0, calldataload(0x00))\n      dup1\n      0x03e4d77f\n      eq\n      tag_3\n      jumpi\n      dup1\n      0x28e8be60\n      eq\n      tag_4\n      jumpi\n      dup1\n      0x6ad65c2b\n      eq\n      tag_5\n      jumpi\n      dup1\n      0x8ae0be40\n      eq\n      tag_6\n      jumpi\n      dup1\n      0x8da5cb5b\n      eq\n      tag_7\n      jumpi\n    tag_2:\n      0x00\n      dup1\n      revert\n        /* \"contracts/LogSmartContract.sol\":1370:1485  function getLogByKey(uint _dataActorId) public view returns (Log memory) {... */\n    tag_3:\n      tag_8\n      0x04\n      dup1\n      calldatasize\n      sub\n      dup2\n      add\n      swap1\n      tag_9\n      swap2\n      swap1\n      tag_10\n      jump\t// in\n    tag_9:\n      tag_11\n      jump\t// in\n    tag_8:\n      mload(0x40)\n      tag_12\n      swap2\n      swap1\n      tag_13\n      jump\t// in\n    tag_12:\n      mload(0x40)\n      dup1\n      swap2\n      sub\n      swap1\n      return\n        /* \"contracts/LogSmartContract.sol\":1491:1577  function getLogCounter() public view returns (uint) {... */\n    tag_4:\n      tag_14\n      tag_15\n      jump\t// in\n    tag_14:\n      mload(0x40)\n      tag_16\n      swap2\n      swap1\n      tag_17\n      jump\t// in\n    tag_16:\n      mload(0x40)\n      dup1\n      swap2\n      sub\n      swap1\n      return\n        /* \"contracts/LogSmartContract.sol\":728:1364  function addLog(uint _actorId,string memory _operation, bytes32 _processPersonalData, string memory _serviceName) public onlyOwner {... */\n    tag_5:\n      tag_18\n      0x04\n      dup1\n      calldatasize\n      sub\n      dup2\n      add\n      swap1\n      tag_19\n      swap2\n      swap1\n      tag_20\n      jump\t// in\n    tag_19:\n      tag_21\n      jump\t// in\n    tag_18:\n      stop\n        /* \"contracts/LogSmartContract.sol\":1583:1672  function getLogKeys() public view returns (uint[] memory) {... */\n    tag_6:\n      tag_22\n      tag_23\n      jump\t// in\n    tag_22:\n      mload(0x40)\n      tag_24\n      swap2\n      swap1\n      tag_25\n      jump\t// in\n    tag_24:\n      mload(0x40)\n      dup1\n      swap2\n      sub\n      swap1\n      return\n        /* \"contracts/AccessControl.sol\":86:106  address public owner */\n    tag_7:\n      tag_26\n      tag_27\n      jump\t// in\n    tag_26:\n      mload(0x40)\n      tag_28\n      swap2\n      swap1\n      tag_29\n      jump\t// in\n    tag_28:\n      mload(0x40)\n      dup1\n      swap2\n      sub\n      swap1\n      return\n        /* \"contracts/LogSmartContract.sol\":1370:1485  function getLogByKey(uint _dataActorId) public view returns (Log memory) {... */\n    tag_11:\n        /* \"contracts/LogSmartContract.sol\":1431:1441  Log memory */\n      tag_30\n      tag_31\n      jump\t// in\n    tag_30:\n        /* \"contracts/LogSmartContract.sol\":1460:1464  logs */\n      0x01\n        /* \"contracts/LogSmartContract.sol\":1460:1478  logs[_dataActorId] */\n      0x00\n        /* \"contracts/LogSmartContract.sol\":1465:1477  _dataActorId */\n      dup4\n        /* \"contracts/LogSmartContract.sol\":1460:1478  logs[_dataActorId] */\n      dup2\n      mstore\n      0x20\n      add\n      swap1\n      dup2\n      mstore\n      0x20\n      add\n      0x00\n      keccak256\n        /* \"contracts/LogSmartContract.sol\":1453:1478  return logs[_dataActorId] */\n      mload(0x40)\n      dup1\n      0x80\n      add\n      0x40\n      mstore\n      swap1\n      dup2\n      0x00\n      dup3\n      add\n      sload\n      dup2\n      mstore\n      0x20\n      add\n      0x01\n      dup3\n      add\n      dup1\n      sload\n      tag_33\n      swap1\n      tag_34\n      jump\t// in\n    tag_33:\n      dup1\n      0x1f\n      add\n      0x20\n      dup1\n      swap2\n      div\n      mul\n      0x20\n      add\n      mload(0x40)\n      swap1\n      dup2\n      add\n      0x40\n      mstore\n      dup1\n      swap3\n      swap2\n      swap1\n      dup2\n      dup2\n      mstore\n      0x20\n      add\n      dup3\n      dup1\n      sload\n      tag_35\n      swap1\n      tag_34\n      jump\t// in\n    tag_35:\n      dup1\n      iszero\n      tag_36\n      jumpi\n      dup1\n      0x1f\n      lt\n      tag_37\n      jumpi\n      0x0100\n      dup1\n      dup4\n      sload\n      div\n      mul\n      dup4\n      mstore\n      swap2\n      0x20\n      add\n      swap2\n      jump(tag_36)\n    tag_37:\n      dup3\n      add\n      swap2\n      swap1\n      0x00\n      mstore\n      keccak256(0x00, 0x20)\n      swap1\n    tag_38:\n      dup2\n      sload\n      dup2\n      mstore\n      swap1\n      0x01\n      add\n      swap1\n      0x20\n      add\n      dup1\n      dup4\n      gt\n      tag_38\n      jumpi\n      dup3\n      swap1\n      sub\n      0x1f\n      and\n      dup3\n      add\n      swap2\n    tag_36:\n      pop\n      pop\n      pop\n      pop\n      pop\n      dup2\n      mstore\n      0x20\n      add\n      0x02\n      dup3\n      add\n      dup1\n      sload\n      tag_39\n      swap1\n      tag_34\n      jump\t// in\n    tag_39:\n      dup1\n      0x1f\n      add\n      0x20\n      dup1\n      swap2\n      div\n      mul\n      0x20\n      add\n      mload(0x40)\n      swap1\n      dup2\n      add\n      0x40\n      mstore\n      dup1\n      swap3\n      swap2\n      swap1\n      dup2\n      dup2\n      mstore\n      0x20\n      add\n      dup3\n      dup1\n      sload\n      tag_40\n      swap1\n      tag_34\n      jump\t// in\n    tag_40:\n      dup1\n      iszero\n      tag_41\n      jumpi\n      dup1\n      0x1f\n      lt\n      tag_42\n      jumpi\n      0x0100\n      dup1\n      dup4\n      sload\n      div\n      mul\n      dup4\n      mstore\n      swap2\n      0x20\n      add\n      swap2\n      jump(tag_41)\n    tag_42:\n      dup3\n      add\n      swap2\n      swap1\n      0x00\n      mstore\n      keccak256(0x00, 0x20)\n      swap1\n    tag_43:\n      dup2\n      sload\n      dup2\n      mstore\n      swap1\n      0x01\n      add\n      swap1\n      0x20\n      add\n      dup1\n      dup4\n      gt\n      tag_43\n      jumpi\n      dup3\n      swap1\n      sub\n      0x1f\n      and\n      dup3\n      add\n      swap2\n    tag_41:\n      pop\n      pop\n      pop\n      pop\n      pop\n      dup2\n      mstore\n      0x20\n      add\n      0x03\n      dup3\n      add\n      sload\n      dup2\n      mstore\n      pop\n      pop\n      swap1\n      pop\n        /* \"contracts/LogSmartContract.sol\":1370:1485  function getLogByKey(uint _dataActorId) public view returns (Log memory) {... */\n      swap2\n      swap1\n      pop\n      jump\t// out\n        /* \"contracts/LogSmartContract.sol\":1491:1577  function getLogCounter() public view returns (uint) {... */\n    tag_15:\n        /* \"contracts/LogSmartContract.sol\":1537:1541  uint */\n      0x00\n        /* \"contracts/LogSmartContract.sol\":1560:1570  logCounter */\n      sload(0x03)\n        /* \"contracts/LogSmartContract.sol\":1553:1570  return logCounter */\n      swap1\n      pop\n        /* \"contracts/LogSmartContract.sol\":1491:1577  function getLogCounter() public view returns (uint) {... */\n      swap1\n      jump\t// out\n        /* \"contracts/LogSmartContract.sol\":728:1364  function addLog(uint _actorId,string memory _operation, bytes32 _processPersonalData, string memory _serviceName) public onlyOwner {... */\n    tag_21:\n        /* \"contracts/AccessControl.sol\":220:225  owner */\n      0x00\n      dup1\n      sload\n      swap1\n      0x0100\n      exp\n      swap1\n      div\n      0xffffffffffffffffffffffffffffffffffffffff\n      and\n        /* \"contracts/AccessControl.sol\":206:225  msg.sender == owner */\n      0xffffffffffffffffffffffffffffffffffffffff\n      and\n        /* \"contracts/AccessControl.sol\":206:216  msg.sender */\n      caller\n        /* \"contracts/AccessControl.sol\":206:225  msg.sender == owner */\n      0xffffffffffffffffffffffffffffffffffffffff\n      and\n      eq\n        /* \"contracts/AccessControl.sol\":198:280  require(msg.sender == owner, \"Only the contract owner can perform this operation\") */\n      tag_46\n      jumpi\n      mload(0x40)\n      0x08c379a000000000000000000000000000000000000000000000000000000000\n      dup2\n      mstore\n      0x04\n      add\n      tag_47\n      swap1\n      tag_48\n      jump\t// in\n    tag_47:\n      mload(0x40)\n      dup1\n      swap2\n      sub\n      swap1\n      revert\n    tag_46:\n        /* \"contracts/LogSmartContract.sol\":1107:1286  Log({... */\n      mload(0x40)\n      dup1\n      0x80\n      add\n      0x40\n      mstore\n      dup1\n        /* \"contracts/LogSmartContract.sol\":1134:1142  _actorId */\n      dup6\n        /* \"contracts/LogSmartContract.sol\":1107:1286  Log({... */\n      dup2\n      mstore\n      0x20\n      add\n        /* \"contracts/LogSmartContract.sol\":1168:1178  _operation */\n      dup5\n        /* \"contracts/LogSmartContract.sol\":1107:1286  Log({... */\n      dup2\n      mstore\n      0x20\n      add\n        /* \"contracts/LogSmartContract.sol\":1205:1217  _serviceName */\n      dup3\n        /* \"contracts/LogSmartContract.sol\":1107:1286  Log({... */\n      dup2\n      mstore\n      0x20\n      add\n        /* \"contracts/LogSmartContract.sol\":1255:1275  _processPersonalData */\n      dup4\n        /* \"contracts/LogSmartContract.sol\":1107:1286  Log({... */\n      dup2\n      mstore\n      pop\n        /* \"contracts/LogSmartContract.sol\":1090:1094  logs */\n      0x01\n        /* \"contracts/LogSmartContract.sol\":1090:1104  logs[_actorId] */\n      0x00\n        /* \"contracts/LogSmartContract.sol\":1095:1103  _actorId */\n      dup7\n        /* \"contracts/LogSmartContract.sol\":1090:1104  logs[_actorId] */\n      dup2\n      mstore\n      0x20\n      add\n      swap1\n      dup2\n      mstore\n      0x20\n      add\n      0x00\n      keccak256\n        /* \"contracts/LogSmartContract.sol\":1090:1286  logs[_actorId] = Log({... */\n      0x00\n      dup3\n      add\n      mload\n      dup2\n      0x00\n      add\n      sstore\n      0x20\n      dup3\n      add\n      mload\n      dup2\n      0x01\n      add\n      swap1\n      dup2\n      tag_50\n      swap2\n      swap1\n      tag_51\n      jump\t// in\n    tag_50:\n      pop\n      0x40\n      dup3\n      add\n      mload\n      dup2\n      0x02\n      add\n      swap1\n      dup2\n      tag_52\n      swap2\n      swap1\n      tag_51\n      jump\t// in\n    tag_52:\n      pop\n      0x60\n      dup3\n      add\n      mload\n      dup2\n      0x03\n      add\n      sstore\n      swap1\n      pop\n      pop\n        /* \"contracts/LogSmartContract.sol\":1305:1312  logKeys */\n      0x02\n        /* \"contracts/LogSmartContract.sol\":1318:1326  _actorId */\n      dup5\n        /* \"contracts/LogSmartContract.sol\":1305:1327  logKeys.push(_actorId) */\n      swap1\n      dup1\n      0x01\n      dup2\n      sload\n      add\n      dup1\n      dup3\n      sstore\n      dup1\n      swap2\n      pop\n      pop\n      0x01\n      swap1\n      sub\n      swap1\n      0x00\n      mstore\n      keccak256(0x00, 0x20)\n      add\n      0x00\n      swap1\n      swap2\n      swap1\n      swap2\n      swap1\n      swap2\n      pop\n      sstore\n        /* \"contracts/LogSmartContract.sol\":1337:1347  logCounter */\n      0x03\n      0x00\n        /* \"contracts/LogSmartContract.sol\":1337:1349  logCounter++ */\n      dup2\n      sload\n      dup1\n      swap3\n      swap2\n      swap1\n      tag_54\n      swap1\n      tag_55\n      jump\t// in\n    tag_54:\n      swap2\n      swap1\n      pop\n      sstore\n      pop\n        /* \"contracts/LogSmartContract.sol\":728:1364  function addLog(uint _actorId,string memory _operation, bytes32 _processPersonalData, string memory _serviceName) public onlyOwner {... */\n      pop\n      pop\n      pop\n      pop\n      jump\t// out\n        /* \"contracts/LogSmartContract.sol\":1583:1672  function getLogKeys() public view returns (uint[] memory) {... */\n    tag_23:\n        /* \"contracts/LogSmartContract.sol\":1626:1639  uint[] memory */\n      0x60\n        /* \"contracts/LogSmartContract.sol\":1658:1665  logKeys */\n      0x02\n        /* \"contracts/LogSmartContract.sol\":1651:1665  return logKeys */\n      dup1\n      sload\n      dup1\n      0x20\n      mul\n      0x20\n      add\n      mload(0x40)\n      swap1\n      dup2\n      add\n      0x40\n      mstore\n      dup1\n      swap3\n      swap2\n      swap1\n      dup2\n      dup2\n      mstore\n      0x20\n      add\n      dup3\n      dup1\n      sload\n      dup1\n      iszero\n      tag_57\n      jumpi\n      0x20\n      mul\n      dup3\n      add\n      swap2\n      swap1\n      0x00\n      mstore\n      keccak256(0x00, 0x20)\n      swap1\n    tag_58:\n      dup2\n      sload\n      dup2\n      mstore\n      0x20\n      add\n      swap1\n      0x01\n      add\n      swap1\n      dup1\n      dup4\n      gt\n      tag_58\n      jumpi\n    tag_57:\n      pop\n      pop\n      pop\n      pop\n      pop\n      swap1\n      pop\n        /* \"contracts/LogSmartContract.sol\":1583:1672  function getLogKeys() public view returns (uint[] memory) {... */\n      swap1\n      jump\t// out\n        /* \"contracts/AccessControl.sol\":86:106  address public owner */\n    tag_27:\n      0x00\n      dup1\n      sload\n      swap1\n      0x0100\n      exp\n      swap1\n      div\n      0xffffffffffffffffffffffffffffffffffffffff\n      and\n      dup2\n      jump\t// out\n    tag_31:\n      mload(0x40)\n      dup1\n      0x80\n      add\n      0x40\n      mstore\n      dup1\n      0x00\n      dup2\n      mstore\n      0x20\n      add\n      0x60\n      dup2\n      mstore\n      0x20\n      add\n      0x60\n      dup2\n      mstore\n      0x20\n      add\n      0x00\n      dup1\n      not\n      and\n      dup2\n      mstore\n      pop\n      swap1\n      jump\t// out\n        /* \"#utility.yul\":7:82   */\n    tag_59:\n        /* \"#utility.yul\":40:46   */\n      0x00\n        /* \"#utility.yul\":73:75   */\n      0x40\n        /* \"#utility.yul\":67:76   */\n      mload\n        /* \"#utility.yul\":57:76   */\n      swap1\n      pop\n        /* \"#utility.yul\":7:82   */\n      swap1\n      jump\t// out\n        /* \"#utility.yul\":88:205   */\n    tag_60:\n        /* \"#utility.yul\":197:198   */\n      0x00\n        /* \"#utility.yul\":194:195   */\n      dup1\n        /* \"#utility.yul\":187:199   */\n      revert\n        /* \"#utility.yul\":211:328   */\n    tag_61:\n        /* \"#utility.yul\":320:321   */\n      0x00\n        /* \"#utility.yul\":317:318   */\n      dup1\n        /* \"#utility.yul\":310:322   */\n      revert\n        /* \"#utility.yul\":334:411   */\n    tag_62:\n        /* \"#utility.yul\":371:378   */\n      0x00\n        /* \"#utility.yul\":400:405   */\n      dup2\n        /* \"#utility.yul\":389:405   */\n      swap1\n      pop\n        /* \"#utility.yul\":334:411   */\n      swap2\n      swap1\n      pop\n      jump\t// out\n        /* \"#utility.yul\":417:539   */\n    tag_63:\n        /* \"#utility.yul\":490:514   */\n      tag_121\n        /* \"#utility.yul\":508:513   */\n      dup2\n        /* \"#utility.yul\":490:514   */\n      tag_62\n      jump\t// in\n    tag_121:\n        /* \"#utility.yul\":483:488   */\n      dup2\n        /* \"#utility.yul\":480:515   */\n      eq\n        /* \"#utility.yul\":470:533   */\n      tag_122\n      jumpi\n        /* \"#utility.yul\":529:530   */\n      0x00\n        /* \"#utility.yul\":526:527   */\n      dup1\n        /* \"#utility.yul\":519:531   */\n      revert\n        /* \"#utility.yul\":470:533   */\n    tag_122:\n        /* \"#utility.yul\":417:539   */\n      pop\n      jump\t// out\n        /* \"#utility.yul\":545:684   */\n    tag_64:\n        /* \"#utility.yul\":591:596   */\n      0x00\n        /* \"#utility.yul\":629:635   */\n      dup2\n        /* \"#utility.yul\":616:636   */\n      calldataload\n        /* \"#utility.yul\":607:636   */\n      swap1\n      pop\n        /* \"#utility.yul\":645:678   */\n      tag_124\n        /* \"#utility.yul\":672:677   */\n      dup2\n        /* \"#utility.yul\":645:678   */\n      tag_63\n      jump\t// in\n    tag_124:\n        /* \"#utility.yul\":545:684   */\n      swap3\n      swap2\n      pop\n      pop\n      jump\t// out\n        /* \"#utility.yul\":690:1019   */\n    tag_10:\n        /* \"#utility.yul\":749:755   */\n      0x00\n        /* \"#utility.yul\":798:800   */\n      0x20\n        /* \"#utility.yul\":786:795   */\n      dup3\n        /* \"#utility.yul\":777:784   */\n      dup5\n        /* \"#utility.yul\":773:796   */\n      sub\n        /* \"#utility.yul\":769:801   */\n      slt\n        /* \"#utility.yul\":766:885   */\n      iszero\n      tag_126\n      jumpi\n        /* \"#utility.yul\":804:883   */\n      tag_127\n      tag_60\n      jump\t// in\n    tag_127:\n        /* \"#utility.yul\":766:885   */\n    tag_126:\n        /* \"#utility.yul\":924:925   */\n      0x00\n        /* \"#utility.yul\":949:1002   */\n      tag_128\n        /* \"#utility.yul\":994:1001   */\n      dup5\n        /* \"#utility.yul\":985:991   */\n      dup3\n        /* \"#utility.yul\":974:983   */\n      dup6\n        /* \"#utility.yul\":970:992   */\n      add\n        /* \"#utility.yul\":949:1002   */\n      tag_64\n      jump\t// in\n    tag_128:\n        /* \"#utility.yul\":939:1002   */\n      swap2\n      pop\n        /* \"#utility.yul\":895:1012   */\n      pop\n        /* \"#utility.yul\":690:1019   */\n      swap3\n      swap2\n      pop\n      pop\n      jump\t// out\n        /* \"#utility.yul\":1025:1133   */\n    tag_65:\n        /* \"#utility.yul\":1102:1126   */\n      tag_130\n        /* \"#utility.yul\":1120:1125   */\n      dup2\n        /* \"#utility.yul\":1102:1126   */\n      tag_62\n      jump\t// in\n    tag_130:\n        /* \"#utility.yul\":1097:1100   */\n      dup3\n        /* \"#utility.yul\":1090:1127   */\n      mstore\n        /* \"#utility.yul\":1025:1133   */\n      pop\n      pop\n      jump\t// out\n        /* \"#utility.yul\":1139:1238   */\n    tag_66:\n        /* \"#utility.yul\":1191:1197   */\n      0x00\n        /* \"#utility.yul\":1225:1230   */\n      dup2\n        /* \"#utility.yul\":1219:1231   */\n      mload\n        /* \"#utility.yul\":1209:1231   */\n      swap1\n      pop\n        /* \"#utility.yul\":1139:1238   */\n      swap2\n      swap1\n      pop\n      jump\t// out\n        /* \"#utility.yul\":1244:1403   */\n    tag_67:\n        /* \"#utility.yul\":1318:1329   */\n      0x00\n        /* \"#utility.yul\":1352:1358   */\n      dup3\n        /* \"#utility.yul\":1347:1350   */\n      dup3\n        /* \"#utility.yul\":1340:1359   */\n      mstore\n        /* \"#utility.yul\":1392:1396   */\n      0x20\n        /* \"#utility.yul\":1387:1390   */\n      dup3\n        /* \"#utility.yul\":1383:1397   */\n      add\n        /* \"#utility.yul\":1368:1397   */\n      swap1\n      pop\n        /* \"#utility.yul\":1244:1403   */\n      swap3\n      swap2\n      pop\n      pop\n      jump\t// out\n        /* \"#utility.yul\":1409:1655   */\n    tag_68:\n        /* \"#utility.yul\":1490:1491   */\n      0x00\n        /* \"#utility.yul\":1500:1613   */\n    tag_134:\n        /* \"#utility.yul\":1514:1520   */\n      dup4\n        /* \"#utility.yul\":1511:1512   */\n      dup2\n        /* \"#utility.yul\":1508:1521   */\n      lt\n        /* \"#utility.yul\":1500:1613   */\n      iszero\n      tag_136\n      jumpi\n        /* \"#utility.yul\":1599:1600   */\n      dup1\n        /* \"#utility.yul\":1594:1597   */\n      dup3\n        /* \"#utility.yul\":1590:1601   */\n      add\n        /* \"#utility.yul\":1584:1602   */\n      mload\n        /* \"#utility.yul\":1580:1581   */\n      dup2\n        /* \"#utility.yul\":1575:1578   */\n      dup5\n        /* \"#utility.yul\":1571:1582   */\n      add\n        /* \"#utility.yul\":1564:1603   */\n      mstore\n        /* \"#utility.yul\":1536:1538   */\n      0x20\n        /* \"#utility.yul\":1533:1534   */\n      dup2\n        /* \"#utility.yul\":1529:1539   */\n      add\n        /* \"#utility.yul\":1524:1539   */\n      swap1\n      pop\n        /* \"#utility.yul\":1500:1613   */\n      jump(tag_134)\n    tag_136:\n        /* \"#utility.yul\":1647:1648   */\n      0x00\n        /* \"#utility.yul\":1638:1644   */\n      dup5\n        /* \"#utility.yul\":1633:1636   */\n      dup5\n        /* \"#utility.yul\":1629:1645   */\n      add\n        /* \"#utility.yul\":1622:1649   */\n      mstore\n        /* \"#utility.yul\":1471:1655   */\n      pop\n        /* \"#utility.yul\":1409:1655   */\n      pop\n      pop\n      pop\n      jump\t// out\n        /* \"#utility.yul\":1661:1763   */\n    tag_69:\n        /* \"#utility.yul\":1702:1708   */\n      0x00\n        /* \"#utility.yul\":1753:1755   */\n      0x1f\n        /* \"#utility.yul\":1749:1756   */\n      not\n        /* \"#utility.yul\":1744:1746   */\n      0x1f\n        /* \"#utility.yul\":1737:1742   */\n      dup4\n        /* \"#utility.yul\":1733:1747   */\n      add\n        /* \"#utility.yul\":1729:1757   */\n      and\n        /* \"#utility.yul\":1719:1757   */\n      swap1\n      pop\n        /* \"#utility.yul\":1661:1763   */\n      swap2\n      swap1\n      pop\n      jump\t// out\n        /* \"#utility.yul\":1769:2126   */\n    tag_70:\n        /* \"#utility.yul\":1847:1850   */\n      0x00\n        /* \"#utility.yul\":1875:1914   */\n      tag_139\n        /* \"#utility.yul\":1908:1913   */\n      dup3\n        /* \"#utility.yul\":1875:1914   */\n      tag_66\n      jump\t// in\n    tag_139:\n        /* \"#utility.yul\":1930:1991   */\n      tag_140\n        /* \"#utility.yul\":1984:1990   */\n      dup2\n        /* \"#utility.yul\":1979:1982   */\n      dup6\n        /* \"#utility.yul\":1930:1991   */\n      tag_67\n      jump\t// in\n    tag_140:\n        /* \"#utility.yul\":1923:1991   */\n      swap4\n      pop\n        /* \"#utility.yul\":2000:2065   */\n      tag_141\n        /* \"#utility.yul\":2058:2064   */\n      dup2\n        /* \"#utility.yul\":2053:2056   */\n      dup6\n        /* \"#utility.yul\":2046:2050   */\n      0x20\n        /* \"#utility.yul\":2039:2044   */\n      dup7\n        /* \"#utility.yul\":2035:2051   */\n      add\n        /* \"#utility.yul\":2000:2065   */\n      tag_68\n      jump\t// in\n    tag_141:\n        /* \"#utility.yul\":2090:2119   */\n      tag_142\n        /* \"#utility.yul\":2112:2118   */\n      dup2\n        /* \"#utility.yul\":2090:2119   */\n      tag_69\n      jump\t// in\n    tag_142:\n        /* \"#utility.yul\":2085:2088   */\n      dup5\n        /* \"#utility.yul\":2081:2120   */\n      add\n        /* \"#utility.yul\":2074:2120   */\n      swap2\n      pop\n        /* \"#utility.yul\":1851:2126   */\n      pop\n        /* \"#utility.yul\":1769:2126   */\n      swap3\n      swap2\n      pop\n      pop\n      jump\t// out\n        /* \"#utility.yul\":2132:2209   */\n    tag_71:\n        /* \"#utility.yul\":2169:2176   */\n      0x00\n        /* \"#utility.yul\":2198:2203   */\n      dup2\n        /* \"#utility.yul\":2187:2203   */\n      swap1\n      pop\n        /* \"#utility.yul\":2132:2209   */\n      swap2\n      swap1\n      pop\n      jump\t// out\n        /* \"#utility.yul\":2215:2323   */\n    tag_72:\n        /* \"#utility.yul\":2292:2316   */\n      tag_145\n        /* \"#utility.yul\":2310:2315   */\n      dup2\n        /* \"#utility.yul\":2292:2316   */\n      tag_71\n      jump\t// in\n    tag_145:\n        /* \"#utility.yul\":2287:2290   */\n      dup3\n        /* \"#utility.yul\":2280:2317   */\n      mstore\n        /* \"#utility.yul\":2215:2323   */\n      pop\n      pop\n      jump\t// out\n        /* \"#utility.yul\":2395:3444   */\n    tag_73:\n        /* \"#utility.yul\":2504:2507   */\n      0x00\n        /* \"#utility.yul\":2540:2544   */\n      0x80\n        /* \"#utility.yul\":2535:2538   */\n      dup4\n        /* \"#utility.yul\":2531:2545   */\n      add\n        /* \"#utility.yul\":2630:2634   */\n      0x00\n        /* \"#utility.yul\":2623:2628   */\n      dup4\n        /* \"#utility.yul\":2619:2635   */\n      add\n        /* \"#utility.yul\":2613:2636   */\n      mload\n        /* \"#utility.yul\":2649:2712   */\n      tag_147\n        /* \"#utility.yul\":2706:2710   */\n      0x00\n        /* \"#utility.yul\":2701:2704   */\n      dup7\n        /* \"#utility.yul\":2697:2711   */\n      add\n        /* \"#utility.yul\":2683:2695   */\n      dup3\n        /* \"#utility.yul\":2649:2712   */\n      tag_65\n      jump\t// in\n    tag_147:\n        /* \"#utility.yul\":2555:2722   */\n      pop\n        /* \"#utility.yul\":2810:2814   */\n      0x20\n        /* \"#utility.yul\":2803:2808   */\n      dup4\n        /* \"#utility.yul\":2799:2815   */\n      add\n        /* \"#utility.yul\":2793:2816   */\n      mload\n        /* \"#utility.yul\":2863:2866   */\n      dup5\n        /* \"#utility.yul\":2857:2861   */\n      dup3\n        /* \"#utility.yul\":2853:2867   */\n      sub\n        /* \"#utility.yul\":2846:2850   */\n      0x20\n        /* \"#utility.yul\":2841:2844   */\n      dup7\n        /* \"#utility.yul\":2837:2851   */\n      add\n        /* \"#utility.yul\":2830:2868   */\n      mstore\n        /* \"#utility.yul\":2889:2962   */\n      tag_148\n        /* \"#utility.yul\":2957:2961   */\n      dup3\n        /* \"#utility.yul\":2943:2955   */\n      dup3\n        /* \"#utility.yul\":2889:2962   */\n      tag_70\n      jump\t// in\n    tag_148:\n        /* \"#utility.yul\":2881:2962   */\n      swap2\n      pop\n        /* \"#utility.yul\":2732:2973   */\n      pop\n        /* \"#utility.yul\":3062:3066   */\n      0x40\n        /* \"#utility.yul\":3055:3060   */\n      dup4\n        /* \"#utility.yul\":3051:3067   */\n      add\n        /* \"#utility.yul\":3045:3068   */\n      mload\n        /* \"#utility.yul\":3115:3118   */\n      dup5\n        /* \"#utility.yul\":3109:3113   */\n      dup3\n        /* \"#utility.yul\":3105:3119   */\n      sub\n        /* \"#utility.yul\":3098:3102   */\n      0x40\n        /* \"#utility.yul\":3093:3096   */\n      dup7\n        /* \"#utility.yul\":3089:3103   */\n      add\n        /* \"#utility.yul\":3082:3120   */\n      mstore\n        /* \"#utility.yul\":3141:3214   */\n      tag_149\n        /* \"#utility.yul\":3209:3213   */\n      dup3\n        /* \"#utility.yul\":3195:3207   */\n      dup3\n        /* \"#utility.yul\":3141:3214   */\n      tag_70\n      jump\t// in\n    tag_149:\n        /* \"#utility.yul\":3133:3214   */\n      swap2\n      pop\n        /* \"#utility.yul\":2983:3225   */\n      pop\n        /* \"#utility.yul\":3325:3329   */\n      0x60\n        /* \"#utility.yul\":3318:3323   */\n      dup4\n        /* \"#utility.yul\":3314:3330   */\n      add\n        /* \"#utility.yul\":3308:3331   */\n      mload\n        /* \"#utility.yul\":3344:3407   */\n      tag_150\n        /* \"#utility.yul\":3401:3405   */\n      0x60\n        /* \"#utility.yul\":3396:3399   */\n      dup7\n        /* \"#utility.yul\":3392:3406   */\n      add\n        /* \"#utility.yul\":3378:3390   */\n      dup3\n        /* \"#utility.yul\":3344:3407   */\n      tag_72\n      jump\t// in\n    tag_150:\n        /* \"#utility.yul\":3235:3417   */\n      pop\n        /* \"#utility.yul\":3434:3438   */\n      dup1\n        /* \"#utility.yul\":3427:3438   */\n      swap2\n      pop\n        /* \"#utility.yul\":2509:3444   */\n      pop\n        /* \"#utility.yul\":2395:3444   */\n      swap3\n      swap2\n      pop\n      pop\n      jump\t// out\n        /* \"#utility.yul\":3450:3803   */\n    tag_13:\n        /* \"#utility.yul\":3583:3587   */\n      0x00\n        /* \"#utility.yul\":3621:3623   */\n      0x20\n        /* \"#utility.yul\":3610:3619   */\n      dup3\n        /* \"#utility.yul\":3606:3624   */\n      add\n        /* \"#utility.yul\":3598:3624   */\n      swap1\n      pop\n        /* \"#utility.yul\":3670:3679   */\n      dup2\n        /* \"#utility.yul\":3664:3668   */\n      dup2\n        /* \"#utility.yul\":3660:3680   */\n      sub\n        /* \"#utility.yul\":3656:3657   */\n      0x00\n        /* \"#utility.yul\":3645:3654   */\n      dup4\n        /* \"#utility.yul\":3641:3658   */\n      add\n        /* \"#utility.yul\":3634:3681   */\n      mstore\n        /* \"#utility.yul\":3698:3796   */\n      tag_152\n        /* \"#utility.yul\":3791:3795   */\n      dup2\n        /* \"#utility.yul\":3782:3788   */\n      dup5\n        /* \"#utility.yul\":3698:3796   */\n      tag_73\n      jump\t// in\n    tag_152:\n        /* \"#utility.yul\":3690:3796   */\n      swap1\n      pop\n        /* \"#utility.yul\":3450:3803   */\n      swap3\n      swap2\n      pop\n      pop\n      jump\t// out\n        /* \"#utility.yul\":3809:3927   */\n    tag_74:\n        /* \"#utility.yul\":3896:3920   */\n      tag_154\n        /* \"#utility.yul\":3914:3919   */\n      dup2\n        /* \"#utility.yul\":3896:3920   */\n      tag_62\n      jump\t// in\n    tag_154:\n        /* \"#utility.yul\":3891:3894   */\n      dup3\n        /* \"#utility.yul\":3884:3921   */\n      mstore\n        /* \"#utility.yul\":3809:3927   */\n      pop\n      pop\n      jump\t// out\n        /* \"#utility.yul\":3933:4155   */\n    tag_17:\n        /* \"#utility.yul\":4026:4030   */\n      0x00\n        /* \"#utility.yul\":4064:4066   */\n      0x20\n        /* \"#utility.yul\":4053:4062   */\n      dup3\n        /* \"#utility.yul\":4049:4067   */\n      add\n        /* \"#utility.yul\":4041:4067   */\n      swap1\n      pop\n        /* \"#utility.yul\":4077:4148   */\n      tag_156\n        /* \"#utility.yul\":4145:4146   */\n      0x00\n        /* \"#utility.yul\":4134:4143   */\n      dup4\n        /* \"#utility.yul\":4130:4147   */\n      add\n        /* \"#utility.yul\":4121:4127   */\n      dup5\n        /* \"#utility.yul\":4077:4148   */\n      tag_74\n      jump\t// in\n    tag_156:\n        /* \"#utility.yul\":3933:4155   */\n      swap3\n      swap2\n      pop\n      pop\n      jump\t// out\n        /* \"#utility.yul\":4161:4278   */\n    tag_75:\n        /* \"#utility.yul\":4270:4271   */\n      0x00\n        /* \"#utility.yul\":4267:4268   */\n      dup1\n        /* \"#utility.yul\":4260:4272   */\n      revert\n        /* \"#utility.yul\":4284:4401   */\n    tag_76:\n        /* \"#utility.yul\":4393:4394   */\n      0x00\n        /* \"#utility.yul\":4390:4391   */\n      dup1\n        /* \"#utility.yul\":4383:4395   */\n      revert\n        /* \"#utility.yul\":4407:4587   */\n    tag_77:\n        /* \"#utility.yul\":4455:4532   */\n      0x4e487b7100000000000000000000000000000000000000000000000000000000\n        /* \"#utility.yul\":4452:4453   */\n      0x00\n        /* \"#utility.yul\":4445:4533   */\n      mstore\n        /* \"#utility.yul\":4552:4556   */\n      0x41\n        /* \"#utility.yul\":4549:4550   */\n      0x04\n        /* \"#utility.yul\":4542:4557   */\n      mstore\n        /* \"#utility.yul\":4576:4580   */\n      0x24\n        /* \"#utility.yul\":4573:4574   */\n      0x00\n        /* \"#utility.yul\":4566:4581   */\n      revert\n        /* \"#utility.yul\":4593:4874   */\n    tag_78:\n        /* \"#utility.yul\":4676:4703   */\n      tag_161\n        /* \"#utility.yul\":4698:4702   */\n      dup3\n        /* \"#utility.yul\":4676:4703   */\n      tag_69\n      jump\t// in\n    tag_161:\n        /* \"#utility.yul\":4668:4674   */\n      dup2\n        /* \"#utility.yul\":4664:4704   */\n      add\n        /* \"#utility.yul\":4806:4812   */\n      dup2\n        /* \"#utility.yul\":4794:4804   */\n      dup2\n        /* \"#utility.yul\":4791:4813   */\n      lt\n        /* \"#utility.yul\":4770:4788   */\n      0xffffffffffffffff\n        /* \"#utility.yul\":4758:4768   */\n      dup3\n        /* \"#utility.yul\":4755:4789   */\n      gt\n        /* \"#utility.yul\":4752:4814   */\n      or\n        /* \"#utility.yul\":4749:4837   */\n      iszero\n      tag_162\n      jumpi\n        /* \"#utility.yul\":4817:4835   */\n      tag_163\n      tag_77\n      jump\t// in\n    tag_163:\n        /* \"#utility.yul\":4749:4837   */\n    tag_162:\n        /* \"#utility.yul\":4857:4867   */\n      dup1\n        /* \"#utility.yul\":4853:4855   */\n      0x40\n        /* \"#utility.yul\":4846:4868   */\n      mstore\n        /* \"#utility.yul\":4636:4874   */\n      pop\n        /* \"#utility.yul\":4593:4874   */\n      pop\n      pop\n      jump\t// out\n        /* \"#utility.yul\":4880:5009   */\n    tag_79:\n        /* \"#utility.yul\":4914:4920   */\n      0x00\n        /* \"#utility.yul\":4941:4961   */\n      tag_165\n      tag_59\n      jump\t// in\n    tag_165:\n        /* \"#utility.yul\":4931:4961   */\n      swap1\n      pop\n        /* \"#utility.yul\":4970:5003   */\n      tag_166\n        /* \"#utility.yul\":4998:5002   */\n      dup3\n        /* \"#utility.yul\":4990:4996   */\n      dup3\n        /* \"#utility.yul\":4970:5003   */\n      tag_78\n      jump\t// in\n    tag_166:\n        /* \"#utility.yul\":4880:5009   */\n      swap2\n      swap1\n      pop\n      jump\t// out\n        /* \"#utility.yul\":5015:5323   */\n    tag_80:\n        /* \"#utility.yul\":5077:5081   */\n      0x00\n        /* \"#utility.yul\":5167:5185   */\n      0xffffffffffffffff\n        /* \"#utility.yul\":5159:5165   */\n      dup3\n        /* \"#utility.yul\":5156:5186   */\n      gt\n        /* \"#utility.yul\":5153:5209   */\n      iszero\n      tag_168\n      jumpi\n        /* \"#utility.yul\":5189:5207   */\n      tag_169\n      tag_77\n      jump\t// in\n    tag_169:\n        /* \"#utility.yul\":5153:5209   */\n    tag_168:\n        /* \"#utility.yul\":5227:5256   */\n      tag_170\n        /* \"#utility.yul\":5249:5255   */\n      dup3\n        /* \"#utility.yul\":5227:5256   */\n      tag_69\n      jump\t// in\n    tag_170:\n        /* \"#utility.yul\":5219:5256   */\n      swap1\n      pop\n        /* \"#utility.yul\":5311:5315   */\n      0x20\n        /* \"#utility.yul\":5305:5309   */\n      dup2\n        /* \"#utility.yul\":5301:5316   */\n      add\n        /* \"#utility.yul\":5293:5316   */\n      swap1\n      pop\n        /* \"#utility.yul\":5015:5323   */\n      swap2\n      swap1\n      pop\n      jump\t// out\n        /* \"#utility.yul\":5329:5475   */\n    tag_81:\n        /* \"#utility.yul\":5426:5432   */\n      dup3\n        /* \"#utility.yul\":5421:5424   */\n      dup2\n        /* \"#utility.yul\":5416:5419   */\n      dup4\n        /* \"#utility.yul\":5403:5433   */\n      calldatacopy\n        /* \"#utility.yul\":5467:5468   */\n      0x00\n        /* \"#utility.yul\":5458:5464   */\n      dup4\n        /* \"#utility.yul\":5453:5456   */\n      dup4\n        /* \"#utility.yul\":5449:5465   */\n      add\n        /* \"#utility.yul\":5442:5469   */\n      mstore\n        /* \"#utility.yul\":5329:5475   */\n      pop\n      pop\n      pop\n      jump\t// out\n        /* \"#utility.yul\":5481:5906   */\n    tag_82:\n        /* \"#utility.yul\":5559:5564   */\n      0x00\n        /* \"#utility.yul\":5584:5650   */\n      tag_173\n        /* \"#utility.yul\":5600:5649   */\n      tag_174\n        /* \"#utility.yul\":5642:5648   */\n      dup5\n        /* \"#utility.yul\":5600:5649   */\n      tag_80\n      jump\t// in\n    tag_174:\n        /* \"#utility.yul\":5584:5650   */\n      tag_79\n      jump\t// in\n    tag_173:\n        /* \"#utility.yul\":5575:5650   */\n      swap1\n      pop\n        /* \"#utility.yul\":5673:5679   */\n      dup3\n        /* \"#utility.yul\":5666:5671   */\n      dup2\n        /* \"#utility.yul\":5659:5680   */\n      mstore\n        /* \"#utility.yul\":5711:5715   */\n      0x20\n        /* \"#utility.yul\":5704:5709   */\n      dup2\n        /* \"#utility.yul\":5700:5716   */\n      add\n        /* \"#utility.yul\":5749:5752   */\n      dup5\n        /* \"#utility.yul\":5740:5746   */\n      dup5\n        /* \"#utility.yul\":5735:5738   */\n      dup5\n        /* \"#utility.yul\":5731:5747   */\n      add\n        /* \"#utility.yul\":5728:5753   */\n      gt\n        /* \"#utility.yul\":5725:5837   */\n      iszero\n      tag_175\n      jumpi\n        /* \"#utility.yul\":5756:5835   */\n      tag_176\n      tag_76\n      jump\t// in\n    tag_176:\n        /* \"#utility.yul\":5725:5837   */\n    tag_175:\n        /* \"#utility.yul\":5846:5900   */\n      tag_177\n        /* \"#utility.yul\":5893:5899   */\n      dup5\n        /* \"#utility.yul\":5888:5891   */\n      dup3\n        /* \"#utility.yul\":5883:5886   */\n      dup6\n        /* \"#utility.yul\":5846:5900   */\n      tag_81\n      jump\t// in\n    tag_177:\n        /* \"#utility.yul\":5565:5906   */\n      pop\n        /* \"#utility.yul\":5481:5906   */\n      swap4\n      swap3\n      pop\n      pop\n      pop\n      jump\t// out\n        /* \"#utility.yul\":5926:6266   */\n    tag_83:\n        /* \"#utility.yul\":5982:5987   */\n      0x00\n        /* \"#utility.yul\":6031:6034   */\n      dup3\n        /* \"#utility.yul\":6024:6028   */\n      0x1f\n        /* \"#utility.yul\":6016:6022   */\n      dup4\n        /* \"#utility.yul\":6012:6029   */\n      add\n        /* \"#utility.yul\":6008:6035   */\n      slt\n        /* \"#utility.yul\":5998:6120   */\n      tag_179\n      jumpi\n        /* \"#utility.yul\":6039:6118   */\n      tag_180\n      tag_75\n      jump\t// in\n    tag_180:\n        /* \"#utility.yul\":5998:6120   */\n    tag_179:\n        /* \"#utility.yul\":6156:6162   */\n      dup2\n        /* \"#utility.yul\":6143:6163   */\n      calldataload\n        /* \"#utility.yul\":6181:6260   */\n      tag_181\n        /* \"#utility.yul\":6256:6259   */\n      dup5\n        /* \"#utility.yul\":6248:6254   */\n      dup3\n        /* \"#utility.yul\":6241:6245   */\n      0x20\n        /* \"#utility.yul\":6233:6239   */\n      dup7\n        /* \"#utility.yul\":6229:6246   */\n      add\n        /* \"#utility.yul\":6181:6260   */\n      tag_82\n      jump\t// in\n    tag_181:\n        /* \"#utility.yul\":6172:6260   */\n      swap2\n      pop\n        /* \"#utility.yul\":5988:6266   */\n      pop\n        /* \"#utility.yul\":5926:6266   */\n      swap3\n      swap2\n      pop\n      pop\n      jump\t// out\n        /* \"#utility.yul\":6272:6394   */\n    tag_84:\n        /* \"#utility.yul\":6345:6369   */\n      tag_183\n        /* \"#utility.yul\":6363:6368   */\n      dup2\n        /* \"#utility.yul\":6345:6369   */\n      tag_71\n      jump\t// in\n    tag_183:\n        /* \"#utility.yul\":6338:6343   */\n      dup2\n        /* \"#utility.yul\":6335:6370   */\n      eq\n        /* \"#utility.yul\":6325:6388   */\n      tag_184\n      jumpi\n        /* \"#utility.yul\":6384:6385   */\n      0x00\n        /* \"#utility.yul\":6381:6382   */\n      dup1\n        /* \"#utility.yul\":6374:6386   */\n      revert\n        /* \"#utility.yul\":6325:6388   */\n    tag_184:\n        /* \"#utility.yul\":6272:6394   */\n      pop\n      jump\t// out\n        /* \"#utility.yul\":6400:6539   */\n    tag_85:\n        /* \"#utility.yul\":6446:6451   */\n      0x00\n        /* \"#utility.yul\":6484:6490   */\n      dup2\n        /* \"#utility.yul\":6471:6491   */\n      calldataload\n        /* \"#utility.yul\":6462:6491   */\n      swap1\n      pop\n        /* \"#utility.yul\":6500:6533   */\n      tag_186\n        /* \"#utility.yul\":6527:6532   */\n      dup2\n        /* \"#utility.yul\":6500:6533   */\n      tag_84\n      jump\t// in\n    tag_186:\n        /* \"#utility.yul\":6400:6539   */\n      swap3\n      swap2\n      pop\n      pop\n      jump\t// out\n        /* \"#utility.yul\":6545:7670   */\n    tag_20:\n        /* \"#utility.yul\":6651:6657   */\n      0x00\n        /* \"#utility.yul\":6659:6665   */\n      dup1\n        /* \"#utility.yul\":6667:6673   */\n      0x00\n        /* \"#utility.yul\":6675:6681   */\n      dup1\n        /* \"#utility.yul\":6724:6727   */\n      0x80\n        /* \"#utility.yul\":6712:6721   */\n      dup6\n        /* \"#utility.yul\":6703:6710   */\n      dup8\n        /* \"#utility.yul\":6699:6722   */\n      sub\n        /* \"#utility.yul\":6695:6728   */\n      slt\n        /* \"#utility.yul\":6692:6812   */\n      iszero\n      tag_188\n      jumpi\n        /* \"#utility.yul\":6731:6810   */\n      tag_189\n      tag_60\n      jump\t// in\n    tag_189:\n        /* \"#utility.yul\":6692:6812   */\n    tag_188:\n        /* \"#utility.yul\":6851:6852   */\n      0x00\n        /* \"#utility.yul\":6876:6929   */\n      tag_190\n        /* \"#utility.yul\":6921:6928   */\n      dup8\n        /* \"#utility.yul\":6912:6918   */\n      dup3\n        /* \"#utility.yul\":6901:6910   */\n      dup9\n        /* \"#utility.yul\":6897:6919   */\n      add\n        /* \"#utility.yul\":6876:6929   */\n      tag_64\n      jump\t// in\n    tag_190:\n        /* \"#utility.yul\":6866:6929   */\n      swap5\n      pop\n        /* \"#utility.yul\":6822:6939   */\n      pop\n        /* \"#utility.yul\":7006:7008   */\n      0x20\n        /* \"#utility.yul\":6995:7004   */\n      dup6\n        /* \"#utility.yul\":6991:7009   */\n      add\n        /* \"#utility.yul\":6978:7010   */\n      calldataload\n        /* \"#utility.yul\":7037:7055   */\n      0xffffffffffffffff\n        /* \"#utility.yul\":7029:7035   */\n      dup2\n        /* \"#utility.yul\":7026:7056   */\n      gt\n        /* \"#utility.yul\":7023:7140   */\n      iszero\n      tag_191\n      jumpi\n        /* \"#utility.yul\":7059:7138   */\n      tag_192\n      tag_61\n      jump\t// in\n    tag_192:\n        /* \"#utility.yul\":7023:7140   */\n    tag_191:\n        /* \"#utility.yul\":7164:7227   */\n      tag_193\n        /* \"#utility.yul\":7219:7226   */\n      dup8\n        /* \"#utility.yul\":7210:7216   */\n      dup3\n        /* \"#utility.yul\":7199:7208   */\n      dup9\n        /* \"#utility.yul\":7195:7217   */\n      add\n        /* \"#utility.yul\":7164:7227   */\n      tag_83\n      jump\t// in\n    tag_193:\n        /* \"#utility.yul\":7154:7227   */\n      swap4\n      pop\n        /* \"#utility.yul\":6949:7237   */\n      pop\n        /* \"#utility.yul\":7276:7278   */\n      0x40\n        /* \"#utility.yul\":7302:7355   */\n      tag_194\n        /* \"#utility.yul\":7347:7354   */\n      dup8\n        /* \"#utility.yul\":7338:7344   */\n      dup3\n        /* \"#utility.yul\":7327:7336   */\n      dup9\n        /* \"#utility.yul\":7323:7345   */\n      add\n        /* \"#utility.yul\":7302:7355   */\n      tag_85\n      jump\t// in\n    tag_194:\n        /* \"#utility.yul\":7292:7355   */\n      swap3\n      pop\n        /* \"#utility.yul\":7247:7365   */\n      pop\n        /* \"#utility.yul\":7432:7434   */\n      0x60\n        /* \"#utility.yul\":7421:7430   */\n      dup6\n        /* \"#utility.yul\":7417:7435   */\n      add\n        /* \"#utility.yul\":7404:7436   */\n      calldataload\n        /* \"#utility.yul\":7463:7481   */\n      0xffffffffffffffff\n        /* \"#utility.yul\":7455:7461   */\n      dup2\n        /* \"#utility.yul\":7452:7482   */\n      gt\n        /* \"#utility.yul\":7449:7566   */\n      iszero\n      tag_195\n      jumpi\n        /* \"#utility.yul\":7485:7564   */\n      tag_196\n      tag_61\n      jump\t// in\n    tag_196:\n        /* \"#utility.yul\":7449:7566   */\n    tag_195:\n        /* \"#utility.yul\":7590:7653   */\n      tag_197\n        /* \"#utility.yul\":7645:7652   */\n      dup8\n        /* \"#utility.yul\":7636:7642   */\n      dup3\n        /* \"#utility.yul\":7625:7634   */\n      dup9\n        /* \"#utility.yul\":7621:7643   */\n      add\n        /* \"#utility.yul\":7590:7653   */\n      tag_83\n      jump\t// in\n    tag_197:\n        /* \"#utility.yul\":7580:7653   */\n      swap2\n      pop\n        /* \"#utility.yul\":7375:7663   */\n      pop\n        /* \"#utility.yul\":6545:7670   */\n      swap3\n      swap6\n      swap2\n      swap5\n      pop\n      swap3\n      pop\n      jump\t// out\n        /* \"#utility.yul\":7676:7790   */\n    tag_86:\n        /* \"#utility.yul\":7743:7749   */\n      0x00\n        /* \"#utility.yul\":7777:7782   */\n      dup2\n        /* \"#utility.yul\":7771:7783   */\n      mload\n        /* \"#utility.yul\":7761:7783   */\n      swap1\n      pop\n        /* \"#utility.yul\":7676:7790   */\n      swap2\n      swap1\n      pop\n      jump\t// out\n        /* \"#utility.yul\":7796:7980   */\n    tag_87:\n        /* \"#utility.yul\":7895:7906   */\n      0x00\n        /* \"#utility.yul\":7929:7935   */\n      dup3\n        /* \"#utility.yul\":7924:7927   */\n      dup3\n        /* \"#utility.yul\":7917:7936   */\n      mstore\n        /* \"#utility.yul\":7969:7973   */\n      0x20\n        /* \"#utility.yul\":7964:7967   */\n      dup3\n        /* \"#utility.yul\":7960:7974   */\n      add\n        /* \"#utility.yul\":7945:7974   */\n      swap1\n      pop\n        /* \"#utility.yul\":7796:7980   */\n      swap3\n      swap2\n      pop\n      pop\n      jump\t// out\n        /* \"#utility.yul\":7986:8118   */\n    tag_88:\n        /* \"#utility.yul\":8053:8057   */\n      0x00\n        /* \"#utility.yul\":8076:8079   */\n      dup2\n        /* \"#utility.yul\":8068:8079   */\n      swap1\n      pop\n        /* \"#utility.yul\":8106:8110   */\n      0x20\n        /* \"#utility.yul\":8101:8104   */\n      dup3\n        /* \"#utility.yul\":8097:8111   */\n      add\n        /* \"#utility.yul\":8089:8111   */\n      swap1\n      pop\n        /* \"#utility.yul\":7986:8118   */\n      swap2\n      swap1\n      pop\n      jump\t// out\n        /* \"#utility.yul\":8124:8303   */\n    tag_89:\n        /* \"#utility.yul\":8193:8203   */\n      0x00\n        /* \"#utility.yul\":8214:8260   */\n      tag_202\n        /* \"#utility.yul\":8256:8259   */\n      dup4\n        /* \"#utility.yul\":8248:8254   */\n      dup4\n        /* \"#utility.yul\":8214:8260   */\n      tag_65\n      jump\t// in\n    tag_202:\n        /* \"#utility.yul\":8292:8296   */\n      0x20\n        /* \"#utility.yul\":8287:8290   */\n      dup4\n        /* \"#utility.yul\":8283:8297   */\n      add\n        /* \"#utility.yul\":8269:8297   */\n      swap1\n      pop\n        /* \"#utility.yul\":8124:8303   */\n      swap3\n      swap2\n      pop\n      pop\n      jump\t// out\n        /* \"#utility.yul\":8309:8422   */\n    tag_90:\n        /* \"#utility.yul\":8379:8383   */\n      0x00\n        /* \"#utility.yul\":8411:8415   */\n      0x20\n        /* \"#utility.yul\":8406:8409   */\n      dup3\n        /* \"#utility.yul\":8402:8416   */\n      add\n        /* \"#utility.yul\":8394:8416   */\n      swap1\n      pop\n        /* \"#utility.yul\":8309:8422   */\n      swap2\n      swap1\n      pop\n      jump\t// out\n        /* \"#utility.yul\":8458:9190   */\n    tag_91:\n        /* \"#utility.yul\":8577:8580   */\n      0x00\n        /* \"#utility.yul\":8606:8660   */\n      tag_205\n        /* \"#utility.yul\":8654:8659   */\n      dup3\n        /* \"#utility.yul\":8606:8660   */\n      tag_86\n      jump\t// in\n    tag_205:\n        /* \"#utility.yul\":8676:8762   */\n      tag_206\n        /* \"#utility.yul\":8755:8761   */\n      dup2\n        /* \"#utility.yul\":8750:8753   */\n      dup6\n        /* \"#utility.yul\":8676:8762   */\n      tag_87\n      jump\t// in\n    tag_206:\n        /* \"#utility.yul\":8669:8762   */\n      swap4\n      pop\n        /* \"#utility.yul\":8786:8842   */\n      tag_207\n        /* \"#utility.yul\":8836:8841   */\n      dup4\n        /* \"#utility.yul\":8786:8842   */\n      tag_88\n      jump\t// in\n    tag_207:\n        /* \"#utility.yul\":8865:8872   */\n      dup1\n        /* \"#utility.yul\":8896:8897   */\n      0x00\n        /* \"#utility.yul\":8881:9165   */\n    tag_208:\n        /* \"#utility.yul\":8906:8912   */\n      dup4\n        /* \"#utility.yul\":8903:8904   */\n      dup2\n        /* \"#utility.yul\":8900:8913   */\n      lt\n        /* \"#utility.yul\":8881:9165   */\n      iszero\n      tag_210\n      jumpi\n        /* \"#utility.yul\":8982:8988   */\n      dup2\n        /* \"#utility.yul\":8976:8989   */\n      mload\n        /* \"#utility.yul\":9009:9072   */\n      tag_211\n        /* \"#utility.yul\":9068:9071   */\n      dup9\n        /* \"#utility.yul\":9053:9066   */\n      dup3\n        /* \"#utility.yul\":9009:9072   */\n      tag_89\n      jump\t// in\n    tag_211:\n        /* \"#utility.yul\":9002:9072   */\n      swap8\n      pop\n        /* \"#utility.yul\":9095:9155   */\n      tag_212\n        /* \"#utility.yul\":9148:9154   */\n      dup4\n        /* \"#utility.yul\":9095:9155   */\n      tag_90\n      jump\t// in\n    tag_212:\n        /* \"#utility.yul\":9085:9155   */\n      swap3\n      pop\n        /* \"#utility.yul\":8941:9165   */\n      pop\n        /* \"#utility.yul\":8928:8929   */\n      0x01\n        /* \"#utility.yul\":8925:8926   */\n      dup2\n        /* \"#utility.yul\":8921:8930   */\n      add\n        /* \"#utility.yul\":8916:8930   */\n      swap1\n      pop\n        /* \"#utility.yul\":8881:9165   */\n      jump(tag_208)\n    tag_210:\n        /* \"#utility.yul\":8885:8899   */\n      pop\n        /* \"#utility.yul\":9181:9184   */\n      dup6\n        /* \"#utility.yul\":9174:9184   */\n      swap4\n      pop\n        /* \"#utility.yul\":8582:9190   */\n      pop\n      pop\n      pop\n        /* \"#utility.yul\":8458:9190   */\n      swap3\n      swap2\n      pop\n      pop\n      jump\t// out\n        /* \"#utility.yul\":9196:9569   */\n    tag_25:\n        /* \"#utility.yul\":9339:9343   */\n      0x00\n        /* \"#utility.yul\":9377:9379   */\n      0x20\n        /* \"#utility.yul\":9366:9375   */\n      dup3\n        /* \"#utility.yul\":9362:9380   */\n      add\n        /* \"#utility.yul\":9354:9380   */\n      swap1\n      pop\n        /* \"#utility.yul\":9426:9435   */\n      dup2\n        /* \"#utility.yul\":9420:9424   */\n      dup2\n        /* \"#utility.yul\":9416:9436   */\n      sub\n        /* \"#utility.yul\":9412:9413   */\n      0x00\n        /* \"#utility.yul\":9401:9410   */\n      dup4\n        /* \"#utility.yul\":9397:9414   */\n      add\n        /* \"#utility.yul\":9390:9437   */\n      mstore\n        /* \"#utility.yul\":9454:9562   */\n      tag_214\n        /* \"#utility.yul\":9557:9561   */\n      dup2\n        /* \"#utility.yul\":9548:9554   */\n      dup5\n        /* \"#utility.yul\":9454:9562   */\n      tag_91\n      jump\t// in\n    tag_214:\n        /* \"#utility.yul\":9446:9562   */\n      swap1\n      pop\n        /* \"#utility.yul\":9196:9569   */\n      swap3\n      swap2\n      pop\n      pop\n      jump\t// out\n        /* \"#utility.yul\":9575:9701   */\n    tag_92:\n        /* \"#utility.yul\":9612:9619   */\n      0x00\n        /* \"#utility.yul\":9652:9694   */\n      0xffffffffffffffffffffffffffffffffffffffff\n        /* \"#utility.yul\":9645:9650   */\n      dup3\n        /* \"#utility.yul\":9641:9695   */\n      and\n        /* \"#utility.yul\":9630:9695   */\n      swap1\n      pop\n        /* \"#utility.yul\":9575:9701   */\n      swap2\n      swap1\n      pop\n      jump\t// out\n        /* \"#utility.yul\":9707:9803   */\n    tag_93:\n        /* \"#utility.yul\":9744:9751   */\n      0x00\n        /* \"#utility.yul\":9773:9797   */\n      tag_217\n        /* \"#utility.yul\":9791:9796   */\n      dup3\n        /* \"#utility.yul\":9773:9797   */\n      tag_92\n      jump\t// in\n    tag_217:\n        /* \"#utility.yul\":9762:9797   */\n      swap1\n      pop\n        /* \"#utility.yul\":9707:9803   */\n      swap2\n      swap1\n      pop\n      jump\t// out\n        /* \"#utility.yul\":9809:9927   */\n    tag_94:\n        /* \"#utility.yul\":9896:9920   */\n      tag_219\n        /* \"#utility.yul\":9914:9919   */\n      dup2\n        /* \"#utility.yul\":9896:9920   */\n      tag_93\n      jump\t// in\n    tag_219:\n        /* \"#utility.yul\":9891:9894   */\n      dup3\n        /* \"#utility.yul\":9884:9921   */\n      mstore\n        /* \"#utility.yul\":9809:9927   */\n      pop\n      pop\n      jump\t// out\n        /* \"#utility.yul\":9933:10155   */\n    tag_29:\n        /* \"#utility.yul\":10026:10030   */\n      0x00\n        /* \"#utility.yul\":10064:10066   */\n      0x20\n        /* \"#utility.yul\":10053:10062   */\n      dup3\n        /* \"#utility.yul\":10049:10067   */\n      add\n        /* \"#utility.yul\":10041:10067   */\n      swap1\n      pop\n        /* \"#utility.yul\":10077:10148   */\n      tag_221\n        /* \"#utility.yul\":10145:10146   */\n      0x00\n        /* \"#utility.yul\":10134:10143   */\n      dup4\n        /* \"#utility.yul\":10130:10147   */\n      add\n        /* \"#utility.yul\":10121:10127   */\n      dup5\n        /* \"#utility.yul\":10077:10148   */\n      tag_94\n      jump\t// in\n    tag_221:\n        /* \"#utility.yul\":9933:10155   */\n      swap3\n      swap2\n      pop\n      pop\n      jump\t// out\n        /* \"#utility.yul\":10161:10341   */\n    tag_95:\n        /* \"#utility.yul\":10209:10286   */\n      0x4e487b7100000000000000000000000000000000000000000000000000000000\n        /* \"#utility.yul\":10206:10207   */\n      0x00\n        /* \"#utility.yul\":10199:10287   */\n      mstore\n        /* \"#utility.yul\":10306:10310   */\n      0x22\n        /* \"#utility.yul\":10303:10304   */\n      0x04\n        /* \"#utility.yul\":10296:10311   */\n      mstore\n        /* \"#utility.yul\":10330:10334   */\n      0x24\n        /* \"#utility.yul\":10327:10328   */\n      0x00\n        /* \"#utility.yul\":10320:10335   */\n      revert\n        /* \"#utility.yul\":10347:10667   */\n    tag_34:\n        /* \"#utility.yul\":10391:10397   */\n      0x00\n        /* \"#utility.yul\":10428:10429   */\n      0x02\n        /* \"#utility.yul\":10422:10426   */\n      dup3\n        /* \"#utility.yul\":10418:10430   */\n      div\n        /* \"#utility.yul\":10408:10430   */\n      swap1\n      pop\n        /* \"#utility.yul\":10475:10476   */\n      0x01\n        /* \"#utility.yul\":10469:10473   */\n      dup3\n        /* \"#utility.yul\":10465:10477   */\n      and\n        /* \"#utility.yul\":10496:10514   */\n      dup1\n        /* \"#utility.yul\":10486:10567   */\n      tag_224\n      jumpi\n        /* \"#utility.yul\":10552:10556   */\n      0x7f\n        /* \"#utility.yul\":10544:10550   */\n      dup3\n        /* \"#utility.yul\":10540:10557   */\n      and\n        /* \"#utility.yul\":10530:10557   */\n      swap2\n      pop\n        /* \"#utility.yul\":10486:10567   */\n    tag_224:\n        /* \"#utility.yul\":10614:10616   */\n      0x20\n        /* \"#utility.yul\":10606:10612   */\n      dup3\n        /* \"#utility.yul\":10603:10617   */\n      lt\n        /* \"#utility.yul\":10583:10601   */\n      dup2\n        /* \"#utility.yul\":10580:10618   */\n      sub\n        /* \"#utility.yul\":10577:10661   */\n      tag_225\n      jumpi\n        /* \"#utility.yul\":10633:10651   */\n      tag_226\n      tag_95\n      jump\t// in\n    tag_226:\n        /* \"#utility.yul\":10577:10661   */\n    tag_225:\n        /* \"#utility.yul\":10398:10667   */\n      pop\n        /* \"#utility.yul\":10347:10667   */\n      swap2\n      swap1\n      pop\n      jump\t// out\n        /* \"#utility.yul\":10673:10842   */\n    tag_96:\n        /* \"#utility.yul\":10757:10768   */\n      0x00\n        /* \"#utility.yul\":10791:10797   */\n      dup3\n        /* \"#utility.yul\":10786:10789   */\n      dup3\n        /* \"#utility.yul\":10779:10798   */\n      mstore\n        /* \"#utility.yul\":10831:10835   */\n      0x20\n        /* \"#utility.yul\":10826:10829   */\n      dup3\n        /* \"#utility.yul\":10822:10836   */\n      add\n        /* \"#utility.yul\":10807:10836   */\n      swap1\n      pop\n        /* \"#utility.yul\":10673:10842   */\n      swap3\n      swap2\n      pop\n      pop\n      jump\t// out\n        /* \"#utility.yul\":10848:11085   */\n    tag_97:\n        /* \"#utility.yul\":10988:11022   */\n      0x4f6e6c792074686520636f6e7472616374206f776e65722063616e2070657266\n        /* \"#utility.yul\":10984:10985   */\n      0x00\n        /* \"#utility.yul\":10976:10982   */\n      dup3\n        /* \"#utility.yul\":10972:10986   */\n      add\n        /* \"#utility.yul\":10965:11023   */\n      mstore\n        /* \"#utility.yul\":11057:11077   */\n      0x6f726d2074686973206f7065726174696f6e0000000000000000000000000000\n        /* \"#utility.yul\":11052:11054   */\n      0x20\n        /* \"#utility.yul\":11044:11050   */\n      dup3\n        /* \"#utility.yul\":11040:11055   */\n      add\n        /* \"#utility.yul\":11033:11078   */\n      mstore\n        /* \"#utility.yul\":10848:11085   */\n      pop\n      jump\t// out\n        /* \"#utility.yul\":11091:11457   */\n    tag_98:\n        /* \"#utility.yul\":11233:11236   */\n      0x00\n        /* \"#utility.yul\":11254:11321   */\n      tag_230\n        /* \"#utility.yul\":11318:11320   */\n      0x32\n        /* \"#utility.yul\":11313:11316   */\n      dup4\n        /* \"#utility.yul\":11254:11321   */\n      tag_96\n      jump\t// in\n    tag_230:\n        /* \"#utility.yul\":11247:11321   */\n      swap2\n      pop\n        /* \"#utility.yul\":11330:11423   */\n      tag_231\n        /* \"#utility.yul\":11419:11422   */\n      dup3\n        /* \"#utility.yul\":11330:11423   */\n      tag_97\n      jump\t// in\n    tag_231:\n        /* \"#utility.yul\":11448:11450   */\n      0x40\n        /* \"#utility.yul\":11443:11446   */\n      dup3\n        /* \"#utility.yul\":11439:11451   */\n      add\n        /* \"#utility.yul\":11432:11451   */\n      swap1\n      pop\n        /* \"#utility.yul\":11091:11457   */\n      swap2\n      swap1\n      pop\n      jump\t// out\n        /* \"#utility.yul\":11463:11882   */\n    tag_48:\n        /* \"#utility.yul\":11629:11633   */\n      0x00\n        /* \"#utility.yul\":11667:11669   */\n      0x20\n        /* \"#utility.yul\":11656:11665   */\n      dup3\n        /* \"#utility.yul\":11652:11670   */\n      add\n        /* \"#utility.yul\":11644:11670   */\n      swap1\n      pop\n        /* \"#utility.yul\":11716:11725   */\n      dup2\n        /* \"#utility.yul\":11710:11714   */\n      dup2\n        /* \"#utility.yul\":11706:11726   */\n      sub\n        /* \"#utility.yul\":11702:11703   */\n      0x00\n        /* \"#utility.yul\":11691:11700   */\n      dup4\n        /* \"#utility.yul\":11687:11704   */\n      add\n        /* \"#utility.yul\":11680:11727   */\n      mstore\n        /* \"#utility.yul\":11744:11875   */\n      tag_233\n        /* \"#utility.yul\":11870:11874   */\n      dup2\n        /* \"#utility.yul\":11744:11875   */\n      tag_98\n      jump\t// in\n    tag_233:\n        /* \"#utility.yul\":11736:11875   */\n      swap1\n      pop\n        /* \"#utility.yul\":11463:11882   */\n      swap2\n      swap1\n      pop\n      jump\t// out\n        /* \"#utility.yul\":11888:12029   */\n    tag_99:\n        /* \"#utility.yul\":11937:11941   */\n      0x00\n        /* \"#utility.yul\":11960:11963   */\n      dup2\n        /* \"#utility.yul\":11952:11963   */\n      swap1\n      pop\n        /* \"#utility.yul\":11983:11986   */\n      dup2\n        /* \"#utility.yul\":11980:11981   */\n      0x00\n        /* \"#utility.yul\":11973:11987   */\n      mstore\n        /* \"#utility.yul\":12017:12021   */\n      0x20\n        /* \"#utility.yul\":12014:12015   */\n      0x00\n        /* \"#utility.yul\":12004:12022   */\n      keccak256\n        /* \"#utility.yul\":11996:12022   */\n      swap1\n      pop\n        /* \"#utility.yul\":11888:12029   */\n      swap2\n      swap1\n      pop\n      jump\t// out\n        /* \"#utility.yul\":12035:12128   */\n    tag_100:\n        /* \"#utility.yul\":12072:12078   */\n      0x00\n        /* \"#utility.yul\":12119:12121   */\n      0x20\n        /* \"#utility.yul\":12114:12116   */\n      0x1f\n        /* \"#utility.yul\":12107:12112   */\n      dup4\n        /* \"#utility.yul\":12103:12117   */\n      add\n        /* \"#utility.yul\":12099:12122   */\n      div\n        /* \"#utility.yul\":12089:12122   */\n      swap1\n      pop\n        /* \"#utility.yul\":12035:12128   */\n      swap2\n      swap1\n      pop\n      jump\t// out\n        /* \"#utility.yul\":12134:12241   */\n    tag_101:\n        /* \"#utility.yul\":12178:12186   */\n      0x00\n        /* \"#utility.yul\":12228:12233   */\n      dup3\n        /* \"#utility.yul\":12222:12226   */\n      dup3\n        /* \"#utility.yul\":12218:12234   */\n      shl\n        /* \"#utility.yul\":12197:12234   */\n      swap1\n      pop\n        /* \"#utility.yul\":12134:12241   */\n      swap3\n      swap2\n      pop\n      pop\n      jump\t// out\n        /* \"#utility.yul\":12247:12640   */\n    tag_102:\n        /* \"#utility.yul\":12316:12322   */\n      0x00\n        /* \"#utility.yul\":12366:12367   */\n      0x08\n        /* \"#utility.yul\":12354:12364   */\n      dup4\n        /* \"#utility.yul\":12350:12368   */\n      mul\n        /* \"#utility.yul\":12389:12486   */\n      tag_238\n        /* \"#utility.yul\":12419:12485   */\n      0xffffffffffffffffffffffffffffffffffffffffffffffffffffffffffffffff\n        /* \"#utility.yul\":12408:12417   */\n      dup3\n        /* \"#utility.yul\":12389:12486   */\n      tag_101\n      jump\t// in\n    tag_238:\n        /* \"#utility.yul\":12507:12546   */\n      tag_239\n        /* \"#utility.yul\":12537:12545   */\n      dup7\n        /* \"#utility.yul\":12526:12535   */\n      dup4\n        /* \"#utility.yul\":12507:12546   */\n      tag_101\n      jump\t// in\n    tag_239:\n        /* \"#utility.yul\":12495:12546   */\n      swap6\n      pop\n        /* \"#utility.yul\":12579:12583   */\n      dup1\n        /* \"#utility.yul\":12575:12584   */\n      not\n        /* \"#utility.yul\":12568:12573   */\n      dup5\n        /* \"#utility.yul\":12564:12585   */\n      and\n        /* \"#utility.yul\":12555:12585   */\n      swap4\n      pop\n        /* \"#utility.yul\":12628:12632   */\n      dup1\n        /* \"#utility.yul\":12618:12626   */\n      dup7\n        /* \"#utility.yul\":12614:12633   */\n      and\n        /* \"#utility.yul\":12607:12612   */\n      dup5\n        /* \"#utility.yul\":12604:12634   */\n      or\n        /* \"#utility.yul\":12594:12634   */\n      swap3\n      pop\n        /* \"#utility.yul\":12323:12640   */\n      pop\n      pop\n        /* \"#utility.yul\":12247:12640   */\n      swap4\n      swap3\n      pop\n      pop\n      pop\n      jump\t// out\n        /* \"#utility.yul\":12646:12706   */\n    tag_103:\n        /* \"#utility.yul\":12674:12677   */\n      0x00\n        /* \"#utility.yul\":12695:12700   */\n      dup2\n        /* \"#utility.yul\":12688:12700   */\n      swap1\n      pop\n        /* \"#utility.yul\":12646:12706   */\n      swap2\n      swap1\n      pop\n      jump\t// out\n        /* \"#utility.yul\":12712:12854   */\n    tag_104:\n        /* \"#utility.yul\":12762:12771   */\n      0x00\n        /* \"#utility.yul\":12795:12848   */\n      tag_242\n        /* \"#utility.yul\":12813:12847   */\n      tag_243\n        /* \"#utility.yul\":12822:12846   */\n      tag_244\n        /* \"#utility.yul\":12840:12845   */\n      dup5\n        /* \"#utility.yul\":12822:12846   */\n      tag_62\n      jump\t// in\n    tag_244:\n        /* \"#utility.yul\":12813:12847   */\n      tag_103\n      jump\t// in\n    tag_243:\n        /* \"#utility.yul\":12795:12848   */\n      tag_62\n      jump\t// in\n    tag_242:\n        /* \"#utility.yul\":12782:12848   */\n      swap1\n      pop\n        /* \"#utility.yul\":12712:12854   */\n      swap2\n      swap1\n      pop\n      jump\t// out\n        /* \"#utility.yul\":12860:12935   */\n    tag_105:\n        /* \"#utility.yul\":12903:12906   */\n      0x00\n        /* \"#utility.yul\":12924:12929   */\n      dup2\n        /* \"#utility.yul\":12917:12929   */\n      swap1\n      pop\n        /* \"#utility.yul\":12860:12935   */\n      swap2\n      swap1\n      pop\n      jump\t// out\n        /* \"#utility.yul\":12941:13210   */\n    tag_106:\n        /* \"#utility.yul\":13051:13090   */\n      tag_247\n        /* \"#utility.yul\":13082:13089   */\n      dup4\n        /* \"#utility.yul\":13051:13090   */\n      tag_104\n      jump\t// in\n    tag_247:\n        /* \"#utility.yul\":13112:13203   */\n      tag_248\n        /* \"#utility.yul\":13161:13202   */\n      tag_249\n        /* \"#utility.yul\":13185:13201   */\n      dup3\n        /* \"#utility.yul\":13161:13202   */\n      tag_105\n      jump\t// in\n    tag_249:\n        /* \"#utility.yul\":13153:13159   */\n      dup5\n        /* \"#utility.yul\":13146:13150   */\n      dup5\n        /* \"#utility.yul\":13140:13151   */\n      sload\n        /* \"#utility.yul\":13112:13203   */\n      tag_102\n      jump\t// in\n    tag_248:\n        /* \"#utility.yul\":13106:13110   */\n      dup3\n        /* \"#utility.yul\":13099:13204   */\n      sstore\n        /* \"#utility.yul\":13017:13210   */\n      pop\n        /* \"#utility.yul\":12941:13210   */\n      pop\n      pop\n      pop\n      jump\t// out\n        /* \"#utility.yul\":13216:13289   */\n    tag_107:\n        /* \"#utility.yul\":13261:13264   */\n      0x00\n        /* \"#utility.yul\":13216:13289   */\n      swap1\n      jump\t// out\n        /* \"#utility.yul\":13295:13484   */\n    tag_108:\n        /* \"#utility.yul\":13372:13404   */\n      tag_252\n      tag_107\n      jump\t// in\n    tag_252:\n        /* \"#utility.yul\":13413:13478   */\n      tag_253\n        /* \"#utility.yul\":13471:13477   */\n      dup2\n        /* \"#utility.yul\":13463:13469   */\n      dup5\n        /* \"#utility.yul\":13457:13461   */\n      dup5\n        /* \"#utility.yul\":13413:13478   */\n      tag_106\n      jump\t// in\n    tag_253:\n        /* \"#utility.yul\":13348:13484   */\n      pop\n        /* \"#utility.yul\":13295:13484   */\n      pop\n      pop\n      jump\t// out\n        /* \"#utility.yul\":13490:13676   */\n    tag_109:\n        /* \"#utility.yul\":13550:13670   */\n    tag_255:\n        /* \"#utility.yul\":13567:13570   */\n      dup2\n        /* \"#utility.yul\":13560:13565   */\n      dup2\n        /* \"#utility.yul\":13557:13571   */\n      lt\n        /* \"#utility.yul\":13550:13670   */\n      iszero\n      tag_257\n      jumpi\n        /* \"#utility.yul\":13621:13660   */\n      tag_258\n        /* \"#utility.yul\":13658:13659   */\n      0x00\n        /* \"#utility.yul\":13651:13656   */\n      dup3\n        /* \"#utility.yul\":13621:13660   */\n      tag_108\n      jump\t// in\n    tag_258:\n        /* \"#utility.yul\":13594:13595   */\n      0x01\n        /* \"#utility.yul\":13587:13592   */\n      dup2\n        /* \"#utility.yul\":13583:13596   */\n      add\n        /* \"#utility.yul\":13574:13596   */\n      swap1\n      pop\n        /* \"#utility.yul\":13550:13670   */\n      jump(tag_255)\n    tag_257:\n        /* \"#utility.yul\":13490:13676   */\n      pop\n      pop\n      jump\t// out\n        /* \"#utility.yul\":13682:14225   */\n    tag_110:\n        /* \"#utility.yul\":13783:13785   */\n      0x1f\n        /* \"#utility.yul\":13778:13781   */\n      dup3\n        /* \"#utility.yul\":13775:13786   */\n      gt\n        /* \"#utility.yul\":13772:14218   */\n      iszero\n      tag_260\n      jumpi\n        /* \"#utility.yul\":13817:13855   */\n      tag_261\n        /* \"#utility.yul\":13849:13854   */\n      dup2\n        /* \"#utility.yul\":13817:13855   */\n      tag_99\n      jump\t// in\n    tag_261:\n        /* \"#utility.yul\":13901:13930   */\n      tag_262\n        /* \"#utility.yul\":13919:13929   */\n      dup5\n        /* \"#utility.yul\":13901:13930   */\n      tag_100\n      jump\t// in\n    tag_262:\n        /* \"#utility.yul\":13891:13899   */\n      dup2\n        /* \"#utility.yul\":13887:13931   */\n      add\n        /* \"#utility.yul\":14084:14086   */\n      0x20\n        /* \"#utility.yul\":14072:14082   */\n      dup6\n        /* \"#utility.yul\":14069:14087   */\n      lt\n        /* \"#utility.yul\":14066:14115   */\n      iszero\n      tag_263\n      jumpi\n        /* \"#utility.yul\":14105:14113   */\n      dup2\n        /* \"#utility.yul\":14090:14113   */\n      swap1\n      pop\n        /* \"#utility.yul\":14066:14115   */\n    tag_263:\n        /* \"#utility.yul\":14128:14208   */\n      tag_264\n        /* \"#utility.yul\":14184:14206   */\n      tag_265\n        /* \"#utility.yul\":14202:14205   */\n      dup6\n        /* \"#utility.yul\":14184:14206   */\n      tag_100\n      jump\t// in\n    tag_265:\n        /* \"#utility.yul\":14174:14182   */\n      dup4\n        /* \"#utility.yul\":14170:14207   */\n      add\n        /* \"#utility.yul\":14157:14168   */\n      dup3\n        /* \"#utility.yul\":14128:14208   */\n      tag_109\n      jump\t// in\n    tag_264:\n        /* \"#utility.yul\":13787:14218   */\n      pop\n      pop\n        /* \"#utility.yul\":13772:14218   */\n    tag_260:\n        /* \"#utility.yul\":13682:14225   */\n      pop\n      pop\n      pop\n      jump\t// out\n        /* \"#utility.yul\":14231:14348   */\n    tag_111:\n        /* \"#utility.yul\":14285:14293   */\n      0x00\n        /* \"#utility.yul\":14335:14340   */\n      dup3\n        /* \"#utility.yul\":14329:14333   */\n      dup3\n        /* \"#utility.yul\":14325:14341   */\n      shr\n        /* \"#utility.yul\":14304:14341   */\n      swap1\n      pop\n        /* \"#utility.yul\":14231:14348   */\n      swap3\n      swap2\n      pop\n      pop\n      jump\t// out\n        /* \"#utility.yul\":14354:14523   */\n    tag_112:\n        /* \"#utility.yul\":14398:14404   */\n      0x00\n        /* \"#utility.yul\":14431:14482   */\n      tag_268\n        /* \"#utility.yul\":14479:14480   */\n      0x00\n        /* \"#utility.yul\":14475:14481   */\n      not\n        /* \"#utility.yul\":14467:14472   */\n      dup5\n        /* \"#utility.yul\":14464:14465   */\n      0x08\n        /* \"#utility.yul\":14460:14473   */\n      mul\n        /* \"#utility.yul\":14431:14482   */\n      tag_111\n      jump\t// in\n    tag_268:\n        /* \"#utility.yul\":14427:14483   */\n      not\n        /* \"#utility.yul\":14512:14516   */\n      dup1\n        /* \"#utility.yul\":14506:14510   */\n      dup4\n        /* \"#utility.yul\":14502:14517   */\n      and\n        /* \"#utility.yul\":14492:14517   */\n      swap2\n      pop\n        /* \"#utility.yul\":14405:14523   */\n      pop\n        /* \"#utility.yul\":14354:14523   */\n      swap3\n      swap2\n      pop\n      pop\n      jump\t// out\n        /* \"#utility.yul\":14528:14823   */\n    tag_113:\n        /* \"#utility.yul\":14604:14608   */\n      0x00\n        /* \"#utility.yul\":14750:14779   */\n      tag_270\n        /* \"#utility.yul\":14775:14778   */\n      dup4\n        /* \"#utility.yul\":14769:14773   */\n      dup4\n        /* \"#utility.yul\":14750:14779   */\n      tag_112\n      jump\t// in\n    tag_270:\n        /* \"#utility.yul\":14742:14779   */\n      swap2\n      pop\n        /* \"#utility.yul\":14812:14815   */\n      dup3\n        /* \"#utility.yul\":14809:14810   */\n      0x02\n        /* \"#utility.yul\":14805:14816   */\n      mul\n        /* \"#utility.yul\":14799:14803   */\n      dup3\n        /* \"#utility.yul\":14796:14817   */\n      or\n        /* \"#utility.yul\":14788:14817   */\n      swap1\n      pop\n        /* \"#utility.yul\":14528:14823   */\n      swap3\n      swap2\n      pop\n      pop\n      jump\t// out\n        /* \"#utility.yul\":14828:16223   */\n    tag_51:\n        /* \"#utility.yul\":14945:14982   */\n      tag_272\n        /* \"#utility.yul\":14978:14981   */\n      dup3\n        /* \"#utility.yul\":14945:14982   */\n      tag_66\n      jump\t// in\n    tag_272:\n        /* \"#utility.yul\":15047:15065   */\n      0xffffffffffffffff\n        /* \"#utility.yul\":15039:15045   */\n      dup2\n        /* \"#utility.yul\":15036:15066   */\n      gt\n        /* \"#utility.yul\":15033:15089   */\n      iszero\n      tag_273\n      jumpi\n        /* \"#utility.yul\":15069:15087   */\n      tag_274\n      tag_77\n      jump\t// in\n    tag_274:\n        /* \"#utility.yul\":15033:15089   */\n    tag_273:\n        /* \"#utility.yul\":15113:15151   */\n      tag_275\n        /* \"#utility.yul\":15145:15149   */\n      dup3\n        /* \"#utility.yul\":15139:15150   */\n      sload\n        /* \"#utility.yul\":15113:15151   */\n      tag_34\n      jump\t// in\n    tag_275:\n        /* \"#utility.yul\":15198:15265   */\n      tag_276\n        /* \"#utility.yul\":15258:15264   */\n      dup3\n        /* \"#utility.yul\":15250:15256   */\n      dup3\n        /* \"#utility.yul\":15244:15248   */\n      dup6\n        /* \"#utility.yul\":15198:15265   */\n      tag_110\n      jump\t// in\n    tag_276:\n        /* \"#utility.yul\":15292:15293   */\n      0x00\n        /* \"#utility.yul\":15316:15320   */\n      0x20\n        /* \"#utility.yul\":15303:15320   */\n      swap1\n      pop\n        /* \"#utility.yul\":15348:15350   */\n      0x1f\n        /* \"#utility.yul\":15340:15346   */\n      dup4\n        /* \"#utility.yul\":15337:15351   */\n      gt\n        /* \"#utility.yul\":15365:15366   */\n      0x01\n        /* \"#utility.yul\":15360:15978   */\n      dup2\n      eq\n      tag_278\n      jumpi\n        /* \"#utility.yul\":16022:16023   */\n      0x00\n        /* \"#utility.yul\":16039:16045   */\n      dup5\n        /* \"#utility.yul\":16036:16113   */\n      iszero\n      tag_279\n      jumpi\n        /* \"#utility.yul\":16088:16097   */\n      dup3\n        /* \"#utility.yul\":16083:16086   */\n      dup8\n        /* \"#utility.yul\":16079:16098   */\n      add\n        /* \"#utility.yul\":16073:16099   */\n      mload\n        /* \"#utility.yul\":16064:16099   */\n      swap1\n      pop\n        /* \"#utility.yul\":16036:16113   */\n    tag_279:\n        /* \"#utility.yul\":16139:16206   */\n      tag_280\n        /* \"#utility.yul\":16199:16205   */\n      dup6\n        /* \"#utility.yul\":16192:16197   */\n      dup3\n        /* \"#utility.yul\":16139:16206   */\n      tag_113\n      jump\t// in\n    tag_280:\n        /* \"#utility.yul\":16133:16137   */\n      dup7\n        /* \"#utility.yul\":16126:16207   */\n      sstore\n        /* \"#utility.yul\":15995:16217   */\n      pop\n        /* \"#utility.yul\":15330:16217   */\n      jump(tag_277)\n        /* \"#utility.yul\":15360:15978   */\n    tag_278:\n        /* \"#utility.yul\":15412:15416   */\n      0x1f\n        /* \"#utility.yul\":15408:15417   */\n      not\n        /* \"#utility.yul\":15400:15406   */\n      dup5\n        /* \"#utility.yul\":15396:15418   */\n      and\n        /* \"#utility.yul\":15446:15483   */\n      tag_281\n        /* \"#utility.yul\":15478:15482   */\n      dup7\n        /* \"#utility.yul\":15446:15483   */\n      tag_99\n      jump\t// in\n    tag_281:\n        /* \"#utility.yul\":15505:15506   */\n      0x00\n        /* \"#utility.yul\":15519:15727   */\n    tag_282:\n        /* \"#utility.yul\":15533:15540   */\n      dup3\n        /* \"#utility.yul\":15530:15531   */\n      dup2\n        /* \"#utility.yul\":15527:15541   */\n      lt\n        /* \"#utility.yul\":15519:15727   */\n      iszero\n      tag_284\n      jumpi\n        /* \"#utility.yul\":15612:15621   */\n      dup5\n        /* \"#utility.yul\":15607:15610   */\n      dup10\n        /* \"#utility.yul\":15603:15622   */\n      add\n        /* \"#utility.yul\":15597:15623   */\n      mload\n        /* \"#utility.yul\":15589:15595   */\n      dup3\n        /* \"#utility.yul\":15582:15624   */\n      sstore\n        /* \"#utility.yul\":15663:15664   */\n      0x01\n        /* \"#utility.yul\":15655:15661   */\n      dup3\n        /* \"#utility.yul\":15651:15665   */\n      add\n        /* \"#utility.yul\":15641:15665   */\n      swap2\n      pop\n        /* \"#utility.yul\":15710:15712   */\n      0x20\n        /* \"#utility.yul\":15699:15708   */\n      dup6\n        /* \"#utility.yul\":15695:15713   */\n      add\n        /* \"#utility.yul\":15682:15713   */\n      swap5\n      pop\n        /* \"#utility.yul\":15556:15560   */\n      0x20\n        /* \"#utility.yul\":15553:15554   */\n      dup2\n        /* \"#utility.yul\":15549:15561   */\n      add\n        /* \"#utility.yul\":15544:15561   */\n      swap1\n      pop\n        /* \"#utility.yul\":15519:15727   */\n      jump(tag_282)\n    tag_284:\n        /* \"#utility.yul\":15755:15761   */\n      dup7\n        /* \"#utility.yul\":15746:15753   */\n      dup4\n        /* \"#utility.yul\":15743:15762   */\n      lt\n        /* \"#utility.yul\":15740:15919   */\n      iszero\n      tag_285\n      jumpi\n        /* \"#utility.yul\":15813:15822   */\n      dup5\n        /* \"#utility.yul\":15808:15811   */\n      dup10\n        /* \"#utility.yul\":15804:15823   */\n      add\n        /* \"#utility.yul\":15798:15824   */\n      mload\n        /* \"#utility.yul\":15856:15904   */\n      tag_286\n        /* \"#utility.yul\":15898:15902   */\n      0x1f\n        /* \"#utility.yul\":15890:15896   */\n      dup10\n        /* \"#utility.yul\":15886:15903   */\n      and\n        /* \"#utility.yul\":15875:15884   */\n      dup3\n        /* \"#utility.yul\":15856:15904   */\n      tag_112\n      jump\t// in\n    tag_286:\n        /* \"#utility.yul\":15848:15854   */\n      dup4\n        /* \"#utility.yul\":15841:15905   */\n      sstore\n        /* \"#utility.yul\":15763:15919   */\n      pop\n        /* \"#utility.yul\":15740:15919   */\n    tag_285:\n        /* \"#utility.yul\":15965:15966   */\n      0x01\n        /* \"#utility.yul\":15961:15962   */\n      0x02\n        /* \"#utility.yul\":15953:15959   */\n      dup9\n        /* \"#utility.yul\":15949:15963   */\n      mul\n        /* \"#utility.yul\":15945:15967   */\n      add\n        /* \"#utility.yul\":15939:15943   */\n      dup9\n        /* \"#utility.yul\":15932:15968   */\n      sstore\n        /* \"#utility.yul\":15367:15978   */\n      pop\n      pop\n      pop\n        /* \"#utility.yul\":15330:16217   */\n    tag_277:\n      pop\n        /* \"#utility.yul\":14920:16223   */\n      pop\n      pop\n      pop\n        /* \"#utility.yul\":14828:16223   */\n      pop\n      pop\n      jump\t// out\n        /* \"#utility.yul\":16229:16409   */\n    tag_114:\n        /* \"#utility.yul\":16277:16354   */\n      0x4e487b7100000000000000000000000000000000000000000000000000000000\n        /* \"#utility.yul\":16274:16275   */\n      0x00\n        /* \"#utility.yul\":16267:16355   */\n      mstore\n        /* \"#utility.yul\":16374:16378   */\n      0x11\n        /* \"#utility.yul\":16371:16372   */\n      0x04\n        /* \"#utility.yul\":16364:16379   */\n      mstore\n        /* \"#utility.yul\":16398:16402   */\n      0x24\n        /* \"#utility.yul\":16395:16396   */\n      0x00\n        /* \"#utility.yul\":16388:16403   */\n      revert\n        /* \"#utility.yul\":16415:16648   */\n    tag_55:\n        /* \"#utility.yul\":16454:16457   */\n      0x00\n        /* \"#utility.yul\":16477:16501   */\n      tag_289\n        /* \"#utility.yul\":16495:16500   */\n      dup3\n        /* \"#utility.yul\":16477:16501   */\n      tag_62\n      jump\t// in\n    tag_289:\n        /* \"#utility.yul\":16468:16501   */\n      swap2\n      pop\n        /* \"#utility.yul\":16523:16589   */\n      0xffffffffffffffffffffffffffffffffffffffffffffffffffffffffffffffff\n        /* \"#utility.yul\":16516:16521   */\n      dup3\n        /* \"#utility.yul\":16513:16590   */\n      sub\n        /* \"#utility.yul\":16510:16613   */\n      tag_290\n      jumpi\n        /* \"#utility.yul\":16593:16611   */\n      tag_291\n      tag_114\n      jump\t// in\n    tag_291:\n        /* \"#utility.yul\":16510:16613   */\n    tag_290:\n        /* \"#utility.yul\":16640:16641   */\n      0x01\n        /* \"#utility.yul\":16633:16638   */\n      dup3\n        /* \"#utility.yul\":16629:16642   */\n      add\n        /* \"#utility.yul\":16622:16642   */\n      swap1\n      pop\n        /* \"#utility.yul\":16415:16648   */\n      swap2\n      swap1\n      pop\n      jump\t// out\n\n    auxdata: 0xa2646970667358221220e270e92c9216e59ea429d694c59c9a87d302865fb6fc7ea0d33c2f8b8b5a775964736f6c63430008180033\n}\n",
				"bytecode": {
					"linkReferences": {},
					"object": "60806040525f600355348015610013575f80fd5b50335f806101000a81548173ffffffffffffffffffffffffffffffffffffffff021916908373ffffffffffffffffffffffffffffffffffffffff160217905550610d3d806100605f395ff3fe608060405234801561000f575f80fd5b5060043610610055575f3560e01c806303e4d77f1461005957806328e8be60146100895780636ad65c2b146100a75780638ae0be40146100c35780638da5cb5b146100e1575b5f80fd5b610073600480360381019061006e919061048f565b6100ff565b60405161008091906105d2565b60405180910390f35b61009161025d565b60405161009e9190610601565b60405180910390f35b6100c160048036038101906100bc9190610770565b610266565b005b6100cb6103a9565b6040516100d891906108b4565b60405180910390f35b6100e96103ff565b6040516100f69190610913565b60405180910390f35b610107610422565b60015f8381526020019081526020015f206040518060800160405290815f820154815260200160018201805461013c90610959565b80601f016020809104026020016040519081016040528092919081815260200182805461016890610959565b80156101b35780601f1061018a576101008083540402835291602001916101b3565b820191905f5260205f20905b81548152906001019060200180831161019657829003601f168201915b505050505081526020016002820180546101cc90610959565b80601f01602080910402602001604051908101604052809291908181526020018280546101f890610959565b80156102435780601f1061021a57610100808354040283529160200191610243565b820191905f5260205f20905b81548152906001019060200180831161022657829003601f168201915b505050505081526020016003820154815250509050919050565b5f600354905090565b5f8054906101000a900473ffffffffffffffffffffffffffffffffffffffff1673ffffffffffffffffffffffffffffffffffffffff163373ffffffffffffffffffffffffffffffffffffffff16146102f3576040517f08c379a00000000000000000000000000000000000000000000000000000000081526004016102ea90610a09565b60405180910390fd5b60405180608001604052808581526020018481526020018281526020018381525060015f8681526020019081526020015f205f820151815f015560208201518160010190816103429190610bc4565b5060408201518160020190816103589190610bc4565b5060608201518160030155905050600284908060018154018082558091505060019003905f5260205f20015f909190919091505560035f81548092919061039e90610cc0565b919050555050505050565b606060028054806020026020016040519081016040528092919081815260200182805480156103f557602002820191905f5260205f20905b8154815260200190600101908083116103e1575b5050505050905090565b5f8054906101000a900473ffffffffffffffffffffffffffffffffffffffff1681565b60405180608001604052805f815260200160608152602001606081526020015f80191681525090565b5f604051905090565b5f80fd5b5f80fd5b5f819050919050565b61046e8161045c565b8114610478575f80fd5b50565b5f8135905061048981610465565b92915050565b5f602082840312156104a4576104a3610454565b5b5f6104b18482850161047b565b91505092915050565b6104c38161045c565b82525050565b5f81519050919050565b5f82825260208201905092915050565b5f5b838110156105005780820151818401526020810190506104e5565b5f8484015250505050565b5f601f19601f8301169050919050565b5f610525826104c9565b61052f81856104d3565b935061053f8185602086016104e3565b6105488161050b565b840191505092915050565b5f819050919050565b61056581610553565b82525050565b5f608083015f8301516105805f8601826104ba565b5060208301518482036020860152610598828261051b565b915050604083015184820360408601526105b2828261051b565b91505060608301516105c7606086018261055c565b508091505092915050565b5f6020820190508181035f8301526105ea818461056b565b905092915050565b6105fb8161045c565b82525050565b5f6020820190506106145f8301846105f2565b92915050565b5f80fd5b5f80fd5b7f4e487b71000000000000000000000000000000000000000000000000000000005f52604160045260245ffd5b6106588261050b565b810181811067ffffffffffffffff8211171561067757610676610622565b5b80604052505050565b5f61068961044b565b9050610695828261064f565b919050565b5f67ffffffffffffffff8211156106b4576106b3610622565b5b6106bd8261050b565b9050602081019050919050565b828183375f83830152505050565b5f6106ea6106e58461069a565b610680565b9050828152602081018484840111156107065761070561061e565b5b6107118482856106ca565b509392505050565b5f82601f83011261072d5761072c61061a565b5b813561073d8482602086016106d8565b91505092915050565b61074f81610553565b8114610759575f80fd5b50565b5f8135905061076a81610746565b92915050565b5f805f806080858703121561078857610787610454565b5b5f6107958782880161047b565b945050602085013567ffffffffffffffff8111156107b6576107b5610458565b5b6107c287828801610719565b93505060406107d38782880161075c565b925050606085013567ffffffffffffffff8111156107f4576107f3610458565b5b61080087828801610719565b91505092959194509250565b5f81519050919050565b5f82825260208201905092915050565b5f819050602082019050919050565b5f61084083836104ba565b60208301905092915050565b5f602082019050919050565b5f6108628261080c565b61086c8185610816565b935061087783610826565b805f5b838110156108a757815161088e8882610835565b97506108998361084c565b92505060018101905061087a565b5085935050505092915050565b5f6020820190508181035f8301526108cc8184610858565b905092915050565b5f73ffffffffffffffffffffffffffffffffffffffff82169050919050565b5f6108fd826108d4565b9050919050565b61090d816108f3565b82525050565b5f6020820190506109265f830184610904565b92915050565b7f4e487b71000000000000000000000000000000000000000000000000000000005f52602260045260245ffd5b5f600282049050600182168061097057607f821691505b6020821081036109835761098261092c565b5b50919050565b5f82825260208201905092915050565b7f4f6e6c792074686520636f6e7472616374206f776e65722063616e20706572665f8201527f6f726d2074686973206f7065726174696f6e0000000000000000000000000000602082015250565b5f6109f3603283610989565b91506109fe82610999565b604082019050919050565b5f6020820190508181035f830152610a20816109e7565b9050919050565b5f819050815f5260205f209050919050565b5f6020601f8301049050919050565b5f82821b905092915050565b5f60088302610a837fffffffffffffffffffffffffffffffffffffffffffffffffffffffffffffffff82610a48565b610a8d8683610a48565b95508019841693508086168417925050509392505050565b5f819050919050565b5f610ac8610ac3610abe8461045c565b610aa5565b61045c565b9050919050565b5f819050919050565b610ae183610aae565b610af5610aed82610acf565b848454610a54565b825550505050565b5f90565b610b09610afd565b610b14818484610ad8565b505050565b5b81811015610b3757610b2c5f82610b01565b600181019050610b1a565b5050565b601f821115610b7c57610b4d81610a27565b610b5684610a39565b81016020851015610b65578190505b610b79610b7185610a39565b830182610b19565b50505b505050565b5f82821c905092915050565b5f610b9c5f1984600802610b81565b1980831691505092915050565b5f610bb48383610b8d565b9150826002028217905092915050565b610bcd826104c9565b67ffffffffffffffff811115610be657610be5610622565b5b610bf08254610959565b610bfb828285610b3b565b5f60209050601f831160018114610c2c575f8415610c1a578287015190505b610c248582610ba9565b865550610c8b565b601f198416610c3a86610a27565b5f5b82811015610c6157848901518255600182019150602085019450602081019050610c3c565b86831015610c7e5784890151610c7a601f891682610b8d565b8355505b6001600288020188555050505b505050505050565b7f4e487b71000000000000000000000000000000000000000000000000000000005f52601160045260245ffd5b5f610cca8261045c565b91507fffffffffffffffffffffffffffffffffffffffffffffffffffffffffffffffff8203610cfc57610cfb610c93565b5b60018201905091905056fea2646970667358221220e270e92c9216e59ea429d694c59c9a87d302865fb6fc7ea0d33c2f8b8b5a775964736f6c63430008180033",
					"opcodes": "PUSH1 0x80 PUSH1 0x40 MSTORE PUSH0 PUSH1 0x3 SSTORE CALLVALUE DUP1 ISZERO PUSH2 0x13 JUMPI PUSH0 DUP1 REVERT JUMPDEST POP CALLER PUSH0 DUP1 PUSH2 0x100 EXP DUP2 SLOAD DUP2 PUSH20 0xFFFFFFFFFFFFFFFFFFFFFFFFFFFFFFFFFFFFFFFF MUL NOT AND SWAP1 DUP4 PUSH20 0xFFFFFFFFFFFFFFFFFFFFFFFFFFFFFFFFFFFFFFFF AND MUL OR SWAP1 SSTORE POP PUSH2 0xD3D DUP1 PUSH2 0x60 PUSH0 CODECOPY PUSH0 RETURN INVALID PUSH1 0x80 PUSH1 0x40 MSTORE CALLVALUE DUP1 ISZERO PUSH2 0xF JUMPI PUSH0 DUP1 REVERT JUMPDEST POP PUSH1 0x4 CALLDATASIZE LT PUSH2 0x55 JUMPI PUSH0 CALLDATALOAD PUSH1 0xE0 SHR DUP1 PUSH4 0x3E4D77F EQ PUSH2 0x59 JUMPI DUP1 PUSH4 0x28E8BE60 EQ PUSH2 0x89 JUMPI DUP1 PUSH4 0x6AD65C2B EQ PUSH2 0xA7 JUMPI DUP1 PUSH4 0x8AE0BE40 EQ PUSH2 0xC3 JUMPI DUP1 PUSH4 0x8DA5CB5B EQ PUSH2 0xE1 JUMPI JUMPDEST PUSH0 DUP1 REVERT JUMPDEST PUSH2 0x73 PUSH1 0x4 DUP1 CALLDATASIZE SUB DUP2 ADD SWAP1 PUSH2 0x6E SWAP2 SWAP1 PUSH2 0x48F JUMP JUMPDEST PUSH2 0xFF JUMP JUMPDEST PUSH1 0x40 MLOAD PUSH2 0x80 SWAP2 SWAP1 PUSH2 0x5D2 JUMP JUMPDEST PUSH1 0x40 MLOAD DUP1 SWAP2 SUB SWAP1 RETURN JUMPDEST PUSH2 0x91 PUSH2 0x25D JUMP JUMPDEST PUSH1 0x40 MLOAD PUSH2 0x9E SWAP2 SWAP1 PUSH2 0x601 JUMP JUMPDEST PUSH1 0x40 MLOAD DUP1 SWAP2 SUB SWAP1 RETURN JUMPDEST PUSH2 0xC1 PUSH1 0x4 DUP1 CALLDATASIZE SUB DUP2 ADD SWAP1 PUSH2 0xBC SWAP2 SWAP1 PUSH2 0x770 JUMP JUMPDEST PUSH2 0x266 JUMP JUMPDEST STOP JUMPDEST PUSH2 0xCB PUSH2 0x3A9 JUMP JUMPDEST PUSH1 0x40 MLOAD PUSH2 0xD8 SWAP2 SWAP1 PUSH2 0x8B4 JUMP JUMPDEST PUSH1 0x40 MLOAD DUP1 SWAP2 SUB SWAP1 RETURN JUMPDEST PUSH2 0xE9 PUSH2 0x3FF JUMP JUMPDEST PUSH1 0x40 MLOAD PUSH2 0xF6 SWAP2 SWAP1 PUSH2 0x913 JUMP JUMPDEST PUSH1 0x40 MLOAD DUP1 SWAP2 SUB SWAP1 RETURN JUMPDEST PUSH2 0x107 PUSH2 0x422 JUMP JUMPDEST PUSH1 0x1 PUSH0 DUP4 DUP2 MSTORE PUSH1 0x20 ADD SWAP1 DUP2 MSTORE PUSH1 0x20 ADD PUSH0 KECCAK256 PUSH1 0x40 MLOAD DUP1 PUSH1 0x80 ADD PUSH1 0x40 MSTORE SWAP1 DUP2 PUSH0 DUP3 ADD SLOAD DUP2 MSTORE PUSH1 0x20 ADD PUSH1 0x1 DUP3 ADD DUP1 SLOAD PUSH2 0x13C SWAP1 PUSH2 0x959 JUMP JUMPDEST DUP1 PUSH1 0x1F ADD PUSH1 0x20 DUP1 SWAP2 DIV MUL PUSH1 0x20 ADD PUSH1 0x40 MLOAD SWAP1 DUP2 ADD PUSH1 0x40 MSTORE DUP1 SWAP3 SWAP2 SWAP1 DUP2 DUP2 MSTORE PUSH1 0x20 ADD DUP3 DUP1 SLOAD PUSH2 0x168 SWAP1 PUSH2 0x959 JUMP JUMPDEST DUP1 ISZERO PUSH2 0x1B3 JUMPI DUP1 PUSH1 0x1F LT PUSH2 0x18A JUMPI PUSH2 0x100 DUP1 DUP4 SLOAD DIV MUL DUP4 MSTORE SWAP2 PUSH1 0x20 ADD SWAP2 PUSH2 0x1B3 JUMP JUMPDEST DUP3 ADD SWAP2 SWAP1 PUSH0 MSTORE PUSH1 0x20 PUSH0 KECCAK256 SWAP1 JUMPDEST DUP2 SLOAD DUP2 MSTORE SWAP1 PUSH1 0x1 ADD SWAP1 PUSH1 0x20 ADD DUP1 DUP4 GT PUSH2 0x196 JUMPI DUP3 SWAP1 SUB PUSH1 0x1F AND DUP3 ADD SWAP2 JUMPDEST POP POP POP POP POP DUP2 MSTORE PUSH1 0x20 ADD PUSH1 0x2 DUP3 ADD DUP1 SLOAD PUSH2 0x1CC SWAP1 PUSH2 0x959 JUMP JUMPDEST DUP1 PUSH1 0x1F ADD PUSH1 0x20 DUP1 SWAP2 DIV MUL PUSH1 0x20 ADD PUSH1 0x40 MLOAD SWAP1 DUP2 ADD PUSH1 0x40 MSTORE DUP1 SWAP3 SWAP2 SWAP1 DUP2 DUP2 MSTORE PUSH1 0x20 ADD DUP3 DUP1 SLOAD PUSH2 0x1F8 SWAP1 PUSH2 0x959 JUMP JUMPDEST DUP1 ISZERO PUSH2 0x243 JUMPI DUP1 PUSH1 0x1F LT PUSH2 0x21A JUMPI PUSH2 0x100 DUP1 DUP4 SLOAD DIV MUL DUP4 MSTORE SWAP2 PUSH1 0x20 ADD SWAP2 PUSH2 0x243 JUMP JUMPDEST DUP3 ADD SWAP2 SWAP1 PUSH0 MSTORE PUSH1 0x20 PUSH0 KECCAK256 SWAP1 JUMPDEST DUP2 SLOAD DUP2 MSTORE SWAP1 PUSH1 0x1 ADD SWAP1 PUSH1 0x20 ADD DUP1 DUP4 GT PUSH2 0x226 JUMPI DUP3 SWAP1 SUB PUSH1 0x1F AND DUP3 ADD SWAP2 JUMPDEST POP POP POP POP POP DUP2 MSTORE PUSH1 0x20 ADD PUSH1 0x3 DUP3 ADD SLOAD DUP2 MSTORE POP POP SWAP1 POP SWAP2 SWAP1 POP JUMP JUMPDEST PUSH0 PUSH1 0x3 SLOAD SWAP1 POP SWAP1 JUMP JUMPDEST PUSH0 DUP1 SLOAD SWAP1 PUSH2 0x100 EXP SWAP1 DIV PUSH20 0xFFFFFFFFFFFFFFFFFFFFFFFFFFFFFFFFFFFFFFFF AND PUSH20 0xFFFFFFFFFFFFFFFFFFFFFFFFFFFFFFFFFFFFFFFF AND CALLER PUSH20 0xFFFFFFFFFFFFFFFFFFFFFFFFFFFFFFFFFFFFFFFF AND EQ PUSH2 0x2F3 JUMPI PUSH1 0x40 MLOAD PUSH32 0x8C379A000000000000000000000000000000000000000000000000000000000 DUP2 MSTORE PUSH1 0x4 ADD PUSH2 0x2EA SWAP1 PUSH2 0xA09 JUMP JUMPDEST PUSH1 0x40 MLOAD DUP1 SWAP2 SUB SWAP1 REVERT JUMPDEST PUSH1 0x40 MLOAD DUP1 PUSH1 0x80 ADD PUSH1 0x40 MSTORE DUP1 DUP6 DUP2 MSTORE PUSH1 0x20 ADD DUP5 DUP2 MSTORE PUSH1 0x20 ADD DUP3 DUP2 MSTORE PUSH1 0x20 ADD DUP4 DUP2 MSTORE POP PUSH1 0x1 PUSH0 DUP7 DUP2 MSTORE PUSH1 0x20 ADD SWAP1 DUP2 MSTORE PUSH1 0x20 ADD PUSH0 KECCAK256 PUSH0 DUP3 ADD MLOAD DUP2 PUSH0 ADD SSTORE PUSH1 0x20 DUP3 ADD MLOAD DUP2 PUSH1 0x1 ADD SWAP1 DUP2 PUSH2 0x342 SWAP2 SWAP1 PUSH2 0xBC4 JUMP JUMPDEST POP PUSH1 0x40 DUP3 ADD MLOAD DUP2 PUSH1 0x2 ADD SWAP1 DUP2 PUSH2 0x358 SWAP2 SWAP1 PUSH2 0xBC4 JUMP JUMPDEST POP PUSH1 0x60 DUP3 ADD MLOAD DUP2 PUSH1 0x3 ADD SSTORE SWAP1 POP POP PUSH1 0x2 DUP5 SWAP1 DUP1 PUSH1 0x1 DUP2 SLOAD ADD DUP1 DUP3 SSTORE DUP1 SWAP2 POP POP PUSH1 0x1 SWAP1 SUB SWAP1 PUSH0 MSTORE PUSH1 0x20 PUSH0 KECCAK256 ADD PUSH0 SWAP1 SWAP2 SWAP1 SWAP2 SWAP1 SWAP2 POP SSTORE PUSH1 0x3 PUSH0 DUP2 SLOAD DUP1 SWAP3 SWAP2 SWAP1 PUSH2 0x39E SWAP1 PUSH2 0xCC0 JUMP JUMPDEST SWAP2 SWAP1 POP SSTORE POP POP POP POP POP JUMP JUMPDEST PUSH1 0x60 PUSH1 0x2 DUP1 SLOAD DUP1 PUSH1 0x20 MUL PUSH1 0x20 ADD PUSH1 0x40 MLOAD SWAP1 DUP2 ADD PUSH1 0x40 MSTORE DUP1 SWAP3 SWAP2 SWAP1 DUP2 DUP2 MSTORE PUSH1 0x20 ADD DUP3 DUP1 SLOAD DUP1 ISZERO PUSH2 0x3F5 JUMPI PUSH1 0x20 MUL DUP3 ADD SWAP2 SWAP1 PUSH0 MSTORE PUSH1 0x20 PUSH0 KECCAK256 SWAP1 JUMPDEST DUP2 SLOAD DUP2 MSTORE PUSH1 0x20 ADD SWAP1 PUSH1 0x1 ADD SWAP1 DUP1 DUP4 GT PUSH2 0x3E1 JUMPI JUMPDEST POP POP POP POP POP SWAP1 POP SWAP1 JUMP JUMPDEST PUSH0 DUP1 SLOAD SWAP1 PUSH2 0x100 EXP SWAP1 DIV PUSH20 0xFFFFFFFFFFFFFFFFFFFFFFFFFFFFFFFFFFFFFFFF AND DUP2 JUMP JUMPDEST PUSH1 0x40 MLOAD DUP1 PUSH1 0x80 ADD PUSH1 0x40 MSTORE DUP1 PUSH0 DUP2 MSTORE PUSH1 0x20 ADD PUSH1 0x60 DUP2 MSTORE PUSH1 0x20 ADD PUSH1 0x60 DUP2 MSTORE PUSH1 0x20 ADD PUSH0 DUP1 NOT AND DUP2 MSTORE POP SWAP1 JUMP JUMPDEST PUSH0 PUSH1 0x40 MLOAD SWAP1 POP SWAP1 JUMP JUMPDEST PUSH0 DUP1 REVERT JUMPDEST PUSH0 DUP1 REVERT JUMPDEST PUSH0 DUP2 SWAP1 POP SWAP2 SWAP1 POP JUMP JUMPDEST PUSH2 0x46E DUP2 PUSH2 0x45C JUMP JUMPDEST DUP2 EQ PUSH2 0x478 JUMPI PUSH0 DUP1 REVERT JUMPDEST POP JUMP JUMPDEST PUSH0 DUP2 CALLDATALOAD SWAP1 POP PUSH2 0x489 DUP2 PUSH2 0x465 JUMP JUMPDEST SWAP3 SWAP2 POP POP JUMP JUMPDEST PUSH0 PUSH1 0x20 DUP3 DUP5 SUB SLT ISZERO PUSH2 0x4A4 JUMPI PUSH2 0x4A3 PUSH2 0x454 JUMP JUMPDEST JUMPDEST PUSH0 PUSH2 0x4B1 DUP5 DUP3 DUP6 ADD PUSH2 0x47B JUMP JUMPDEST SWAP2 POP POP SWAP3 SWAP2 POP POP JUMP JUMPDEST PUSH2 0x4C3 DUP2 PUSH2 0x45C JUMP JUMPDEST DUP3 MSTORE POP POP JUMP JUMPDEST PUSH0 DUP2 MLOAD SWAP1 POP SWAP2 SWAP1 POP JUMP JUMPDEST PUSH0 DUP3 DUP3 MSTORE PUSH1 0x20 DUP3 ADD SWAP1 POP SWAP3 SWAP2 POP POP JUMP JUMPDEST PUSH0 JUMPDEST DUP4 DUP2 LT ISZERO PUSH2 0x500 JUMPI DUP1 DUP3 ADD MLOAD DUP2 DUP5 ADD MSTORE PUSH1 0x20 DUP2 ADD SWAP1 POP PUSH2 0x4E5 JUMP JUMPDEST PUSH0 DUP5 DUP5 ADD MSTORE POP POP POP POP JUMP JUMPDEST PUSH0 PUSH1 0x1F NOT PUSH1 0x1F DUP4 ADD AND SWAP1 POP SWAP2 SWAP1 POP JUMP JUMPDEST PUSH0 PUSH2 0x525 DUP3 PUSH2 0x4C9 JUMP JUMPDEST PUSH2 0x52F DUP2 DUP6 PUSH2 0x4D3 JUMP JUMPDEST SWAP4 POP PUSH2 0x53F DUP2 DUP6 PUSH1 0x20 DUP7 ADD PUSH2 0x4E3 JUMP JUMPDEST PUSH2 0x548 DUP2 PUSH2 0x50B JUMP JUMPDEST DUP5 ADD SWAP2 POP POP SWAP3 SWAP2 POP POP JUMP JUMPDEST PUSH0 DUP2 SWAP1 POP SWAP2 SWAP1 POP JUMP JUMPDEST PUSH2 0x565 DUP2 PUSH2 0x553 JUMP JUMPDEST DUP3 MSTORE POP POP JUMP JUMPDEST PUSH0 PUSH1 0x80 DUP4 ADD PUSH0 DUP4 ADD MLOAD PUSH2 0x580 PUSH0 DUP7 ADD DUP3 PUSH2 0x4BA JUMP JUMPDEST POP PUSH1 0x20 DUP4 ADD MLOAD DUP5 DUP3 SUB PUSH1 0x20 DUP7 ADD MSTORE PUSH2 0x598 DUP3 DUP3 PUSH2 0x51B JUMP JUMPDEST SWAP2 POP POP PUSH1 0x40 DUP4 ADD MLOAD DUP5 DUP3 SUB PUSH1 0x40 DUP7 ADD MSTORE PUSH2 0x5B2 DUP3 DUP3 PUSH2 0x51B JUMP JUMPDEST SWAP2 POP POP PUSH1 0x60 DUP4 ADD MLOAD PUSH2 0x5C7 PUSH1 0x60 DUP7 ADD DUP3 PUSH2 0x55C JUMP JUMPDEST POP DUP1 SWAP2 POP POP SWAP3 SWAP2 POP POP JUMP JUMPDEST PUSH0 PUSH1 0x20 DUP3 ADD SWAP1 POP DUP2 DUP2 SUB PUSH0 DUP4 ADD MSTORE PUSH2 0x5EA DUP2 DUP5 PUSH2 0x56B JUMP JUMPDEST SWAP1 POP SWAP3 SWAP2 POP POP JUMP JUMPDEST PUSH2 0x5FB DUP2 PUSH2 0x45C JUMP JUMPDEST DUP3 MSTORE POP POP JUMP JUMPDEST PUSH0 PUSH1 0x20 DUP3 ADD SWAP1 POP PUSH2 0x614 PUSH0 DUP4 ADD DUP5 PUSH2 0x5F2 JUMP JUMPDEST SWAP3 SWAP2 POP POP JUMP JUMPDEST PUSH0 DUP1 REVERT JUMPDEST PUSH0 DUP1 REVERT JUMPDEST PUSH32 0x4E487B7100000000000000000000000000000000000000000000000000000000 PUSH0 MSTORE PUSH1 0x41 PUSH1 0x4 MSTORE PUSH1 0x24 PUSH0 REVERT JUMPDEST PUSH2 0x658 DUP3 PUSH2 0x50B JUMP JUMPDEST DUP2 ADD DUP2 DUP2 LT PUSH8 0xFFFFFFFFFFFFFFFF DUP3 GT OR ISZERO PUSH2 0x677 JUMPI PUSH2 0x676 PUSH2 0x622 JUMP JUMPDEST JUMPDEST DUP1 PUSH1 0x40 MSTORE POP POP POP JUMP JUMPDEST PUSH0 PUSH2 0x689 PUSH2 0x44B JUMP JUMPDEST SWAP1 POP PUSH2 0x695 DUP3 DUP3 PUSH2 0x64F JUMP JUMPDEST SWAP2 SWAP1 POP JUMP JUMPDEST PUSH0 PUSH8 0xFFFFFFFFFFFFFFFF DUP3 GT ISZERO PUSH2 0x6B4 JUMPI PUSH2 0x6B3 PUSH2 0x622 JUMP JUMPDEST JUMPDEST PUSH2 0x6BD DUP3 PUSH2 0x50B JUMP JUMPDEST SWAP1 POP PUSH1 0x20 DUP2 ADD SWAP1 POP SWAP2 SWAP1 POP JUMP JUMPDEST DUP3 DUP2 DUP4 CALLDATACOPY PUSH0 DUP4 DUP4 ADD MSTORE POP POP POP JUMP JUMPDEST PUSH0 PUSH2 0x6EA PUSH2 0x6E5 DUP5 PUSH2 0x69A JUMP JUMPDEST PUSH2 0x680 JUMP JUMPDEST SWAP1 POP DUP3 DUP2 MSTORE PUSH1 0x20 DUP2 ADD DUP5 DUP5 DUP5 ADD GT ISZERO PUSH2 0x706 JUMPI PUSH2 0x705 PUSH2 0x61E JUMP JUMPDEST JUMPDEST PUSH2 0x711 DUP5 DUP3 DUP6 PUSH2 0x6CA JUMP JUMPDEST POP SWAP4 SWAP3 POP POP POP JUMP JUMPDEST PUSH0 DUP3 PUSH1 0x1F DUP4 ADD SLT PUSH2 0x72D JUMPI PUSH2 0x72C PUSH2 0x61A JUMP JUMPDEST JUMPDEST DUP2 CALLDATALOAD PUSH2 0x73D DUP5 DUP3 PUSH1 0x20 DUP7 ADD PUSH2 0x6D8 JUMP JUMPDEST SWAP2 POP POP SWAP3 SWAP2 POP POP JUMP JUMPDEST PUSH2 0x74F DUP2 PUSH2 0x553 JUMP JUMPDEST DUP2 EQ PUSH2 0x759 JUMPI PUSH0 DUP1 REVERT JUMPDEST POP JUMP JUMPDEST PUSH0 DUP2 CALLDATALOAD SWAP1 POP PUSH2 0x76A DUP2 PUSH2 0x746 JUMP JUMPDEST SWAP3 SWAP2 POP POP JUMP JUMPDEST PUSH0 DUP1 PUSH0 DUP1 PUSH1 0x80 DUP6 DUP8 SUB SLT ISZERO PUSH2 0x788 JUMPI PUSH2 0x787 PUSH2 0x454 JUMP JUMPDEST JUMPDEST PUSH0 PUSH2 0x795 DUP8 DUP3 DUP9 ADD PUSH2 0x47B JUMP JUMPDEST SWAP5 POP POP PUSH1 0x20 DUP6 ADD CALLDATALOAD PUSH8 0xFFFFFFFFFFFFFFFF DUP2 GT ISZERO PUSH2 0x7B6 JUMPI PUSH2 0x7B5 PUSH2 0x458 JUMP JUMPDEST JUMPDEST PUSH2 0x7C2 DUP8 DUP3 DUP9 ADD PUSH2 0x719 JUMP JUMPDEST SWAP4 POP POP PUSH1 0x40 PUSH2 0x7D3 DUP8 DUP3 DUP9 ADD PUSH2 0x75C JUMP JUMPDEST SWAP3 POP POP PUSH1 0x60 DUP6 ADD CALLDATALOAD PUSH8 0xFFFFFFFFFFFFFFFF DUP2 GT ISZERO PUSH2 0x7F4 JUMPI PUSH2 0x7F3 PUSH2 0x458 JUMP JUMPDEST JUMPDEST PUSH2 0x800 DUP8 DUP3 DUP9 ADD PUSH2 0x719 JUMP JUMPDEST SWAP2 POP POP SWAP3 SWAP6 SWAP2 SWAP5 POP SWAP3 POP JUMP JUMPDEST PUSH0 DUP2 MLOAD SWAP1 POP SWAP2 SWAP1 POP JUMP JUMPDEST PUSH0 DUP3 DUP3 MSTORE PUSH1 0x20 DUP3 ADD SWAP1 POP SWAP3 SWAP2 POP POP JUMP JUMPDEST PUSH0 DUP2 SWAP1 POP PUSH1 0x20 DUP3 ADD SWAP1 POP SWAP2 SWAP1 POP JUMP JUMPDEST PUSH0 PUSH2 0x840 DUP4 DUP4 PUSH2 0x4BA JUMP JUMPDEST PUSH1 0x20 DUP4 ADD SWAP1 POP SWAP3 SWAP2 POP POP JUMP JUMPDEST PUSH0 PUSH1 0x20 DUP3 ADD SWAP1 POP SWAP2 SWAP1 POP JUMP JUMPDEST PUSH0 PUSH2 0x862 DUP3 PUSH2 0x80C JUMP JUMPDEST PUSH2 0x86C DUP2 DUP6 PUSH2 0x816 JUMP JUMPDEST SWAP4 POP PUSH2 0x877 DUP4 PUSH2 0x826 JUMP JUMPDEST DUP1 PUSH0 JUMPDEST DUP4 DUP2 LT ISZERO PUSH2 0x8A7 JUMPI DUP2 MLOAD PUSH2 0x88E DUP9 DUP3 PUSH2 0x835 JUMP JUMPDEST SWAP8 POP PUSH2 0x899 DUP4 PUSH2 0x84C JUMP JUMPDEST SWAP3 POP POP PUSH1 0x1 DUP2 ADD SWAP1 POP PUSH2 0x87A JUMP JUMPDEST POP DUP6 SWAP4 POP POP POP POP SWAP3 SWAP2 POP POP JUMP JUMPDEST PUSH0 PUSH1 0x20 DUP3 ADD SWAP1 POP DUP2 DUP2 SUB PUSH0 DUP4 ADD MSTORE PUSH2 0x8CC DUP2 DUP5 PUSH2 0x858 JUMP JUMPDEST SWAP1 POP SWAP3 SWAP2 POP POP JUMP JUMPDEST PUSH0 PUSH20 0xFFFFFFFFFFFFFFFFFFFFFFFFFFFFFFFFFFFFFFFF DUP3 AND SWAP1 POP SWAP2 SWAP1 POP JUMP JUMPDEST PUSH0 PUSH2 0x8FD DUP3 PUSH2 0x8D4 JUMP JUMPDEST SWAP1 POP SWAP2 SWAP1 POP JUMP JUMPDEST PUSH2 0x90D DUP2 PUSH2 0x8F3 JUMP JUMPDEST DUP3 MSTORE POP POP JUMP JUMPDEST PUSH0 PUSH1 0x20 DUP3 ADD SWAP1 POP PUSH2 0x926 PUSH0 DUP4 ADD DUP5 PUSH2 0x904 JUMP JUMPDEST SWAP3 SWAP2 POP POP JUMP JUMPDEST PUSH32 0x4E487B7100000000000000000000000000000000000000000000000000000000 PUSH0 MSTORE PUSH1 0x22 PUSH1 0x4 MSTORE PUSH1 0x24 PUSH0 REVERT JUMPDEST PUSH0 PUSH1 0x2 DUP3 DIV SWAP1 POP PUSH1 0x1 DUP3 AND DUP1 PUSH2 0x970 JUMPI PUSH1 0x7F DUP3 AND SWAP2 POP JUMPDEST PUSH1 0x20 DUP3 LT DUP2 SUB PUSH2 0x983 JUMPI PUSH2 0x982 PUSH2 0x92C JUMP JUMPDEST JUMPDEST POP SWAP2 SWAP1 POP JUMP JUMPDEST PUSH0 DUP3 DUP3 MSTORE PUSH1 0x20 DUP3 ADD SWAP1 POP SWAP3 SWAP2 POP POP JUMP JUMPDEST PUSH32 0x4F6E6C792074686520636F6E7472616374206F776E65722063616E2070657266 PUSH0 DUP3 ADD MSTORE PUSH32 0x6F726D2074686973206F7065726174696F6E0000000000000000000000000000 PUSH1 0x20 DUP3 ADD MSTORE POP JUMP JUMPDEST PUSH0 PUSH2 0x9F3 PUSH1 0x32 DUP4 PUSH2 0x989 JUMP JUMPDEST SWAP2 POP PUSH2 0x9FE DUP3 PUSH2 0x999 JUMP JUMPDEST PUSH1 0x40 DUP3 ADD SWAP1 POP SWAP2 SWAP1 POP JUMP JUMPDEST PUSH0 PUSH1 0x20 DUP3 ADD SWAP1 POP DUP2 DUP2 SUB PUSH0 DUP4 ADD MSTORE PUSH2 0xA20 DUP2 PUSH2 0x9E7 JUMP JUMPDEST SWAP1 POP SWAP2 SWAP1 POP JUMP JUMPDEST PUSH0 DUP2 SWAP1 POP DUP2 PUSH0 MSTORE PUSH1 0x20 PUSH0 KECCAK256 SWAP1 POP SWAP2 SWAP1 POP JUMP JUMPDEST PUSH0 PUSH1 0x20 PUSH1 0x1F DUP4 ADD DIV SWAP1 POP SWAP2 SWAP1 POP JUMP JUMPDEST PUSH0 DUP3 DUP3 SHL SWAP1 POP SWAP3 SWAP2 POP POP JUMP JUMPDEST PUSH0 PUSH1 0x8 DUP4 MUL PUSH2 0xA83 PUSH32 0xFFFFFFFFFFFFFFFFFFFFFFFFFFFFFFFFFFFFFFFFFFFFFFFFFFFFFFFFFFFFFFFF DUP3 PUSH2 0xA48 JUMP JUMPDEST PUSH2 0xA8D DUP7 DUP4 PUSH2 0xA48 JUMP JUMPDEST SWAP6 POP DUP1 NOT DUP5 AND SWAP4 POP DUP1 DUP7 AND DUP5 OR SWAP3 POP POP POP SWAP4 SWAP3 POP POP POP JUMP JUMPDEST PUSH0 DUP2 SWAP1 POP SWAP2 SWAP1 POP JUMP JUMPDEST PUSH0 PUSH2 0xAC8 PUSH2 0xAC3 PUSH2 0xABE DUP5 PUSH2 0x45C JUMP JUMPDEST PUSH2 0xAA5 JUMP JUMPDEST PUSH2 0x45C JUMP JUMPDEST SWAP1 POP SWAP2 SWAP1 POP JUMP JUMPDEST PUSH0 DUP2 SWAP1 POP SWAP2 SWAP1 POP JUMP JUMPDEST PUSH2 0xAE1 DUP4 PUSH2 0xAAE JUMP JUMPDEST PUSH2 0xAF5 PUSH2 0xAED DUP3 PUSH2 0xACF JUMP JUMPDEST DUP5 DUP5 SLOAD PUSH2 0xA54 JUMP JUMPDEST DUP3 SSTORE POP POP POP POP JUMP JUMPDEST PUSH0 SWAP1 JUMP JUMPDEST PUSH2 0xB09 PUSH2 0xAFD JUMP JUMPDEST PUSH2 0xB14 DUP2 DUP5 DUP5 PUSH2 0xAD8 JUMP JUMPDEST POP POP POP JUMP JUMPDEST JUMPDEST DUP2 DUP2 LT ISZERO PUSH2 0xB37 JUMPI PUSH2 0xB2C PUSH0 DUP3 PUSH2 0xB01 JUMP JUMPDEST PUSH1 0x1 DUP2 ADD SWAP1 POP PUSH2 0xB1A JUMP JUMPDEST POP POP JUMP JUMPDEST PUSH1 0x1F DUP3 GT ISZERO PUSH2 0xB7C JUMPI PUSH2 0xB4D DUP2 PUSH2 0xA27 JUMP JUMPDEST PUSH2 0xB56 DUP5 PUSH2 0xA39 JUMP JUMPDEST DUP2 ADD PUSH1 0x20 DUP6 LT ISZERO PUSH2 0xB65 JUMPI DUP2 SWAP1 POP JUMPDEST PUSH2 0xB79 PUSH2 0xB71 DUP6 PUSH2 0xA39 JUMP JUMPDEST DUP4 ADD DUP3 PUSH2 0xB19 JUMP JUMPDEST POP POP JUMPDEST POP POP POP JUMP JUMPDEST PUSH0 DUP3 DUP3 SHR SWAP1 POP SWAP3 SWAP2 POP POP JUMP JUMPDEST PUSH0 PUSH2 0xB9C PUSH0 NOT DUP5 PUSH1 0x8 MUL PUSH2 0xB81 JUMP JUMPDEST NOT DUP1 DUP4 AND SWAP2 POP POP SWAP3 SWAP2 POP POP JUMP JUMPDEST PUSH0 PUSH2 0xBB4 DUP4 DUP4 PUSH2 0xB8D JUMP JUMPDEST SWAP2 POP DUP3 PUSH1 0x2 MUL DUP3 OR SWAP1 POP SWAP3 SWAP2 POP POP JUMP JUMPDEST PUSH2 0xBCD DUP3 PUSH2 0x4C9 JUMP JUMPDEST PUSH8 0xFFFFFFFFFFFFFFFF DUP2 GT ISZERO PUSH2 0xBE6 JUMPI PUSH2 0xBE5 PUSH2 0x622 JUMP JUMPDEST JUMPDEST PUSH2 0xBF0 DUP3 SLOAD PUSH2 0x959 JUMP JUMPDEST PUSH2 0xBFB DUP3 DUP3 DUP6 PUSH2 0xB3B JUMP JUMPDEST PUSH0 PUSH1 0x20 SWAP1 POP PUSH1 0x1F DUP4 GT PUSH1 0x1 DUP2 EQ PUSH2 0xC2C JUMPI PUSH0 DUP5 ISZERO PUSH2 0xC1A JUMPI DUP3 DUP8 ADD MLOAD SWAP1 POP JUMPDEST PUSH2 0xC24 DUP6 DUP3 PUSH2 0xBA9 JUMP JUMPDEST DUP7 SSTORE POP PUSH2 0xC8B JUMP JUMPDEST PUSH1 0x1F NOT DUP5 AND PUSH2 0xC3A DUP7 PUSH2 0xA27 JUMP JUMPDEST PUSH0 JUMPDEST DUP3 DUP2 LT ISZERO PUSH2 0xC61 JUMPI DUP5 DUP10 ADD MLOAD DUP3 SSTORE PUSH1 0x1 DUP3 ADD SWAP2 POP PUSH1 0x20 DUP6 ADD SWAP5 POP PUSH1 0x20 DUP2 ADD SWAP1 POP PUSH2 0xC3C JUMP JUMPDEST DUP7 DUP4 LT ISZERO PUSH2 0xC7E JUMPI DUP5 DUP10 ADD MLOAD PUSH2 0xC7A PUSH1 0x1F DUP10 AND DUP3 PUSH2 0xB8D JUMP JUMPDEST DUP4 SSTORE POP JUMPDEST PUSH1 0x1 PUSH1 0x2 DUP9 MUL ADD DUP9 SSTORE POP POP POP JUMPDEST POP POP POP POP POP POP JUMP JUMPDEST PUSH32 0x4E487B7100000000000000000000000000000000000000000000000000000000 PUSH0 MSTORE PUSH1 0x11 PUSH1 0x4 MSTORE PUSH1 0x24 PUSH0 REVERT JUMPDEST PUSH0 PUSH2 0xCCA DUP3 PUSH2 0x45C JUMP JUMPDEST SWAP2 POP PUSH32 0xFFFFFFFFFFFFFFFFFFFFFFFFFFFFFFFFFFFFFFFFFFFFFFFFFFFFFFFFFFFFFFFF DUP3 SUB PUSH2 0xCFC JUMPI PUSH2 0xCFB PUSH2 0xC93 JUMP JUMPDEST JUMPDEST PUSH1 0x1 DUP3 ADD SWAP1 POP SWAP2 SWAP1 POP JUMP INVALID LOG2 PUSH5 0x6970667358 0x22 SLT KECCAK256 0xE2 PUSH17 0xE92C9216E59EA429D694C59C9A87D30286 PUSH0 0xB6 0xFC PUSH31 0xA0D33C2F8B8B5A775964736F6C634300081800330000000000000000000000 "
				},
				"gasEstimates": {
					"creation": {
						"codeDepositCost": "677800",
						"executionCost": "29976",
						"totalCost": "707776"
					},
					"external": {
						"addLog(uint256,string,bytes32,string)": "infinite",
						"getLogByKey(uint256)": "infinite",
						"getLogCounter()": "2432",
						"getLogKeys()": "infinite",
						"owner()": "2571"
					}
				},
				"methodIdentifiers": {
					"addLog(uint256,string,bytes32,string)": "6ad65c2b",
					"getLogByKey(uint256)": "03e4d77f",
					"getLogCounter()": "28e8be60",
					"getLogKeys()": "8ae0be40",
					"owner()": "8da5cb5b"
				}
			},
			"storageLayout": {
				"storage": [
					{
						"astId": 3,
						"contract": "contracts/LogSmartContract.sol:LogSmartContract",
						"label": "owner",
						"offset": 0,
						"slot": "0",
						"type": "t_address"
					},
					{
						"astId": 201,
						"contract": "contracts/LogSmartContract.sol:LogSmartContract",
						"label": "logs",
						"offset": 0,
						"slot": "1",
						"type": "t_mapping(t_uint256,t_struct(Log)196_storage)"
					},
					{
						"astId": 204,
						"contract": "contracts/LogSmartContract.sol:LogSmartContract",
						"label": "logKeys",
						"offset": 0,
						"slot": "2",
						"type": "t_array(t_uint256)dyn_storage"
					},
					{
						"astId": 207,
						"contract": "contracts/LogSmartContract.sol:LogSmartContract",
						"label": "logCounter",
						"offset": 0,
						"slot": "3",
						"type": "t_uint256"
					}
				],
				"types": {
					"t_address": {
						"encoding": "inplace",
						"label": "address",
						"numberOfBytes": "20"
					},
					"t_array(t_uint256)dyn_storage": {
						"base": "t_uint256",
						"encoding": "dynamic_array",
						"label": "uint256[]",
						"numberOfBytes": "32"
					},
					"t_bytes32": {
						"encoding": "inplace",
						"label": "bytes32",
						"numberOfBytes": "32"
					},
					"t_mapping(t_uint256,t_struct(Log)196_storage)": {
						"encoding": "mapping",
						"key": "t_uint256",
						"label": "mapping(uint256 => struct LogSmartContract.Log)",
						"numberOfBytes": "32",
						"value": "t_struct(Log)196_storage"
					},
					"t_string_storage": {
						"encoding": "bytes",
						"label": "string",
						"numberOfBytes": "32"
					},
					"t_struct(Log)196_storage": {
						"encoding": "inplace",
						"label": "struct LogSmartContract.Log",
						"members": [
							{
								"astId": 189,
								"contract": "contracts/LogSmartContract.sol:LogSmartContract",
								"label": "actorId",
								"offset": 0,
								"slot": "0",
								"type": "t_uint256"
							},
							{
								"astId": 191,
								"contract": "contracts/LogSmartContract.sol:LogSmartContract",
								"label": "operations",
								"offset": 0,
								"slot": "1",
								"type": "t_string_storage"
							},
							{
								"astId": 193,
								"contract": "contracts/LogSmartContract.sol:LogSmartContract",
								"label": "serviceName",
								"offset": 0,
								"slot": "2",
								"type": "t_string_storage"
							},
							{
								"astId": 195,
								"contract": "contracts/LogSmartContract.sol:LogSmartContract",
								"label": "processedPersonalDatas",
								"offset": 0,
								"slot": "3",
								"type": "t_bytes32"
							}
						],
						"numberOfBytes": "128"
					},
					"t_uint256": {
						"encoding": "inplace",
						"label": "uint256",
						"numberOfBytes": "32"
					}
				}
			},
			"userdoc": {
				"kind": "user",
				"methods": {},
				"version": 1
			}
		}
	}
}