{
	"contracts/LogSmartContract.sol": {
		"LogSmartContract": {
			"abi": [
				{
					"inputs": [
						{
							"internalType": "string",
							"name": "_actorID",
							"type": "string"
						},
						{
							"internalType": "string",
							"name": "_operation",
							"type": "string"
						},
						{
							"internalType": "string",
							"name": "_serviceName",
							"type": "string"
						},
						{
							"internalType": "string",
							"name": "_processedPersonalData",
							"type": "string"
						}
					],
					"name": "addLog",
					"outputs": [],
					"stateMutability": "nonpayable",
					"type": "function"
				},
				{
					"inputs": [],
					"name": "getLogsLength",
					"outputs": [
						{
							"internalType": "uint256",
							"name": "",
							"type": "uint256"
						}
					],
					"stateMutability": "view",
					"type": "function"
				},
				{
					"inputs": [
						{
							"internalType": "uint256",
							"name": "",
							"type": "uint256"
						}
					],
					"name": "logs",
					"outputs": [
						{
							"internalType": "string",
							"name": "actorID",
							"type": "string"
						},
						{
							"internalType": "string",
							"name": "operation",
							"type": "string"
						},
						{
							"internalType": "string",
							"name": "serviceName",
							"type": "string"
						},
						{
							"internalType": "string",
							"name": "processedPersonalData",
							"type": "string"
						}
					],
					"stateMutability": "view",
					"type": "function"
				}
			],
			"devdoc": {
				"kind": "dev",
				"methods": {},
				"version": 1
			},
			"evm": {
				"assembly": "    /* \"contracts/LogSmartContract.sol\":58:697  contract LogSmartContract {... */\n  mstore(0x40, 0x80)\n  callvalue\n  dup1\n  iszero\n  tag_1\n  jumpi\n  0x00\n  dup1\n  revert\ntag_1:\n  pop\n  dataSize(sub_0)\n  dup1\n  dataOffset(sub_0)\n  0x00\n  codecopy\n  0x00\n  return\nstop\n\nsub_0: assembly {\n        /* \"contracts/LogSmartContract.sol\":58:697  contract LogSmartContract {... */\n      mstore(0x40, 0x80)\n      callvalue\n      dup1\n      iszero\n      tag_1\n      jumpi\n      0x00\n      dup1\n      revert\n    tag_1:\n      pop\n      jumpi(tag_2, lt(calldatasize, 0x04))\n      shr(0xe0, calldataload(0x00))\n      dup1\n      0x5517c1a9\n      eq\n      tag_3\n      jumpi\n      dup1\n      0x8af391a3\n      eq\n      tag_4\n      jumpi\n      dup1\n      0xe79899bd\n      eq\n      tag_5\n      jumpi\n    tag_2:\n      0x00\n      dup1\n      revert\n        /* \"contracts/LogSmartContract.sol\":605:694  function getLogsLength() public view returns (uint) {... */\n    tag_3:\n      tag_6\n      tag_7\n      jump\t// in\n    tag_6:\n      mload(0x40)\n      tag_8\n      swap2\n      swap1\n      tag_9\n      jump\t// in\n    tag_8:\n      mload(0x40)\n      dup1\n      swap2\n      sub\n      swap1\n      return\n        /* \"contracts/LogSmartContract.sol\":361:593  function addLog(string memory _actorID, string memory _operation, string memory _serviceName, string memory _processedPersonalData) public {... */\n    tag_4:\n      tag_10\n      0x04\n      dup1\n      calldatasize\n      sub\n      dup2\n      add\n      swap1\n      tag_11\n      swap2\n      swap1\n      tag_12\n      jump\t// in\n    tag_11:\n      tag_13\n      jump\t// in\n    tag_10:\n      stop\n        /* \"contracts/LogSmartContract.sol\":238:255  Log[] public logs */\n    tag_5:\n      tag_14\n      0x04\n      dup1\n      calldatasize\n      sub\n      dup2\n      add\n      swap1\n      tag_15\n      swap2\n      swap1\n      tag_16\n      jump\t// in\n    tag_15:\n      tag_17\n      jump\t// in\n    tag_14:\n      mload(0x40)\n      tag_18\n      swap5\n      swap4\n      swap3\n      swap2\n      swap1\n      tag_19\n      jump\t// in\n    tag_18:\n      mload(0x40)\n      dup1\n      swap2\n      sub\n      swap1\n      return\n        /* \"contracts/LogSmartContract.sol\":605:694  function getLogsLength() public view returns (uint) {... */\n    tag_7:\n        /* \"contracts/LogSmartContract.sol\":651:655  uint */\n      0x00\n        /* \"contracts/LogSmartContract.sol\":675:679  logs */\n      dup1\n        /* \"contracts/LogSmartContract.sol\":675:686  logs.length */\n      dup1\n      sload\n      swap1\n      pop\n        /* \"contracts/LogSmartContract.sol\":668:686  return logs.length */\n      swap1\n      pop\n        /* \"contracts/LogSmartContract.sol\":605:694  function getLogsLength() public view returns (uint) {... */\n      swap1\n      jump\t// out\n        /* \"contracts/LogSmartContract.sol\":361:593  function addLog(string memory _actorID, string memory _operation, string memory _serviceName, string memory _processedPersonalData) public {... */\n    tag_13:\n        /* \"contracts/LogSmartContract.sol\":511:515  logs */\n      0x00\n        /* \"contracts/LogSmartContract.sol\":521:584  Log(_actorID, _operation, _serviceName, _processedPersonalData) */\n      mload(0x40)\n      dup1\n      0x80\n      add\n      0x40\n      mstore\n      dup1\n        /* \"contracts/LogSmartContract.sol\":525:533  _actorID */\n      dup7\n        /* \"contracts/LogSmartContract.sol\":521:584  Log(_actorID, _operation, _serviceName, _processedPersonalData) */\n      dup2\n      mstore\n      0x20\n      add\n        /* \"contracts/LogSmartContract.sol\":535:545  _operation */\n      dup6\n        /* \"contracts/LogSmartContract.sol\":521:584  Log(_actorID, _operation, _serviceName, _processedPersonalData) */\n      dup2\n      mstore\n      0x20\n      add\n        /* \"contracts/LogSmartContract.sol\":547:559  _serviceName */\n      dup5\n        /* \"contracts/LogSmartContract.sol\":521:584  Log(_actorID, _operation, _serviceName, _processedPersonalData) */\n      dup2\n      mstore\n      0x20\n      add\n        /* \"contracts/LogSmartContract.sol\":561:583  _processedPersonalData */\n      dup4\n        /* \"contracts/LogSmartContract.sol\":521:584  Log(_actorID, _operation, _serviceName, _processedPersonalData) */\n      dup2\n      mstore\n      pop\n        /* \"contracts/LogSmartContract.sol\":511:585  logs.push(Log(_actorID, _operation, _serviceName, _processedPersonalData)) */\n      swap1\n      dup1\n      0x01\n      dup2\n      sload\n      add\n      dup1\n      dup3\n      sstore\n      dup1\n      swap2\n      pop\n      pop\n      0x01\n      swap1\n      sub\n      swap1\n      0x00\n      mstore\n      keccak256(0x00, 0x20)\n      swap1\n      0x04\n      mul\n      add\n      0x00\n      swap1\n      swap2\n      swap1\n      swap2\n      swap1\n      swap2\n      pop\n      0x00\n      dup3\n      add\n      mload\n      dup2\n      0x00\n      add\n      swap1\n      dup2\n      tag_23\n      swap2\n      swap1\n      tag_24\n      jump\t// in\n    tag_23:\n      pop\n      0x20\n      dup3\n      add\n      mload\n      dup2\n      0x01\n      add\n      swap1\n      dup2\n      tag_25\n      swap2\n      swap1\n      tag_24\n      jump\t// in\n    tag_25:\n      pop\n      0x40\n      dup3\n      add\n      mload\n      dup2\n      0x02\n      add\n      swap1\n      dup2\n      tag_26\n      swap2\n      swap1\n      tag_24\n      jump\t// in\n    tag_26:\n      pop\n      0x60\n      dup3\n      add\n      mload\n      dup2\n      0x03\n      add\n      swap1\n      dup2\n      tag_27\n      swap2\n      swap1\n      tag_24\n      jump\t// in\n    tag_27:\n      pop\n      pop\n      pop\n        /* \"contracts/LogSmartContract.sol\":361:593  function addLog(string memory _actorID, string memory _operation, string memory _serviceName, string memory _processedPersonalData) public {... */\n      pop\n      pop\n      pop\n      pop\n      jump\t// out\n        /* \"contracts/LogSmartContract.sol\":238:255  Log[] public logs */\n    tag_17:\n      0x00\n      dup2\n      dup2\n      sload\n      dup2\n      lt\n      tag_28\n      jumpi\n      0x00\n      dup1\n      revert\n    tag_28:\n      swap1\n      0x00\n      mstore\n      keccak256(0x00, 0x20)\n      swap1\n      0x04\n      mul\n      add\n      0x00\n      swap2\n      pop\n      swap1\n      pop\n      dup1\n      0x00\n      add\n      dup1\n      sload\n      tag_30\n      swap1\n      tag_31\n      jump\t// in\n    tag_30:\n      dup1\n      0x1f\n      add\n      0x20\n      dup1\n      swap2\n      div\n      mul\n      0x20\n      add\n      mload(0x40)\n      swap1\n      dup2\n      add\n      0x40\n      mstore\n      dup1\n      swap3\n      swap2\n      swap1\n      dup2\n      dup2\n      mstore\n      0x20\n      add\n      dup3\n      dup1\n      sload\n      tag_32\n      swap1\n      tag_31\n      jump\t// in\n    tag_32:\n      dup1\n      iszero\n      tag_33\n      jumpi\n      dup1\n      0x1f\n      lt\n      tag_34\n      jumpi\n      0x0100\n      dup1\n      dup4\n      sload\n      div\n      mul\n      dup4\n      mstore\n      swap2\n      0x20\n      add\n      swap2\n      jump(tag_33)\n    tag_34:\n      dup3\n      add\n      swap2\n      swap1\n      0x00\n      mstore\n      keccak256(0x00, 0x20)\n      swap1\n    tag_35:\n      dup2\n      sload\n      dup2\n      mstore\n      swap1\n      0x01\n      add\n      swap1\n      0x20\n      add\n      dup1\n      dup4\n      gt\n      tag_35\n      jumpi\n      dup3\n      swap1\n      sub\n      0x1f\n      and\n      dup3\n      add\n      swap2\n    tag_33:\n      pop\n      pop\n      pop\n      pop\n      pop\n      swap1\n      dup1\n      0x01\n      add\n      dup1\n      sload\n      tag_36\n      swap1\n      tag_31\n      jump\t// in\n    tag_36:\n      dup1\n      0x1f\n      add\n      0x20\n      dup1\n      swap2\n      div\n      mul\n      0x20\n      add\n      mload(0x40)\n      swap1\n      dup2\n      add\n      0x40\n      mstore\n      dup1\n      swap3\n      swap2\n      swap1\n      dup2\n      dup2\n      mstore\n      0x20\n      add\n      dup3\n      dup1\n      sload\n      tag_37\n      swap1\n      tag_31\n      jump\t// in\n    tag_37:\n      dup1\n      iszero\n      tag_38\n      jumpi\n      dup1\n      0x1f\n      lt\n      tag_39\n      jumpi\n      0x0100\n      dup1\n      dup4\n      sload\n      div\n      mul\n      dup4\n      mstore\n      swap2\n      0x20\n      add\n      swap2\n      jump(tag_38)\n    tag_39:\n      dup3\n      add\n      swap2\n      swap1\n      0x00\n      mstore\n      keccak256(0x00, 0x20)\n      swap1\n    tag_40:\n      dup2\n      sload\n      dup2\n      mstore\n      swap1\n      0x01\n      add\n      swap1\n      0x20\n      add\n      dup1\n      dup4\n      gt\n      tag_40\n      jumpi\n      dup3\n      swap1\n      sub\n      0x1f\n      and\n      dup3\n      add\n      swap2\n    tag_38:\n      pop\n      pop\n      pop\n      pop\n      pop\n      swap1\n      dup1\n      0x02\n      add\n      dup1\n      sload\n      tag_41\n      swap1\n      tag_31\n      jump\t// in\n    tag_41:\n      dup1\n      0x1f\n      add\n      0x20\n      dup1\n      swap2\n      div\n      mul\n      0x20\n      add\n      mload(0x40)\n      swap1\n      dup2\n      add\n      0x40\n      mstore\n      dup1\n      swap3\n      swap2\n      swap1\n      dup2\n      dup2\n      mstore\n      0x20\n      add\n      dup3\n      dup1\n      sload\n      tag_42\n      swap1\n      tag_31\n      jump\t// in\n    tag_42:\n      dup1\n      iszero\n      tag_43\n      jumpi\n      dup1\n      0x1f\n      lt\n      tag_44\n      jumpi\n      0x0100\n      dup1\n      dup4\n      sload\n      div\n      mul\n      dup4\n      mstore\n      swap2\n      0x20\n      add\n      swap2\n      jump(tag_43)\n    tag_44:\n      dup3\n      add\n      swap2\n      swap1\n      0x00\n      mstore\n      keccak256(0x00, 0x20)\n      swap1\n    tag_45:\n      dup2\n      sload\n      dup2\n      mstore\n      swap1\n      0x01\n      add\n      swap1\n      0x20\n      add\n      dup1\n      dup4\n      gt\n      tag_45\n      jumpi\n      dup3\n      swap1\n      sub\n      0x1f\n      and\n      dup3\n      add\n      swap2\n    tag_43:\n      pop\n      pop\n      pop\n      pop\n      pop\n      swap1\n      dup1\n      0x03\n      add\n      dup1\n      sload\n      tag_46\n      swap1\n      tag_31\n      jump\t// in\n    tag_46:\n      dup1\n      0x1f\n      add\n      0x20\n      dup1\n      swap2\n      div\n      mul\n      0x20\n      add\n      mload(0x40)\n      swap1\n      dup2\n      add\n      0x40\n      mstore\n      dup1\n      swap3\n      swap2\n      swap1\n      dup2\n      dup2\n      mstore\n      0x20\n      add\n      dup3\n      dup1\n      sload\n      tag_47\n      swap1\n      tag_31\n      jump\t// in\n    tag_47:\n      dup1\n      iszero\n      tag_48\n      jumpi\n      dup1\n      0x1f\n      lt\n      tag_49\n      jumpi\n      0x0100\n      dup1\n      dup4\n      sload\n      div\n      mul\n      dup4\n      mstore\n      swap2\n      0x20\n      add\n      swap2\n      jump(tag_48)\n    tag_49:\n      dup3\n      add\n      swap2\n      swap1\n      0x00\n      mstore\n      keccak256(0x00, 0x20)\n      swap1\n    tag_50:\n      dup2\n      sload\n      dup2\n      mstore\n      swap1\n      0x01\n      add\n      swap1\n      0x20\n      add\n      dup1\n      dup4\n      gt\n      tag_50\n      jumpi\n      dup3\n      swap1\n      sub\n      0x1f\n      and\n      dup3\n      add\n      swap2\n    tag_48:\n      pop\n      pop\n      pop\n      pop\n      pop\n      swap1\n      pop\n      dup5\n      jump\t// out\n        /* \"#utility.yul\":7:84   */\n    tag_51:\n        /* \"#utility.yul\":44:51   */\n      0x00\n        /* \"#utility.yul\":73:78   */\n      dup2\n        /* \"#utility.yul\":62:78   */\n      swap1\n      pop\n        /* \"#utility.yul\":7:84   */\n      swap2\n      swap1\n      pop\n      jump\t// out\n        /* \"#utility.yul\":90:208   */\n    tag_52:\n        /* \"#utility.yul\":177:201   */\n      tag_91\n        /* \"#utility.yul\":195:200   */\n      dup2\n        /* \"#utility.yul\":177:201   */\n      tag_51\n      jump\t// in\n    tag_91:\n        /* \"#utility.yul\":172:175   */\n      dup3\n        /* \"#utility.yul\":165:202   */\n      mstore\n        /* \"#utility.yul\":90:208   */\n      pop\n      pop\n      jump\t// out\n        /* \"#utility.yul\":214:436   */\n    tag_9:\n        /* \"#utility.yul\":307:311   */\n      0x00\n        /* \"#utility.yul\":345:347   */\n      0x20\n        /* \"#utility.yul\":334:343   */\n      dup3\n        /* \"#utility.yul\":330:348   */\n      add\n        /* \"#utility.yul\":322:348   */\n      swap1\n      pop\n        /* \"#utility.yul\":358:429   */\n      tag_93\n        /* \"#utility.yul\":426:427   */\n      0x00\n        /* \"#utility.yul\":415:424   */\n      dup4\n        /* \"#utility.yul\":411:428   */\n      add\n        /* \"#utility.yul\":402:408   */\n      dup5\n        /* \"#utility.yul\":358:429   */\n      tag_52\n      jump\t// in\n    tag_93:\n        /* \"#utility.yul\":214:436   */\n      swap3\n      swap2\n      pop\n      pop\n      jump\t// out\n        /* \"#utility.yul\":442:517   */\n    tag_53:\n        /* \"#utility.yul\":475:481   */\n      0x00\n        /* \"#utility.yul\":508:510   */\n      0x40\n        /* \"#utility.yul\":502:511   */\n      mload\n        /* \"#utility.yul\":492:511   */\n      swap1\n      pop\n        /* \"#utility.yul\":442:517   */\n      swap1\n      jump\t// out\n        /* \"#utility.yul\":523:640   */\n    tag_54:\n        /* \"#utility.yul\":632:633   */\n      0x00\n        /* \"#utility.yul\":629:630   */\n      dup1\n        /* \"#utility.yul\":622:634   */\n      revert\n        /* \"#utility.yul\":646:763   */\n    tag_55:\n        /* \"#utility.yul\":755:756   */\n      0x00\n        /* \"#utility.yul\":752:753   */\n      dup1\n        /* \"#utility.yul\":745:757   */\n      revert\n        /* \"#utility.yul\":769:886   */\n    tag_56:\n        /* \"#utility.yul\":878:879   */\n      0x00\n        /* \"#utility.yul\":875:876   */\n      dup1\n        /* \"#utility.yul\":868:880   */\n      revert\n        /* \"#utility.yul\":892:1009   */\n    tag_57:\n        /* \"#utility.yul\":1001:1002   */\n      0x00\n        /* \"#utility.yul\":998:999   */\n      dup1\n        /* \"#utility.yul\":991:1003   */\n      revert\n        /* \"#utility.yul\":1015:1117   */\n    tag_58:\n        /* \"#utility.yul\":1056:1062   */\n      0x00\n        /* \"#utility.yul\":1107:1109   */\n      0x1f\n        /* \"#utility.yul\":1103:1110   */\n      not\n        /* \"#utility.yul\":1098:1100   */\n      0x1f\n        /* \"#utility.yul\":1091:1096   */\n      dup4\n        /* \"#utility.yul\":1087:1101   */\n      add\n        /* \"#utility.yul\":1083:1111   */\n      and\n        /* \"#utility.yul\":1073:1111   */\n      swap1\n      pop\n        /* \"#utility.yul\":1015:1117   */\n      swap2\n      swap1\n      pop\n      jump\t// out\n        /* \"#utility.yul\":1123:1303   */\n    tag_59:\n        /* \"#utility.yul\":1171:1248   */\n      0x4e487b7100000000000000000000000000000000000000000000000000000000\n        /* \"#utility.yul\":1168:1169   */\n      0x00\n        /* \"#utility.yul\":1161:1249   */\n      mstore\n        /* \"#utility.yul\":1268:1272   */\n      0x41\n        /* \"#utility.yul\":1265:1266   */\n      0x04\n        /* \"#utility.yul\":1258:1273   */\n      mstore\n        /* \"#utility.yul\":1292:1296   */\n      0x24\n        /* \"#utility.yul\":1289:1290   */\n      0x00\n        /* \"#utility.yul\":1282:1297   */\n      revert\n        /* \"#utility.yul\":1309:1590   */\n    tag_60:\n        /* \"#utility.yul\":1392:1419   */\n      tag_102\n        /* \"#utility.yul\":1414:1418   */\n      dup3\n        /* \"#utility.yul\":1392:1419   */\n      tag_58\n      jump\t// in\n    tag_102:\n        /* \"#utility.yul\":1384:1390   */\n      dup2\n        /* \"#utility.yul\":1380:1420   */\n      add\n        /* \"#utility.yul\":1522:1528   */\n      dup2\n        /* \"#utility.yul\":1510:1520   */\n      dup2\n        /* \"#utility.yul\":1507:1529   */\n      lt\n        /* \"#utility.yul\":1486:1504   */\n      0xffffffffffffffff\n        /* \"#utility.yul\":1474:1484   */\n      dup3\n        /* \"#utility.yul\":1471:1505   */\n      gt\n        /* \"#utility.yul\":1468:1530   */\n      or\n        /* \"#utility.yul\":1465:1553   */\n      iszero\n      tag_103\n      jumpi\n        /* \"#utility.yul\":1533:1551   */\n      tag_104\n      tag_59\n      jump\t// in\n    tag_104:\n        /* \"#utility.yul\":1465:1553   */\n    tag_103:\n        /* \"#utility.yul\":1573:1583   */\n      dup1\n        /* \"#utility.yul\":1569:1571   */\n      0x40\n        /* \"#utility.yul\":1562:1584   */\n      mstore\n        /* \"#utility.yul\":1352:1590   */\n      pop\n        /* \"#utility.yul\":1309:1590   */\n      pop\n      pop\n      jump\t// out\n        /* \"#utility.yul\":1596:1725   */\n    tag_61:\n        /* \"#utility.yul\":1630:1636   */\n      0x00\n        /* \"#utility.yul\":1657:1677   */\n      tag_106\n      tag_53\n      jump\t// in\n    tag_106:\n        /* \"#utility.yul\":1647:1677   */\n      swap1\n      pop\n        /* \"#utility.yul\":1686:1719   */\n      tag_107\n        /* \"#utility.yul\":1714:1718   */\n      dup3\n        /* \"#utility.yul\":1706:1712   */\n      dup3\n        /* \"#utility.yul\":1686:1719   */\n      tag_60\n      jump\t// in\n    tag_107:\n        /* \"#utility.yul\":1596:1725   */\n      swap2\n      swap1\n      pop\n      jump\t// out\n        /* \"#utility.yul\":1731:2039   */\n    tag_62:\n        /* \"#utility.yul\":1793:1797   */\n      0x00\n        /* \"#utility.yul\":1883:1901   */\n      0xffffffffffffffff\n        /* \"#utility.yul\":1875:1881   */\n      dup3\n        /* \"#utility.yul\":1872:1902   */\n      gt\n        /* \"#utility.yul\":1869:1925   */\n      iszero\n      tag_109\n      jumpi\n        /* \"#utility.yul\":1905:1923   */\n      tag_110\n      tag_59\n      jump\t// in\n    tag_110:\n        /* \"#utility.yul\":1869:1925   */\n    tag_109:\n        /* \"#utility.yul\":1943:1972   */\n      tag_111\n        /* \"#utility.yul\":1965:1971   */\n      dup3\n        /* \"#utility.yul\":1943:1972   */\n      tag_58\n      jump\t// in\n    tag_111:\n        /* \"#utility.yul\":1935:1972   */\n      swap1\n      pop\n        /* \"#utility.yul\":2027:2031   */\n      0x20\n        /* \"#utility.yul\":2021:2025   */\n      dup2\n        /* \"#utility.yul\":2017:2032   */\n      add\n        /* \"#utility.yul\":2009:2032   */\n      swap1\n      pop\n        /* \"#utility.yul\":1731:2039   */\n      swap2\n      swap1\n      pop\n      jump\t// out\n        /* \"#utility.yul\":2045:2191   */\n    tag_63:\n        /* \"#utility.yul\":2142:2148   */\n      dup3\n        /* \"#utility.yul\":2137:2140   */\n      dup2\n        /* \"#utility.yul\":2132:2135   */\n      dup4\n        /* \"#utility.yul\":2119:2149   */\n      calldatacopy\n        /* \"#utility.yul\":2183:2184   */\n      0x00\n        /* \"#utility.yul\":2174:2180   */\n      dup4\n        /* \"#utility.yul\":2169:2172   */\n      dup4\n        /* \"#utility.yul\":2165:2181   */\n      add\n        /* \"#utility.yul\":2158:2185   */\n      mstore\n        /* \"#utility.yul\":2045:2191   */\n      pop\n      pop\n      pop\n      jump\t// out\n        /* \"#utility.yul\":2197:2622   */\n    tag_64:\n        /* \"#utility.yul\":2275:2280   */\n      0x00\n        /* \"#utility.yul\":2300:2366   */\n      tag_114\n        /* \"#utility.yul\":2316:2365   */\n      tag_115\n        /* \"#utility.yul\":2358:2364   */\n      dup5\n        /* \"#utility.yul\":2316:2365   */\n      tag_62\n      jump\t// in\n    tag_115:\n        /* \"#utility.yul\":2300:2366   */\n      tag_61\n      jump\t// in\n    tag_114:\n        /* \"#utility.yul\":2291:2366   */\n      swap1\n      pop\n        /* \"#utility.yul\":2389:2395   */\n      dup3\n        /* \"#utility.yul\":2382:2387   */\n      dup2\n        /* \"#utility.yul\":2375:2396   */\n      mstore\n        /* \"#utility.yul\":2427:2431   */\n      0x20\n        /* \"#utility.yul\":2420:2425   */\n      dup2\n        /* \"#utility.yul\":2416:2432   */\n      add\n        /* \"#utility.yul\":2465:2468   */\n      dup5\n        /* \"#utility.yul\":2456:2462   */\n      dup5\n        /* \"#utility.yul\":2451:2454   */\n      dup5\n        /* \"#utility.yul\":2447:2463   */\n      add\n        /* \"#utility.yul\":2444:2469   */\n      gt\n        /* \"#utility.yul\":2441:2553   */\n      iszero\n      tag_116\n      jumpi\n        /* \"#utility.yul\":2472:2551   */\n      tag_117\n      tag_57\n      jump\t// in\n    tag_117:\n        /* \"#utility.yul\":2441:2553   */\n    tag_116:\n        /* \"#utility.yul\":2562:2616   */\n      tag_118\n        /* \"#utility.yul\":2609:2615   */\n      dup5\n        /* \"#utility.yul\":2604:2607   */\n      dup3\n        /* \"#utility.yul\":2599:2602   */\n      dup6\n        /* \"#utility.yul\":2562:2616   */\n      tag_63\n      jump\t// in\n    tag_118:\n        /* \"#utility.yul\":2281:2622   */\n      pop\n        /* \"#utility.yul\":2197:2622   */\n      swap4\n      swap3\n      pop\n      pop\n      pop\n      jump\t// out\n        /* \"#utility.yul\":2642:2982   */\n    tag_65:\n        /* \"#utility.yul\":2698:2703   */\n      0x00\n        /* \"#utility.yul\":2747:2750   */\n      dup3\n        /* \"#utility.yul\":2740:2744   */\n      0x1f\n        /* \"#utility.yul\":2732:2738   */\n      dup4\n        /* \"#utility.yul\":2728:2745   */\n      add\n        /* \"#utility.yul\":2724:2751   */\n      slt\n        /* \"#utility.yul\":2714:2836   */\n      tag_120\n      jumpi\n        /* \"#utility.yul\":2755:2834   */\n      tag_121\n      tag_56\n      jump\t// in\n    tag_121:\n        /* \"#utility.yul\":2714:2836   */\n    tag_120:\n        /* \"#utility.yul\":2872:2878   */\n      dup2\n        /* \"#utility.yul\":2859:2879   */\n      calldataload\n        /* \"#utility.yul\":2897:2976   */\n      tag_122\n        /* \"#utility.yul\":2972:2975   */\n      dup5\n        /* \"#utility.yul\":2964:2970   */\n      dup3\n        /* \"#utility.yul\":2957:2961   */\n      0x20\n        /* \"#utility.yul\":2949:2955   */\n      dup7\n        /* \"#utility.yul\":2945:2962   */\n      add\n        /* \"#utility.yul\":2897:2976   */\n      tag_64\n      jump\t// in\n    tag_122:\n        /* \"#utility.yul\":2888:2976   */\n      swap2\n      pop\n        /* \"#utility.yul\":2704:2982   */\n      pop\n        /* \"#utility.yul\":2642:2982   */\n      swap3\n      swap2\n      pop\n      pop\n      jump\t// out\n        /* \"#utility.yul\":2988:4473   */\n    tag_12:\n        /* \"#utility.yul\":3114:3120   */\n      0x00\n        /* \"#utility.yul\":3122:3128   */\n      dup1\n        /* \"#utility.yul\":3130:3136   */\n      0x00\n        /* \"#utility.yul\":3138:3144   */\n      dup1\n        /* \"#utility.yul\":3187:3190   */\n      0x80\n        /* \"#utility.yul\":3175:3184   */\n      dup6\n        /* \"#utility.yul\":3166:3173   */\n      dup8\n        /* \"#utility.yul\":3162:3185   */\n      sub\n        /* \"#utility.yul\":3158:3191   */\n      slt\n        /* \"#utility.yul\":3155:3275   */\n      iszero\n      tag_124\n      jumpi\n        /* \"#utility.yul\":3194:3273   */\n      tag_125\n      tag_54\n      jump\t// in\n    tag_125:\n        /* \"#utility.yul\":3155:3275   */\n    tag_124:\n        /* \"#utility.yul\":3342:3343   */\n      0x00\n        /* \"#utility.yul\":3331:3340   */\n      dup6\n        /* \"#utility.yul\":3327:3344   */\n      add\n        /* \"#utility.yul\":3314:3345   */\n      calldataload\n        /* \"#utility.yul\":3372:3390   */\n      0xffffffffffffffff\n        /* \"#utility.yul\":3364:3370   */\n      dup2\n        /* \"#utility.yul\":3361:3391   */\n      gt\n        /* \"#utility.yul\":3358:3475   */\n      iszero\n      tag_126\n      jumpi\n        /* \"#utility.yul\":3394:3473   */\n      tag_127\n      tag_55\n      jump\t// in\n    tag_127:\n        /* \"#utility.yul\":3358:3475   */\n    tag_126:\n        /* \"#utility.yul\":3499:3562   */\n      tag_128\n        /* \"#utility.yul\":3554:3561   */\n      dup8\n        /* \"#utility.yul\":3545:3551   */\n      dup3\n        /* \"#utility.yul\":3534:3543   */\n      dup9\n        /* \"#utility.yul\":3530:3552   */\n      add\n        /* \"#utility.yul\":3499:3562   */\n      tag_65\n      jump\t// in\n    tag_128:\n        /* \"#utility.yul\":3489:3562   */\n      swap5\n      pop\n        /* \"#utility.yul\":3285:3572   */\n      pop\n        /* \"#utility.yul\":3639:3641   */\n      0x20\n        /* \"#utility.yul\":3628:3637   */\n      dup6\n        /* \"#utility.yul\":3624:3642   */\n      add\n        /* \"#utility.yul\":3611:3643   */\n      calldataload\n        /* \"#utility.yul\":3670:3688   */\n      0xffffffffffffffff\n        /* \"#utility.yul\":3662:3668   */\n      dup2\n        /* \"#utility.yul\":3659:3689   */\n      gt\n        /* \"#utility.yul\":3656:3773   */\n      iszero\n      tag_129\n      jumpi\n        /* \"#utility.yul\":3692:3771   */\n      tag_130\n      tag_55\n      jump\t// in\n    tag_130:\n        /* \"#utility.yul\":3656:3773   */\n    tag_129:\n        /* \"#utility.yul\":3797:3860   */\n      tag_131\n        /* \"#utility.yul\":3852:3859   */\n      dup8\n        /* \"#utility.yul\":3843:3849   */\n      dup3\n        /* \"#utility.yul\":3832:3841   */\n      dup9\n        /* \"#utility.yul\":3828:3850   */\n      add\n        /* \"#utility.yul\":3797:3860   */\n      tag_65\n      jump\t// in\n    tag_131:\n        /* \"#utility.yul\":3787:3860   */\n      swap4\n      pop\n        /* \"#utility.yul\":3582:3870   */\n      pop\n        /* \"#utility.yul\":3937:3939   */\n      0x40\n        /* \"#utility.yul\":3926:3935   */\n      dup6\n        /* \"#utility.yul\":3922:3940   */\n      add\n        /* \"#utility.yul\":3909:3941   */\n      calldataload\n        /* \"#utility.yul\":3968:3986   */\n      0xffffffffffffffff\n        /* \"#utility.yul\":3960:3966   */\n      dup2\n        /* \"#utility.yul\":3957:3987   */\n      gt\n        /* \"#utility.yul\":3954:4071   */\n      iszero\n      tag_132\n      jumpi\n        /* \"#utility.yul\":3990:4069   */\n      tag_133\n      tag_55\n      jump\t// in\n    tag_133:\n        /* \"#utility.yul\":3954:4071   */\n    tag_132:\n        /* \"#utility.yul\":4095:4158   */\n      tag_134\n        /* \"#utility.yul\":4150:4157   */\n      dup8\n        /* \"#utility.yul\":4141:4147   */\n      dup3\n        /* \"#utility.yul\":4130:4139   */\n      dup9\n        /* \"#utility.yul\":4126:4148   */\n      add\n        /* \"#utility.yul\":4095:4158   */\n      tag_65\n      jump\t// in\n    tag_134:\n        /* \"#utility.yul\":4085:4158   */\n      swap3\n      pop\n        /* \"#utility.yul\":3880:4168   */\n      pop\n        /* \"#utility.yul\":4235:4237   */\n      0x60\n        /* \"#utility.yul\":4224:4233   */\n      dup6\n        /* \"#utility.yul\":4220:4238   */\n      add\n        /* \"#utility.yul\":4207:4239   */\n      calldataload\n        /* \"#utility.yul\":4266:4284   */\n      0xffffffffffffffff\n        /* \"#utility.yul\":4258:4264   */\n      dup2\n        /* \"#utility.yul\":4255:4285   */\n      gt\n        /* \"#utility.yul\":4252:4369   */\n      iszero\n      tag_135\n      jumpi\n        /* \"#utility.yul\":4288:4367   */\n      tag_136\n      tag_55\n      jump\t// in\n    tag_136:\n        /* \"#utility.yul\":4252:4369   */\n    tag_135:\n        /* \"#utility.yul\":4393:4456   */\n      tag_137\n        /* \"#utility.yul\":4448:4455   */\n      dup8\n        /* \"#utility.yul\":4439:4445   */\n      dup3\n        /* \"#utility.yul\":4428:4437   */\n      dup9\n        /* \"#utility.yul\":4424:4446   */\n      add\n        /* \"#utility.yul\":4393:4456   */\n      tag_65\n      jump\t// in\n    tag_137:\n        /* \"#utility.yul\":4383:4456   */\n      swap2\n      pop\n        /* \"#utility.yul\":4178:4466   */\n      pop\n        /* \"#utility.yul\":2988:4473   */\n      swap3\n      swap6\n      swap2\n      swap5\n      pop\n      swap3\n      pop\n      jump\t// out\n        /* \"#utility.yul\":4479:4601   */\n    tag_66:\n        /* \"#utility.yul\":4552:4576   */\n      tag_139\n        /* \"#utility.yul\":4570:4575   */\n      dup2\n        /* \"#utility.yul\":4552:4576   */\n      tag_51\n      jump\t// in\n    tag_139:\n        /* \"#utility.yul\":4545:4550   */\n      dup2\n        /* \"#utility.yul\":4542:4577   */\n      eq\n        /* \"#utility.yul\":4532:4595   */\n      tag_140\n      jumpi\n        /* \"#utility.yul\":4591:4592   */\n      0x00\n        /* \"#utility.yul\":4588:4589   */\n      dup1\n        /* \"#utility.yul\":4581:4593   */\n      revert\n        /* \"#utility.yul\":4532:4595   */\n    tag_140:\n        /* \"#utility.yul\":4479:4601   */\n      pop\n      jump\t// out\n        /* \"#utility.yul\":4607:4746   */\n    tag_67:\n        /* \"#utility.yul\":4653:4658   */\n      0x00\n        /* \"#utility.yul\":4691:4697   */\n      dup2\n        /* \"#utility.yul\":4678:4698   */\n      calldataload\n        /* \"#utility.yul\":4669:4698   */\n      swap1\n      pop\n        /* \"#utility.yul\":4707:4740   */\n      tag_142\n        /* \"#utility.yul\":4734:4739   */\n      dup2\n        /* \"#utility.yul\":4707:4740   */\n      tag_66\n      jump\t// in\n    tag_142:\n        /* \"#utility.yul\":4607:4746   */\n      swap3\n      swap2\n      pop\n      pop\n      jump\t// out\n        /* \"#utility.yul\":4752:5081   */\n    tag_16:\n        /* \"#utility.yul\":4811:4817   */\n      0x00\n        /* \"#utility.yul\":4860:4862   */\n      0x20\n        /* \"#utility.yul\":4848:4857   */\n      dup3\n        /* \"#utility.yul\":4839:4846   */\n      dup5\n        /* \"#utility.yul\":4835:4858   */\n      sub\n        /* \"#utility.yul\":4831:4863   */\n      slt\n        /* \"#utility.yul\":4828:4947   */\n      iszero\n      tag_144\n      jumpi\n        /* \"#utility.yul\":4866:4945   */\n      tag_145\n      tag_54\n      jump\t// in\n    tag_145:\n        /* \"#utility.yul\":4828:4947   */\n    tag_144:\n        /* \"#utility.yul\":4986:4987   */\n      0x00\n        /* \"#utility.yul\":5011:5064   */\n      tag_146\n        /* \"#utility.yul\":5056:5063   */\n      dup5\n        /* \"#utility.yul\":5047:5053   */\n      dup3\n        /* \"#utility.yul\":5036:5045   */\n      dup6\n        /* \"#utility.yul\":5032:5054   */\n      add\n        /* \"#utility.yul\":5011:5064   */\n      tag_67\n      jump\t// in\n    tag_146:\n        /* \"#utility.yul\":5001:5064   */\n      swap2\n      pop\n        /* \"#utility.yul\":4957:5074   */\n      pop\n        /* \"#utility.yul\":4752:5081   */\n      swap3\n      swap2\n      pop\n      pop\n      jump\t// out\n        /* \"#utility.yul\":5087:5186   */\n    tag_68:\n        /* \"#utility.yul\":5139:5145   */\n      0x00\n        /* \"#utility.yul\":5173:5178   */\n      dup2\n        /* \"#utility.yul\":5167:5179   */\n      mload\n        /* \"#utility.yul\":5157:5179   */\n      swap1\n      pop\n        /* \"#utility.yul\":5087:5186   */\n      swap2\n      swap1\n      pop\n      jump\t// out\n        /* \"#utility.yul\":5192:5361   */\n    tag_69:\n        /* \"#utility.yul\":5276:5287   */\n      0x00\n        /* \"#utility.yul\":5310:5316   */\n      dup3\n        /* \"#utility.yul\":5305:5308   */\n      dup3\n        /* \"#utility.yul\":5298:5317   */\n      mstore\n        /* \"#utility.yul\":5350:5354   */\n      0x20\n        /* \"#utility.yul\":5345:5348   */\n      dup3\n        /* \"#utility.yul\":5341:5355   */\n      add\n        /* \"#utility.yul\":5326:5355   */\n      swap1\n      pop\n        /* \"#utility.yul\":5192:5361   */\n      swap3\n      swap2\n      pop\n      pop\n      jump\t// out\n        /* \"#utility.yul\":5367:5613   */\n    tag_70:\n        /* \"#utility.yul\":5448:5449   */\n      0x00\n        /* \"#utility.yul\":5458:5571   */\n    tag_150:\n        /* \"#utility.yul\":5472:5478   */\n      dup4\n        /* \"#utility.yul\":5469:5470   */\n      dup2\n        /* \"#utility.yul\":5466:5479   */\n      lt\n        /* \"#utility.yul\":5458:5571   */\n      iszero\n      tag_152\n      jumpi\n        /* \"#utility.yul\":5557:5558   */\n      dup1\n        /* \"#utility.yul\":5552:5555   */\n      dup3\n        /* \"#utility.yul\":5548:5559   */\n      add\n        /* \"#utility.yul\":5542:5560   */\n      mload\n        /* \"#utility.yul\":5538:5539   */\n      dup2\n        /* \"#utility.yul\":5533:5536   */\n      dup5\n        /* \"#utility.yul\":5529:5540   */\n      add\n        /* \"#utility.yul\":5522:5561   */\n      mstore\n        /* \"#utility.yul\":5494:5496   */\n      0x20\n        /* \"#utility.yul\":5491:5492   */\n      dup2\n        /* \"#utility.yul\":5487:5497   */\n      add\n        /* \"#utility.yul\":5482:5497   */\n      swap1\n      pop\n        /* \"#utility.yul\":5458:5571   */\n      jump(tag_150)\n    tag_152:\n        /* \"#utility.yul\":5605:5606   */\n      0x00\n        /* \"#utility.yul\":5596:5602   */\n      dup5\n        /* \"#utility.yul\":5591:5594   */\n      dup5\n        /* \"#utility.yul\":5587:5603   */\n      add\n        /* \"#utility.yul\":5580:5607   */\n      mstore\n        /* \"#utility.yul\":5429:5613   */\n      pop\n        /* \"#utility.yul\":5367:5613   */\n      pop\n      pop\n      pop\n      jump\t// out\n        /* \"#utility.yul\":5619:5996   */\n    tag_71:\n        /* \"#utility.yul\":5707:5710   */\n      0x00\n        /* \"#utility.yul\":5735:5774   */\n      tag_154\n        /* \"#utility.yul\":5768:5773   */\n      dup3\n        /* \"#utility.yul\":5735:5774   */\n      tag_68\n      jump\t// in\n    tag_154:\n        /* \"#utility.yul\":5790:5861   */\n      tag_155\n        /* \"#utility.yul\":5854:5860   */\n      dup2\n        /* \"#utility.yul\":5849:5852   */\n      dup6\n        /* \"#utility.yul\":5790:5861   */\n      tag_69\n      jump\t// in\n    tag_155:\n        /* \"#utility.yul\":5783:5861   */\n      swap4\n      pop\n        /* \"#utility.yul\":5870:5935   */\n      tag_156\n        /* \"#utility.yul\":5928:5934   */\n      dup2\n        /* \"#utility.yul\":5923:5926   */\n      dup6\n        /* \"#utility.yul\":5916:5920   */\n      0x20\n        /* \"#utility.yul\":5909:5914   */\n      dup7\n        /* \"#utility.yul\":5905:5921   */\n      add\n        /* \"#utility.yul\":5870:5935   */\n      tag_70\n      jump\t// in\n    tag_156:\n        /* \"#utility.yul\":5960:5989   */\n      tag_157\n        /* \"#utility.yul\":5982:5988   */\n      dup2\n        /* \"#utility.yul\":5960:5989   */\n      tag_58\n      jump\t// in\n    tag_157:\n        /* \"#utility.yul\":5955:5958   */\n      dup5\n        /* \"#utility.yul\":5951:5990   */\n      add\n        /* \"#utility.yul\":5944:5990   */\n      swap2\n      pop\n        /* \"#utility.yul\":5711:5996   */\n      pop\n        /* \"#utility.yul\":5619:5996   */\n      swap3\n      swap2\n      pop\n      pop\n      jump\t// out\n        /* \"#utility.yul\":6002:6919   */\n    tag_19:\n        /* \"#utility.yul\":6259:6263   */\n      0x00\n        /* \"#utility.yul\":6297:6300   */\n      0x80\n        /* \"#utility.yul\":6286:6295   */\n      dup3\n        /* \"#utility.yul\":6282:6301   */\n      add\n        /* \"#utility.yul\":6274:6301   */\n      swap1\n      pop\n        /* \"#utility.yul\":6347:6356   */\n      dup2\n        /* \"#utility.yul\":6341:6345   */\n      dup2\n        /* \"#utility.yul\":6337:6357   */\n      sub\n        /* \"#utility.yul\":6333:6334   */\n      0x00\n        /* \"#utility.yul\":6322:6331   */\n      dup4\n        /* \"#utility.yul\":6318:6335   */\n      add\n        /* \"#utility.yul\":6311:6358   */\n      mstore\n        /* \"#utility.yul\":6375:6453   */\n      tag_159\n        /* \"#utility.yul\":6448:6452   */\n      dup2\n        /* \"#utility.yul\":6439:6445   */\n      dup8\n        /* \"#utility.yul\":6375:6453   */\n      tag_71\n      jump\t// in\n    tag_159:\n        /* \"#utility.yul\":6367:6453   */\n      swap1\n      pop\n        /* \"#utility.yul\":6500:6509   */\n      dup2\n        /* \"#utility.yul\":6494:6498   */\n      dup2\n        /* \"#utility.yul\":6490:6510   */\n      sub\n        /* \"#utility.yul\":6485:6487   */\n      0x20\n        /* \"#utility.yul\":6474:6483   */\n      dup4\n        /* \"#utility.yul\":6470:6488   */\n      add\n        /* \"#utility.yul\":6463:6511   */\n      mstore\n        /* \"#utility.yul\":6528:6606   */\n      tag_160\n        /* \"#utility.yul\":6601:6605   */\n      dup2\n        /* \"#utility.yul\":6592:6598   */\n      dup7\n        /* \"#utility.yul\":6528:6606   */\n      tag_71\n      jump\t// in\n    tag_160:\n        /* \"#utility.yul\":6520:6606   */\n      swap1\n      pop\n        /* \"#utility.yul\":6653:6662   */\n      dup2\n        /* \"#utility.yul\":6647:6651   */\n      dup2\n        /* \"#utility.yul\":6643:6663   */\n      sub\n        /* \"#utility.yul\":6638:6640   */\n      0x40\n        /* \"#utility.yul\":6627:6636   */\n      dup4\n        /* \"#utility.yul\":6623:6641   */\n      add\n        /* \"#utility.yul\":6616:6664   */\n      mstore\n        /* \"#utility.yul\":6681:6759   */\n      tag_161\n        /* \"#utility.yul\":6754:6758   */\n      dup2\n        /* \"#utility.yul\":6745:6751   */\n      dup6\n        /* \"#utility.yul\":6681:6759   */\n      tag_71\n      jump\t// in\n    tag_161:\n        /* \"#utility.yul\":6673:6759   */\n      swap1\n      pop\n        /* \"#utility.yul\":6806:6815   */\n      dup2\n        /* \"#utility.yul\":6800:6804   */\n      dup2\n        /* \"#utility.yul\":6796:6816   */\n      sub\n        /* \"#utility.yul\":6791:6793   */\n      0x60\n        /* \"#utility.yul\":6780:6789   */\n      dup4\n        /* \"#utility.yul\":6776:6794   */\n      add\n        /* \"#utility.yul\":6769:6817   */\n      mstore\n        /* \"#utility.yul\":6834:6912   */\n      tag_162\n        /* \"#utility.yul\":6907:6911   */\n      dup2\n        /* \"#utility.yul\":6898:6904   */\n      dup5\n        /* \"#utility.yul\":6834:6912   */\n      tag_71\n      jump\t// in\n    tag_162:\n        /* \"#utility.yul\":6826:6912   */\n      swap1\n      pop\n        /* \"#utility.yul\":6002:6919   */\n      swap6\n      swap5\n      pop\n      pop\n      pop\n      pop\n      pop\n      jump\t// out\n        /* \"#utility.yul\":6925:7105   */\n    tag_72:\n        /* \"#utility.yul\":6973:7050   */\n      0x4e487b7100000000000000000000000000000000000000000000000000000000\n        /* \"#utility.yul\":6970:6971   */\n      0x00\n        /* \"#utility.yul\":6963:7051   */\n      mstore\n        /* \"#utility.yul\":7070:7074   */\n      0x22\n        /* \"#utility.yul\":7067:7068   */\n      0x04\n        /* \"#utility.yul\":7060:7075   */\n      mstore\n        /* \"#utility.yul\":7094:7098   */\n      0x24\n        /* \"#utility.yul\":7091:7092   */\n      0x00\n        /* \"#utility.yul\":7084:7099   */\n      revert\n        /* \"#utility.yul\":7111:7431   */\n    tag_31:\n        /* \"#utility.yul\":7155:7161   */\n      0x00\n        /* \"#utility.yul\":7192:7193   */\n      0x02\n        /* \"#utility.yul\":7186:7190   */\n      dup3\n        /* \"#utility.yul\":7182:7194   */\n      div\n        /* \"#utility.yul\":7172:7194   */\n      swap1\n      pop\n        /* \"#utility.yul\":7239:7240   */\n      0x01\n        /* \"#utility.yul\":7233:7237   */\n      dup3\n        /* \"#utility.yul\":7229:7241   */\n      and\n        /* \"#utility.yul\":7260:7278   */\n      dup1\n        /* \"#utility.yul\":7250:7331   */\n      tag_165\n      jumpi\n        /* \"#utility.yul\":7316:7320   */\n      0x7f\n        /* \"#utility.yul\":7308:7314   */\n      dup3\n        /* \"#utility.yul\":7304:7321   */\n      and\n        /* \"#utility.yul\":7294:7321   */\n      swap2\n      pop\n        /* \"#utility.yul\":7250:7331   */\n    tag_165:\n        /* \"#utility.yul\":7378:7380   */\n      0x20\n        /* \"#utility.yul\":7370:7376   */\n      dup3\n        /* \"#utility.yul\":7367:7381   */\n      lt\n        /* \"#utility.yul\":7347:7365   */\n      dup2\n        /* \"#utility.yul\":7344:7382   */\n      sub\n        /* \"#utility.yul\":7341:7425   */\n      tag_166\n      jumpi\n        /* \"#utility.yul\":7397:7415   */\n      tag_167\n      tag_72\n      jump\t// in\n    tag_167:\n        /* \"#utility.yul\":7341:7425   */\n    tag_166:\n        /* \"#utility.yul\":7162:7431   */\n      pop\n        /* \"#utility.yul\":7111:7431   */\n      swap2\n      swap1\n      pop\n      jump\t// out\n        /* \"#utility.yul\":7437:7578   */\n    tag_73:\n        /* \"#utility.yul\":7486:7490   */\n      0x00\n        /* \"#utility.yul\":7509:7512   */\n      dup2\n        /* \"#utility.yul\":7501:7512   */\n      swap1\n      pop\n        /* \"#utility.yul\":7532:7535   */\n      dup2\n        /* \"#utility.yul\":7529:7530   */\n      0x00\n        /* \"#utility.yul\":7522:7536   */\n      mstore\n        /* \"#utility.yul\":7566:7570   */\n      0x20\n        /* \"#utility.yul\":7563:7564   */\n      0x00\n        /* \"#utility.yul\":7553:7571   */\n      keccak256\n        /* \"#utility.yul\":7545:7571   */\n      swap1\n      pop\n        /* \"#utility.yul\":7437:7578   */\n      swap2\n      swap1\n      pop\n      jump\t// out\n        /* \"#utility.yul\":7584:7677   */\n    tag_74:\n        /* \"#utility.yul\":7621:7627   */\n      0x00\n        /* \"#utility.yul\":7668:7670   */\n      0x20\n        /* \"#utility.yul\":7663:7665   */\n      0x1f\n        /* \"#utility.yul\":7656:7661   */\n      dup4\n        /* \"#utility.yul\":7652:7666   */\n      add\n        /* \"#utility.yul\":7648:7671   */\n      div\n        /* \"#utility.yul\":7638:7671   */\n      swap1\n      pop\n        /* \"#utility.yul\":7584:7677   */\n      swap2\n      swap1\n      pop\n      jump\t// out\n        /* \"#utility.yul\":7683:7790   */\n    tag_75:\n        /* \"#utility.yul\":7727:7735   */\n      0x00\n        /* \"#utility.yul\":7777:7782   */\n      dup3\n        /* \"#utility.yul\":7771:7775   */\n      dup3\n        /* \"#utility.yul\":7767:7783   */\n      shl\n        /* \"#utility.yul\":7746:7783   */\n      swap1\n      pop\n        /* \"#utility.yul\":7683:7790   */\n      swap3\n      swap2\n      pop\n      pop\n      jump\t// out\n        /* \"#utility.yul\":7796:8189   */\n    tag_76:\n        /* \"#utility.yul\":7865:7871   */\n      0x00\n        /* \"#utility.yul\":7915:7916   */\n      0x08\n        /* \"#utility.yul\":7903:7913   */\n      dup4\n        /* \"#utility.yul\":7899:7917   */\n      mul\n        /* \"#utility.yul\":7938:8035   */\n      tag_172\n        /* \"#utility.yul\":7968:8034   */\n      0xffffffffffffffffffffffffffffffffffffffffffffffffffffffffffffffff\n        /* \"#utility.yul\":7957:7966   */\n      dup3\n        /* \"#utility.yul\":7938:8035   */\n      tag_75\n      jump\t// in\n    tag_172:\n        /* \"#utility.yul\":8056:8095   */\n      tag_173\n        /* \"#utility.yul\":8086:8094   */\n      dup7\n        /* \"#utility.yul\":8075:8084   */\n      dup4\n        /* \"#utility.yul\":8056:8095   */\n      tag_75\n      jump\t// in\n    tag_173:\n        /* \"#utility.yul\":8044:8095   */\n      swap6\n      pop\n        /* \"#utility.yul\":8128:8132   */\n      dup1\n        /* \"#utility.yul\":8124:8133   */\n      not\n        /* \"#utility.yul\":8117:8122   */\n      dup5\n        /* \"#utility.yul\":8113:8134   */\n      and\n        /* \"#utility.yul\":8104:8134   */\n      swap4\n      pop\n        /* \"#utility.yul\":8177:8181   */\n      dup1\n        /* \"#utility.yul\":8167:8175   */\n      dup7\n        /* \"#utility.yul\":8163:8182   */\n      and\n        /* \"#utility.yul\":8156:8161   */\n      dup5\n        /* \"#utility.yul\":8153:8183   */\n      or\n        /* \"#utility.yul\":8143:8183   */\n      swap3\n      pop\n        /* \"#utility.yul\":7872:8189   */\n      pop\n      pop\n        /* \"#utility.yul\":7796:8189   */\n      swap4\n      swap3\n      pop\n      pop\n      pop\n      jump\t// out\n        /* \"#utility.yul\":8195:8255   */\n    tag_77:\n        /* \"#utility.yul\":8223:8226   */\n      0x00\n        /* \"#utility.yul\":8244:8249   */\n      dup2\n        /* \"#utility.yul\":8237:8249   */\n      swap1\n      pop\n        /* \"#utility.yul\":8195:8255   */\n      swap2\n      swap1\n      pop\n      jump\t// out\n        /* \"#utility.yul\":8261:8403   */\n    tag_78:\n        /* \"#utility.yul\":8311:8320   */\n      0x00\n        /* \"#utility.yul\":8344:8397   */\n      tag_176\n        /* \"#utility.yul\":8362:8396   */\n      tag_177\n        /* \"#utility.yul\":8371:8395   */\n      tag_178\n        /* \"#utility.yul\":8389:8394   */\n      dup5\n        /* \"#utility.yul\":8371:8395   */\n      tag_51\n      jump\t// in\n    tag_178:\n        /* \"#utility.yul\":8362:8396   */\n      tag_77\n      jump\t// in\n    tag_177:\n        /* \"#utility.yul\":8344:8397   */\n      tag_51\n      jump\t// in\n    tag_176:\n        /* \"#utility.yul\":8331:8397   */\n      swap1\n      pop\n        /* \"#utility.yul\":8261:8403   */\n      swap2\n      swap1\n      pop\n      jump\t// out\n        /* \"#utility.yul\":8409:8484   */\n    tag_79:\n        /* \"#utility.yul\":8452:8455   */\n      0x00\n        /* \"#utility.yul\":8473:8478   */\n      dup2\n        /* \"#utility.yul\":8466:8478   */\n      swap1\n      pop\n        /* \"#utility.yul\":8409:8484   */\n      swap2\n      swap1\n      pop\n      jump\t// out\n        /* \"#utility.yul\":8490:8759   */\n    tag_80:\n        /* \"#utility.yul\":8600:8639   */\n      tag_181\n        /* \"#utility.yul\":8631:8638   */\n      dup4\n        /* \"#utility.yul\":8600:8639   */\n      tag_78\n      jump\t// in\n    tag_181:\n        /* \"#utility.yul\":8661:8752   */\n      tag_182\n        /* \"#utility.yul\":8710:8751   */\n      tag_183\n        /* \"#utility.yul\":8734:8750   */\n      dup3\n        /* \"#utility.yul\":8710:8751   */\n      tag_79\n      jump\t// in\n    tag_183:\n        /* \"#utility.yul\":8702:8708   */\n      dup5\n        /* \"#utility.yul\":8695:8699   */\n      dup5\n        /* \"#utility.yul\":8689:8700   */\n      sload\n        /* \"#utility.yul\":8661:8752   */\n      tag_76\n      jump\t// in\n    tag_182:\n        /* \"#utility.yul\":8655:8659   */\n      dup3\n        /* \"#utility.yul\":8648:8753   */\n      sstore\n        /* \"#utility.yul\":8566:8759   */\n      pop\n        /* \"#utility.yul\":8490:8759   */\n      pop\n      pop\n      pop\n      jump\t// out\n        /* \"#utility.yul\":8765:8838   */\n    tag_81:\n        /* \"#utility.yul\":8810:8813   */\n      0x00\n        /* \"#utility.yul\":8765:8838   */\n      swap1\n      jump\t// out\n        /* \"#utility.yul\":8844:9033   */\n    tag_82:\n        /* \"#utility.yul\":8921:8953   */\n      tag_186\n      tag_81\n      jump\t// in\n    tag_186:\n        /* \"#utility.yul\":8962:9027   */\n      tag_187\n        /* \"#utility.yul\":9020:9026   */\n      dup2\n        /* \"#utility.yul\":9012:9018   */\n      dup5\n        /* \"#utility.yul\":9006:9010   */\n      dup5\n        /* \"#utility.yul\":8962:9027   */\n      tag_80\n      jump\t// in\n    tag_187:\n        /* \"#utility.yul\":8897:9033   */\n      pop\n        /* \"#utility.yul\":8844:9033   */\n      pop\n      pop\n      jump\t// out\n        /* \"#utility.yul\":9039:9225   */\n    tag_83:\n        /* \"#utility.yul\":9099:9219   */\n    tag_189:\n        /* \"#utility.yul\":9116:9119   */\n      dup2\n        /* \"#utility.yul\":9109:9114   */\n      dup2\n        /* \"#utility.yul\":9106:9120   */\n      lt\n        /* \"#utility.yul\":9099:9219   */\n      iszero\n      tag_191\n      jumpi\n        /* \"#utility.yul\":9170:9209   */\n      tag_192\n        /* \"#utility.yul\":9207:9208   */\n      0x00\n        /* \"#utility.yul\":9200:9205   */\n      dup3\n        /* \"#utility.yul\":9170:9209   */\n      tag_82\n      jump\t// in\n    tag_192:\n        /* \"#utility.yul\":9143:9144   */\n      0x01\n        /* \"#utility.yul\":9136:9141   */\n      dup2\n        /* \"#utility.yul\":9132:9145   */\n      add\n        /* \"#utility.yul\":9123:9145   */\n      swap1\n      pop\n        /* \"#utility.yul\":9099:9219   */\n      jump(tag_189)\n    tag_191:\n        /* \"#utility.yul\":9039:9225   */\n      pop\n      pop\n      jump\t// out\n        /* \"#utility.yul\":9231:9774   */\n    tag_84:\n        /* \"#utility.yul\":9332:9334   */\n      0x1f\n        /* \"#utility.yul\":9327:9330   */\n      dup3\n        /* \"#utility.yul\":9324:9335   */\n      gt\n        /* \"#utility.yul\":9321:9767   */\n      iszero\n      tag_194\n      jumpi\n        /* \"#utility.yul\":9366:9404   */\n      tag_195\n        /* \"#utility.yul\":9398:9403   */\n      dup2\n        /* \"#utility.yul\":9366:9404   */\n      tag_73\n      jump\t// in\n    tag_195:\n        /* \"#utility.yul\":9450:9479   */\n      tag_196\n        /* \"#utility.yul\":9468:9478   */\n      dup5\n        /* \"#utility.yul\":9450:9479   */\n      tag_74\n      jump\t// in\n    tag_196:\n        /* \"#utility.yul\":9440:9448   */\n      dup2\n        /* \"#utility.yul\":9436:9480   */\n      add\n        /* \"#utility.yul\":9633:9635   */\n      0x20\n        /* \"#utility.yul\":9621:9631   */\n      dup6\n        /* \"#utility.yul\":9618:9636   */\n      lt\n        /* \"#utility.yul\":9615:9664   */\n      iszero\n      tag_197\n      jumpi\n        /* \"#utility.yul\":9654:9662   */\n      dup2\n        /* \"#utility.yul\":9639:9662   */\n      swap1\n      pop\n        /* \"#utility.yul\":9615:9664   */\n    tag_197:\n        /* \"#utility.yul\":9677:9757   */\n      tag_198\n        /* \"#utility.yul\":9733:9755   */\n      tag_199\n        /* \"#utility.yul\":9751:9754   */\n      dup6\n        /* \"#utility.yul\":9733:9755   */\n      tag_74\n      jump\t// in\n    tag_199:\n        /* \"#utility.yul\":9723:9731   */\n      dup4\n        /* \"#utility.yul\":9719:9756   */\n      add\n        /* \"#utility.yul\":9706:9717   */\n      dup3\n        /* \"#utility.yul\":9677:9757   */\n      tag_83\n      jump\t// in\n    tag_198:\n        /* \"#utility.yul\":9336:9767   */\n      pop\n      pop\n        /* \"#utility.yul\":9321:9767   */\n    tag_194:\n        /* \"#utility.yul\":9231:9774   */\n      pop\n      pop\n      pop\n      jump\t// out\n        /* \"#utility.yul\":9780:9897   */\n    tag_85:\n        /* \"#utility.yul\":9834:9842   */\n      0x00\n        /* \"#utility.yul\":9884:9889   */\n      dup3\n        /* \"#utility.yul\":9878:9882   */\n      dup3\n        /* \"#utility.yul\":9874:9890   */\n      shr\n        /* \"#utility.yul\":9853:9890   */\n      swap1\n      pop\n        /* \"#utility.yul\":9780:9897   */\n      swap3\n      swap2\n      pop\n      pop\n      jump\t// out\n        /* \"#utility.yul\":9903:10072   */\n    tag_86:\n        /* \"#utility.yul\":9947:9953   */\n      0x00\n        /* \"#utility.yul\":9980:10031   */\n      tag_202\n        /* \"#utility.yul\":10028:10029   */\n      0x00\n        /* \"#utility.yul\":10024:10030   */\n      not\n        /* \"#utility.yul\":10016:10021   */\n      dup5\n        /* \"#utility.yul\":10013:10014   */\n      0x08\n        /* \"#utility.yul\":10009:10022   */\n      mul\n        /* \"#utility.yul\":9980:10031   */\n      tag_85\n      jump\t// in\n    tag_202:\n        /* \"#utility.yul\":9976:10032   */\n      not\n        /* \"#utility.yul\":10061:10065   */\n      dup1\n        /* \"#utility.yul\":10055:10059   */\n      dup4\n        /* \"#utility.yul\":10051:10066   */\n      and\n        /* \"#utility.yul\":10041:10066   */\n      swap2\n      pop\n        /* \"#utility.yul\":9954:10072   */\n      pop\n        /* \"#utility.yul\":9903:10072   */\n      swap3\n      swap2\n      pop\n      pop\n      jump\t// out\n        /* \"#utility.yul\":10077:10372   */\n    tag_87:\n        /* \"#utility.yul\":10153:10157   */\n      0x00\n        /* \"#utility.yul\":10299:10328   */\n      tag_204\n        /* \"#utility.yul\":10324:10327   */\n      dup4\n        /* \"#utility.yul\":10318:10322   */\n      dup4\n        /* \"#utility.yul\":10299:10328   */\n      tag_86\n      jump\t// in\n    tag_204:\n        /* \"#utility.yul\":10291:10328   */\n      swap2\n      pop\n        /* \"#utility.yul\":10361:10364   */\n      dup3\n        /* \"#utility.yul\":10358:10359   */\n      0x02\n        /* \"#utility.yul\":10354:10365   */\n      mul\n        /* \"#utility.yul\":10348:10352   */\n      dup3\n        /* \"#utility.yul\":10345:10366   */\n      or\n        /* \"#utility.yul\":10337:10366   */\n      swap1\n      pop\n        /* \"#utility.yul\":10077:10372   */\n      swap3\n      swap2\n      pop\n      pop\n      jump\t// out\n        /* \"#utility.yul\":10377:11772   */\n    tag_24:\n        /* \"#utility.yul\":10494:10531   */\n      tag_206\n        /* \"#utility.yul\":10527:10530   */\n      dup3\n        /* \"#utility.yul\":10494:10531   */\n      tag_68\n      jump\t// in\n    tag_206:\n        /* \"#utility.yul\":10596:10614   */\n      0xffffffffffffffff\n        /* \"#utility.yul\":10588:10594   */\n      dup2\n        /* \"#utility.yul\":10585:10615   */\n      gt\n        /* \"#utility.yul\":10582:10638   */\n      iszero\n      tag_207\n      jumpi\n        /* \"#utility.yul\":10618:10636   */\n      tag_208\n      tag_59\n      jump\t// in\n    tag_208:\n        /* \"#utility.yul\":10582:10638   */\n    tag_207:\n        /* \"#utility.yul\":10662:10700   */\n      tag_209\n        /* \"#utility.yul\":10694:10698   */\n      dup3\n        /* \"#utility.yul\":10688:10699   */\n      sload\n        /* \"#utility.yul\":10662:10700   */\n      tag_31\n      jump\t// in\n    tag_209:\n        /* \"#utility.yul\":10747:10814   */\n      tag_210\n        /* \"#utility.yul\":10807:10813   */\n      dup3\n        /* \"#utility.yul\":10799:10805   */\n      dup3\n        /* \"#utility.yul\":10793:10797   */\n      dup6\n        /* \"#utility.yul\":10747:10814   */\n      tag_84\n      jump\t// in\n    tag_210:\n        /* \"#utility.yul\":10841:10842   */\n      0x00\n        /* \"#utility.yul\":10865:10869   */\n      0x20\n        /* \"#utility.yul\":10852:10869   */\n      swap1\n      pop\n        /* \"#utility.yul\":10897:10899   */\n      0x1f\n        /* \"#utility.yul\":10889:10895   */\n      dup4\n        /* \"#utility.yul\":10886:10900   */\n      gt\n        /* \"#utility.yul\":10914:10915   */\n      0x01\n        /* \"#utility.yul\":10909:11527   */\n      dup2\n      eq\n      tag_212\n      jumpi\n        /* \"#utility.yul\":11571:11572   */\n      0x00\n        /* \"#utility.yul\":11588:11594   */\n      dup5\n        /* \"#utility.yul\":11585:11662   */\n      iszero\n      tag_213\n      jumpi\n        /* \"#utility.yul\":11637:11646   */\n      dup3\n        /* \"#utility.yul\":11632:11635   */\n      dup8\n        /* \"#utility.yul\":11628:11647   */\n      add\n        /* \"#utility.yul\":11622:11648   */\n      mload\n        /* \"#utility.yul\":11613:11648   */\n      swap1\n      pop\n        /* \"#utility.yul\":11585:11662   */\n    tag_213:\n        /* \"#utility.yul\":11688:11755   */\n      tag_214\n        /* \"#utility.yul\":11748:11754   */\n      dup6\n        /* \"#utility.yul\":11741:11746   */\n      dup3\n        /* \"#utility.yul\":11688:11755   */\n      tag_87\n      jump\t// in\n    tag_214:\n        /* \"#utility.yul\":11682:11686   */\n      dup7\n        /* \"#utility.yul\":11675:11756   */\n      sstore\n        /* \"#utility.yul\":11544:11766   */\n      pop\n        /* \"#utility.yul\":10879:11766   */\n      jump(tag_211)\n        /* \"#utility.yul\":10909:11527   */\n    tag_212:\n        /* \"#utility.yul\":10961:10965   */\n      0x1f\n        /* \"#utility.yul\":10957:10966   */\n      not\n        /* \"#utility.yul\":10949:10955   */\n      dup5\n        /* \"#utility.yul\":10945:10967   */\n      and\n        /* \"#utility.yul\":10995:11032   */\n      tag_215\n        /* \"#utility.yul\":11027:11031   */\n      dup7\n        /* \"#utility.yul\":10995:11032   */\n      tag_73\n      jump\t// in\n    tag_215:\n        /* \"#utility.yul\":11054:11055   */\n      0x00\n        /* \"#utility.yul\":11068:11276   */\n    tag_216:\n        /* \"#utility.yul\":11082:11089   */\n      dup3\n        /* \"#utility.yul\":11079:11080   */\n      dup2\n        /* \"#utility.yul\":11076:11090   */\n      lt\n        /* \"#utility.yul\":11068:11276   */\n      iszero\n      tag_218\n      jumpi\n        /* \"#utility.yul\":11161:11170   */\n      dup5\n        /* \"#utility.yul\":11156:11159   */\n      dup10\n        /* \"#utility.yul\":11152:11171   */\n      add\n        /* \"#utility.yul\":11146:11172   */\n      mload\n        /* \"#utility.yul\":11138:11144   */\n      dup3\n        /* \"#utility.yul\":11131:11173   */\n      sstore\n        /* \"#utility.yul\":11212:11213   */\n      0x01\n        /* \"#utility.yul\":11204:11210   */\n      dup3\n        /* \"#utility.yul\":11200:11214   */\n      add\n        /* \"#utility.yul\":11190:11214   */\n      swap2\n      pop\n        /* \"#utility.yul\":11259:11261   */\n      0x20\n        /* \"#utility.yul\":11248:11257   */\n      dup6\n        /* \"#utility.yul\":11244:11262   */\n      add\n        /* \"#utility.yul\":11231:11262   */\n      swap5\n      pop\n        /* \"#utility.yul\":11105:11109   */\n      0x20\n        /* \"#utility.yul\":11102:11103   */\n      dup2\n        /* \"#utility.yul\":11098:11110   */\n      add\n        /* \"#utility.yul\":11093:11110   */\n      swap1\n      pop\n        /* \"#utility.yul\":11068:11276   */\n      jump(tag_216)\n    tag_218:\n        /* \"#utility.yul\":11304:11310   */\n      dup7\n        /* \"#utility.yul\":11295:11302   */\n      dup4\n        /* \"#utility.yul\":11292:11311   */\n      lt\n        /* \"#utility.yul\":11289:11468   */\n      iszero\n      tag_219\n      jumpi\n        /* \"#utility.yul\":11362:11371   */\n      dup5\n        /* \"#utility.yul\":11357:11360   */\n      dup10\n        /* \"#utility.yul\":11353:11372   */\n      add\n        /* \"#utility.yul\":11347:11373   */\n      mload\n        /* \"#utility.yul\":11405:11453   */\n      tag_220\n        /* \"#utility.yul\":11447:11451   */\n      0x1f\n        /* \"#utility.yul\":11439:11445   */\n      dup10\n        /* \"#utility.yul\":11435:11452   */\n      and\n        /* \"#utility.yul\":11424:11433   */\n      dup3\n        /* \"#utility.yul\":11405:11453   */\n      tag_86\n      jump\t// in\n    tag_220:\n        /* \"#utility.yul\":11397:11403   */\n      dup4\n        /* \"#utility.yul\":11390:11454   */\n      sstore\n        /* \"#utility.yul\":11312:11468   */\n      pop\n        /* \"#utility.yul\":11289:11468   */\n    tag_219:\n        /* \"#utility.yul\":11514:11515   */\n      0x01\n        /* \"#utility.yul\":11510:11511   */\n      0x02\n        /* \"#utility.yul\":11502:11508   */\n      dup9\n        /* \"#utility.yul\":11498:11512   */\n      mul\n        /* \"#utility.yul\":11494:11516   */\n      add\n        /* \"#utility.yul\":11488:11492   */\n      dup9\n        /* \"#utility.yul\":11481:11517   */\n      sstore\n        /* \"#utility.yul\":10916:11527   */\n      pop\n      pop\n      pop\n        /* \"#utility.yul\":10879:11766   */\n    tag_211:\n      pop\n        /* \"#utility.yul\":10469:11772   */\n      pop\n      pop\n      pop\n        /* \"#utility.yul\":10377:11772   */\n      pop\n      pop\n      jump\t// out\n\n    auxdata: 0xa2646970667358221220cca32584019581feff58741945b40f2ad3cccbd970a5f96136cc69e9141567b664736f6c63430008180033\n}\n",
				"bytecode": {
					"linkReferences": {},
					"object": "608060405234801561000f575f80fd5b50610a328061001d5f395ff3fe608060405234801561000f575f80fd5b506004361061003f575f3560e01c80635517c1a9146100435780638af391a314610061578063e79899bd1461007d575b5f80fd5b61004b6100b0565b60405161005891906103cb565b60405180910390f35b61007b60048036038101906100769190610531565b6100bb565b005b6100976004803603810190610092919061062f565b610161565b6040516100a794939291906106d4565b60405180910390f35b5f8080549050905090565b5f604051806080016040528086815260200185815260200184815260200183815250908060018154018082558091505060019003905f5260205f2090600402015f909190919091505f820151815f019081610116919061092d565b50602082015181600101908161012c919061092d565b506040820151816002019081610142919061092d565b506060820151816003019081610158919061092d565b50505050505050565b5f818154811061016f575f80fd5b905f5260205f2090600402015f91509050805f01805461018e90610760565b80601f01602080910402602001604051908101604052809291908181526020018280546101ba90610760565b80156102055780601f106101dc57610100808354040283529160200191610205565b820191905f5260205f20905b8154815290600101906020018083116101e857829003601f168201915b50505050509080600101805461021a90610760565b80601f016020809104026020016040519081016040528092919081815260200182805461024690610760565b80156102915780601f1061026857610100808354040283529160200191610291565b820191905f5260205f20905b81548152906001019060200180831161027457829003601f168201915b5050505050908060020180546102a690610760565b80601f01602080910402602001604051908101604052809291908181526020018280546102d290610760565b801561031d5780601f106102f45761010080835404028352916020019161031d565b820191905f5260205f20905b81548152906001019060200180831161030057829003601f168201915b50505050509080600301805461033290610760565b80601f016020809104026020016040519081016040528092919081815260200182805461035e90610760565b80156103a95780601f10610380576101008083540402835291602001916103a9565b820191905f5260205f20905b81548152906001019060200180831161038c57829003601f168201915b5050505050905084565b5f819050919050565b6103c5816103b3565b82525050565b5f6020820190506103de5f8301846103bc565b92915050565b5f604051905090565b5f80fd5b5f80fd5b5f80fd5b5f80fd5b5f601f19601f8301169050919050565b7f4e487b71000000000000000000000000000000000000000000000000000000005f52604160045260245ffd5b610443826103fd565b810181811067ffffffffffffffff821117156104625761046161040d565b5b80604052505050565b5f6104746103e4565b9050610480828261043a565b919050565b5f67ffffffffffffffff82111561049f5761049e61040d565b5b6104a8826103fd565b9050602081019050919050565b828183375f83830152505050565b5f6104d56104d084610485565b61046b565b9050828152602081018484840111156104f1576104f06103f9565b5b6104fc8482856104b5565b509392505050565b5f82601f830112610518576105176103f5565b5b81356105288482602086016104c3565b91505092915050565b5f805f8060808587031215610549576105486103ed565b5b5f85013567ffffffffffffffff811115610566576105656103f1565b5b61057287828801610504565b945050602085013567ffffffffffffffff811115610593576105926103f1565b5b61059f87828801610504565b935050604085013567ffffffffffffffff8111156105c0576105bf6103f1565b5b6105cc87828801610504565b925050606085013567ffffffffffffffff8111156105ed576105ec6103f1565b5b6105f987828801610504565b91505092959194509250565b61060e816103b3565b8114610618575f80fd5b50565b5f8135905061062981610605565b92915050565b5f60208284031215610644576106436103ed565b5b5f6106518482850161061b565b91505092915050565b5f81519050919050565b5f82825260208201905092915050565b5f5b83811015610691578082015181840152602081019050610676565b5f8484015250505050565b5f6106a68261065a565b6106b08185610664565b93506106c0818560208601610674565b6106c9816103fd565b840191505092915050565b5f6080820190508181035f8301526106ec818761069c565b90508181036020830152610700818661069c565b90508181036040830152610714818561069c565b90508181036060830152610728818461069c565b905095945050505050565b7f4e487b71000000000000000000000000000000000000000000000000000000005f52602260045260245ffd5b5f600282049050600182168061077757607f821691505b60208210810361078a57610789610733565b5b50919050565b5f819050815f5260205f209050919050565b5f6020601f8301049050919050565b5f82821b905092915050565b5f600883026107ec7fffffffffffffffffffffffffffffffffffffffffffffffffffffffffffffffff826107b1565b6107f686836107b1565b95508019841693508086168417925050509392505050565b5f819050919050565b5f61083161082c610827846103b3565b61080e565b6103b3565b9050919050565b5f819050919050565b61084a83610817565b61085e61085682610838565b8484546107bd565b825550505050565b5f90565b610872610866565b61087d818484610841565b505050565b5b818110156108a0576108955f8261086a565b600181019050610883565b5050565b601f8211156108e5576108b681610790565b6108bf846107a2565b810160208510156108ce578190505b6108e26108da856107a2565b830182610882565b50505b505050565b5f82821c905092915050565b5f6109055f19846008026108ea565b1980831691505092915050565b5f61091d83836108f6565b9150826002028217905092915050565b6109368261065a565b67ffffffffffffffff81111561094f5761094e61040d565b5b6109598254610760565b6109648282856108a4565b5f60209050601f831160018114610995575f8415610983578287015190505b61098d8582610912565b8655506109f4565b601f1984166109a386610790565b5f5b828110156109ca578489015182556001820191506020850194506020810190506109a5565b868310156109e757848901516109e3601f8916826108f6565b8355505b6001600288020188555050505b50505050505056fea2646970667358221220cca32584019581feff58741945b40f2ad3cccbd970a5f96136cc69e9141567b664736f6c63430008180033",
					"opcodes": "PUSH1 0x80 PUSH1 0x40 MSTORE CALLVALUE DUP1 ISZERO PUSH2 0xF JUMPI PUSH0 DUP1 REVERT JUMPDEST POP PUSH2 0xA32 DUP1 PUSH2 0x1D PUSH0 CODECOPY PUSH0 RETURN INVALID PUSH1 0x80 PUSH1 0x40 MSTORE CALLVALUE DUP1 ISZERO PUSH2 0xF JUMPI PUSH0 DUP1 REVERT JUMPDEST POP PUSH1 0x4 CALLDATASIZE LT PUSH2 0x3F JUMPI PUSH0 CALLDATALOAD PUSH1 0xE0 SHR DUP1 PUSH4 0x5517C1A9 EQ PUSH2 0x43 JUMPI DUP1 PUSH4 0x8AF391A3 EQ PUSH2 0x61 JUMPI DUP1 PUSH4 0xE79899BD EQ PUSH2 0x7D JUMPI JUMPDEST PUSH0 DUP1 REVERT JUMPDEST PUSH2 0x4B PUSH2 0xB0 JUMP JUMPDEST PUSH1 0x40 MLOAD PUSH2 0x58 SWAP2 SWAP1 PUSH2 0x3CB JUMP JUMPDEST PUSH1 0x40 MLOAD DUP1 SWAP2 SUB SWAP1 RETURN JUMPDEST PUSH2 0x7B PUSH1 0x4 DUP1 CALLDATASIZE SUB DUP2 ADD SWAP1 PUSH2 0x76 SWAP2 SWAP1 PUSH2 0x531 JUMP JUMPDEST PUSH2 0xBB JUMP JUMPDEST STOP JUMPDEST PUSH2 0x97 PUSH1 0x4 DUP1 CALLDATASIZE SUB DUP2 ADD SWAP1 PUSH2 0x92 SWAP2 SWAP1 PUSH2 0x62F JUMP JUMPDEST PUSH2 0x161 JUMP JUMPDEST PUSH1 0x40 MLOAD PUSH2 0xA7 SWAP5 SWAP4 SWAP3 SWAP2 SWAP1 PUSH2 0x6D4 JUMP JUMPDEST PUSH1 0x40 MLOAD DUP1 SWAP2 SUB SWAP1 RETURN JUMPDEST PUSH0 DUP1 DUP1 SLOAD SWAP1 POP SWAP1 POP SWAP1 JUMP JUMPDEST PUSH0 PUSH1 0x40 MLOAD DUP1 PUSH1 0x80 ADD PUSH1 0x40 MSTORE DUP1 DUP7 DUP2 MSTORE PUSH1 0x20 ADD DUP6 DUP2 MSTORE PUSH1 0x20 ADD DUP5 DUP2 MSTORE PUSH1 0x20 ADD DUP4 DUP2 MSTORE POP SWAP1 DUP1 PUSH1 0x1 DUP2 SLOAD ADD DUP1 DUP3 SSTORE DUP1 SWAP2 POP POP PUSH1 0x1 SWAP1 SUB SWAP1 PUSH0 MSTORE PUSH1 0x20 PUSH0 KECCAK256 SWAP1 PUSH1 0x4 MUL ADD PUSH0 SWAP1 SWAP2 SWAP1 SWAP2 SWAP1 SWAP2 POP PUSH0 DUP3 ADD MLOAD DUP2 PUSH0 ADD SWAP1 DUP2 PUSH2 0x116 SWAP2 SWAP1 PUSH2 0x92D JUMP JUMPDEST POP PUSH1 0x20 DUP3 ADD MLOAD DUP2 PUSH1 0x1 ADD SWAP1 DUP2 PUSH2 0x12C SWAP2 SWAP1 PUSH2 0x92D JUMP JUMPDEST POP PUSH1 0x40 DUP3 ADD MLOAD DUP2 PUSH1 0x2 ADD SWAP1 DUP2 PUSH2 0x142 SWAP2 SWAP1 PUSH2 0x92D JUMP JUMPDEST POP PUSH1 0x60 DUP3 ADD MLOAD DUP2 PUSH1 0x3 ADD SWAP1 DUP2 PUSH2 0x158 SWAP2 SWAP1 PUSH2 0x92D JUMP JUMPDEST POP POP POP POP POP POP POP JUMP JUMPDEST PUSH0 DUP2 DUP2 SLOAD DUP2 LT PUSH2 0x16F JUMPI PUSH0 DUP1 REVERT JUMPDEST SWAP1 PUSH0 MSTORE PUSH1 0x20 PUSH0 KECCAK256 SWAP1 PUSH1 0x4 MUL ADD PUSH0 SWAP2 POP SWAP1 POP DUP1 PUSH0 ADD DUP1 SLOAD PUSH2 0x18E SWAP1 PUSH2 0x760 JUMP JUMPDEST DUP1 PUSH1 0x1F ADD PUSH1 0x20 DUP1 SWAP2 DIV MUL PUSH1 0x20 ADD PUSH1 0x40 MLOAD SWAP1 DUP2 ADD PUSH1 0x40 MSTORE DUP1 SWAP3 SWAP2 SWAP1 DUP2 DUP2 MSTORE PUSH1 0x20 ADD DUP3 DUP1 SLOAD PUSH2 0x1BA SWAP1 PUSH2 0x760 JUMP JUMPDEST DUP1 ISZERO PUSH2 0x205 JUMPI DUP1 PUSH1 0x1F LT PUSH2 0x1DC JUMPI PUSH2 0x100 DUP1 DUP4 SLOAD DIV MUL DUP4 MSTORE SWAP2 PUSH1 0x20 ADD SWAP2 PUSH2 0x205 JUMP JUMPDEST DUP3 ADD SWAP2 SWAP1 PUSH0 MSTORE PUSH1 0x20 PUSH0 KECCAK256 SWAP1 JUMPDEST DUP2 SLOAD DUP2 MSTORE SWAP1 PUSH1 0x1 ADD SWAP1 PUSH1 0x20 ADD DUP1 DUP4 GT PUSH2 0x1E8 JUMPI DUP3 SWAP1 SUB PUSH1 0x1F AND DUP3 ADD SWAP2 JUMPDEST POP POP POP POP POP SWAP1 DUP1 PUSH1 0x1 ADD DUP1 SLOAD PUSH2 0x21A SWAP1 PUSH2 0x760 JUMP JUMPDEST DUP1 PUSH1 0x1F ADD PUSH1 0x20 DUP1 SWAP2 DIV MUL PUSH1 0x20 ADD PUSH1 0x40 MLOAD SWAP1 DUP2 ADD PUSH1 0x40 MSTORE DUP1 SWAP3 SWAP2 SWAP1 DUP2 DUP2 MSTORE PUSH1 0x20 ADD DUP3 DUP1 SLOAD PUSH2 0x246 SWAP1 PUSH2 0x760 JUMP JUMPDEST DUP1 ISZERO PUSH2 0x291 JUMPI DUP1 PUSH1 0x1F LT PUSH2 0x268 JUMPI PUSH2 0x100 DUP1 DUP4 SLOAD DIV MUL DUP4 MSTORE SWAP2 PUSH1 0x20 ADD SWAP2 PUSH2 0x291 JUMP JUMPDEST DUP3 ADD SWAP2 SWAP1 PUSH0 MSTORE PUSH1 0x20 PUSH0 KECCAK256 SWAP1 JUMPDEST DUP2 SLOAD DUP2 MSTORE SWAP1 PUSH1 0x1 ADD SWAP1 PUSH1 0x20 ADD DUP1 DUP4 GT PUSH2 0x274 JUMPI DUP3 SWAP1 SUB PUSH1 0x1F AND DUP3 ADD SWAP2 JUMPDEST POP POP POP POP POP SWAP1 DUP1 PUSH1 0x2 ADD DUP1 SLOAD PUSH2 0x2A6 SWAP1 PUSH2 0x760 JUMP JUMPDEST DUP1 PUSH1 0x1F ADD PUSH1 0x20 DUP1 SWAP2 DIV MUL PUSH1 0x20 ADD PUSH1 0x40 MLOAD SWAP1 DUP2 ADD PUSH1 0x40 MSTORE DUP1 SWAP3 SWAP2 SWAP1 DUP2 DUP2 MSTORE PUSH1 0x20 ADD DUP3 DUP1 SLOAD PUSH2 0x2D2 SWAP1 PUSH2 0x760 JUMP JUMPDEST DUP1 ISZERO PUSH2 0x31D JUMPI DUP1 PUSH1 0x1F LT PUSH2 0x2F4 JUMPI PUSH2 0x100 DUP1 DUP4 SLOAD DIV MUL DUP4 MSTORE SWAP2 PUSH1 0x20 ADD SWAP2 PUSH2 0x31D JUMP JUMPDEST DUP3 ADD SWAP2 SWAP1 PUSH0 MSTORE PUSH1 0x20 PUSH0 KECCAK256 SWAP1 JUMPDEST DUP2 SLOAD DUP2 MSTORE SWAP1 PUSH1 0x1 ADD SWAP1 PUSH1 0x20 ADD DUP1 DUP4 GT PUSH2 0x300 JUMPI DUP3 SWAP1 SUB PUSH1 0x1F AND DUP3 ADD SWAP2 JUMPDEST POP POP POP POP POP SWAP1 DUP1 PUSH1 0x3 ADD DUP1 SLOAD PUSH2 0x332 SWAP1 PUSH2 0x760 JUMP JUMPDEST DUP1 PUSH1 0x1F ADD PUSH1 0x20 DUP1 SWAP2 DIV MUL PUSH1 0x20 ADD PUSH1 0x40 MLOAD SWAP1 DUP2 ADD PUSH1 0x40 MSTORE DUP1 SWAP3 SWAP2 SWAP1 DUP2 DUP2 MSTORE PUSH1 0x20 ADD DUP3 DUP1 SLOAD PUSH2 0x35E SWAP1 PUSH2 0x760 JUMP JUMPDEST DUP1 ISZERO PUSH2 0x3A9 JUMPI DUP1 PUSH1 0x1F LT PUSH2 0x380 JUMPI PUSH2 0x100 DUP1 DUP4 SLOAD DIV MUL DUP4 MSTORE SWAP2 PUSH1 0x20 ADD SWAP2 PUSH2 0x3A9 JUMP JUMPDEST DUP3 ADD SWAP2 SWAP1 PUSH0 MSTORE PUSH1 0x20 PUSH0 KECCAK256 SWAP1 JUMPDEST DUP2 SLOAD DUP2 MSTORE SWAP1 PUSH1 0x1 ADD SWAP1 PUSH1 0x20 ADD DUP1 DUP4 GT PUSH2 0x38C JUMPI DUP3 SWAP1 SUB PUSH1 0x1F AND DUP3 ADD SWAP2 JUMPDEST POP POP POP POP POP SWAP1 POP DUP5 JUMP JUMPDEST PUSH0 DUP2 SWAP1 POP SWAP2 SWAP1 POP JUMP JUMPDEST PUSH2 0x3C5 DUP2 PUSH2 0x3B3 JUMP JUMPDEST DUP3 MSTORE POP POP JUMP JUMPDEST PUSH0 PUSH1 0x20 DUP3 ADD SWAP1 POP PUSH2 0x3DE PUSH0 DUP4 ADD DUP5 PUSH2 0x3BC JUMP JUMPDEST SWAP3 SWAP2 POP POP JUMP JUMPDEST PUSH0 PUSH1 0x40 MLOAD SWAP1 POP SWAP1 JUMP JUMPDEST PUSH0 DUP1 REVERT JUMPDEST PUSH0 DUP1 REVERT JUMPDEST PUSH0 DUP1 REVERT JUMPDEST PUSH0 DUP1 REVERT JUMPDEST PUSH0 PUSH1 0x1F NOT PUSH1 0x1F DUP4 ADD AND SWAP1 POP SWAP2 SWAP1 POP JUMP JUMPDEST PUSH32 0x4E487B7100000000000000000000000000000000000000000000000000000000 PUSH0 MSTORE PUSH1 0x41 PUSH1 0x4 MSTORE PUSH1 0x24 PUSH0 REVERT JUMPDEST PUSH2 0x443 DUP3 PUSH2 0x3FD JUMP JUMPDEST DUP2 ADD DUP2 DUP2 LT PUSH8 0xFFFFFFFFFFFFFFFF DUP3 GT OR ISZERO PUSH2 0x462 JUMPI PUSH2 0x461 PUSH2 0x40D JUMP JUMPDEST JUMPDEST DUP1 PUSH1 0x40 MSTORE POP POP POP JUMP JUMPDEST PUSH0 PUSH2 0x474 PUSH2 0x3E4 JUMP JUMPDEST SWAP1 POP PUSH2 0x480 DUP3 DUP3 PUSH2 0x43A JUMP JUMPDEST SWAP2 SWAP1 POP JUMP JUMPDEST PUSH0 PUSH8 0xFFFFFFFFFFFFFFFF DUP3 GT ISZERO PUSH2 0x49F JUMPI PUSH2 0x49E PUSH2 0x40D JUMP JUMPDEST JUMPDEST PUSH2 0x4A8 DUP3 PUSH2 0x3FD JUMP JUMPDEST SWAP1 POP PUSH1 0x20 DUP2 ADD SWAP1 POP SWAP2 SWAP1 POP JUMP JUMPDEST DUP3 DUP2 DUP4 CALLDATACOPY PUSH0 DUP4 DUP4 ADD MSTORE POP POP POP JUMP JUMPDEST PUSH0 PUSH2 0x4D5 PUSH2 0x4D0 DUP5 PUSH2 0x485 JUMP JUMPDEST PUSH2 0x46B JUMP JUMPDEST SWAP1 POP DUP3 DUP2 MSTORE PUSH1 0x20 DUP2 ADD DUP5 DUP5 DUP5 ADD GT ISZERO PUSH2 0x4F1 JUMPI PUSH2 0x4F0 PUSH2 0x3F9 JUMP JUMPDEST JUMPDEST PUSH2 0x4FC DUP5 DUP3 DUP6 PUSH2 0x4B5 JUMP JUMPDEST POP SWAP4 SWAP3 POP POP POP JUMP JUMPDEST PUSH0 DUP3 PUSH1 0x1F DUP4 ADD SLT PUSH2 0x518 JUMPI PUSH2 0x517 PUSH2 0x3F5 JUMP JUMPDEST JUMPDEST DUP2 CALLDATALOAD PUSH2 0x528 DUP5 DUP3 PUSH1 0x20 DUP7 ADD PUSH2 0x4C3 JUMP JUMPDEST SWAP2 POP POP SWAP3 SWAP2 POP POP JUMP JUMPDEST PUSH0 DUP1 PUSH0 DUP1 PUSH1 0x80 DUP6 DUP8 SUB SLT ISZERO PUSH2 0x549 JUMPI PUSH2 0x548 PUSH2 0x3ED JUMP JUMPDEST JUMPDEST PUSH0 DUP6 ADD CALLDATALOAD PUSH8 0xFFFFFFFFFFFFFFFF DUP2 GT ISZERO PUSH2 0x566 JUMPI PUSH2 0x565 PUSH2 0x3F1 JUMP JUMPDEST JUMPDEST PUSH2 0x572 DUP8 DUP3 DUP9 ADD PUSH2 0x504 JUMP JUMPDEST SWAP5 POP POP PUSH1 0x20 DUP6 ADD CALLDATALOAD PUSH8 0xFFFFFFFFFFFFFFFF DUP2 GT ISZERO PUSH2 0x593 JUMPI PUSH2 0x592 PUSH2 0x3F1 JUMP JUMPDEST JUMPDEST PUSH2 0x59F DUP8 DUP3 DUP9 ADD PUSH2 0x504 JUMP JUMPDEST SWAP4 POP POP PUSH1 0x40 DUP6 ADD CALLDATALOAD PUSH8 0xFFFFFFFFFFFFFFFF DUP2 GT ISZERO PUSH2 0x5C0 JUMPI PUSH2 0x5BF PUSH2 0x3F1 JUMP JUMPDEST JUMPDEST PUSH2 0x5CC DUP8 DUP3 DUP9 ADD PUSH2 0x504 JUMP JUMPDEST SWAP3 POP POP PUSH1 0x60 DUP6 ADD CALLDATALOAD PUSH8 0xFFFFFFFFFFFFFFFF DUP2 GT ISZERO PUSH2 0x5ED JUMPI PUSH2 0x5EC PUSH2 0x3F1 JUMP JUMPDEST JUMPDEST PUSH2 0x5F9 DUP8 DUP3 DUP9 ADD PUSH2 0x504 JUMP JUMPDEST SWAP2 POP POP SWAP3 SWAP6 SWAP2 SWAP5 POP SWAP3 POP JUMP JUMPDEST PUSH2 0x60E DUP2 PUSH2 0x3B3 JUMP JUMPDEST DUP2 EQ PUSH2 0x618 JUMPI PUSH0 DUP1 REVERT JUMPDEST POP JUMP JUMPDEST PUSH0 DUP2 CALLDATALOAD SWAP1 POP PUSH2 0x629 DUP2 PUSH2 0x605 JUMP JUMPDEST SWAP3 SWAP2 POP POP JUMP JUMPDEST PUSH0 PUSH1 0x20 DUP3 DUP5 SUB SLT ISZERO PUSH2 0x644 JUMPI PUSH2 0x643 PUSH2 0x3ED JUMP JUMPDEST JUMPDEST PUSH0 PUSH2 0x651 DUP5 DUP3 DUP6 ADD PUSH2 0x61B JUMP JUMPDEST SWAP2 POP POP SWAP3 SWAP2 POP POP JUMP JUMPDEST PUSH0 DUP2 MLOAD SWAP1 POP SWAP2 SWAP1 POP JUMP JUMPDEST PUSH0 DUP3 DUP3 MSTORE PUSH1 0x20 DUP3 ADD SWAP1 POP SWAP3 SWAP2 POP POP JUMP JUMPDEST PUSH0 JUMPDEST DUP4 DUP2 LT ISZERO PUSH2 0x691 JUMPI DUP1 DUP3 ADD MLOAD DUP2 DUP5 ADD MSTORE PUSH1 0x20 DUP2 ADD SWAP1 POP PUSH2 0x676 JUMP JUMPDEST PUSH0 DUP5 DUP5 ADD MSTORE POP POP POP POP JUMP JUMPDEST PUSH0 PUSH2 0x6A6 DUP3 PUSH2 0x65A JUMP JUMPDEST PUSH2 0x6B0 DUP2 DUP6 PUSH2 0x664 JUMP JUMPDEST SWAP4 POP PUSH2 0x6C0 DUP2 DUP6 PUSH1 0x20 DUP7 ADD PUSH2 0x674 JUMP JUMPDEST PUSH2 0x6C9 DUP2 PUSH2 0x3FD JUMP JUMPDEST DUP5 ADD SWAP2 POP POP SWAP3 SWAP2 POP POP JUMP JUMPDEST PUSH0 PUSH1 0x80 DUP3 ADD SWAP1 POP DUP2 DUP2 SUB PUSH0 DUP4 ADD MSTORE PUSH2 0x6EC DUP2 DUP8 PUSH2 0x69C JUMP JUMPDEST SWAP1 POP DUP2 DUP2 SUB PUSH1 0x20 DUP4 ADD MSTORE PUSH2 0x700 DUP2 DUP7 PUSH2 0x69C JUMP JUMPDEST SWAP1 POP DUP2 DUP2 SUB PUSH1 0x40 DUP4 ADD MSTORE PUSH2 0x714 DUP2 DUP6 PUSH2 0x69C JUMP JUMPDEST SWAP1 POP DUP2 DUP2 SUB PUSH1 0x60 DUP4 ADD MSTORE PUSH2 0x728 DUP2 DUP5 PUSH2 0x69C JUMP JUMPDEST SWAP1 POP SWAP6 SWAP5 POP POP POP POP POP JUMP JUMPDEST PUSH32 0x4E487B7100000000000000000000000000000000000000000000000000000000 PUSH0 MSTORE PUSH1 0x22 PUSH1 0x4 MSTORE PUSH1 0x24 PUSH0 REVERT JUMPDEST PUSH0 PUSH1 0x2 DUP3 DIV SWAP1 POP PUSH1 0x1 DUP3 AND DUP1 PUSH2 0x777 JUMPI PUSH1 0x7F DUP3 AND SWAP2 POP JUMPDEST PUSH1 0x20 DUP3 LT DUP2 SUB PUSH2 0x78A JUMPI PUSH2 0x789 PUSH2 0x733 JUMP JUMPDEST JUMPDEST POP SWAP2 SWAP1 POP JUMP JUMPDEST PUSH0 DUP2 SWAP1 POP DUP2 PUSH0 MSTORE PUSH1 0x20 PUSH0 KECCAK256 SWAP1 POP SWAP2 SWAP1 POP JUMP JUMPDEST PUSH0 PUSH1 0x20 PUSH1 0x1F DUP4 ADD DIV SWAP1 POP SWAP2 SWAP1 POP JUMP JUMPDEST PUSH0 DUP3 DUP3 SHL SWAP1 POP SWAP3 SWAP2 POP POP JUMP JUMPDEST PUSH0 PUSH1 0x8 DUP4 MUL PUSH2 0x7EC PUSH32 0xFFFFFFFFFFFFFFFFFFFFFFFFFFFFFFFFFFFFFFFFFFFFFFFFFFFFFFFFFFFFFFFF DUP3 PUSH2 0x7B1 JUMP JUMPDEST PUSH2 0x7F6 DUP7 DUP4 PUSH2 0x7B1 JUMP JUMPDEST SWAP6 POP DUP1 NOT DUP5 AND SWAP4 POP DUP1 DUP7 AND DUP5 OR SWAP3 POP POP POP SWAP4 SWAP3 POP POP POP JUMP JUMPDEST PUSH0 DUP2 SWAP1 POP SWAP2 SWAP1 POP JUMP JUMPDEST PUSH0 PUSH2 0x831 PUSH2 0x82C PUSH2 0x827 DUP5 PUSH2 0x3B3 JUMP JUMPDEST PUSH2 0x80E JUMP JUMPDEST PUSH2 0x3B3 JUMP JUMPDEST SWAP1 POP SWAP2 SWAP1 POP JUMP JUMPDEST PUSH0 DUP2 SWAP1 POP SWAP2 SWAP1 POP JUMP JUMPDEST PUSH2 0x84A DUP4 PUSH2 0x817 JUMP JUMPDEST PUSH2 0x85E PUSH2 0x856 DUP3 PUSH2 0x838 JUMP JUMPDEST DUP5 DUP5 SLOAD PUSH2 0x7BD JUMP JUMPDEST DUP3 SSTORE POP POP POP POP JUMP JUMPDEST PUSH0 SWAP1 JUMP JUMPDEST PUSH2 0x872 PUSH2 0x866 JUMP JUMPDEST PUSH2 0x87D DUP2 DUP5 DUP5 PUSH2 0x841 JUMP JUMPDEST POP POP POP JUMP JUMPDEST JUMPDEST DUP2 DUP2 LT ISZERO PUSH2 0x8A0 JUMPI PUSH2 0x895 PUSH0 DUP3 PUSH2 0x86A JUMP JUMPDEST PUSH1 0x1 DUP2 ADD SWAP1 POP PUSH2 0x883 JUMP JUMPDEST POP POP JUMP JUMPDEST PUSH1 0x1F DUP3 GT ISZERO PUSH2 0x8E5 JUMPI PUSH2 0x8B6 DUP2 PUSH2 0x790 JUMP JUMPDEST PUSH2 0x8BF DUP5 PUSH2 0x7A2 JUMP JUMPDEST DUP2 ADD PUSH1 0x20 DUP6 LT ISZERO PUSH2 0x8CE JUMPI DUP2 SWAP1 POP JUMPDEST PUSH2 0x8E2 PUSH2 0x8DA DUP6 PUSH2 0x7A2 JUMP JUMPDEST DUP4 ADD DUP3 PUSH2 0x882 JUMP JUMPDEST POP POP JUMPDEST POP POP POP JUMP JUMPDEST PUSH0 DUP3 DUP3 SHR SWAP1 POP SWAP3 SWAP2 POP POP JUMP JUMPDEST PUSH0 PUSH2 0x905 PUSH0 NOT DUP5 PUSH1 0x8 MUL PUSH2 0x8EA JUMP JUMPDEST NOT DUP1 DUP4 AND SWAP2 POP POP SWAP3 SWAP2 POP POP JUMP JUMPDEST PUSH0 PUSH2 0x91D DUP4 DUP4 PUSH2 0x8F6 JUMP JUMPDEST SWAP2 POP DUP3 PUSH1 0x2 MUL DUP3 OR SWAP1 POP SWAP3 SWAP2 POP POP JUMP JUMPDEST PUSH2 0x936 DUP3 PUSH2 0x65A JUMP JUMPDEST PUSH8 0xFFFFFFFFFFFFFFFF DUP2 GT ISZERO PUSH2 0x94F JUMPI PUSH2 0x94E PUSH2 0x40D JUMP JUMPDEST JUMPDEST PUSH2 0x959 DUP3 SLOAD PUSH2 0x760 JUMP JUMPDEST PUSH2 0x964 DUP3 DUP3 DUP6 PUSH2 0x8A4 JUMP JUMPDEST PUSH0 PUSH1 0x20 SWAP1 POP PUSH1 0x1F DUP4 GT PUSH1 0x1 DUP2 EQ PUSH2 0x995 JUMPI PUSH0 DUP5 ISZERO PUSH2 0x983 JUMPI DUP3 DUP8 ADD MLOAD SWAP1 POP JUMPDEST PUSH2 0x98D DUP6 DUP3 PUSH2 0x912 JUMP JUMPDEST DUP7 SSTORE POP PUSH2 0x9F4 JUMP JUMPDEST PUSH1 0x1F NOT DUP5 AND PUSH2 0x9A3 DUP7 PUSH2 0x790 JUMP JUMPDEST PUSH0 JUMPDEST DUP3 DUP2 LT ISZERO PUSH2 0x9CA JUMPI DUP5 DUP10 ADD MLOAD DUP3 SSTORE PUSH1 0x1 DUP3 ADD SWAP2 POP PUSH1 0x20 DUP6 ADD SWAP5 POP PUSH1 0x20 DUP2 ADD SWAP1 POP PUSH2 0x9A5 JUMP JUMPDEST DUP7 DUP4 LT ISZERO PUSH2 0x9E7 JUMPI DUP5 DUP10 ADD MLOAD PUSH2 0x9E3 PUSH1 0x1F DUP10 AND DUP3 PUSH2 0x8F6 JUMP JUMPDEST DUP4 SSTORE POP JUMPDEST PUSH1 0x1 PUSH1 0x2 DUP9 MUL ADD DUP9 SSTORE POP POP POP JUMPDEST POP POP POP POP POP POP JUMP INVALID LOG2 PUSH5 0x6970667358 0x22 SLT KECCAK256 0xCC LOG3 0x25 DUP5 ADD SWAP6 DUP2 INVALID SELFDESTRUCT PC PUSH21 0x1945B40F2AD3CCCBD970A5F96136CC69E9141567B6 PUSH5 0x736F6C6343 STOP ADDMOD XOR STOP CALLER "
				},
				"gasEstimates": {
					"creation": {
						"codeDepositCost": "522000",
						"executionCost": "554",
						"totalCost": "522554"
					},
					"external": {
						"addLog(string,string,string,string)": "infinite",
						"getLogsLength()": "2418",
						"logs(uint256)": "infinite"
					}
				},
				"methodIdentifiers": {
					"addLog(string,string,string,string)": "8af391a3",
					"getLogsLength()": "5517c1a9",
					"logs(uint256)": "e79899bd"
				}
			},
			"storageLayout": {
				"storage": [
					{
						"astId": 14,
						"contract": "contracts/LogSmartContract.sol:LogSmartContract",
						"label": "logs",
						"offset": 0,
						"slot": "0",
						"type": "t_array(t_struct(Log)10_storage)dyn_storage"
					}
				],
				"types": {
					"t_array(t_struct(Log)10_storage)dyn_storage": {
						"base": "t_struct(Log)10_storage",
						"encoding": "dynamic_array",
						"label": "struct LogSmartContract.Log[]",
						"numberOfBytes": "32"
					},
					"t_string_storage": {
						"encoding": "bytes",
						"label": "string",
						"numberOfBytes": "32"
					},
					"t_struct(Log)10_storage": {
						"encoding": "inplace",
						"label": "struct LogSmartContract.Log",
						"members": [
							{
								"astId": 3,
								"contract": "contracts/LogSmartContract.sol:LogSmartContract",
								"label": "actorID",
								"offset": 0,
								"slot": "0",
								"type": "t_string_storage"
							},
							{
								"astId": 5,
								"contract": "contracts/LogSmartContract.sol:LogSmartContract",
								"label": "operation",
								"offset": 0,
								"slot": "1",
								"type": "t_string_storage"
							},
							{
								"astId": 7,
								"contract": "contracts/LogSmartContract.sol:LogSmartContract",
								"label": "serviceName",
								"offset": 0,
								"slot": "2",
								"type": "t_string_storage"
							},
							{
								"astId": 9,
								"contract": "contracts/LogSmartContract.sol:LogSmartContract",
								"label": "processedPersonalData",
								"offset": 0,
								"slot": "3",
								"type": "t_string_storage"
							}
						],
						"numberOfBytes": "128"
					}
				}
			},
			"userdoc": {
				"kind": "user",
				"methods": {},
				"version": 1
			}
		}
	}
}