{
	"contracts/DataUsageSmartContract.sol": {
		"DataUsageSmartContract": {
			"abi": [
				{
					"inputs": [
						{
							"internalType": "uint256",
							"name": "_actorID",
							"type": "uint256"
						},
						{
							"internalType": "string",
							"name": "_serviceName",
							"type": "string"
						},
						{
							"internalType": "string",
							"name": "_servicePurpose",
							"type": "string"
						},
						{
							"internalType": "string",
							"name": "_operation",
							"type": "string"
						},
						{
							"internalType": "string[]",
							"name": "_personalData",
							"type": "string[]"
						}
					],
					"name": "addDataUsage",
					"outputs": [],
					"stateMutability": "nonpayable",
					"type": "function"
				},
				{
					"inputs": [],
					"name": "dataUsageCount",
					"outputs": [
						{
							"internalType": "uint256",
							"name": "",
							"type": "uint256"
						}
					],
					"stateMutability": "view",
					"type": "function"
				},
				{
					"inputs": [
						{
							"internalType": "uint256",
							"name": "",
							"type": "uint256"
						}
					],
					"name": "dataUsages",
					"outputs": [
						{
							"internalType": "uint256",
							"name": "actorID",
							"type": "uint256"
						},
						{
							"internalType": "string",
							"name": "serviceName",
							"type": "string"
						},
						{
							"internalType": "string",
							"name": "servicePurpose",
							"type": "string"
						},
						{
							"internalType": "string",
							"name": "operation",
							"type": "string"
						}
					],
					"stateMutability": "view",
					"type": "function"
				}
			],
			"devdoc": {
				"kind": "dev",
				"methods": {},
				"version": 1
			},
			"evm": {
				"assembly": "    /* \"contracts/DataUsageSmartContract.sol\":58:678  contract DataUsageSmartContract {... */\n  mstore(0x40, 0x80)\n  callvalue\n  dup1\n  iszero\n  tag_1\n  jumpi\n  0x00\n  dup1\n  revert\ntag_1:\n  pop\n  dataSize(sub_0)\n  dup1\n  dataOffset(sub_0)\n  0x00\n  codecopy\n  0x00\n  return\nstop\n\nsub_0: assembly {\n        /* \"contracts/DataUsageSmartContract.sol\":58:678  contract DataUsageSmartContract {... */\n      mstore(0x40, 0x80)\n      callvalue\n      dup1\n      iszero\n      tag_1\n      jumpi\n      0x00\n      dup1\n      revert\n    tag_1:\n      pop\n      jumpi(tag_2, lt(calldatasize, 0x04))\n      shr(0xe0, calldataload(0x00))\n      dup1\n      0x5b7824c6\n      eq\n      tag_3\n      jumpi\n      dup1\n      0xe6bb0535\n      eq\n      tag_4\n      jumpi\n      dup1\n      0xf0d6e1ec\n      eq\n      tag_5\n      jumpi\n    tag_2:\n      0x00\n      dup1\n      revert\n        /* \"contracts/DataUsageSmartContract.sol\":328:354  uint public dataUsageCount */\n    tag_3:\n      tag_6\n      tag_7\n      jump\t// in\n    tag_6:\n      mload(0x40)\n      tag_8\n      swap2\n      swap1\n      tag_9\n      jump\t// in\n    tag_8:\n      mload(0x40)\n      dup1\n      swap2\n      sub\n      swap1\n      return\n        /* \"contracts/DataUsageSmartContract.sol\":363:675  function addDataUsage(uint _actorID, string memory _serviceName, string memory _servicePurpose, string memory _operation, string[] memory _personalData) public {... */\n    tag_4:\n      tag_10\n      0x04\n      dup1\n      calldatasize\n      sub\n      dup2\n      add\n      swap1\n      tag_11\n      swap2\n      swap1\n      tag_12\n      jump\t// in\n    tag_11:\n      tag_13\n      jump\t// in\n    tag_10:\n      stop\n        /* \"contracts/DataUsageSmartContract.sol\":277:321  mapping(uint => DataUsage) public dataUsages */\n    tag_5:\n      tag_14\n      0x04\n      dup1\n      calldatasize\n      sub\n      dup2\n      add\n      swap1\n      tag_15\n      swap2\n      swap1\n      tag_16\n      jump\t// in\n    tag_15:\n      tag_17\n      jump\t// in\n    tag_14:\n      mload(0x40)\n      tag_18\n      swap5\n      swap4\n      swap3\n      swap2\n      swap1\n      tag_19\n      jump\t// in\n    tag_18:\n      mload(0x40)\n      dup1\n      swap2\n      sub\n      swap1\n      return\n        /* \"contracts/DataUsageSmartContract.sol\":328:354  uint public dataUsageCount */\n    tag_7:\n      sload(0x01)\n      dup2\n      jump\t// out\n        /* \"contracts/DataUsageSmartContract.sol\":363:675  function addDataUsage(uint _actorID, string memory _serviceName, string memory _servicePurpose, string memory _operation, string[] memory _personalData) public {... */\n    tag_13:\n        /* \"contracts/DataUsageSmartContract.sol\":563:640  DataUsage(_actorID, _serviceName, _servicePurpose, _operation, _personalData) */\n      mload(0x40)\n      dup1\n      0xa0\n      add\n      0x40\n      mstore\n      dup1\n        /* \"contracts/DataUsageSmartContract.sol\":573:581  _actorID */\n      dup7\n        /* \"contracts/DataUsageSmartContract.sol\":563:640  DataUsage(_actorID, _serviceName, _servicePurpose, _operation, _personalData) */\n      dup2\n      mstore\n      0x20\n      add\n        /* \"contracts/DataUsageSmartContract.sol\":583:595  _serviceName */\n      dup6\n        /* \"contracts/DataUsageSmartContract.sol\":563:640  DataUsage(_actorID, _serviceName, _servicePurpose, _operation, _personalData) */\n      dup2\n      mstore\n      0x20\n      add\n        /* \"contracts/DataUsageSmartContract.sol\":597:612  _servicePurpose */\n      dup5\n        /* \"contracts/DataUsageSmartContract.sol\":563:640  DataUsage(_actorID, _serviceName, _servicePurpose, _operation, _personalData) */\n      dup2\n      mstore\n      0x20\n      add\n        /* \"contracts/DataUsageSmartContract.sol\":614:624  _operation */\n      dup4\n        /* \"contracts/DataUsageSmartContract.sol\":563:640  DataUsage(_actorID, _serviceName, _servicePurpose, _operation, _personalData) */\n      dup2\n      mstore\n      0x20\n      add\n        /* \"contracts/DataUsageSmartContract.sol\":626:639  _personalData */\n      dup3\n        /* \"contracts/DataUsageSmartContract.sol\":563:640  DataUsage(_actorID, _serviceName, _servicePurpose, _operation, _personalData) */\n      dup2\n      mstore\n      pop\n        /* \"contracts/DataUsageSmartContract.sol\":534:544  dataUsages */\n      0x00\n        /* \"contracts/DataUsageSmartContract.sol\":534:560  dataUsages[dataUsageCount] */\n      dup1\n        /* \"contracts/DataUsageSmartContract.sol\":545:559  dataUsageCount */\n      sload(0x01)\n        /* \"contracts/DataUsageSmartContract.sol\":534:560  dataUsages[dataUsageCount] */\n      dup2\n      mstore\n      0x20\n      add\n      swap1\n      dup2\n      mstore\n      0x20\n      add\n      0x00\n      keccak256\n        /* \"contracts/DataUsageSmartContract.sol\":534:640  dataUsages[dataUsageCount] = DataUsage(_actorID, _serviceName, _servicePurpose, _operation, _personalData) */\n      0x00\n      dup3\n      add\n      mload\n      dup2\n      0x00\n      add\n      sstore\n      0x20\n      dup3\n      add\n      mload\n      dup2\n      0x01\n      add\n      swap1\n      dup2\n      tag_21\n      swap2\n      swap1\n      tag_22\n      jump\t// in\n    tag_21:\n      pop\n      0x40\n      dup3\n      add\n      mload\n      dup2\n      0x02\n      add\n      swap1\n      dup2\n      tag_23\n      swap2\n      swap1\n      tag_22\n      jump\t// in\n    tag_23:\n      pop\n      0x60\n      dup3\n      add\n      mload\n      dup2\n      0x03\n      add\n      swap1\n      dup2\n      tag_24\n      swap2\n      swap1\n      tag_22\n      jump\t// in\n    tag_24:\n      pop\n      0x80\n      dup3\n      add\n      mload\n      dup2\n      0x04\n      add\n      swap1\n      dup1\n      mload\n      swap1\n      0x20\n      add\n      swap1\n      tag_25\n      swap3\n      swap2\n      swap1\n      tag_26\n      jump\t// in\n    tag_25:\n      pop\n      swap1\n      pop\n      pop\n        /* \"contracts/DataUsageSmartContract.sol\":651:665  dataUsageCount */\n      0x01\n      0x00\n        /* \"contracts/DataUsageSmartContract.sol\":651:667  dataUsageCount++ */\n      dup2\n      sload\n      dup1\n      swap3\n      swap2\n      swap1\n      tag_27\n      swap1\n      tag_28\n      jump\t// in\n    tag_27:\n      swap2\n      swap1\n      pop\n      sstore\n      pop\n        /* \"contracts/DataUsageSmartContract.sol\":363:675  function addDataUsage(uint _actorID, string memory _serviceName, string memory _servicePurpose, string memory _operation, string[] memory _personalData) public {... */\n      pop\n      pop\n      pop\n      pop\n      pop\n      jump\t// out\n        /* \"contracts/DataUsageSmartContract.sol\":277:321  mapping(uint => DataUsage) public dataUsages */\n    tag_17:\n      mstore(0x20, 0x00)\n      dup1\n      0x00\n      mstore\n      keccak256(0x00, 0x40)\n      0x00\n      swap2\n      pop\n      swap1\n      pop\n      dup1\n      0x00\n      add\n      sload\n      swap1\n      dup1\n      0x01\n      add\n      dup1\n      sload\n      tag_29\n      swap1\n      tag_30\n      jump\t// in\n    tag_29:\n      dup1\n      0x1f\n      add\n      0x20\n      dup1\n      swap2\n      div\n      mul\n      0x20\n      add\n      mload(0x40)\n      swap1\n      dup2\n      add\n      0x40\n      mstore\n      dup1\n      swap3\n      swap2\n      swap1\n      dup2\n      dup2\n      mstore\n      0x20\n      add\n      dup3\n      dup1\n      sload\n      tag_31\n      swap1\n      tag_30\n      jump\t// in\n    tag_31:\n      dup1\n      iszero\n      tag_32\n      jumpi\n      dup1\n      0x1f\n      lt\n      tag_33\n      jumpi\n      0x0100\n      dup1\n      dup4\n      sload\n      div\n      mul\n      dup4\n      mstore\n      swap2\n      0x20\n      add\n      swap2\n      jump(tag_32)\n    tag_33:\n      dup3\n      add\n      swap2\n      swap1\n      0x00\n      mstore\n      keccak256(0x00, 0x20)\n      swap1\n    tag_34:\n      dup2\n      sload\n      dup2\n      mstore\n      swap1\n      0x01\n      add\n      swap1\n      0x20\n      add\n      dup1\n      dup4\n      gt\n      tag_34\n      jumpi\n      dup3\n      swap1\n      sub\n      0x1f\n      and\n      dup3\n      add\n      swap2\n    tag_32:\n      pop\n      pop\n      pop\n      pop\n      pop\n      swap1\n      dup1\n      0x02\n      add\n      dup1\n      sload\n      tag_35\n      swap1\n      tag_30\n      jump\t// in\n    tag_35:\n      dup1\n      0x1f\n      add\n      0x20\n      dup1\n      swap2\n      div\n      mul\n      0x20\n      add\n      mload(0x40)\n      swap1\n      dup2\n      add\n      0x40\n      mstore\n      dup1\n      swap3\n      swap2\n      swap1\n      dup2\n      dup2\n      mstore\n      0x20\n      add\n      dup3\n      dup1\n      sload\n      tag_36\n      swap1\n      tag_30\n      jump\t// in\n    tag_36:\n      dup1\n      iszero\n      tag_37\n      jumpi\n      dup1\n      0x1f\n      lt\n      tag_38\n      jumpi\n      0x0100\n      dup1\n      dup4\n      sload\n      div\n      mul\n      dup4\n      mstore\n      swap2\n      0x20\n      add\n      swap2\n      jump(tag_37)\n    tag_38:\n      dup3\n      add\n      swap2\n      swap1\n      0x00\n      mstore\n      keccak256(0x00, 0x20)\n      swap1\n    tag_39:\n      dup2\n      sload\n      dup2\n      mstore\n      swap1\n      0x01\n      add\n      swap1\n      0x20\n      add\n      dup1\n      dup4\n      gt\n      tag_39\n      jumpi\n      dup3\n      swap1\n      sub\n      0x1f\n      and\n      dup3\n      add\n      swap2\n    tag_37:\n      pop\n      pop\n      pop\n      pop\n      pop\n      swap1\n      dup1\n      0x03\n      add\n      dup1\n      sload\n      tag_40\n      swap1\n      tag_30\n      jump\t// in\n    tag_40:\n      dup1\n      0x1f\n      add\n      0x20\n      dup1\n      swap2\n      div\n      mul\n      0x20\n      add\n      mload(0x40)\n      swap1\n      dup2\n      add\n      0x40\n      mstore\n      dup1\n      swap3\n      swap2\n      swap1\n      dup2\n      dup2\n      mstore\n      0x20\n      add\n      dup3\n      dup1\n      sload\n      tag_41\n      swap1\n      tag_30\n      jump\t// in\n    tag_41:\n      dup1\n      iszero\n      tag_42\n      jumpi\n      dup1\n      0x1f\n      lt\n      tag_43\n      jumpi\n      0x0100\n      dup1\n      dup4\n      sload\n      div\n      mul\n      dup4\n      mstore\n      swap2\n      0x20\n      add\n      swap2\n      jump(tag_42)\n    tag_43:\n      dup3\n      add\n      swap2\n      swap1\n      0x00\n      mstore\n      keccak256(0x00, 0x20)\n      swap1\n    tag_44:\n      dup2\n      sload\n      dup2\n      mstore\n      swap1\n      0x01\n      add\n      swap1\n      0x20\n      add\n      dup1\n      dup4\n      gt\n      tag_44\n      jumpi\n      dup3\n      swap1\n      sub\n      0x1f\n      and\n      dup3\n      add\n      swap2\n    tag_42:\n      pop\n      pop\n      pop\n      pop\n      pop\n      swap1\n      pop\n      dup5\n      jump\t// out\n    tag_26:\n      dup3\n      dup1\n      sload\n      dup3\n      dup3\n      sstore\n      swap1\n      0x00\n      mstore\n      keccak256(0x00, 0x20)\n      swap1\n      dup2\n      add\n      swap3\n      dup3\n      iszero\n      tag_45\n      jumpi\n      swap2\n      0x20\n      mul\n      dup3\n      add\n    tag_46:\n      dup3\n      dup2\n      gt\n      iszero\n      tag_47\n      jumpi\n      dup3\n      mload\n      dup3\n      swap1\n      dup2\n      tag_48\n      swap2\n      swap1\n      tag_22\n      jump\t// in\n    tag_48:\n      pop\n      swap2\n      0x20\n      add\n      swap2\n      swap1\n      0x01\n      add\n      swap1\n      jump(tag_46)\n    tag_47:\n    tag_45:\n      pop\n      swap1\n      pop\n      tag_49\n      swap2\n      swap1\n      tag_50\n      jump\t// in\n    tag_49:\n      pop\n      swap1\n      jump\t// out\n    tag_50:\n    tag_51:\n      dup1\n      dup3\n      gt\n      iszero\n      tag_52\n      jumpi\n      0x00\n      dup2\n      dup2\n      tag_53\n      swap2\n      swap1\n      tag_54\n      jump\t// in\n    tag_53:\n      pop\n      0x01\n      add\n      jump(tag_51)\n    tag_52:\n      pop\n      swap1\n      jump\t// out\n    tag_54:\n      pop\n      dup1\n      sload\n      tag_55\n      swap1\n      tag_30\n      jump\t// in\n    tag_55:\n      0x00\n      dup3\n      sstore\n      dup1\n      0x1f\n      lt\n      tag_57\n      jumpi\n      pop\n      jump(tag_56)\n    tag_57:\n      0x1f\n      add\n      0x20\n      swap1\n      div\n      swap1\n      0x00\n      mstore\n      keccak256(0x00, 0x20)\n      swap1\n      dup2\n      add\n      swap1\n      tag_58\n      swap2\n      swap1\n      tag_59\n      jump\t// in\n    tag_58:\n    tag_56:\n      pop\n      jump\t// out\n    tag_59:\n    tag_60:\n      dup1\n      dup3\n      gt\n      iszero\n      tag_61\n      jumpi\n      0x00\n      dup2\n      0x00\n      swap1\n      sstore\n      pop\n      0x01\n      add\n      jump(tag_60)\n    tag_61:\n      pop\n      swap1\n      jump\t// out\n        /* \"#utility.yul\":7:84   */\n    tag_62:\n        /* \"#utility.yul\":44:51   */\n      0x00\n        /* \"#utility.yul\":73:78   */\n      dup2\n        /* \"#utility.yul\":62:78   */\n      swap1\n      pop\n        /* \"#utility.yul\":7:84   */\n      swap2\n      swap1\n      pop\n      jump\t// out\n        /* \"#utility.yul\":90:208   */\n    tag_63:\n        /* \"#utility.yul\":177:201   */\n      tag_107\n        /* \"#utility.yul\":195:200   */\n      dup2\n        /* \"#utility.yul\":177:201   */\n      tag_62\n      jump\t// in\n    tag_107:\n        /* \"#utility.yul\":172:175   */\n      dup3\n        /* \"#utility.yul\":165:202   */\n      mstore\n        /* \"#utility.yul\":90:208   */\n      pop\n      pop\n      jump\t// out\n        /* \"#utility.yul\":214:436   */\n    tag_9:\n        /* \"#utility.yul\":307:311   */\n      0x00\n        /* \"#utility.yul\":345:347   */\n      0x20\n        /* \"#utility.yul\":334:343   */\n      dup3\n        /* \"#utility.yul\":330:348   */\n      add\n        /* \"#utility.yul\":322:348   */\n      swap1\n      pop\n        /* \"#utility.yul\":358:429   */\n      tag_109\n        /* \"#utility.yul\":426:427   */\n      0x00\n        /* \"#utility.yul\":415:424   */\n      dup4\n        /* \"#utility.yul\":411:428   */\n      add\n        /* \"#utility.yul\":402:408   */\n      dup5\n        /* \"#utility.yul\":358:429   */\n      tag_63\n      jump\t// in\n    tag_109:\n        /* \"#utility.yul\":214:436   */\n      swap3\n      swap2\n      pop\n      pop\n      jump\t// out\n        /* \"#utility.yul\":442:517   */\n    tag_64:\n        /* \"#utility.yul\":475:481   */\n      0x00\n        /* \"#utility.yul\":508:510   */\n      0x40\n        /* \"#utility.yul\":502:511   */\n      mload\n        /* \"#utility.yul\":492:511   */\n      swap1\n      pop\n        /* \"#utility.yul\":442:517   */\n      swap1\n      jump\t// out\n        /* \"#utility.yul\":523:640   */\n    tag_65:\n        /* \"#utility.yul\":632:633   */\n      0x00\n        /* \"#utility.yul\":629:630   */\n      dup1\n        /* \"#utility.yul\":622:634   */\n      revert\n        /* \"#utility.yul\":646:763   */\n    tag_66:\n        /* \"#utility.yul\":755:756   */\n      0x00\n        /* \"#utility.yul\":752:753   */\n      dup1\n        /* \"#utility.yul\":745:757   */\n      revert\n        /* \"#utility.yul\":769:891   */\n    tag_67:\n        /* \"#utility.yul\":842:866   */\n      tag_114\n        /* \"#utility.yul\":860:865   */\n      dup2\n        /* \"#utility.yul\":842:866   */\n      tag_62\n      jump\t// in\n    tag_114:\n        /* \"#utility.yul\":835:840   */\n      dup2\n        /* \"#utility.yul\":832:867   */\n      eq\n        /* \"#utility.yul\":822:885   */\n      tag_115\n      jumpi\n        /* \"#utility.yul\":881:882   */\n      0x00\n        /* \"#utility.yul\":878:879   */\n      dup1\n        /* \"#utility.yul\":871:883   */\n      revert\n        /* \"#utility.yul\":822:885   */\n    tag_115:\n        /* \"#utility.yul\":769:891   */\n      pop\n      jump\t// out\n        /* \"#utility.yul\":897:1036   */\n    tag_68:\n        /* \"#utility.yul\":943:948   */\n      0x00\n        /* \"#utility.yul\":981:987   */\n      dup2\n        /* \"#utility.yul\":968:988   */\n      calldataload\n        /* \"#utility.yul\":959:988   */\n      swap1\n      pop\n        /* \"#utility.yul\":997:1030   */\n      tag_117\n        /* \"#utility.yul\":1024:1029   */\n      dup2\n        /* \"#utility.yul\":997:1030   */\n      tag_67\n      jump\t// in\n    tag_117:\n        /* \"#utility.yul\":897:1036   */\n      swap3\n      swap2\n      pop\n      pop\n      jump\t// out\n        /* \"#utility.yul\":1042:1159   */\n    tag_69:\n        /* \"#utility.yul\":1151:1152   */\n      0x00\n        /* \"#utility.yul\":1148:1149   */\n      dup1\n        /* \"#utility.yul\":1141:1153   */\n      revert\n        /* \"#utility.yul\":1165:1282   */\n    tag_70:\n        /* \"#utility.yul\":1274:1275   */\n      0x00\n        /* \"#utility.yul\":1271:1272   */\n      dup1\n        /* \"#utility.yul\":1264:1276   */\n      revert\n        /* \"#utility.yul\":1288:1390   */\n    tag_71:\n        /* \"#utility.yul\":1329:1335   */\n      0x00\n        /* \"#utility.yul\":1380:1382   */\n      0x1f\n        /* \"#utility.yul\":1376:1383   */\n      not\n        /* \"#utility.yul\":1371:1373   */\n      0x1f\n        /* \"#utility.yul\":1364:1369   */\n      dup4\n        /* \"#utility.yul\":1360:1374   */\n      add\n        /* \"#utility.yul\":1356:1384   */\n      and\n        /* \"#utility.yul\":1346:1384   */\n      swap1\n      pop\n        /* \"#utility.yul\":1288:1390   */\n      swap2\n      swap1\n      pop\n      jump\t// out\n        /* \"#utility.yul\":1396:1576   */\n    tag_72:\n        /* \"#utility.yul\":1444:1521   */\n      0x4e487b7100000000000000000000000000000000000000000000000000000000\n        /* \"#utility.yul\":1441:1442   */\n      0x00\n        /* \"#utility.yul\":1434:1522   */\n      mstore\n        /* \"#utility.yul\":1541:1545   */\n      0x41\n        /* \"#utility.yul\":1538:1539   */\n      0x04\n        /* \"#utility.yul\":1531:1546   */\n      mstore\n        /* \"#utility.yul\":1565:1569   */\n      0x24\n        /* \"#utility.yul\":1562:1563   */\n      0x00\n        /* \"#utility.yul\":1555:1570   */\n      revert\n        /* \"#utility.yul\":1582:1863   */\n    tag_73:\n        /* \"#utility.yul\":1665:1692   */\n      tag_123\n        /* \"#utility.yul\":1687:1691   */\n      dup3\n        /* \"#utility.yul\":1665:1692   */\n      tag_71\n      jump\t// in\n    tag_123:\n        /* \"#utility.yul\":1657:1663   */\n      dup2\n        /* \"#utility.yul\":1653:1693   */\n      add\n        /* \"#utility.yul\":1795:1801   */\n      dup2\n        /* \"#utility.yul\":1783:1793   */\n      dup2\n        /* \"#utility.yul\":1780:1802   */\n      lt\n        /* \"#utility.yul\":1759:1777   */\n      0xffffffffffffffff\n        /* \"#utility.yul\":1747:1757   */\n      dup3\n        /* \"#utility.yul\":1744:1778   */\n      gt\n        /* \"#utility.yul\":1741:1803   */\n      or\n        /* \"#utility.yul\":1738:1826   */\n      iszero\n      tag_124\n      jumpi\n        /* \"#utility.yul\":1806:1824   */\n      tag_125\n      tag_72\n      jump\t// in\n    tag_125:\n        /* \"#utility.yul\":1738:1826   */\n    tag_124:\n        /* \"#utility.yul\":1846:1856   */\n      dup1\n        /* \"#utility.yul\":1842:1844   */\n      0x40\n        /* \"#utility.yul\":1835:1857   */\n      mstore\n        /* \"#utility.yul\":1625:1863   */\n      pop\n        /* \"#utility.yul\":1582:1863   */\n      pop\n      pop\n      jump\t// out\n        /* \"#utility.yul\":1869:1998   */\n    tag_74:\n        /* \"#utility.yul\":1903:1909   */\n      0x00\n        /* \"#utility.yul\":1930:1950   */\n      tag_127\n      tag_64\n      jump\t// in\n    tag_127:\n        /* \"#utility.yul\":1920:1950   */\n      swap1\n      pop\n        /* \"#utility.yul\":1959:1992   */\n      tag_128\n        /* \"#utility.yul\":1987:1991   */\n      dup3\n        /* \"#utility.yul\":1979:1985   */\n      dup3\n        /* \"#utility.yul\":1959:1992   */\n      tag_73\n      jump\t// in\n    tag_128:\n        /* \"#utility.yul\":1869:1998   */\n      swap2\n      swap1\n      pop\n      jump\t// out\n        /* \"#utility.yul\":2004:2312   */\n    tag_75:\n        /* \"#utility.yul\":2066:2070   */\n      0x00\n        /* \"#utility.yul\":2156:2174   */\n      0xffffffffffffffff\n        /* \"#utility.yul\":2148:2154   */\n      dup3\n        /* \"#utility.yul\":2145:2175   */\n      gt\n        /* \"#utility.yul\":2142:2198   */\n      iszero\n      tag_130\n      jumpi\n        /* \"#utility.yul\":2178:2196   */\n      tag_131\n      tag_72\n      jump\t// in\n    tag_131:\n        /* \"#utility.yul\":2142:2198   */\n    tag_130:\n        /* \"#utility.yul\":2216:2245   */\n      tag_132\n        /* \"#utility.yul\":2238:2244   */\n      dup3\n        /* \"#utility.yul\":2216:2245   */\n      tag_71\n      jump\t// in\n    tag_132:\n        /* \"#utility.yul\":2208:2245   */\n      swap1\n      pop\n        /* \"#utility.yul\":2300:2304   */\n      0x20\n        /* \"#utility.yul\":2294:2298   */\n      dup2\n        /* \"#utility.yul\":2290:2305   */\n      add\n        /* \"#utility.yul\":2282:2305   */\n      swap1\n      pop\n        /* \"#utility.yul\":2004:2312   */\n      swap2\n      swap1\n      pop\n      jump\t// out\n        /* \"#utility.yul\":2318:2464   */\n    tag_76:\n        /* \"#utility.yul\":2415:2421   */\n      dup3\n        /* \"#utility.yul\":2410:2413   */\n      dup2\n        /* \"#utility.yul\":2405:2408   */\n      dup4\n        /* \"#utility.yul\":2392:2422   */\n      calldatacopy\n        /* \"#utility.yul\":2456:2457   */\n      0x00\n        /* \"#utility.yul\":2447:2453   */\n      dup4\n        /* \"#utility.yul\":2442:2445   */\n      dup4\n        /* \"#utility.yul\":2438:2454   */\n      add\n        /* \"#utility.yul\":2431:2458   */\n      mstore\n        /* \"#utility.yul\":2318:2464   */\n      pop\n      pop\n      pop\n      jump\t// out\n        /* \"#utility.yul\":2470:2895   */\n    tag_77:\n        /* \"#utility.yul\":2548:2553   */\n      0x00\n        /* \"#utility.yul\":2573:2639   */\n      tag_135\n        /* \"#utility.yul\":2589:2638   */\n      tag_136\n        /* \"#utility.yul\":2631:2637   */\n      dup5\n        /* \"#utility.yul\":2589:2638   */\n      tag_75\n      jump\t// in\n    tag_136:\n        /* \"#utility.yul\":2573:2639   */\n      tag_74\n      jump\t// in\n    tag_135:\n        /* \"#utility.yul\":2564:2639   */\n      swap1\n      pop\n        /* \"#utility.yul\":2662:2668   */\n      dup3\n        /* \"#utility.yul\":2655:2660   */\n      dup2\n        /* \"#utility.yul\":2648:2669   */\n      mstore\n        /* \"#utility.yul\":2700:2704   */\n      0x20\n        /* \"#utility.yul\":2693:2698   */\n      dup2\n        /* \"#utility.yul\":2689:2705   */\n      add\n        /* \"#utility.yul\":2738:2741   */\n      dup5\n        /* \"#utility.yul\":2729:2735   */\n      dup5\n        /* \"#utility.yul\":2724:2727   */\n      dup5\n        /* \"#utility.yul\":2720:2736   */\n      add\n        /* \"#utility.yul\":2717:2742   */\n      gt\n        /* \"#utility.yul\":2714:2826   */\n      iszero\n      tag_137\n      jumpi\n        /* \"#utility.yul\":2745:2824   */\n      tag_138\n      tag_70\n      jump\t// in\n    tag_138:\n        /* \"#utility.yul\":2714:2826   */\n    tag_137:\n        /* \"#utility.yul\":2835:2889   */\n      tag_139\n        /* \"#utility.yul\":2882:2888   */\n      dup5\n        /* \"#utility.yul\":2877:2880   */\n      dup3\n        /* \"#utility.yul\":2872:2875   */\n      dup6\n        /* \"#utility.yul\":2835:2889   */\n      tag_76\n      jump\t// in\n    tag_139:\n        /* \"#utility.yul\":2554:2895   */\n      pop\n        /* \"#utility.yul\":2470:2895   */\n      swap4\n      swap3\n      pop\n      pop\n      pop\n      jump\t// out\n        /* \"#utility.yul\":2915:3255   */\n    tag_78:\n        /* \"#utility.yul\":2971:2976   */\n      0x00\n        /* \"#utility.yul\":3020:3023   */\n      dup3\n        /* \"#utility.yul\":3013:3017   */\n      0x1f\n        /* \"#utility.yul\":3005:3011   */\n      dup4\n        /* \"#utility.yul\":3001:3018   */\n      add\n        /* \"#utility.yul\":2997:3024   */\n      slt\n        /* \"#utility.yul\":2987:3109   */\n      tag_141\n      jumpi\n        /* \"#utility.yul\":3028:3107   */\n      tag_142\n      tag_69\n      jump\t// in\n    tag_142:\n        /* \"#utility.yul\":2987:3109   */\n    tag_141:\n        /* \"#utility.yul\":3145:3151   */\n      dup2\n        /* \"#utility.yul\":3132:3152   */\n      calldataload\n        /* \"#utility.yul\":3170:3249   */\n      tag_143\n        /* \"#utility.yul\":3245:3248   */\n      dup5\n        /* \"#utility.yul\":3237:3243   */\n      dup3\n        /* \"#utility.yul\":3230:3234   */\n      0x20\n        /* \"#utility.yul\":3222:3228   */\n      dup7\n        /* \"#utility.yul\":3218:3235   */\n      add\n        /* \"#utility.yul\":3170:3249   */\n      tag_77\n      jump\t// in\n    tag_143:\n        /* \"#utility.yul\":3161:3249   */\n      swap2\n      pop\n        /* \"#utility.yul\":2977:3255   */\n      pop\n        /* \"#utility.yul\":2915:3255   */\n      swap3\n      swap2\n      pop\n      pop\n      jump\t// out\n        /* \"#utility.yul\":3261:3582   */\n    tag_79:\n        /* \"#utility.yul\":3348:3352   */\n      0x00\n        /* \"#utility.yul\":3438:3456   */\n      0xffffffffffffffff\n        /* \"#utility.yul\":3430:3436   */\n      dup3\n        /* \"#utility.yul\":3427:3457   */\n      gt\n        /* \"#utility.yul\":3424:3480   */\n      iszero\n      tag_145\n      jumpi\n        /* \"#utility.yul\":3460:3478   */\n      tag_146\n      tag_72\n      jump\t// in\n    tag_146:\n        /* \"#utility.yul\":3424:3480   */\n    tag_145:\n        /* \"#utility.yul\":3510:3514   */\n      0x20\n        /* \"#utility.yul\":3502:3508   */\n      dup3\n        /* \"#utility.yul\":3498:3515   */\n      mul\n        /* \"#utility.yul\":3490:3515   */\n      swap1\n      pop\n        /* \"#utility.yul\":3570:3574   */\n      0x20\n        /* \"#utility.yul\":3564:3568   */\n      dup2\n        /* \"#utility.yul\":3560:3575   */\n      add\n        /* \"#utility.yul\":3552:3575   */\n      swap1\n      pop\n        /* \"#utility.yul\":3261:3582   */\n      swap2\n      swap1\n      pop\n      jump\t// out\n        /* \"#utility.yul\":3588:3705   */\n    tag_80:\n        /* \"#utility.yul\":3697:3698   */\n      0x00\n        /* \"#utility.yul\":3694:3695   */\n      dup1\n        /* \"#utility.yul\":3687:3699   */\n      revert\n        /* \"#utility.yul\":3727:4672   */\n    tag_81:\n        /* \"#utility.yul\":3833:3838   */\n      0x00\n        /* \"#utility.yul\":3858:3949   */\n      tag_149\n        /* \"#utility.yul\":3874:3948   */\n      tag_150\n        /* \"#utility.yul\":3941:3947   */\n      dup5\n        /* \"#utility.yul\":3874:3948   */\n      tag_79\n      jump\t// in\n    tag_150:\n        /* \"#utility.yul\":3858:3949   */\n      tag_74\n      jump\t// in\n    tag_149:\n        /* \"#utility.yul\":3849:3949   */\n      swap1\n      pop\n        /* \"#utility.yul\":3969:3974   */\n      dup1\n        /* \"#utility.yul\":3998:4004   */\n      dup4\n        /* \"#utility.yul\":3991:3996   */\n      dup3\n        /* \"#utility.yul\":3984:4005   */\n      mstore\n        /* \"#utility.yul\":4032:4036   */\n      0x20\n        /* \"#utility.yul\":4025:4030   */\n      dup3\n        /* \"#utility.yul\":4021:4037   */\n      add\n        /* \"#utility.yul\":4014:4037   */\n      swap1\n      pop\n        /* \"#utility.yul\":4085:4089   */\n      0x20\n        /* \"#utility.yul\":4077:4083   */\n      dup5\n        /* \"#utility.yul\":4073:4090   */\n      mul\n        /* \"#utility.yul\":4065:4071   */\n      dup4\n        /* \"#utility.yul\":4061:4091   */\n      add\n        /* \"#utility.yul\":4114:4117   */\n      dup6\n        /* \"#utility.yul\":4106:4112   */\n      dup2\n        /* \"#utility.yul\":4103:4118   */\n      gt\n        /* \"#utility.yul\":4100:4222   */\n      iszero\n      tag_151\n      jumpi\n        /* \"#utility.yul\":4133:4212   */\n      tag_152\n      tag_80\n      jump\t// in\n    tag_152:\n        /* \"#utility.yul\":4100:4222   */\n    tag_151:\n        /* \"#utility.yul\":4248:4254   */\n      dup4\n        /* \"#utility.yul\":4231:4666   */\n    tag_153:\n        /* \"#utility.yul\":4265:4271   */\n      dup2\n        /* \"#utility.yul\":4260:4263   */\n      dup2\n        /* \"#utility.yul\":4257:4272   */\n      lt\n        /* \"#utility.yul\":4231:4666   */\n      iszero\n      tag_155\n      jumpi\n        /* \"#utility.yul\":4354:4357   */\n      dup1\n        /* \"#utility.yul\":4341:4358   */\n      calldataload\n        /* \"#utility.yul\":4390:4408   */\n      0xffffffffffffffff\n        /* \"#utility.yul\":4377:4388   */\n      dup2\n        /* \"#utility.yul\":4374:4409   */\n      gt\n        /* \"#utility.yul\":4371:4493   */\n      iszero\n      tag_156\n      jumpi\n        /* \"#utility.yul\":4412:4491   */\n      tag_157\n      tag_69\n      jump\t// in\n    tag_157:\n        /* \"#utility.yul\":4371:4493   */\n    tag_156:\n        /* \"#utility.yul\":4536:4547   */\n      dup1\n        /* \"#utility.yul\":4528:4534   */\n      dup7\n        /* \"#utility.yul\":4524:4548   */\n      add\n        /* \"#utility.yul\":4574:4621   */\n      tag_158\n        /* \"#utility.yul\":4617:4620   */\n      dup10\n        /* \"#utility.yul\":4605:4615   */\n      dup3\n        /* \"#utility.yul\":4574:4621   */\n      tag_78\n      jump\t// in\n    tag_158:\n        /* \"#utility.yul\":4569:4572   */\n      dup6\n        /* \"#utility.yul\":4562:4622   */\n      mstore\n        /* \"#utility.yul\":4651:4655   */\n      0x20\n        /* \"#utility.yul\":4646:4649   */\n      dup6\n        /* \"#utility.yul\":4642:4656   */\n      add\n        /* \"#utility.yul\":4635:4656   */\n      swap5\n      pop\n        /* \"#utility.yul\":4307:4666   */\n      pop\n      pop\n        /* \"#utility.yul\":4291:4295   */\n      0x20\n        /* \"#utility.yul\":4286:4289   */\n      dup2\n        /* \"#utility.yul\":4282:4296   */\n      add\n        /* \"#utility.yul\":4275:4296   */\n      swap1\n      pop\n        /* \"#utility.yul\":4231:4666   */\n      jump(tag_153)\n    tag_155:\n        /* \"#utility.yul\":4235:4256   */\n      pop\n        /* \"#utility.yul\":3839:4672   */\n      pop\n      pop\n        /* \"#utility.yul\":3727:4672   */\n      swap4\n      swap3\n      pop\n      pop\n      pop\n      jump\t// out\n        /* \"#utility.yul\":4694:5084   */\n    tag_82:\n        /* \"#utility.yul\":4775:4780   */\n      0x00\n        /* \"#utility.yul\":4824:4827   */\n      dup3\n        /* \"#utility.yul\":4817:4821   */\n      0x1f\n        /* \"#utility.yul\":4809:4815   */\n      dup4\n        /* \"#utility.yul\":4805:4822   */\n      add\n        /* \"#utility.yul\":4801:4828   */\n      slt\n        /* \"#utility.yul\":4791:4913   */\n      tag_160\n      jumpi\n        /* \"#utility.yul\":4832:4911   */\n      tag_161\n      tag_69\n      jump\t// in\n    tag_161:\n        /* \"#utility.yul\":4791:4913   */\n    tag_160:\n        /* \"#utility.yul\":4949:4955   */\n      dup2\n        /* \"#utility.yul\":4936:4956   */\n      calldataload\n        /* \"#utility.yul\":4974:5078   */\n      tag_162\n        /* \"#utility.yul\":5074:5077   */\n      dup5\n        /* \"#utility.yul\":5066:5072   */\n      dup3\n        /* \"#utility.yul\":5059:5063   */\n      0x20\n        /* \"#utility.yul\":5051:5057   */\n      dup7\n        /* \"#utility.yul\":5047:5064   */\n      add\n        /* \"#utility.yul\":4974:5078   */\n      tag_81\n      jump\t// in\n    tag_162:\n        /* \"#utility.yul\":4965:5078   */\n      swap2\n      pop\n        /* \"#utility.yul\":4781:5084   */\n      pop\n        /* \"#utility.yul\":4694:5084   */\n      swap3\n      swap2\n      pop\n      pop\n      jump\t// out\n        /* \"#utility.yul\":5090:6771   */\n    tag_12:\n        /* \"#utility.yul\":5250:5256   */\n      0x00\n        /* \"#utility.yul\":5258:5264   */\n      dup1\n        /* \"#utility.yul\":5266:5272   */\n      0x00\n        /* \"#utility.yul\":5274:5280   */\n      dup1\n        /* \"#utility.yul\":5282:5288   */\n      0x00\n        /* \"#utility.yul\":5331:5334   */\n      0xa0\n        /* \"#utility.yul\":5319:5328   */\n      dup7\n        /* \"#utility.yul\":5310:5317   */\n      dup9\n        /* \"#utility.yul\":5306:5329   */\n      sub\n        /* \"#utility.yul\":5302:5335   */\n      slt\n        /* \"#utility.yul\":5299:5419   */\n      iszero\n      tag_164\n      jumpi\n        /* \"#utility.yul\":5338:5417   */\n      tag_165\n      tag_65\n      jump\t// in\n    tag_165:\n        /* \"#utility.yul\":5299:5419   */\n    tag_164:\n        /* \"#utility.yul\":5458:5459   */\n      0x00\n        /* \"#utility.yul\":5483:5536   */\n      tag_166\n        /* \"#utility.yul\":5528:5535   */\n      dup9\n        /* \"#utility.yul\":5519:5525   */\n      dup3\n        /* \"#utility.yul\":5508:5517   */\n      dup10\n        /* \"#utility.yul\":5504:5526   */\n      add\n        /* \"#utility.yul\":5483:5536   */\n      tag_68\n      jump\t// in\n    tag_166:\n        /* \"#utility.yul\":5473:5536   */\n      swap6\n      pop\n        /* \"#utility.yul\":5429:5546   */\n      pop\n        /* \"#utility.yul\":5613:5615   */\n      0x20\n        /* \"#utility.yul\":5602:5611   */\n      dup7\n        /* \"#utility.yul\":5598:5616   */\n      add\n        /* \"#utility.yul\":5585:5617   */\n      calldataload\n        /* \"#utility.yul\":5644:5662   */\n      0xffffffffffffffff\n        /* \"#utility.yul\":5636:5642   */\n      dup2\n        /* \"#utility.yul\":5633:5663   */\n      gt\n        /* \"#utility.yul\":5630:5747   */\n      iszero\n      tag_167\n      jumpi\n        /* \"#utility.yul\":5666:5745   */\n      tag_168\n      tag_66\n      jump\t// in\n    tag_168:\n        /* \"#utility.yul\":5630:5747   */\n    tag_167:\n        /* \"#utility.yul\":5771:5834   */\n      tag_169\n        /* \"#utility.yul\":5826:5833   */\n      dup9\n        /* \"#utility.yul\":5817:5823   */\n      dup3\n        /* \"#utility.yul\":5806:5815   */\n      dup10\n        /* \"#utility.yul\":5802:5824   */\n      add\n        /* \"#utility.yul\":5771:5834   */\n      tag_78\n      jump\t// in\n    tag_169:\n        /* \"#utility.yul\":5761:5834   */\n      swap5\n      pop\n        /* \"#utility.yul\":5556:5844   */\n      pop\n        /* \"#utility.yul\":5911:5913   */\n      0x40\n        /* \"#utility.yul\":5900:5909   */\n      dup7\n        /* \"#utility.yul\":5896:5914   */\n      add\n        /* \"#utility.yul\":5883:5915   */\n      calldataload\n        /* \"#utility.yul\":5942:5960   */\n      0xffffffffffffffff\n        /* \"#utility.yul\":5934:5940   */\n      dup2\n        /* \"#utility.yul\":5931:5961   */\n      gt\n        /* \"#utility.yul\":5928:6045   */\n      iszero\n      tag_170\n      jumpi\n        /* \"#utility.yul\":5964:6043   */\n      tag_171\n      tag_66\n      jump\t// in\n    tag_171:\n        /* \"#utility.yul\":5928:6045   */\n    tag_170:\n        /* \"#utility.yul\":6069:6132   */\n      tag_172\n        /* \"#utility.yul\":6124:6131   */\n      dup9\n        /* \"#utility.yul\":6115:6121   */\n      dup3\n        /* \"#utility.yul\":6104:6113   */\n      dup10\n        /* \"#utility.yul\":6100:6122   */\n      add\n        /* \"#utility.yul\":6069:6132   */\n      tag_78\n      jump\t// in\n    tag_172:\n        /* \"#utility.yul\":6059:6132   */\n      swap4\n      pop\n        /* \"#utility.yul\":5854:6142   */\n      pop\n        /* \"#utility.yul\":6209:6211   */\n      0x60\n        /* \"#utility.yul\":6198:6207   */\n      dup7\n        /* \"#utility.yul\":6194:6212   */\n      add\n        /* \"#utility.yul\":6181:6213   */\n      calldataload\n        /* \"#utility.yul\":6240:6258   */\n      0xffffffffffffffff\n        /* \"#utility.yul\":6232:6238   */\n      dup2\n        /* \"#utility.yul\":6229:6259   */\n      gt\n        /* \"#utility.yul\":6226:6343   */\n      iszero\n      tag_173\n      jumpi\n        /* \"#utility.yul\":6262:6341   */\n      tag_174\n      tag_66\n      jump\t// in\n    tag_174:\n        /* \"#utility.yul\":6226:6343   */\n    tag_173:\n        /* \"#utility.yul\":6367:6430   */\n      tag_175\n        /* \"#utility.yul\":6422:6429   */\n      dup9\n        /* \"#utility.yul\":6413:6419   */\n      dup3\n        /* \"#utility.yul\":6402:6411   */\n      dup10\n        /* \"#utility.yul\":6398:6420   */\n      add\n        /* \"#utility.yul\":6367:6430   */\n      tag_78\n      jump\t// in\n    tag_175:\n        /* \"#utility.yul\":6357:6430   */\n      swap3\n      pop\n        /* \"#utility.yul\":6152:6440   */\n      pop\n        /* \"#utility.yul\":6507:6510   */\n      0x80\n        /* \"#utility.yul\":6496:6505   */\n      dup7\n        /* \"#utility.yul\":6492:6511   */\n      add\n        /* \"#utility.yul\":6479:6512   */\n      calldataload\n        /* \"#utility.yul\":6539:6557   */\n      0xffffffffffffffff\n        /* \"#utility.yul\":6531:6537   */\n      dup2\n        /* \"#utility.yul\":6528:6558   */\n      gt\n        /* \"#utility.yul\":6525:6642   */\n      iszero\n      tag_176\n      jumpi\n        /* \"#utility.yul\":6561:6640   */\n      tag_177\n      tag_66\n      jump\t// in\n    tag_177:\n        /* \"#utility.yul\":6525:6642   */\n    tag_176:\n        /* \"#utility.yul\":6666:6754   */\n      tag_178\n        /* \"#utility.yul\":6746:6753   */\n      dup9\n        /* \"#utility.yul\":6737:6743   */\n      dup3\n        /* \"#utility.yul\":6726:6735   */\n      dup10\n        /* \"#utility.yul\":6722:6744   */\n      add\n        /* \"#utility.yul\":6666:6754   */\n      tag_82\n      jump\t// in\n    tag_178:\n        /* \"#utility.yul\":6656:6754   */\n      swap2\n      pop\n        /* \"#utility.yul\":6450:6764   */\n      pop\n        /* \"#utility.yul\":5090:6771   */\n      swap3\n      swap6\n      pop\n      swap3\n      swap6\n      swap1\n      swap4\n      pop\n      jump\t// out\n        /* \"#utility.yul\":6777:7106   */\n    tag_16:\n        /* \"#utility.yul\":6836:6842   */\n      0x00\n        /* \"#utility.yul\":6885:6887   */\n      0x20\n        /* \"#utility.yul\":6873:6882   */\n      dup3\n        /* \"#utility.yul\":6864:6871   */\n      dup5\n        /* \"#utility.yul\":6860:6883   */\n      sub\n        /* \"#utility.yul\":6856:6888   */\n      slt\n        /* \"#utility.yul\":6853:6972   */\n      iszero\n      tag_180\n      jumpi\n        /* \"#utility.yul\":6891:6970   */\n      tag_181\n      tag_65\n      jump\t// in\n    tag_181:\n        /* \"#utility.yul\":6853:6972   */\n    tag_180:\n        /* \"#utility.yul\":7011:7012   */\n      0x00\n        /* \"#utility.yul\":7036:7089   */\n      tag_182\n        /* \"#utility.yul\":7081:7088   */\n      dup5\n        /* \"#utility.yul\":7072:7078   */\n      dup3\n        /* \"#utility.yul\":7061:7070   */\n      dup6\n        /* \"#utility.yul\":7057:7079   */\n      add\n        /* \"#utility.yul\":7036:7089   */\n      tag_68\n      jump\t// in\n    tag_182:\n        /* \"#utility.yul\":7026:7089   */\n      swap2\n      pop\n        /* \"#utility.yul\":6982:7099   */\n      pop\n        /* \"#utility.yul\":6777:7106   */\n      swap3\n      swap2\n      pop\n      pop\n      jump\t// out\n        /* \"#utility.yul\":7112:7211   */\n    tag_83:\n        /* \"#utility.yul\":7164:7170   */\n      0x00\n        /* \"#utility.yul\":7198:7203   */\n      dup2\n        /* \"#utility.yul\":7192:7204   */\n      mload\n        /* \"#utility.yul\":7182:7204   */\n      swap1\n      pop\n        /* \"#utility.yul\":7112:7211   */\n      swap2\n      swap1\n      pop\n      jump\t// out\n        /* \"#utility.yul\":7217:7386   */\n    tag_84:\n        /* \"#utility.yul\":7301:7312   */\n      0x00\n        /* \"#utility.yul\":7335:7341   */\n      dup3\n        /* \"#utility.yul\":7330:7333   */\n      dup3\n        /* \"#utility.yul\":7323:7342   */\n      mstore\n        /* \"#utility.yul\":7375:7379   */\n      0x20\n        /* \"#utility.yul\":7370:7373   */\n      dup3\n        /* \"#utility.yul\":7366:7380   */\n      add\n        /* \"#utility.yul\":7351:7380   */\n      swap1\n      pop\n        /* \"#utility.yul\":7217:7386   */\n      swap3\n      swap2\n      pop\n      pop\n      jump\t// out\n        /* \"#utility.yul\":7392:7638   */\n    tag_85:\n        /* \"#utility.yul\":7473:7474   */\n      0x00\n        /* \"#utility.yul\":7483:7596   */\n    tag_186:\n        /* \"#utility.yul\":7497:7503   */\n      dup4\n        /* \"#utility.yul\":7494:7495   */\n      dup2\n        /* \"#utility.yul\":7491:7504   */\n      lt\n        /* \"#utility.yul\":7483:7596   */\n      iszero\n      tag_188\n      jumpi\n        /* \"#utility.yul\":7582:7583   */\n      dup1\n        /* \"#utility.yul\":7577:7580   */\n      dup3\n        /* \"#utility.yul\":7573:7584   */\n      add\n        /* \"#utility.yul\":7567:7585   */\n      mload\n        /* \"#utility.yul\":7563:7564   */\n      dup2\n        /* \"#utility.yul\":7558:7561   */\n      dup5\n        /* \"#utility.yul\":7554:7565   */\n      add\n        /* \"#utility.yul\":7547:7586   */\n      mstore\n        /* \"#utility.yul\":7519:7521   */\n      0x20\n        /* \"#utility.yul\":7516:7517   */\n      dup2\n        /* \"#utility.yul\":7512:7522   */\n      add\n        /* \"#utility.yul\":7507:7522   */\n      swap1\n      pop\n        /* \"#utility.yul\":7483:7596   */\n      jump(tag_186)\n    tag_188:\n        /* \"#utility.yul\":7630:7631   */\n      0x00\n        /* \"#utility.yul\":7621:7627   */\n      dup5\n        /* \"#utility.yul\":7616:7619   */\n      dup5\n        /* \"#utility.yul\":7612:7628   */\n      add\n        /* \"#utility.yul\":7605:7632   */\n      mstore\n        /* \"#utility.yul\":7454:7638   */\n      pop\n        /* \"#utility.yul\":7392:7638   */\n      pop\n      pop\n      pop\n      jump\t// out\n        /* \"#utility.yul\":7644:8021   */\n    tag_86:\n        /* \"#utility.yul\":7732:7735   */\n      0x00\n        /* \"#utility.yul\":7760:7799   */\n      tag_190\n        /* \"#utility.yul\":7793:7798   */\n      dup3\n        /* \"#utility.yul\":7760:7799   */\n      tag_83\n      jump\t// in\n    tag_190:\n        /* \"#utility.yul\":7815:7886   */\n      tag_191\n        /* \"#utility.yul\":7879:7885   */\n      dup2\n        /* \"#utility.yul\":7874:7877   */\n      dup6\n        /* \"#utility.yul\":7815:7886   */\n      tag_84\n      jump\t// in\n    tag_191:\n        /* \"#utility.yul\":7808:7886   */\n      swap4\n      pop\n        /* \"#utility.yul\":7895:7960   */\n      tag_192\n        /* \"#utility.yul\":7953:7959   */\n      dup2\n        /* \"#utility.yul\":7948:7951   */\n      dup6\n        /* \"#utility.yul\":7941:7945   */\n      0x20\n        /* \"#utility.yul\":7934:7939   */\n      dup7\n        /* \"#utility.yul\":7930:7946   */\n      add\n        /* \"#utility.yul\":7895:7960   */\n      tag_85\n      jump\t// in\n    tag_192:\n        /* \"#utility.yul\":7985:8014   */\n      tag_193\n        /* \"#utility.yul\":8007:8013   */\n      dup2\n        /* \"#utility.yul\":7985:8014   */\n      tag_71\n      jump\t// in\n    tag_193:\n        /* \"#utility.yul\":7980:7983   */\n      dup5\n        /* \"#utility.yul\":7976:8015   */\n      add\n        /* \"#utility.yul\":7969:8015   */\n      swap2\n      pop\n        /* \"#utility.yul\":7736:8021   */\n      pop\n        /* \"#utility.yul\":7644:8021   */\n      swap3\n      swap2\n      pop\n      pop\n      jump\t// out\n        /* \"#utility.yul\":8027:8853   */\n    tag_19:\n        /* \"#utility.yul\":8264:8268   */\n      0x00\n        /* \"#utility.yul\":8302:8305   */\n      0x80\n        /* \"#utility.yul\":8291:8300   */\n      dup3\n        /* \"#utility.yul\":8287:8306   */\n      add\n        /* \"#utility.yul\":8279:8306   */\n      swap1\n      pop\n        /* \"#utility.yul\":8316:8387   */\n      tag_195\n        /* \"#utility.yul\":8384:8385   */\n      0x00\n        /* \"#utility.yul\":8373:8382   */\n      dup4\n        /* \"#utility.yul\":8369:8386   */\n      add\n        /* \"#utility.yul\":8360:8366   */\n      dup8\n        /* \"#utility.yul\":8316:8387   */\n      tag_63\n      jump\t// in\n    tag_195:\n        /* \"#utility.yul\":8434:8443   */\n      dup2\n        /* \"#utility.yul\":8428:8432   */\n      dup2\n        /* \"#utility.yul\":8424:8444   */\n      sub\n        /* \"#utility.yul\":8419:8421   */\n      0x20\n        /* \"#utility.yul\":8408:8417   */\n      dup4\n        /* \"#utility.yul\":8404:8422   */\n      add\n        /* \"#utility.yul\":8397:8445   */\n      mstore\n        /* \"#utility.yul\":8462:8540   */\n      tag_196\n        /* \"#utility.yul\":8535:8539   */\n      dup2\n        /* \"#utility.yul\":8526:8532   */\n      dup7\n        /* \"#utility.yul\":8462:8540   */\n      tag_86\n      jump\t// in\n    tag_196:\n        /* \"#utility.yul\":8454:8540   */\n      swap1\n      pop\n        /* \"#utility.yul\":8587:8596   */\n      dup2\n        /* \"#utility.yul\":8581:8585   */\n      dup2\n        /* \"#utility.yul\":8577:8597   */\n      sub\n        /* \"#utility.yul\":8572:8574   */\n      0x40\n        /* \"#utility.yul\":8561:8570   */\n      dup4\n        /* \"#utility.yul\":8557:8575   */\n      add\n        /* \"#utility.yul\":8550:8598   */\n      mstore\n        /* \"#utility.yul\":8615:8693   */\n      tag_197\n        /* \"#utility.yul\":8688:8692   */\n      dup2\n        /* \"#utility.yul\":8679:8685   */\n      dup6\n        /* \"#utility.yul\":8615:8693   */\n      tag_86\n      jump\t// in\n    tag_197:\n        /* \"#utility.yul\":8607:8693   */\n      swap1\n      pop\n        /* \"#utility.yul\":8740:8749   */\n      dup2\n        /* \"#utility.yul\":8734:8738   */\n      dup2\n        /* \"#utility.yul\":8730:8750   */\n      sub\n        /* \"#utility.yul\":8725:8727   */\n      0x60\n        /* \"#utility.yul\":8714:8723   */\n      dup4\n        /* \"#utility.yul\":8710:8728   */\n      add\n        /* \"#utility.yul\":8703:8751   */\n      mstore\n        /* \"#utility.yul\":8768:8846   */\n      tag_198\n        /* \"#utility.yul\":8841:8845   */\n      dup2\n        /* \"#utility.yul\":8832:8838   */\n      dup5\n        /* \"#utility.yul\":8768:8846   */\n      tag_86\n      jump\t// in\n    tag_198:\n        /* \"#utility.yul\":8760:8846   */\n      swap1\n      pop\n        /* \"#utility.yul\":8027:8853   */\n      swap6\n      swap5\n      pop\n      pop\n      pop\n      pop\n      pop\n      jump\t// out\n        /* \"#utility.yul\":8859:9039   */\n    tag_87:\n        /* \"#utility.yul\":8907:8984   */\n      0x4e487b7100000000000000000000000000000000000000000000000000000000\n        /* \"#utility.yul\":8904:8905   */\n      0x00\n        /* \"#utility.yul\":8897:8985   */\n      mstore\n        /* \"#utility.yul\":9004:9008   */\n      0x22\n        /* \"#utility.yul\":9001:9002   */\n      0x04\n        /* \"#utility.yul\":8994:9009   */\n      mstore\n        /* \"#utility.yul\":9028:9032   */\n      0x24\n        /* \"#utility.yul\":9025:9026   */\n      0x00\n        /* \"#utility.yul\":9018:9033   */\n      revert\n        /* \"#utility.yul\":9045:9365   */\n    tag_30:\n        /* \"#utility.yul\":9089:9095   */\n      0x00\n        /* \"#utility.yul\":9126:9127   */\n      0x02\n        /* \"#utility.yul\":9120:9124   */\n      dup3\n        /* \"#utility.yul\":9116:9128   */\n      div\n        /* \"#utility.yul\":9106:9128   */\n      swap1\n      pop\n        /* \"#utility.yul\":9173:9174   */\n      0x01\n        /* \"#utility.yul\":9167:9171   */\n      dup3\n        /* \"#utility.yul\":9163:9175   */\n      and\n        /* \"#utility.yul\":9194:9212   */\n      dup1\n        /* \"#utility.yul\":9184:9265   */\n      tag_201\n      jumpi\n        /* \"#utility.yul\":9250:9254   */\n      0x7f\n        /* \"#utility.yul\":9242:9248   */\n      dup3\n        /* \"#utility.yul\":9238:9255   */\n      and\n        /* \"#utility.yul\":9228:9255   */\n      swap2\n      pop\n        /* \"#utility.yul\":9184:9265   */\n    tag_201:\n        /* \"#utility.yul\":9312:9314   */\n      0x20\n        /* \"#utility.yul\":9304:9310   */\n      dup3\n        /* \"#utility.yul\":9301:9315   */\n      lt\n        /* \"#utility.yul\":9281:9299   */\n      dup2\n        /* \"#utility.yul\":9278:9316   */\n      sub\n        /* \"#utility.yul\":9275:9359   */\n      tag_202\n      jumpi\n        /* \"#utility.yul\":9331:9349   */\n      tag_203\n      tag_87\n      jump\t// in\n    tag_203:\n        /* \"#utility.yul\":9275:9359   */\n    tag_202:\n        /* \"#utility.yul\":9096:9365   */\n      pop\n        /* \"#utility.yul\":9045:9365   */\n      swap2\n      swap1\n      pop\n      jump\t// out\n        /* \"#utility.yul\":9371:9512   */\n    tag_88:\n        /* \"#utility.yul\":9420:9424   */\n      0x00\n        /* \"#utility.yul\":9443:9446   */\n      dup2\n        /* \"#utility.yul\":9435:9446   */\n      swap1\n      pop\n        /* \"#utility.yul\":9466:9469   */\n      dup2\n        /* \"#utility.yul\":9463:9464   */\n      0x00\n        /* \"#utility.yul\":9456:9470   */\n      mstore\n        /* \"#utility.yul\":9500:9504   */\n      0x20\n        /* \"#utility.yul\":9497:9498   */\n      0x00\n        /* \"#utility.yul\":9487:9505   */\n      keccak256\n        /* \"#utility.yul\":9479:9505   */\n      swap1\n      pop\n        /* \"#utility.yul\":9371:9512   */\n      swap2\n      swap1\n      pop\n      jump\t// out\n        /* \"#utility.yul\":9518:9611   */\n    tag_89:\n        /* \"#utility.yul\":9555:9561   */\n      0x00\n        /* \"#utility.yul\":9602:9604   */\n      0x20\n        /* \"#utility.yul\":9597:9599   */\n      0x1f\n        /* \"#utility.yul\":9590:9595   */\n      dup4\n        /* \"#utility.yul\":9586:9600   */\n      add\n        /* \"#utility.yul\":9582:9605   */\n      div\n        /* \"#utility.yul\":9572:9605   */\n      swap1\n      pop\n        /* \"#utility.yul\":9518:9611   */\n      swap2\n      swap1\n      pop\n      jump\t// out\n        /* \"#utility.yul\":9617:9724   */\n    tag_90:\n        /* \"#utility.yul\":9661:9669   */\n      0x00\n        /* \"#utility.yul\":9711:9716   */\n      dup3\n        /* \"#utility.yul\":9705:9709   */\n      dup3\n        /* \"#utility.yul\":9701:9717   */\n      shl\n        /* \"#utility.yul\":9680:9717   */\n      swap1\n      pop\n        /* \"#utility.yul\":9617:9724   */\n      swap3\n      swap2\n      pop\n      pop\n      jump\t// out\n        /* \"#utility.yul\":9730:10123   */\n    tag_91:\n        /* \"#utility.yul\":9799:9805   */\n      0x00\n        /* \"#utility.yul\":9849:9850   */\n      0x08\n        /* \"#utility.yul\":9837:9847   */\n      dup4\n        /* \"#utility.yul\":9833:9851   */\n      mul\n        /* \"#utility.yul\":9872:9969   */\n      tag_208\n        /* \"#utility.yul\":9902:9968   */\n      0xffffffffffffffffffffffffffffffffffffffffffffffffffffffffffffffff\n        /* \"#utility.yul\":9891:9900   */\n      dup3\n        /* \"#utility.yul\":9872:9969   */\n      tag_90\n      jump\t// in\n    tag_208:\n        /* \"#utility.yul\":9990:10029   */\n      tag_209\n        /* \"#utility.yul\":10020:10028   */\n      dup7\n        /* \"#utility.yul\":10009:10018   */\n      dup4\n        /* \"#utility.yul\":9990:10029   */\n      tag_90\n      jump\t// in\n    tag_209:\n        /* \"#utility.yul\":9978:10029   */\n      swap6\n      pop\n        /* \"#utility.yul\":10062:10066   */\n      dup1\n        /* \"#utility.yul\":10058:10067   */\n      not\n        /* \"#utility.yul\":10051:10056   */\n      dup5\n        /* \"#utility.yul\":10047:10068   */\n      and\n        /* \"#utility.yul\":10038:10068   */\n      swap4\n      pop\n        /* \"#utility.yul\":10111:10115   */\n      dup1\n        /* \"#utility.yul\":10101:10109   */\n      dup7\n        /* \"#utility.yul\":10097:10116   */\n      and\n        /* \"#utility.yul\":10090:10095   */\n      dup5\n        /* \"#utility.yul\":10087:10117   */\n      or\n        /* \"#utility.yul\":10077:10117   */\n      swap3\n      pop\n        /* \"#utility.yul\":9806:10123   */\n      pop\n      pop\n        /* \"#utility.yul\":9730:10123   */\n      swap4\n      swap3\n      pop\n      pop\n      pop\n      jump\t// out\n        /* \"#utility.yul\":10129:10189   */\n    tag_92:\n        /* \"#utility.yul\":10157:10160   */\n      0x00\n        /* \"#utility.yul\":10178:10183   */\n      dup2\n        /* \"#utility.yul\":10171:10183   */\n      swap1\n      pop\n        /* \"#utility.yul\":10129:10189   */\n      swap2\n      swap1\n      pop\n      jump\t// out\n        /* \"#utility.yul\":10195:10337   */\n    tag_93:\n        /* \"#utility.yul\":10245:10254   */\n      0x00\n        /* \"#utility.yul\":10278:10331   */\n      tag_212\n        /* \"#utility.yul\":10296:10330   */\n      tag_213\n        /* \"#utility.yul\":10305:10329   */\n      tag_214\n        /* \"#utility.yul\":10323:10328   */\n      dup5\n        /* \"#utility.yul\":10305:10329   */\n      tag_62\n      jump\t// in\n    tag_214:\n        /* \"#utility.yul\":10296:10330   */\n      tag_92\n      jump\t// in\n    tag_213:\n        /* \"#utility.yul\":10278:10331   */\n      tag_62\n      jump\t// in\n    tag_212:\n        /* \"#utility.yul\":10265:10331   */\n      swap1\n      pop\n        /* \"#utility.yul\":10195:10337   */\n      swap2\n      swap1\n      pop\n      jump\t// out\n        /* \"#utility.yul\":10343:10418   */\n    tag_94:\n        /* \"#utility.yul\":10386:10389   */\n      0x00\n        /* \"#utility.yul\":10407:10412   */\n      dup2\n        /* \"#utility.yul\":10400:10412   */\n      swap1\n      pop\n        /* \"#utility.yul\":10343:10418   */\n      swap2\n      swap1\n      pop\n      jump\t// out\n        /* \"#utility.yul\":10424:10693   */\n    tag_95:\n        /* \"#utility.yul\":10534:10573   */\n      tag_217\n        /* \"#utility.yul\":10565:10572   */\n      dup4\n        /* \"#utility.yul\":10534:10573   */\n      tag_93\n      jump\t// in\n    tag_217:\n        /* \"#utility.yul\":10595:10686   */\n      tag_218\n        /* \"#utility.yul\":10644:10685   */\n      tag_219\n        /* \"#utility.yul\":10668:10684   */\n      dup3\n        /* \"#utility.yul\":10644:10685   */\n      tag_94\n      jump\t// in\n    tag_219:\n        /* \"#utility.yul\":10636:10642   */\n      dup5\n        /* \"#utility.yul\":10629:10633   */\n      dup5\n        /* \"#utility.yul\":10623:10634   */\n      sload\n        /* \"#utility.yul\":10595:10686   */\n      tag_91\n      jump\t// in\n    tag_218:\n        /* \"#utility.yul\":10589:10593   */\n      dup3\n        /* \"#utility.yul\":10582:10687   */\n      sstore\n        /* \"#utility.yul\":10500:10693   */\n      pop\n        /* \"#utility.yul\":10424:10693   */\n      pop\n      pop\n      pop\n      jump\t// out\n        /* \"#utility.yul\":10699:10772   */\n    tag_96:\n        /* \"#utility.yul\":10744:10747   */\n      0x00\n        /* \"#utility.yul\":10699:10772   */\n      swap1\n      jump\t// out\n        /* \"#utility.yul\":10778:10967   */\n    tag_97:\n        /* \"#utility.yul\":10855:10887   */\n      tag_222\n      tag_96\n      jump\t// in\n    tag_222:\n        /* \"#utility.yul\":10896:10961   */\n      tag_223\n        /* \"#utility.yul\":10954:10960   */\n      dup2\n        /* \"#utility.yul\":10946:10952   */\n      dup5\n        /* \"#utility.yul\":10940:10944   */\n      dup5\n        /* \"#utility.yul\":10896:10961   */\n      tag_95\n      jump\t// in\n    tag_223:\n        /* \"#utility.yul\":10831:10967   */\n      pop\n        /* \"#utility.yul\":10778:10967   */\n      pop\n      pop\n      jump\t// out\n        /* \"#utility.yul\":10973:11159   */\n    tag_98:\n        /* \"#utility.yul\":11033:11153   */\n    tag_225:\n        /* \"#utility.yul\":11050:11053   */\n      dup2\n        /* \"#utility.yul\":11043:11048   */\n      dup2\n        /* \"#utility.yul\":11040:11054   */\n      lt\n        /* \"#utility.yul\":11033:11153   */\n      iszero\n      tag_227\n      jumpi\n        /* \"#utility.yul\":11104:11143   */\n      tag_228\n        /* \"#utility.yul\":11141:11142   */\n      0x00\n        /* \"#utility.yul\":11134:11139   */\n      dup3\n        /* \"#utility.yul\":11104:11143   */\n      tag_97\n      jump\t// in\n    tag_228:\n        /* \"#utility.yul\":11077:11078   */\n      0x01\n        /* \"#utility.yul\":11070:11075   */\n      dup2\n        /* \"#utility.yul\":11066:11079   */\n      add\n        /* \"#utility.yul\":11057:11079   */\n      swap1\n      pop\n        /* \"#utility.yul\":11033:11153   */\n      jump(tag_225)\n    tag_227:\n        /* \"#utility.yul\":10973:11159   */\n      pop\n      pop\n      jump\t// out\n        /* \"#utility.yul\":11165:11708   */\n    tag_99:\n        /* \"#utility.yul\":11266:11268   */\n      0x1f\n        /* \"#utility.yul\":11261:11264   */\n      dup3\n        /* \"#utility.yul\":11258:11269   */\n      gt\n        /* \"#utility.yul\":11255:11701   */\n      iszero\n      tag_230\n      jumpi\n        /* \"#utility.yul\":11300:11338   */\n      tag_231\n        /* \"#utility.yul\":11332:11337   */\n      dup2\n        /* \"#utility.yul\":11300:11338   */\n      tag_88\n      jump\t// in\n    tag_231:\n        /* \"#utility.yul\":11384:11413   */\n      tag_232\n        /* \"#utility.yul\":11402:11412   */\n      dup5\n        /* \"#utility.yul\":11384:11413   */\n      tag_89\n      jump\t// in\n    tag_232:\n        /* \"#utility.yul\":11374:11382   */\n      dup2\n        /* \"#utility.yul\":11370:11414   */\n      add\n        /* \"#utility.yul\":11567:11569   */\n      0x20\n        /* \"#utility.yul\":11555:11565   */\n      dup6\n        /* \"#utility.yul\":11552:11570   */\n      lt\n        /* \"#utility.yul\":11549:11598   */\n      iszero\n      tag_233\n      jumpi\n        /* \"#utility.yul\":11588:11596   */\n      dup2\n        /* \"#utility.yul\":11573:11596   */\n      swap1\n      pop\n        /* \"#utility.yul\":11549:11598   */\n    tag_233:\n        /* \"#utility.yul\":11611:11691   */\n      tag_234\n        /* \"#utility.yul\":11667:11689   */\n      tag_235\n        /* \"#utility.yul\":11685:11688   */\n      dup6\n        /* \"#utility.yul\":11667:11689   */\n      tag_89\n      jump\t// in\n    tag_235:\n        /* \"#utility.yul\":11657:11665   */\n      dup4\n        /* \"#utility.yul\":11653:11690   */\n      add\n        /* \"#utility.yul\":11640:11651   */\n      dup3\n        /* \"#utility.yul\":11611:11691   */\n      tag_98\n      jump\t// in\n    tag_234:\n        /* \"#utility.yul\":11270:11701   */\n      pop\n      pop\n        /* \"#utility.yul\":11255:11701   */\n    tag_230:\n        /* \"#utility.yul\":11165:11708   */\n      pop\n      pop\n      pop\n      jump\t// out\n        /* \"#utility.yul\":11714:11831   */\n    tag_100:\n        /* \"#utility.yul\":11768:11776   */\n      0x00\n        /* \"#utility.yul\":11818:11823   */\n      dup3\n        /* \"#utility.yul\":11812:11816   */\n      dup3\n        /* \"#utility.yul\":11808:11824   */\n      shr\n        /* \"#utility.yul\":11787:11824   */\n      swap1\n      pop\n        /* \"#utility.yul\":11714:11831   */\n      swap3\n      swap2\n      pop\n      pop\n      jump\t// out\n        /* \"#utility.yul\":11837:12006   */\n    tag_101:\n        /* \"#utility.yul\":11881:11887   */\n      0x00\n        /* \"#utility.yul\":11914:11965   */\n      tag_238\n        /* \"#utility.yul\":11962:11963   */\n      0x00\n        /* \"#utility.yul\":11958:11964   */\n      not\n        /* \"#utility.yul\":11950:11955   */\n      dup5\n        /* \"#utility.yul\":11947:11948   */\n      0x08\n        /* \"#utility.yul\":11943:11956   */\n      mul\n        /* \"#utility.yul\":11914:11965   */\n      tag_100\n      jump\t// in\n    tag_238:\n        /* \"#utility.yul\":11910:11966   */\n      not\n        /* \"#utility.yul\":11995:11999   */\n      dup1\n        /* \"#utility.yul\":11989:11993   */\n      dup4\n        /* \"#utility.yul\":11985:12000   */\n      and\n        /* \"#utility.yul\":11975:12000   */\n      swap2\n      pop\n        /* \"#utility.yul\":11888:12006   */\n      pop\n        /* \"#utility.yul\":11837:12006   */\n      swap3\n      swap2\n      pop\n      pop\n      jump\t// out\n        /* \"#utility.yul\":12011:12306   */\n    tag_102:\n        /* \"#utility.yul\":12087:12091   */\n      0x00\n        /* \"#utility.yul\":12233:12262   */\n      tag_240\n        /* \"#utility.yul\":12258:12261   */\n      dup4\n        /* \"#utility.yul\":12252:12256   */\n      dup4\n        /* \"#utility.yul\":12233:12262   */\n      tag_101\n      jump\t// in\n    tag_240:\n        /* \"#utility.yul\":12225:12262   */\n      swap2\n      pop\n        /* \"#utility.yul\":12295:12298   */\n      dup3\n        /* \"#utility.yul\":12292:12293   */\n      0x02\n        /* \"#utility.yul\":12288:12299   */\n      mul\n        /* \"#utility.yul\":12282:12286   */\n      dup3\n        /* \"#utility.yul\":12279:12300   */\n      or\n        /* \"#utility.yul\":12271:12300   */\n      swap1\n      pop\n        /* \"#utility.yul\":12011:12306   */\n      swap3\n      swap2\n      pop\n      pop\n      jump\t// out\n        /* \"#utility.yul\":12311:13706   */\n    tag_22:\n        /* \"#utility.yul\":12428:12465   */\n      tag_242\n        /* \"#utility.yul\":12461:12464   */\n      dup3\n        /* \"#utility.yul\":12428:12465   */\n      tag_83\n      jump\t// in\n    tag_242:\n        /* \"#utility.yul\":12530:12548   */\n      0xffffffffffffffff\n        /* \"#utility.yul\":12522:12528   */\n      dup2\n        /* \"#utility.yul\":12519:12549   */\n      gt\n        /* \"#utility.yul\":12516:12572   */\n      iszero\n      tag_243\n      jumpi\n        /* \"#utility.yul\":12552:12570   */\n      tag_244\n      tag_72\n      jump\t// in\n    tag_244:\n        /* \"#utility.yul\":12516:12572   */\n    tag_243:\n        /* \"#utility.yul\":12596:12634   */\n      tag_245\n        /* \"#utility.yul\":12628:12632   */\n      dup3\n        /* \"#utility.yul\":12622:12633   */\n      sload\n        /* \"#utility.yul\":12596:12634   */\n      tag_30\n      jump\t// in\n    tag_245:\n        /* \"#utility.yul\":12681:12748   */\n      tag_246\n        /* \"#utility.yul\":12741:12747   */\n      dup3\n        /* \"#utility.yul\":12733:12739   */\n      dup3\n        /* \"#utility.yul\":12727:12731   */\n      dup6\n        /* \"#utility.yul\":12681:12748   */\n      tag_99\n      jump\t// in\n    tag_246:\n        /* \"#utility.yul\":12775:12776   */\n      0x00\n        /* \"#utility.yul\":12799:12803   */\n      0x20\n        /* \"#utility.yul\":12786:12803   */\n      swap1\n      pop\n        /* \"#utility.yul\":12831:12833   */\n      0x1f\n        /* \"#utility.yul\":12823:12829   */\n      dup4\n        /* \"#utility.yul\":12820:12834   */\n      gt\n        /* \"#utility.yul\":12848:12849   */\n      0x01\n        /* \"#utility.yul\":12843:13461   */\n      dup2\n      eq\n      tag_248\n      jumpi\n        /* \"#utility.yul\":13505:13506   */\n      0x00\n        /* \"#utility.yul\":13522:13528   */\n      dup5\n        /* \"#utility.yul\":13519:13596   */\n      iszero\n      tag_249\n      jumpi\n        /* \"#utility.yul\":13571:13580   */\n      dup3\n        /* \"#utility.yul\":13566:13569   */\n      dup8\n        /* \"#utility.yul\":13562:13581   */\n      add\n        /* \"#utility.yul\":13556:13582   */\n      mload\n        /* \"#utility.yul\":13547:13582   */\n      swap1\n      pop\n        /* \"#utility.yul\":13519:13596   */\n    tag_249:\n        /* \"#utility.yul\":13622:13689   */\n      tag_250\n        /* \"#utility.yul\":13682:13688   */\n      dup6\n        /* \"#utility.yul\":13675:13680   */\n      dup3\n        /* \"#utility.yul\":13622:13689   */\n      tag_102\n      jump\t// in\n    tag_250:\n        /* \"#utility.yul\":13616:13620   */\n      dup7\n        /* \"#utility.yul\":13609:13690   */\n      sstore\n        /* \"#utility.yul\":13478:13700   */\n      pop\n        /* \"#utility.yul\":12813:13700   */\n      jump(tag_247)\n        /* \"#utility.yul\":12843:13461   */\n    tag_248:\n        /* \"#utility.yul\":12895:12899   */\n      0x1f\n        /* \"#utility.yul\":12891:12900   */\n      not\n        /* \"#utility.yul\":12883:12889   */\n      dup5\n        /* \"#utility.yul\":12879:12901   */\n      and\n        /* \"#utility.yul\":12929:12966   */\n      tag_251\n        /* \"#utility.yul\":12961:12965   */\n      dup7\n        /* \"#utility.yul\":12929:12966   */\n      tag_88\n      jump\t// in\n    tag_251:\n        /* \"#utility.yul\":12988:12989   */\n      0x00\n        /* \"#utility.yul\":13002:13210   */\n    tag_252:\n        /* \"#utility.yul\":13016:13023   */\n      dup3\n        /* \"#utility.yul\":13013:13014   */\n      dup2\n        /* \"#utility.yul\":13010:13024   */\n      lt\n        /* \"#utility.yul\":13002:13210   */\n      iszero\n      tag_254\n      jumpi\n        /* \"#utility.yul\":13095:13104   */\n      dup5\n        /* \"#utility.yul\":13090:13093   */\n      dup10\n        /* \"#utility.yul\":13086:13105   */\n      add\n        /* \"#utility.yul\":13080:13106   */\n      mload\n        /* \"#utility.yul\":13072:13078   */\n      dup3\n        /* \"#utility.yul\":13065:13107   */\n      sstore\n        /* \"#utility.yul\":13146:13147   */\n      0x01\n        /* \"#utility.yul\":13138:13144   */\n      dup3\n        /* \"#utility.yul\":13134:13148   */\n      add\n        /* \"#utility.yul\":13124:13148   */\n      swap2\n      pop\n        /* \"#utility.yul\":13193:13195   */\n      0x20\n        /* \"#utility.yul\":13182:13191   */\n      dup6\n        /* \"#utility.yul\":13178:13196   */\n      add\n        /* \"#utility.yul\":13165:13196   */\n      swap5\n      pop\n        /* \"#utility.yul\":13039:13043   */\n      0x20\n        /* \"#utility.yul\":13036:13037   */\n      dup2\n        /* \"#utility.yul\":13032:13044   */\n      add\n        /* \"#utility.yul\":13027:13044   */\n      swap1\n      pop\n        /* \"#utility.yul\":13002:13210   */\n      jump(tag_252)\n    tag_254:\n        /* \"#utility.yul\":13238:13244   */\n      dup7\n        /* \"#utility.yul\":13229:13236   */\n      dup4\n        /* \"#utility.yul\":13226:13245   */\n      lt\n        /* \"#utility.yul\":13223:13402   */\n      iszero\n      tag_255\n      jumpi\n        /* \"#utility.yul\":13296:13305   */\n      dup5\n        /* \"#utility.yul\":13291:13294   */\n      dup10\n        /* \"#utility.yul\":13287:13306   */\n      add\n        /* \"#utility.yul\":13281:13307   */\n      mload\n        /* \"#utility.yul\":13339:13387   */\n      tag_256\n        /* \"#utility.yul\":13381:13385   */\n      0x1f\n        /* \"#utility.yul\":13373:13379   */\n      dup10\n        /* \"#utility.yul\":13369:13386   */\n      and\n        /* \"#utility.yul\":13358:13367   */\n      dup3\n        /* \"#utility.yul\":13339:13387   */\n      tag_101\n      jump\t// in\n    tag_256:\n        /* \"#utility.yul\":13331:13337   */\n      dup4\n        /* \"#utility.yul\":13324:13388   */\n      sstore\n        /* \"#utility.yul\":13246:13402   */\n      pop\n        /* \"#utility.yul\":13223:13402   */\n    tag_255:\n        /* \"#utility.yul\":13448:13449   */\n      0x01\n        /* \"#utility.yul\":13444:13445   */\n      0x02\n        /* \"#utility.yul\":13436:13442   */\n      dup9\n        /* \"#utility.yul\":13432:13446   */\n      mul\n        /* \"#utility.yul\":13428:13450   */\n      add\n        /* \"#utility.yul\":13422:13426   */\n      dup9\n        /* \"#utility.yul\":13415:13451   */\n      sstore\n        /* \"#utility.yul\":12850:13461   */\n      pop\n      pop\n      pop\n        /* \"#utility.yul\":12813:13700   */\n    tag_247:\n      pop\n        /* \"#utility.yul\":12403:13706   */\n      pop\n      pop\n      pop\n        /* \"#utility.yul\":12311:13706   */\n      pop\n      pop\n      jump\t// out\n        /* \"#utility.yul\":13712:13892   */\n    tag_103:\n        /* \"#utility.yul\":13760:13837   */\n      0x4e487b7100000000000000000000000000000000000000000000000000000000\n        /* \"#utility.yul\":13757:13758   */\n      0x00\n        /* \"#utility.yul\":13750:13838   */\n      mstore\n        /* \"#utility.yul\":13857:13861   */\n      0x11\n        /* \"#utility.yul\":13854:13855   */\n      0x04\n        /* \"#utility.yul\":13847:13862   */\n      mstore\n        /* \"#utility.yul\":13881:13885   */\n      0x24\n        /* \"#utility.yul\":13878:13879   */\n      0x00\n        /* \"#utility.yul\":13871:13886   */\n      revert\n        /* \"#utility.yul\":13898:14131   */\n    tag_28:\n        /* \"#utility.yul\":13937:13940   */\n      0x00\n        /* \"#utility.yul\":13960:13984   */\n      tag_259\n        /* \"#utility.yul\":13978:13983   */\n      dup3\n        /* \"#utility.yul\":13960:13984   */\n      tag_62\n      jump\t// in\n    tag_259:\n        /* \"#utility.yul\":13951:13984   */\n      swap2\n      pop\n        /* \"#utility.yul\":14006:14072   */\n      0xffffffffffffffffffffffffffffffffffffffffffffffffffffffffffffffff\n        /* \"#utility.yul\":13999:14004   */\n      dup3\n        /* \"#utility.yul\":13996:14073   */\n      sub\n        /* \"#utility.yul\":13993:14096   */\n      tag_260\n      jumpi\n        /* \"#utility.yul\":14076:14094   */\n      tag_261\n      tag_103\n      jump\t// in\n    tag_261:\n        /* \"#utility.yul\":13993:14096   */\n    tag_260:\n        /* \"#utility.yul\":14123:14124   */\n      0x01\n        /* \"#utility.yul\":14116:14121   */\n      dup3\n        /* \"#utility.yul\":14112:14125   */\n      add\n        /* \"#utility.yul\":14105:14125   */\n      swap1\n      pop\n        /* \"#utility.yul\":13898:14131   */\n      swap2\n      swap1\n      pop\n      jump\t// out\n\n    auxdata: 0xa2646970667358221220ae53628de284ce20d148be25822e357eb1207339c251f00773a6a1c8e1d65c9964736f6c63430008180033\n}\n",
				"bytecode": {
					"linkReferences": {},
					"object": "608060405234801561000f575f80fd5b50610be78061001d5f395ff3fe608060405234801561000f575f80fd5b506004361061003f575f3560e01c80635b7824c614610043578063e6bb053514610061578063f0d6e1ec1461007d575b5f80fd5b61004b6100b0565b604051610058919061041e565b60405180910390f35b61007b60048036038101906100769190610690565b6100b6565b005b61009760048036038101906100929190610777565b610177565b6040516100a7949392919061081c565b60405180910390f35b60015481565b6040518060a00160405280868152602001858152602001848152602001838152602001828152505f8060015481526020019081526020015f205f820151815f0155602082015181600101908161010c9190610a6e565b5060408201518160020190816101229190610a6e565b5060608201518160030190816101389190610a6e565b506080820151816004019080519060200190610155929190610334565b5090505060015f81548092919061016b90610b6a565b91905055505050505050565b5f602052805f5260405f205f91509050805f01549080600101805461019b906108a1565b80601f01602080910402602001604051908101604052809291908181526020018280546101c7906108a1565b80156102125780601f106101e957610100808354040283529160200191610212565b820191905f5260205f20905b8154815290600101906020018083116101f557829003601f168201915b505050505090806002018054610227906108a1565b80601f0160208091040260200160405190810160405280929190818152602001828054610253906108a1565b801561029e5780601f106102755761010080835404028352916020019161029e565b820191905f5260205f20905b81548152906001019060200180831161028157829003601f168201915b5050505050908060030180546102b3906108a1565b80601f01602080910402602001604051908101604052809291908181526020018280546102df906108a1565b801561032a5780601f106103015761010080835404028352916020019161032a565b820191905f5260205f20905b81548152906001019060200180831161030d57829003601f168201915b5050505050905084565b828054828255905f5260205f2090810192821561037a579160200282015b828111156103795782518290816103699190610a6e565b5091602001919060010190610352565b5b509050610387919061038b565b5090565b5b808211156103aa575f81816103a191906103ae565b5060010161038c565b5090565b5080546103ba906108a1565b5f825580601f106103cb57506103e8565b601f0160209004905f5260205f20908101906103e791906103eb565b5b50565b5b80821115610402575f815f9055506001016103ec565b5090565b5f819050919050565b61041881610406565b82525050565b5f6020820190506104315f83018461040f565b92915050565b5f604051905090565b5f80fd5b5f80fd5b61045181610406565b811461045b575f80fd5b50565b5f8135905061046c81610448565b92915050565b5f80fd5b5f80fd5b5f601f19601f8301169050919050565b7f4e487b71000000000000000000000000000000000000000000000000000000005f52604160045260245ffd5b6104c08261047a565b810181811067ffffffffffffffff821117156104df576104de61048a565b5b80604052505050565b5f6104f1610437565b90506104fd82826104b7565b919050565b5f67ffffffffffffffff82111561051c5761051b61048a565b5b6105258261047a565b9050602081019050919050565b828183375f83830152505050565b5f61055261054d84610502565b6104e8565b90508281526020810184848401111561056e5761056d610476565b5b610579848285610532565b509392505050565b5f82601f83011261059557610594610472565b5b81356105a5848260208601610540565b91505092915050565b5f67ffffffffffffffff8211156105c8576105c761048a565b5b602082029050602081019050919050565b5f80fd5b5f6105ef6105ea846105ae565b6104e8565b90508083825260208201905060208402830185811115610612576106116105d9565b5b835b8181101561065957803567ffffffffffffffff81111561063757610636610472565b5b8086016106448982610581565b85526020850194505050602081019050610614565b5050509392505050565b5f82601f83011261067757610676610472565b5b81356106878482602086016105dd565b91505092915050565b5f805f805f60a086880312156106a9576106a8610440565b5b5f6106b68882890161045e565b955050602086013567ffffffffffffffff8111156106d7576106d6610444565b5b6106e388828901610581565b945050604086013567ffffffffffffffff81111561070457610703610444565b5b61071088828901610581565b935050606086013567ffffffffffffffff81111561073157610730610444565b5b61073d88828901610581565b925050608086013567ffffffffffffffff81111561075e5761075d610444565b5b61076a88828901610663565b9150509295509295909350565b5f6020828403121561078c5761078b610440565b5b5f6107998482850161045e565b91505092915050565b5f81519050919050565b5f82825260208201905092915050565b5f5b838110156107d95780820151818401526020810190506107be565b5f8484015250505050565b5f6107ee826107a2565b6107f881856107ac565b93506108088185602086016107bc565b6108118161047a565b840191505092915050565b5f60808201905061082f5f83018761040f565b818103602083015261084181866107e4565b9050818103604083015261085581856107e4565b9050818103606083015261086981846107e4565b905095945050505050565b7f4e487b71000000000000000000000000000000000000000000000000000000005f52602260045260245ffd5b5f60028204905060018216806108b857607f821691505b6020821081036108cb576108ca610874565b5b50919050565b5f819050815f5260205f209050919050565b5f6020601f8301049050919050565b5f82821b905092915050565b5f6008830261092d7fffffffffffffffffffffffffffffffffffffffffffffffffffffffffffffffff826108f2565b61093786836108f2565b95508019841693508086168417925050509392505050565b5f819050919050565b5f61097261096d61096884610406565b61094f565b610406565b9050919050565b5f819050919050565b61098b83610958565b61099f61099782610979565b8484546108fe565b825550505050565b5f90565b6109b36109a7565b6109be818484610982565b505050565b5b818110156109e1576109d65f826109ab565b6001810190506109c4565b5050565b601f821115610a26576109f7816108d1565b610a00846108e3565b81016020851015610a0f578190505b610a23610a1b856108e3565b8301826109c3565b50505b505050565b5f82821c905092915050565b5f610a465f1984600802610a2b565b1980831691505092915050565b5f610a5e8383610a37565b9150826002028217905092915050565b610a77826107a2565b67ffffffffffffffff811115610a9057610a8f61048a565b5b610a9a82546108a1565b610aa58282856109e5565b5f60209050601f831160018114610ad6575f8415610ac4578287015190505b610ace8582610a53565b865550610b35565b601f198416610ae4866108d1565b5f5b82811015610b0b57848901518255600182019150602085019450602081019050610ae6565b86831015610b285784890151610b24601f891682610a37565b8355505b6001600288020188555050505b505050505050565b7f4e487b71000000000000000000000000000000000000000000000000000000005f52601160045260245ffd5b5f610b7482610406565b91507fffffffffffffffffffffffffffffffffffffffffffffffffffffffffffffffff8203610ba657610ba5610b3d565b5b60018201905091905056fea2646970667358221220ae53628de284ce20d148be25822e357eb1207339c251f00773a6a1c8e1d65c9964736f6c63430008180033",
					"opcodes": "PUSH1 0x80 PUSH1 0x40 MSTORE CALLVALUE DUP1 ISZERO PUSH2 0xF JUMPI PUSH0 DUP1 REVERT JUMPDEST POP PUSH2 0xBE7 DUP1 PUSH2 0x1D PUSH0 CODECOPY PUSH0 RETURN INVALID PUSH1 0x80 PUSH1 0x40 MSTORE CALLVALUE DUP1 ISZERO PUSH2 0xF JUMPI PUSH0 DUP1 REVERT JUMPDEST POP PUSH1 0x4 CALLDATASIZE LT PUSH2 0x3F JUMPI PUSH0 CALLDATALOAD PUSH1 0xE0 SHR DUP1 PUSH4 0x5B7824C6 EQ PUSH2 0x43 JUMPI DUP1 PUSH4 0xE6BB0535 EQ PUSH2 0x61 JUMPI DUP1 PUSH4 0xF0D6E1EC EQ PUSH2 0x7D JUMPI JUMPDEST PUSH0 DUP1 REVERT JUMPDEST PUSH2 0x4B PUSH2 0xB0 JUMP JUMPDEST PUSH1 0x40 MLOAD PUSH2 0x58 SWAP2 SWAP1 PUSH2 0x41E JUMP JUMPDEST PUSH1 0x40 MLOAD DUP1 SWAP2 SUB SWAP1 RETURN JUMPDEST PUSH2 0x7B PUSH1 0x4 DUP1 CALLDATASIZE SUB DUP2 ADD SWAP1 PUSH2 0x76 SWAP2 SWAP1 PUSH2 0x690 JUMP JUMPDEST PUSH2 0xB6 JUMP JUMPDEST STOP JUMPDEST PUSH2 0x97 PUSH1 0x4 DUP1 CALLDATASIZE SUB DUP2 ADD SWAP1 PUSH2 0x92 SWAP2 SWAP1 PUSH2 0x777 JUMP JUMPDEST PUSH2 0x177 JUMP JUMPDEST PUSH1 0x40 MLOAD PUSH2 0xA7 SWAP5 SWAP4 SWAP3 SWAP2 SWAP1 PUSH2 0x81C JUMP JUMPDEST PUSH1 0x40 MLOAD DUP1 SWAP2 SUB SWAP1 RETURN JUMPDEST PUSH1 0x1 SLOAD DUP2 JUMP JUMPDEST PUSH1 0x40 MLOAD DUP1 PUSH1 0xA0 ADD PUSH1 0x40 MSTORE DUP1 DUP7 DUP2 MSTORE PUSH1 0x20 ADD DUP6 DUP2 MSTORE PUSH1 0x20 ADD DUP5 DUP2 MSTORE PUSH1 0x20 ADD DUP4 DUP2 MSTORE PUSH1 0x20 ADD DUP3 DUP2 MSTORE POP PUSH0 DUP1 PUSH1 0x1 SLOAD DUP2 MSTORE PUSH1 0x20 ADD SWAP1 DUP2 MSTORE PUSH1 0x20 ADD PUSH0 KECCAK256 PUSH0 DUP3 ADD MLOAD DUP2 PUSH0 ADD SSTORE PUSH1 0x20 DUP3 ADD MLOAD DUP2 PUSH1 0x1 ADD SWAP1 DUP2 PUSH2 0x10C SWAP2 SWAP1 PUSH2 0xA6E JUMP JUMPDEST POP PUSH1 0x40 DUP3 ADD MLOAD DUP2 PUSH1 0x2 ADD SWAP1 DUP2 PUSH2 0x122 SWAP2 SWAP1 PUSH2 0xA6E JUMP JUMPDEST POP PUSH1 0x60 DUP3 ADD MLOAD DUP2 PUSH1 0x3 ADD SWAP1 DUP2 PUSH2 0x138 SWAP2 SWAP1 PUSH2 0xA6E JUMP JUMPDEST POP PUSH1 0x80 DUP3 ADD MLOAD DUP2 PUSH1 0x4 ADD SWAP1 DUP1 MLOAD SWAP1 PUSH1 0x20 ADD SWAP1 PUSH2 0x155 SWAP3 SWAP2 SWAP1 PUSH2 0x334 JUMP JUMPDEST POP SWAP1 POP POP PUSH1 0x1 PUSH0 DUP2 SLOAD DUP1 SWAP3 SWAP2 SWAP1 PUSH2 0x16B SWAP1 PUSH2 0xB6A JUMP JUMPDEST SWAP2 SWAP1 POP SSTORE POP POP POP POP POP POP JUMP JUMPDEST PUSH0 PUSH1 0x20 MSTORE DUP1 PUSH0 MSTORE PUSH1 0x40 PUSH0 KECCAK256 PUSH0 SWAP2 POP SWAP1 POP DUP1 PUSH0 ADD SLOAD SWAP1 DUP1 PUSH1 0x1 ADD DUP1 SLOAD PUSH2 0x19B SWAP1 PUSH2 0x8A1 JUMP JUMPDEST DUP1 PUSH1 0x1F ADD PUSH1 0x20 DUP1 SWAP2 DIV MUL PUSH1 0x20 ADD PUSH1 0x40 MLOAD SWAP1 DUP2 ADD PUSH1 0x40 MSTORE DUP1 SWAP3 SWAP2 SWAP1 DUP2 DUP2 MSTORE PUSH1 0x20 ADD DUP3 DUP1 SLOAD PUSH2 0x1C7 SWAP1 PUSH2 0x8A1 JUMP JUMPDEST DUP1 ISZERO PUSH2 0x212 JUMPI DUP1 PUSH1 0x1F LT PUSH2 0x1E9 JUMPI PUSH2 0x100 DUP1 DUP4 SLOAD DIV MUL DUP4 MSTORE SWAP2 PUSH1 0x20 ADD SWAP2 PUSH2 0x212 JUMP JUMPDEST DUP3 ADD SWAP2 SWAP1 PUSH0 MSTORE PUSH1 0x20 PUSH0 KECCAK256 SWAP1 JUMPDEST DUP2 SLOAD DUP2 MSTORE SWAP1 PUSH1 0x1 ADD SWAP1 PUSH1 0x20 ADD DUP1 DUP4 GT PUSH2 0x1F5 JUMPI DUP3 SWAP1 SUB PUSH1 0x1F AND DUP3 ADD SWAP2 JUMPDEST POP POP POP POP POP SWAP1 DUP1 PUSH1 0x2 ADD DUP1 SLOAD PUSH2 0x227 SWAP1 PUSH2 0x8A1 JUMP JUMPDEST DUP1 PUSH1 0x1F ADD PUSH1 0x20 DUP1 SWAP2 DIV MUL PUSH1 0x20 ADD PUSH1 0x40 MLOAD SWAP1 DUP2 ADD PUSH1 0x40 MSTORE DUP1 SWAP3 SWAP2 SWAP1 DUP2 DUP2 MSTORE PUSH1 0x20 ADD DUP3 DUP1 SLOAD PUSH2 0x253 SWAP1 PUSH2 0x8A1 JUMP JUMPDEST DUP1 ISZERO PUSH2 0x29E JUMPI DUP1 PUSH1 0x1F LT PUSH2 0x275 JUMPI PUSH2 0x100 DUP1 DUP4 SLOAD DIV MUL DUP4 MSTORE SWAP2 PUSH1 0x20 ADD SWAP2 PUSH2 0x29E JUMP JUMPDEST DUP3 ADD SWAP2 SWAP1 PUSH0 MSTORE PUSH1 0x20 PUSH0 KECCAK256 SWAP1 JUMPDEST DUP2 SLOAD DUP2 MSTORE SWAP1 PUSH1 0x1 ADD SWAP1 PUSH1 0x20 ADD DUP1 DUP4 GT PUSH2 0x281 JUMPI DUP3 SWAP1 SUB PUSH1 0x1F AND DUP3 ADD SWAP2 JUMPDEST POP POP POP POP POP SWAP1 DUP1 PUSH1 0x3 ADD DUP1 SLOAD PUSH2 0x2B3 SWAP1 PUSH2 0x8A1 JUMP JUMPDEST DUP1 PUSH1 0x1F ADD PUSH1 0x20 DUP1 SWAP2 DIV MUL PUSH1 0x20 ADD PUSH1 0x40 MLOAD SWAP1 DUP2 ADD PUSH1 0x40 MSTORE DUP1 SWAP3 SWAP2 SWAP1 DUP2 DUP2 MSTORE PUSH1 0x20 ADD DUP3 DUP1 SLOAD PUSH2 0x2DF SWAP1 PUSH2 0x8A1 JUMP JUMPDEST DUP1 ISZERO PUSH2 0x32A JUMPI DUP1 PUSH1 0x1F LT PUSH2 0x301 JUMPI PUSH2 0x100 DUP1 DUP4 SLOAD DIV MUL DUP4 MSTORE SWAP2 PUSH1 0x20 ADD SWAP2 PUSH2 0x32A JUMP JUMPDEST DUP3 ADD SWAP2 SWAP1 PUSH0 MSTORE PUSH1 0x20 PUSH0 KECCAK256 SWAP1 JUMPDEST DUP2 SLOAD DUP2 MSTORE SWAP1 PUSH1 0x1 ADD SWAP1 PUSH1 0x20 ADD DUP1 DUP4 GT PUSH2 0x30D JUMPI DUP3 SWAP1 SUB PUSH1 0x1F AND DUP3 ADD SWAP2 JUMPDEST POP POP POP POP POP SWAP1 POP DUP5 JUMP JUMPDEST DUP3 DUP1 SLOAD DUP3 DUP3 SSTORE SWAP1 PUSH0 MSTORE PUSH1 0x20 PUSH0 KECCAK256 SWAP1 DUP2 ADD SWAP3 DUP3 ISZERO PUSH2 0x37A JUMPI SWAP2 PUSH1 0x20 MUL DUP3 ADD JUMPDEST DUP3 DUP2 GT ISZERO PUSH2 0x379 JUMPI DUP3 MLOAD DUP3 SWAP1 DUP2 PUSH2 0x369 SWAP2 SWAP1 PUSH2 0xA6E JUMP JUMPDEST POP SWAP2 PUSH1 0x20 ADD SWAP2 SWAP1 PUSH1 0x1 ADD SWAP1 PUSH2 0x352 JUMP JUMPDEST JUMPDEST POP SWAP1 POP PUSH2 0x387 SWAP2 SWAP1 PUSH2 0x38B JUMP JUMPDEST POP SWAP1 JUMP JUMPDEST JUMPDEST DUP1 DUP3 GT ISZERO PUSH2 0x3AA JUMPI PUSH0 DUP2 DUP2 PUSH2 0x3A1 SWAP2 SWAP1 PUSH2 0x3AE JUMP JUMPDEST POP PUSH1 0x1 ADD PUSH2 0x38C JUMP JUMPDEST POP SWAP1 JUMP JUMPDEST POP DUP1 SLOAD PUSH2 0x3BA SWAP1 PUSH2 0x8A1 JUMP JUMPDEST PUSH0 DUP3 SSTORE DUP1 PUSH1 0x1F LT PUSH2 0x3CB JUMPI POP PUSH2 0x3E8 JUMP JUMPDEST PUSH1 0x1F ADD PUSH1 0x20 SWAP1 DIV SWAP1 PUSH0 MSTORE PUSH1 0x20 PUSH0 KECCAK256 SWAP1 DUP2 ADD SWAP1 PUSH2 0x3E7 SWAP2 SWAP1 PUSH2 0x3EB JUMP JUMPDEST JUMPDEST POP JUMP JUMPDEST JUMPDEST DUP1 DUP3 GT ISZERO PUSH2 0x402 JUMPI PUSH0 DUP2 PUSH0 SWAP1 SSTORE POP PUSH1 0x1 ADD PUSH2 0x3EC JUMP JUMPDEST POP SWAP1 JUMP JUMPDEST PUSH0 DUP2 SWAP1 POP SWAP2 SWAP1 POP JUMP JUMPDEST PUSH2 0x418 DUP2 PUSH2 0x406 JUMP JUMPDEST DUP3 MSTORE POP POP JUMP JUMPDEST PUSH0 PUSH1 0x20 DUP3 ADD SWAP1 POP PUSH2 0x431 PUSH0 DUP4 ADD DUP5 PUSH2 0x40F JUMP JUMPDEST SWAP3 SWAP2 POP POP JUMP JUMPDEST PUSH0 PUSH1 0x40 MLOAD SWAP1 POP SWAP1 JUMP JUMPDEST PUSH0 DUP1 REVERT JUMPDEST PUSH0 DUP1 REVERT JUMPDEST PUSH2 0x451 DUP2 PUSH2 0x406 JUMP JUMPDEST DUP2 EQ PUSH2 0x45B JUMPI PUSH0 DUP1 REVERT JUMPDEST POP JUMP JUMPDEST PUSH0 DUP2 CALLDATALOAD SWAP1 POP PUSH2 0x46C DUP2 PUSH2 0x448 JUMP JUMPDEST SWAP3 SWAP2 POP POP JUMP JUMPDEST PUSH0 DUP1 REVERT JUMPDEST PUSH0 DUP1 REVERT JUMPDEST PUSH0 PUSH1 0x1F NOT PUSH1 0x1F DUP4 ADD AND SWAP1 POP SWAP2 SWAP1 POP JUMP JUMPDEST PUSH32 0x4E487B7100000000000000000000000000000000000000000000000000000000 PUSH0 MSTORE PUSH1 0x41 PUSH1 0x4 MSTORE PUSH1 0x24 PUSH0 REVERT JUMPDEST PUSH2 0x4C0 DUP3 PUSH2 0x47A JUMP JUMPDEST DUP2 ADD DUP2 DUP2 LT PUSH8 0xFFFFFFFFFFFFFFFF DUP3 GT OR ISZERO PUSH2 0x4DF JUMPI PUSH2 0x4DE PUSH2 0x48A JUMP JUMPDEST JUMPDEST DUP1 PUSH1 0x40 MSTORE POP POP POP JUMP JUMPDEST PUSH0 PUSH2 0x4F1 PUSH2 0x437 JUMP JUMPDEST SWAP1 POP PUSH2 0x4FD DUP3 DUP3 PUSH2 0x4B7 JUMP JUMPDEST SWAP2 SWAP1 POP JUMP JUMPDEST PUSH0 PUSH8 0xFFFFFFFFFFFFFFFF DUP3 GT ISZERO PUSH2 0x51C JUMPI PUSH2 0x51B PUSH2 0x48A JUMP JUMPDEST JUMPDEST PUSH2 0x525 DUP3 PUSH2 0x47A JUMP JUMPDEST SWAP1 POP PUSH1 0x20 DUP2 ADD SWAP1 POP SWAP2 SWAP1 POP JUMP JUMPDEST DUP3 DUP2 DUP4 CALLDATACOPY PUSH0 DUP4 DUP4 ADD MSTORE POP POP POP JUMP JUMPDEST PUSH0 PUSH2 0x552 PUSH2 0x54D DUP5 PUSH2 0x502 JUMP JUMPDEST PUSH2 0x4E8 JUMP JUMPDEST SWAP1 POP DUP3 DUP2 MSTORE PUSH1 0x20 DUP2 ADD DUP5 DUP5 DUP5 ADD GT ISZERO PUSH2 0x56E JUMPI PUSH2 0x56D PUSH2 0x476 JUMP JUMPDEST JUMPDEST PUSH2 0x579 DUP5 DUP3 DUP6 PUSH2 0x532 JUMP JUMPDEST POP SWAP4 SWAP3 POP POP POP JUMP JUMPDEST PUSH0 DUP3 PUSH1 0x1F DUP4 ADD SLT PUSH2 0x595 JUMPI PUSH2 0x594 PUSH2 0x472 JUMP JUMPDEST JUMPDEST DUP2 CALLDATALOAD PUSH2 0x5A5 DUP5 DUP3 PUSH1 0x20 DUP7 ADD PUSH2 0x540 JUMP JUMPDEST SWAP2 POP POP SWAP3 SWAP2 POP POP JUMP JUMPDEST PUSH0 PUSH8 0xFFFFFFFFFFFFFFFF DUP3 GT ISZERO PUSH2 0x5C8 JUMPI PUSH2 0x5C7 PUSH2 0x48A JUMP JUMPDEST JUMPDEST PUSH1 0x20 DUP3 MUL SWAP1 POP PUSH1 0x20 DUP2 ADD SWAP1 POP SWAP2 SWAP1 POP JUMP JUMPDEST PUSH0 DUP1 REVERT JUMPDEST PUSH0 PUSH2 0x5EF PUSH2 0x5EA DUP5 PUSH2 0x5AE JUMP JUMPDEST PUSH2 0x4E8 JUMP JUMPDEST SWAP1 POP DUP1 DUP4 DUP3 MSTORE PUSH1 0x20 DUP3 ADD SWAP1 POP PUSH1 0x20 DUP5 MUL DUP4 ADD DUP6 DUP2 GT ISZERO PUSH2 0x612 JUMPI PUSH2 0x611 PUSH2 0x5D9 JUMP JUMPDEST JUMPDEST DUP4 JUMPDEST DUP2 DUP2 LT ISZERO PUSH2 0x659 JUMPI DUP1 CALLDATALOAD PUSH8 0xFFFFFFFFFFFFFFFF DUP2 GT ISZERO PUSH2 0x637 JUMPI PUSH2 0x636 PUSH2 0x472 JUMP JUMPDEST JUMPDEST DUP1 DUP7 ADD PUSH2 0x644 DUP10 DUP3 PUSH2 0x581 JUMP JUMPDEST DUP6 MSTORE PUSH1 0x20 DUP6 ADD SWAP5 POP POP POP PUSH1 0x20 DUP2 ADD SWAP1 POP PUSH2 0x614 JUMP JUMPDEST POP POP POP SWAP4 SWAP3 POP POP POP JUMP JUMPDEST PUSH0 DUP3 PUSH1 0x1F DUP4 ADD SLT PUSH2 0x677 JUMPI PUSH2 0x676 PUSH2 0x472 JUMP JUMPDEST JUMPDEST DUP2 CALLDATALOAD PUSH2 0x687 DUP5 DUP3 PUSH1 0x20 DUP7 ADD PUSH2 0x5DD JUMP JUMPDEST SWAP2 POP POP SWAP3 SWAP2 POP POP JUMP JUMPDEST PUSH0 DUP1 PUSH0 DUP1 PUSH0 PUSH1 0xA0 DUP7 DUP9 SUB SLT ISZERO PUSH2 0x6A9 JUMPI PUSH2 0x6A8 PUSH2 0x440 JUMP JUMPDEST JUMPDEST PUSH0 PUSH2 0x6B6 DUP9 DUP3 DUP10 ADD PUSH2 0x45E JUMP JUMPDEST SWAP6 POP POP PUSH1 0x20 DUP7 ADD CALLDATALOAD PUSH8 0xFFFFFFFFFFFFFFFF DUP2 GT ISZERO PUSH2 0x6D7 JUMPI PUSH2 0x6D6 PUSH2 0x444 JUMP JUMPDEST JUMPDEST PUSH2 0x6E3 DUP9 DUP3 DUP10 ADD PUSH2 0x581 JUMP JUMPDEST SWAP5 POP POP PUSH1 0x40 DUP7 ADD CALLDATALOAD PUSH8 0xFFFFFFFFFFFFFFFF DUP2 GT ISZERO PUSH2 0x704 JUMPI PUSH2 0x703 PUSH2 0x444 JUMP JUMPDEST JUMPDEST PUSH2 0x710 DUP9 DUP3 DUP10 ADD PUSH2 0x581 JUMP JUMPDEST SWAP4 POP POP PUSH1 0x60 DUP7 ADD CALLDATALOAD PUSH8 0xFFFFFFFFFFFFFFFF DUP2 GT ISZERO PUSH2 0x731 JUMPI PUSH2 0x730 PUSH2 0x444 JUMP JUMPDEST JUMPDEST PUSH2 0x73D DUP9 DUP3 DUP10 ADD PUSH2 0x581 JUMP JUMPDEST SWAP3 POP POP PUSH1 0x80 DUP7 ADD CALLDATALOAD PUSH8 0xFFFFFFFFFFFFFFFF DUP2 GT ISZERO PUSH2 0x75E JUMPI PUSH2 0x75D PUSH2 0x444 JUMP JUMPDEST JUMPDEST PUSH2 0x76A DUP9 DUP3 DUP10 ADD PUSH2 0x663 JUMP JUMPDEST SWAP2 POP POP SWAP3 SWAP6 POP SWAP3 SWAP6 SWAP1 SWAP4 POP JUMP JUMPDEST PUSH0 PUSH1 0x20 DUP3 DUP5 SUB SLT ISZERO PUSH2 0x78C JUMPI PUSH2 0x78B PUSH2 0x440 JUMP JUMPDEST JUMPDEST PUSH0 PUSH2 0x799 DUP5 DUP3 DUP6 ADD PUSH2 0x45E JUMP JUMPDEST SWAP2 POP POP SWAP3 SWAP2 POP POP JUMP JUMPDEST PUSH0 DUP2 MLOAD SWAP1 POP SWAP2 SWAP1 POP JUMP JUMPDEST PUSH0 DUP3 DUP3 MSTORE PUSH1 0x20 DUP3 ADD SWAP1 POP SWAP3 SWAP2 POP POP JUMP JUMPDEST PUSH0 JUMPDEST DUP4 DUP2 LT ISZERO PUSH2 0x7D9 JUMPI DUP1 DUP3 ADD MLOAD DUP2 DUP5 ADD MSTORE PUSH1 0x20 DUP2 ADD SWAP1 POP PUSH2 0x7BE JUMP JUMPDEST PUSH0 DUP5 DUP5 ADD MSTORE POP POP POP POP JUMP JUMPDEST PUSH0 PUSH2 0x7EE DUP3 PUSH2 0x7A2 JUMP JUMPDEST PUSH2 0x7F8 DUP2 DUP6 PUSH2 0x7AC JUMP JUMPDEST SWAP4 POP PUSH2 0x808 DUP2 DUP6 PUSH1 0x20 DUP7 ADD PUSH2 0x7BC JUMP JUMPDEST PUSH2 0x811 DUP2 PUSH2 0x47A JUMP JUMPDEST DUP5 ADD SWAP2 POP POP SWAP3 SWAP2 POP POP JUMP JUMPDEST PUSH0 PUSH1 0x80 DUP3 ADD SWAP1 POP PUSH2 0x82F PUSH0 DUP4 ADD DUP8 PUSH2 0x40F JUMP JUMPDEST DUP2 DUP2 SUB PUSH1 0x20 DUP4 ADD MSTORE PUSH2 0x841 DUP2 DUP7 PUSH2 0x7E4 JUMP JUMPDEST SWAP1 POP DUP2 DUP2 SUB PUSH1 0x40 DUP4 ADD MSTORE PUSH2 0x855 DUP2 DUP6 PUSH2 0x7E4 JUMP JUMPDEST SWAP1 POP DUP2 DUP2 SUB PUSH1 0x60 DUP4 ADD MSTORE PUSH2 0x869 DUP2 DUP5 PUSH2 0x7E4 JUMP JUMPDEST SWAP1 POP SWAP6 SWAP5 POP POP POP POP POP JUMP JUMPDEST PUSH32 0x4E487B7100000000000000000000000000000000000000000000000000000000 PUSH0 MSTORE PUSH1 0x22 PUSH1 0x4 MSTORE PUSH1 0x24 PUSH0 REVERT JUMPDEST PUSH0 PUSH1 0x2 DUP3 DIV SWAP1 POP PUSH1 0x1 DUP3 AND DUP1 PUSH2 0x8B8 JUMPI PUSH1 0x7F DUP3 AND SWAP2 POP JUMPDEST PUSH1 0x20 DUP3 LT DUP2 SUB PUSH2 0x8CB JUMPI PUSH2 0x8CA PUSH2 0x874 JUMP JUMPDEST JUMPDEST POP SWAP2 SWAP1 POP JUMP JUMPDEST PUSH0 DUP2 SWAP1 POP DUP2 PUSH0 MSTORE PUSH1 0x20 PUSH0 KECCAK256 SWAP1 POP SWAP2 SWAP1 POP JUMP JUMPDEST PUSH0 PUSH1 0x20 PUSH1 0x1F DUP4 ADD DIV SWAP1 POP SWAP2 SWAP1 POP JUMP JUMPDEST PUSH0 DUP3 DUP3 SHL SWAP1 POP SWAP3 SWAP2 POP POP JUMP JUMPDEST PUSH0 PUSH1 0x8 DUP4 MUL PUSH2 0x92D PUSH32 0xFFFFFFFFFFFFFFFFFFFFFFFFFFFFFFFFFFFFFFFFFFFFFFFFFFFFFFFFFFFFFFFF DUP3 PUSH2 0x8F2 JUMP JUMPDEST PUSH2 0x937 DUP7 DUP4 PUSH2 0x8F2 JUMP JUMPDEST SWAP6 POP DUP1 NOT DUP5 AND SWAP4 POP DUP1 DUP7 AND DUP5 OR SWAP3 POP POP POP SWAP4 SWAP3 POP POP POP JUMP JUMPDEST PUSH0 DUP2 SWAP1 POP SWAP2 SWAP1 POP JUMP JUMPDEST PUSH0 PUSH2 0x972 PUSH2 0x96D PUSH2 0x968 DUP5 PUSH2 0x406 JUMP JUMPDEST PUSH2 0x94F JUMP JUMPDEST PUSH2 0x406 JUMP JUMPDEST SWAP1 POP SWAP2 SWAP1 POP JUMP JUMPDEST PUSH0 DUP2 SWAP1 POP SWAP2 SWAP1 POP JUMP JUMPDEST PUSH2 0x98B DUP4 PUSH2 0x958 JUMP JUMPDEST PUSH2 0x99F PUSH2 0x997 DUP3 PUSH2 0x979 JUMP JUMPDEST DUP5 DUP5 SLOAD PUSH2 0x8FE JUMP JUMPDEST DUP3 SSTORE POP POP POP POP JUMP JUMPDEST PUSH0 SWAP1 JUMP JUMPDEST PUSH2 0x9B3 PUSH2 0x9A7 JUMP JUMPDEST PUSH2 0x9BE DUP2 DUP5 DUP5 PUSH2 0x982 JUMP JUMPDEST POP POP POP JUMP JUMPDEST JUMPDEST DUP2 DUP2 LT ISZERO PUSH2 0x9E1 JUMPI PUSH2 0x9D6 PUSH0 DUP3 PUSH2 0x9AB JUMP JUMPDEST PUSH1 0x1 DUP2 ADD SWAP1 POP PUSH2 0x9C4 JUMP JUMPDEST POP POP JUMP JUMPDEST PUSH1 0x1F DUP3 GT ISZERO PUSH2 0xA26 JUMPI PUSH2 0x9F7 DUP2 PUSH2 0x8D1 JUMP JUMPDEST PUSH2 0xA00 DUP5 PUSH2 0x8E3 JUMP JUMPDEST DUP2 ADD PUSH1 0x20 DUP6 LT ISZERO PUSH2 0xA0F JUMPI DUP2 SWAP1 POP JUMPDEST PUSH2 0xA23 PUSH2 0xA1B DUP6 PUSH2 0x8E3 JUMP JUMPDEST DUP4 ADD DUP3 PUSH2 0x9C3 JUMP JUMPDEST POP POP JUMPDEST POP POP POP JUMP JUMPDEST PUSH0 DUP3 DUP3 SHR SWAP1 POP SWAP3 SWAP2 POP POP JUMP JUMPDEST PUSH0 PUSH2 0xA46 PUSH0 NOT DUP5 PUSH1 0x8 MUL PUSH2 0xA2B JUMP JUMPDEST NOT DUP1 DUP4 AND SWAP2 POP POP SWAP3 SWAP2 POP POP JUMP JUMPDEST PUSH0 PUSH2 0xA5E DUP4 DUP4 PUSH2 0xA37 JUMP JUMPDEST SWAP2 POP DUP3 PUSH1 0x2 MUL DUP3 OR SWAP1 POP SWAP3 SWAP2 POP POP JUMP JUMPDEST PUSH2 0xA77 DUP3 PUSH2 0x7A2 JUMP JUMPDEST PUSH8 0xFFFFFFFFFFFFFFFF DUP2 GT ISZERO PUSH2 0xA90 JUMPI PUSH2 0xA8F PUSH2 0x48A JUMP JUMPDEST JUMPDEST PUSH2 0xA9A DUP3 SLOAD PUSH2 0x8A1 JUMP JUMPDEST PUSH2 0xAA5 DUP3 DUP3 DUP6 PUSH2 0x9E5 JUMP JUMPDEST PUSH0 PUSH1 0x20 SWAP1 POP PUSH1 0x1F DUP4 GT PUSH1 0x1 DUP2 EQ PUSH2 0xAD6 JUMPI PUSH0 DUP5 ISZERO PUSH2 0xAC4 JUMPI DUP3 DUP8 ADD MLOAD SWAP1 POP JUMPDEST PUSH2 0xACE DUP6 DUP3 PUSH2 0xA53 JUMP JUMPDEST DUP7 SSTORE POP PUSH2 0xB35 JUMP JUMPDEST PUSH1 0x1F NOT DUP5 AND PUSH2 0xAE4 DUP7 PUSH2 0x8D1 JUMP JUMPDEST PUSH0 JUMPDEST DUP3 DUP2 LT ISZERO PUSH2 0xB0B JUMPI DUP5 DUP10 ADD MLOAD DUP3 SSTORE PUSH1 0x1 DUP3 ADD SWAP2 POP PUSH1 0x20 DUP6 ADD SWAP5 POP PUSH1 0x20 DUP2 ADD SWAP1 POP PUSH2 0xAE6 JUMP JUMPDEST DUP7 DUP4 LT ISZERO PUSH2 0xB28 JUMPI DUP5 DUP10 ADD MLOAD PUSH2 0xB24 PUSH1 0x1F DUP10 AND DUP3 PUSH2 0xA37 JUMP JUMPDEST DUP4 SSTORE POP JUMPDEST PUSH1 0x1 PUSH1 0x2 DUP9 MUL ADD DUP9 SSTORE POP POP POP JUMPDEST POP POP POP POP POP POP JUMP JUMPDEST PUSH32 0x4E487B7100000000000000000000000000000000000000000000000000000000 PUSH0 MSTORE PUSH1 0x11 PUSH1 0x4 MSTORE PUSH1 0x24 PUSH0 REVERT JUMPDEST PUSH0 PUSH2 0xB74 DUP3 PUSH2 0x406 JUMP JUMPDEST SWAP2 POP PUSH32 0xFFFFFFFFFFFFFFFFFFFFFFFFFFFFFFFFFFFFFFFFFFFFFFFFFFFFFFFFFFFFFFFF DUP3 SUB PUSH2 0xBA6 JUMPI PUSH2 0xBA5 PUSH2 0xB3D JUMP JUMPDEST JUMPDEST PUSH1 0x1 DUP3 ADD SWAP1 POP SWAP2 SWAP1 POP JUMP INVALID LOG2 PUSH5 0x6970667358 0x22 SLT KECCAK256 0xAE MSTORE8 PUSH3 0x8DE284 0xCE KECCAK256 0xD1 BASEFEE 0xBE 0x25 DUP3 0x2E CALLDATALOAD PUSH31 0xB1207339C251F00773A6A1C8E1D65C9964736F6C6343000818003300000000 "
				},
				"gasEstimates": {
					"creation": {
						"codeDepositCost": "609400",
						"executionCost": "643",
						"totalCost": "610043"
					},
					"external": {
						"addDataUsage(uint256,string,string,string,string[])": "infinite",
						"dataUsageCount()": "2403",
						"dataUsages(uint256)": "infinite"
					}
				},
				"methodIdentifiers": {
					"addDataUsage(uint256,string,string,string,string[])": "e6bb0535",
					"dataUsageCount()": "5b7824c6",
					"dataUsages(uint256)": "f0d6e1ec"
				}
			},
			"storageLayout": {
				"storage": [
					{
						"astId": 18,
						"contract": "contracts/DataUsageSmartContract.sol:DataUsageSmartContract",
						"label": "dataUsages",
						"offset": 0,
						"slot": "0",
						"type": "t_mapping(t_uint256,t_struct(DataUsage)13_storage)"
					},
					{
						"astId": 20,
						"contract": "contracts/DataUsageSmartContract.sol:DataUsageSmartContract",
						"label": "dataUsageCount",
						"offset": 0,
						"slot": "1",
						"type": "t_uint256"
					}
				],
				"types": {
					"t_array(t_string_storage)dyn_storage": {
						"base": "t_string_storage",
						"encoding": "dynamic_array",
						"label": "string[]",
						"numberOfBytes": "32"
					},
					"t_mapping(t_uint256,t_struct(DataUsage)13_storage)": {
						"encoding": "mapping",
						"key": "t_uint256",
						"label": "mapping(uint256 => struct DataUsageSmartContract.DataUsage)",
						"numberOfBytes": "32",
						"value": "t_struct(DataUsage)13_storage"
					},
					"t_string_storage": {
						"encoding": "bytes",
						"label": "string",
						"numberOfBytes": "32"
					},
					"t_struct(DataUsage)13_storage": {
						"encoding": "inplace",
						"label": "struct DataUsageSmartContract.DataUsage",
						"members": [
							{
								"astId": 3,
								"contract": "contracts/DataUsageSmartContract.sol:DataUsageSmartContract",
								"label": "actorID",
								"offset": 0,
								"slot": "0",
								"type": "t_uint256"
							},
							{
								"astId": 5,
								"contract": "contracts/DataUsageSmartContract.sol:DataUsageSmartContract",
								"label": "serviceName",
								"offset": 0,
								"slot": "1",
								"type": "t_string_storage"
							},
							{
								"astId": 7,
								"contract": "contracts/DataUsageSmartContract.sol:DataUsageSmartContract",
								"label": "servicePurpose",
								"offset": 0,
								"slot": "2",
								"type": "t_string_storage"
							},
							{
								"astId": 9,
								"contract": "contracts/DataUsageSmartContract.sol:DataUsageSmartContract",
								"label": "operation",
								"offset": 0,
								"slot": "3",
								"type": "t_string_storage"
							},
							{
								"astId": 12,
								"contract": "contracts/DataUsageSmartContract.sol:DataUsageSmartContract",
								"label": "personalData",
								"offset": 0,
								"slot": "4",
								"type": "t_array(t_string_storage)dyn_storage"
							}
						],
						"numberOfBytes": "160"
					},
					"t_uint256": {
						"encoding": "inplace",
						"label": "uint256",
						"numberOfBytes": "32"
					}
				}
			},
			"userdoc": {
				"kind": "user",
				"methods": {},
				"version": 1
			}
		}
	}
}