{
	"contracts/3_Log.sol": {
		"LogContract": {
			"abi": [
				{
					"inputs": [
						{
							"internalType": "address",
							"name": "_actor",
							"type": "address"
						},
						{
							"internalType": "string",
							"name": "_operation",
							"type": "string"
						},
						{
							"internalType": "string",
							"name": "_processedData",
							"type": "string"
						},
						{
							"internalType": "string",
							"name": "_serviceName",
							"type": "string"
						}
					],
					"name": "addLog",
					"outputs": [],
					"stateMutability": "nonpayable",
					"type": "function"
				},
				{
					"inputs": [
						{
							"internalType": "uint256",
							"name": "_index",
							"type": "uint256"
						}
					],
					"name": "getLog",
					"outputs": [
						{
							"internalType": "address",
							"name": "actor",
							"type": "address"
						},
						{
							"internalType": "string",
							"name": "operation",
							"type": "string"
						},
						{
							"internalType": "string",
							"name": "processedData",
							"type": "string"
						},
						{
							"internalType": "string",
							"name": "serviceName",
							"type": "string"
						}
					],
					"stateMutability": "view",
					"type": "function"
				},
				{
					"inputs": [
						{
							"internalType": "uint256",
							"name": "",
							"type": "uint256"
						}
					],
					"name": "logs",
					"outputs": [
						{
							"internalType": "address",
							"name": "actor",
							"type": "address"
						},
						{
							"internalType": "string",
							"name": "operation",
							"type": "string"
						},
						{
							"internalType": "string",
							"name": "processedData",
							"type": "string"
						},
						{
							"internalType": "string",
							"name": "serviceName",
							"type": "string"
						}
					],
					"stateMutability": "view",
					"type": "function"
				}
			],
			"devdoc": {
				"kind": "dev",
				"methods": {},
				"version": 1
			},
			"evm": {
				"assembly": "    /* \"contracts/3_Log.sol\":69:839  contract LogContract {... */\n  mstore(0x40, 0x80)\n  callvalue\n  dup1\n  iszero\n  tag_1\n  jumpi\n  0x00\n  dup1\n  revert\ntag_1:\n  pop\n  dataSize(sub_0)\n  dup1\n  dataOffset(sub_0)\n  0x00\n  codecopy\n  0x00\n  return\nstop\n\nsub_0: assembly {\n        /* \"contracts/3_Log.sol\":69:839  contract LogContract {... */\n      mstore(0x40, 0x80)\n      callvalue\n      dup1\n      iszero\n      tag_1\n      jumpi\n      0x00\n      dup1\n      revert\n    tag_1:\n      pop\n      jumpi(tag_2, lt(calldatasize, 0x04))\n      shr(0xe0, calldataload(0x00))\n      dup1\n      0x3206b2c6\n      eq\n      tag_3\n      jumpi\n      dup1\n      0x8a1b7a64\n      eq\n      tag_4\n      jumpi\n      dup1\n      0xe79899bd\n      eq\n      tag_5\n      jumpi\n    tag_2:\n      0x00\n      dup1\n      revert\n        /* \"contracts/3_Log.sol\":503:837  function getLog(uint _index) public view returns (address actor, string memory operation, string memory processedData, string memory serviceName) {... */\n    tag_3:\n      tag_6\n      0x04\n      dup1\n      calldatasize\n      sub\n      dup2\n      add\n      swap1\n      tag_7\n      swap2\n      swap1\n      tag_8\n      jump\t// in\n    tag_7:\n      tag_9\n      jump\t// in\n    tag_6:\n      mload(0x40)\n      tag_10\n      swap5\n      swap4\n      swap3\n      swap2\n      swap1\n      tag_11\n      jump\t// in\n    tag_10:\n      mload(0x40)\n      dup1\n      swap2\n      sub\n      swap1\n      return\n        /* \"contracts/3_Log.sol\":251:493  function addLog(... */\n    tag_4:\n      tag_12\n      0x04\n      dup1\n      calldatasize\n      sub\n      dup2\n      add\n      swap1\n      tag_13\n      swap2\n      swap1\n      tag_14\n      jump\t// in\n    tag_13:\n      tag_15\n      jump\t// in\n    tag_12:\n      stop\n        /* \"contracts/3_Log.sol\":227:244  Log[] public logs */\n    tag_5:\n      tag_16\n      0x04\n      dup1\n      calldatasize\n      sub\n      dup2\n      add\n      swap1\n      tag_17\n      swap2\n      swap1\n      tag_8\n      jump\t// in\n    tag_17:\n      tag_18\n      jump\t// in\n    tag_16:\n      mload(0x40)\n      tag_19\n      swap5\n      swap4\n      swap3\n      swap2\n      swap1\n      tag_11\n      jump\t// in\n    tag_19:\n      mload(0x40)\n      dup1\n      swap2\n      sub\n      swap1\n      return\n        /* \"contracts/3_Log.sol\":503:837  function getLog(uint _index) public view returns (address actor, string memory operation, string memory processedData, string memory serviceName) {... */\n    tag_9:\n        /* \"contracts/3_Log.sol\":553:566  address actor */\n      0x00\n        /* \"contracts/3_Log.sol\":568:591  string memory operation */\n      0x60\n        /* \"contracts/3_Log.sol\":593:620  string memory processedData */\n      dup1\n        /* \"contracts/3_Log.sol\":622:647  string memory serviceName */\n      0x60\n        /* \"contracts/3_Log.sol\":676:680  logs */\n      0x00\n        /* \"contracts/3_Log.sol\":676:687  logs.length */\n      dup1\n      sload\n      swap1\n      pop\n        /* \"contracts/3_Log.sol\":667:673  _index */\n      dup6\n        /* \"contracts/3_Log.sol\":667:687  _index < logs.length */\n      lt\n        /* \"contracts/3_Log.sol\":659:711  require(_index < logs.length, \"Index out of bounds\") */\n      tag_21\n      jumpi\n      mload(0x40)\n      0x08c379a000000000000000000000000000000000000000000000000000000000\n      dup2\n      mstore\n      0x04\n      add\n      tag_22\n      swap1\n      tag_23\n      jump\t// in\n    tag_22:\n      mload(0x40)\n      dup1\n      swap2\n      sub\n      swap1\n      revert\n    tag_21:\n        /* \"contracts/3_Log.sol\":721:736  Log storage log */\n      0x00\n        /* \"contracts/3_Log.sol\":739:743  logs */\n      dup1\n        /* \"contracts/3_Log.sol\":744:750  _index */\n      dup7\n        /* \"contracts/3_Log.sol\":739:751  logs[_index] */\n      dup2\n      sload\n      dup2\n      lt\n      tag_24\n      jumpi\n      tag_25\n      tag_26\n      jump\t// in\n    tag_25:\n    tag_24:\n      swap1\n      0x00\n      mstore\n      keccak256(0x00, 0x20)\n      swap1\n      0x04\n      mul\n      add\n        /* \"contracts/3_Log.sol\":721:751  Log storage log = logs[_index] */\n      swap1\n      pop\n        /* \"contracts/3_Log.sol\":769:772  log */\n      dup1\n        /* \"contracts/3_Log.sol\":769:778  log.actor */\n      0x00\n      add\n      0x00\n      swap1\n      sload\n      swap1\n      0x0100\n      exp\n      swap1\n      div\n      0xffffffffffffffffffffffffffffffffffffffff\n      and\n        /* \"contracts/3_Log.sol\":780:783  log */\n      dup2\n        /* \"contracts/3_Log.sol\":780:793  log.operation */\n      0x01\n      add\n        /* \"contracts/3_Log.sol\":795:798  log */\n      dup3\n        /* \"contracts/3_Log.sol\":795:812  log.processedData */\n      0x02\n      add\n        /* \"contracts/3_Log.sol\":814:817  log */\n      dup4\n        /* \"contracts/3_Log.sol\":814:829  log.serviceName */\n      0x03\n      add\n        /* \"contracts/3_Log.sol\":761:830  return (log.actor, log.operation, log.processedData, log.serviceName) */\n      dup3\n      dup1\n      sload\n      tag_28\n      swap1\n      tag_29\n      jump\t// in\n    tag_28:\n      dup1\n      0x1f\n      add\n      0x20\n      dup1\n      swap2\n      div\n      mul\n      0x20\n      add\n      mload(0x40)\n      swap1\n      dup2\n      add\n      0x40\n      mstore\n      dup1\n      swap3\n      swap2\n      swap1\n      dup2\n      dup2\n      mstore\n      0x20\n      add\n      dup3\n      dup1\n      sload\n      tag_30\n      swap1\n      tag_29\n      jump\t// in\n    tag_30:\n      dup1\n      iszero\n      tag_31\n      jumpi\n      dup1\n      0x1f\n      lt\n      tag_32\n      jumpi\n      0x0100\n      dup1\n      dup4\n      sload\n      div\n      mul\n      dup4\n      mstore\n      swap2\n      0x20\n      add\n      swap2\n      jump(tag_31)\n    tag_32:\n      dup3\n      add\n      swap2\n      swap1\n      0x00\n      mstore\n      keccak256(0x00, 0x20)\n      swap1\n    tag_33:\n      dup2\n      sload\n      dup2\n      mstore\n      swap1\n      0x01\n      add\n      swap1\n      0x20\n      add\n      dup1\n      dup4\n      gt\n      tag_33\n      jumpi\n      dup3\n      swap1\n      sub\n      0x1f\n      and\n      dup3\n      add\n      swap2\n    tag_31:\n      pop\n      pop\n      pop\n      pop\n      pop\n      swap3\n      pop\n      dup2\n      dup1\n      sload\n      tag_34\n      swap1\n      tag_29\n      jump\t// in\n    tag_34:\n      dup1\n      0x1f\n      add\n      0x20\n      dup1\n      swap2\n      div\n      mul\n      0x20\n      add\n      mload(0x40)\n      swap1\n      dup2\n      add\n      0x40\n      mstore\n      dup1\n      swap3\n      swap2\n      swap1\n      dup2\n      dup2\n      mstore\n      0x20\n      add\n      dup3\n      dup1\n      sload\n      tag_35\n      swap1\n      tag_29\n      jump\t// in\n    tag_35:\n      dup1\n      iszero\n      tag_36\n      jumpi\n      dup1\n      0x1f\n      lt\n      tag_37\n      jumpi\n      0x0100\n      dup1\n      dup4\n      sload\n      div\n      mul\n      dup4\n      mstore\n      swap2\n      0x20\n      add\n      swap2\n      jump(tag_36)\n    tag_37:\n      dup3\n      add\n      swap2\n      swap1\n      0x00\n      mstore\n      keccak256(0x00, 0x20)\n      swap1\n    tag_38:\n      dup2\n      sload\n      dup2\n      mstore\n      swap1\n      0x01\n      add\n      swap1\n      0x20\n      add\n      dup1\n      dup4\n      gt\n      tag_38\n      jumpi\n      dup3\n      swap1\n      sub\n      0x1f\n      and\n      dup3\n      add\n      swap2\n    tag_36:\n      pop\n      pop\n      pop\n      pop\n      pop\n      swap2\n      pop\n      dup1\n      dup1\n      sload\n      tag_39\n      swap1\n      tag_29\n      jump\t// in\n    tag_39:\n      dup1\n      0x1f\n      add\n      0x20\n      dup1\n      swap2\n      div\n      mul\n      0x20\n      add\n      mload(0x40)\n      swap1\n      dup2\n      add\n      0x40\n      mstore\n      dup1\n      swap3\n      swap2\n      swap1\n      dup2\n      dup2\n      mstore\n      0x20\n      add\n      dup3\n      dup1\n      sload\n      tag_40\n      swap1\n      tag_29\n      jump\t// in\n    tag_40:\n      dup1\n      iszero\n      tag_41\n      jumpi\n      dup1\n      0x1f\n      lt\n      tag_42\n      jumpi\n      0x0100\n      dup1\n      dup4\n      sload\n      div\n      mul\n      dup4\n      mstore\n      swap2\n      0x20\n      add\n      swap2\n      jump(tag_41)\n    tag_42:\n      dup3\n      add\n      swap2\n      swap1\n      0x00\n      mstore\n      keccak256(0x00, 0x20)\n      swap1\n    tag_43:\n      dup2\n      sload\n      dup2\n      mstore\n      swap1\n      0x01\n      add\n      swap1\n      0x20\n      add\n      dup1\n      dup4\n      gt\n      tag_43\n      jumpi\n      dup3\n      swap1\n      sub\n      0x1f\n      and\n      dup3\n      add\n      swap2\n    tag_41:\n      pop\n      pop\n      pop\n      pop\n      pop\n      swap1\n      pop\n      swap5\n      pop\n      swap5\n      pop\n      swap5\n      pop\n      swap5\n      pop\n      pop\n        /* \"contracts/3_Log.sol\":503:837  function getLog(uint _index) public view returns (address actor, string memory operation, string memory processedData, string memory serviceName) {... */\n      swap2\n      swap4\n      pop\n      swap2\n      swap4\n      jump\t// out\n        /* \"contracts/3_Log.sol\":251:493  function addLog(... */\n    tag_15:\n        /* \"contracts/3_Log.sol\":422:426  logs */\n      0x00\n        /* \"contracts/3_Log.sol\":432:485  Log(_actor, _operation, _processedData, _serviceName) */\n      mload(0x40)\n      dup1\n      0x80\n      add\n      0x40\n      mstore\n      dup1\n        /* \"contracts/3_Log.sol\":436:442  _actor */\n      dup7\n        /* \"contracts/3_Log.sol\":432:485  Log(_actor, _operation, _processedData, _serviceName) */\n      0xffffffffffffffffffffffffffffffffffffffff\n      and\n      dup2\n      mstore\n      0x20\n      add\n        /* \"contracts/3_Log.sol\":444:454  _operation */\n      dup6\n        /* \"contracts/3_Log.sol\":432:485  Log(_actor, _operation, _processedData, _serviceName) */\n      dup2\n      mstore\n      0x20\n      add\n        /* \"contracts/3_Log.sol\":456:470  _processedData */\n      dup5\n        /* \"contracts/3_Log.sol\":432:485  Log(_actor, _operation, _processedData, _serviceName) */\n      dup2\n      mstore\n      0x20\n      add\n        /* \"contracts/3_Log.sol\":472:484  _serviceName */\n      dup4\n        /* \"contracts/3_Log.sol\":432:485  Log(_actor, _operation, _processedData, _serviceName) */\n      dup2\n      mstore\n      pop\n        /* \"contracts/3_Log.sol\":422:486  logs.push(Log(_actor, _operation, _processedData, _serviceName)) */\n      swap1\n      dup1\n      0x01\n      dup2\n      sload\n      add\n      dup1\n      dup3\n      sstore\n      dup1\n      swap2\n      pop\n      pop\n      0x01\n      swap1\n      sub\n      swap1\n      0x00\n      mstore\n      keccak256(0x00, 0x20)\n      swap1\n      0x04\n      mul\n      add\n      0x00\n      swap1\n      swap2\n      swap1\n      swap2\n      swap1\n      swap2\n      pop\n      0x00\n      dup3\n      add\n      mload\n      dup2\n      0x00\n      add\n      exp(0x0100, 0x00)\n      dup2\n      sload\n      dup2\n      0xffffffffffffffffffffffffffffffffffffffff\n      mul\n      not\n      and\n      swap1\n      dup4\n      0xffffffffffffffffffffffffffffffffffffffff\n      and\n      mul\n      or\n      swap1\n      sstore\n      pop\n      0x20\n      dup3\n      add\n      mload\n      dup2\n      0x01\n      add\n      swap1\n      dup2\n      tag_46\n      swap2\n      swap1\n      tag_47\n      jump\t// in\n    tag_46:\n      pop\n      0x40\n      dup3\n      add\n      mload\n      dup2\n      0x02\n      add\n      swap1\n      dup2\n      tag_48\n      swap2\n      swap1\n      tag_47\n      jump\t// in\n    tag_48:\n      pop\n      0x60\n      dup3\n      add\n      mload\n      dup2\n      0x03\n      add\n      swap1\n      dup2\n      tag_49\n      swap2\n      swap1\n      tag_47\n      jump\t// in\n    tag_49:\n      pop\n      pop\n      pop\n        /* \"contracts/3_Log.sol\":251:493  function addLog(... */\n      pop\n      pop\n      pop\n      pop\n      jump\t// out\n        /* \"contracts/3_Log.sol\":227:244  Log[] public logs */\n    tag_18:\n      0x00\n      dup2\n      dup2\n      sload\n      dup2\n      lt\n      tag_50\n      jumpi\n      0x00\n      dup1\n      revert\n    tag_50:\n      swap1\n      0x00\n      mstore\n      keccak256(0x00, 0x20)\n      swap1\n      0x04\n      mul\n      add\n      0x00\n      swap2\n      pop\n      swap1\n      pop\n      dup1\n      0x00\n      add\n      0x00\n      swap1\n      sload\n      swap1\n      0x0100\n      exp\n      swap1\n      div\n      0xffffffffffffffffffffffffffffffffffffffff\n      and\n      swap1\n      dup1\n      0x01\n      add\n      dup1\n      sload\n      tag_52\n      swap1\n      tag_29\n      jump\t// in\n    tag_52:\n      dup1\n      0x1f\n      add\n      0x20\n      dup1\n      swap2\n      div\n      mul\n      0x20\n      add\n      mload(0x40)\n      swap1\n      dup2\n      add\n      0x40\n      mstore\n      dup1\n      swap3\n      swap2\n      swap1\n      dup2\n      dup2\n      mstore\n      0x20\n      add\n      dup3\n      dup1\n      sload\n      tag_53\n      swap1\n      tag_29\n      jump\t// in\n    tag_53:\n      dup1\n      iszero\n      tag_54\n      jumpi\n      dup1\n      0x1f\n      lt\n      tag_55\n      jumpi\n      0x0100\n      dup1\n      dup4\n      sload\n      div\n      mul\n      dup4\n      mstore\n      swap2\n      0x20\n      add\n      swap2\n      jump(tag_54)\n    tag_55:\n      dup3\n      add\n      swap2\n      swap1\n      0x00\n      mstore\n      keccak256(0x00, 0x20)\n      swap1\n    tag_56:\n      dup2\n      sload\n      dup2\n      mstore\n      swap1\n      0x01\n      add\n      swap1\n      0x20\n      add\n      dup1\n      dup4\n      gt\n      tag_56\n      jumpi\n      dup3\n      swap1\n      sub\n      0x1f\n      and\n      dup3\n      add\n      swap2\n    tag_54:\n      pop\n      pop\n      pop\n      pop\n      pop\n      swap1\n      dup1\n      0x02\n      add\n      dup1\n      sload\n      tag_57\n      swap1\n      tag_29\n      jump\t// in\n    tag_57:\n      dup1\n      0x1f\n      add\n      0x20\n      dup1\n      swap2\n      div\n      mul\n      0x20\n      add\n      mload(0x40)\n      swap1\n      dup2\n      add\n      0x40\n      mstore\n      dup1\n      swap3\n      swap2\n      swap1\n      dup2\n      dup2\n      mstore\n      0x20\n      add\n      dup3\n      dup1\n      sload\n      tag_58\n      swap1\n      tag_29\n      jump\t// in\n    tag_58:\n      dup1\n      iszero\n      tag_59\n      jumpi\n      dup1\n      0x1f\n      lt\n      tag_60\n      jumpi\n      0x0100\n      dup1\n      dup4\n      sload\n      div\n      mul\n      dup4\n      mstore\n      swap2\n      0x20\n      add\n      swap2\n      jump(tag_59)\n    tag_60:\n      dup3\n      add\n      swap2\n      swap1\n      0x00\n      mstore\n      keccak256(0x00, 0x20)\n      swap1\n    tag_61:\n      dup2\n      sload\n      dup2\n      mstore\n      swap1\n      0x01\n      add\n      swap1\n      0x20\n      add\n      dup1\n      dup4\n      gt\n      tag_61\n      jumpi\n      dup3\n      swap1\n      sub\n      0x1f\n      and\n      dup3\n      add\n      swap2\n    tag_59:\n      pop\n      pop\n      pop\n      pop\n      pop\n      swap1\n      dup1\n      0x03\n      add\n      dup1\n      sload\n      tag_62\n      swap1\n      tag_29\n      jump\t// in\n    tag_62:\n      dup1\n      0x1f\n      add\n      0x20\n      dup1\n      swap2\n      div\n      mul\n      0x20\n      add\n      mload(0x40)\n      swap1\n      dup2\n      add\n      0x40\n      mstore\n      dup1\n      swap3\n      swap2\n      swap1\n      dup2\n      dup2\n      mstore\n      0x20\n      add\n      dup3\n      dup1\n      sload\n      tag_63\n      swap1\n      tag_29\n      jump\t// in\n    tag_63:\n      dup1\n      iszero\n      tag_64\n      jumpi\n      dup1\n      0x1f\n      lt\n      tag_65\n      jumpi\n      0x0100\n      dup1\n      dup4\n      sload\n      div\n      mul\n      dup4\n      mstore\n      swap2\n      0x20\n      add\n      swap2\n      jump(tag_64)\n    tag_65:\n      dup3\n      add\n      swap2\n      swap1\n      0x00\n      mstore\n      keccak256(0x00, 0x20)\n      swap1\n    tag_66:\n      dup2\n      sload\n      dup2\n      mstore\n      swap1\n      0x01\n      add\n      swap1\n      0x20\n      add\n      dup1\n      dup4\n      gt\n      tag_66\n      jumpi\n      dup3\n      swap1\n      sub\n      0x1f\n      and\n      dup3\n      add\n      swap2\n    tag_64:\n      pop\n      pop\n      pop\n      pop\n      pop\n      swap1\n      pop\n      dup5\n      jump\t// out\n        /* \"#utility.yul\":7:82   */\n    tag_67:\n        /* \"#utility.yul\":40:46   */\n      0x00\n        /* \"#utility.yul\":73:75   */\n      0x40\n        /* \"#utility.yul\":67:76   */\n      mload\n        /* \"#utility.yul\":57:76   */\n      swap1\n      pop\n        /* \"#utility.yul\":7:82   */\n      swap1\n      jump\t// out\n        /* \"#utility.yul\":88:205   */\n    tag_68:\n        /* \"#utility.yul\":197:198   */\n      0x00\n        /* \"#utility.yul\":194:195   */\n      dup1\n        /* \"#utility.yul\":187:199   */\n      revert\n        /* \"#utility.yul\":211:328   */\n    tag_69:\n        /* \"#utility.yul\":320:321   */\n      0x00\n        /* \"#utility.yul\":317:318   */\n      dup1\n        /* \"#utility.yul\":310:322   */\n      revert\n        /* \"#utility.yul\":334:411   */\n    tag_70:\n        /* \"#utility.yul\":371:378   */\n      0x00\n        /* \"#utility.yul\":400:405   */\n      dup2\n        /* \"#utility.yul\":389:405   */\n      swap1\n      pop\n        /* \"#utility.yul\":334:411   */\n      swap2\n      swap1\n      pop\n      jump\t// out\n        /* \"#utility.yul\":417:539   */\n    tag_71:\n        /* \"#utility.yul\":490:514   */\n      tag_116\n        /* \"#utility.yul\":508:513   */\n      dup2\n        /* \"#utility.yul\":490:514   */\n      tag_70\n      jump\t// in\n    tag_116:\n        /* \"#utility.yul\":483:488   */\n      dup2\n        /* \"#utility.yul\":480:515   */\n      eq\n        /* \"#utility.yul\":470:533   */\n      tag_117\n      jumpi\n        /* \"#utility.yul\":529:530   */\n      0x00\n        /* \"#utility.yul\":526:527   */\n      dup1\n        /* \"#utility.yul\":519:531   */\n      revert\n        /* \"#utility.yul\":470:533   */\n    tag_117:\n        /* \"#utility.yul\":417:539   */\n      pop\n      jump\t// out\n        /* \"#utility.yul\":545:684   */\n    tag_72:\n        /* \"#utility.yul\":591:596   */\n      0x00\n        /* \"#utility.yul\":629:635   */\n      dup2\n        /* \"#utility.yul\":616:636   */\n      calldataload\n        /* \"#utility.yul\":607:636   */\n      swap1\n      pop\n        /* \"#utility.yul\":645:678   */\n      tag_119\n        /* \"#utility.yul\":672:677   */\n      dup2\n        /* \"#utility.yul\":645:678   */\n      tag_71\n      jump\t// in\n    tag_119:\n        /* \"#utility.yul\":545:684   */\n      swap3\n      swap2\n      pop\n      pop\n      jump\t// out\n        /* \"#utility.yul\":690:1019   */\n    tag_8:\n        /* \"#utility.yul\":749:755   */\n      0x00\n        /* \"#utility.yul\":798:800   */\n      0x20\n        /* \"#utility.yul\":786:795   */\n      dup3\n        /* \"#utility.yul\":777:784   */\n      dup5\n        /* \"#utility.yul\":773:796   */\n      sub\n        /* \"#utility.yul\":769:801   */\n      slt\n        /* \"#utility.yul\":766:885   */\n      iszero\n      tag_121\n      jumpi\n        /* \"#utility.yul\":804:883   */\n      tag_122\n      tag_68\n      jump\t// in\n    tag_122:\n        /* \"#utility.yul\":766:885   */\n    tag_121:\n        /* \"#utility.yul\":924:925   */\n      0x00\n        /* \"#utility.yul\":949:1002   */\n      tag_123\n        /* \"#utility.yul\":994:1001   */\n      dup5\n        /* \"#utility.yul\":985:991   */\n      dup3\n        /* \"#utility.yul\":974:983   */\n      dup6\n        /* \"#utility.yul\":970:992   */\n      add\n        /* \"#utility.yul\":949:1002   */\n      tag_72\n      jump\t// in\n    tag_123:\n        /* \"#utility.yul\":939:1002   */\n      swap2\n      pop\n        /* \"#utility.yul\":895:1012   */\n      pop\n        /* \"#utility.yul\":690:1019   */\n      swap3\n      swap2\n      pop\n      pop\n      jump\t// out\n        /* \"#utility.yul\":1025:1151   */\n    tag_73:\n        /* \"#utility.yul\":1062:1069   */\n      0x00\n        /* \"#utility.yul\":1102:1144   */\n      0xffffffffffffffffffffffffffffffffffffffff\n        /* \"#utility.yul\":1095:1100   */\n      dup3\n        /* \"#utility.yul\":1091:1145   */\n      and\n        /* \"#utility.yul\":1080:1145   */\n      swap1\n      pop\n        /* \"#utility.yul\":1025:1151   */\n      swap2\n      swap1\n      pop\n      jump\t// out\n        /* \"#utility.yul\":1157:1253   */\n    tag_74:\n        /* \"#utility.yul\":1194:1201   */\n      0x00\n        /* \"#utility.yul\":1223:1247   */\n      tag_126\n        /* \"#utility.yul\":1241:1246   */\n      dup3\n        /* \"#utility.yul\":1223:1247   */\n      tag_73\n      jump\t// in\n    tag_126:\n        /* \"#utility.yul\":1212:1247   */\n      swap1\n      pop\n        /* \"#utility.yul\":1157:1253   */\n      swap2\n      swap1\n      pop\n      jump\t// out\n        /* \"#utility.yul\":1259:1377   */\n    tag_75:\n        /* \"#utility.yul\":1346:1370   */\n      tag_128\n        /* \"#utility.yul\":1364:1369   */\n      dup2\n        /* \"#utility.yul\":1346:1370   */\n      tag_74\n      jump\t// in\n    tag_128:\n        /* \"#utility.yul\":1341:1344   */\n      dup3\n        /* \"#utility.yul\":1334:1371   */\n      mstore\n        /* \"#utility.yul\":1259:1377   */\n      pop\n      pop\n      jump\t// out\n        /* \"#utility.yul\":1383:1482   */\n    tag_76:\n        /* \"#utility.yul\":1435:1441   */\n      0x00\n        /* \"#utility.yul\":1469:1474   */\n      dup2\n        /* \"#utility.yul\":1463:1475   */\n      mload\n        /* \"#utility.yul\":1453:1475   */\n      swap1\n      pop\n        /* \"#utility.yul\":1383:1482   */\n      swap2\n      swap1\n      pop\n      jump\t// out\n        /* \"#utility.yul\":1488:1657   */\n    tag_77:\n        /* \"#utility.yul\":1572:1583   */\n      0x00\n        /* \"#utility.yul\":1606:1612   */\n      dup3\n        /* \"#utility.yul\":1601:1604   */\n      dup3\n        /* \"#utility.yul\":1594:1613   */\n      mstore\n        /* \"#utility.yul\":1646:1650   */\n      0x20\n        /* \"#utility.yul\":1641:1644   */\n      dup3\n        /* \"#utility.yul\":1637:1651   */\n      add\n        /* \"#utility.yul\":1622:1651   */\n      swap1\n      pop\n        /* \"#utility.yul\":1488:1657   */\n      swap3\n      swap2\n      pop\n      pop\n      jump\t// out\n        /* \"#utility.yul\":1663:1909   */\n    tag_78:\n        /* \"#utility.yul\":1744:1745   */\n      0x00\n        /* \"#utility.yul\":1754:1867   */\n    tag_132:\n        /* \"#utility.yul\":1768:1774   */\n      dup4\n        /* \"#utility.yul\":1765:1766   */\n      dup2\n        /* \"#utility.yul\":1762:1775   */\n      lt\n        /* \"#utility.yul\":1754:1867   */\n      iszero\n      tag_134\n      jumpi\n        /* \"#utility.yul\":1853:1854   */\n      dup1\n        /* \"#utility.yul\":1848:1851   */\n      dup3\n        /* \"#utility.yul\":1844:1855   */\n      add\n        /* \"#utility.yul\":1838:1856   */\n      mload\n        /* \"#utility.yul\":1834:1835   */\n      dup2\n        /* \"#utility.yul\":1829:1832   */\n      dup5\n        /* \"#utility.yul\":1825:1836   */\n      add\n        /* \"#utility.yul\":1818:1857   */\n      mstore\n        /* \"#utility.yul\":1790:1792   */\n      0x20\n        /* \"#utility.yul\":1787:1788   */\n      dup2\n        /* \"#utility.yul\":1783:1793   */\n      add\n        /* \"#utility.yul\":1778:1793   */\n      swap1\n      pop\n        /* \"#utility.yul\":1754:1867   */\n      jump(tag_132)\n    tag_134:\n        /* \"#utility.yul\":1901:1902   */\n      0x00\n        /* \"#utility.yul\":1892:1898   */\n      dup5\n        /* \"#utility.yul\":1887:1890   */\n      dup5\n        /* \"#utility.yul\":1883:1899   */\n      add\n        /* \"#utility.yul\":1876:1903   */\n      mstore\n        /* \"#utility.yul\":1725:1909   */\n      pop\n        /* \"#utility.yul\":1663:1909   */\n      pop\n      pop\n      pop\n      jump\t// out\n        /* \"#utility.yul\":1915:2017   */\n    tag_79:\n        /* \"#utility.yul\":1956:1962   */\n      0x00\n        /* \"#utility.yul\":2007:2009   */\n      0x1f\n        /* \"#utility.yul\":2003:2010   */\n      not\n        /* \"#utility.yul\":1998:2000   */\n      0x1f\n        /* \"#utility.yul\":1991:1996   */\n      dup4\n        /* \"#utility.yul\":1987:2001   */\n      add\n        /* \"#utility.yul\":1983:2011   */\n      and\n        /* \"#utility.yul\":1973:2011   */\n      swap1\n      pop\n        /* \"#utility.yul\":1915:2017   */\n      swap2\n      swap1\n      pop\n      jump\t// out\n        /* \"#utility.yul\":2023:2400   */\n    tag_80:\n        /* \"#utility.yul\":2111:2114   */\n      0x00\n        /* \"#utility.yul\":2139:2178   */\n      tag_137\n        /* \"#utility.yul\":2172:2177   */\n      dup3\n        /* \"#utility.yul\":2139:2178   */\n      tag_76\n      jump\t// in\n    tag_137:\n        /* \"#utility.yul\":2194:2265   */\n      tag_138\n        /* \"#utility.yul\":2258:2264   */\n      dup2\n        /* \"#utility.yul\":2253:2256   */\n      dup6\n        /* \"#utility.yul\":2194:2265   */\n      tag_77\n      jump\t// in\n    tag_138:\n        /* \"#utility.yul\":2187:2265   */\n      swap4\n      pop\n        /* \"#utility.yul\":2274:2339   */\n      tag_139\n        /* \"#utility.yul\":2332:2338   */\n      dup2\n        /* \"#utility.yul\":2327:2330   */\n      dup6\n        /* \"#utility.yul\":2320:2324   */\n      0x20\n        /* \"#utility.yul\":2313:2318   */\n      dup7\n        /* \"#utility.yul\":2309:2325   */\n      add\n        /* \"#utility.yul\":2274:2339   */\n      tag_78\n      jump\t// in\n    tag_139:\n        /* \"#utility.yul\":2364:2393   */\n      tag_140\n        /* \"#utility.yul\":2386:2392   */\n      dup2\n        /* \"#utility.yul\":2364:2393   */\n      tag_79\n      jump\t// in\n    tag_140:\n        /* \"#utility.yul\":2359:2362   */\n      dup5\n        /* \"#utility.yul\":2355:2394   */\n      add\n        /* \"#utility.yul\":2348:2394   */\n      swap2\n      pop\n        /* \"#utility.yul\":2115:2400   */\n      pop\n        /* \"#utility.yul\":2023:2400   */\n      swap3\n      swap2\n      pop\n      pop\n      jump\t// out\n        /* \"#utility.yul\":2406:3232   */\n    tag_11:\n        /* \"#utility.yul\":2643:2647   */\n      0x00\n        /* \"#utility.yul\":2681:2684   */\n      0x80\n        /* \"#utility.yul\":2670:2679   */\n      dup3\n        /* \"#utility.yul\":2666:2685   */\n      add\n        /* \"#utility.yul\":2658:2685   */\n      swap1\n      pop\n        /* \"#utility.yul\":2695:2766   */\n      tag_142\n        /* \"#utility.yul\":2763:2764   */\n      0x00\n        /* \"#utility.yul\":2752:2761   */\n      dup4\n        /* \"#utility.yul\":2748:2765   */\n      add\n        /* \"#utility.yul\":2739:2745   */\n      dup8\n        /* \"#utility.yul\":2695:2766   */\n      tag_75\n      jump\t// in\n    tag_142:\n        /* \"#utility.yul\":2813:2822   */\n      dup2\n        /* \"#utility.yul\":2807:2811   */\n      dup2\n        /* \"#utility.yul\":2803:2823   */\n      sub\n        /* \"#utility.yul\":2798:2800   */\n      0x20\n        /* \"#utility.yul\":2787:2796   */\n      dup4\n        /* \"#utility.yul\":2783:2801   */\n      add\n        /* \"#utility.yul\":2776:2824   */\n      mstore\n        /* \"#utility.yul\":2841:2919   */\n      tag_143\n        /* \"#utility.yul\":2914:2918   */\n      dup2\n        /* \"#utility.yul\":2905:2911   */\n      dup7\n        /* \"#utility.yul\":2841:2919   */\n      tag_80\n      jump\t// in\n    tag_143:\n        /* \"#utility.yul\":2833:2919   */\n      swap1\n      pop\n        /* \"#utility.yul\":2966:2975   */\n      dup2\n        /* \"#utility.yul\":2960:2964   */\n      dup2\n        /* \"#utility.yul\":2956:2976   */\n      sub\n        /* \"#utility.yul\":2951:2953   */\n      0x40\n        /* \"#utility.yul\":2940:2949   */\n      dup4\n        /* \"#utility.yul\":2936:2954   */\n      add\n        /* \"#utility.yul\":2929:2977   */\n      mstore\n        /* \"#utility.yul\":2994:3072   */\n      tag_144\n        /* \"#utility.yul\":3067:3071   */\n      dup2\n        /* \"#utility.yul\":3058:3064   */\n      dup6\n        /* \"#utility.yul\":2994:3072   */\n      tag_80\n      jump\t// in\n    tag_144:\n        /* \"#utility.yul\":2986:3072   */\n      swap1\n      pop\n        /* \"#utility.yul\":3119:3128   */\n      dup2\n        /* \"#utility.yul\":3113:3117   */\n      dup2\n        /* \"#utility.yul\":3109:3129   */\n      sub\n        /* \"#utility.yul\":3104:3106   */\n      0x60\n        /* \"#utility.yul\":3093:3102   */\n      dup4\n        /* \"#utility.yul\":3089:3107   */\n      add\n        /* \"#utility.yul\":3082:3130   */\n      mstore\n        /* \"#utility.yul\":3147:3225   */\n      tag_145\n        /* \"#utility.yul\":3220:3224   */\n      dup2\n        /* \"#utility.yul\":3211:3217   */\n      dup5\n        /* \"#utility.yul\":3147:3225   */\n      tag_80\n      jump\t// in\n    tag_145:\n        /* \"#utility.yul\":3139:3225   */\n      swap1\n      pop\n        /* \"#utility.yul\":2406:3232   */\n      swap6\n      swap5\n      pop\n      pop\n      pop\n      pop\n      pop\n      jump\t// out\n        /* \"#utility.yul\":3238:3360   */\n    tag_81:\n        /* \"#utility.yul\":3311:3335   */\n      tag_147\n        /* \"#utility.yul\":3329:3334   */\n      dup2\n        /* \"#utility.yul\":3311:3335   */\n      tag_74\n      jump\t// in\n    tag_147:\n        /* \"#utility.yul\":3304:3309   */\n      dup2\n        /* \"#utility.yul\":3301:3336   */\n      eq\n        /* \"#utility.yul\":3291:3354   */\n      tag_148\n      jumpi\n        /* \"#utility.yul\":3350:3351   */\n      0x00\n        /* \"#utility.yul\":3347:3348   */\n      dup1\n        /* \"#utility.yul\":3340:3352   */\n      revert\n        /* \"#utility.yul\":3291:3354   */\n    tag_148:\n        /* \"#utility.yul\":3238:3360   */\n      pop\n      jump\t// out\n        /* \"#utility.yul\":3366:3505   */\n    tag_82:\n        /* \"#utility.yul\":3412:3417   */\n      0x00\n        /* \"#utility.yul\":3450:3456   */\n      dup2\n        /* \"#utility.yul\":3437:3457   */\n      calldataload\n        /* \"#utility.yul\":3428:3457   */\n      swap1\n      pop\n        /* \"#utility.yul\":3466:3499   */\n      tag_150\n        /* \"#utility.yul\":3493:3498   */\n      dup2\n        /* \"#utility.yul\":3466:3499   */\n      tag_81\n      jump\t// in\n    tag_150:\n        /* \"#utility.yul\":3366:3505   */\n      swap3\n      swap2\n      pop\n      pop\n      jump\t// out\n        /* \"#utility.yul\":3511:3628   */\n    tag_83:\n        /* \"#utility.yul\":3620:3621   */\n      0x00\n        /* \"#utility.yul\":3617:3618   */\n      dup1\n        /* \"#utility.yul\":3610:3622   */\n      revert\n        /* \"#utility.yul\":3634:3751   */\n    tag_84:\n        /* \"#utility.yul\":3743:3744   */\n      0x00\n        /* \"#utility.yul\":3740:3741   */\n      dup1\n        /* \"#utility.yul\":3733:3745   */\n      revert\n        /* \"#utility.yul\":3757:3937   */\n    tag_85:\n        /* \"#utility.yul\":3805:3882   */\n      0x4e487b7100000000000000000000000000000000000000000000000000000000\n        /* \"#utility.yul\":3802:3803   */\n      0x00\n        /* \"#utility.yul\":3795:3883   */\n      mstore\n        /* \"#utility.yul\":3902:3906   */\n      0x41\n        /* \"#utility.yul\":3899:3900   */\n      0x04\n        /* \"#utility.yul\":3892:3907   */\n      mstore\n        /* \"#utility.yul\":3926:3930   */\n      0x24\n        /* \"#utility.yul\":3923:3924   */\n      0x00\n        /* \"#utility.yul\":3916:3931   */\n      revert\n        /* \"#utility.yul\":3943:4224   */\n    tag_86:\n        /* \"#utility.yul\":4026:4053   */\n      tag_155\n        /* \"#utility.yul\":4048:4052   */\n      dup3\n        /* \"#utility.yul\":4026:4053   */\n      tag_79\n      jump\t// in\n    tag_155:\n        /* \"#utility.yul\":4018:4024   */\n      dup2\n        /* \"#utility.yul\":4014:4054   */\n      add\n        /* \"#utility.yul\":4156:4162   */\n      dup2\n        /* \"#utility.yul\":4144:4154   */\n      dup2\n        /* \"#utility.yul\":4141:4163   */\n      lt\n        /* \"#utility.yul\":4120:4138   */\n      0xffffffffffffffff\n        /* \"#utility.yul\":4108:4118   */\n      dup3\n        /* \"#utility.yul\":4105:4139   */\n      gt\n        /* \"#utility.yul\":4102:4164   */\n      or\n        /* \"#utility.yul\":4099:4187   */\n      iszero\n      tag_156\n      jumpi\n        /* \"#utility.yul\":4167:4185   */\n      tag_157\n      tag_85\n      jump\t// in\n    tag_157:\n        /* \"#utility.yul\":4099:4187   */\n    tag_156:\n        /* \"#utility.yul\":4207:4217   */\n      dup1\n        /* \"#utility.yul\":4203:4205   */\n      0x40\n        /* \"#utility.yul\":4196:4218   */\n      mstore\n        /* \"#utility.yul\":3986:4224   */\n      pop\n        /* \"#utility.yul\":3943:4224   */\n      pop\n      pop\n      jump\t// out\n        /* \"#utility.yul\":4230:4359   */\n    tag_87:\n        /* \"#utility.yul\":4264:4270   */\n      0x00\n        /* \"#utility.yul\":4291:4311   */\n      tag_159\n      tag_67\n      jump\t// in\n    tag_159:\n        /* \"#utility.yul\":4281:4311   */\n      swap1\n      pop\n        /* \"#utility.yul\":4320:4353   */\n      tag_160\n        /* \"#utility.yul\":4348:4352   */\n      dup3\n        /* \"#utility.yul\":4340:4346   */\n      dup3\n        /* \"#utility.yul\":4320:4353   */\n      tag_86\n      jump\t// in\n    tag_160:\n        /* \"#utility.yul\":4230:4359   */\n      swap2\n      swap1\n      pop\n      jump\t// out\n        /* \"#utility.yul\":4365:4673   */\n    tag_88:\n        /* \"#utility.yul\":4427:4431   */\n      0x00\n        /* \"#utility.yul\":4517:4535   */\n      0xffffffffffffffff\n        /* \"#utility.yul\":4509:4515   */\n      dup3\n        /* \"#utility.yul\":4506:4536   */\n      gt\n        /* \"#utility.yul\":4503:4559   */\n      iszero\n      tag_162\n      jumpi\n        /* \"#utility.yul\":4539:4557   */\n      tag_163\n      tag_85\n      jump\t// in\n    tag_163:\n        /* \"#utility.yul\":4503:4559   */\n    tag_162:\n        /* \"#utility.yul\":4577:4606   */\n      tag_164\n        /* \"#utility.yul\":4599:4605   */\n      dup3\n        /* \"#utility.yul\":4577:4606   */\n      tag_79\n      jump\t// in\n    tag_164:\n        /* \"#utility.yul\":4569:4606   */\n      swap1\n      pop\n        /* \"#utility.yul\":4661:4665   */\n      0x20\n        /* \"#utility.yul\":4655:4659   */\n      dup2\n        /* \"#utility.yul\":4651:4666   */\n      add\n        /* \"#utility.yul\":4643:4666   */\n      swap1\n      pop\n        /* \"#utility.yul\":4365:4673   */\n      swap2\n      swap1\n      pop\n      jump\t// out\n        /* \"#utility.yul\":4679:4825   */\n    tag_89:\n        /* \"#utility.yul\":4776:4782   */\n      dup3\n        /* \"#utility.yul\":4771:4774   */\n      dup2\n        /* \"#utility.yul\":4766:4769   */\n      dup4\n        /* \"#utility.yul\":4753:4783   */\n      calldatacopy\n        /* \"#utility.yul\":4817:4818   */\n      0x00\n        /* \"#utility.yul\":4808:4814   */\n      dup4\n        /* \"#utility.yul\":4803:4806   */\n      dup4\n        /* \"#utility.yul\":4799:4815   */\n      add\n        /* \"#utility.yul\":4792:4819   */\n      mstore\n        /* \"#utility.yul\":4679:4825   */\n      pop\n      pop\n      pop\n      jump\t// out\n        /* \"#utility.yul\":4831:5256   */\n    tag_90:\n        /* \"#utility.yul\":4909:4914   */\n      0x00\n        /* \"#utility.yul\":4934:5000   */\n      tag_167\n        /* \"#utility.yul\":4950:4999   */\n      tag_168\n        /* \"#utility.yul\":4992:4998   */\n      dup5\n        /* \"#utility.yul\":4950:4999   */\n      tag_88\n      jump\t// in\n    tag_168:\n        /* \"#utility.yul\":4934:5000   */\n      tag_87\n      jump\t// in\n    tag_167:\n        /* \"#utility.yul\":4925:5000   */\n      swap1\n      pop\n        /* \"#utility.yul\":5023:5029   */\n      dup3\n        /* \"#utility.yul\":5016:5021   */\n      dup2\n        /* \"#utility.yul\":5009:5030   */\n      mstore\n        /* \"#utility.yul\":5061:5065   */\n      0x20\n        /* \"#utility.yul\":5054:5059   */\n      dup2\n        /* \"#utility.yul\":5050:5066   */\n      add\n        /* \"#utility.yul\":5099:5102   */\n      dup5\n        /* \"#utility.yul\":5090:5096   */\n      dup5\n        /* \"#utility.yul\":5085:5088   */\n      dup5\n        /* \"#utility.yul\":5081:5097   */\n      add\n        /* \"#utility.yul\":5078:5103   */\n      gt\n        /* \"#utility.yul\":5075:5187   */\n      iszero\n      tag_169\n      jumpi\n        /* \"#utility.yul\":5106:5185   */\n      tag_170\n      tag_84\n      jump\t// in\n    tag_170:\n        /* \"#utility.yul\":5075:5187   */\n    tag_169:\n        /* \"#utility.yul\":5196:5250   */\n      tag_171\n        /* \"#utility.yul\":5243:5249   */\n      dup5\n        /* \"#utility.yul\":5238:5241   */\n      dup3\n        /* \"#utility.yul\":5233:5236   */\n      dup6\n        /* \"#utility.yul\":5196:5250   */\n      tag_89\n      jump\t// in\n    tag_171:\n        /* \"#utility.yul\":4915:5256   */\n      pop\n        /* \"#utility.yul\":4831:5256   */\n      swap4\n      swap3\n      pop\n      pop\n      pop\n      jump\t// out\n        /* \"#utility.yul\":5276:5616   */\n    tag_91:\n        /* \"#utility.yul\":5332:5337   */\n      0x00\n        /* \"#utility.yul\":5381:5384   */\n      dup3\n        /* \"#utility.yul\":5374:5378   */\n      0x1f\n        /* \"#utility.yul\":5366:5372   */\n      dup4\n        /* \"#utility.yul\":5362:5379   */\n      add\n        /* \"#utility.yul\":5358:5385   */\n      slt\n        /* \"#utility.yul\":5348:5470   */\n      tag_173\n      jumpi\n        /* \"#utility.yul\":5389:5468   */\n      tag_174\n      tag_83\n      jump\t// in\n    tag_174:\n        /* \"#utility.yul\":5348:5470   */\n    tag_173:\n        /* \"#utility.yul\":5506:5512   */\n      dup2\n        /* \"#utility.yul\":5493:5513   */\n      calldataload\n        /* \"#utility.yul\":5531:5610   */\n      tag_175\n        /* \"#utility.yul\":5606:5609   */\n      dup5\n        /* \"#utility.yul\":5598:5604   */\n      dup3\n        /* \"#utility.yul\":5591:5595   */\n      0x20\n        /* \"#utility.yul\":5583:5589   */\n      dup7\n        /* \"#utility.yul\":5579:5596   */\n      add\n        /* \"#utility.yul\":5531:5610   */\n      tag_90\n      jump\t// in\n    tag_175:\n        /* \"#utility.yul\":5522:5610   */\n      swap2\n      pop\n        /* \"#utility.yul\":5338:5616   */\n      pop\n        /* \"#utility.yul\":5276:5616   */\n      swap3\n      swap2\n      pop\n      pop\n      jump\t// out\n        /* \"#utility.yul\":5622:6927   */\n    tag_14:\n        /* \"#utility.yul\":5738:5744   */\n      0x00\n        /* \"#utility.yul\":5746:5752   */\n      dup1\n        /* \"#utility.yul\":5754:5760   */\n      0x00\n        /* \"#utility.yul\":5762:5768   */\n      dup1\n        /* \"#utility.yul\":5811:5814   */\n      0x80\n        /* \"#utility.yul\":5799:5808   */\n      dup6\n        /* \"#utility.yul\":5790:5797   */\n      dup8\n        /* \"#utility.yul\":5786:5809   */\n      sub\n        /* \"#utility.yul\":5782:5815   */\n      slt\n        /* \"#utility.yul\":5779:5899   */\n      iszero\n      tag_177\n      jumpi\n        /* \"#utility.yul\":5818:5897   */\n      tag_178\n      tag_68\n      jump\t// in\n    tag_178:\n        /* \"#utility.yul\":5779:5899   */\n    tag_177:\n        /* \"#utility.yul\":5938:5939   */\n      0x00\n        /* \"#utility.yul\":5963:6016   */\n      tag_179\n        /* \"#utility.yul\":6008:6015   */\n      dup8\n        /* \"#utility.yul\":5999:6005   */\n      dup3\n        /* \"#utility.yul\":5988:5997   */\n      dup9\n        /* \"#utility.yul\":5984:6006   */\n      add\n        /* \"#utility.yul\":5963:6016   */\n      tag_82\n      jump\t// in\n    tag_179:\n        /* \"#utility.yul\":5953:6016   */\n      swap5\n      pop\n        /* \"#utility.yul\":5909:6026   */\n      pop\n        /* \"#utility.yul\":6093:6095   */\n      0x20\n        /* \"#utility.yul\":6082:6091   */\n      dup6\n        /* \"#utility.yul\":6078:6096   */\n      add\n        /* \"#utility.yul\":6065:6097   */\n      calldataload\n        /* \"#utility.yul\":6124:6142   */\n      0xffffffffffffffff\n        /* \"#utility.yul\":6116:6122   */\n      dup2\n        /* \"#utility.yul\":6113:6143   */\n      gt\n        /* \"#utility.yul\":6110:6227   */\n      iszero\n      tag_180\n      jumpi\n        /* \"#utility.yul\":6146:6225   */\n      tag_181\n      tag_69\n      jump\t// in\n    tag_181:\n        /* \"#utility.yul\":6110:6227   */\n    tag_180:\n        /* \"#utility.yul\":6251:6314   */\n      tag_182\n        /* \"#utility.yul\":6306:6313   */\n      dup8\n        /* \"#utility.yul\":6297:6303   */\n      dup3\n        /* \"#utility.yul\":6286:6295   */\n      dup9\n        /* \"#utility.yul\":6282:6304   */\n      add\n        /* \"#utility.yul\":6251:6314   */\n      tag_91\n      jump\t// in\n    tag_182:\n        /* \"#utility.yul\":6241:6314   */\n      swap4\n      pop\n        /* \"#utility.yul\":6036:6324   */\n      pop\n        /* \"#utility.yul\":6391:6393   */\n      0x40\n        /* \"#utility.yul\":6380:6389   */\n      dup6\n        /* \"#utility.yul\":6376:6394   */\n      add\n        /* \"#utility.yul\":6363:6395   */\n      calldataload\n        /* \"#utility.yul\":6422:6440   */\n      0xffffffffffffffff\n        /* \"#utility.yul\":6414:6420   */\n      dup2\n        /* \"#utility.yul\":6411:6441   */\n      gt\n        /* \"#utility.yul\":6408:6525   */\n      iszero\n      tag_183\n      jumpi\n        /* \"#utility.yul\":6444:6523   */\n      tag_184\n      tag_69\n      jump\t// in\n    tag_184:\n        /* \"#utility.yul\":6408:6525   */\n    tag_183:\n        /* \"#utility.yul\":6549:6612   */\n      tag_185\n        /* \"#utility.yul\":6604:6611   */\n      dup8\n        /* \"#utility.yul\":6595:6601   */\n      dup3\n        /* \"#utility.yul\":6584:6593   */\n      dup9\n        /* \"#utility.yul\":6580:6602   */\n      add\n        /* \"#utility.yul\":6549:6612   */\n      tag_91\n      jump\t// in\n    tag_185:\n        /* \"#utility.yul\":6539:6612   */\n      swap3\n      pop\n        /* \"#utility.yul\":6334:6622   */\n      pop\n        /* \"#utility.yul\":6689:6691   */\n      0x60\n        /* \"#utility.yul\":6678:6687   */\n      dup6\n        /* \"#utility.yul\":6674:6692   */\n      add\n        /* \"#utility.yul\":6661:6693   */\n      calldataload\n        /* \"#utility.yul\":6720:6738   */\n      0xffffffffffffffff\n        /* \"#utility.yul\":6712:6718   */\n      dup2\n        /* \"#utility.yul\":6709:6739   */\n      gt\n        /* \"#utility.yul\":6706:6823   */\n      iszero\n      tag_186\n      jumpi\n        /* \"#utility.yul\":6742:6821   */\n      tag_187\n      tag_69\n      jump\t// in\n    tag_187:\n        /* \"#utility.yul\":6706:6823   */\n    tag_186:\n        /* \"#utility.yul\":6847:6910   */\n      tag_188\n        /* \"#utility.yul\":6902:6909   */\n      dup8\n        /* \"#utility.yul\":6893:6899   */\n      dup3\n        /* \"#utility.yul\":6882:6891   */\n      dup9\n        /* \"#utility.yul\":6878:6900   */\n      add\n        /* \"#utility.yul\":6847:6910   */\n      tag_91\n      jump\t// in\n    tag_188:\n        /* \"#utility.yul\":6837:6910   */\n      swap2\n      pop\n        /* \"#utility.yul\":6632:6920   */\n      pop\n        /* \"#utility.yul\":5622:6927   */\n      swap3\n      swap6\n      swap2\n      swap5\n      pop\n      swap3\n      pop\n      jump\t// out\n        /* \"#utility.yul\":6933:7102   */\n    tag_92:\n        /* \"#utility.yul\":7073:7094   */\n      0x496e646578206f7574206f6620626f756e647300000000000000000000000000\n        /* \"#utility.yul\":7069:7070   */\n      0x00\n        /* \"#utility.yul\":7061:7067   */\n      dup3\n        /* \"#utility.yul\":7057:7071   */\n      add\n        /* \"#utility.yul\":7050:7095   */\n      mstore\n        /* \"#utility.yul\":6933:7102   */\n      pop\n      jump\t// out\n        /* \"#utility.yul\":7108:7474   */\n    tag_93:\n        /* \"#utility.yul\":7250:7253   */\n      0x00\n        /* \"#utility.yul\":7271:7338   */\n      tag_191\n        /* \"#utility.yul\":7335:7337   */\n      0x13\n        /* \"#utility.yul\":7330:7333   */\n      dup4\n        /* \"#utility.yul\":7271:7338   */\n      tag_77\n      jump\t// in\n    tag_191:\n        /* \"#utility.yul\":7264:7338   */\n      swap2\n      pop\n        /* \"#utility.yul\":7347:7440   */\n      tag_192\n        /* \"#utility.yul\":7436:7439   */\n      dup3\n        /* \"#utility.yul\":7347:7440   */\n      tag_92\n      jump\t// in\n    tag_192:\n        /* \"#utility.yul\":7465:7467   */\n      0x20\n        /* \"#utility.yul\":7460:7463   */\n      dup3\n        /* \"#utility.yul\":7456:7468   */\n      add\n        /* \"#utility.yul\":7449:7468   */\n      swap1\n      pop\n        /* \"#utility.yul\":7108:7474   */\n      swap2\n      swap1\n      pop\n      jump\t// out\n        /* \"#utility.yul\":7480:7899   */\n    tag_23:\n        /* \"#utility.yul\":7646:7650   */\n      0x00\n        /* \"#utility.yul\":7684:7686   */\n      0x20\n        /* \"#utility.yul\":7673:7682   */\n      dup3\n        /* \"#utility.yul\":7669:7687   */\n      add\n        /* \"#utility.yul\":7661:7687   */\n      swap1\n      pop\n        /* \"#utility.yul\":7733:7742   */\n      dup2\n        /* \"#utility.yul\":7727:7731   */\n      dup2\n        /* \"#utility.yul\":7723:7743   */\n      sub\n        /* \"#utility.yul\":7719:7720   */\n      0x00\n        /* \"#utility.yul\":7708:7717   */\n      dup4\n        /* \"#utility.yul\":7704:7721   */\n      add\n        /* \"#utility.yul\":7697:7744   */\n      mstore\n        /* \"#utility.yul\":7761:7892   */\n      tag_194\n        /* \"#utility.yul\":7887:7891   */\n      dup2\n        /* \"#utility.yul\":7761:7892   */\n      tag_93\n      jump\t// in\n    tag_194:\n        /* \"#utility.yul\":7753:7892   */\n      swap1\n      pop\n        /* \"#utility.yul\":7480:7899   */\n      swap2\n      swap1\n      pop\n      jump\t// out\n        /* \"#utility.yul\":7905:8085   */\n    tag_26:\n        /* \"#utility.yul\":7953:8030   */\n      0x4e487b7100000000000000000000000000000000000000000000000000000000\n        /* \"#utility.yul\":7950:7951   */\n      0x00\n        /* \"#utility.yul\":7943:8031   */\n      mstore\n        /* \"#utility.yul\":8050:8054   */\n      0x32\n        /* \"#utility.yul\":8047:8048   */\n      0x04\n        /* \"#utility.yul\":8040:8055   */\n      mstore\n        /* \"#utility.yul\":8074:8078   */\n      0x24\n        /* \"#utility.yul\":8071:8072   */\n      0x00\n        /* \"#utility.yul\":8064:8079   */\n      revert\n        /* \"#utility.yul\":8091:8271   */\n    tag_94:\n        /* \"#utility.yul\":8139:8216   */\n      0x4e487b7100000000000000000000000000000000000000000000000000000000\n        /* \"#utility.yul\":8136:8137   */\n      0x00\n        /* \"#utility.yul\":8129:8217   */\n      mstore\n        /* \"#utility.yul\":8236:8240   */\n      0x22\n        /* \"#utility.yul\":8233:8234   */\n      0x04\n        /* \"#utility.yul\":8226:8241   */\n      mstore\n        /* \"#utility.yul\":8260:8264   */\n      0x24\n        /* \"#utility.yul\":8257:8258   */\n      0x00\n        /* \"#utility.yul\":8250:8265   */\n      revert\n        /* \"#utility.yul\":8277:8597   */\n    tag_29:\n        /* \"#utility.yul\":8321:8327   */\n      0x00\n        /* \"#utility.yul\":8358:8359   */\n      0x02\n        /* \"#utility.yul\":8352:8356   */\n      dup3\n        /* \"#utility.yul\":8348:8360   */\n      div\n        /* \"#utility.yul\":8338:8360   */\n      swap1\n      pop\n        /* \"#utility.yul\":8405:8406   */\n      0x01\n        /* \"#utility.yul\":8399:8403   */\n      dup3\n        /* \"#utility.yul\":8395:8407   */\n      and\n        /* \"#utility.yul\":8426:8444   */\n      dup1\n        /* \"#utility.yul\":8416:8497   */\n      tag_198\n      jumpi\n        /* \"#utility.yul\":8482:8486   */\n      0x7f\n        /* \"#utility.yul\":8474:8480   */\n      dup3\n        /* \"#utility.yul\":8470:8487   */\n      and\n        /* \"#utility.yul\":8460:8487   */\n      swap2\n      pop\n        /* \"#utility.yul\":8416:8497   */\n    tag_198:\n        /* \"#utility.yul\":8544:8546   */\n      0x20\n        /* \"#utility.yul\":8536:8542   */\n      dup3\n        /* \"#utility.yul\":8533:8547   */\n      lt\n        /* \"#utility.yul\":8513:8531   */\n      dup2\n        /* \"#utility.yul\":8510:8548   */\n      sub\n        /* \"#utility.yul\":8507:8591   */\n      tag_199\n      jumpi\n        /* \"#utility.yul\":8563:8581   */\n      tag_200\n      tag_94\n      jump\t// in\n    tag_200:\n        /* \"#utility.yul\":8507:8591   */\n    tag_199:\n        /* \"#utility.yul\":8328:8597   */\n      pop\n        /* \"#utility.yul\":8277:8597   */\n      swap2\n      swap1\n      pop\n      jump\t// out\n        /* \"#utility.yul\":8603:8744   */\n    tag_95:\n        /* \"#utility.yul\":8652:8656   */\n      0x00\n        /* \"#utility.yul\":8675:8678   */\n      dup2\n        /* \"#utility.yul\":8667:8678   */\n      swap1\n      pop\n        /* \"#utility.yul\":8698:8701   */\n      dup2\n        /* \"#utility.yul\":8695:8696   */\n      0x00\n        /* \"#utility.yul\":8688:8702   */\n      mstore\n        /* \"#utility.yul\":8732:8736   */\n      0x20\n        /* \"#utility.yul\":8729:8730   */\n      0x00\n        /* \"#utility.yul\":8719:8737   */\n      keccak256\n        /* \"#utility.yul\":8711:8737   */\n      swap1\n      pop\n        /* \"#utility.yul\":8603:8744   */\n      swap2\n      swap1\n      pop\n      jump\t// out\n        /* \"#utility.yul\":8750:8843   */\n    tag_96:\n        /* \"#utility.yul\":8787:8793   */\n      0x00\n        /* \"#utility.yul\":8834:8836   */\n      0x20\n        /* \"#utility.yul\":8829:8831   */\n      0x1f\n        /* \"#utility.yul\":8822:8827   */\n      dup4\n        /* \"#utility.yul\":8818:8832   */\n      add\n        /* \"#utility.yul\":8814:8837   */\n      div\n        /* \"#utility.yul\":8804:8837   */\n      swap1\n      pop\n        /* \"#utility.yul\":8750:8843   */\n      swap2\n      swap1\n      pop\n      jump\t// out\n        /* \"#utility.yul\":8849:8956   */\n    tag_97:\n        /* \"#utility.yul\":8893:8901   */\n      0x00\n        /* \"#utility.yul\":8943:8948   */\n      dup3\n        /* \"#utility.yul\":8937:8941   */\n      dup3\n        /* \"#utility.yul\":8933:8949   */\n      shl\n        /* \"#utility.yul\":8912:8949   */\n      swap1\n      pop\n        /* \"#utility.yul\":8849:8956   */\n      swap3\n      swap2\n      pop\n      pop\n      jump\t// out\n        /* \"#utility.yul\":8962:9355   */\n    tag_98:\n        /* \"#utility.yul\":9031:9037   */\n      0x00\n        /* \"#utility.yul\":9081:9082   */\n      0x08\n        /* \"#utility.yul\":9069:9079   */\n      dup4\n        /* \"#utility.yul\":9065:9083   */\n      mul\n        /* \"#utility.yul\":9104:9201   */\n      tag_205\n        /* \"#utility.yul\":9134:9200   */\n      0xffffffffffffffffffffffffffffffffffffffffffffffffffffffffffffffff\n        /* \"#utility.yul\":9123:9132   */\n      dup3\n        /* \"#utility.yul\":9104:9201   */\n      tag_97\n      jump\t// in\n    tag_205:\n        /* \"#utility.yul\":9222:9261   */\n      tag_206\n        /* \"#utility.yul\":9252:9260   */\n      dup7\n        /* \"#utility.yul\":9241:9250   */\n      dup4\n        /* \"#utility.yul\":9222:9261   */\n      tag_97\n      jump\t// in\n    tag_206:\n        /* \"#utility.yul\":9210:9261   */\n      swap6\n      pop\n        /* \"#utility.yul\":9294:9298   */\n      dup1\n        /* \"#utility.yul\":9290:9299   */\n      not\n        /* \"#utility.yul\":9283:9288   */\n      dup5\n        /* \"#utility.yul\":9279:9300   */\n      and\n        /* \"#utility.yul\":9270:9300   */\n      swap4\n      pop\n        /* \"#utility.yul\":9343:9347   */\n      dup1\n        /* \"#utility.yul\":9333:9341   */\n      dup7\n        /* \"#utility.yul\":9329:9348   */\n      and\n        /* \"#utility.yul\":9322:9327   */\n      dup5\n        /* \"#utility.yul\":9319:9349   */\n      or\n        /* \"#utility.yul\":9309:9349   */\n      swap3\n      pop\n        /* \"#utility.yul\":9038:9355   */\n      pop\n      pop\n        /* \"#utility.yul\":8962:9355   */\n      swap4\n      swap3\n      pop\n      pop\n      pop\n      jump\t// out\n        /* \"#utility.yul\":9361:9421   */\n    tag_99:\n        /* \"#utility.yul\":9389:9392   */\n      0x00\n        /* \"#utility.yul\":9410:9415   */\n      dup2\n        /* \"#utility.yul\":9403:9415   */\n      swap1\n      pop\n        /* \"#utility.yul\":9361:9421   */\n      swap2\n      swap1\n      pop\n      jump\t// out\n        /* \"#utility.yul\":9427:9569   */\n    tag_100:\n        /* \"#utility.yul\":9477:9486   */\n      0x00\n        /* \"#utility.yul\":9510:9563   */\n      tag_209\n        /* \"#utility.yul\":9528:9562   */\n      tag_210\n        /* \"#utility.yul\":9537:9561   */\n      tag_211\n        /* \"#utility.yul\":9555:9560   */\n      dup5\n        /* \"#utility.yul\":9537:9561   */\n      tag_70\n      jump\t// in\n    tag_211:\n        /* \"#utility.yul\":9528:9562   */\n      tag_99\n      jump\t// in\n    tag_210:\n        /* \"#utility.yul\":9510:9563   */\n      tag_70\n      jump\t// in\n    tag_209:\n        /* \"#utility.yul\":9497:9563   */\n      swap1\n      pop\n        /* \"#utility.yul\":9427:9569   */\n      swap2\n      swap1\n      pop\n      jump\t// out\n        /* \"#utility.yul\":9575:9650   */\n    tag_101:\n        /* \"#utility.yul\":9618:9621   */\n      0x00\n        /* \"#utility.yul\":9639:9644   */\n      dup2\n        /* \"#utility.yul\":9632:9644   */\n      swap1\n      pop\n        /* \"#utility.yul\":9575:9650   */\n      swap2\n      swap1\n      pop\n      jump\t// out\n        /* \"#utility.yul\":9656:9925   */\n    tag_102:\n        /* \"#utility.yul\":9766:9805   */\n      tag_214\n        /* \"#utility.yul\":9797:9804   */\n      dup4\n        /* \"#utility.yul\":9766:9805   */\n      tag_100\n      jump\t// in\n    tag_214:\n        /* \"#utility.yul\":9827:9918   */\n      tag_215\n        /* \"#utility.yul\":9876:9917   */\n      tag_216\n        /* \"#utility.yul\":9900:9916   */\n      dup3\n        /* \"#utility.yul\":9876:9917   */\n      tag_101\n      jump\t// in\n    tag_216:\n        /* \"#utility.yul\":9868:9874   */\n      dup5\n        /* \"#utility.yul\":9861:9865   */\n      dup5\n        /* \"#utility.yul\":9855:9866   */\n      sload\n        /* \"#utility.yul\":9827:9918   */\n      tag_98\n      jump\t// in\n    tag_215:\n        /* \"#utility.yul\":9821:9825   */\n      dup3\n        /* \"#utility.yul\":9814:9919   */\n      sstore\n        /* \"#utility.yul\":9732:9925   */\n      pop\n        /* \"#utility.yul\":9656:9925   */\n      pop\n      pop\n      pop\n      jump\t// out\n        /* \"#utility.yul\":9931:10004   */\n    tag_103:\n        /* \"#utility.yul\":9976:9979   */\n      0x00\n        /* \"#utility.yul\":9931:10004   */\n      swap1\n      jump\t// out\n        /* \"#utility.yul\":10010:10199   */\n    tag_104:\n        /* \"#utility.yul\":10087:10119   */\n      tag_219\n      tag_103\n      jump\t// in\n    tag_219:\n        /* \"#utility.yul\":10128:10193   */\n      tag_220\n        /* \"#utility.yul\":10186:10192   */\n      dup2\n        /* \"#utility.yul\":10178:10184   */\n      dup5\n        /* \"#utility.yul\":10172:10176   */\n      dup5\n        /* \"#utility.yul\":10128:10193   */\n      tag_102\n      jump\t// in\n    tag_220:\n        /* \"#utility.yul\":10063:10199   */\n      pop\n        /* \"#utility.yul\":10010:10199   */\n      pop\n      pop\n      jump\t// out\n        /* \"#utility.yul\":10205:10391   */\n    tag_105:\n        /* \"#utility.yul\":10265:10385   */\n    tag_222:\n        /* \"#utility.yul\":10282:10285   */\n      dup2\n        /* \"#utility.yul\":10275:10280   */\n      dup2\n        /* \"#utility.yul\":10272:10286   */\n      lt\n        /* \"#utility.yul\":10265:10385   */\n      iszero\n      tag_224\n      jumpi\n        /* \"#utility.yul\":10336:10375   */\n      tag_225\n        /* \"#utility.yul\":10373:10374   */\n      0x00\n        /* \"#utility.yul\":10366:10371   */\n      dup3\n        /* \"#utility.yul\":10336:10375   */\n      tag_104\n      jump\t// in\n    tag_225:\n        /* \"#utility.yul\":10309:10310   */\n      0x01\n        /* \"#utility.yul\":10302:10307   */\n      dup2\n        /* \"#utility.yul\":10298:10311   */\n      add\n        /* \"#utility.yul\":10289:10311   */\n      swap1\n      pop\n        /* \"#utility.yul\":10265:10385   */\n      jump(tag_222)\n    tag_224:\n        /* \"#utility.yul\":10205:10391   */\n      pop\n      pop\n      jump\t// out\n        /* \"#utility.yul\":10397:10940   */\n    tag_106:\n        /* \"#utility.yul\":10498:10500   */\n      0x1f\n        /* \"#utility.yul\":10493:10496   */\n      dup3\n        /* \"#utility.yul\":10490:10501   */\n      gt\n        /* \"#utility.yul\":10487:10933   */\n      iszero\n      tag_227\n      jumpi\n        /* \"#utility.yul\":10532:10570   */\n      tag_228\n        /* \"#utility.yul\":10564:10569   */\n      dup2\n        /* \"#utility.yul\":10532:10570   */\n      tag_95\n      jump\t// in\n    tag_228:\n        /* \"#utility.yul\":10616:10645   */\n      tag_229\n        /* \"#utility.yul\":10634:10644   */\n      dup5\n        /* \"#utility.yul\":10616:10645   */\n      tag_96\n      jump\t// in\n    tag_229:\n        /* \"#utility.yul\":10606:10614   */\n      dup2\n        /* \"#utility.yul\":10602:10646   */\n      add\n        /* \"#utility.yul\":10799:10801   */\n      0x20\n        /* \"#utility.yul\":10787:10797   */\n      dup6\n        /* \"#utility.yul\":10784:10802   */\n      lt\n        /* \"#utility.yul\":10781:10830   */\n      iszero\n      tag_230\n      jumpi\n        /* \"#utility.yul\":10820:10828   */\n      dup2\n        /* \"#utility.yul\":10805:10828   */\n      swap1\n      pop\n        /* \"#utility.yul\":10781:10830   */\n    tag_230:\n        /* \"#utility.yul\":10843:10923   */\n      tag_231\n        /* \"#utility.yul\":10899:10921   */\n      tag_232\n        /* \"#utility.yul\":10917:10920   */\n      dup6\n        /* \"#utility.yul\":10899:10921   */\n      tag_96\n      jump\t// in\n    tag_232:\n        /* \"#utility.yul\":10889:10897   */\n      dup4\n        /* \"#utility.yul\":10885:10922   */\n      add\n        /* \"#utility.yul\":10872:10883   */\n      dup3\n        /* \"#utility.yul\":10843:10923   */\n      tag_105\n      jump\t// in\n    tag_231:\n        /* \"#utility.yul\":10502:10933   */\n      pop\n      pop\n        /* \"#utility.yul\":10487:10933   */\n    tag_227:\n        /* \"#utility.yul\":10397:10940   */\n      pop\n      pop\n      pop\n      jump\t// out\n        /* \"#utility.yul\":10946:11063   */\n    tag_107:\n        /* \"#utility.yul\":11000:11008   */\n      0x00\n        /* \"#utility.yul\":11050:11055   */\n      dup3\n        /* \"#utility.yul\":11044:11048   */\n      dup3\n        /* \"#utility.yul\":11040:11056   */\n      shr\n        /* \"#utility.yul\":11019:11056   */\n      swap1\n      pop\n        /* \"#utility.yul\":10946:11063   */\n      swap3\n      swap2\n      pop\n      pop\n      jump\t// out\n        /* \"#utility.yul\":11069:11238   */\n    tag_108:\n        /* \"#utility.yul\":11113:11119   */\n      0x00\n        /* \"#utility.yul\":11146:11197   */\n      tag_235\n        /* \"#utility.yul\":11194:11195   */\n      0x00\n        /* \"#utility.yul\":11190:11196   */\n      not\n        /* \"#utility.yul\":11182:11187   */\n      dup5\n        /* \"#utility.yul\":11179:11180   */\n      0x08\n        /* \"#utility.yul\":11175:11188   */\n      mul\n        /* \"#utility.yul\":11146:11197   */\n      tag_107\n      jump\t// in\n    tag_235:\n        /* \"#utility.yul\":11142:11198   */\n      not\n        /* \"#utility.yul\":11227:11231   */\n      dup1\n        /* \"#utility.yul\":11221:11225   */\n      dup4\n        /* \"#utility.yul\":11217:11232   */\n      and\n        /* \"#utility.yul\":11207:11232   */\n      swap2\n      pop\n        /* \"#utility.yul\":11120:11238   */\n      pop\n        /* \"#utility.yul\":11069:11238   */\n      swap3\n      swap2\n      pop\n      pop\n      jump\t// out\n        /* \"#utility.yul\":11243:11538   */\n    tag_109:\n        /* \"#utility.yul\":11319:11323   */\n      0x00\n        /* \"#utility.yul\":11465:11494   */\n      tag_237\n        /* \"#utility.yul\":11490:11493   */\n      dup4\n        /* \"#utility.yul\":11484:11488   */\n      dup4\n        /* \"#utility.yul\":11465:11494   */\n      tag_108\n      jump\t// in\n    tag_237:\n        /* \"#utility.yul\":11457:11494   */\n      swap2\n      pop\n        /* \"#utility.yul\":11527:11530   */\n      dup3\n        /* \"#utility.yul\":11524:11525   */\n      0x02\n        /* \"#utility.yul\":11520:11531   */\n      mul\n        /* \"#utility.yul\":11514:11518   */\n      dup3\n        /* \"#utility.yul\":11511:11532   */\n      or\n        /* \"#utility.yul\":11503:11532   */\n      swap1\n      pop\n        /* \"#utility.yul\":11243:11538   */\n      swap3\n      swap2\n      pop\n      pop\n      jump\t// out\n        /* \"#utility.yul\":11543:12938   */\n    tag_47:\n        /* \"#utility.yul\":11660:11697   */\n      tag_239\n        /* \"#utility.yul\":11693:11696   */\n      dup3\n        /* \"#utility.yul\":11660:11697   */\n      tag_76\n      jump\t// in\n    tag_239:\n        /* \"#utility.yul\":11762:11780   */\n      0xffffffffffffffff\n        /* \"#utility.yul\":11754:11760   */\n      dup2\n        /* \"#utility.yul\":11751:11781   */\n      gt\n        /* \"#utility.yul\":11748:11804   */\n      iszero\n      tag_240\n      jumpi\n        /* \"#utility.yul\":11784:11802   */\n      tag_241\n      tag_85\n      jump\t// in\n    tag_241:\n        /* \"#utility.yul\":11748:11804   */\n    tag_240:\n        /* \"#utility.yul\":11828:11866   */\n      tag_242\n        /* \"#utility.yul\":11860:11864   */\n      dup3\n        /* \"#utility.yul\":11854:11865   */\n      sload\n        /* \"#utility.yul\":11828:11866   */\n      tag_29\n      jump\t// in\n    tag_242:\n        /* \"#utility.yul\":11913:11980   */\n      tag_243\n        /* \"#utility.yul\":11973:11979   */\n      dup3\n        /* \"#utility.yul\":11965:11971   */\n      dup3\n        /* \"#utility.yul\":11959:11963   */\n      dup6\n        /* \"#utility.yul\":11913:11980   */\n      tag_106\n      jump\t// in\n    tag_243:\n        /* \"#utility.yul\":12007:12008   */\n      0x00\n        /* \"#utility.yul\":12031:12035   */\n      0x20\n        /* \"#utility.yul\":12018:12035   */\n      swap1\n      pop\n        /* \"#utility.yul\":12063:12065   */\n      0x1f\n        /* \"#utility.yul\":12055:12061   */\n      dup4\n        /* \"#utility.yul\":12052:12066   */\n      gt\n        /* \"#utility.yul\":12080:12081   */\n      0x01\n        /* \"#utility.yul\":12075:12693   */\n      dup2\n      eq\n      tag_245\n      jumpi\n        /* \"#utility.yul\":12737:12738   */\n      0x00\n        /* \"#utility.yul\":12754:12760   */\n      dup5\n        /* \"#utility.yul\":12751:12828   */\n      iszero\n      tag_246\n      jumpi\n        /* \"#utility.yul\":12803:12812   */\n      dup3\n        /* \"#utility.yul\":12798:12801   */\n      dup8\n        /* \"#utility.yul\":12794:12813   */\n      add\n        /* \"#utility.yul\":12788:12814   */\n      mload\n        /* \"#utility.yul\":12779:12814   */\n      swap1\n      pop\n        /* \"#utility.yul\":12751:12828   */\n    tag_246:\n        /* \"#utility.yul\":12854:12921   */\n      tag_247\n        /* \"#utility.yul\":12914:12920   */\n      dup6\n        /* \"#utility.yul\":12907:12912   */\n      dup3\n        /* \"#utility.yul\":12854:12921   */\n      tag_109\n      jump\t// in\n    tag_247:\n        /* \"#utility.yul\":12848:12852   */\n      dup7\n        /* \"#utility.yul\":12841:12922   */\n      sstore\n        /* \"#utility.yul\":12710:12932   */\n      pop\n        /* \"#utility.yul\":12045:12932   */\n      jump(tag_244)\n        /* \"#utility.yul\":12075:12693   */\n    tag_245:\n        /* \"#utility.yul\":12127:12131   */\n      0x1f\n        /* \"#utility.yul\":12123:12132   */\n      not\n        /* \"#utility.yul\":12115:12121   */\n      dup5\n        /* \"#utility.yul\":12111:12133   */\n      and\n        /* \"#utility.yul\":12161:12198   */\n      tag_248\n        /* \"#utility.yul\":12193:12197   */\n      dup7\n        /* \"#utility.yul\":12161:12198   */\n      tag_95\n      jump\t// in\n    tag_248:\n        /* \"#utility.yul\":12220:12221   */\n      0x00\n        /* \"#utility.yul\":12234:12442   */\n    tag_249:\n        /* \"#utility.yul\":12248:12255   */\n      dup3\n        /* \"#utility.yul\":12245:12246   */\n      dup2\n        /* \"#utility.yul\":12242:12256   */\n      lt\n        /* \"#utility.yul\":12234:12442   */\n      iszero\n      tag_251\n      jumpi\n        /* \"#utility.yul\":12327:12336   */\n      dup5\n        /* \"#utility.yul\":12322:12325   */\n      dup10\n        /* \"#utility.yul\":12318:12337   */\n      add\n        /* \"#utility.yul\":12312:12338   */\n      mload\n        /* \"#utility.yul\":12304:12310   */\n      dup3\n        /* \"#utility.yul\":12297:12339   */\n      sstore\n        /* \"#utility.yul\":12378:12379   */\n      0x01\n        /* \"#utility.yul\":12370:12376   */\n      dup3\n        /* \"#utility.yul\":12366:12380   */\n      add\n        /* \"#utility.yul\":12356:12380   */\n      swap2\n      pop\n        /* \"#utility.yul\":12425:12427   */\n      0x20\n        /* \"#utility.yul\":12414:12423   */\n      dup6\n        /* \"#utility.yul\":12410:12428   */\n      add\n        /* \"#utility.yul\":12397:12428   */\n      swap5\n      pop\n        /* \"#utility.yul\":12271:12275   */\n      0x20\n        /* \"#utility.yul\":12268:12269   */\n      dup2\n        /* \"#utility.yul\":12264:12276   */\n      add\n        /* \"#utility.yul\":12259:12276   */\n      swap1\n      pop\n        /* \"#utility.yul\":12234:12442   */\n      jump(tag_249)\n    tag_251:\n        /* \"#utility.yul\":12470:12476   */\n      dup7\n        /* \"#utility.yul\":12461:12468   */\n      dup4\n        /* \"#utility.yul\":12458:12477   */\n      lt\n        /* \"#utility.yul\":12455:12634   */\n      iszero\n      tag_252\n      jumpi\n        /* \"#utility.yul\":12528:12537   */\n      dup5\n        /* \"#utility.yul\":12523:12526   */\n      dup10\n        /* \"#utility.yul\":12519:12538   */\n      add\n        /* \"#utility.yul\":12513:12539   */\n      mload\n        /* \"#utility.yul\":12571:12619   */\n      tag_253\n        /* \"#utility.yul\":12613:12617   */\n      0x1f\n        /* \"#utility.yul\":12605:12611   */\n      dup10\n        /* \"#utility.yul\":12601:12618   */\n      and\n        /* \"#utility.yul\":12590:12599   */\n      dup3\n        /* \"#utility.yul\":12571:12619   */\n      tag_108\n      jump\t// in\n    tag_253:\n        /* \"#utility.yul\":12563:12569   */\n      dup4\n        /* \"#utility.yul\":12556:12620   */\n      sstore\n        /* \"#utility.yul\":12478:12634   */\n      pop\n        /* \"#utility.yul\":12455:12634   */\n    tag_252:\n        /* \"#utility.yul\":12680:12681   */\n      0x01\n        /* \"#utility.yul\":12676:12677   */\n      0x02\n        /* \"#utility.yul\":12668:12674   */\n      dup9\n        /* \"#utility.yul\":12664:12678   */\n      mul\n        /* \"#utility.yul\":12660:12682   */\n      add\n        /* \"#utility.yul\":12654:12658   */\n      dup9\n        /* \"#utility.yul\":12647:12683   */\n      sstore\n        /* \"#utility.yul\":12082:12693   */\n      pop\n      pop\n      pop\n        /* \"#utility.yul\":12045:12932   */\n    tag_244:\n      pop\n        /* \"#utility.yul\":11635:12938   */\n      pop\n      pop\n      pop\n        /* \"#utility.yul\":11543:12938   */\n      pop\n      pop\n      jump\t// out\n\n    auxdata: 0xa2646970667358221220d1775afdb5b88d96973e270b045adfa38d4ea01098270a3c76a3bbe8ab97d30864736f6c63430008180033\n}\n",
				"bytecode": {
					"linkReferences": {},
					"object": "608060405234801561000f575f80fd5b50610d198061001d5f395ff3fe608060405234801561000f575f80fd5b506004361061003f575f3560e01c80633206b2c6146100435780638a1b7a6414610076578063e79899bd14610092575b5f80fd5b61005d6004803603810190610058919061062b565b6100c5565b60405161006d949392919061071f565b60405180910390f35b610090600480360381019061008b91906108cd565b610310565b005b6100ac60048036038101906100a7919061062b565b6103fc565b6040516100bc949392919061071f565b60405180910390f35b5f60608060605f805490508510610111576040517f08c379a0000000000000000000000000000000000000000000000000000000008152600401610108906109cf565b60405180910390fd5b5f808681548110610125576101246109ed565b5b905f5260205f2090600402019050805f015f9054906101000a900473ffffffffffffffffffffffffffffffffffffffff1681600101826002018360030182805461016e90610a47565b80601f016020809104026020016040519081016040528092919081815260200182805461019a90610a47565b80156101e55780601f106101bc576101008083540402835291602001916101e5565b820191905f5260205f20905b8154815290600101906020018083116101c857829003601f168201915b505050505092508180546101f890610a47565b80601f016020809104026020016040519081016040528092919081815260200182805461022490610a47565b801561026f5780601f106102465761010080835404028352916020019161026f565b820191905f5260205f20905b81548152906001019060200180831161025257829003601f168201915b5050505050915080805461028290610a47565b80601f01602080910402602001604051908101604052809291908181526020018280546102ae90610a47565b80156102f95780601f106102d0576101008083540402835291602001916102f9565b820191905f5260205f20905b8154815290600101906020018083116102dc57829003601f168201915b505050505090509450945094509450509193509193565b5f60405180608001604052808673ffffffffffffffffffffffffffffffffffffffff16815260200185815260200184815260200183815250908060018154018082558091505060019003905f5260205f2090600402015f909190919091505f820151815f015f6101000a81548173ffffffffffffffffffffffffffffffffffffffff021916908373ffffffffffffffffffffffffffffffffffffffff16021790555060208201518160010190816103c79190610c14565b5060408201518160020190816103dd9190610c14565b5060608201518160030190816103f39190610c14565b50505050505050565b5f818154811061040a575f80fd5b905f5260205f2090600402015f91509050805f015f9054906101000a900473ffffffffffffffffffffffffffffffffffffffff169080600101805461044e90610a47565b80601f016020809104026020016040519081016040528092919081815260200182805461047a90610a47565b80156104c55780601f1061049c576101008083540402835291602001916104c5565b820191905f5260205f20905b8154815290600101906020018083116104a857829003601f168201915b5050505050908060020180546104da90610a47565b80601f016020809104026020016040519081016040528092919081815260200182805461050690610a47565b80156105515780601f1061052857610100808354040283529160200191610551565b820191905f5260205f20905b81548152906001019060200180831161053457829003601f168201915b50505050509080600301805461056690610a47565b80601f016020809104026020016040519081016040528092919081815260200182805461059290610a47565b80156105dd5780601f106105b4576101008083540402835291602001916105dd565b820191905f5260205f20905b8154815290600101906020018083116105c057829003601f168201915b5050505050905084565b5f604051905090565b5f80fd5b5f80fd5b5f819050919050565b61060a816105f8565b8114610614575f80fd5b50565b5f8135905061062581610601565b92915050565b5f602082840312156106405761063f6105f0565b5b5f61064d84828501610617565b91505092915050565b5f73ffffffffffffffffffffffffffffffffffffffff82169050919050565b5f61067f82610656565b9050919050565b61068f81610675565b82525050565b5f81519050919050565b5f82825260208201905092915050565b5f5b838110156106cc5780820151818401526020810190506106b1565b5f8484015250505050565b5f601f19601f8301169050919050565b5f6106f182610695565b6106fb818561069f565b935061070b8185602086016106af565b610714816106d7565b840191505092915050565b5f6080820190506107325f830187610686565b818103602083015261074481866106e7565b9050818103604083015261075881856106e7565b9050818103606083015261076c81846106e7565b905095945050505050565b61078081610675565b811461078a575f80fd5b50565b5f8135905061079b81610777565b92915050565b5f80fd5b5f80fd5b7f4e487b71000000000000000000000000000000000000000000000000000000005f52604160045260245ffd5b6107df826106d7565b810181811067ffffffffffffffff821117156107fe576107fd6107a9565b5b80604052505050565b5f6108106105e7565b905061081c82826107d6565b919050565b5f67ffffffffffffffff82111561083b5761083a6107a9565b5b610844826106d7565b9050602081019050919050565b828183375f83830152505050565b5f61087161086c84610821565b610807565b90508281526020810184848401111561088d5761088c6107a5565b5b610898848285610851565b509392505050565b5f82601f8301126108b4576108b36107a1565b5b81356108c484826020860161085f565b91505092915050565b5f805f80608085870312156108e5576108e46105f0565b5b5f6108f28782880161078d565b945050602085013567ffffffffffffffff811115610913576109126105f4565b5b61091f878288016108a0565b935050604085013567ffffffffffffffff8111156109405761093f6105f4565b5b61094c878288016108a0565b925050606085013567ffffffffffffffff81111561096d5761096c6105f4565b5b610979878288016108a0565b91505092959194509250565b7f496e646578206f7574206f6620626f756e6473000000000000000000000000005f82015250565b5f6109b960138361069f565b91506109c482610985565b602082019050919050565b5f6020820190508181035f8301526109e6816109ad565b9050919050565b7f4e487b71000000000000000000000000000000000000000000000000000000005f52603260045260245ffd5b7f4e487b71000000000000000000000000000000000000000000000000000000005f52602260045260245ffd5b5f6002820490506001821680610a5e57607f821691505b602082108103610a7157610a70610a1a565b5b50919050565b5f819050815f5260205f209050919050565b5f6020601f8301049050919050565b5f82821b905092915050565b5f60088302610ad37fffffffffffffffffffffffffffffffffffffffffffffffffffffffffffffffff82610a98565b610add8683610a98565b95508019841693508086168417925050509392505050565b5f819050919050565b5f610b18610b13610b0e846105f8565b610af5565b6105f8565b9050919050565b5f819050919050565b610b3183610afe565b610b45610b3d82610b1f565b848454610aa4565b825550505050565b5f90565b610b59610b4d565b610b64818484610b28565b505050565b5b81811015610b8757610b7c5f82610b51565b600181019050610b6a565b5050565b601f821115610bcc57610b9d81610a77565b610ba684610a89565b81016020851015610bb5578190505b610bc9610bc185610a89565b830182610b69565b50505b505050565b5f82821c905092915050565b5f610bec5f1984600802610bd1565b1980831691505092915050565b5f610c048383610bdd565b9150826002028217905092915050565b610c1d82610695565b67ffffffffffffffff811115610c3657610c356107a9565b5b610c408254610a47565b610c4b828285610b8b565b5f60209050601f831160018114610c7c575f8415610c6a578287015190505b610c748582610bf9565b865550610cdb565b601f198416610c8a86610a77565b5f5b82811015610cb157848901518255600182019150602085019450602081019050610c8c565b86831015610cce5784890151610cca601f891682610bdd565b8355505b6001600288020188555050505b50505050505056fea2646970667358221220d1775afdb5b88d96973e270b045adfa38d4ea01098270a3c76a3bbe8ab97d30864736f6c63430008180033",
					"opcodes": "PUSH1 0x80 PUSH1 0x40 MSTORE CALLVALUE DUP1 ISZERO PUSH2 0xF JUMPI PUSH0 DUP1 REVERT JUMPDEST POP PUSH2 0xD19 DUP1 PUSH2 0x1D PUSH0 CODECOPY PUSH0 RETURN INVALID PUSH1 0x80 PUSH1 0x40 MSTORE CALLVALUE DUP1 ISZERO PUSH2 0xF JUMPI PUSH0 DUP1 REVERT JUMPDEST POP PUSH1 0x4 CALLDATASIZE LT PUSH2 0x3F JUMPI PUSH0 CALLDATALOAD PUSH1 0xE0 SHR DUP1 PUSH4 0x3206B2C6 EQ PUSH2 0x43 JUMPI DUP1 PUSH4 0x8A1B7A64 EQ PUSH2 0x76 JUMPI DUP1 PUSH4 0xE79899BD EQ PUSH2 0x92 JUMPI JUMPDEST PUSH0 DUP1 REVERT JUMPDEST PUSH2 0x5D PUSH1 0x4 DUP1 CALLDATASIZE SUB DUP2 ADD SWAP1 PUSH2 0x58 SWAP2 SWAP1 PUSH2 0x62B JUMP JUMPDEST PUSH2 0xC5 JUMP JUMPDEST PUSH1 0x40 MLOAD PUSH2 0x6D SWAP5 SWAP4 SWAP3 SWAP2 SWAP1 PUSH2 0x71F JUMP JUMPDEST PUSH1 0x40 MLOAD DUP1 SWAP2 SUB SWAP1 RETURN JUMPDEST PUSH2 0x90 PUSH1 0x4 DUP1 CALLDATASIZE SUB DUP2 ADD SWAP1 PUSH2 0x8B SWAP2 SWAP1 PUSH2 0x8CD JUMP JUMPDEST PUSH2 0x310 JUMP JUMPDEST STOP JUMPDEST PUSH2 0xAC PUSH1 0x4 DUP1 CALLDATASIZE SUB DUP2 ADD SWAP1 PUSH2 0xA7 SWAP2 SWAP1 PUSH2 0x62B JUMP JUMPDEST PUSH2 0x3FC JUMP JUMPDEST PUSH1 0x40 MLOAD PUSH2 0xBC SWAP5 SWAP4 SWAP3 SWAP2 SWAP1 PUSH2 0x71F JUMP JUMPDEST PUSH1 0x40 MLOAD DUP1 SWAP2 SUB SWAP1 RETURN JUMPDEST PUSH0 PUSH1 0x60 DUP1 PUSH1 0x60 PUSH0 DUP1 SLOAD SWAP1 POP DUP6 LT PUSH2 0x111 JUMPI PUSH1 0x40 MLOAD PUSH32 0x8C379A000000000000000000000000000000000000000000000000000000000 DUP2 MSTORE PUSH1 0x4 ADD PUSH2 0x108 SWAP1 PUSH2 0x9CF JUMP JUMPDEST PUSH1 0x40 MLOAD DUP1 SWAP2 SUB SWAP1 REVERT JUMPDEST PUSH0 DUP1 DUP7 DUP2 SLOAD DUP2 LT PUSH2 0x125 JUMPI PUSH2 0x124 PUSH2 0x9ED JUMP JUMPDEST JUMPDEST SWAP1 PUSH0 MSTORE PUSH1 0x20 PUSH0 KECCAK256 SWAP1 PUSH1 0x4 MUL ADD SWAP1 POP DUP1 PUSH0 ADD PUSH0 SWAP1 SLOAD SWAP1 PUSH2 0x100 EXP SWAP1 DIV PUSH20 0xFFFFFFFFFFFFFFFFFFFFFFFFFFFFFFFFFFFFFFFF AND DUP2 PUSH1 0x1 ADD DUP3 PUSH1 0x2 ADD DUP4 PUSH1 0x3 ADD DUP3 DUP1 SLOAD PUSH2 0x16E SWAP1 PUSH2 0xA47 JUMP JUMPDEST DUP1 PUSH1 0x1F ADD PUSH1 0x20 DUP1 SWAP2 DIV MUL PUSH1 0x20 ADD PUSH1 0x40 MLOAD SWAP1 DUP2 ADD PUSH1 0x40 MSTORE DUP1 SWAP3 SWAP2 SWAP1 DUP2 DUP2 MSTORE PUSH1 0x20 ADD DUP3 DUP1 SLOAD PUSH2 0x19A SWAP1 PUSH2 0xA47 JUMP JUMPDEST DUP1 ISZERO PUSH2 0x1E5 JUMPI DUP1 PUSH1 0x1F LT PUSH2 0x1BC JUMPI PUSH2 0x100 DUP1 DUP4 SLOAD DIV MUL DUP4 MSTORE SWAP2 PUSH1 0x20 ADD SWAP2 PUSH2 0x1E5 JUMP JUMPDEST DUP3 ADD SWAP2 SWAP1 PUSH0 MSTORE PUSH1 0x20 PUSH0 KECCAK256 SWAP1 JUMPDEST DUP2 SLOAD DUP2 MSTORE SWAP1 PUSH1 0x1 ADD SWAP1 PUSH1 0x20 ADD DUP1 DUP4 GT PUSH2 0x1C8 JUMPI DUP3 SWAP1 SUB PUSH1 0x1F AND DUP3 ADD SWAP2 JUMPDEST POP POP POP POP POP SWAP3 POP DUP2 DUP1 SLOAD PUSH2 0x1F8 SWAP1 PUSH2 0xA47 JUMP JUMPDEST DUP1 PUSH1 0x1F ADD PUSH1 0x20 DUP1 SWAP2 DIV MUL PUSH1 0x20 ADD PUSH1 0x40 MLOAD SWAP1 DUP2 ADD PUSH1 0x40 MSTORE DUP1 SWAP3 SWAP2 SWAP1 DUP2 DUP2 MSTORE PUSH1 0x20 ADD DUP3 DUP1 SLOAD PUSH2 0x224 SWAP1 PUSH2 0xA47 JUMP JUMPDEST DUP1 ISZERO PUSH2 0x26F JUMPI DUP1 PUSH1 0x1F LT PUSH2 0x246 JUMPI PUSH2 0x100 DUP1 DUP4 SLOAD DIV MUL DUP4 MSTORE SWAP2 PUSH1 0x20 ADD SWAP2 PUSH2 0x26F JUMP JUMPDEST DUP3 ADD SWAP2 SWAP1 PUSH0 MSTORE PUSH1 0x20 PUSH0 KECCAK256 SWAP1 JUMPDEST DUP2 SLOAD DUP2 MSTORE SWAP1 PUSH1 0x1 ADD SWAP1 PUSH1 0x20 ADD DUP1 DUP4 GT PUSH2 0x252 JUMPI DUP3 SWAP1 SUB PUSH1 0x1F AND DUP3 ADD SWAP2 JUMPDEST POP POP POP POP POP SWAP2 POP DUP1 DUP1 SLOAD PUSH2 0x282 SWAP1 PUSH2 0xA47 JUMP JUMPDEST DUP1 PUSH1 0x1F ADD PUSH1 0x20 DUP1 SWAP2 DIV MUL PUSH1 0x20 ADD PUSH1 0x40 MLOAD SWAP1 DUP2 ADD PUSH1 0x40 MSTORE DUP1 SWAP3 SWAP2 SWAP1 DUP2 DUP2 MSTORE PUSH1 0x20 ADD DUP3 DUP1 SLOAD PUSH2 0x2AE SWAP1 PUSH2 0xA47 JUMP JUMPDEST DUP1 ISZERO PUSH2 0x2F9 JUMPI DUP1 PUSH1 0x1F LT PUSH2 0x2D0 JUMPI PUSH2 0x100 DUP1 DUP4 SLOAD DIV MUL DUP4 MSTORE SWAP2 PUSH1 0x20 ADD SWAP2 PUSH2 0x2F9 JUMP JUMPDEST DUP3 ADD SWAP2 SWAP1 PUSH0 MSTORE PUSH1 0x20 PUSH0 KECCAK256 SWAP1 JUMPDEST DUP2 SLOAD DUP2 MSTORE SWAP1 PUSH1 0x1 ADD SWAP1 PUSH1 0x20 ADD DUP1 DUP4 GT PUSH2 0x2DC JUMPI DUP3 SWAP1 SUB PUSH1 0x1F AND DUP3 ADD SWAP2 JUMPDEST POP POP POP POP POP SWAP1 POP SWAP5 POP SWAP5 POP SWAP5 POP SWAP5 POP POP SWAP2 SWAP4 POP SWAP2 SWAP4 JUMP JUMPDEST PUSH0 PUSH1 0x40 MLOAD DUP1 PUSH1 0x80 ADD PUSH1 0x40 MSTORE DUP1 DUP7 PUSH20 0xFFFFFFFFFFFFFFFFFFFFFFFFFFFFFFFFFFFFFFFF AND DUP2 MSTORE PUSH1 0x20 ADD DUP6 DUP2 MSTORE PUSH1 0x20 ADD DUP5 DUP2 MSTORE PUSH1 0x20 ADD DUP4 DUP2 MSTORE POP SWAP1 DUP1 PUSH1 0x1 DUP2 SLOAD ADD DUP1 DUP3 SSTORE DUP1 SWAP2 POP POP PUSH1 0x1 SWAP1 SUB SWAP1 PUSH0 MSTORE PUSH1 0x20 PUSH0 KECCAK256 SWAP1 PUSH1 0x4 MUL ADD PUSH0 SWAP1 SWAP2 SWAP1 SWAP2 SWAP1 SWAP2 POP PUSH0 DUP3 ADD MLOAD DUP2 PUSH0 ADD PUSH0 PUSH2 0x100 EXP DUP2 SLOAD DUP2 PUSH20 0xFFFFFFFFFFFFFFFFFFFFFFFFFFFFFFFFFFFFFFFF MUL NOT AND SWAP1 DUP4 PUSH20 0xFFFFFFFFFFFFFFFFFFFFFFFFFFFFFFFFFFFFFFFF AND MUL OR SWAP1 SSTORE POP PUSH1 0x20 DUP3 ADD MLOAD DUP2 PUSH1 0x1 ADD SWAP1 DUP2 PUSH2 0x3C7 SWAP2 SWAP1 PUSH2 0xC14 JUMP JUMPDEST POP PUSH1 0x40 DUP3 ADD MLOAD DUP2 PUSH1 0x2 ADD SWAP1 DUP2 PUSH2 0x3DD SWAP2 SWAP1 PUSH2 0xC14 JUMP JUMPDEST POP PUSH1 0x60 DUP3 ADD MLOAD DUP2 PUSH1 0x3 ADD SWAP1 DUP2 PUSH2 0x3F3 SWAP2 SWAP1 PUSH2 0xC14 JUMP JUMPDEST POP POP POP POP POP POP POP JUMP JUMPDEST PUSH0 DUP2 DUP2 SLOAD DUP2 LT PUSH2 0x40A JUMPI PUSH0 DUP1 REVERT JUMPDEST SWAP1 PUSH0 MSTORE PUSH1 0x20 PUSH0 KECCAK256 SWAP1 PUSH1 0x4 MUL ADD PUSH0 SWAP2 POP SWAP1 POP DUP1 PUSH0 ADD PUSH0 SWAP1 SLOAD SWAP1 PUSH2 0x100 EXP SWAP1 DIV PUSH20 0xFFFFFFFFFFFFFFFFFFFFFFFFFFFFFFFFFFFFFFFF AND SWAP1 DUP1 PUSH1 0x1 ADD DUP1 SLOAD PUSH2 0x44E SWAP1 PUSH2 0xA47 JUMP JUMPDEST DUP1 PUSH1 0x1F ADD PUSH1 0x20 DUP1 SWAP2 DIV MUL PUSH1 0x20 ADD PUSH1 0x40 MLOAD SWAP1 DUP2 ADD PUSH1 0x40 MSTORE DUP1 SWAP3 SWAP2 SWAP1 DUP2 DUP2 MSTORE PUSH1 0x20 ADD DUP3 DUP1 SLOAD PUSH2 0x47A SWAP1 PUSH2 0xA47 JUMP JUMPDEST DUP1 ISZERO PUSH2 0x4C5 JUMPI DUP1 PUSH1 0x1F LT PUSH2 0x49C JUMPI PUSH2 0x100 DUP1 DUP4 SLOAD DIV MUL DUP4 MSTORE SWAP2 PUSH1 0x20 ADD SWAP2 PUSH2 0x4C5 JUMP JUMPDEST DUP3 ADD SWAP2 SWAP1 PUSH0 MSTORE PUSH1 0x20 PUSH0 KECCAK256 SWAP1 JUMPDEST DUP2 SLOAD DUP2 MSTORE SWAP1 PUSH1 0x1 ADD SWAP1 PUSH1 0x20 ADD DUP1 DUP4 GT PUSH2 0x4A8 JUMPI DUP3 SWAP1 SUB PUSH1 0x1F AND DUP3 ADD SWAP2 JUMPDEST POP POP POP POP POP SWAP1 DUP1 PUSH1 0x2 ADD DUP1 SLOAD PUSH2 0x4DA SWAP1 PUSH2 0xA47 JUMP JUMPDEST DUP1 PUSH1 0x1F ADD PUSH1 0x20 DUP1 SWAP2 DIV MUL PUSH1 0x20 ADD PUSH1 0x40 MLOAD SWAP1 DUP2 ADD PUSH1 0x40 MSTORE DUP1 SWAP3 SWAP2 SWAP1 DUP2 DUP2 MSTORE PUSH1 0x20 ADD DUP3 DUP1 SLOAD PUSH2 0x506 SWAP1 PUSH2 0xA47 JUMP JUMPDEST DUP1 ISZERO PUSH2 0x551 JUMPI DUP1 PUSH1 0x1F LT PUSH2 0x528 JUMPI PUSH2 0x100 DUP1 DUP4 SLOAD DIV MUL DUP4 MSTORE SWAP2 PUSH1 0x20 ADD SWAP2 PUSH2 0x551 JUMP JUMPDEST DUP3 ADD SWAP2 SWAP1 PUSH0 MSTORE PUSH1 0x20 PUSH0 KECCAK256 SWAP1 JUMPDEST DUP2 SLOAD DUP2 MSTORE SWAP1 PUSH1 0x1 ADD SWAP1 PUSH1 0x20 ADD DUP1 DUP4 GT PUSH2 0x534 JUMPI DUP3 SWAP1 SUB PUSH1 0x1F AND DUP3 ADD SWAP2 JUMPDEST POP POP POP POP POP SWAP1 DUP1 PUSH1 0x3 ADD DUP1 SLOAD PUSH2 0x566 SWAP1 PUSH2 0xA47 JUMP JUMPDEST DUP1 PUSH1 0x1F ADD PUSH1 0x20 DUP1 SWAP2 DIV MUL PUSH1 0x20 ADD PUSH1 0x40 MLOAD SWAP1 DUP2 ADD PUSH1 0x40 MSTORE DUP1 SWAP3 SWAP2 SWAP1 DUP2 DUP2 MSTORE PUSH1 0x20 ADD DUP3 DUP1 SLOAD PUSH2 0x592 SWAP1 PUSH2 0xA47 JUMP JUMPDEST DUP1 ISZERO PUSH2 0x5DD JUMPI DUP1 PUSH1 0x1F LT PUSH2 0x5B4 JUMPI PUSH2 0x100 DUP1 DUP4 SLOAD DIV MUL DUP4 MSTORE SWAP2 PUSH1 0x20 ADD SWAP2 PUSH2 0x5DD JUMP JUMPDEST DUP3 ADD SWAP2 SWAP1 PUSH0 MSTORE PUSH1 0x20 PUSH0 KECCAK256 SWAP1 JUMPDEST DUP2 SLOAD DUP2 MSTORE SWAP1 PUSH1 0x1 ADD SWAP1 PUSH1 0x20 ADD DUP1 DUP4 GT PUSH2 0x5C0 JUMPI DUP3 SWAP1 SUB PUSH1 0x1F AND DUP3 ADD SWAP2 JUMPDEST POP POP POP POP POP SWAP1 POP DUP5 JUMP JUMPDEST PUSH0 PUSH1 0x40 MLOAD SWAP1 POP SWAP1 JUMP JUMPDEST PUSH0 DUP1 REVERT JUMPDEST PUSH0 DUP1 REVERT JUMPDEST PUSH0 DUP2 SWAP1 POP SWAP2 SWAP1 POP JUMP JUMPDEST PUSH2 0x60A DUP2 PUSH2 0x5F8 JUMP JUMPDEST DUP2 EQ PUSH2 0x614 JUMPI PUSH0 DUP1 REVERT JUMPDEST POP JUMP JUMPDEST PUSH0 DUP2 CALLDATALOAD SWAP1 POP PUSH2 0x625 DUP2 PUSH2 0x601 JUMP JUMPDEST SWAP3 SWAP2 POP POP JUMP JUMPDEST PUSH0 PUSH1 0x20 DUP3 DUP5 SUB SLT ISZERO PUSH2 0x640 JUMPI PUSH2 0x63F PUSH2 0x5F0 JUMP JUMPDEST JUMPDEST PUSH0 PUSH2 0x64D DUP5 DUP3 DUP6 ADD PUSH2 0x617 JUMP JUMPDEST SWAP2 POP POP SWAP3 SWAP2 POP POP JUMP JUMPDEST PUSH0 PUSH20 0xFFFFFFFFFFFFFFFFFFFFFFFFFFFFFFFFFFFFFFFF DUP3 AND SWAP1 POP SWAP2 SWAP1 POP JUMP JUMPDEST PUSH0 PUSH2 0x67F DUP3 PUSH2 0x656 JUMP JUMPDEST SWAP1 POP SWAP2 SWAP1 POP JUMP JUMPDEST PUSH2 0x68F DUP2 PUSH2 0x675 JUMP JUMPDEST DUP3 MSTORE POP POP JUMP JUMPDEST PUSH0 DUP2 MLOAD SWAP1 POP SWAP2 SWAP1 POP JUMP JUMPDEST PUSH0 DUP3 DUP3 MSTORE PUSH1 0x20 DUP3 ADD SWAP1 POP SWAP3 SWAP2 POP POP JUMP JUMPDEST PUSH0 JUMPDEST DUP4 DUP2 LT ISZERO PUSH2 0x6CC JUMPI DUP1 DUP3 ADD MLOAD DUP2 DUP5 ADD MSTORE PUSH1 0x20 DUP2 ADD SWAP1 POP PUSH2 0x6B1 JUMP JUMPDEST PUSH0 DUP5 DUP5 ADD MSTORE POP POP POP POP JUMP JUMPDEST PUSH0 PUSH1 0x1F NOT PUSH1 0x1F DUP4 ADD AND SWAP1 POP SWAP2 SWAP1 POP JUMP JUMPDEST PUSH0 PUSH2 0x6F1 DUP3 PUSH2 0x695 JUMP JUMPDEST PUSH2 0x6FB DUP2 DUP6 PUSH2 0x69F JUMP JUMPDEST SWAP4 POP PUSH2 0x70B DUP2 DUP6 PUSH1 0x20 DUP7 ADD PUSH2 0x6AF JUMP JUMPDEST PUSH2 0x714 DUP2 PUSH2 0x6D7 JUMP JUMPDEST DUP5 ADD SWAP2 POP POP SWAP3 SWAP2 POP POP JUMP JUMPDEST PUSH0 PUSH1 0x80 DUP3 ADD SWAP1 POP PUSH2 0x732 PUSH0 DUP4 ADD DUP8 PUSH2 0x686 JUMP JUMPDEST DUP2 DUP2 SUB PUSH1 0x20 DUP4 ADD MSTORE PUSH2 0x744 DUP2 DUP7 PUSH2 0x6E7 JUMP JUMPDEST SWAP1 POP DUP2 DUP2 SUB PUSH1 0x40 DUP4 ADD MSTORE PUSH2 0x758 DUP2 DUP6 PUSH2 0x6E7 JUMP JUMPDEST SWAP1 POP DUP2 DUP2 SUB PUSH1 0x60 DUP4 ADD MSTORE PUSH2 0x76C DUP2 DUP5 PUSH2 0x6E7 JUMP JUMPDEST SWAP1 POP SWAP6 SWAP5 POP POP POP POP POP JUMP JUMPDEST PUSH2 0x780 DUP2 PUSH2 0x675 JUMP JUMPDEST DUP2 EQ PUSH2 0x78A JUMPI PUSH0 DUP1 REVERT JUMPDEST POP JUMP JUMPDEST PUSH0 DUP2 CALLDATALOAD SWAP1 POP PUSH2 0x79B DUP2 PUSH2 0x777 JUMP JUMPDEST SWAP3 SWAP2 POP POP JUMP JUMPDEST PUSH0 DUP1 REVERT JUMPDEST PUSH0 DUP1 REVERT JUMPDEST PUSH32 0x4E487B7100000000000000000000000000000000000000000000000000000000 PUSH0 MSTORE PUSH1 0x41 PUSH1 0x4 MSTORE PUSH1 0x24 PUSH0 REVERT JUMPDEST PUSH2 0x7DF DUP3 PUSH2 0x6D7 JUMP JUMPDEST DUP2 ADD DUP2 DUP2 LT PUSH8 0xFFFFFFFFFFFFFFFF DUP3 GT OR ISZERO PUSH2 0x7FE JUMPI PUSH2 0x7FD PUSH2 0x7A9 JUMP JUMPDEST JUMPDEST DUP1 PUSH1 0x40 MSTORE POP POP POP JUMP JUMPDEST PUSH0 PUSH2 0x810 PUSH2 0x5E7 JUMP JUMPDEST SWAP1 POP PUSH2 0x81C DUP3 DUP3 PUSH2 0x7D6 JUMP JUMPDEST SWAP2 SWAP1 POP JUMP JUMPDEST PUSH0 PUSH8 0xFFFFFFFFFFFFFFFF DUP3 GT ISZERO PUSH2 0x83B JUMPI PUSH2 0x83A PUSH2 0x7A9 JUMP JUMPDEST JUMPDEST PUSH2 0x844 DUP3 PUSH2 0x6D7 JUMP JUMPDEST SWAP1 POP PUSH1 0x20 DUP2 ADD SWAP1 POP SWAP2 SWAP1 POP JUMP JUMPDEST DUP3 DUP2 DUP4 CALLDATACOPY PUSH0 DUP4 DUP4 ADD MSTORE POP POP POP JUMP JUMPDEST PUSH0 PUSH2 0x871 PUSH2 0x86C DUP5 PUSH2 0x821 JUMP JUMPDEST PUSH2 0x807 JUMP JUMPDEST SWAP1 POP DUP3 DUP2 MSTORE PUSH1 0x20 DUP2 ADD DUP5 DUP5 DUP5 ADD GT ISZERO PUSH2 0x88D JUMPI PUSH2 0x88C PUSH2 0x7A5 JUMP JUMPDEST JUMPDEST PUSH2 0x898 DUP5 DUP3 DUP6 PUSH2 0x851 JUMP JUMPDEST POP SWAP4 SWAP3 POP POP POP JUMP JUMPDEST PUSH0 DUP3 PUSH1 0x1F DUP4 ADD SLT PUSH2 0x8B4 JUMPI PUSH2 0x8B3 PUSH2 0x7A1 JUMP JUMPDEST JUMPDEST DUP2 CALLDATALOAD PUSH2 0x8C4 DUP5 DUP3 PUSH1 0x20 DUP7 ADD PUSH2 0x85F JUMP JUMPDEST SWAP2 POP POP SWAP3 SWAP2 POP POP JUMP JUMPDEST PUSH0 DUP1 PUSH0 DUP1 PUSH1 0x80 DUP6 DUP8 SUB SLT ISZERO PUSH2 0x8E5 JUMPI PUSH2 0x8E4 PUSH2 0x5F0 JUMP JUMPDEST JUMPDEST PUSH0 PUSH2 0x8F2 DUP8 DUP3 DUP9 ADD PUSH2 0x78D JUMP JUMPDEST SWAP5 POP POP PUSH1 0x20 DUP6 ADD CALLDATALOAD PUSH8 0xFFFFFFFFFFFFFFFF DUP2 GT ISZERO PUSH2 0x913 JUMPI PUSH2 0x912 PUSH2 0x5F4 JUMP JUMPDEST JUMPDEST PUSH2 0x91F DUP8 DUP3 DUP9 ADD PUSH2 0x8A0 JUMP JUMPDEST SWAP4 POP POP PUSH1 0x40 DUP6 ADD CALLDATALOAD PUSH8 0xFFFFFFFFFFFFFFFF DUP2 GT ISZERO PUSH2 0x940 JUMPI PUSH2 0x93F PUSH2 0x5F4 JUMP JUMPDEST JUMPDEST PUSH2 0x94C DUP8 DUP3 DUP9 ADD PUSH2 0x8A0 JUMP JUMPDEST SWAP3 POP POP PUSH1 0x60 DUP6 ADD CALLDATALOAD PUSH8 0xFFFFFFFFFFFFFFFF DUP2 GT ISZERO PUSH2 0x96D JUMPI PUSH2 0x96C PUSH2 0x5F4 JUMP JUMPDEST JUMPDEST PUSH2 0x979 DUP8 DUP3 DUP9 ADD PUSH2 0x8A0 JUMP JUMPDEST SWAP2 POP POP SWAP3 SWAP6 SWAP2 SWAP5 POP SWAP3 POP JUMP JUMPDEST PUSH32 0x496E646578206F7574206F6620626F756E647300000000000000000000000000 PUSH0 DUP3 ADD MSTORE POP JUMP JUMPDEST PUSH0 PUSH2 0x9B9 PUSH1 0x13 DUP4 PUSH2 0x69F JUMP JUMPDEST SWAP2 POP PUSH2 0x9C4 DUP3 PUSH2 0x985 JUMP JUMPDEST PUSH1 0x20 DUP3 ADD SWAP1 POP SWAP2 SWAP1 POP JUMP JUMPDEST PUSH0 PUSH1 0x20 DUP3 ADD SWAP1 POP DUP2 DUP2 SUB PUSH0 DUP4 ADD MSTORE PUSH2 0x9E6 DUP2 PUSH2 0x9AD JUMP JUMPDEST SWAP1 POP SWAP2 SWAP1 POP JUMP JUMPDEST PUSH32 0x4E487B7100000000000000000000000000000000000000000000000000000000 PUSH0 MSTORE PUSH1 0x32 PUSH1 0x4 MSTORE PUSH1 0x24 PUSH0 REVERT JUMPDEST PUSH32 0x4E487B7100000000000000000000000000000000000000000000000000000000 PUSH0 MSTORE PUSH1 0x22 PUSH1 0x4 MSTORE PUSH1 0x24 PUSH0 REVERT JUMPDEST PUSH0 PUSH1 0x2 DUP3 DIV SWAP1 POP PUSH1 0x1 DUP3 AND DUP1 PUSH2 0xA5E JUMPI PUSH1 0x7F DUP3 AND SWAP2 POP JUMPDEST PUSH1 0x20 DUP3 LT DUP2 SUB PUSH2 0xA71 JUMPI PUSH2 0xA70 PUSH2 0xA1A JUMP JUMPDEST JUMPDEST POP SWAP2 SWAP1 POP JUMP JUMPDEST PUSH0 DUP2 SWAP1 POP DUP2 PUSH0 MSTORE PUSH1 0x20 PUSH0 KECCAK256 SWAP1 POP SWAP2 SWAP1 POP JUMP JUMPDEST PUSH0 PUSH1 0x20 PUSH1 0x1F DUP4 ADD DIV SWAP1 POP SWAP2 SWAP1 POP JUMP JUMPDEST PUSH0 DUP3 DUP3 SHL SWAP1 POP SWAP3 SWAP2 POP POP JUMP JUMPDEST PUSH0 PUSH1 0x8 DUP4 MUL PUSH2 0xAD3 PUSH32 0xFFFFFFFFFFFFFFFFFFFFFFFFFFFFFFFFFFFFFFFFFFFFFFFFFFFFFFFFFFFFFFFF DUP3 PUSH2 0xA98 JUMP JUMPDEST PUSH2 0xADD DUP7 DUP4 PUSH2 0xA98 JUMP JUMPDEST SWAP6 POP DUP1 NOT DUP5 AND SWAP4 POP DUP1 DUP7 AND DUP5 OR SWAP3 POP POP POP SWAP4 SWAP3 POP POP POP JUMP JUMPDEST PUSH0 DUP2 SWAP1 POP SWAP2 SWAP1 POP JUMP JUMPDEST PUSH0 PUSH2 0xB18 PUSH2 0xB13 PUSH2 0xB0E DUP5 PUSH2 0x5F8 JUMP JUMPDEST PUSH2 0xAF5 JUMP JUMPDEST PUSH2 0x5F8 JUMP JUMPDEST SWAP1 POP SWAP2 SWAP1 POP JUMP JUMPDEST PUSH0 DUP2 SWAP1 POP SWAP2 SWAP1 POP JUMP JUMPDEST PUSH2 0xB31 DUP4 PUSH2 0xAFE JUMP JUMPDEST PUSH2 0xB45 PUSH2 0xB3D DUP3 PUSH2 0xB1F JUMP JUMPDEST DUP5 DUP5 SLOAD PUSH2 0xAA4 JUMP JUMPDEST DUP3 SSTORE POP POP POP POP JUMP JUMPDEST PUSH0 SWAP1 JUMP JUMPDEST PUSH2 0xB59 PUSH2 0xB4D JUMP JUMPDEST PUSH2 0xB64 DUP2 DUP5 DUP5 PUSH2 0xB28 JUMP JUMPDEST POP POP POP JUMP JUMPDEST JUMPDEST DUP2 DUP2 LT ISZERO PUSH2 0xB87 JUMPI PUSH2 0xB7C PUSH0 DUP3 PUSH2 0xB51 JUMP JUMPDEST PUSH1 0x1 DUP2 ADD SWAP1 POP PUSH2 0xB6A JUMP JUMPDEST POP POP JUMP JUMPDEST PUSH1 0x1F DUP3 GT ISZERO PUSH2 0xBCC JUMPI PUSH2 0xB9D DUP2 PUSH2 0xA77 JUMP JUMPDEST PUSH2 0xBA6 DUP5 PUSH2 0xA89 JUMP JUMPDEST DUP2 ADD PUSH1 0x20 DUP6 LT ISZERO PUSH2 0xBB5 JUMPI DUP2 SWAP1 POP JUMPDEST PUSH2 0xBC9 PUSH2 0xBC1 DUP6 PUSH2 0xA89 JUMP JUMPDEST DUP4 ADD DUP3 PUSH2 0xB69 JUMP JUMPDEST POP POP JUMPDEST POP POP POP JUMP JUMPDEST PUSH0 DUP3 DUP3 SHR SWAP1 POP SWAP3 SWAP2 POP POP JUMP JUMPDEST PUSH0 PUSH2 0xBEC PUSH0 NOT DUP5 PUSH1 0x8 MUL PUSH2 0xBD1 JUMP JUMPDEST NOT DUP1 DUP4 AND SWAP2 POP POP SWAP3 SWAP2 POP POP JUMP JUMPDEST PUSH0 PUSH2 0xC04 DUP4 DUP4 PUSH2 0xBDD JUMP JUMPDEST SWAP2 POP DUP3 PUSH1 0x2 MUL DUP3 OR SWAP1 POP SWAP3 SWAP2 POP POP JUMP JUMPDEST PUSH2 0xC1D DUP3 PUSH2 0x695 JUMP JUMPDEST PUSH8 0xFFFFFFFFFFFFFFFF DUP2 GT ISZERO PUSH2 0xC36 JUMPI PUSH2 0xC35 PUSH2 0x7A9 JUMP JUMPDEST JUMPDEST PUSH2 0xC40 DUP3 SLOAD PUSH2 0xA47 JUMP JUMPDEST PUSH2 0xC4B DUP3 DUP3 DUP6 PUSH2 0xB8B JUMP JUMPDEST PUSH0 PUSH1 0x20 SWAP1 POP PUSH1 0x1F DUP4 GT PUSH1 0x1 DUP2 EQ PUSH2 0xC7C JUMPI PUSH0 DUP5 ISZERO PUSH2 0xC6A JUMPI DUP3 DUP8 ADD MLOAD SWAP1 POP JUMPDEST PUSH2 0xC74 DUP6 DUP3 PUSH2 0xBF9 JUMP JUMPDEST DUP7 SSTORE POP PUSH2 0xCDB JUMP JUMPDEST PUSH1 0x1F NOT DUP5 AND PUSH2 0xC8A DUP7 PUSH2 0xA77 JUMP JUMPDEST PUSH0 JUMPDEST DUP3 DUP2 LT ISZERO PUSH2 0xCB1 JUMPI DUP5 DUP10 ADD MLOAD DUP3 SSTORE PUSH1 0x1 DUP3 ADD SWAP2 POP PUSH1 0x20 DUP6 ADD SWAP5 POP PUSH1 0x20 DUP2 ADD SWAP1 POP PUSH2 0xC8C JUMP JUMPDEST DUP7 DUP4 LT ISZERO PUSH2 0xCCE JUMPI DUP5 DUP10 ADD MLOAD PUSH2 0xCCA PUSH1 0x1F DUP10 AND DUP3 PUSH2 0xBDD JUMP JUMPDEST DUP4 SSTORE POP JUMPDEST PUSH1 0x1 PUSH1 0x2 DUP9 MUL ADD DUP9 SSTORE POP POP POP JUMPDEST POP POP POP POP POP POP JUMP INVALID LOG2 PUSH5 0x6970667358 0x22 SLT KECCAK256 0xD1 PUSH24 0x5AFDB5B88D96973E270B045ADFA38D4EA01098270A3C76A3 0xBB 0xE8 0xAB SWAP8 0xD3 ADDMOD PUSH5 0x736F6C6343 STOP ADDMOD XOR STOP CALLER "
				},
				"gasEstimates": {
					"creation": {
						"codeDepositCost": "670600",
						"executionCost": "700",
						"totalCost": "671300"
					},
					"external": {
						"addLog(address,string,string,string)": "infinite",
						"getLog(uint256)": "infinite",
						"logs(uint256)": "infinite"
					}
				},
				"methodIdentifiers": {
					"addLog(address,string,string,string)": "8a1b7a64",
					"getLog(uint256)": "3206b2c6",
					"logs(uint256)": "e79899bd"
				}
			},
			"storageLayout": {
				"storage": [
					{
						"astId": 14,
						"contract": "contracts/3_Log.sol:LogContract",
						"label": "logs",
						"offset": 0,
						"slot": "0",
						"type": "t_array(t_struct(Log)10_storage)dyn_storage"
					}
				],
				"types": {
					"t_address": {
						"encoding": "inplace",
						"label": "address",
						"numberOfBytes": "20"
					},
					"t_array(t_struct(Log)10_storage)dyn_storage": {
						"base": "t_struct(Log)10_storage",
						"encoding": "dynamic_array",
						"label": "struct LogContract.Log[]",
						"numberOfBytes": "32"
					},
					"t_string_storage": {
						"encoding": "bytes",
						"label": "string",
						"numberOfBytes": "32"
					},
					"t_struct(Log)10_storage": {
						"encoding": "inplace",
						"label": "struct LogContract.Log",
						"members": [
							{
								"astId": 3,
								"contract": "contracts/3_Log.sol:LogContract",
								"label": "actor",
								"offset": 0,
								"slot": "0",
								"type": "t_address"
							},
							{
								"astId": 5,
								"contract": "contracts/3_Log.sol:LogContract",
								"label": "operation",
								"offset": 0,
								"slot": "1",
								"type": "t_string_storage"
							},
							{
								"astId": 7,
								"contract": "contracts/3_Log.sol:LogContract",
								"label": "processedData",
								"offset": 0,
								"slot": "2",
								"type": "t_string_storage"
							},
							{
								"astId": 9,
								"contract": "contracts/3_Log.sol:LogContract",
								"label": "serviceName",
								"offset": 0,
								"slot": "3",
								"type": "t_string_storage"
							}
						],
						"numberOfBytes": "128"
					}
				}
			},
			"userdoc": {
				"kind": "user",
				"methods": {},
				"version": 1
			}
		}
	}
}