{
	"contracts/DataUsageSmartContract.sol": {
		"DataUsageSmartContract": {
			"abi": [
				{
					"inputs": [
						{
							"internalType": "string",
							"name": "_serviceName",
							"type": "string"
						},
						{
							"internalType": "string",
							"name": "_servicePurpose",
							"type": "string"
						},
						{
							"internalType": "uint256",
							"name": "_actorId",
							"type": "uint256"
						},
						{
							"internalType": "string[]",
							"name": "_operations",
							"type": "string[]"
						},
						{
							"internalType": "uint256[]",
							"name": "_personalDataIds",
							"type": "uint256[]"
						}
					],
					"name": "addDataUsage",
					"outputs": [],
					"stateMutability": "nonpayable",
					"type": "function"
				},
				{
					"inputs": [
						{
							"internalType": "uint256",
							"name": "_userId",
							"type": "uint256"
						},
						{
							"internalType": "string",
							"name": "_userName",
							"type": "string"
						},
						{
							"internalType": "string",
							"name": "_userAddress",
							"type": "string"
						},
						{
							"internalType": "string",
							"name": "_userTelephone",
							"type": "string"
						},
						{
							"internalType": "string[]",
							"name": "additionalInfos",
							"type": "string[]"
						}
					],
					"name": "addPersonalData",
					"outputs": [],
					"stateMutability": "nonpayable",
					"type": "function"
				},
				{
					"inputs": [
						{
							"internalType": "uint256",
							"name": "_personalDataId",
							"type": "uint256"
						}
					],
					"name": "addProcessedPersonalData",
					"outputs": [],
					"stateMutability": "nonpayable",
					"type": "function"
				},
				{
					"inputs": [
						{
							"internalType": "uint256",
							"name": "_actorConsentId",
							"type": "uint256"
						}
					],
					"name": "getDataUsageByKey",
					"outputs": [
						{
							"components": [
								{
									"internalType": "string",
									"name": "serviceName",
									"type": "string"
								},
								{
									"internalType": "string",
									"name": "servicePurpose",
									"type": "string"
								},
								{
									"internalType": "uint256",
									"name": "actorId",
									"type": "uint256"
								},
								{
									"internalType": "string[]",
									"name": "operations",
									"type": "string[]"
								},
								{
									"internalType": "uint256[]",
									"name": "personalDataIds",
									"type": "uint256[]"
								},
								{
									"internalType": "bytes32[]",
									"name": "processedPersonalDatas",
									"type": "bytes32[]"
								}
							],
							"internalType": "struct DataUsageSmartContract.DataUsage",
							"name": "",
							"type": "tuple"
						}
					],
					"stateMutability": "view",
					"type": "function"
				},
				{
					"inputs": [],
					"name": "getDataUsageCounter",
					"outputs": [
						{
							"internalType": "uint256",
							"name": "",
							"type": "uint256"
						}
					],
					"stateMutability": "view",
					"type": "function"
				},
				{
					"inputs": [
						{
							"internalType": "uint256",
							"name": "_personalDataId",
							"type": "uint256"
						}
					],
					"name": "getPersonalDataByKey",
					"outputs": [
						{
							"components": [
								{
									"internalType": "uint256",
									"name": "userId",
									"type": "uint256"
								},
								{
									"internalType": "string",
									"name": "userName",
									"type": "string"
								},
								{
									"internalType": "string",
									"name": "userAddress",
									"type": "string"
								},
								{
									"internalType": "string",
									"name": "userTelephone",
									"type": "string"
								},
								{
									"internalType": "string[]",
									"name": "additionalInfos",
									"type": "string[]"
								}
							],
							"internalType": "struct DataUsageSmartContract.PersonalData",
							"name": "",
							"type": "tuple"
						}
					],
					"stateMutability": "view",
					"type": "function"
				},
				{
					"inputs": [],
					"name": "getPersonalDataCounter",
					"outputs": [
						{
							"internalType": "uint256",
							"name": "",
							"type": "uint256"
						}
					],
					"stateMutability": "view",
					"type": "function"
				},
				{
					"inputs": [
						{
							"internalType": "uint256",
							"name": "_personalDataId",
							"type": "uint256"
						}
					],
					"name": "getProcessedPersonalDataByKey",
					"outputs": [
						{
							"internalType": "bytes32",
							"name": "",
							"type": "bytes32"
						}
					],
					"stateMutability": "view",
					"type": "function"
				},
				{
					"inputs": [],
					"name": "owner",
					"outputs": [
						{
							"internalType": "address",
							"name": "",
							"type": "address"
						}
					],
					"stateMutability": "view",
					"type": "function"
				}
			],
			"devdoc": {
				"kind": "dev",
				"methods": {},
				"version": 1
			},
			"evm": {
				"assembly": "    /* \"contracts/DataUsageSmartContract.sol\":94:5551  contract DataUsageSmartContract is AccessControl {... */\n  mstore(0x40, 0x80)\n    /* \"contracts/DataUsageSmartContract.sol\":1262:1263  0 */\n  0x00\n    /* \"contracts/DataUsageSmartContract.sol\":1230:1263  uint private dataUsageCounter = 0 */\n  0x04\n  sstore\n    /* \"contracts/DataUsageSmartContract.sol\":1335:1336  0 */\n  0x00\n    /* \"contracts/DataUsageSmartContract.sol\":1300:1336  uint private personalDataCounter = 0 */\n  0x06\n  sstore\n    /* \"contracts/DataUsageSmartContract.sol\":94:5551  contract DataUsageSmartContract is AccessControl {... */\n  callvalue\n  dup1\n  iszero\n  tag_1\n  jumpi\n  0x00\n  dup1\n  revert\ntag_1:\n  pop\n    /* \"contracts/AccessControl.sol\":145:155  msg.sender */\n  caller\n    /* \"contracts/AccessControl.sol\":137:142  owner */\n  0x00\n  dup1\n    /* \"contracts/AccessControl.sol\":137:155  owner = msg.sender */\n  0x0100\n  exp\n  dup2\n  sload\n  dup2\n  0xffffffffffffffffffffffffffffffffffffffff\n  mul\n  not\n  and\n  swap1\n  dup4\n  0xffffffffffffffffffffffffffffffffffffffff\n  and\n  mul\n  or\n  swap1\n  sstore\n  pop\n    /* \"contracts/DataUsageSmartContract.sol\":94:5551  contract DataUsageSmartContract is AccessControl {... */\n  dataSize(sub_0)\n  dup1\n  dataOffset(sub_0)\n  0x00\n  codecopy\n  0x00\n  return\nstop\n\nsub_0: assembly {\n        /* \"contracts/DataUsageSmartContract.sol\":94:5551  contract DataUsageSmartContract is AccessControl {... */\n      mstore(0x40, 0x80)\n      callvalue\n      dup1\n      iszero\n      tag_1\n      jumpi\n      0x00\n      dup1\n      revert\n    tag_1:\n      pop\n      jumpi(tag_2, lt(calldatasize, 0x04))\n      shr(0xe0, calldataload(0x00))\n      dup1\n      0x8da5cb5b\n      gt\n      tag_12\n      jumpi\n      dup1\n      0x8da5cb5b\n      eq\n      tag_7\n      jumpi\n      dup1\n      0xb61798f6\n      eq\n      tag_8\n      jumpi\n      dup1\n      0xca07b122\n      eq\n      tag_9\n      jumpi\n      dup1\n      0xd2b0649a\n      eq\n      tag_10\n      jumpi\n      dup1\n      0xd8a761d9\n      eq\n      tag_11\n      jumpi\n      jump(tag_2)\n    tag_12:\n      dup1\n      0x0dab7cd9\n      eq\n      tag_3\n      jumpi\n      dup1\n      0x3f81de59\n      eq\n      tag_4\n      jumpi\n      dup1\n      0x4b58fbe9\n      eq\n      tag_5\n      jumpi\n      dup1\n      0x682477d7\n      eq\n      tag_6\n      jumpi\n    tag_2:\n      0x00\n      dup1\n      revert\n        /* \"contracts/DataUsageSmartContract.sol\":1502:2027  function addPersonalData(... */\n    tag_3:\n      tag_13\n      0x04\n      dup1\n      calldatasize\n      sub\n      dup2\n      add\n      swap1\n      tag_14\n      swap2\n      swap1\n      tag_15\n      jump\t// in\n    tag_14:\n      tag_16\n      jump\t// in\n    tag_13:\n      stop\n        /* \"contracts/DataUsageSmartContract.sol\":2525:3726  function addProcessedPersonalData(uint _personalDataId) public onlyOwner {... */\n    tag_4:\n      tag_17\n      0x04\n      dup1\n      calldatasize\n      sub\n      dup2\n      add\n      swap1\n      tag_18\n      swap2\n      swap1\n      tag_19\n      jump\t// in\n    tag_18:\n      tag_20\n      jump\t// in\n    tag_17:\n      stop\n        /* \"contracts/DataUsageSmartContract.sol\":2288:2394  function getPersonalDataCounter() public view returns (uint) {... */\n    tag_5:\n      tag_21\n      tag_22\n      jump\t// in\n    tag_21:\n      mload(0x40)\n      tag_23\n      swap2\n      swap1\n      tag_24\n      jump\t// in\n    tag_23:\n      mload(0x40)\n      dup1\n      swap2\n      sub\n      swap1\n      return\n        /* \"contracts/DataUsageSmartContract.sol\":5448:5548  function getDataUsageCounter() public view returns (uint) {... */\n    tag_6:\n      tag_25\n      tag_26\n      jump\t// in\n    tag_25:\n      mload(0x40)\n      tag_27\n      swap2\n      swap1\n      tag_24\n      jump\t// in\n    tag_27:\n      mload(0x40)\n      dup1\n      swap2\n      sub\n      swap1\n      return\n        /* \"contracts/AccessControl.sol\":86:106  address public owner */\n    tag_7:\n      tag_28\n      tag_29\n      jump\t// in\n    tag_28:\n      mload(0x40)\n      tag_30\n      swap2\n      swap1\n      tag_31\n      jump\t// in\n    tag_30:\n      mload(0x40)\n      dup1\n      swap2\n      sub\n      swap1\n      return\n        /* \"contracts/DataUsageSmartContract.sol\":3734:4015  function getProcessedPersonalDataByKey(uint _personalDataId) public view returns (bytes32) {... */\n    tag_8:\n      tag_32\n      0x04\n      dup1\n      calldatasize\n      sub\n      dup2\n      add\n      swap1\n      tag_33\n      swap2\n      swap1\n      tag_19\n      jump\t// in\n    tag_33:\n      tag_34\n      jump\t// in\n    tag_32:\n      mload(0x40)\n      tag_35\n      swap2\n      swap1\n      tag_36\n      jump\t// in\n    tag_35:\n      mload(0x40)\n      dup1\n      swap2\n      sub\n      swap1\n      return\n        /* \"contracts/DataUsageSmartContract.sol\":4134:5200  function addDataUsage(... */\n    tag_9:\n      tag_37\n      0x04\n      dup1\n      calldatasize\n      sub\n      dup2\n      add\n      swap1\n      tag_38\n      swap2\n      swap1\n      tag_39\n      jump\t// in\n    tag_38:\n      tag_40\n      jump\t// in\n    tag_37:\n      stop\n        /* \"contracts/DataUsageSmartContract.sol\":5210:5440  function getDataUsageByKey(uint _actorConsentId) public view returns (DataUsage memory) {... */\n    tag_10:\n      tag_41\n      0x04\n      dup1\n      calldatasize\n      sub\n      dup2\n      add\n      swap1\n      tag_42\n      swap2\n      swap1\n      tag_19\n      jump\t// in\n    tag_42:\n      tag_43\n      jump\t// in\n    tag_41:\n      mload(0x40)\n      tag_44\n      swap2\n      swap1\n      tag_45\n      jump\t// in\n    tag_44:\n      mload(0x40)\n      dup1\n      swap2\n      sub\n      swap1\n      return\n        /* \"contracts/DataUsageSmartContract.sol\":2035:2280  function getPersonalDataByKey(uint _personalDataId) public view returns (PersonalData memory) {... */\n    tag_11:\n      tag_46\n      0x04\n      dup1\n      calldatasize\n      sub\n      dup2\n      add\n      swap1\n      tag_47\n      swap2\n      swap1\n      tag_19\n      jump\t// in\n    tag_47:\n      tag_48\n      jump\t// in\n    tag_46:\n      mload(0x40)\n      tag_49\n      swap2\n      swap1\n      tag_50\n      jump\t// in\n    tag_49:\n      mload(0x40)\n      dup1\n      swap2\n      sub\n      swap1\n      return\n        /* \"contracts/DataUsageSmartContract.sol\":1502:2027  function addPersonalData(... */\n    tag_16:\n        /* \"contracts/AccessControl.sol\":220:225  owner */\n      0x00\n      dup1\n      sload\n      swap1\n      0x0100\n      exp\n      swap1\n      div\n      0xffffffffffffffffffffffffffffffffffffffff\n      and\n        /* \"contracts/AccessControl.sol\":206:225  msg.sender == owner */\n      0xffffffffffffffffffffffffffffffffffffffff\n      and\n        /* \"contracts/AccessControl.sol\":206:216  msg.sender */\n      caller\n        /* \"contracts/AccessControl.sol\":206:225  msg.sender == owner */\n      0xffffffffffffffffffffffffffffffffffffffff\n      and\n      eq\n        /* \"contracts/AccessControl.sol\":198:280  require(msg.sender == owner, \"Only the contract owner can perform this operation\") */\n      tag_52\n      jumpi\n      mload(0x40)\n      0x08c379a000000000000000000000000000000000000000000000000000000000\n      dup2\n      mstore\n      0x04\n      add\n      tag_53\n      swap1\n      tag_54\n      jump\t// in\n    tag_53:\n      mload(0x40)\n      dup1\n      swap2\n      sub\n      swap1\n      revert\n    tag_52:\n        /* \"contracts/DataUsageSmartContract.sol\":1767:1987  PersonalData({... */\n      mload(0x40)\n      dup1\n      0xa0\n      add\n      0x40\n      mstore\n      dup1\n        /* \"contracts/DataUsageSmartContract.sol\":1803:1810  _userId */\n      dup7\n        /* \"contracts/DataUsageSmartContract.sol\":1767:1987  PersonalData({... */\n      dup2\n      mstore\n      0x20\n      add\n        /* \"contracts/DataUsageSmartContract.sol\":1835:1844  _userName */\n      dup6\n        /* \"contracts/DataUsageSmartContract.sol\":1767:1987  PersonalData({... */\n      dup2\n      mstore\n      0x20\n      add\n        /* \"contracts/DataUsageSmartContract.sol\":1872:1884  _userAddress */\n      dup5\n        /* \"contracts/DataUsageSmartContract.sol\":1767:1987  PersonalData({... */\n      dup2\n      mstore\n      0x20\n      add\n        /* \"contracts/DataUsageSmartContract.sol\":1914:1928  _userTelephone */\n      dup4\n        /* \"contracts/DataUsageSmartContract.sol\":1767:1987  PersonalData({... */\n      dup2\n      mstore\n      0x20\n      add\n        /* \"contracts/DataUsageSmartContract.sol\":1960:1975  additionalInfos */\n      dup3\n        /* \"contracts/DataUsageSmartContract.sol\":1767:1987  PersonalData({... */\n      dup2\n      mstore\n      pop\n        /* \"contracts/DataUsageSmartContract.sol\":1742:1755  personalDatas */\n      0x02\n        /* \"contracts/DataUsageSmartContract.sol\":1742:1764  personalDatas[_userId] */\n      0x00\n        /* \"contracts/DataUsageSmartContract.sol\":1756:1763  _userId */\n      dup8\n        /* \"contracts/DataUsageSmartContract.sol\":1742:1764  personalDatas[_userId] */\n      dup2\n      mstore\n      0x20\n      add\n      swap1\n      dup2\n      mstore\n      0x20\n      add\n      0x00\n      keccak256\n        /* \"contracts/DataUsageSmartContract.sol\":1742:1987  personalDatas[_userId] = PersonalData({... */\n      0x00\n      dup3\n      add\n      mload\n      dup2\n      0x00\n      add\n      sstore\n      0x20\n      dup3\n      add\n      mload\n      dup2\n      0x01\n      add\n      swap1\n      dup2\n      tag_56\n      swap2\n      swap1\n      tag_57\n      jump\t// in\n    tag_56:\n      pop\n      0x40\n      dup3\n      add\n      mload\n      dup2\n      0x02\n      add\n      swap1\n      dup2\n      tag_58\n      swap2\n      swap1\n      tag_57\n      jump\t// in\n    tag_58:\n      pop\n      0x60\n      dup3\n      add\n      mload\n      dup2\n      0x03\n      add\n      swap1\n      dup2\n      tag_59\n      swap2\n      swap1\n      tag_57\n      jump\t// in\n    tag_59:\n      pop\n      0x80\n      dup3\n      add\n      mload\n      dup2\n      0x04\n      add\n      swap1\n      dup1\n      mload\n      swap1\n      0x20\n      add\n      swap1\n      tag_60\n      swap3\n      swap2\n      swap1\n      tag_61\n      jump\t// in\n    tag_60:\n      pop\n      swap1\n      pop\n      pop\n        /* \"contracts/DataUsageSmartContract.sol\":1998:2017  personalDataCounter */\n      0x06\n      0x00\n        /* \"contracts/DataUsageSmartContract.sol\":1998:2019  personalDataCounter++ */\n      dup2\n      sload\n      dup1\n      swap3\n      swap2\n      swap1\n      tag_62\n      swap1\n      tag_63\n      jump\t// in\n    tag_62:\n      swap2\n      swap1\n      pop\n      sstore\n      pop\n        /* \"contracts/DataUsageSmartContract.sol\":1502:2027  function addPersonalData(... */\n      pop\n      pop\n      pop\n      pop\n      pop\n      jump\t// out\n        /* \"contracts/DataUsageSmartContract.sol\":2525:3726  function addProcessedPersonalData(uint _personalDataId) public onlyOwner {... */\n    tag_20:\n        /* \"contracts/AccessControl.sol\":220:225  owner */\n      0x00\n      dup1\n      sload\n      swap1\n      0x0100\n      exp\n      swap1\n      div\n      0xffffffffffffffffffffffffffffffffffffffff\n      and\n        /* \"contracts/AccessControl.sol\":206:225  msg.sender == owner */\n      0xffffffffffffffffffffffffffffffffffffffff\n      and\n        /* \"contracts/AccessControl.sol\":206:216  msg.sender */\n      caller\n        /* \"contracts/AccessControl.sol\":206:225  msg.sender == owner */\n      0xffffffffffffffffffffffffffffffffffffffff\n      and\n      eq\n        /* \"contracts/AccessControl.sol\":198:280  require(msg.sender == owner, \"Only the contract owner can perform this operation\") */\n      tag_65\n      jumpi\n      mload(0x40)\n      0x08c379a000000000000000000000000000000000000000000000000000000000\n      dup2\n      mstore\n      0x04\n      add\n      tag_66\n      swap1\n      tag_54\n      jump\t// in\n    tag_66:\n      mload(0x40)\n      dup1\n      swap2\n      sub\n      swap1\n      revert\n    tag_65:\n        /* \"contracts/DataUsageSmartContract.sol\":2794:2827  PersonalData storage personalData */\n      0x00\n        /* \"contracts/DataUsageSmartContract.sol\":2830:2843  personalDatas */\n      0x02\n        /* \"contracts/DataUsageSmartContract.sol\":2830:2860  personalDatas[_personalDataId] */\n      0x00\n        /* \"contracts/DataUsageSmartContract.sol\":2844:2859  _personalDataId */\n      dup4\n        /* \"contracts/DataUsageSmartContract.sol\":2830:2860  personalDatas[_personalDataId] */\n      dup2\n      mstore\n      0x20\n      add\n      swap1\n      dup2\n      mstore\n      0x20\n      add\n      0x00\n      keccak256\n        /* \"contracts/DataUsageSmartContract.sol\":2794:2860  PersonalData storage personalData = personalDatas[_personalDataId] */\n      swap1\n      pop\n        /* \"contracts/DataUsageSmartContract.sol\":2951:2974  bytes memory dataToHash */\n      0x60\n        /* \"contracts/DataUsageSmartContract.sol\":3073:3085  personalData */\n      dup2\n        /* \"contracts/DataUsageSmartContract.sol\":3073:3094  personalData.userName */\n      0x01\n      add\n        /* \"contracts/DataUsageSmartContract.sol\":3109:3121  personalData */\n      dup3\n        /* \"contracts/DataUsageSmartContract.sol\":3109:3133  personalData.userAddress */\n      0x02\n      add\n        /* \"contracts/DataUsageSmartContract.sol\":3148:3160  personalData */\n      dup4\n        /* \"contracts/DataUsageSmartContract.sol\":3148:3174  personalData.userTelephone */\n      0x03\n      add\n        /* \"contracts/DataUsageSmartContract.sol\":3042:3185  abi.encodePacked(... */\n      add(0x20, mload(0x40))\n      tag_68\n      swap4\n      swap3\n      swap2\n      swap1\n      tag_69\n      jump\t// in\n    tag_68:\n      mload(0x40)\n      0x20\n      dup2\n      dup4\n      sub\n      sub\n      dup2\n      mstore\n      swap1\n      0x40\n      mstore\n        /* \"contracts/DataUsageSmartContract.sol\":3029:3185  dataToHash = abi.encodePacked(... */\n      swap1\n      pop\n        /* \"contracts/DataUsageSmartContract.sol\":3287:3293  uint i */\n      0x00\n        /* \"contracts/DataUsageSmartContract.sol\":3282:3446  for (uint i = 0; i < personalData.additionalInfos.length; i++) {... */\n    tag_70:\n        /* \"contracts/DataUsageSmartContract.sol\":3303:3315  personalData */\n      dup3\n        /* \"contracts/DataUsageSmartContract.sol\":3303:3331  personalData.additionalInfos */\n      0x04\n      add\n        /* \"contracts/DataUsageSmartContract.sol\":3303:3338  personalData.additionalInfos.length */\n      dup1\n      sload\n      swap1\n      pop\n        /* \"contracts/DataUsageSmartContract.sol\":3299:3300  i */\n      dup2\n        /* \"contracts/DataUsageSmartContract.sol\":3299:3338  i < personalData.additionalInfos.length */\n      lt\n        /* \"contracts/DataUsageSmartContract.sol\":3282:3446  for (uint i = 0; i < personalData.additionalInfos.length; i++) {... */\n      iszero\n      tag_71\n      jumpi\n        /* \"contracts/DataUsageSmartContract.sol\":3390:3400  dataToHash */\n      dup2\n        /* \"contracts/DataUsageSmartContract.sol\":3402:3414  personalData */\n      dup4\n        /* \"contracts/DataUsageSmartContract.sol\":3402:3430  personalData.additionalInfos */\n      0x04\n      add\n        /* \"contracts/DataUsageSmartContract.sol\":3431:3432  i */\n      dup3\n        /* \"contracts/DataUsageSmartContract.sol\":3402:3433  personalData.additionalInfos[i] */\n      dup2\n      sload\n      dup2\n      lt\n      tag_73\n      jumpi\n      tag_74\n      tag_75\n      jump\t// in\n    tag_74:\n    tag_73:\n      swap1\n      0x00\n      mstore\n      keccak256(0x00, 0x20)\n      add\n        /* \"contracts/DataUsageSmartContract.sol\":3373:3434  abi.encodePacked(dataToHash, personalData.additionalInfos[i]) */\n      add(0x20, mload(0x40))\n      tag_77\n      swap3\n      swap2\n      swap1\n      tag_78\n      jump\t// in\n    tag_77:\n      mload(0x40)\n      0x20\n      dup2\n      dup4\n      sub\n      sub\n      dup2\n      mstore\n      swap1\n      0x40\n      mstore\n        /* \"contracts/DataUsageSmartContract.sol\":3360:3434  dataToHash = abi.encodePacked(dataToHash, personalData.additionalInfos[i]) */\n      swap2\n      pop\n        /* \"contracts/DataUsageSmartContract.sol\":3340:3343  i++ */\n      dup1\n      dup1\n      0x01\n      add\n      swap2\n      pop\n      pop\n        /* \"contracts/DataUsageSmartContract.sol\":3282:3446  for (uint i = 0; i < personalData.additionalInfos.length; i++) {... */\n      jump(tag_70)\n    tag_71:\n      pop\n        /* \"contracts/DataUsageSmartContract.sol\":3514:3543  bytes32 processedPersonalData */\n      0x00\n        /* \"contracts/DataUsageSmartContract.sol\":3556:3566  dataToHash */\n      dup2\n        /* \"contracts/DataUsageSmartContract.sol\":3546:3567  keccak256(dataToHash) */\n      dup1\n      mload\n      swap1\n      0x20\n      add\n      keccak256\n        /* \"contracts/DataUsageSmartContract.sol\":3514:3567  bytes32 processedPersonalData = keccak256(dataToHash) */\n      swap1\n      pop\n        /* \"contracts/DataUsageSmartContract.sol\":3694:3715  processedPersonalData */\n      dup1\n        /* \"contracts/DataUsageSmartContract.sol\":3652:3674  processedPersonalDatas */\n      0x03\n        /* \"contracts/DataUsageSmartContract.sol\":3652:3691  processedPersonalDatas[_personalDataId] */\n      0x00\n        /* \"contracts/DataUsageSmartContract.sol\":3675:3690  _personalDataId */\n      dup7\n        /* \"contracts/DataUsageSmartContract.sol\":3652:3691  processedPersonalDatas[_personalDataId] */\n      dup2\n      mstore\n      0x20\n      add\n      swap1\n      dup2\n      mstore\n      0x20\n      add\n      0x00\n      keccak256\n        /* \"contracts/DataUsageSmartContract.sol\":3652:3715  processedPersonalDatas[_personalDataId] = processedPersonalData */\n      dup2\n      swap1\n      sstore\n      pop\n        /* \"contracts/DataUsageSmartContract.sol\":2598:3726  {... */\n      pop\n      pop\n      pop\n        /* \"contracts/DataUsageSmartContract.sol\":2525:3726  function addProcessedPersonalData(uint _personalDataId) public onlyOwner {... */\n      pop\n      jump\t// out\n        /* \"contracts/DataUsageSmartContract.sol\":2288:2394  function getPersonalDataCounter() public view returns (uint) {... */\n    tag_22:\n        /* \"contracts/DataUsageSmartContract.sol\":2343:2347  uint */\n      0x00\n        /* \"contracts/DataUsageSmartContract.sol\":2367:2386  personalDataCounter */\n      sload(0x06)\n        /* \"contracts/DataUsageSmartContract.sol\":2360:2386  return personalDataCounter */\n      swap1\n      pop\n        /* \"contracts/DataUsageSmartContract.sol\":2288:2394  function getPersonalDataCounter() public view returns (uint) {... */\n      swap1\n      jump\t// out\n        /* \"contracts/DataUsageSmartContract.sol\":5448:5548  function getDataUsageCounter() public view returns (uint) {... */\n    tag_26:\n        /* \"contracts/DataUsageSmartContract.sol\":5500:5504  uint */\n      0x00\n        /* \"contracts/DataUsageSmartContract.sol\":5524:5540  dataUsageCounter */\n      sload(0x04)\n        /* \"contracts/DataUsageSmartContract.sol\":5517:5540  return dataUsageCounter */\n      swap1\n      pop\n        /* \"contracts/DataUsageSmartContract.sol\":5448:5548  function getDataUsageCounter() public view returns (uint) {... */\n      swap1\n      jump\t// out\n        /* \"contracts/AccessControl.sol\":86:106  address public owner */\n    tag_29:\n      0x00\n      dup1\n      sload\n      swap1\n      0x0100\n      exp\n      swap1\n      div\n      0xffffffffffffffffffffffffffffffffffffffff\n      and\n      dup2\n      jump\t// out\n        /* \"contracts/DataUsageSmartContract.sol\":3734:4015  function getProcessedPersonalDataByKey(uint _personalDataId) public view returns (bytes32) {... */\n    tag_34:\n        /* \"contracts/DataUsageSmartContract.sol\":3816:3823  bytes32 */\n      0x00\n        /* \"contracts/DataUsageSmartContract.sol\":3968:3990  processedPersonalDatas */\n      0x03\n        /* \"contracts/DataUsageSmartContract.sol\":3968:4007  processedPersonalDatas[_personalDataId] */\n      0x00\n        /* \"contracts/DataUsageSmartContract.sol\":3991:4006  _personalDataId */\n      dup4\n        /* \"contracts/DataUsageSmartContract.sol\":3968:4007  processedPersonalDatas[_personalDataId] */\n      dup2\n      mstore\n      0x20\n      add\n      swap1\n      dup2\n      mstore\n      0x20\n      add\n      0x00\n      keccak256\n      sload\n        /* \"contracts/DataUsageSmartContract.sol\":3961:4007  return processedPersonalDatas[_personalDataId] */\n      swap1\n      pop\n        /* \"contracts/DataUsageSmartContract.sol\":3734:4015  function getProcessedPersonalDataByKey(uint _personalDataId) public view returns (bytes32) {... */\n      swap2\n      swap1\n      pop\n      jump\t// out\n        /* \"contracts/DataUsageSmartContract.sol\":4134:5200  function addDataUsage(... */\n    tag_40:\n        /* \"contracts/AccessControl.sol\":220:225  owner */\n      0x00\n      dup1\n      sload\n      swap1\n      0x0100\n      exp\n      swap1\n      div\n      0xffffffffffffffffffffffffffffffffffffffff\n      and\n        /* \"contracts/AccessControl.sol\":206:225  msg.sender == owner */\n      0xffffffffffffffffffffffffffffffffffffffff\n      and\n        /* \"contracts/AccessControl.sol\":206:216  msg.sender */\n      caller\n        /* \"contracts/AccessControl.sol\":206:225  msg.sender == owner */\n      0xffffffffffffffffffffffffffffffffffffffff\n      and\n      eq\n        /* \"contracts/AccessControl.sol\":198:280  require(msg.sender == owner, \"Only the contract owner can perform this operation\") */\n      tag_83\n      jumpi\n      mload(0x40)\n      0x08c379a000000000000000000000000000000000000000000000000000000000\n      dup2\n      mstore\n      0x04\n      add\n      tag_84\n      swap1\n      tag_54\n      jump\t// in\n    tag_84:\n      mload(0x40)\n      dup1\n      swap2\n      sub\n      swap1\n      revert\n    tag_83:\n        /* \"contracts/DataUsageSmartContract.sol\":4379:4410  bytes32[] memory processedDatas */\n      0x00\n        /* \"contracts/DataUsageSmartContract.sol\":4427:4443  _personalDataIds */\n      dup2\n        /* \"contracts/DataUsageSmartContract.sol\":4427:4450  _personalDataIds.length */\n      mload\n        /* \"contracts/DataUsageSmartContract.sol\":4413:4451  new bytes32[](_personalDataIds.length) */\n      0xffffffffffffffff\n      dup2\n      gt\n      iszero\n      tag_86\n      jumpi\n      tag_87\n      tag_88\n      jump\t// in\n    tag_87:\n    tag_86:\n      mload(0x40)\n      swap1\n      dup1\n      dup3\n      mstore\n      dup1\n      0x20\n      mul\n      0x20\n      add\n      dup3\n      add\n      0x40\n      mstore\n      dup1\n      iszero\n      tag_89\n      jumpi\n      dup2\n      0x20\n      add\n      0x20\n      dup3\n      mul\n      dup1\n      calldatasize\n      dup4\n      calldatacopy\n      dup1\n      dup3\n      add\n      swap2\n      pop\n      pop\n      swap1\n      pop\n    tag_89:\n      pop\n        /* \"contracts/DataUsageSmartContract.sol\":4379:4451  bytes32[] memory processedDatas = new bytes32[](_personalDataIds.length) */\n      swap1\n      pop\n        /* \"contracts/DataUsageSmartContract.sol\":4477:4483  uint i */\n      0x00\n        /* \"contracts/DataUsageSmartContract.sol\":4472:4720  for (uint i = 0; i < _personalDataIds.length; i++) {... */\n    tag_90:\n        /* \"contracts/DataUsageSmartContract.sol\":4493:4509  _personalDataIds */\n      dup3\n        /* \"contracts/DataUsageSmartContract.sol\":4493:4516  _personalDataIds.length */\n      mload\n        /* \"contracts/DataUsageSmartContract.sol\":4489:4490  i */\n      dup2\n        /* \"contracts/DataUsageSmartContract.sol\":4489:4516  i < _personalDataIds.length */\n      lt\n        /* \"contracts/DataUsageSmartContract.sol\":4472:4720  for (uint i = 0; i < _personalDataIds.length; i++) {... */\n      iszero\n      tag_91\n      jumpi\n        /* \"contracts/DataUsageSmartContract.sol\":4658:4708  getProcessedPersonalDataByKey(_personalDataIds[i]) */\n      tag_93\n        /* \"contracts/DataUsageSmartContract.sol\":4688:4704  _personalDataIds */\n      dup4\n        /* \"contracts/DataUsageSmartContract.sol\":4705:4706  i */\n      dup3\n        /* \"contracts/DataUsageSmartContract.sol\":4688:4707  _personalDataIds[i] */\n      dup2\n      mload\n      dup2\n      lt\n      tag_94\n      jumpi\n      tag_95\n      tag_75\n      jump\t// in\n    tag_95:\n    tag_94:\n      0x20\n      mul\n      0x20\n      add\n      add\n      mload\n        /* \"contracts/DataUsageSmartContract.sol\":4658:4687  getProcessedPersonalDataByKey */\n      tag_34\n        /* \"contracts/DataUsageSmartContract.sol\":4658:4708  getProcessedPersonalDataByKey(_personalDataIds[i]) */\n      jump\t// in\n    tag_93:\n        /* \"contracts/DataUsageSmartContract.sol\":4638:4652  processedDatas */\n      dup3\n        /* \"contracts/DataUsageSmartContract.sol\":4653:4654  i */\n      dup3\n        /* \"contracts/DataUsageSmartContract.sol\":4638:4655  processedDatas[i] */\n      dup2\n      mload\n      dup2\n      lt\n      tag_96\n      jumpi\n      tag_97\n      tag_75\n      jump\t// in\n    tag_97:\n    tag_96:\n      0x20\n      mul\n      0x20\n      add\n      add\n        /* \"contracts/DataUsageSmartContract.sol\":4638:4708  processedDatas[i] = getProcessedPersonalDataByKey(_personalDataIds[i]) */\n      dup2\n      dup2\n      mstore\n      pop\n      pop\n        /* \"contracts/DataUsageSmartContract.sol\":4518:4521  i++ */\n      dup1\n      dup1\n      0x01\n      add\n      swap2\n      pop\n      pop\n        /* \"contracts/DataUsageSmartContract.sol\":4472:4720  for (uint i = 0; i < _personalDataIds.length; i++) {... */\n      jump(tag_90)\n    tag_91:\n      pop\n        /* \"contracts/DataUsageSmartContract.sol\":4830:5109  DataUsage({... */\n      mload(0x40)\n      dup1\n      0xc0\n      add\n      0x40\n      mstore\n      dup1\n        /* \"contracts/DataUsageSmartContract.sol\":4868:4880  _serviceName */\n      dup8\n        /* \"contracts/DataUsageSmartContract.sol\":4830:5109  DataUsage({... */\n      dup2\n      mstore\n      0x20\n      add\n        /* \"contracts/DataUsageSmartContract.sol\":4911:4926  _servicePurpose */\n      dup7\n        /* \"contracts/DataUsageSmartContract.sol\":4830:5109  DataUsage({... */\n      dup2\n      mstore\n      0x20\n      add\n        /* \"contracts/DataUsageSmartContract.sol\":4950:4958  _actorId */\n      dup6\n        /* \"contracts/DataUsageSmartContract.sol\":4830:5109  DataUsage({... */\n      dup2\n      mstore\n      0x20\n      add\n        /* \"contracts/DataUsageSmartContract.sol\":4985:4996  _operations */\n      dup5\n        /* \"contracts/DataUsageSmartContract.sol\":4830:5109  DataUsage({... */\n      dup2\n      mstore\n      0x20\n      add\n        /* \"contracts/DataUsageSmartContract.sol\":5028:5044  _personalDataIds */\n      dup4\n        /* \"contracts/DataUsageSmartContract.sol\":4830:5109  DataUsage({... */\n      dup2\n      mstore\n      0x20\n      add\n        /* \"contracts/DataUsageSmartContract.sol\":5083:5097  processedDatas */\n      dup3\n        /* \"contracts/DataUsageSmartContract.sol\":4830:5109  DataUsage({... */\n      dup2\n      mstore\n      pop\n        /* \"contracts/DataUsageSmartContract.sol\":4807:4817  dataUsages */\n      0x01\n        /* \"contracts/DataUsageSmartContract.sol\":4807:4827  dataUsages[_actorId] */\n      0x00\n        /* \"contracts/DataUsageSmartContract.sol\":4818:4826  _actorId */\n      dup7\n        /* \"contracts/DataUsageSmartContract.sol\":4807:4827  dataUsages[_actorId] */\n      dup2\n      mstore\n      0x20\n      add\n      swap1\n      dup2\n      mstore\n      0x20\n      add\n      0x00\n      keccak256\n        /* \"contracts/DataUsageSmartContract.sol\":4807:5109  dataUsages[_actorId] = DataUsage({... */\n      0x00\n      dup3\n      add\n      mload\n      dup2\n      0x00\n      add\n      swap1\n      dup2\n      tag_98\n      swap2\n      swap1\n      tag_57\n      jump\t// in\n    tag_98:\n      pop\n      0x20\n      dup3\n      add\n      mload\n      dup2\n      0x01\n      add\n      swap1\n      dup2\n      tag_99\n      swap2\n      swap1\n      tag_57\n      jump\t// in\n    tag_99:\n      pop\n      0x40\n      dup3\n      add\n      mload\n      dup2\n      0x02\n      add\n      sstore\n      0x60\n      dup3\n      add\n      mload\n      dup2\n      0x03\n      add\n      swap1\n      dup1\n      mload\n      swap1\n      0x20\n      add\n      swap1\n      tag_100\n      swap3\n      swap2\n      swap1\n      tag_61\n      jump\t// in\n    tag_100:\n      pop\n      0x80\n      dup3\n      add\n      mload\n      dup2\n      0x04\n      add\n      swap1\n      dup1\n      mload\n      swap1\n      0x20\n      add\n      swap1\n      tag_101\n      swap3\n      swap2\n      swap1\n      tag_102\n      jump\t// in\n    tag_101:\n      pop\n      0xa0\n      dup3\n      add\n      mload\n      dup2\n      0x05\n      add\n      swap1\n      dup1\n      mload\n      swap1\n      0x20\n      add\n      swap1\n      tag_103\n      swap3\n      swap2\n      swap1\n      tag_104\n      jump\t// in\n    tag_103:\n      pop\n      swap1\n      pop\n      pop\n        /* \"contracts/DataUsageSmartContract.sol\":5172:5188  dataUsageCounter */\n      0x04\n      0x00\n        /* \"contracts/DataUsageSmartContract.sol\":5172:5190  dataUsageCounter++ */\n      dup2\n      sload\n      dup1\n      swap3\n      swap2\n      swap1\n      tag_105\n      swap1\n      tag_63\n      jump\t// in\n    tag_105:\n      swap2\n      swap1\n      pop\n      sstore\n      pop\n        /* \"contracts/DataUsageSmartContract.sol\":4360:5200  {... */\n      pop\n        /* \"contracts/DataUsageSmartContract.sol\":4134:5200  function addDataUsage(... */\n      pop\n      pop\n      pop\n      pop\n      pop\n      jump\t// out\n        /* \"contracts/DataUsageSmartContract.sol\":5210:5440  function getDataUsageByKey(uint _actorConsentId) public view returns (DataUsage memory) {... */\n    tag_43:\n        /* \"contracts/DataUsageSmartContract.sol\":5280:5296  DataUsage memory */\n      tag_106\n      tag_107\n      jump\t// in\n    tag_106:\n        /* \"contracts/DataUsageSmartContract.sol\":5356:5357  0 */\n      0x00\n        /* \"contracts/DataUsageSmartContract.sol\":5317:5327  dataUsages */\n      0x01\n        /* \"contracts/DataUsageSmartContract.sol\":5317:5344  dataUsages[_actorConsentId] */\n      0x00\n        /* \"contracts/DataUsageSmartContract.sol\":5328:5343  _actorConsentId */\n      dup5\n        /* \"contracts/DataUsageSmartContract.sol\":5317:5344  dataUsages[_actorConsentId] */\n      dup2\n      mstore\n      0x20\n      add\n      swap1\n      dup2\n      mstore\n      0x20\n      add\n      0x00\n      keccak256\n        /* \"contracts/DataUsageSmartContract.sol\":5317:5352  dataUsages[_actorConsentId].actorId */\n      0x02\n      add\n      sload\n        /* \"contracts/DataUsageSmartContract.sol\":5317:5357  dataUsages[_actorConsentId].actorId != 0 */\n      sub\n        /* \"contracts/DataUsageSmartContract.sol\":5309:5387  require(dataUsages[_actorConsentId].actorId != 0, \"Data User does not exist.\") */\n      tag_109\n      jumpi\n      mload(0x40)\n      0x08c379a000000000000000000000000000000000000000000000000000000000\n      dup2\n      mstore\n      0x04\n      add\n      tag_110\n      swap1\n      tag_111\n      jump\t// in\n    tag_110:\n      mload(0x40)\n      dup1\n      swap2\n      sub\n      swap1\n      revert\n    tag_109:\n        /* \"contracts/DataUsageSmartContract.sol\":5405:5415  dataUsages */\n      0x01\n        /* \"contracts/DataUsageSmartContract.sol\":5405:5432  dataUsages[_actorConsentId] */\n      0x00\n        /* \"contracts/DataUsageSmartContract.sol\":5416:5431  _actorConsentId */\n      dup4\n        /* \"contracts/DataUsageSmartContract.sol\":5405:5432  dataUsages[_actorConsentId] */\n      dup2\n      mstore\n      0x20\n      add\n      swap1\n      dup2\n      mstore\n      0x20\n      add\n      0x00\n      keccak256\n        /* \"contracts/DataUsageSmartContract.sol\":5398:5432  return dataUsages[_actorConsentId] */\n      mload(0x40)\n      dup1\n      0xc0\n      add\n      0x40\n      mstore\n      swap1\n      dup2\n      0x00\n      dup3\n      add\n      dup1\n      sload\n      tag_112\n      swap1\n      tag_113\n      jump\t// in\n    tag_112:\n      dup1\n      0x1f\n      add\n      0x20\n      dup1\n      swap2\n      div\n      mul\n      0x20\n      add\n      mload(0x40)\n      swap1\n      dup2\n      add\n      0x40\n      mstore\n      dup1\n      swap3\n      swap2\n      swap1\n      dup2\n      dup2\n      mstore\n      0x20\n      add\n      dup3\n      dup1\n      sload\n      tag_114\n      swap1\n      tag_113\n      jump\t// in\n    tag_114:\n      dup1\n      iszero\n      tag_115\n      jumpi\n      dup1\n      0x1f\n      lt\n      tag_116\n      jumpi\n      0x0100\n      dup1\n      dup4\n      sload\n      div\n      mul\n      dup4\n      mstore\n      swap2\n      0x20\n      add\n      swap2\n      jump(tag_115)\n    tag_116:\n      dup3\n      add\n      swap2\n      swap1\n      0x00\n      mstore\n      keccak256(0x00, 0x20)\n      swap1\n    tag_117:\n      dup2\n      sload\n      dup2\n      mstore\n      swap1\n      0x01\n      add\n      swap1\n      0x20\n      add\n      dup1\n      dup4\n      gt\n      tag_117\n      jumpi\n      dup3\n      swap1\n      sub\n      0x1f\n      and\n      dup3\n      add\n      swap2\n    tag_115:\n      pop\n      pop\n      pop\n      pop\n      pop\n      dup2\n      mstore\n      0x20\n      add\n      0x01\n      dup3\n      add\n      dup1\n      sload\n      tag_118\n      swap1\n      tag_113\n      jump\t// in\n    tag_118:\n      dup1\n      0x1f\n      add\n      0x20\n      dup1\n      swap2\n      div\n      mul\n      0x20\n      add\n      mload(0x40)\n      swap1\n      dup2\n      add\n      0x40\n      mstore\n      dup1\n      swap3\n      swap2\n      swap1\n      dup2\n      dup2\n      mstore\n      0x20\n      add\n      dup3\n      dup1\n      sload\n      tag_119\n      swap1\n      tag_113\n      jump\t// in\n    tag_119:\n      dup1\n      iszero\n      tag_120\n      jumpi\n      dup1\n      0x1f\n      lt\n      tag_121\n      jumpi\n      0x0100\n      dup1\n      dup4\n      sload\n      div\n      mul\n      dup4\n      mstore\n      swap2\n      0x20\n      add\n      swap2\n      jump(tag_120)\n    tag_121:\n      dup3\n      add\n      swap2\n      swap1\n      0x00\n      mstore\n      keccak256(0x00, 0x20)\n      swap1\n    tag_122:\n      dup2\n      sload\n      dup2\n      mstore\n      swap1\n      0x01\n      add\n      swap1\n      0x20\n      add\n      dup1\n      dup4\n      gt\n      tag_122\n      jumpi\n      dup3\n      swap1\n      sub\n      0x1f\n      and\n      dup3\n      add\n      swap2\n    tag_120:\n      pop\n      pop\n      pop\n      pop\n      pop\n      dup2\n      mstore\n      0x20\n      add\n      0x02\n      dup3\n      add\n      sload\n      dup2\n      mstore\n      0x20\n      add\n      0x03\n      dup3\n      add\n      dup1\n      sload\n      dup1\n      0x20\n      mul\n      0x20\n      add\n      mload(0x40)\n      swap1\n      dup2\n      add\n      0x40\n      mstore\n      dup1\n      swap3\n      swap2\n      swap1\n      dup2\n      dup2\n      mstore\n      0x20\n      add\n      0x00\n      swap1\n    tag_123:\n      dup3\n      dup3\n      lt\n      iszero\n      tag_124\n      jumpi\n      dup4\n      dup3\n      swap1\n      0x00\n      mstore\n      keccak256(0x00, 0x20)\n      add\n      dup1\n      sload\n      tag_126\n      swap1\n      tag_113\n      jump\t// in\n    tag_126:\n      dup1\n      0x1f\n      add\n      0x20\n      dup1\n      swap2\n      div\n      mul\n      0x20\n      add\n      mload(0x40)\n      swap1\n      dup2\n      add\n      0x40\n      mstore\n      dup1\n      swap3\n      swap2\n      swap1\n      dup2\n      dup2\n      mstore\n      0x20\n      add\n      dup3\n      dup1\n      sload\n      tag_127\n      swap1\n      tag_113\n      jump\t// in\n    tag_127:\n      dup1\n      iszero\n      tag_128\n      jumpi\n      dup1\n      0x1f\n      lt\n      tag_129\n      jumpi\n      0x0100\n      dup1\n      dup4\n      sload\n      div\n      mul\n      dup4\n      mstore\n      swap2\n      0x20\n      add\n      swap2\n      jump(tag_128)\n    tag_129:\n      dup3\n      add\n      swap2\n      swap1\n      0x00\n      mstore\n      keccak256(0x00, 0x20)\n      swap1\n    tag_130:\n      dup2\n      sload\n      dup2\n      mstore\n      swap1\n      0x01\n      add\n      swap1\n      0x20\n      add\n      dup1\n      dup4\n      gt\n      tag_130\n      jumpi\n      dup3\n      swap1\n      sub\n      0x1f\n      and\n      dup3\n      add\n      swap2\n    tag_128:\n      pop\n      pop\n      pop\n      pop\n      pop\n      dup2\n      mstore\n      0x20\n      add\n      swap1\n      0x01\n      add\n      swap1\n      jump(tag_123)\n    tag_124:\n      pop\n      pop\n      pop\n      pop\n      dup2\n      mstore\n      0x20\n      add\n      0x04\n      dup3\n      add\n      dup1\n      sload\n      dup1\n      0x20\n      mul\n      0x20\n      add\n      mload(0x40)\n      swap1\n      dup2\n      add\n      0x40\n      mstore\n      dup1\n      swap3\n      swap2\n      swap1\n      dup2\n      dup2\n      mstore\n      0x20\n      add\n      dup3\n      dup1\n      sload\n      dup1\n      iszero\n      tag_131\n      jumpi\n      0x20\n      mul\n      dup3\n      add\n      swap2\n      swap1\n      0x00\n      mstore\n      keccak256(0x00, 0x20)\n      swap1\n    tag_132:\n      dup2\n      sload\n      dup2\n      mstore\n      0x20\n      add\n      swap1\n      0x01\n      add\n      swap1\n      dup1\n      dup4\n      gt\n      tag_132\n      jumpi\n    tag_131:\n      pop\n      pop\n      pop\n      pop\n      pop\n      dup2\n      mstore\n      0x20\n      add\n      0x05\n      dup3\n      add\n      dup1\n      sload\n      dup1\n      0x20\n      mul\n      0x20\n      add\n      mload(0x40)\n      swap1\n      dup2\n      add\n      0x40\n      mstore\n      dup1\n      swap3\n      swap2\n      swap1\n      dup2\n      dup2\n      mstore\n      0x20\n      add\n      dup3\n      dup1\n      sload\n      dup1\n      iszero\n      tag_133\n      jumpi\n      0x20\n      mul\n      dup3\n      add\n      swap2\n      swap1\n      0x00\n      mstore\n      keccak256(0x00, 0x20)\n      swap1\n    tag_134:\n      dup2\n      sload\n      dup2\n      mstore\n      0x20\n      add\n      swap1\n      0x01\n      add\n      swap1\n      dup1\n      dup4\n      gt\n      tag_134\n      jumpi\n    tag_133:\n      pop\n      pop\n      pop\n      pop\n      pop\n      dup2\n      mstore\n      pop\n      pop\n      swap1\n      pop\n        /* \"contracts/DataUsageSmartContract.sol\":5210:5440  function getDataUsageByKey(uint _actorConsentId) public view returns (DataUsage memory) {... */\n      swap2\n      swap1\n      pop\n      jump\t// out\n        /* \"contracts/DataUsageSmartContract.sol\":2035:2280  function getPersonalDataByKey(uint _personalDataId) public view returns (PersonalData memory) {... */\n    tag_48:\n        /* \"contracts/DataUsageSmartContract.sol\":2108:2127  PersonalData memory */\n      tag_135\n      tag_136\n      jump\t// in\n    tag_135:\n        /* \"contracts/DataUsageSmartContract.sol\":2190:2191  0 */\n      0x00\n        /* \"contracts/DataUsageSmartContract.sol\":2149:2162  personalDatas */\n      0x02\n        /* \"contracts/DataUsageSmartContract.sol\":2149:2179  personalDatas[_personalDataId] */\n      0x00\n        /* \"contracts/DataUsageSmartContract.sol\":2163:2178  _personalDataId */\n      dup5\n        /* \"contracts/DataUsageSmartContract.sol\":2149:2179  personalDatas[_personalDataId] */\n      dup2\n      mstore\n      0x20\n      add\n      swap1\n      dup2\n      mstore\n      0x20\n      add\n      0x00\n      keccak256\n        /* \"contracts/DataUsageSmartContract.sol\":2149:2186  personalDatas[_personalDataId].userId */\n      0x00\n      add\n      sload\n        /* \"contracts/DataUsageSmartContract.sol\":2149:2191  personalDatas[_personalDataId].userId != 0 */\n      sub\n        /* \"contracts/DataUsageSmartContract.sol\":2141:2224  require(personalDatas[_personalDataId].userId != 0, \"PersonalData does not exist.\") */\n      tag_138\n      jumpi\n      mload(0x40)\n      0x08c379a000000000000000000000000000000000000000000000000000000000\n      dup2\n      mstore\n      0x04\n      add\n      tag_139\n      swap1\n      tag_140\n      jump\t// in\n    tag_139:\n      mload(0x40)\n      dup1\n      swap2\n      sub\n      swap1\n      revert\n    tag_138:\n        /* \"contracts/DataUsageSmartContract.sol\":2242:2255  personalDatas */\n      0x02\n        /* \"contracts/DataUsageSmartContract.sol\":2242:2272  personalDatas[_personalDataId] */\n      0x00\n        /* \"contracts/DataUsageSmartContract.sol\":2256:2271  _personalDataId */\n      dup4\n        /* \"contracts/DataUsageSmartContract.sol\":2242:2272  personalDatas[_personalDataId] */\n      dup2\n      mstore\n      0x20\n      add\n      swap1\n      dup2\n      mstore\n      0x20\n      add\n      0x00\n      keccak256\n        /* \"contracts/DataUsageSmartContract.sol\":2235:2272  return personalDatas[_personalDataId] */\n      mload(0x40)\n      dup1\n      0xa0\n      add\n      0x40\n      mstore\n      swap1\n      dup2\n      0x00\n      dup3\n      add\n      sload\n      dup2\n      mstore\n      0x20\n      add\n      0x01\n      dup3\n      add\n      dup1\n      sload\n      tag_141\n      swap1\n      tag_113\n      jump\t// in\n    tag_141:\n      dup1\n      0x1f\n      add\n      0x20\n      dup1\n      swap2\n      div\n      mul\n      0x20\n      add\n      mload(0x40)\n      swap1\n      dup2\n      add\n      0x40\n      mstore\n      dup1\n      swap3\n      swap2\n      swap1\n      dup2\n      dup2\n      mstore\n      0x20\n      add\n      dup3\n      dup1\n      sload\n      tag_142\n      swap1\n      tag_113\n      jump\t// in\n    tag_142:\n      dup1\n      iszero\n      tag_143\n      jumpi\n      dup1\n      0x1f\n      lt\n      tag_144\n      jumpi\n      0x0100\n      dup1\n      dup4\n      sload\n      div\n      mul\n      dup4\n      mstore\n      swap2\n      0x20\n      add\n      swap2\n      jump(tag_143)\n    tag_144:\n      dup3\n      add\n      swap2\n      swap1\n      0x00\n      mstore\n      keccak256(0x00, 0x20)\n      swap1\n    tag_145:\n      dup2\n      sload\n      dup2\n      mstore\n      swap1\n      0x01\n      add\n      swap1\n      0x20\n      add\n      dup1\n      dup4\n      gt\n      tag_145\n      jumpi\n      dup3\n      swap1\n      sub\n      0x1f\n      and\n      dup3\n      add\n      swap2\n    tag_143:\n      pop\n      pop\n      pop\n      pop\n      pop\n      dup2\n      mstore\n      0x20\n      add\n      0x02\n      dup3\n      add\n      dup1\n      sload\n      tag_146\n      swap1\n      tag_113\n      jump\t// in\n    tag_146:\n      dup1\n      0x1f\n      add\n      0x20\n      dup1\n      swap2\n      div\n      mul\n      0x20\n      add\n      mload(0x40)\n      swap1\n      dup2\n      add\n      0x40\n      mstore\n      dup1\n      swap3\n      swap2\n      swap1\n      dup2\n      dup2\n      mstore\n      0x20\n      add\n      dup3\n      dup1\n      sload\n      tag_147\n      swap1\n      tag_113\n      jump\t// in\n    tag_147:\n      dup1\n      iszero\n      tag_148\n      jumpi\n      dup1\n      0x1f\n      lt\n      tag_149\n      jumpi\n      0x0100\n      dup1\n      dup4\n      sload\n      div\n      mul\n      dup4\n      mstore\n      swap2\n      0x20\n      add\n      swap2\n      jump(tag_148)\n    tag_149:\n      dup3\n      add\n      swap2\n      swap1\n      0x00\n      mstore\n      keccak256(0x00, 0x20)\n      swap1\n    tag_150:\n      dup2\n      sload\n      dup2\n      mstore\n      swap1\n      0x01\n      add\n      swap1\n      0x20\n      add\n      dup1\n      dup4\n      gt\n      tag_150\n      jumpi\n      dup3\n      swap1\n      sub\n      0x1f\n      and\n      dup3\n      add\n      swap2\n    tag_148:\n      pop\n      pop\n      pop\n      pop\n      pop\n      dup2\n      mstore\n      0x20\n      add\n      0x03\n      dup3\n      add\n      dup1\n      sload\n      tag_151\n      swap1\n      tag_113\n      jump\t// in\n    tag_151:\n      dup1\n      0x1f\n      add\n      0x20\n      dup1\n      swap2\n      div\n      mul\n      0x20\n      add\n      mload(0x40)\n      swap1\n      dup2\n      add\n      0x40\n      mstore\n      dup1\n      swap3\n      swap2\n      swap1\n      dup2\n      dup2\n      mstore\n      0x20\n      add\n      dup3\n      dup1\n      sload\n      tag_152\n      swap1\n      tag_113\n      jump\t// in\n    tag_152:\n      dup1\n      iszero\n      tag_153\n      jumpi\n      dup1\n      0x1f\n      lt\n      tag_154\n      jumpi\n      0x0100\n      dup1\n      dup4\n      sload\n      div\n      mul\n      dup4\n      mstore\n      swap2\n      0x20\n      add\n      swap2\n      jump(tag_153)\n    tag_154:\n      dup3\n      add\n      swap2\n      swap1\n      0x00\n      mstore\n      keccak256(0x00, 0x20)\n      swap1\n    tag_155:\n      dup2\n      sload\n      dup2\n      mstore\n      swap1\n      0x01\n      add\n      swap1\n      0x20\n      add\n      dup1\n      dup4\n      gt\n      tag_155\n      jumpi\n      dup3\n      swap1\n      sub\n      0x1f\n      and\n      dup3\n      add\n      swap2\n    tag_153:\n      pop\n      pop\n      pop\n      pop\n      pop\n      dup2\n      mstore\n      0x20\n      add\n      0x04\n      dup3\n      add\n      dup1\n      sload\n      dup1\n      0x20\n      mul\n      0x20\n      add\n      mload(0x40)\n      swap1\n      dup2\n      add\n      0x40\n      mstore\n      dup1\n      swap3\n      swap2\n      swap1\n      dup2\n      dup2\n      mstore\n      0x20\n      add\n      0x00\n      swap1\n    tag_156:\n      dup3\n      dup3\n      lt\n      iszero\n      tag_157\n      jumpi\n      dup4\n      dup3\n      swap1\n      0x00\n      mstore\n      keccak256(0x00, 0x20)\n      add\n      dup1\n      sload\n      tag_159\n      swap1\n      tag_113\n      jump\t// in\n    tag_159:\n      dup1\n      0x1f\n      add\n      0x20\n      dup1\n      swap2\n      div\n      mul\n      0x20\n      add\n      mload(0x40)\n      swap1\n      dup2\n      add\n      0x40\n      mstore\n      dup1\n      swap3\n      swap2\n      swap1\n      dup2\n      dup2\n      mstore\n      0x20\n      add\n      dup3\n      dup1\n      sload\n      tag_160\n      swap1\n      tag_113\n      jump\t// in\n    tag_160:\n      dup1\n      iszero\n      tag_161\n      jumpi\n      dup1\n      0x1f\n      lt\n      tag_162\n      jumpi\n      0x0100\n      dup1\n      dup4\n      sload\n      div\n      mul\n      dup4\n      mstore\n      swap2\n      0x20\n      add\n      swap2\n      jump(tag_161)\n    tag_162:\n      dup3\n      add\n      swap2\n      swap1\n      0x00\n      mstore\n      keccak256(0x00, 0x20)\n      swap1\n    tag_163:\n      dup2\n      sload\n      dup2\n      mstore\n      swap1\n      0x01\n      add\n      swap1\n      0x20\n      add\n      dup1\n      dup4\n      gt\n      tag_163\n      jumpi\n      dup3\n      swap1\n      sub\n      0x1f\n      and\n      dup3\n      add\n      swap2\n    tag_161:\n      pop\n      pop\n      pop\n      pop\n      pop\n      dup2\n      mstore\n      0x20\n      add\n      swap1\n      0x01\n      add\n      swap1\n      jump(tag_156)\n    tag_157:\n      pop\n      pop\n      pop\n      pop\n      dup2\n      mstore\n      pop\n      pop\n      swap1\n      pop\n        /* \"contracts/DataUsageSmartContract.sol\":2035:2280  function getPersonalDataByKey(uint _personalDataId) public view returns (PersonalData memory) {... */\n      swap2\n      swap1\n      pop\n      jump\t// out\n    tag_61:\n      dup3\n      dup1\n      sload\n      dup3\n      dup3\n      sstore\n      swap1\n      0x00\n      mstore\n      keccak256(0x00, 0x20)\n      swap1\n      dup2\n      add\n      swap3\n      dup3\n      iszero\n      tag_164\n      jumpi\n      swap2\n      0x20\n      mul\n      dup3\n      add\n    tag_165:\n      dup3\n      dup2\n      gt\n      iszero\n      tag_166\n      jumpi\n      dup3\n      mload\n      dup3\n      swap1\n      dup2\n      tag_167\n      swap2\n      swap1\n      tag_57\n      jump\t// in\n    tag_167:\n      pop\n      swap2\n      0x20\n      add\n      swap2\n      swap1\n      0x01\n      add\n      swap1\n      jump(tag_165)\n    tag_166:\n    tag_164:\n      pop\n      swap1\n      pop\n      tag_168\n      swap2\n      swap1\n      tag_169\n      jump\t// in\n    tag_168:\n      pop\n      swap1\n      jump\t// out\n    tag_102:\n      dup3\n      dup1\n      sload\n      dup3\n      dup3\n      sstore\n      swap1\n      0x00\n      mstore\n      keccak256(0x00, 0x20)\n      swap1\n      dup2\n      add\n      swap3\n      dup3\n      iszero\n      tag_170\n      jumpi\n      swap2\n      0x20\n      mul\n      dup3\n      add\n    tag_171:\n      dup3\n      dup2\n      gt\n      iszero\n      tag_172\n      jumpi\n      dup3\n      mload\n      dup3\n      sstore\n      swap2\n      0x20\n      add\n      swap2\n      swap1\n      0x01\n      add\n      swap1\n      jump(tag_171)\n    tag_172:\n    tag_170:\n      pop\n      swap1\n      pop\n      tag_173\n      swap2\n      swap1\n      tag_174\n      jump\t// in\n    tag_173:\n      pop\n      swap1\n      jump\t// out\n    tag_104:\n      dup3\n      dup1\n      sload\n      dup3\n      dup3\n      sstore\n      swap1\n      0x00\n      mstore\n      keccak256(0x00, 0x20)\n      swap1\n      dup2\n      add\n      swap3\n      dup3\n      iszero\n      tag_175\n      jumpi\n      swap2\n      0x20\n      mul\n      dup3\n      add\n    tag_176:\n      dup3\n      dup2\n      gt\n      iszero\n      tag_177\n      jumpi\n      dup3\n      mload\n      dup3\n      sstore\n      swap2\n      0x20\n      add\n      swap2\n      swap1\n      0x01\n      add\n      swap1\n      jump(tag_176)\n    tag_177:\n    tag_175:\n      pop\n      swap1\n      pop\n      tag_178\n      swap2\n      swap1\n      tag_179\n      jump\t// in\n    tag_178:\n      pop\n      swap1\n      jump\t// out\n    tag_107:\n      mload(0x40)\n      dup1\n      0xc0\n      add\n      0x40\n      mstore\n      dup1\n      0x60\n      dup2\n      mstore\n      0x20\n      add\n      0x60\n      dup2\n      mstore\n      0x20\n      add\n      0x00\n      dup2\n      mstore\n      0x20\n      add\n      0x60\n      dup2\n      mstore\n      0x20\n      add\n      0x60\n      dup2\n      mstore\n      0x20\n      add\n      0x60\n      dup2\n      mstore\n      pop\n      swap1\n      jump\t// out\n    tag_136:\n      mload(0x40)\n      dup1\n      0xa0\n      add\n      0x40\n      mstore\n      dup1\n      0x00\n      dup2\n      mstore\n      0x20\n      add\n      0x60\n      dup2\n      mstore\n      0x20\n      add\n      0x60\n      dup2\n      mstore\n      0x20\n      add\n      0x60\n      dup2\n      mstore\n      0x20\n      add\n      0x60\n      dup2\n      mstore\n      pop\n      swap1\n      jump\t// out\n    tag_169:\n    tag_180:\n      dup1\n      dup3\n      gt\n      iszero\n      tag_181\n      jumpi\n      0x00\n      dup2\n      dup2\n      tag_182\n      swap2\n      swap1\n      tag_183\n      jump\t// in\n    tag_182:\n      pop\n      0x01\n      add\n      jump(tag_180)\n    tag_181:\n      pop\n      swap1\n      jump\t// out\n    tag_174:\n    tag_184:\n      dup1\n      dup3\n      gt\n      iszero\n      tag_185\n      jumpi\n      0x00\n      dup2\n      0x00\n      swap1\n      sstore\n      pop\n      0x01\n      add\n      jump(tag_184)\n    tag_185:\n      pop\n      swap1\n      jump\t// out\n    tag_179:\n    tag_186:\n      dup1\n      dup3\n      gt\n      iszero\n      tag_187\n      jumpi\n      0x00\n      dup2\n      0x00\n      swap1\n      sstore\n      pop\n      0x01\n      add\n      jump(tag_186)\n    tag_187:\n      pop\n      swap1\n      jump\t// out\n    tag_183:\n      pop\n      dup1\n      sload\n      tag_188\n      swap1\n      tag_113\n      jump\t// in\n    tag_188:\n      0x00\n      dup3\n      sstore\n      dup1\n      0x1f\n      lt\n      tag_190\n      jumpi\n      pop\n      jump(tag_189)\n    tag_190:\n      0x1f\n      add\n      0x20\n      swap1\n      div\n      swap1\n      0x00\n      mstore\n      keccak256(0x00, 0x20)\n      swap1\n      dup2\n      add\n      swap1\n      tag_191\n      swap2\n      swap1\n      tag_174\n      jump\t// in\n    tag_191:\n    tag_189:\n      pop\n      jump\t// out\n        /* \"#utility.yul\":7:82   */\n    tag_192:\n        /* \"#utility.yul\":40:46   */\n      0x00\n        /* \"#utility.yul\":73:75   */\n      0x40\n        /* \"#utility.yul\":67:76   */\n      mload\n        /* \"#utility.yul\":57:76   */\n      swap1\n      pop\n        /* \"#utility.yul\":7:82   */\n      swap1\n      jump\t// out\n        /* \"#utility.yul\":88:205   */\n    tag_193:\n        /* \"#utility.yul\":197:198   */\n      0x00\n        /* \"#utility.yul\":194:195   */\n      dup1\n        /* \"#utility.yul\":187:199   */\n      revert\n        /* \"#utility.yul\":211:328   */\n    tag_194:\n        /* \"#utility.yul\":320:321   */\n      0x00\n        /* \"#utility.yul\":317:318   */\n      dup1\n        /* \"#utility.yul\":310:322   */\n      revert\n        /* \"#utility.yul\":334:411   */\n    tag_195:\n        /* \"#utility.yul\":371:378   */\n      0x00\n        /* \"#utility.yul\":400:405   */\n      dup2\n        /* \"#utility.yul\":389:405   */\n      swap1\n      pop\n        /* \"#utility.yul\":334:411   */\n      swap2\n      swap1\n      pop\n      jump\t// out\n        /* \"#utility.yul\":417:539   */\n    tag_196:\n        /* \"#utility.yul\":490:514   */\n      tag_281\n        /* \"#utility.yul\":508:513   */\n      dup2\n        /* \"#utility.yul\":490:514   */\n      tag_195\n      jump\t// in\n    tag_281:\n        /* \"#utility.yul\":483:488   */\n      dup2\n        /* \"#utility.yul\":480:515   */\n      eq\n        /* \"#utility.yul\":470:533   */\n      tag_282\n      jumpi\n        /* \"#utility.yul\":529:530   */\n      0x00\n        /* \"#utility.yul\":526:527   */\n      dup1\n        /* \"#utility.yul\":519:531   */\n      revert\n        /* \"#utility.yul\":470:533   */\n    tag_282:\n        /* \"#utility.yul\":417:539   */\n      pop\n      jump\t// out\n        /* \"#utility.yul\":545:684   */\n    tag_197:\n        /* \"#utility.yul\":591:596   */\n      0x00\n        /* \"#utility.yul\":629:635   */\n      dup2\n        /* \"#utility.yul\":616:636   */\n      calldataload\n        /* \"#utility.yul\":607:636   */\n      swap1\n      pop\n        /* \"#utility.yul\":645:678   */\n      tag_284\n        /* \"#utility.yul\":672:677   */\n      dup2\n        /* \"#utility.yul\":645:678   */\n      tag_196\n      jump\t// in\n    tag_284:\n        /* \"#utility.yul\":545:684   */\n      swap3\n      swap2\n      pop\n      pop\n      jump\t// out\n        /* \"#utility.yul\":690:807   */\n    tag_198:\n        /* \"#utility.yul\":799:800   */\n      0x00\n        /* \"#utility.yul\":796:797   */\n      dup1\n        /* \"#utility.yul\":789:801   */\n      revert\n        /* \"#utility.yul\":813:930   */\n    tag_199:\n        /* \"#utility.yul\":922:923   */\n      0x00\n        /* \"#utility.yul\":919:920   */\n      dup1\n        /* \"#utility.yul\":912:924   */\n      revert\n        /* \"#utility.yul\":936:1038   */\n    tag_200:\n        /* \"#utility.yul\":977:983   */\n      0x00\n        /* \"#utility.yul\":1028:1030   */\n      0x1f\n        /* \"#utility.yul\":1024:1031   */\n      not\n        /* \"#utility.yul\":1019:1021   */\n      0x1f\n        /* \"#utility.yul\":1012:1017   */\n      dup4\n        /* \"#utility.yul\":1008:1022   */\n      add\n        /* \"#utility.yul\":1004:1032   */\n      and\n        /* \"#utility.yul\":994:1032   */\n      swap1\n      pop\n        /* \"#utility.yul\":936:1038   */\n      swap2\n      swap1\n      pop\n      jump\t// out\n        /* \"#utility.yul\":1044:1224   */\n    tag_88:\n        /* \"#utility.yul\":1092:1169   */\n      0x4e487b7100000000000000000000000000000000000000000000000000000000\n        /* \"#utility.yul\":1089:1090   */\n      0x00\n        /* \"#utility.yul\":1082:1170   */\n      mstore\n        /* \"#utility.yul\":1189:1193   */\n      0x41\n        /* \"#utility.yul\":1186:1187   */\n      0x04\n        /* \"#utility.yul\":1179:1194   */\n      mstore\n        /* \"#utility.yul\":1213:1217   */\n      0x24\n        /* \"#utility.yul\":1210:1211   */\n      0x00\n        /* \"#utility.yul\":1203:1218   */\n      revert\n        /* \"#utility.yul\":1230:1511   */\n    tag_201:\n        /* \"#utility.yul\":1313:1340   */\n      tag_290\n        /* \"#utility.yul\":1335:1339   */\n      dup3\n        /* \"#utility.yul\":1313:1340   */\n      tag_200\n      jump\t// in\n    tag_290:\n        /* \"#utility.yul\":1305:1311   */\n      dup2\n        /* \"#utility.yul\":1301:1341   */\n      add\n        /* \"#utility.yul\":1443:1449   */\n      dup2\n        /* \"#utility.yul\":1431:1441   */\n      dup2\n        /* \"#utility.yul\":1428:1450   */\n      lt\n        /* \"#utility.yul\":1407:1425   */\n      0xffffffffffffffff\n        /* \"#utility.yul\":1395:1405   */\n      dup3\n        /* \"#utility.yul\":1392:1426   */\n      gt\n        /* \"#utility.yul\":1389:1451   */\n      or\n        /* \"#utility.yul\":1386:1474   */\n      iszero\n      tag_291\n      jumpi\n        /* \"#utility.yul\":1454:1472   */\n      tag_292\n      tag_88\n      jump\t// in\n    tag_292:\n        /* \"#utility.yul\":1386:1474   */\n    tag_291:\n        /* \"#utility.yul\":1494:1504   */\n      dup1\n        /* \"#utility.yul\":1490:1492   */\n      0x40\n        /* \"#utility.yul\":1483:1505   */\n      mstore\n        /* \"#utility.yul\":1273:1511   */\n      pop\n        /* \"#utility.yul\":1230:1511   */\n      pop\n      pop\n      jump\t// out\n        /* \"#utility.yul\":1517:1646   */\n    tag_202:\n        /* \"#utility.yul\":1551:1557   */\n      0x00\n        /* \"#utility.yul\":1578:1598   */\n      tag_294\n      tag_192\n      jump\t// in\n    tag_294:\n        /* \"#utility.yul\":1568:1598   */\n      swap1\n      pop\n        /* \"#utility.yul\":1607:1640   */\n      tag_295\n        /* \"#utility.yul\":1635:1639   */\n      dup3\n        /* \"#utility.yul\":1627:1633   */\n      dup3\n        /* \"#utility.yul\":1607:1640   */\n      tag_201\n      jump\t// in\n    tag_295:\n        /* \"#utility.yul\":1517:1646   */\n      swap2\n      swap1\n      pop\n      jump\t// out\n        /* \"#utility.yul\":1652:1960   */\n    tag_203:\n        /* \"#utility.yul\":1714:1718   */\n      0x00\n        /* \"#utility.yul\":1804:1822   */\n      0xffffffffffffffff\n        /* \"#utility.yul\":1796:1802   */\n      dup3\n        /* \"#utility.yul\":1793:1823   */\n      gt\n        /* \"#utility.yul\":1790:1846   */\n      iszero\n      tag_297\n      jumpi\n        /* \"#utility.yul\":1826:1844   */\n      tag_298\n      tag_88\n      jump\t// in\n    tag_298:\n        /* \"#utility.yul\":1790:1846   */\n    tag_297:\n        /* \"#utility.yul\":1864:1893   */\n      tag_299\n        /* \"#utility.yul\":1886:1892   */\n      dup3\n        /* \"#utility.yul\":1864:1893   */\n      tag_200\n      jump\t// in\n    tag_299:\n        /* \"#utility.yul\":1856:1893   */\n      swap1\n      pop\n        /* \"#utility.yul\":1948:1952   */\n      0x20\n        /* \"#utility.yul\":1942:1946   */\n      dup2\n        /* \"#utility.yul\":1938:1953   */\n      add\n        /* \"#utility.yul\":1930:1953   */\n      swap1\n      pop\n        /* \"#utility.yul\":1652:1960   */\n      swap2\n      swap1\n      pop\n      jump\t// out\n        /* \"#utility.yul\":1966:2112   */\n    tag_204:\n        /* \"#utility.yul\":2063:2069   */\n      dup3\n        /* \"#utility.yul\":2058:2061   */\n      dup2\n        /* \"#utility.yul\":2053:2056   */\n      dup4\n        /* \"#utility.yul\":2040:2070   */\n      calldatacopy\n        /* \"#utility.yul\":2104:2105   */\n      0x00\n        /* \"#utility.yul\":2095:2101   */\n      dup4\n        /* \"#utility.yul\":2090:2093   */\n      dup4\n        /* \"#utility.yul\":2086:2102   */\n      add\n        /* \"#utility.yul\":2079:2106   */\n      mstore\n        /* \"#utility.yul\":1966:2112   */\n      pop\n      pop\n      pop\n      jump\t// out\n        /* \"#utility.yul\":2118:2543   */\n    tag_205:\n        /* \"#utility.yul\":2196:2201   */\n      0x00\n        /* \"#utility.yul\":2221:2287   */\n      tag_302\n        /* \"#utility.yul\":2237:2286   */\n      tag_303\n        /* \"#utility.yul\":2279:2285   */\n      dup5\n        /* \"#utility.yul\":2237:2286   */\n      tag_203\n      jump\t// in\n    tag_303:\n        /* \"#utility.yul\":2221:2287   */\n      tag_202\n      jump\t// in\n    tag_302:\n        /* \"#utility.yul\":2212:2287   */\n      swap1\n      pop\n        /* \"#utility.yul\":2310:2316   */\n      dup3\n        /* \"#utility.yul\":2303:2308   */\n      dup2\n        /* \"#utility.yul\":2296:2317   */\n      mstore\n        /* \"#utility.yul\":2348:2352   */\n      0x20\n        /* \"#utility.yul\":2341:2346   */\n      dup2\n        /* \"#utility.yul\":2337:2353   */\n      add\n        /* \"#utility.yul\":2386:2389   */\n      dup5\n        /* \"#utility.yul\":2377:2383   */\n      dup5\n        /* \"#utility.yul\":2372:2375   */\n      dup5\n        /* \"#utility.yul\":2368:2384   */\n      add\n        /* \"#utility.yul\":2365:2390   */\n      gt\n        /* \"#utility.yul\":2362:2474   */\n      iszero\n      tag_304\n      jumpi\n        /* \"#utility.yul\":2393:2472   */\n      tag_305\n      tag_199\n      jump\t// in\n    tag_305:\n        /* \"#utility.yul\":2362:2474   */\n    tag_304:\n        /* \"#utility.yul\":2483:2537   */\n      tag_306\n        /* \"#utility.yul\":2530:2536   */\n      dup5\n        /* \"#utility.yul\":2525:2528   */\n      dup3\n        /* \"#utility.yul\":2520:2523   */\n      dup6\n        /* \"#utility.yul\":2483:2537   */\n      tag_204\n      jump\t// in\n    tag_306:\n        /* \"#utility.yul\":2202:2543   */\n      pop\n        /* \"#utility.yul\":2118:2543   */\n      swap4\n      swap3\n      pop\n      pop\n      pop\n      jump\t// out\n        /* \"#utility.yul\":2563:2903   */\n    tag_206:\n        /* \"#utility.yul\":2619:2624   */\n      0x00\n        /* \"#utility.yul\":2668:2671   */\n      dup3\n        /* \"#utility.yul\":2661:2665   */\n      0x1f\n        /* \"#utility.yul\":2653:2659   */\n      dup4\n        /* \"#utility.yul\":2649:2666   */\n      add\n        /* \"#utility.yul\":2645:2672   */\n      slt\n        /* \"#utility.yul\":2635:2757   */\n      tag_308\n      jumpi\n        /* \"#utility.yul\":2676:2755   */\n      tag_309\n      tag_198\n      jump\t// in\n    tag_309:\n        /* \"#utility.yul\":2635:2757   */\n    tag_308:\n        /* \"#utility.yul\":2793:2799   */\n      dup2\n        /* \"#utility.yul\":2780:2800   */\n      calldataload\n        /* \"#utility.yul\":2818:2897   */\n      tag_310\n        /* \"#utility.yul\":2893:2896   */\n      dup5\n        /* \"#utility.yul\":2885:2891   */\n      dup3\n        /* \"#utility.yul\":2878:2882   */\n      0x20\n        /* \"#utility.yul\":2870:2876   */\n      dup7\n        /* \"#utility.yul\":2866:2883   */\n      add\n        /* \"#utility.yul\":2818:2897   */\n      tag_205\n      jump\t// in\n    tag_310:\n        /* \"#utility.yul\":2809:2897   */\n      swap2\n      pop\n        /* \"#utility.yul\":2625:2903   */\n      pop\n        /* \"#utility.yul\":2563:2903   */\n      swap3\n      swap2\n      pop\n      pop\n      jump\t// out\n        /* \"#utility.yul\":2909:3230   */\n    tag_207:\n        /* \"#utility.yul\":2996:3000   */\n      0x00\n        /* \"#utility.yul\":3086:3104   */\n      0xffffffffffffffff\n        /* \"#utility.yul\":3078:3084   */\n      dup3\n        /* \"#utility.yul\":3075:3105   */\n      gt\n        /* \"#utility.yul\":3072:3128   */\n      iszero\n      tag_312\n      jumpi\n        /* \"#utility.yul\":3108:3126   */\n      tag_313\n      tag_88\n      jump\t// in\n    tag_313:\n        /* \"#utility.yul\":3072:3128   */\n    tag_312:\n        /* \"#utility.yul\":3158:3162   */\n      0x20\n        /* \"#utility.yul\":3150:3156   */\n      dup3\n        /* \"#utility.yul\":3146:3163   */\n      mul\n        /* \"#utility.yul\":3138:3163   */\n      swap1\n      pop\n        /* \"#utility.yul\":3218:3222   */\n      0x20\n        /* \"#utility.yul\":3212:3216   */\n      dup2\n        /* \"#utility.yul\":3208:3223   */\n      add\n        /* \"#utility.yul\":3200:3223   */\n      swap1\n      pop\n        /* \"#utility.yul\":2909:3230   */\n      swap2\n      swap1\n      pop\n      jump\t// out\n        /* \"#utility.yul\":3236:3353   */\n    tag_208:\n        /* \"#utility.yul\":3345:3346   */\n      0x00\n        /* \"#utility.yul\":3342:3343   */\n      dup1\n        /* \"#utility.yul\":3335:3347   */\n      revert\n        /* \"#utility.yul\":3375:4320   */\n    tag_209:\n        /* \"#utility.yul\":3481:3486   */\n      0x00\n        /* \"#utility.yul\":3506:3597   */\n      tag_316\n        /* \"#utility.yul\":3522:3596   */\n      tag_317\n        /* \"#utility.yul\":3589:3595   */\n      dup5\n        /* \"#utility.yul\":3522:3596   */\n      tag_207\n      jump\t// in\n    tag_317:\n        /* \"#utility.yul\":3506:3597   */\n      tag_202\n      jump\t// in\n    tag_316:\n        /* \"#utility.yul\":3497:3597   */\n      swap1\n      pop\n        /* \"#utility.yul\":3617:3622   */\n      dup1\n        /* \"#utility.yul\":3646:3652   */\n      dup4\n        /* \"#utility.yul\":3639:3644   */\n      dup3\n        /* \"#utility.yul\":3632:3653   */\n      mstore\n        /* \"#utility.yul\":3680:3684   */\n      0x20\n        /* \"#utility.yul\":3673:3678   */\n      dup3\n        /* \"#utility.yul\":3669:3685   */\n      add\n        /* \"#utility.yul\":3662:3685   */\n      swap1\n      pop\n        /* \"#utility.yul\":3733:3737   */\n      0x20\n        /* \"#utility.yul\":3725:3731   */\n      dup5\n        /* \"#utility.yul\":3721:3738   */\n      mul\n        /* \"#utility.yul\":3713:3719   */\n      dup4\n        /* \"#utility.yul\":3709:3739   */\n      add\n        /* \"#utility.yul\":3762:3765   */\n      dup6\n        /* \"#utility.yul\":3754:3760   */\n      dup2\n        /* \"#utility.yul\":3751:3766   */\n      gt\n        /* \"#utility.yul\":3748:3870   */\n      iszero\n      tag_318\n      jumpi\n        /* \"#utility.yul\":3781:3860   */\n      tag_319\n      tag_208\n      jump\t// in\n    tag_319:\n        /* \"#utility.yul\":3748:3870   */\n    tag_318:\n        /* \"#utility.yul\":3896:3902   */\n      dup4\n        /* \"#utility.yul\":3879:4314   */\n    tag_320:\n        /* \"#utility.yul\":3913:3919   */\n      dup2\n        /* \"#utility.yul\":3908:3911   */\n      dup2\n        /* \"#utility.yul\":3905:3920   */\n      lt\n        /* \"#utility.yul\":3879:4314   */\n      iszero\n      tag_322\n      jumpi\n        /* \"#utility.yul\":4002:4005   */\n      dup1\n        /* \"#utility.yul\":3989:4006   */\n      calldataload\n        /* \"#utility.yul\":4038:4056   */\n      0xffffffffffffffff\n        /* \"#utility.yul\":4025:4036   */\n      dup2\n        /* \"#utility.yul\":4022:4057   */\n      gt\n        /* \"#utility.yul\":4019:4141   */\n      iszero\n      tag_323\n      jumpi\n        /* \"#utility.yul\":4060:4139   */\n      tag_324\n      tag_198\n      jump\t// in\n    tag_324:\n        /* \"#utility.yul\":4019:4141   */\n    tag_323:\n        /* \"#utility.yul\":4184:4195   */\n      dup1\n        /* \"#utility.yul\":4176:4182   */\n      dup7\n        /* \"#utility.yul\":4172:4196   */\n      add\n        /* \"#utility.yul\":4222:4269   */\n      tag_325\n        /* \"#utility.yul\":4265:4268   */\n      dup10\n        /* \"#utility.yul\":4253:4263   */\n      dup3\n        /* \"#utility.yul\":4222:4269   */\n      tag_206\n      jump\t// in\n    tag_325:\n        /* \"#utility.yul\":4217:4220   */\n      dup6\n        /* \"#utility.yul\":4210:4270   */\n      mstore\n        /* \"#utility.yul\":4299:4303   */\n      0x20\n        /* \"#utility.yul\":4294:4297   */\n      dup6\n        /* \"#utility.yul\":4290:4304   */\n      add\n        /* \"#utility.yul\":4283:4304   */\n      swap5\n      pop\n        /* \"#utility.yul\":3955:4314   */\n      pop\n      pop\n        /* \"#utility.yul\":3939:3943   */\n      0x20\n        /* \"#utility.yul\":3934:3937   */\n      dup2\n        /* \"#utility.yul\":3930:3944   */\n      add\n        /* \"#utility.yul\":3923:3944   */\n      swap1\n      pop\n        /* \"#utility.yul\":3879:4314   */\n      jump(tag_320)\n    tag_322:\n        /* \"#utility.yul\":3883:3904   */\n      pop\n        /* \"#utility.yul\":3487:4320   */\n      pop\n      pop\n        /* \"#utility.yul\":3375:4320   */\n      swap4\n      swap3\n      pop\n      pop\n      pop\n      jump\t// out\n        /* \"#utility.yul\":4342:4732   */\n    tag_210:\n        /* \"#utility.yul\":4423:4428   */\n      0x00\n        /* \"#utility.yul\":4472:4475   */\n      dup3\n        /* \"#utility.yul\":4465:4469   */\n      0x1f\n        /* \"#utility.yul\":4457:4463   */\n      dup4\n        /* \"#utility.yul\":4453:4470   */\n      add\n        /* \"#utility.yul\":4449:4476   */\n      slt\n        /* \"#utility.yul\":4439:4561   */\n      tag_327\n      jumpi\n        /* \"#utility.yul\":4480:4559   */\n      tag_328\n      tag_198\n      jump\t// in\n    tag_328:\n        /* \"#utility.yul\":4439:4561   */\n    tag_327:\n        /* \"#utility.yul\":4597:4603   */\n      dup2\n        /* \"#utility.yul\":4584:4604   */\n      calldataload\n        /* \"#utility.yul\":4622:4726   */\n      tag_329\n        /* \"#utility.yul\":4722:4725   */\n      dup5\n        /* \"#utility.yul\":4714:4720   */\n      dup3\n        /* \"#utility.yul\":4707:4711   */\n      0x20\n        /* \"#utility.yul\":4699:4705   */\n      dup7\n        /* \"#utility.yul\":4695:4712   */\n      add\n        /* \"#utility.yul\":4622:4726   */\n      tag_209\n      jump\t// in\n    tag_329:\n        /* \"#utility.yul\":4613:4726   */\n      swap2\n      pop\n        /* \"#utility.yul\":4429:4732   */\n      pop\n        /* \"#utility.yul\":4342:4732   */\n      swap3\n      swap2\n      pop\n      pop\n      jump\t// out\n        /* \"#utility.yul\":4738:6419   */\n    tag_15:\n        /* \"#utility.yul\":4898:4904   */\n      0x00\n        /* \"#utility.yul\":4906:4912   */\n      dup1\n        /* \"#utility.yul\":4914:4920   */\n      0x00\n        /* \"#utility.yul\":4922:4928   */\n      dup1\n        /* \"#utility.yul\":4930:4936   */\n      0x00\n        /* \"#utility.yul\":4979:4982   */\n      0xa0\n        /* \"#utility.yul\":4967:4976   */\n      dup7\n        /* \"#utility.yul\":4958:4965   */\n      dup9\n        /* \"#utility.yul\":4954:4977   */\n      sub\n        /* \"#utility.yul\":4950:4983   */\n      slt\n        /* \"#utility.yul\":4947:5067   */\n      iszero\n      tag_331\n      jumpi\n        /* \"#utility.yul\":4986:5065   */\n      tag_332\n      tag_193\n      jump\t// in\n    tag_332:\n        /* \"#utility.yul\":4947:5067   */\n    tag_331:\n        /* \"#utility.yul\":5106:5107   */\n      0x00\n        /* \"#utility.yul\":5131:5184   */\n      tag_333\n        /* \"#utility.yul\":5176:5183   */\n      dup9\n        /* \"#utility.yul\":5167:5173   */\n      dup3\n        /* \"#utility.yul\":5156:5165   */\n      dup10\n        /* \"#utility.yul\":5152:5174   */\n      add\n        /* \"#utility.yul\":5131:5184   */\n      tag_197\n      jump\t// in\n    tag_333:\n        /* \"#utility.yul\":5121:5184   */\n      swap6\n      pop\n        /* \"#utility.yul\":5077:5194   */\n      pop\n        /* \"#utility.yul\":5261:5263   */\n      0x20\n        /* \"#utility.yul\":5250:5259   */\n      dup7\n        /* \"#utility.yul\":5246:5264   */\n      add\n        /* \"#utility.yul\":5233:5265   */\n      calldataload\n        /* \"#utility.yul\":5292:5310   */\n      0xffffffffffffffff\n        /* \"#utility.yul\":5284:5290   */\n      dup2\n        /* \"#utility.yul\":5281:5311   */\n      gt\n        /* \"#utility.yul\":5278:5395   */\n      iszero\n      tag_334\n      jumpi\n        /* \"#utility.yul\":5314:5393   */\n      tag_335\n      tag_194\n      jump\t// in\n    tag_335:\n        /* \"#utility.yul\":5278:5395   */\n    tag_334:\n        /* \"#utility.yul\":5419:5482   */\n      tag_336\n        /* \"#utility.yul\":5474:5481   */\n      dup9\n        /* \"#utility.yul\":5465:5471   */\n      dup3\n        /* \"#utility.yul\":5454:5463   */\n      dup10\n        /* \"#utility.yul\":5450:5472   */\n      add\n        /* \"#utility.yul\":5419:5482   */\n      tag_206\n      jump\t// in\n    tag_336:\n        /* \"#utility.yul\":5409:5482   */\n      swap5\n      pop\n        /* \"#utility.yul\":5204:5492   */\n      pop\n        /* \"#utility.yul\":5559:5561   */\n      0x40\n        /* \"#utility.yul\":5548:5557   */\n      dup7\n        /* \"#utility.yul\":5544:5562   */\n      add\n        /* \"#utility.yul\":5531:5563   */\n      calldataload\n        /* \"#utility.yul\":5590:5608   */\n      0xffffffffffffffff\n        /* \"#utility.yul\":5582:5588   */\n      dup2\n        /* \"#utility.yul\":5579:5609   */\n      gt\n        /* \"#utility.yul\":5576:5693   */\n      iszero\n      tag_337\n      jumpi\n        /* \"#utility.yul\":5612:5691   */\n      tag_338\n      tag_194\n      jump\t// in\n    tag_338:\n        /* \"#utility.yul\":5576:5693   */\n    tag_337:\n        /* \"#utility.yul\":5717:5780   */\n      tag_339\n        /* \"#utility.yul\":5772:5779   */\n      dup9\n        /* \"#utility.yul\":5763:5769   */\n      dup3\n        /* \"#utility.yul\":5752:5761   */\n      dup10\n        /* \"#utility.yul\":5748:5770   */\n      add\n        /* \"#utility.yul\":5717:5780   */\n      tag_206\n      jump\t// in\n    tag_339:\n        /* \"#utility.yul\":5707:5780   */\n      swap4\n      pop\n        /* \"#utility.yul\":5502:5790   */\n      pop\n        /* \"#utility.yul\":5857:5859   */\n      0x60\n        /* \"#utility.yul\":5846:5855   */\n      dup7\n        /* \"#utility.yul\":5842:5860   */\n      add\n        /* \"#utility.yul\":5829:5861   */\n      calldataload\n        /* \"#utility.yul\":5888:5906   */\n      0xffffffffffffffff\n        /* \"#utility.yul\":5880:5886   */\n      dup2\n        /* \"#utility.yul\":5877:5907   */\n      gt\n        /* \"#utility.yul\":5874:5991   */\n      iszero\n      tag_340\n      jumpi\n        /* \"#utility.yul\":5910:5989   */\n      tag_341\n      tag_194\n      jump\t// in\n    tag_341:\n        /* \"#utility.yul\":5874:5991   */\n    tag_340:\n        /* \"#utility.yul\":6015:6078   */\n      tag_342\n        /* \"#utility.yul\":6070:6077   */\n      dup9\n        /* \"#utility.yul\":6061:6067   */\n      dup3\n        /* \"#utility.yul\":6050:6059   */\n      dup10\n        /* \"#utility.yul\":6046:6068   */\n      add\n        /* \"#utility.yul\":6015:6078   */\n      tag_206\n      jump\t// in\n    tag_342:\n        /* \"#utility.yul\":6005:6078   */\n      swap3\n      pop\n        /* \"#utility.yul\":5800:6088   */\n      pop\n        /* \"#utility.yul\":6155:6158   */\n      0x80\n        /* \"#utility.yul\":6144:6153   */\n      dup7\n        /* \"#utility.yul\":6140:6159   */\n      add\n        /* \"#utility.yul\":6127:6160   */\n      calldataload\n        /* \"#utility.yul\":6187:6205   */\n      0xffffffffffffffff\n        /* \"#utility.yul\":6179:6185   */\n      dup2\n        /* \"#utility.yul\":6176:6206   */\n      gt\n        /* \"#utility.yul\":6173:6290   */\n      iszero\n      tag_343\n      jumpi\n        /* \"#utility.yul\":6209:6288   */\n      tag_344\n      tag_194\n      jump\t// in\n    tag_344:\n        /* \"#utility.yul\":6173:6290   */\n    tag_343:\n        /* \"#utility.yul\":6314:6402   */\n      tag_345\n        /* \"#utility.yul\":6394:6401   */\n      dup9\n        /* \"#utility.yul\":6385:6391   */\n      dup3\n        /* \"#utility.yul\":6374:6383   */\n      dup10\n        /* \"#utility.yul\":6370:6392   */\n      add\n        /* \"#utility.yul\":6314:6402   */\n      tag_210\n      jump\t// in\n    tag_345:\n        /* \"#utility.yul\":6304:6402   */\n      swap2\n      pop\n        /* \"#utility.yul\":6098:6412   */\n      pop\n        /* \"#utility.yul\":4738:6419   */\n      swap3\n      swap6\n      pop\n      swap3\n      swap6\n      swap1\n      swap4\n      pop\n      jump\t// out\n        /* \"#utility.yul\":6425:6754   */\n    tag_19:\n        /* \"#utility.yul\":6484:6490   */\n      0x00\n        /* \"#utility.yul\":6533:6535   */\n      0x20\n        /* \"#utility.yul\":6521:6530   */\n      dup3\n        /* \"#utility.yul\":6512:6519   */\n      dup5\n        /* \"#utility.yul\":6508:6531   */\n      sub\n        /* \"#utility.yul\":6504:6536   */\n      slt\n        /* \"#utility.yul\":6501:6620   */\n      iszero\n      tag_347\n      jumpi\n        /* \"#utility.yul\":6539:6618   */\n      tag_348\n      tag_193\n      jump\t// in\n    tag_348:\n        /* \"#utility.yul\":6501:6620   */\n    tag_347:\n        /* \"#utility.yul\":6659:6660   */\n      0x00\n        /* \"#utility.yul\":6684:6737   */\n      tag_349\n        /* \"#utility.yul\":6729:6736   */\n      dup5\n        /* \"#utility.yul\":6720:6726   */\n      dup3\n        /* \"#utility.yul\":6709:6718   */\n      dup6\n        /* \"#utility.yul\":6705:6727   */\n      add\n        /* \"#utility.yul\":6684:6737   */\n      tag_197\n      jump\t// in\n    tag_349:\n        /* \"#utility.yul\":6674:6737   */\n      swap2\n      pop\n        /* \"#utility.yul\":6630:6747   */\n      pop\n        /* \"#utility.yul\":6425:6754   */\n      swap3\n      swap2\n      pop\n      pop\n      jump\t// out\n        /* \"#utility.yul\":6760:6878   */\n    tag_211:\n        /* \"#utility.yul\":6847:6871   */\n      tag_351\n        /* \"#utility.yul\":6865:6870   */\n      dup2\n        /* \"#utility.yul\":6847:6871   */\n      tag_195\n      jump\t// in\n    tag_351:\n        /* \"#utility.yul\":6842:6845   */\n      dup3\n        /* \"#utility.yul\":6835:6872   */\n      mstore\n        /* \"#utility.yul\":6760:6878   */\n      pop\n      pop\n      jump\t// out\n        /* \"#utility.yul\":6884:7106   */\n    tag_24:\n        /* \"#utility.yul\":6977:6981   */\n      0x00\n        /* \"#utility.yul\":7015:7017   */\n      0x20\n        /* \"#utility.yul\":7004:7013   */\n      dup3\n        /* \"#utility.yul\":7000:7018   */\n      add\n        /* \"#utility.yul\":6992:7018   */\n      swap1\n      pop\n        /* \"#utility.yul\":7028:7099   */\n      tag_353\n        /* \"#utility.yul\":7096:7097   */\n      0x00\n        /* \"#utility.yul\":7085:7094   */\n      dup4\n        /* \"#utility.yul\":7081:7098   */\n      add\n        /* \"#utility.yul\":7072:7078   */\n      dup5\n        /* \"#utility.yul\":7028:7099   */\n      tag_211\n      jump\t// in\n    tag_353:\n        /* \"#utility.yul\":6884:7106   */\n      swap3\n      swap2\n      pop\n      pop\n      jump\t// out\n        /* \"#utility.yul\":7112:7238   */\n    tag_212:\n        /* \"#utility.yul\":7149:7156   */\n      0x00\n        /* \"#utility.yul\":7189:7231   */\n      0xffffffffffffffffffffffffffffffffffffffff\n        /* \"#utility.yul\":7182:7187   */\n      dup3\n        /* \"#utility.yul\":7178:7232   */\n      and\n        /* \"#utility.yul\":7167:7232   */\n      swap1\n      pop\n        /* \"#utility.yul\":7112:7238   */\n      swap2\n      swap1\n      pop\n      jump\t// out\n        /* \"#utility.yul\":7244:7340   */\n    tag_213:\n        /* \"#utility.yul\":7281:7288   */\n      0x00\n        /* \"#utility.yul\":7310:7334   */\n      tag_356\n        /* \"#utility.yul\":7328:7333   */\n      dup3\n        /* \"#utility.yul\":7310:7334   */\n      tag_212\n      jump\t// in\n    tag_356:\n        /* \"#utility.yul\":7299:7334   */\n      swap1\n      pop\n        /* \"#utility.yul\":7244:7340   */\n      swap2\n      swap1\n      pop\n      jump\t// out\n        /* \"#utility.yul\":7346:7464   */\n    tag_214:\n        /* \"#utility.yul\":7433:7457   */\n      tag_358\n        /* \"#utility.yul\":7451:7456   */\n      dup2\n        /* \"#utility.yul\":7433:7457   */\n      tag_213\n      jump\t// in\n    tag_358:\n        /* \"#utility.yul\":7428:7431   */\n      dup3\n        /* \"#utility.yul\":7421:7458   */\n      mstore\n        /* \"#utility.yul\":7346:7464   */\n      pop\n      pop\n      jump\t// out\n        /* \"#utility.yul\":7470:7692   */\n    tag_31:\n        /* \"#utility.yul\":7563:7567   */\n      0x00\n        /* \"#utility.yul\":7601:7603   */\n      0x20\n        /* \"#utility.yul\":7590:7599   */\n      dup3\n        /* \"#utility.yul\":7586:7604   */\n      add\n        /* \"#utility.yul\":7578:7604   */\n      swap1\n      pop\n        /* \"#utility.yul\":7614:7685   */\n      tag_360\n        /* \"#utility.yul\":7682:7683   */\n      0x00\n        /* \"#utility.yul\":7671:7680   */\n      dup4\n        /* \"#utility.yul\":7667:7684   */\n      add\n        /* \"#utility.yul\":7658:7664   */\n      dup5\n        /* \"#utility.yul\":7614:7685   */\n      tag_214\n      jump\t// in\n    tag_360:\n        /* \"#utility.yul\":7470:7692   */\n      swap3\n      swap2\n      pop\n      pop\n      jump\t// out\n        /* \"#utility.yul\":7698:7775   */\n    tag_215:\n        /* \"#utility.yul\":7735:7742   */\n      0x00\n        /* \"#utility.yul\":7764:7769   */\n      dup2\n        /* \"#utility.yul\":7753:7769   */\n      swap1\n      pop\n        /* \"#utility.yul\":7698:7775   */\n      swap2\n      swap1\n      pop\n      jump\t// out\n        /* \"#utility.yul\":7781:7899   */\n    tag_216:\n        /* \"#utility.yul\":7868:7892   */\n      tag_363\n        /* \"#utility.yul\":7886:7891   */\n      dup2\n        /* \"#utility.yul\":7868:7892   */\n      tag_215\n      jump\t// in\n    tag_363:\n        /* \"#utility.yul\":7863:7866   */\n      dup3\n        /* \"#utility.yul\":7856:7893   */\n      mstore\n        /* \"#utility.yul\":7781:7899   */\n      pop\n      pop\n      jump\t// out\n        /* \"#utility.yul\":7905:8127   */\n    tag_36:\n        /* \"#utility.yul\":7998:8002   */\n      0x00\n        /* \"#utility.yul\":8036:8038   */\n      0x20\n        /* \"#utility.yul\":8025:8034   */\n      dup3\n        /* \"#utility.yul\":8021:8039   */\n      add\n        /* \"#utility.yul\":8013:8039   */\n      swap1\n      pop\n        /* \"#utility.yul\":8049:8120   */\n      tag_365\n        /* \"#utility.yul\":8117:8118   */\n      0x00\n        /* \"#utility.yul\":8106:8115   */\n      dup4\n        /* \"#utility.yul\":8102:8119   */\n      add\n        /* \"#utility.yul\":8093:8099   */\n      dup5\n        /* \"#utility.yul\":8049:8120   */\n      tag_216\n      jump\t// in\n    tag_365:\n        /* \"#utility.yul\":7905:8127   */\n      swap3\n      swap2\n      pop\n      pop\n      jump\t// out\n        /* \"#utility.yul\":8133:8444   */\n    tag_217:\n        /* \"#utility.yul\":8210:8214   */\n      0x00\n        /* \"#utility.yul\":8300:8318   */\n      0xffffffffffffffff\n        /* \"#utility.yul\":8292:8298   */\n      dup3\n        /* \"#utility.yul\":8289:8319   */\n      gt\n        /* \"#utility.yul\":8286:8342   */\n      iszero\n      tag_367\n      jumpi\n        /* \"#utility.yul\":8322:8340   */\n      tag_368\n      tag_88\n      jump\t// in\n    tag_368:\n        /* \"#utility.yul\":8286:8342   */\n    tag_367:\n        /* \"#utility.yul\":8372:8376   */\n      0x20\n        /* \"#utility.yul\":8364:8370   */\n      dup3\n        /* \"#utility.yul\":8360:8377   */\n      mul\n        /* \"#utility.yul\":8352:8377   */\n      swap1\n      pop\n        /* \"#utility.yul\":8432:8436   */\n      0x20\n        /* \"#utility.yul\":8426:8430   */\n      dup2\n        /* \"#utility.yul\":8422:8437   */\n      add\n        /* \"#utility.yul\":8414:8437   */\n      swap1\n      pop\n        /* \"#utility.yul\":8133:8444   */\n      swap2\n      swap1\n      pop\n      jump\t// out\n        /* \"#utility.yul\":8467:9177   */\n    tag_218:\n        /* \"#utility.yul\":8563:8568   */\n      0x00\n        /* \"#utility.yul\":8588:8669   */\n      tag_370\n        /* \"#utility.yul\":8604:8668   */\n      tag_371\n        /* \"#utility.yul\":8661:8667   */\n      dup5\n        /* \"#utility.yul\":8604:8668   */\n      tag_217\n      jump\t// in\n    tag_371:\n        /* \"#utility.yul\":8588:8669   */\n      tag_202\n      jump\t// in\n    tag_370:\n        /* \"#utility.yul\":8579:8669   */\n      swap1\n      pop\n        /* \"#utility.yul\":8689:8694   */\n      dup1\n        /* \"#utility.yul\":8718:8724   */\n      dup4\n        /* \"#utility.yul\":8711:8716   */\n      dup3\n        /* \"#utility.yul\":8704:8725   */\n      mstore\n        /* \"#utility.yul\":8752:8756   */\n      0x20\n        /* \"#utility.yul\":8745:8750   */\n      dup3\n        /* \"#utility.yul\":8741:8757   */\n      add\n        /* \"#utility.yul\":8734:8757   */\n      swap1\n      pop\n        /* \"#utility.yul\":8805:8809   */\n      0x20\n        /* \"#utility.yul\":8797:8803   */\n      dup5\n        /* \"#utility.yul\":8793:8810   */\n      mul\n        /* \"#utility.yul\":8785:8791   */\n      dup4\n        /* \"#utility.yul\":8781:8811   */\n      add\n        /* \"#utility.yul\":8834:8837   */\n      dup6\n        /* \"#utility.yul\":8826:8832   */\n      dup2\n        /* \"#utility.yul\":8823:8838   */\n      gt\n        /* \"#utility.yul\":8820:8942   */\n      iszero\n      tag_372\n      jumpi\n        /* \"#utility.yul\":8853:8932   */\n      tag_373\n      tag_208\n      jump\t// in\n    tag_373:\n        /* \"#utility.yul\":8820:8942   */\n    tag_372:\n        /* \"#utility.yul\":8968:8974   */\n      dup4\n        /* \"#utility.yul\":8951:9171   */\n    tag_374:\n        /* \"#utility.yul\":8985:8991   */\n      dup2\n        /* \"#utility.yul\":8980:8983   */\n      dup2\n        /* \"#utility.yul\":8977:8992   */\n      lt\n        /* \"#utility.yul\":8951:9171   */\n      iszero\n      tag_376\n      jumpi\n        /* \"#utility.yul\":9060:9063   */\n      dup1\n        /* \"#utility.yul\":9089:9126   */\n      tag_377\n        /* \"#utility.yul\":9122:9125   */\n      dup9\n        /* \"#utility.yul\":9110:9120   */\n      dup3\n        /* \"#utility.yul\":9089:9126   */\n      tag_197\n      jump\t// in\n    tag_377:\n        /* \"#utility.yul\":9084:9087   */\n      dup5\n        /* \"#utility.yul\":9077:9127   */\n      mstore\n        /* \"#utility.yul\":9156:9160   */\n      0x20\n        /* \"#utility.yul\":9151:9154   */\n      dup5\n        /* \"#utility.yul\":9147:9161   */\n      add\n        /* \"#utility.yul\":9140:9161   */\n      swap4\n      pop\n        /* \"#utility.yul\":9027:9171   */\n      pop\n        /* \"#utility.yul\":9011:9015   */\n      0x20\n        /* \"#utility.yul\":9006:9009   */\n      dup2\n        /* \"#utility.yul\":9002:9016   */\n      add\n        /* \"#utility.yul\":8995:9016   */\n      swap1\n      pop\n        /* \"#utility.yul\":8951:9171   */\n      jump(tag_374)\n    tag_376:\n        /* \"#utility.yul\":8955:8976   */\n      pop\n        /* \"#utility.yul\":8569:9177   */\n      pop\n      pop\n        /* \"#utility.yul\":8467:9177   */\n      swap4\n      swap3\n      pop\n      pop\n      pop\n      jump\t// out\n        /* \"#utility.yul\":9200:9570   */\n    tag_219:\n        /* \"#utility.yul\":9271:9276   */\n      0x00\n        /* \"#utility.yul\":9320:9323   */\n      dup3\n        /* \"#utility.yul\":9313:9317   */\n      0x1f\n        /* \"#utility.yul\":9305:9311   */\n      dup4\n        /* \"#utility.yul\":9301:9318   */\n      add\n        /* \"#utility.yul\":9297:9324   */\n      slt\n        /* \"#utility.yul\":9287:9409   */\n      tag_379\n      jumpi\n        /* \"#utility.yul\":9328:9407   */\n      tag_380\n      tag_198\n      jump\t// in\n    tag_380:\n        /* \"#utility.yul\":9287:9409   */\n    tag_379:\n        /* \"#utility.yul\":9445:9451   */\n      dup2\n        /* \"#utility.yul\":9432:9452   */\n      calldataload\n        /* \"#utility.yul\":9470:9564   */\n      tag_381\n        /* \"#utility.yul\":9560:9563   */\n      dup5\n        /* \"#utility.yul\":9552:9558   */\n      dup3\n        /* \"#utility.yul\":9545:9549   */\n      0x20\n        /* \"#utility.yul\":9537:9543   */\n      dup7\n        /* \"#utility.yul\":9533:9550   */\n      add\n        /* \"#utility.yul\":9470:9564   */\n      tag_218\n      jump\t// in\n    tag_381:\n        /* \"#utility.yul\":9461:9564   */\n      swap2\n      pop\n        /* \"#utility.yul\":9277:9570   */\n      pop\n        /* \"#utility.yul\":9200:9570   */\n      swap3\n      swap2\n      pop\n      pop\n      jump\t// out\n        /* \"#utility.yul\":9576:11287   */\n    tag_39:\n        /* \"#utility.yul\":9751:9757   */\n      0x00\n        /* \"#utility.yul\":9759:9765   */\n      dup1\n        /* \"#utility.yul\":9767:9773   */\n      0x00\n        /* \"#utility.yul\":9775:9781   */\n      dup1\n        /* \"#utility.yul\":9783:9789   */\n      0x00\n        /* \"#utility.yul\":9832:9835   */\n      0xa0\n        /* \"#utility.yul\":9820:9829   */\n      dup7\n        /* \"#utility.yul\":9811:9818   */\n      dup9\n        /* \"#utility.yul\":9807:9830   */\n      sub\n        /* \"#utility.yul\":9803:9836   */\n      slt\n        /* \"#utility.yul\":9800:9920   */\n      iszero\n      tag_383\n      jumpi\n        /* \"#utility.yul\":9839:9918   */\n      tag_384\n      tag_193\n      jump\t// in\n    tag_384:\n        /* \"#utility.yul\":9800:9920   */\n    tag_383:\n        /* \"#utility.yul\":9987:9988   */\n      0x00\n        /* \"#utility.yul\":9976:9985   */\n      dup7\n        /* \"#utility.yul\":9972:9989   */\n      add\n        /* \"#utility.yul\":9959:9990   */\n      calldataload\n        /* \"#utility.yul\":10017:10035   */\n      0xffffffffffffffff\n        /* \"#utility.yul\":10009:10015   */\n      dup2\n        /* \"#utility.yul\":10006:10036   */\n      gt\n        /* \"#utility.yul\":10003:10120   */\n      iszero\n      tag_385\n      jumpi\n        /* \"#utility.yul\":10039:10118   */\n      tag_386\n      tag_194\n      jump\t// in\n    tag_386:\n        /* \"#utility.yul\":10003:10120   */\n    tag_385:\n        /* \"#utility.yul\":10144:10207   */\n      tag_387\n        /* \"#utility.yul\":10199:10206   */\n      dup9\n        /* \"#utility.yul\":10190:10196   */\n      dup3\n        /* \"#utility.yul\":10179:10188   */\n      dup10\n        /* \"#utility.yul\":10175:10197   */\n      add\n        /* \"#utility.yul\":10144:10207   */\n      tag_206\n      jump\t// in\n    tag_387:\n        /* \"#utility.yul\":10134:10207   */\n      swap6\n      pop\n        /* \"#utility.yul\":9930:10217   */\n      pop\n        /* \"#utility.yul\":10284:10286   */\n      0x20\n        /* \"#utility.yul\":10273:10282   */\n      dup7\n        /* \"#utility.yul\":10269:10287   */\n      add\n        /* \"#utility.yul\":10256:10288   */\n      calldataload\n        /* \"#utility.yul\":10315:10333   */\n      0xffffffffffffffff\n        /* \"#utility.yul\":10307:10313   */\n      dup2\n        /* \"#utility.yul\":10304:10334   */\n      gt\n        /* \"#utility.yul\":10301:10418   */\n      iszero\n      tag_388\n      jumpi\n        /* \"#utility.yul\":10337:10416   */\n      tag_389\n      tag_194\n      jump\t// in\n    tag_389:\n        /* \"#utility.yul\":10301:10418   */\n    tag_388:\n        /* \"#utility.yul\":10442:10505   */\n      tag_390\n        /* \"#utility.yul\":10497:10504   */\n      dup9\n        /* \"#utility.yul\":10488:10494   */\n      dup3\n        /* \"#utility.yul\":10477:10486   */\n      dup10\n        /* \"#utility.yul\":10473:10495   */\n      add\n        /* \"#utility.yul\":10442:10505   */\n      tag_206\n      jump\t// in\n    tag_390:\n        /* \"#utility.yul\":10432:10505   */\n      swap5\n      pop\n        /* \"#utility.yul\":10227:10515   */\n      pop\n        /* \"#utility.yul\":10554:10556   */\n      0x40\n        /* \"#utility.yul\":10580:10633   */\n      tag_391\n        /* \"#utility.yul\":10625:10632   */\n      dup9\n        /* \"#utility.yul\":10616:10622   */\n      dup3\n        /* \"#utility.yul\":10605:10614   */\n      dup10\n        /* \"#utility.yul\":10601:10623   */\n      add\n        /* \"#utility.yul\":10580:10633   */\n      tag_197\n      jump\t// in\n    tag_391:\n        /* \"#utility.yul\":10570:10633   */\n      swap4\n      pop\n        /* \"#utility.yul\":10525:10643   */\n      pop\n        /* \"#utility.yul\":10710:10712   */\n      0x60\n        /* \"#utility.yul\":10699:10708   */\n      dup7\n        /* \"#utility.yul\":10695:10713   */\n      add\n        /* \"#utility.yul\":10682:10714   */\n      calldataload\n        /* \"#utility.yul\":10741:10759   */\n      0xffffffffffffffff\n        /* \"#utility.yul\":10733:10739   */\n      dup2\n        /* \"#utility.yul\":10730:10760   */\n      gt\n        /* \"#utility.yul\":10727:10844   */\n      iszero\n      tag_392\n      jumpi\n        /* \"#utility.yul\":10763:10842   */\n      tag_393\n      tag_194\n      jump\t// in\n    tag_393:\n        /* \"#utility.yul\":10727:10844   */\n    tag_392:\n        /* \"#utility.yul\":10868:10956   */\n      tag_394\n        /* \"#utility.yul\":10948:10955   */\n      dup9\n        /* \"#utility.yul\":10939:10945   */\n      dup3\n        /* \"#utility.yul\":10928:10937   */\n      dup10\n        /* \"#utility.yul\":10924:10946   */\n      add\n        /* \"#utility.yul\":10868:10956   */\n      tag_210\n      jump\t// in\n    tag_394:\n        /* \"#utility.yul\":10858:10956   */\n      swap3\n      pop\n        /* \"#utility.yul\":10653:10966   */\n      pop\n        /* \"#utility.yul\":11033:11036   */\n      0x80\n        /* \"#utility.yul\":11022:11031   */\n      dup7\n        /* \"#utility.yul\":11018:11037   */\n      add\n        /* \"#utility.yul\":11005:11038   */\n      calldataload\n        /* \"#utility.yul\":11065:11083   */\n      0xffffffffffffffff\n        /* \"#utility.yul\":11057:11063   */\n      dup2\n        /* \"#utility.yul\":11054:11084   */\n      gt\n        /* \"#utility.yul\":11051:11168   */\n      iszero\n      tag_395\n      jumpi\n        /* \"#utility.yul\":11087:11166   */\n      tag_396\n      tag_194\n      jump\t// in\n    tag_396:\n        /* \"#utility.yul\":11051:11168   */\n    tag_395:\n        /* \"#utility.yul\":11192:11270   */\n      tag_397\n        /* \"#utility.yul\":11262:11269   */\n      dup9\n        /* \"#utility.yul\":11253:11259   */\n      dup3\n        /* \"#utility.yul\":11242:11251   */\n      dup10\n        /* \"#utility.yul\":11238:11260   */\n      add\n        /* \"#utility.yul\":11192:11270   */\n      tag_219\n      jump\t// in\n    tag_397:\n        /* \"#utility.yul\":11182:11270   */\n      swap2\n      pop\n        /* \"#utility.yul\":10976:11280   */\n      pop\n        /* \"#utility.yul\":9576:11287   */\n      swap3\n      swap6\n      pop\n      swap3\n      swap6\n      swap1\n      swap4\n      pop\n      jump\t// out\n        /* \"#utility.yul\":11293:11392   */\n    tag_220:\n        /* \"#utility.yul\":11345:11351   */\n      0x00\n        /* \"#utility.yul\":11379:11384   */\n      dup2\n        /* \"#utility.yul\":11373:11385   */\n      mload\n        /* \"#utility.yul\":11363:11385   */\n      swap1\n      pop\n        /* \"#utility.yul\":11293:11392   */\n      swap2\n      swap1\n      pop\n      jump\t// out\n        /* \"#utility.yul\":11398:11557   */\n    tag_221:\n        /* \"#utility.yul\":11472:11483   */\n      0x00\n        /* \"#utility.yul\":11506:11512   */\n      dup3\n        /* \"#utility.yul\":11501:11504   */\n      dup3\n        /* \"#utility.yul\":11494:11513   */\n      mstore\n        /* \"#utility.yul\":11546:11550   */\n      0x20\n        /* \"#utility.yul\":11541:11544   */\n      dup3\n        /* \"#utility.yul\":11537:11551   */\n      add\n        /* \"#utility.yul\":11522:11551   */\n      swap1\n      pop\n        /* \"#utility.yul\":11398:11557   */\n      swap3\n      swap2\n      pop\n      pop\n      jump\t// out\n        /* \"#utility.yul\":11563:11809   */\n    tag_222:\n        /* \"#utility.yul\":11644:11645   */\n      0x00\n        /* \"#utility.yul\":11654:11767   */\n    tag_401:\n        /* \"#utility.yul\":11668:11674   */\n      dup4\n        /* \"#utility.yul\":11665:11666   */\n      dup2\n        /* \"#utility.yul\":11662:11675   */\n      lt\n        /* \"#utility.yul\":11654:11767   */\n      iszero\n      tag_403\n      jumpi\n        /* \"#utility.yul\":11753:11754   */\n      dup1\n        /* \"#utility.yul\":11748:11751   */\n      dup3\n        /* \"#utility.yul\":11744:11755   */\n      add\n        /* \"#utility.yul\":11738:11756   */\n      mload\n        /* \"#utility.yul\":11734:11735   */\n      dup2\n        /* \"#utility.yul\":11729:11732   */\n      dup5\n        /* \"#utility.yul\":11725:11736   */\n      add\n        /* \"#utility.yul\":11718:11757   */\n      mstore\n        /* \"#utility.yul\":11690:11692   */\n      0x20\n        /* \"#utility.yul\":11687:11688   */\n      dup2\n        /* \"#utility.yul\":11683:11693   */\n      add\n        /* \"#utility.yul\":11678:11693   */\n      swap1\n      pop\n        /* \"#utility.yul\":11654:11767   */\n      jump(tag_401)\n    tag_403:\n        /* \"#utility.yul\":11801:11802   */\n      0x00\n        /* \"#utility.yul\":11792:11798   */\n      dup5\n        /* \"#utility.yul\":11787:11790   */\n      dup5\n        /* \"#utility.yul\":11783:11799   */\n      add\n        /* \"#utility.yul\":11776:11803   */\n      mstore\n        /* \"#utility.yul\":11625:11809   */\n      pop\n        /* \"#utility.yul\":11563:11809   */\n      pop\n      pop\n      pop\n      jump\t// out\n        /* \"#utility.yul\":11815:12172   */\n    tag_223:\n        /* \"#utility.yul\":11893:11896   */\n      0x00\n        /* \"#utility.yul\":11921:11960   */\n      tag_405\n        /* \"#utility.yul\":11954:11959   */\n      dup3\n        /* \"#utility.yul\":11921:11960   */\n      tag_220\n      jump\t// in\n    tag_405:\n        /* \"#utility.yul\":11976:12037   */\n      tag_406\n        /* \"#utility.yul\":12030:12036   */\n      dup2\n        /* \"#utility.yul\":12025:12028   */\n      dup6\n        /* \"#utility.yul\":11976:12037   */\n      tag_221\n      jump\t// in\n    tag_406:\n        /* \"#utility.yul\":11969:12037   */\n      swap4\n      pop\n        /* \"#utility.yul\":12046:12111   */\n      tag_407\n        /* \"#utility.yul\":12104:12110   */\n      dup2\n        /* \"#utility.yul\":12099:12102   */\n      dup6\n        /* \"#utility.yul\":12092:12096   */\n      0x20\n        /* \"#utility.yul\":12085:12090   */\n      dup7\n        /* \"#utility.yul\":12081:12097   */\n      add\n        /* \"#utility.yul\":12046:12111   */\n      tag_222\n      jump\t// in\n    tag_407:\n        /* \"#utility.yul\":12136:12165   */\n      tag_408\n        /* \"#utility.yul\":12158:12164   */\n      dup2\n        /* \"#utility.yul\":12136:12165   */\n      tag_200\n      jump\t// in\n    tag_408:\n        /* \"#utility.yul\":12131:12134   */\n      dup5\n        /* \"#utility.yul\":12127:12166   */\n      add\n        /* \"#utility.yul\":12120:12166   */\n      swap2\n      pop\n        /* \"#utility.yul\":11897:12172   */\n      pop\n        /* \"#utility.yul\":11815:12172   */\n      swap3\n      swap2\n      pop\n      pop\n      jump\t// out\n        /* \"#utility.yul\":12178:12286   */\n    tag_224:\n        /* \"#utility.yul\":12255:12279   */\n      tag_410\n        /* \"#utility.yul\":12273:12278   */\n      dup2\n        /* \"#utility.yul\":12255:12279   */\n      tag_195\n      jump\t// in\n    tag_410:\n        /* \"#utility.yul\":12250:12253   */\n      dup3\n        /* \"#utility.yul\":12243:12280   */\n      mstore\n        /* \"#utility.yul\":12178:12286   */\n      pop\n      pop\n      jump\t// out\n        /* \"#utility.yul\":12292:12416   */\n    tag_225:\n        /* \"#utility.yul\":12369:12375   */\n      0x00\n        /* \"#utility.yul\":12403:12408   */\n      dup2\n        /* \"#utility.yul\":12397:12409   */\n      mload\n        /* \"#utility.yul\":12387:12409   */\n      swap1\n      pop\n        /* \"#utility.yul\":12292:12416   */\n      swap2\n      swap1\n      pop\n      jump\t// out\n        /* \"#utility.yul\":12422:12606   */\n    tag_226:\n        /* \"#utility.yul\":12521:12532   */\n      0x00\n        /* \"#utility.yul\":12555:12561   */\n      dup3\n        /* \"#utility.yul\":12550:12553   */\n      dup3\n        /* \"#utility.yul\":12543:12562   */\n      mstore\n        /* \"#utility.yul\":12595:12599   */\n      0x20\n        /* \"#utility.yul\":12590:12593   */\n      dup3\n        /* \"#utility.yul\":12586:12600   */\n      add\n        /* \"#utility.yul\":12571:12600   */\n      swap1\n      pop\n        /* \"#utility.yul\":12422:12606   */\n      swap3\n      swap2\n      pop\n      pop\n      jump\t// out\n        /* \"#utility.yul\":12612:12754   */\n    tag_227:\n        /* \"#utility.yul\":12689:12693   */\n      0x00\n        /* \"#utility.yul\":12712:12715   */\n      dup2\n        /* \"#utility.yul\":12704:12715   */\n      swap1\n      pop\n        /* \"#utility.yul\":12742:12746   */\n      0x20\n        /* \"#utility.yul\":12737:12740   */\n      dup3\n        /* \"#utility.yul\":12733:12747   */\n      add\n        /* \"#utility.yul\":12725:12747   */\n      swap1\n      pop\n        /* \"#utility.yul\":12612:12754   */\n      swap2\n      swap1\n      pop\n      jump\t// out\n        /* \"#utility.yul\":12760:12956   */\n    tag_228:\n        /* \"#utility.yul\":12849:12859   */\n      0x00\n        /* \"#utility.yul\":12884:12950   */\n      tag_415\n        /* \"#utility.yul\":12946:12949   */\n      dup4\n        /* \"#utility.yul\":12938:12944   */\n      dup4\n        /* \"#utility.yul\":12884:12950   */\n      tag_223\n      jump\t// in\n    tag_415:\n        /* \"#utility.yul\":12870:12950   */\n      swap1\n      pop\n        /* \"#utility.yul\":12760:12956   */\n      swap3\n      swap2\n      pop\n      pop\n      jump\t// out\n        /* \"#utility.yul\":12962:13085   */\n    tag_229:\n        /* \"#utility.yul\":13042:13046   */\n      0x00\n        /* \"#utility.yul\":13074:13078   */\n      0x20\n        /* \"#utility.yul\":13069:13072   */\n      dup3\n        /* \"#utility.yul\":13065:13079   */\n      add\n        /* \"#utility.yul\":13057:13079   */\n      swap1\n      pop\n        /* \"#utility.yul\":12962:13085   */\n      swap2\n      swap1\n      pop\n      jump\t// out\n        /* \"#utility.yul\":13119:14090   */\n    tag_230:\n        /* \"#utility.yul\":13248:13251   */\n      0x00\n        /* \"#utility.yul\":13277:13341   */\n      tag_418\n        /* \"#utility.yul\":13335:13340   */\n      dup3\n        /* \"#utility.yul\":13277:13341   */\n      tag_225\n      jump\t// in\n    tag_418:\n        /* \"#utility.yul\":13357:13443   */\n      tag_419\n        /* \"#utility.yul\":13436:13442   */\n      dup2\n        /* \"#utility.yul\":13431:13434   */\n      dup6\n        /* \"#utility.yul\":13357:13443   */\n      tag_226\n      jump\t// in\n    tag_419:\n        /* \"#utility.yul\":13350:13443   */\n      swap4\n      pop\n        /* \"#utility.yul\":13469:13472   */\n      dup4\n        /* \"#utility.yul\":13514:13518   */\n      0x20\n        /* \"#utility.yul\":13506:13512   */\n      dup3\n        /* \"#utility.yul\":13502:13519   */\n      mul\n        /* \"#utility.yul\":13497:13500   */\n      dup6\n        /* \"#utility.yul\":13493:13520   */\n      add\n        /* \"#utility.yul\":13544:13610   */\n      tag_420\n        /* \"#utility.yul\":13604:13609   */\n      dup6\n        /* \"#utility.yul\":13544:13610   */\n      tag_227\n      jump\t// in\n    tag_420:\n        /* \"#utility.yul\":13633:13640   */\n      dup1\n        /* \"#utility.yul\":13664:13665   */\n      0x00\n        /* \"#utility.yul\":13649:14045   */\n    tag_421:\n        /* \"#utility.yul\":13674:13680   */\n      dup6\n        /* \"#utility.yul\":13671:13672   */\n      dup2\n        /* \"#utility.yul\":13668:13681   */\n      lt\n        /* \"#utility.yul\":13649:14045   */\n      iszero\n      tag_423\n      jumpi\n        /* \"#utility.yul\":13745:13754   */\n      dup5\n        /* \"#utility.yul\":13739:13743   */\n      dup5\n        /* \"#utility.yul\":13735:13755   */\n      sub\n        /* \"#utility.yul\":13730:13733   */\n      dup10\n        /* \"#utility.yul\":13723:13756   */\n      mstore\n        /* \"#utility.yul\":13796:13802   */\n      dup2\n        /* \"#utility.yul\":13790:13803   */\n      mload\n        /* \"#utility.yul\":13824:13908   */\n      tag_424\n        /* \"#utility.yul\":13903:13907   */\n      dup6\n        /* \"#utility.yul\":13888:13901   */\n      dup3\n        /* \"#utility.yul\":13824:13908   */\n      tag_228\n      jump\t// in\n    tag_424:\n        /* \"#utility.yul\":13816:13908   */\n      swap5\n      pop\n        /* \"#utility.yul\":13931:14001   */\n      tag_425\n        /* \"#utility.yul\":13994:14000   */\n      dup4\n        /* \"#utility.yul\":13931:14001   */\n      tag_229\n      jump\t// in\n    tag_425:\n        /* \"#utility.yul\":13921:14001   */\n      swap3\n      pop\n        /* \"#utility.yul\":14030:14034   */\n      0x20\n        /* \"#utility.yul\":14025:14028   */\n      dup11\n        /* \"#utility.yul\":14021:14035   */\n      add\n        /* \"#utility.yul\":14014:14035   */\n      swap10\n      pop\n        /* \"#utility.yul\":13709:14045   */\n      pop\n        /* \"#utility.yul\":13696:13697   */\n      0x01\n        /* \"#utility.yul\":13693:13694   */\n      dup2\n        /* \"#utility.yul\":13689:13698   */\n      add\n        /* \"#utility.yul\":13684:13698   */\n      swap1\n      pop\n        /* \"#utility.yul\":13649:14045   */\n      jump(tag_421)\n    tag_423:\n        /* \"#utility.yul\":13653:13667   */\n      pop\n        /* \"#utility.yul\":14061:14065   */\n      dup3\n        /* \"#utility.yul\":14054:14065   */\n      swap8\n      pop\n        /* \"#utility.yul\":14081:14084   */\n      dup8\n        /* \"#utility.yul\":14074:14084   */\n      swap6\n      pop\n        /* \"#utility.yul\":13253:14090   */\n      pop\n      pop\n      pop\n      pop\n      pop\n        /* \"#utility.yul\":13119:14090   */\n      swap3\n      swap2\n      pop\n      pop\n      jump\t// out\n        /* \"#utility.yul\":14096:14210   */\n    tag_231:\n        /* \"#utility.yul\":14163:14169   */\n      0x00\n        /* \"#utility.yul\":14197:14202   */\n      dup2\n        /* \"#utility.yul\":14191:14203   */\n      mload\n        /* \"#utility.yul\":14181:14203   */\n      swap1\n      pop\n        /* \"#utility.yul\":14096:14210   */\n      swap2\n      swap1\n      pop\n      jump\t// out\n        /* \"#utility.yul\":14216:14390   */\n    tag_232:\n        /* \"#utility.yul\":14305:14316   */\n      0x00\n        /* \"#utility.yul\":14339:14345   */\n      dup3\n        /* \"#utility.yul\":14334:14337   */\n      dup3\n        /* \"#utility.yul\":14327:14346   */\n      mstore\n        /* \"#utility.yul\":14379:14383   */\n      0x20\n        /* \"#utility.yul\":14374:14377   */\n      dup3\n        /* \"#utility.yul\":14370:14384   */\n      add\n        /* \"#utility.yul\":14355:14384   */\n      swap1\n      pop\n        /* \"#utility.yul\":14216:14390   */\n      swap3\n      swap2\n      pop\n      pop\n      jump\t// out\n        /* \"#utility.yul\":14396:14528   */\n    tag_233:\n        /* \"#utility.yul\":14463:14467   */\n      0x00\n        /* \"#utility.yul\":14486:14489   */\n      dup2\n        /* \"#utility.yul\":14478:14489   */\n      swap1\n      pop\n        /* \"#utility.yul\":14516:14520   */\n      0x20\n        /* \"#utility.yul\":14511:14514   */\n      dup3\n        /* \"#utility.yul\":14507:14521   */\n      add\n        /* \"#utility.yul\":14499:14521   */\n      swap1\n      pop\n        /* \"#utility.yul\":14396:14528   */\n      swap2\n      swap1\n      pop\n      jump\t// out\n        /* \"#utility.yul\":14534:14713   */\n    tag_234:\n        /* \"#utility.yul\":14603:14613   */\n      0x00\n        /* \"#utility.yul\":14624:14670   */\n      tag_430\n        /* \"#utility.yul\":14666:14669   */\n      dup4\n        /* \"#utility.yul\":14658:14664   */\n      dup4\n        /* \"#utility.yul\":14624:14670   */\n      tag_224\n      jump\t// in\n    tag_430:\n        /* \"#utility.yul\":14702:14706   */\n      0x20\n        /* \"#utility.yul\":14697:14700   */\n      dup4\n        /* \"#utility.yul\":14693:14707   */\n      add\n        /* \"#utility.yul\":14679:14707   */\n      swap1\n      pop\n        /* \"#utility.yul\":14534:14713   */\n      swap3\n      swap2\n      pop\n      pop\n      jump\t// out\n        /* \"#utility.yul\":14719:14832   */\n    tag_235:\n        /* \"#utility.yul\":14789:14793   */\n      0x00\n        /* \"#utility.yul\":14821:14825   */\n      0x20\n        /* \"#utility.yul\":14816:14819   */\n      dup3\n        /* \"#utility.yul\":14812:14826   */\n      add\n        /* \"#utility.yul\":14804:14826   */\n      swap1\n      pop\n        /* \"#utility.yul\":14719:14832   */\n      swap2\n      swap1\n      pop\n      jump\t// out\n        /* \"#utility.yul\":14868:15580   */\n    tag_236:\n        /* \"#utility.yul\":14977:14980   */\n      0x00\n        /* \"#utility.yul\":15006:15060   */\n      tag_433\n        /* \"#utility.yul\":15054:15059   */\n      dup3\n        /* \"#utility.yul\":15006:15060   */\n      tag_231\n      jump\t// in\n    tag_433:\n        /* \"#utility.yul\":15076:15152   */\n      tag_434\n        /* \"#utility.yul\":15145:15151   */\n      dup2\n        /* \"#utility.yul\":15140:15143   */\n      dup6\n        /* \"#utility.yul\":15076:15152   */\n      tag_232\n      jump\t// in\n    tag_434:\n        /* \"#utility.yul\":15069:15152   */\n      swap4\n      pop\n        /* \"#utility.yul\":15176:15232   */\n      tag_435\n        /* \"#utility.yul\":15226:15231   */\n      dup4\n        /* \"#utility.yul\":15176:15232   */\n      tag_233\n      jump\t// in\n    tag_435:\n        /* \"#utility.yul\":15255:15262   */\n      dup1\n        /* \"#utility.yul\":15286:15287   */\n      0x00\n        /* \"#utility.yul\":15271:15555   */\n    tag_436:\n        /* \"#utility.yul\":15296:15302   */\n      dup4\n        /* \"#utility.yul\":15293:15294   */\n      dup2\n        /* \"#utility.yul\":15290:15303   */\n      lt\n        /* \"#utility.yul\":15271:15555   */\n      iszero\n      tag_438\n      jumpi\n        /* \"#utility.yul\":15372:15378   */\n      dup2\n        /* \"#utility.yul\":15366:15379   */\n      mload\n        /* \"#utility.yul\":15399:15462   */\n      tag_439\n        /* \"#utility.yul\":15458:15461   */\n      dup9\n        /* \"#utility.yul\":15443:15456   */\n      dup3\n        /* \"#utility.yul\":15399:15462   */\n      tag_234\n      jump\t// in\n    tag_439:\n        /* \"#utility.yul\":15392:15462   */\n      swap8\n      pop\n        /* \"#utility.yul\":15485:15545   */\n      tag_440\n        /* \"#utility.yul\":15538:15544   */\n      dup4\n        /* \"#utility.yul\":15485:15545   */\n      tag_235\n      jump\t// in\n    tag_440:\n        /* \"#utility.yul\":15475:15545   */\n      swap3\n      pop\n        /* \"#utility.yul\":15331:15555   */\n      pop\n        /* \"#utility.yul\":15318:15319   */\n      0x01\n        /* \"#utility.yul\":15315:15316   */\n      dup2\n        /* \"#utility.yul\":15311:15320   */\n      add\n        /* \"#utility.yul\":15306:15320   */\n      swap1\n      pop\n        /* \"#utility.yul\":15271:15555   */\n      jump(tag_436)\n    tag_438:\n        /* \"#utility.yul\":15275:15289   */\n      pop\n        /* \"#utility.yul\":15571:15574   */\n      dup6\n        /* \"#utility.yul\":15564:15574   */\n      swap4\n      pop\n        /* \"#utility.yul\":14982:15580   */\n      pop\n      pop\n      pop\n        /* \"#utility.yul\":14868:15580   */\n      swap3\n      swap2\n      pop\n      pop\n      jump\t// out\n        /* \"#utility.yul\":15586:15700   */\n    tag_237:\n        /* \"#utility.yul\":15653:15659   */\n      0x00\n        /* \"#utility.yul\":15687:15692   */\n      dup2\n        /* \"#utility.yul\":15681:15693   */\n      mload\n        /* \"#utility.yul\":15671:15693   */\n      swap1\n      pop\n        /* \"#utility.yul\":15586:15700   */\n      swap2\n      swap1\n      pop\n      jump\t// out\n        /* \"#utility.yul\":15706:15880   */\n    tag_238:\n        /* \"#utility.yul\":15795:15806   */\n      0x00\n        /* \"#utility.yul\":15829:15835   */\n      dup3\n        /* \"#utility.yul\":15824:15827   */\n      dup3\n        /* \"#utility.yul\":15817:15836   */\n      mstore\n        /* \"#utility.yul\":15869:15873   */\n      0x20\n        /* \"#utility.yul\":15864:15867   */\n      dup3\n        /* \"#utility.yul\":15860:15874   */\n      add\n        /* \"#utility.yul\":15845:15874   */\n      swap1\n      pop\n        /* \"#utility.yul\":15706:15880   */\n      swap3\n      swap2\n      pop\n      pop\n      jump\t// out\n        /* \"#utility.yul\":15886:16018   */\n    tag_239:\n        /* \"#utility.yul\":15953:15957   */\n      0x00\n        /* \"#utility.yul\":15976:15979   */\n      dup2\n        /* \"#utility.yul\":15968:15979   */\n      swap1\n      pop\n        /* \"#utility.yul\":16006:16010   */\n      0x20\n        /* \"#utility.yul\":16001:16004   */\n      dup3\n        /* \"#utility.yul\":15997:16011   */\n      add\n        /* \"#utility.yul\":15989:16011   */\n      swap1\n      pop\n        /* \"#utility.yul\":15886:16018   */\n      swap2\n      swap1\n      pop\n      jump\t// out\n        /* \"#utility.yul\":16024:16132   */\n    tag_240:\n        /* \"#utility.yul\":16101:16125   */\n      tag_445\n        /* \"#utility.yul\":16119:16124   */\n      dup2\n        /* \"#utility.yul\":16101:16125   */\n      tag_215\n      jump\t// in\n    tag_445:\n        /* \"#utility.yul\":16096:16099   */\n      dup3\n        /* \"#utility.yul\":16089:16126   */\n      mstore\n        /* \"#utility.yul\":16024:16132   */\n      pop\n      pop\n      jump\t// out\n        /* \"#utility.yul\":16138:16317   */\n    tag_241:\n        /* \"#utility.yul\":16207:16217   */\n      0x00\n        /* \"#utility.yul\":16228:16274   */\n      tag_447\n        /* \"#utility.yul\":16270:16273   */\n      dup4\n        /* \"#utility.yul\":16262:16268   */\n      dup4\n        /* \"#utility.yul\":16228:16274   */\n      tag_240\n      jump\t// in\n    tag_447:\n        /* \"#utility.yul\":16306:16310   */\n      0x20\n        /* \"#utility.yul\":16301:16304   */\n      dup4\n        /* \"#utility.yul\":16297:16311   */\n      add\n        /* \"#utility.yul\":16283:16311   */\n      swap1\n      pop\n        /* \"#utility.yul\":16138:16317   */\n      swap3\n      swap2\n      pop\n      pop\n      jump\t// out\n        /* \"#utility.yul\":16323:16436   */\n    tag_242:\n        /* \"#utility.yul\":16393:16397   */\n      0x00\n        /* \"#utility.yul\":16425:16429   */\n      0x20\n        /* \"#utility.yul\":16420:16423   */\n      dup3\n        /* \"#utility.yul\":16416:16430   */\n      add\n        /* \"#utility.yul\":16408:16430   */\n      swap1\n      pop\n        /* \"#utility.yul\":16323:16436   */\n      swap2\n      swap1\n      pop\n      jump\t// out\n        /* \"#utility.yul\":16472:17184   */\n    tag_243:\n        /* \"#utility.yul\":16581:16584   */\n      0x00\n        /* \"#utility.yul\":16610:16664   */\n      tag_450\n        /* \"#utility.yul\":16658:16663   */\n      dup3\n        /* \"#utility.yul\":16610:16664   */\n      tag_237\n      jump\t// in\n    tag_450:\n        /* \"#utility.yul\":16680:16756   */\n      tag_451\n        /* \"#utility.yul\":16749:16755   */\n      dup2\n        /* \"#utility.yul\":16744:16747   */\n      dup6\n        /* \"#utility.yul\":16680:16756   */\n      tag_238\n      jump\t// in\n    tag_451:\n        /* \"#utility.yul\":16673:16756   */\n      swap4\n      pop\n        /* \"#utility.yul\":16780:16836   */\n      tag_452\n        /* \"#utility.yul\":16830:16835   */\n      dup4\n        /* \"#utility.yul\":16780:16836   */\n      tag_239\n      jump\t// in\n    tag_452:\n        /* \"#utility.yul\":16859:16866   */\n      dup1\n        /* \"#utility.yul\":16890:16891   */\n      0x00\n        /* \"#utility.yul\":16875:17159   */\n    tag_453:\n        /* \"#utility.yul\":16900:16906   */\n      dup4\n        /* \"#utility.yul\":16897:16898   */\n      dup2\n        /* \"#utility.yul\":16894:16907   */\n      lt\n        /* \"#utility.yul\":16875:17159   */\n      iszero\n      tag_455\n      jumpi\n        /* \"#utility.yul\":16976:16982   */\n      dup2\n        /* \"#utility.yul\":16970:16983   */\n      mload\n        /* \"#utility.yul\":17003:17066   */\n      tag_456\n        /* \"#utility.yul\":17062:17065   */\n      dup9\n        /* \"#utility.yul\":17047:17060   */\n      dup3\n        /* \"#utility.yul\":17003:17066   */\n      tag_241\n      jump\t// in\n    tag_456:\n        /* \"#utility.yul\":16996:17066   */\n      swap8\n      pop\n        /* \"#utility.yul\":17089:17149   */\n      tag_457\n        /* \"#utility.yul\":17142:17148   */\n      dup4\n        /* \"#utility.yul\":17089:17149   */\n      tag_242\n      jump\t// in\n    tag_457:\n        /* \"#utility.yul\":17079:17149   */\n      swap3\n      pop\n        /* \"#utility.yul\":16935:17159   */\n      pop\n        /* \"#utility.yul\":16922:16923   */\n      0x01\n        /* \"#utility.yul\":16919:16920   */\n      dup2\n        /* \"#utility.yul\":16915:16924   */\n      add\n        /* \"#utility.yul\":16910:16924   */\n      swap1\n      pop\n        /* \"#utility.yul\":16875:17159   */\n      jump(tag_453)\n    tag_455:\n        /* \"#utility.yul\":16879:16893   */\n      pop\n        /* \"#utility.yul\":17175:17178   */\n      dup6\n        /* \"#utility.yul\":17168:17178   */\n      swap4\n      pop\n        /* \"#utility.yul\":16586:17184   */\n      pop\n      pop\n      pop\n        /* \"#utility.yul\":16472:17184   */\n      swap3\n      swap2\n      pop\n      pop\n      jump\t// out\n        /* \"#utility.yul\":17280:19031   */\n    tag_244:\n        /* \"#utility.yul\":17399:17402   */\n      0x00\n        /* \"#utility.yul\":17435:17439   */\n      0xc0\n        /* \"#utility.yul\":17430:17433   */\n      dup4\n        /* \"#utility.yul\":17426:17440   */\n      add\n        /* \"#utility.yul\":17529:17533   */\n      0x00\n        /* \"#utility.yul\":17522:17527   */\n      dup4\n        /* \"#utility.yul\":17518:17534   */\n      add\n        /* \"#utility.yul\":17512:17535   */\n      mload\n        /* \"#utility.yul\":17582:17585   */\n      dup5\n        /* \"#utility.yul\":17576:17580   */\n      dup3\n        /* \"#utility.yul\":17572:17586   */\n      sub\n        /* \"#utility.yul\":17565:17569   */\n      0x00\n        /* \"#utility.yul\":17560:17563   */\n      dup7\n        /* \"#utility.yul\":17556:17570   */\n      add\n        /* \"#utility.yul\":17549:17587   */\n      mstore\n        /* \"#utility.yul\":17608:17681   */\n      tag_459\n        /* \"#utility.yul\":17676:17680   */\n      dup3\n        /* \"#utility.yul\":17662:17674   */\n      dup3\n        /* \"#utility.yul\":17608:17681   */\n      tag_223\n      jump\t// in\n    tag_459:\n        /* \"#utility.yul\":17600:17681   */\n      swap2\n      pop\n        /* \"#utility.yul\":17450:17692   */\n      pop\n        /* \"#utility.yul\":17784:17788   */\n      0x20\n        /* \"#utility.yul\":17777:17782   */\n      dup4\n        /* \"#utility.yul\":17773:17789   */\n      add\n        /* \"#utility.yul\":17767:17790   */\n      mload\n        /* \"#utility.yul\":17837:17840   */\n      dup5\n        /* \"#utility.yul\":17831:17835   */\n      dup3\n        /* \"#utility.yul\":17827:17841   */\n      sub\n        /* \"#utility.yul\":17820:17824   */\n      0x20\n        /* \"#utility.yul\":17815:17818   */\n      dup7\n        /* \"#utility.yul\":17811:17825   */\n      add\n        /* \"#utility.yul\":17804:17842   */\n      mstore\n        /* \"#utility.yul\":17863:17936   */\n      tag_460\n        /* \"#utility.yul\":17931:17935   */\n      dup3\n        /* \"#utility.yul\":17917:17929   */\n      dup3\n        /* \"#utility.yul\":17863:17936   */\n      tag_223\n      jump\t// in\n    tag_460:\n        /* \"#utility.yul\":17855:17936   */\n      swap2\n      pop\n        /* \"#utility.yul\":17702:17947   */\n      pop\n        /* \"#utility.yul\":18032:18036   */\n      0x40\n        /* \"#utility.yul\":18025:18030   */\n      dup4\n        /* \"#utility.yul\":18021:18037   */\n      add\n        /* \"#utility.yul\":18015:18038   */\n      mload\n        /* \"#utility.yul\":18051:18114   */\n      tag_461\n        /* \"#utility.yul\":18108:18112   */\n      0x40\n        /* \"#utility.yul\":18103:18106   */\n      dup7\n        /* \"#utility.yul\":18099:18113   */\n      add\n        /* \"#utility.yul\":18085:18097   */\n      dup3\n        /* \"#utility.yul\":18051:18114   */\n      tag_224\n      jump\t// in\n    tag_461:\n        /* \"#utility.yul\":17957:18124   */\n      pop\n        /* \"#utility.yul\":18212:18216   */\n      0x60\n        /* \"#utility.yul\":18205:18210   */\n      dup4\n        /* \"#utility.yul\":18201:18217   */\n      add\n        /* \"#utility.yul\":18195:18218   */\n      mload\n        /* \"#utility.yul\":18265:18268   */\n      dup5\n        /* \"#utility.yul\":18259:18263   */\n      dup3\n        /* \"#utility.yul\":18255:18269   */\n      sub\n        /* \"#utility.yul\":18248:18252   */\n      0x60\n        /* \"#utility.yul\":18243:18246   */\n      dup7\n        /* \"#utility.yul\":18239:18253   */\n      add\n        /* \"#utility.yul\":18232:18270   */\n      mstore\n        /* \"#utility.yul\":18291:18414   */\n      tag_462\n        /* \"#utility.yul\":18409:18413   */\n      dup3\n        /* \"#utility.yul\":18395:18407   */\n      dup3\n        /* \"#utility.yul\":18291:18414   */\n      tag_230\n      jump\t// in\n    tag_462:\n        /* \"#utility.yul\":18283:18414   */\n      swap2\n      pop\n        /* \"#utility.yul\":18134:18425   */\n      pop\n        /* \"#utility.yul\":18518:18522   */\n      0x80\n        /* \"#utility.yul\":18511:18516   */\n      dup4\n        /* \"#utility.yul\":18507:18523   */\n      add\n        /* \"#utility.yul\":18501:18524   */\n      mload\n        /* \"#utility.yul\":18571:18574   */\n      dup5\n        /* \"#utility.yul\":18565:18569   */\n      dup3\n        /* \"#utility.yul\":18561:18575   */\n      sub\n        /* \"#utility.yul\":18554:18558   */\n      0x80\n        /* \"#utility.yul\":18549:18552   */\n      dup7\n        /* \"#utility.yul\":18545:18559   */\n      add\n        /* \"#utility.yul\":18538:18576   */\n      mstore\n        /* \"#utility.yul\":18597:18700   */\n      tag_463\n        /* \"#utility.yul\":18695:18699   */\n      dup3\n        /* \"#utility.yul\":18681:18693   */\n      dup3\n        /* \"#utility.yul\":18597:18700   */\n      tag_236\n      jump\t// in\n    tag_463:\n        /* \"#utility.yul\":18589:18700   */\n      swap2\n      pop\n        /* \"#utility.yul\":18435:18711   */\n      pop\n        /* \"#utility.yul\":18811:18815   */\n      0xa0\n        /* \"#utility.yul\":18804:18809   */\n      dup4\n        /* \"#utility.yul\":18800:18816   */\n      add\n        /* \"#utility.yul\":18794:18817   */\n      mload\n        /* \"#utility.yul\":18864:18867   */\n      dup5\n        /* \"#utility.yul\":18858:18862   */\n      dup3\n        /* \"#utility.yul\":18854:18868   */\n      sub\n        /* \"#utility.yul\":18847:18851   */\n      0xa0\n        /* \"#utility.yul\":18842:18845   */\n      dup7\n        /* \"#utility.yul\":18838:18852   */\n      add\n        /* \"#utility.yul\":18831:18869   */\n      mstore\n        /* \"#utility.yul\":18890:18993   */\n      tag_464\n        /* \"#utility.yul\":18988:18992   */\n      dup3\n        /* \"#utility.yul\":18974:18986   */\n      dup3\n        /* \"#utility.yul\":18890:18993   */\n      tag_243\n      jump\t// in\n    tag_464:\n        /* \"#utility.yul\":18882:18993   */\n      swap2\n      pop\n        /* \"#utility.yul\":18721:19004   */\n      pop\n        /* \"#utility.yul\":19021:19025   */\n      dup1\n        /* \"#utility.yul\":19014:19025   */\n      swap2\n      pop\n        /* \"#utility.yul\":17404:19031   */\n      pop\n        /* \"#utility.yul\":17280:19031   */\n      swap3\n      swap2\n      pop\n      pop\n      jump\t// out\n        /* \"#utility.yul\":19037:19410   */\n    tag_45:\n        /* \"#utility.yul\":19180:19184   */\n      0x00\n        /* \"#utility.yul\":19218:19220   */\n      0x20\n        /* \"#utility.yul\":19207:19216   */\n      dup3\n        /* \"#utility.yul\":19203:19221   */\n      add\n        /* \"#utility.yul\":19195:19221   */\n      swap1\n      pop\n        /* \"#utility.yul\":19267:19276   */\n      dup2\n        /* \"#utility.yul\":19261:19265   */\n      dup2\n        /* \"#utility.yul\":19257:19277   */\n      sub\n        /* \"#utility.yul\":19253:19254   */\n      0x00\n        /* \"#utility.yul\":19242:19251   */\n      dup4\n        /* \"#utility.yul\":19238:19255   */\n      add\n        /* \"#utility.yul\":19231:19278   */\n      mstore\n        /* \"#utility.yul\":19295:19403   */\n      tag_466\n        /* \"#utility.yul\":19398:19402   */\n      dup2\n        /* \"#utility.yul\":19389:19395   */\n      dup5\n        /* \"#utility.yul\":19295:19403   */\n      tag_244\n      jump\t// in\n    tag_466:\n        /* \"#utility.yul\":19287:19403   */\n      swap1\n      pop\n        /* \"#utility.yul\":19037:19410   */\n      swap3\n      swap2\n      pop\n      pop\n      jump\t// out\n        /* \"#utility.yul\":19512:20942   */\n    tag_245:\n        /* \"#utility.yul\":19637:19640   */\n      0x00\n        /* \"#utility.yul\":19673:19677   */\n      0xa0\n        /* \"#utility.yul\":19668:19671   */\n      dup4\n        /* \"#utility.yul\":19664:19678   */\n      add\n        /* \"#utility.yul\":19762:19766   */\n      0x00\n        /* \"#utility.yul\":19755:19760   */\n      dup4\n        /* \"#utility.yul\":19751:19767   */\n      add\n        /* \"#utility.yul\":19745:19768   */\n      mload\n        /* \"#utility.yul\":19781:19844   */\n      tag_468\n        /* \"#utility.yul\":19838:19842   */\n      0x00\n        /* \"#utility.yul\":19833:19836   */\n      dup7\n        /* \"#utility.yul\":19829:19843   */\n      add\n        /* \"#utility.yul\":19815:19827   */\n      dup3\n        /* \"#utility.yul\":19781:19844   */\n      tag_224\n      jump\t// in\n    tag_468:\n        /* \"#utility.yul\":19688:19854   */\n      pop\n        /* \"#utility.yul\":19940:19944   */\n      0x20\n        /* \"#utility.yul\":19933:19938   */\n      dup4\n        /* \"#utility.yul\":19929:19945   */\n      add\n        /* \"#utility.yul\":19923:19946   */\n      mload\n        /* \"#utility.yul\":19993:19996   */\n      dup5\n        /* \"#utility.yul\":19987:19991   */\n      dup3\n        /* \"#utility.yul\":19983:19997   */\n      sub\n        /* \"#utility.yul\":19976:19980   */\n      0x20\n        /* \"#utility.yul\":19971:19974   */\n      dup7\n        /* \"#utility.yul\":19967:19981   */\n      add\n        /* \"#utility.yul\":19960:19998   */\n      mstore\n        /* \"#utility.yul\":20019:20092   */\n      tag_469\n        /* \"#utility.yul\":20087:20091   */\n      dup3\n        /* \"#utility.yul\":20073:20085   */\n      dup3\n        /* \"#utility.yul\":20019:20092   */\n      tag_223\n      jump\t// in\n    tag_469:\n        /* \"#utility.yul\":20011:20092   */\n      swap2\n      pop\n        /* \"#utility.yul\":19864:20103   */\n      pop\n        /* \"#utility.yul\":20192:20196   */\n      0x40\n        /* \"#utility.yul\":20185:20190   */\n      dup4\n        /* \"#utility.yul\":20181:20197   */\n      add\n        /* \"#utility.yul\":20175:20198   */\n      mload\n        /* \"#utility.yul\":20245:20248   */\n      dup5\n        /* \"#utility.yul\":20239:20243   */\n      dup3\n        /* \"#utility.yul\":20235:20249   */\n      sub\n        /* \"#utility.yul\":20228:20232   */\n      0x40\n        /* \"#utility.yul\":20223:20226   */\n      dup7\n        /* \"#utility.yul\":20219:20233   */\n      add\n        /* \"#utility.yul\":20212:20250   */\n      mstore\n        /* \"#utility.yul\":20271:20344   */\n      tag_470\n        /* \"#utility.yul\":20339:20343   */\n      dup3\n        /* \"#utility.yul\":20325:20337   */\n      dup3\n        /* \"#utility.yul\":20271:20344   */\n      tag_223\n      jump\t// in\n    tag_470:\n        /* \"#utility.yul\":20263:20344   */\n      swap2\n      pop\n        /* \"#utility.yul\":20113:20355   */\n      pop\n        /* \"#utility.yul\":20446:20450   */\n      0x60\n        /* \"#utility.yul\":20439:20444   */\n      dup4\n        /* \"#utility.yul\":20435:20451   */\n      add\n        /* \"#utility.yul\":20429:20452   */\n      mload\n        /* \"#utility.yul\":20499:20502   */\n      dup5\n        /* \"#utility.yul\":20493:20497   */\n      dup3\n        /* \"#utility.yul\":20489:20503   */\n      sub\n        /* \"#utility.yul\":20482:20486   */\n      0x60\n        /* \"#utility.yul\":20477:20480   */\n      dup7\n        /* \"#utility.yul\":20473:20487   */\n      add\n        /* \"#utility.yul\":20466:20504   */\n      mstore\n        /* \"#utility.yul\":20525:20598   */\n      tag_471\n        /* \"#utility.yul\":20593:20597   */\n      dup3\n        /* \"#utility.yul\":20579:20591   */\n      dup3\n        /* \"#utility.yul\":20525:20598   */\n      tag_223\n      jump\t// in\n    tag_471:\n        /* \"#utility.yul\":20517:20598   */\n      swap2\n      pop\n        /* \"#utility.yul\":20365:20609   */\n      pop\n        /* \"#utility.yul\":20702:20706   */\n      0x80\n        /* \"#utility.yul\":20695:20700   */\n      dup4\n        /* \"#utility.yul\":20691:20707   */\n      add\n        /* \"#utility.yul\":20685:20708   */\n      mload\n        /* \"#utility.yul\":20755:20758   */\n      dup5\n        /* \"#utility.yul\":20749:20753   */\n      dup3\n        /* \"#utility.yul\":20745:20759   */\n      sub\n        /* \"#utility.yul\":20738:20742   */\n      0x80\n        /* \"#utility.yul\":20733:20736   */\n      dup7\n        /* \"#utility.yul\":20729:20743   */\n      add\n        /* \"#utility.yul\":20722:20760   */\n      mstore\n        /* \"#utility.yul\":20781:20904   */\n      tag_472\n        /* \"#utility.yul\":20899:20903   */\n      dup3\n        /* \"#utility.yul\":20885:20897   */\n      dup3\n        /* \"#utility.yul\":20781:20904   */\n      tag_230\n      jump\t// in\n    tag_472:\n        /* \"#utility.yul\":20773:20904   */\n      swap2\n      pop\n        /* \"#utility.yul\":20619:20915   */\n      pop\n        /* \"#utility.yul\":20932:20936   */\n      dup1\n        /* \"#utility.yul\":20925:20936   */\n      swap2\n      pop\n        /* \"#utility.yul\":19642:20942   */\n      pop\n        /* \"#utility.yul\":19512:20942   */\n      swap3\n      swap2\n      pop\n      pop\n      jump\t// out\n        /* \"#utility.yul\":20948:21333   */\n    tag_50:\n        /* \"#utility.yul\":21097:21101   */\n      0x00\n        /* \"#utility.yul\":21135:21137   */\n      0x20\n        /* \"#utility.yul\":21124:21133   */\n      dup3\n        /* \"#utility.yul\":21120:21138   */\n      add\n        /* \"#utility.yul\":21112:21138   */\n      swap1\n      pop\n        /* \"#utility.yul\":21184:21193   */\n      dup2\n        /* \"#utility.yul\":21178:21182   */\n      dup2\n        /* \"#utility.yul\":21174:21194   */\n      sub\n        /* \"#utility.yul\":21170:21171   */\n      0x00\n        /* \"#utility.yul\":21159:21168   */\n      dup4\n        /* \"#utility.yul\":21155:21172   */\n      add\n        /* \"#utility.yul\":21148:21195   */\n      mstore\n        /* \"#utility.yul\":21212:21326   */\n      tag_474\n        /* \"#utility.yul\":21321:21325   */\n      dup2\n        /* \"#utility.yul\":21312:21318   */\n      dup5\n        /* \"#utility.yul\":21212:21326   */\n      tag_245\n      jump\t// in\n    tag_474:\n        /* \"#utility.yul\":21204:21326   */\n      swap1\n      pop\n        /* \"#utility.yul\":20948:21333   */\n      swap3\n      swap2\n      pop\n      pop\n      jump\t// out\n        /* \"#utility.yul\":21339:21508   */\n    tag_246:\n        /* \"#utility.yul\":21423:21434   */\n      0x00\n        /* \"#utility.yul\":21457:21463   */\n      dup3\n        /* \"#utility.yul\":21452:21455   */\n      dup3\n        /* \"#utility.yul\":21445:21464   */\n      mstore\n        /* \"#utility.yul\":21497:21501   */\n      0x20\n        /* \"#utility.yul\":21492:21495   */\n      dup3\n        /* \"#utility.yul\":21488:21502   */\n      add\n        /* \"#utility.yul\":21473:21502   */\n      swap1\n      pop\n        /* \"#utility.yul\":21339:21508   */\n      swap3\n      swap2\n      pop\n      pop\n      jump\t// out\n        /* \"#utility.yul\":21514:21751   */\n    tag_247:\n        /* \"#utility.yul\":21654:21688   */\n      0x4f6e6c792074686520636f6e7472616374206f776e65722063616e2070657266\n        /* \"#utility.yul\":21650:21651   */\n      0x00\n        /* \"#utility.yul\":21642:21648   */\n      dup3\n        /* \"#utility.yul\":21638:21652   */\n      add\n        /* \"#utility.yul\":21631:21689   */\n      mstore\n        /* \"#utility.yul\":21723:21743   */\n      0x6f726d2074686973206f7065726174696f6e0000000000000000000000000000\n        /* \"#utility.yul\":21718:21720   */\n      0x20\n        /* \"#utility.yul\":21710:21716   */\n      dup3\n        /* \"#utility.yul\":21706:21721   */\n      add\n        /* \"#utility.yul\":21699:21744   */\n      mstore\n        /* \"#utility.yul\":21514:21751   */\n      pop\n      jump\t// out\n        /* \"#utility.yul\":21757:22123   */\n    tag_248:\n        /* \"#utility.yul\":21899:21902   */\n      0x00\n        /* \"#utility.yul\":21920:21987   */\n      tag_478\n        /* \"#utility.yul\":21984:21986   */\n      0x32\n        /* \"#utility.yul\":21979:21982   */\n      dup4\n        /* \"#utility.yul\":21920:21987   */\n      tag_246\n      jump\t// in\n    tag_478:\n        /* \"#utility.yul\":21913:21987   */\n      swap2\n      pop\n        /* \"#utility.yul\":21996:22089   */\n      tag_479\n        /* \"#utility.yul\":22085:22088   */\n      dup3\n        /* \"#utility.yul\":21996:22089   */\n      tag_247\n      jump\t// in\n    tag_479:\n        /* \"#utility.yul\":22114:22116   */\n      0x40\n        /* \"#utility.yul\":22109:22112   */\n      dup3\n        /* \"#utility.yul\":22105:22117   */\n      add\n        /* \"#utility.yul\":22098:22117   */\n      swap1\n      pop\n        /* \"#utility.yul\":21757:22123   */\n      swap2\n      swap1\n      pop\n      jump\t// out\n        /* \"#utility.yul\":22129:22548   */\n    tag_54:\n        /* \"#utility.yul\":22295:22299   */\n      0x00\n        /* \"#utility.yul\":22333:22335   */\n      0x20\n        /* \"#utility.yul\":22322:22331   */\n      dup3\n        /* \"#utility.yul\":22318:22336   */\n      add\n        /* \"#utility.yul\":22310:22336   */\n      swap1\n      pop\n        /* \"#utility.yul\":22382:22391   */\n      dup2\n        /* \"#utility.yul\":22376:22380   */\n      dup2\n        /* \"#utility.yul\":22372:22392   */\n      sub\n        /* \"#utility.yul\":22368:22369   */\n      0x00\n        /* \"#utility.yul\":22357:22366   */\n      dup4\n        /* \"#utility.yul\":22353:22370   */\n      add\n        /* \"#utility.yul\":22346:22393   */\n      mstore\n        /* \"#utility.yul\":22410:22541   */\n      tag_481\n        /* \"#utility.yul\":22536:22540   */\n      dup2\n        /* \"#utility.yul\":22410:22541   */\n      tag_248\n      jump\t// in\n    tag_481:\n        /* \"#utility.yul\":22402:22541   */\n      swap1\n      pop\n        /* \"#utility.yul\":22129:22548   */\n      swap2\n      swap1\n      pop\n      jump\t// out\n        /* \"#utility.yul\":22554:22734   */\n    tag_249:\n        /* \"#utility.yul\":22602:22679   */\n      0x4e487b7100000000000000000000000000000000000000000000000000000000\n        /* \"#utility.yul\":22599:22600   */\n      0x00\n        /* \"#utility.yul\":22592:22680   */\n      mstore\n        /* \"#utility.yul\":22699:22703   */\n      0x22\n        /* \"#utility.yul\":22696:22697   */\n      0x04\n        /* \"#utility.yul\":22689:22704   */\n      mstore\n        /* \"#utility.yul\":22723:22727   */\n      0x24\n        /* \"#utility.yul\":22720:22721   */\n      0x00\n        /* \"#utility.yul\":22713:22728   */\n      revert\n        /* \"#utility.yul\":22740:23060   */\n    tag_113:\n        /* \"#utility.yul\":22784:22790   */\n      0x00\n        /* \"#utility.yul\":22821:22822   */\n      0x02\n        /* \"#utility.yul\":22815:22819   */\n      dup3\n        /* \"#utility.yul\":22811:22823   */\n      div\n        /* \"#utility.yul\":22801:22823   */\n      swap1\n      pop\n        /* \"#utility.yul\":22868:22869   */\n      0x01\n        /* \"#utility.yul\":22862:22866   */\n      dup3\n        /* \"#utility.yul\":22858:22870   */\n      and\n        /* \"#utility.yul\":22889:22907   */\n      dup1\n        /* \"#utility.yul\":22879:22960   */\n      tag_484\n      jumpi\n        /* \"#utility.yul\":22945:22949   */\n      0x7f\n        /* \"#utility.yul\":22937:22943   */\n      dup3\n        /* \"#utility.yul\":22933:22950   */\n      and\n        /* \"#utility.yul\":22923:22950   */\n      swap2\n      pop\n        /* \"#utility.yul\":22879:22960   */\n    tag_484:\n        /* \"#utility.yul\":23007:23009   */\n      0x20\n        /* \"#utility.yul\":22999:23005   */\n      dup3\n        /* \"#utility.yul\":22996:23010   */\n      lt\n        /* \"#utility.yul\":22976:22994   */\n      dup2\n        /* \"#utility.yul\":22973:23011   */\n      sub\n        /* \"#utility.yul\":22970:23054   */\n      tag_485\n      jumpi\n        /* \"#utility.yul\":23026:23044   */\n      tag_486\n      tag_249\n      jump\t// in\n    tag_486:\n        /* \"#utility.yul\":22970:23054   */\n    tag_485:\n        /* \"#utility.yul\":22791:23060   */\n      pop\n        /* \"#utility.yul\":22740:23060   */\n      swap2\n      swap1\n      pop\n      jump\t// out\n        /* \"#utility.yul\":23066:23207   */\n    tag_250:\n        /* \"#utility.yul\":23115:23119   */\n      0x00\n        /* \"#utility.yul\":23138:23141   */\n      dup2\n        /* \"#utility.yul\":23130:23141   */\n      swap1\n      pop\n        /* \"#utility.yul\":23161:23164   */\n      dup2\n        /* \"#utility.yul\":23158:23159   */\n      0x00\n        /* \"#utility.yul\":23151:23165   */\n      mstore\n        /* \"#utility.yul\":23195:23199   */\n      0x20\n        /* \"#utility.yul\":23192:23193   */\n      0x00\n        /* \"#utility.yul\":23182:23200   */\n      keccak256\n        /* \"#utility.yul\":23174:23200   */\n      swap1\n      pop\n        /* \"#utility.yul\":23066:23207   */\n      swap2\n      swap1\n      pop\n      jump\t// out\n        /* \"#utility.yul\":23213:23306   */\n    tag_251:\n        /* \"#utility.yul\":23250:23256   */\n      0x00\n        /* \"#utility.yul\":23297:23299   */\n      0x20\n        /* \"#utility.yul\":23292:23294   */\n      0x1f\n        /* \"#utility.yul\":23285:23290   */\n      dup4\n        /* \"#utility.yul\":23281:23295   */\n      add\n        /* \"#utility.yul\":23277:23300   */\n      div\n        /* \"#utility.yul\":23267:23300   */\n      swap1\n      pop\n        /* \"#utility.yul\":23213:23306   */\n      swap2\n      swap1\n      pop\n      jump\t// out\n        /* \"#utility.yul\":23312:23419   */\n    tag_252:\n        /* \"#utility.yul\":23356:23364   */\n      0x00\n        /* \"#utility.yul\":23406:23411   */\n      dup3\n        /* \"#utility.yul\":23400:23404   */\n      dup3\n        /* \"#utility.yul\":23396:23412   */\n      shl\n        /* \"#utility.yul\":23375:23412   */\n      swap1\n      pop\n        /* \"#utility.yul\":23312:23419   */\n      swap3\n      swap2\n      pop\n      pop\n      jump\t// out\n        /* \"#utility.yul\":23425:23818   */\n    tag_253:\n        /* \"#utility.yul\":23494:23500   */\n      0x00\n        /* \"#utility.yul\":23544:23545   */\n      0x08\n        /* \"#utility.yul\":23532:23542   */\n      dup4\n        /* \"#utility.yul\":23528:23546   */\n      mul\n        /* \"#utility.yul\":23567:23664   */\n      tag_491\n        /* \"#utility.yul\":23597:23663   */\n      0xffffffffffffffffffffffffffffffffffffffffffffffffffffffffffffffff\n        /* \"#utility.yul\":23586:23595   */\n      dup3\n        /* \"#utility.yul\":23567:23664   */\n      tag_252\n      jump\t// in\n    tag_491:\n        /* \"#utility.yul\":23685:23724   */\n      tag_492\n        /* \"#utility.yul\":23715:23723   */\n      dup7\n        /* \"#utility.yul\":23704:23713   */\n      dup4\n        /* \"#utility.yul\":23685:23724   */\n      tag_252\n      jump\t// in\n    tag_492:\n        /* \"#utility.yul\":23673:23724   */\n      swap6\n      pop\n        /* \"#utility.yul\":23757:23761   */\n      dup1\n        /* \"#utility.yul\":23753:23762   */\n      not\n        /* \"#utility.yul\":23746:23751   */\n      dup5\n        /* \"#utility.yul\":23742:23763   */\n      and\n        /* \"#utility.yul\":23733:23763   */\n      swap4\n      pop\n        /* \"#utility.yul\":23806:23810   */\n      dup1\n        /* \"#utility.yul\":23796:23804   */\n      dup7\n        /* \"#utility.yul\":23792:23811   */\n      and\n        /* \"#utility.yul\":23785:23790   */\n      dup5\n        /* \"#utility.yul\":23782:23812   */\n      or\n        /* \"#utility.yul\":23772:23812   */\n      swap3\n      pop\n        /* \"#utility.yul\":23501:23818   */\n      pop\n      pop\n        /* \"#utility.yul\":23425:23818   */\n      swap4\n      swap3\n      pop\n      pop\n      pop\n      jump\t// out\n        /* \"#utility.yul\":23824:23884   */\n    tag_254:\n        /* \"#utility.yul\":23852:23855   */\n      0x00\n        /* \"#utility.yul\":23873:23878   */\n      dup2\n        /* \"#utility.yul\":23866:23878   */\n      swap1\n      pop\n        /* \"#utility.yul\":23824:23884   */\n      swap2\n      swap1\n      pop\n      jump\t// out\n        /* \"#utility.yul\":23890:24032   */\n    tag_255:\n        /* \"#utility.yul\":23940:23949   */\n      0x00\n        /* \"#utility.yul\":23973:24026   */\n      tag_495\n        /* \"#utility.yul\":23991:24025   */\n      tag_496\n        /* \"#utility.yul\":24000:24024   */\n      tag_497\n        /* \"#utility.yul\":24018:24023   */\n      dup5\n        /* \"#utility.yul\":24000:24024   */\n      tag_195\n      jump\t// in\n    tag_497:\n        /* \"#utility.yul\":23991:24025   */\n      tag_254\n      jump\t// in\n    tag_496:\n        /* \"#utility.yul\":23973:24026   */\n      tag_195\n      jump\t// in\n    tag_495:\n        /* \"#utility.yul\":23960:24026   */\n      swap1\n      pop\n        /* \"#utility.yul\":23890:24032   */\n      swap2\n      swap1\n      pop\n      jump\t// out\n        /* \"#utility.yul\":24038:24113   */\n    tag_256:\n        /* \"#utility.yul\":24081:24084   */\n      0x00\n        /* \"#utility.yul\":24102:24107   */\n      dup2\n        /* \"#utility.yul\":24095:24107   */\n      swap1\n      pop\n        /* \"#utility.yul\":24038:24113   */\n      swap2\n      swap1\n      pop\n      jump\t// out\n        /* \"#utility.yul\":24119:24388   */\n    tag_257:\n        /* \"#utility.yul\":24229:24268   */\n      tag_500\n        /* \"#utility.yul\":24260:24267   */\n      dup4\n        /* \"#utility.yul\":24229:24268   */\n      tag_255\n      jump\t// in\n    tag_500:\n        /* \"#utility.yul\":24290:24381   */\n      tag_501\n        /* \"#utility.yul\":24339:24380   */\n      tag_502\n        /* \"#utility.yul\":24363:24379   */\n      dup3\n        /* \"#utility.yul\":24339:24380   */\n      tag_256\n      jump\t// in\n    tag_502:\n        /* \"#utility.yul\":24331:24337   */\n      dup5\n        /* \"#utility.yul\":24324:24328   */\n      dup5\n        /* \"#utility.yul\":24318:24329   */\n      sload\n        /* \"#utility.yul\":24290:24381   */\n      tag_253\n      jump\t// in\n    tag_501:\n        /* \"#utility.yul\":24284:24288   */\n      dup3\n        /* \"#utility.yul\":24277:24382   */\n      sstore\n        /* \"#utility.yul\":24195:24388   */\n      pop\n        /* \"#utility.yul\":24119:24388   */\n      pop\n      pop\n      pop\n      jump\t// out\n        /* \"#utility.yul\":24394:24467   */\n    tag_258:\n        /* \"#utility.yul\":24439:24442   */\n      0x00\n        /* \"#utility.yul\":24394:24467   */\n      swap1\n      jump\t// out\n        /* \"#utility.yul\":24473:24662   */\n    tag_259:\n        /* \"#utility.yul\":24550:24582   */\n      tag_505\n      tag_258\n      jump\t// in\n    tag_505:\n        /* \"#utility.yul\":24591:24656   */\n      tag_506\n        /* \"#utility.yul\":24649:24655   */\n      dup2\n        /* \"#utility.yul\":24641:24647   */\n      dup5\n        /* \"#utility.yul\":24635:24639   */\n      dup5\n        /* \"#utility.yul\":24591:24656   */\n      tag_257\n      jump\t// in\n    tag_506:\n        /* \"#utility.yul\":24526:24662   */\n      pop\n        /* \"#utility.yul\":24473:24662   */\n      pop\n      pop\n      jump\t// out\n        /* \"#utility.yul\":24668:24854   */\n    tag_260:\n        /* \"#utility.yul\":24728:24848   */\n    tag_508:\n        /* \"#utility.yul\":24745:24748   */\n      dup2\n        /* \"#utility.yul\":24738:24743   */\n      dup2\n        /* \"#utility.yul\":24735:24749   */\n      lt\n        /* \"#utility.yul\":24728:24848   */\n      iszero\n      tag_510\n      jumpi\n        /* \"#utility.yul\":24799:24838   */\n      tag_511\n        /* \"#utility.yul\":24836:24837   */\n      0x00\n        /* \"#utility.yul\":24829:24834   */\n      dup3\n        /* \"#utility.yul\":24799:24838   */\n      tag_259\n      jump\t// in\n    tag_511:\n        /* \"#utility.yul\":24772:24773   */\n      0x01\n        /* \"#utility.yul\":24765:24770   */\n      dup2\n        /* \"#utility.yul\":24761:24774   */\n      add\n        /* \"#utility.yul\":24752:24774   */\n      swap1\n      pop\n        /* \"#utility.yul\":24728:24848   */\n      jump(tag_508)\n    tag_510:\n        /* \"#utility.yul\":24668:24854   */\n      pop\n      pop\n      jump\t// out\n        /* \"#utility.yul\":24860:25403   */\n    tag_261:\n        /* \"#utility.yul\":24961:24963   */\n      0x1f\n        /* \"#utility.yul\":24956:24959   */\n      dup3\n        /* \"#utility.yul\":24953:24964   */\n      gt\n        /* \"#utility.yul\":24950:25396   */\n      iszero\n      tag_513\n      jumpi\n        /* \"#utility.yul\":24995:25033   */\n      tag_514\n        /* \"#utility.yul\":25027:25032   */\n      dup2\n        /* \"#utility.yul\":24995:25033   */\n      tag_250\n      jump\t// in\n    tag_514:\n        /* \"#utility.yul\":25079:25108   */\n      tag_515\n        /* \"#utility.yul\":25097:25107   */\n      dup5\n        /* \"#utility.yul\":25079:25108   */\n      tag_251\n      jump\t// in\n    tag_515:\n        /* \"#utility.yul\":25069:25077   */\n      dup2\n        /* \"#utility.yul\":25065:25109   */\n      add\n        /* \"#utility.yul\":25262:25264   */\n      0x20\n        /* \"#utility.yul\":25250:25260   */\n      dup6\n        /* \"#utility.yul\":25247:25265   */\n      lt\n        /* \"#utility.yul\":25244:25293   */\n      iszero\n      tag_516\n      jumpi\n        /* \"#utility.yul\":25283:25291   */\n      dup2\n        /* \"#utility.yul\":25268:25291   */\n      swap1\n      pop\n        /* \"#utility.yul\":25244:25293   */\n    tag_516:\n        /* \"#utility.yul\":25306:25386   */\n      tag_517\n        /* \"#utility.yul\":25362:25384   */\n      tag_518\n        /* \"#utility.yul\":25380:25383   */\n      dup6\n        /* \"#utility.yul\":25362:25384   */\n      tag_251\n      jump\t// in\n    tag_518:\n        /* \"#utility.yul\":25352:25360   */\n      dup4\n        /* \"#utility.yul\":25348:25385   */\n      add\n        /* \"#utility.yul\":25335:25346   */\n      dup3\n        /* \"#utility.yul\":25306:25386   */\n      tag_260\n      jump\t// in\n    tag_517:\n        /* \"#utility.yul\":24965:25396   */\n      pop\n      pop\n        /* \"#utility.yul\":24950:25396   */\n    tag_513:\n        /* \"#utility.yul\":24860:25403   */\n      pop\n      pop\n      pop\n      jump\t// out\n        /* \"#utility.yul\":25409:25526   */\n    tag_262:\n        /* \"#utility.yul\":25463:25471   */\n      0x00\n        /* \"#utility.yul\":25513:25518   */\n      dup3\n        /* \"#utility.yul\":25507:25511   */\n      dup3\n        /* \"#utility.yul\":25503:25519   */\n      shr\n        /* \"#utility.yul\":25482:25519   */\n      swap1\n      pop\n        /* \"#utility.yul\":25409:25526   */\n      swap3\n      swap2\n      pop\n      pop\n      jump\t// out\n        /* \"#utility.yul\":25532:25701   */\n    tag_263:\n        /* \"#utility.yul\":25576:25582   */\n      0x00\n        /* \"#utility.yul\":25609:25660   */\n      tag_521\n        /* \"#utility.yul\":25657:25658   */\n      0x00\n        /* \"#utility.yul\":25653:25659   */\n      not\n        /* \"#utility.yul\":25645:25650   */\n      dup5\n        /* \"#utility.yul\":25642:25643   */\n      0x08\n        /* \"#utility.yul\":25638:25651   */\n      mul\n        /* \"#utility.yul\":25609:25660   */\n      tag_262\n      jump\t// in\n    tag_521:\n        /* \"#utility.yul\":25605:25661   */\n      not\n        /* \"#utility.yul\":25690:25694   */\n      dup1\n        /* \"#utility.yul\":25684:25688   */\n      dup4\n        /* \"#utility.yul\":25680:25695   */\n      and\n        /* \"#utility.yul\":25670:25695   */\n      swap2\n      pop\n        /* \"#utility.yul\":25583:25701   */\n      pop\n        /* \"#utility.yul\":25532:25701   */\n      swap3\n      swap2\n      pop\n      pop\n      jump\t// out\n        /* \"#utility.yul\":25706:26001   */\n    tag_264:\n        /* \"#utility.yul\":25782:25786   */\n      0x00\n        /* \"#utility.yul\":25928:25957   */\n      tag_523\n        /* \"#utility.yul\":25953:25956   */\n      dup4\n        /* \"#utility.yul\":25947:25951   */\n      dup4\n        /* \"#utility.yul\":25928:25957   */\n      tag_263\n      jump\t// in\n    tag_523:\n        /* \"#utility.yul\":25920:25957   */\n      swap2\n      pop\n        /* \"#utility.yul\":25990:25993   */\n      dup3\n        /* \"#utility.yul\":25987:25988   */\n      0x02\n        /* \"#utility.yul\":25983:25994   */\n      mul\n        /* \"#utility.yul\":25977:25981   */\n      dup3\n        /* \"#utility.yul\":25974:25995   */\n      or\n        /* \"#utility.yul\":25966:25995   */\n      swap1\n      pop\n        /* \"#utility.yul\":25706:26001   */\n      swap3\n      swap2\n      pop\n      pop\n      jump\t// out\n        /* \"#utility.yul\":26006:27401   */\n    tag_57:\n        /* \"#utility.yul\":26123:26160   */\n      tag_525\n        /* \"#utility.yul\":26156:26159   */\n      dup3\n        /* \"#utility.yul\":26123:26160   */\n      tag_220\n      jump\t// in\n    tag_525:\n        /* \"#utility.yul\":26225:26243   */\n      0xffffffffffffffff\n        /* \"#utility.yul\":26217:26223   */\n      dup2\n        /* \"#utility.yul\":26214:26244   */\n      gt\n        /* \"#utility.yul\":26211:26267   */\n      iszero\n      tag_526\n      jumpi\n        /* \"#utility.yul\":26247:26265   */\n      tag_527\n      tag_88\n      jump\t// in\n    tag_527:\n        /* \"#utility.yul\":26211:26267   */\n    tag_526:\n        /* \"#utility.yul\":26291:26329   */\n      tag_528\n        /* \"#utility.yul\":26323:26327   */\n      dup3\n        /* \"#utility.yul\":26317:26328   */\n      sload\n        /* \"#utility.yul\":26291:26329   */\n      tag_113\n      jump\t// in\n    tag_528:\n        /* \"#utility.yul\":26376:26443   */\n      tag_529\n        /* \"#utility.yul\":26436:26442   */\n      dup3\n        /* \"#utility.yul\":26428:26434   */\n      dup3\n        /* \"#utility.yul\":26422:26426   */\n      dup6\n        /* \"#utility.yul\":26376:26443   */\n      tag_261\n      jump\t// in\n    tag_529:\n        /* \"#utility.yul\":26470:26471   */\n      0x00\n        /* \"#utility.yul\":26494:26498   */\n      0x20\n        /* \"#utility.yul\":26481:26498   */\n      swap1\n      pop\n        /* \"#utility.yul\":26526:26528   */\n      0x1f\n        /* \"#utility.yul\":26518:26524   */\n      dup4\n        /* \"#utility.yul\":26515:26529   */\n      gt\n        /* \"#utility.yul\":26543:26544   */\n      0x01\n        /* \"#utility.yul\":26538:27156   */\n      dup2\n      eq\n      tag_531\n      jumpi\n        /* \"#utility.yul\":27200:27201   */\n      0x00\n        /* \"#utility.yul\":27217:27223   */\n      dup5\n        /* \"#utility.yul\":27214:27291   */\n      iszero\n      tag_532\n      jumpi\n        /* \"#utility.yul\":27266:27275   */\n      dup3\n        /* \"#utility.yul\":27261:27264   */\n      dup8\n        /* \"#utility.yul\":27257:27276   */\n      add\n        /* \"#utility.yul\":27251:27277   */\n      mload\n        /* \"#utility.yul\":27242:27277   */\n      swap1\n      pop\n        /* \"#utility.yul\":27214:27291   */\n    tag_532:\n        /* \"#utility.yul\":27317:27384   */\n      tag_533\n        /* \"#utility.yul\":27377:27383   */\n      dup6\n        /* \"#utility.yul\":27370:27375   */\n      dup3\n        /* \"#utility.yul\":27317:27384   */\n      tag_264\n      jump\t// in\n    tag_533:\n        /* \"#utility.yul\":27311:27315   */\n      dup7\n        /* \"#utility.yul\":27304:27385   */\n      sstore\n        /* \"#utility.yul\":27173:27395   */\n      pop\n        /* \"#utility.yul\":26508:27395   */\n      jump(tag_530)\n        /* \"#utility.yul\":26538:27156   */\n    tag_531:\n        /* \"#utility.yul\":26590:26594   */\n      0x1f\n        /* \"#utility.yul\":26586:26595   */\n      not\n        /* \"#utility.yul\":26578:26584   */\n      dup5\n        /* \"#utility.yul\":26574:26596   */\n      and\n        /* \"#utility.yul\":26624:26661   */\n      tag_534\n        /* \"#utility.yul\":26656:26660   */\n      dup7\n        /* \"#utility.yul\":26624:26661   */\n      tag_250\n      jump\t// in\n    tag_534:\n        /* \"#utility.yul\":26683:26684   */\n      0x00\n        /* \"#utility.yul\":26697:26905   */\n    tag_535:\n        /* \"#utility.yul\":26711:26718   */\n      dup3\n        /* \"#utility.yul\":26708:26709   */\n      dup2\n        /* \"#utility.yul\":26705:26719   */\n      lt\n        /* \"#utility.yul\":26697:26905   */\n      iszero\n      tag_537\n      jumpi\n        /* \"#utility.yul\":26790:26799   */\n      dup5\n        /* \"#utility.yul\":26785:26788   */\n      dup10\n        /* \"#utility.yul\":26781:26800   */\n      add\n        /* \"#utility.yul\":26775:26801   */\n      mload\n        /* \"#utility.yul\":26767:26773   */\n      dup3\n        /* \"#utility.yul\":26760:26802   */\n      sstore\n        /* \"#utility.yul\":26841:26842   */\n      0x01\n        /* \"#utility.yul\":26833:26839   */\n      dup3\n        /* \"#utility.yul\":26829:26843   */\n      add\n        /* \"#utility.yul\":26819:26843   */\n      swap2\n      pop\n        /* \"#utility.yul\":26888:26890   */\n      0x20\n        /* \"#utility.yul\":26877:26886   */\n      dup6\n        /* \"#utility.yul\":26873:26891   */\n      add\n        /* \"#utility.yul\":26860:26891   */\n      swap5\n      pop\n        /* \"#utility.yul\":26734:26738   */\n      0x20\n        /* \"#utility.yul\":26731:26732   */\n      dup2\n        /* \"#utility.yul\":26727:26739   */\n      add\n        /* \"#utility.yul\":26722:26739   */\n      swap1\n      pop\n        /* \"#utility.yul\":26697:26905   */\n      jump(tag_535)\n    tag_537:\n        /* \"#utility.yul\":26933:26939   */\n      dup7\n        /* \"#utility.yul\":26924:26931   */\n      dup4\n        /* \"#utility.yul\":26921:26940   */\n      lt\n        /* \"#utility.yul\":26918:27097   */\n      iszero\n      tag_538\n      jumpi\n        /* \"#utility.yul\":26991:27000   */\n      dup5\n        /* \"#utility.yul\":26986:26989   */\n      dup10\n        /* \"#utility.yul\":26982:27001   */\n      add\n        /* \"#utility.yul\":26976:27002   */\n      mload\n        /* \"#utility.yul\":27034:27082   */\n      tag_539\n        /* \"#utility.yul\":27076:27080   */\n      0x1f\n        /* \"#utility.yul\":27068:27074   */\n      dup10\n        /* \"#utility.yul\":27064:27081   */\n      and\n        /* \"#utility.yul\":27053:27062   */\n      dup3\n        /* \"#utility.yul\":27034:27082   */\n      tag_263\n      jump\t// in\n    tag_539:\n        /* \"#utility.yul\":27026:27032   */\n      dup4\n        /* \"#utility.yul\":27019:27083   */\n      sstore\n        /* \"#utility.yul\":26941:27097   */\n      pop\n        /* \"#utility.yul\":26918:27097   */\n    tag_538:\n        /* \"#utility.yul\":27143:27144   */\n      0x01\n        /* \"#utility.yul\":27139:27140   */\n      0x02\n        /* \"#utility.yul\":27131:27137   */\n      dup9\n        /* \"#utility.yul\":27127:27141   */\n      mul\n        /* \"#utility.yul\":27123:27145   */\n      add\n        /* \"#utility.yul\":27117:27121   */\n      dup9\n        /* \"#utility.yul\":27110:27146   */\n      sstore\n        /* \"#utility.yul\":26545:27156   */\n      pop\n      pop\n      pop\n        /* \"#utility.yul\":26508:27395   */\n    tag_530:\n      pop\n        /* \"#utility.yul\":26098:27401   */\n      pop\n      pop\n      pop\n        /* \"#utility.yul\":26006:27401   */\n      pop\n      pop\n      jump\t// out\n        /* \"#utility.yul\":27407:27587   */\n    tag_265:\n        /* \"#utility.yul\":27455:27532   */\n      0x4e487b7100000000000000000000000000000000000000000000000000000000\n        /* \"#utility.yul\":27452:27453   */\n      0x00\n        /* \"#utility.yul\":27445:27533   */\n      mstore\n        /* \"#utility.yul\":27552:27556   */\n      0x11\n        /* \"#utility.yul\":27549:27550   */\n      0x04\n        /* \"#utility.yul\":27542:27557   */\n      mstore\n        /* \"#utility.yul\":27576:27580   */\n      0x24\n        /* \"#utility.yul\":27573:27574   */\n      0x00\n        /* \"#utility.yul\":27566:27581   */\n      revert\n        /* \"#utility.yul\":27593:27826   */\n    tag_63:\n        /* \"#utility.yul\":27632:27635   */\n      0x00\n        /* \"#utility.yul\":27655:27679   */\n      tag_542\n        /* \"#utility.yul\":27673:27678   */\n      dup3\n        /* \"#utility.yul\":27655:27679   */\n      tag_195\n      jump\t// in\n    tag_542:\n        /* \"#utility.yul\":27646:27679   */\n      swap2\n      pop\n        /* \"#utility.yul\":27701:27767   */\n      0xffffffffffffffffffffffffffffffffffffffffffffffffffffffffffffffff\n        /* \"#utility.yul\":27694:27699   */\n      dup3\n        /* \"#utility.yul\":27691:27768   */\n      sub\n        /* \"#utility.yul\":27688:27791   */\n      tag_543\n      jumpi\n        /* \"#utility.yul\":27771:27789   */\n      tag_544\n      tag_265\n      jump\t// in\n    tag_544:\n        /* \"#utility.yul\":27688:27791   */\n    tag_543:\n        /* \"#utility.yul\":27818:27819   */\n      0x01\n        /* \"#utility.yul\":27811:27816   */\n      dup3\n        /* \"#utility.yul\":27807:27820   */\n      add\n        /* \"#utility.yul\":27800:27820   */\n      swap1\n      pop\n        /* \"#utility.yul\":27593:27826   */\n      swap2\n      swap1\n      pop\n      jump\t// out\n        /* \"#utility.yul\":27832:27980   */\n    tag_266:\n        /* \"#utility.yul\":27934:27945   */\n      0x00\n        /* \"#utility.yul\":27971:27974   */\n      dup2\n        /* \"#utility.yul\":27956:27974   */\n      swap1\n      pop\n        /* \"#utility.yul\":27832:27980   */\n      swap3\n      swap2\n      pop\n      pop\n      jump\t// out\n        /* \"#utility.yul\":28010:28884   */\n    tag_267:\n        /* \"#utility.yul\":28113:28116   */\n      0x00\n        /* \"#utility.yul\":28150:28155   */\n      dup2\n        /* \"#utility.yul\":28144:28156   */\n      sload\n        /* \"#utility.yul\":28179:28215   */\n      tag_547\n        /* \"#utility.yul\":28205:28214   */\n      dup2\n        /* \"#utility.yul\":28179:28215   */\n      tag_113\n      jump\t// in\n    tag_547:\n        /* \"#utility.yul\":28231:28320   */\n      tag_548\n        /* \"#utility.yul\":28313:28319   */\n      dup2\n        /* \"#utility.yul\":28308:28311   */\n      dup7\n        /* \"#utility.yul\":28231:28320   */\n      tag_266\n      jump\t// in\n    tag_548:\n        /* \"#utility.yul\":28224:28320   */\n      swap5\n      pop\n        /* \"#utility.yul\":28351:28352   */\n      0x01\n        /* \"#utility.yul\":28340:28349   */\n      dup3\n        /* \"#utility.yul\":28336:28353   */\n      and\n        /* \"#utility.yul\":28367:28368   */\n      0x00\n        /* \"#utility.yul\":28362:28528   */\n      dup2\n      eq\n      tag_550\n      jumpi\n        /* \"#utility.yul\":28542:28543   */\n      0x01\n        /* \"#utility.yul\":28537:28878   */\n      dup2\n      eq\n      tag_551\n      jumpi\n        /* \"#utility.yul\":28329:28878   */\n      jump(tag_549)\n        /* \"#utility.yul\":28362:28528   */\n    tag_550:\n        /* \"#utility.yul\":28446:28450   */\n      0xff\n        /* \"#utility.yul\":28442:28451   */\n      not\n        /* \"#utility.yul\":28431:28440   */\n      dup4\n        /* \"#utility.yul\":28427:28452   */\n      and\n        /* \"#utility.yul\":28422:28425   */\n      dup7\n        /* \"#utility.yul\":28415:28453   */\n      mstore\n        /* \"#utility.yul\":28508:28514   */\n      dup2\n        /* \"#utility.yul\":28501:28515   */\n      iszero\n        /* \"#utility.yul\":28494:28516   */\n      iszero\n        /* \"#utility.yul\":28486:28492   */\n      dup3\n        /* \"#utility.yul\":28482:28517   */\n      mul\n        /* \"#utility.yul\":28477:28480   */\n      dup7\n        /* \"#utility.yul\":28473:28518   */\n      add\n        /* \"#utility.yul\":28466:28518   */\n      swap4\n      pop\n        /* \"#utility.yul\":28362:28528   */\n      jump(tag_549)\n        /* \"#utility.yul\":28537:28878   */\n    tag_551:\n        /* \"#utility.yul\":28604:28642   */\n      tag_552\n        /* \"#utility.yul\":28636:28641   */\n      dup6\n        /* \"#utility.yul\":28604:28642   */\n      tag_250\n      jump\t// in\n    tag_552:\n        /* \"#utility.yul\":28664:28665   */\n      0x00\n        /* \"#utility.yul\":28678:28832   */\n    tag_553:\n        /* \"#utility.yul\":28692:28698   */\n      dup4\n        /* \"#utility.yul\":28689:28690   */\n      dup2\n        /* \"#utility.yul\":28686:28699   */\n      lt\n        /* \"#utility.yul\":28678:28832   */\n      iszero\n      tag_555\n      jumpi\n        /* \"#utility.yul\":28766:28773   */\n      dup2\n        /* \"#utility.yul\":28760:28774   */\n      sload\n        /* \"#utility.yul\":28756:28757   */\n      dup2\n        /* \"#utility.yul\":28751:28754   */\n      dup10\n        /* \"#utility.yul\":28747:28758   */\n      add\n        /* \"#utility.yul\":28740:28775   */\n      mstore\n        /* \"#utility.yul\":28816:28817   */\n      0x01\n        /* \"#utility.yul\":28807:28814   */\n      dup3\n        /* \"#utility.yul\":28803:28818   */\n      add\n        /* \"#utility.yul\":28792:28818   */\n      swap2\n      pop\n        /* \"#utility.yul\":28714:28718   */\n      0x20\n        /* \"#utility.yul\":28711:28712   */\n      dup2\n        /* \"#utility.yul\":28707:28719   */\n      add\n        /* \"#utility.yul\":28702:28719   */\n      swap1\n      pop\n        /* \"#utility.yul\":28678:28832   */\n      jump(tag_553)\n    tag_555:\n        /* \"#utility.yul\":28861:28867   */\n      dup4\n        /* \"#utility.yul\":28856:28859   */\n      dup9\n        /* \"#utility.yul\":28852:28868   */\n      add\n        /* \"#utility.yul\":28845:28868   */\n      swap6\n      pop\n        /* \"#utility.yul\":28544:28878   */\n      pop\n      pop\n        /* \"#utility.yul\":28329:28878   */\n    tag_549:\n      pop\n        /* \"#utility.yul\":28117:28884   */\n      pop\n      pop\n        /* \"#utility.yul\":28010:28884   */\n      swap3\n      swap2\n      pop\n      pop\n      jump\t// out\n        /* \"#utility.yul\":28890:29467   */\n    tag_69:\n        /* \"#utility.yul\":29109:29112   */\n      0x00\n        /* \"#utility.yul\":29131:29223   */\n      tag_557\n        /* \"#utility.yul\":29219:29222   */\n      dup3\n        /* \"#utility.yul\":29210:29216   */\n      dup7\n        /* \"#utility.yul\":29131:29223   */\n      tag_267\n      jump\t// in\n    tag_557:\n        /* \"#utility.yul\":29124:29223   */\n      swap2\n      pop\n        /* \"#utility.yul\":29240:29332   */\n      tag_558\n        /* \"#utility.yul\":29328:29331   */\n      dup3\n        /* \"#utility.yul\":29319:29325   */\n      dup6\n        /* \"#utility.yul\":29240:29332   */\n      tag_267\n      jump\t// in\n    tag_558:\n        /* \"#utility.yul\":29233:29332   */\n      swap2\n      pop\n        /* \"#utility.yul\":29349:29441   */\n      tag_559\n        /* \"#utility.yul\":29437:29440   */\n      dup3\n        /* \"#utility.yul\":29428:29434   */\n      dup5\n        /* \"#utility.yul\":29349:29441   */\n      tag_267\n      jump\t// in\n    tag_559:\n        /* \"#utility.yul\":29342:29441   */\n      swap2\n      pop\n        /* \"#utility.yul\":29458:29461   */\n      dup2\n        /* \"#utility.yul\":29451:29461   */\n      swap1\n      pop\n        /* \"#utility.yul\":28890:29467   */\n      swap5\n      swap4\n      pop\n      pop\n      pop\n      pop\n      jump\t// out\n        /* \"#utility.yul\":29473:29653   */\n    tag_75:\n        /* \"#utility.yul\":29521:29598   */\n      0x4e487b7100000000000000000000000000000000000000000000000000000000\n        /* \"#utility.yul\":29518:29519   */\n      0x00\n        /* \"#utility.yul\":29511:29599   */\n      mstore\n        /* \"#utility.yul\":29618:29622   */\n      0x32\n        /* \"#utility.yul\":29615:29616   */\n      0x04\n        /* \"#utility.yul\":29608:29623   */\n      mstore\n        /* \"#utility.yul\":29642:29646   */\n      0x24\n        /* \"#utility.yul\":29639:29640   */\n      0x00\n        /* \"#utility.yul\":29632:29647   */\n      revert\n        /* \"#utility.yul\":29659:29757   */\n    tag_268:\n        /* \"#utility.yul\":29710:29716   */\n      0x00\n        /* \"#utility.yul\":29744:29749   */\n      dup2\n        /* \"#utility.yul\":29738:29750   */\n      mload\n        /* \"#utility.yul\":29728:29750   */\n      swap1\n      pop\n        /* \"#utility.yul\":29659:29757   */\n      swap2\n      swap1\n      pop\n      jump\t// out\n        /* \"#utility.yul\":29763:29910   */\n    tag_269:\n        /* \"#utility.yul\":29864:29875   */\n      0x00\n        /* \"#utility.yul\":29901:29904   */\n      dup2\n        /* \"#utility.yul\":29886:29904   */\n      swap1\n      pop\n        /* \"#utility.yul\":29763:29910   */\n      swap3\n      swap2\n      pop\n      pop\n      jump\t// out\n        /* \"#utility.yul\":29916:30302   */\n    tag_270:\n        /* \"#utility.yul\":30020:30023   */\n      0x00\n        /* \"#utility.yul\":30048:30086   */\n      tag_564\n        /* \"#utility.yul\":30080:30085   */\n      dup3\n        /* \"#utility.yul\":30048:30086   */\n      tag_268\n      jump\t// in\n    tag_564:\n        /* \"#utility.yul\":30102:30190   */\n      tag_565\n        /* \"#utility.yul\":30183:30189   */\n      dup2\n        /* \"#utility.yul\":30178:30181   */\n      dup6\n        /* \"#utility.yul\":30102:30190   */\n      tag_269\n      jump\t// in\n    tag_565:\n        /* \"#utility.yul\":30095:30190   */\n      swap4\n      pop\n        /* \"#utility.yul\":30199:30264   */\n      tag_566\n        /* \"#utility.yul\":30257:30263   */\n      dup2\n        /* \"#utility.yul\":30252:30255   */\n      dup6\n        /* \"#utility.yul\":30245:30249   */\n      0x20\n        /* \"#utility.yul\":30238:30243   */\n      dup7\n        /* \"#utility.yul\":30234:30250   */\n      add\n        /* \"#utility.yul\":30199:30264   */\n      tag_222\n      jump\t// in\n    tag_566:\n        /* \"#utility.yul\":30289:30295   */\n      dup1\n        /* \"#utility.yul\":30284:30287   */\n      dup5\n        /* \"#utility.yul\":30280:30296   */\n      add\n        /* \"#utility.yul\":30273:30296   */\n      swap2\n      pop\n        /* \"#utility.yul\":30024:30302   */\n      pop\n        /* \"#utility.yul\":29916:30302   */\n      swap3\n      swap2\n      pop\n      pop\n      jump\t// out\n        /* \"#utility.yul\":30308:30733   */\n    tag_78:\n        /* \"#utility.yul\":30483:30486   */\n      0x00\n        /* \"#utility.yul\":30505:30598   */\n      tag_568\n        /* \"#utility.yul\":30594:30597   */\n      dup3\n        /* \"#utility.yul\":30585:30591   */\n      dup6\n        /* \"#utility.yul\":30505:30598   */\n      tag_270\n      jump\t// in\n    tag_568:\n        /* \"#utility.yul\":30498:30598   */\n      swap2\n      pop\n        /* \"#utility.yul\":30615:30707   */\n      tag_569\n        /* \"#utility.yul\":30703:30706   */\n      dup3\n        /* \"#utility.yul\":30694:30700   */\n      dup5\n        /* \"#utility.yul\":30615:30707   */\n      tag_267\n      jump\t// in\n    tag_569:\n        /* \"#utility.yul\":30608:30707   */\n      swap2\n      pop\n        /* \"#utility.yul\":30724:30727   */\n      dup2\n        /* \"#utility.yul\":30717:30727   */\n      swap1\n      pop\n        /* \"#utility.yul\":30308:30733   */\n      swap4\n      swap3\n      pop\n      pop\n      pop\n      jump\t// out\n        /* \"#utility.yul\":30739:30914   */\n    tag_271:\n        /* \"#utility.yul\":30879:30906   */\n      0x44617461205573657220646f6573206e6f742065786973742e00000000000000\n        /* \"#utility.yul\":30875:30876   */\n      0x00\n        /* \"#utility.yul\":30867:30873   */\n      dup3\n        /* \"#utility.yul\":30863:30877   */\n      add\n        /* \"#utility.yul\":30856:30907   */\n      mstore\n        /* \"#utility.yul\":30739:30914   */\n      pop\n      jump\t// out\n        /* \"#utility.yul\":30920:31286   */\n    tag_272:\n        /* \"#utility.yul\":31062:31065   */\n      0x00\n        /* \"#utility.yul\":31083:31150   */\n      tag_572\n        /* \"#utility.yul\":31147:31149   */\n      0x19\n        /* \"#utility.yul\":31142:31145   */\n      dup4\n        /* \"#utility.yul\":31083:31150   */\n      tag_246\n      jump\t// in\n    tag_572:\n        /* \"#utility.yul\":31076:31150   */\n      swap2\n      pop\n        /* \"#utility.yul\":31159:31252   */\n      tag_573\n        /* \"#utility.yul\":31248:31251   */\n      dup3\n        /* \"#utility.yul\":31159:31252   */\n      tag_271\n      jump\t// in\n    tag_573:\n        /* \"#utility.yul\":31277:31279   */\n      0x20\n        /* \"#utility.yul\":31272:31275   */\n      dup3\n        /* \"#utility.yul\":31268:31280   */\n      add\n        /* \"#utility.yul\":31261:31280   */\n      swap1\n      pop\n        /* \"#utility.yul\":30920:31286   */\n      swap2\n      swap1\n      pop\n      jump\t// out\n        /* \"#utility.yul\":31292:31711   */\n    tag_111:\n        /* \"#utility.yul\":31458:31462   */\n      0x00\n        /* \"#utility.yul\":31496:31498   */\n      0x20\n        /* \"#utility.yul\":31485:31494   */\n      dup3\n        /* \"#utility.yul\":31481:31499   */\n      add\n        /* \"#utility.yul\":31473:31499   */\n      swap1\n      pop\n        /* \"#utility.yul\":31545:31554   */\n      dup2\n        /* \"#utility.yul\":31539:31543   */\n      dup2\n        /* \"#utility.yul\":31535:31555   */\n      sub\n        /* \"#utility.yul\":31531:31532   */\n      0x00\n        /* \"#utility.yul\":31520:31529   */\n      dup4\n        /* \"#utility.yul\":31516:31533   */\n      add\n        /* \"#utility.yul\":31509:31556   */\n      mstore\n        /* \"#utility.yul\":31573:31704   */\n      tag_575\n        /* \"#utility.yul\":31699:31703   */\n      dup2\n        /* \"#utility.yul\":31573:31704   */\n      tag_272\n      jump\t// in\n    tag_575:\n        /* \"#utility.yul\":31565:31704   */\n      swap1\n      pop\n        /* \"#utility.yul\":31292:31711   */\n      swap2\n      swap1\n      pop\n      jump\t// out\n        /* \"#utility.yul\":31717:31895   */\n    tag_273:\n        /* \"#utility.yul\":31857:31887   */\n      0x506572736f6e616c4461746120646f6573206e6f742065786973742e00000000\n        /* \"#utility.yul\":31853:31854   */\n      0x00\n        /* \"#utility.yul\":31845:31851   */\n      dup3\n        /* \"#utility.yul\":31841:31855   */\n      add\n        /* \"#utility.yul\":31834:31888   */\n      mstore\n        /* \"#utility.yul\":31717:31895   */\n      pop\n      jump\t// out\n        /* \"#utility.yul\":31901:32267   */\n    tag_274:\n        /* \"#utility.yul\":32043:32046   */\n      0x00\n        /* \"#utility.yul\":32064:32131   */\n      tag_578\n        /* \"#utility.yul\":32128:32130   */\n      0x1c\n        /* \"#utility.yul\":32123:32126   */\n      dup4\n        /* \"#utility.yul\":32064:32131   */\n      tag_246\n      jump\t// in\n    tag_578:\n        /* \"#utility.yul\":32057:32131   */\n      swap2\n      pop\n        /* \"#utility.yul\":32140:32233   */\n      tag_579\n        /* \"#utility.yul\":32229:32232   */\n      dup3\n        /* \"#utility.yul\":32140:32233   */\n      tag_273\n      jump\t// in\n    tag_579:\n        /* \"#utility.yul\":32258:32260   */\n      0x20\n        /* \"#utility.yul\":32253:32256   */\n      dup3\n        /* \"#utility.yul\":32249:32261   */\n      add\n        /* \"#utility.yul\":32242:32261   */\n      swap1\n      pop\n        /* \"#utility.yul\":31901:32267   */\n      swap2\n      swap1\n      pop\n      jump\t// out\n        /* \"#utility.yul\":32273:32692   */\n    tag_140:\n        /* \"#utility.yul\":32439:32443   */\n      0x00\n        /* \"#utility.yul\":32477:32479   */\n      0x20\n        /* \"#utility.yul\":32466:32475   */\n      dup3\n        /* \"#utility.yul\":32462:32480   */\n      add\n        /* \"#utility.yul\":32454:32480   */\n      swap1\n      pop\n        /* \"#utility.yul\":32526:32535   */\n      dup2\n        /* \"#utility.yul\":32520:32524   */\n      dup2\n        /* \"#utility.yul\":32516:32536   */\n      sub\n        /* \"#utility.yul\":32512:32513   */\n      0x00\n        /* \"#utility.yul\":32501:32510   */\n      dup4\n        /* \"#utility.yul\":32497:32514   */\n      add\n        /* \"#utility.yul\":32490:32537   */\n      mstore\n        /* \"#utility.yul\":32554:32685   */\n      tag_581\n        /* \"#utility.yul\":32680:32684   */\n      dup2\n        /* \"#utility.yul\":32554:32685   */\n      tag_274\n      jump\t// in\n    tag_581:\n        /* \"#utility.yul\":32546:32685   */\n      swap1\n      pop\n        /* \"#utility.yul\":32273:32692   */\n      swap2\n      swap1\n      pop\n      jump\t// out\n\n    auxdata: 0xa26469706673582212204fa73ede6d9ebdc24f028a7b2e04992f44263a1deeb19b7c7e84a22b196842cb64736f6c63430008180033\n}\n",
				"bytecode": {
					"linkReferences": {},
					"object": "60806040525f6004555f600655348015610017575f80fd5b50335f806101000a81548173ffffffffffffffffffffffffffffffffffffffff021916908373ffffffffffffffffffffffffffffffffffffffff160217905550611f0d806100645f395ff3fe608060405234801561000f575f80fd5b5060043610610091575f3560e01c80638da5cb5b116100645780638da5cb5b14610109578063b61798f614610127578063ca07b12214610157578063d2b0649a14610173578063d8a761d9146101a357610091565b80630dab7cd9146100955780633f81de59146100b15780634b58fbe9146100cd578063682477d7146100eb575b5f80fd5b6100af60048036038101906100aa9190611167565b6101d3565b005b6100cb60048036038101906100c6919061124e565b610320565b005b6100d5610479565b6040516100e29190611288565b60405180910390f35b6100f3610482565b6040516101009190611288565b60405180910390f35b61011161048b565b60405161011e91906112e0565b60405180910390f35b610141600480360381019061013c919061124e565b6104ae565b60405161014e9190611311565b60405180910390f35b610171600480360381019061016c91906113ea565b6104c8565b005b61018d6004803603810190610188919061124e565b6106e8565b60405161019a9190611816565b60405180910390f35b6101bd60048036038101906101b8919061124e565b610a12565b6040516101ca91906118be565b60405180910390f35b5f8054906101000a900473ffffffffffffffffffffffffffffffffffffffff1673ffffffffffffffffffffffffffffffffffffffff163373ffffffffffffffffffffffffffffffffffffffff1614610260576040517f08c379a00000000000000000000000000000000000000000000000000000000081526004016102579061195e565b60405180910390fd5b6040518060a001604052808681526020018581526020018481526020018381526020018281525060025f8781526020019081526020015f205f820151815f015560208201518160010190816102b59190611b76565b5060408201518160020190816102cb9190611b76565b5060608201518160030190816102e19190611b76565b5060808201518160040190805190602001906102fe929190610d1f565b5090505060065f81548092919061031490611c72565b91905055505050505050565b5f8054906101000a900473ffffffffffffffffffffffffffffffffffffffff1673ffffffffffffffffffffffffffffffffffffffff163373ffffffffffffffffffffffffffffffffffffffff16146103ad576040517f08c379a00000000000000000000000000000000000000000000000000000000081526004016103a49061195e565b60405180910390fd5b5f60025f8381526020019081526020015f20905060608160010182600201836003016040516020016103e193929190611d43565b60405160208183030381529060405290505f5b8260040180549050811015610451578183600401828154811061041a57610419611d73565b5b905f5260205f2001604051602001610433929190611de4565b604051602081830303815290604052915080806001019150506103f4565b505f818051906020012090508060035f8681526020019081526020015f208190555050505050565b5f600654905090565b5f600454905090565b5f8054906101000a900473ffffffffffffffffffffffffffffffffffffffff1681565b5f60035f8381526020019081526020015f20549050919050565b5f8054906101000a900473ffffffffffffffffffffffffffffffffffffffff1673ffffffffffffffffffffffffffffffffffffffff163373ffffffffffffffffffffffffffffffffffffffff1614610555576040517f08c379a000000000000000000000000000000000000000000000000000000000815260040161054c9061195e565b60405180910390fd5b5f815167ffffffffffffffff81111561057157610570610f61565b5b60405190808252806020026020018201604052801561059f5781602001602082028036833780820191505090505b5090505f5b82518110156105fc576105d08382815181106105c3576105c2611d73565b5b60200260200101516104ae565b8282815181106105e3576105e2611d73565b5b60200260200101818152505080806001019150506105a4565b506040518060c001604052808781526020018681526020018581526020018481526020018381526020018281525060015f8681526020019081526020015f205f820151815f01908161064e9190611b76565b5060208201518160010190816106649190611b76565b5060408201518160020155606082015181600301908051906020019061068b929190610d1f565b5060808201518160040190805190602001906106a8929190610d76565b5060a08201518160050190805190602001906106c5929190610dc1565b5090505060045f8154809291906106db90611c72565b9190505550505050505050565b6106f0610e0c565b5f60015f8481526020019081526020015f206002015403610746576040517f08c379a000000000000000000000000000000000000000000000000000000000815260040161073d90611e51565b60405180910390fd5b60015f8381526020019081526020015f206040518060c00160405290815f82018054610771906119a9565b80601f016020809104026020016040519081016040528092919081815260200182805461079d906119a9565b80156107e85780601f106107bf576101008083540402835291602001916107e8565b820191905f5260205f20905b8154815290600101906020018083116107cb57829003601f168201915b50505050508152602001600182018054610801906119a9565b80601f016020809104026020016040519081016040528092919081815260200182805461082d906119a9565b80156108785780601f1061084f57610100808354040283529160200191610878565b820191905f5260205f20905b81548152906001019060200180831161085b57829003601f168201915b505050505081526020016002820154815260200160038201805480602002602001604051908101604052809291908181526020015f905b82821015610957578382905f5260205f200180546108cc906119a9565b80601f01602080910402602001604051908101604052809291908181526020018280546108f8906119a9565b80156109435780601f1061091a57610100808354040283529160200191610943565b820191905f5260205f20905b81548152906001019060200180831161092657829003601f168201915b5050505050815260200190600101906108af565b505050508152602001600482018054806020026020016040519081016040528092919081815260200182805480156109ac57602002820191905f5260205f20905b815481526020019060010190808311610998575b5050505050815260200160058201805480602002602001604051908101604052809291908181526020018280548015610a0257602002820191905f5260205f20905b8154815260200190600101908083116109ee575b5050505050815250509050919050565b610a1a610e41565b5f60025f8481526020019081526020015f205f015403610a6f576040517f08c379a0000000000000000000000000000000000000000000000000000000008152600401610a6690611eb9565b60405180910390fd5b60025f8381526020019081526020015f206040518060a00160405290815f8201548152602001600182018054610aa4906119a9565b80601f0160208091040260200160405190810160405280929190818152602001828054610ad0906119a9565b8015610b1b5780601f10610af257610100808354040283529160200191610b1b565b820191905f5260205f20905b815481529060010190602001808311610afe57829003601f168201915b50505050508152602001600282018054610b34906119a9565b80601f0160208091040260200160405190810160405280929190818152602001828054610b60906119a9565b8015610bab5780601f10610b8257610100808354040283529160200191610bab565b820191905f5260205f20905b815481529060010190602001808311610b8e57829003601f168201915b50505050508152602001600382018054610bc4906119a9565b80601f0160208091040260200160405190810160405280929190818152602001828054610bf0906119a9565b8015610c3b5780601f10610c1257610100808354040283529160200191610c3b565b820191905f5260205f20905b815481529060010190602001808311610c1e57829003601f168201915b5050505050815260200160048201805480602002602001604051908101604052809291908181526020015f905b82821015610d10578382905f5260205f20018054610c85906119a9565b80601f0160208091040260200160405190810160405280929190818152602001828054610cb1906119a9565b8015610cfc5780601f10610cd357610100808354040283529160200191610cfc565b820191905f5260205f20905b815481529060010190602001808311610cdf57829003601f168201915b505050505081526020019060010190610c68565b50505050815250509050919050565b828054828255905f5260205f20908101928215610d65579160200282015b82811115610d64578251829081610d549190611b76565b5091602001919060010190610d3d565b5b509050610d729190610e6f565b5090565b828054828255905f5260205f20908101928215610db0579160200282015b82811115610daf578251825591602001919060010190610d94565b5b509050610dbd9190610e92565b5090565b828054828255905f5260205f20908101928215610dfb579160200282015b82811115610dfa578251825591602001919060010190610ddf565b5b509050610e089190610ead565b5090565b6040518060c0016040528060608152602001606081526020015f81526020016060815260200160608152602001606081525090565b6040518060a001604052805f8152602001606081526020016060815260200160608152602001606081525090565b5b80821115610e8e575f8181610e859190610ec8565b50600101610e70565b5090565b5b80821115610ea9575f815f905550600101610e93565b5090565b5b80821115610ec4575f815f905550600101610eae565b5090565b508054610ed4906119a9565b5f825580601f10610ee55750610f02565b601f0160209004905f5260205f2090810190610f019190610e92565b5b50565b5f604051905090565b5f80fd5b5f80fd5b5f819050919050565b610f2881610f16565b8114610f32575f80fd5b50565b5f81359050610f4381610f1f565b92915050565b5f80fd5b5f80fd5b5f601f19601f8301169050919050565b7f4e487b71000000000000000000000000000000000000000000000000000000005f52604160045260245ffd5b610f9782610f51565b810181811067ffffffffffffffff82111715610fb657610fb5610f61565b5b80604052505050565b5f610fc8610f05565b9050610fd48282610f8e565b919050565b5f67ffffffffffffffff821115610ff357610ff2610f61565b5b610ffc82610f51565b9050602081019050919050565b828183375f83830152505050565b5f61102961102484610fd9565b610fbf565b90508281526020810184848401111561104557611044610f4d565b5b611050848285611009565b509392505050565b5f82601f83011261106c5761106b610f49565b5b813561107c848260208601611017565b91505092915050565b5f67ffffffffffffffff82111561109f5761109e610f61565b5b602082029050602081019050919050565b5f80fd5b5f6110c66110c184611085565b610fbf565b905080838252602082019050602084028301858111156110e9576110e86110b0565b5b835b8181101561113057803567ffffffffffffffff81111561110e5761110d610f49565b5b80860161111b8982611058565b855260208501945050506020810190506110eb565b5050509392505050565b5f82601f83011261114e5761114d610f49565b5b813561115e8482602086016110b4565b91505092915050565b5f805f805f60a086880312156111805761117f610f0e565b5b5f61118d88828901610f35565b955050602086013567ffffffffffffffff8111156111ae576111ad610f12565b5b6111ba88828901611058565b945050604086013567ffffffffffffffff8111156111db576111da610f12565b5b6111e788828901611058565b935050606086013567ffffffffffffffff81111561120857611207610f12565b5b61121488828901611058565b925050608086013567ffffffffffffffff81111561123557611234610f12565b5b6112418882890161113a565b9150509295509295909350565b5f6020828403121561126357611262610f0e565b5b5f61127084828501610f35565b91505092915050565b61128281610f16565b82525050565b5f60208201905061129b5f830184611279565b92915050565b5f73ffffffffffffffffffffffffffffffffffffffff82169050919050565b5f6112ca826112a1565b9050919050565b6112da816112c0565b82525050565b5f6020820190506112f35f8301846112d1565b92915050565b5f819050919050565b61130b816112f9565b82525050565b5f6020820190506113245f830184611302565b92915050565b5f67ffffffffffffffff82111561134457611343610f61565b5b602082029050602081019050919050565b5f6113676113628461132a565b610fbf565b9050808382526020820190506020840283018581111561138a576113896110b0565b5b835b818110156113b3578061139f8882610f35565b84526020840193505060208101905061138c565b5050509392505050565b5f82601f8301126113d1576113d0610f49565b5b81356113e1848260208601611355565b91505092915050565b5f805f805f60a0868803121561140357611402610f0e565b5b5f86013567ffffffffffffffff8111156114205761141f610f12565b5b61142c88828901611058565b955050602086013567ffffffffffffffff81111561144d5761144c610f12565b5b61145988828901611058565b945050604061146a88828901610f35565b935050606086013567ffffffffffffffff81111561148b5761148a610f12565b5b6114978882890161113a565b925050608086013567ffffffffffffffff8111156114b8576114b7610f12565b5b6114c4888289016113bd565b9150509295509295909350565b5f81519050919050565b5f82825260208201905092915050565b5f5b838110156115085780820151818401526020810190506114ed565b5f8484015250505050565b5f61151d826114d1565b61152781856114db565b93506115378185602086016114eb565b61154081610f51565b840191505092915050565b61155481610f16565b82525050565b5f81519050919050565b5f82825260208201905092915050565b5f819050602082019050919050565b5f61158e8383611513565b905092915050565b5f602082019050919050565b5f6115ac8261155a565b6115b68185611564565b9350836020820285016115c885611574565b805f5b8581101561160357848403895281516115e48582611583565b94506115ef83611596565b925060208a019950506001810190506115cb565b50829750879550505050505092915050565b5f81519050919050565b5f82825260208201905092915050565b5f819050602082019050919050565b5f611649838361154b565b60208301905092915050565b5f602082019050919050565b5f61166b82611615565b611675818561161f565b93506116808361162f565b805f5b838110156116b0578151611697888261163e565b97506116a283611655565b925050600181019050611683565b5085935050505092915050565b5f81519050919050565b5f82825260208201905092915050565b5f819050602082019050919050565b6116ef816112f9565b82525050565b5f61170083836116e6565b60208301905092915050565b5f602082019050919050565b5f611722826116bd565b61172c81856116c7565b9350611737836116d7565b805f5b8381101561176757815161174e88826116f5565b97506117598361170c565b92505060018101905061173a565b5085935050505092915050565b5f60c083015f8301518482035f86015261178e8282611513565b915050602083015184820360208601526117a88282611513565b91505060408301516117bd604086018261154b565b50606083015184820360608601526117d582826115a2565b915050608083015184820360808601526117ef8282611661565b91505060a083015184820360a08601526118098282611718565b9150508091505092915050565b5f6020820190508181035f83015261182e8184611774565b905092915050565b5f60a083015f83015161184b5f86018261154b565b50602083015184820360208601526118638282611513565b9150506040830151848203604086015261187d8282611513565b915050606083015184820360608601526118978282611513565b915050608083015184820360808601526118b182826115a2565b9150508091505092915050565b5f6020820190508181035f8301526118d68184611836565b905092915050565b5f82825260208201905092915050565b7f4f6e6c792074686520636f6e7472616374206f776e65722063616e20706572665f8201527f6f726d2074686973206f7065726174696f6e0000000000000000000000000000602082015250565b5f6119486032836118de565b9150611953826118ee565b604082019050919050565b5f6020820190508181035f8301526119758161193c565b9050919050565b7f4e487b71000000000000000000000000000000000000000000000000000000005f52602260045260245ffd5b5f60028204905060018216806119c057607f821691505b6020821081036119d3576119d261197c565b5b50919050565b5f819050815f5260205f209050919050565b5f6020601f8301049050919050565b5f82821b905092915050565b5f60088302611a357fffffffffffffffffffffffffffffffffffffffffffffffffffffffffffffffff826119fa565b611a3f86836119fa565b95508019841693508086168417925050509392505050565b5f819050919050565b5f611a7a611a75611a7084610f16565b611a57565b610f16565b9050919050565b5f819050919050565b611a9383611a60565b611aa7611a9f82611a81565b848454611a06565b825550505050565b5f90565b611abb611aaf565b611ac6818484611a8a565b505050565b5b81811015611ae957611ade5f82611ab3565b600181019050611acc565b5050565b601f821115611b2e57611aff816119d9565b611b08846119eb565b81016020851015611b17578190505b611b2b611b23856119eb565b830182611acb565b50505b505050565b5f82821c905092915050565b5f611b4e5f1984600802611b33565b1980831691505092915050565b5f611b668383611b3f565b9150826002028217905092915050565b611b7f826114d1565b67ffffffffffffffff811115611b9857611b97610f61565b5b611ba282546119a9565b611bad828285611aed565b5f60209050601f831160018114611bde575f8415611bcc578287015190505b611bd68582611b5b565b865550611c3d565b601f198416611bec866119d9565b5f5b82811015611c1357848901518255600182019150602085019450602081019050611bee565b86831015611c305784890151611c2c601f891682611b3f565b8355505b6001600288020188555050505b505050505050565b7f4e487b71000000000000000000000000000000000000000000000000000000005f52601160045260245ffd5b5f611c7c82610f16565b91507fffffffffffffffffffffffffffffffffffffffffffffffffffffffffffffffff8203611cae57611cad611c45565b5b600182019050919050565b5f81905092915050565b5f8154611ccf816119a9565b611cd98186611cb9565b9450600182165f8114611cf35760018114611d0857611d3a565b60ff1983168652811515820286019350611d3a565b611d11856119d9565b5f5b83811015611d3257815481890152600182019150602081019050611d13565b838801955050505b50505092915050565b5f611d4e8286611cc3565b9150611d5a8285611cc3565b9150611d668284611cc3565b9150819050949350505050565b7f4e487b71000000000000000000000000000000000000000000000000000000005f52603260045260245ffd5b5f81519050919050565b5f81905092915050565b5f611dbe82611da0565b611dc88185611daa565b9350611dd88185602086016114eb565b80840191505092915050565b5f611def8285611db4565b9150611dfb8284611cc3565b91508190509392505050565b7f44617461205573657220646f6573206e6f742065786973742e000000000000005f82015250565b5f611e3b6019836118de565b9150611e4682611e07565b602082019050919050565b5f6020820190508181035f830152611e6881611e2f565b9050919050565b7f506572736f6e616c4461746120646f6573206e6f742065786973742e000000005f82015250565b5f611ea3601c836118de565b9150611eae82611e6f565b602082019050919050565b5f6020820190508181035f830152611ed081611e97565b905091905056fea26469706673582212204fa73ede6d9ebdc24f028a7b2e04992f44263a1deeb19b7c7e84a22b196842cb64736f6c63430008180033",
					"opcodes": "PUSH1 0x80 PUSH1 0x40 MSTORE PUSH0 PUSH1 0x4 SSTORE PUSH0 PUSH1 0x6 SSTORE CALLVALUE DUP1 ISZERO PUSH2 0x17 JUMPI PUSH0 DUP1 REVERT JUMPDEST POP CALLER PUSH0 DUP1 PUSH2 0x100 EXP DUP2 SLOAD DUP2 PUSH20 0xFFFFFFFFFFFFFFFFFFFFFFFFFFFFFFFFFFFFFFFF MUL NOT AND SWAP1 DUP4 PUSH20 0xFFFFFFFFFFFFFFFFFFFFFFFFFFFFFFFFFFFFFFFF AND MUL OR SWAP1 SSTORE POP PUSH2 0x1F0D DUP1 PUSH2 0x64 PUSH0 CODECOPY PUSH0 RETURN INVALID PUSH1 0x80 PUSH1 0x40 MSTORE CALLVALUE DUP1 ISZERO PUSH2 0xF JUMPI PUSH0 DUP1 REVERT JUMPDEST POP PUSH1 0x4 CALLDATASIZE LT PUSH2 0x91 JUMPI PUSH0 CALLDATALOAD PUSH1 0xE0 SHR DUP1 PUSH4 0x8DA5CB5B GT PUSH2 0x64 JUMPI DUP1 PUSH4 0x8DA5CB5B EQ PUSH2 0x109 JUMPI DUP1 PUSH4 0xB61798F6 EQ PUSH2 0x127 JUMPI DUP1 PUSH4 0xCA07B122 EQ PUSH2 0x157 JUMPI DUP1 PUSH4 0xD2B0649A EQ PUSH2 0x173 JUMPI DUP1 PUSH4 0xD8A761D9 EQ PUSH2 0x1A3 JUMPI PUSH2 0x91 JUMP JUMPDEST DUP1 PUSH4 0xDAB7CD9 EQ PUSH2 0x95 JUMPI DUP1 PUSH4 0x3F81DE59 EQ PUSH2 0xB1 JUMPI DUP1 PUSH4 0x4B58FBE9 EQ PUSH2 0xCD JUMPI DUP1 PUSH4 0x682477D7 EQ PUSH2 0xEB JUMPI JUMPDEST PUSH0 DUP1 REVERT JUMPDEST PUSH2 0xAF PUSH1 0x4 DUP1 CALLDATASIZE SUB DUP2 ADD SWAP1 PUSH2 0xAA SWAP2 SWAP1 PUSH2 0x1167 JUMP JUMPDEST PUSH2 0x1D3 JUMP JUMPDEST STOP JUMPDEST PUSH2 0xCB PUSH1 0x4 DUP1 CALLDATASIZE SUB DUP2 ADD SWAP1 PUSH2 0xC6 SWAP2 SWAP1 PUSH2 0x124E JUMP JUMPDEST PUSH2 0x320 JUMP JUMPDEST STOP JUMPDEST PUSH2 0xD5 PUSH2 0x479 JUMP JUMPDEST PUSH1 0x40 MLOAD PUSH2 0xE2 SWAP2 SWAP1 PUSH2 0x1288 JUMP JUMPDEST PUSH1 0x40 MLOAD DUP1 SWAP2 SUB SWAP1 RETURN JUMPDEST PUSH2 0xF3 PUSH2 0x482 JUMP JUMPDEST PUSH1 0x40 MLOAD PUSH2 0x100 SWAP2 SWAP1 PUSH2 0x1288 JUMP JUMPDEST PUSH1 0x40 MLOAD DUP1 SWAP2 SUB SWAP1 RETURN JUMPDEST PUSH2 0x111 PUSH2 0x48B JUMP JUMPDEST PUSH1 0x40 MLOAD PUSH2 0x11E SWAP2 SWAP1 PUSH2 0x12E0 JUMP JUMPDEST PUSH1 0x40 MLOAD DUP1 SWAP2 SUB SWAP1 RETURN JUMPDEST PUSH2 0x141 PUSH1 0x4 DUP1 CALLDATASIZE SUB DUP2 ADD SWAP1 PUSH2 0x13C SWAP2 SWAP1 PUSH2 0x124E JUMP JUMPDEST PUSH2 0x4AE JUMP JUMPDEST PUSH1 0x40 MLOAD PUSH2 0x14E SWAP2 SWAP1 PUSH2 0x1311 JUMP JUMPDEST PUSH1 0x40 MLOAD DUP1 SWAP2 SUB SWAP1 RETURN JUMPDEST PUSH2 0x171 PUSH1 0x4 DUP1 CALLDATASIZE SUB DUP2 ADD SWAP1 PUSH2 0x16C SWAP2 SWAP1 PUSH2 0x13EA JUMP JUMPDEST PUSH2 0x4C8 JUMP JUMPDEST STOP JUMPDEST PUSH2 0x18D PUSH1 0x4 DUP1 CALLDATASIZE SUB DUP2 ADD SWAP1 PUSH2 0x188 SWAP2 SWAP1 PUSH2 0x124E JUMP JUMPDEST PUSH2 0x6E8 JUMP JUMPDEST PUSH1 0x40 MLOAD PUSH2 0x19A SWAP2 SWAP1 PUSH2 0x1816 JUMP JUMPDEST PUSH1 0x40 MLOAD DUP1 SWAP2 SUB SWAP1 RETURN JUMPDEST PUSH2 0x1BD PUSH1 0x4 DUP1 CALLDATASIZE SUB DUP2 ADD SWAP1 PUSH2 0x1B8 SWAP2 SWAP1 PUSH2 0x124E JUMP JUMPDEST PUSH2 0xA12 JUMP JUMPDEST PUSH1 0x40 MLOAD PUSH2 0x1CA SWAP2 SWAP1 PUSH2 0x18BE JUMP JUMPDEST PUSH1 0x40 MLOAD DUP1 SWAP2 SUB SWAP1 RETURN JUMPDEST PUSH0 DUP1 SLOAD SWAP1 PUSH2 0x100 EXP SWAP1 DIV PUSH20 0xFFFFFFFFFFFFFFFFFFFFFFFFFFFFFFFFFFFFFFFF AND PUSH20 0xFFFFFFFFFFFFFFFFFFFFFFFFFFFFFFFFFFFFFFFF AND CALLER PUSH20 0xFFFFFFFFFFFFFFFFFFFFFFFFFFFFFFFFFFFFFFFF AND EQ PUSH2 0x260 JUMPI PUSH1 0x40 MLOAD PUSH32 0x8C379A000000000000000000000000000000000000000000000000000000000 DUP2 MSTORE PUSH1 0x4 ADD PUSH2 0x257 SWAP1 PUSH2 0x195E JUMP JUMPDEST PUSH1 0x40 MLOAD DUP1 SWAP2 SUB SWAP1 REVERT JUMPDEST PUSH1 0x40 MLOAD DUP1 PUSH1 0xA0 ADD PUSH1 0x40 MSTORE DUP1 DUP7 DUP2 MSTORE PUSH1 0x20 ADD DUP6 DUP2 MSTORE PUSH1 0x20 ADD DUP5 DUP2 MSTORE PUSH1 0x20 ADD DUP4 DUP2 MSTORE PUSH1 0x20 ADD DUP3 DUP2 MSTORE POP PUSH1 0x2 PUSH0 DUP8 DUP2 MSTORE PUSH1 0x20 ADD SWAP1 DUP2 MSTORE PUSH1 0x20 ADD PUSH0 KECCAK256 PUSH0 DUP3 ADD MLOAD DUP2 PUSH0 ADD SSTORE PUSH1 0x20 DUP3 ADD MLOAD DUP2 PUSH1 0x1 ADD SWAP1 DUP2 PUSH2 0x2B5 SWAP2 SWAP1 PUSH2 0x1B76 JUMP JUMPDEST POP PUSH1 0x40 DUP3 ADD MLOAD DUP2 PUSH1 0x2 ADD SWAP1 DUP2 PUSH2 0x2CB SWAP2 SWAP1 PUSH2 0x1B76 JUMP JUMPDEST POP PUSH1 0x60 DUP3 ADD MLOAD DUP2 PUSH1 0x3 ADD SWAP1 DUP2 PUSH2 0x2E1 SWAP2 SWAP1 PUSH2 0x1B76 JUMP JUMPDEST POP PUSH1 0x80 DUP3 ADD MLOAD DUP2 PUSH1 0x4 ADD SWAP1 DUP1 MLOAD SWAP1 PUSH1 0x20 ADD SWAP1 PUSH2 0x2FE SWAP3 SWAP2 SWAP1 PUSH2 0xD1F JUMP JUMPDEST POP SWAP1 POP POP PUSH1 0x6 PUSH0 DUP2 SLOAD DUP1 SWAP3 SWAP2 SWAP1 PUSH2 0x314 SWAP1 PUSH2 0x1C72 JUMP JUMPDEST SWAP2 SWAP1 POP SSTORE POP POP POP POP POP POP JUMP JUMPDEST PUSH0 DUP1 SLOAD SWAP1 PUSH2 0x100 EXP SWAP1 DIV PUSH20 0xFFFFFFFFFFFFFFFFFFFFFFFFFFFFFFFFFFFFFFFF AND PUSH20 0xFFFFFFFFFFFFFFFFFFFFFFFFFFFFFFFFFFFFFFFF AND CALLER PUSH20 0xFFFFFFFFFFFFFFFFFFFFFFFFFFFFFFFFFFFFFFFF AND EQ PUSH2 0x3AD JUMPI PUSH1 0x40 MLOAD PUSH32 0x8C379A000000000000000000000000000000000000000000000000000000000 DUP2 MSTORE PUSH1 0x4 ADD PUSH2 0x3A4 SWAP1 PUSH2 0x195E JUMP JUMPDEST PUSH1 0x40 MLOAD DUP1 SWAP2 SUB SWAP1 REVERT JUMPDEST PUSH0 PUSH1 0x2 PUSH0 DUP4 DUP2 MSTORE PUSH1 0x20 ADD SWAP1 DUP2 MSTORE PUSH1 0x20 ADD PUSH0 KECCAK256 SWAP1 POP PUSH1 0x60 DUP2 PUSH1 0x1 ADD DUP3 PUSH1 0x2 ADD DUP4 PUSH1 0x3 ADD PUSH1 0x40 MLOAD PUSH1 0x20 ADD PUSH2 0x3E1 SWAP4 SWAP3 SWAP2 SWAP1 PUSH2 0x1D43 JUMP JUMPDEST PUSH1 0x40 MLOAD PUSH1 0x20 DUP2 DUP4 SUB SUB DUP2 MSTORE SWAP1 PUSH1 0x40 MSTORE SWAP1 POP PUSH0 JUMPDEST DUP3 PUSH1 0x4 ADD DUP1 SLOAD SWAP1 POP DUP2 LT ISZERO PUSH2 0x451 JUMPI DUP2 DUP4 PUSH1 0x4 ADD DUP3 DUP2 SLOAD DUP2 LT PUSH2 0x41A JUMPI PUSH2 0x419 PUSH2 0x1D73 JUMP JUMPDEST JUMPDEST SWAP1 PUSH0 MSTORE PUSH1 0x20 PUSH0 KECCAK256 ADD PUSH1 0x40 MLOAD PUSH1 0x20 ADD PUSH2 0x433 SWAP3 SWAP2 SWAP1 PUSH2 0x1DE4 JUMP JUMPDEST PUSH1 0x40 MLOAD PUSH1 0x20 DUP2 DUP4 SUB SUB DUP2 MSTORE SWAP1 PUSH1 0x40 MSTORE SWAP2 POP DUP1 DUP1 PUSH1 0x1 ADD SWAP2 POP POP PUSH2 0x3F4 JUMP JUMPDEST POP PUSH0 DUP2 DUP1 MLOAD SWAP1 PUSH1 0x20 ADD KECCAK256 SWAP1 POP DUP1 PUSH1 0x3 PUSH0 DUP7 DUP2 MSTORE PUSH1 0x20 ADD SWAP1 DUP2 MSTORE PUSH1 0x20 ADD PUSH0 KECCAK256 DUP2 SWAP1 SSTORE POP POP POP POP POP JUMP JUMPDEST PUSH0 PUSH1 0x6 SLOAD SWAP1 POP SWAP1 JUMP JUMPDEST PUSH0 PUSH1 0x4 SLOAD SWAP1 POP SWAP1 JUMP JUMPDEST PUSH0 DUP1 SLOAD SWAP1 PUSH2 0x100 EXP SWAP1 DIV PUSH20 0xFFFFFFFFFFFFFFFFFFFFFFFFFFFFFFFFFFFFFFFF AND DUP2 JUMP JUMPDEST PUSH0 PUSH1 0x3 PUSH0 DUP4 DUP2 MSTORE PUSH1 0x20 ADD SWAP1 DUP2 MSTORE PUSH1 0x20 ADD PUSH0 KECCAK256 SLOAD SWAP1 POP SWAP2 SWAP1 POP JUMP JUMPDEST PUSH0 DUP1 SLOAD SWAP1 PUSH2 0x100 EXP SWAP1 DIV PUSH20 0xFFFFFFFFFFFFFFFFFFFFFFFFFFFFFFFFFFFFFFFF AND PUSH20 0xFFFFFFFFFFFFFFFFFFFFFFFFFFFFFFFFFFFFFFFF AND CALLER PUSH20 0xFFFFFFFFFFFFFFFFFFFFFFFFFFFFFFFFFFFFFFFF AND EQ PUSH2 0x555 JUMPI PUSH1 0x40 MLOAD PUSH32 0x8C379A000000000000000000000000000000000000000000000000000000000 DUP2 MSTORE PUSH1 0x4 ADD PUSH2 0x54C SWAP1 PUSH2 0x195E JUMP JUMPDEST PUSH1 0x40 MLOAD DUP1 SWAP2 SUB SWAP1 REVERT JUMPDEST PUSH0 DUP2 MLOAD PUSH8 0xFFFFFFFFFFFFFFFF DUP2 GT ISZERO PUSH2 0x571 JUMPI PUSH2 0x570 PUSH2 0xF61 JUMP JUMPDEST JUMPDEST PUSH1 0x40 MLOAD SWAP1 DUP1 DUP3 MSTORE DUP1 PUSH1 0x20 MUL PUSH1 0x20 ADD DUP3 ADD PUSH1 0x40 MSTORE DUP1 ISZERO PUSH2 0x59F JUMPI DUP2 PUSH1 0x20 ADD PUSH1 0x20 DUP3 MUL DUP1 CALLDATASIZE DUP4 CALLDATACOPY DUP1 DUP3 ADD SWAP2 POP POP SWAP1 POP JUMPDEST POP SWAP1 POP PUSH0 JUMPDEST DUP3 MLOAD DUP2 LT ISZERO PUSH2 0x5FC JUMPI PUSH2 0x5D0 DUP4 DUP3 DUP2 MLOAD DUP2 LT PUSH2 0x5C3 JUMPI PUSH2 0x5C2 PUSH2 0x1D73 JUMP JUMPDEST JUMPDEST PUSH1 0x20 MUL PUSH1 0x20 ADD ADD MLOAD PUSH2 0x4AE JUMP JUMPDEST DUP3 DUP3 DUP2 MLOAD DUP2 LT PUSH2 0x5E3 JUMPI PUSH2 0x5E2 PUSH2 0x1D73 JUMP JUMPDEST JUMPDEST PUSH1 0x20 MUL PUSH1 0x20 ADD ADD DUP2 DUP2 MSTORE POP POP DUP1 DUP1 PUSH1 0x1 ADD SWAP2 POP POP PUSH2 0x5A4 JUMP JUMPDEST POP PUSH1 0x40 MLOAD DUP1 PUSH1 0xC0 ADD PUSH1 0x40 MSTORE DUP1 DUP8 DUP2 MSTORE PUSH1 0x20 ADD DUP7 DUP2 MSTORE PUSH1 0x20 ADD DUP6 DUP2 MSTORE PUSH1 0x20 ADD DUP5 DUP2 MSTORE PUSH1 0x20 ADD DUP4 DUP2 MSTORE PUSH1 0x20 ADD DUP3 DUP2 MSTORE POP PUSH1 0x1 PUSH0 DUP7 DUP2 MSTORE PUSH1 0x20 ADD SWAP1 DUP2 MSTORE PUSH1 0x20 ADD PUSH0 KECCAK256 PUSH0 DUP3 ADD MLOAD DUP2 PUSH0 ADD SWAP1 DUP2 PUSH2 0x64E SWAP2 SWAP1 PUSH2 0x1B76 JUMP JUMPDEST POP PUSH1 0x20 DUP3 ADD MLOAD DUP2 PUSH1 0x1 ADD SWAP1 DUP2 PUSH2 0x664 SWAP2 SWAP1 PUSH2 0x1B76 JUMP JUMPDEST POP PUSH1 0x40 DUP3 ADD MLOAD DUP2 PUSH1 0x2 ADD SSTORE PUSH1 0x60 DUP3 ADD MLOAD DUP2 PUSH1 0x3 ADD SWAP1 DUP1 MLOAD SWAP1 PUSH1 0x20 ADD SWAP1 PUSH2 0x68B SWAP3 SWAP2 SWAP1 PUSH2 0xD1F JUMP JUMPDEST POP PUSH1 0x80 DUP3 ADD MLOAD DUP2 PUSH1 0x4 ADD SWAP1 DUP1 MLOAD SWAP1 PUSH1 0x20 ADD SWAP1 PUSH2 0x6A8 SWAP3 SWAP2 SWAP1 PUSH2 0xD76 JUMP JUMPDEST POP PUSH1 0xA0 DUP3 ADD MLOAD DUP2 PUSH1 0x5 ADD SWAP1 DUP1 MLOAD SWAP1 PUSH1 0x20 ADD SWAP1 PUSH2 0x6C5 SWAP3 SWAP2 SWAP1 PUSH2 0xDC1 JUMP JUMPDEST POP SWAP1 POP POP PUSH1 0x4 PUSH0 DUP2 SLOAD DUP1 SWAP3 SWAP2 SWAP1 PUSH2 0x6DB SWAP1 PUSH2 0x1C72 JUMP JUMPDEST SWAP2 SWAP1 POP SSTORE POP POP POP POP POP POP POP JUMP JUMPDEST PUSH2 0x6F0 PUSH2 0xE0C JUMP JUMPDEST PUSH0 PUSH1 0x1 PUSH0 DUP5 DUP2 MSTORE PUSH1 0x20 ADD SWAP1 DUP2 MSTORE PUSH1 0x20 ADD PUSH0 KECCAK256 PUSH1 0x2 ADD SLOAD SUB PUSH2 0x746 JUMPI PUSH1 0x40 MLOAD PUSH32 0x8C379A000000000000000000000000000000000000000000000000000000000 DUP2 MSTORE PUSH1 0x4 ADD PUSH2 0x73D SWAP1 PUSH2 0x1E51 JUMP JUMPDEST PUSH1 0x40 MLOAD DUP1 SWAP2 SUB SWAP1 REVERT JUMPDEST PUSH1 0x1 PUSH0 DUP4 DUP2 MSTORE PUSH1 0x20 ADD SWAP1 DUP2 MSTORE PUSH1 0x20 ADD PUSH0 KECCAK256 PUSH1 0x40 MLOAD DUP1 PUSH1 0xC0 ADD PUSH1 0x40 MSTORE SWAP1 DUP2 PUSH0 DUP3 ADD DUP1 SLOAD PUSH2 0x771 SWAP1 PUSH2 0x19A9 JUMP JUMPDEST DUP1 PUSH1 0x1F ADD PUSH1 0x20 DUP1 SWAP2 DIV MUL PUSH1 0x20 ADD PUSH1 0x40 MLOAD SWAP1 DUP2 ADD PUSH1 0x40 MSTORE DUP1 SWAP3 SWAP2 SWAP1 DUP2 DUP2 MSTORE PUSH1 0x20 ADD DUP3 DUP1 SLOAD PUSH2 0x79D SWAP1 PUSH2 0x19A9 JUMP JUMPDEST DUP1 ISZERO PUSH2 0x7E8 JUMPI DUP1 PUSH1 0x1F LT PUSH2 0x7BF JUMPI PUSH2 0x100 DUP1 DUP4 SLOAD DIV MUL DUP4 MSTORE SWAP2 PUSH1 0x20 ADD SWAP2 PUSH2 0x7E8 JUMP JUMPDEST DUP3 ADD SWAP2 SWAP1 PUSH0 MSTORE PUSH1 0x20 PUSH0 KECCAK256 SWAP1 JUMPDEST DUP2 SLOAD DUP2 MSTORE SWAP1 PUSH1 0x1 ADD SWAP1 PUSH1 0x20 ADD DUP1 DUP4 GT PUSH2 0x7CB JUMPI DUP3 SWAP1 SUB PUSH1 0x1F AND DUP3 ADD SWAP2 JUMPDEST POP POP POP POP POP DUP2 MSTORE PUSH1 0x20 ADD PUSH1 0x1 DUP3 ADD DUP1 SLOAD PUSH2 0x801 SWAP1 PUSH2 0x19A9 JUMP JUMPDEST DUP1 PUSH1 0x1F ADD PUSH1 0x20 DUP1 SWAP2 DIV MUL PUSH1 0x20 ADD PUSH1 0x40 MLOAD SWAP1 DUP2 ADD PUSH1 0x40 MSTORE DUP1 SWAP3 SWAP2 SWAP1 DUP2 DUP2 MSTORE PUSH1 0x20 ADD DUP3 DUP1 SLOAD PUSH2 0x82D SWAP1 PUSH2 0x19A9 JUMP JUMPDEST DUP1 ISZERO PUSH2 0x878 JUMPI DUP1 PUSH1 0x1F LT PUSH2 0x84F JUMPI PUSH2 0x100 DUP1 DUP4 SLOAD DIV MUL DUP4 MSTORE SWAP2 PUSH1 0x20 ADD SWAP2 PUSH2 0x878 JUMP JUMPDEST DUP3 ADD SWAP2 SWAP1 PUSH0 MSTORE PUSH1 0x20 PUSH0 KECCAK256 SWAP1 JUMPDEST DUP2 SLOAD DUP2 MSTORE SWAP1 PUSH1 0x1 ADD SWAP1 PUSH1 0x20 ADD DUP1 DUP4 GT PUSH2 0x85B JUMPI DUP3 SWAP1 SUB PUSH1 0x1F AND DUP3 ADD SWAP2 JUMPDEST POP POP POP POP POP DUP2 MSTORE PUSH1 0x20 ADD PUSH1 0x2 DUP3 ADD SLOAD DUP2 MSTORE PUSH1 0x20 ADD PUSH1 0x3 DUP3 ADD DUP1 SLOAD DUP1 PUSH1 0x20 MUL PUSH1 0x20 ADD PUSH1 0x40 MLOAD SWAP1 DUP2 ADD PUSH1 0x40 MSTORE DUP1 SWAP3 SWAP2 SWAP1 DUP2 DUP2 MSTORE PUSH1 0x20 ADD PUSH0 SWAP1 JUMPDEST DUP3 DUP3 LT ISZERO PUSH2 0x957 JUMPI DUP4 DUP3 SWAP1 PUSH0 MSTORE PUSH1 0x20 PUSH0 KECCAK256 ADD DUP1 SLOAD PUSH2 0x8CC SWAP1 PUSH2 0x19A9 JUMP JUMPDEST DUP1 PUSH1 0x1F ADD PUSH1 0x20 DUP1 SWAP2 DIV MUL PUSH1 0x20 ADD PUSH1 0x40 MLOAD SWAP1 DUP2 ADD PUSH1 0x40 MSTORE DUP1 SWAP3 SWAP2 SWAP1 DUP2 DUP2 MSTORE PUSH1 0x20 ADD DUP3 DUP1 SLOAD PUSH2 0x8F8 SWAP1 PUSH2 0x19A9 JUMP JUMPDEST DUP1 ISZERO PUSH2 0x943 JUMPI DUP1 PUSH1 0x1F LT PUSH2 0x91A JUMPI PUSH2 0x100 DUP1 DUP4 SLOAD DIV MUL DUP4 MSTORE SWAP2 PUSH1 0x20 ADD SWAP2 PUSH2 0x943 JUMP JUMPDEST DUP3 ADD SWAP2 SWAP1 PUSH0 MSTORE PUSH1 0x20 PUSH0 KECCAK256 SWAP1 JUMPDEST DUP2 SLOAD DUP2 MSTORE SWAP1 PUSH1 0x1 ADD SWAP1 PUSH1 0x20 ADD DUP1 DUP4 GT PUSH2 0x926 JUMPI DUP3 SWAP1 SUB PUSH1 0x1F AND DUP3 ADD SWAP2 JUMPDEST POP POP POP POP POP DUP2 MSTORE PUSH1 0x20 ADD SWAP1 PUSH1 0x1 ADD SWAP1 PUSH2 0x8AF JUMP JUMPDEST POP POP POP POP DUP2 MSTORE PUSH1 0x20 ADD PUSH1 0x4 DUP3 ADD DUP1 SLOAD DUP1 PUSH1 0x20 MUL PUSH1 0x20 ADD PUSH1 0x40 MLOAD SWAP1 DUP2 ADD PUSH1 0x40 MSTORE DUP1 SWAP3 SWAP2 SWAP1 DUP2 DUP2 MSTORE PUSH1 0x20 ADD DUP3 DUP1 SLOAD DUP1 ISZERO PUSH2 0x9AC JUMPI PUSH1 0x20 MUL DUP3 ADD SWAP2 SWAP1 PUSH0 MSTORE PUSH1 0x20 PUSH0 KECCAK256 SWAP1 JUMPDEST DUP2 SLOAD DUP2 MSTORE PUSH1 0x20 ADD SWAP1 PUSH1 0x1 ADD SWAP1 DUP1 DUP4 GT PUSH2 0x998 JUMPI JUMPDEST POP POP POP POP POP DUP2 MSTORE PUSH1 0x20 ADD PUSH1 0x5 DUP3 ADD DUP1 SLOAD DUP1 PUSH1 0x20 MUL PUSH1 0x20 ADD PUSH1 0x40 MLOAD SWAP1 DUP2 ADD PUSH1 0x40 MSTORE DUP1 SWAP3 SWAP2 SWAP1 DUP2 DUP2 MSTORE PUSH1 0x20 ADD DUP3 DUP1 SLOAD DUP1 ISZERO PUSH2 0xA02 JUMPI PUSH1 0x20 MUL DUP3 ADD SWAP2 SWAP1 PUSH0 MSTORE PUSH1 0x20 PUSH0 KECCAK256 SWAP1 JUMPDEST DUP2 SLOAD DUP2 MSTORE PUSH1 0x20 ADD SWAP1 PUSH1 0x1 ADD SWAP1 DUP1 DUP4 GT PUSH2 0x9EE JUMPI JUMPDEST POP POP POP POP POP DUP2 MSTORE POP POP SWAP1 POP SWAP2 SWAP1 POP JUMP JUMPDEST PUSH2 0xA1A PUSH2 0xE41 JUMP JUMPDEST PUSH0 PUSH1 0x2 PUSH0 DUP5 DUP2 MSTORE PUSH1 0x20 ADD SWAP1 DUP2 MSTORE PUSH1 0x20 ADD PUSH0 KECCAK256 PUSH0 ADD SLOAD SUB PUSH2 0xA6F JUMPI PUSH1 0x40 MLOAD PUSH32 0x8C379A000000000000000000000000000000000000000000000000000000000 DUP2 MSTORE PUSH1 0x4 ADD PUSH2 0xA66 SWAP1 PUSH2 0x1EB9 JUMP JUMPDEST PUSH1 0x40 MLOAD DUP1 SWAP2 SUB SWAP1 REVERT JUMPDEST PUSH1 0x2 PUSH0 DUP4 DUP2 MSTORE PUSH1 0x20 ADD SWAP1 DUP2 MSTORE PUSH1 0x20 ADD PUSH0 KECCAK256 PUSH1 0x40 MLOAD DUP1 PUSH1 0xA0 ADD PUSH1 0x40 MSTORE SWAP1 DUP2 PUSH0 DUP3 ADD SLOAD DUP2 MSTORE PUSH1 0x20 ADD PUSH1 0x1 DUP3 ADD DUP1 SLOAD PUSH2 0xAA4 SWAP1 PUSH2 0x19A9 JUMP JUMPDEST DUP1 PUSH1 0x1F ADD PUSH1 0x20 DUP1 SWAP2 DIV MUL PUSH1 0x20 ADD PUSH1 0x40 MLOAD SWAP1 DUP2 ADD PUSH1 0x40 MSTORE DUP1 SWAP3 SWAP2 SWAP1 DUP2 DUP2 MSTORE PUSH1 0x20 ADD DUP3 DUP1 SLOAD PUSH2 0xAD0 SWAP1 PUSH2 0x19A9 JUMP JUMPDEST DUP1 ISZERO PUSH2 0xB1B JUMPI DUP1 PUSH1 0x1F LT PUSH2 0xAF2 JUMPI PUSH2 0x100 DUP1 DUP4 SLOAD DIV MUL DUP4 MSTORE SWAP2 PUSH1 0x20 ADD SWAP2 PUSH2 0xB1B JUMP JUMPDEST DUP3 ADD SWAP2 SWAP1 PUSH0 MSTORE PUSH1 0x20 PUSH0 KECCAK256 SWAP1 JUMPDEST DUP2 SLOAD DUP2 MSTORE SWAP1 PUSH1 0x1 ADD SWAP1 PUSH1 0x20 ADD DUP1 DUP4 GT PUSH2 0xAFE JUMPI DUP3 SWAP1 SUB PUSH1 0x1F AND DUP3 ADD SWAP2 JUMPDEST POP POP POP POP POP DUP2 MSTORE PUSH1 0x20 ADD PUSH1 0x2 DUP3 ADD DUP1 SLOAD PUSH2 0xB34 SWAP1 PUSH2 0x19A9 JUMP JUMPDEST DUP1 PUSH1 0x1F ADD PUSH1 0x20 DUP1 SWAP2 DIV MUL PUSH1 0x20 ADD PUSH1 0x40 MLOAD SWAP1 DUP2 ADD PUSH1 0x40 MSTORE DUP1 SWAP3 SWAP2 SWAP1 DUP2 DUP2 MSTORE PUSH1 0x20 ADD DUP3 DUP1 SLOAD PUSH2 0xB60 SWAP1 PUSH2 0x19A9 JUMP JUMPDEST DUP1 ISZERO PUSH2 0xBAB JUMPI DUP1 PUSH1 0x1F LT PUSH2 0xB82 JUMPI PUSH2 0x100 DUP1 DUP4 SLOAD DIV MUL DUP4 MSTORE SWAP2 PUSH1 0x20 ADD SWAP2 PUSH2 0xBAB JUMP JUMPDEST DUP3 ADD SWAP2 SWAP1 PUSH0 MSTORE PUSH1 0x20 PUSH0 KECCAK256 SWAP1 JUMPDEST DUP2 SLOAD DUP2 MSTORE SWAP1 PUSH1 0x1 ADD SWAP1 PUSH1 0x20 ADD DUP1 DUP4 GT PUSH2 0xB8E JUMPI DUP3 SWAP1 SUB PUSH1 0x1F AND DUP3 ADD SWAP2 JUMPDEST POP POP POP POP POP DUP2 MSTORE PUSH1 0x20 ADD PUSH1 0x3 DUP3 ADD DUP1 SLOAD PUSH2 0xBC4 SWAP1 PUSH2 0x19A9 JUMP JUMPDEST DUP1 PUSH1 0x1F ADD PUSH1 0x20 DUP1 SWAP2 DIV MUL PUSH1 0x20 ADD PUSH1 0x40 MLOAD SWAP1 DUP2 ADD PUSH1 0x40 MSTORE DUP1 SWAP3 SWAP2 SWAP1 DUP2 DUP2 MSTORE PUSH1 0x20 ADD DUP3 DUP1 SLOAD PUSH2 0xBF0 SWAP1 PUSH2 0x19A9 JUMP JUMPDEST DUP1 ISZERO PUSH2 0xC3B JUMPI DUP1 PUSH1 0x1F LT PUSH2 0xC12 JUMPI PUSH2 0x100 DUP1 DUP4 SLOAD DIV MUL DUP4 MSTORE SWAP2 PUSH1 0x20 ADD SWAP2 PUSH2 0xC3B JUMP JUMPDEST DUP3 ADD SWAP2 SWAP1 PUSH0 MSTORE PUSH1 0x20 PUSH0 KECCAK256 SWAP1 JUMPDEST DUP2 SLOAD DUP2 MSTORE SWAP1 PUSH1 0x1 ADD SWAP1 PUSH1 0x20 ADD DUP1 DUP4 GT PUSH2 0xC1E JUMPI DUP3 SWAP1 SUB PUSH1 0x1F AND DUP3 ADD SWAP2 JUMPDEST POP POP POP POP POP DUP2 MSTORE PUSH1 0x20 ADD PUSH1 0x4 DUP3 ADD DUP1 SLOAD DUP1 PUSH1 0x20 MUL PUSH1 0x20 ADD PUSH1 0x40 MLOAD SWAP1 DUP2 ADD PUSH1 0x40 MSTORE DUP1 SWAP3 SWAP2 SWAP1 DUP2 DUP2 MSTORE PUSH1 0x20 ADD PUSH0 SWAP1 JUMPDEST DUP3 DUP3 LT ISZERO PUSH2 0xD10 JUMPI DUP4 DUP3 SWAP1 PUSH0 MSTORE PUSH1 0x20 PUSH0 KECCAK256 ADD DUP1 SLOAD PUSH2 0xC85 SWAP1 PUSH2 0x19A9 JUMP JUMPDEST DUP1 PUSH1 0x1F ADD PUSH1 0x20 DUP1 SWAP2 DIV MUL PUSH1 0x20 ADD PUSH1 0x40 MLOAD SWAP1 DUP2 ADD PUSH1 0x40 MSTORE DUP1 SWAP3 SWAP2 SWAP1 DUP2 DUP2 MSTORE PUSH1 0x20 ADD DUP3 DUP1 SLOAD PUSH2 0xCB1 SWAP1 PUSH2 0x19A9 JUMP JUMPDEST DUP1 ISZERO PUSH2 0xCFC JUMPI DUP1 PUSH1 0x1F LT PUSH2 0xCD3 JUMPI PUSH2 0x100 DUP1 DUP4 SLOAD DIV MUL DUP4 MSTORE SWAP2 PUSH1 0x20 ADD SWAP2 PUSH2 0xCFC JUMP JUMPDEST DUP3 ADD SWAP2 SWAP1 PUSH0 MSTORE PUSH1 0x20 PUSH0 KECCAK256 SWAP1 JUMPDEST DUP2 SLOAD DUP2 MSTORE SWAP1 PUSH1 0x1 ADD SWAP1 PUSH1 0x20 ADD DUP1 DUP4 GT PUSH2 0xCDF JUMPI DUP3 SWAP1 SUB PUSH1 0x1F AND DUP3 ADD SWAP2 JUMPDEST POP POP POP POP POP DUP2 MSTORE PUSH1 0x20 ADD SWAP1 PUSH1 0x1 ADD SWAP1 PUSH2 0xC68 JUMP JUMPDEST POP POP POP POP DUP2 MSTORE POP POP SWAP1 POP SWAP2 SWAP1 POP JUMP JUMPDEST DUP3 DUP1 SLOAD DUP3 DUP3 SSTORE SWAP1 PUSH0 MSTORE PUSH1 0x20 PUSH0 KECCAK256 SWAP1 DUP2 ADD SWAP3 DUP3 ISZERO PUSH2 0xD65 JUMPI SWAP2 PUSH1 0x20 MUL DUP3 ADD JUMPDEST DUP3 DUP2 GT ISZERO PUSH2 0xD64 JUMPI DUP3 MLOAD DUP3 SWAP1 DUP2 PUSH2 0xD54 SWAP2 SWAP1 PUSH2 0x1B76 JUMP JUMPDEST POP SWAP2 PUSH1 0x20 ADD SWAP2 SWAP1 PUSH1 0x1 ADD SWAP1 PUSH2 0xD3D JUMP JUMPDEST JUMPDEST POP SWAP1 POP PUSH2 0xD72 SWAP2 SWAP1 PUSH2 0xE6F JUMP JUMPDEST POP SWAP1 JUMP JUMPDEST DUP3 DUP1 SLOAD DUP3 DUP3 SSTORE SWAP1 PUSH0 MSTORE PUSH1 0x20 PUSH0 KECCAK256 SWAP1 DUP2 ADD SWAP3 DUP3 ISZERO PUSH2 0xDB0 JUMPI SWAP2 PUSH1 0x20 MUL DUP3 ADD JUMPDEST DUP3 DUP2 GT ISZERO PUSH2 0xDAF JUMPI DUP3 MLOAD DUP3 SSTORE SWAP2 PUSH1 0x20 ADD SWAP2 SWAP1 PUSH1 0x1 ADD SWAP1 PUSH2 0xD94 JUMP JUMPDEST JUMPDEST POP SWAP1 POP PUSH2 0xDBD SWAP2 SWAP1 PUSH2 0xE92 JUMP JUMPDEST POP SWAP1 JUMP JUMPDEST DUP3 DUP1 SLOAD DUP3 DUP3 SSTORE SWAP1 PUSH0 MSTORE PUSH1 0x20 PUSH0 KECCAK256 SWAP1 DUP2 ADD SWAP3 DUP3 ISZERO PUSH2 0xDFB JUMPI SWAP2 PUSH1 0x20 MUL DUP3 ADD JUMPDEST DUP3 DUP2 GT ISZERO PUSH2 0xDFA JUMPI DUP3 MLOAD DUP3 SSTORE SWAP2 PUSH1 0x20 ADD SWAP2 SWAP1 PUSH1 0x1 ADD SWAP1 PUSH2 0xDDF JUMP JUMPDEST JUMPDEST POP SWAP1 POP PUSH2 0xE08 SWAP2 SWAP1 PUSH2 0xEAD JUMP JUMPDEST POP SWAP1 JUMP JUMPDEST PUSH1 0x40 MLOAD DUP1 PUSH1 0xC0 ADD PUSH1 0x40 MSTORE DUP1 PUSH1 0x60 DUP2 MSTORE PUSH1 0x20 ADD PUSH1 0x60 DUP2 MSTORE PUSH1 0x20 ADD PUSH0 DUP2 MSTORE PUSH1 0x20 ADD PUSH1 0x60 DUP2 MSTORE PUSH1 0x20 ADD PUSH1 0x60 DUP2 MSTORE PUSH1 0x20 ADD PUSH1 0x60 DUP2 MSTORE POP SWAP1 JUMP JUMPDEST PUSH1 0x40 MLOAD DUP1 PUSH1 0xA0 ADD PUSH1 0x40 MSTORE DUP1 PUSH0 DUP2 MSTORE PUSH1 0x20 ADD PUSH1 0x60 DUP2 MSTORE PUSH1 0x20 ADD PUSH1 0x60 DUP2 MSTORE PUSH1 0x20 ADD PUSH1 0x60 DUP2 MSTORE PUSH1 0x20 ADD PUSH1 0x60 DUP2 MSTORE POP SWAP1 JUMP JUMPDEST JUMPDEST DUP1 DUP3 GT ISZERO PUSH2 0xE8E JUMPI PUSH0 DUP2 DUP2 PUSH2 0xE85 SWAP2 SWAP1 PUSH2 0xEC8 JUMP JUMPDEST POP PUSH1 0x1 ADD PUSH2 0xE70 JUMP JUMPDEST POP SWAP1 JUMP JUMPDEST JUMPDEST DUP1 DUP3 GT ISZERO PUSH2 0xEA9 JUMPI PUSH0 DUP2 PUSH0 SWAP1 SSTORE POP PUSH1 0x1 ADD PUSH2 0xE93 JUMP JUMPDEST POP SWAP1 JUMP JUMPDEST JUMPDEST DUP1 DUP3 GT ISZERO PUSH2 0xEC4 JUMPI PUSH0 DUP2 PUSH0 SWAP1 SSTORE POP PUSH1 0x1 ADD PUSH2 0xEAE JUMP JUMPDEST POP SWAP1 JUMP JUMPDEST POP DUP1 SLOAD PUSH2 0xED4 SWAP1 PUSH2 0x19A9 JUMP JUMPDEST PUSH0 DUP3 SSTORE DUP1 PUSH1 0x1F LT PUSH2 0xEE5 JUMPI POP PUSH2 0xF02 JUMP JUMPDEST PUSH1 0x1F ADD PUSH1 0x20 SWAP1 DIV SWAP1 PUSH0 MSTORE PUSH1 0x20 PUSH0 KECCAK256 SWAP1 DUP2 ADD SWAP1 PUSH2 0xF01 SWAP2 SWAP1 PUSH2 0xE92 JUMP JUMPDEST JUMPDEST POP JUMP JUMPDEST PUSH0 PUSH1 0x40 MLOAD SWAP1 POP SWAP1 JUMP JUMPDEST PUSH0 DUP1 REVERT JUMPDEST PUSH0 DUP1 REVERT JUMPDEST PUSH0 DUP2 SWAP1 POP SWAP2 SWAP1 POP JUMP JUMPDEST PUSH2 0xF28 DUP2 PUSH2 0xF16 JUMP JUMPDEST DUP2 EQ PUSH2 0xF32 JUMPI PUSH0 DUP1 REVERT JUMPDEST POP JUMP JUMPDEST PUSH0 DUP2 CALLDATALOAD SWAP1 POP PUSH2 0xF43 DUP2 PUSH2 0xF1F JUMP JUMPDEST SWAP3 SWAP2 POP POP JUMP JUMPDEST PUSH0 DUP1 REVERT JUMPDEST PUSH0 DUP1 REVERT JUMPDEST PUSH0 PUSH1 0x1F NOT PUSH1 0x1F DUP4 ADD AND SWAP1 POP SWAP2 SWAP1 POP JUMP JUMPDEST PUSH32 0x4E487B7100000000000000000000000000000000000000000000000000000000 PUSH0 MSTORE PUSH1 0x41 PUSH1 0x4 MSTORE PUSH1 0x24 PUSH0 REVERT JUMPDEST PUSH2 0xF97 DUP3 PUSH2 0xF51 JUMP JUMPDEST DUP2 ADD DUP2 DUP2 LT PUSH8 0xFFFFFFFFFFFFFFFF DUP3 GT OR ISZERO PUSH2 0xFB6 JUMPI PUSH2 0xFB5 PUSH2 0xF61 JUMP JUMPDEST JUMPDEST DUP1 PUSH1 0x40 MSTORE POP POP POP JUMP JUMPDEST PUSH0 PUSH2 0xFC8 PUSH2 0xF05 JUMP JUMPDEST SWAP1 POP PUSH2 0xFD4 DUP3 DUP3 PUSH2 0xF8E JUMP JUMPDEST SWAP2 SWAP1 POP JUMP JUMPDEST PUSH0 PUSH8 0xFFFFFFFFFFFFFFFF DUP3 GT ISZERO PUSH2 0xFF3 JUMPI PUSH2 0xFF2 PUSH2 0xF61 JUMP JUMPDEST JUMPDEST PUSH2 0xFFC DUP3 PUSH2 0xF51 JUMP JUMPDEST SWAP1 POP PUSH1 0x20 DUP2 ADD SWAP1 POP SWAP2 SWAP1 POP JUMP JUMPDEST DUP3 DUP2 DUP4 CALLDATACOPY PUSH0 DUP4 DUP4 ADD MSTORE POP POP POP JUMP JUMPDEST PUSH0 PUSH2 0x1029 PUSH2 0x1024 DUP5 PUSH2 0xFD9 JUMP JUMPDEST PUSH2 0xFBF JUMP JUMPDEST SWAP1 POP DUP3 DUP2 MSTORE PUSH1 0x20 DUP2 ADD DUP5 DUP5 DUP5 ADD GT ISZERO PUSH2 0x1045 JUMPI PUSH2 0x1044 PUSH2 0xF4D JUMP JUMPDEST JUMPDEST PUSH2 0x1050 DUP5 DUP3 DUP6 PUSH2 0x1009 JUMP JUMPDEST POP SWAP4 SWAP3 POP POP POP JUMP JUMPDEST PUSH0 DUP3 PUSH1 0x1F DUP4 ADD SLT PUSH2 0x106C JUMPI PUSH2 0x106B PUSH2 0xF49 JUMP JUMPDEST JUMPDEST DUP2 CALLDATALOAD PUSH2 0x107C DUP5 DUP3 PUSH1 0x20 DUP7 ADD PUSH2 0x1017 JUMP JUMPDEST SWAP2 POP POP SWAP3 SWAP2 POP POP JUMP JUMPDEST PUSH0 PUSH8 0xFFFFFFFFFFFFFFFF DUP3 GT ISZERO PUSH2 0x109F JUMPI PUSH2 0x109E PUSH2 0xF61 JUMP JUMPDEST JUMPDEST PUSH1 0x20 DUP3 MUL SWAP1 POP PUSH1 0x20 DUP2 ADD SWAP1 POP SWAP2 SWAP1 POP JUMP JUMPDEST PUSH0 DUP1 REVERT JUMPDEST PUSH0 PUSH2 0x10C6 PUSH2 0x10C1 DUP5 PUSH2 0x1085 JUMP JUMPDEST PUSH2 0xFBF JUMP JUMPDEST SWAP1 POP DUP1 DUP4 DUP3 MSTORE PUSH1 0x20 DUP3 ADD SWAP1 POP PUSH1 0x20 DUP5 MUL DUP4 ADD DUP6 DUP2 GT ISZERO PUSH2 0x10E9 JUMPI PUSH2 0x10E8 PUSH2 0x10B0 JUMP JUMPDEST JUMPDEST DUP4 JUMPDEST DUP2 DUP2 LT ISZERO PUSH2 0x1130 JUMPI DUP1 CALLDATALOAD PUSH8 0xFFFFFFFFFFFFFFFF DUP2 GT ISZERO PUSH2 0x110E JUMPI PUSH2 0x110D PUSH2 0xF49 JUMP JUMPDEST JUMPDEST DUP1 DUP7 ADD PUSH2 0x111B DUP10 DUP3 PUSH2 0x1058 JUMP JUMPDEST DUP6 MSTORE PUSH1 0x20 DUP6 ADD SWAP5 POP POP POP PUSH1 0x20 DUP2 ADD SWAP1 POP PUSH2 0x10EB JUMP JUMPDEST POP POP POP SWAP4 SWAP3 POP POP POP JUMP JUMPDEST PUSH0 DUP3 PUSH1 0x1F DUP4 ADD SLT PUSH2 0x114E JUMPI PUSH2 0x114D PUSH2 0xF49 JUMP JUMPDEST JUMPDEST DUP2 CALLDATALOAD PUSH2 0x115E DUP5 DUP3 PUSH1 0x20 DUP7 ADD PUSH2 0x10B4 JUMP JUMPDEST SWAP2 POP POP SWAP3 SWAP2 POP POP JUMP JUMPDEST PUSH0 DUP1 PUSH0 DUP1 PUSH0 PUSH1 0xA0 DUP7 DUP9 SUB SLT ISZERO PUSH2 0x1180 JUMPI PUSH2 0x117F PUSH2 0xF0E JUMP JUMPDEST JUMPDEST PUSH0 PUSH2 0x118D DUP9 DUP3 DUP10 ADD PUSH2 0xF35 JUMP JUMPDEST SWAP6 POP POP PUSH1 0x20 DUP7 ADD CALLDATALOAD PUSH8 0xFFFFFFFFFFFFFFFF DUP2 GT ISZERO PUSH2 0x11AE JUMPI PUSH2 0x11AD PUSH2 0xF12 JUMP JUMPDEST JUMPDEST PUSH2 0x11BA DUP9 DUP3 DUP10 ADD PUSH2 0x1058 JUMP JUMPDEST SWAP5 POP POP PUSH1 0x40 DUP7 ADD CALLDATALOAD PUSH8 0xFFFFFFFFFFFFFFFF DUP2 GT ISZERO PUSH2 0x11DB JUMPI PUSH2 0x11DA PUSH2 0xF12 JUMP JUMPDEST JUMPDEST PUSH2 0x11E7 DUP9 DUP3 DUP10 ADD PUSH2 0x1058 JUMP JUMPDEST SWAP4 POP POP PUSH1 0x60 DUP7 ADD CALLDATALOAD PUSH8 0xFFFFFFFFFFFFFFFF DUP2 GT ISZERO PUSH2 0x1208 JUMPI PUSH2 0x1207 PUSH2 0xF12 JUMP JUMPDEST JUMPDEST PUSH2 0x1214 DUP9 DUP3 DUP10 ADD PUSH2 0x1058 JUMP JUMPDEST SWAP3 POP POP PUSH1 0x80 DUP7 ADD CALLDATALOAD PUSH8 0xFFFFFFFFFFFFFFFF DUP2 GT ISZERO PUSH2 0x1235 JUMPI PUSH2 0x1234 PUSH2 0xF12 JUMP JUMPDEST JUMPDEST PUSH2 0x1241 DUP9 DUP3 DUP10 ADD PUSH2 0x113A JUMP JUMPDEST SWAP2 POP POP SWAP3 SWAP6 POP SWAP3 SWAP6 SWAP1 SWAP4 POP JUMP JUMPDEST PUSH0 PUSH1 0x20 DUP3 DUP5 SUB SLT ISZERO PUSH2 0x1263 JUMPI PUSH2 0x1262 PUSH2 0xF0E JUMP JUMPDEST JUMPDEST PUSH0 PUSH2 0x1270 DUP5 DUP3 DUP6 ADD PUSH2 0xF35 JUMP JUMPDEST SWAP2 POP POP SWAP3 SWAP2 POP POP JUMP JUMPDEST PUSH2 0x1282 DUP2 PUSH2 0xF16 JUMP JUMPDEST DUP3 MSTORE POP POP JUMP JUMPDEST PUSH0 PUSH1 0x20 DUP3 ADD SWAP1 POP PUSH2 0x129B PUSH0 DUP4 ADD DUP5 PUSH2 0x1279 JUMP JUMPDEST SWAP3 SWAP2 POP POP JUMP JUMPDEST PUSH0 PUSH20 0xFFFFFFFFFFFFFFFFFFFFFFFFFFFFFFFFFFFFFFFF DUP3 AND SWAP1 POP SWAP2 SWAP1 POP JUMP JUMPDEST PUSH0 PUSH2 0x12CA DUP3 PUSH2 0x12A1 JUMP JUMPDEST SWAP1 POP SWAP2 SWAP1 POP JUMP JUMPDEST PUSH2 0x12DA DUP2 PUSH2 0x12C0 JUMP JUMPDEST DUP3 MSTORE POP POP JUMP JUMPDEST PUSH0 PUSH1 0x20 DUP3 ADD SWAP1 POP PUSH2 0x12F3 PUSH0 DUP4 ADD DUP5 PUSH2 0x12D1 JUMP JUMPDEST SWAP3 SWAP2 POP POP JUMP JUMPDEST PUSH0 DUP2 SWAP1 POP SWAP2 SWAP1 POP JUMP JUMPDEST PUSH2 0x130B DUP2 PUSH2 0x12F9 JUMP JUMPDEST DUP3 MSTORE POP POP JUMP JUMPDEST PUSH0 PUSH1 0x20 DUP3 ADD SWAP1 POP PUSH2 0x1324 PUSH0 DUP4 ADD DUP5 PUSH2 0x1302 JUMP JUMPDEST SWAP3 SWAP2 POP POP JUMP JUMPDEST PUSH0 PUSH8 0xFFFFFFFFFFFFFFFF DUP3 GT ISZERO PUSH2 0x1344 JUMPI PUSH2 0x1343 PUSH2 0xF61 JUMP JUMPDEST JUMPDEST PUSH1 0x20 DUP3 MUL SWAP1 POP PUSH1 0x20 DUP2 ADD SWAP1 POP SWAP2 SWAP1 POP JUMP JUMPDEST PUSH0 PUSH2 0x1367 PUSH2 0x1362 DUP5 PUSH2 0x132A JUMP JUMPDEST PUSH2 0xFBF JUMP JUMPDEST SWAP1 POP DUP1 DUP4 DUP3 MSTORE PUSH1 0x20 DUP3 ADD SWAP1 POP PUSH1 0x20 DUP5 MUL DUP4 ADD DUP6 DUP2 GT ISZERO PUSH2 0x138A JUMPI PUSH2 0x1389 PUSH2 0x10B0 JUMP JUMPDEST JUMPDEST DUP4 JUMPDEST DUP2 DUP2 LT ISZERO PUSH2 0x13B3 JUMPI DUP1 PUSH2 0x139F DUP9 DUP3 PUSH2 0xF35 JUMP JUMPDEST DUP5 MSTORE PUSH1 0x20 DUP5 ADD SWAP4 POP POP PUSH1 0x20 DUP2 ADD SWAP1 POP PUSH2 0x138C JUMP JUMPDEST POP POP POP SWAP4 SWAP3 POP POP POP JUMP JUMPDEST PUSH0 DUP3 PUSH1 0x1F DUP4 ADD SLT PUSH2 0x13D1 JUMPI PUSH2 0x13D0 PUSH2 0xF49 JUMP JUMPDEST JUMPDEST DUP2 CALLDATALOAD PUSH2 0x13E1 DUP5 DUP3 PUSH1 0x20 DUP7 ADD PUSH2 0x1355 JUMP JUMPDEST SWAP2 POP POP SWAP3 SWAP2 POP POP JUMP JUMPDEST PUSH0 DUP1 PUSH0 DUP1 PUSH0 PUSH1 0xA0 DUP7 DUP9 SUB SLT ISZERO PUSH2 0x1403 JUMPI PUSH2 0x1402 PUSH2 0xF0E JUMP JUMPDEST JUMPDEST PUSH0 DUP7 ADD CALLDATALOAD PUSH8 0xFFFFFFFFFFFFFFFF DUP2 GT ISZERO PUSH2 0x1420 JUMPI PUSH2 0x141F PUSH2 0xF12 JUMP JUMPDEST JUMPDEST PUSH2 0x142C DUP9 DUP3 DUP10 ADD PUSH2 0x1058 JUMP JUMPDEST SWAP6 POP POP PUSH1 0x20 DUP7 ADD CALLDATALOAD PUSH8 0xFFFFFFFFFFFFFFFF DUP2 GT ISZERO PUSH2 0x144D JUMPI PUSH2 0x144C PUSH2 0xF12 JUMP JUMPDEST JUMPDEST PUSH2 0x1459 DUP9 DUP3 DUP10 ADD PUSH2 0x1058 JUMP JUMPDEST SWAP5 POP POP PUSH1 0x40 PUSH2 0x146A DUP9 DUP3 DUP10 ADD PUSH2 0xF35 JUMP JUMPDEST SWAP4 POP POP PUSH1 0x60 DUP7 ADD CALLDATALOAD PUSH8 0xFFFFFFFFFFFFFFFF DUP2 GT ISZERO PUSH2 0x148B JUMPI PUSH2 0x148A PUSH2 0xF12 JUMP JUMPDEST JUMPDEST PUSH2 0x1497 DUP9 DUP3 DUP10 ADD PUSH2 0x113A JUMP JUMPDEST SWAP3 POP POP PUSH1 0x80 DUP7 ADD CALLDATALOAD PUSH8 0xFFFFFFFFFFFFFFFF DUP2 GT ISZERO PUSH2 0x14B8 JUMPI PUSH2 0x14B7 PUSH2 0xF12 JUMP JUMPDEST JUMPDEST PUSH2 0x14C4 DUP9 DUP3 DUP10 ADD PUSH2 0x13BD JUMP JUMPDEST SWAP2 POP POP SWAP3 SWAP6 POP SWAP3 SWAP6 SWAP1 SWAP4 POP JUMP JUMPDEST PUSH0 DUP2 MLOAD SWAP1 POP SWAP2 SWAP1 POP JUMP JUMPDEST PUSH0 DUP3 DUP3 MSTORE PUSH1 0x20 DUP3 ADD SWAP1 POP SWAP3 SWAP2 POP POP JUMP JUMPDEST PUSH0 JUMPDEST DUP4 DUP2 LT ISZERO PUSH2 0x1508 JUMPI DUP1 DUP3 ADD MLOAD DUP2 DUP5 ADD MSTORE PUSH1 0x20 DUP2 ADD SWAP1 POP PUSH2 0x14ED JUMP JUMPDEST PUSH0 DUP5 DUP5 ADD MSTORE POP POP POP POP JUMP JUMPDEST PUSH0 PUSH2 0x151D DUP3 PUSH2 0x14D1 JUMP JUMPDEST PUSH2 0x1527 DUP2 DUP6 PUSH2 0x14DB JUMP JUMPDEST SWAP4 POP PUSH2 0x1537 DUP2 DUP6 PUSH1 0x20 DUP7 ADD PUSH2 0x14EB JUMP JUMPDEST PUSH2 0x1540 DUP2 PUSH2 0xF51 JUMP JUMPDEST DUP5 ADD SWAP2 POP POP SWAP3 SWAP2 POP POP JUMP JUMPDEST PUSH2 0x1554 DUP2 PUSH2 0xF16 JUMP JUMPDEST DUP3 MSTORE POP POP JUMP JUMPDEST PUSH0 DUP2 MLOAD SWAP1 POP SWAP2 SWAP1 POP JUMP JUMPDEST PUSH0 DUP3 DUP3 MSTORE PUSH1 0x20 DUP3 ADD SWAP1 POP SWAP3 SWAP2 POP POP JUMP JUMPDEST PUSH0 DUP2 SWAP1 POP PUSH1 0x20 DUP3 ADD SWAP1 POP SWAP2 SWAP1 POP JUMP JUMPDEST PUSH0 PUSH2 0x158E DUP4 DUP4 PUSH2 0x1513 JUMP JUMPDEST SWAP1 POP SWAP3 SWAP2 POP POP JUMP JUMPDEST PUSH0 PUSH1 0x20 DUP3 ADD SWAP1 POP SWAP2 SWAP1 POP JUMP JUMPDEST PUSH0 PUSH2 0x15AC DUP3 PUSH2 0x155A JUMP JUMPDEST PUSH2 0x15B6 DUP2 DUP6 PUSH2 0x1564 JUMP JUMPDEST SWAP4 POP DUP4 PUSH1 0x20 DUP3 MUL DUP6 ADD PUSH2 0x15C8 DUP6 PUSH2 0x1574 JUMP JUMPDEST DUP1 PUSH0 JUMPDEST DUP6 DUP2 LT ISZERO PUSH2 0x1603 JUMPI DUP5 DUP5 SUB DUP10 MSTORE DUP2 MLOAD PUSH2 0x15E4 DUP6 DUP3 PUSH2 0x1583 JUMP JUMPDEST SWAP5 POP PUSH2 0x15EF DUP4 PUSH2 0x1596 JUMP JUMPDEST SWAP3 POP PUSH1 0x20 DUP11 ADD SWAP10 POP POP PUSH1 0x1 DUP2 ADD SWAP1 POP PUSH2 0x15CB JUMP JUMPDEST POP DUP3 SWAP8 POP DUP8 SWAP6 POP POP POP POP POP POP SWAP3 SWAP2 POP POP JUMP JUMPDEST PUSH0 DUP2 MLOAD SWAP1 POP SWAP2 SWAP1 POP JUMP JUMPDEST PUSH0 DUP3 DUP3 MSTORE PUSH1 0x20 DUP3 ADD SWAP1 POP SWAP3 SWAP2 POP POP JUMP JUMPDEST PUSH0 DUP2 SWAP1 POP PUSH1 0x20 DUP3 ADD SWAP1 POP SWAP2 SWAP1 POP JUMP JUMPDEST PUSH0 PUSH2 0x1649 DUP4 DUP4 PUSH2 0x154B JUMP JUMPDEST PUSH1 0x20 DUP4 ADD SWAP1 POP SWAP3 SWAP2 POP POP JUMP JUMPDEST PUSH0 PUSH1 0x20 DUP3 ADD SWAP1 POP SWAP2 SWAP1 POP JUMP JUMPDEST PUSH0 PUSH2 0x166B DUP3 PUSH2 0x1615 JUMP JUMPDEST PUSH2 0x1675 DUP2 DUP6 PUSH2 0x161F JUMP JUMPDEST SWAP4 POP PUSH2 0x1680 DUP4 PUSH2 0x162F JUMP JUMPDEST DUP1 PUSH0 JUMPDEST DUP4 DUP2 LT ISZERO PUSH2 0x16B0 JUMPI DUP2 MLOAD PUSH2 0x1697 DUP9 DUP3 PUSH2 0x163E JUMP JUMPDEST SWAP8 POP PUSH2 0x16A2 DUP4 PUSH2 0x1655 JUMP JUMPDEST SWAP3 POP POP PUSH1 0x1 DUP2 ADD SWAP1 POP PUSH2 0x1683 JUMP JUMPDEST POP DUP6 SWAP4 POP POP POP POP SWAP3 SWAP2 POP POP JUMP JUMPDEST PUSH0 DUP2 MLOAD SWAP1 POP SWAP2 SWAP1 POP JUMP JUMPDEST PUSH0 DUP3 DUP3 MSTORE PUSH1 0x20 DUP3 ADD SWAP1 POP SWAP3 SWAP2 POP POP JUMP JUMPDEST PUSH0 DUP2 SWAP1 POP PUSH1 0x20 DUP3 ADD SWAP1 POP SWAP2 SWAP1 POP JUMP JUMPDEST PUSH2 0x16EF DUP2 PUSH2 0x12F9 JUMP JUMPDEST DUP3 MSTORE POP POP JUMP JUMPDEST PUSH0 PUSH2 0x1700 DUP4 DUP4 PUSH2 0x16E6 JUMP JUMPDEST PUSH1 0x20 DUP4 ADD SWAP1 POP SWAP3 SWAP2 POP POP JUMP JUMPDEST PUSH0 PUSH1 0x20 DUP3 ADD SWAP1 POP SWAP2 SWAP1 POP JUMP JUMPDEST PUSH0 PUSH2 0x1722 DUP3 PUSH2 0x16BD JUMP JUMPDEST PUSH2 0x172C DUP2 DUP6 PUSH2 0x16C7 JUMP JUMPDEST SWAP4 POP PUSH2 0x1737 DUP4 PUSH2 0x16D7 JUMP JUMPDEST DUP1 PUSH0 JUMPDEST DUP4 DUP2 LT ISZERO PUSH2 0x1767 JUMPI DUP2 MLOAD PUSH2 0x174E DUP9 DUP3 PUSH2 0x16F5 JUMP JUMPDEST SWAP8 POP PUSH2 0x1759 DUP4 PUSH2 0x170C JUMP JUMPDEST SWAP3 POP POP PUSH1 0x1 DUP2 ADD SWAP1 POP PUSH2 0x173A JUMP JUMPDEST POP DUP6 SWAP4 POP POP POP POP SWAP3 SWAP2 POP POP JUMP JUMPDEST PUSH0 PUSH1 0xC0 DUP4 ADD PUSH0 DUP4 ADD MLOAD DUP5 DUP3 SUB PUSH0 DUP7 ADD MSTORE PUSH2 0x178E DUP3 DUP3 PUSH2 0x1513 JUMP JUMPDEST SWAP2 POP POP PUSH1 0x20 DUP4 ADD MLOAD DUP5 DUP3 SUB PUSH1 0x20 DUP7 ADD MSTORE PUSH2 0x17A8 DUP3 DUP3 PUSH2 0x1513 JUMP JUMPDEST SWAP2 POP POP PUSH1 0x40 DUP4 ADD MLOAD PUSH2 0x17BD PUSH1 0x40 DUP7 ADD DUP3 PUSH2 0x154B JUMP JUMPDEST POP PUSH1 0x60 DUP4 ADD MLOAD DUP5 DUP3 SUB PUSH1 0x60 DUP7 ADD MSTORE PUSH2 0x17D5 DUP3 DUP3 PUSH2 0x15A2 JUMP JUMPDEST SWAP2 POP POP PUSH1 0x80 DUP4 ADD MLOAD DUP5 DUP3 SUB PUSH1 0x80 DUP7 ADD MSTORE PUSH2 0x17EF DUP3 DUP3 PUSH2 0x1661 JUMP JUMPDEST SWAP2 POP POP PUSH1 0xA0 DUP4 ADD MLOAD DUP5 DUP3 SUB PUSH1 0xA0 DUP7 ADD MSTORE PUSH2 0x1809 DUP3 DUP3 PUSH2 0x1718 JUMP JUMPDEST SWAP2 POP POP DUP1 SWAP2 POP POP SWAP3 SWAP2 POP POP JUMP JUMPDEST PUSH0 PUSH1 0x20 DUP3 ADD SWAP1 POP DUP2 DUP2 SUB PUSH0 DUP4 ADD MSTORE PUSH2 0x182E DUP2 DUP5 PUSH2 0x1774 JUMP JUMPDEST SWAP1 POP SWAP3 SWAP2 POP POP JUMP JUMPDEST PUSH0 PUSH1 0xA0 DUP4 ADD PUSH0 DUP4 ADD MLOAD PUSH2 0x184B PUSH0 DUP7 ADD DUP3 PUSH2 0x154B JUMP JUMPDEST POP PUSH1 0x20 DUP4 ADD MLOAD DUP5 DUP3 SUB PUSH1 0x20 DUP7 ADD MSTORE PUSH2 0x1863 DUP3 DUP3 PUSH2 0x1513 JUMP JUMPDEST SWAP2 POP POP PUSH1 0x40 DUP4 ADD MLOAD DUP5 DUP3 SUB PUSH1 0x40 DUP7 ADD MSTORE PUSH2 0x187D DUP3 DUP3 PUSH2 0x1513 JUMP JUMPDEST SWAP2 POP POP PUSH1 0x60 DUP4 ADD MLOAD DUP5 DUP3 SUB PUSH1 0x60 DUP7 ADD MSTORE PUSH2 0x1897 DUP3 DUP3 PUSH2 0x1513 JUMP JUMPDEST SWAP2 POP POP PUSH1 0x80 DUP4 ADD MLOAD DUP5 DUP3 SUB PUSH1 0x80 DUP7 ADD MSTORE PUSH2 0x18B1 DUP3 DUP3 PUSH2 0x15A2 JUMP JUMPDEST SWAP2 POP POP DUP1 SWAP2 POP POP SWAP3 SWAP2 POP POP JUMP JUMPDEST PUSH0 PUSH1 0x20 DUP3 ADD SWAP1 POP DUP2 DUP2 SUB PUSH0 DUP4 ADD MSTORE PUSH2 0x18D6 DUP2 DUP5 PUSH2 0x1836 JUMP JUMPDEST SWAP1 POP SWAP3 SWAP2 POP POP JUMP JUMPDEST PUSH0 DUP3 DUP3 MSTORE PUSH1 0x20 DUP3 ADD SWAP1 POP SWAP3 SWAP2 POP POP JUMP JUMPDEST PUSH32 0x4F6E6C792074686520636F6E7472616374206F776E65722063616E2070657266 PUSH0 DUP3 ADD MSTORE PUSH32 0x6F726D2074686973206F7065726174696F6E0000000000000000000000000000 PUSH1 0x20 DUP3 ADD MSTORE POP JUMP JUMPDEST PUSH0 PUSH2 0x1948 PUSH1 0x32 DUP4 PUSH2 0x18DE JUMP JUMPDEST SWAP2 POP PUSH2 0x1953 DUP3 PUSH2 0x18EE JUMP JUMPDEST PUSH1 0x40 DUP3 ADD SWAP1 POP SWAP2 SWAP1 POP JUMP JUMPDEST PUSH0 PUSH1 0x20 DUP3 ADD SWAP1 POP DUP2 DUP2 SUB PUSH0 DUP4 ADD MSTORE PUSH2 0x1975 DUP2 PUSH2 0x193C JUMP JUMPDEST SWAP1 POP SWAP2 SWAP1 POP JUMP JUMPDEST PUSH32 0x4E487B7100000000000000000000000000000000000000000000000000000000 PUSH0 MSTORE PUSH1 0x22 PUSH1 0x4 MSTORE PUSH1 0x24 PUSH0 REVERT JUMPDEST PUSH0 PUSH1 0x2 DUP3 DIV SWAP1 POP PUSH1 0x1 DUP3 AND DUP1 PUSH2 0x19C0 JUMPI PUSH1 0x7F DUP3 AND SWAP2 POP JUMPDEST PUSH1 0x20 DUP3 LT DUP2 SUB PUSH2 0x19D3 JUMPI PUSH2 0x19D2 PUSH2 0x197C JUMP JUMPDEST JUMPDEST POP SWAP2 SWAP1 POP JUMP JUMPDEST PUSH0 DUP2 SWAP1 POP DUP2 PUSH0 MSTORE PUSH1 0x20 PUSH0 KECCAK256 SWAP1 POP SWAP2 SWAP1 POP JUMP JUMPDEST PUSH0 PUSH1 0x20 PUSH1 0x1F DUP4 ADD DIV SWAP1 POP SWAP2 SWAP1 POP JUMP JUMPDEST PUSH0 DUP3 DUP3 SHL SWAP1 POP SWAP3 SWAP2 POP POP JUMP JUMPDEST PUSH0 PUSH1 0x8 DUP4 MUL PUSH2 0x1A35 PUSH32 0xFFFFFFFFFFFFFFFFFFFFFFFFFFFFFFFFFFFFFFFFFFFFFFFFFFFFFFFFFFFFFFFF DUP3 PUSH2 0x19FA JUMP JUMPDEST PUSH2 0x1A3F DUP7 DUP4 PUSH2 0x19FA JUMP JUMPDEST SWAP6 POP DUP1 NOT DUP5 AND SWAP4 POP DUP1 DUP7 AND DUP5 OR SWAP3 POP POP POP SWAP4 SWAP3 POP POP POP JUMP JUMPDEST PUSH0 DUP2 SWAP1 POP SWAP2 SWAP1 POP JUMP JUMPDEST PUSH0 PUSH2 0x1A7A PUSH2 0x1A75 PUSH2 0x1A70 DUP5 PUSH2 0xF16 JUMP JUMPDEST PUSH2 0x1A57 JUMP JUMPDEST PUSH2 0xF16 JUMP JUMPDEST SWAP1 POP SWAP2 SWAP1 POP JUMP JUMPDEST PUSH0 DUP2 SWAP1 POP SWAP2 SWAP1 POP JUMP JUMPDEST PUSH2 0x1A93 DUP4 PUSH2 0x1A60 JUMP JUMPDEST PUSH2 0x1AA7 PUSH2 0x1A9F DUP3 PUSH2 0x1A81 JUMP JUMPDEST DUP5 DUP5 SLOAD PUSH2 0x1A06 JUMP JUMPDEST DUP3 SSTORE POP POP POP POP JUMP JUMPDEST PUSH0 SWAP1 JUMP JUMPDEST PUSH2 0x1ABB PUSH2 0x1AAF JUMP JUMPDEST PUSH2 0x1AC6 DUP2 DUP5 DUP5 PUSH2 0x1A8A JUMP JUMPDEST POP POP POP JUMP JUMPDEST JUMPDEST DUP2 DUP2 LT ISZERO PUSH2 0x1AE9 JUMPI PUSH2 0x1ADE PUSH0 DUP3 PUSH2 0x1AB3 JUMP JUMPDEST PUSH1 0x1 DUP2 ADD SWAP1 POP PUSH2 0x1ACC JUMP JUMPDEST POP POP JUMP JUMPDEST PUSH1 0x1F DUP3 GT ISZERO PUSH2 0x1B2E JUMPI PUSH2 0x1AFF DUP2 PUSH2 0x19D9 JUMP JUMPDEST PUSH2 0x1B08 DUP5 PUSH2 0x19EB JUMP JUMPDEST DUP2 ADD PUSH1 0x20 DUP6 LT ISZERO PUSH2 0x1B17 JUMPI DUP2 SWAP1 POP JUMPDEST PUSH2 0x1B2B PUSH2 0x1B23 DUP6 PUSH2 0x19EB JUMP JUMPDEST DUP4 ADD DUP3 PUSH2 0x1ACB JUMP JUMPDEST POP POP JUMPDEST POP POP POP JUMP JUMPDEST PUSH0 DUP3 DUP3 SHR SWAP1 POP SWAP3 SWAP2 POP POP JUMP JUMPDEST PUSH0 PUSH2 0x1B4E PUSH0 NOT DUP5 PUSH1 0x8 MUL PUSH2 0x1B33 JUMP JUMPDEST NOT DUP1 DUP4 AND SWAP2 POP POP SWAP3 SWAP2 POP POP JUMP JUMPDEST PUSH0 PUSH2 0x1B66 DUP4 DUP4 PUSH2 0x1B3F JUMP JUMPDEST SWAP2 POP DUP3 PUSH1 0x2 MUL DUP3 OR SWAP1 POP SWAP3 SWAP2 POP POP JUMP JUMPDEST PUSH2 0x1B7F DUP3 PUSH2 0x14D1 JUMP JUMPDEST PUSH8 0xFFFFFFFFFFFFFFFF DUP2 GT ISZERO PUSH2 0x1B98 JUMPI PUSH2 0x1B97 PUSH2 0xF61 JUMP JUMPDEST JUMPDEST PUSH2 0x1BA2 DUP3 SLOAD PUSH2 0x19A9 JUMP JUMPDEST PUSH2 0x1BAD DUP3 DUP3 DUP6 PUSH2 0x1AED JUMP JUMPDEST PUSH0 PUSH1 0x20 SWAP1 POP PUSH1 0x1F DUP4 GT PUSH1 0x1 DUP2 EQ PUSH2 0x1BDE JUMPI PUSH0 DUP5 ISZERO PUSH2 0x1BCC JUMPI DUP3 DUP8 ADD MLOAD SWAP1 POP JUMPDEST PUSH2 0x1BD6 DUP6 DUP3 PUSH2 0x1B5B JUMP JUMPDEST DUP7 SSTORE POP PUSH2 0x1C3D JUMP JUMPDEST PUSH1 0x1F NOT DUP5 AND PUSH2 0x1BEC DUP7 PUSH2 0x19D9 JUMP JUMPDEST PUSH0 JUMPDEST DUP3 DUP2 LT ISZERO PUSH2 0x1C13 JUMPI DUP5 DUP10 ADD MLOAD DUP3 SSTORE PUSH1 0x1 DUP3 ADD SWAP2 POP PUSH1 0x20 DUP6 ADD SWAP5 POP PUSH1 0x20 DUP2 ADD SWAP1 POP PUSH2 0x1BEE JUMP JUMPDEST DUP7 DUP4 LT ISZERO PUSH2 0x1C30 JUMPI DUP5 DUP10 ADD MLOAD PUSH2 0x1C2C PUSH1 0x1F DUP10 AND DUP3 PUSH2 0x1B3F JUMP JUMPDEST DUP4 SSTORE POP JUMPDEST PUSH1 0x1 PUSH1 0x2 DUP9 MUL ADD DUP9 SSTORE POP POP POP JUMPDEST POP POP POP POP POP POP JUMP JUMPDEST PUSH32 0x4E487B7100000000000000000000000000000000000000000000000000000000 PUSH0 MSTORE PUSH1 0x11 PUSH1 0x4 MSTORE PUSH1 0x24 PUSH0 REVERT JUMPDEST PUSH0 PUSH2 0x1C7C DUP3 PUSH2 0xF16 JUMP JUMPDEST SWAP2 POP PUSH32 0xFFFFFFFFFFFFFFFFFFFFFFFFFFFFFFFFFFFFFFFFFFFFFFFFFFFFFFFFFFFFFFFF DUP3 SUB PUSH2 0x1CAE JUMPI PUSH2 0x1CAD PUSH2 0x1C45 JUMP JUMPDEST JUMPDEST PUSH1 0x1 DUP3 ADD SWAP1 POP SWAP2 SWAP1 POP JUMP JUMPDEST PUSH0 DUP2 SWAP1 POP SWAP3 SWAP2 POP POP JUMP JUMPDEST PUSH0 DUP2 SLOAD PUSH2 0x1CCF DUP2 PUSH2 0x19A9 JUMP JUMPDEST PUSH2 0x1CD9 DUP2 DUP7 PUSH2 0x1CB9 JUMP JUMPDEST SWAP5 POP PUSH1 0x1 DUP3 AND PUSH0 DUP2 EQ PUSH2 0x1CF3 JUMPI PUSH1 0x1 DUP2 EQ PUSH2 0x1D08 JUMPI PUSH2 0x1D3A JUMP JUMPDEST PUSH1 0xFF NOT DUP4 AND DUP7 MSTORE DUP2 ISZERO ISZERO DUP3 MUL DUP7 ADD SWAP4 POP PUSH2 0x1D3A JUMP JUMPDEST PUSH2 0x1D11 DUP6 PUSH2 0x19D9 JUMP JUMPDEST PUSH0 JUMPDEST DUP4 DUP2 LT ISZERO PUSH2 0x1D32 JUMPI DUP2 SLOAD DUP2 DUP10 ADD MSTORE PUSH1 0x1 DUP3 ADD SWAP2 POP PUSH1 0x20 DUP2 ADD SWAP1 POP PUSH2 0x1D13 JUMP JUMPDEST DUP4 DUP9 ADD SWAP6 POP POP POP JUMPDEST POP POP POP SWAP3 SWAP2 POP POP JUMP JUMPDEST PUSH0 PUSH2 0x1D4E DUP3 DUP7 PUSH2 0x1CC3 JUMP JUMPDEST SWAP2 POP PUSH2 0x1D5A DUP3 DUP6 PUSH2 0x1CC3 JUMP JUMPDEST SWAP2 POP PUSH2 0x1D66 DUP3 DUP5 PUSH2 0x1CC3 JUMP JUMPDEST SWAP2 POP DUP2 SWAP1 POP SWAP5 SWAP4 POP POP POP POP JUMP JUMPDEST PUSH32 0x4E487B7100000000000000000000000000000000000000000000000000000000 PUSH0 MSTORE PUSH1 0x32 PUSH1 0x4 MSTORE PUSH1 0x24 PUSH0 REVERT JUMPDEST PUSH0 DUP2 MLOAD SWAP1 POP SWAP2 SWAP1 POP JUMP JUMPDEST PUSH0 DUP2 SWAP1 POP SWAP3 SWAP2 POP POP JUMP JUMPDEST PUSH0 PUSH2 0x1DBE DUP3 PUSH2 0x1DA0 JUMP JUMPDEST PUSH2 0x1DC8 DUP2 DUP6 PUSH2 0x1DAA JUMP JUMPDEST SWAP4 POP PUSH2 0x1DD8 DUP2 DUP6 PUSH1 0x20 DUP7 ADD PUSH2 0x14EB JUMP JUMPDEST DUP1 DUP5 ADD SWAP2 POP POP SWAP3 SWAP2 POP POP JUMP JUMPDEST PUSH0 PUSH2 0x1DEF DUP3 DUP6 PUSH2 0x1DB4 JUMP JUMPDEST SWAP2 POP PUSH2 0x1DFB DUP3 DUP5 PUSH2 0x1CC3 JUMP JUMPDEST SWAP2 POP DUP2 SWAP1 POP SWAP4 SWAP3 POP POP POP JUMP JUMPDEST PUSH32 0x44617461205573657220646F6573206E6F742065786973742E00000000000000 PUSH0 DUP3 ADD MSTORE POP JUMP JUMPDEST PUSH0 PUSH2 0x1E3B PUSH1 0x19 DUP4 PUSH2 0x18DE JUMP JUMPDEST SWAP2 POP PUSH2 0x1E46 DUP3 PUSH2 0x1E07 JUMP JUMPDEST PUSH1 0x20 DUP3 ADD SWAP1 POP SWAP2 SWAP1 POP JUMP JUMPDEST PUSH0 PUSH1 0x20 DUP3 ADD SWAP1 POP DUP2 DUP2 SUB PUSH0 DUP4 ADD MSTORE PUSH2 0x1E68 DUP2 PUSH2 0x1E2F JUMP JUMPDEST SWAP1 POP SWAP2 SWAP1 POP JUMP JUMPDEST PUSH32 0x506572736F6E616C4461746120646F6573206E6F742065786973742E00000000 PUSH0 DUP3 ADD MSTORE POP JUMP JUMPDEST PUSH0 PUSH2 0x1EA3 PUSH1 0x1C DUP4 PUSH2 0x18DE JUMP JUMPDEST SWAP2 POP PUSH2 0x1EAE DUP3 PUSH2 0x1E6F JUMP JUMPDEST PUSH1 0x20 DUP3 ADD SWAP1 POP SWAP2 SWAP1 POP JUMP JUMPDEST PUSH0 PUSH1 0x20 DUP3 ADD SWAP1 POP DUP2 DUP2 SUB PUSH0 DUP4 ADD MSTORE PUSH2 0x1ED0 DUP2 PUSH2 0x1E97 JUMP JUMPDEST SWAP1 POP SWAP2 SWAP1 POP JUMP INVALID LOG2 PUSH5 0x6970667358 0x22 SLT KECCAK256 0x4F 0xA7 RETURNDATACOPY 0xDE PUSH14 0x9EBDC24F028A7B2E04992F44263A SAR 0xEE 0xB1 SWAP12 PUSH29 0x7E84A22B196842CB64736F6C6343000818003300000000000000000000 "
				},
				"gasEstimates": {
					"creation": {
						"codeDepositCost": "1589800",
						"executionCost": "35939",
						"totalCost": "1625739"
					},
					"external": {
						"addDataUsage(string,string,uint256,string[],uint256[])": "infinite",
						"addPersonalData(uint256,string,string,string,string[])": "infinite",
						"addProcessedPersonalData(uint256)": "infinite",
						"getDataUsageByKey(uint256)": "infinite",
						"getDataUsageCounter()": "2499",
						"getPersonalDataByKey(uint256)": "infinite",
						"getPersonalDataCounter()": "2477",
						"getProcessedPersonalDataByKey(uint256)": "2791",
						"owner()": "2505"
					}
				},
				"methodIdentifiers": {
					"addDataUsage(string,string,uint256,string[],uint256[])": "ca07b122",
					"addPersonalData(uint256,string,string,string,string[])": "0dab7cd9",
					"addProcessedPersonalData(uint256)": "3f81de59",
					"getDataUsageByKey(uint256)": "d2b0649a",
					"getDataUsageCounter()": "682477d7",
					"getPersonalDataByKey(uint256)": "d8a761d9",
					"getPersonalDataCounter()": "4b58fbe9",
					"getProcessedPersonalDataByKey(uint256)": "b61798f6",
					"owner()": "8da5cb5b"
				}
			},
			"storageLayout": {
				"storage": [
					{
						"astId": 3,
						"contract": "contracts/DataUsageSmartContract.sol:DataUsageSmartContract",
						"label": "owner",
						"offset": 0,
						"slot": "0",
						"type": "t_address"
					},
					{
						"astId": 63,
						"contract": "contracts/DataUsageSmartContract.sol:DataUsageSmartContract",
						"label": "dataUsages",
						"offset": 0,
						"slot": "1",
						"type": "t_mapping(t_uint256,t_struct(DataUsage)46_storage)"
					},
					{
						"astId": 68,
						"contract": "contracts/DataUsageSmartContract.sol:DataUsageSmartContract",
						"label": "personalDatas",
						"offset": 0,
						"slot": "2",
						"type": "t_mapping(t_uint256,t_struct(PersonalData)58_storage)"
					},
					{
						"astId": 72,
						"contract": "contracts/DataUsageSmartContract.sol:DataUsageSmartContract",
						"label": "processedPersonalDatas",
						"offset": 0,
						"slot": "3",
						"type": "t_mapping(t_uint256,t_bytes32)"
					},
					{
						"astId": 75,
						"contract": "contracts/DataUsageSmartContract.sol:DataUsageSmartContract",
						"label": "dataUsageCounter",
						"offset": 0,
						"slot": "4",
						"type": "t_uint256"
					},
					{
						"astId": 78,
						"contract": "contracts/DataUsageSmartContract.sol:DataUsageSmartContract",
						"label": "actorIds",
						"offset": 0,
						"slot": "5",
						"type": "t_array(t_uint256)dyn_storage"
					},
					{
						"astId": 81,
						"contract": "contracts/DataUsageSmartContract.sol:DataUsageSmartContract",
						"label": "personalDataCounter",
						"offset": 0,
						"slot": "6",
						"type": "t_uint256"
					}
				],
				"types": {
					"t_address": {
						"encoding": "inplace",
						"label": "address",
						"numberOfBytes": "20"
					},
					"t_array(t_bytes32)dyn_storage": {
						"base": "t_bytes32",
						"encoding": "dynamic_array",
						"label": "bytes32[]",
						"numberOfBytes": "32"
					},
					"t_array(t_string_storage)dyn_storage": {
						"base": "t_string_storage",
						"encoding": "dynamic_array",
						"label": "string[]",
						"numberOfBytes": "32"
					},
					"t_array(t_uint256)dyn_storage": {
						"base": "t_uint256",
						"encoding": "dynamic_array",
						"label": "uint256[]",
						"numberOfBytes": "32"
					},
					"t_bytes32": {
						"encoding": "inplace",
						"label": "bytes32",
						"numberOfBytes": "32"
					},
					"t_mapping(t_uint256,t_bytes32)": {
						"encoding": "mapping",
						"key": "t_uint256",
						"label": "mapping(uint256 => bytes32)",
						"numberOfBytes": "32",
						"value": "t_bytes32"
					},
					"t_mapping(t_uint256,t_struct(DataUsage)46_storage)": {
						"encoding": "mapping",
						"key": "t_uint256",
						"label": "mapping(uint256 => struct DataUsageSmartContract.DataUsage)",
						"numberOfBytes": "32",
						"value": "t_struct(DataUsage)46_storage"
					},
					"t_mapping(t_uint256,t_struct(PersonalData)58_storage)": {
						"encoding": "mapping",
						"key": "t_uint256",
						"label": "mapping(uint256 => struct DataUsageSmartContract.PersonalData)",
						"numberOfBytes": "32",
						"value": "t_struct(PersonalData)58_storage"
					},
					"t_string_storage": {
						"encoding": "bytes",
						"label": "string",
						"numberOfBytes": "32"
					},
					"t_struct(DataUsage)46_storage": {
						"encoding": "inplace",
						"label": "struct DataUsageSmartContract.DataUsage",
						"members": [
							{
								"astId": 32,
								"contract": "contracts/DataUsageSmartContract.sol:DataUsageSmartContract",
								"label": "serviceName",
								"offset": 0,
								"slot": "0",
								"type": "t_string_storage"
							},
							{
								"astId": 34,
								"contract": "contracts/DataUsageSmartContract.sol:DataUsageSmartContract",
								"label": "servicePurpose",
								"offset": 0,
								"slot": "1",
								"type": "t_string_storage"
							},
							{
								"astId": 36,
								"contract": "contracts/DataUsageSmartContract.sol:DataUsageSmartContract",
								"label": "actorId",
								"offset": 0,
								"slot": "2",
								"type": "t_uint256"
							},
							{
								"astId": 39,
								"contract": "contracts/DataUsageSmartContract.sol:DataUsageSmartContract",
								"label": "operations",
								"offset": 0,
								"slot": "3",
								"type": "t_array(t_string_storage)dyn_storage"
							},
							{
								"astId": 42,
								"contract": "contracts/DataUsageSmartContract.sol:DataUsageSmartContract",
								"label": "personalDataIds",
								"offset": 0,
								"slot": "4",
								"type": "t_array(t_uint256)dyn_storage"
							},
							{
								"astId": 45,
								"contract": "contracts/DataUsageSmartContract.sol:DataUsageSmartContract",
								"label": "processedPersonalDatas",
								"offset": 0,
								"slot": "5",
								"type": "t_array(t_bytes32)dyn_storage"
							}
						],
						"numberOfBytes": "192"
					},
					"t_struct(PersonalData)58_storage": {
						"encoding": "inplace",
						"label": "struct DataUsageSmartContract.PersonalData",
						"members": [
							{
								"astId": 48,
								"contract": "contracts/DataUsageSmartContract.sol:DataUsageSmartContract",
								"label": "userId",
								"offset": 0,
								"slot": "0",
								"type": "t_uint256"
							},
							{
								"astId": 50,
								"contract": "contracts/DataUsageSmartContract.sol:DataUsageSmartContract",
								"label": "userName",
								"offset": 0,
								"slot": "1",
								"type": "t_string_storage"
							},
							{
								"astId": 52,
								"contract": "contracts/DataUsageSmartContract.sol:DataUsageSmartContract",
								"label": "userAddress",
								"offset": 0,
								"slot": "2",
								"type": "t_string_storage"
							},
							{
								"astId": 54,
								"contract": "contracts/DataUsageSmartContract.sol:DataUsageSmartContract",
								"label": "userTelephone",
								"offset": 0,
								"slot": "3",
								"type": "t_string_storage"
							},
							{
								"astId": 57,
								"contract": "contracts/DataUsageSmartContract.sol:DataUsageSmartContract",
								"label": "additionalInfos",
								"offset": 0,
								"slot": "4",
								"type": "t_array(t_string_storage)dyn_storage"
							}
						],
						"numberOfBytes": "160"
					},
					"t_uint256": {
						"encoding": "inplace",
						"label": "uint256",
						"numberOfBytes": "32"
					}
				}
			},
			"userdoc": {
				"kind": "user",
				"methods": {},
				"version": 1
			}
		}
	}
}