{
	"contracts/AgreementSmartContract.sol": {
		"AgreementSmartContract": {
			"abi": [
				{
					"inputs": [
						{
							"internalType": "address",
							"name": "_purposeBlockAddress",
							"type": "address"
						},
						{
							"internalType": "uint256",
							"name": "_userId",
							"type": "uint256"
						},
						{
							"internalType": "bool",
							"name": "_isConsented",
							"type": "bool"
						}
					],
					"name": "addConsent",
					"outputs": [],
					"stateMutability": "nonpayable",
					"type": "function"
				},
				{
					"inputs": [
						{
							"internalType": "uint256",
							"name": "_dataUsageId",
							"type": "uint256"
						}
					],
					"name": "getConsentByKey",
					"outputs": [
						{
							"components": [
								{
									"internalType": "address",
									"name": "purposeBlockAddress",
									"type": "address"
								},
								{
									"internalType": "uint256",
									"name": "userId",
									"type": "uint256"
								},
								{
									"internalType": "bool",
									"name": "isConsented",
									"type": "bool"
								}
							],
							"internalType": "struct AgreementSmartContract.Consent",
							"name": "",
							"type": "tuple"
						}
					],
					"stateMutability": "view",
					"type": "function"
				},
				{
					"inputs": [],
					"name": "getConsentCounter",
					"outputs": [
						{
							"internalType": "uint256",
							"name": "",
							"type": "uint256"
						}
					],
					"stateMutability": "view",
					"type": "function"
				},
				{
					"inputs": [],
					"name": "getConsentKeys",
					"outputs": [
						{
							"internalType": "uint256[]",
							"name": "",
							"type": "uint256[]"
						}
					],
					"stateMutability": "view",
					"type": "function"
				},
				{
					"inputs": [],
					"name": "owner",
					"outputs": [
						{
							"internalType": "address",
							"name": "",
							"type": "address"
						}
					],
					"stateMutability": "view",
					"type": "function"
				}
			],
			"devdoc": {
				"kind": "dev",
				"methods": {},
				"version": 1
			},
			"evm": {
				"assembly": "    /* \"contracts/AgreementSmartContract.sol\":128:1599  contract AgreementSmartContract is AccessControl {... */\n  mstore(0x40, 0x80)\n    /* \"contracts/AgreementSmartContract.sol\":708:709  0 */\n  0x00\n    /* \"contracts/AgreementSmartContract.sol\":677:709  uint private consentsCounter = 0 */\n  0x03\n  sstore\n    /* \"contracts/AgreementSmartContract.sol\":128:1599  contract AgreementSmartContract is AccessControl {... */\n  callvalue\n  dup1\n  iszero\n  tag_1\n  jumpi\n  0x00\n  dup1\n  revert\ntag_1:\n  pop\n    /* \"contracts/AccessControl.sol\":145:155  msg.sender */\n  caller\n    /* \"contracts/AccessControl.sol\":137:142  owner */\n  0x00\n  dup1\n    /* \"contracts/AccessControl.sol\":137:155  owner = msg.sender */\n  0x0100\n  exp\n  dup2\n  sload\n  dup2\n  0xffffffffffffffffffffffffffffffffffffffff\n  mul\n  not\n  and\n  swap1\n  dup4\n  0xffffffffffffffffffffffffffffffffffffffff\n  and\n  mul\n  or\n  swap1\n  sstore\n  pop\n    /* \"contracts/AgreementSmartContract.sol\":128:1599  contract AgreementSmartContract is AccessControl {... */\n  dataSize(sub_0)\n  dup1\n  dataOffset(sub_0)\n  0x00\n  codecopy\n  0x00\n  return\nstop\n\nsub_0: assembly {\n        /* \"contracts/AgreementSmartContract.sol\":128:1599  contract AgreementSmartContract is AccessControl {... */\n      mstore(0x40, 0x80)\n      callvalue\n      dup1\n      iszero\n      tag_1\n      jumpi\n      0x00\n      dup1\n      revert\n    tag_1:\n      pop\n      jumpi(tag_2, lt(calldatasize, 0x04))\n      shr(0xe0, calldataload(0x00))\n      dup1\n      0x8da5cb5b\n      eq\n      tag_3\n      jumpi\n      dup1\n      0x918950c7\n      eq\n      tag_4\n      jumpi\n      dup1\n      0xca994017\n      eq\n      tag_5\n      jumpi\n      dup1\n      0xe27a4b11\n      eq\n      tag_6\n      jumpi\n      dup1\n      0xe875b1ca\n      eq\n      tag_7\n      jumpi\n    tag_2:\n      0x00\n      dup1\n      revert\n        /* \"contracts/AccessControl.sol\":86:106  address public owner */\n    tag_3:\n      tag_8\n      tag_9\n      jump\t// in\n    tag_8:\n      mload(0x40)\n      tag_10\n      swap2\n      swap1\n      tag_11\n      jump\t// in\n    tag_10:\n      mload(0x40)\n      dup1\n      swap2\n      sub\n      swap1\n      return\n        /* \"contracts/AgreementSmartContract.sol\":1398:1493  function getConsentCounter() public view returns (uint) {... */\n    tag_4:\n      tag_12\n      tag_13\n      jump\t// in\n    tag_12:\n      mload(0x40)\n      tag_14\n      swap2\n      swap1\n      tag_15\n      jump\t// in\n    tag_14:\n      mload(0x40)\n      dup1\n      swap2\n      sub\n      swap1\n      return\n        /* \"contracts/AgreementSmartContract.sol\":790:1179  function addConsent(... */\n    tag_5:\n      tag_16\n      0x04\n      dup1\n      calldatasize\n      sub\n      dup2\n      add\n      swap1\n      tag_17\n      swap2\n      swap1\n      tag_18\n      jump\t// in\n    tag_17:\n      tag_19\n      jump\t// in\n    tag_16:\n      stop\n        /* \"contracts/AgreementSmartContract.sol\":1499:1596  function getConsentKeys() public view returns (uint[] memory) {... */\n    tag_6:\n      tag_20\n      tag_21\n      jump\t// in\n    tag_20:\n      mload(0x40)\n      tag_22\n      swap2\n      swap1\n      tag_23\n      jump\t// in\n    tag_22:\n      mload(0x40)\n      dup1\n      swap2\n      sub\n      swap1\n      return\n        /* \"contracts/AgreementSmartContract.sol\":1185:1392  function getConsentByKey(uint _dataUsageId) public view returns (Consent memory) {... */\n    tag_7:\n      tag_24\n      0x04\n      dup1\n      calldatasize\n      sub\n      dup2\n      add\n      swap1\n      tag_25\n      swap2\n      swap1\n      tag_26\n      jump\t// in\n    tag_25:\n      tag_27\n      jump\t// in\n    tag_24:\n      mload(0x40)\n      tag_28\n      swap2\n      swap1\n      tag_29\n      jump\t// in\n    tag_28:\n      mload(0x40)\n      dup1\n      swap2\n      sub\n      swap1\n      return\n        /* \"contracts/AccessControl.sol\":86:106  address public owner */\n    tag_9:\n      0x00\n      dup1\n      sload\n      swap1\n      0x0100\n      exp\n      swap1\n      div\n      0xffffffffffffffffffffffffffffffffffffffff\n      and\n      dup2\n      jump\t// out\n        /* \"contracts/AgreementSmartContract.sol\":1398:1493  function getConsentCounter() public view returns (uint) {... */\n    tag_13:\n        /* \"contracts/AgreementSmartContract.sol\":1448:1452  uint */\n      0x00\n        /* \"contracts/AgreementSmartContract.sol\":1471:1486  consentsCounter */\n      sload(0x03)\n        /* \"contracts/AgreementSmartContract.sol\":1464:1486  return consentsCounter */\n      swap1\n      pop\n        /* \"contracts/AgreementSmartContract.sol\":1398:1493  function getConsentCounter() public view returns (uint) {... */\n      swap1\n      jump\t// out\n        /* \"contracts/AgreementSmartContract.sol\":790:1179  function addConsent(... */\n    tag_19:\n        /* \"contracts/AccessControl.sol\":220:225  owner */\n      0x00\n      dup1\n      sload\n      swap1\n      0x0100\n      exp\n      swap1\n      div\n      0xffffffffffffffffffffffffffffffffffffffff\n      and\n        /* \"contracts/AccessControl.sol\":206:225  msg.sender == owner */\n      0xffffffffffffffffffffffffffffffffffffffff\n      and\n        /* \"contracts/AccessControl.sol\":206:216  msg.sender */\n      caller\n        /* \"contracts/AccessControl.sol\":206:225  msg.sender == owner */\n      0xffffffffffffffffffffffffffffffffffffffff\n      and\n      eq\n        /* \"contracts/AccessControl.sol\":198:280  require(msg.sender == owner, \"Only the contract owner can perform this operation\") */\n      tag_32\n      jumpi\n      mload(0x40)\n      0x08c379a000000000000000000000000000000000000000000000000000000000\n      dup2\n      mstore\n      0x04\n      add\n      tag_33\n      swap1\n      tag_34\n      jump\t// in\n    tag_33:\n      mload(0x40)\n      dup1\n      swap2\n      sub\n      swap1\n      revert\n    tag_32:\n        /* \"contracts/AgreementSmartContract.sol\":959:1101  Consent({... */\n      mload(0x40)\n      dup1\n      0x60\n      add\n      0x40\n      mstore\n      dup1\n        /* \"contracts/AgreementSmartContract.sol\":1002:1022  _purposeBlockAddress */\n      dup5\n        /* \"contracts/AgreementSmartContract.sol\":959:1101  Consent({... */\n      0xffffffffffffffffffffffffffffffffffffffff\n      and\n      dup2\n      mstore\n      0x20\n      add\n        /* \"contracts/AgreementSmartContract.sol\":1044:1051  _userId */\n      dup4\n        /* \"contracts/AgreementSmartContract.sol\":959:1101  Consent({... */\n      dup2\n      mstore\n      0x20\n      add\n        /* \"contracts/AgreementSmartContract.sol\":1078:1090  _isConsented */\n      dup3\n        /* \"contracts/AgreementSmartContract.sol\":959:1101  Consent({... */\n      iszero\n      iszero\n      dup2\n      mstore\n      pop\n        /* \"contracts/AgreementSmartContract.sol\":939:947  consents */\n      0x01\n        /* \"contracts/AgreementSmartContract.sol\":939:956  consents[_userId] */\n      0x00\n        /* \"contracts/AgreementSmartContract.sol\":948:955  _userId */\n      dup5\n        /* \"contracts/AgreementSmartContract.sol\":939:956  consents[_userId] */\n      dup2\n      mstore\n      0x20\n      add\n      swap1\n      dup2\n      mstore\n      0x20\n      add\n      0x00\n      keccak256\n        /* \"contracts/AgreementSmartContract.sol\":939:1101  consents[_userId] = Consent({... */\n      0x00\n      dup3\n      add\n      mload\n      dup2\n      0x00\n      add\n      exp(0x0100, 0x00)\n      dup2\n      sload\n      dup2\n      0xffffffffffffffffffffffffffffffffffffffff\n      mul\n      not\n      and\n      swap1\n      dup4\n      0xffffffffffffffffffffffffffffffffffffffff\n      and\n      mul\n      or\n      swap1\n      sstore\n      pop\n      0x20\n      dup3\n      add\n      mload\n      dup2\n      0x01\n      add\n      sstore\n      0x40\n      dup3\n      add\n      mload\n      dup2\n      0x02\n      add\n      exp(0x0100, 0x00)\n      dup2\n      sload\n      dup2\n      0xff\n      mul\n      not\n      and\n      swap1\n      dup4\n      iszero\n      iszero\n      mul\n      or\n      swap1\n      sstore\n      pop\n      swap1\n      pop\n      pop\n        /* \"contracts/AgreementSmartContract.sol\":1120:1131  consentKeys */\n      0x02\n        /* \"contracts/AgreementSmartContract.sol\":1137:1144  _userId */\n      dup3\n        /* \"contracts/AgreementSmartContract.sol\":1120:1145  consentKeys.push(_userId) */\n      swap1\n      dup1\n      0x01\n      dup2\n      sload\n      add\n      dup1\n      dup3\n      sstore\n      dup1\n      swap2\n      pop\n      pop\n      0x01\n      swap1\n      sub\n      swap1\n      0x00\n      mstore\n      keccak256(0x00, 0x20)\n      add\n      0x00\n      swap1\n      swap2\n      swap1\n      swap2\n      swap1\n      swap2\n      pop\n      sstore\n        /* \"contracts/AgreementSmartContract.sol\":1155:1170  consentsCounter */\n      0x03\n      0x00\n        /* \"contracts/AgreementSmartContract.sol\":1155:1172  consentsCounter++ */\n      dup2\n      sload\n      dup1\n      swap3\n      swap2\n      swap1\n      tag_37\n      swap1\n      tag_38\n      jump\t// in\n    tag_37:\n      swap2\n      swap1\n      pop\n      sstore\n      pop\n        /* \"contracts/AgreementSmartContract.sol\":790:1179  function addConsent(... */\n      pop\n      pop\n      pop\n      jump\t// out\n        /* \"contracts/AgreementSmartContract.sol\":1499:1596  function getConsentKeys() public view returns (uint[] memory) {... */\n    tag_21:\n        /* \"contracts/AgreementSmartContract.sol\":1546:1559  uint[] memory */\n      0x60\n        /* \"contracts/AgreementSmartContract.sol\":1578:1589  consentKeys */\n      0x02\n        /* \"contracts/AgreementSmartContract.sol\":1571:1589  return consentKeys */\n      dup1\n      sload\n      dup1\n      0x20\n      mul\n      0x20\n      add\n      mload(0x40)\n      swap1\n      dup2\n      add\n      0x40\n      mstore\n      dup1\n      swap3\n      swap2\n      swap1\n      dup2\n      dup2\n      mstore\n      0x20\n      add\n      dup3\n      dup1\n      sload\n      dup1\n      iszero\n      tag_40\n      jumpi\n      0x20\n      mul\n      dup3\n      add\n      swap2\n      swap1\n      0x00\n      mstore\n      keccak256(0x00, 0x20)\n      swap1\n    tag_41:\n      dup2\n      sload\n      dup2\n      mstore\n      0x20\n      add\n      swap1\n      0x01\n      add\n      swap1\n      dup1\n      dup4\n      gt\n      tag_41\n      jumpi\n    tag_40:\n      pop\n      pop\n      pop\n      pop\n      pop\n      swap1\n      pop\n        /* \"contracts/AgreementSmartContract.sol\":1499:1596  function getConsentKeys() public view returns (uint[] memory) {... */\n      swap1\n      jump\t// out\n        /* \"contracts/AgreementSmartContract.sol\":1185:1392  function getConsentByKey(uint _dataUsageId) public view returns (Consent memory) {... */\n    tag_27:\n        /* \"contracts/AgreementSmartContract.sol\":1250:1264  Consent memory */\n      tag_42\n      tag_43\n      jump\t// in\n    tag_42:\n        /* \"contracts/AgreementSmartContract.sol\":1317:1318  0 */\n      0x00\n        /* \"contracts/AgreementSmartContract.sol\":1284:1292  consents */\n      0x01\n        /* \"contracts/AgreementSmartContract.sol\":1284:1306  consents[_dataUsageId] */\n      0x00\n        /* \"contracts/AgreementSmartContract.sol\":1293:1305  _dataUsageId */\n      dup5\n        /* \"contracts/AgreementSmartContract.sol\":1284:1306  consents[_dataUsageId] */\n      dup2\n      mstore\n      0x20\n      add\n      swap1\n      dup2\n      mstore\n      0x20\n      add\n      0x00\n      keccak256\n        /* \"contracts/AgreementSmartContract.sol\":1284:1313  consents[_dataUsageId].userId */\n      0x01\n      add\n      sload\n        /* \"contracts/AgreementSmartContract.sol\":1284:1318  consents[_dataUsageId].userId != 0 */\n      sub\n        /* \"contracts/AgreementSmartContract.sol\":1276:1346  require(consents[_dataUsageId].userId != 0, \"Consent does not exist.\") */\n      tag_45\n      jumpi\n      mload(0x40)\n      0x08c379a000000000000000000000000000000000000000000000000000000000\n      dup2\n      mstore\n      0x04\n      add\n      tag_46\n      swap1\n      tag_47\n      jump\t// in\n    tag_46:\n      mload(0x40)\n      dup1\n      swap2\n      sub\n      swap1\n      revert\n    tag_45:\n        /* \"contracts/AgreementSmartContract.sol\":1363:1371  consents */\n      0x01\n        /* \"contracts/AgreementSmartContract.sol\":1363:1385  consents[_dataUsageId] */\n      0x00\n        /* \"contracts/AgreementSmartContract.sol\":1372:1384  _dataUsageId */\n      dup4\n        /* \"contracts/AgreementSmartContract.sol\":1363:1385  consents[_dataUsageId] */\n      dup2\n      mstore\n      0x20\n      add\n      swap1\n      dup2\n      mstore\n      0x20\n      add\n      0x00\n      keccak256\n        /* \"contracts/AgreementSmartContract.sol\":1356:1385  return consents[_dataUsageId] */\n      mload(0x40)\n      dup1\n      0x60\n      add\n      0x40\n      mstore\n      swap1\n      dup2\n      0x00\n      dup3\n      add\n      0x00\n      swap1\n      sload\n      swap1\n      0x0100\n      exp\n      swap1\n      div\n      0xffffffffffffffffffffffffffffffffffffffff\n      and\n      0xffffffffffffffffffffffffffffffffffffffff\n      and\n      0xffffffffffffffffffffffffffffffffffffffff\n      and\n      dup2\n      mstore\n      0x20\n      add\n      0x01\n      dup3\n      add\n      sload\n      dup2\n      mstore\n      0x20\n      add\n      0x02\n      dup3\n      add\n      0x00\n      swap1\n      sload\n      swap1\n      0x0100\n      exp\n      swap1\n      div\n      0xff\n      and\n      iszero\n      iszero\n      iszero\n      iszero\n      dup2\n      mstore\n      pop\n      pop\n      swap1\n      pop\n        /* \"contracts/AgreementSmartContract.sol\":1185:1392  function getConsentByKey(uint _dataUsageId) public view returns (Consent memory) {... */\n      swap2\n      swap1\n      pop\n      jump\t// out\n    tag_43:\n      mload(0x40)\n      dup1\n      0x60\n      add\n      0x40\n      mstore\n      dup1\n      and(0xffffffffffffffffffffffffffffffffffffffff, 0x00)\n      dup2\n      mstore\n      0x20\n      add\n      0x00\n      dup2\n      mstore\n      0x20\n      add\n      iszero(iszero(0x00))\n      dup2\n      mstore\n      pop\n      swap1\n      jump\t// out\n        /* \"#utility.yul\":7:133   */\n    tag_48:\n        /* \"#utility.yul\":44:51   */\n      0x00\n        /* \"#utility.yul\":84:126   */\n      0xffffffffffffffffffffffffffffffffffffffff\n        /* \"#utility.yul\":77:82   */\n      dup3\n        /* \"#utility.yul\":73:127   */\n      and\n        /* \"#utility.yul\":62:127   */\n      swap1\n      pop\n        /* \"#utility.yul\":7:133   */\n      swap2\n      swap1\n      pop\n      jump\t// out\n        /* \"#utility.yul\":139:235   */\n    tag_49:\n        /* \"#utility.yul\":176:183   */\n      0x00\n        /* \"#utility.yul\":205:229   */\n      tag_82\n        /* \"#utility.yul\":223:228   */\n      dup3\n        /* \"#utility.yul\":205:229   */\n      tag_48\n      jump\t// in\n    tag_82:\n        /* \"#utility.yul\":194:229   */\n      swap1\n      pop\n        /* \"#utility.yul\":139:235   */\n      swap2\n      swap1\n      pop\n      jump\t// out\n        /* \"#utility.yul\":241:359   */\n    tag_50:\n        /* \"#utility.yul\":328:352   */\n      tag_84\n        /* \"#utility.yul\":346:351   */\n      dup2\n        /* \"#utility.yul\":328:352   */\n      tag_49\n      jump\t// in\n    tag_84:\n        /* \"#utility.yul\":323:326   */\n      dup3\n        /* \"#utility.yul\":316:353   */\n      mstore\n        /* \"#utility.yul\":241:359   */\n      pop\n      pop\n      jump\t// out\n        /* \"#utility.yul\":365:587   */\n    tag_11:\n        /* \"#utility.yul\":458:462   */\n      0x00\n        /* \"#utility.yul\":496:498   */\n      0x20\n        /* \"#utility.yul\":485:494   */\n      dup3\n        /* \"#utility.yul\":481:499   */\n      add\n        /* \"#utility.yul\":473:499   */\n      swap1\n      pop\n        /* \"#utility.yul\":509:580   */\n      tag_86\n        /* \"#utility.yul\":577:578   */\n      0x00\n        /* \"#utility.yul\":566:575   */\n      dup4\n        /* \"#utility.yul\":562:579   */\n      add\n        /* \"#utility.yul\":553:559   */\n      dup5\n        /* \"#utility.yul\":509:580   */\n      tag_50\n      jump\t// in\n    tag_86:\n        /* \"#utility.yul\":365:587   */\n      swap3\n      swap2\n      pop\n      pop\n      jump\t// out\n        /* \"#utility.yul\":593:670   */\n    tag_51:\n        /* \"#utility.yul\":630:637   */\n      0x00\n        /* \"#utility.yul\":659:664   */\n      dup2\n        /* \"#utility.yul\":648:664   */\n      swap1\n      pop\n        /* \"#utility.yul\":593:670   */\n      swap2\n      swap1\n      pop\n      jump\t// out\n        /* \"#utility.yul\":676:794   */\n    tag_52:\n        /* \"#utility.yul\":763:787   */\n      tag_89\n        /* \"#utility.yul\":781:786   */\n      dup2\n        /* \"#utility.yul\":763:787   */\n      tag_51\n      jump\t// in\n    tag_89:\n        /* \"#utility.yul\":758:761   */\n      dup3\n        /* \"#utility.yul\":751:788   */\n      mstore\n        /* \"#utility.yul\":676:794   */\n      pop\n      pop\n      jump\t// out\n        /* \"#utility.yul\":800:1022   */\n    tag_15:\n        /* \"#utility.yul\":893:897   */\n      0x00\n        /* \"#utility.yul\":931:933   */\n      0x20\n        /* \"#utility.yul\":920:929   */\n      dup3\n        /* \"#utility.yul\":916:934   */\n      add\n        /* \"#utility.yul\":908:934   */\n      swap1\n      pop\n        /* \"#utility.yul\":944:1015   */\n      tag_91\n        /* \"#utility.yul\":1012:1013   */\n      0x00\n        /* \"#utility.yul\":1001:1010   */\n      dup4\n        /* \"#utility.yul\":997:1014   */\n      add\n        /* \"#utility.yul\":988:994   */\n      dup5\n        /* \"#utility.yul\":944:1015   */\n      tag_52\n      jump\t// in\n    tag_91:\n        /* \"#utility.yul\":800:1022   */\n      swap3\n      swap2\n      pop\n      pop\n      jump\t// out\n        /* \"#utility.yul\":1109:1226   */\n    tag_54:\n        /* \"#utility.yul\":1218:1219   */\n      0x00\n        /* \"#utility.yul\":1215:1216   */\n      dup1\n        /* \"#utility.yul\":1208:1220   */\n      revert\n        /* \"#utility.yul\":1355:1477   */\n    tag_56:\n        /* \"#utility.yul\":1428:1452   */\n      tag_96\n        /* \"#utility.yul\":1446:1451   */\n      dup2\n        /* \"#utility.yul\":1428:1452   */\n      tag_49\n      jump\t// in\n    tag_96:\n        /* \"#utility.yul\":1421:1426   */\n      dup2\n        /* \"#utility.yul\":1418:1453   */\n      eq\n        /* \"#utility.yul\":1408:1471   */\n      tag_97\n      jumpi\n        /* \"#utility.yul\":1467:1468   */\n      0x00\n        /* \"#utility.yul\":1464:1465   */\n      dup1\n        /* \"#utility.yul\":1457:1469   */\n      revert\n        /* \"#utility.yul\":1408:1471   */\n    tag_97:\n        /* \"#utility.yul\":1355:1477   */\n      pop\n      jump\t// out\n        /* \"#utility.yul\":1483:1622   */\n    tag_57:\n        /* \"#utility.yul\":1529:1534   */\n      0x00\n        /* \"#utility.yul\":1567:1573   */\n      dup2\n        /* \"#utility.yul\":1554:1574   */\n      calldataload\n        /* \"#utility.yul\":1545:1574   */\n      swap1\n      pop\n        /* \"#utility.yul\":1583:1616   */\n      tag_99\n        /* \"#utility.yul\":1610:1615   */\n      dup2\n        /* \"#utility.yul\":1583:1616   */\n      tag_56\n      jump\t// in\n    tag_99:\n        /* \"#utility.yul\":1483:1622   */\n      swap3\n      swap2\n      pop\n      pop\n      jump\t// out\n        /* \"#utility.yul\":1628:1750   */\n    tag_58:\n        /* \"#utility.yul\":1701:1725   */\n      tag_101\n        /* \"#utility.yul\":1719:1724   */\n      dup2\n        /* \"#utility.yul\":1701:1725   */\n      tag_51\n      jump\t// in\n    tag_101:\n        /* \"#utility.yul\":1694:1699   */\n      dup2\n        /* \"#utility.yul\":1691:1726   */\n      eq\n        /* \"#utility.yul\":1681:1744   */\n      tag_102\n      jumpi\n        /* \"#utility.yul\":1740:1741   */\n      0x00\n        /* \"#utility.yul\":1737:1738   */\n      dup1\n        /* \"#utility.yul\":1730:1742   */\n      revert\n        /* \"#utility.yul\":1681:1744   */\n    tag_102:\n        /* \"#utility.yul\":1628:1750   */\n      pop\n      jump\t// out\n        /* \"#utility.yul\":1756:1895   */\n    tag_59:\n        /* \"#utility.yul\":1802:1807   */\n      0x00\n        /* \"#utility.yul\":1840:1846   */\n      dup2\n        /* \"#utility.yul\":1827:1847   */\n      calldataload\n        /* \"#utility.yul\":1818:1847   */\n      swap1\n      pop\n        /* \"#utility.yul\":1856:1889   */\n      tag_104\n        /* \"#utility.yul\":1883:1888   */\n      dup2\n        /* \"#utility.yul\":1856:1889   */\n      tag_58\n      jump\t// in\n    tag_104:\n        /* \"#utility.yul\":1756:1895   */\n      swap3\n      swap2\n      pop\n      pop\n      jump\t// out\n        /* \"#utility.yul\":1901:1991   */\n    tag_60:\n        /* \"#utility.yul\":1935:1942   */\n      0x00\n        /* \"#utility.yul\":1978:1983   */\n      dup2\n        /* \"#utility.yul\":1971:1984   */\n      iszero\n        /* \"#utility.yul\":1964:1985   */\n      iszero\n        /* \"#utility.yul\":1953:1985   */\n      swap1\n      pop\n        /* \"#utility.yul\":1901:1991   */\n      swap2\n      swap1\n      pop\n      jump\t// out\n        /* \"#utility.yul\":1997:2113   */\n    tag_61:\n        /* \"#utility.yul\":2067:2088   */\n      tag_107\n        /* \"#utility.yul\":2082:2087   */\n      dup2\n        /* \"#utility.yul\":2067:2088   */\n      tag_60\n      jump\t// in\n    tag_107:\n        /* \"#utility.yul\":2060:2065   */\n      dup2\n        /* \"#utility.yul\":2057:2089   */\n      eq\n        /* \"#utility.yul\":2047:2107   */\n      tag_108\n      jumpi\n        /* \"#utility.yul\":2103:2104   */\n      0x00\n        /* \"#utility.yul\":2100:2101   */\n      dup1\n        /* \"#utility.yul\":2093:2105   */\n      revert\n        /* \"#utility.yul\":2047:2107   */\n    tag_108:\n        /* \"#utility.yul\":1997:2113   */\n      pop\n      jump\t// out\n        /* \"#utility.yul\":2119:2252   */\n    tag_62:\n        /* \"#utility.yul\":2162:2167   */\n      0x00\n        /* \"#utility.yul\":2200:2206   */\n      dup2\n        /* \"#utility.yul\":2187:2207   */\n      calldataload\n        /* \"#utility.yul\":2178:2207   */\n      swap1\n      pop\n        /* \"#utility.yul\":2216:2246   */\n      tag_110\n        /* \"#utility.yul\":2240:2245   */\n      dup2\n        /* \"#utility.yul\":2216:2246   */\n      tag_61\n      jump\t// in\n    tag_110:\n        /* \"#utility.yul\":2119:2252   */\n      swap3\n      swap2\n      pop\n      pop\n      jump\t// out\n        /* \"#utility.yul\":2258:2871   */\n    tag_18:\n        /* \"#utility.yul\":2332:2338   */\n      0x00\n        /* \"#utility.yul\":2340:2346   */\n      dup1\n        /* \"#utility.yul\":2348:2354   */\n      0x00\n        /* \"#utility.yul\":2397:2399   */\n      0x60\n        /* \"#utility.yul\":2385:2394   */\n      dup5\n        /* \"#utility.yul\":2376:2383   */\n      dup7\n        /* \"#utility.yul\":2372:2395   */\n      sub\n        /* \"#utility.yul\":2368:2400   */\n      slt\n        /* \"#utility.yul\":2365:2484   */\n      iszero\n      tag_112\n      jumpi\n        /* \"#utility.yul\":2403:2482   */\n      tag_113\n      tag_54\n      jump\t// in\n    tag_113:\n        /* \"#utility.yul\":2365:2484   */\n    tag_112:\n        /* \"#utility.yul\":2523:2524   */\n      0x00\n        /* \"#utility.yul\":2548:2601   */\n      tag_114\n        /* \"#utility.yul\":2593:2600   */\n      dup7\n        /* \"#utility.yul\":2584:2590   */\n      dup3\n        /* \"#utility.yul\":2573:2582   */\n      dup8\n        /* \"#utility.yul\":2569:2591   */\n      add\n        /* \"#utility.yul\":2548:2601   */\n      tag_57\n      jump\t// in\n    tag_114:\n        /* \"#utility.yul\":2538:2601   */\n      swap4\n      pop\n        /* \"#utility.yul\":2494:2611   */\n      pop\n        /* \"#utility.yul\":2650:2652   */\n      0x20\n        /* \"#utility.yul\":2676:2729   */\n      tag_115\n        /* \"#utility.yul\":2721:2728   */\n      dup7\n        /* \"#utility.yul\":2712:2718   */\n      dup3\n        /* \"#utility.yul\":2701:2710   */\n      dup8\n        /* \"#utility.yul\":2697:2719   */\n      add\n        /* \"#utility.yul\":2676:2729   */\n      tag_59\n      jump\t// in\n    tag_115:\n        /* \"#utility.yul\":2666:2729   */\n      swap3\n      pop\n        /* \"#utility.yul\":2621:2739   */\n      pop\n        /* \"#utility.yul\":2778:2780   */\n      0x40\n        /* \"#utility.yul\":2804:2854   */\n      tag_116\n        /* \"#utility.yul\":2846:2853   */\n      dup7\n        /* \"#utility.yul\":2837:2843   */\n      dup3\n        /* \"#utility.yul\":2826:2835   */\n      dup8\n        /* \"#utility.yul\":2822:2844   */\n      add\n        /* \"#utility.yul\":2804:2854   */\n      tag_62\n      jump\t// in\n    tag_116:\n        /* \"#utility.yul\":2794:2854   */\n      swap2\n      pop\n        /* \"#utility.yul\":2749:2864   */\n      pop\n        /* \"#utility.yul\":2258:2871   */\n      swap3\n      pop\n      swap3\n      pop\n      swap3\n      jump\t// out\n        /* \"#utility.yul\":2877:2991   */\n    tag_63:\n        /* \"#utility.yul\":2944:2950   */\n      0x00\n        /* \"#utility.yul\":2978:2983   */\n      dup2\n        /* \"#utility.yul\":2972:2984   */\n      mload\n        /* \"#utility.yul\":2962:2984   */\n      swap1\n      pop\n        /* \"#utility.yul\":2877:2991   */\n      swap2\n      swap1\n      pop\n      jump\t// out\n        /* \"#utility.yul\":2997:3181   */\n    tag_64:\n        /* \"#utility.yul\":3096:3107   */\n      0x00\n        /* \"#utility.yul\":3130:3136   */\n      dup3\n        /* \"#utility.yul\":3125:3128   */\n      dup3\n        /* \"#utility.yul\":3118:3137   */\n      mstore\n        /* \"#utility.yul\":3170:3174   */\n      0x20\n        /* \"#utility.yul\":3165:3168   */\n      dup3\n        /* \"#utility.yul\":3161:3175   */\n      add\n        /* \"#utility.yul\":3146:3175   */\n      swap1\n      pop\n        /* \"#utility.yul\":2997:3181   */\n      swap3\n      swap2\n      pop\n      pop\n      jump\t// out\n        /* \"#utility.yul\":3187:3319   */\n    tag_65:\n        /* \"#utility.yul\":3254:3258   */\n      0x00\n        /* \"#utility.yul\":3277:3280   */\n      dup2\n        /* \"#utility.yul\":3269:3280   */\n      swap1\n      pop\n        /* \"#utility.yul\":3307:3311   */\n      0x20\n        /* \"#utility.yul\":3302:3305   */\n      dup3\n        /* \"#utility.yul\":3298:3312   */\n      add\n        /* \"#utility.yul\":3290:3312   */\n      swap1\n      pop\n        /* \"#utility.yul\":3187:3319   */\n      swap2\n      swap1\n      pop\n      jump\t// out\n        /* \"#utility.yul\":3325:3433   */\n    tag_66:\n        /* \"#utility.yul\":3402:3426   */\n      tag_121\n        /* \"#utility.yul\":3420:3425   */\n      dup2\n        /* \"#utility.yul\":3402:3426   */\n      tag_51\n      jump\t// in\n    tag_121:\n        /* \"#utility.yul\":3397:3400   */\n      dup3\n        /* \"#utility.yul\":3390:3427   */\n      mstore\n        /* \"#utility.yul\":3325:3433   */\n      pop\n      pop\n      jump\t// out\n        /* \"#utility.yul\":3439:3618   */\n    tag_67:\n        /* \"#utility.yul\":3508:3518   */\n      0x00\n        /* \"#utility.yul\":3529:3575   */\n      tag_123\n        /* \"#utility.yul\":3571:3574   */\n      dup4\n        /* \"#utility.yul\":3563:3569   */\n      dup4\n        /* \"#utility.yul\":3529:3575   */\n      tag_66\n      jump\t// in\n    tag_123:\n        /* \"#utility.yul\":3607:3611   */\n      0x20\n        /* \"#utility.yul\":3602:3605   */\n      dup4\n        /* \"#utility.yul\":3598:3612   */\n      add\n        /* \"#utility.yul\":3584:3612   */\n      swap1\n      pop\n        /* \"#utility.yul\":3439:3618   */\n      swap3\n      swap2\n      pop\n      pop\n      jump\t// out\n        /* \"#utility.yul\":3624:3737   */\n    tag_68:\n        /* \"#utility.yul\":3694:3698   */\n      0x00\n        /* \"#utility.yul\":3726:3730   */\n      0x20\n        /* \"#utility.yul\":3721:3724   */\n      dup3\n        /* \"#utility.yul\":3717:3731   */\n      add\n        /* \"#utility.yul\":3709:3731   */\n      swap1\n      pop\n        /* \"#utility.yul\":3624:3737   */\n      swap2\n      swap1\n      pop\n      jump\t// out\n        /* \"#utility.yul\":3773:4505   */\n    tag_69:\n        /* \"#utility.yul\":3892:3895   */\n      0x00\n        /* \"#utility.yul\":3921:3975   */\n      tag_126\n        /* \"#utility.yul\":3969:3974   */\n      dup3\n        /* \"#utility.yul\":3921:3975   */\n      tag_63\n      jump\t// in\n    tag_126:\n        /* \"#utility.yul\":3991:4077   */\n      tag_127\n        /* \"#utility.yul\":4070:4076   */\n      dup2\n        /* \"#utility.yul\":4065:4068   */\n      dup6\n        /* \"#utility.yul\":3991:4077   */\n      tag_64\n      jump\t// in\n    tag_127:\n        /* \"#utility.yul\":3984:4077   */\n      swap4\n      pop\n        /* \"#utility.yul\":4101:4157   */\n      tag_128\n        /* \"#utility.yul\":4151:4156   */\n      dup4\n        /* \"#utility.yul\":4101:4157   */\n      tag_65\n      jump\t// in\n    tag_128:\n        /* \"#utility.yul\":4180:4187   */\n      dup1\n        /* \"#utility.yul\":4211:4212   */\n      0x00\n        /* \"#utility.yul\":4196:4480   */\n    tag_129:\n        /* \"#utility.yul\":4221:4227   */\n      dup4\n        /* \"#utility.yul\":4218:4219   */\n      dup2\n        /* \"#utility.yul\":4215:4228   */\n      lt\n        /* \"#utility.yul\":4196:4480   */\n      iszero\n      tag_131\n      jumpi\n        /* \"#utility.yul\":4297:4303   */\n      dup2\n        /* \"#utility.yul\":4291:4304   */\n      mload\n        /* \"#utility.yul\":4324:4387   */\n      tag_132\n        /* \"#utility.yul\":4383:4386   */\n      dup9\n        /* \"#utility.yul\":4368:4381   */\n      dup3\n        /* \"#utility.yul\":4324:4387   */\n      tag_67\n      jump\t// in\n    tag_132:\n        /* \"#utility.yul\":4317:4387   */\n      swap8\n      pop\n        /* \"#utility.yul\":4410:4470   */\n      tag_133\n        /* \"#utility.yul\":4463:4469   */\n      dup4\n        /* \"#utility.yul\":4410:4470   */\n      tag_68\n      jump\t// in\n    tag_133:\n        /* \"#utility.yul\":4400:4470   */\n      swap3\n      pop\n        /* \"#utility.yul\":4256:4480   */\n      pop\n        /* \"#utility.yul\":4243:4244   */\n      0x01\n        /* \"#utility.yul\":4240:4241   */\n      dup2\n        /* \"#utility.yul\":4236:4245   */\n      add\n        /* \"#utility.yul\":4231:4245   */\n      swap1\n      pop\n        /* \"#utility.yul\":4196:4480   */\n      jump(tag_129)\n    tag_131:\n        /* \"#utility.yul\":4200:4214   */\n      pop\n        /* \"#utility.yul\":4496:4499   */\n      dup6\n        /* \"#utility.yul\":4489:4499   */\n      swap4\n      pop\n        /* \"#utility.yul\":3897:4505   */\n      pop\n      pop\n      pop\n        /* \"#utility.yul\":3773:4505   */\n      swap3\n      swap2\n      pop\n      pop\n      jump\t// out\n        /* \"#utility.yul\":4511:4884   */\n    tag_23:\n        /* \"#utility.yul\":4654:4658   */\n      0x00\n        /* \"#utility.yul\":4692:4694   */\n      0x20\n        /* \"#utility.yul\":4681:4690   */\n      dup3\n        /* \"#utility.yul\":4677:4695   */\n      add\n        /* \"#utility.yul\":4669:4695   */\n      swap1\n      pop\n        /* \"#utility.yul\":4741:4750   */\n      dup2\n        /* \"#utility.yul\":4735:4739   */\n      dup2\n        /* \"#utility.yul\":4731:4751   */\n      sub\n        /* \"#utility.yul\":4727:4728   */\n      0x00\n        /* \"#utility.yul\":4716:4725   */\n      dup4\n        /* \"#utility.yul\":4712:4729   */\n      add\n        /* \"#utility.yul\":4705:4752   */\n      mstore\n        /* \"#utility.yul\":4769:4877   */\n      tag_135\n        /* \"#utility.yul\":4872:4876   */\n      dup2\n        /* \"#utility.yul\":4863:4869   */\n      dup5\n        /* \"#utility.yul\":4769:4877   */\n      tag_69\n      jump\t// in\n    tag_135:\n        /* \"#utility.yul\":4761:4877   */\n      swap1\n      pop\n        /* \"#utility.yul\":4511:4884   */\n      swap3\n      swap2\n      pop\n      pop\n      jump\t// out\n        /* \"#utility.yul\":4890:5219   */\n    tag_26:\n        /* \"#utility.yul\":4949:4955   */\n      0x00\n        /* \"#utility.yul\":4998:5000   */\n      0x20\n        /* \"#utility.yul\":4986:4995   */\n      dup3\n        /* \"#utility.yul\":4977:4984   */\n      dup5\n        /* \"#utility.yul\":4973:4996   */\n      sub\n        /* \"#utility.yul\":4969:5001   */\n      slt\n        /* \"#utility.yul\":4966:5085   */\n      iszero\n      tag_137\n      jumpi\n        /* \"#utility.yul\":5004:5083   */\n      tag_138\n      tag_54\n      jump\t// in\n    tag_138:\n        /* \"#utility.yul\":4966:5085   */\n    tag_137:\n        /* \"#utility.yul\":5124:5125   */\n      0x00\n        /* \"#utility.yul\":5149:5202   */\n      tag_139\n        /* \"#utility.yul\":5194:5201   */\n      dup5\n        /* \"#utility.yul\":5185:5191   */\n      dup3\n        /* \"#utility.yul\":5174:5183   */\n      dup6\n        /* \"#utility.yul\":5170:5192   */\n      add\n        /* \"#utility.yul\":5149:5202   */\n      tag_59\n      jump\t// in\n    tag_139:\n        /* \"#utility.yul\":5139:5202   */\n      swap2\n      pop\n        /* \"#utility.yul\":5095:5212   */\n      pop\n        /* \"#utility.yul\":4890:5219   */\n      swap3\n      swap2\n      pop\n      pop\n      jump\t// out\n        /* \"#utility.yul\":5225:5333   */\n    tag_70:\n        /* \"#utility.yul\":5302:5326   */\n      tag_141\n        /* \"#utility.yul\":5320:5325   */\n      dup2\n        /* \"#utility.yul\":5302:5326   */\n      tag_49\n      jump\t// in\n    tag_141:\n        /* \"#utility.yul\":5297:5300   */\n      dup3\n        /* \"#utility.yul\":5290:5327   */\n      mstore\n        /* \"#utility.yul\":5225:5333   */\n      pop\n      pop\n      jump\t// out\n        /* \"#utility.yul\":5339:5438   */\n    tag_71:\n        /* \"#utility.yul\":5410:5431   */\n      tag_143\n        /* \"#utility.yul\":5425:5430   */\n      dup2\n        /* \"#utility.yul\":5410:5431   */\n      tag_60\n      jump\t// in\n    tag_143:\n        /* \"#utility.yul\":5405:5408   */\n      dup3\n        /* \"#utility.yul\":5398:5432   */\n      mstore\n        /* \"#utility.yul\":5339:5438   */\n      pop\n      pop\n      jump\t// out\n        /* \"#utility.yul\":5530:6225   */\n    tag_72:\n        /* \"#utility.yul\":5673:5677   */\n      0x60\n        /* \"#utility.yul\":5668:5671   */\n      dup3\n        /* \"#utility.yul\":5664:5678   */\n      add\n        /* \"#utility.yul\":5775:5779   */\n      0x00\n        /* \"#utility.yul\":5768:5773   */\n      dup3\n        /* \"#utility.yul\":5764:5780   */\n      add\n        /* \"#utility.yul\":5758:5781   */\n      mload\n        /* \"#utility.yul\":5794:5857   */\n      tag_145\n        /* \"#utility.yul\":5851:5855   */\n      0x00\n        /* \"#utility.yul\":5846:5849   */\n      dup6\n        /* \"#utility.yul\":5842:5856   */\n      add\n        /* \"#utility.yul\":5828:5840   */\n      dup3\n        /* \"#utility.yul\":5794:5857   */\n      tag_70\n      jump\t// in\n    tag_145:\n        /* \"#utility.yul\":5688:5867   */\n      pop\n        /* \"#utility.yul\":5951:5955   */\n      0x20\n        /* \"#utility.yul\":5944:5949   */\n      dup3\n        /* \"#utility.yul\":5940:5956   */\n      add\n        /* \"#utility.yul\":5934:5957   */\n      mload\n        /* \"#utility.yul\":5970:6033   */\n      tag_146\n        /* \"#utility.yul\":6027:6031   */\n      0x20\n        /* \"#utility.yul\":6022:6025   */\n      dup6\n        /* \"#utility.yul\":6018:6032   */\n      add\n        /* \"#utility.yul\":6004:6016   */\n      dup3\n        /* \"#utility.yul\":5970:6033   */\n      tag_66\n      jump\t// in\n    tag_146:\n        /* \"#utility.yul\":5877:6043   */\n      pop\n        /* \"#utility.yul\":6132:6136   */\n      0x40\n        /* \"#utility.yul\":6125:6130   */\n      dup3\n        /* \"#utility.yul\":6121:6137   */\n      add\n        /* \"#utility.yul\":6115:6138   */\n      mload\n        /* \"#utility.yul\":6151:6208   */\n      tag_147\n        /* \"#utility.yul\":6202:6206   */\n      0x40\n        /* \"#utility.yul\":6197:6200   */\n      dup6\n        /* \"#utility.yul\":6193:6207   */\n      add\n        /* \"#utility.yul\":6179:6191   */\n      dup3\n        /* \"#utility.yul\":6151:6208   */\n      tag_71\n      jump\t// in\n    tag_147:\n        /* \"#utility.yul\":6053:6218   */\n      pop\n        /* \"#utility.yul\":5642:6225   */\n      pop\n        /* \"#utility.yul\":5530:6225   */\n      pop\n      pop\n      jump\t// out\n        /* \"#utility.yul\":6231:6545   */\n    tag_29:\n        /* \"#utility.yul\":6370:6374   */\n      0x00\n        /* \"#utility.yul\":6408:6410   */\n      0x60\n        /* \"#utility.yul\":6397:6406   */\n      dup3\n        /* \"#utility.yul\":6393:6411   */\n      add\n        /* \"#utility.yul\":6385:6411   */\n      swap1\n      pop\n        /* \"#utility.yul\":6421:6538   */\n      tag_149\n        /* \"#utility.yul\":6535:6536   */\n      0x00\n        /* \"#utility.yul\":6524:6533   */\n      dup4\n        /* \"#utility.yul\":6520:6537   */\n      add\n        /* \"#utility.yul\":6511:6517   */\n      dup5\n        /* \"#utility.yul\":6421:6538   */\n      tag_72\n      jump\t// in\n    tag_149:\n        /* \"#utility.yul\":6231:6545   */\n      swap3\n      swap2\n      pop\n      pop\n      jump\t// out\n        /* \"#utility.yul\":6551:6720   */\n    tag_73:\n        /* \"#utility.yul\":6635:6646   */\n      0x00\n        /* \"#utility.yul\":6669:6675   */\n      dup3\n        /* \"#utility.yul\":6664:6667   */\n      dup3\n        /* \"#utility.yul\":6657:6676   */\n      mstore\n        /* \"#utility.yul\":6709:6713   */\n      0x20\n        /* \"#utility.yul\":6704:6707   */\n      dup3\n        /* \"#utility.yul\":6700:6714   */\n      add\n        /* \"#utility.yul\":6685:6714   */\n      swap1\n      pop\n        /* \"#utility.yul\":6551:6720   */\n      swap3\n      swap2\n      pop\n      pop\n      jump\t// out\n        /* \"#utility.yul\":6726:6963   */\n    tag_74:\n        /* \"#utility.yul\":6866:6900   */\n      0x4f6e6c792074686520636f6e7472616374206f776e65722063616e2070657266\n        /* \"#utility.yul\":6862:6863   */\n      0x00\n        /* \"#utility.yul\":6854:6860   */\n      dup3\n        /* \"#utility.yul\":6850:6864   */\n      add\n        /* \"#utility.yul\":6843:6901   */\n      mstore\n        /* \"#utility.yul\":6935:6955   */\n      0x6f726d2074686973206f7065726174696f6e0000000000000000000000000000\n        /* \"#utility.yul\":6930:6932   */\n      0x20\n        /* \"#utility.yul\":6922:6928   */\n      dup3\n        /* \"#utility.yul\":6918:6933   */\n      add\n        /* \"#utility.yul\":6911:6956   */\n      mstore\n        /* \"#utility.yul\":6726:6963   */\n      pop\n      jump\t// out\n        /* \"#utility.yul\":6969:7335   */\n    tag_75:\n        /* \"#utility.yul\":7111:7114   */\n      0x00\n        /* \"#utility.yul\":7132:7199   */\n      tag_153\n        /* \"#utility.yul\":7196:7198   */\n      0x32\n        /* \"#utility.yul\":7191:7194   */\n      dup4\n        /* \"#utility.yul\":7132:7199   */\n      tag_73\n      jump\t// in\n    tag_153:\n        /* \"#utility.yul\":7125:7199   */\n      swap2\n      pop\n        /* \"#utility.yul\":7208:7301   */\n      tag_154\n        /* \"#utility.yul\":7297:7300   */\n      dup3\n        /* \"#utility.yul\":7208:7301   */\n      tag_74\n      jump\t// in\n    tag_154:\n        /* \"#utility.yul\":7326:7328   */\n      0x40\n        /* \"#utility.yul\":7321:7324   */\n      dup3\n        /* \"#utility.yul\":7317:7329   */\n      add\n        /* \"#utility.yul\":7310:7329   */\n      swap1\n      pop\n        /* \"#utility.yul\":6969:7335   */\n      swap2\n      swap1\n      pop\n      jump\t// out\n        /* \"#utility.yul\":7341:7760   */\n    tag_34:\n        /* \"#utility.yul\":7507:7511   */\n      0x00\n        /* \"#utility.yul\":7545:7547   */\n      0x20\n        /* \"#utility.yul\":7534:7543   */\n      dup3\n        /* \"#utility.yul\":7530:7548   */\n      add\n        /* \"#utility.yul\":7522:7548   */\n      swap1\n      pop\n        /* \"#utility.yul\":7594:7603   */\n      dup2\n        /* \"#utility.yul\":7588:7592   */\n      dup2\n        /* \"#utility.yul\":7584:7604   */\n      sub\n        /* \"#utility.yul\":7580:7581   */\n      0x00\n        /* \"#utility.yul\":7569:7578   */\n      dup4\n        /* \"#utility.yul\":7565:7582   */\n      add\n        /* \"#utility.yul\":7558:7605   */\n      mstore\n        /* \"#utility.yul\":7622:7753   */\n      tag_156\n        /* \"#utility.yul\":7748:7752   */\n      dup2\n        /* \"#utility.yul\":7622:7753   */\n      tag_75\n      jump\t// in\n    tag_156:\n        /* \"#utility.yul\":7614:7753   */\n      swap1\n      pop\n        /* \"#utility.yul\":7341:7760   */\n      swap2\n      swap1\n      pop\n      jump\t// out\n        /* \"#utility.yul\":7766:7946   */\n    tag_76:\n        /* \"#utility.yul\":7814:7891   */\n      0x4e487b7100000000000000000000000000000000000000000000000000000000\n        /* \"#utility.yul\":7811:7812   */\n      0x00\n        /* \"#utility.yul\":7804:7892   */\n      mstore\n        /* \"#utility.yul\":7911:7915   */\n      0x11\n        /* \"#utility.yul\":7908:7909   */\n      0x04\n        /* \"#utility.yul\":7901:7916   */\n      mstore\n        /* \"#utility.yul\":7935:7939   */\n      0x24\n        /* \"#utility.yul\":7932:7933   */\n      0x00\n        /* \"#utility.yul\":7925:7940   */\n      revert\n        /* \"#utility.yul\":7952:8185   */\n    tag_38:\n        /* \"#utility.yul\":7991:7994   */\n      0x00\n        /* \"#utility.yul\":8014:8038   */\n      tag_159\n        /* \"#utility.yul\":8032:8037   */\n      dup3\n        /* \"#utility.yul\":8014:8038   */\n      tag_51\n      jump\t// in\n    tag_159:\n        /* \"#utility.yul\":8005:8038   */\n      swap2\n      pop\n        /* \"#utility.yul\":8060:8126   */\n      0xffffffffffffffffffffffffffffffffffffffffffffffffffffffffffffffff\n        /* \"#utility.yul\":8053:8058   */\n      dup3\n        /* \"#utility.yul\":8050:8127   */\n      sub\n        /* \"#utility.yul\":8047:8150   */\n      tag_160\n      jumpi\n        /* \"#utility.yul\":8130:8148   */\n      tag_161\n      tag_76\n      jump\t// in\n    tag_161:\n        /* \"#utility.yul\":8047:8150   */\n    tag_160:\n        /* \"#utility.yul\":8177:8178   */\n      0x01\n        /* \"#utility.yul\":8170:8175   */\n      dup3\n        /* \"#utility.yul\":8166:8179   */\n      add\n        /* \"#utility.yul\":8159:8179   */\n      swap1\n      pop\n        /* \"#utility.yul\":7952:8185   */\n      swap2\n      swap1\n      pop\n      jump\t// out\n        /* \"#utility.yul\":8191:8364   */\n    tag_77:\n        /* \"#utility.yul\":8331:8356   */\n      0x436f6e73656e7420646f6573206e6f742065786973742e000000000000000000\n        /* \"#utility.yul\":8327:8328   */\n      0x00\n        /* \"#utility.yul\":8319:8325   */\n      dup3\n        /* \"#utility.yul\":8315:8329   */\n      add\n        /* \"#utility.yul\":8308:8357   */\n      mstore\n        /* \"#utility.yul\":8191:8364   */\n      pop\n      jump\t// out\n        /* \"#utility.yul\":8370:8736   */\n    tag_78:\n        /* \"#utility.yul\":8512:8515   */\n      0x00\n        /* \"#utility.yul\":8533:8600   */\n      tag_164\n        /* \"#utility.yul\":8597:8599   */\n      0x17\n        /* \"#utility.yul\":8592:8595   */\n      dup4\n        /* \"#utility.yul\":8533:8600   */\n      tag_73\n      jump\t// in\n    tag_164:\n        /* \"#utility.yul\":8526:8600   */\n      swap2\n      pop\n        /* \"#utility.yul\":8609:8702   */\n      tag_165\n        /* \"#utility.yul\":8698:8701   */\n      dup3\n        /* \"#utility.yul\":8609:8702   */\n      tag_77\n      jump\t// in\n    tag_165:\n        /* \"#utility.yul\":8727:8729   */\n      0x20\n        /* \"#utility.yul\":8722:8725   */\n      dup3\n        /* \"#utility.yul\":8718:8730   */\n      add\n        /* \"#utility.yul\":8711:8730   */\n      swap1\n      pop\n        /* \"#utility.yul\":8370:8736   */\n      swap2\n      swap1\n      pop\n      jump\t// out\n        /* \"#utility.yul\":8742:9161   */\n    tag_47:\n        /* \"#utility.yul\":8908:8912   */\n      0x00\n        /* \"#utility.yul\":8946:8948   */\n      0x20\n        /* \"#utility.yul\":8935:8944   */\n      dup3\n        /* \"#utility.yul\":8931:8949   */\n      add\n        /* \"#utility.yul\":8923:8949   */\n      swap1\n      pop\n        /* \"#utility.yul\":8995:9004   */\n      dup2\n        /* \"#utility.yul\":8989:8993   */\n      dup2\n        /* \"#utility.yul\":8985:9005   */\n      sub\n        /* \"#utility.yul\":8981:8982   */\n      0x00\n        /* \"#utility.yul\":8970:8979   */\n      dup4\n        /* \"#utility.yul\":8966:8983   */\n      add\n        /* \"#utility.yul\":8959:9006   */\n      mstore\n        /* \"#utility.yul\":9023:9154   */\n      tag_167\n        /* \"#utility.yul\":9149:9153   */\n      dup2\n        /* \"#utility.yul\":9023:9154   */\n      tag_78\n      jump\t// in\n    tag_167:\n        /* \"#utility.yul\":9015:9154   */\n      swap1\n      pop\n        /* \"#utility.yul\":8742:9161   */\n      swap2\n      swap1\n      pop\n      jump\t// out\n\n    auxdata: 0xa2646970667358221220082b7e297ba643d54c764fd137994f281ed0b6c85aba18ef365553a3d5ccbcf964736f6c63430008180033\n}\n",
				"bytecode": {
					"linkReferences": {},
					"object": "60806040525f600355348015610013575f80fd5b50335f806101000a81548173ffffffffffffffffffffffffffffffffffffffff021916908373ffffffffffffffffffffffffffffffffffffffff1602179055506108c2806100605f395ff3fe608060405234801561000f575f80fd5b5060043610610055575f3560e01c80638da5cb5b14610059578063918950c714610077578063ca99401714610095578063e27a4b11146100b1578063e875b1ca146100cf575b5f80fd5b6100616100ff565b60405161006e9190610472565b60405180910390f35b61007f610122565b60405161008c91906104a3565b60405180910390f35b6100af60048036038101906100aa9190610549565b61012b565b005b6100b96102ae565b6040516100c69190610650565b60405180910390f35b6100e960048036038101906100e49190610670565b610304565b6040516100f691906106f9565b60405180910390f35b5f8054906101000a900473ffffffffffffffffffffffffffffffffffffffff1681565b5f600354905090565b5f8054906101000a900473ffffffffffffffffffffffffffffffffffffffff1673ffffffffffffffffffffffffffffffffffffffff163373ffffffffffffffffffffffffffffffffffffffff16146101b8576040517f08c379a00000000000000000000000000000000000000000000000000000000081526004016101af90610792565b60405180910390fd5b60405180606001604052808473ffffffffffffffffffffffffffffffffffffffff16815260200183815260200182151581525060015f8481526020019081526020015f205f820151815f015f6101000a81548173ffffffffffffffffffffffffffffffffffffffff021916908373ffffffffffffffffffffffffffffffffffffffff160217905550602082015181600101556040820151816002015f6101000a81548160ff021916908315150217905550905050600282908060018154018082558091505060019003905f5260205f20015f909190919091505560035f8154809291906102a4906107dd565b9190505550505050565b606060028054806020026020016040519081016040528092919081815260200182805480156102fa57602002820191905f5260205f20905b8154815260200190600101908083116102e6575b5050505050905090565b61030c6103fd565b5f60015f8481526020019081526020015f206001015403610362576040517f08c379a00000000000000000000000000000000000000000000000000000000081526004016103599061086e565b60405180910390fd5b60015f8381526020019081526020015f206040518060600160405290815f82015f9054906101000a900473ffffffffffffffffffffffffffffffffffffffff1673ffffffffffffffffffffffffffffffffffffffff1673ffffffffffffffffffffffffffffffffffffffff16815260200160018201548152602001600282015f9054906101000a900460ff1615151515815250509050919050565b60405180606001604052805f73ffffffffffffffffffffffffffffffffffffffff1681526020015f81526020015f151581525090565b5f73ffffffffffffffffffffffffffffffffffffffff82169050919050565b5f61045c82610433565b9050919050565b61046c81610452565b82525050565b5f6020820190506104855f830184610463565b92915050565b5f819050919050565b61049d8161048b565b82525050565b5f6020820190506104b65f830184610494565b92915050565b5f80fd5b6104c981610452565b81146104d3575f80fd5b50565b5f813590506104e4816104c0565b92915050565b6104f38161048b565b81146104fd575f80fd5b50565b5f8135905061050e816104ea565b92915050565b5f8115159050919050565b61052881610514565b8114610532575f80fd5b50565b5f813590506105438161051f565b92915050565b5f805f606084860312156105605761055f6104bc565b5b5f61056d868287016104d6565b935050602061057e86828701610500565b925050604061058f86828701610535565b9150509250925092565b5f81519050919050565b5f82825260208201905092915050565b5f819050602082019050919050565b6105cb8161048b565b82525050565b5f6105dc83836105c2565b60208301905092915050565b5f602082019050919050565b5f6105fe82610599565b61060881856105a3565b9350610613836105b3565b805f5b8381101561064357815161062a88826105d1565b9750610635836105e8565b925050600181019050610616565b5085935050505092915050565b5f6020820190508181035f83015261066881846105f4565b905092915050565b5f60208284031215610685576106846104bc565b5b5f61069284828501610500565b91505092915050565b6106a481610452565b82525050565b6106b381610514565b82525050565b606082015f8201516106cd5f85018261069b565b5060208201516106e060208501826105c2565b5060408201516106f360408501826106aa565b50505050565b5f60608201905061070c5f8301846106b9565b92915050565b5f82825260208201905092915050565b7f4f6e6c792074686520636f6e7472616374206f776e65722063616e20706572665f8201527f6f726d2074686973206f7065726174696f6e0000000000000000000000000000602082015250565b5f61077c603283610712565b915061078782610722565b604082019050919050565b5f6020820190508181035f8301526107a981610770565b9050919050565b7f4e487b71000000000000000000000000000000000000000000000000000000005f52601160045260245ffd5b5f6107e78261048b565b91507fffffffffffffffffffffffffffffffffffffffffffffffffffffffffffffffff8203610819576108186107b0565b5b600182019050919050565b7f436f6e73656e7420646f6573206e6f742065786973742e0000000000000000005f82015250565b5f610858601783610712565b915061086382610824565b602082019050919050565b5f6020820190508181035f8301526108858161084c565b905091905056fea2646970667358221220082b7e297ba643d54c764fd137994f281ed0b6c85aba18ef365553a3d5ccbcf964736f6c63430008180033",
					"opcodes": "PUSH1 0x80 PUSH1 0x40 MSTORE PUSH0 PUSH1 0x3 SSTORE CALLVALUE DUP1 ISZERO PUSH2 0x13 JUMPI PUSH0 DUP1 REVERT JUMPDEST POP CALLER PUSH0 DUP1 PUSH2 0x100 EXP DUP2 SLOAD DUP2 PUSH20 0xFFFFFFFFFFFFFFFFFFFFFFFFFFFFFFFFFFFFFFFF MUL NOT AND SWAP1 DUP4 PUSH20 0xFFFFFFFFFFFFFFFFFFFFFFFFFFFFFFFFFFFFFFFF AND MUL OR SWAP1 SSTORE POP PUSH2 0x8C2 DUP1 PUSH2 0x60 PUSH0 CODECOPY PUSH0 RETURN INVALID PUSH1 0x80 PUSH1 0x40 MSTORE CALLVALUE DUP1 ISZERO PUSH2 0xF JUMPI PUSH0 DUP1 REVERT JUMPDEST POP PUSH1 0x4 CALLDATASIZE LT PUSH2 0x55 JUMPI PUSH0 CALLDATALOAD PUSH1 0xE0 SHR DUP1 PUSH4 0x8DA5CB5B EQ PUSH2 0x59 JUMPI DUP1 PUSH4 0x918950C7 EQ PUSH2 0x77 JUMPI DUP1 PUSH4 0xCA994017 EQ PUSH2 0x95 JUMPI DUP1 PUSH4 0xE27A4B11 EQ PUSH2 0xB1 JUMPI DUP1 PUSH4 0xE875B1CA EQ PUSH2 0xCF JUMPI JUMPDEST PUSH0 DUP1 REVERT JUMPDEST PUSH2 0x61 PUSH2 0xFF JUMP JUMPDEST PUSH1 0x40 MLOAD PUSH2 0x6E SWAP2 SWAP1 PUSH2 0x472 JUMP JUMPDEST PUSH1 0x40 MLOAD DUP1 SWAP2 SUB SWAP1 RETURN JUMPDEST PUSH2 0x7F PUSH2 0x122 JUMP JUMPDEST PUSH1 0x40 MLOAD PUSH2 0x8C SWAP2 SWAP1 PUSH2 0x4A3 JUMP JUMPDEST PUSH1 0x40 MLOAD DUP1 SWAP2 SUB SWAP1 RETURN JUMPDEST PUSH2 0xAF PUSH1 0x4 DUP1 CALLDATASIZE SUB DUP2 ADD SWAP1 PUSH2 0xAA SWAP2 SWAP1 PUSH2 0x549 JUMP JUMPDEST PUSH2 0x12B JUMP JUMPDEST STOP JUMPDEST PUSH2 0xB9 PUSH2 0x2AE JUMP JUMPDEST PUSH1 0x40 MLOAD PUSH2 0xC6 SWAP2 SWAP1 PUSH2 0x650 JUMP JUMPDEST PUSH1 0x40 MLOAD DUP1 SWAP2 SUB SWAP1 RETURN JUMPDEST PUSH2 0xE9 PUSH1 0x4 DUP1 CALLDATASIZE SUB DUP2 ADD SWAP1 PUSH2 0xE4 SWAP2 SWAP1 PUSH2 0x670 JUMP JUMPDEST PUSH2 0x304 JUMP JUMPDEST PUSH1 0x40 MLOAD PUSH2 0xF6 SWAP2 SWAP1 PUSH2 0x6F9 JUMP JUMPDEST PUSH1 0x40 MLOAD DUP1 SWAP2 SUB SWAP1 RETURN JUMPDEST PUSH0 DUP1 SLOAD SWAP1 PUSH2 0x100 EXP SWAP1 DIV PUSH20 0xFFFFFFFFFFFFFFFFFFFFFFFFFFFFFFFFFFFFFFFF AND DUP2 JUMP JUMPDEST PUSH0 PUSH1 0x3 SLOAD SWAP1 POP SWAP1 JUMP JUMPDEST PUSH0 DUP1 SLOAD SWAP1 PUSH2 0x100 EXP SWAP1 DIV PUSH20 0xFFFFFFFFFFFFFFFFFFFFFFFFFFFFFFFFFFFFFFFF AND PUSH20 0xFFFFFFFFFFFFFFFFFFFFFFFFFFFFFFFFFFFFFFFF AND CALLER PUSH20 0xFFFFFFFFFFFFFFFFFFFFFFFFFFFFFFFFFFFFFFFF AND EQ PUSH2 0x1B8 JUMPI PUSH1 0x40 MLOAD PUSH32 0x8C379A000000000000000000000000000000000000000000000000000000000 DUP2 MSTORE PUSH1 0x4 ADD PUSH2 0x1AF SWAP1 PUSH2 0x792 JUMP JUMPDEST PUSH1 0x40 MLOAD DUP1 SWAP2 SUB SWAP1 REVERT JUMPDEST PUSH1 0x40 MLOAD DUP1 PUSH1 0x60 ADD PUSH1 0x40 MSTORE DUP1 DUP5 PUSH20 0xFFFFFFFFFFFFFFFFFFFFFFFFFFFFFFFFFFFFFFFF AND DUP2 MSTORE PUSH1 0x20 ADD DUP4 DUP2 MSTORE PUSH1 0x20 ADD DUP3 ISZERO ISZERO DUP2 MSTORE POP PUSH1 0x1 PUSH0 DUP5 DUP2 MSTORE PUSH1 0x20 ADD SWAP1 DUP2 MSTORE PUSH1 0x20 ADD PUSH0 KECCAK256 PUSH0 DUP3 ADD MLOAD DUP2 PUSH0 ADD PUSH0 PUSH2 0x100 EXP DUP2 SLOAD DUP2 PUSH20 0xFFFFFFFFFFFFFFFFFFFFFFFFFFFFFFFFFFFFFFFF MUL NOT AND SWAP1 DUP4 PUSH20 0xFFFFFFFFFFFFFFFFFFFFFFFFFFFFFFFFFFFFFFFF AND MUL OR SWAP1 SSTORE POP PUSH1 0x20 DUP3 ADD MLOAD DUP2 PUSH1 0x1 ADD SSTORE PUSH1 0x40 DUP3 ADD MLOAD DUP2 PUSH1 0x2 ADD PUSH0 PUSH2 0x100 EXP DUP2 SLOAD DUP2 PUSH1 0xFF MUL NOT AND SWAP1 DUP4 ISZERO ISZERO MUL OR SWAP1 SSTORE POP SWAP1 POP POP PUSH1 0x2 DUP3 SWAP1 DUP1 PUSH1 0x1 DUP2 SLOAD ADD DUP1 DUP3 SSTORE DUP1 SWAP2 POP POP PUSH1 0x1 SWAP1 SUB SWAP1 PUSH0 MSTORE PUSH1 0x20 PUSH0 KECCAK256 ADD PUSH0 SWAP1 SWAP2 SWAP1 SWAP2 SWAP1 SWAP2 POP SSTORE PUSH1 0x3 PUSH0 DUP2 SLOAD DUP1 SWAP3 SWAP2 SWAP1 PUSH2 0x2A4 SWAP1 PUSH2 0x7DD JUMP JUMPDEST SWAP2 SWAP1 POP SSTORE POP POP POP POP JUMP JUMPDEST PUSH1 0x60 PUSH1 0x2 DUP1 SLOAD DUP1 PUSH1 0x20 MUL PUSH1 0x20 ADD PUSH1 0x40 MLOAD SWAP1 DUP2 ADD PUSH1 0x40 MSTORE DUP1 SWAP3 SWAP2 SWAP1 DUP2 DUP2 MSTORE PUSH1 0x20 ADD DUP3 DUP1 SLOAD DUP1 ISZERO PUSH2 0x2FA JUMPI PUSH1 0x20 MUL DUP3 ADD SWAP2 SWAP1 PUSH0 MSTORE PUSH1 0x20 PUSH0 KECCAK256 SWAP1 JUMPDEST DUP2 SLOAD DUP2 MSTORE PUSH1 0x20 ADD SWAP1 PUSH1 0x1 ADD SWAP1 DUP1 DUP4 GT PUSH2 0x2E6 JUMPI JUMPDEST POP POP POP POP POP SWAP1 POP SWAP1 JUMP JUMPDEST PUSH2 0x30C PUSH2 0x3FD JUMP JUMPDEST PUSH0 PUSH1 0x1 PUSH0 DUP5 DUP2 MSTORE PUSH1 0x20 ADD SWAP1 DUP2 MSTORE PUSH1 0x20 ADD PUSH0 KECCAK256 PUSH1 0x1 ADD SLOAD SUB PUSH2 0x362 JUMPI PUSH1 0x40 MLOAD PUSH32 0x8C379A000000000000000000000000000000000000000000000000000000000 DUP2 MSTORE PUSH1 0x4 ADD PUSH2 0x359 SWAP1 PUSH2 0x86E JUMP JUMPDEST PUSH1 0x40 MLOAD DUP1 SWAP2 SUB SWAP1 REVERT JUMPDEST PUSH1 0x1 PUSH0 DUP4 DUP2 MSTORE PUSH1 0x20 ADD SWAP1 DUP2 MSTORE PUSH1 0x20 ADD PUSH0 KECCAK256 PUSH1 0x40 MLOAD DUP1 PUSH1 0x60 ADD PUSH1 0x40 MSTORE SWAP1 DUP2 PUSH0 DUP3 ADD PUSH0 SWAP1 SLOAD SWAP1 PUSH2 0x100 EXP SWAP1 DIV PUSH20 0xFFFFFFFFFFFFFFFFFFFFFFFFFFFFFFFFFFFFFFFF AND PUSH20 0xFFFFFFFFFFFFFFFFFFFFFFFFFFFFFFFFFFFFFFFF AND PUSH20 0xFFFFFFFFFFFFFFFFFFFFFFFFFFFFFFFFFFFFFFFF AND DUP2 MSTORE PUSH1 0x20 ADD PUSH1 0x1 DUP3 ADD SLOAD DUP2 MSTORE PUSH1 0x20 ADD PUSH1 0x2 DUP3 ADD PUSH0 SWAP1 SLOAD SWAP1 PUSH2 0x100 EXP SWAP1 DIV PUSH1 0xFF AND ISZERO ISZERO ISZERO ISZERO DUP2 MSTORE POP POP SWAP1 POP SWAP2 SWAP1 POP JUMP JUMPDEST PUSH1 0x40 MLOAD DUP1 PUSH1 0x60 ADD PUSH1 0x40 MSTORE DUP1 PUSH0 PUSH20 0xFFFFFFFFFFFFFFFFFFFFFFFFFFFFFFFFFFFFFFFF AND DUP2 MSTORE PUSH1 0x20 ADD PUSH0 DUP2 MSTORE PUSH1 0x20 ADD PUSH0 ISZERO ISZERO DUP2 MSTORE POP SWAP1 JUMP JUMPDEST PUSH0 PUSH20 0xFFFFFFFFFFFFFFFFFFFFFFFFFFFFFFFFFFFFFFFF DUP3 AND SWAP1 POP SWAP2 SWAP1 POP JUMP JUMPDEST PUSH0 PUSH2 0x45C DUP3 PUSH2 0x433 JUMP JUMPDEST SWAP1 POP SWAP2 SWAP1 POP JUMP JUMPDEST PUSH2 0x46C DUP2 PUSH2 0x452 JUMP JUMPDEST DUP3 MSTORE POP POP JUMP JUMPDEST PUSH0 PUSH1 0x20 DUP3 ADD SWAP1 POP PUSH2 0x485 PUSH0 DUP4 ADD DUP5 PUSH2 0x463 JUMP JUMPDEST SWAP3 SWAP2 POP POP JUMP JUMPDEST PUSH0 DUP2 SWAP1 POP SWAP2 SWAP1 POP JUMP JUMPDEST PUSH2 0x49D DUP2 PUSH2 0x48B JUMP JUMPDEST DUP3 MSTORE POP POP JUMP JUMPDEST PUSH0 PUSH1 0x20 DUP3 ADD SWAP1 POP PUSH2 0x4B6 PUSH0 DUP4 ADD DUP5 PUSH2 0x494 JUMP JUMPDEST SWAP3 SWAP2 POP POP JUMP JUMPDEST PUSH0 DUP1 REVERT JUMPDEST PUSH2 0x4C9 DUP2 PUSH2 0x452 JUMP JUMPDEST DUP2 EQ PUSH2 0x4D3 JUMPI PUSH0 DUP1 REVERT JUMPDEST POP JUMP JUMPDEST PUSH0 DUP2 CALLDATALOAD SWAP1 POP PUSH2 0x4E4 DUP2 PUSH2 0x4C0 JUMP JUMPDEST SWAP3 SWAP2 POP POP JUMP JUMPDEST PUSH2 0x4F3 DUP2 PUSH2 0x48B JUMP JUMPDEST DUP2 EQ PUSH2 0x4FD JUMPI PUSH0 DUP1 REVERT JUMPDEST POP JUMP JUMPDEST PUSH0 DUP2 CALLDATALOAD SWAP1 POP PUSH2 0x50E DUP2 PUSH2 0x4EA JUMP JUMPDEST SWAP3 SWAP2 POP POP JUMP JUMPDEST PUSH0 DUP2 ISZERO ISZERO SWAP1 POP SWAP2 SWAP1 POP JUMP JUMPDEST PUSH2 0x528 DUP2 PUSH2 0x514 JUMP JUMPDEST DUP2 EQ PUSH2 0x532 JUMPI PUSH0 DUP1 REVERT JUMPDEST POP JUMP JUMPDEST PUSH0 DUP2 CALLDATALOAD SWAP1 POP PUSH2 0x543 DUP2 PUSH2 0x51F JUMP JUMPDEST SWAP3 SWAP2 POP POP JUMP JUMPDEST PUSH0 DUP1 PUSH0 PUSH1 0x60 DUP5 DUP7 SUB SLT ISZERO PUSH2 0x560 JUMPI PUSH2 0x55F PUSH2 0x4BC JUMP JUMPDEST JUMPDEST PUSH0 PUSH2 0x56D DUP7 DUP3 DUP8 ADD PUSH2 0x4D6 JUMP JUMPDEST SWAP4 POP POP PUSH1 0x20 PUSH2 0x57E DUP7 DUP3 DUP8 ADD PUSH2 0x500 JUMP JUMPDEST SWAP3 POP POP PUSH1 0x40 PUSH2 0x58F DUP7 DUP3 DUP8 ADD PUSH2 0x535 JUMP JUMPDEST SWAP2 POP POP SWAP3 POP SWAP3 POP SWAP3 JUMP JUMPDEST PUSH0 DUP2 MLOAD SWAP1 POP SWAP2 SWAP1 POP JUMP JUMPDEST PUSH0 DUP3 DUP3 MSTORE PUSH1 0x20 DUP3 ADD SWAP1 POP SWAP3 SWAP2 POP POP JUMP JUMPDEST PUSH0 DUP2 SWAP1 POP PUSH1 0x20 DUP3 ADD SWAP1 POP SWAP2 SWAP1 POP JUMP JUMPDEST PUSH2 0x5CB DUP2 PUSH2 0x48B JUMP JUMPDEST DUP3 MSTORE POP POP JUMP JUMPDEST PUSH0 PUSH2 0x5DC DUP4 DUP4 PUSH2 0x5C2 JUMP JUMPDEST PUSH1 0x20 DUP4 ADD SWAP1 POP SWAP3 SWAP2 POP POP JUMP JUMPDEST PUSH0 PUSH1 0x20 DUP3 ADD SWAP1 POP SWAP2 SWAP1 POP JUMP JUMPDEST PUSH0 PUSH2 0x5FE DUP3 PUSH2 0x599 JUMP JUMPDEST PUSH2 0x608 DUP2 DUP6 PUSH2 0x5A3 JUMP JUMPDEST SWAP4 POP PUSH2 0x613 DUP4 PUSH2 0x5B3 JUMP JUMPDEST DUP1 PUSH0 JUMPDEST DUP4 DUP2 LT ISZERO PUSH2 0x643 JUMPI DUP2 MLOAD PUSH2 0x62A DUP9 DUP3 PUSH2 0x5D1 JUMP JUMPDEST SWAP8 POP PUSH2 0x635 DUP4 PUSH2 0x5E8 JUMP JUMPDEST SWAP3 POP POP PUSH1 0x1 DUP2 ADD SWAP1 POP PUSH2 0x616 JUMP JUMPDEST POP DUP6 SWAP4 POP POP POP POP SWAP3 SWAP2 POP POP JUMP JUMPDEST PUSH0 PUSH1 0x20 DUP3 ADD SWAP1 POP DUP2 DUP2 SUB PUSH0 DUP4 ADD MSTORE PUSH2 0x668 DUP2 DUP5 PUSH2 0x5F4 JUMP JUMPDEST SWAP1 POP SWAP3 SWAP2 POP POP JUMP JUMPDEST PUSH0 PUSH1 0x20 DUP3 DUP5 SUB SLT ISZERO PUSH2 0x685 JUMPI PUSH2 0x684 PUSH2 0x4BC JUMP JUMPDEST JUMPDEST PUSH0 PUSH2 0x692 DUP5 DUP3 DUP6 ADD PUSH2 0x500 JUMP JUMPDEST SWAP2 POP POP SWAP3 SWAP2 POP POP JUMP JUMPDEST PUSH2 0x6A4 DUP2 PUSH2 0x452 JUMP JUMPDEST DUP3 MSTORE POP POP JUMP JUMPDEST PUSH2 0x6B3 DUP2 PUSH2 0x514 JUMP JUMPDEST DUP3 MSTORE POP POP JUMP JUMPDEST PUSH1 0x60 DUP3 ADD PUSH0 DUP3 ADD MLOAD PUSH2 0x6CD PUSH0 DUP6 ADD DUP3 PUSH2 0x69B JUMP JUMPDEST POP PUSH1 0x20 DUP3 ADD MLOAD PUSH2 0x6E0 PUSH1 0x20 DUP6 ADD DUP3 PUSH2 0x5C2 JUMP JUMPDEST POP PUSH1 0x40 DUP3 ADD MLOAD PUSH2 0x6F3 PUSH1 0x40 DUP6 ADD DUP3 PUSH2 0x6AA JUMP JUMPDEST POP POP POP POP JUMP JUMPDEST PUSH0 PUSH1 0x60 DUP3 ADD SWAP1 POP PUSH2 0x70C PUSH0 DUP4 ADD DUP5 PUSH2 0x6B9 JUMP JUMPDEST SWAP3 SWAP2 POP POP JUMP JUMPDEST PUSH0 DUP3 DUP3 MSTORE PUSH1 0x20 DUP3 ADD SWAP1 POP SWAP3 SWAP2 POP POP JUMP JUMPDEST PUSH32 0x4F6E6C792074686520636F6E7472616374206F776E65722063616E2070657266 PUSH0 DUP3 ADD MSTORE PUSH32 0x6F726D2074686973206F7065726174696F6E0000000000000000000000000000 PUSH1 0x20 DUP3 ADD MSTORE POP JUMP JUMPDEST PUSH0 PUSH2 0x77C PUSH1 0x32 DUP4 PUSH2 0x712 JUMP JUMPDEST SWAP2 POP PUSH2 0x787 DUP3 PUSH2 0x722 JUMP JUMPDEST PUSH1 0x40 DUP3 ADD SWAP1 POP SWAP2 SWAP1 POP JUMP JUMPDEST PUSH0 PUSH1 0x20 DUP3 ADD SWAP1 POP DUP2 DUP2 SUB PUSH0 DUP4 ADD MSTORE PUSH2 0x7A9 DUP2 PUSH2 0x770 JUMP JUMPDEST SWAP1 POP SWAP2 SWAP1 POP JUMP JUMPDEST PUSH32 0x4E487B7100000000000000000000000000000000000000000000000000000000 PUSH0 MSTORE PUSH1 0x11 PUSH1 0x4 MSTORE PUSH1 0x24 PUSH0 REVERT JUMPDEST PUSH0 PUSH2 0x7E7 DUP3 PUSH2 0x48B JUMP JUMPDEST SWAP2 POP PUSH32 0xFFFFFFFFFFFFFFFFFFFFFFFFFFFFFFFFFFFFFFFFFFFFFFFFFFFFFFFFFFFFFFFF DUP3 SUB PUSH2 0x819 JUMPI PUSH2 0x818 PUSH2 0x7B0 JUMP JUMPDEST JUMPDEST PUSH1 0x1 DUP3 ADD SWAP1 POP SWAP2 SWAP1 POP JUMP JUMPDEST PUSH32 0x436F6E73656E7420646F6573206E6F742065786973742E000000000000000000 PUSH0 DUP3 ADD MSTORE POP JUMP JUMPDEST PUSH0 PUSH2 0x858 PUSH1 0x17 DUP4 PUSH2 0x712 JUMP JUMPDEST SWAP2 POP PUSH2 0x863 DUP3 PUSH2 0x824 JUMP JUMPDEST PUSH1 0x20 DUP3 ADD SWAP1 POP SWAP2 SWAP1 POP JUMP JUMPDEST PUSH0 PUSH1 0x20 DUP3 ADD SWAP1 POP DUP2 DUP2 SUB PUSH0 DUP4 ADD MSTORE PUSH2 0x885 DUP2 PUSH2 0x84C JUMP JUMPDEST SWAP1 POP SWAP2 SWAP1 POP JUMP INVALID LOG2 PUSH5 0x6970667358 0x22 SLT KECCAK256 ADDMOD 0x2B PUSH31 0x297BA643D54C764FD137994F281ED0B6C85ABA18EF365553A3D5CCBCF96473 PUSH16 0x6C634300081800330000000000000000 "
				},
				"gasEstimates": {
					"creation": {
						"codeDepositCost": "448400",
						"executionCost": "29754",
						"totalCost": "478154"
					},
					"external": {
						"addConsent(address,uint256,bool)": "infinite",
						"getConsentByKey(uint256)": "infinite",
						"getConsentCounter()": "2432",
						"getConsentKeys()": "infinite",
						"owner()": "2483"
					}
				},
				"methodIdentifiers": {
					"addConsent(address,uint256,bool)": "ca994017",
					"getConsentByKey(uint256)": "e875b1ca",
					"getConsentCounter()": "918950c7",
					"getConsentKeys()": "e27a4b11",
					"owner()": "8da5cb5b"
				}
			},
			"storageLayout": {
				"storage": [
					{
						"astId": 3,
						"contract": "contracts/AgreementSmartContract.sol:AgreementSmartContract",
						"label": "owner",
						"offset": 0,
						"slot": "0",
						"type": "t_address"
					},
					{
						"astId": 43,
						"contract": "contracts/AgreementSmartContract.sol:AgreementSmartContract",
						"label": "consents",
						"offset": 0,
						"slot": "1",
						"type": "t_mapping(t_uint256,t_struct(Consent)38_storage)"
					},
					{
						"astId": 46,
						"contract": "contracts/AgreementSmartContract.sol:AgreementSmartContract",
						"label": "consentKeys",
						"offset": 0,
						"slot": "2",
						"type": "t_array(t_uint256)dyn_storage"
					},
					{
						"astId": 49,
						"contract": "contracts/AgreementSmartContract.sol:AgreementSmartContract",
						"label": "consentsCounter",
						"offset": 0,
						"slot": "3",
						"type": "t_uint256"
					}
				],
				"types": {
					"t_address": {
						"encoding": "inplace",
						"label": "address",
						"numberOfBytes": "20"
					},
					"t_array(t_uint256)dyn_storage": {
						"base": "t_uint256",
						"encoding": "dynamic_array",
						"label": "uint256[]",
						"numberOfBytes": "32"
					},
					"t_bool": {
						"encoding": "inplace",
						"label": "bool",
						"numberOfBytes": "1"
					},
					"t_mapping(t_uint256,t_struct(Consent)38_storage)": {
						"encoding": "mapping",
						"key": "t_uint256",
						"label": "mapping(uint256 => struct AgreementSmartContract.Consent)",
						"numberOfBytes": "32",
						"value": "t_struct(Consent)38_storage"
					},
					"t_struct(Consent)38_storage": {
						"encoding": "inplace",
						"label": "struct AgreementSmartContract.Consent",
						"members": [
							{
								"astId": 33,
								"contract": "contracts/AgreementSmartContract.sol:AgreementSmartContract",
								"label": "purposeBlockAddress",
								"offset": 0,
								"slot": "0",
								"type": "t_address"
							},
							{
								"astId": 35,
								"contract": "contracts/AgreementSmartContract.sol:AgreementSmartContract",
								"label": "userId",
								"offset": 0,
								"slot": "1",
								"type": "t_uint256"
							},
							{
								"astId": 37,
								"contract": "contracts/AgreementSmartContract.sol:AgreementSmartContract",
								"label": "isConsented",
								"offset": 0,
								"slot": "2",
								"type": "t_bool"
							}
						],
						"numberOfBytes": "96"
					},
					"t_uint256": {
						"encoding": "inplace",
						"label": "uint256",
						"numberOfBytes": "32"
					}
				}
			},
			"userdoc": {
				"kind": "user",
				"methods": {},
				"version": 1
			}
		}
	}
}