{
	"contracts/DataUsageSmartContract.sol": {
		"DataUsageSmartContract": {
			"abi": [
				{
					"inputs": [
						{
							"internalType": "string",
							"name": "_serviceName",
							"type": "string"
						},
						{
							"internalType": "string",
							"name": "_servicePurpose",
							"type": "string"
						},
						{
							"internalType": "uint256",
							"name": "_actorId",
							"type": "uint256"
						},
						{
							"internalType": "enum DataUsageSmartContract.Operation",
							"name": "_operations",
							"type": "uint8"
						},
						{
							"internalType": "uint256",
							"name": "_personalDataIds",
							"type": "uint256"
						},
						{
							"internalType": "bytes32",
							"name": "_proceedPersonalData",
							"type": "bytes32"
						}
					],
					"name": "addDataUsage",
					"outputs": [],
					"stateMutability": "nonpayable",
					"type": "function"
				},
				{
					"inputs": [
						{
							"internalType": "uint256",
							"name": "_userId",
							"type": "uint256"
						},
						{
							"internalType": "string",
							"name": "_userName",
							"type": "string"
						},
						{
							"internalType": "string",
							"name": "_userAddress",
							"type": "string"
						},
						{
							"internalType": "string",
							"name": "_userTelephone",
							"type": "string"
						}
					],
					"name": "addPersonalData",
					"outputs": [
						{
							"internalType": "bytes32",
							"name": "",
							"type": "bytes32"
						}
					],
					"stateMutability": "pure",
					"type": "function"
				},
				{
					"inputs": [
						{
							"internalType": "uint256",
							"name": "_actorConsentId",
							"type": "uint256"
						}
					],
					"name": "getDataUsageByKey",
					"outputs": [
						{
							"components": [
								{
									"internalType": "string",
									"name": "serviceName",
									"type": "string"
								},
								{
									"internalType": "string",
									"name": "servicePurpose",
									"type": "string"
								},
								{
									"internalType": "uint256",
									"name": "actorId",
									"type": "uint256"
								},
								{
									"internalType": "enum DataUsageSmartContract.Operation",
									"name": "operations",
									"type": "uint8"
								},
								{
									"internalType": "uint256",
									"name": "personalDataIds",
									"type": "uint256"
								},
								{
									"internalType": "bytes32",
									"name": "processedPersonalDatas",
									"type": "bytes32"
								}
							],
							"internalType": "struct DataUsageSmartContract.DataUsage",
							"name": "",
							"type": "tuple"
						}
					],
					"stateMutability": "view",
					"type": "function"
				},
				{
					"inputs": [],
					"name": "getDataUsageCounter",
					"outputs": [
						{
							"internalType": "uint256",
							"name": "",
							"type": "uint256"
						}
					],
					"stateMutability": "view",
					"type": "function"
				},
				{
					"inputs": [],
					"name": "getPersonalDataCounter",
					"outputs": [
						{
							"internalType": "uint256",
							"name": "",
							"type": "uint256"
						}
					],
					"stateMutability": "view",
					"type": "function"
				},
				{
					"inputs": [],
					"name": "owner",
					"outputs": [
						{
							"internalType": "address",
							"name": "",
							"type": "address"
						}
					],
					"stateMutability": "view",
					"type": "function"
				}
			],
			"devdoc": {
				"kind": "dev",
				"methods": {},
				"version": 1
			},
			"evm": {
				"assembly": "    /* \"contracts/DataUsageSmartContract.sol\":94:3241  contract DataUsageSmartContract is AccessControl {... */\n  mstore(0x40, 0x80)\n    /* \"contracts/DataUsageSmartContract.sol\":1074:1075  0 */\n  0x00\n    /* \"contracts/DataUsageSmartContract.sol\":1042:1075  uint private dataUsageCounter = 0 */\n  0x02\n  sstore\n    /* \"contracts/DataUsageSmartContract.sol\":1147:1148  0 */\n  0x00\n    /* \"contracts/DataUsageSmartContract.sol\":1112:1148  uint private personalDataCounter = 0 */\n  0x04\n  sstore\n    /* \"contracts/DataUsageSmartContract.sol\":94:3241  contract DataUsageSmartContract is AccessControl {... */\n  callvalue\n  dup1\n  iszero\n  tag_1\n  jumpi\n  0x00\n  dup1\n  revert\ntag_1:\n  pop\n    /* \"contracts/AccessControl.sol\":145:155  msg.sender */\n  caller\n    /* \"contracts/AccessControl.sol\":137:142  owner */\n  0x00\n  dup1\n    /* \"contracts/AccessControl.sol\":137:155  owner = msg.sender */\n  0x0100\n  exp\n  dup2\n  sload\n  dup2\n  0xffffffffffffffffffffffffffffffffffffffff\n  mul\n  not\n  and\n  swap1\n  dup4\n  0xffffffffffffffffffffffffffffffffffffffff\n  and\n  mul\n  or\n  swap1\n  sstore\n  pop\n    /* \"contracts/DataUsageSmartContract.sol\":94:3241  contract DataUsageSmartContract is AccessControl {... */\n  dataSize(sub_0)\n  dup1\n  dataOffset(sub_0)\n  0x00\n  codecopy\n  0x00\n  return\nstop\n\nsub_0: assembly {\n        /* \"contracts/DataUsageSmartContract.sol\":94:3241  contract DataUsageSmartContract is AccessControl {... */\n      mstore(0x40, 0x80)\n      callvalue\n      dup1\n      iszero\n      tag_1\n      jumpi\n      0x00\n      dup1\n      revert\n    tag_1:\n      pop\n      jumpi(tag_2, lt(calldatasize, 0x04))\n      shr(0xe0, calldataload(0x00))\n      dup1\n      0x2f57b91c\n      eq\n      tag_3\n      jumpi\n      dup1\n      0x4b58fbe9\n      eq\n      tag_4\n      jumpi\n      dup1\n      0x682477d7\n      eq\n      tag_5\n      jumpi\n      dup1\n      0x85f86e0d\n      eq\n      tag_6\n      jumpi\n      dup1\n      0x8da5cb5b\n      eq\n      tag_7\n      jumpi\n      dup1\n      0xd2b0649a\n      eq\n      tag_8\n      jumpi\n    tag_2:\n      0x00\n      dup1\n      revert\n        /* \"contracts/DataUsageSmartContract.sol\":2242:2979  function addDataUsage(... */\n    tag_3:\n      tag_9\n      0x04\n      dup1\n      calldatasize\n      sub\n      dup2\n      add\n      swap1\n      tag_10\n      swap2\n      swap1\n      tag_11\n      jump\t// in\n    tag_10:\n      tag_12\n      jump\t// in\n    tag_9:\n      stop\n        /* \"contracts/DataUsageSmartContract.sol\":2017:2123  function getPersonalDataCounter() public view returns (uint) {... */\n    tag_4:\n      tag_13\n      tag_14\n      jump\t// in\n    tag_13:\n      mload(0x40)\n      tag_15\n      swap2\n      swap1\n      tag_16\n      jump\t// in\n    tag_15:\n      mload(0x40)\n      dup1\n      swap2\n      sub\n      swap1\n      return\n        /* \"contracts/DataUsageSmartContract.sol\":3138:3238  function getDataUsageCounter() public view returns (uint) {... */\n    tag_5:\n      tag_17\n      tag_18\n      jump\t// in\n    tag_17:\n      mload(0x40)\n      tag_19\n      swap2\n      swap1\n      tag_16\n      jump\t// in\n    tag_19:\n      mload(0x40)\n      dup1\n      swap2\n      sub\n      swap1\n      return\n        /* \"contracts/DataUsageSmartContract.sol\":1369:2003  function addPersonalData(... */\n    tag_6:\n      tag_20\n      0x04\n      dup1\n      calldatasize\n      sub\n      dup2\n      add\n      swap1\n      tag_21\n      swap2\n      swap1\n      tag_22\n      jump\t// in\n    tag_21:\n      tag_23\n      jump\t// in\n    tag_20:\n      mload(0x40)\n      tag_24\n      swap2\n      swap1\n      tag_25\n      jump\t// in\n    tag_24:\n      mload(0x40)\n      dup1\n      swap2\n      sub\n      swap1\n      return\n        /* \"contracts/AccessControl.sol\":86:106  address public owner */\n    tag_7:\n      tag_26\n      tag_27\n      jump\t// in\n    tag_26:\n      mload(0x40)\n      tag_28\n      swap2\n      swap1\n      tag_29\n      jump\t// in\n    tag_28:\n      mload(0x40)\n      dup1\n      swap2\n      sub\n      swap1\n      return\n        /* \"contracts/DataUsageSmartContract.sol\":2989:3130  function getDataUsageByKey(uint _actorConsentId) public view returns (DataUsage memory) {... */\n    tag_8:\n      tag_30\n      0x04\n      dup1\n      calldatasize\n      sub\n      dup2\n      add\n      swap1\n      tag_31\n      swap2\n      swap1\n      tag_32\n      jump\t// in\n    tag_31:\n      tag_33\n      jump\t// in\n    tag_30:\n      mload(0x40)\n      tag_34\n      swap2\n      swap1\n      tag_35\n      jump\t// in\n    tag_34:\n      mload(0x40)\n      dup1\n      swap2\n      sub\n      swap1\n      return\n        /* \"contracts/DataUsageSmartContract.sol\":2242:2979  function addDataUsage(... */\n    tag_12:\n        /* \"contracts/AccessControl.sol\":220:225  owner */\n      0x00\n      dup1\n      sload\n      swap1\n      0x0100\n      exp\n      swap1\n      div\n      0xffffffffffffffffffffffffffffffffffffffff\n      and\n        /* \"contracts/AccessControl.sol\":206:225  msg.sender == owner */\n      0xffffffffffffffffffffffffffffffffffffffff\n      and\n        /* \"contracts/AccessControl.sol\":206:216  msg.sender */\n      caller\n        /* \"contracts/AccessControl.sol\":206:225  msg.sender == owner */\n      0xffffffffffffffffffffffffffffffffffffffff\n      and\n      eq\n        /* \"contracts/AccessControl.sol\":198:280  require(msg.sender == owner, \"Only the contract owner can perform this operation\") */\n      tag_37\n      jumpi\n      mload(0x40)\n      0x08c379a000000000000000000000000000000000000000000000000000000000\n      dup2\n      mstore\n      0x04\n      add\n      tag_38\n      swap1\n      tag_39\n      jump\t// in\n    tag_38:\n      mload(0x40)\n      dup1\n      swap2\n      sub\n      swap1\n      revert\n    tag_37:\n        /* \"contracts/DataUsageSmartContract.sol\":2603:2888  DataUsage({... */\n      mload(0x40)\n      dup1\n      0xc0\n      add\n      0x40\n      mstore\n      dup1\n        /* \"contracts/DataUsageSmartContract.sol\":2641:2653  _serviceName */\n      dup8\n        /* \"contracts/DataUsageSmartContract.sol\":2603:2888  DataUsage({... */\n      dup2\n      mstore\n      0x20\n      add\n        /* \"contracts/DataUsageSmartContract.sol\":2684:2699  _servicePurpose */\n      dup7\n        /* \"contracts/DataUsageSmartContract.sol\":2603:2888  DataUsage({... */\n      dup2\n      mstore\n      0x20\n      add\n        /* \"contracts/DataUsageSmartContract.sol\":2723:2731  _actorId */\n      dup6\n        /* \"contracts/DataUsageSmartContract.sol\":2603:2888  DataUsage({... */\n      dup2\n      mstore\n      0x20\n      add\n        /* \"contracts/DataUsageSmartContract.sol\":2758:2769  _operations */\n      dup5\n        /* \"contracts/DataUsageSmartContract.sol\":2603:2888  DataUsage({... */\n      0x02\n      dup2\n      gt\n      iszero\n      tag_41\n      jumpi\n      tag_42\n      tag_43\n      jump\t// in\n    tag_42:\n    tag_41:\n      dup2\n      mstore\n      0x20\n      add\n        /* \"contracts/DataUsageSmartContract.sol\":2801:2817  _personalDataIds */\n      dup4\n        /* \"contracts/DataUsageSmartContract.sol\":2603:2888  DataUsage({... */\n      dup2\n      mstore\n      0x20\n      add\n        /* \"contracts/DataUsageSmartContract.sol\":2856:2876  _proceedPersonalData */\n      dup3\n        /* \"contracts/DataUsageSmartContract.sol\":2603:2888  DataUsage({... */\n      dup2\n      mstore\n      pop\n        /* \"contracts/DataUsageSmartContract.sol\":2580:2590  dataUsages */\n      0x01\n        /* \"contracts/DataUsageSmartContract.sol\":2580:2600  dataUsages[_actorId] */\n      0x00\n        /* \"contracts/DataUsageSmartContract.sol\":2591:2599  _actorId */\n      dup7\n        /* \"contracts/DataUsageSmartContract.sol\":2580:2600  dataUsages[_actorId] */\n      dup2\n      mstore\n      0x20\n      add\n      swap1\n      dup2\n      mstore\n      0x20\n      add\n      0x00\n      keccak256\n        /* \"contracts/DataUsageSmartContract.sol\":2580:2888  dataUsages[_actorId] = DataUsage({... */\n      0x00\n      dup3\n      add\n      mload\n      dup2\n      0x00\n      add\n      swap1\n      dup2\n      tag_44\n      swap2\n      swap1\n      tag_45\n      jump\t// in\n    tag_44:\n      pop\n      0x20\n      dup3\n      add\n      mload\n      dup2\n      0x01\n      add\n      swap1\n      dup2\n      tag_46\n      swap2\n      swap1\n      tag_45\n      jump\t// in\n    tag_46:\n      pop\n      0x40\n      dup3\n      add\n      mload\n      dup2\n      0x02\n      add\n      sstore\n      0x60\n      dup3\n      add\n      mload\n      dup2\n      0x03\n      add\n      exp(0x0100, 0x00)\n      dup2\n      sload\n      dup2\n      0xff\n      mul\n      not\n      and\n      swap1\n      dup4\n      0x02\n      dup2\n      gt\n      iszero\n      tag_47\n      jumpi\n      tag_48\n      tag_43\n      jump\t// in\n    tag_48:\n    tag_47:\n      mul\n      or\n      swap1\n      sstore\n      pop\n      0x80\n      dup3\n      add\n      mload\n      dup2\n      0x04\n      add\n      sstore\n      0xa0\n      dup3\n      add\n      mload\n      dup2\n      0x05\n      add\n      sstore\n      swap1\n      pop\n      pop\n        /* \"contracts/DataUsageSmartContract.sol\":2951:2967  dataUsageCounter */\n      0x02\n      0x00\n        /* \"contracts/DataUsageSmartContract.sol\":2951:2969  dataUsageCounter++ */\n      dup2\n      sload\n      dup1\n      swap3\n      swap2\n      swap1\n      tag_49\n      swap1\n      tag_50\n      jump\t// in\n    tag_49:\n      swap2\n      swap1\n      pop\n      sstore\n      pop\n        /* \"contracts/DataUsageSmartContract.sol\":2242:2979  function addDataUsage(... */\n      pop\n      pop\n      pop\n      pop\n      pop\n      pop\n      jump\t// out\n        /* \"contracts/DataUsageSmartContract.sol\":2017:2123  function getPersonalDataCounter() public view returns (uint) {... */\n    tag_14:\n        /* \"contracts/DataUsageSmartContract.sol\":2072:2076  uint */\n      0x00\n        /* \"contracts/DataUsageSmartContract.sol\":2096:2115  personalDataCounter */\n      sload(0x04)\n        /* \"contracts/DataUsageSmartContract.sol\":2089:2115  return personalDataCounter */\n      swap1\n      pop\n        /* \"contracts/DataUsageSmartContract.sol\":2017:2123  function getPersonalDataCounter() public view returns (uint) {... */\n      swap1\n      jump\t// out\n        /* \"contracts/DataUsageSmartContract.sol\":3138:3238  function getDataUsageCounter() public view returns (uint) {... */\n    tag_18:\n        /* \"contracts/DataUsageSmartContract.sol\":3190:3194  uint */\n      0x00\n        /* \"contracts/DataUsageSmartContract.sol\":3214:3230  dataUsageCounter */\n      sload(0x02)\n        /* \"contracts/DataUsageSmartContract.sol\":3207:3230  return dataUsageCounter */\n      swap1\n      pop\n        /* \"contracts/DataUsageSmartContract.sol\":3138:3238  function getDataUsageCounter() public view returns (uint) {... */\n      swap1\n      jump\t// out\n        /* \"contracts/DataUsageSmartContract.sol\":1369:2003  function addPersonalData(... */\n    tag_23:\n        /* \"contracts/DataUsageSmartContract.sol\":1558:1565  bytes32 */\n      0x00\n        /* \"contracts/DataUsageSmartContract.sol\":1653:1676  bytes memory dataToHash */\n      0x60\n        /* \"contracts/DataUsageSmartContract.sol\":1733:1740  _userId */\n      dup6\n        /* \"contracts/DataUsageSmartContract.sol\":1755:1764  _userName */\n      dup6\n        /* \"contracts/DataUsageSmartContract.sol\":1779:1791  _userAddress */\n      dup6\n        /* \"contracts/DataUsageSmartContract.sol\":1806:1820  _userTelephone */\n      dup6\n        /* \"contracts/DataUsageSmartContract.sol\":1702:1831  abi.encodePacked(... */\n      add(0x20, mload(0x40))\n      tag_54\n      swap5\n      swap4\n      swap3\n      swap2\n      swap1\n      tag_55\n      jump\t// in\n    tag_54:\n      mload(0x40)\n      0x20\n      dup2\n      dup4\n      sub\n      sub\n      dup2\n      mstore\n      swap1\n      0x40\n      mstore\n        /* \"contracts/DataUsageSmartContract.sol\":1689:1831  dataToHash = abi.encodePacked(... */\n      swap1\n      pop\n        /* \"contracts/DataUsageSmartContract.sol\":1903:1932  bytes32 processedPersonalData */\n      0x00\n        /* \"contracts/DataUsageSmartContract.sol\":1945:1955  dataToHash */\n      dup2\n        /* \"contracts/DataUsageSmartContract.sol\":1935:1956  keccak256(dataToHash) */\n      dup1\n      mload\n      swap1\n      0x20\n      add\n      keccak256\n        /* \"contracts/DataUsageSmartContract.sol\":1903:1956  bytes32 processedPersonalData = keccak256(dataToHash) */\n      swap1\n      pop\n        /* \"contracts/DataUsageSmartContract.sol\":1974:1995  processedPersonalData */\n      dup1\n        /* \"contracts/DataUsageSmartContract.sol\":1967:1995  return processedPersonalData */\n      swap3\n      pop\n      pop\n      pop\n        /* \"contracts/DataUsageSmartContract.sol\":1369:2003  function addPersonalData(... */\n      swap5\n      swap4\n      pop\n      pop\n      pop\n      pop\n      jump\t// out\n        /* \"contracts/AccessControl.sol\":86:106  address public owner */\n    tag_27:\n      0x00\n      dup1\n      sload\n      swap1\n      0x0100\n      exp\n      swap1\n      div\n      0xffffffffffffffffffffffffffffffffffffffff\n      and\n      dup2\n      jump\t// out\n        /* \"contracts/DataUsageSmartContract.sol\":2989:3130  function getDataUsageByKey(uint _actorConsentId) public view returns (DataUsage memory) {... */\n    tag_33:\n        /* \"contracts/DataUsageSmartContract.sol\":3059:3075  DataUsage memory */\n      tag_56\n      tag_57\n      jump\t// in\n    tag_56:\n        /* \"contracts/DataUsageSmartContract.sol\":3095:3105  dataUsages */\n      0x01\n        /* \"contracts/DataUsageSmartContract.sol\":3095:3122  dataUsages[_actorConsentId] */\n      0x00\n        /* \"contracts/DataUsageSmartContract.sol\":3106:3121  _actorConsentId */\n      dup4\n        /* \"contracts/DataUsageSmartContract.sol\":3095:3122  dataUsages[_actorConsentId] */\n      dup2\n      mstore\n      0x20\n      add\n      swap1\n      dup2\n      mstore\n      0x20\n      add\n      0x00\n      keccak256\n        /* \"contracts/DataUsageSmartContract.sol\":3088:3122  return dataUsages[_actorConsentId] */\n      mload(0x40)\n      dup1\n      0xc0\n      add\n      0x40\n      mstore\n      swap1\n      dup2\n      0x00\n      dup3\n      add\n      dup1\n      sload\n      tag_59\n      swap1\n      tag_60\n      jump\t// in\n    tag_59:\n      dup1\n      0x1f\n      add\n      0x20\n      dup1\n      swap2\n      div\n      mul\n      0x20\n      add\n      mload(0x40)\n      swap1\n      dup2\n      add\n      0x40\n      mstore\n      dup1\n      swap3\n      swap2\n      swap1\n      dup2\n      dup2\n      mstore\n      0x20\n      add\n      dup3\n      dup1\n      sload\n      tag_61\n      swap1\n      tag_60\n      jump\t// in\n    tag_61:\n      dup1\n      iszero\n      tag_62\n      jumpi\n      dup1\n      0x1f\n      lt\n      tag_63\n      jumpi\n      0x0100\n      dup1\n      dup4\n      sload\n      div\n      mul\n      dup4\n      mstore\n      swap2\n      0x20\n      add\n      swap2\n      jump(tag_62)\n    tag_63:\n      dup3\n      add\n      swap2\n      swap1\n      0x00\n      mstore\n      keccak256(0x00, 0x20)\n      swap1\n    tag_64:\n      dup2\n      sload\n      dup2\n      mstore\n      swap1\n      0x01\n      add\n      swap1\n      0x20\n      add\n      dup1\n      dup4\n      gt\n      tag_64\n      jumpi\n      dup3\n      swap1\n      sub\n      0x1f\n      and\n      dup3\n      add\n      swap2\n    tag_62:\n      pop\n      pop\n      pop\n      pop\n      pop\n      dup2\n      mstore\n      0x20\n      add\n      0x01\n      dup3\n      add\n      dup1\n      sload\n      tag_65\n      swap1\n      tag_60\n      jump\t// in\n    tag_65:\n      dup1\n      0x1f\n      add\n      0x20\n      dup1\n      swap2\n      div\n      mul\n      0x20\n      add\n      mload(0x40)\n      swap1\n      dup2\n      add\n      0x40\n      mstore\n      dup1\n      swap3\n      swap2\n      swap1\n      dup2\n      dup2\n      mstore\n      0x20\n      add\n      dup3\n      dup1\n      sload\n      tag_66\n      swap1\n      tag_60\n      jump\t// in\n    tag_66:\n      dup1\n      iszero\n      tag_67\n      jumpi\n      dup1\n      0x1f\n      lt\n      tag_68\n      jumpi\n      0x0100\n      dup1\n      dup4\n      sload\n      div\n      mul\n      dup4\n      mstore\n      swap2\n      0x20\n      add\n      swap2\n      jump(tag_67)\n    tag_68:\n      dup3\n      add\n      swap2\n      swap1\n      0x00\n      mstore\n      keccak256(0x00, 0x20)\n      swap1\n    tag_69:\n      dup2\n      sload\n      dup2\n      mstore\n      swap1\n      0x01\n      add\n      swap1\n      0x20\n      add\n      dup1\n      dup4\n      gt\n      tag_69\n      jumpi\n      dup3\n      swap1\n      sub\n      0x1f\n      and\n      dup3\n      add\n      swap2\n    tag_67:\n      pop\n      pop\n      pop\n      pop\n      pop\n      dup2\n      mstore\n      0x20\n      add\n      0x02\n      dup3\n      add\n      sload\n      dup2\n      mstore\n      0x20\n      add\n      0x03\n      dup3\n      add\n      0x00\n      swap1\n      sload\n      swap1\n      0x0100\n      exp\n      swap1\n      div\n      0xff\n      and\n      0x02\n      dup2\n      gt\n      iszero\n      tag_70\n      jumpi\n      tag_71\n      tag_43\n      jump\t// in\n    tag_71:\n    tag_70:\n      0x02\n      dup2\n      gt\n      iszero\n      tag_72\n      jumpi\n      tag_73\n      tag_43\n      jump\t// in\n    tag_73:\n    tag_72:\n      dup2\n      mstore\n      0x20\n      add\n      0x04\n      dup3\n      add\n      sload\n      dup2\n      mstore\n      0x20\n      add\n      0x05\n      dup3\n      add\n      sload\n      dup2\n      mstore\n      pop\n      pop\n      swap1\n      pop\n        /* \"contracts/DataUsageSmartContract.sol\":2989:3130  function getDataUsageByKey(uint _actorConsentId) public view returns (DataUsage memory) {... */\n      swap2\n      swap1\n      pop\n      jump\t// out\n    tag_57:\n      mload(0x40)\n      dup1\n      0xc0\n      add\n      0x40\n      mstore\n      dup1\n      0x60\n      dup2\n      mstore\n      0x20\n      add\n      0x60\n      dup2\n      mstore\n      0x20\n      add\n      0x00\n      dup2\n      mstore\n      0x20\n      add\n      0x00\n      0x02\n      dup2\n      gt\n      iszero\n      tag_74\n      jumpi\n      tag_75\n      tag_43\n      jump\t// in\n    tag_75:\n    tag_74:\n      dup2\n      mstore\n      0x20\n      add\n      0x00\n      dup2\n      mstore\n      0x20\n      add\n      0x00\n      dup1\n      not\n      and\n      dup2\n      mstore\n      pop\n      swap1\n      jump\t// out\n        /* \"#utility.yul\":7:82   */\n    tag_76:\n        /* \"#utility.yul\":40:46   */\n      0x00\n        /* \"#utility.yul\":73:75   */\n      0x40\n        /* \"#utility.yul\":67:76   */\n      mload\n        /* \"#utility.yul\":57:76   */\n      swap1\n      pop\n        /* \"#utility.yul\":7:82   */\n      swap1\n      jump\t// out\n        /* \"#utility.yul\":88:205   */\n    tag_77:\n        /* \"#utility.yul\":197:198   */\n      0x00\n        /* \"#utility.yul\":194:195   */\n      dup1\n        /* \"#utility.yul\":187:199   */\n      revert\n        /* \"#utility.yul\":211:328   */\n    tag_78:\n        /* \"#utility.yul\":320:321   */\n      0x00\n        /* \"#utility.yul\":317:318   */\n      dup1\n        /* \"#utility.yul\":310:322   */\n      revert\n        /* \"#utility.yul\":334:451   */\n    tag_79:\n        /* \"#utility.yul\":443:444   */\n      0x00\n        /* \"#utility.yul\":440:441   */\n      dup1\n        /* \"#utility.yul\":433:445   */\n      revert\n        /* \"#utility.yul\":457:574   */\n    tag_80:\n        /* \"#utility.yul\":566:567   */\n      0x00\n        /* \"#utility.yul\":563:564   */\n      dup1\n        /* \"#utility.yul\":556:568   */\n      revert\n        /* \"#utility.yul\":580:682   */\n    tag_81:\n        /* \"#utility.yul\":621:627   */\n      0x00\n        /* \"#utility.yul\":672:674   */\n      0x1f\n        /* \"#utility.yul\":668:675   */\n      not\n        /* \"#utility.yul\":663:665   */\n      0x1f\n        /* \"#utility.yul\":656:661   */\n      dup4\n        /* \"#utility.yul\":652:666   */\n      add\n        /* \"#utility.yul\":648:676   */\n      and\n        /* \"#utility.yul\":638:676   */\n      swap1\n      pop\n        /* \"#utility.yul\":580:682   */\n      swap2\n      swap1\n      pop\n      jump\t// out\n        /* \"#utility.yul\":688:868   */\n    tag_82:\n        /* \"#utility.yul\":736:813   */\n      0x4e487b7100000000000000000000000000000000000000000000000000000000\n        /* \"#utility.yul\":733:734   */\n      0x00\n        /* \"#utility.yul\":726:814   */\n      mstore\n        /* \"#utility.yul\":833:837   */\n      0x41\n        /* \"#utility.yul\":830:831   */\n      0x04\n        /* \"#utility.yul\":823:838   */\n      mstore\n        /* \"#utility.yul\":857:861   */\n      0x24\n        /* \"#utility.yul\":854:855   */\n      0x00\n        /* \"#utility.yul\":847:862   */\n      revert\n        /* \"#utility.yul\":874:1155   */\n    tag_83:\n        /* \"#utility.yul\":957:984   */\n      tag_146\n        /* \"#utility.yul\":979:983   */\n      dup3\n        /* \"#utility.yul\":957:984   */\n      tag_81\n      jump\t// in\n    tag_146:\n        /* \"#utility.yul\":949:955   */\n      dup2\n        /* \"#utility.yul\":945:985   */\n      add\n        /* \"#utility.yul\":1087:1093   */\n      dup2\n        /* \"#utility.yul\":1075:1085   */\n      dup2\n        /* \"#utility.yul\":1072:1094   */\n      lt\n        /* \"#utility.yul\":1051:1069   */\n      0xffffffffffffffff\n        /* \"#utility.yul\":1039:1049   */\n      dup3\n        /* \"#utility.yul\":1036:1070   */\n      gt\n        /* \"#utility.yul\":1033:1095   */\n      or\n        /* \"#utility.yul\":1030:1118   */\n      iszero\n      tag_147\n      jumpi\n        /* \"#utility.yul\":1098:1116   */\n      tag_148\n      tag_82\n      jump\t// in\n    tag_148:\n        /* \"#utility.yul\":1030:1118   */\n    tag_147:\n        /* \"#utility.yul\":1138:1148   */\n      dup1\n        /* \"#utility.yul\":1134:1136   */\n      0x40\n        /* \"#utility.yul\":1127:1149   */\n      mstore\n        /* \"#utility.yul\":917:1155   */\n      pop\n        /* \"#utility.yul\":874:1155   */\n      pop\n      pop\n      jump\t// out\n        /* \"#utility.yul\":1161:1290   */\n    tag_84:\n        /* \"#utility.yul\":1195:1201   */\n      0x00\n        /* \"#utility.yul\":1222:1242   */\n      tag_150\n      tag_76\n      jump\t// in\n    tag_150:\n        /* \"#utility.yul\":1212:1242   */\n      swap1\n      pop\n        /* \"#utility.yul\":1251:1284   */\n      tag_151\n        /* \"#utility.yul\":1279:1283   */\n      dup3\n        /* \"#utility.yul\":1271:1277   */\n      dup3\n        /* \"#utility.yul\":1251:1284   */\n      tag_83\n      jump\t// in\n    tag_151:\n        /* \"#utility.yul\":1161:1290   */\n      swap2\n      swap1\n      pop\n      jump\t// out\n        /* \"#utility.yul\":1296:1604   */\n    tag_85:\n        /* \"#utility.yul\":1358:1362   */\n      0x00\n        /* \"#utility.yul\":1448:1466   */\n      0xffffffffffffffff\n        /* \"#utility.yul\":1440:1446   */\n      dup3\n        /* \"#utility.yul\":1437:1467   */\n      gt\n        /* \"#utility.yul\":1434:1490   */\n      iszero\n      tag_153\n      jumpi\n        /* \"#utility.yul\":1470:1488   */\n      tag_154\n      tag_82\n      jump\t// in\n    tag_154:\n        /* \"#utility.yul\":1434:1490   */\n    tag_153:\n        /* \"#utility.yul\":1508:1537   */\n      tag_155\n        /* \"#utility.yul\":1530:1536   */\n      dup3\n        /* \"#utility.yul\":1508:1537   */\n      tag_81\n      jump\t// in\n    tag_155:\n        /* \"#utility.yul\":1500:1537   */\n      swap1\n      pop\n        /* \"#utility.yul\":1592:1596   */\n      0x20\n        /* \"#utility.yul\":1586:1590   */\n      dup2\n        /* \"#utility.yul\":1582:1597   */\n      add\n        /* \"#utility.yul\":1574:1597   */\n      swap1\n      pop\n        /* \"#utility.yul\":1296:1604   */\n      swap2\n      swap1\n      pop\n      jump\t// out\n        /* \"#utility.yul\":1610:1756   */\n    tag_86:\n        /* \"#utility.yul\":1707:1713   */\n      dup3\n        /* \"#utility.yul\":1702:1705   */\n      dup2\n        /* \"#utility.yul\":1697:1700   */\n      dup4\n        /* \"#utility.yul\":1684:1714   */\n      calldatacopy\n        /* \"#utility.yul\":1748:1749   */\n      0x00\n        /* \"#utility.yul\":1739:1745   */\n      dup4\n        /* \"#utility.yul\":1734:1737   */\n      dup4\n        /* \"#utility.yul\":1730:1746   */\n      add\n        /* \"#utility.yul\":1723:1750   */\n      mstore\n        /* \"#utility.yul\":1610:1756   */\n      pop\n      pop\n      pop\n      jump\t// out\n        /* \"#utility.yul\":1762:2187   */\n    tag_87:\n        /* \"#utility.yul\":1840:1845   */\n      0x00\n        /* \"#utility.yul\":1865:1931   */\n      tag_158\n        /* \"#utility.yul\":1881:1930   */\n      tag_159\n        /* \"#utility.yul\":1923:1929   */\n      dup5\n        /* \"#utility.yul\":1881:1930   */\n      tag_85\n      jump\t// in\n    tag_159:\n        /* \"#utility.yul\":1865:1931   */\n      tag_84\n      jump\t// in\n    tag_158:\n        /* \"#utility.yul\":1856:1931   */\n      swap1\n      pop\n        /* \"#utility.yul\":1954:1960   */\n      dup3\n        /* \"#utility.yul\":1947:1952   */\n      dup2\n        /* \"#utility.yul\":1940:1961   */\n      mstore\n        /* \"#utility.yul\":1992:1996   */\n      0x20\n        /* \"#utility.yul\":1985:1990   */\n      dup2\n        /* \"#utility.yul\":1981:1997   */\n      add\n        /* \"#utility.yul\":2030:2033   */\n      dup5\n        /* \"#utility.yul\":2021:2027   */\n      dup5\n        /* \"#utility.yul\":2016:2019   */\n      dup5\n        /* \"#utility.yul\":2012:2028   */\n      add\n        /* \"#utility.yul\":2009:2034   */\n      gt\n        /* \"#utility.yul\":2006:2118   */\n      iszero\n      tag_160\n      jumpi\n        /* \"#utility.yul\":2037:2116   */\n      tag_161\n      tag_80\n      jump\t// in\n    tag_161:\n        /* \"#utility.yul\":2006:2118   */\n    tag_160:\n        /* \"#utility.yul\":2127:2181   */\n      tag_162\n        /* \"#utility.yul\":2174:2180   */\n      dup5\n        /* \"#utility.yul\":2169:2172   */\n      dup3\n        /* \"#utility.yul\":2164:2167   */\n      dup6\n        /* \"#utility.yul\":2127:2181   */\n      tag_86\n      jump\t// in\n    tag_162:\n        /* \"#utility.yul\":1846:2187   */\n      pop\n        /* \"#utility.yul\":1762:2187   */\n      swap4\n      swap3\n      pop\n      pop\n      pop\n      jump\t// out\n        /* \"#utility.yul\":2207:2547   */\n    tag_88:\n        /* \"#utility.yul\":2263:2268   */\n      0x00\n        /* \"#utility.yul\":2312:2315   */\n      dup3\n        /* \"#utility.yul\":2305:2309   */\n      0x1f\n        /* \"#utility.yul\":2297:2303   */\n      dup4\n        /* \"#utility.yul\":2293:2310   */\n      add\n        /* \"#utility.yul\":2289:2316   */\n      slt\n        /* \"#utility.yul\":2279:2401   */\n      tag_164\n      jumpi\n        /* \"#utility.yul\":2320:2399   */\n      tag_165\n      tag_79\n      jump\t// in\n    tag_165:\n        /* \"#utility.yul\":2279:2401   */\n    tag_164:\n        /* \"#utility.yul\":2437:2443   */\n      dup2\n        /* \"#utility.yul\":2424:2444   */\n      calldataload\n        /* \"#utility.yul\":2462:2541   */\n      tag_166\n        /* \"#utility.yul\":2537:2540   */\n      dup5\n        /* \"#utility.yul\":2529:2535   */\n      dup3\n        /* \"#utility.yul\":2522:2526   */\n      0x20\n        /* \"#utility.yul\":2514:2520   */\n      dup7\n        /* \"#utility.yul\":2510:2527   */\n      add\n        /* \"#utility.yul\":2462:2541   */\n      tag_87\n      jump\t// in\n    tag_166:\n        /* \"#utility.yul\":2453:2541   */\n      swap2\n      pop\n        /* \"#utility.yul\":2269:2547   */\n      pop\n        /* \"#utility.yul\":2207:2547   */\n      swap3\n      swap2\n      pop\n      pop\n      jump\t// out\n        /* \"#utility.yul\":2553:2630   */\n    tag_89:\n        /* \"#utility.yul\":2590:2597   */\n      0x00\n        /* \"#utility.yul\":2619:2624   */\n      dup2\n        /* \"#utility.yul\":2608:2624   */\n      swap1\n      pop\n        /* \"#utility.yul\":2553:2630   */\n      swap2\n      swap1\n      pop\n      jump\t// out\n        /* \"#utility.yul\":2636:2758   */\n    tag_90:\n        /* \"#utility.yul\":2709:2733   */\n      tag_169\n        /* \"#utility.yul\":2727:2732   */\n      dup2\n        /* \"#utility.yul\":2709:2733   */\n      tag_89\n      jump\t// in\n    tag_169:\n        /* \"#utility.yul\":2702:2707   */\n      dup2\n        /* \"#utility.yul\":2699:2734   */\n      eq\n        /* \"#utility.yul\":2689:2752   */\n      tag_170\n      jumpi\n        /* \"#utility.yul\":2748:2749   */\n      0x00\n        /* \"#utility.yul\":2745:2746   */\n      dup1\n        /* \"#utility.yul\":2738:2750   */\n      revert\n        /* \"#utility.yul\":2689:2752   */\n    tag_170:\n        /* \"#utility.yul\":2636:2758   */\n      pop\n      jump\t// out\n        /* \"#utility.yul\":2764:2903   */\n    tag_91:\n        /* \"#utility.yul\":2810:2815   */\n      0x00\n        /* \"#utility.yul\":2848:2854   */\n      dup2\n        /* \"#utility.yul\":2835:2855   */\n      calldataload\n        /* \"#utility.yul\":2826:2855   */\n      swap1\n      pop\n        /* \"#utility.yul\":2864:2897   */\n      tag_172\n        /* \"#utility.yul\":2891:2896   */\n      dup2\n        /* \"#utility.yul\":2864:2897   */\n      tag_90\n      jump\t// in\n    tag_172:\n        /* \"#utility.yul\":2764:2903   */\n      swap3\n      swap2\n      pop\n      pop\n      jump\t// out\n        /* \"#utility.yul\":2909:3020   */\n    tag_92:\n        /* \"#utility.yul\":2994:2995   */\n      0x03\n        /* \"#utility.yul\":2987:2992   */\n      dup2\n        /* \"#utility.yul\":2984:2996   */\n      lt\n        /* \"#utility.yul\":2974:3014   */\n      tag_174\n      jumpi\n        /* \"#utility.yul\":3010:3011   */\n      0x00\n        /* \"#utility.yul\":3007:3008   */\n      dup1\n        /* \"#utility.yul\":3000:3012   */\n      revert\n        /* \"#utility.yul\":2974:3014   */\n    tag_174:\n        /* \"#utility.yul\":2909:3020   */\n      pop\n      jump\t// out\n        /* \"#utility.yul\":3026:3189   */\n    tag_93:\n        /* \"#utility.yul\":3084:3089   */\n      0x00\n        /* \"#utility.yul\":3122:3128   */\n      dup2\n        /* \"#utility.yul\":3109:3129   */\n      calldataload\n        /* \"#utility.yul\":3100:3129   */\n      swap1\n      pop\n        /* \"#utility.yul\":3138:3183   */\n      tag_176\n        /* \"#utility.yul\":3177:3182   */\n      dup2\n        /* \"#utility.yul\":3138:3183   */\n      tag_92\n      jump\t// in\n    tag_176:\n        /* \"#utility.yul\":3026:3189   */\n      swap3\n      swap2\n      pop\n      pop\n      jump\t// out\n        /* \"#utility.yul\":3195:3272   */\n    tag_94:\n        /* \"#utility.yul\":3232:3239   */\n      0x00\n        /* \"#utility.yul\":3261:3266   */\n      dup2\n        /* \"#utility.yul\":3250:3266   */\n      swap1\n      pop\n        /* \"#utility.yul\":3195:3272   */\n      swap2\n      swap1\n      pop\n      jump\t// out\n        /* \"#utility.yul\":3278:3400   */\n    tag_95:\n        /* \"#utility.yul\":3351:3375   */\n      tag_179\n        /* \"#utility.yul\":3369:3374   */\n      dup2\n        /* \"#utility.yul\":3351:3375   */\n      tag_94\n      jump\t// in\n    tag_179:\n        /* \"#utility.yul\":3344:3349   */\n      dup2\n        /* \"#utility.yul\":3341:3376   */\n      eq\n        /* \"#utility.yul\":3331:3394   */\n      tag_180\n      jumpi\n        /* \"#utility.yul\":3390:3391   */\n      0x00\n        /* \"#utility.yul\":3387:3388   */\n      dup1\n        /* \"#utility.yul\":3380:3392   */\n      revert\n        /* \"#utility.yul\":3331:3394   */\n    tag_180:\n        /* \"#utility.yul\":3278:3400   */\n      pop\n      jump\t// out\n        /* \"#utility.yul\":3406:3545   */\n    tag_96:\n        /* \"#utility.yul\":3452:3457   */\n      0x00\n        /* \"#utility.yul\":3490:3496   */\n      dup2\n        /* \"#utility.yul\":3477:3497   */\n      calldataload\n        /* \"#utility.yul\":3468:3497   */\n      swap1\n      pop\n        /* \"#utility.yul\":3506:3539   */\n      tag_182\n        /* \"#utility.yul\":3533:3538   */\n      dup2\n        /* \"#utility.yul\":3506:3539   */\n      tag_95\n      jump\t// in\n    tag_182:\n        /* \"#utility.yul\":3406:3545   */\n      swap3\n      swap2\n      pop\n      pop\n      jump\t// out\n        /* \"#utility.yul\":3551:4992   */\n    tag_11:\n        /* \"#utility.yul\":3687:3693   */\n      0x00\n        /* \"#utility.yul\":3695:3701   */\n      dup1\n        /* \"#utility.yul\":3703:3709   */\n      0x00\n        /* \"#utility.yul\":3711:3717   */\n      dup1\n        /* \"#utility.yul\":3719:3725   */\n      0x00\n        /* \"#utility.yul\":3727:3733   */\n      dup1\n        /* \"#utility.yul\":3776:3779   */\n      0xc0\n        /* \"#utility.yul\":3764:3773   */\n      dup8\n        /* \"#utility.yul\":3755:3762   */\n      dup10\n        /* \"#utility.yul\":3751:3774   */\n      sub\n        /* \"#utility.yul\":3747:3780   */\n      slt\n        /* \"#utility.yul\":3744:3864   */\n      iszero\n      tag_184\n      jumpi\n        /* \"#utility.yul\":3783:3862   */\n      tag_185\n      tag_77\n      jump\t// in\n    tag_185:\n        /* \"#utility.yul\":3744:3864   */\n    tag_184:\n        /* \"#utility.yul\":3931:3932   */\n      0x00\n        /* \"#utility.yul\":3920:3929   */\n      dup8\n        /* \"#utility.yul\":3916:3933   */\n      add\n        /* \"#utility.yul\":3903:3934   */\n      calldataload\n        /* \"#utility.yul\":3961:3979   */\n      0xffffffffffffffff\n        /* \"#utility.yul\":3953:3959   */\n      dup2\n        /* \"#utility.yul\":3950:3980   */\n      gt\n        /* \"#utility.yul\":3947:4064   */\n      iszero\n      tag_186\n      jumpi\n        /* \"#utility.yul\":3983:4062   */\n      tag_187\n      tag_78\n      jump\t// in\n    tag_187:\n        /* \"#utility.yul\":3947:4064   */\n    tag_186:\n        /* \"#utility.yul\":4088:4151   */\n      tag_188\n        /* \"#utility.yul\":4143:4150   */\n      dup10\n        /* \"#utility.yul\":4134:4140   */\n      dup3\n        /* \"#utility.yul\":4123:4132   */\n      dup11\n        /* \"#utility.yul\":4119:4141   */\n      add\n        /* \"#utility.yul\":4088:4151   */\n      tag_88\n      jump\t// in\n    tag_188:\n        /* \"#utility.yul\":4078:4151   */\n      swap7\n      pop\n        /* \"#utility.yul\":3874:4161   */\n      pop\n        /* \"#utility.yul\":4228:4230   */\n      0x20\n        /* \"#utility.yul\":4217:4226   */\n      dup8\n        /* \"#utility.yul\":4213:4231   */\n      add\n        /* \"#utility.yul\":4200:4232   */\n      calldataload\n        /* \"#utility.yul\":4259:4277   */\n      0xffffffffffffffff\n        /* \"#utility.yul\":4251:4257   */\n      dup2\n        /* \"#utility.yul\":4248:4278   */\n      gt\n        /* \"#utility.yul\":4245:4362   */\n      iszero\n      tag_189\n      jumpi\n        /* \"#utility.yul\":4281:4360   */\n      tag_190\n      tag_78\n      jump\t// in\n    tag_190:\n        /* \"#utility.yul\":4245:4362   */\n    tag_189:\n        /* \"#utility.yul\":4386:4449   */\n      tag_191\n        /* \"#utility.yul\":4441:4448   */\n      dup10\n        /* \"#utility.yul\":4432:4438   */\n      dup3\n        /* \"#utility.yul\":4421:4430   */\n      dup11\n        /* \"#utility.yul\":4417:4439   */\n      add\n        /* \"#utility.yul\":4386:4449   */\n      tag_88\n      jump\t// in\n    tag_191:\n        /* \"#utility.yul\":4376:4449   */\n      swap6\n      pop\n        /* \"#utility.yul\":4171:4459   */\n      pop\n        /* \"#utility.yul\":4498:4500   */\n      0x40\n        /* \"#utility.yul\":4524:4577   */\n      tag_192\n        /* \"#utility.yul\":4569:4576   */\n      dup10\n        /* \"#utility.yul\":4560:4566   */\n      dup3\n        /* \"#utility.yul\":4549:4558   */\n      dup11\n        /* \"#utility.yul\":4545:4567   */\n      add\n        /* \"#utility.yul\":4524:4577   */\n      tag_91\n      jump\t// in\n    tag_192:\n        /* \"#utility.yul\":4514:4577   */\n      swap5\n      pop\n        /* \"#utility.yul\":4469:4587   */\n      pop\n        /* \"#utility.yul\":4626:4628   */\n      0x60\n        /* \"#utility.yul\":4652:4717   */\n      tag_193\n        /* \"#utility.yul\":4709:4716   */\n      dup10\n        /* \"#utility.yul\":4700:4706   */\n      dup3\n        /* \"#utility.yul\":4689:4698   */\n      dup11\n        /* \"#utility.yul\":4685:4707   */\n      add\n        /* \"#utility.yul\":4652:4717   */\n      tag_93\n      jump\t// in\n    tag_193:\n        /* \"#utility.yul\":4642:4717   */\n      swap4\n      pop\n        /* \"#utility.yul\":4597:4727   */\n      pop\n        /* \"#utility.yul\":4766:4769   */\n      0x80\n        /* \"#utility.yul\":4793:4846   */\n      tag_194\n        /* \"#utility.yul\":4838:4845   */\n      dup10\n        /* \"#utility.yul\":4829:4835   */\n      dup3\n        /* \"#utility.yul\":4818:4827   */\n      dup11\n        /* \"#utility.yul\":4814:4836   */\n      add\n        /* \"#utility.yul\":4793:4846   */\n      tag_91\n      jump\t// in\n    tag_194:\n        /* \"#utility.yul\":4783:4846   */\n      swap3\n      pop\n        /* \"#utility.yul\":4737:4856   */\n      pop\n        /* \"#utility.yul\":4895:4898   */\n      0xa0\n        /* \"#utility.yul\":4922:4975   */\n      tag_195\n        /* \"#utility.yul\":4967:4974   */\n      dup10\n        /* \"#utility.yul\":4958:4964   */\n      dup3\n        /* \"#utility.yul\":4947:4956   */\n      dup11\n        /* \"#utility.yul\":4943:4965   */\n      add\n        /* \"#utility.yul\":4922:4975   */\n      tag_96\n      jump\t// in\n    tag_195:\n        /* \"#utility.yul\":4912:4975   */\n      swap2\n      pop\n        /* \"#utility.yul\":4866:4985   */\n      pop\n        /* \"#utility.yul\":3551:4992   */\n      swap3\n      swap6\n      pop\n      swap3\n      swap6\n      pop\n      swap3\n      swap6\n      jump\t// out\n        /* \"#utility.yul\":4998:5116   */\n    tag_97:\n        /* \"#utility.yul\":5085:5109   */\n      tag_197\n        /* \"#utility.yul\":5103:5108   */\n      dup2\n        /* \"#utility.yul\":5085:5109   */\n      tag_89\n      jump\t// in\n    tag_197:\n        /* \"#utility.yul\":5080:5083   */\n      dup3\n        /* \"#utility.yul\":5073:5110   */\n      mstore\n        /* \"#utility.yul\":4998:5116   */\n      pop\n      pop\n      jump\t// out\n        /* \"#utility.yul\":5122:5344   */\n    tag_16:\n        /* \"#utility.yul\":5215:5219   */\n      0x00\n        /* \"#utility.yul\":5253:5255   */\n      0x20\n        /* \"#utility.yul\":5242:5251   */\n      dup3\n        /* \"#utility.yul\":5238:5256   */\n      add\n        /* \"#utility.yul\":5230:5256   */\n      swap1\n      pop\n        /* \"#utility.yul\":5266:5337   */\n      tag_199\n        /* \"#utility.yul\":5334:5335   */\n      0x00\n        /* \"#utility.yul\":5323:5332   */\n      dup4\n        /* \"#utility.yul\":5319:5336   */\n      add\n        /* \"#utility.yul\":5310:5316   */\n      dup5\n        /* \"#utility.yul\":5266:5337   */\n      tag_97\n      jump\t// in\n    tag_199:\n        /* \"#utility.yul\":5122:5344   */\n      swap3\n      swap2\n      pop\n      pop\n      jump\t// out\n        /* \"#utility.yul\":5350:6655   */\n    tag_22:\n        /* \"#utility.yul\":5466:5472   */\n      0x00\n        /* \"#utility.yul\":5474:5480   */\n      dup1\n        /* \"#utility.yul\":5482:5488   */\n      0x00\n        /* \"#utility.yul\":5490:5496   */\n      dup1\n        /* \"#utility.yul\":5539:5542   */\n      0x80\n        /* \"#utility.yul\":5527:5536   */\n      dup6\n        /* \"#utility.yul\":5518:5525   */\n      dup8\n        /* \"#utility.yul\":5514:5537   */\n      sub\n        /* \"#utility.yul\":5510:5543   */\n      slt\n        /* \"#utility.yul\":5507:5627   */\n      iszero\n      tag_201\n      jumpi\n        /* \"#utility.yul\":5546:5625   */\n      tag_202\n      tag_77\n      jump\t// in\n    tag_202:\n        /* \"#utility.yul\":5507:5627   */\n    tag_201:\n        /* \"#utility.yul\":5666:5667   */\n      0x00\n        /* \"#utility.yul\":5691:5744   */\n      tag_203\n        /* \"#utility.yul\":5736:5743   */\n      dup8\n        /* \"#utility.yul\":5727:5733   */\n      dup3\n        /* \"#utility.yul\":5716:5725   */\n      dup9\n        /* \"#utility.yul\":5712:5734   */\n      add\n        /* \"#utility.yul\":5691:5744   */\n      tag_91\n      jump\t// in\n    tag_203:\n        /* \"#utility.yul\":5681:5744   */\n      swap5\n      pop\n        /* \"#utility.yul\":5637:5754   */\n      pop\n        /* \"#utility.yul\":5821:5823   */\n      0x20\n        /* \"#utility.yul\":5810:5819   */\n      dup6\n        /* \"#utility.yul\":5806:5824   */\n      add\n        /* \"#utility.yul\":5793:5825   */\n      calldataload\n        /* \"#utility.yul\":5852:5870   */\n      0xffffffffffffffff\n        /* \"#utility.yul\":5844:5850   */\n      dup2\n        /* \"#utility.yul\":5841:5871   */\n      gt\n        /* \"#utility.yul\":5838:5955   */\n      iszero\n      tag_204\n      jumpi\n        /* \"#utility.yul\":5874:5953   */\n      tag_205\n      tag_78\n      jump\t// in\n    tag_205:\n        /* \"#utility.yul\":5838:5955   */\n    tag_204:\n        /* \"#utility.yul\":5979:6042   */\n      tag_206\n        /* \"#utility.yul\":6034:6041   */\n      dup8\n        /* \"#utility.yul\":6025:6031   */\n      dup3\n        /* \"#utility.yul\":6014:6023   */\n      dup9\n        /* \"#utility.yul\":6010:6032   */\n      add\n        /* \"#utility.yul\":5979:6042   */\n      tag_88\n      jump\t// in\n    tag_206:\n        /* \"#utility.yul\":5969:6042   */\n      swap4\n      pop\n        /* \"#utility.yul\":5764:6052   */\n      pop\n        /* \"#utility.yul\":6119:6121   */\n      0x40\n        /* \"#utility.yul\":6108:6117   */\n      dup6\n        /* \"#utility.yul\":6104:6122   */\n      add\n        /* \"#utility.yul\":6091:6123   */\n      calldataload\n        /* \"#utility.yul\":6150:6168   */\n      0xffffffffffffffff\n        /* \"#utility.yul\":6142:6148   */\n      dup2\n        /* \"#utility.yul\":6139:6169   */\n      gt\n        /* \"#utility.yul\":6136:6253   */\n      iszero\n      tag_207\n      jumpi\n        /* \"#utility.yul\":6172:6251   */\n      tag_208\n      tag_78\n      jump\t// in\n    tag_208:\n        /* \"#utility.yul\":6136:6253   */\n    tag_207:\n        /* \"#utility.yul\":6277:6340   */\n      tag_209\n        /* \"#utility.yul\":6332:6339   */\n      dup8\n        /* \"#utility.yul\":6323:6329   */\n      dup3\n        /* \"#utility.yul\":6312:6321   */\n      dup9\n        /* \"#utility.yul\":6308:6330   */\n      add\n        /* \"#utility.yul\":6277:6340   */\n      tag_88\n      jump\t// in\n    tag_209:\n        /* \"#utility.yul\":6267:6340   */\n      swap3\n      pop\n        /* \"#utility.yul\":6062:6350   */\n      pop\n        /* \"#utility.yul\":6417:6419   */\n      0x60\n        /* \"#utility.yul\":6406:6415   */\n      dup6\n        /* \"#utility.yul\":6402:6420   */\n      add\n        /* \"#utility.yul\":6389:6421   */\n      calldataload\n        /* \"#utility.yul\":6448:6466   */\n      0xffffffffffffffff\n        /* \"#utility.yul\":6440:6446   */\n      dup2\n        /* \"#utility.yul\":6437:6467   */\n      gt\n        /* \"#utility.yul\":6434:6551   */\n      iszero\n      tag_210\n      jumpi\n        /* \"#utility.yul\":6470:6549   */\n      tag_211\n      tag_78\n      jump\t// in\n    tag_211:\n        /* \"#utility.yul\":6434:6551   */\n    tag_210:\n        /* \"#utility.yul\":6575:6638   */\n      tag_212\n        /* \"#utility.yul\":6630:6637   */\n      dup8\n        /* \"#utility.yul\":6621:6627   */\n      dup3\n        /* \"#utility.yul\":6610:6619   */\n      dup9\n        /* \"#utility.yul\":6606:6628   */\n      add\n        /* \"#utility.yul\":6575:6638   */\n      tag_88\n      jump\t// in\n    tag_212:\n        /* \"#utility.yul\":6565:6638   */\n      swap2\n      pop\n        /* \"#utility.yul\":6360:6648   */\n      pop\n        /* \"#utility.yul\":5350:6655   */\n      swap3\n      swap6\n      swap2\n      swap5\n      pop\n      swap3\n      pop\n      jump\t// out\n        /* \"#utility.yul\":6661:6779   */\n    tag_98:\n        /* \"#utility.yul\":6748:6772   */\n      tag_214\n        /* \"#utility.yul\":6766:6771   */\n      dup2\n        /* \"#utility.yul\":6748:6772   */\n      tag_94\n      jump\t// in\n    tag_214:\n        /* \"#utility.yul\":6743:6746   */\n      dup3\n        /* \"#utility.yul\":6736:6773   */\n      mstore\n        /* \"#utility.yul\":6661:6779   */\n      pop\n      pop\n      jump\t// out\n        /* \"#utility.yul\":6785:7007   */\n    tag_25:\n        /* \"#utility.yul\":6878:6882   */\n      0x00\n        /* \"#utility.yul\":6916:6918   */\n      0x20\n        /* \"#utility.yul\":6905:6914   */\n      dup3\n        /* \"#utility.yul\":6901:6919   */\n      add\n        /* \"#utility.yul\":6893:6919   */\n      swap1\n      pop\n        /* \"#utility.yul\":6929:7000   */\n      tag_216\n        /* \"#utility.yul\":6997:6998   */\n      0x00\n        /* \"#utility.yul\":6986:6995   */\n      dup4\n        /* \"#utility.yul\":6982:6999   */\n      add\n        /* \"#utility.yul\":6973:6979   */\n      dup5\n        /* \"#utility.yul\":6929:7000   */\n      tag_98\n      jump\t// in\n    tag_216:\n        /* \"#utility.yul\":6785:7007   */\n      swap3\n      swap2\n      pop\n      pop\n      jump\t// out\n        /* \"#utility.yul\":7013:7139   */\n    tag_99:\n        /* \"#utility.yul\":7050:7057   */\n      0x00\n        /* \"#utility.yul\":7090:7132   */\n      0xffffffffffffffffffffffffffffffffffffffff\n        /* \"#utility.yul\":7083:7088   */\n      dup3\n        /* \"#utility.yul\":7079:7133   */\n      and\n        /* \"#utility.yul\":7068:7133   */\n      swap1\n      pop\n        /* \"#utility.yul\":7013:7139   */\n      swap2\n      swap1\n      pop\n      jump\t// out\n        /* \"#utility.yul\":7145:7241   */\n    tag_100:\n        /* \"#utility.yul\":7182:7189   */\n      0x00\n        /* \"#utility.yul\":7211:7235   */\n      tag_219\n        /* \"#utility.yul\":7229:7234   */\n      dup3\n        /* \"#utility.yul\":7211:7235   */\n      tag_99\n      jump\t// in\n    tag_219:\n        /* \"#utility.yul\":7200:7235   */\n      swap1\n      pop\n        /* \"#utility.yul\":7145:7241   */\n      swap2\n      swap1\n      pop\n      jump\t// out\n        /* \"#utility.yul\":7247:7365   */\n    tag_101:\n        /* \"#utility.yul\":7334:7358   */\n      tag_221\n        /* \"#utility.yul\":7352:7357   */\n      dup2\n        /* \"#utility.yul\":7334:7358   */\n      tag_100\n      jump\t// in\n    tag_221:\n        /* \"#utility.yul\":7329:7332   */\n      dup3\n        /* \"#utility.yul\":7322:7359   */\n      mstore\n        /* \"#utility.yul\":7247:7365   */\n      pop\n      pop\n      jump\t// out\n        /* \"#utility.yul\":7371:7593   */\n    tag_29:\n        /* \"#utility.yul\":7464:7468   */\n      0x00\n        /* \"#utility.yul\":7502:7504   */\n      0x20\n        /* \"#utility.yul\":7491:7500   */\n      dup3\n        /* \"#utility.yul\":7487:7505   */\n      add\n        /* \"#utility.yul\":7479:7505   */\n      swap1\n      pop\n        /* \"#utility.yul\":7515:7586   */\n      tag_223\n        /* \"#utility.yul\":7583:7584   */\n      0x00\n        /* \"#utility.yul\":7572:7581   */\n      dup4\n        /* \"#utility.yul\":7568:7585   */\n      add\n        /* \"#utility.yul\":7559:7565   */\n      dup5\n        /* \"#utility.yul\":7515:7586   */\n      tag_101\n      jump\t// in\n    tag_223:\n        /* \"#utility.yul\":7371:7593   */\n      swap3\n      swap2\n      pop\n      pop\n      jump\t// out\n        /* \"#utility.yul\":7599:7928   */\n    tag_32:\n        /* \"#utility.yul\":7658:7664   */\n      0x00\n        /* \"#utility.yul\":7707:7709   */\n      0x20\n        /* \"#utility.yul\":7695:7704   */\n      dup3\n        /* \"#utility.yul\":7686:7693   */\n      dup5\n        /* \"#utility.yul\":7682:7705   */\n      sub\n        /* \"#utility.yul\":7678:7710   */\n      slt\n        /* \"#utility.yul\":7675:7794   */\n      iszero\n      tag_225\n      jumpi\n        /* \"#utility.yul\":7713:7792   */\n      tag_226\n      tag_77\n      jump\t// in\n    tag_226:\n        /* \"#utility.yul\":7675:7794   */\n    tag_225:\n        /* \"#utility.yul\":7833:7834   */\n      0x00\n        /* \"#utility.yul\":7858:7911   */\n      tag_227\n        /* \"#utility.yul\":7903:7910   */\n      dup5\n        /* \"#utility.yul\":7894:7900   */\n      dup3\n        /* \"#utility.yul\":7883:7892   */\n      dup6\n        /* \"#utility.yul\":7879:7901   */\n      add\n        /* \"#utility.yul\":7858:7911   */\n      tag_91\n      jump\t// in\n    tag_227:\n        /* \"#utility.yul\":7848:7911   */\n      swap2\n      pop\n        /* \"#utility.yul\":7804:7921   */\n      pop\n        /* \"#utility.yul\":7599:7928   */\n      swap3\n      swap2\n      pop\n      pop\n      jump\t// out\n        /* \"#utility.yul\":7934:8033   */\n    tag_102:\n        /* \"#utility.yul\":7986:7992   */\n      0x00\n        /* \"#utility.yul\":8020:8025   */\n      dup2\n        /* \"#utility.yul\":8014:8026   */\n      mload\n        /* \"#utility.yul\":8004:8026   */\n      swap1\n      pop\n        /* \"#utility.yul\":7934:8033   */\n      swap2\n      swap1\n      pop\n      jump\t// out\n        /* \"#utility.yul\":8039:8198   */\n    tag_103:\n        /* \"#utility.yul\":8113:8124   */\n      0x00\n        /* \"#utility.yul\":8147:8153   */\n      dup3\n        /* \"#utility.yul\":8142:8145   */\n      dup3\n        /* \"#utility.yul\":8135:8154   */\n      mstore\n        /* \"#utility.yul\":8187:8191   */\n      0x20\n        /* \"#utility.yul\":8182:8185   */\n      dup3\n        /* \"#utility.yul\":8178:8192   */\n      add\n        /* \"#utility.yul\":8163:8192   */\n      swap1\n      pop\n        /* \"#utility.yul\":8039:8198   */\n      swap3\n      swap2\n      pop\n      pop\n      jump\t// out\n        /* \"#utility.yul\":8204:8450   */\n    tag_104:\n        /* \"#utility.yul\":8285:8286   */\n      0x00\n        /* \"#utility.yul\":8295:8408   */\n    tag_231:\n        /* \"#utility.yul\":8309:8315   */\n      dup4\n        /* \"#utility.yul\":8306:8307   */\n      dup2\n        /* \"#utility.yul\":8303:8316   */\n      lt\n        /* \"#utility.yul\":8295:8408   */\n      iszero\n      tag_233\n      jumpi\n        /* \"#utility.yul\":8394:8395   */\n      dup1\n        /* \"#utility.yul\":8389:8392   */\n      dup3\n        /* \"#utility.yul\":8385:8396   */\n      add\n        /* \"#utility.yul\":8379:8397   */\n      mload\n        /* \"#utility.yul\":8375:8376   */\n      dup2\n        /* \"#utility.yul\":8370:8373   */\n      dup5\n        /* \"#utility.yul\":8366:8377   */\n      add\n        /* \"#utility.yul\":8359:8398   */\n      mstore\n        /* \"#utility.yul\":8331:8333   */\n      0x20\n        /* \"#utility.yul\":8328:8329   */\n      dup2\n        /* \"#utility.yul\":8324:8334   */\n      add\n        /* \"#utility.yul\":8319:8334   */\n      swap1\n      pop\n        /* \"#utility.yul\":8295:8408   */\n      jump(tag_231)\n    tag_233:\n        /* \"#utility.yul\":8442:8443   */\n      0x00\n        /* \"#utility.yul\":8433:8439   */\n      dup5\n        /* \"#utility.yul\":8428:8431   */\n      dup5\n        /* \"#utility.yul\":8424:8440   */\n      add\n        /* \"#utility.yul\":8417:8444   */\n      mstore\n        /* \"#utility.yul\":8266:8450   */\n      pop\n        /* \"#utility.yul\":8204:8450   */\n      pop\n      pop\n      pop\n      jump\t// out\n        /* \"#utility.yul\":8456:8813   */\n    tag_105:\n        /* \"#utility.yul\":8534:8537   */\n      0x00\n        /* \"#utility.yul\":8562:8601   */\n      tag_235\n        /* \"#utility.yul\":8595:8600   */\n      dup3\n        /* \"#utility.yul\":8562:8601   */\n      tag_102\n      jump\t// in\n    tag_235:\n        /* \"#utility.yul\":8617:8678   */\n      tag_236\n        /* \"#utility.yul\":8671:8677   */\n      dup2\n        /* \"#utility.yul\":8666:8669   */\n      dup6\n        /* \"#utility.yul\":8617:8678   */\n      tag_103\n      jump\t// in\n    tag_236:\n        /* \"#utility.yul\":8610:8678   */\n      swap4\n      pop\n        /* \"#utility.yul\":8687:8752   */\n      tag_237\n        /* \"#utility.yul\":8745:8751   */\n      dup2\n        /* \"#utility.yul\":8740:8743   */\n      dup6\n        /* \"#utility.yul\":8733:8737   */\n      0x20\n        /* \"#utility.yul\":8726:8731   */\n      dup7\n        /* \"#utility.yul\":8722:8738   */\n      add\n        /* \"#utility.yul\":8687:8752   */\n      tag_104\n      jump\t// in\n    tag_237:\n        /* \"#utility.yul\":8777:8806   */\n      tag_238\n        /* \"#utility.yul\":8799:8805   */\n      dup2\n        /* \"#utility.yul\":8777:8806   */\n      tag_81\n      jump\t// in\n    tag_238:\n        /* \"#utility.yul\":8772:8775   */\n      dup5\n        /* \"#utility.yul\":8768:8807   */\n      add\n        /* \"#utility.yul\":8761:8807   */\n      swap2\n      pop\n        /* \"#utility.yul\":8538:8813   */\n      pop\n        /* \"#utility.yul\":8456:8813   */\n      swap3\n      swap2\n      pop\n      pop\n      jump\t// out\n        /* \"#utility.yul\":8819:8927   */\n    tag_106:\n        /* \"#utility.yul\":8896:8920   */\n      tag_240\n        /* \"#utility.yul\":8914:8919   */\n      dup2\n        /* \"#utility.yul\":8896:8920   */\n      tag_89\n      jump\t// in\n    tag_240:\n        /* \"#utility.yul\":8891:8894   */\n      dup3\n        /* \"#utility.yul\":8884:8921   */\n      mstore\n        /* \"#utility.yul\":8819:8927   */\n      pop\n      pop\n      jump\t// out\n        /* \"#utility.yul\":8933:9113   */\n    tag_43:\n        /* \"#utility.yul\":8981:9058   */\n      0x4e487b7100000000000000000000000000000000000000000000000000000000\n        /* \"#utility.yul\":8978:8979   */\n      0x00\n        /* \"#utility.yul\":8971:9059   */\n      mstore\n        /* \"#utility.yul\":9078:9082   */\n      0x21\n        /* \"#utility.yul\":9075:9076   */\n      0x04\n        /* \"#utility.yul\":9068:9083   */\n      mstore\n        /* \"#utility.yul\":9102:9106   */\n      0x24\n        /* \"#utility.yul\":9099:9100   */\n      0x00\n        /* \"#utility.yul\":9092:9107   */\n      revert\n        /* \"#utility.yul\":9119:9236   */\n    tag_107:\n        /* \"#utility.yul\":9204:9205   */\n      0x03\n        /* \"#utility.yul\":9197:9202   */\n      dup2\n        /* \"#utility.yul\":9194:9206   */\n      lt\n        /* \"#utility.yul\":9184:9230   */\n      tag_243\n      jumpi\n        /* \"#utility.yul\":9210:9228   */\n      tag_244\n      tag_43\n      jump\t// in\n    tag_244:\n        /* \"#utility.yul\":9184:9230   */\n    tag_243:\n        /* \"#utility.yul\":9119:9236   */\n      pop\n      jump\t// out\n        /* \"#utility.yul\":9242:9377   */\n    tag_108:\n        /* \"#utility.yul\":9291:9298   */\n      0x00\n        /* \"#utility.yul\":9320:9325   */\n      dup2\n        /* \"#utility.yul\":9309:9325   */\n      swap1\n      pop\n        /* \"#utility.yul\":9326:9371   */\n      tag_246\n        /* \"#utility.yul\":9365:9370   */\n      dup3\n        /* \"#utility.yul\":9326:9371   */\n      tag_107\n      jump\t// in\n    tag_246:\n        /* \"#utility.yul\":9242:9377   */\n      swap2\n      swap1\n      pop\n      jump\t// out\n        /* \"#utility.yul\":9383:9518   */\n    tag_109:\n        /* \"#utility.yul\":9443:9452   */\n      0x00\n        /* \"#utility.yul\":9476:9512   */\n      tag_248\n        /* \"#utility.yul\":9506:9511   */\n      dup3\n        /* \"#utility.yul\":9476:9512   */\n      tag_108\n      jump\t// in\n    tag_248:\n        /* \"#utility.yul\":9463:9512   */\n      swap1\n      pop\n        /* \"#utility.yul\":9383:9518   */\n      swap2\n      swap1\n      pop\n      jump\t// out\n        /* \"#utility.yul\":9524:9665   */\n    tag_110:\n        /* \"#utility.yul\":9611:9658   */\n      tag_250\n        /* \"#utility.yul\":9652:9657   */\n      dup2\n        /* \"#utility.yul\":9611:9658   */\n      tag_109\n      jump\t// in\n    tag_250:\n        /* \"#utility.yul\":9606:9609   */\n      dup3\n        /* \"#utility.yul\":9599:9659   */\n      mstore\n        /* \"#utility.yul\":9524:9665   */\n      pop\n      pop\n      jump\t// out\n        /* \"#utility.yul\":9671:9779   */\n    tag_111:\n        /* \"#utility.yul\":9748:9772   */\n      tag_252\n        /* \"#utility.yul\":9766:9771   */\n      dup2\n        /* \"#utility.yul\":9748:9772   */\n      tag_94\n      jump\t// in\n    tag_252:\n        /* \"#utility.yul\":9743:9746   */\n      dup3\n        /* \"#utility.yul\":9736:9773   */\n      mstore\n        /* \"#utility.yul\":9671:9779   */\n      pop\n      pop\n      jump\t// out\n        /* \"#utility.yul\":9875:11313   */\n    tag_112:\n        /* \"#utility.yul\":9994:9997   */\n      0x00\n        /* \"#utility.yul\":10030:10034   */\n      0xc0\n        /* \"#utility.yul\":10025:10028   */\n      dup4\n        /* \"#utility.yul\":10021:10035   */\n      add\n        /* \"#utility.yul\":10124:10128   */\n      0x00\n        /* \"#utility.yul\":10117:10122   */\n      dup4\n        /* \"#utility.yul\":10113:10129   */\n      add\n        /* \"#utility.yul\":10107:10130   */\n      mload\n        /* \"#utility.yul\":10177:10180   */\n      dup5\n        /* \"#utility.yul\":10171:10175   */\n      dup3\n        /* \"#utility.yul\":10167:10181   */\n      sub\n        /* \"#utility.yul\":10160:10164   */\n      0x00\n        /* \"#utility.yul\":10155:10158   */\n      dup7\n        /* \"#utility.yul\":10151:10165   */\n      add\n        /* \"#utility.yul\":10144:10182   */\n      mstore\n        /* \"#utility.yul\":10203:10276   */\n      tag_254\n        /* \"#utility.yul\":10271:10275   */\n      dup3\n        /* \"#utility.yul\":10257:10269   */\n      dup3\n        /* \"#utility.yul\":10203:10276   */\n      tag_105\n      jump\t// in\n    tag_254:\n        /* \"#utility.yul\":10195:10276   */\n      swap2\n      pop\n        /* \"#utility.yul\":10045:10287   */\n      pop\n        /* \"#utility.yul\":10379:10383   */\n      0x20\n        /* \"#utility.yul\":10372:10377   */\n      dup4\n        /* \"#utility.yul\":10368:10384   */\n      add\n        /* \"#utility.yul\":10362:10385   */\n      mload\n        /* \"#utility.yul\":10432:10435   */\n      dup5\n        /* \"#utility.yul\":10426:10430   */\n      dup3\n        /* \"#utility.yul\":10422:10436   */\n      sub\n        /* \"#utility.yul\":10415:10419   */\n      0x20\n        /* \"#utility.yul\":10410:10413   */\n      dup7\n        /* \"#utility.yul\":10406:10420   */\n      add\n        /* \"#utility.yul\":10399:10437   */\n      mstore\n        /* \"#utility.yul\":10458:10531   */\n      tag_255\n        /* \"#utility.yul\":10526:10530   */\n      dup3\n        /* \"#utility.yul\":10512:10524   */\n      dup3\n        /* \"#utility.yul\":10458:10531   */\n      tag_105\n      jump\t// in\n    tag_255:\n        /* \"#utility.yul\":10450:10531   */\n      swap2\n      pop\n        /* \"#utility.yul\":10297:10542   */\n      pop\n        /* \"#utility.yul\":10627:10631   */\n      0x40\n        /* \"#utility.yul\":10620:10625   */\n      dup4\n        /* \"#utility.yul\":10616:10632   */\n      add\n        /* \"#utility.yul\":10610:10633   */\n      mload\n        /* \"#utility.yul\":10646:10709   */\n      tag_256\n        /* \"#utility.yul\":10703:10707   */\n      0x40\n        /* \"#utility.yul\":10698:10701   */\n      dup7\n        /* \"#utility.yul\":10694:10708   */\n      add\n        /* \"#utility.yul\":10680:10692   */\n      dup3\n        /* \"#utility.yul\":10646:10709   */\n      tag_106\n      jump\t// in\n    tag_256:\n        /* \"#utility.yul\":10552:10719   */\n      pop\n        /* \"#utility.yul\":10807:10811   */\n      0x60\n        /* \"#utility.yul\":10800:10805   */\n      dup4\n        /* \"#utility.yul\":10796:10812   */\n      add\n        /* \"#utility.yul\":10790:10813   */\n      mload\n        /* \"#utility.yul\":10826:10899   */\n      tag_257\n        /* \"#utility.yul\":10893:10897   */\n      0x60\n        /* \"#utility.yul\":10888:10891   */\n      dup7\n        /* \"#utility.yul\":10884:10898   */\n      add\n        /* \"#utility.yul\":10870:10882   */\n      dup3\n        /* \"#utility.yul\":10826:10899   */\n      tag_110\n      jump\t// in\n    tag_257:\n        /* \"#utility.yul\":10729:10909   */\n      pop\n        /* \"#utility.yul\":11002:11006   */\n      0x80\n        /* \"#utility.yul\":10995:11000   */\n      dup4\n        /* \"#utility.yul\":10991:11007   */\n      add\n        /* \"#utility.yul\":10985:11008   */\n      mload\n        /* \"#utility.yul\":11021:11084   */\n      tag_258\n        /* \"#utility.yul\":11078:11082   */\n      0x80\n        /* \"#utility.yul\":11073:11076   */\n      dup7\n        /* \"#utility.yul\":11069:11083   */\n      add\n        /* \"#utility.yul\":11055:11067   */\n      dup3\n        /* \"#utility.yul\":11021:11084   */\n      tag_106\n      jump\t// in\n    tag_258:\n        /* \"#utility.yul\":10919:11094   */\n      pop\n        /* \"#utility.yul\":11194:11198   */\n      0xa0\n        /* \"#utility.yul\":11187:11192   */\n      dup4\n        /* \"#utility.yul\":11183:11199   */\n      add\n        /* \"#utility.yul\":11177:11200   */\n      mload\n        /* \"#utility.yul\":11213:11276   */\n      tag_259\n        /* \"#utility.yul\":11270:11274   */\n      0xa0\n        /* \"#utility.yul\":11265:11268   */\n      dup7\n        /* \"#utility.yul\":11261:11275   */\n      add\n        /* \"#utility.yul\":11247:11259   */\n      dup3\n        /* \"#utility.yul\":11213:11276   */\n      tag_111\n      jump\t// in\n    tag_259:\n        /* \"#utility.yul\":11104:11286   */\n      pop\n        /* \"#utility.yul\":11303:11307   */\n      dup1\n        /* \"#utility.yul\":11296:11307   */\n      swap2\n      pop\n        /* \"#utility.yul\":9999:11313   */\n      pop\n        /* \"#utility.yul\":9875:11313   */\n      swap3\n      swap2\n      pop\n      pop\n      jump\t// out\n        /* \"#utility.yul\":11319:11692   */\n    tag_35:\n        /* \"#utility.yul\":11462:11466   */\n      0x00\n        /* \"#utility.yul\":11500:11502   */\n      0x20\n        /* \"#utility.yul\":11489:11498   */\n      dup3\n        /* \"#utility.yul\":11485:11503   */\n      add\n        /* \"#utility.yul\":11477:11503   */\n      swap1\n      pop\n        /* \"#utility.yul\":11549:11558   */\n      dup2\n        /* \"#utility.yul\":11543:11547   */\n      dup2\n        /* \"#utility.yul\":11539:11559   */\n      sub\n        /* \"#utility.yul\":11535:11536   */\n      0x00\n        /* \"#utility.yul\":11524:11533   */\n      dup4\n        /* \"#utility.yul\":11520:11537   */\n      add\n        /* \"#utility.yul\":11513:11560   */\n      mstore\n        /* \"#utility.yul\":11577:11685   */\n      tag_261\n        /* \"#utility.yul\":11680:11684   */\n      dup2\n        /* \"#utility.yul\":11671:11677   */\n      dup5\n        /* \"#utility.yul\":11577:11685   */\n      tag_112\n      jump\t// in\n    tag_261:\n        /* \"#utility.yul\":11569:11685   */\n      swap1\n      pop\n        /* \"#utility.yul\":11319:11692   */\n      swap3\n      swap2\n      pop\n      pop\n      jump\t// out\n        /* \"#utility.yul\":11698:11867   */\n    tag_113:\n        /* \"#utility.yul\":11782:11793   */\n      0x00\n        /* \"#utility.yul\":11816:11822   */\n      dup3\n        /* \"#utility.yul\":11811:11814   */\n      dup3\n        /* \"#utility.yul\":11804:11823   */\n      mstore\n        /* \"#utility.yul\":11856:11860   */\n      0x20\n        /* \"#utility.yul\":11851:11854   */\n      dup3\n        /* \"#utility.yul\":11847:11861   */\n      add\n        /* \"#utility.yul\":11832:11861   */\n      swap1\n      pop\n        /* \"#utility.yul\":11698:11867   */\n      swap3\n      swap2\n      pop\n      pop\n      jump\t// out\n        /* \"#utility.yul\":11873:12110   */\n    tag_114:\n        /* \"#utility.yul\":12013:12047   */\n      0x4f6e6c792074686520636f6e7472616374206f776e65722063616e2070657266\n        /* \"#utility.yul\":12009:12010   */\n      0x00\n        /* \"#utility.yul\":12001:12007   */\n      dup3\n        /* \"#utility.yul\":11997:12011   */\n      add\n        /* \"#utility.yul\":11990:12048   */\n      mstore\n        /* \"#utility.yul\":12082:12102   */\n      0x6f726d2074686973206f7065726174696f6e0000000000000000000000000000\n        /* \"#utility.yul\":12077:12079   */\n      0x20\n        /* \"#utility.yul\":12069:12075   */\n      dup3\n        /* \"#utility.yul\":12065:12080   */\n      add\n        /* \"#utility.yul\":12058:12103   */\n      mstore\n        /* \"#utility.yul\":11873:12110   */\n      pop\n      jump\t// out\n        /* \"#utility.yul\":12116:12482   */\n    tag_115:\n        /* \"#utility.yul\":12258:12261   */\n      0x00\n        /* \"#utility.yul\":12279:12346   */\n      tag_265\n        /* \"#utility.yul\":12343:12345   */\n      0x32\n        /* \"#utility.yul\":12338:12341   */\n      dup4\n        /* \"#utility.yul\":12279:12346   */\n      tag_113\n      jump\t// in\n    tag_265:\n        /* \"#utility.yul\":12272:12346   */\n      swap2\n      pop\n        /* \"#utility.yul\":12355:12448   */\n      tag_266\n        /* \"#utility.yul\":12444:12447   */\n      dup3\n        /* \"#utility.yul\":12355:12448   */\n      tag_114\n      jump\t// in\n    tag_266:\n        /* \"#utility.yul\":12473:12475   */\n      0x40\n        /* \"#utility.yul\":12468:12471   */\n      dup3\n        /* \"#utility.yul\":12464:12476   */\n      add\n        /* \"#utility.yul\":12457:12476   */\n      swap1\n      pop\n        /* \"#utility.yul\":12116:12482   */\n      swap2\n      swap1\n      pop\n      jump\t// out\n        /* \"#utility.yul\":12488:12907   */\n    tag_39:\n        /* \"#utility.yul\":12654:12658   */\n      0x00\n        /* \"#utility.yul\":12692:12694   */\n      0x20\n        /* \"#utility.yul\":12681:12690   */\n      dup3\n        /* \"#utility.yul\":12677:12695   */\n      add\n        /* \"#utility.yul\":12669:12695   */\n      swap1\n      pop\n        /* \"#utility.yul\":12741:12750   */\n      dup2\n        /* \"#utility.yul\":12735:12739   */\n      dup2\n        /* \"#utility.yul\":12731:12751   */\n      sub\n        /* \"#utility.yul\":12727:12728   */\n      0x00\n        /* \"#utility.yul\":12716:12725   */\n      dup4\n        /* \"#utility.yul\":12712:12729   */\n      add\n        /* \"#utility.yul\":12705:12752   */\n      mstore\n        /* \"#utility.yul\":12769:12900   */\n      tag_268\n        /* \"#utility.yul\":12895:12899   */\n      dup2\n        /* \"#utility.yul\":12769:12900   */\n      tag_115\n      jump\t// in\n    tag_268:\n        /* \"#utility.yul\":12761:12900   */\n      swap1\n      pop\n        /* \"#utility.yul\":12488:12907   */\n      swap2\n      swap1\n      pop\n      jump\t// out\n        /* \"#utility.yul\":12913:13093   */\n    tag_116:\n        /* \"#utility.yul\":12961:13038   */\n      0x4e487b7100000000000000000000000000000000000000000000000000000000\n        /* \"#utility.yul\":12958:12959   */\n      0x00\n        /* \"#utility.yul\":12951:13039   */\n      mstore\n        /* \"#utility.yul\":13058:13062   */\n      0x22\n        /* \"#utility.yul\":13055:13056   */\n      0x04\n        /* \"#utility.yul\":13048:13063   */\n      mstore\n        /* \"#utility.yul\":13082:13086   */\n      0x24\n        /* \"#utility.yul\":13079:13080   */\n      0x00\n        /* \"#utility.yul\":13072:13087   */\n      revert\n        /* \"#utility.yul\":13099:13419   */\n    tag_60:\n        /* \"#utility.yul\":13143:13149   */\n      0x00\n        /* \"#utility.yul\":13180:13181   */\n      0x02\n        /* \"#utility.yul\":13174:13178   */\n      dup3\n        /* \"#utility.yul\":13170:13182   */\n      div\n        /* \"#utility.yul\":13160:13182   */\n      swap1\n      pop\n        /* \"#utility.yul\":13227:13228   */\n      0x01\n        /* \"#utility.yul\":13221:13225   */\n      dup3\n        /* \"#utility.yul\":13217:13229   */\n      and\n        /* \"#utility.yul\":13248:13266   */\n      dup1\n        /* \"#utility.yul\":13238:13319   */\n      tag_271\n      jumpi\n        /* \"#utility.yul\":13304:13308   */\n      0x7f\n        /* \"#utility.yul\":13296:13302   */\n      dup3\n        /* \"#utility.yul\":13292:13309   */\n      and\n        /* \"#utility.yul\":13282:13309   */\n      swap2\n      pop\n        /* \"#utility.yul\":13238:13319   */\n    tag_271:\n        /* \"#utility.yul\":13366:13368   */\n      0x20\n        /* \"#utility.yul\":13358:13364   */\n      dup3\n        /* \"#utility.yul\":13355:13369   */\n      lt\n        /* \"#utility.yul\":13335:13353   */\n      dup2\n        /* \"#utility.yul\":13332:13370   */\n      sub\n        /* \"#utility.yul\":13329:13413   */\n      tag_272\n      jumpi\n        /* \"#utility.yul\":13385:13403   */\n      tag_273\n      tag_116\n      jump\t// in\n    tag_273:\n        /* \"#utility.yul\":13329:13413   */\n    tag_272:\n        /* \"#utility.yul\":13150:13419   */\n      pop\n        /* \"#utility.yul\":13099:13419   */\n      swap2\n      swap1\n      pop\n      jump\t// out\n        /* \"#utility.yul\":13425:13566   */\n    tag_117:\n        /* \"#utility.yul\":13474:13478   */\n      0x00\n        /* \"#utility.yul\":13497:13500   */\n      dup2\n        /* \"#utility.yul\":13489:13500   */\n      swap1\n      pop\n        /* \"#utility.yul\":13520:13523   */\n      dup2\n        /* \"#utility.yul\":13517:13518   */\n      0x00\n        /* \"#utility.yul\":13510:13524   */\n      mstore\n        /* \"#utility.yul\":13554:13558   */\n      0x20\n        /* \"#utility.yul\":13551:13552   */\n      0x00\n        /* \"#utility.yul\":13541:13559   */\n      keccak256\n        /* \"#utility.yul\":13533:13559   */\n      swap1\n      pop\n        /* \"#utility.yul\":13425:13566   */\n      swap2\n      swap1\n      pop\n      jump\t// out\n        /* \"#utility.yul\":13572:13665   */\n    tag_118:\n        /* \"#utility.yul\":13609:13615   */\n      0x00\n        /* \"#utility.yul\":13656:13658   */\n      0x20\n        /* \"#utility.yul\":13651:13653   */\n      0x1f\n        /* \"#utility.yul\":13644:13649   */\n      dup4\n        /* \"#utility.yul\":13640:13654   */\n      add\n        /* \"#utility.yul\":13636:13659   */\n      div\n        /* \"#utility.yul\":13626:13659   */\n      swap1\n      pop\n        /* \"#utility.yul\":13572:13665   */\n      swap2\n      swap1\n      pop\n      jump\t// out\n        /* \"#utility.yul\":13671:13778   */\n    tag_119:\n        /* \"#utility.yul\":13715:13723   */\n      0x00\n        /* \"#utility.yul\":13765:13770   */\n      dup3\n        /* \"#utility.yul\":13759:13763   */\n      dup3\n        /* \"#utility.yul\":13755:13771   */\n      shl\n        /* \"#utility.yul\":13734:13771   */\n      swap1\n      pop\n        /* \"#utility.yul\":13671:13778   */\n      swap3\n      swap2\n      pop\n      pop\n      jump\t// out\n        /* \"#utility.yul\":13784:14177   */\n    tag_120:\n        /* \"#utility.yul\":13853:13859   */\n      0x00\n        /* \"#utility.yul\":13903:13904   */\n      0x08\n        /* \"#utility.yul\":13891:13901   */\n      dup4\n        /* \"#utility.yul\":13887:13905   */\n      mul\n        /* \"#utility.yul\":13926:14023   */\n      tag_278\n        /* \"#utility.yul\":13956:14022   */\n      0xffffffffffffffffffffffffffffffffffffffffffffffffffffffffffffffff\n        /* \"#utility.yul\":13945:13954   */\n      dup3\n        /* \"#utility.yul\":13926:14023   */\n      tag_119\n      jump\t// in\n    tag_278:\n        /* \"#utility.yul\":14044:14083   */\n      tag_279\n        /* \"#utility.yul\":14074:14082   */\n      dup7\n        /* \"#utility.yul\":14063:14072   */\n      dup4\n        /* \"#utility.yul\":14044:14083   */\n      tag_119\n      jump\t// in\n    tag_279:\n        /* \"#utility.yul\":14032:14083   */\n      swap6\n      pop\n        /* \"#utility.yul\":14116:14120   */\n      dup1\n        /* \"#utility.yul\":14112:14121   */\n      not\n        /* \"#utility.yul\":14105:14110   */\n      dup5\n        /* \"#utility.yul\":14101:14122   */\n      and\n        /* \"#utility.yul\":14092:14122   */\n      swap4\n      pop\n        /* \"#utility.yul\":14165:14169   */\n      dup1\n        /* \"#utility.yul\":14155:14163   */\n      dup7\n        /* \"#utility.yul\":14151:14170   */\n      and\n        /* \"#utility.yul\":14144:14149   */\n      dup5\n        /* \"#utility.yul\":14141:14171   */\n      or\n        /* \"#utility.yul\":14131:14171   */\n      swap3\n      pop\n        /* \"#utility.yul\":13860:14177   */\n      pop\n      pop\n        /* \"#utility.yul\":13784:14177   */\n      swap4\n      swap3\n      pop\n      pop\n      pop\n      jump\t// out\n        /* \"#utility.yul\":14183:14243   */\n    tag_121:\n        /* \"#utility.yul\":14211:14214   */\n      0x00\n        /* \"#utility.yul\":14232:14237   */\n      dup2\n        /* \"#utility.yul\":14225:14237   */\n      swap1\n      pop\n        /* \"#utility.yul\":14183:14243   */\n      swap2\n      swap1\n      pop\n      jump\t// out\n        /* \"#utility.yul\":14249:14391   */\n    tag_122:\n        /* \"#utility.yul\":14299:14308   */\n      0x00\n        /* \"#utility.yul\":14332:14385   */\n      tag_282\n        /* \"#utility.yul\":14350:14384   */\n      tag_283\n        /* \"#utility.yul\":14359:14383   */\n      tag_284\n        /* \"#utility.yul\":14377:14382   */\n      dup5\n        /* \"#utility.yul\":14359:14383   */\n      tag_89\n      jump\t// in\n    tag_284:\n        /* \"#utility.yul\":14350:14384   */\n      tag_121\n      jump\t// in\n    tag_283:\n        /* \"#utility.yul\":14332:14385   */\n      tag_89\n      jump\t// in\n    tag_282:\n        /* \"#utility.yul\":14319:14385   */\n      swap1\n      pop\n        /* \"#utility.yul\":14249:14391   */\n      swap2\n      swap1\n      pop\n      jump\t// out\n        /* \"#utility.yul\":14397:14472   */\n    tag_123:\n        /* \"#utility.yul\":14440:14443   */\n      0x00\n        /* \"#utility.yul\":14461:14466   */\n      dup2\n        /* \"#utility.yul\":14454:14466   */\n      swap1\n      pop\n        /* \"#utility.yul\":14397:14472   */\n      swap2\n      swap1\n      pop\n      jump\t// out\n        /* \"#utility.yul\":14478:14747   */\n    tag_124:\n        /* \"#utility.yul\":14588:14627   */\n      tag_287\n        /* \"#utility.yul\":14619:14626   */\n      dup4\n        /* \"#utility.yul\":14588:14627   */\n      tag_122\n      jump\t// in\n    tag_287:\n        /* \"#utility.yul\":14649:14740   */\n      tag_288\n        /* \"#utility.yul\":14698:14739   */\n      tag_289\n        /* \"#utility.yul\":14722:14738   */\n      dup3\n        /* \"#utility.yul\":14698:14739   */\n      tag_123\n      jump\t// in\n    tag_289:\n        /* \"#utility.yul\":14690:14696   */\n      dup5\n        /* \"#utility.yul\":14683:14687   */\n      dup5\n        /* \"#utility.yul\":14677:14688   */\n      sload\n        /* \"#utility.yul\":14649:14740   */\n      tag_120\n      jump\t// in\n    tag_288:\n        /* \"#utility.yul\":14643:14647   */\n      dup3\n        /* \"#utility.yul\":14636:14741   */\n      sstore\n        /* \"#utility.yul\":14554:14747   */\n      pop\n        /* \"#utility.yul\":14478:14747   */\n      pop\n      pop\n      pop\n      jump\t// out\n        /* \"#utility.yul\":14753:14826   */\n    tag_125:\n        /* \"#utility.yul\":14798:14801   */\n      0x00\n        /* \"#utility.yul\":14753:14826   */\n      swap1\n      jump\t// out\n        /* \"#utility.yul\":14832:15021   */\n    tag_126:\n        /* \"#utility.yul\":14909:14941   */\n      tag_292\n      tag_125\n      jump\t// in\n    tag_292:\n        /* \"#utility.yul\":14950:15015   */\n      tag_293\n        /* \"#utility.yul\":15008:15014   */\n      dup2\n        /* \"#utility.yul\":15000:15006   */\n      dup5\n        /* \"#utility.yul\":14994:14998   */\n      dup5\n        /* \"#utility.yul\":14950:15015   */\n      tag_124\n      jump\t// in\n    tag_293:\n        /* \"#utility.yul\":14885:15021   */\n      pop\n        /* \"#utility.yul\":14832:15021   */\n      pop\n      pop\n      jump\t// out\n        /* \"#utility.yul\":15027:15213   */\n    tag_127:\n        /* \"#utility.yul\":15087:15207   */\n    tag_295:\n        /* \"#utility.yul\":15104:15107   */\n      dup2\n        /* \"#utility.yul\":15097:15102   */\n      dup2\n        /* \"#utility.yul\":15094:15108   */\n      lt\n        /* \"#utility.yul\":15087:15207   */\n      iszero\n      tag_297\n      jumpi\n        /* \"#utility.yul\":15158:15197   */\n      tag_298\n        /* \"#utility.yul\":15195:15196   */\n      0x00\n        /* \"#utility.yul\":15188:15193   */\n      dup3\n        /* \"#utility.yul\":15158:15197   */\n      tag_126\n      jump\t// in\n    tag_298:\n        /* \"#utility.yul\":15131:15132   */\n      0x01\n        /* \"#utility.yul\":15124:15129   */\n      dup2\n        /* \"#utility.yul\":15120:15133   */\n      add\n        /* \"#utility.yul\":15111:15133   */\n      swap1\n      pop\n        /* \"#utility.yul\":15087:15207   */\n      jump(tag_295)\n    tag_297:\n        /* \"#utility.yul\":15027:15213   */\n      pop\n      pop\n      jump\t// out\n        /* \"#utility.yul\":15219:15762   */\n    tag_128:\n        /* \"#utility.yul\":15320:15322   */\n      0x1f\n        /* \"#utility.yul\":15315:15318   */\n      dup3\n        /* \"#utility.yul\":15312:15323   */\n      gt\n        /* \"#utility.yul\":15309:15755   */\n      iszero\n      tag_300\n      jumpi\n        /* \"#utility.yul\":15354:15392   */\n      tag_301\n        /* \"#utility.yul\":15386:15391   */\n      dup2\n        /* \"#utility.yul\":15354:15392   */\n      tag_117\n      jump\t// in\n    tag_301:\n        /* \"#utility.yul\":15438:15467   */\n      tag_302\n        /* \"#utility.yul\":15456:15466   */\n      dup5\n        /* \"#utility.yul\":15438:15467   */\n      tag_118\n      jump\t// in\n    tag_302:\n        /* \"#utility.yul\":15428:15436   */\n      dup2\n        /* \"#utility.yul\":15424:15468   */\n      add\n        /* \"#utility.yul\":15621:15623   */\n      0x20\n        /* \"#utility.yul\":15609:15619   */\n      dup6\n        /* \"#utility.yul\":15606:15624   */\n      lt\n        /* \"#utility.yul\":15603:15652   */\n      iszero\n      tag_303\n      jumpi\n        /* \"#utility.yul\":15642:15650   */\n      dup2\n        /* \"#utility.yul\":15627:15650   */\n      swap1\n      pop\n        /* \"#utility.yul\":15603:15652   */\n    tag_303:\n        /* \"#utility.yul\":15665:15745   */\n      tag_304\n        /* \"#utility.yul\":15721:15743   */\n      tag_305\n        /* \"#utility.yul\":15739:15742   */\n      dup6\n        /* \"#utility.yul\":15721:15743   */\n      tag_118\n      jump\t// in\n    tag_305:\n        /* \"#utility.yul\":15711:15719   */\n      dup4\n        /* \"#utility.yul\":15707:15744   */\n      add\n        /* \"#utility.yul\":15694:15705   */\n      dup3\n        /* \"#utility.yul\":15665:15745   */\n      tag_127\n      jump\t// in\n    tag_304:\n        /* \"#utility.yul\":15324:15755   */\n      pop\n      pop\n        /* \"#utility.yul\":15309:15755   */\n    tag_300:\n        /* \"#utility.yul\":15219:15762   */\n      pop\n      pop\n      pop\n      jump\t// out\n        /* \"#utility.yul\":15768:15885   */\n    tag_129:\n        /* \"#utility.yul\":15822:15830   */\n      0x00\n        /* \"#utility.yul\":15872:15877   */\n      dup3\n        /* \"#utility.yul\":15866:15870   */\n      dup3\n        /* \"#utility.yul\":15862:15878   */\n      shr\n        /* \"#utility.yul\":15841:15878   */\n      swap1\n      pop\n        /* \"#utility.yul\":15768:15885   */\n      swap3\n      swap2\n      pop\n      pop\n      jump\t// out\n        /* \"#utility.yul\":15891:16060   */\n    tag_130:\n        /* \"#utility.yul\":15935:15941   */\n      0x00\n        /* \"#utility.yul\":15968:16019   */\n      tag_308\n        /* \"#utility.yul\":16016:16017   */\n      0x00\n        /* \"#utility.yul\":16012:16018   */\n      not\n        /* \"#utility.yul\":16004:16009   */\n      dup5\n        /* \"#utility.yul\":16001:16002   */\n      0x08\n        /* \"#utility.yul\":15997:16010   */\n      mul\n        /* \"#utility.yul\":15968:16019   */\n      tag_129\n      jump\t// in\n    tag_308:\n        /* \"#utility.yul\":15964:16020   */\n      not\n        /* \"#utility.yul\":16049:16053   */\n      dup1\n        /* \"#utility.yul\":16043:16047   */\n      dup4\n        /* \"#utility.yul\":16039:16054   */\n      and\n        /* \"#utility.yul\":16029:16054   */\n      swap2\n      pop\n        /* \"#utility.yul\":15942:16060   */\n      pop\n        /* \"#utility.yul\":15891:16060   */\n      swap3\n      swap2\n      pop\n      pop\n      jump\t// out\n        /* \"#utility.yul\":16065:16360   */\n    tag_131:\n        /* \"#utility.yul\":16141:16145   */\n      0x00\n        /* \"#utility.yul\":16287:16316   */\n      tag_310\n        /* \"#utility.yul\":16312:16315   */\n      dup4\n        /* \"#utility.yul\":16306:16310   */\n      dup4\n        /* \"#utility.yul\":16287:16316   */\n      tag_130\n      jump\t// in\n    tag_310:\n        /* \"#utility.yul\":16279:16316   */\n      swap2\n      pop\n        /* \"#utility.yul\":16349:16352   */\n      dup3\n        /* \"#utility.yul\":16346:16347   */\n      0x02\n        /* \"#utility.yul\":16342:16353   */\n      mul\n        /* \"#utility.yul\":16336:16340   */\n      dup3\n        /* \"#utility.yul\":16333:16354   */\n      or\n        /* \"#utility.yul\":16325:16354   */\n      swap1\n      pop\n        /* \"#utility.yul\":16065:16360   */\n      swap3\n      swap2\n      pop\n      pop\n      jump\t// out\n        /* \"#utility.yul\":16365:17760   */\n    tag_45:\n        /* \"#utility.yul\":16482:16519   */\n      tag_312\n        /* \"#utility.yul\":16515:16518   */\n      dup3\n        /* \"#utility.yul\":16482:16519   */\n      tag_102\n      jump\t// in\n    tag_312:\n        /* \"#utility.yul\":16584:16602   */\n      0xffffffffffffffff\n        /* \"#utility.yul\":16576:16582   */\n      dup2\n        /* \"#utility.yul\":16573:16603   */\n      gt\n        /* \"#utility.yul\":16570:16626   */\n      iszero\n      tag_313\n      jumpi\n        /* \"#utility.yul\":16606:16624   */\n      tag_314\n      tag_82\n      jump\t// in\n    tag_314:\n        /* \"#utility.yul\":16570:16626   */\n    tag_313:\n        /* \"#utility.yul\":16650:16688   */\n      tag_315\n        /* \"#utility.yul\":16682:16686   */\n      dup3\n        /* \"#utility.yul\":16676:16687   */\n      sload\n        /* \"#utility.yul\":16650:16688   */\n      tag_60\n      jump\t// in\n    tag_315:\n        /* \"#utility.yul\":16735:16802   */\n      tag_316\n        /* \"#utility.yul\":16795:16801   */\n      dup3\n        /* \"#utility.yul\":16787:16793   */\n      dup3\n        /* \"#utility.yul\":16781:16785   */\n      dup6\n        /* \"#utility.yul\":16735:16802   */\n      tag_128\n      jump\t// in\n    tag_316:\n        /* \"#utility.yul\":16829:16830   */\n      0x00\n        /* \"#utility.yul\":16853:16857   */\n      0x20\n        /* \"#utility.yul\":16840:16857   */\n      swap1\n      pop\n        /* \"#utility.yul\":16885:16887   */\n      0x1f\n        /* \"#utility.yul\":16877:16883   */\n      dup4\n        /* \"#utility.yul\":16874:16888   */\n      gt\n        /* \"#utility.yul\":16902:16903   */\n      0x01\n        /* \"#utility.yul\":16897:17515   */\n      dup2\n      eq\n      tag_318\n      jumpi\n        /* \"#utility.yul\":17559:17560   */\n      0x00\n        /* \"#utility.yul\":17576:17582   */\n      dup5\n        /* \"#utility.yul\":17573:17650   */\n      iszero\n      tag_319\n      jumpi\n        /* \"#utility.yul\":17625:17634   */\n      dup3\n        /* \"#utility.yul\":17620:17623   */\n      dup8\n        /* \"#utility.yul\":17616:17635   */\n      add\n        /* \"#utility.yul\":17610:17636   */\n      mload\n        /* \"#utility.yul\":17601:17636   */\n      swap1\n      pop\n        /* \"#utility.yul\":17573:17650   */\n    tag_319:\n        /* \"#utility.yul\":17676:17743   */\n      tag_320\n        /* \"#utility.yul\":17736:17742   */\n      dup6\n        /* \"#utility.yul\":17729:17734   */\n      dup3\n        /* \"#utility.yul\":17676:17743   */\n      tag_131\n      jump\t// in\n    tag_320:\n        /* \"#utility.yul\":17670:17674   */\n      dup7\n        /* \"#utility.yul\":17663:17744   */\n      sstore\n        /* \"#utility.yul\":17532:17754   */\n      pop\n        /* \"#utility.yul\":16867:17754   */\n      jump(tag_317)\n        /* \"#utility.yul\":16897:17515   */\n    tag_318:\n        /* \"#utility.yul\":16949:16953   */\n      0x1f\n        /* \"#utility.yul\":16945:16954   */\n      not\n        /* \"#utility.yul\":16937:16943   */\n      dup5\n        /* \"#utility.yul\":16933:16955   */\n      and\n        /* \"#utility.yul\":16983:17020   */\n      tag_321\n        /* \"#utility.yul\":17015:17019   */\n      dup7\n        /* \"#utility.yul\":16983:17020   */\n      tag_117\n      jump\t// in\n    tag_321:\n        /* \"#utility.yul\":17042:17043   */\n      0x00\n        /* \"#utility.yul\":17056:17264   */\n    tag_322:\n        /* \"#utility.yul\":17070:17077   */\n      dup3\n        /* \"#utility.yul\":17067:17068   */\n      dup2\n        /* \"#utility.yul\":17064:17078   */\n      lt\n        /* \"#utility.yul\":17056:17264   */\n      iszero\n      tag_324\n      jumpi\n        /* \"#utility.yul\":17149:17158   */\n      dup5\n        /* \"#utility.yul\":17144:17147   */\n      dup10\n        /* \"#utility.yul\":17140:17159   */\n      add\n        /* \"#utility.yul\":17134:17160   */\n      mload\n        /* \"#utility.yul\":17126:17132   */\n      dup3\n        /* \"#utility.yul\":17119:17161   */\n      sstore\n        /* \"#utility.yul\":17200:17201   */\n      0x01\n        /* \"#utility.yul\":17192:17198   */\n      dup3\n        /* \"#utility.yul\":17188:17202   */\n      add\n        /* \"#utility.yul\":17178:17202   */\n      swap2\n      pop\n        /* \"#utility.yul\":17247:17249   */\n      0x20\n        /* \"#utility.yul\":17236:17245   */\n      dup6\n        /* \"#utility.yul\":17232:17250   */\n      add\n        /* \"#utility.yul\":17219:17250   */\n      swap5\n      pop\n        /* \"#utility.yul\":17093:17097   */\n      0x20\n        /* \"#utility.yul\":17090:17091   */\n      dup2\n        /* \"#utility.yul\":17086:17098   */\n      add\n        /* \"#utility.yul\":17081:17098   */\n      swap1\n      pop\n        /* \"#utility.yul\":17056:17264   */\n      jump(tag_322)\n    tag_324:\n        /* \"#utility.yul\":17292:17298   */\n      dup7\n        /* \"#utility.yul\":17283:17290   */\n      dup4\n        /* \"#utility.yul\":17280:17299   */\n      lt\n        /* \"#utility.yul\":17277:17456   */\n      iszero\n      tag_325\n      jumpi\n        /* \"#utility.yul\":17350:17359   */\n      dup5\n        /* \"#utility.yul\":17345:17348   */\n      dup10\n        /* \"#utility.yul\":17341:17360   */\n      add\n        /* \"#utility.yul\":17335:17361   */\n      mload\n        /* \"#utility.yul\":17393:17441   */\n      tag_326\n        /* \"#utility.yul\":17435:17439   */\n      0x1f\n        /* \"#utility.yul\":17427:17433   */\n      dup10\n        /* \"#utility.yul\":17423:17440   */\n      and\n        /* \"#utility.yul\":17412:17421   */\n      dup3\n        /* \"#utility.yul\":17393:17441   */\n      tag_130\n      jump\t// in\n    tag_326:\n        /* \"#utility.yul\":17385:17391   */\n      dup4\n        /* \"#utility.yul\":17378:17442   */\n      sstore\n        /* \"#utility.yul\":17300:17456   */\n      pop\n        /* \"#utility.yul\":17277:17456   */\n    tag_325:\n        /* \"#utility.yul\":17502:17503   */\n      0x01\n        /* \"#utility.yul\":17498:17499   */\n      0x02\n        /* \"#utility.yul\":17490:17496   */\n      dup9\n        /* \"#utility.yul\":17486:17500   */\n      mul\n        /* \"#utility.yul\":17482:17504   */\n      add\n        /* \"#utility.yul\":17476:17480   */\n      dup9\n        /* \"#utility.yul\":17469:17505   */\n      sstore\n        /* \"#utility.yul\":16904:17515   */\n      pop\n      pop\n      pop\n        /* \"#utility.yul\":16867:17754   */\n    tag_317:\n      pop\n        /* \"#utility.yul\":16457:17760   */\n      pop\n      pop\n      pop\n        /* \"#utility.yul\":16365:17760   */\n      pop\n      pop\n      jump\t// out\n        /* \"#utility.yul\":17766:17946   */\n    tag_132:\n        /* \"#utility.yul\":17814:17891   */\n      0x4e487b7100000000000000000000000000000000000000000000000000000000\n        /* \"#utility.yul\":17811:17812   */\n      0x00\n        /* \"#utility.yul\":17804:17892   */\n      mstore\n        /* \"#utility.yul\":17911:17915   */\n      0x11\n        /* \"#utility.yul\":17908:17909   */\n      0x04\n        /* \"#utility.yul\":17901:17916   */\n      mstore\n        /* \"#utility.yul\":17935:17939   */\n      0x24\n        /* \"#utility.yul\":17932:17933   */\n      0x00\n        /* \"#utility.yul\":17925:17940   */\n      revert\n        /* \"#utility.yul\":17952:18185   */\n    tag_50:\n        /* \"#utility.yul\":17991:17994   */\n      0x00\n        /* \"#utility.yul\":18014:18038   */\n      tag_329\n        /* \"#utility.yul\":18032:18037   */\n      dup3\n        /* \"#utility.yul\":18014:18038   */\n      tag_89\n      jump\t// in\n    tag_329:\n        /* \"#utility.yul\":18005:18038   */\n      swap2\n      pop\n        /* \"#utility.yul\":18060:18126   */\n      0xffffffffffffffffffffffffffffffffffffffffffffffffffffffffffffffff\n        /* \"#utility.yul\":18053:18058   */\n      dup3\n        /* \"#utility.yul\":18050:18127   */\n      sub\n        /* \"#utility.yul\":18047:18150   */\n      tag_330\n      jumpi\n        /* \"#utility.yul\":18130:18148   */\n      tag_331\n      tag_132\n      jump\t// in\n    tag_331:\n        /* \"#utility.yul\":18047:18150   */\n    tag_330:\n        /* \"#utility.yul\":18177:18178   */\n      0x01\n        /* \"#utility.yul\":18170:18175   */\n      dup3\n        /* \"#utility.yul\":18166:18179   */\n      add\n        /* \"#utility.yul\":18159:18179   */\n      swap1\n      pop\n        /* \"#utility.yul\":17952:18185   */\n      swap2\n      swap1\n      pop\n      jump\t// out\n        /* \"#utility.yul\":18191:18270   */\n    tag_133:\n        /* \"#utility.yul\":18230:18237   */\n      0x00\n        /* \"#utility.yul\":18259:18264   */\n      dup2\n        /* \"#utility.yul\":18248:18264   */\n      swap1\n      pop\n        /* \"#utility.yul\":18191:18270   */\n      swap2\n      swap1\n      pop\n      jump\t// out\n        /* \"#utility.yul\":18276:18433   */\n    tag_134:\n        /* \"#utility.yul\":18381:18426   */\n      tag_334\n        /* \"#utility.yul\":18401:18425   */\n      tag_335\n        /* \"#utility.yul\":18419:18424   */\n      dup3\n        /* \"#utility.yul\":18401:18425   */\n      tag_89\n      jump\t// in\n    tag_335:\n        /* \"#utility.yul\":18381:18426   */\n      tag_133\n      jump\t// in\n    tag_334:\n        /* \"#utility.yul\":18376:18379   */\n      dup3\n        /* \"#utility.yul\":18369:18427   */\n      mstore\n        /* \"#utility.yul\":18276:18433   */\n      pop\n      pop\n      jump\t// out\n        /* \"#utility.yul\":18439:18587   */\n    tag_135:\n        /* \"#utility.yul\":18541:18552   */\n      0x00\n        /* \"#utility.yul\":18578:18581   */\n      dup2\n        /* \"#utility.yul\":18563:18581   */\n      swap1\n      pop\n        /* \"#utility.yul\":18439:18587   */\n      swap3\n      swap2\n      pop\n      pop\n      jump\t// out\n        /* \"#utility.yul\":18593:18983   */\n    tag_136:\n        /* \"#utility.yul\":18699:18702   */\n      0x00\n        /* \"#utility.yul\":18727:18766   */\n      tag_338\n        /* \"#utility.yul\":18760:18765   */\n      dup3\n        /* \"#utility.yul\":18727:18766   */\n      tag_102\n      jump\t// in\n    tag_338:\n        /* \"#utility.yul\":18782:18871   */\n      tag_339\n        /* \"#utility.yul\":18864:18870   */\n      dup2\n        /* \"#utility.yul\":18859:18862   */\n      dup6\n        /* \"#utility.yul\":18782:18871   */\n      tag_135\n      jump\t// in\n    tag_339:\n        /* \"#utility.yul\":18775:18871   */\n      swap4\n      pop\n        /* \"#utility.yul\":18880:18945   */\n      tag_340\n        /* \"#utility.yul\":18938:18944   */\n      dup2\n        /* \"#utility.yul\":18933:18936   */\n      dup6\n        /* \"#utility.yul\":18926:18930   */\n      0x20\n        /* \"#utility.yul\":18919:18924   */\n      dup7\n        /* \"#utility.yul\":18915:18931   */\n      add\n        /* \"#utility.yul\":18880:18945   */\n      tag_104\n      jump\t// in\n    tag_340:\n        /* \"#utility.yul\":18970:18976   */\n      dup1\n        /* \"#utility.yul\":18965:18968   */\n      dup5\n        /* \"#utility.yul\":18961:18977   */\n      add\n        /* \"#utility.yul\":18954:18977   */\n      swap2\n      pop\n        /* \"#utility.yul\":18703:18983   */\n      pop\n        /* \"#utility.yul\":18593:18983   */\n      swap3\n      swap2\n      pop\n      pop\n      jump\t// out\n        /* \"#utility.yul\":18989:19725   */\n    tag_55:\n        /* \"#utility.yul\":19245:19248   */\n      0x00\n        /* \"#utility.yul\":19260:19335   */\n      tag_342\n        /* \"#utility.yul\":19331:19334   */\n      dup3\n        /* \"#utility.yul\":19322:19328   */\n      dup8\n        /* \"#utility.yul\":19260:19335   */\n      tag_134\n      jump\t// in\n    tag_342:\n        /* \"#utility.yul\":19360:19362   */\n      0x20\n        /* \"#utility.yul\":19355:19358   */\n      dup3\n        /* \"#utility.yul\":19351:19363   */\n      add\n        /* \"#utility.yul\":19344:19363   */\n      swap2\n      pop\n        /* \"#utility.yul\":19380:19475   */\n      tag_343\n        /* \"#utility.yul\":19471:19474   */\n      dup3\n        /* \"#utility.yul\":19462:19468   */\n      dup7\n        /* \"#utility.yul\":19380:19475   */\n      tag_136\n      jump\t// in\n    tag_343:\n        /* \"#utility.yul\":19373:19475   */\n      swap2\n      pop\n        /* \"#utility.yul\":19492:19587   */\n      tag_344\n        /* \"#utility.yul\":19583:19586   */\n      dup3\n        /* \"#utility.yul\":19574:19580   */\n      dup6\n        /* \"#utility.yul\":19492:19587   */\n      tag_136\n      jump\t// in\n    tag_344:\n        /* \"#utility.yul\":19485:19587   */\n      swap2\n      pop\n        /* \"#utility.yul\":19604:19699   */\n      tag_345\n        /* \"#utility.yul\":19695:19698   */\n      dup3\n        /* \"#utility.yul\":19686:19692   */\n      dup5\n        /* \"#utility.yul\":19604:19699   */\n      tag_136\n      jump\t// in\n    tag_345:\n        /* \"#utility.yul\":19597:19699   */\n      swap2\n      pop\n        /* \"#utility.yul\":19716:19719   */\n      dup2\n        /* \"#utility.yul\":19709:19719   */\n      swap1\n      pop\n        /* \"#utility.yul\":18989:19725   */\n      swap6\n      swap5\n      pop\n      pop\n      pop\n      pop\n      pop\n      jump\t// out\n\n    auxdata: 0xa2646970667358221220b7b09e57c1fc26eb8a7de492b8e37a40b52ff6bcbb3843138c35591c96156b9764736f6c63430008180033\n}\n",
				"bytecode": {
					"linkReferences": {},
					"object": "60806040525f6002555f600455348015610017575f80fd5b50335f806101000a81548173ffffffffffffffffffffffffffffffffffffffff021916908373ffffffffffffffffffffffffffffffffffffffff160217905550610f97806100645f395ff3fe608060405234801561000f575f80fd5b5060043610610060575f3560e01c80632f57b91c146100645780634b58fbe914610080578063682477d71461009e57806385f86e0d146100bc5780638da5cb5b146100ec578063d2b0649a1461010a575b5f80fd5b61007e600480360381019061007991906106e7565b61013a565b005b6100886102b0565b60405161009591906107b7565b60405180910390f35b6100a66102b9565b6040516100b391906107b7565b60405180910390f35b6100d660048036038101906100d191906107d0565b6102c2565b6040516100e39190610897565b60405180910390f35b6100f4610305565b60405161010191906108ef565b60405180910390f35b610124600480360381019061011f9190610908565b610328565b6040516101319190610acb565b60405180910390f35b5f8054906101000a900473ffffffffffffffffffffffffffffffffffffffff1673ffffffffffffffffffffffffffffffffffffffff163373ffffffffffffffffffffffffffffffffffffffff16146101c7576040517f08c379a00000000000000000000000000000000000000000000000000000000081526004016101be90610b6b565b60405180910390fd5b6040518060c001604052808781526020018681526020018581526020018460028111156101f7576101f66109bc565b5b81526020018381526020018281525060015f8681526020019081526020015f205f820151815f01908161022a9190610d83565b5060208201518160010190816102409190610d83565b50604082015181600201556060820151816003015f6101000a81548160ff02191690836002811115610275576102746109bc565b5b02179055506080820151816004015560a0820151816005015590505060025f8154809291906102a390610e7f565b9190505550505050505050565b5f600454905090565b5f600254905090565b5f6060858585856040516020016102dc9493929190610f20565b60405160208183030381529060405290505f818051906020012090508092505050949350505050565b5f8054906101000a900473ffffffffffffffffffffffffffffffffffffffff1681565b6103306104ca565b60015f8381526020019081526020015f206040518060c00160405290815f8201805461035b90610bb6565b80601f016020809104026020016040519081016040528092919081815260200182805461038790610bb6565b80156103d25780601f106103a9576101008083540402835291602001916103d2565b820191905f5260205f20905b8154815290600101906020018083116103b557829003601f168201915b505050505081526020016001820180546103eb90610bb6565b80601f016020809104026020016040519081016040528092919081815260200182805461041790610bb6565b80156104625780601f1061043957610100808354040283529160200191610462565b820191905f5260205f20905b81548152906001019060200180831161044557829003601f168201915b5050505050815260200160028201548152602001600382015f9054906101000a900460ff166002811115610499576104986109bc565b5b60028111156104ab576104aa6109bc565b5b8152602001600482015481526020016005820154815250509050919050565b6040518060c0016040528060608152602001606081526020015f81526020015f60028111156104fc576104fb6109bc565b5b81526020015f81526020015f80191681525090565b5f604051905090565b5f80fd5b5f80fd5b5f80fd5b5f80fd5b5f601f19601f8301169050919050565b7f4e487b71000000000000000000000000000000000000000000000000000000005f52604160045260245ffd5b6105708261052a565b810181811067ffffffffffffffff8211171561058f5761058e61053a565b5b80604052505050565b5f6105a1610511565b90506105ad8282610567565b919050565b5f67ffffffffffffffff8211156105cc576105cb61053a565b5b6105d58261052a565b9050602081019050919050565b828183375f83830152505050565b5f6106026105fd846105b2565b610598565b90508281526020810184848401111561061e5761061d610526565b5b6106298482856105e2565b509392505050565b5f82601f83011261064557610644610522565b5b81356106558482602086016105f0565b91505092915050565b5f819050919050565b6106708161065e565b811461067a575f80fd5b50565b5f8135905061068b81610667565b92915050565b6003811061069d575f80fd5b50565b5f813590506106ae81610691565b92915050565b5f819050919050565b6106c6816106b4565b81146106d0575f80fd5b50565b5f813590506106e1816106bd565b92915050565b5f805f805f8060c087890312156107015761070061051a565b5b5f87013567ffffffffffffffff81111561071e5761071d61051e565b5b61072a89828a01610631565b965050602087013567ffffffffffffffff81111561074b5761074a61051e565b5b61075789828a01610631565b955050604061076889828a0161067d565b945050606061077989828a016106a0565b935050608061078a89828a0161067d565b92505060a061079b89828a016106d3565b9150509295509295509295565b6107b18161065e565b82525050565b5f6020820190506107ca5f8301846107a8565b92915050565b5f805f80608085870312156107e8576107e761051a565b5b5f6107f58782880161067d565b945050602085013567ffffffffffffffff8111156108165761081561051e565b5b61082287828801610631565b935050604085013567ffffffffffffffff8111156108435761084261051e565b5b61084f87828801610631565b925050606085013567ffffffffffffffff8111156108705761086f61051e565b5b61087c87828801610631565b91505092959194509250565b610891816106b4565b82525050565b5f6020820190506108aa5f830184610888565b92915050565b5f73ffffffffffffffffffffffffffffffffffffffff82169050919050565b5f6108d9826108b0565b9050919050565b6108e9816108cf565b82525050565b5f6020820190506109025f8301846108e0565b92915050565b5f6020828403121561091d5761091c61051a565b5b5f61092a8482850161067d565b91505092915050565b5f81519050919050565b5f82825260208201905092915050565b5f5b8381101561096a57808201518184015260208101905061094f565b5f8484015250505050565b5f61097f82610933565b610989818561093d565b935061099981856020860161094d565b6109a28161052a565b840191505092915050565b6109b68161065e565b82525050565b7f4e487b71000000000000000000000000000000000000000000000000000000005f52602160045260245ffd5b600381106109fa576109f96109bc565b5b50565b5f819050610a0a826109e9565b919050565b5f610a19826109fd565b9050919050565b610a2981610a0f565b82525050565b610a38816106b4565b82525050565b5f60c083015f8301518482035f860152610a588282610975565b91505060208301518482036020860152610a728282610975565b9150506040830151610a8760408601826109ad565b506060830151610a9a6060860182610a20565b506080830151610aad60808601826109ad565b5060a0830151610ac060a0860182610a2f565b508091505092915050565b5f6020820190508181035f830152610ae38184610a3e565b905092915050565b5f82825260208201905092915050565b7f4f6e6c792074686520636f6e7472616374206f776e65722063616e20706572665f8201527f6f726d2074686973206f7065726174696f6e0000000000000000000000000000602082015250565b5f610b55603283610aeb565b9150610b6082610afb565b604082019050919050565b5f6020820190508181035f830152610b8281610b49565b9050919050565b7f4e487b71000000000000000000000000000000000000000000000000000000005f52602260045260245ffd5b5f6002820490506001821680610bcd57607f821691505b602082108103610be057610bdf610b89565b5b50919050565b5f819050815f5260205f209050919050565b5f6020601f8301049050919050565b5f82821b905092915050565b5f60088302610c427fffffffffffffffffffffffffffffffffffffffffffffffffffffffffffffffff82610c07565b610c4c8683610c07565b95508019841693508086168417925050509392505050565b5f819050919050565b5f610c87610c82610c7d8461065e565b610c64565b61065e565b9050919050565b5f819050919050565b610ca083610c6d565b610cb4610cac82610c8e565b848454610c13565b825550505050565b5f90565b610cc8610cbc565b610cd3818484610c97565b505050565b5b81811015610cf657610ceb5f82610cc0565b600181019050610cd9565b5050565b601f821115610d3b57610d0c81610be6565b610d1584610bf8565b81016020851015610d24578190505b610d38610d3085610bf8565b830182610cd8565b50505b505050565b5f82821c905092915050565b5f610d5b5f1984600802610d40565b1980831691505092915050565b5f610d738383610d4c565b9150826002028217905092915050565b610d8c82610933565b67ffffffffffffffff811115610da557610da461053a565b5b610daf8254610bb6565b610dba828285610cfa565b5f60209050601f831160018114610deb575f8415610dd9578287015190505b610de38582610d68565b865550610e4a565b601f198416610df986610be6565b5f5b82811015610e2057848901518255600182019150602085019450602081019050610dfb565b86831015610e3d5784890151610e39601f891682610d4c565b8355505b6001600288020188555050505b505050505050565b7f4e487b71000000000000000000000000000000000000000000000000000000005f52601160045260245ffd5b5f610e898261065e565b91507fffffffffffffffffffffffffffffffffffffffffffffffffffffffffffffffff8203610ebb57610eba610e52565b5b600182019050919050565b5f819050919050565b610ee0610edb8261065e565b610ec6565b82525050565b5f81905092915050565b5f610efa82610933565b610f048185610ee6565b9350610f1481856020860161094d565b80840191505092915050565b5f610f2b8287610ecf565b602082019150610f3b8286610ef0565b9150610f478285610ef0565b9150610f538284610ef0565b91508190509594505050505056fea2646970667358221220b7b09e57c1fc26eb8a7de492b8e37a40b52ff6bcbb3843138c35591c96156b9764736f6c63430008180033",
					"opcodes": "PUSH1 0x80 PUSH1 0x40 MSTORE PUSH0 PUSH1 0x2 SSTORE PUSH0 PUSH1 0x4 SSTORE CALLVALUE DUP1 ISZERO PUSH2 0x17 JUMPI PUSH0 DUP1 REVERT JUMPDEST POP CALLER PUSH0 DUP1 PUSH2 0x100 EXP DUP2 SLOAD DUP2 PUSH20 0xFFFFFFFFFFFFFFFFFFFFFFFFFFFFFFFFFFFFFFFF MUL NOT AND SWAP1 DUP4 PUSH20 0xFFFFFFFFFFFFFFFFFFFFFFFFFFFFFFFFFFFFFFFF AND MUL OR SWAP1 SSTORE POP PUSH2 0xF97 DUP1 PUSH2 0x64 PUSH0 CODECOPY PUSH0 RETURN INVALID PUSH1 0x80 PUSH1 0x40 MSTORE CALLVALUE DUP1 ISZERO PUSH2 0xF JUMPI PUSH0 DUP1 REVERT JUMPDEST POP PUSH1 0x4 CALLDATASIZE LT PUSH2 0x60 JUMPI PUSH0 CALLDATALOAD PUSH1 0xE0 SHR DUP1 PUSH4 0x2F57B91C EQ PUSH2 0x64 JUMPI DUP1 PUSH4 0x4B58FBE9 EQ PUSH2 0x80 JUMPI DUP1 PUSH4 0x682477D7 EQ PUSH2 0x9E JUMPI DUP1 PUSH4 0x85F86E0D EQ PUSH2 0xBC JUMPI DUP1 PUSH4 0x8DA5CB5B EQ PUSH2 0xEC JUMPI DUP1 PUSH4 0xD2B0649A EQ PUSH2 0x10A JUMPI JUMPDEST PUSH0 DUP1 REVERT JUMPDEST PUSH2 0x7E PUSH1 0x4 DUP1 CALLDATASIZE SUB DUP2 ADD SWAP1 PUSH2 0x79 SWAP2 SWAP1 PUSH2 0x6E7 JUMP JUMPDEST PUSH2 0x13A JUMP JUMPDEST STOP JUMPDEST PUSH2 0x88 PUSH2 0x2B0 JUMP JUMPDEST PUSH1 0x40 MLOAD PUSH2 0x95 SWAP2 SWAP1 PUSH2 0x7B7 JUMP JUMPDEST PUSH1 0x40 MLOAD DUP1 SWAP2 SUB SWAP1 RETURN JUMPDEST PUSH2 0xA6 PUSH2 0x2B9 JUMP JUMPDEST PUSH1 0x40 MLOAD PUSH2 0xB3 SWAP2 SWAP1 PUSH2 0x7B7 JUMP JUMPDEST PUSH1 0x40 MLOAD DUP1 SWAP2 SUB SWAP1 RETURN JUMPDEST PUSH2 0xD6 PUSH1 0x4 DUP1 CALLDATASIZE SUB DUP2 ADD SWAP1 PUSH2 0xD1 SWAP2 SWAP1 PUSH2 0x7D0 JUMP JUMPDEST PUSH2 0x2C2 JUMP JUMPDEST PUSH1 0x40 MLOAD PUSH2 0xE3 SWAP2 SWAP1 PUSH2 0x897 JUMP JUMPDEST PUSH1 0x40 MLOAD DUP1 SWAP2 SUB SWAP1 RETURN JUMPDEST PUSH2 0xF4 PUSH2 0x305 JUMP JUMPDEST PUSH1 0x40 MLOAD PUSH2 0x101 SWAP2 SWAP1 PUSH2 0x8EF JUMP JUMPDEST PUSH1 0x40 MLOAD DUP1 SWAP2 SUB SWAP1 RETURN JUMPDEST PUSH2 0x124 PUSH1 0x4 DUP1 CALLDATASIZE SUB DUP2 ADD SWAP1 PUSH2 0x11F SWAP2 SWAP1 PUSH2 0x908 JUMP JUMPDEST PUSH2 0x328 JUMP JUMPDEST PUSH1 0x40 MLOAD PUSH2 0x131 SWAP2 SWAP1 PUSH2 0xACB JUMP JUMPDEST PUSH1 0x40 MLOAD DUP1 SWAP2 SUB SWAP1 RETURN JUMPDEST PUSH0 DUP1 SLOAD SWAP1 PUSH2 0x100 EXP SWAP1 DIV PUSH20 0xFFFFFFFFFFFFFFFFFFFFFFFFFFFFFFFFFFFFFFFF AND PUSH20 0xFFFFFFFFFFFFFFFFFFFFFFFFFFFFFFFFFFFFFFFF AND CALLER PUSH20 0xFFFFFFFFFFFFFFFFFFFFFFFFFFFFFFFFFFFFFFFF AND EQ PUSH2 0x1C7 JUMPI PUSH1 0x40 MLOAD PUSH32 0x8C379A000000000000000000000000000000000000000000000000000000000 DUP2 MSTORE PUSH1 0x4 ADD PUSH2 0x1BE SWAP1 PUSH2 0xB6B JUMP JUMPDEST PUSH1 0x40 MLOAD DUP1 SWAP2 SUB SWAP1 REVERT JUMPDEST PUSH1 0x40 MLOAD DUP1 PUSH1 0xC0 ADD PUSH1 0x40 MSTORE DUP1 DUP8 DUP2 MSTORE PUSH1 0x20 ADD DUP7 DUP2 MSTORE PUSH1 0x20 ADD DUP6 DUP2 MSTORE PUSH1 0x20 ADD DUP5 PUSH1 0x2 DUP2 GT ISZERO PUSH2 0x1F7 JUMPI PUSH2 0x1F6 PUSH2 0x9BC JUMP JUMPDEST JUMPDEST DUP2 MSTORE PUSH1 0x20 ADD DUP4 DUP2 MSTORE PUSH1 0x20 ADD DUP3 DUP2 MSTORE POP PUSH1 0x1 PUSH0 DUP7 DUP2 MSTORE PUSH1 0x20 ADD SWAP1 DUP2 MSTORE PUSH1 0x20 ADD PUSH0 KECCAK256 PUSH0 DUP3 ADD MLOAD DUP2 PUSH0 ADD SWAP1 DUP2 PUSH2 0x22A SWAP2 SWAP1 PUSH2 0xD83 JUMP JUMPDEST POP PUSH1 0x20 DUP3 ADD MLOAD DUP2 PUSH1 0x1 ADD SWAP1 DUP2 PUSH2 0x240 SWAP2 SWAP1 PUSH2 0xD83 JUMP JUMPDEST POP PUSH1 0x40 DUP3 ADD MLOAD DUP2 PUSH1 0x2 ADD SSTORE PUSH1 0x60 DUP3 ADD MLOAD DUP2 PUSH1 0x3 ADD PUSH0 PUSH2 0x100 EXP DUP2 SLOAD DUP2 PUSH1 0xFF MUL NOT AND SWAP1 DUP4 PUSH1 0x2 DUP2 GT ISZERO PUSH2 0x275 JUMPI PUSH2 0x274 PUSH2 0x9BC JUMP JUMPDEST JUMPDEST MUL OR SWAP1 SSTORE POP PUSH1 0x80 DUP3 ADD MLOAD DUP2 PUSH1 0x4 ADD SSTORE PUSH1 0xA0 DUP3 ADD MLOAD DUP2 PUSH1 0x5 ADD SSTORE SWAP1 POP POP PUSH1 0x2 PUSH0 DUP2 SLOAD DUP1 SWAP3 SWAP2 SWAP1 PUSH2 0x2A3 SWAP1 PUSH2 0xE7F JUMP JUMPDEST SWAP2 SWAP1 POP SSTORE POP POP POP POP POP POP POP JUMP JUMPDEST PUSH0 PUSH1 0x4 SLOAD SWAP1 POP SWAP1 JUMP JUMPDEST PUSH0 PUSH1 0x2 SLOAD SWAP1 POP SWAP1 JUMP JUMPDEST PUSH0 PUSH1 0x60 DUP6 DUP6 DUP6 DUP6 PUSH1 0x40 MLOAD PUSH1 0x20 ADD PUSH2 0x2DC SWAP5 SWAP4 SWAP3 SWAP2 SWAP1 PUSH2 0xF20 JUMP JUMPDEST PUSH1 0x40 MLOAD PUSH1 0x20 DUP2 DUP4 SUB SUB DUP2 MSTORE SWAP1 PUSH1 0x40 MSTORE SWAP1 POP PUSH0 DUP2 DUP1 MLOAD SWAP1 PUSH1 0x20 ADD KECCAK256 SWAP1 POP DUP1 SWAP3 POP POP POP SWAP5 SWAP4 POP POP POP POP JUMP JUMPDEST PUSH0 DUP1 SLOAD SWAP1 PUSH2 0x100 EXP SWAP1 DIV PUSH20 0xFFFFFFFFFFFFFFFFFFFFFFFFFFFFFFFFFFFFFFFF AND DUP2 JUMP JUMPDEST PUSH2 0x330 PUSH2 0x4CA JUMP JUMPDEST PUSH1 0x1 PUSH0 DUP4 DUP2 MSTORE PUSH1 0x20 ADD SWAP1 DUP2 MSTORE PUSH1 0x20 ADD PUSH0 KECCAK256 PUSH1 0x40 MLOAD DUP1 PUSH1 0xC0 ADD PUSH1 0x40 MSTORE SWAP1 DUP2 PUSH0 DUP3 ADD DUP1 SLOAD PUSH2 0x35B SWAP1 PUSH2 0xBB6 JUMP JUMPDEST DUP1 PUSH1 0x1F ADD PUSH1 0x20 DUP1 SWAP2 DIV MUL PUSH1 0x20 ADD PUSH1 0x40 MLOAD SWAP1 DUP2 ADD PUSH1 0x40 MSTORE DUP1 SWAP3 SWAP2 SWAP1 DUP2 DUP2 MSTORE PUSH1 0x20 ADD DUP3 DUP1 SLOAD PUSH2 0x387 SWAP1 PUSH2 0xBB6 JUMP JUMPDEST DUP1 ISZERO PUSH2 0x3D2 JUMPI DUP1 PUSH1 0x1F LT PUSH2 0x3A9 JUMPI PUSH2 0x100 DUP1 DUP4 SLOAD DIV MUL DUP4 MSTORE SWAP2 PUSH1 0x20 ADD SWAP2 PUSH2 0x3D2 JUMP JUMPDEST DUP3 ADD SWAP2 SWAP1 PUSH0 MSTORE PUSH1 0x20 PUSH0 KECCAK256 SWAP1 JUMPDEST DUP2 SLOAD DUP2 MSTORE SWAP1 PUSH1 0x1 ADD SWAP1 PUSH1 0x20 ADD DUP1 DUP4 GT PUSH2 0x3B5 JUMPI DUP3 SWAP1 SUB PUSH1 0x1F AND DUP3 ADD SWAP2 JUMPDEST POP POP POP POP POP DUP2 MSTORE PUSH1 0x20 ADD PUSH1 0x1 DUP3 ADD DUP1 SLOAD PUSH2 0x3EB SWAP1 PUSH2 0xBB6 JUMP JUMPDEST DUP1 PUSH1 0x1F ADD PUSH1 0x20 DUP1 SWAP2 DIV MUL PUSH1 0x20 ADD PUSH1 0x40 MLOAD SWAP1 DUP2 ADD PUSH1 0x40 MSTORE DUP1 SWAP3 SWAP2 SWAP1 DUP2 DUP2 MSTORE PUSH1 0x20 ADD DUP3 DUP1 SLOAD PUSH2 0x417 SWAP1 PUSH2 0xBB6 JUMP JUMPDEST DUP1 ISZERO PUSH2 0x462 JUMPI DUP1 PUSH1 0x1F LT PUSH2 0x439 JUMPI PUSH2 0x100 DUP1 DUP4 SLOAD DIV MUL DUP4 MSTORE SWAP2 PUSH1 0x20 ADD SWAP2 PUSH2 0x462 JUMP JUMPDEST DUP3 ADD SWAP2 SWAP1 PUSH0 MSTORE PUSH1 0x20 PUSH0 KECCAK256 SWAP1 JUMPDEST DUP2 SLOAD DUP2 MSTORE SWAP1 PUSH1 0x1 ADD SWAP1 PUSH1 0x20 ADD DUP1 DUP4 GT PUSH2 0x445 JUMPI DUP3 SWAP1 SUB PUSH1 0x1F AND DUP3 ADD SWAP2 JUMPDEST POP POP POP POP POP DUP2 MSTORE PUSH1 0x20 ADD PUSH1 0x2 DUP3 ADD SLOAD DUP2 MSTORE PUSH1 0x20 ADD PUSH1 0x3 DUP3 ADD PUSH0 SWAP1 SLOAD SWAP1 PUSH2 0x100 EXP SWAP1 DIV PUSH1 0xFF AND PUSH1 0x2 DUP2 GT ISZERO PUSH2 0x499 JUMPI PUSH2 0x498 PUSH2 0x9BC JUMP JUMPDEST JUMPDEST PUSH1 0x2 DUP2 GT ISZERO PUSH2 0x4AB JUMPI PUSH2 0x4AA PUSH2 0x9BC JUMP JUMPDEST JUMPDEST DUP2 MSTORE PUSH1 0x20 ADD PUSH1 0x4 DUP3 ADD SLOAD DUP2 MSTORE PUSH1 0x20 ADD PUSH1 0x5 DUP3 ADD SLOAD DUP2 MSTORE POP POP SWAP1 POP SWAP2 SWAP1 POP JUMP JUMPDEST PUSH1 0x40 MLOAD DUP1 PUSH1 0xC0 ADD PUSH1 0x40 MSTORE DUP1 PUSH1 0x60 DUP2 MSTORE PUSH1 0x20 ADD PUSH1 0x60 DUP2 MSTORE PUSH1 0x20 ADD PUSH0 DUP2 MSTORE PUSH1 0x20 ADD PUSH0 PUSH1 0x2 DUP2 GT ISZERO PUSH2 0x4FC JUMPI PUSH2 0x4FB PUSH2 0x9BC JUMP JUMPDEST JUMPDEST DUP2 MSTORE PUSH1 0x20 ADD PUSH0 DUP2 MSTORE PUSH1 0x20 ADD PUSH0 DUP1 NOT AND DUP2 MSTORE POP SWAP1 JUMP JUMPDEST PUSH0 PUSH1 0x40 MLOAD SWAP1 POP SWAP1 JUMP JUMPDEST PUSH0 DUP1 REVERT JUMPDEST PUSH0 DUP1 REVERT JUMPDEST PUSH0 DUP1 REVERT JUMPDEST PUSH0 DUP1 REVERT JUMPDEST PUSH0 PUSH1 0x1F NOT PUSH1 0x1F DUP4 ADD AND SWAP1 POP SWAP2 SWAP1 POP JUMP JUMPDEST PUSH32 0x4E487B7100000000000000000000000000000000000000000000000000000000 PUSH0 MSTORE PUSH1 0x41 PUSH1 0x4 MSTORE PUSH1 0x24 PUSH0 REVERT JUMPDEST PUSH2 0x570 DUP3 PUSH2 0x52A JUMP JUMPDEST DUP2 ADD DUP2 DUP2 LT PUSH8 0xFFFFFFFFFFFFFFFF DUP3 GT OR ISZERO PUSH2 0x58F JUMPI PUSH2 0x58E PUSH2 0x53A JUMP JUMPDEST JUMPDEST DUP1 PUSH1 0x40 MSTORE POP POP POP JUMP JUMPDEST PUSH0 PUSH2 0x5A1 PUSH2 0x511 JUMP JUMPDEST SWAP1 POP PUSH2 0x5AD DUP3 DUP3 PUSH2 0x567 JUMP JUMPDEST SWAP2 SWAP1 POP JUMP JUMPDEST PUSH0 PUSH8 0xFFFFFFFFFFFFFFFF DUP3 GT ISZERO PUSH2 0x5CC JUMPI PUSH2 0x5CB PUSH2 0x53A JUMP JUMPDEST JUMPDEST PUSH2 0x5D5 DUP3 PUSH2 0x52A JUMP JUMPDEST SWAP1 POP PUSH1 0x20 DUP2 ADD SWAP1 POP SWAP2 SWAP1 POP JUMP JUMPDEST DUP3 DUP2 DUP4 CALLDATACOPY PUSH0 DUP4 DUP4 ADD MSTORE POP POP POP JUMP JUMPDEST PUSH0 PUSH2 0x602 PUSH2 0x5FD DUP5 PUSH2 0x5B2 JUMP JUMPDEST PUSH2 0x598 JUMP JUMPDEST SWAP1 POP DUP3 DUP2 MSTORE PUSH1 0x20 DUP2 ADD DUP5 DUP5 DUP5 ADD GT ISZERO PUSH2 0x61E JUMPI PUSH2 0x61D PUSH2 0x526 JUMP JUMPDEST JUMPDEST PUSH2 0x629 DUP5 DUP3 DUP6 PUSH2 0x5E2 JUMP JUMPDEST POP SWAP4 SWAP3 POP POP POP JUMP JUMPDEST PUSH0 DUP3 PUSH1 0x1F DUP4 ADD SLT PUSH2 0x645 JUMPI PUSH2 0x644 PUSH2 0x522 JUMP JUMPDEST JUMPDEST DUP2 CALLDATALOAD PUSH2 0x655 DUP5 DUP3 PUSH1 0x20 DUP7 ADD PUSH2 0x5F0 JUMP JUMPDEST SWAP2 POP POP SWAP3 SWAP2 POP POP JUMP JUMPDEST PUSH0 DUP2 SWAP1 POP SWAP2 SWAP1 POP JUMP JUMPDEST PUSH2 0x670 DUP2 PUSH2 0x65E JUMP JUMPDEST DUP2 EQ PUSH2 0x67A JUMPI PUSH0 DUP1 REVERT JUMPDEST POP JUMP JUMPDEST PUSH0 DUP2 CALLDATALOAD SWAP1 POP PUSH2 0x68B DUP2 PUSH2 0x667 JUMP JUMPDEST SWAP3 SWAP2 POP POP JUMP JUMPDEST PUSH1 0x3 DUP2 LT PUSH2 0x69D JUMPI PUSH0 DUP1 REVERT JUMPDEST POP JUMP JUMPDEST PUSH0 DUP2 CALLDATALOAD SWAP1 POP PUSH2 0x6AE DUP2 PUSH2 0x691 JUMP JUMPDEST SWAP3 SWAP2 POP POP JUMP JUMPDEST PUSH0 DUP2 SWAP1 POP SWAP2 SWAP1 POP JUMP JUMPDEST PUSH2 0x6C6 DUP2 PUSH2 0x6B4 JUMP JUMPDEST DUP2 EQ PUSH2 0x6D0 JUMPI PUSH0 DUP1 REVERT JUMPDEST POP JUMP JUMPDEST PUSH0 DUP2 CALLDATALOAD SWAP1 POP PUSH2 0x6E1 DUP2 PUSH2 0x6BD JUMP JUMPDEST SWAP3 SWAP2 POP POP JUMP JUMPDEST PUSH0 DUP1 PUSH0 DUP1 PUSH0 DUP1 PUSH1 0xC0 DUP8 DUP10 SUB SLT ISZERO PUSH2 0x701 JUMPI PUSH2 0x700 PUSH2 0x51A JUMP JUMPDEST JUMPDEST PUSH0 DUP8 ADD CALLDATALOAD PUSH8 0xFFFFFFFFFFFFFFFF DUP2 GT ISZERO PUSH2 0x71E JUMPI PUSH2 0x71D PUSH2 0x51E JUMP JUMPDEST JUMPDEST PUSH2 0x72A DUP10 DUP3 DUP11 ADD PUSH2 0x631 JUMP JUMPDEST SWAP7 POP POP PUSH1 0x20 DUP8 ADD CALLDATALOAD PUSH8 0xFFFFFFFFFFFFFFFF DUP2 GT ISZERO PUSH2 0x74B JUMPI PUSH2 0x74A PUSH2 0x51E JUMP JUMPDEST JUMPDEST PUSH2 0x757 DUP10 DUP3 DUP11 ADD PUSH2 0x631 JUMP JUMPDEST SWAP6 POP POP PUSH1 0x40 PUSH2 0x768 DUP10 DUP3 DUP11 ADD PUSH2 0x67D JUMP JUMPDEST SWAP5 POP POP PUSH1 0x60 PUSH2 0x779 DUP10 DUP3 DUP11 ADD PUSH2 0x6A0 JUMP JUMPDEST SWAP4 POP POP PUSH1 0x80 PUSH2 0x78A DUP10 DUP3 DUP11 ADD PUSH2 0x67D JUMP JUMPDEST SWAP3 POP POP PUSH1 0xA0 PUSH2 0x79B DUP10 DUP3 DUP11 ADD PUSH2 0x6D3 JUMP JUMPDEST SWAP2 POP POP SWAP3 SWAP6 POP SWAP3 SWAP6 POP SWAP3 SWAP6 JUMP JUMPDEST PUSH2 0x7B1 DUP2 PUSH2 0x65E JUMP JUMPDEST DUP3 MSTORE POP POP JUMP JUMPDEST PUSH0 PUSH1 0x20 DUP3 ADD SWAP1 POP PUSH2 0x7CA PUSH0 DUP4 ADD DUP5 PUSH2 0x7A8 JUMP JUMPDEST SWAP3 SWAP2 POP POP JUMP JUMPDEST PUSH0 DUP1 PUSH0 DUP1 PUSH1 0x80 DUP6 DUP8 SUB SLT ISZERO PUSH2 0x7E8 JUMPI PUSH2 0x7E7 PUSH2 0x51A JUMP JUMPDEST JUMPDEST PUSH0 PUSH2 0x7F5 DUP8 DUP3 DUP9 ADD PUSH2 0x67D JUMP JUMPDEST SWAP5 POP POP PUSH1 0x20 DUP6 ADD CALLDATALOAD PUSH8 0xFFFFFFFFFFFFFFFF DUP2 GT ISZERO PUSH2 0x816 JUMPI PUSH2 0x815 PUSH2 0x51E JUMP JUMPDEST JUMPDEST PUSH2 0x822 DUP8 DUP3 DUP9 ADD PUSH2 0x631 JUMP JUMPDEST SWAP4 POP POP PUSH1 0x40 DUP6 ADD CALLDATALOAD PUSH8 0xFFFFFFFFFFFFFFFF DUP2 GT ISZERO PUSH2 0x843 JUMPI PUSH2 0x842 PUSH2 0x51E JUMP JUMPDEST JUMPDEST PUSH2 0x84F DUP8 DUP3 DUP9 ADD PUSH2 0x631 JUMP JUMPDEST SWAP3 POP POP PUSH1 0x60 DUP6 ADD CALLDATALOAD PUSH8 0xFFFFFFFFFFFFFFFF DUP2 GT ISZERO PUSH2 0x870 JUMPI PUSH2 0x86F PUSH2 0x51E JUMP JUMPDEST JUMPDEST PUSH2 0x87C DUP8 DUP3 DUP9 ADD PUSH2 0x631 JUMP JUMPDEST SWAP2 POP POP SWAP3 SWAP6 SWAP2 SWAP5 POP SWAP3 POP JUMP JUMPDEST PUSH2 0x891 DUP2 PUSH2 0x6B4 JUMP JUMPDEST DUP3 MSTORE POP POP JUMP JUMPDEST PUSH0 PUSH1 0x20 DUP3 ADD SWAP1 POP PUSH2 0x8AA PUSH0 DUP4 ADD DUP5 PUSH2 0x888 JUMP JUMPDEST SWAP3 SWAP2 POP POP JUMP JUMPDEST PUSH0 PUSH20 0xFFFFFFFFFFFFFFFFFFFFFFFFFFFFFFFFFFFFFFFF DUP3 AND SWAP1 POP SWAP2 SWAP1 POP JUMP JUMPDEST PUSH0 PUSH2 0x8D9 DUP3 PUSH2 0x8B0 JUMP JUMPDEST SWAP1 POP SWAP2 SWAP1 POP JUMP JUMPDEST PUSH2 0x8E9 DUP2 PUSH2 0x8CF JUMP JUMPDEST DUP3 MSTORE POP POP JUMP JUMPDEST PUSH0 PUSH1 0x20 DUP3 ADD SWAP1 POP PUSH2 0x902 PUSH0 DUP4 ADD DUP5 PUSH2 0x8E0 JUMP JUMPDEST SWAP3 SWAP2 POP POP JUMP JUMPDEST PUSH0 PUSH1 0x20 DUP3 DUP5 SUB SLT ISZERO PUSH2 0x91D JUMPI PUSH2 0x91C PUSH2 0x51A JUMP JUMPDEST JUMPDEST PUSH0 PUSH2 0x92A DUP5 DUP3 DUP6 ADD PUSH2 0x67D JUMP JUMPDEST SWAP2 POP POP SWAP3 SWAP2 POP POP JUMP JUMPDEST PUSH0 DUP2 MLOAD SWAP1 POP SWAP2 SWAP1 POP JUMP JUMPDEST PUSH0 DUP3 DUP3 MSTORE PUSH1 0x20 DUP3 ADD SWAP1 POP SWAP3 SWAP2 POP POP JUMP JUMPDEST PUSH0 JUMPDEST DUP4 DUP2 LT ISZERO PUSH2 0x96A JUMPI DUP1 DUP3 ADD MLOAD DUP2 DUP5 ADD MSTORE PUSH1 0x20 DUP2 ADD SWAP1 POP PUSH2 0x94F JUMP JUMPDEST PUSH0 DUP5 DUP5 ADD MSTORE POP POP POP POP JUMP JUMPDEST PUSH0 PUSH2 0x97F DUP3 PUSH2 0x933 JUMP JUMPDEST PUSH2 0x989 DUP2 DUP6 PUSH2 0x93D JUMP JUMPDEST SWAP4 POP PUSH2 0x999 DUP2 DUP6 PUSH1 0x20 DUP7 ADD PUSH2 0x94D JUMP JUMPDEST PUSH2 0x9A2 DUP2 PUSH2 0x52A JUMP JUMPDEST DUP5 ADD SWAP2 POP POP SWAP3 SWAP2 POP POP JUMP JUMPDEST PUSH2 0x9B6 DUP2 PUSH2 0x65E JUMP JUMPDEST DUP3 MSTORE POP POP JUMP JUMPDEST PUSH32 0x4E487B7100000000000000000000000000000000000000000000000000000000 PUSH0 MSTORE PUSH1 0x21 PUSH1 0x4 MSTORE PUSH1 0x24 PUSH0 REVERT JUMPDEST PUSH1 0x3 DUP2 LT PUSH2 0x9FA JUMPI PUSH2 0x9F9 PUSH2 0x9BC JUMP JUMPDEST JUMPDEST POP JUMP JUMPDEST PUSH0 DUP2 SWAP1 POP PUSH2 0xA0A DUP3 PUSH2 0x9E9 JUMP JUMPDEST SWAP2 SWAP1 POP JUMP JUMPDEST PUSH0 PUSH2 0xA19 DUP3 PUSH2 0x9FD JUMP JUMPDEST SWAP1 POP SWAP2 SWAP1 POP JUMP JUMPDEST PUSH2 0xA29 DUP2 PUSH2 0xA0F JUMP JUMPDEST DUP3 MSTORE POP POP JUMP JUMPDEST PUSH2 0xA38 DUP2 PUSH2 0x6B4 JUMP JUMPDEST DUP3 MSTORE POP POP JUMP JUMPDEST PUSH0 PUSH1 0xC0 DUP4 ADD PUSH0 DUP4 ADD MLOAD DUP5 DUP3 SUB PUSH0 DUP7 ADD MSTORE PUSH2 0xA58 DUP3 DUP3 PUSH2 0x975 JUMP JUMPDEST SWAP2 POP POP PUSH1 0x20 DUP4 ADD MLOAD DUP5 DUP3 SUB PUSH1 0x20 DUP7 ADD MSTORE PUSH2 0xA72 DUP3 DUP3 PUSH2 0x975 JUMP JUMPDEST SWAP2 POP POP PUSH1 0x40 DUP4 ADD MLOAD PUSH2 0xA87 PUSH1 0x40 DUP7 ADD DUP3 PUSH2 0x9AD JUMP JUMPDEST POP PUSH1 0x60 DUP4 ADD MLOAD PUSH2 0xA9A PUSH1 0x60 DUP7 ADD DUP3 PUSH2 0xA20 JUMP JUMPDEST POP PUSH1 0x80 DUP4 ADD MLOAD PUSH2 0xAAD PUSH1 0x80 DUP7 ADD DUP3 PUSH2 0x9AD JUMP JUMPDEST POP PUSH1 0xA0 DUP4 ADD MLOAD PUSH2 0xAC0 PUSH1 0xA0 DUP7 ADD DUP3 PUSH2 0xA2F JUMP JUMPDEST POP DUP1 SWAP2 POP POP SWAP3 SWAP2 POP POP JUMP JUMPDEST PUSH0 PUSH1 0x20 DUP3 ADD SWAP1 POP DUP2 DUP2 SUB PUSH0 DUP4 ADD MSTORE PUSH2 0xAE3 DUP2 DUP5 PUSH2 0xA3E JUMP JUMPDEST SWAP1 POP SWAP3 SWAP2 POP POP JUMP JUMPDEST PUSH0 DUP3 DUP3 MSTORE PUSH1 0x20 DUP3 ADD SWAP1 POP SWAP3 SWAP2 POP POP JUMP JUMPDEST PUSH32 0x4F6E6C792074686520636F6E7472616374206F776E65722063616E2070657266 PUSH0 DUP3 ADD MSTORE PUSH32 0x6F726D2074686973206F7065726174696F6E0000000000000000000000000000 PUSH1 0x20 DUP3 ADD MSTORE POP JUMP JUMPDEST PUSH0 PUSH2 0xB55 PUSH1 0x32 DUP4 PUSH2 0xAEB JUMP JUMPDEST SWAP2 POP PUSH2 0xB60 DUP3 PUSH2 0xAFB JUMP JUMPDEST PUSH1 0x40 DUP3 ADD SWAP1 POP SWAP2 SWAP1 POP JUMP JUMPDEST PUSH0 PUSH1 0x20 DUP3 ADD SWAP1 POP DUP2 DUP2 SUB PUSH0 DUP4 ADD MSTORE PUSH2 0xB82 DUP2 PUSH2 0xB49 JUMP JUMPDEST SWAP1 POP SWAP2 SWAP1 POP JUMP JUMPDEST PUSH32 0x4E487B7100000000000000000000000000000000000000000000000000000000 PUSH0 MSTORE PUSH1 0x22 PUSH1 0x4 MSTORE PUSH1 0x24 PUSH0 REVERT JUMPDEST PUSH0 PUSH1 0x2 DUP3 DIV SWAP1 POP PUSH1 0x1 DUP3 AND DUP1 PUSH2 0xBCD JUMPI PUSH1 0x7F DUP3 AND SWAP2 POP JUMPDEST PUSH1 0x20 DUP3 LT DUP2 SUB PUSH2 0xBE0 JUMPI PUSH2 0xBDF PUSH2 0xB89 JUMP JUMPDEST JUMPDEST POP SWAP2 SWAP1 POP JUMP JUMPDEST PUSH0 DUP2 SWAP1 POP DUP2 PUSH0 MSTORE PUSH1 0x20 PUSH0 KECCAK256 SWAP1 POP SWAP2 SWAP1 POP JUMP JUMPDEST PUSH0 PUSH1 0x20 PUSH1 0x1F DUP4 ADD DIV SWAP1 POP SWAP2 SWAP1 POP JUMP JUMPDEST PUSH0 DUP3 DUP3 SHL SWAP1 POP SWAP3 SWAP2 POP POP JUMP JUMPDEST PUSH0 PUSH1 0x8 DUP4 MUL PUSH2 0xC42 PUSH32 0xFFFFFFFFFFFFFFFFFFFFFFFFFFFFFFFFFFFFFFFFFFFFFFFFFFFFFFFFFFFFFFFF DUP3 PUSH2 0xC07 JUMP JUMPDEST PUSH2 0xC4C DUP7 DUP4 PUSH2 0xC07 JUMP JUMPDEST SWAP6 POP DUP1 NOT DUP5 AND SWAP4 POP DUP1 DUP7 AND DUP5 OR SWAP3 POP POP POP SWAP4 SWAP3 POP POP POP JUMP JUMPDEST PUSH0 DUP2 SWAP1 POP SWAP2 SWAP1 POP JUMP JUMPDEST PUSH0 PUSH2 0xC87 PUSH2 0xC82 PUSH2 0xC7D DUP5 PUSH2 0x65E JUMP JUMPDEST PUSH2 0xC64 JUMP JUMPDEST PUSH2 0x65E JUMP JUMPDEST SWAP1 POP SWAP2 SWAP1 POP JUMP JUMPDEST PUSH0 DUP2 SWAP1 POP SWAP2 SWAP1 POP JUMP JUMPDEST PUSH2 0xCA0 DUP4 PUSH2 0xC6D JUMP JUMPDEST PUSH2 0xCB4 PUSH2 0xCAC DUP3 PUSH2 0xC8E JUMP JUMPDEST DUP5 DUP5 SLOAD PUSH2 0xC13 JUMP JUMPDEST DUP3 SSTORE POP POP POP POP JUMP JUMPDEST PUSH0 SWAP1 JUMP JUMPDEST PUSH2 0xCC8 PUSH2 0xCBC JUMP JUMPDEST PUSH2 0xCD3 DUP2 DUP5 DUP5 PUSH2 0xC97 JUMP JUMPDEST POP POP POP JUMP JUMPDEST JUMPDEST DUP2 DUP2 LT ISZERO PUSH2 0xCF6 JUMPI PUSH2 0xCEB PUSH0 DUP3 PUSH2 0xCC0 JUMP JUMPDEST PUSH1 0x1 DUP2 ADD SWAP1 POP PUSH2 0xCD9 JUMP JUMPDEST POP POP JUMP JUMPDEST PUSH1 0x1F DUP3 GT ISZERO PUSH2 0xD3B JUMPI PUSH2 0xD0C DUP2 PUSH2 0xBE6 JUMP JUMPDEST PUSH2 0xD15 DUP5 PUSH2 0xBF8 JUMP JUMPDEST DUP2 ADD PUSH1 0x20 DUP6 LT ISZERO PUSH2 0xD24 JUMPI DUP2 SWAP1 POP JUMPDEST PUSH2 0xD38 PUSH2 0xD30 DUP6 PUSH2 0xBF8 JUMP JUMPDEST DUP4 ADD DUP3 PUSH2 0xCD8 JUMP JUMPDEST POP POP JUMPDEST POP POP POP JUMP JUMPDEST PUSH0 DUP3 DUP3 SHR SWAP1 POP SWAP3 SWAP2 POP POP JUMP JUMPDEST PUSH0 PUSH2 0xD5B PUSH0 NOT DUP5 PUSH1 0x8 MUL PUSH2 0xD40 JUMP JUMPDEST NOT DUP1 DUP4 AND SWAP2 POP POP SWAP3 SWAP2 POP POP JUMP JUMPDEST PUSH0 PUSH2 0xD73 DUP4 DUP4 PUSH2 0xD4C JUMP JUMPDEST SWAP2 POP DUP3 PUSH1 0x2 MUL DUP3 OR SWAP1 POP SWAP3 SWAP2 POP POP JUMP JUMPDEST PUSH2 0xD8C DUP3 PUSH2 0x933 JUMP JUMPDEST PUSH8 0xFFFFFFFFFFFFFFFF DUP2 GT ISZERO PUSH2 0xDA5 JUMPI PUSH2 0xDA4 PUSH2 0x53A JUMP JUMPDEST JUMPDEST PUSH2 0xDAF DUP3 SLOAD PUSH2 0xBB6 JUMP JUMPDEST PUSH2 0xDBA DUP3 DUP3 DUP6 PUSH2 0xCFA JUMP JUMPDEST PUSH0 PUSH1 0x20 SWAP1 POP PUSH1 0x1F DUP4 GT PUSH1 0x1 DUP2 EQ PUSH2 0xDEB JUMPI PUSH0 DUP5 ISZERO PUSH2 0xDD9 JUMPI DUP3 DUP8 ADD MLOAD SWAP1 POP JUMPDEST PUSH2 0xDE3 DUP6 DUP3 PUSH2 0xD68 JUMP JUMPDEST DUP7 SSTORE POP PUSH2 0xE4A JUMP JUMPDEST PUSH1 0x1F NOT DUP5 AND PUSH2 0xDF9 DUP7 PUSH2 0xBE6 JUMP JUMPDEST PUSH0 JUMPDEST DUP3 DUP2 LT ISZERO PUSH2 0xE20 JUMPI DUP5 DUP10 ADD MLOAD DUP3 SSTORE PUSH1 0x1 DUP3 ADD SWAP2 POP PUSH1 0x20 DUP6 ADD SWAP5 POP PUSH1 0x20 DUP2 ADD SWAP1 POP PUSH2 0xDFB JUMP JUMPDEST DUP7 DUP4 LT ISZERO PUSH2 0xE3D JUMPI DUP5 DUP10 ADD MLOAD PUSH2 0xE39 PUSH1 0x1F DUP10 AND DUP3 PUSH2 0xD4C JUMP JUMPDEST DUP4 SSTORE POP JUMPDEST PUSH1 0x1 PUSH1 0x2 DUP9 MUL ADD DUP9 SSTORE POP POP POP JUMPDEST POP POP POP POP POP POP JUMP JUMPDEST PUSH32 0x4E487B7100000000000000000000000000000000000000000000000000000000 PUSH0 MSTORE PUSH1 0x11 PUSH1 0x4 MSTORE PUSH1 0x24 PUSH0 REVERT JUMPDEST PUSH0 PUSH2 0xE89 DUP3 PUSH2 0x65E JUMP JUMPDEST SWAP2 POP PUSH32 0xFFFFFFFFFFFFFFFFFFFFFFFFFFFFFFFFFFFFFFFFFFFFFFFFFFFFFFFFFFFFFFFF DUP3 SUB PUSH2 0xEBB JUMPI PUSH2 0xEBA PUSH2 0xE52 JUMP JUMPDEST JUMPDEST PUSH1 0x1 DUP3 ADD SWAP1 POP SWAP2 SWAP1 POP JUMP JUMPDEST PUSH0 DUP2 SWAP1 POP SWAP2 SWAP1 POP JUMP JUMPDEST PUSH2 0xEE0 PUSH2 0xEDB DUP3 PUSH2 0x65E JUMP JUMPDEST PUSH2 0xEC6 JUMP JUMPDEST DUP3 MSTORE POP POP JUMP JUMPDEST PUSH0 DUP2 SWAP1 POP SWAP3 SWAP2 POP POP JUMP JUMPDEST PUSH0 PUSH2 0xEFA DUP3 PUSH2 0x933 JUMP JUMPDEST PUSH2 0xF04 DUP2 DUP6 PUSH2 0xEE6 JUMP JUMPDEST SWAP4 POP PUSH2 0xF14 DUP2 DUP6 PUSH1 0x20 DUP7 ADD PUSH2 0x94D JUMP JUMPDEST DUP1 DUP5 ADD SWAP2 POP POP SWAP3 SWAP2 POP POP JUMP JUMPDEST PUSH0 PUSH2 0xF2B DUP3 DUP8 PUSH2 0xECF JUMP JUMPDEST PUSH1 0x20 DUP3 ADD SWAP2 POP PUSH2 0xF3B DUP3 DUP7 PUSH2 0xEF0 JUMP JUMPDEST SWAP2 POP PUSH2 0xF47 DUP3 DUP6 PUSH2 0xEF0 JUMP JUMPDEST SWAP2 POP PUSH2 0xF53 DUP3 DUP5 PUSH2 0xEF0 JUMP JUMPDEST SWAP2 POP DUP2 SWAP1 POP SWAP6 SWAP5 POP POP POP POP POP JUMP INVALID LOG2 PUSH5 0x6970667358 0x22 SLT KECCAK256 0xB7 0xB0 SWAP15 JUMPI 0xC1 0xFC 0x26 0xEB DUP11 PUSH30 0xE492B8E37A40B52FF6BCBB3843138C35591C96156B9764736F6C63430008 XOR STOP CALLER "
				},
				"gasEstimates": {
					"creation": {
						"codeDepositCost": "798200",
						"executionCost": "35104",
						"totalCost": "833304"
					},
					"external": {
						"addDataUsage(string,string,uint256,uint8,uint256,bytes32)": "infinite",
						"addPersonalData(uint256,string,string,string)": "infinite",
						"getDataUsageByKey(uint256)": "infinite",
						"getDataUsageCounter()": "2454",
						"getPersonalDataCounter()": "2432",
						"owner()": "2571"
					}
				},
				"methodIdentifiers": {
					"addDataUsage(string,string,uint256,uint8,uint256,bytes32)": "2f57b91c",
					"addPersonalData(uint256,string,string,string)": "85f86e0d",
					"getDataUsageByKey(uint256)": "d2b0649a",
					"getDataUsageCounter()": "682477d7",
					"getPersonalDataCounter()": "4b58fbe9",
					"owner()": "8da5cb5b"
				}
			},
			"storageLayout": {
				"storage": [
					{
						"astId": 3,
						"contract": "contracts/DataUsageSmartContract.sol:DataUsageSmartContract",
						"label": "owner",
						"offset": 0,
						"slot": "0",
						"type": "t_address"
					},
					{
						"astId": 62,
						"contract": "contracts/DataUsageSmartContract.sol:DataUsageSmartContract",
						"label": "dataUsages",
						"offset": 0,
						"slot": "1",
						"type": "t_mapping(t_uint256,t_struct(DataUsage)48_storage)"
					},
					{
						"astId": 65,
						"contract": "contracts/DataUsageSmartContract.sol:DataUsageSmartContract",
						"label": "dataUsageCounter",
						"offset": 0,
						"slot": "2",
						"type": "t_uint256"
					},
					{
						"astId": 68,
						"contract": "contracts/DataUsageSmartContract.sol:DataUsageSmartContract",
						"label": "actorIds",
						"offset": 0,
						"slot": "3",
						"type": "t_array(t_uint256)dyn_storage"
					},
					{
						"astId": 71,
						"contract": "contracts/DataUsageSmartContract.sol:DataUsageSmartContract",
						"label": "personalDataCounter",
						"offset": 0,
						"slot": "4",
						"type": "t_uint256"
					}
				],
				"types": {
					"t_address": {
						"encoding": "inplace",
						"label": "address",
						"numberOfBytes": "20"
					},
					"t_array(t_uint256)dyn_storage": {
						"base": "t_uint256",
						"encoding": "dynamic_array",
						"label": "uint256[]",
						"numberOfBytes": "32"
					},
					"t_bytes32": {
						"encoding": "inplace",
						"label": "bytes32",
						"numberOfBytes": "32"
					},
					"t_enum(Operation)34": {
						"encoding": "inplace",
						"label": "enum DataUsageSmartContract.Operation",
						"numberOfBytes": "1"
					},
					"t_mapping(t_uint256,t_struct(DataUsage)48_storage)": {
						"encoding": "mapping",
						"key": "t_uint256",
						"label": "mapping(uint256 => struct DataUsageSmartContract.DataUsage)",
						"numberOfBytes": "32",
						"value": "t_struct(DataUsage)48_storage"
					},
					"t_string_storage": {
						"encoding": "bytes",
						"label": "string",
						"numberOfBytes": "32"
					},
					"t_struct(DataUsage)48_storage": {
						"encoding": "inplace",
						"label": "struct DataUsageSmartContract.DataUsage",
						"members": [
							{
								"astId": 36,
								"contract": "contracts/DataUsageSmartContract.sol:DataUsageSmartContract",
								"label": "serviceName",
								"offset": 0,
								"slot": "0",
								"type": "t_string_storage"
							},
							{
								"astId": 38,
								"contract": "contracts/DataUsageSmartContract.sol:DataUsageSmartContract",
								"label": "servicePurpose",
								"offset": 0,
								"slot": "1",
								"type": "t_string_storage"
							},
							{
								"astId": 40,
								"contract": "contracts/DataUsageSmartContract.sol:DataUsageSmartContract",
								"label": "actorId",
								"offset": 0,
								"slot": "2",
								"type": "t_uint256"
							},
							{
								"astId": 43,
								"contract": "contracts/DataUsageSmartContract.sol:DataUsageSmartContract",
								"label": "operations",
								"offset": 0,
								"slot": "3",
								"type": "t_enum(Operation)34"
							},
							{
								"astId": 45,
								"contract": "contracts/DataUsageSmartContract.sol:DataUsageSmartContract",
								"label": "personalDataIds",
								"offset": 0,
								"slot": "4",
								"type": "t_uint256"
							},
							{
								"astId": 47,
								"contract": "contracts/DataUsageSmartContract.sol:DataUsageSmartContract",
								"label": "processedPersonalDatas",
								"offset": 0,
								"slot": "5",
								"type": "t_bytes32"
							}
						],
						"numberOfBytes": "192"
					},
					"t_uint256": {
						"encoding": "inplace",
						"label": "uint256",
						"numberOfBytes": "32"
					}
				}
			},
			"userdoc": {
				"kind": "user",
				"methods": {},
				"version": 1
			}
		}
	}
}