{
	"contracts/AgreementSmartContract.sol": {
		"AgreementSmartContract": {
			"abi": [
				{
					"inputs": [
						{
							"internalType": "bytes32",
							"name": "_purposeBlockHash",
							"type": "bytes32"
						},
						{
							"internalType": "uint256",
							"name": "_userID",
							"type": "uint256"
						},
						{
							"internalType": "bool",
							"name": "_consent",
							"type": "bool"
						}
					],
					"name": "addAgreement",
					"outputs": [],
					"stateMutability": "nonpayable",
					"type": "function"
				},
				{
					"inputs": [
						{
							"internalType": "uint256",
							"name": "",
							"type": "uint256"
						}
					],
					"name": "agreements",
					"outputs": [
						{
							"internalType": "bytes32",
							"name": "purposeBlockHash",
							"type": "bytes32"
						},
						{
							"internalType": "uint256",
							"name": "userID",
							"type": "uint256"
						},
						{
							"internalType": "bool",
							"name": "consent",
							"type": "bool"
						}
					],
					"stateMutability": "view",
					"type": "function"
				},
				{
					"inputs": [],
					"name": "getAgreementsLength",
					"outputs": [
						{
							"internalType": "uint256",
							"name": "",
							"type": "uint256"
						}
					],
					"stateMutability": "view",
					"type": "function"
				}
			],
			"devdoc": {
				"kind": "dev",
				"methods": {},
				"version": 1
			},
			"evm": {
				"assembly": "    /* \"contracts/AgreementSmartContract.sol\":58:650  contract AgreementSmartContract {... */\n  mstore(0x40, 0x80)\n  callvalue\n  dup1\n  iszero\n  tag_1\n  jumpi\n  0x00\n  dup1\n  revert\ntag_1:\n  pop\n  dataSize(sub_0)\n  dup1\n  dataOffset(sub_0)\n  0x00\n  codecopy\n  0x00\n  return\nstop\n\nsub_0: assembly {\n        /* \"contracts/AgreementSmartContract.sol\":58:650  contract AgreementSmartContract {... */\n      mstore(0x40, 0x80)\n      callvalue\n      dup1\n      iszero\n      tag_1\n      jumpi\n      0x00\n      dup1\n      revert\n    tag_1:\n      pop\n      jumpi(tag_2, lt(calldatasize, 0x04))\n      shr(0xe0, calldataload(0x00))\n      dup1\n      0x1c510ea9\n      eq\n      tag_3\n      jumpi\n      dup1\n      0x8c184932\n      eq\n      tag_4\n      jumpi\n      dup1\n      0xbd14de96\n      eq\n      tag_5\n      jumpi\n    tag_2:\n      0x00\n      dup1\n      revert\n        /* \"contracts/AgreementSmartContract.sol\":547:647  function getAgreementsLength() public view returns (uint){... */\n    tag_3:\n      tag_6\n      tag_7\n      jump\t// in\n    tag_6:\n      mload(0x40)\n      tag_8\n      swap2\n      swap1\n      tag_9\n      jump\t// in\n    tag_8:\n      mload(0x40)\n      dup1\n      swap2\n      sub\n      swap1\n      return\n        /* \"contracts/AgreementSmartContract.sol\":364:539  function addAgreement(bytes32 _purposeBlockHash, uint _userID, bool _consent) public {... */\n    tag_4:\n      tag_10\n      0x04\n      dup1\n      calldatasize\n      sub\n      dup2\n      add\n      swap1\n      tag_11\n      swap2\n      swap1\n      tag_12\n      jump\t// in\n    tag_11:\n      tag_13\n      jump\t// in\n    tag_10:\n      stop\n        /* \"contracts/AgreementSmartContract.sol\":328:357  Agreement[] public agreements */\n    tag_5:\n      tag_14\n      0x04\n      dup1\n      calldatasize\n      sub\n      dup2\n      add\n      swap1\n      tag_15\n      swap2\n      swap1\n      tag_16\n      jump\t// in\n    tag_15:\n      tag_17\n      jump\t// in\n    tag_14:\n      mload(0x40)\n      tag_18\n      swap4\n      swap3\n      swap2\n      swap1\n      tag_19\n      jump\t// in\n    tag_18:\n      mload(0x40)\n      dup1\n      swap2\n      sub\n      swap1\n      return\n        /* \"contracts/AgreementSmartContract.sol\":547:647  function getAgreementsLength() public view returns (uint){... */\n    tag_7:\n        /* \"contracts/AgreementSmartContract.sol\":599:603  uint */\n      0x00\n        /* \"contracts/AgreementSmartContract.sol\":622:632  agreements */\n      dup1\n        /* \"contracts/AgreementSmartContract.sol\":622:639  agreements.length */\n      dup1\n      sload\n      swap1\n      pop\n        /* \"contracts/AgreementSmartContract.sol\":615:639  return agreements.length */\n      swap1\n      pop\n        /* \"contracts/AgreementSmartContract.sol\":547:647  function getAgreementsLength() public view returns (uint){... */\n      swap1\n      jump\t// out\n        /* \"contracts/AgreementSmartContract.sol\":364:539  function addAgreement(bytes32 _purposeBlockHash, uint _userID, bool _consent) public {... */\n    tag_13:\n        /* \"contracts/AgreementSmartContract.sol\":460:470  agreements */\n      0x00\n        /* \"contracts/AgreementSmartContract.sol\":476:523  Agreement(_purposeBlockHash, _userID, _consent) */\n      mload(0x40)\n      dup1\n      0x60\n      add\n      0x40\n      mstore\n      dup1\n        /* \"contracts/AgreementSmartContract.sol\":486:503  _purposeBlockHash */\n      dup6\n        /* \"contracts/AgreementSmartContract.sol\":476:523  Agreement(_purposeBlockHash, _userID, _consent) */\n      dup2\n      mstore\n      0x20\n      add\n        /* \"contracts/AgreementSmartContract.sol\":505:512  _userID */\n      dup5\n        /* \"contracts/AgreementSmartContract.sol\":476:523  Agreement(_purposeBlockHash, _userID, _consent) */\n      dup2\n      mstore\n      0x20\n      add\n        /* \"contracts/AgreementSmartContract.sol\":514:522  _consent */\n      dup4\n        /* \"contracts/AgreementSmartContract.sol\":476:523  Agreement(_purposeBlockHash, _userID, _consent) */\n      iszero\n      iszero\n      dup2\n      mstore\n      pop\n        /* \"contracts/AgreementSmartContract.sol\":460:524  agreements.push(Agreement(_purposeBlockHash, _userID, _consent)) */\n      swap1\n      dup1\n      0x01\n      dup2\n      sload\n      add\n      dup1\n      dup3\n      sstore\n      dup1\n      swap2\n      pop\n      pop\n      0x01\n      swap1\n      sub\n      swap1\n      0x00\n      mstore\n      keccak256(0x00, 0x20)\n      swap1\n      0x03\n      mul\n      add\n      0x00\n      swap1\n      swap2\n      swap1\n      swap2\n      swap1\n      swap2\n      pop\n      0x00\n      dup3\n      add\n      mload\n      dup2\n      0x00\n      add\n      sstore\n      0x20\n      dup3\n      add\n      mload\n      dup2\n      0x01\n      add\n      sstore\n      0x40\n      dup3\n      add\n      mload\n      dup2\n      0x02\n      add\n      exp(0x0100, 0x00)\n      dup2\n      sload\n      dup2\n      0xff\n      mul\n      not\n      and\n      swap1\n      dup4\n      iszero\n      iszero\n      mul\n      or\n      swap1\n      sstore\n      pop\n      pop\n      pop\n        /* \"contracts/AgreementSmartContract.sol\":364:539  function addAgreement(bytes32 _purposeBlockHash, uint _userID, bool _consent) public {... */\n      pop\n      pop\n      pop\n      jump\t// out\n        /* \"contracts/AgreementSmartContract.sol\":328:357  Agreement[] public agreements */\n    tag_17:\n      0x00\n      dup2\n      dup2\n      sload\n      dup2\n      lt\n      tag_23\n      jumpi\n      0x00\n      dup1\n      revert\n    tag_23:\n      swap1\n      0x00\n      mstore\n      keccak256(0x00, 0x20)\n      swap1\n      0x03\n      mul\n      add\n      0x00\n      swap2\n      pop\n      swap1\n      pop\n      dup1\n      0x00\n      add\n      sload\n      swap1\n      dup1\n      0x01\n      add\n      sload\n      swap1\n      dup1\n      0x02\n      add\n      0x00\n      swap1\n      sload\n      swap1\n      0x0100\n      exp\n      swap1\n      div\n      0xff\n      and\n      swap1\n      pop\n      dup4\n      jump\t// out\n        /* \"#utility.yul\":7:84   */\n    tag_25:\n        /* \"#utility.yul\":44:51   */\n      0x00\n        /* \"#utility.yul\":73:78   */\n      dup2\n        /* \"#utility.yul\":62:78   */\n      swap1\n      pop\n        /* \"#utility.yul\":7:84   */\n      swap2\n      swap1\n      pop\n      jump\t// out\n        /* \"#utility.yul\":90:208   */\n    tag_26:\n        /* \"#utility.yul\":177:201   */\n      tag_43\n        /* \"#utility.yul\":195:200   */\n      dup2\n        /* \"#utility.yul\":177:201   */\n      tag_25\n      jump\t// in\n    tag_43:\n        /* \"#utility.yul\":172:175   */\n      dup3\n        /* \"#utility.yul\":165:202   */\n      mstore\n        /* \"#utility.yul\":90:208   */\n      pop\n      pop\n      jump\t// out\n        /* \"#utility.yul\":214:436   */\n    tag_9:\n        /* \"#utility.yul\":307:311   */\n      0x00\n        /* \"#utility.yul\":345:347   */\n      0x20\n        /* \"#utility.yul\":334:343   */\n      dup3\n        /* \"#utility.yul\":330:348   */\n      add\n        /* \"#utility.yul\":322:348   */\n      swap1\n      pop\n        /* \"#utility.yul\":358:429   */\n      tag_45\n        /* \"#utility.yul\":426:427   */\n      0x00\n        /* \"#utility.yul\":415:424   */\n      dup4\n        /* \"#utility.yul\":411:428   */\n      add\n        /* \"#utility.yul\":402:408   */\n      dup5\n        /* \"#utility.yul\":358:429   */\n      tag_26\n      jump\t// in\n    tag_45:\n        /* \"#utility.yul\":214:436   */\n      swap3\n      swap2\n      pop\n      pop\n      jump\t// out\n        /* \"#utility.yul\":523:640   */\n    tag_28:\n        /* \"#utility.yul\":632:633   */\n      0x00\n        /* \"#utility.yul\":629:630   */\n      dup1\n        /* \"#utility.yul\":622:634   */\n      revert\n        /* \"#utility.yul\":769:846   */\n    tag_30:\n        /* \"#utility.yul\":806:813   */\n      0x00\n        /* \"#utility.yul\":835:840   */\n      dup2\n        /* \"#utility.yul\":824:840   */\n      swap1\n      pop\n        /* \"#utility.yul\":769:846   */\n      swap2\n      swap1\n      pop\n      jump\t// out\n        /* \"#utility.yul\":852:974   */\n    tag_31:\n        /* \"#utility.yul\":925:949   */\n      tag_51\n        /* \"#utility.yul\":943:948   */\n      dup2\n        /* \"#utility.yul\":925:949   */\n      tag_30\n      jump\t// in\n    tag_51:\n        /* \"#utility.yul\":918:923   */\n      dup2\n        /* \"#utility.yul\":915:950   */\n      eq\n        /* \"#utility.yul\":905:968   */\n      tag_52\n      jumpi\n        /* \"#utility.yul\":964:965   */\n      0x00\n        /* \"#utility.yul\":961:962   */\n      dup1\n        /* \"#utility.yul\":954:966   */\n      revert\n        /* \"#utility.yul\":905:968   */\n    tag_52:\n        /* \"#utility.yul\":852:974   */\n      pop\n      jump\t// out\n        /* \"#utility.yul\":980:1119   */\n    tag_32:\n        /* \"#utility.yul\":1026:1031   */\n      0x00\n        /* \"#utility.yul\":1064:1070   */\n      dup2\n        /* \"#utility.yul\":1051:1071   */\n      calldataload\n        /* \"#utility.yul\":1042:1071   */\n      swap1\n      pop\n        /* \"#utility.yul\":1080:1113   */\n      tag_54\n        /* \"#utility.yul\":1107:1112   */\n      dup2\n        /* \"#utility.yul\":1080:1113   */\n      tag_31\n      jump\t// in\n    tag_54:\n        /* \"#utility.yul\":980:1119   */\n      swap3\n      swap2\n      pop\n      pop\n      jump\t// out\n        /* \"#utility.yul\":1125:1247   */\n    tag_33:\n        /* \"#utility.yul\":1198:1222   */\n      tag_56\n        /* \"#utility.yul\":1216:1221   */\n      dup2\n        /* \"#utility.yul\":1198:1222   */\n      tag_25\n      jump\t// in\n    tag_56:\n        /* \"#utility.yul\":1191:1196   */\n      dup2\n        /* \"#utility.yul\":1188:1223   */\n      eq\n        /* \"#utility.yul\":1178:1241   */\n      tag_57\n      jumpi\n        /* \"#utility.yul\":1237:1238   */\n      0x00\n        /* \"#utility.yul\":1234:1235   */\n      dup1\n        /* \"#utility.yul\":1227:1239   */\n      revert\n        /* \"#utility.yul\":1178:1241   */\n    tag_57:\n        /* \"#utility.yul\":1125:1247   */\n      pop\n      jump\t// out\n        /* \"#utility.yul\":1253:1392   */\n    tag_34:\n        /* \"#utility.yul\":1299:1304   */\n      0x00\n        /* \"#utility.yul\":1337:1343   */\n      dup2\n        /* \"#utility.yul\":1324:1344   */\n      calldataload\n        /* \"#utility.yul\":1315:1344   */\n      swap1\n      pop\n        /* \"#utility.yul\":1353:1386   */\n      tag_59\n        /* \"#utility.yul\":1380:1385   */\n      dup2\n        /* \"#utility.yul\":1353:1386   */\n      tag_33\n      jump\t// in\n    tag_59:\n        /* \"#utility.yul\":1253:1392   */\n      swap3\n      swap2\n      pop\n      pop\n      jump\t// out\n        /* \"#utility.yul\":1398:1488   */\n    tag_35:\n        /* \"#utility.yul\":1432:1439   */\n      0x00\n        /* \"#utility.yul\":1475:1480   */\n      dup2\n        /* \"#utility.yul\":1468:1481   */\n      iszero\n        /* \"#utility.yul\":1461:1482   */\n      iszero\n        /* \"#utility.yul\":1450:1482   */\n      swap1\n      pop\n        /* \"#utility.yul\":1398:1488   */\n      swap2\n      swap1\n      pop\n      jump\t// out\n        /* \"#utility.yul\":1494:1610   */\n    tag_36:\n        /* \"#utility.yul\":1564:1585   */\n      tag_62\n        /* \"#utility.yul\":1579:1584   */\n      dup2\n        /* \"#utility.yul\":1564:1585   */\n      tag_35\n      jump\t// in\n    tag_62:\n        /* \"#utility.yul\":1557:1562   */\n      dup2\n        /* \"#utility.yul\":1554:1586   */\n      eq\n        /* \"#utility.yul\":1544:1604   */\n      tag_63\n      jumpi\n        /* \"#utility.yul\":1600:1601   */\n      0x00\n        /* \"#utility.yul\":1597:1598   */\n      dup1\n        /* \"#utility.yul\":1590:1602   */\n      revert\n        /* \"#utility.yul\":1544:1604   */\n    tag_63:\n        /* \"#utility.yul\":1494:1610   */\n      pop\n      jump\t// out\n        /* \"#utility.yul\":1616:1749   */\n    tag_37:\n        /* \"#utility.yul\":1659:1664   */\n      0x00\n        /* \"#utility.yul\":1697:1703   */\n      dup2\n        /* \"#utility.yul\":1684:1704   */\n      calldataload\n        /* \"#utility.yul\":1675:1704   */\n      swap1\n      pop\n        /* \"#utility.yul\":1713:1743   */\n      tag_65\n        /* \"#utility.yul\":1737:1742   */\n      dup2\n        /* \"#utility.yul\":1713:1743   */\n      tag_36\n      jump\t// in\n    tag_65:\n        /* \"#utility.yul\":1616:1749   */\n      swap3\n      swap2\n      pop\n      pop\n      jump\t// out\n        /* \"#utility.yul\":1755:2368   */\n    tag_12:\n        /* \"#utility.yul\":1829:1835   */\n      0x00\n        /* \"#utility.yul\":1837:1843   */\n      dup1\n        /* \"#utility.yul\":1845:1851   */\n      0x00\n        /* \"#utility.yul\":1894:1896   */\n      0x60\n        /* \"#utility.yul\":1882:1891   */\n      dup5\n        /* \"#utility.yul\":1873:1880   */\n      dup7\n        /* \"#utility.yul\":1869:1892   */\n      sub\n        /* \"#utility.yul\":1865:1897   */\n      slt\n        /* \"#utility.yul\":1862:1981   */\n      iszero\n      tag_67\n      jumpi\n        /* \"#utility.yul\":1900:1979   */\n      tag_68\n      tag_28\n      jump\t// in\n    tag_68:\n        /* \"#utility.yul\":1862:1981   */\n    tag_67:\n        /* \"#utility.yul\":2020:2021   */\n      0x00\n        /* \"#utility.yul\":2045:2098   */\n      tag_69\n        /* \"#utility.yul\":2090:2097   */\n      dup7\n        /* \"#utility.yul\":2081:2087   */\n      dup3\n        /* \"#utility.yul\":2070:2079   */\n      dup8\n        /* \"#utility.yul\":2066:2088   */\n      add\n        /* \"#utility.yul\":2045:2098   */\n      tag_32\n      jump\t// in\n    tag_69:\n        /* \"#utility.yul\":2035:2098   */\n      swap4\n      pop\n        /* \"#utility.yul\":1991:2108   */\n      pop\n        /* \"#utility.yul\":2147:2149   */\n      0x20\n        /* \"#utility.yul\":2173:2226   */\n      tag_70\n        /* \"#utility.yul\":2218:2225   */\n      dup7\n        /* \"#utility.yul\":2209:2215   */\n      dup3\n        /* \"#utility.yul\":2198:2207   */\n      dup8\n        /* \"#utility.yul\":2194:2216   */\n      add\n        /* \"#utility.yul\":2173:2226   */\n      tag_34\n      jump\t// in\n    tag_70:\n        /* \"#utility.yul\":2163:2226   */\n      swap3\n      pop\n        /* \"#utility.yul\":2118:2236   */\n      pop\n        /* \"#utility.yul\":2275:2277   */\n      0x40\n        /* \"#utility.yul\":2301:2351   */\n      tag_71\n        /* \"#utility.yul\":2343:2350   */\n      dup7\n        /* \"#utility.yul\":2334:2340   */\n      dup3\n        /* \"#utility.yul\":2323:2332   */\n      dup8\n        /* \"#utility.yul\":2319:2341   */\n      add\n        /* \"#utility.yul\":2301:2351   */\n      tag_37\n      jump\t// in\n    tag_71:\n        /* \"#utility.yul\":2291:2351   */\n      swap2\n      pop\n        /* \"#utility.yul\":2246:2361   */\n      pop\n        /* \"#utility.yul\":1755:2368   */\n      swap3\n      pop\n      swap3\n      pop\n      swap3\n      jump\t// out\n        /* \"#utility.yul\":2374:2703   */\n    tag_16:\n        /* \"#utility.yul\":2433:2439   */\n      0x00\n        /* \"#utility.yul\":2482:2484   */\n      0x20\n        /* \"#utility.yul\":2470:2479   */\n      dup3\n        /* \"#utility.yul\":2461:2468   */\n      dup5\n        /* \"#utility.yul\":2457:2480   */\n      sub\n        /* \"#utility.yul\":2453:2485   */\n      slt\n        /* \"#utility.yul\":2450:2569   */\n      iszero\n      tag_73\n      jumpi\n        /* \"#utility.yul\":2488:2567   */\n      tag_74\n      tag_28\n      jump\t// in\n    tag_74:\n        /* \"#utility.yul\":2450:2569   */\n    tag_73:\n        /* \"#utility.yul\":2608:2609   */\n      0x00\n        /* \"#utility.yul\":2633:2686   */\n      tag_75\n        /* \"#utility.yul\":2678:2685   */\n      dup5\n        /* \"#utility.yul\":2669:2675   */\n      dup3\n        /* \"#utility.yul\":2658:2667   */\n      dup6\n        /* \"#utility.yul\":2654:2676   */\n      add\n        /* \"#utility.yul\":2633:2686   */\n      tag_34\n      jump\t// in\n    tag_75:\n        /* \"#utility.yul\":2623:2686   */\n      swap2\n      pop\n        /* \"#utility.yul\":2579:2696   */\n      pop\n        /* \"#utility.yul\":2374:2703   */\n      swap3\n      swap2\n      pop\n      pop\n      jump\t// out\n        /* \"#utility.yul\":2709:2827   */\n    tag_38:\n        /* \"#utility.yul\":2796:2820   */\n      tag_77\n        /* \"#utility.yul\":2814:2819   */\n      dup2\n        /* \"#utility.yul\":2796:2820   */\n      tag_30\n      jump\t// in\n    tag_77:\n        /* \"#utility.yul\":2791:2794   */\n      dup3\n        /* \"#utility.yul\":2784:2821   */\n      mstore\n        /* \"#utility.yul\":2709:2827   */\n      pop\n      pop\n      jump\t// out\n        /* \"#utility.yul\":2833:2942   */\n    tag_39:\n        /* \"#utility.yul\":2914:2935   */\n      tag_79\n        /* \"#utility.yul\":2929:2934   */\n      dup2\n        /* \"#utility.yul\":2914:2935   */\n      tag_35\n      jump\t// in\n    tag_79:\n        /* \"#utility.yul\":2909:2912   */\n      dup3\n        /* \"#utility.yul\":2902:2936   */\n      mstore\n        /* \"#utility.yul\":2833:2942   */\n      pop\n      pop\n      jump\t// out\n        /* \"#utility.yul\":2948:3378   */\n    tag_19:\n        /* \"#utility.yul\":3091:3095   */\n      0x00\n        /* \"#utility.yul\":3129:3131   */\n      0x60\n        /* \"#utility.yul\":3118:3127   */\n      dup3\n        /* \"#utility.yul\":3114:3132   */\n      add\n        /* \"#utility.yul\":3106:3132   */\n      swap1\n      pop\n        /* \"#utility.yul\":3142:3213   */\n      tag_81\n        /* \"#utility.yul\":3210:3211   */\n      0x00\n        /* \"#utility.yul\":3199:3208   */\n      dup4\n        /* \"#utility.yul\":3195:3212   */\n      add\n        /* \"#utility.yul\":3186:3192   */\n      dup7\n        /* \"#utility.yul\":3142:3213   */\n      tag_38\n      jump\t// in\n    tag_81:\n        /* \"#utility.yul\":3223:3295   */\n      tag_82\n        /* \"#utility.yul\":3291:3293   */\n      0x20\n        /* \"#utility.yul\":3280:3289   */\n      dup4\n        /* \"#utility.yul\":3276:3294   */\n      add\n        /* \"#utility.yul\":3267:3273   */\n      dup6\n        /* \"#utility.yul\":3223:3295   */\n      tag_26\n      jump\t// in\n    tag_82:\n        /* \"#utility.yul\":3305:3371   */\n      tag_83\n        /* \"#utility.yul\":3367:3369   */\n      0x40\n        /* \"#utility.yul\":3356:3365   */\n      dup4\n        /* \"#utility.yul\":3352:3370   */\n      add\n        /* \"#utility.yul\":3343:3349   */\n      dup5\n        /* \"#utility.yul\":3305:3371   */\n      tag_39\n      jump\t// in\n    tag_83:\n        /* \"#utility.yul\":2948:3378   */\n      swap5\n      swap4\n      pop\n      pop\n      pop\n      pop\n      jump\t// out\n\n    auxdata: 0xa264697066735822122078c0165c8526fb6ad295b4a2ed6eeaf54740eda58eef5b839793fc845101e2a364736f6c63430008180033\n}\n",
				"bytecode": {
					"linkReferences": {},
					"object": "608060405234801561000f575f80fd5b506103418061001d5f395ff3fe608060405234801561000f575f80fd5b506004361061003f575f3560e01c80631c510ea9146100435780638c18493214610061578063bd14de961461007d575b5f80fd5b61004b6100af565b604051610058919061018e565b60405180910390f35b61007b6004803603810190610076919061023d565b6100ba565b005b6100976004803603810190610092919061028d565b610136565b6040516100a6939291906102d6565b60405180910390f35b5f8080549050905090565b5f6040518060600160405280858152602001848152602001831515815250908060018154018082558091505060019003905f5260205f2090600302015f909190919091505f820151815f0155602082015181600101556040820151816002015f6101000a81548160ff0219169083151502179055505050505050565b5f8181548110610144575f80fd5b905f5260205f2090600302015f91509050805f015490806001015490806002015f9054906101000a900460ff16905083565b5f819050919050565b61018881610176565b82525050565b5f6020820190506101a15f83018461017f565b92915050565b5f80fd5b5f819050919050565b6101bd816101ab565b81146101c7575f80fd5b50565b5f813590506101d8816101b4565b92915050565b6101e781610176565b81146101f1575f80fd5b50565b5f81359050610202816101de565b92915050565b5f8115159050919050565b61021c81610208565b8114610226575f80fd5b50565b5f8135905061023781610213565b92915050565b5f805f60608486031215610254576102536101a7565b5b5f610261868287016101ca565b9350506020610272868287016101f4565b925050604061028386828701610229565b9150509250925092565b5f602082840312156102a2576102a16101a7565b5b5f6102af848285016101f4565b91505092915050565b6102c1816101ab565b82525050565b6102d081610208565b82525050565b5f6060820190506102e95f8301866102b8565b6102f6602083018561017f565b61030360408301846102c7565b94935050505056fea264697066735822122078c0165c8526fb6ad295b4a2ed6eeaf54740eda58eef5b839793fc845101e2a364736f6c63430008180033",
					"opcodes": "PUSH1 0x80 PUSH1 0x40 MSTORE CALLVALUE DUP1 ISZERO PUSH2 0xF JUMPI PUSH0 DUP1 REVERT JUMPDEST POP PUSH2 0x341 DUP1 PUSH2 0x1D PUSH0 CODECOPY PUSH0 RETURN INVALID PUSH1 0x80 PUSH1 0x40 MSTORE CALLVALUE DUP1 ISZERO PUSH2 0xF JUMPI PUSH0 DUP1 REVERT JUMPDEST POP PUSH1 0x4 CALLDATASIZE LT PUSH2 0x3F JUMPI PUSH0 CALLDATALOAD PUSH1 0xE0 SHR DUP1 PUSH4 0x1C510EA9 EQ PUSH2 0x43 JUMPI DUP1 PUSH4 0x8C184932 EQ PUSH2 0x61 JUMPI DUP1 PUSH4 0xBD14DE96 EQ PUSH2 0x7D JUMPI JUMPDEST PUSH0 DUP1 REVERT JUMPDEST PUSH2 0x4B PUSH2 0xAF JUMP JUMPDEST PUSH1 0x40 MLOAD PUSH2 0x58 SWAP2 SWAP1 PUSH2 0x18E JUMP JUMPDEST PUSH1 0x40 MLOAD DUP1 SWAP2 SUB SWAP1 RETURN JUMPDEST PUSH2 0x7B PUSH1 0x4 DUP1 CALLDATASIZE SUB DUP2 ADD SWAP1 PUSH2 0x76 SWAP2 SWAP1 PUSH2 0x23D JUMP JUMPDEST PUSH2 0xBA JUMP JUMPDEST STOP JUMPDEST PUSH2 0x97 PUSH1 0x4 DUP1 CALLDATASIZE SUB DUP2 ADD SWAP1 PUSH2 0x92 SWAP2 SWAP1 PUSH2 0x28D JUMP JUMPDEST PUSH2 0x136 JUMP JUMPDEST PUSH1 0x40 MLOAD PUSH2 0xA6 SWAP4 SWAP3 SWAP2 SWAP1 PUSH2 0x2D6 JUMP JUMPDEST PUSH1 0x40 MLOAD DUP1 SWAP2 SUB SWAP1 RETURN JUMPDEST PUSH0 DUP1 DUP1 SLOAD SWAP1 POP SWAP1 POP SWAP1 JUMP JUMPDEST PUSH0 PUSH1 0x40 MLOAD DUP1 PUSH1 0x60 ADD PUSH1 0x40 MSTORE DUP1 DUP6 DUP2 MSTORE PUSH1 0x20 ADD DUP5 DUP2 MSTORE PUSH1 0x20 ADD DUP4 ISZERO ISZERO DUP2 MSTORE POP SWAP1 DUP1 PUSH1 0x1 DUP2 SLOAD ADD DUP1 DUP3 SSTORE DUP1 SWAP2 POP POP PUSH1 0x1 SWAP1 SUB SWAP1 PUSH0 MSTORE PUSH1 0x20 PUSH0 KECCAK256 SWAP1 PUSH1 0x3 MUL ADD PUSH0 SWAP1 SWAP2 SWAP1 SWAP2 SWAP1 SWAP2 POP PUSH0 DUP3 ADD MLOAD DUP2 PUSH0 ADD SSTORE PUSH1 0x20 DUP3 ADD MLOAD DUP2 PUSH1 0x1 ADD SSTORE PUSH1 0x40 DUP3 ADD MLOAD DUP2 PUSH1 0x2 ADD PUSH0 PUSH2 0x100 EXP DUP2 SLOAD DUP2 PUSH1 0xFF MUL NOT AND SWAP1 DUP4 ISZERO ISZERO MUL OR SWAP1 SSTORE POP POP POP POP POP POP JUMP JUMPDEST PUSH0 DUP2 DUP2 SLOAD DUP2 LT PUSH2 0x144 JUMPI PUSH0 DUP1 REVERT JUMPDEST SWAP1 PUSH0 MSTORE PUSH1 0x20 PUSH0 KECCAK256 SWAP1 PUSH1 0x3 MUL ADD PUSH0 SWAP2 POP SWAP1 POP DUP1 PUSH0 ADD SLOAD SWAP1 DUP1 PUSH1 0x1 ADD SLOAD SWAP1 DUP1 PUSH1 0x2 ADD PUSH0 SWAP1 SLOAD SWAP1 PUSH2 0x100 EXP SWAP1 DIV PUSH1 0xFF AND SWAP1 POP DUP4 JUMP JUMPDEST PUSH0 DUP2 SWAP1 POP SWAP2 SWAP1 POP JUMP JUMPDEST PUSH2 0x188 DUP2 PUSH2 0x176 JUMP JUMPDEST DUP3 MSTORE POP POP JUMP JUMPDEST PUSH0 PUSH1 0x20 DUP3 ADD SWAP1 POP PUSH2 0x1A1 PUSH0 DUP4 ADD DUP5 PUSH2 0x17F JUMP JUMPDEST SWAP3 SWAP2 POP POP JUMP JUMPDEST PUSH0 DUP1 REVERT JUMPDEST PUSH0 DUP2 SWAP1 POP SWAP2 SWAP1 POP JUMP JUMPDEST PUSH2 0x1BD DUP2 PUSH2 0x1AB JUMP JUMPDEST DUP2 EQ PUSH2 0x1C7 JUMPI PUSH0 DUP1 REVERT JUMPDEST POP JUMP JUMPDEST PUSH0 DUP2 CALLDATALOAD SWAP1 POP PUSH2 0x1D8 DUP2 PUSH2 0x1B4 JUMP JUMPDEST SWAP3 SWAP2 POP POP JUMP JUMPDEST PUSH2 0x1E7 DUP2 PUSH2 0x176 JUMP JUMPDEST DUP2 EQ PUSH2 0x1F1 JUMPI PUSH0 DUP1 REVERT JUMPDEST POP JUMP JUMPDEST PUSH0 DUP2 CALLDATALOAD SWAP1 POP PUSH2 0x202 DUP2 PUSH2 0x1DE JUMP JUMPDEST SWAP3 SWAP2 POP POP JUMP JUMPDEST PUSH0 DUP2 ISZERO ISZERO SWAP1 POP SWAP2 SWAP1 POP JUMP JUMPDEST PUSH2 0x21C DUP2 PUSH2 0x208 JUMP JUMPDEST DUP2 EQ PUSH2 0x226 JUMPI PUSH0 DUP1 REVERT JUMPDEST POP JUMP JUMPDEST PUSH0 DUP2 CALLDATALOAD SWAP1 POP PUSH2 0x237 DUP2 PUSH2 0x213 JUMP JUMPDEST SWAP3 SWAP2 POP POP JUMP JUMPDEST PUSH0 DUP1 PUSH0 PUSH1 0x60 DUP5 DUP7 SUB SLT ISZERO PUSH2 0x254 JUMPI PUSH2 0x253 PUSH2 0x1A7 JUMP JUMPDEST JUMPDEST PUSH0 PUSH2 0x261 DUP7 DUP3 DUP8 ADD PUSH2 0x1CA JUMP JUMPDEST SWAP4 POP POP PUSH1 0x20 PUSH2 0x272 DUP7 DUP3 DUP8 ADD PUSH2 0x1F4 JUMP JUMPDEST SWAP3 POP POP PUSH1 0x40 PUSH2 0x283 DUP7 DUP3 DUP8 ADD PUSH2 0x229 JUMP JUMPDEST SWAP2 POP POP SWAP3 POP SWAP3 POP SWAP3 JUMP JUMPDEST PUSH0 PUSH1 0x20 DUP3 DUP5 SUB SLT ISZERO PUSH2 0x2A2 JUMPI PUSH2 0x2A1 PUSH2 0x1A7 JUMP JUMPDEST JUMPDEST PUSH0 PUSH2 0x2AF DUP5 DUP3 DUP6 ADD PUSH2 0x1F4 JUMP JUMPDEST SWAP2 POP POP SWAP3 SWAP2 POP POP JUMP JUMPDEST PUSH2 0x2C1 DUP2 PUSH2 0x1AB JUMP JUMPDEST DUP3 MSTORE POP POP JUMP JUMPDEST PUSH2 0x2D0 DUP2 PUSH2 0x208 JUMP JUMPDEST DUP3 MSTORE POP POP JUMP JUMPDEST PUSH0 PUSH1 0x60 DUP3 ADD SWAP1 POP PUSH2 0x2E9 PUSH0 DUP4 ADD DUP7 PUSH2 0x2B8 JUMP JUMPDEST PUSH2 0x2F6 PUSH1 0x20 DUP4 ADD DUP6 PUSH2 0x17F JUMP JUMPDEST PUSH2 0x303 PUSH1 0x40 DUP4 ADD DUP5 PUSH2 0x2C7 JUMP JUMPDEST SWAP5 SWAP4 POP POP POP POP JUMP INVALID LOG2 PUSH5 0x6970667358 0x22 SLT KECCAK256 PUSH25 0xC0165C8526FB6AD295B4A2ED6EEAF54740EDA58EEF5B839793 0xFC DUP5 MLOAD ADD 0xE2 LOG3 PUSH5 0x736F6C6343 STOP ADDMOD XOR STOP CALLER "
				},
				"gasEstimates": {
					"creation": {
						"codeDepositCost": "166600",
						"executionCost": "212",
						"totalCost": "166812"
					},
					"external": {
						"addAgreement(bytes32,uint256,bool)": "93680",
						"agreements(uint256)": "infinite",
						"getAgreementsLength()": "2418"
					}
				},
				"methodIdentifiers": {
					"addAgreement(bytes32,uint256,bool)": "8c184932",
					"agreements(uint256)": "bd14de96",
					"getAgreementsLength()": "1c510ea9"
				}
			},
			"storageLayout": {
				"storage": [
					{
						"astId": 12,
						"contract": "contracts/AgreementSmartContract.sol:AgreementSmartContract",
						"label": "agreements",
						"offset": 0,
						"slot": "0",
						"type": "t_array(t_struct(Agreement)8_storage)dyn_storage"
					}
				],
				"types": {
					"t_array(t_struct(Agreement)8_storage)dyn_storage": {
						"base": "t_struct(Agreement)8_storage",
						"encoding": "dynamic_array",
						"label": "struct AgreementSmartContract.Agreement[]",
						"numberOfBytes": "32"
					},
					"t_bool": {
						"encoding": "inplace",
						"label": "bool",
						"numberOfBytes": "1"
					},
					"t_bytes32": {
						"encoding": "inplace",
						"label": "bytes32",
						"numberOfBytes": "32"
					},
					"t_struct(Agreement)8_storage": {
						"encoding": "inplace",
						"label": "struct AgreementSmartContract.Agreement",
						"members": [
							{
								"astId": 3,
								"contract": "contracts/AgreementSmartContract.sol:AgreementSmartContract",
								"label": "purposeBlockHash",
								"offset": 0,
								"slot": "0",
								"type": "t_bytes32"
							},
							{
								"astId": 5,
								"contract": "contracts/AgreementSmartContract.sol:AgreementSmartContract",
								"label": "userID",
								"offset": 0,
								"slot": "1",
								"type": "t_uint256"
							},
							{
								"astId": 7,
								"contract": "contracts/AgreementSmartContract.sol:AgreementSmartContract",
								"label": "consent",
								"offset": 0,
								"slot": "2",
								"type": "t_bool"
							}
						],
						"numberOfBytes": "96"
					},
					"t_uint256": {
						"encoding": "inplace",
						"label": "uint256",
						"numberOfBytes": "32"
					}
				}
			},
			"userdoc": {
				"kind": "user",
				"methods": {},
				"version": 1
			}
		}
	}
}