{
	"contracts/AgreementSmartContract.sol": {
		"AgreementSmartContract": {
			"abi": [
				{
					"inputs": [
						{
							"internalType": "bytes32",
							"name": "_purposeBlockHash",
							"type": "bytes32"
						},
						{
							"internalType": "uint256",
							"name": "_userID",
							"type": "uint256"
						},
						{
							"internalType": "bool",
							"name": "_consent",
							"type": "bool"
						}
					],
					"name": "addAgreement",
					"outputs": [],
					"stateMutability": "nonpayable",
					"type": "function"
				},
				{
					"inputs": [],
					"name": "agreementCount",
					"outputs": [
						{
							"internalType": "uint256",
							"name": "",
							"type": "uint256"
						}
					],
					"stateMutability": "view",
					"type": "function"
				},
				{
					"inputs": [
						{
							"internalType": "uint256",
							"name": "",
							"type": "uint256"
						}
					],
					"name": "agreements",
					"outputs": [
						{
							"internalType": "bytes32",
							"name": "purposeBlockHash",
							"type": "bytes32"
						},
						{
							"internalType": "uint256",
							"name": "userID",
							"type": "uint256"
						},
						{
							"internalType": "bool",
							"name": "consent",
							"type": "bool"
						}
					],
					"stateMutability": "view",
					"type": "function"
				},
				{
					"inputs": [],
					"name": "getAgreementsLength",
					"outputs": [
						{
							"internalType": "uint256",
							"name": "",
							"type": "uint256"
						}
					],
					"stateMutability": "view",
					"type": "function"
				}
			],
			"devdoc": {
				"details": "Store and manage user agreements on data usage purposes",
				"kind": "dev",
				"methods": {
					"addAgreement(bytes32,uint256,bool)": {
						"details": "Record a new agreement in the contract",
						"params": {
							"_consent": "The user's consent (true for agree, false for disagree)",
							"_purposeBlockHash": "The hash of the purpose block related to the agreement",
							"_userID": "The user's unique identifier"
						}
					},
					"getAgreementsLength()": {
						"details": "Returns the number of agreements stored in the contract",
						"returns": {
							"_0": "The count of agreements"
						}
					}
				},
				"title": "Agreement Smart Contract",
				"version": 1
			},
			"evm": {
				"assembly": "    /* \"contracts/AgreementSmartContract.sol\":222:1980  contract AgreementSmartContract {... */\n  mstore(0x40, 0x80)\n  callvalue\n  dup1\n  iszero\n  tag_1\n  jumpi\n  0x00\n  dup1\n  revert\ntag_1:\n  pop\n  dataSize(sub_0)\n  dup1\n  dataOffset(sub_0)\n  0x00\n  codecopy\n  0x00\n  return\nstop\n\nsub_0: assembly {\n        /* \"contracts/AgreementSmartContract.sol\":222:1980  contract AgreementSmartContract {... */\n      mstore(0x40, 0x80)\n      callvalue\n      dup1\n      iszero\n      tag_1\n      jumpi\n      0x00\n      dup1\n      revert\n    tag_1:\n      pop\n      jumpi(tag_2, lt(calldatasize, 0x04))\n      shr(0xe0, calldataload(0x00))\n      dup1\n      0x1c510ea9\n      eq\n      tag_3\n      jumpi\n      dup1\n      0x8c184932\n      eq\n      tag_4\n      jumpi\n      dup1\n      0xbb7bb278\n      eq\n      tag_5\n      jumpi\n      dup1\n      0xbd14de96\n      eq\n      tag_6\n      jumpi\n    tag_2:\n      0x00\n      dup1\n      revert\n        /* \"contracts/AgreementSmartContract.sol\":1880:1977  function getAgreementsLength() public view returns (uint){... */\n    tag_3:\n      tag_7\n      tag_8\n      jump\t// in\n    tag_7:\n      mload(0x40)\n      tag_9\n      swap2\n      swap1\n      tag_10\n      jump\t// in\n    tag_9:\n      mload(0x40)\n      dup1\n      swap2\n      sub\n      swap1\n      return\n        /* \"contracts/AgreementSmartContract.sol\":1355:1689  function addAgreement(bytes32 _purposeBlockHash, uint _userID, bool _consent) public {... */\n    tag_4:\n      tag_11\n      0x04\n      dup1\n      calldatasize\n      sub\n      dup2\n      add\n      swap1\n      tag_12\n      swap2\n      swap1\n      tag_13\n      jump\t// in\n    tag_12:\n      tag_14\n      jump\t// in\n    tag_11:\n      stop\n        /* \"contracts/AgreementSmartContract.sol\":971:997  uint public agreementCount */\n    tag_5:\n      tag_15\n      tag_16\n      jump\t// in\n    tag_15:\n      mload(0x40)\n      tag_17\n      swap2\n      swap1\n      tag_10\n      jump\t// in\n    tag_17:\n      mload(0x40)\n      dup1\n      swap2\n      sub\n      swap1\n      return\n        /* \"contracts/AgreementSmartContract.sol\":833:877  mapping(uint => Agreement) public agreements */\n    tag_6:\n      tag_18\n      0x04\n      dup1\n      calldatasize\n      sub\n      dup2\n      add\n      swap1\n      tag_19\n      swap2\n      swap1\n      tag_20\n      jump\t// in\n    tag_19:\n      tag_21\n      jump\t// in\n    tag_18:\n      mload(0x40)\n      tag_22\n      swap4\n      swap3\n      swap2\n      swap1\n      tag_23\n      jump\t// in\n    tag_22:\n      mload(0x40)\n      dup1\n      swap2\n      sub\n      swap1\n      return\n        /* \"contracts/AgreementSmartContract.sol\":1880:1977  function getAgreementsLength() public view returns (uint){... */\n    tag_8:\n        /* \"contracts/AgreementSmartContract.sol\":1932:1936  uint */\n      0x00\n        /* \"contracts/AgreementSmartContract.sol\":1955:1969  agreementCount */\n      sload(0x01)\n        /* \"contracts/AgreementSmartContract.sol\":1948:1969  return agreementCount */\n      swap1\n      pop\n        /* \"contracts/AgreementSmartContract.sol\":1880:1977  function getAgreementsLength() public view returns (uint){... */\n      swap1\n      jump\t// out\n        /* \"contracts/AgreementSmartContract.sol\":1355:1689  function addAgreement(bytes32 _purposeBlockHash, uint _userID, bool _consent) public {... */\n    tag_14:\n        /* \"contracts/AgreementSmartContract.sol\":1552:1599  Agreement(_purposeBlockHash, _userID, _consent) */\n      mload(0x40)\n      dup1\n      0x60\n      add\n      0x40\n      mstore\n      dup1\n        /* \"contracts/AgreementSmartContract.sol\":1562:1579  _purposeBlockHash */\n      dup5\n        /* \"contracts/AgreementSmartContract.sol\":1552:1599  Agreement(_purposeBlockHash, _userID, _consent) */\n      dup2\n      mstore\n      0x20\n      add\n        /* \"contracts/AgreementSmartContract.sol\":1581:1588  _userID */\n      dup4\n        /* \"contracts/AgreementSmartContract.sol\":1552:1599  Agreement(_purposeBlockHash, _userID, _consent) */\n      dup2\n      mstore\n      0x20\n      add\n        /* \"contracts/AgreementSmartContract.sol\":1590:1598  _consent */\n      dup3\n        /* \"contracts/AgreementSmartContract.sol\":1552:1599  Agreement(_purposeBlockHash, _userID, _consent) */\n      iszero\n      iszero\n      dup2\n      mstore\n      pop\n        /* \"contracts/AgreementSmartContract.sol\":1523:1533  agreements */\n      0x00\n        /* \"contracts/AgreementSmartContract.sol\":1523:1549  agreements[agreementCount] */\n      dup1\n        /* \"contracts/AgreementSmartContract.sol\":1534:1548  agreementCount */\n      sload(0x01)\n        /* \"contracts/AgreementSmartContract.sol\":1523:1549  agreements[agreementCount] */\n      dup2\n      mstore\n      0x20\n      add\n      swap1\n      dup2\n      mstore\n      0x20\n      add\n      0x00\n      keccak256\n        /* \"contracts/AgreementSmartContract.sol\":1523:1599  agreements[agreementCount] = Agreement(_purposeBlockHash, _userID, _consent) */\n      0x00\n      dup3\n      add\n      mload\n      dup2\n      0x00\n      add\n      sstore\n      0x20\n      dup3\n      add\n      mload\n      dup2\n      0x01\n      add\n      sstore\n      0x40\n      dup3\n      add\n      mload\n      dup2\n      0x02\n      add\n      exp(0x0100, 0x00)\n      dup2\n      sload\n      dup2\n      0xff\n      mul\n      not\n      and\n      swap1\n      dup4\n      iszero\n      iszero\n      mul\n      or\n      swap1\n      sstore\n      pop\n      swap1\n      pop\n      pop\n        /* \"contracts/AgreementSmartContract.sol\":1665:1679  agreementCount */\n      0x01\n      0x00\n        /* \"contracts/AgreementSmartContract.sol\":1665:1681  agreementCount++ */\n      dup2\n      sload\n      dup1\n      swap3\n      swap2\n      swap1\n      tag_26\n      swap1\n      tag_27\n      jump\t// in\n    tag_26:\n      swap2\n      swap1\n      pop\n      sstore\n      pop\n        /* \"contracts/AgreementSmartContract.sol\":1355:1689  function addAgreement(bytes32 _purposeBlockHash, uint _userID, bool _consent) public {... */\n      pop\n      pop\n      pop\n      jump\t// out\n        /* \"contracts/AgreementSmartContract.sol\":971:997  uint public agreementCount */\n    tag_16:\n      sload(0x01)\n      dup2\n      jump\t// out\n        /* \"contracts/AgreementSmartContract.sol\":833:877  mapping(uint => Agreement) public agreements */\n    tag_21:\n      mstore(0x20, 0x00)\n      dup1\n      0x00\n      mstore\n      keccak256(0x00, 0x40)\n      0x00\n      swap2\n      pop\n      swap1\n      pop\n      dup1\n      0x00\n      add\n      sload\n      swap1\n      dup1\n      0x01\n      add\n      sload\n      swap1\n      dup1\n      0x02\n      add\n      0x00\n      swap1\n      sload\n      swap1\n      0x0100\n      exp\n      swap1\n      div\n      0xff\n      and\n      swap1\n      pop\n      dup4\n      jump\t// out\n        /* \"#utility.yul\":7:84   */\n    tag_28:\n        /* \"#utility.yul\":44:51   */\n      0x00\n        /* \"#utility.yul\":73:78   */\n      dup2\n        /* \"#utility.yul\":62:78   */\n      swap1\n      pop\n        /* \"#utility.yul\":7:84   */\n      swap2\n      swap1\n      pop\n      jump\t// out\n        /* \"#utility.yul\":90:208   */\n    tag_29:\n        /* \"#utility.yul\":177:201   */\n      tag_47\n        /* \"#utility.yul\":195:200   */\n      dup2\n        /* \"#utility.yul\":177:201   */\n      tag_28\n      jump\t// in\n    tag_47:\n        /* \"#utility.yul\":172:175   */\n      dup3\n        /* \"#utility.yul\":165:202   */\n      mstore\n        /* \"#utility.yul\":90:208   */\n      pop\n      pop\n      jump\t// out\n        /* \"#utility.yul\":214:436   */\n    tag_10:\n        /* \"#utility.yul\":307:311   */\n      0x00\n        /* \"#utility.yul\":345:347   */\n      0x20\n        /* \"#utility.yul\":334:343   */\n      dup3\n        /* \"#utility.yul\":330:348   */\n      add\n        /* \"#utility.yul\":322:348   */\n      swap1\n      pop\n        /* \"#utility.yul\":358:429   */\n      tag_49\n        /* \"#utility.yul\":426:427   */\n      0x00\n        /* \"#utility.yul\":415:424   */\n      dup4\n        /* \"#utility.yul\":411:428   */\n      add\n        /* \"#utility.yul\":402:408   */\n      dup5\n        /* \"#utility.yul\":358:429   */\n      tag_29\n      jump\t// in\n    tag_49:\n        /* \"#utility.yul\":214:436   */\n      swap3\n      swap2\n      pop\n      pop\n      jump\t// out\n        /* \"#utility.yul\":523:640   */\n    tag_31:\n        /* \"#utility.yul\":632:633   */\n      0x00\n        /* \"#utility.yul\":629:630   */\n      dup1\n        /* \"#utility.yul\":622:634   */\n      revert\n        /* \"#utility.yul\":769:846   */\n    tag_33:\n        /* \"#utility.yul\":806:813   */\n      0x00\n        /* \"#utility.yul\":835:840   */\n      dup2\n        /* \"#utility.yul\":824:840   */\n      swap1\n      pop\n        /* \"#utility.yul\":769:846   */\n      swap2\n      swap1\n      pop\n      jump\t// out\n        /* \"#utility.yul\":852:974   */\n    tag_34:\n        /* \"#utility.yul\":925:949   */\n      tag_55\n        /* \"#utility.yul\":943:948   */\n      dup2\n        /* \"#utility.yul\":925:949   */\n      tag_33\n      jump\t// in\n    tag_55:\n        /* \"#utility.yul\":918:923   */\n      dup2\n        /* \"#utility.yul\":915:950   */\n      eq\n        /* \"#utility.yul\":905:968   */\n      tag_56\n      jumpi\n        /* \"#utility.yul\":964:965   */\n      0x00\n        /* \"#utility.yul\":961:962   */\n      dup1\n        /* \"#utility.yul\":954:966   */\n      revert\n        /* \"#utility.yul\":905:968   */\n    tag_56:\n        /* \"#utility.yul\":852:974   */\n      pop\n      jump\t// out\n        /* \"#utility.yul\":980:1119   */\n    tag_35:\n        /* \"#utility.yul\":1026:1031   */\n      0x00\n        /* \"#utility.yul\":1064:1070   */\n      dup2\n        /* \"#utility.yul\":1051:1071   */\n      calldataload\n        /* \"#utility.yul\":1042:1071   */\n      swap1\n      pop\n        /* \"#utility.yul\":1080:1113   */\n      tag_58\n        /* \"#utility.yul\":1107:1112   */\n      dup2\n        /* \"#utility.yul\":1080:1113   */\n      tag_34\n      jump\t// in\n    tag_58:\n        /* \"#utility.yul\":980:1119   */\n      swap3\n      swap2\n      pop\n      pop\n      jump\t// out\n        /* \"#utility.yul\":1125:1247   */\n    tag_36:\n        /* \"#utility.yul\":1198:1222   */\n      tag_60\n        /* \"#utility.yul\":1216:1221   */\n      dup2\n        /* \"#utility.yul\":1198:1222   */\n      tag_28\n      jump\t// in\n    tag_60:\n        /* \"#utility.yul\":1191:1196   */\n      dup2\n        /* \"#utility.yul\":1188:1223   */\n      eq\n        /* \"#utility.yul\":1178:1241   */\n      tag_61\n      jumpi\n        /* \"#utility.yul\":1237:1238   */\n      0x00\n        /* \"#utility.yul\":1234:1235   */\n      dup1\n        /* \"#utility.yul\":1227:1239   */\n      revert\n        /* \"#utility.yul\":1178:1241   */\n    tag_61:\n        /* \"#utility.yul\":1125:1247   */\n      pop\n      jump\t// out\n        /* \"#utility.yul\":1253:1392   */\n    tag_37:\n        /* \"#utility.yul\":1299:1304   */\n      0x00\n        /* \"#utility.yul\":1337:1343   */\n      dup2\n        /* \"#utility.yul\":1324:1344   */\n      calldataload\n        /* \"#utility.yul\":1315:1344   */\n      swap1\n      pop\n        /* \"#utility.yul\":1353:1386   */\n      tag_63\n        /* \"#utility.yul\":1380:1385   */\n      dup2\n        /* \"#utility.yul\":1353:1386   */\n      tag_36\n      jump\t// in\n    tag_63:\n        /* \"#utility.yul\":1253:1392   */\n      swap3\n      swap2\n      pop\n      pop\n      jump\t// out\n        /* \"#utility.yul\":1398:1488   */\n    tag_38:\n        /* \"#utility.yul\":1432:1439   */\n      0x00\n        /* \"#utility.yul\":1475:1480   */\n      dup2\n        /* \"#utility.yul\":1468:1481   */\n      iszero\n        /* \"#utility.yul\":1461:1482   */\n      iszero\n        /* \"#utility.yul\":1450:1482   */\n      swap1\n      pop\n        /* \"#utility.yul\":1398:1488   */\n      swap2\n      swap1\n      pop\n      jump\t// out\n        /* \"#utility.yul\":1494:1610   */\n    tag_39:\n        /* \"#utility.yul\":1564:1585   */\n      tag_66\n        /* \"#utility.yul\":1579:1584   */\n      dup2\n        /* \"#utility.yul\":1564:1585   */\n      tag_38\n      jump\t// in\n    tag_66:\n        /* \"#utility.yul\":1557:1562   */\n      dup2\n        /* \"#utility.yul\":1554:1586   */\n      eq\n        /* \"#utility.yul\":1544:1604   */\n      tag_67\n      jumpi\n        /* \"#utility.yul\":1600:1601   */\n      0x00\n        /* \"#utility.yul\":1597:1598   */\n      dup1\n        /* \"#utility.yul\":1590:1602   */\n      revert\n        /* \"#utility.yul\":1544:1604   */\n    tag_67:\n        /* \"#utility.yul\":1494:1610   */\n      pop\n      jump\t// out\n        /* \"#utility.yul\":1616:1749   */\n    tag_40:\n        /* \"#utility.yul\":1659:1664   */\n      0x00\n        /* \"#utility.yul\":1697:1703   */\n      dup2\n        /* \"#utility.yul\":1684:1704   */\n      calldataload\n        /* \"#utility.yul\":1675:1704   */\n      swap1\n      pop\n        /* \"#utility.yul\":1713:1743   */\n      tag_69\n        /* \"#utility.yul\":1737:1742   */\n      dup2\n        /* \"#utility.yul\":1713:1743   */\n      tag_39\n      jump\t// in\n    tag_69:\n        /* \"#utility.yul\":1616:1749   */\n      swap3\n      swap2\n      pop\n      pop\n      jump\t// out\n        /* \"#utility.yul\":1755:2368   */\n    tag_13:\n        /* \"#utility.yul\":1829:1835   */\n      0x00\n        /* \"#utility.yul\":1837:1843   */\n      dup1\n        /* \"#utility.yul\":1845:1851   */\n      0x00\n        /* \"#utility.yul\":1894:1896   */\n      0x60\n        /* \"#utility.yul\":1882:1891   */\n      dup5\n        /* \"#utility.yul\":1873:1880   */\n      dup7\n        /* \"#utility.yul\":1869:1892   */\n      sub\n        /* \"#utility.yul\":1865:1897   */\n      slt\n        /* \"#utility.yul\":1862:1981   */\n      iszero\n      tag_71\n      jumpi\n        /* \"#utility.yul\":1900:1979   */\n      tag_72\n      tag_31\n      jump\t// in\n    tag_72:\n        /* \"#utility.yul\":1862:1981   */\n    tag_71:\n        /* \"#utility.yul\":2020:2021   */\n      0x00\n        /* \"#utility.yul\":2045:2098   */\n      tag_73\n        /* \"#utility.yul\":2090:2097   */\n      dup7\n        /* \"#utility.yul\":2081:2087   */\n      dup3\n        /* \"#utility.yul\":2070:2079   */\n      dup8\n        /* \"#utility.yul\":2066:2088   */\n      add\n        /* \"#utility.yul\":2045:2098   */\n      tag_35\n      jump\t// in\n    tag_73:\n        /* \"#utility.yul\":2035:2098   */\n      swap4\n      pop\n        /* \"#utility.yul\":1991:2108   */\n      pop\n        /* \"#utility.yul\":2147:2149   */\n      0x20\n        /* \"#utility.yul\":2173:2226   */\n      tag_74\n        /* \"#utility.yul\":2218:2225   */\n      dup7\n        /* \"#utility.yul\":2209:2215   */\n      dup3\n        /* \"#utility.yul\":2198:2207   */\n      dup8\n        /* \"#utility.yul\":2194:2216   */\n      add\n        /* \"#utility.yul\":2173:2226   */\n      tag_37\n      jump\t// in\n    tag_74:\n        /* \"#utility.yul\":2163:2226   */\n      swap3\n      pop\n        /* \"#utility.yul\":2118:2236   */\n      pop\n        /* \"#utility.yul\":2275:2277   */\n      0x40\n        /* \"#utility.yul\":2301:2351   */\n      tag_75\n        /* \"#utility.yul\":2343:2350   */\n      dup7\n        /* \"#utility.yul\":2334:2340   */\n      dup3\n        /* \"#utility.yul\":2323:2332   */\n      dup8\n        /* \"#utility.yul\":2319:2341   */\n      add\n        /* \"#utility.yul\":2301:2351   */\n      tag_40\n      jump\t// in\n    tag_75:\n        /* \"#utility.yul\":2291:2351   */\n      swap2\n      pop\n        /* \"#utility.yul\":2246:2361   */\n      pop\n        /* \"#utility.yul\":1755:2368   */\n      swap3\n      pop\n      swap3\n      pop\n      swap3\n      jump\t// out\n        /* \"#utility.yul\":2374:2703   */\n    tag_20:\n        /* \"#utility.yul\":2433:2439   */\n      0x00\n        /* \"#utility.yul\":2482:2484   */\n      0x20\n        /* \"#utility.yul\":2470:2479   */\n      dup3\n        /* \"#utility.yul\":2461:2468   */\n      dup5\n        /* \"#utility.yul\":2457:2480   */\n      sub\n        /* \"#utility.yul\":2453:2485   */\n      slt\n        /* \"#utility.yul\":2450:2569   */\n      iszero\n      tag_77\n      jumpi\n        /* \"#utility.yul\":2488:2567   */\n      tag_78\n      tag_31\n      jump\t// in\n    tag_78:\n        /* \"#utility.yul\":2450:2569   */\n    tag_77:\n        /* \"#utility.yul\":2608:2609   */\n      0x00\n        /* \"#utility.yul\":2633:2686   */\n      tag_79\n        /* \"#utility.yul\":2678:2685   */\n      dup5\n        /* \"#utility.yul\":2669:2675   */\n      dup3\n        /* \"#utility.yul\":2658:2667   */\n      dup6\n        /* \"#utility.yul\":2654:2676   */\n      add\n        /* \"#utility.yul\":2633:2686   */\n      tag_37\n      jump\t// in\n    tag_79:\n        /* \"#utility.yul\":2623:2686   */\n      swap2\n      pop\n        /* \"#utility.yul\":2579:2696   */\n      pop\n        /* \"#utility.yul\":2374:2703   */\n      swap3\n      swap2\n      pop\n      pop\n      jump\t// out\n        /* \"#utility.yul\":2709:2827   */\n    tag_41:\n        /* \"#utility.yul\":2796:2820   */\n      tag_81\n        /* \"#utility.yul\":2814:2819   */\n      dup2\n        /* \"#utility.yul\":2796:2820   */\n      tag_33\n      jump\t// in\n    tag_81:\n        /* \"#utility.yul\":2791:2794   */\n      dup3\n        /* \"#utility.yul\":2784:2821   */\n      mstore\n        /* \"#utility.yul\":2709:2827   */\n      pop\n      pop\n      jump\t// out\n        /* \"#utility.yul\":2833:2942   */\n    tag_42:\n        /* \"#utility.yul\":2914:2935   */\n      tag_83\n        /* \"#utility.yul\":2929:2934   */\n      dup2\n        /* \"#utility.yul\":2914:2935   */\n      tag_38\n      jump\t// in\n    tag_83:\n        /* \"#utility.yul\":2909:2912   */\n      dup3\n        /* \"#utility.yul\":2902:2936   */\n      mstore\n        /* \"#utility.yul\":2833:2942   */\n      pop\n      pop\n      jump\t// out\n        /* \"#utility.yul\":2948:3378   */\n    tag_23:\n        /* \"#utility.yul\":3091:3095   */\n      0x00\n        /* \"#utility.yul\":3129:3131   */\n      0x60\n        /* \"#utility.yul\":3118:3127   */\n      dup3\n        /* \"#utility.yul\":3114:3132   */\n      add\n        /* \"#utility.yul\":3106:3132   */\n      swap1\n      pop\n        /* \"#utility.yul\":3142:3213   */\n      tag_85\n        /* \"#utility.yul\":3210:3211   */\n      0x00\n        /* \"#utility.yul\":3199:3208   */\n      dup4\n        /* \"#utility.yul\":3195:3212   */\n      add\n        /* \"#utility.yul\":3186:3192   */\n      dup7\n        /* \"#utility.yul\":3142:3213   */\n      tag_41\n      jump\t// in\n    tag_85:\n        /* \"#utility.yul\":3223:3295   */\n      tag_86\n        /* \"#utility.yul\":3291:3293   */\n      0x20\n        /* \"#utility.yul\":3280:3289   */\n      dup4\n        /* \"#utility.yul\":3276:3294   */\n      add\n        /* \"#utility.yul\":3267:3273   */\n      dup6\n        /* \"#utility.yul\":3223:3295   */\n      tag_29\n      jump\t// in\n    tag_86:\n        /* \"#utility.yul\":3305:3371   */\n      tag_87\n        /* \"#utility.yul\":3367:3369   */\n      0x40\n        /* \"#utility.yul\":3356:3365   */\n      dup4\n        /* \"#utility.yul\":3352:3370   */\n      add\n        /* \"#utility.yul\":3343:3349   */\n      dup5\n        /* \"#utility.yul\":3305:3371   */\n      tag_42\n      jump\t// in\n    tag_87:\n        /* \"#utility.yul\":2948:3378   */\n      swap5\n      swap4\n      pop\n      pop\n      pop\n      pop\n      jump\t// out\n        /* \"#utility.yul\":3384:3564   */\n    tag_43:\n        /* \"#utility.yul\":3432:3509   */\n      0x4e487b7100000000000000000000000000000000000000000000000000000000\n        /* \"#utility.yul\":3429:3430   */\n      0x00\n        /* \"#utility.yul\":3422:3510   */\n      mstore\n        /* \"#utility.yul\":3529:3533   */\n      0x11\n        /* \"#utility.yul\":3526:3527   */\n      0x04\n        /* \"#utility.yul\":3519:3534   */\n      mstore\n        /* \"#utility.yul\":3553:3557   */\n      0x24\n        /* \"#utility.yul\":3550:3551   */\n      0x00\n        /* \"#utility.yul\":3543:3558   */\n      revert\n        /* \"#utility.yul\":3570:3803   */\n    tag_27:\n        /* \"#utility.yul\":3609:3612   */\n      0x00\n        /* \"#utility.yul\":3632:3656   */\n      tag_90\n        /* \"#utility.yul\":3650:3655   */\n      dup3\n        /* \"#utility.yul\":3632:3656   */\n      tag_28\n      jump\t// in\n    tag_90:\n        /* \"#utility.yul\":3623:3656   */\n      swap2\n      pop\n        /* \"#utility.yul\":3678:3744   */\n      0xffffffffffffffffffffffffffffffffffffffffffffffffffffffffffffffff\n        /* \"#utility.yul\":3671:3676   */\n      dup3\n        /* \"#utility.yul\":3668:3745   */\n      sub\n        /* \"#utility.yul\":3665:3768   */\n      tag_91\n      jumpi\n        /* \"#utility.yul\":3748:3766   */\n      tag_92\n      tag_43\n      jump\t// in\n    tag_92:\n        /* \"#utility.yul\":3665:3768   */\n    tag_91:\n        /* \"#utility.yul\":3795:3796   */\n      0x01\n        /* \"#utility.yul\":3788:3793   */\n      dup3\n        /* \"#utility.yul\":3784:3797   */\n      add\n        /* \"#utility.yul\":3777:3797   */\n      swap1\n      pop\n        /* \"#utility.yul\":3570:3803   */\n      swap2\n      swap1\n      pop\n      jump\t// out\n\n    auxdata: 0xa2646970667358221220732f739f3bc8241c820f9f90a7001af2da0e79788e1bc76c3381a7813ca1c03764736f6c63430008180033\n}\n",
				"bytecode": {
					"linkReferences": {},
					"object": "608060405234801561000f575f80fd5b506103d68061001d5f395ff3fe608060405234801561000f575f80fd5b506004361061004a575f3560e01c80631c510ea91461004e5780638c1849321461006c578063bb7bb27814610088578063bd14de96146100a6575b5f80fd5b6100566100d8565b60405161006391906101af565b60405180910390f35b6100866004803603810190610081919061025e565b6100e1565b005b610090610160565b60405161009d91906101af565b60405180910390f35b6100c060048036038101906100bb91906102ae565b610166565b6040516100cf939291906102f7565b60405180910390f35b5f600154905090565b60405180606001604052808481526020018381526020018215158152505f8060015481526020019081526020015f205f820151815f0155602082015181600101556040820151816002015f6101000a81548160ff02191690831515021790555090505060015f81548092919061015690610359565b9190505550505050565b60015481565b5f602052805f5260405f205f91509050805f015490806001015490806002015f9054906101000a900460ff16905083565b5f819050919050565b6101a981610197565b82525050565b5f6020820190506101c25f8301846101a0565b92915050565b5f80fd5b5f819050919050565b6101de816101cc565b81146101e8575f80fd5b50565b5f813590506101f9816101d5565b92915050565b61020881610197565b8114610212575f80fd5b50565b5f81359050610223816101ff565b92915050565b5f8115159050919050565b61023d81610229565b8114610247575f80fd5b50565b5f8135905061025881610234565b92915050565b5f805f60608486031215610275576102746101c8565b5b5f610282868287016101eb565b935050602061029386828701610215565b92505060406102a48682870161024a565b9150509250925092565b5f602082840312156102c3576102c26101c8565b5b5f6102d084828501610215565b91505092915050565b6102e2816101cc565b82525050565b6102f181610229565b82525050565b5f60608201905061030a5f8301866102d9565b61031760208301856101a0565b61032460408301846102e8565b949350505050565b7f4e487b71000000000000000000000000000000000000000000000000000000005f52601160045260245ffd5b5f61036382610197565b91507fffffffffffffffffffffffffffffffffffffffffffffffffffffffffffffffff82036103955761039461032c565b5b60018201905091905056fea2646970667358221220732f739f3bc8241c820f9f90a7001af2da0e79788e1bc76c3381a7813ca1c03764736f6c63430008180033",
					"opcodes": "PUSH1 0x80 PUSH1 0x40 MSTORE CALLVALUE DUP1 ISZERO PUSH2 0xF JUMPI PUSH0 DUP1 REVERT JUMPDEST POP PUSH2 0x3D6 DUP1 PUSH2 0x1D PUSH0 CODECOPY PUSH0 RETURN INVALID PUSH1 0x80 PUSH1 0x40 MSTORE CALLVALUE DUP1 ISZERO PUSH2 0xF JUMPI PUSH0 DUP1 REVERT JUMPDEST POP PUSH1 0x4 CALLDATASIZE LT PUSH2 0x4A JUMPI PUSH0 CALLDATALOAD PUSH1 0xE0 SHR DUP1 PUSH4 0x1C510EA9 EQ PUSH2 0x4E JUMPI DUP1 PUSH4 0x8C184932 EQ PUSH2 0x6C JUMPI DUP1 PUSH4 0xBB7BB278 EQ PUSH2 0x88 JUMPI DUP1 PUSH4 0xBD14DE96 EQ PUSH2 0xA6 JUMPI JUMPDEST PUSH0 DUP1 REVERT JUMPDEST PUSH2 0x56 PUSH2 0xD8 JUMP JUMPDEST PUSH1 0x40 MLOAD PUSH2 0x63 SWAP2 SWAP1 PUSH2 0x1AF JUMP JUMPDEST PUSH1 0x40 MLOAD DUP1 SWAP2 SUB SWAP1 RETURN JUMPDEST PUSH2 0x86 PUSH1 0x4 DUP1 CALLDATASIZE SUB DUP2 ADD SWAP1 PUSH2 0x81 SWAP2 SWAP1 PUSH2 0x25E JUMP JUMPDEST PUSH2 0xE1 JUMP JUMPDEST STOP JUMPDEST PUSH2 0x90 PUSH2 0x160 JUMP JUMPDEST PUSH1 0x40 MLOAD PUSH2 0x9D SWAP2 SWAP1 PUSH2 0x1AF JUMP JUMPDEST PUSH1 0x40 MLOAD DUP1 SWAP2 SUB SWAP1 RETURN JUMPDEST PUSH2 0xC0 PUSH1 0x4 DUP1 CALLDATASIZE SUB DUP2 ADD SWAP1 PUSH2 0xBB SWAP2 SWAP1 PUSH2 0x2AE JUMP JUMPDEST PUSH2 0x166 JUMP JUMPDEST PUSH1 0x40 MLOAD PUSH2 0xCF SWAP4 SWAP3 SWAP2 SWAP1 PUSH2 0x2F7 JUMP JUMPDEST PUSH1 0x40 MLOAD DUP1 SWAP2 SUB SWAP1 RETURN JUMPDEST PUSH0 PUSH1 0x1 SLOAD SWAP1 POP SWAP1 JUMP JUMPDEST PUSH1 0x40 MLOAD DUP1 PUSH1 0x60 ADD PUSH1 0x40 MSTORE DUP1 DUP5 DUP2 MSTORE PUSH1 0x20 ADD DUP4 DUP2 MSTORE PUSH1 0x20 ADD DUP3 ISZERO ISZERO DUP2 MSTORE POP PUSH0 DUP1 PUSH1 0x1 SLOAD DUP2 MSTORE PUSH1 0x20 ADD SWAP1 DUP2 MSTORE PUSH1 0x20 ADD PUSH0 KECCAK256 PUSH0 DUP3 ADD MLOAD DUP2 PUSH0 ADD SSTORE PUSH1 0x20 DUP3 ADD MLOAD DUP2 PUSH1 0x1 ADD SSTORE PUSH1 0x40 DUP3 ADD MLOAD DUP2 PUSH1 0x2 ADD PUSH0 PUSH2 0x100 EXP DUP2 SLOAD DUP2 PUSH1 0xFF MUL NOT AND SWAP1 DUP4 ISZERO ISZERO MUL OR SWAP1 SSTORE POP SWAP1 POP POP PUSH1 0x1 PUSH0 DUP2 SLOAD DUP1 SWAP3 SWAP2 SWAP1 PUSH2 0x156 SWAP1 PUSH2 0x359 JUMP JUMPDEST SWAP2 SWAP1 POP SSTORE POP POP POP POP JUMP JUMPDEST PUSH1 0x1 SLOAD DUP2 JUMP JUMPDEST PUSH0 PUSH1 0x20 MSTORE DUP1 PUSH0 MSTORE PUSH1 0x40 PUSH0 KECCAK256 PUSH0 SWAP2 POP SWAP1 POP DUP1 PUSH0 ADD SLOAD SWAP1 DUP1 PUSH1 0x1 ADD SLOAD SWAP1 DUP1 PUSH1 0x2 ADD PUSH0 SWAP1 SLOAD SWAP1 PUSH2 0x100 EXP SWAP1 DIV PUSH1 0xFF AND SWAP1 POP DUP4 JUMP JUMPDEST PUSH0 DUP2 SWAP1 POP SWAP2 SWAP1 POP JUMP JUMPDEST PUSH2 0x1A9 DUP2 PUSH2 0x197 JUMP JUMPDEST DUP3 MSTORE POP POP JUMP JUMPDEST PUSH0 PUSH1 0x20 DUP3 ADD SWAP1 POP PUSH2 0x1C2 PUSH0 DUP4 ADD DUP5 PUSH2 0x1A0 JUMP JUMPDEST SWAP3 SWAP2 POP POP JUMP JUMPDEST PUSH0 DUP1 REVERT JUMPDEST PUSH0 DUP2 SWAP1 POP SWAP2 SWAP1 POP JUMP JUMPDEST PUSH2 0x1DE DUP2 PUSH2 0x1CC JUMP JUMPDEST DUP2 EQ PUSH2 0x1E8 JUMPI PUSH0 DUP1 REVERT JUMPDEST POP JUMP JUMPDEST PUSH0 DUP2 CALLDATALOAD SWAP1 POP PUSH2 0x1F9 DUP2 PUSH2 0x1D5 JUMP JUMPDEST SWAP3 SWAP2 POP POP JUMP JUMPDEST PUSH2 0x208 DUP2 PUSH2 0x197 JUMP JUMPDEST DUP2 EQ PUSH2 0x212 JUMPI PUSH0 DUP1 REVERT JUMPDEST POP JUMP JUMPDEST PUSH0 DUP2 CALLDATALOAD SWAP1 POP PUSH2 0x223 DUP2 PUSH2 0x1FF JUMP JUMPDEST SWAP3 SWAP2 POP POP JUMP JUMPDEST PUSH0 DUP2 ISZERO ISZERO SWAP1 POP SWAP2 SWAP1 POP JUMP JUMPDEST PUSH2 0x23D DUP2 PUSH2 0x229 JUMP JUMPDEST DUP2 EQ PUSH2 0x247 JUMPI PUSH0 DUP1 REVERT JUMPDEST POP JUMP JUMPDEST PUSH0 DUP2 CALLDATALOAD SWAP1 POP PUSH2 0x258 DUP2 PUSH2 0x234 JUMP JUMPDEST SWAP3 SWAP2 POP POP JUMP JUMPDEST PUSH0 DUP1 PUSH0 PUSH1 0x60 DUP5 DUP7 SUB SLT ISZERO PUSH2 0x275 JUMPI PUSH2 0x274 PUSH2 0x1C8 JUMP JUMPDEST JUMPDEST PUSH0 PUSH2 0x282 DUP7 DUP3 DUP8 ADD PUSH2 0x1EB JUMP JUMPDEST SWAP4 POP POP PUSH1 0x20 PUSH2 0x293 DUP7 DUP3 DUP8 ADD PUSH2 0x215 JUMP JUMPDEST SWAP3 POP POP PUSH1 0x40 PUSH2 0x2A4 DUP7 DUP3 DUP8 ADD PUSH2 0x24A JUMP JUMPDEST SWAP2 POP POP SWAP3 POP SWAP3 POP SWAP3 JUMP JUMPDEST PUSH0 PUSH1 0x20 DUP3 DUP5 SUB SLT ISZERO PUSH2 0x2C3 JUMPI PUSH2 0x2C2 PUSH2 0x1C8 JUMP JUMPDEST JUMPDEST PUSH0 PUSH2 0x2D0 DUP5 DUP3 DUP6 ADD PUSH2 0x215 JUMP JUMPDEST SWAP2 POP POP SWAP3 SWAP2 POP POP JUMP JUMPDEST PUSH2 0x2E2 DUP2 PUSH2 0x1CC JUMP JUMPDEST DUP3 MSTORE POP POP JUMP JUMPDEST PUSH2 0x2F1 DUP2 PUSH2 0x229 JUMP JUMPDEST DUP3 MSTORE POP POP JUMP JUMPDEST PUSH0 PUSH1 0x60 DUP3 ADD SWAP1 POP PUSH2 0x30A PUSH0 DUP4 ADD DUP7 PUSH2 0x2D9 JUMP JUMPDEST PUSH2 0x317 PUSH1 0x20 DUP4 ADD DUP6 PUSH2 0x1A0 JUMP JUMPDEST PUSH2 0x324 PUSH1 0x40 DUP4 ADD DUP5 PUSH2 0x2E8 JUMP JUMPDEST SWAP5 SWAP4 POP POP POP POP JUMP JUMPDEST PUSH32 0x4E487B7100000000000000000000000000000000000000000000000000000000 PUSH0 MSTORE PUSH1 0x11 PUSH1 0x4 MSTORE PUSH1 0x24 PUSH0 REVERT JUMPDEST PUSH0 PUSH2 0x363 DUP3 PUSH2 0x197 JUMP JUMPDEST SWAP2 POP PUSH32 0xFFFFFFFFFFFFFFFFFFFFFFFFFFFFFFFFFFFFFFFFFFFFFFFFFFFFFFFFFFFFFFFF DUP3 SUB PUSH2 0x395 JUMPI PUSH2 0x394 PUSH2 0x32C JUMP JUMPDEST JUMPDEST PUSH1 0x1 DUP3 ADD SWAP1 POP SWAP2 SWAP1 POP JUMP INVALID LOG2 PUSH5 0x6970667358 0x22 SLT KECCAK256 PUSH20 0x2F739F3BC8241C820F9F90A7001AF2DA0E79788E SHL 0xC7 PUSH13 0x3381A7813CA1C03764736F6C63 NUMBER STOP ADDMOD XOR STOP CALLER "
				},
				"gasEstimates": {
					"creation": {
						"codeDepositCost": "196400",
						"executionCost": "236",
						"totalCost": "196636"
					},
					"external": {
						"addAgreement(bytes32,uint256,bool)": "infinite",
						"agreementCount()": "2447",
						"agreements(uint256)": "infinite",
						"getAgreementsLength()": "2410"
					}
				},
				"methodIdentifiers": {
					"addAgreement(bytes32,uint256,bool)": "8c184932",
					"agreementCount()": "bb7bb278",
					"agreements(uint256)": "bd14de96",
					"getAgreementsLength()": "1c510ea9"
				}
			},
			"storageLayout": {
				"storage": [
					{
						"astId": 15,
						"contract": "contracts/AgreementSmartContract.sol:AgreementSmartContract",
						"label": "agreements",
						"offset": 0,
						"slot": "0",
						"type": "t_mapping(t_uint256,t_struct(Agreement)10_storage)"
					},
					{
						"astId": 17,
						"contract": "contracts/AgreementSmartContract.sol:AgreementSmartContract",
						"label": "agreementCount",
						"offset": 0,
						"slot": "1",
						"type": "t_uint256"
					}
				],
				"types": {
					"t_bool": {
						"encoding": "inplace",
						"label": "bool",
						"numberOfBytes": "1"
					},
					"t_bytes32": {
						"encoding": "inplace",
						"label": "bytes32",
						"numberOfBytes": "32"
					},
					"t_mapping(t_uint256,t_struct(Agreement)10_storage)": {
						"encoding": "mapping",
						"key": "t_uint256",
						"label": "mapping(uint256 => struct AgreementSmartContract.Agreement)",
						"numberOfBytes": "32",
						"value": "t_struct(Agreement)10_storage"
					},
					"t_struct(Agreement)10_storage": {
						"encoding": "inplace",
						"label": "struct AgreementSmartContract.Agreement",
						"members": [
							{
								"astId": 5,
								"contract": "contracts/AgreementSmartContract.sol:AgreementSmartContract",
								"label": "purposeBlockHash",
								"offset": 0,
								"slot": "0",
								"type": "t_bytes32"
							},
							{
								"astId": 7,
								"contract": "contracts/AgreementSmartContract.sol:AgreementSmartContract",
								"label": "userID",
								"offset": 0,
								"slot": "1",
								"type": "t_uint256"
							},
							{
								"astId": 9,
								"contract": "contracts/AgreementSmartContract.sol:AgreementSmartContract",
								"label": "consent",
								"offset": 0,
								"slot": "2",
								"type": "t_bool"
							}
						],
						"numberOfBytes": "96"
					},
					"t_uint256": {
						"encoding": "inplace",
						"label": "uint256",
						"numberOfBytes": "32"
					}
				}
			},
			"userdoc": {
				"kind": "user",
				"methods": {},
				"version": 1
			}
		}
	}
}