{
	"contracts/Verification.sol": {
		"Verification": {
			"abi": [
				{
					"inputs": [
						{
							"internalType": "address",
							"name": "_dataUsageContract",
							"type": "address"
						},
						{
							"internalType": "address",
							"name": "_agreementContract",
							"type": "address"
						},
						{
							"internalType": "address",
							"name": "_logContract",
							"type": "address"
						}
					],
					"stateMutability": "nonpayable",
					"type": "constructor"
				},
				{
					"inputs": [],
					"name": "agreementContract",
					"outputs": [
						{
							"internalType": "contract AgreementSmartContract",
							"name": "",
							"type": "address"
						}
					],
					"stateMutability": "view",
					"type": "function"
				},
				{
					"inputs": [],
					"name": "checkViolations",
					"outputs": [
						{
							"internalType": "string[]",
							"name": "violators",
							"type": "string[]"
						}
					],
					"stateMutability": "view",
					"type": "function"
				},
				{
					"inputs": [],
					"name": "dataUsageContract",
					"outputs": [
						{
							"internalType": "contract DataUsageSmartContract",
							"name": "",
							"type": "address"
						}
					],
					"stateMutability": "view",
					"type": "function"
				},
				{
					"inputs": [],
					"name": "logContract",
					"outputs": [
						{
							"internalType": "contract LogSmartContract",
							"name": "",
							"type": "address"
						}
					],
					"stateMutability": "view",
					"type": "function"
				}
			],
			"devdoc": {
				"details": "Contract to verify data usage compliance with user agreements",
				"kind": "dev",
				"methods": {
					"checkViolations()": {
						"details": "Checks for violations of data usage against user consents",
						"returns": {
							"violators": "Array of actor IDs who violated the data usage agreements"
						}
					},
					"constructor": {
						"details": "Constructor to set the addresses of associated smart contracts",
						"params": {
							"_agreementContract": "Address of the AgreementSmartContract",
							"_dataUsageContract": "Address of the DataUsageSmartContract",
							"_logContract": "Address of the LogSmartContract"
						}
					}
				},
				"title": "Verification Contract",
				"version": 1
			},
			"evm": {
				"assembly": "    /* \"contracts/Verification.sol\":331:3947  contract Verification {... */\n  mstore(0x40, 0x80)\n    /* \"contracts/Verification.sol\":946:1245  constructor(address _dataUsageContract, address _agreementContract, address _logContract) {... */\n  callvalue\n  dup1\n  iszero\n  tag_1\n  jumpi\n  0x00\n  dup1\n  revert\ntag_1:\n  pop\n  mload(0x40)\n  sub(codesize, bytecodeSize)\n  dup1\n  bytecodeSize\n  dup4\n  codecopy\n  dup2\n  dup2\n  add\n  0x40\n  mstore\n  dup2\n  add\n  swap1\n  tag_2\n  swap2\n  swap1\n  tag_3\n  jump\t// in\ntag_2:\n    /* \"contracts/Verification.sol\":1090:1108  _dataUsageContract */\n  dup3\n    /* \"contracts/Verification.sol\":1047:1064  dataUsageContract */\n  0x00\n  dup1\n    /* \"contracts/Verification.sol\":1047:1109  dataUsageContract = DataUsageSmartContract(_dataUsageContract) */\n  0x0100\n  exp\n  dup2\n  sload\n  dup2\n  0xffffffffffffffffffffffffffffffffffffffff\n  mul\n  not\n  and\n  swap1\n  dup4\n  0xffffffffffffffffffffffffffffffffffffffff\n  and\n  mul\n  or\n  swap1\n  sstore\n  pop\n    /* \"contracts/Verification.sol\":1163:1181  _agreementContract */\n  dup2\n    /* \"contracts/Verification.sol\":1120:1137  agreementContract */\n  0x01\n  0x00\n    /* \"contracts/Verification.sol\":1120:1182  agreementContract = AgreementSmartContract(_agreementContract) */\n  0x0100\n  exp\n  dup2\n  sload\n  dup2\n  0xffffffffffffffffffffffffffffffffffffffff\n  mul\n  not\n  and\n  swap1\n  dup4\n  0xffffffffffffffffffffffffffffffffffffffff\n  and\n  mul\n  or\n  swap1\n  sstore\n  pop\n    /* \"contracts/Verification.sol\":1224:1236  _logContract */\n  dup1\n    /* \"contracts/Verification.sol\":1193:1204  logContract */\n  0x02\n  0x00\n    /* \"contracts/Verification.sol\":1193:1237  logContract = LogSmartContract(_logContract) */\n  0x0100\n  exp\n  dup2\n  sload\n  dup2\n  0xffffffffffffffffffffffffffffffffffffffff\n  mul\n  not\n  and\n  swap1\n  dup4\n  0xffffffffffffffffffffffffffffffffffffffff\n  and\n  mul\n  or\n  swap1\n  sstore\n  pop\n    /* \"contracts/Verification.sol\":946:1245  constructor(address _dataUsageContract, address _agreementContract, address _logContract) {... */\n  pop\n  pop\n  pop\n    /* \"contracts/Verification.sol\":331:3947  contract Verification {... */\n  jump(tag_6)\n    /* \"#utility.yul\":88:205   */\ntag_8:\n    /* \"#utility.yul\":197:198   */\n  0x00\n    /* \"#utility.yul\":194:195   */\n  dup1\n    /* \"#utility.yul\":187:199   */\n  revert\n    /* \"#utility.yul\":334:460   */\ntag_10:\n    /* \"#utility.yul\":371:378   */\n  0x00\n    /* \"#utility.yul\":411:453   */\n  0xffffffffffffffffffffffffffffffffffffffff\n    /* \"#utility.yul\":404:409   */\n  dup3\n    /* \"#utility.yul\":400:454   */\n  and\n    /* \"#utility.yul\":389:454   */\n  swap1\n  pop\n    /* \"#utility.yul\":334:460   */\n  swap2\n  swap1\n  pop\n  jump\t// out\n    /* \"#utility.yul\":466:562   */\ntag_11:\n    /* \"#utility.yul\":503:510   */\n  0x00\n    /* \"#utility.yul\":532:556   */\n  tag_20\n    /* \"#utility.yul\":550:555   */\n  dup3\n    /* \"#utility.yul\":532:556   */\n  tag_10\n  jump\t// in\ntag_20:\n    /* \"#utility.yul\":521:556   */\n  swap1\n  pop\n    /* \"#utility.yul\":466:562   */\n  swap2\n  swap1\n  pop\n  jump\t// out\n    /* \"#utility.yul\":568:690   */\ntag_12:\n    /* \"#utility.yul\":641:665   */\n  tag_22\n    /* \"#utility.yul\":659:664   */\n  dup2\n    /* \"#utility.yul\":641:665   */\n  tag_11\n  jump\t// in\ntag_22:\n    /* \"#utility.yul\":634:639   */\n  dup2\n    /* \"#utility.yul\":631:666   */\n  eq\n    /* \"#utility.yul\":621:684   */\n  tag_23\n  jumpi\n    /* \"#utility.yul\":680:681   */\n  0x00\n    /* \"#utility.yul\":677:678   */\n  dup1\n    /* \"#utility.yul\":670:682   */\n  revert\n    /* \"#utility.yul\":621:684   */\ntag_23:\n    /* \"#utility.yul\":568:690   */\n  pop\n  jump\t// out\n    /* \"#utility.yul\":696:839   */\ntag_13:\n    /* \"#utility.yul\":753:758   */\n  0x00\n    /* \"#utility.yul\":784:790   */\n  dup2\n    /* \"#utility.yul\":778:791   */\n  mload\n    /* \"#utility.yul\":769:791   */\n  swap1\n  pop\n    /* \"#utility.yul\":800:833   */\n  tag_25\n    /* \"#utility.yul\":827:832   */\n  dup2\n    /* \"#utility.yul\":800:833   */\n  tag_12\n  jump\t// in\ntag_25:\n    /* \"#utility.yul\":696:839   */\n  swap3\n  swap2\n  pop\n  pop\n  jump\t// out\n    /* \"#utility.yul\":845:1508   */\ntag_3:\n    /* \"#utility.yul\":933:939   */\n  0x00\n    /* \"#utility.yul\":941:947   */\n  dup1\n    /* \"#utility.yul\":949:955   */\n  0x00\n    /* \"#utility.yul\":998:1000   */\n  0x60\n    /* \"#utility.yul\":986:995   */\n  dup5\n    /* \"#utility.yul\":977:984   */\n  dup7\n    /* \"#utility.yul\":973:996   */\n  sub\n    /* \"#utility.yul\":969:1001   */\n  slt\n    /* \"#utility.yul\":966:1085   */\n  iszero\n  tag_27\n  jumpi\n    /* \"#utility.yul\":1004:1083   */\n  tag_28\n  tag_8\n  jump\t// in\ntag_28:\n    /* \"#utility.yul\":966:1085   */\ntag_27:\n    /* \"#utility.yul\":1124:1125   */\n  0x00\n    /* \"#utility.yul\":1149:1213   */\n  tag_29\n    /* \"#utility.yul\":1205:1212   */\n  dup7\n    /* \"#utility.yul\":1196:1202   */\n  dup3\n    /* \"#utility.yul\":1185:1194   */\n  dup8\n    /* \"#utility.yul\":1181:1203   */\n  add\n    /* \"#utility.yul\":1149:1213   */\n  tag_13\n  jump\t// in\ntag_29:\n    /* \"#utility.yul\":1139:1213   */\n  swap4\n  pop\n    /* \"#utility.yul\":1095:1223   */\n  pop\n    /* \"#utility.yul\":1262:1264   */\n  0x20\n    /* \"#utility.yul\":1288:1352   */\n  tag_30\n    /* \"#utility.yul\":1344:1351   */\n  dup7\n    /* \"#utility.yul\":1335:1341   */\n  dup3\n    /* \"#utility.yul\":1324:1333   */\n  dup8\n    /* \"#utility.yul\":1320:1342   */\n  add\n    /* \"#utility.yul\":1288:1352   */\n  tag_13\n  jump\t// in\ntag_30:\n    /* \"#utility.yul\":1278:1352   */\n  swap3\n  pop\n    /* \"#utility.yul\":1233:1362   */\n  pop\n    /* \"#utility.yul\":1401:1403   */\n  0x40\n    /* \"#utility.yul\":1427:1491   */\n  tag_31\n    /* \"#utility.yul\":1483:1490   */\n  dup7\n    /* \"#utility.yul\":1474:1480   */\n  dup3\n    /* \"#utility.yul\":1463:1472   */\n  dup8\n    /* \"#utility.yul\":1459:1481   */\n  add\n    /* \"#utility.yul\":1427:1491   */\n  tag_13\n  jump\t// in\ntag_31:\n    /* \"#utility.yul\":1417:1491   */\n  swap2\n  pop\n    /* \"#utility.yul\":1372:1501   */\n  pop\n    /* \"#utility.yul\":845:1508   */\n  swap3\n  pop\n  swap3\n  pop\n  swap3\n  jump\t// out\n    /* \"contracts/Verification.sol\":331:3947  contract Verification {... */\ntag_6:\n  dataSize(sub_0)\n  dup1\n  dataOffset(sub_0)\n  0x00\n  codecopy\n  0x00\n  return\nstop\n\nsub_0: assembly {\n        /* \"contracts/Verification.sol\":331:3947  contract Verification {... */\n      mstore(0x40, 0x80)\n      callvalue\n      dup1\n      iszero\n      tag_1\n      jumpi\n      0x00\n      dup1\n      revert\n    tag_1:\n      pop\n      jumpi(tag_2, lt(calldatasize, 0x04))\n      shr(0xe0, calldataload(0x00))\n      dup1\n      0x4bdd1d71\n      eq\n      tag_3\n      jumpi\n      dup1\n      0xcfe279b2\n      eq\n      tag_4\n      jumpi\n      dup1\n      0xd04cc4d8\n      eq\n      tag_5\n      jumpi\n      dup1\n      0xda91aaaa\n      eq\n      tag_6\n      jumpi\n    tag_2:\n      0x00\n      dup1\n      revert\n        /* \"contracts/Verification.sol\":428:475  DataUsageSmartContract public dataUsageContract */\n    tag_3:\n      tag_7\n      tag_8\n      jump\t// in\n    tag_7:\n      mload(0x40)\n      tag_9\n      swap2\n      swap1\n      tag_10\n      jump\t// in\n    tag_9:\n      mload(0x40)\n      dup1\n      swap2\n      sub\n      swap1\n      return\n        /* \"contracts/Verification.sol\":536:571  LogSmartContract public logContract */\n    tag_4:\n      tag_11\n      tag_12\n      jump\t// in\n    tag_11:\n      mload(0x40)\n      tag_13\n      swap2\n      swap1\n      tag_14\n      jump\t// in\n    tag_13:\n      mload(0x40)\n      dup1\n      swap2\n      sub\n      swap1\n      return\n        /* \"contracts/Verification.sol\":1503:3944  function checkViolations() public view returns (string[] memory violators) {... */\n    tag_5:\n      tag_15\n      tag_16\n      jump\t// in\n    tag_15:\n      mload(0x40)\n      tag_17\n      swap2\n      swap1\n      tag_18\n      jump\t// in\n    tag_17:\n      mload(0x40)\n      dup1\n      swap2\n      sub\n      swap1\n      return\n        /* \"contracts/Verification.sol\":482:529  AgreementSmartContract public agreementContract */\n    tag_6:\n      tag_19\n      tag_20\n      jump\t// in\n    tag_19:\n      mload(0x40)\n      tag_21\n      swap2\n      swap1\n      tag_22\n      jump\t// in\n    tag_21:\n      mload(0x40)\n      dup1\n      swap2\n      sub\n      swap1\n      return\n        /* \"contracts/Verification.sol\":428:475  DataUsageSmartContract public dataUsageContract */\n    tag_8:\n      0x00\n      dup1\n      sload\n      swap1\n      0x0100\n      exp\n      swap1\n      div\n      0xffffffffffffffffffffffffffffffffffffffff\n      and\n      dup2\n      jump\t// out\n        /* \"contracts/Verification.sol\":536:571  LogSmartContract public logContract */\n    tag_12:\n      0x02\n      0x00\n      swap1\n      sload\n      swap1\n      0x0100\n      exp\n      swap1\n      div\n      0xffffffffffffffffffffffffffffffffffffffff\n      and\n      dup2\n      jump\t// out\n        /* \"contracts/Verification.sol\":1503:3944  function checkViolations() public view returns (string[] memory violators) {... */\n    tag_16:\n        /* \"contracts/Verification.sol\":1551:1576  string[] memory violators */\n      0x60\n        /* \"contracts/Verification.sol\":1663:1676  uint logCount */\n      0x00\n        /* \"contracts/Verification.sol\":1679:1690  logContract */\n      0x02\n      0x00\n      swap1\n      sload\n      swap1\n      0x0100\n      exp\n      swap1\n      div\n      0xffffffffffffffffffffffffffffffffffffffff\n      and\n        /* \"contracts/Verification.sol\":1679:1704  logContract.getLogsLength */\n      0xffffffffffffffffffffffffffffffffffffffff\n      and\n      0x5517c1a9\n        /* \"contracts/Verification.sol\":1679:1706  logContract.getLogsLength() */\n      mload(0x40)\n      dup2\n      0xffffffff\n      and\n      0xe0\n      shl\n      dup2\n      mstore\n      0x04\n      add\n      0x20\n      mload(0x40)\n      dup1\n      dup4\n      sub\n      dup2\n      dup7\n      gas\n      staticcall\n      iszero\n      dup1\n      iszero\n      tag_25\n      jumpi\n      returndatasize\n      0x00\n      dup1\n      returndatacopy\n      revert(0x00, returndatasize)\n    tag_25:\n      pop\n      pop\n      pop\n      pop\n      mload(0x40)\n      returndatasize\n      not(0x1f)\n      0x1f\n      dup3\n      add\n      and\n      dup3\n      add\n      dup1\n      0x40\n      mstore\n      pop\n      dup2\n      add\n      swap1\n      tag_26\n      swap2\n      swap1\n      tag_27\n      jump\t// in\n    tag_26:\n        /* \"contracts/Verification.sol\":1663:1706  uint logCount = logContract.getLogsLength() */\n      swap1\n      pop\n        /* \"contracts/Verification.sol\":1816:1824  logCount */\n      dup1\n        /* \"contracts/Verification.sol\":1803:1825  new string[](logCount) */\n      0xffffffffffffffff\n      dup2\n      gt\n      iszero\n      tag_28\n      jumpi\n      tag_29\n      tag_30\n      jump\t// in\n    tag_29:\n    tag_28:\n      mload(0x40)\n      swap1\n      dup1\n      dup3\n      mstore\n      dup1\n      0x20\n      mul\n      0x20\n      add\n      dup3\n      add\n      0x40\n      mstore\n      dup1\n      iszero\n      tag_31\n      jumpi\n      dup2\n      0x20\n      add\n    tag_32:\n      0x60\n      dup2\n      mstore\n      0x20\n      add\n      swap1\n      0x01\n      swap1\n      sub\n      swap1\n      dup2\n      tag_32\n      jumpi\n      swap1\n      pop\n    tag_31:\n      pop\n        /* \"contracts/Verification.sol\":1791:1825  violators = new string[](logCount) */\n      swap2\n      pop\n        /* \"contracts/Verification.sol\":1836:1854  uint violatorCount */\n      0x00\n        /* \"contracts/Verification.sol\":1934:1940  uint i */\n      dup1\n        /* \"contracts/Verification.sol\":1929:3710  for (uint i = 0; i < logCount; i++) {... */\n    tag_33:\n        /* \"contracts/Verification.sol\":1950:1958  logCount */\n      dup3\n        /* \"contracts/Verification.sol\":1946:1947  i */\n      dup2\n        /* \"contracts/Verification.sol\":1946:1958  i < logCount */\n      lt\n        /* \"contracts/Verification.sol\":1929:3710  for (uint i = 0; i < logCount; i++) {... */\n      iszero\n      tag_34\n      jumpi\n        /* \"contracts/Verification.sol\":2044:2066  string memory _actorID */\n      0x00\n        /* \"contracts/Verification.sol\":2068:2092  string memory _operation */\n      dup1\n        /* \"contracts/Verification.sol\":2094:2120  string memory _serviceName */\n      0x00\n        /* \"contracts/Verification.sol\":2122:2158  string memory _processedPersonalData */\n      dup1\n        /* \"contracts/Verification.sol\":2162:2173  logContract */\n      0x02\n      0x00\n      swap1\n      sload\n      swap1\n      0x0100\n      exp\n      swap1\n      div\n      0xffffffffffffffffffffffffffffffffffffffff\n      and\n        /* \"contracts/Verification.sol\":2162:2178  logContract.logs */\n      0xffffffffffffffffffffffffffffffffffffffff\n      and\n      0xe79899bd\n        /* \"contracts/Verification.sol\":2179:2180  i */\n      dup7\n        /* \"contracts/Verification.sol\":2162:2181  logContract.logs(i) */\n      mload(0x40)\n      dup3\n      0xffffffff\n      and\n      0xe0\n      shl\n      dup2\n      mstore\n      0x04\n      add\n      tag_36\n      swap2\n      swap1\n      tag_37\n      jump\t// in\n    tag_36:\n      0x00\n      mload(0x40)\n      dup1\n      dup4\n      sub\n      dup2\n      dup7\n      gas\n      staticcall\n      iszero\n      dup1\n      iszero\n      tag_39\n      jumpi\n      returndatasize\n      0x00\n      dup1\n      returndatacopy\n      revert(0x00, returndatasize)\n    tag_39:\n      pop\n      pop\n      pop\n      pop\n      mload(0x40)\n      returndatasize\n      0x00\n      dup3\n      returndatacopy\n      returndatasize\n      not(0x1f)\n      0x1f\n      dup3\n      add\n      and\n      dup3\n      add\n      dup1\n      0x40\n      mstore\n      pop\n      dup2\n      add\n      swap1\n      tag_40\n      swap2\n      swap1\n      tag_41\n      jump\t// in\n    tag_40:\n        /* \"contracts/Verification.sol\":2043:2181  (string memory _actorID, string memory _operation, string memory _serviceName, string memory _processedPersonalData) = logContract.logs(i) */\n      swap4\n      pop\n      swap4\n      pop\n      swap4\n      pop\n      swap4\n      pop\n        /* \"contracts/Verification.sol\":2252:2283  LogSmartContract.Log memory log */\n      0x00\n        /* \"contracts/Verification.sol\":2286:2366  LogSmartContract.Log(_actorID, _operation, _serviceName, _processedPersonalData) */\n      mload(0x40)\n      dup1\n      0x80\n      add\n      0x40\n      mstore\n      dup1\n        /* \"contracts/Verification.sol\":2307:2315  _actorID */\n      dup7\n        /* \"contracts/Verification.sol\":2286:2366  LogSmartContract.Log(_actorID, _operation, _serviceName, _processedPersonalData) */\n      dup2\n      mstore\n      0x20\n      add\n        /* \"contracts/Verification.sol\":2317:2327  _operation */\n      dup6\n        /* \"contracts/Verification.sol\":2286:2366  LogSmartContract.Log(_actorID, _operation, _serviceName, _processedPersonalData) */\n      dup2\n      mstore\n      0x20\n      add\n        /* \"contracts/Verification.sol\":2329:2341  _serviceName */\n      dup5\n        /* \"contracts/Verification.sol\":2286:2366  LogSmartContract.Log(_actorID, _operation, _serviceName, _processedPersonalData) */\n      dup2\n      mstore\n      0x20\n      add\n        /* \"contracts/Verification.sol\":2343:2365  _processedPersonalData */\n      dup4\n        /* \"contracts/Verification.sol\":2286:2366  LogSmartContract.Log(_actorID, _operation, _serviceName, _processedPersonalData) */\n      dup2\n      mstore\n      pop\n        /* \"contracts/Verification.sol\":2252:2366  LogSmartContract.Log memory log = LogSmartContract.Log(_actorID, _operation, _serviceName, _processedPersonalData) */\n      swap1\n      pop\n        /* \"contracts/Verification.sol\":2520:2530  bool found */\n      0x00\n        /* \"contracts/Verification.sol\":2630:2636  uint j */\n      dup1\n        /* \"contracts/Verification.sol\":2625:3487  for (uint j = 0; j < agreementContract.getAgreementsLength(); j++) {... */\n    tag_42:\n        /* \"contracts/Verification.sol\":2646:2663  agreementContract */\n      0x01\n      0x00\n      swap1\n      sload\n      swap1\n      0x0100\n      exp\n      swap1\n      div\n      0xffffffffffffffffffffffffffffffffffffffff\n      and\n        /* \"contracts/Verification.sol\":2646:2683  agreementContract.getAgreementsLength */\n      0xffffffffffffffffffffffffffffffffffffffff\n      and\n      0x1c510ea9\n        /* \"contracts/Verification.sol\":2646:2685  agreementContract.getAgreementsLength() */\n      mload(0x40)\n      dup2\n      0xffffffff\n      and\n      0xe0\n      shl\n      dup2\n      mstore\n      0x04\n      add\n      0x20\n      mload(0x40)\n      dup1\n      dup4\n      sub\n      dup2\n      dup7\n      gas\n      staticcall\n      iszero\n      dup1\n      iszero\n      tag_46\n      jumpi\n      returndatasize\n      0x00\n      dup1\n      returndatacopy\n      revert(0x00, returndatasize)\n    tag_46:\n      pop\n      pop\n      pop\n      pop\n      mload(0x40)\n      returndatasize\n      not(0x1f)\n      0x1f\n      dup3\n      add\n      and\n      dup3\n      add\n      dup1\n      0x40\n      mstore\n      pop\n      dup2\n      add\n      swap1\n      tag_47\n      swap2\n      swap1\n      tag_27\n      jump\t// in\n    tag_47:\n        /* \"contracts/Verification.sol\":2642:2643  j */\n      dup2\n        /* \"contracts/Verification.sol\":2642:2685  j < agreementContract.getAgreementsLength() */\n      lt\n        /* \"contracts/Verification.sol\":2625:3487  for (uint j = 0; j < agreementContract.getAgreementsLength(); j++) {... */\n      iszero\n      tag_43\n      jumpi\n        /* \"contracts/Verification.sol\":2789:2814  bytes32 _purposeBlockHash */\n      0x00\n        /* \"contracts/Verification.sol\":2816:2828  uint _userID */\n      dup1\n        /* \"contracts/Verification.sol\":2830:2843  bool _consent */\n      0x00\n        /* \"contracts/Verification.sol\":2847:2864  agreementContract */\n      0x01\n      0x00\n      swap1\n      sload\n      swap1\n      0x0100\n      exp\n      swap1\n      div\n      0xffffffffffffffffffffffffffffffffffffffff\n      and\n        /* \"contracts/Verification.sol\":2847:2875  agreementContract.agreements */\n      0xffffffffffffffffffffffffffffffffffffffff\n      and\n      0xbd14de96\n        /* \"contracts/Verification.sol\":2876:2877  j */\n      dup6\n        /* \"contracts/Verification.sol\":2847:2878  agreementContract.agreements(j) */\n      mload(0x40)\n      dup3\n      0xffffffff\n      and\n      0xe0\n      shl\n      dup2\n      mstore\n      0x04\n      add\n      tag_48\n      swap2\n      swap1\n      tag_37\n      jump\t// in\n    tag_48:\n      0x60\n      mload(0x40)\n      dup1\n      dup4\n      sub\n      dup2\n      dup7\n      gas\n      staticcall\n      iszero\n      dup1\n      iszero\n      tag_50\n      jumpi\n      returndatasize\n      0x00\n      dup1\n      returndatacopy\n      revert(0x00, returndatasize)\n    tag_50:\n      pop\n      pop\n      pop\n      pop\n      mload(0x40)\n      returndatasize\n      not(0x1f)\n      0x1f\n      dup3\n      add\n      and\n      dup3\n      add\n      dup1\n      0x40\n      mstore\n      pop\n      dup2\n      add\n      swap1\n      tag_51\n      swap2\n      swap1\n      tag_52\n      jump\t// in\n    tag_51:\n        /* \"contracts/Verification.sol\":2788:2878  (bytes32 _purposeBlockHash, uint _userID, bool _consent) = agreementContract.agreements(j) */\n      swap3\n      pop\n      swap3\n      pop\n      swap3\n      pop\n        /* \"contracts/Verification.sol\":2961:3008  AgreementSmartContract.Agreement memory consent */\n      0x00\n        /* \"contracts/Verification.sol\":3011:3079  AgreementSmartContract.Agreement(_purposeBlockHash,_userID,_consent) */\n      mload(0x40)\n      dup1\n      0x60\n      add\n      0x40\n      mstore\n      dup1\n        /* \"contracts/Verification.sol\":3044:3061  _purposeBlockHash */\n      dup6\n        /* \"contracts/Verification.sol\":3011:3079  AgreementSmartContract.Agreement(_purposeBlockHash,_userID,_consent) */\n      dup2\n      mstore\n      0x20\n      add\n        /* \"contracts/Verification.sol\":3062:3069  _userID */\n      dup5\n        /* \"contracts/Verification.sol\":3011:3079  AgreementSmartContract.Agreement(_purposeBlockHash,_userID,_consent) */\n      dup2\n      mstore\n      0x20\n      add\n        /* \"contracts/Verification.sol\":3070:3078  _consent */\n      dup4\n        /* \"contracts/Verification.sol\":3011:3079  AgreementSmartContract.Agreement(_purposeBlockHash,_userID,_consent) */\n      iszero\n      iszero\n      dup2\n      mstore\n      pop\n        /* \"contracts/Verification.sol\":2961:3079  AgreementSmartContract.Agreement memory consent = AgreementSmartContract.Agreement(_purposeBlockHash,_userID,_consent) */\n      swap1\n      pop\n        /* \"contracts/Verification.sol\":3177:3196  bytes32 purposeHash */\n      0x00\n        /* \"contracts/Verification.sol\":3199:3216  dataUsageContract */\n      dup1\n      0x00\n      swap1\n      sload\n      swap1\n      0x0100\n      exp\n      swap1\n      div\n      0xffffffffffffffffffffffffffffffffffffffff\n      and\n        /* \"contracts/Verification.sol\":3199:3231  dataUsageContract.getPurposeHash */\n      0xffffffffffffffffffffffffffffffffffffffff\n      and\n      0xff042fc8\n        /* \"contracts/Verification.sol\":3232:3233  j */\n      dup8\n        /* \"contracts/Verification.sol\":3199:3234  dataUsageContract.getPurposeHash(j) */\n      mload(0x40)\n      dup3\n      0xffffffff\n      and\n      0xe0\n      shl\n      dup2\n      mstore\n      0x04\n      add\n      tag_53\n      swap2\n      swap1\n      tag_37\n      jump\t// in\n    tag_53:\n      0x20\n      mload(0x40)\n      dup1\n      dup4\n      sub\n      dup2\n      dup7\n      gas\n      staticcall\n      iszero\n      dup1\n      iszero\n      tag_55\n      jumpi\n      returndatasize\n      0x00\n      dup1\n      returndatacopy\n      revert(0x00, returndatasize)\n    tag_55:\n      pop\n      pop\n      pop\n      pop\n      mload(0x40)\n      returndatasize\n      not(0x1f)\n      0x1f\n      dup3\n      add\n      and\n      dup3\n      add\n      dup1\n      0x40\n      mstore\n      pop\n      dup2\n      add\n      swap1\n      tag_56\n      swap2\n      swap1\n      tag_57\n      jump\t// in\n    tag_56:\n        /* \"contracts/Verification.sol\":3177:3234  bytes32 purposeHash = dataUsageContract.getPurposeHash(j) */\n      swap1\n      pop\n        /* \"contracts/Verification.sol\":3357:3368  purposeHash */\n      dup1\n        /* \"contracts/Verification.sol\":3329:3336  consent */\n      dup3\n        /* \"contracts/Verification.sol\":3329:3353  consent.purposeBlockHash */\n      0x00\n      add\n      mload\n        /* \"contracts/Verification.sol\":3329:3368  consent.purposeBlockHash == purposeHash */\n      eq\n        /* \"contracts/Verification.sol\":3329:3387  consent.purposeBlockHash == purposeHash && consent.consent */\n      dup1\n      iszero\n      tag_58\n      jumpi\n      pop\n        /* \"contracts/Verification.sol\":3372:3379  consent */\n      dup2\n        /* \"contracts/Verification.sol\":3372:3387  consent.consent */\n      0x40\n      add\n      mload\n        /* \"contracts/Verification.sol\":3329:3387  consent.purposeBlockHash == purposeHash && consent.consent */\n    tag_58:\n        /* \"contracts/Verification.sol\":3325:3472  if (consent.purposeBlockHash == purposeHash && consent.consent) {... */\n      iszero\n      tag_59\n      jumpi\n        /* \"contracts/Verification.sol\":3420:3424  true */\n      0x01\n        /* \"contracts/Verification.sol\":3412:3424  found = true */\n      swap7\n      pop\n        /* \"contracts/Verification.sol\":3447:3452  break */\n      pop\n      pop\n      pop\n      pop\n      pop\n      jump(tag_43)\n        /* \"contracts/Verification.sol\":3325:3472  if (consent.purposeBlockHash == purposeHash && consent.consent) {... */\n    tag_59:\n        /* \"contracts/Verification.sol\":2692:3487  {... */\n      pop\n      pop\n      pop\n      pop\n      pop\n        /* \"contracts/Verification.sol\":2687:2690  j++ */\n      dup1\n      dup1\n      0x01\n      add\n      swap2\n      pop\n      pop\n        /* \"contracts/Verification.sol\":2625:3487  for (uint j = 0; j < agreementContract.getAgreementsLength(); j++) {... */\n      jump(tag_42)\n    tag_43:\n      pop\n        /* \"contracts/Verification.sol\":3585:3590  found */\n      dup1\n        /* \"contracts/Verification.sol\":3580:3699  if (!found) {... */\n      tag_60\n      jumpi\n        /* \"contracts/Verification.sol\":3638:3641  log */\n      dup2\n        /* \"contracts/Verification.sol\":3638:3649  log.actorID */\n      0x00\n      add\n      mload\n        /* \"contracts/Verification.sol\":3611:3620  violators */\n      dup11\n        /* \"contracts/Verification.sol\":3621:3634  violatorCount */\n      dup10\n        /* \"contracts/Verification.sol\":3611:3635  violators[violatorCount] */\n      dup2\n      mload\n      dup2\n      lt\n      tag_61\n      jumpi\n      tag_62\n      tag_63\n      jump\t// in\n    tag_62:\n    tag_61:\n      0x20\n      mul\n      0x20\n      add\n      add\n        /* \"contracts/Verification.sol\":3611:3649  violators[violatorCount] = log.actorID */\n      dup2\n      swap1\n      mstore\n      pop\n        /* \"contracts/Verification.sol\":3668:3683  violatorCount++ */\n      dup8\n      dup1\n      tag_64\n      swap1\n      tag_65\n      jump\t// in\n    tag_64:\n      swap9\n      pop\n      pop\n        /* \"contracts/Verification.sol\":3580:3699  if (!found) {... */\n    tag_60:\n        /* \"contracts/Verification.sol\":1965:3710  {... */\n      pop\n      pop\n      pop\n      pop\n      pop\n      pop\n        /* \"contracts/Verification.sol\":1960:1963  i++ */\n      dup1\n      dup1\n      0x01\n      add\n      swap2\n      pop\n      pop\n        /* \"contracts/Verification.sol\":1929:3710  for (uint i = 0; i < logCount; i++) {... */\n      jump(tag_33)\n    tag_34:\n      pop\n        /* \"contracts/Verification.sol\":3912:3925  violatorCount */\n      dup1\n        /* \"contracts/Verification.sol\":3901:3910  violators */\n      dup4\n        /* \"contracts/Verification.sol\":3894:3926  mstore(violators, violatorCount) */\n      mstore\n        /* \"contracts/Verification.sol\":3879:3937  {... */\n      pop\n      pop\n        /* \"contracts/Verification.sol\":1503:3944  function checkViolations() public view returns (string[] memory violators) {... */\n      swap1\n      jump\t// out\n        /* \"contracts/Verification.sol\":482:529  AgreementSmartContract public agreementContract */\n    tag_20:\n      0x01\n      0x00\n      swap1\n      sload\n      swap1\n      0x0100\n      exp\n      swap1\n      div\n      0xffffffffffffffffffffffffffffffffffffffff\n      and\n      dup2\n      jump\t// out\n        /* \"#utility.yul\":7:133   */\n    tag_66:\n        /* \"#utility.yul\":44:51   */\n      0x00\n        /* \"#utility.yul\":84:126   */\n      0xffffffffffffffffffffffffffffffffffffffff\n        /* \"#utility.yul\":77:82   */\n      dup3\n        /* \"#utility.yul\":73:127   */\n      and\n        /* \"#utility.yul\":62:127   */\n      swap1\n      pop\n        /* \"#utility.yul\":7:133   */\n      swap2\n      swap1\n      pop\n      jump\t// out\n        /* \"#utility.yul\":139:199   */\n    tag_67:\n        /* \"#utility.yul\":167:170   */\n      0x00\n        /* \"#utility.yul\":188:193   */\n      dup2\n        /* \"#utility.yul\":181:193   */\n      swap1\n      pop\n        /* \"#utility.yul\":139:199   */\n      swap2\n      swap1\n      pop\n      jump\t// out\n        /* \"#utility.yul\":205:347   */\n    tag_68:\n        /* \"#utility.yul\":255:264   */\n      0x00\n        /* \"#utility.yul\":288:341   */\n      tag_112\n        /* \"#utility.yul\":306:340   */\n      tag_113\n        /* \"#utility.yul\":315:339   */\n      tag_114\n        /* \"#utility.yul\":333:338   */\n      dup5\n        /* \"#utility.yul\":315:339   */\n      tag_66\n      jump\t// in\n    tag_114:\n        /* \"#utility.yul\":306:340   */\n      tag_67\n      jump\t// in\n    tag_113:\n        /* \"#utility.yul\":288:341   */\n      tag_66\n      jump\t// in\n    tag_112:\n        /* \"#utility.yul\":275:341   */\n      swap1\n      pop\n        /* \"#utility.yul\":205:347   */\n      swap2\n      swap1\n      pop\n      jump\t// out\n        /* \"#utility.yul\":353:479   */\n    tag_69:\n        /* \"#utility.yul\":403:412   */\n      0x00\n        /* \"#utility.yul\":436:473   */\n      tag_116\n        /* \"#utility.yul\":467:472   */\n      dup3\n        /* \"#utility.yul\":436:473   */\n      tag_68\n      jump\t// in\n    tag_116:\n        /* \"#utility.yul\":423:473   */\n      swap1\n      pop\n        /* \"#utility.yul\":353:479   */\n      swap2\n      swap1\n      pop\n      jump\t// out\n        /* \"#utility.yul\":485:641   */\n    tag_70:\n        /* \"#utility.yul\":565:574   */\n      0x00\n        /* \"#utility.yul\":598:635   */\n      tag_118\n        /* \"#utility.yul\":629:634   */\n      dup3\n        /* \"#utility.yul\":598:635   */\n      tag_69\n      jump\t// in\n    tag_118:\n        /* \"#utility.yul\":585:635   */\n      swap1\n      pop\n        /* \"#utility.yul\":485:641   */\n      swap2\n      swap1\n      pop\n      jump\t// out\n        /* \"#utility.yul\":647:838   */\n    tag_71:\n        /* \"#utility.yul\":764:831   */\n      tag_120\n        /* \"#utility.yul\":825:830   */\n      dup2\n        /* \"#utility.yul\":764:831   */\n      tag_70\n      jump\t// in\n    tag_120:\n        /* \"#utility.yul\":759:762   */\n      dup3\n        /* \"#utility.yul\":752:832   */\n      mstore\n        /* \"#utility.yul\":647:838   */\n      pop\n      pop\n      jump\t// out\n        /* \"#utility.yul\":844:1126   */\n    tag_10:\n        /* \"#utility.yul\":967:971   */\n      0x00\n        /* \"#utility.yul\":1005:1007   */\n      0x20\n        /* \"#utility.yul\":994:1003   */\n      dup3\n        /* \"#utility.yul\":990:1008   */\n      add\n        /* \"#utility.yul\":982:1008   */\n      swap1\n      pop\n        /* \"#utility.yul\":1018:1119   */\n      tag_122\n        /* \"#utility.yul\":1116:1117   */\n      0x00\n        /* \"#utility.yul\":1105:1114   */\n      dup4\n        /* \"#utility.yul\":1101:1118   */\n      add\n        /* \"#utility.yul\":1092:1098   */\n      dup5\n        /* \"#utility.yul\":1018:1119   */\n      tag_71\n      jump\t// in\n    tag_122:\n        /* \"#utility.yul\":844:1126   */\n      swap3\n      swap2\n      pop\n      pop\n      jump\t// out\n        /* \"#utility.yul\":1132:1282   */\n    tag_72:\n        /* \"#utility.yul\":1206:1215   */\n      0x00\n        /* \"#utility.yul\":1239:1276   */\n      tag_124\n        /* \"#utility.yul\":1270:1275   */\n      dup3\n        /* \"#utility.yul\":1239:1276   */\n      tag_69\n      jump\t// in\n    tag_124:\n        /* \"#utility.yul\":1226:1276   */\n      swap1\n      pop\n        /* \"#utility.yul\":1132:1282   */\n      swap2\n      swap1\n      pop\n      jump\t// out\n        /* \"#utility.yul\":1288:1467   */\n    tag_73:\n        /* \"#utility.yul\":1399:1460   */\n      tag_126\n        /* \"#utility.yul\":1454:1459   */\n      dup2\n        /* \"#utility.yul\":1399:1460   */\n      tag_72\n      jump\t// in\n    tag_126:\n        /* \"#utility.yul\":1394:1397   */\n      dup3\n        /* \"#utility.yul\":1387:1461   */\n      mstore\n        /* \"#utility.yul\":1288:1467   */\n      pop\n      pop\n      jump\t// out\n        /* \"#utility.yul\":1473:1743   */\n    tag_14:\n        /* \"#utility.yul\":1590:1594   */\n      0x00\n        /* \"#utility.yul\":1628:1630   */\n      0x20\n        /* \"#utility.yul\":1617:1626   */\n      dup3\n        /* \"#utility.yul\":1613:1631   */\n      add\n        /* \"#utility.yul\":1605:1631   */\n      swap1\n      pop\n        /* \"#utility.yul\":1641:1736   */\n      tag_128\n        /* \"#utility.yul\":1733:1734   */\n      0x00\n        /* \"#utility.yul\":1722:1731   */\n      dup4\n        /* \"#utility.yul\":1718:1735   */\n      add\n        /* \"#utility.yul\":1709:1715   */\n      dup5\n        /* \"#utility.yul\":1641:1736   */\n      tag_73\n      jump\t// in\n    tag_128:\n        /* \"#utility.yul\":1473:1743   */\n      swap3\n      swap2\n      pop\n      pop\n      jump\t// out\n        /* \"#utility.yul\":1749:1873   */\n    tag_74:\n        /* \"#utility.yul\":1826:1832   */\n      0x00\n        /* \"#utility.yul\":1860:1865   */\n      dup2\n        /* \"#utility.yul\":1854:1866   */\n      mload\n        /* \"#utility.yul\":1844:1866   */\n      swap1\n      pop\n        /* \"#utility.yul\":1749:1873   */\n      swap2\n      swap1\n      pop\n      jump\t// out\n        /* \"#utility.yul\":1879:2073   */\n    tag_75:\n        /* \"#utility.yul\":1988:1999   */\n      0x00\n        /* \"#utility.yul\":2022:2028   */\n      dup3\n        /* \"#utility.yul\":2017:2020   */\n      dup3\n        /* \"#utility.yul\":2010:2029   */\n      mstore\n        /* \"#utility.yul\":2062:2066   */\n      0x20\n        /* \"#utility.yul\":2057:2060   */\n      dup3\n        /* \"#utility.yul\":2053:2067   */\n      add\n        /* \"#utility.yul\":2038:2067   */\n      swap1\n      pop\n        /* \"#utility.yul\":1879:2073   */\n      swap3\n      swap2\n      pop\n      pop\n      jump\t// out\n        /* \"#utility.yul\":2079:2221   */\n    tag_76:\n        /* \"#utility.yul\":2156:2160   */\n      0x00\n        /* \"#utility.yul\":2179:2182   */\n      dup2\n        /* \"#utility.yul\":2171:2182   */\n      swap1\n      pop\n        /* \"#utility.yul\":2209:2213   */\n      0x20\n        /* \"#utility.yul\":2204:2207   */\n      dup3\n        /* \"#utility.yul\":2200:2214   */\n      add\n        /* \"#utility.yul\":2192:2214   */\n      swap1\n      pop\n        /* \"#utility.yul\":2079:2221   */\n      swap2\n      swap1\n      pop\n      jump\t// out\n        /* \"#utility.yul\":2227:2326   */\n    tag_77:\n        /* \"#utility.yul\":2279:2285   */\n      0x00\n        /* \"#utility.yul\":2313:2318   */\n      dup2\n        /* \"#utility.yul\":2307:2319   */\n      mload\n        /* \"#utility.yul\":2297:2319   */\n      swap1\n      pop\n        /* \"#utility.yul\":2227:2326   */\n      swap2\n      swap1\n      pop\n      jump\t// out\n        /* \"#utility.yul\":2332:2491   */\n    tag_78:\n        /* \"#utility.yul\":2406:2417   */\n      0x00\n        /* \"#utility.yul\":2440:2446   */\n      dup3\n        /* \"#utility.yul\":2435:2438   */\n      dup3\n        /* \"#utility.yul\":2428:2447   */\n      mstore\n        /* \"#utility.yul\":2480:2484   */\n      0x20\n        /* \"#utility.yul\":2475:2478   */\n      dup3\n        /* \"#utility.yul\":2471:2485   */\n      add\n        /* \"#utility.yul\":2456:2485   */\n      swap1\n      pop\n        /* \"#utility.yul\":2332:2491   */\n      swap3\n      swap2\n      pop\n      pop\n      jump\t// out\n        /* \"#utility.yul\":2497:2743   */\n    tag_79:\n        /* \"#utility.yul\":2578:2579   */\n      0x00\n        /* \"#utility.yul\":2588:2701   */\n    tag_135:\n        /* \"#utility.yul\":2602:2608   */\n      dup4\n        /* \"#utility.yul\":2599:2600   */\n      dup2\n        /* \"#utility.yul\":2596:2609   */\n      lt\n        /* \"#utility.yul\":2588:2701   */\n      iszero\n      tag_137\n      jumpi\n        /* \"#utility.yul\":2687:2688   */\n      dup1\n        /* \"#utility.yul\":2682:2685   */\n      dup3\n        /* \"#utility.yul\":2678:2689   */\n      add\n        /* \"#utility.yul\":2672:2690   */\n      mload\n        /* \"#utility.yul\":2668:2669   */\n      dup2\n        /* \"#utility.yul\":2663:2666   */\n      dup5\n        /* \"#utility.yul\":2659:2670   */\n      add\n        /* \"#utility.yul\":2652:2691   */\n      mstore\n        /* \"#utility.yul\":2624:2626   */\n      0x20\n        /* \"#utility.yul\":2621:2622   */\n      dup2\n        /* \"#utility.yul\":2617:2627   */\n      add\n        /* \"#utility.yul\":2612:2627   */\n      swap1\n      pop\n        /* \"#utility.yul\":2588:2701   */\n      jump(tag_135)\n    tag_137:\n        /* \"#utility.yul\":2735:2736   */\n      0x00\n        /* \"#utility.yul\":2726:2732   */\n      dup5\n        /* \"#utility.yul\":2721:2724   */\n      dup5\n        /* \"#utility.yul\":2717:2733   */\n      add\n        /* \"#utility.yul\":2710:2737   */\n      mstore\n        /* \"#utility.yul\":2559:2743   */\n      pop\n        /* \"#utility.yul\":2497:2743   */\n      pop\n      pop\n      pop\n      jump\t// out\n        /* \"#utility.yul\":2749:2851   */\n    tag_80:\n        /* \"#utility.yul\":2790:2796   */\n      0x00\n        /* \"#utility.yul\":2841:2843   */\n      0x1f\n        /* \"#utility.yul\":2837:2844   */\n      not\n        /* \"#utility.yul\":2832:2834   */\n      0x1f\n        /* \"#utility.yul\":2825:2830   */\n      dup4\n        /* \"#utility.yul\":2821:2835   */\n      add\n        /* \"#utility.yul\":2817:2845   */\n      and\n        /* \"#utility.yul\":2807:2845   */\n      swap1\n      pop\n        /* \"#utility.yul\":2749:2851   */\n      swap2\n      swap1\n      pop\n      jump\t// out\n        /* \"#utility.yul\":2857:3214   */\n    tag_81:\n        /* \"#utility.yul\":2935:2938   */\n      0x00\n        /* \"#utility.yul\":2963:3002   */\n      tag_140\n        /* \"#utility.yul\":2996:3001   */\n      dup3\n        /* \"#utility.yul\":2963:3002   */\n      tag_77\n      jump\t// in\n    tag_140:\n        /* \"#utility.yul\":3018:3079   */\n      tag_141\n        /* \"#utility.yul\":3072:3078   */\n      dup2\n        /* \"#utility.yul\":3067:3070   */\n      dup6\n        /* \"#utility.yul\":3018:3079   */\n      tag_78\n      jump\t// in\n    tag_141:\n        /* \"#utility.yul\":3011:3079   */\n      swap4\n      pop\n        /* \"#utility.yul\":3088:3153   */\n      tag_142\n        /* \"#utility.yul\":3146:3152   */\n      dup2\n        /* \"#utility.yul\":3141:3144   */\n      dup6\n        /* \"#utility.yul\":3134:3138   */\n      0x20\n        /* \"#utility.yul\":3127:3132   */\n      dup7\n        /* \"#utility.yul\":3123:3139   */\n      add\n        /* \"#utility.yul\":3088:3153   */\n      tag_79\n      jump\t// in\n    tag_142:\n        /* \"#utility.yul\":3178:3207   */\n      tag_143\n        /* \"#utility.yul\":3200:3206   */\n      dup2\n        /* \"#utility.yul\":3178:3207   */\n      tag_80\n      jump\t// in\n    tag_143:\n        /* \"#utility.yul\":3173:3176   */\n      dup5\n        /* \"#utility.yul\":3169:3208   */\n      add\n        /* \"#utility.yul\":3162:3208   */\n      swap2\n      pop\n        /* \"#utility.yul\":2939:3214   */\n      pop\n        /* \"#utility.yul\":2857:3214   */\n      swap3\n      swap2\n      pop\n      pop\n      jump\t// out\n        /* \"#utility.yul\":3220:3416   */\n    tag_82:\n        /* \"#utility.yul\":3309:3319   */\n      0x00\n        /* \"#utility.yul\":3344:3410   */\n      tag_145\n        /* \"#utility.yul\":3406:3409   */\n      dup4\n        /* \"#utility.yul\":3398:3404   */\n      dup4\n        /* \"#utility.yul\":3344:3410   */\n      tag_81\n      jump\t// in\n    tag_145:\n        /* \"#utility.yul\":3330:3410   */\n      swap1\n      pop\n        /* \"#utility.yul\":3220:3416   */\n      swap3\n      swap2\n      pop\n      pop\n      jump\t// out\n        /* \"#utility.yul\":3422:3545   */\n    tag_83:\n        /* \"#utility.yul\":3502:3506   */\n      0x00\n        /* \"#utility.yul\":3534:3538   */\n      0x20\n        /* \"#utility.yul\":3529:3532   */\n      dup3\n        /* \"#utility.yul\":3525:3539   */\n      add\n        /* \"#utility.yul\":3517:3539   */\n      swap1\n      pop\n        /* \"#utility.yul\":3422:3545   */\n      swap2\n      swap1\n      pop\n      jump\t// out\n        /* \"#utility.yul\":3579:4570   */\n    tag_84:\n        /* \"#utility.yul\":3718:3721   */\n      0x00\n        /* \"#utility.yul\":3747:3811   */\n      tag_148\n        /* \"#utility.yul\":3805:3810   */\n      dup3\n        /* \"#utility.yul\":3747:3811   */\n      tag_74\n      jump\t// in\n    tag_148:\n        /* \"#utility.yul\":3827:3923   */\n      tag_149\n        /* \"#utility.yul\":3916:3922   */\n      dup2\n        /* \"#utility.yul\":3911:3914   */\n      dup6\n        /* \"#utility.yul\":3827:3923   */\n      tag_75\n      jump\t// in\n    tag_149:\n        /* \"#utility.yul\":3820:3923   */\n      swap4\n      pop\n        /* \"#utility.yul\":3949:3952   */\n      dup4\n        /* \"#utility.yul\":3994:3998   */\n      0x20\n        /* \"#utility.yul\":3986:3992   */\n      dup3\n        /* \"#utility.yul\":3982:3999   */\n      mul\n        /* \"#utility.yul\":3977:3980   */\n      dup6\n        /* \"#utility.yul\":3973:4000   */\n      add\n        /* \"#utility.yul\":4024:4090   */\n      tag_150\n        /* \"#utility.yul\":4084:4089   */\n      dup6\n        /* \"#utility.yul\":4024:4090   */\n      tag_76\n      jump\t// in\n    tag_150:\n        /* \"#utility.yul\":4113:4120   */\n      dup1\n        /* \"#utility.yul\":4144:4145   */\n      0x00\n        /* \"#utility.yul\":4129:4525   */\n    tag_151:\n        /* \"#utility.yul\":4154:4160   */\n      dup6\n        /* \"#utility.yul\":4151:4152   */\n      dup2\n        /* \"#utility.yul\":4148:4161   */\n      lt\n        /* \"#utility.yul\":4129:4525   */\n      iszero\n      tag_153\n      jumpi\n        /* \"#utility.yul\":4225:4234   */\n      dup5\n        /* \"#utility.yul\":4219:4223   */\n      dup5\n        /* \"#utility.yul\":4215:4235   */\n      sub\n        /* \"#utility.yul\":4210:4213   */\n      dup10\n        /* \"#utility.yul\":4203:4236   */\n      mstore\n        /* \"#utility.yul\":4276:4282   */\n      dup2\n        /* \"#utility.yul\":4270:4283   */\n      mload\n        /* \"#utility.yul\":4304:4388   */\n      tag_154\n        /* \"#utility.yul\":4383:4387   */\n      dup6\n        /* \"#utility.yul\":4368:4381   */\n      dup3\n        /* \"#utility.yul\":4304:4388   */\n      tag_82\n      jump\t// in\n    tag_154:\n        /* \"#utility.yul\":4296:4388   */\n      swap5\n      pop\n        /* \"#utility.yul\":4411:4481   */\n      tag_155\n        /* \"#utility.yul\":4474:4480   */\n      dup4\n        /* \"#utility.yul\":4411:4481   */\n      tag_83\n      jump\t// in\n    tag_155:\n        /* \"#utility.yul\":4401:4481   */\n      swap3\n      pop\n        /* \"#utility.yul\":4510:4514   */\n      0x20\n        /* \"#utility.yul\":4505:4508   */\n      dup11\n        /* \"#utility.yul\":4501:4515   */\n      add\n        /* \"#utility.yul\":4494:4515   */\n      swap10\n      pop\n        /* \"#utility.yul\":4189:4525   */\n      pop\n        /* \"#utility.yul\":4176:4177   */\n      0x01\n        /* \"#utility.yul\":4173:4174   */\n      dup2\n        /* \"#utility.yul\":4169:4178   */\n      add\n        /* \"#utility.yul\":4164:4178   */\n      swap1\n      pop\n        /* \"#utility.yul\":4129:4525   */\n      jump(tag_151)\n    tag_153:\n        /* \"#utility.yul\":4133:4147   */\n      pop\n        /* \"#utility.yul\":4541:4545   */\n      dup3\n        /* \"#utility.yul\":4534:4545   */\n      swap8\n      pop\n        /* \"#utility.yul\":4561:4564   */\n      dup8\n        /* \"#utility.yul\":4554:4564   */\n      swap6\n      pop\n        /* \"#utility.yul\":3723:4570   */\n      pop\n      pop\n      pop\n      pop\n      pop\n        /* \"#utility.yul\":3579:4570   */\n      swap3\n      swap2\n      pop\n      pop\n      jump\t// out\n        /* \"#utility.yul\":4576:4989   */\n    tag_18:\n        /* \"#utility.yul\":4739:4743   */\n      0x00\n        /* \"#utility.yul\":4777:4779   */\n      0x20\n        /* \"#utility.yul\":4766:4775   */\n      dup3\n        /* \"#utility.yul\":4762:4780   */\n      add\n        /* \"#utility.yul\":4754:4780   */\n      swap1\n      pop\n        /* \"#utility.yul\":4826:4835   */\n      dup2\n        /* \"#utility.yul\":4820:4824   */\n      dup2\n        /* \"#utility.yul\":4816:4836   */\n      sub\n        /* \"#utility.yul\":4812:4813   */\n      0x00\n        /* \"#utility.yul\":4801:4810   */\n      dup4\n        /* \"#utility.yul\":4797:4814   */\n      add\n        /* \"#utility.yul\":4790:4837   */\n      mstore\n        /* \"#utility.yul\":4854:4982   */\n      tag_157\n        /* \"#utility.yul\":4977:4981   */\n      dup2\n        /* \"#utility.yul\":4968:4974   */\n      dup5\n        /* \"#utility.yul\":4854:4982   */\n      tag_84\n      jump\t// in\n    tag_157:\n        /* \"#utility.yul\":4846:4982   */\n      swap1\n      pop\n        /* \"#utility.yul\":4576:4989   */\n      swap3\n      swap2\n      pop\n      pop\n      jump\t// out\n        /* \"#utility.yul\":4995:5150   */\n    tag_85:\n        /* \"#utility.yul\":5074:5083   */\n      0x00\n        /* \"#utility.yul\":5107:5144   */\n      tag_159\n        /* \"#utility.yul\":5138:5143   */\n      dup3\n        /* \"#utility.yul\":5107:5144   */\n      tag_69\n      jump\t// in\n    tag_159:\n        /* \"#utility.yul\":5094:5144   */\n      swap1\n      pop\n        /* \"#utility.yul\":4995:5150   */\n      swap2\n      swap1\n      pop\n      jump\t// out\n        /* \"#utility.yul\":5156:5345   */\n    tag_86:\n        /* \"#utility.yul\":5272:5338   */\n      tag_161\n        /* \"#utility.yul\":5332:5337   */\n      dup2\n        /* \"#utility.yul\":5272:5338   */\n      tag_85\n      jump\t// in\n    tag_161:\n        /* \"#utility.yul\":5267:5270   */\n      dup3\n        /* \"#utility.yul\":5260:5339   */\n      mstore\n        /* \"#utility.yul\":5156:5345   */\n      pop\n      pop\n      jump\t// out\n        /* \"#utility.yul\":5351:5631   */\n    tag_22:\n        /* \"#utility.yul\":5473:5477   */\n      0x00\n        /* \"#utility.yul\":5511:5513   */\n      0x20\n        /* \"#utility.yul\":5500:5509   */\n      dup3\n        /* \"#utility.yul\":5496:5514   */\n      add\n        /* \"#utility.yul\":5488:5514   */\n      swap1\n      pop\n        /* \"#utility.yul\":5524:5624   */\n      tag_163\n        /* \"#utility.yul\":5621:5622   */\n      0x00\n        /* \"#utility.yul\":5610:5619   */\n      dup4\n        /* \"#utility.yul\":5606:5623   */\n      add\n        /* \"#utility.yul\":5597:5603   */\n      dup5\n        /* \"#utility.yul\":5524:5624   */\n      tag_86\n      jump\t// in\n    tag_163:\n        /* \"#utility.yul\":5351:5631   */\n      swap3\n      swap2\n      pop\n      pop\n      jump\t// out\n        /* \"#utility.yul\":5637:5712   */\n    tag_87:\n        /* \"#utility.yul\":5670:5676   */\n      0x00\n        /* \"#utility.yul\":5703:5705   */\n      0x40\n        /* \"#utility.yul\":5697:5706   */\n      mload\n        /* \"#utility.yul\":5687:5706   */\n      swap1\n      pop\n        /* \"#utility.yul\":5637:5712   */\n      swap1\n      jump\t// out\n        /* \"#utility.yul\":5718:5835   */\n    tag_88:\n        /* \"#utility.yul\":5827:5828   */\n      0x00\n        /* \"#utility.yul\":5824:5825   */\n      dup1\n        /* \"#utility.yul\":5817:5829   */\n      revert\n        /* \"#utility.yul\":5841:5958   */\n    tag_89:\n        /* \"#utility.yul\":5950:5951   */\n      0x00\n        /* \"#utility.yul\":5947:5948   */\n      dup1\n        /* \"#utility.yul\":5940:5952   */\n      revert\n        /* \"#utility.yul\":5964:6041   */\n    tag_90:\n        /* \"#utility.yul\":6001:6008   */\n      0x00\n        /* \"#utility.yul\":6030:6035   */\n      dup2\n        /* \"#utility.yul\":6019:6035   */\n      swap1\n      pop\n        /* \"#utility.yul\":5964:6041   */\n      swap2\n      swap1\n      pop\n      jump\t// out\n        /* \"#utility.yul\":6047:6169   */\n    tag_91:\n        /* \"#utility.yul\":6120:6144   */\n      tag_169\n        /* \"#utility.yul\":6138:6143   */\n      dup2\n        /* \"#utility.yul\":6120:6144   */\n      tag_90\n      jump\t// in\n    tag_169:\n        /* \"#utility.yul\":6113:6118   */\n      dup2\n        /* \"#utility.yul\":6110:6145   */\n      eq\n        /* \"#utility.yul\":6100:6163   */\n      tag_170\n      jumpi\n        /* \"#utility.yul\":6159:6160   */\n      0x00\n        /* \"#utility.yul\":6156:6157   */\n      dup1\n        /* \"#utility.yul\":6149:6161   */\n      revert\n        /* \"#utility.yul\":6100:6163   */\n    tag_170:\n        /* \"#utility.yul\":6047:6169   */\n      pop\n      jump\t// out\n        /* \"#utility.yul\":6175:6318   */\n    tag_92:\n        /* \"#utility.yul\":6232:6237   */\n      0x00\n        /* \"#utility.yul\":6263:6269   */\n      dup2\n        /* \"#utility.yul\":6257:6270   */\n      mload\n        /* \"#utility.yul\":6248:6270   */\n      swap1\n      pop\n        /* \"#utility.yul\":6279:6312   */\n      tag_172\n        /* \"#utility.yul\":6306:6311   */\n      dup2\n        /* \"#utility.yul\":6279:6312   */\n      tag_91\n      jump\t// in\n    tag_172:\n        /* \"#utility.yul\":6175:6318   */\n      swap3\n      swap2\n      pop\n      pop\n      jump\t// out\n        /* \"#utility.yul\":6324:6675   */\n    tag_27:\n        /* \"#utility.yul\":6394:6400   */\n      0x00\n        /* \"#utility.yul\":6443:6445   */\n      0x20\n        /* \"#utility.yul\":6431:6440   */\n      dup3\n        /* \"#utility.yul\":6422:6429   */\n      dup5\n        /* \"#utility.yul\":6418:6441   */\n      sub\n        /* \"#utility.yul\":6414:6446   */\n      slt\n        /* \"#utility.yul\":6411:6530   */\n      iszero\n      tag_174\n      jumpi\n        /* \"#utility.yul\":6449:6528   */\n      tag_175\n      tag_88\n      jump\t// in\n    tag_175:\n        /* \"#utility.yul\":6411:6530   */\n    tag_174:\n        /* \"#utility.yul\":6569:6570   */\n      0x00\n        /* \"#utility.yul\":6594:6658   */\n      tag_176\n        /* \"#utility.yul\":6650:6657   */\n      dup5\n        /* \"#utility.yul\":6641:6647   */\n      dup3\n        /* \"#utility.yul\":6630:6639   */\n      dup6\n        /* \"#utility.yul\":6626:6648   */\n      add\n        /* \"#utility.yul\":6594:6658   */\n      tag_92\n      jump\t// in\n    tag_176:\n        /* \"#utility.yul\":6584:6658   */\n      swap2\n      pop\n        /* \"#utility.yul\":6540:6668   */\n      pop\n        /* \"#utility.yul\":6324:6675   */\n      swap3\n      swap2\n      pop\n      pop\n      jump\t// out\n        /* \"#utility.yul\":6681:6861   */\n    tag_30:\n        /* \"#utility.yul\":6729:6806   */\n      0x4e487b7100000000000000000000000000000000000000000000000000000000\n        /* \"#utility.yul\":6726:6727   */\n      0x00\n        /* \"#utility.yul\":6719:6807   */\n      mstore\n        /* \"#utility.yul\":6826:6830   */\n      0x41\n        /* \"#utility.yul\":6823:6824   */\n      0x04\n        /* \"#utility.yul\":6816:6831   */\n      mstore\n        /* \"#utility.yul\":6850:6854   */\n      0x24\n        /* \"#utility.yul\":6847:6848   */\n      0x00\n        /* \"#utility.yul\":6840:6855   */\n      revert\n        /* \"#utility.yul\":6867:6985   */\n    tag_93:\n        /* \"#utility.yul\":6954:6978   */\n      tag_179\n        /* \"#utility.yul\":6972:6977   */\n      dup2\n        /* \"#utility.yul\":6954:6978   */\n      tag_90\n      jump\t// in\n    tag_179:\n        /* \"#utility.yul\":6949:6952   */\n      dup3\n        /* \"#utility.yul\":6942:6979   */\n      mstore\n        /* \"#utility.yul\":6867:6985   */\n      pop\n      pop\n      jump\t// out\n        /* \"#utility.yul\":6991:7213   */\n    tag_37:\n        /* \"#utility.yul\":7084:7088   */\n      0x00\n        /* \"#utility.yul\":7122:7124   */\n      0x20\n        /* \"#utility.yul\":7111:7120   */\n      dup3\n        /* \"#utility.yul\":7107:7125   */\n      add\n        /* \"#utility.yul\":7099:7125   */\n      swap1\n      pop\n        /* \"#utility.yul\":7135:7206   */\n      tag_181\n        /* \"#utility.yul\":7203:7204   */\n      0x00\n        /* \"#utility.yul\":7192:7201   */\n      dup4\n        /* \"#utility.yul\":7188:7205   */\n      add\n        /* \"#utility.yul\":7179:7185   */\n      dup5\n        /* \"#utility.yul\":7135:7206   */\n      tag_93\n      jump\t// in\n    tag_181:\n        /* \"#utility.yul\":6991:7213   */\n      swap3\n      swap2\n      pop\n      pop\n      jump\t// out\n        /* \"#utility.yul\":7219:7336   */\n    tag_94:\n        /* \"#utility.yul\":7328:7329   */\n      0x00\n        /* \"#utility.yul\":7325:7326   */\n      dup1\n        /* \"#utility.yul\":7318:7330   */\n      revert\n        /* \"#utility.yul\":7342:7459   */\n    tag_95:\n        /* \"#utility.yul\":7451:7452   */\n      0x00\n        /* \"#utility.yul\":7448:7449   */\n      dup1\n        /* \"#utility.yul\":7441:7453   */\n      revert\n        /* \"#utility.yul\":7465:7746   */\n    tag_96:\n        /* \"#utility.yul\":7548:7575   */\n      tag_185\n        /* \"#utility.yul\":7570:7574   */\n      dup3\n        /* \"#utility.yul\":7548:7575   */\n      tag_80\n      jump\t// in\n    tag_185:\n        /* \"#utility.yul\":7540:7546   */\n      dup2\n        /* \"#utility.yul\":7536:7576   */\n      add\n        /* \"#utility.yul\":7678:7684   */\n      dup2\n        /* \"#utility.yul\":7666:7676   */\n      dup2\n        /* \"#utility.yul\":7663:7685   */\n      lt\n        /* \"#utility.yul\":7642:7660   */\n      0xffffffffffffffff\n        /* \"#utility.yul\":7630:7640   */\n      dup3\n        /* \"#utility.yul\":7627:7661   */\n      gt\n        /* \"#utility.yul\":7624:7686   */\n      or\n        /* \"#utility.yul\":7621:7709   */\n      iszero\n      tag_186\n      jumpi\n        /* \"#utility.yul\":7689:7707   */\n      tag_187\n      tag_30\n      jump\t// in\n    tag_187:\n        /* \"#utility.yul\":7621:7709   */\n    tag_186:\n        /* \"#utility.yul\":7729:7739   */\n      dup1\n        /* \"#utility.yul\":7725:7727   */\n      0x40\n        /* \"#utility.yul\":7718:7740   */\n      mstore\n        /* \"#utility.yul\":7508:7746   */\n      pop\n        /* \"#utility.yul\":7465:7746   */\n      pop\n      pop\n      jump\t// out\n        /* \"#utility.yul\":7752:7881   */\n    tag_97:\n        /* \"#utility.yul\":7786:7792   */\n      0x00\n        /* \"#utility.yul\":7813:7833   */\n      tag_189\n      tag_87\n      jump\t// in\n    tag_189:\n        /* \"#utility.yul\":7803:7833   */\n      swap1\n      pop\n        /* \"#utility.yul\":7842:7875   */\n      tag_190\n        /* \"#utility.yul\":7870:7874   */\n      dup3\n        /* \"#utility.yul\":7862:7868   */\n      dup3\n        /* \"#utility.yul\":7842:7875   */\n      tag_96\n      jump\t// in\n    tag_190:\n        /* \"#utility.yul\":7752:7881   */\n      swap2\n      swap1\n      pop\n      jump\t// out\n        /* \"#utility.yul\":7887:8195   */\n    tag_98:\n        /* \"#utility.yul\":7949:7953   */\n      0x00\n        /* \"#utility.yul\":8039:8057   */\n      0xffffffffffffffff\n        /* \"#utility.yul\":8031:8037   */\n      dup3\n        /* \"#utility.yul\":8028:8058   */\n      gt\n        /* \"#utility.yul\":8025:8081   */\n      iszero\n      tag_192\n      jumpi\n        /* \"#utility.yul\":8061:8079   */\n      tag_193\n      tag_30\n      jump\t// in\n    tag_193:\n        /* \"#utility.yul\":8025:8081   */\n    tag_192:\n        /* \"#utility.yul\":8099:8128   */\n      tag_194\n        /* \"#utility.yul\":8121:8127   */\n      dup3\n        /* \"#utility.yul\":8099:8128   */\n      tag_80\n      jump\t// in\n    tag_194:\n        /* \"#utility.yul\":8091:8128   */\n      swap1\n      pop\n        /* \"#utility.yul\":8183:8187   */\n      0x20\n        /* \"#utility.yul\":8177:8181   */\n      dup2\n        /* \"#utility.yul\":8173:8188   */\n      add\n        /* \"#utility.yul\":8165:8188   */\n      swap1\n      pop\n        /* \"#utility.yul\":7887:8195   */\n      swap2\n      swap1\n      pop\n      jump\t// out\n        /* \"#utility.yul\":8201:8635   */\n    tag_99:\n        /* \"#utility.yul\":8290:8295   */\n      0x00\n        /* \"#utility.yul\":8315:8381   */\n      tag_196\n        /* \"#utility.yul\":8331:8380   */\n      tag_197\n        /* \"#utility.yul\":8373:8379   */\n      dup5\n        /* \"#utility.yul\":8331:8380   */\n      tag_98\n      jump\t// in\n    tag_197:\n        /* \"#utility.yul\":8315:8381   */\n      tag_97\n      jump\t// in\n    tag_196:\n        /* \"#utility.yul\":8306:8381   */\n      swap1\n      pop\n        /* \"#utility.yul\":8404:8410   */\n      dup3\n        /* \"#utility.yul\":8397:8402   */\n      dup2\n        /* \"#utility.yul\":8390:8411   */\n      mstore\n        /* \"#utility.yul\":8442:8446   */\n      0x20\n        /* \"#utility.yul\":8435:8440   */\n      dup2\n        /* \"#utility.yul\":8431:8447   */\n      add\n        /* \"#utility.yul\":8480:8483   */\n      dup5\n        /* \"#utility.yul\":8471:8477   */\n      dup5\n        /* \"#utility.yul\":8466:8469   */\n      dup5\n        /* \"#utility.yul\":8462:8478   */\n      add\n        /* \"#utility.yul\":8459:8484   */\n      gt\n        /* \"#utility.yul\":8456:8568   */\n      iszero\n      tag_198\n      jumpi\n        /* \"#utility.yul\":8487:8566   */\n      tag_199\n      tag_95\n      jump\t// in\n    tag_199:\n        /* \"#utility.yul\":8456:8568   */\n    tag_198:\n        /* \"#utility.yul\":8577:8629   */\n      tag_200\n        /* \"#utility.yul\":8622:8628   */\n      dup5\n        /* \"#utility.yul\":8617:8620   */\n      dup3\n        /* \"#utility.yul\":8612:8615   */\n      dup6\n        /* \"#utility.yul\":8577:8629   */\n      tag_79\n      jump\t// in\n    tag_200:\n        /* \"#utility.yul\":8296:8635   */\n      pop\n        /* \"#utility.yul\":8201:8635   */\n      swap4\n      swap3\n      pop\n      pop\n      pop\n      jump\t// out\n        /* \"#utility.yul\":8655:9010   */\n    tag_100:\n        /* \"#utility.yul\":8722:8727   */\n      0x00\n        /* \"#utility.yul\":8771:8774   */\n      dup3\n        /* \"#utility.yul\":8764:8768   */\n      0x1f\n        /* \"#utility.yul\":8756:8762   */\n      dup4\n        /* \"#utility.yul\":8752:8769   */\n      add\n        /* \"#utility.yul\":8748:8775   */\n      slt\n        /* \"#utility.yul\":8738:8860   */\n      tag_202\n      jumpi\n        /* \"#utility.yul\":8779:8858   */\n      tag_203\n      tag_94\n      jump\t// in\n    tag_203:\n        /* \"#utility.yul\":8738:8860   */\n    tag_202:\n        /* \"#utility.yul\":8889:8895   */\n      dup2\n        /* \"#utility.yul\":8883:8896   */\n      mload\n        /* \"#utility.yul\":8914:9004   */\n      tag_204\n        /* \"#utility.yul\":9000:9003   */\n      dup5\n        /* \"#utility.yul\":8992:8998   */\n      dup3\n        /* \"#utility.yul\":8985:8989   */\n      0x20\n        /* \"#utility.yul\":8977:8983   */\n      dup7\n        /* \"#utility.yul\":8973:8990   */\n      add\n        /* \"#utility.yul\":8914:9004   */\n      tag_99\n      jump\t// in\n    tag_204:\n        /* \"#utility.yul\":8905:9004   */\n      swap2\n      pop\n        /* \"#utility.yul\":8728:9010   */\n      pop\n        /* \"#utility.yul\":8655:9010   */\n      swap3\n      swap2\n      pop\n      pop\n      jump\t// out\n        /* \"#utility.yul\":9016:10528   */\n    tag_41:\n        /* \"#utility.yul\":9153:9159   */\n      0x00\n        /* \"#utility.yul\":9161:9167   */\n      dup1\n        /* \"#utility.yul\":9169:9175   */\n      0x00\n        /* \"#utility.yul\":9177:9183   */\n      dup1\n        /* \"#utility.yul\":9226:9229   */\n      0x80\n        /* \"#utility.yul\":9214:9223   */\n      dup6\n        /* \"#utility.yul\":9205:9212   */\n      dup8\n        /* \"#utility.yul\":9201:9224   */\n      sub\n        /* \"#utility.yul\":9197:9230   */\n      slt\n        /* \"#utility.yul\":9194:9314   */\n      iszero\n      tag_206\n      jumpi\n        /* \"#utility.yul\":9233:9312   */\n      tag_207\n      tag_88\n      jump\t// in\n    tag_207:\n        /* \"#utility.yul\":9194:9314   */\n    tag_206:\n        /* \"#utility.yul\":9374:9375   */\n      0x00\n        /* \"#utility.yul\":9363:9372   */\n      dup6\n        /* \"#utility.yul\":9359:9376   */\n      add\n        /* \"#utility.yul\":9353:9377   */\n      mload\n        /* \"#utility.yul\":9404:9422   */\n      0xffffffffffffffff\n        /* \"#utility.yul\":9396:9402   */\n      dup2\n        /* \"#utility.yul\":9393:9423   */\n      gt\n        /* \"#utility.yul\":9390:9507   */\n      iszero\n      tag_208\n      jumpi\n        /* \"#utility.yul\":9426:9505   */\n      tag_209\n      tag_89\n      jump\t// in\n    tag_209:\n        /* \"#utility.yul\":9390:9507   */\n    tag_208:\n        /* \"#utility.yul\":9531:9605   */\n      tag_210\n        /* \"#utility.yul\":9597:9604   */\n      dup8\n        /* \"#utility.yul\":9588:9594   */\n      dup3\n        /* \"#utility.yul\":9577:9586   */\n      dup9\n        /* \"#utility.yul\":9573:9595   */\n      add\n        /* \"#utility.yul\":9531:9605   */\n      tag_100\n      jump\t// in\n    tag_210:\n        /* \"#utility.yul\":9521:9605   */\n      swap5\n      pop\n        /* \"#utility.yul\":9324:9615   */\n      pop\n        /* \"#utility.yul\":9675:9677   */\n      0x20\n        /* \"#utility.yul\":9664:9673   */\n      dup6\n        /* \"#utility.yul\":9660:9678   */\n      add\n        /* \"#utility.yul\":9654:9679   */\n      mload\n        /* \"#utility.yul\":9706:9724   */\n      0xffffffffffffffff\n        /* \"#utility.yul\":9698:9704   */\n      dup2\n        /* \"#utility.yul\":9695:9725   */\n      gt\n        /* \"#utility.yul\":9692:9809   */\n      iszero\n      tag_211\n      jumpi\n        /* \"#utility.yul\":9728:9807   */\n      tag_212\n      tag_89\n      jump\t// in\n    tag_212:\n        /* \"#utility.yul\":9692:9809   */\n    tag_211:\n        /* \"#utility.yul\":9833:9907   */\n      tag_213\n        /* \"#utility.yul\":9899:9906   */\n      dup8\n        /* \"#utility.yul\":9890:9896   */\n      dup3\n        /* \"#utility.yul\":9879:9888   */\n      dup9\n        /* \"#utility.yul\":9875:9897   */\n      add\n        /* \"#utility.yul\":9833:9907   */\n      tag_100\n      jump\t// in\n    tag_213:\n        /* \"#utility.yul\":9823:9907   */\n      swap4\n      pop\n        /* \"#utility.yul\":9625:9917   */\n      pop\n        /* \"#utility.yul\":9977:9979   */\n      0x40\n        /* \"#utility.yul\":9966:9975   */\n      dup6\n        /* \"#utility.yul\":9962:9980   */\n      add\n        /* \"#utility.yul\":9956:9981   */\n      mload\n        /* \"#utility.yul\":10008:10026   */\n      0xffffffffffffffff\n        /* \"#utility.yul\":10000:10006   */\n      dup2\n        /* \"#utility.yul\":9997:10027   */\n      gt\n        /* \"#utility.yul\":9994:10111   */\n      iszero\n      tag_214\n      jumpi\n        /* \"#utility.yul\":10030:10109   */\n      tag_215\n      tag_89\n      jump\t// in\n    tag_215:\n        /* \"#utility.yul\":9994:10111   */\n    tag_214:\n        /* \"#utility.yul\":10135:10209   */\n      tag_216\n        /* \"#utility.yul\":10201:10208   */\n      dup8\n        /* \"#utility.yul\":10192:10198   */\n      dup3\n        /* \"#utility.yul\":10181:10190   */\n      dup9\n        /* \"#utility.yul\":10177:10199   */\n      add\n        /* \"#utility.yul\":10135:10209   */\n      tag_100\n      jump\t// in\n    tag_216:\n        /* \"#utility.yul\":10125:10209   */\n      swap3\n      pop\n        /* \"#utility.yul\":9927:10219   */\n      pop\n        /* \"#utility.yul\":10279:10281   */\n      0x60\n        /* \"#utility.yul\":10268:10277   */\n      dup6\n        /* \"#utility.yul\":10264:10282   */\n      add\n        /* \"#utility.yul\":10258:10283   */\n      mload\n        /* \"#utility.yul\":10310:10328   */\n      0xffffffffffffffff\n        /* \"#utility.yul\":10302:10308   */\n      dup2\n        /* \"#utility.yul\":10299:10329   */\n      gt\n        /* \"#utility.yul\":10296:10413   */\n      iszero\n      tag_217\n      jumpi\n        /* \"#utility.yul\":10332:10411   */\n      tag_218\n      tag_89\n      jump\t// in\n    tag_218:\n        /* \"#utility.yul\":10296:10413   */\n    tag_217:\n        /* \"#utility.yul\":10437:10511   */\n      tag_219\n        /* \"#utility.yul\":10503:10510   */\n      dup8\n        /* \"#utility.yul\":10494:10500   */\n      dup3\n        /* \"#utility.yul\":10483:10492   */\n      dup9\n        /* \"#utility.yul\":10479:10501   */\n      add\n        /* \"#utility.yul\":10437:10511   */\n      tag_100\n      jump\t// in\n    tag_219:\n        /* \"#utility.yul\":10427:10511   */\n      swap2\n      pop\n        /* \"#utility.yul\":10229:10521   */\n      pop\n        /* \"#utility.yul\":9016:10528   */\n      swap3\n      swap6\n      swap2\n      swap5\n      pop\n      swap3\n      pop\n      jump\t// out\n        /* \"#utility.yul\":10534:10611   */\n    tag_101:\n        /* \"#utility.yul\":10571:10578   */\n      0x00\n        /* \"#utility.yul\":10600:10605   */\n      dup2\n        /* \"#utility.yul\":10589:10605   */\n      swap1\n      pop\n        /* \"#utility.yul\":10534:10611   */\n      swap2\n      swap1\n      pop\n      jump\t// out\n        /* \"#utility.yul\":10617:10739   */\n    tag_102:\n        /* \"#utility.yul\":10690:10714   */\n      tag_222\n        /* \"#utility.yul\":10708:10713   */\n      dup2\n        /* \"#utility.yul\":10690:10714   */\n      tag_101\n      jump\t// in\n    tag_222:\n        /* \"#utility.yul\":10683:10688   */\n      dup2\n        /* \"#utility.yul\":10680:10715   */\n      eq\n        /* \"#utility.yul\":10670:10733   */\n      tag_223\n      jumpi\n        /* \"#utility.yul\":10729:10730   */\n      0x00\n        /* \"#utility.yul\":10726:10727   */\n      dup1\n        /* \"#utility.yul\":10719:10731   */\n      revert\n        /* \"#utility.yul\":10670:10733   */\n    tag_223:\n        /* \"#utility.yul\":10617:10739   */\n      pop\n      jump\t// out\n        /* \"#utility.yul\":10745:10888   */\n    tag_103:\n        /* \"#utility.yul\":10802:10807   */\n      0x00\n        /* \"#utility.yul\":10833:10839   */\n      dup2\n        /* \"#utility.yul\":10827:10840   */\n      mload\n        /* \"#utility.yul\":10818:10840   */\n      swap1\n      pop\n        /* \"#utility.yul\":10849:10882   */\n      tag_225\n        /* \"#utility.yul\":10876:10881   */\n      dup2\n        /* \"#utility.yul\":10849:10882   */\n      tag_102\n      jump\t// in\n    tag_225:\n        /* \"#utility.yul\":10745:10888   */\n      swap3\n      swap2\n      pop\n      pop\n      jump\t// out\n        /* \"#utility.yul\":10894:10984   */\n    tag_104:\n        /* \"#utility.yul\":10928:10935   */\n      0x00\n        /* \"#utility.yul\":10971:10976   */\n      dup2\n        /* \"#utility.yul\":10964:10977   */\n      iszero\n        /* \"#utility.yul\":10957:10978   */\n      iszero\n        /* \"#utility.yul\":10946:10978   */\n      swap1\n      pop\n        /* \"#utility.yul\":10894:10984   */\n      swap2\n      swap1\n      pop\n      jump\t// out\n        /* \"#utility.yul\":10990:11106   */\n    tag_105:\n        /* \"#utility.yul\":11060:11081   */\n      tag_228\n        /* \"#utility.yul\":11075:11080   */\n      dup2\n        /* \"#utility.yul\":11060:11081   */\n      tag_104\n      jump\t// in\n    tag_228:\n        /* \"#utility.yul\":11053:11058   */\n      dup2\n        /* \"#utility.yul\":11050:11082   */\n      eq\n        /* \"#utility.yul\":11040:11100   */\n      tag_229\n      jumpi\n        /* \"#utility.yul\":11096:11097   */\n      0x00\n        /* \"#utility.yul\":11093:11094   */\n      dup1\n        /* \"#utility.yul\":11086:11098   */\n      revert\n        /* \"#utility.yul\":11040:11100   */\n    tag_229:\n        /* \"#utility.yul\":10990:11106   */\n      pop\n      jump\t// out\n        /* \"#utility.yul\":11112:11249   */\n    tag_106:\n        /* \"#utility.yul\":11166:11171   */\n      0x00\n        /* \"#utility.yul\":11197:11203   */\n      dup2\n        /* \"#utility.yul\":11191:11204   */\n      mload\n        /* \"#utility.yul\":11182:11204   */\n      swap1\n      pop\n        /* \"#utility.yul\":11213:11243   */\n      tag_231\n        /* \"#utility.yul\":11237:11242   */\n      dup2\n        /* \"#utility.yul\":11213:11243   */\n      tag_105\n      jump\t// in\n    tag_231:\n        /* \"#utility.yul\":11112:11249   */\n      swap3\n      swap2\n      pop\n      pop\n      jump\t// out\n        /* \"#utility.yul\":11255:11912   */\n    tag_52:\n        /* \"#utility.yul\":11340:11346   */\n      0x00\n        /* \"#utility.yul\":11348:11354   */\n      dup1\n        /* \"#utility.yul\":11356:11362   */\n      0x00\n        /* \"#utility.yul\":11405:11407   */\n      0x60\n        /* \"#utility.yul\":11393:11402   */\n      dup5\n        /* \"#utility.yul\":11384:11391   */\n      dup7\n        /* \"#utility.yul\":11380:11403   */\n      sub\n        /* \"#utility.yul\":11376:11408   */\n      slt\n        /* \"#utility.yul\":11373:11492   */\n      iszero\n      tag_233\n      jumpi\n        /* \"#utility.yul\":11411:11490   */\n      tag_234\n      tag_88\n      jump\t// in\n    tag_234:\n        /* \"#utility.yul\":11373:11492   */\n    tag_233:\n        /* \"#utility.yul\":11531:11532   */\n      0x00\n        /* \"#utility.yul\":11556:11620   */\n      tag_235\n        /* \"#utility.yul\":11612:11619   */\n      dup7\n        /* \"#utility.yul\":11603:11609   */\n      dup3\n        /* \"#utility.yul\":11592:11601   */\n      dup8\n        /* \"#utility.yul\":11588:11610   */\n      add\n        /* \"#utility.yul\":11556:11620   */\n      tag_103\n      jump\t// in\n    tag_235:\n        /* \"#utility.yul\":11546:11620   */\n      swap4\n      pop\n        /* \"#utility.yul\":11502:11630   */\n      pop\n        /* \"#utility.yul\":11669:11671   */\n      0x20\n        /* \"#utility.yul\":11695:11759   */\n      tag_236\n        /* \"#utility.yul\":11751:11758   */\n      dup7\n        /* \"#utility.yul\":11742:11748   */\n      dup3\n        /* \"#utility.yul\":11731:11740   */\n      dup8\n        /* \"#utility.yul\":11727:11749   */\n      add\n        /* \"#utility.yul\":11695:11759   */\n      tag_92\n      jump\t// in\n    tag_236:\n        /* \"#utility.yul\":11685:11759   */\n      swap3\n      pop\n        /* \"#utility.yul\":11640:11769   */\n      pop\n        /* \"#utility.yul\":11808:11810   */\n      0x40\n        /* \"#utility.yul\":11834:11895   */\n      tag_237\n        /* \"#utility.yul\":11887:11894   */\n      dup7\n        /* \"#utility.yul\":11878:11884   */\n      dup3\n        /* \"#utility.yul\":11867:11876   */\n      dup8\n        /* \"#utility.yul\":11863:11885   */\n      add\n        /* \"#utility.yul\":11834:11895   */\n      tag_106\n      jump\t// in\n    tag_237:\n        /* \"#utility.yul\":11824:11895   */\n      swap2\n      pop\n        /* \"#utility.yul\":11779:11905   */\n      pop\n        /* \"#utility.yul\":11255:11912   */\n      swap3\n      pop\n      swap3\n      pop\n      swap3\n      jump\t// out\n        /* \"#utility.yul\":11918:12269   */\n    tag_57:\n        /* \"#utility.yul\":11988:11994   */\n      0x00\n        /* \"#utility.yul\":12037:12039   */\n      0x20\n        /* \"#utility.yul\":12025:12034   */\n      dup3\n        /* \"#utility.yul\":12016:12023   */\n      dup5\n        /* \"#utility.yul\":12012:12035   */\n      sub\n        /* \"#utility.yul\":12008:12040   */\n      slt\n        /* \"#utility.yul\":12005:12124   */\n      iszero\n      tag_239\n      jumpi\n        /* \"#utility.yul\":12043:12122   */\n      tag_240\n      tag_88\n      jump\t// in\n    tag_240:\n        /* \"#utility.yul\":12005:12124   */\n    tag_239:\n        /* \"#utility.yul\":12163:12164   */\n      0x00\n        /* \"#utility.yul\":12188:12252   */\n      tag_241\n        /* \"#utility.yul\":12244:12251   */\n      dup5\n        /* \"#utility.yul\":12235:12241   */\n      dup3\n        /* \"#utility.yul\":12224:12233   */\n      dup6\n        /* \"#utility.yul\":12220:12242   */\n      add\n        /* \"#utility.yul\":12188:12252   */\n      tag_103\n      jump\t// in\n    tag_241:\n        /* \"#utility.yul\":12178:12252   */\n      swap2\n      pop\n        /* \"#utility.yul\":12134:12262   */\n      pop\n        /* \"#utility.yul\":11918:12269   */\n      swap3\n      swap2\n      pop\n      pop\n      jump\t// out\n        /* \"#utility.yul\":12275:12455   */\n    tag_63:\n        /* \"#utility.yul\":12323:12400   */\n      0x4e487b7100000000000000000000000000000000000000000000000000000000\n        /* \"#utility.yul\":12320:12321   */\n      0x00\n        /* \"#utility.yul\":12313:12401   */\n      mstore\n        /* \"#utility.yul\":12420:12424   */\n      0x32\n        /* \"#utility.yul\":12417:12418   */\n      0x04\n        /* \"#utility.yul\":12410:12425   */\n      mstore\n        /* \"#utility.yul\":12444:12448   */\n      0x24\n        /* \"#utility.yul\":12441:12442   */\n      0x00\n        /* \"#utility.yul\":12434:12449   */\n      revert\n        /* \"#utility.yul\":12461:12641   */\n    tag_107:\n        /* \"#utility.yul\":12509:12586   */\n      0x4e487b7100000000000000000000000000000000000000000000000000000000\n        /* \"#utility.yul\":12506:12507   */\n      0x00\n        /* \"#utility.yul\":12499:12587   */\n      mstore\n        /* \"#utility.yul\":12606:12610   */\n      0x11\n        /* \"#utility.yul\":12603:12604   */\n      0x04\n        /* \"#utility.yul\":12596:12611   */\n      mstore\n        /* \"#utility.yul\":12630:12634   */\n      0x24\n        /* \"#utility.yul\":12627:12628   */\n      0x00\n        /* \"#utility.yul\":12620:12635   */\n      revert\n        /* \"#utility.yul\":12647:12880   */\n    tag_65:\n        /* \"#utility.yul\":12686:12689   */\n      0x00\n        /* \"#utility.yul\":12709:12733   */\n      tag_245\n        /* \"#utility.yul\":12727:12732   */\n      dup3\n        /* \"#utility.yul\":12709:12733   */\n      tag_90\n      jump\t// in\n    tag_245:\n        /* \"#utility.yul\":12700:12733   */\n      swap2\n      pop\n        /* \"#utility.yul\":12755:12821   */\n      0xffffffffffffffffffffffffffffffffffffffffffffffffffffffffffffffff\n        /* \"#utility.yul\":12748:12753   */\n      dup3\n        /* \"#utility.yul\":12745:12822   */\n      sub\n        /* \"#utility.yul\":12742:12845   */\n      tag_246\n      jumpi\n        /* \"#utility.yul\":12825:12843   */\n      tag_247\n      tag_107\n      jump\t// in\n    tag_247:\n        /* \"#utility.yul\":12742:12845   */\n    tag_246:\n        /* \"#utility.yul\":12872:12873   */\n      0x01\n        /* \"#utility.yul\":12865:12870   */\n      dup3\n        /* \"#utility.yul\":12861:12874   */\n      add\n        /* \"#utility.yul\":12854:12874   */\n      swap1\n      pop\n        /* \"#utility.yul\":12647:12880   */\n      swap2\n      swap1\n      pop\n      jump\t// out\n\n    auxdata: 0xa26469706673582212205184074945b31d193ab107d9684f5f7305c1970d4d7f2c6caa536ca09bf5d32c64736f6c63430008180033\n}\n",
				"bytecode": {
					"linkReferences": {},
					"object": "608060405234801561000f575f80fd5b5060405162000dd038038062000dd083398181016040528101906100339190610158565b825f806101000a81548173ffffffffffffffffffffffffffffffffffffffff021916908373ffffffffffffffffffffffffffffffffffffffff1602179055508160015f6101000a81548173ffffffffffffffffffffffffffffffffffffffff021916908373ffffffffffffffffffffffffffffffffffffffff1602179055508060025f6101000a81548173ffffffffffffffffffffffffffffffffffffffff021916908373ffffffffffffffffffffffffffffffffffffffff1602179055505050506101a8565b5f80fd5b5f73ffffffffffffffffffffffffffffffffffffffff82169050919050565b5f610127826100fe565b9050919050565b6101378161011d565b8114610141575f80fd5b50565b5f815190506101528161012e565b92915050565b5f805f6060848603121561016f5761016e6100fa565b5b5f61017c86828701610144565b935050602061018d86828701610144565b925050604061019e86828701610144565b9150509250925092565b610c1a80620001b65f395ff3fe608060405234801561000f575f80fd5b506004361061004a575f3560e01c80634bdd1d711461004e578063cfe279b21461006c578063d04cc4d81461008a578063da91aaaa146100a8575b5f80fd5b6100566100c6565b60405161006391906105e7565b60405180910390f35b6100746100e9565b6040516100819190610620565b60405180910390f35b61009261010e565b60405161009f919061077e565b60405180910390f35b6100b0610548565b6040516100bd91906107be565b60405180910390f35b5f8054906101000a900473ffffffffffffffffffffffffffffffffffffffff1681565b60025f9054906101000a900473ffffffffffffffffffffffffffffffffffffffff1681565b60605f60025f9054906101000a900473ffffffffffffffffffffffffffffffffffffffff1673ffffffffffffffffffffffffffffffffffffffff16635517c1a96040518163ffffffff1660e01b8152600401602060405180830381865afa15801561017b573d5f803e3d5ffd5b505050506040513d601f19601f8201168201806040525081019061019f919061081b565b90508067ffffffffffffffff8111156101bb576101ba610846565b5b6040519080825280602002602001820160405280156101ee57816020015b60608152602001906001900390816101d95790505b5091505f805b8281101561053f575f805f8060025f9054906101000a900473ffffffffffffffffffffffffffffffffffffffff1673ffffffffffffffffffffffffffffffffffffffff1663e79899bd866040518263ffffffff1660e01b815260040161025a9190610882565b5f60405180830381865afa158015610274573d5f803e3d5ffd5b505050506040513d5f823e3d601f19601f8201168201806040525081019061029c919061098c565b93509350935093505f60405180608001604052808681526020018581526020018481526020018381525090505f805b60015f9054906101000a900473ffffffffffffffffffffffffffffffffffffffff1673ffffffffffffffffffffffffffffffffffffffff16631c510ea96040518163ffffffff1660e01b8152600401602060405180830381865afa158015610335573d5f803e3d5ffd5b505050506040513d601f19601f82011682018060405250810190610359919061081b565b8110156104f5575f805f60015f9054906101000a900473ffffffffffffffffffffffffffffffffffffffff1673ffffffffffffffffffffffffffffffffffffffff1663bd14de96856040518263ffffffff1660e01b81526004016103bd9190610882565b606060405180830381865afa1580156103d8573d5f803e3d5ffd5b505050506040513d601f19601f820116820180604052508101906103fc9190610ac8565b9250925092505f604051806060016040528085815260200184815260200183151581525090505f805f9054906101000a900473ffffffffffffffffffffffffffffffffffffffff1673ffffffffffffffffffffffffffffffffffffffff1663ff042fc8876040518263ffffffff1660e01b815260040161047c9190610882565b602060405180830381865afa158015610497573d5f803e3d5ffd5b505050506040513d601f19601f820116820180604052508101906104bb9190610b18565b905080825f01511480156104d0575081604001515b156104e3576001965050505050506104f5565b505050505080806001019150506102cb565b508061052c57815f01518a898151811061051257610511610b43565b5b6020026020010181905250878061052890610b9d565b9850505b50505050505080806001019150506101f4565b50808352505090565b60015f9054906101000a900473ffffffffffffffffffffffffffffffffffffffff1681565b5f73ffffffffffffffffffffffffffffffffffffffff82169050919050565b5f819050919050565b5f6105af6105aa6105a58461056d565b61058c565b61056d565b9050919050565b5f6105c082610595565b9050919050565b5f6105d1826105b6565b9050919050565b6105e1816105c7565b82525050565b5f6020820190506105fa5f8301846105d8565b92915050565b5f61060a826105b6565b9050919050565b61061a81610600565b82525050565b5f6020820190506106335f830184610611565b92915050565b5f81519050919050565b5f82825260208201905092915050565b5f819050602082019050919050565b5f81519050919050565b5f82825260208201905092915050565b5f5b8381101561069957808201518184015260208101905061067e565b5f8484015250505050565b5f601f19601f8301169050919050565b5f6106be82610662565b6106c8818561066c565b93506106d881856020860161067c565b6106e1816106a4565b840191505092915050565b5f6106f783836106b4565b905092915050565b5f602082019050919050565b5f61071582610639565b61071f8185610643565b93508360208202850161073185610653565b805f5b8581101561076c578484038952815161074d85826106ec565b9450610758836106ff565b925060208a01995050600181019050610734565b50829750879550505050505092915050565b5f6020820190508181035f830152610796818461070b565b905092915050565b5f6107a8826105b6565b9050919050565b6107b88161079e565b82525050565b5f6020820190506107d15f8301846107af565b92915050565b5f604051905090565b5f80fd5b5f80fd5b5f819050919050565b6107fa816107e8565b8114610804575f80fd5b50565b5f81519050610815816107f1565b92915050565b5f602082840312156108305761082f6107e0565b5b5f61083d84828501610807565b91505092915050565b7f4e487b71000000000000000000000000000000000000000000000000000000005f52604160045260245ffd5b61087c816107e8565b82525050565b5f6020820190506108955f830184610873565b92915050565b5f80fd5b5f80fd5b6108ac826106a4565b810181811067ffffffffffffffff821117156108cb576108ca610846565b5b80604052505050565b5f6108dd6107d7565b90506108e982826108a3565b919050565b5f67ffffffffffffffff82111561090857610907610846565b5b610911826106a4565b9050602081019050919050565b5f61093061092b846108ee565b6108d4565b90508281526020810184848401111561094c5761094b61089f565b5b61095784828561067c565b509392505050565b5f82601f8301126109735761097261089b565b5b815161098384826020860161091e565b91505092915050565b5f805f80608085870312156109a4576109a36107e0565b5b5f85015167ffffffffffffffff8111156109c1576109c06107e4565b5b6109cd8782880161095f565b945050602085015167ffffffffffffffff8111156109ee576109ed6107e4565b5b6109fa8782880161095f565b935050604085015167ffffffffffffffff811115610a1b57610a1a6107e4565b5b610a278782880161095f565b925050606085015167ffffffffffffffff811115610a4857610a476107e4565b5b610a548782880161095f565b91505092959194509250565b5f819050919050565b610a7281610a60565b8114610a7c575f80fd5b50565b5f81519050610a8d81610a69565b92915050565b5f8115159050919050565b610aa781610a93565b8114610ab1575f80fd5b50565b5f81519050610ac281610a9e565b92915050565b5f805f60608486031215610adf57610ade6107e0565b5b5f610aec86828701610a7f565b9350506020610afd86828701610807565b9250506040610b0e86828701610ab4565b9150509250925092565b5f60208284031215610b2d57610b2c6107e0565b5b5f610b3a84828501610a7f565b91505092915050565b7f4e487b71000000000000000000000000000000000000000000000000000000005f52603260045260245ffd5b7f4e487b71000000000000000000000000000000000000000000000000000000005f52601160045260245ffd5b5f610ba7826107e8565b91507fffffffffffffffffffffffffffffffffffffffffffffffffffffffffffffffff8203610bd957610bd8610b70565b5b60018201905091905056fea26469706673582212205184074945b31d193ab107d9684f5f7305c1970d4d7f2c6caa536ca09bf5d32c64736f6c63430008180033",
					"opcodes": "PUSH1 0x80 PUSH1 0x40 MSTORE CALLVALUE DUP1 ISZERO PUSH2 0xF JUMPI PUSH0 DUP1 REVERT JUMPDEST POP PUSH1 0x40 MLOAD PUSH3 0xDD0 CODESIZE SUB DUP1 PUSH3 0xDD0 DUP4 CODECOPY DUP2 DUP2 ADD PUSH1 0x40 MSTORE DUP2 ADD SWAP1 PUSH2 0x33 SWAP2 SWAP1 PUSH2 0x158 JUMP JUMPDEST DUP3 PUSH0 DUP1 PUSH2 0x100 EXP DUP2 SLOAD DUP2 PUSH20 0xFFFFFFFFFFFFFFFFFFFFFFFFFFFFFFFFFFFFFFFF MUL NOT AND SWAP1 DUP4 PUSH20 0xFFFFFFFFFFFFFFFFFFFFFFFFFFFFFFFFFFFFFFFF AND MUL OR SWAP1 SSTORE POP DUP2 PUSH1 0x1 PUSH0 PUSH2 0x100 EXP DUP2 SLOAD DUP2 PUSH20 0xFFFFFFFFFFFFFFFFFFFFFFFFFFFFFFFFFFFFFFFF MUL NOT AND SWAP1 DUP4 PUSH20 0xFFFFFFFFFFFFFFFFFFFFFFFFFFFFFFFFFFFFFFFF AND MUL OR SWAP1 SSTORE POP DUP1 PUSH1 0x2 PUSH0 PUSH2 0x100 EXP DUP2 SLOAD DUP2 PUSH20 0xFFFFFFFFFFFFFFFFFFFFFFFFFFFFFFFFFFFFFFFF MUL NOT AND SWAP1 DUP4 PUSH20 0xFFFFFFFFFFFFFFFFFFFFFFFFFFFFFFFFFFFFFFFF AND MUL OR SWAP1 SSTORE POP POP POP POP PUSH2 0x1A8 JUMP JUMPDEST PUSH0 DUP1 REVERT JUMPDEST PUSH0 PUSH20 0xFFFFFFFFFFFFFFFFFFFFFFFFFFFFFFFFFFFFFFFF DUP3 AND SWAP1 POP SWAP2 SWAP1 POP JUMP JUMPDEST PUSH0 PUSH2 0x127 DUP3 PUSH2 0xFE JUMP JUMPDEST SWAP1 POP SWAP2 SWAP1 POP JUMP JUMPDEST PUSH2 0x137 DUP2 PUSH2 0x11D JUMP JUMPDEST DUP2 EQ PUSH2 0x141 JUMPI PUSH0 DUP1 REVERT JUMPDEST POP JUMP JUMPDEST PUSH0 DUP2 MLOAD SWAP1 POP PUSH2 0x152 DUP2 PUSH2 0x12E JUMP JUMPDEST SWAP3 SWAP2 POP POP JUMP JUMPDEST PUSH0 DUP1 PUSH0 PUSH1 0x60 DUP5 DUP7 SUB SLT ISZERO PUSH2 0x16F JUMPI PUSH2 0x16E PUSH2 0xFA JUMP JUMPDEST JUMPDEST PUSH0 PUSH2 0x17C DUP7 DUP3 DUP8 ADD PUSH2 0x144 JUMP JUMPDEST SWAP4 POP POP PUSH1 0x20 PUSH2 0x18D DUP7 DUP3 DUP8 ADD PUSH2 0x144 JUMP JUMPDEST SWAP3 POP POP PUSH1 0x40 PUSH2 0x19E DUP7 DUP3 DUP8 ADD PUSH2 0x144 JUMP JUMPDEST SWAP2 POP POP SWAP3 POP SWAP3 POP SWAP3 JUMP JUMPDEST PUSH2 0xC1A DUP1 PUSH3 0x1B6 PUSH0 CODECOPY PUSH0 RETURN INVALID PUSH1 0x80 PUSH1 0x40 MSTORE CALLVALUE DUP1 ISZERO PUSH2 0xF JUMPI PUSH0 DUP1 REVERT JUMPDEST POP PUSH1 0x4 CALLDATASIZE LT PUSH2 0x4A JUMPI PUSH0 CALLDATALOAD PUSH1 0xE0 SHR DUP1 PUSH4 0x4BDD1D71 EQ PUSH2 0x4E JUMPI DUP1 PUSH4 0xCFE279B2 EQ PUSH2 0x6C JUMPI DUP1 PUSH4 0xD04CC4D8 EQ PUSH2 0x8A JUMPI DUP1 PUSH4 0xDA91AAAA EQ PUSH2 0xA8 JUMPI JUMPDEST PUSH0 DUP1 REVERT JUMPDEST PUSH2 0x56 PUSH2 0xC6 JUMP JUMPDEST PUSH1 0x40 MLOAD PUSH2 0x63 SWAP2 SWAP1 PUSH2 0x5E7 JUMP JUMPDEST PUSH1 0x40 MLOAD DUP1 SWAP2 SUB SWAP1 RETURN JUMPDEST PUSH2 0x74 PUSH2 0xE9 JUMP JUMPDEST PUSH1 0x40 MLOAD PUSH2 0x81 SWAP2 SWAP1 PUSH2 0x620 JUMP JUMPDEST PUSH1 0x40 MLOAD DUP1 SWAP2 SUB SWAP1 RETURN JUMPDEST PUSH2 0x92 PUSH2 0x10E JUMP JUMPDEST PUSH1 0x40 MLOAD PUSH2 0x9F SWAP2 SWAP1 PUSH2 0x77E JUMP JUMPDEST PUSH1 0x40 MLOAD DUP1 SWAP2 SUB SWAP1 RETURN JUMPDEST PUSH2 0xB0 PUSH2 0x548 JUMP JUMPDEST PUSH1 0x40 MLOAD PUSH2 0xBD SWAP2 SWAP1 PUSH2 0x7BE JUMP JUMPDEST PUSH1 0x40 MLOAD DUP1 SWAP2 SUB SWAP1 RETURN JUMPDEST PUSH0 DUP1 SLOAD SWAP1 PUSH2 0x100 EXP SWAP1 DIV PUSH20 0xFFFFFFFFFFFFFFFFFFFFFFFFFFFFFFFFFFFFFFFF AND DUP2 JUMP JUMPDEST PUSH1 0x2 PUSH0 SWAP1 SLOAD SWAP1 PUSH2 0x100 EXP SWAP1 DIV PUSH20 0xFFFFFFFFFFFFFFFFFFFFFFFFFFFFFFFFFFFFFFFF AND DUP2 JUMP JUMPDEST PUSH1 0x60 PUSH0 PUSH1 0x2 PUSH0 SWAP1 SLOAD SWAP1 PUSH2 0x100 EXP SWAP1 DIV PUSH20 0xFFFFFFFFFFFFFFFFFFFFFFFFFFFFFFFFFFFFFFFF AND PUSH20 0xFFFFFFFFFFFFFFFFFFFFFFFFFFFFFFFFFFFFFFFF AND PUSH4 0x5517C1A9 PUSH1 0x40 MLOAD DUP2 PUSH4 0xFFFFFFFF AND PUSH1 0xE0 SHL DUP2 MSTORE PUSH1 0x4 ADD PUSH1 0x20 PUSH1 0x40 MLOAD DUP1 DUP4 SUB DUP2 DUP7 GAS STATICCALL ISZERO DUP1 ISZERO PUSH2 0x17B JUMPI RETURNDATASIZE PUSH0 DUP1 RETURNDATACOPY RETURNDATASIZE PUSH0 REVERT JUMPDEST POP POP POP POP PUSH1 0x40 MLOAD RETURNDATASIZE PUSH1 0x1F NOT PUSH1 0x1F DUP3 ADD AND DUP3 ADD DUP1 PUSH1 0x40 MSTORE POP DUP2 ADD SWAP1 PUSH2 0x19F SWAP2 SWAP1 PUSH2 0x81B JUMP JUMPDEST SWAP1 POP DUP1 PUSH8 0xFFFFFFFFFFFFFFFF DUP2 GT ISZERO PUSH2 0x1BB JUMPI PUSH2 0x1BA PUSH2 0x846 JUMP JUMPDEST JUMPDEST PUSH1 0x40 MLOAD SWAP1 DUP1 DUP3 MSTORE DUP1 PUSH1 0x20 MUL PUSH1 0x20 ADD DUP3 ADD PUSH1 0x40 MSTORE DUP1 ISZERO PUSH2 0x1EE JUMPI DUP2 PUSH1 0x20 ADD JUMPDEST PUSH1 0x60 DUP2 MSTORE PUSH1 0x20 ADD SWAP1 PUSH1 0x1 SWAP1 SUB SWAP1 DUP2 PUSH2 0x1D9 JUMPI SWAP1 POP JUMPDEST POP SWAP2 POP PUSH0 DUP1 JUMPDEST DUP3 DUP2 LT ISZERO PUSH2 0x53F JUMPI PUSH0 DUP1 PUSH0 DUP1 PUSH1 0x2 PUSH0 SWAP1 SLOAD SWAP1 PUSH2 0x100 EXP SWAP1 DIV PUSH20 0xFFFFFFFFFFFFFFFFFFFFFFFFFFFFFFFFFFFFFFFF AND PUSH20 0xFFFFFFFFFFFFFFFFFFFFFFFFFFFFFFFFFFFFFFFF AND PUSH4 0xE79899BD DUP7 PUSH1 0x40 MLOAD DUP3 PUSH4 0xFFFFFFFF AND PUSH1 0xE0 SHL DUP2 MSTORE PUSH1 0x4 ADD PUSH2 0x25A SWAP2 SWAP1 PUSH2 0x882 JUMP JUMPDEST PUSH0 PUSH1 0x40 MLOAD DUP1 DUP4 SUB DUP2 DUP7 GAS STATICCALL ISZERO DUP1 ISZERO PUSH2 0x274 JUMPI RETURNDATASIZE PUSH0 DUP1 RETURNDATACOPY RETURNDATASIZE PUSH0 REVERT JUMPDEST POP POP POP POP PUSH1 0x40 MLOAD RETURNDATASIZE PUSH0 DUP3 RETURNDATACOPY RETURNDATASIZE PUSH1 0x1F NOT PUSH1 0x1F DUP3 ADD AND DUP3 ADD DUP1 PUSH1 0x40 MSTORE POP DUP2 ADD SWAP1 PUSH2 0x29C SWAP2 SWAP1 PUSH2 0x98C JUMP JUMPDEST SWAP4 POP SWAP4 POP SWAP4 POP SWAP4 POP PUSH0 PUSH1 0x40 MLOAD DUP1 PUSH1 0x80 ADD PUSH1 0x40 MSTORE DUP1 DUP7 DUP2 MSTORE PUSH1 0x20 ADD DUP6 DUP2 MSTORE PUSH1 0x20 ADD DUP5 DUP2 MSTORE PUSH1 0x20 ADD DUP4 DUP2 MSTORE POP SWAP1 POP PUSH0 DUP1 JUMPDEST PUSH1 0x1 PUSH0 SWAP1 SLOAD SWAP1 PUSH2 0x100 EXP SWAP1 DIV PUSH20 0xFFFFFFFFFFFFFFFFFFFFFFFFFFFFFFFFFFFFFFFF AND PUSH20 0xFFFFFFFFFFFFFFFFFFFFFFFFFFFFFFFFFFFFFFFF AND PUSH4 0x1C510EA9 PUSH1 0x40 MLOAD DUP2 PUSH4 0xFFFFFFFF AND PUSH1 0xE0 SHL DUP2 MSTORE PUSH1 0x4 ADD PUSH1 0x20 PUSH1 0x40 MLOAD DUP1 DUP4 SUB DUP2 DUP7 GAS STATICCALL ISZERO DUP1 ISZERO PUSH2 0x335 JUMPI RETURNDATASIZE PUSH0 DUP1 RETURNDATACOPY RETURNDATASIZE PUSH0 REVERT JUMPDEST POP POP POP POP PUSH1 0x40 MLOAD RETURNDATASIZE PUSH1 0x1F NOT PUSH1 0x1F DUP3 ADD AND DUP3 ADD DUP1 PUSH1 0x40 MSTORE POP DUP2 ADD SWAP1 PUSH2 0x359 SWAP2 SWAP1 PUSH2 0x81B JUMP JUMPDEST DUP2 LT ISZERO PUSH2 0x4F5 JUMPI PUSH0 DUP1 PUSH0 PUSH1 0x1 PUSH0 SWAP1 SLOAD SWAP1 PUSH2 0x100 EXP SWAP1 DIV PUSH20 0xFFFFFFFFFFFFFFFFFFFFFFFFFFFFFFFFFFFFFFFF AND PUSH20 0xFFFFFFFFFFFFFFFFFFFFFFFFFFFFFFFFFFFFFFFF AND PUSH4 0xBD14DE96 DUP6 PUSH1 0x40 MLOAD DUP3 PUSH4 0xFFFFFFFF AND PUSH1 0xE0 SHL DUP2 MSTORE PUSH1 0x4 ADD PUSH2 0x3BD SWAP2 SWAP1 PUSH2 0x882 JUMP JUMPDEST PUSH1 0x60 PUSH1 0x40 MLOAD DUP1 DUP4 SUB DUP2 DUP7 GAS STATICCALL ISZERO DUP1 ISZERO PUSH2 0x3D8 JUMPI RETURNDATASIZE PUSH0 DUP1 RETURNDATACOPY RETURNDATASIZE PUSH0 REVERT JUMPDEST POP POP POP POP PUSH1 0x40 MLOAD RETURNDATASIZE PUSH1 0x1F NOT PUSH1 0x1F DUP3 ADD AND DUP3 ADD DUP1 PUSH1 0x40 MSTORE POP DUP2 ADD SWAP1 PUSH2 0x3FC SWAP2 SWAP1 PUSH2 0xAC8 JUMP JUMPDEST SWAP3 POP SWAP3 POP SWAP3 POP PUSH0 PUSH1 0x40 MLOAD DUP1 PUSH1 0x60 ADD PUSH1 0x40 MSTORE DUP1 DUP6 DUP2 MSTORE PUSH1 0x20 ADD DUP5 DUP2 MSTORE PUSH1 0x20 ADD DUP4 ISZERO ISZERO DUP2 MSTORE POP SWAP1 POP PUSH0 DUP1 PUSH0 SWAP1 SLOAD SWAP1 PUSH2 0x100 EXP SWAP1 DIV PUSH20 0xFFFFFFFFFFFFFFFFFFFFFFFFFFFFFFFFFFFFFFFF AND PUSH20 0xFFFFFFFFFFFFFFFFFFFFFFFFFFFFFFFFFFFFFFFF AND PUSH4 0xFF042FC8 DUP8 PUSH1 0x40 MLOAD DUP3 PUSH4 0xFFFFFFFF AND PUSH1 0xE0 SHL DUP2 MSTORE PUSH1 0x4 ADD PUSH2 0x47C SWAP2 SWAP1 PUSH2 0x882 JUMP JUMPDEST PUSH1 0x20 PUSH1 0x40 MLOAD DUP1 DUP4 SUB DUP2 DUP7 GAS STATICCALL ISZERO DUP1 ISZERO PUSH2 0x497 JUMPI RETURNDATASIZE PUSH0 DUP1 RETURNDATACOPY RETURNDATASIZE PUSH0 REVERT JUMPDEST POP POP POP POP PUSH1 0x40 MLOAD RETURNDATASIZE PUSH1 0x1F NOT PUSH1 0x1F DUP3 ADD AND DUP3 ADD DUP1 PUSH1 0x40 MSTORE POP DUP2 ADD SWAP1 PUSH2 0x4BB SWAP2 SWAP1 PUSH2 0xB18 JUMP JUMPDEST SWAP1 POP DUP1 DUP3 PUSH0 ADD MLOAD EQ DUP1 ISZERO PUSH2 0x4D0 JUMPI POP DUP2 PUSH1 0x40 ADD MLOAD JUMPDEST ISZERO PUSH2 0x4E3 JUMPI PUSH1 0x1 SWAP7 POP POP POP POP POP POP PUSH2 0x4F5 JUMP JUMPDEST POP POP POP POP POP DUP1 DUP1 PUSH1 0x1 ADD SWAP2 POP POP PUSH2 0x2CB JUMP JUMPDEST POP DUP1 PUSH2 0x52C JUMPI DUP2 PUSH0 ADD MLOAD DUP11 DUP10 DUP2 MLOAD DUP2 LT PUSH2 0x512 JUMPI PUSH2 0x511 PUSH2 0xB43 JUMP JUMPDEST JUMPDEST PUSH1 0x20 MUL PUSH1 0x20 ADD ADD DUP2 SWAP1 MSTORE POP DUP8 DUP1 PUSH2 0x528 SWAP1 PUSH2 0xB9D JUMP JUMPDEST SWAP9 POP POP JUMPDEST POP POP POP POP POP POP DUP1 DUP1 PUSH1 0x1 ADD SWAP2 POP POP PUSH2 0x1F4 JUMP JUMPDEST POP DUP1 DUP4 MSTORE POP POP SWAP1 JUMP JUMPDEST PUSH1 0x1 PUSH0 SWAP1 SLOAD SWAP1 PUSH2 0x100 EXP SWAP1 DIV PUSH20 0xFFFFFFFFFFFFFFFFFFFFFFFFFFFFFFFFFFFFFFFF AND DUP2 JUMP JUMPDEST PUSH0 PUSH20 0xFFFFFFFFFFFFFFFFFFFFFFFFFFFFFFFFFFFFFFFF DUP3 AND SWAP1 POP SWAP2 SWAP1 POP JUMP JUMPDEST PUSH0 DUP2 SWAP1 POP SWAP2 SWAP1 POP JUMP JUMPDEST PUSH0 PUSH2 0x5AF PUSH2 0x5AA PUSH2 0x5A5 DUP5 PUSH2 0x56D JUMP JUMPDEST PUSH2 0x58C JUMP JUMPDEST PUSH2 0x56D JUMP JUMPDEST SWAP1 POP SWAP2 SWAP1 POP JUMP JUMPDEST PUSH0 PUSH2 0x5C0 DUP3 PUSH2 0x595 JUMP JUMPDEST SWAP1 POP SWAP2 SWAP1 POP JUMP JUMPDEST PUSH0 PUSH2 0x5D1 DUP3 PUSH2 0x5B6 JUMP JUMPDEST SWAP1 POP SWAP2 SWAP1 POP JUMP JUMPDEST PUSH2 0x5E1 DUP2 PUSH2 0x5C7 JUMP JUMPDEST DUP3 MSTORE POP POP JUMP JUMPDEST PUSH0 PUSH1 0x20 DUP3 ADD SWAP1 POP PUSH2 0x5FA PUSH0 DUP4 ADD DUP5 PUSH2 0x5D8 JUMP JUMPDEST SWAP3 SWAP2 POP POP JUMP JUMPDEST PUSH0 PUSH2 0x60A DUP3 PUSH2 0x5B6 JUMP JUMPDEST SWAP1 POP SWAP2 SWAP1 POP JUMP JUMPDEST PUSH2 0x61A DUP2 PUSH2 0x600 JUMP JUMPDEST DUP3 MSTORE POP POP JUMP JUMPDEST PUSH0 PUSH1 0x20 DUP3 ADD SWAP1 POP PUSH2 0x633 PUSH0 DUP4 ADD DUP5 PUSH2 0x611 JUMP JUMPDEST SWAP3 SWAP2 POP POP JUMP JUMPDEST PUSH0 DUP2 MLOAD SWAP1 POP SWAP2 SWAP1 POP JUMP JUMPDEST PUSH0 DUP3 DUP3 MSTORE PUSH1 0x20 DUP3 ADD SWAP1 POP SWAP3 SWAP2 POP POP JUMP JUMPDEST PUSH0 DUP2 SWAP1 POP PUSH1 0x20 DUP3 ADD SWAP1 POP SWAP2 SWAP1 POP JUMP JUMPDEST PUSH0 DUP2 MLOAD SWAP1 POP SWAP2 SWAP1 POP JUMP JUMPDEST PUSH0 DUP3 DUP3 MSTORE PUSH1 0x20 DUP3 ADD SWAP1 POP SWAP3 SWAP2 POP POP JUMP JUMPDEST PUSH0 JUMPDEST DUP4 DUP2 LT ISZERO PUSH2 0x699 JUMPI DUP1 DUP3 ADD MLOAD DUP2 DUP5 ADD MSTORE PUSH1 0x20 DUP2 ADD SWAP1 POP PUSH2 0x67E JUMP JUMPDEST PUSH0 DUP5 DUP5 ADD MSTORE POP POP POP POP JUMP JUMPDEST PUSH0 PUSH1 0x1F NOT PUSH1 0x1F DUP4 ADD AND SWAP1 POP SWAP2 SWAP1 POP JUMP JUMPDEST PUSH0 PUSH2 0x6BE DUP3 PUSH2 0x662 JUMP JUMPDEST PUSH2 0x6C8 DUP2 DUP6 PUSH2 0x66C JUMP JUMPDEST SWAP4 POP PUSH2 0x6D8 DUP2 DUP6 PUSH1 0x20 DUP7 ADD PUSH2 0x67C JUMP JUMPDEST PUSH2 0x6E1 DUP2 PUSH2 0x6A4 JUMP JUMPDEST DUP5 ADD SWAP2 POP POP SWAP3 SWAP2 POP POP JUMP JUMPDEST PUSH0 PUSH2 0x6F7 DUP4 DUP4 PUSH2 0x6B4 JUMP JUMPDEST SWAP1 POP SWAP3 SWAP2 POP POP JUMP JUMPDEST PUSH0 PUSH1 0x20 DUP3 ADD SWAP1 POP SWAP2 SWAP1 POP JUMP JUMPDEST PUSH0 PUSH2 0x715 DUP3 PUSH2 0x639 JUMP JUMPDEST PUSH2 0x71F DUP2 DUP6 PUSH2 0x643 JUMP JUMPDEST SWAP4 POP DUP4 PUSH1 0x20 DUP3 MUL DUP6 ADD PUSH2 0x731 DUP6 PUSH2 0x653 JUMP JUMPDEST DUP1 PUSH0 JUMPDEST DUP6 DUP2 LT ISZERO PUSH2 0x76C JUMPI DUP5 DUP5 SUB DUP10 MSTORE DUP2 MLOAD PUSH2 0x74D DUP6 DUP3 PUSH2 0x6EC JUMP JUMPDEST SWAP5 POP PUSH2 0x758 DUP4 PUSH2 0x6FF JUMP JUMPDEST SWAP3 POP PUSH1 0x20 DUP11 ADD SWAP10 POP POP PUSH1 0x1 DUP2 ADD SWAP1 POP PUSH2 0x734 JUMP JUMPDEST POP DUP3 SWAP8 POP DUP8 SWAP6 POP POP POP POP POP POP SWAP3 SWAP2 POP POP JUMP JUMPDEST PUSH0 PUSH1 0x20 DUP3 ADD SWAP1 POP DUP2 DUP2 SUB PUSH0 DUP4 ADD MSTORE PUSH2 0x796 DUP2 DUP5 PUSH2 0x70B JUMP JUMPDEST SWAP1 POP SWAP3 SWAP2 POP POP JUMP JUMPDEST PUSH0 PUSH2 0x7A8 DUP3 PUSH2 0x5B6 JUMP JUMPDEST SWAP1 POP SWAP2 SWAP1 POP JUMP JUMPDEST PUSH2 0x7B8 DUP2 PUSH2 0x79E JUMP JUMPDEST DUP3 MSTORE POP POP JUMP JUMPDEST PUSH0 PUSH1 0x20 DUP3 ADD SWAP1 POP PUSH2 0x7D1 PUSH0 DUP4 ADD DUP5 PUSH2 0x7AF JUMP JUMPDEST SWAP3 SWAP2 POP POP JUMP JUMPDEST PUSH0 PUSH1 0x40 MLOAD SWAP1 POP SWAP1 JUMP JUMPDEST PUSH0 DUP1 REVERT JUMPDEST PUSH0 DUP1 REVERT JUMPDEST PUSH0 DUP2 SWAP1 POP SWAP2 SWAP1 POP JUMP JUMPDEST PUSH2 0x7FA DUP2 PUSH2 0x7E8 JUMP JUMPDEST DUP2 EQ PUSH2 0x804 JUMPI PUSH0 DUP1 REVERT JUMPDEST POP JUMP JUMPDEST PUSH0 DUP2 MLOAD SWAP1 POP PUSH2 0x815 DUP2 PUSH2 0x7F1 JUMP JUMPDEST SWAP3 SWAP2 POP POP JUMP JUMPDEST PUSH0 PUSH1 0x20 DUP3 DUP5 SUB SLT ISZERO PUSH2 0x830 JUMPI PUSH2 0x82F PUSH2 0x7E0 JUMP JUMPDEST JUMPDEST PUSH0 PUSH2 0x83D DUP5 DUP3 DUP6 ADD PUSH2 0x807 JUMP JUMPDEST SWAP2 POP POP SWAP3 SWAP2 POP POP JUMP JUMPDEST PUSH32 0x4E487B7100000000000000000000000000000000000000000000000000000000 PUSH0 MSTORE PUSH1 0x41 PUSH1 0x4 MSTORE PUSH1 0x24 PUSH0 REVERT JUMPDEST PUSH2 0x87C DUP2 PUSH2 0x7E8 JUMP JUMPDEST DUP3 MSTORE POP POP JUMP JUMPDEST PUSH0 PUSH1 0x20 DUP3 ADD SWAP1 POP PUSH2 0x895 PUSH0 DUP4 ADD DUP5 PUSH2 0x873 JUMP JUMPDEST SWAP3 SWAP2 POP POP JUMP JUMPDEST PUSH0 DUP1 REVERT JUMPDEST PUSH0 DUP1 REVERT JUMPDEST PUSH2 0x8AC DUP3 PUSH2 0x6A4 JUMP JUMPDEST DUP2 ADD DUP2 DUP2 LT PUSH8 0xFFFFFFFFFFFFFFFF DUP3 GT OR ISZERO PUSH2 0x8CB JUMPI PUSH2 0x8CA PUSH2 0x846 JUMP JUMPDEST JUMPDEST DUP1 PUSH1 0x40 MSTORE POP POP POP JUMP JUMPDEST PUSH0 PUSH2 0x8DD PUSH2 0x7D7 JUMP JUMPDEST SWAP1 POP PUSH2 0x8E9 DUP3 DUP3 PUSH2 0x8A3 JUMP JUMPDEST SWAP2 SWAP1 POP JUMP JUMPDEST PUSH0 PUSH8 0xFFFFFFFFFFFFFFFF DUP3 GT ISZERO PUSH2 0x908 JUMPI PUSH2 0x907 PUSH2 0x846 JUMP JUMPDEST JUMPDEST PUSH2 0x911 DUP3 PUSH2 0x6A4 JUMP JUMPDEST SWAP1 POP PUSH1 0x20 DUP2 ADD SWAP1 POP SWAP2 SWAP1 POP JUMP JUMPDEST PUSH0 PUSH2 0x930 PUSH2 0x92B DUP5 PUSH2 0x8EE JUMP JUMPDEST PUSH2 0x8D4 JUMP JUMPDEST SWAP1 POP DUP3 DUP2 MSTORE PUSH1 0x20 DUP2 ADD DUP5 DUP5 DUP5 ADD GT ISZERO PUSH2 0x94C JUMPI PUSH2 0x94B PUSH2 0x89F JUMP JUMPDEST JUMPDEST PUSH2 0x957 DUP5 DUP3 DUP6 PUSH2 0x67C JUMP JUMPDEST POP SWAP4 SWAP3 POP POP POP JUMP JUMPDEST PUSH0 DUP3 PUSH1 0x1F DUP4 ADD SLT PUSH2 0x973 JUMPI PUSH2 0x972 PUSH2 0x89B JUMP JUMPDEST JUMPDEST DUP2 MLOAD PUSH2 0x983 DUP5 DUP3 PUSH1 0x20 DUP7 ADD PUSH2 0x91E JUMP JUMPDEST SWAP2 POP POP SWAP3 SWAP2 POP POP JUMP JUMPDEST PUSH0 DUP1 PUSH0 DUP1 PUSH1 0x80 DUP6 DUP8 SUB SLT ISZERO PUSH2 0x9A4 JUMPI PUSH2 0x9A3 PUSH2 0x7E0 JUMP JUMPDEST JUMPDEST PUSH0 DUP6 ADD MLOAD PUSH8 0xFFFFFFFFFFFFFFFF DUP2 GT ISZERO PUSH2 0x9C1 JUMPI PUSH2 0x9C0 PUSH2 0x7E4 JUMP JUMPDEST JUMPDEST PUSH2 0x9CD DUP8 DUP3 DUP9 ADD PUSH2 0x95F JUMP JUMPDEST SWAP5 POP POP PUSH1 0x20 DUP6 ADD MLOAD PUSH8 0xFFFFFFFFFFFFFFFF DUP2 GT ISZERO PUSH2 0x9EE JUMPI PUSH2 0x9ED PUSH2 0x7E4 JUMP JUMPDEST JUMPDEST PUSH2 0x9FA DUP8 DUP3 DUP9 ADD PUSH2 0x95F JUMP JUMPDEST SWAP4 POP POP PUSH1 0x40 DUP6 ADD MLOAD PUSH8 0xFFFFFFFFFFFFFFFF DUP2 GT ISZERO PUSH2 0xA1B JUMPI PUSH2 0xA1A PUSH2 0x7E4 JUMP JUMPDEST JUMPDEST PUSH2 0xA27 DUP8 DUP3 DUP9 ADD PUSH2 0x95F JUMP JUMPDEST SWAP3 POP POP PUSH1 0x60 DUP6 ADD MLOAD PUSH8 0xFFFFFFFFFFFFFFFF DUP2 GT ISZERO PUSH2 0xA48 JUMPI PUSH2 0xA47 PUSH2 0x7E4 JUMP JUMPDEST JUMPDEST PUSH2 0xA54 DUP8 DUP3 DUP9 ADD PUSH2 0x95F JUMP JUMPDEST SWAP2 POP POP SWAP3 SWAP6 SWAP2 SWAP5 POP SWAP3 POP JUMP JUMPDEST PUSH0 DUP2 SWAP1 POP SWAP2 SWAP1 POP JUMP JUMPDEST PUSH2 0xA72 DUP2 PUSH2 0xA60 JUMP JUMPDEST DUP2 EQ PUSH2 0xA7C JUMPI PUSH0 DUP1 REVERT JUMPDEST POP JUMP JUMPDEST PUSH0 DUP2 MLOAD SWAP1 POP PUSH2 0xA8D DUP2 PUSH2 0xA69 JUMP JUMPDEST SWAP3 SWAP2 POP POP JUMP JUMPDEST PUSH0 DUP2 ISZERO ISZERO SWAP1 POP SWAP2 SWAP1 POP JUMP JUMPDEST PUSH2 0xAA7 DUP2 PUSH2 0xA93 JUMP JUMPDEST DUP2 EQ PUSH2 0xAB1 JUMPI PUSH0 DUP1 REVERT JUMPDEST POP JUMP JUMPDEST PUSH0 DUP2 MLOAD SWAP1 POP PUSH2 0xAC2 DUP2 PUSH2 0xA9E JUMP JUMPDEST SWAP3 SWAP2 POP POP JUMP JUMPDEST PUSH0 DUP1 PUSH0 PUSH1 0x60 DUP5 DUP7 SUB SLT ISZERO PUSH2 0xADF JUMPI PUSH2 0xADE PUSH2 0x7E0 JUMP JUMPDEST JUMPDEST PUSH0 PUSH2 0xAEC DUP7 DUP3 DUP8 ADD PUSH2 0xA7F JUMP JUMPDEST SWAP4 POP POP PUSH1 0x20 PUSH2 0xAFD DUP7 DUP3 DUP8 ADD PUSH2 0x807 JUMP JUMPDEST SWAP3 POP POP PUSH1 0x40 PUSH2 0xB0E DUP7 DUP3 DUP8 ADD PUSH2 0xAB4 JUMP JUMPDEST SWAP2 POP POP SWAP3 POP SWAP3 POP SWAP3 JUMP JUMPDEST PUSH0 PUSH1 0x20 DUP3 DUP5 SUB SLT ISZERO PUSH2 0xB2D JUMPI PUSH2 0xB2C PUSH2 0x7E0 JUMP JUMPDEST JUMPDEST PUSH0 PUSH2 0xB3A DUP5 DUP3 DUP6 ADD PUSH2 0xA7F JUMP JUMPDEST SWAP2 POP POP SWAP3 SWAP2 POP POP JUMP JUMPDEST PUSH32 0x4E487B7100000000000000000000000000000000000000000000000000000000 PUSH0 MSTORE PUSH1 0x32 PUSH1 0x4 MSTORE PUSH1 0x24 PUSH0 REVERT JUMPDEST PUSH32 0x4E487B7100000000000000000000000000000000000000000000000000000000 PUSH0 MSTORE PUSH1 0x11 PUSH1 0x4 MSTORE PUSH1 0x24 PUSH0 REVERT JUMPDEST PUSH0 PUSH2 0xBA7 DUP3 PUSH2 0x7E8 JUMP JUMPDEST SWAP2 POP PUSH32 0xFFFFFFFFFFFFFFFFFFFFFFFFFFFFFFFFFFFFFFFFFFFFFFFFFFFFFFFFFFFFFFFF DUP3 SUB PUSH2 0xBD9 JUMPI PUSH2 0xBD8 PUSH2 0xB70 JUMP JUMPDEST JUMPDEST PUSH1 0x1 DUP3 ADD SWAP1 POP SWAP2 SWAP1 POP JUMP INVALID LOG2 PUSH5 0x6970667358 0x22 SLT KECCAK256 MLOAD DUP5 SMOD BLOBHASH GASLIMIT 0xB3 SAR NOT GASPRICE 0xB1 SMOD 0xD9 PUSH9 0x4F5F7305C1970D4D7F 0x2C PUSH13 0xAA536CA09BF5D32C64736F6C63 NUMBER STOP ADDMOD XOR STOP CALLER "
				},
				"gasEstimates": {
					"creation": {
						"codeDepositCost": "619600",
						"executionCost": "infinite",
						"totalCost": "infinite"
					},
					"external": {
						"agreementContract()": "infinite",
						"checkViolations()": "infinite",
						"dataUsageContract()": "infinite",
						"logContract()": "infinite"
					}
				},
				"methodIdentifiers": {
					"agreementContract()": "da91aaaa",
					"checkViolations()": "d04cc4d8",
					"dataUsageContract()": "4bdd1d71",
					"logContract()": "cfe279b2"
				}
			},
			"storageLayout": {
				"storage": [
					{
						"astId": 184,
						"contract": "contracts/Verification.sol:Verification",
						"label": "dataUsageContract",
						"offset": 0,
						"slot": "0",
						"type": "t_contract(DataUsageSmartContract)123"
					},
					{
						"astId": 187,
						"contract": "contracts/Verification.sol:Verification",
						"label": "agreementContract",
						"offset": 0,
						"slot": "1",
						"type": "t_contract(AgreementSmartContract)51"
					},
					{
						"astId": 190,
						"contract": "contracts/Verification.sol:Verification",
						"label": "logContract",
						"offset": 0,
						"slot": "2",
						"type": "t_contract(LogSmartContract)175"
					}
				],
				"types": {
					"t_contract(AgreementSmartContract)51": {
						"encoding": "inplace",
						"label": "contract AgreementSmartContract",
						"numberOfBytes": "20"
					},
					"t_contract(DataUsageSmartContract)123": {
						"encoding": "inplace",
						"label": "contract DataUsageSmartContract",
						"numberOfBytes": "20"
					},
					"t_contract(LogSmartContract)175": {
						"encoding": "inplace",
						"label": "contract LogSmartContract",
						"numberOfBytes": "20"
					}
				}
			},
			"userdoc": {
				"kind": "user",
				"methods": {},
				"version": 1
			}
		}
	}
}