{
	"contracts/DataUsageSmartContract.sol": {
		"DataUsageSmartContract": {
			"abi": [
				{
					"inputs": [
						{
							"internalType": "uint256",
							"name": "_actorID",
							"type": "uint256"
						},
						{
							"internalType": "string",
							"name": "_serviceName",
							"type": "string"
						},
						{
							"internalType": "string",
							"name": "_servicePurpose",
							"type": "string"
						},
						{
							"internalType": "string",
							"name": "_operation",
							"type": "string"
						},
						{
							"internalType": "string[]",
							"name": "_personalData",
							"type": "string[]"
						}
					],
					"name": "addDataUsage",
					"outputs": [],
					"stateMutability": "nonpayable",
					"type": "function"
				},
				{
					"inputs": [
						{
							"internalType": "uint256",
							"name": "",
							"type": "uint256"
						}
					],
					"name": "dataUsages",
					"outputs": [
						{
							"internalType": "uint256",
							"name": "actorID",
							"type": "uint256"
						},
						{
							"internalType": "string",
							"name": "serviceName",
							"type": "string"
						},
						{
							"internalType": "string",
							"name": "servicePurpose",
							"type": "string"
						},
						{
							"internalType": "string",
							"name": "operation",
							"type": "string"
						}
					],
					"stateMutability": "view",
					"type": "function"
				},
				{
					"inputs": [
						{
							"internalType": "uint256",
							"name": "index",
							"type": "uint256"
						}
					],
					"name": "getPurposeHash",
					"outputs": [
						{
							"internalType": "bytes32",
							"name": "",
							"type": "bytes32"
						}
					],
					"stateMutability": "view",
					"type": "function"
				}
			],
			"devdoc": {
				"details": "Store and retrieve user data usage details",
				"kind": "dev",
				"methods": {
					"addDataUsage(uint256,string,string,string,string[])": {
						"details": "Store a new data usage in the contract",
						"params": {
							"_actorID": "The actor's unique identifier",
							"_operation": "The type of operation performed on the data",
							"_personalData": "The list of personal data items",
							"_serviceName": "The name of the service processing data",
							"_servicePurpose": "The purpose for processing the data"
						}
					},
					"getPurposeHash(uint256)": {
						"details": "Retrieve a hash of the service purpose and actor ID",
						"params": {
							"index": "The index of the data usage entry in the array"
						},
						"returns": {
							"_0": "The keccak256 hash of the actorID and serviceName"
						}
					}
				},
				"title": "Data Usage Smart Contract",
				"version": 1
			},
			"evm": {
				"assembly": "    /* \"contracts/DataUsageSmartContract.sol\":212:2391  contract DataUsageSmartContract {... */\n  mstore(0x40, 0x80)\n  callvalue\n  dup1\n  iszero\n  tag_1\n  jumpi\n  0x00\n  dup1\n  revert\ntag_1:\n  pop\n  dataSize(sub_0)\n  dup1\n  dataOffset(sub_0)\n  0x00\n  codecopy\n  0x00\n  return\nstop\n\nsub_0: assembly {\n        /* \"contracts/DataUsageSmartContract.sol\":212:2391  contract DataUsageSmartContract {... */\n      mstore(0x40, 0x80)\n      callvalue\n      dup1\n      iszero\n      tag_1\n      jumpi\n      0x00\n      dup1\n      revert\n    tag_1:\n      pop\n      jumpi(tag_2, lt(calldatasize, 0x04))\n      shr(0xe0, calldataload(0x00))\n      dup1\n      0xe6bb0535\n      eq\n      tag_3\n      jumpi\n      dup1\n      0xf0d6e1ec\n      eq\n      tag_4\n      jumpi\n      dup1\n      0xff042fc8\n      eq\n      tag_5\n      jumpi\n    tag_2:\n      0x00\n      dup1\n      revert\n        /* \"contracts/DataUsageSmartContract.sol\":1470:1819  function addDataUsage(uint _actorID, string memory _serviceName, string memory _servicePurpose, string memory _operation, string[] memory _personalData) public {... */\n    tag_3:\n      tag_6\n      0x04\n      dup1\n      calldatasize\n      sub\n      dup2\n      add\n      swap1\n      tag_7\n      swap2\n      swap1\n      tag_8\n      jump\t// in\n    tag_7:\n      tag_9\n      jump\t// in\n    tag_6:\n      stop\n        /* \"contracts/DataUsageSmartContract.sol\":978:1007  DataUsage[] public dataUsages */\n    tag_4:\n      tag_10\n      0x04\n      dup1\n      calldatasize\n      sub\n      dup2\n      add\n      swap1\n      tag_11\n      swap2\n      swap1\n      tag_12\n      jump\t// in\n    tag_11:\n      tag_13\n      jump\t// in\n    tag_10:\n      mload(0x40)\n      tag_14\n      swap5\n      swap4\n      swap3\n      swap2\n      swap1\n      tag_15\n      jump\t// in\n    tag_14:\n      mload(0x40)\n      dup1\n      swap2\n      sub\n      swap1\n      return\n        /* \"contracts/DataUsageSmartContract.sol\":2133:2382  function getPurposeHash(uint index) public view returns (bytes32) {... */\n    tag_5:\n      tag_16\n      0x04\n      dup1\n      calldatasize\n      sub\n      dup2\n      add\n      swap1\n      tag_17\n      swap2\n      swap1\n      tag_12\n      jump\t// in\n    tag_17:\n      tag_18\n      jump\t// in\n    tag_16:\n      mload(0x40)\n      tag_19\n      swap2\n      swap1\n      tag_20\n      jump\t// in\n    tag_19:\n      mload(0x40)\n      dup1\n      swap2\n      sub\n      swap1\n      return\n        /* \"contracts/DataUsageSmartContract.sol\":1470:1819  function addDataUsage(uint _actorID, string memory _serviceName, string memory _servicePurpose, string memory _operation, string[] memory _personalData) public {... */\n    tag_9:\n        /* \"contracts/DataUsageSmartContract.sol\":1717:1727  dataUsages */\n      0x00\n        /* \"contracts/DataUsageSmartContract.sol\":1733:1810  DataUsage(_actorID, _serviceName, _servicePurpose, _operation, _personalData) */\n      mload(0x40)\n      dup1\n      0xa0\n      add\n      0x40\n      mstore\n      dup1\n        /* \"contracts/DataUsageSmartContract.sol\":1743:1751  _actorID */\n      dup8\n        /* \"contracts/DataUsageSmartContract.sol\":1733:1810  DataUsage(_actorID, _serviceName, _servicePurpose, _operation, _personalData) */\n      dup2\n      mstore\n      0x20\n      add\n        /* \"contracts/DataUsageSmartContract.sol\":1753:1765  _serviceName */\n      dup7\n        /* \"contracts/DataUsageSmartContract.sol\":1733:1810  DataUsage(_actorID, _serviceName, _servicePurpose, _operation, _personalData) */\n      dup2\n      mstore\n      0x20\n      add\n        /* \"contracts/DataUsageSmartContract.sol\":1767:1782  _servicePurpose */\n      dup6\n        /* \"contracts/DataUsageSmartContract.sol\":1733:1810  DataUsage(_actorID, _serviceName, _servicePurpose, _operation, _personalData) */\n      dup2\n      mstore\n      0x20\n      add\n        /* \"contracts/DataUsageSmartContract.sol\":1784:1794  _operation */\n      dup5\n        /* \"contracts/DataUsageSmartContract.sol\":1733:1810  DataUsage(_actorID, _serviceName, _servicePurpose, _operation, _personalData) */\n      dup2\n      mstore\n      0x20\n      add\n        /* \"contracts/DataUsageSmartContract.sol\":1796:1809  _personalData */\n      dup4\n        /* \"contracts/DataUsageSmartContract.sol\":1733:1810  DataUsage(_actorID, _serviceName, _servicePurpose, _operation, _personalData) */\n      dup2\n      mstore\n      pop\n        /* \"contracts/DataUsageSmartContract.sol\":1717:1811  dataUsages.push(DataUsage(_actorID, _serviceName, _servicePurpose, _operation, _personalData)) */\n      swap1\n      dup1\n      0x01\n      dup2\n      sload\n      add\n      dup1\n      dup3\n      sstore\n      dup1\n      swap2\n      pop\n      pop\n      0x01\n      swap1\n      sub\n      swap1\n      0x00\n      mstore\n      keccak256(0x00, 0x20)\n      swap1\n      0x05\n      mul\n      add\n      0x00\n      swap1\n      swap2\n      swap1\n      swap2\n      swap1\n      swap2\n      pop\n      0x00\n      dup3\n      add\n      mload\n      dup2\n      0x00\n      add\n      sstore\n      0x20\n      dup3\n      add\n      mload\n      dup2\n      0x01\n      add\n      swap1\n      dup2\n      tag_23\n      swap2\n      swap1\n      tag_24\n      jump\t// in\n    tag_23:\n      pop\n      0x40\n      dup3\n      add\n      mload\n      dup2\n      0x02\n      add\n      swap1\n      dup2\n      tag_25\n      swap2\n      swap1\n      tag_24\n      jump\t// in\n    tag_25:\n      pop\n      0x60\n      dup3\n      add\n      mload\n      dup2\n      0x03\n      add\n      swap1\n      dup2\n      tag_26\n      swap2\n      swap1\n      tag_24\n      jump\t// in\n    tag_26:\n      pop\n      0x80\n      dup3\n      add\n      mload\n      dup2\n      0x04\n      add\n      swap1\n      dup1\n      mload\n      swap1\n      0x20\n      add\n      swap1\n      tag_27\n      swap3\n      swap2\n      swap1\n      tag_28\n      jump\t// in\n    tag_27:\n      pop\n      pop\n      pop\n        /* \"contracts/DataUsageSmartContract.sol\":1470:1819  function addDataUsage(uint _actorID, string memory _serviceName, string memory _servicePurpose, string memory _operation, string[] memory _personalData) public {... */\n      pop\n      pop\n      pop\n      pop\n      pop\n      jump\t// out\n        /* \"contracts/DataUsageSmartContract.sol\":978:1007  DataUsage[] public dataUsages */\n    tag_13:\n      0x00\n      dup2\n      dup2\n      sload\n      dup2\n      lt\n      tag_29\n      jumpi\n      0x00\n      dup1\n      revert\n    tag_29:\n      swap1\n      0x00\n      mstore\n      keccak256(0x00, 0x20)\n      swap1\n      0x05\n      mul\n      add\n      0x00\n      swap2\n      pop\n      swap1\n      pop\n      dup1\n      0x00\n      add\n      sload\n      swap1\n      dup1\n      0x01\n      add\n      dup1\n      sload\n      tag_31\n      swap1\n      tag_32\n      jump\t// in\n    tag_31:\n      dup1\n      0x1f\n      add\n      0x20\n      dup1\n      swap2\n      div\n      mul\n      0x20\n      add\n      mload(0x40)\n      swap1\n      dup2\n      add\n      0x40\n      mstore\n      dup1\n      swap3\n      swap2\n      swap1\n      dup2\n      dup2\n      mstore\n      0x20\n      add\n      dup3\n      dup1\n      sload\n      tag_33\n      swap1\n      tag_32\n      jump\t// in\n    tag_33:\n      dup1\n      iszero\n      tag_34\n      jumpi\n      dup1\n      0x1f\n      lt\n      tag_35\n      jumpi\n      0x0100\n      dup1\n      dup4\n      sload\n      div\n      mul\n      dup4\n      mstore\n      swap2\n      0x20\n      add\n      swap2\n      jump(tag_34)\n    tag_35:\n      dup3\n      add\n      swap2\n      swap1\n      0x00\n      mstore\n      keccak256(0x00, 0x20)\n      swap1\n    tag_36:\n      dup2\n      sload\n      dup2\n      mstore\n      swap1\n      0x01\n      add\n      swap1\n      0x20\n      add\n      dup1\n      dup4\n      gt\n      tag_36\n      jumpi\n      dup3\n      swap1\n      sub\n      0x1f\n      and\n      dup3\n      add\n      swap2\n    tag_34:\n      pop\n      pop\n      pop\n      pop\n      pop\n      swap1\n      dup1\n      0x02\n      add\n      dup1\n      sload\n      tag_37\n      swap1\n      tag_32\n      jump\t// in\n    tag_37:\n      dup1\n      0x1f\n      add\n      0x20\n      dup1\n      swap2\n      div\n      mul\n      0x20\n      add\n      mload(0x40)\n      swap1\n      dup2\n      add\n      0x40\n      mstore\n      dup1\n      swap3\n      swap2\n      swap1\n      dup2\n      dup2\n      mstore\n      0x20\n      add\n      dup3\n      dup1\n      sload\n      tag_38\n      swap1\n      tag_32\n      jump\t// in\n    tag_38:\n      dup1\n      iszero\n      tag_39\n      jumpi\n      dup1\n      0x1f\n      lt\n      tag_40\n      jumpi\n      0x0100\n      dup1\n      dup4\n      sload\n      div\n      mul\n      dup4\n      mstore\n      swap2\n      0x20\n      add\n      swap2\n      jump(tag_39)\n    tag_40:\n      dup3\n      add\n      swap2\n      swap1\n      0x00\n      mstore\n      keccak256(0x00, 0x20)\n      swap1\n    tag_41:\n      dup2\n      sload\n      dup2\n      mstore\n      swap1\n      0x01\n      add\n      swap1\n      0x20\n      add\n      dup1\n      dup4\n      gt\n      tag_41\n      jumpi\n      dup3\n      swap1\n      sub\n      0x1f\n      and\n      dup3\n      add\n      swap2\n    tag_39:\n      pop\n      pop\n      pop\n      pop\n      pop\n      swap1\n      dup1\n      0x03\n      add\n      dup1\n      sload\n      tag_42\n      swap1\n      tag_32\n      jump\t// in\n    tag_42:\n      dup1\n      0x1f\n      add\n      0x20\n      dup1\n      swap2\n      div\n      mul\n      0x20\n      add\n      mload(0x40)\n      swap1\n      dup2\n      add\n      0x40\n      mstore\n      dup1\n      swap3\n      swap2\n      swap1\n      dup2\n      dup2\n      mstore\n      0x20\n      add\n      dup3\n      dup1\n      sload\n      tag_43\n      swap1\n      tag_32\n      jump\t// in\n    tag_43:\n      dup1\n      iszero\n      tag_44\n      jumpi\n      dup1\n      0x1f\n      lt\n      tag_45\n      jumpi\n      0x0100\n      dup1\n      dup4\n      sload\n      div\n      mul\n      dup4\n      mstore\n      swap2\n      0x20\n      add\n      swap2\n      jump(tag_44)\n    tag_45:\n      dup3\n      add\n      swap2\n      swap1\n      0x00\n      mstore\n      keccak256(0x00, 0x20)\n      swap1\n    tag_46:\n      dup2\n      sload\n      dup2\n      mstore\n      swap1\n      0x01\n      add\n      swap1\n      0x20\n      add\n      dup1\n      dup4\n      gt\n      tag_46\n      jumpi\n      dup3\n      swap1\n      sub\n      0x1f\n      and\n      dup3\n      add\n      swap2\n    tag_44:\n      pop\n      pop\n      pop\n      pop\n      pop\n      swap1\n      pop\n      dup5\n      jump\t// out\n        /* \"contracts/DataUsageSmartContract.sol\":2133:2382  function getPurposeHash(uint index) public view returns (bytes32) {... */\n    tag_18:\n        /* \"contracts/DataUsageSmartContract.sol\":2190:2197  bytes32 */\n      0x00\n        /* \"contracts/DataUsageSmartContract.sol\":2316:2326  dataUsages */\n      dup1\n        /* \"contracts/DataUsageSmartContract.sol\":2327:2332  index */\n      dup3\n        /* \"contracts/DataUsageSmartContract.sol\":2316:2333  dataUsages[index] */\n      dup2\n      sload\n      dup2\n      lt\n      tag_48\n      jumpi\n      tag_49\n      tag_50\n      jump\t// in\n    tag_49:\n    tag_48:\n      swap1\n      0x00\n      mstore\n      keccak256(0x00, 0x20)\n      swap1\n      0x05\n      mul\n      add\n        /* \"contracts/DataUsageSmartContract.sol\":2316:2341  dataUsages[index].actorID */\n      0x00\n      add\n      sload\n        /* \"contracts/DataUsageSmartContract.sol\":2343:2353  dataUsages */\n      0x00\n        /* \"contracts/DataUsageSmartContract.sol\":2354:2359  index */\n      dup4\n        /* \"contracts/DataUsageSmartContract.sol\":2343:2360  dataUsages[index] */\n      dup2\n      sload\n      dup2\n      lt\n      tag_52\n      jumpi\n      tag_53\n      tag_50\n      jump\t// in\n    tag_53:\n    tag_52:\n      swap1\n      0x00\n      mstore\n      keccak256(0x00, 0x20)\n      swap1\n      0x05\n      mul\n      add\n        /* \"contracts/DataUsageSmartContract.sol\":2343:2372  dataUsages[index].serviceName */\n      0x01\n      add\n        /* \"contracts/DataUsageSmartContract.sol\":2299:2373  abi.encodePacked(dataUsages[index].actorID, dataUsages[index].serviceName) */\n      add(0x20, mload(0x40))\n      tag_55\n      swap3\n      swap2\n      swap1\n      tag_56\n      jump\t// in\n    tag_55:\n      mload(0x40)\n      0x20\n      dup2\n      dup4\n      sub\n      sub\n      dup2\n      mstore\n      swap1\n      0x40\n      mstore\n        /* \"contracts/DataUsageSmartContract.sol\":2289:2374  keccak256(abi.encodePacked(dataUsages[index].actorID, dataUsages[index].serviceName)) */\n      dup1\n      mload\n      swap1\n      0x20\n      add\n      keccak256\n        /* \"contracts/DataUsageSmartContract.sol\":2282:2374  return keccak256(abi.encodePacked(dataUsages[index].actorID, dataUsages[index].serviceName)) */\n      swap1\n      pop\n        /* \"contracts/DataUsageSmartContract.sol\":2133:2382  function getPurposeHash(uint index) public view returns (bytes32) {... */\n      swap2\n      swap1\n      pop\n      jump\t// out\n    tag_28:\n      dup3\n      dup1\n      sload\n      dup3\n      dup3\n      sstore\n      swap1\n      0x00\n      mstore\n      keccak256(0x00, 0x20)\n      swap1\n      dup2\n      add\n      swap3\n      dup3\n      iszero\n      tag_57\n      jumpi\n      swap2\n      0x20\n      mul\n      dup3\n      add\n    tag_58:\n      dup3\n      dup2\n      gt\n      iszero\n      tag_59\n      jumpi\n      dup3\n      mload\n      dup3\n      swap1\n      dup2\n      tag_60\n      swap2\n      swap1\n      tag_24\n      jump\t// in\n    tag_60:\n      pop\n      swap2\n      0x20\n      add\n      swap2\n      swap1\n      0x01\n      add\n      swap1\n      jump(tag_58)\n    tag_59:\n    tag_57:\n      pop\n      swap1\n      pop\n      tag_61\n      swap2\n      swap1\n      tag_62\n      jump\t// in\n    tag_61:\n      pop\n      swap1\n      jump\t// out\n    tag_62:\n    tag_63:\n      dup1\n      dup3\n      gt\n      iszero\n      tag_64\n      jumpi\n      0x00\n      dup2\n      dup2\n      tag_65\n      swap2\n      swap1\n      tag_66\n      jump\t// in\n    tag_65:\n      pop\n      0x01\n      add\n      jump(tag_63)\n    tag_64:\n      pop\n      swap1\n      jump\t// out\n    tag_66:\n      pop\n      dup1\n      sload\n      tag_67\n      swap1\n      tag_32\n      jump\t// in\n    tag_67:\n      0x00\n      dup3\n      sstore\n      dup1\n      0x1f\n      lt\n      tag_69\n      jumpi\n      pop\n      jump(tag_68)\n    tag_69:\n      0x1f\n      add\n      0x20\n      swap1\n      div\n      swap1\n      0x00\n      mstore\n      keccak256(0x00, 0x20)\n      swap1\n      dup2\n      add\n      swap1\n      tag_70\n      swap2\n      swap1\n      tag_71\n      jump\t// in\n    tag_70:\n    tag_68:\n      pop\n      jump\t// out\n    tag_71:\n    tag_72:\n      dup1\n      dup3\n      gt\n      iszero\n      tag_73\n      jumpi\n      0x00\n      dup2\n      0x00\n      swap1\n      sstore\n      pop\n      0x01\n      add\n      jump(tag_72)\n    tag_73:\n      pop\n      swap1\n      jump\t// out\n        /* \"#utility.yul\":7:82   */\n    tag_74:\n        /* \"#utility.yul\":40:46   */\n      0x00\n        /* \"#utility.yul\":73:75   */\n      0x40\n        /* \"#utility.yul\":67:76   */\n      mload\n        /* \"#utility.yul\":57:76   */\n      swap1\n      pop\n        /* \"#utility.yul\":7:82   */\n      swap1\n      jump\t// out\n        /* \"#utility.yul\":88:205   */\n    tag_75:\n        /* \"#utility.yul\":197:198   */\n      0x00\n        /* \"#utility.yul\":194:195   */\n      dup1\n        /* \"#utility.yul\":187:199   */\n      revert\n        /* \"#utility.yul\":211:328   */\n    tag_76:\n        /* \"#utility.yul\":320:321   */\n      0x00\n        /* \"#utility.yul\":317:318   */\n      dup1\n        /* \"#utility.yul\":310:322   */\n      revert\n        /* \"#utility.yul\":334:411   */\n    tag_77:\n        /* \"#utility.yul\":371:378   */\n      0x00\n        /* \"#utility.yul\":400:405   */\n      dup2\n        /* \"#utility.yul\":389:405   */\n      swap1\n      pop\n        /* \"#utility.yul\":334:411   */\n      swap2\n      swap1\n      pop\n      jump\t// out\n        /* \"#utility.yul\":417:539   */\n    tag_78:\n        /* \"#utility.yul\":490:514   */\n      tag_127\n        /* \"#utility.yul\":508:513   */\n      dup2\n        /* \"#utility.yul\":490:514   */\n      tag_77\n      jump\t// in\n    tag_127:\n        /* \"#utility.yul\":483:488   */\n      dup2\n        /* \"#utility.yul\":480:515   */\n      eq\n        /* \"#utility.yul\":470:533   */\n      tag_128\n      jumpi\n        /* \"#utility.yul\":529:530   */\n      0x00\n        /* \"#utility.yul\":526:527   */\n      dup1\n        /* \"#utility.yul\":519:531   */\n      revert\n        /* \"#utility.yul\":470:533   */\n    tag_128:\n        /* \"#utility.yul\":417:539   */\n      pop\n      jump\t// out\n        /* \"#utility.yul\":545:684   */\n    tag_79:\n        /* \"#utility.yul\":591:596   */\n      0x00\n        /* \"#utility.yul\":629:635   */\n      dup2\n        /* \"#utility.yul\":616:636   */\n      calldataload\n        /* \"#utility.yul\":607:636   */\n      swap1\n      pop\n        /* \"#utility.yul\":645:678   */\n      tag_130\n        /* \"#utility.yul\":672:677   */\n      dup2\n        /* \"#utility.yul\":645:678   */\n      tag_78\n      jump\t// in\n    tag_130:\n        /* \"#utility.yul\":545:684   */\n      swap3\n      swap2\n      pop\n      pop\n      jump\t// out\n        /* \"#utility.yul\":690:807   */\n    tag_80:\n        /* \"#utility.yul\":799:800   */\n      0x00\n        /* \"#utility.yul\":796:797   */\n      dup1\n        /* \"#utility.yul\":789:801   */\n      revert\n        /* \"#utility.yul\":813:930   */\n    tag_81:\n        /* \"#utility.yul\":922:923   */\n      0x00\n        /* \"#utility.yul\":919:920   */\n      dup1\n        /* \"#utility.yul\":912:924   */\n      revert\n        /* \"#utility.yul\":936:1038   */\n    tag_82:\n        /* \"#utility.yul\":977:983   */\n      0x00\n        /* \"#utility.yul\":1028:1030   */\n      0x1f\n        /* \"#utility.yul\":1024:1031   */\n      not\n        /* \"#utility.yul\":1019:1021   */\n      0x1f\n        /* \"#utility.yul\":1012:1017   */\n      dup4\n        /* \"#utility.yul\":1008:1022   */\n      add\n        /* \"#utility.yul\":1004:1032   */\n      and\n        /* \"#utility.yul\":994:1032   */\n      swap1\n      pop\n        /* \"#utility.yul\":936:1038   */\n      swap2\n      swap1\n      pop\n      jump\t// out\n        /* \"#utility.yul\":1044:1224   */\n    tag_83:\n        /* \"#utility.yul\":1092:1169   */\n      0x4e487b7100000000000000000000000000000000000000000000000000000000\n        /* \"#utility.yul\":1089:1090   */\n      0x00\n        /* \"#utility.yul\":1082:1170   */\n      mstore\n        /* \"#utility.yul\":1189:1193   */\n      0x41\n        /* \"#utility.yul\":1186:1187   */\n      0x04\n        /* \"#utility.yul\":1179:1194   */\n      mstore\n        /* \"#utility.yul\":1213:1217   */\n      0x24\n        /* \"#utility.yul\":1210:1211   */\n      0x00\n        /* \"#utility.yul\":1203:1218   */\n      revert\n        /* \"#utility.yul\":1230:1511   */\n    tag_84:\n        /* \"#utility.yul\":1313:1340   */\n      tag_136\n        /* \"#utility.yul\":1335:1339   */\n      dup3\n        /* \"#utility.yul\":1313:1340   */\n      tag_82\n      jump\t// in\n    tag_136:\n        /* \"#utility.yul\":1305:1311   */\n      dup2\n        /* \"#utility.yul\":1301:1341   */\n      add\n        /* \"#utility.yul\":1443:1449   */\n      dup2\n        /* \"#utility.yul\":1431:1441   */\n      dup2\n        /* \"#utility.yul\":1428:1450   */\n      lt\n        /* \"#utility.yul\":1407:1425   */\n      0xffffffffffffffff\n        /* \"#utility.yul\":1395:1405   */\n      dup3\n        /* \"#utility.yul\":1392:1426   */\n      gt\n        /* \"#utility.yul\":1389:1451   */\n      or\n        /* \"#utility.yul\":1386:1474   */\n      iszero\n      tag_137\n      jumpi\n        /* \"#utility.yul\":1454:1472   */\n      tag_138\n      tag_83\n      jump\t// in\n    tag_138:\n        /* \"#utility.yul\":1386:1474   */\n    tag_137:\n        /* \"#utility.yul\":1494:1504   */\n      dup1\n        /* \"#utility.yul\":1490:1492   */\n      0x40\n        /* \"#utility.yul\":1483:1505   */\n      mstore\n        /* \"#utility.yul\":1273:1511   */\n      pop\n        /* \"#utility.yul\":1230:1511   */\n      pop\n      pop\n      jump\t// out\n        /* \"#utility.yul\":1517:1646   */\n    tag_85:\n        /* \"#utility.yul\":1551:1557   */\n      0x00\n        /* \"#utility.yul\":1578:1598   */\n      tag_140\n      tag_74\n      jump\t// in\n    tag_140:\n        /* \"#utility.yul\":1568:1598   */\n      swap1\n      pop\n        /* \"#utility.yul\":1607:1640   */\n      tag_141\n        /* \"#utility.yul\":1635:1639   */\n      dup3\n        /* \"#utility.yul\":1627:1633   */\n      dup3\n        /* \"#utility.yul\":1607:1640   */\n      tag_84\n      jump\t// in\n    tag_141:\n        /* \"#utility.yul\":1517:1646   */\n      swap2\n      swap1\n      pop\n      jump\t// out\n        /* \"#utility.yul\":1652:1960   */\n    tag_86:\n        /* \"#utility.yul\":1714:1718   */\n      0x00\n        /* \"#utility.yul\":1804:1822   */\n      0xffffffffffffffff\n        /* \"#utility.yul\":1796:1802   */\n      dup3\n        /* \"#utility.yul\":1793:1823   */\n      gt\n        /* \"#utility.yul\":1790:1846   */\n      iszero\n      tag_143\n      jumpi\n        /* \"#utility.yul\":1826:1844   */\n      tag_144\n      tag_83\n      jump\t// in\n    tag_144:\n        /* \"#utility.yul\":1790:1846   */\n    tag_143:\n        /* \"#utility.yul\":1864:1893   */\n      tag_145\n        /* \"#utility.yul\":1886:1892   */\n      dup3\n        /* \"#utility.yul\":1864:1893   */\n      tag_82\n      jump\t// in\n    tag_145:\n        /* \"#utility.yul\":1856:1893   */\n      swap1\n      pop\n        /* \"#utility.yul\":1948:1952   */\n      0x20\n        /* \"#utility.yul\":1942:1946   */\n      dup2\n        /* \"#utility.yul\":1938:1953   */\n      add\n        /* \"#utility.yul\":1930:1953   */\n      swap1\n      pop\n        /* \"#utility.yul\":1652:1960   */\n      swap2\n      swap1\n      pop\n      jump\t// out\n        /* \"#utility.yul\":1966:2112   */\n    tag_87:\n        /* \"#utility.yul\":2063:2069   */\n      dup3\n        /* \"#utility.yul\":2058:2061   */\n      dup2\n        /* \"#utility.yul\":2053:2056   */\n      dup4\n        /* \"#utility.yul\":2040:2070   */\n      calldatacopy\n        /* \"#utility.yul\":2104:2105   */\n      0x00\n        /* \"#utility.yul\":2095:2101   */\n      dup4\n        /* \"#utility.yul\":2090:2093   */\n      dup4\n        /* \"#utility.yul\":2086:2102   */\n      add\n        /* \"#utility.yul\":2079:2106   */\n      mstore\n        /* \"#utility.yul\":1966:2112   */\n      pop\n      pop\n      pop\n      jump\t// out\n        /* \"#utility.yul\":2118:2543   */\n    tag_88:\n        /* \"#utility.yul\":2196:2201   */\n      0x00\n        /* \"#utility.yul\":2221:2287   */\n      tag_148\n        /* \"#utility.yul\":2237:2286   */\n      tag_149\n        /* \"#utility.yul\":2279:2285   */\n      dup5\n        /* \"#utility.yul\":2237:2286   */\n      tag_86\n      jump\t// in\n    tag_149:\n        /* \"#utility.yul\":2221:2287   */\n      tag_85\n      jump\t// in\n    tag_148:\n        /* \"#utility.yul\":2212:2287   */\n      swap1\n      pop\n        /* \"#utility.yul\":2310:2316   */\n      dup3\n        /* \"#utility.yul\":2303:2308   */\n      dup2\n        /* \"#utility.yul\":2296:2317   */\n      mstore\n        /* \"#utility.yul\":2348:2352   */\n      0x20\n        /* \"#utility.yul\":2341:2346   */\n      dup2\n        /* \"#utility.yul\":2337:2353   */\n      add\n        /* \"#utility.yul\":2386:2389   */\n      dup5\n        /* \"#utility.yul\":2377:2383   */\n      dup5\n        /* \"#utility.yul\":2372:2375   */\n      dup5\n        /* \"#utility.yul\":2368:2384   */\n      add\n        /* \"#utility.yul\":2365:2390   */\n      gt\n        /* \"#utility.yul\":2362:2474   */\n      iszero\n      tag_150\n      jumpi\n        /* \"#utility.yul\":2393:2472   */\n      tag_151\n      tag_81\n      jump\t// in\n    tag_151:\n        /* \"#utility.yul\":2362:2474   */\n    tag_150:\n        /* \"#utility.yul\":2483:2537   */\n      tag_152\n        /* \"#utility.yul\":2530:2536   */\n      dup5\n        /* \"#utility.yul\":2525:2528   */\n      dup3\n        /* \"#utility.yul\":2520:2523   */\n      dup6\n        /* \"#utility.yul\":2483:2537   */\n      tag_87\n      jump\t// in\n    tag_152:\n        /* \"#utility.yul\":2202:2543   */\n      pop\n        /* \"#utility.yul\":2118:2543   */\n      swap4\n      swap3\n      pop\n      pop\n      pop\n      jump\t// out\n        /* \"#utility.yul\":2563:2903   */\n    tag_89:\n        /* \"#utility.yul\":2619:2624   */\n      0x00\n        /* \"#utility.yul\":2668:2671   */\n      dup3\n        /* \"#utility.yul\":2661:2665   */\n      0x1f\n        /* \"#utility.yul\":2653:2659   */\n      dup4\n        /* \"#utility.yul\":2649:2666   */\n      add\n        /* \"#utility.yul\":2645:2672   */\n      slt\n        /* \"#utility.yul\":2635:2757   */\n      tag_154\n      jumpi\n        /* \"#utility.yul\":2676:2755   */\n      tag_155\n      tag_80\n      jump\t// in\n    tag_155:\n        /* \"#utility.yul\":2635:2757   */\n    tag_154:\n        /* \"#utility.yul\":2793:2799   */\n      dup2\n        /* \"#utility.yul\":2780:2800   */\n      calldataload\n        /* \"#utility.yul\":2818:2897   */\n      tag_156\n        /* \"#utility.yul\":2893:2896   */\n      dup5\n        /* \"#utility.yul\":2885:2891   */\n      dup3\n        /* \"#utility.yul\":2878:2882   */\n      0x20\n        /* \"#utility.yul\":2870:2876   */\n      dup7\n        /* \"#utility.yul\":2866:2883   */\n      add\n        /* \"#utility.yul\":2818:2897   */\n      tag_88\n      jump\t// in\n    tag_156:\n        /* \"#utility.yul\":2809:2897   */\n      swap2\n      pop\n        /* \"#utility.yul\":2625:2903   */\n      pop\n        /* \"#utility.yul\":2563:2903   */\n      swap3\n      swap2\n      pop\n      pop\n      jump\t// out\n        /* \"#utility.yul\":2909:3230   */\n    tag_90:\n        /* \"#utility.yul\":2996:3000   */\n      0x00\n        /* \"#utility.yul\":3086:3104   */\n      0xffffffffffffffff\n        /* \"#utility.yul\":3078:3084   */\n      dup3\n        /* \"#utility.yul\":3075:3105   */\n      gt\n        /* \"#utility.yul\":3072:3128   */\n      iszero\n      tag_158\n      jumpi\n        /* \"#utility.yul\":3108:3126   */\n      tag_159\n      tag_83\n      jump\t// in\n    tag_159:\n        /* \"#utility.yul\":3072:3128   */\n    tag_158:\n        /* \"#utility.yul\":3158:3162   */\n      0x20\n        /* \"#utility.yul\":3150:3156   */\n      dup3\n        /* \"#utility.yul\":3146:3163   */\n      mul\n        /* \"#utility.yul\":3138:3163   */\n      swap1\n      pop\n        /* \"#utility.yul\":3218:3222   */\n      0x20\n        /* \"#utility.yul\":3212:3216   */\n      dup2\n        /* \"#utility.yul\":3208:3223   */\n      add\n        /* \"#utility.yul\":3200:3223   */\n      swap1\n      pop\n        /* \"#utility.yul\":2909:3230   */\n      swap2\n      swap1\n      pop\n      jump\t// out\n        /* \"#utility.yul\":3236:3353   */\n    tag_91:\n        /* \"#utility.yul\":3345:3346   */\n      0x00\n        /* \"#utility.yul\":3342:3343   */\n      dup1\n        /* \"#utility.yul\":3335:3347   */\n      revert\n        /* \"#utility.yul\":3375:4320   */\n    tag_92:\n        /* \"#utility.yul\":3481:3486   */\n      0x00\n        /* \"#utility.yul\":3506:3597   */\n      tag_162\n        /* \"#utility.yul\":3522:3596   */\n      tag_163\n        /* \"#utility.yul\":3589:3595   */\n      dup5\n        /* \"#utility.yul\":3522:3596   */\n      tag_90\n      jump\t// in\n    tag_163:\n        /* \"#utility.yul\":3506:3597   */\n      tag_85\n      jump\t// in\n    tag_162:\n        /* \"#utility.yul\":3497:3597   */\n      swap1\n      pop\n        /* \"#utility.yul\":3617:3622   */\n      dup1\n        /* \"#utility.yul\":3646:3652   */\n      dup4\n        /* \"#utility.yul\":3639:3644   */\n      dup3\n        /* \"#utility.yul\":3632:3653   */\n      mstore\n        /* \"#utility.yul\":3680:3684   */\n      0x20\n        /* \"#utility.yul\":3673:3678   */\n      dup3\n        /* \"#utility.yul\":3669:3685   */\n      add\n        /* \"#utility.yul\":3662:3685   */\n      swap1\n      pop\n        /* \"#utility.yul\":3733:3737   */\n      0x20\n        /* \"#utility.yul\":3725:3731   */\n      dup5\n        /* \"#utility.yul\":3721:3738   */\n      mul\n        /* \"#utility.yul\":3713:3719   */\n      dup4\n        /* \"#utility.yul\":3709:3739   */\n      add\n        /* \"#utility.yul\":3762:3765   */\n      dup6\n        /* \"#utility.yul\":3754:3760   */\n      dup2\n        /* \"#utility.yul\":3751:3766   */\n      gt\n        /* \"#utility.yul\":3748:3870   */\n      iszero\n      tag_164\n      jumpi\n        /* \"#utility.yul\":3781:3860   */\n      tag_165\n      tag_91\n      jump\t// in\n    tag_165:\n        /* \"#utility.yul\":3748:3870   */\n    tag_164:\n        /* \"#utility.yul\":3896:3902   */\n      dup4\n        /* \"#utility.yul\":3879:4314   */\n    tag_166:\n        /* \"#utility.yul\":3913:3919   */\n      dup2\n        /* \"#utility.yul\":3908:3911   */\n      dup2\n        /* \"#utility.yul\":3905:3920   */\n      lt\n        /* \"#utility.yul\":3879:4314   */\n      iszero\n      tag_168\n      jumpi\n        /* \"#utility.yul\":4002:4005   */\n      dup1\n        /* \"#utility.yul\":3989:4006   */\n      calldataload\n        /* \"#utility.yul\":4038:4056   */\n      0xffffffffffffffff\n        /* \"#utility.yul\":4025:4036   */\n      dup2\n        /* \"#utility.yul\":4022:4057   */\n      gt\n        /* \"#utility.yul\":4019:4141   */\n      iszero\n      tag_169\n      jumpi\n        /* \"#utility.yul\":4060:4139   */\n      tag_170\n      tag_80\n      jump\t// in\n    tag_170:\n        /* \"#utility.yul\":4019:4141   */\n    tag_169:\n        /* \"#utility.yul\":4184:4195   */\n      dup1\n        /* \"#utility.yul\":4176:4182   */\n      dup7\n        /* \"#utility.yul\":4172:4196   */\n      add\n        /* \"#utility.yul\":4222:4269   */\n      tag_171\n        /* \"#utility.yul\":4265:4268   */\n      dup10\n        /* \"#utility.yul\":4253:4263   */\n      dup3\n        /* \"#utility.yul\":4222:4269   */\n      tag_89\n      jump\t// in\n    tag_171:\n        /* \"#utility.yul\":4217:4220   */\n      dup6\n        /* \"#utility.yul\":4210:4270   */\n      mstore\n        /* \"#utility.yul\":4299:4303   */\n      0x20\n        /* \"#utility.yul\":4294:4297   */\n      dup6\n        /* \"#utility.yul\":4290:4304   */\n      add\n        /* \"#utility.yul\":4283:4304   */\n      swap5\n      pop\n        /* \"#utility.yul\":3955:4314   */\n      pop\n      pop\n        /* \"#utility.yul\":3939:3943   */\n      0x20\n        /* \"#utility.yul\":3934:3937   */\n      dup2\n        /* \"#utility.yul\":3930:3944   */\n      add\n        /* \"#utility.yul\":3923:3944   */\n      swap1\n      pop\n        /* \"#utility.yul\":3879:4314   */\n      jump(tag_166)\n    tag_168:\n        /* \"#utility.yul\":3883:3904   */\n      pop\n        /* \"#utility.yul\":3487:4320   */\n      pop\n      pop\n        /* \"#utility.yul\":3375:4320   */\n      swap4\n      swap3\n      pop\n      pop\n      pop\n      jump\t// out\n        /* \"#utility.yul\":4342:4732   */\n    tag_93:\n        /* \"#utility.yul\":4423:4428   */\n      0x00\n        /* \"#utility.yul\":4472:4475   */\n      dup3\n        /* \"#utility.yul\":4465:4469   */\n      0x1f\n        /* \"#utility.yul\":4457:4463   */\n      dup4\n        /* \"#utility.yul\":4453:4470   */\n      add\n        /* \"#utility.yul\":4449:4476   */\n      slt\n        /* \"#utility.yul\":4439:4561   */\n      tag_173\n      jumpi\n        /* \"#utility.yul\":4480:4559   */\n      tag_174\n      tag_80\n      jump\t// in\n    tag_174:\n        /* \"#utility.yul\":4439:4561   */\n    tag_173:\n        /* \"#utility.yul\":4597:4603   */\n      dup2\n        /* \"#utility.yul\":4584:4604   */\n      calldataload\n        /* \"#utility.yul\":4622:4726   */\n      tag_175\n        /* \"#utility.yul\":4722:4725   */\n      dup5\n        /* \"#utility.yul\":4714:4720   */\n      dup3\n        /* \"#utility.yul\":4707:4711   */\n      0x20\n        /* \"#utility.yul\":4699:4705   */\n      dup7\n        /* \"#utility.yul\":4695:4712   */\n      add\n        /* \"#utility.yul\":4622:4726   */\n      tag_92\n      jump\t// in\n    tag_175:\n        /* \"#utility.yul\":4613:4726   */\n      swap2\n      pop\n        /* \"#utility.yul\":4429:4732   */\n      pop\n        /* \"#utility.yul\":4342:4732   */\n      swap3\n      swap2\n      pop\n      pop\n      jump\t// out\n        /* \"#utility.yul\":4738:6419   */\n    tag_8:\n        /* \"#utility.yul\":4898:4904   */\n      0x00\n        /* \"#utility.yul\":4906:4912   */\n      dup1\n        /* \"#utility.yul\":4914:4920   */\n      0x00\n        /* \"#utility.yul\":4922:4928   */\n      dup1\n        /* \"#utility.yul\":4930:4936   */\n      0x00\n        /* \"#utility.yul\":4979:4982   */\n      0xa0\n        /* \"#utility.yul\":4967:4976   */\n      dup7\n        /* \"#utility.yul\":4958:4965   */\n      dup9\n        /* \"#utility.yul\":4954:4977   */\n      sub\n        /* \"#utility.yul\":4950:4983   */\n      slt\n        /* \"#utility.yul\":4947:5067   */\n      iszero\n      tag_177\n      jumpi\n        /* \"#utility.yul\":4986:5065   */\n      tag_178\n      tag_75\n      jump\t// in\n    tag_178:\n        /* \"#utility.yul\":4947:5067   */\n    tag_177:\n        /* \"#utility.yul\":5106:5107   */\n      0x00\n        /* \"#utility.yul\":5131:5184   */\n      tag_179\n        /* \"#utility.yul\":5176:5183   */\n      dup9\n        /* \"#utility.yul\":5167:5173   */\n      dup3\n        /* \"#utility.yul\":5156:5165   */\n      dup10\n        /* \"#utility.yul\":5152:5174   */\n      add\n        /* \"#utility.yul\":5131:5184   */\n      tag_79\n      jump\t// in\n    tag_179:\n        /* \"#utility.yul\":5121:5184   */\n      swap6\n      pop\n        /* \"#utility.yul\":5077:5194   */\n      pop\n        /* \"#utility.yul\":5261:5263   */\n      0x20\n        /* \"#utility.yul\":5250:5259   */\n      dup7\n        /* \"#utility.yul\":5246:5264   */\n      add\n        /* \"#utility.yul\":5233:5265   */\n      calldataload\n        /* \"#utility.yul\":5292:5310   */\n      0xffffffffffffffff\n        /* \"#utility.yul\":5284:5290   */\n      dup2\n        /* \"#utility.yul\":5281:5311   */\n      gt\n        /* \"#utility.yul\":5278:5395   */\n      iszero\n      tag_180\n      jumpi\n        /* \"#utility.yul\":5314:5393   */\n      tag_181\n      tag_76\n      jump\t// in\n    tag_181:\n        /* \"#utility.yul\":5278:5395   */\n    tag_180:\n        /* \"#utility.yul\":5419:5482   */\n      tag_182\n        /* \"#utility.yul\":5474:5481   */\n      dup9\n        /* \"#utility.yul\":5465:5471   */\n      dup3\n        /* \"#utility.yul\":5454:5463   */\n      dup10\n        /* \"#utility.yul\":5450:5472   */\n      add\n        /* \"#utility.yul\":5419:5482   */\n      tag_89\n      jump\t// in\n    tag_182:\n        /* \"#utility.yul\":5409:5482   */\n      swap5\n      pop\n        /* \"#utility.yul\":5204:5492   */\n      pop\n        /* \"#utility.yul\":5559:5561   */\n      0x40\n        /* \"#utility.yul\":5548:5557   */\n      dup7\n        /* \"#utility.yul\":5544:5562   */\n      add\n        /* \"#utility.yul\":5531:5563   */\n      calldataload\n        /* \"#utility.yul\":5590:5608   */\n      0xffffffffffffffff\n        /* \"#utility.yul\":5582:5588   */\n      dup2\n        /* \"#utility.yul\":5579:5609   */\n      gt\n        /* \"#utility.yul\":5576:5693   */\n      iszero\n      tag_183\n      jumpi\n        /* \"#utility.yul\":5612:5691   */\n      tag_184\n      tag_76\n      jump\t// in\n    tag_184:\n        /* \"#utility.yul\":5576:5693   */\n    tag_183:\n        /* \"#utility.yul\":5717:5780   */\n      tag_185\n        /* \"#utility.yul\":5772:5779   */\n      dup9\n        /* \"#utility.yul\":5763:5769   */\n      dup3\n        /* \"#utility.yul\":5752:5761   */\n      dup10\n        /* \"#utility.yul\":5748:5770   */\n      add\n        /* \"#utility.yul\":5717:5780   */\n      tag_89\n      jump\t// in\n    tag_185:\n        /* \"#utility.yul\":5707:5780   */\n      swap4\n      pop\n        /* \"#utility.yul\":5502:5790   */\n      pop\n        /* \"#utility.yul\":5857:5859   */\n      0x60\n        /* \"#utility.yul\":5846:5855   */\n      dup7\n        /* \"#utility.yul\":5842:5860   */\n      add\n        /* \"#utility.yul\":5829:5861   */\n      calldataload\n        /* \"#utility.yul\":5888:5906   */\n      0xffffffffffffffff\n        /* \"#utility.yul\":5880:5886   */\n      dup2\n        /* \"#utility.yul\":5877:5907   */\n      gt\n        /* \"#utility.yul\":5874:5991   */\n      iszero\n      tag_186\n      jumpi\n        /* \"#utility.yul\":5910:5989   */\n      tag_187\n      tag_76\n      jump\t// in\n    tag_187:\n        /* \"#utility.yul\":5874:5991   */\n    tag_186:\n        /* \"#utility.yul\":6015:6078   */\n      tag_188\n        /* \"#utility.yul\":6070:6077   */\n      dup9\n        /* \"#utility.yul\":6061:6067   */\n      dup3\n        /* \"#utility.yul\":6050:6059   */\n      dup10\n        /* \"#utility.yul\":6046:6068   */\n      add\n        /* \"#utility.yul\":6015:6078   */\n      tag_89\n      jump\t// in\n    tag_188:\n        /* \"#utility.yul\":6005:6078   */\n      swap3\n      pop\n        /* \"#utility.yul\":5800:6088   */\n      pop\n        /* \"#utility.yul\":6155:6158   */\n      0x80\n        /* \"#utility.yul\":6144:6153   */\n      dup7\n        /* \"#utility.yul\":6140:6159   */\n      add\n        /* \"#utility.yul\":6127:6160   */\n      calldataload\n        /* \"#utility.yul\":6187:6205   */\n      0xffffffffffffffff\n        /* \"#utility.yul\":6179:6185   */\n      dup2\n        /* \"#utility.yul\":6176:6206   */\n      gt\n        /* \"#utility.yul\":6173:6290   */\n      iszero\n      tag_189\n      jumpi\n        /* \"#utility.yul\":6209:6288   */\n      tag_190\n      tag_76\n      jump\t// in\n    tag_190:\n        /* \"#utility.yul\":6173:6290   */\n    tag_189:\n        /* \"#utility.yul\":6314:6402   */\n      tag_191\n        /* \"#utility.yul\":6394:6401   */\n      dup9\n        /* \"#utility.yul\":6385:6391   */\n      dup3\n        /* \"#utility.yul\":6374:6383   */\n      dup10\n        /* \"#utility.yul\":6370:6392   */\n      add\n        /* \"#utility.yul\":6314:6402   */\n      tag_93\n      jump\t// in\n    tag_191:\n        /* \"#utility.yul\":6304:6402   */\n      swap2\n      pop\n        /* \"#utility.yul\":6098:6412   */\n      pop\n        /* \"#utility.yul\":4738:6419   */\n      swap3\n      swap6\n      pop\n      swap3\n      swap6\n      swap1\n      swap4\n      pop\n      jump\t// out\n        /* \"#utility.yul\":6425:6754   */\n    tag_12:\n        /* \"#utility.yul\":6484:6490   */\n      0x00\n        /* \"#utility.yul\":6533:6535   */\n      0x20\n        /* \"#utility.yul\":6521:6530   */\n      dup3\n        /* \"#utility.yul\":6512:6519   */\n      dup5\n        /* \"#utility.yul\":6508:6531   */\n      sub\n        /* \"#utility.yul\":6504:6536   */\n      slt\n        /* \"#utility.yul\":6501:6620   */\n      iszero\n      tag_193\n      jumpi\n        /* \"#utility.yul\":6539:6618   */\n      tag_194\n      tag_75\n      jump\t// in\n    tag_194:\n        /* \"#utility.yul\":6501:6620   */\n    tag_193:\n        /* \"#utility.yul\":6659:6660   */\n      0x00\n        /* \"#utility.yul\":6684:6737   */\n      tag_195\n        /* \"#utility.yul\":6729:6736   */\n      dup5\n        /* \"#utility.yul\":6720:6726   */\n      dup3\n        /* \"#utility.yul\":6709:6718   */\n      dup6\n        /* \"#utility.yul\":6705:6727   */\n      add\n        /* \"#utility.yul\":6684:6737   */\n      tag_79\n      jump\t// in\n    tag_195:\n        /* \"#utility.yul\":6674:6737   */\n      swap2\n      pop\n        /* \"#utility.yul\":6630:6747   */\n      pop\n        /* \"#utility.yul\":6425:6754   */\n      swap3\n      swap2\n      pop\n      pop\n      jump\t// out\n        /* \"#utility.yul\":6760:6878   */\n    tag_94:\n        /* \"#utility.yul\":6847:6871   */\n      tag_197\n        /* \"#utility.yul\":6865:6870   */\n      dup2\n        /* \"#utility.yul\":6847:6871   */\n      tag_77\n      jump\t// in\n    tag_197:\n        /* \"#utility.yul\":6842:6845   */\n      dup3\n        /* \"#utility.yul\":6835:6872   */\n      mstore\n        /* \"#utility.yul\":6760:6878   */\n      pop\n      pop\n      jump\t// out\n        /* \"#utility.yul\":6884:6983   */\n    tag_95:\n        /* \"#utility.yul\":6936:6942   */\n      0x00\n        /* \"#utility.yul\":6970:6975   */\n      dup2\n        /* \"#utility.yul\":6964:6976   */\n      mload\n        /* \"#utility.yul\":6954:6976   */\n      swap1\n      pop\n        /* \"#utility.yul\":6884:6983   */\n      swap2\n      swap1\n      pop\n      jump\t// out\n        /* \"#utility.yul\":6989:7158   */\n    tag_96:\n        /* \"#utility.yul\":7073:7084   */\n      0x00\n        /* \"#utility.yul\":7107:7113   */\n      dup3\n        /* \"#utility.yul\":7102:7105   */\n      dup3\n        /* \"#utility.yul\":7095:7114   */\n      mstore\n        /* \"#utility.yul\":7147:7151   */\n      0x20\n        /* \"#utility.yul\":7142:7145   */\n      dup3\n        /* \"#utility.yul\":7138:7152   */\n      add\n        /* \"#utility.yul\":7123:7152   */\n      swap1\n      pop\n        /* \"#utility.yul\":6989:7158   */\n      swap3\n      swap2\n      pop\n      pop\n      jump\t// out\n        /* \"#utility.yul\":7164:7410   */\n    tag_97:\n        /* \"#utility.yul\":7245:7246   */\n      0x00\n        /* \"#utility.yul\":7255:7368   */\n    tag_201:\n        /* \"#utility.yul\":7269:7275   */\n      dup4\n        /* \"#utility.yul\":7266:7267   */\n      dup2\n        /* \"#utility.yul\":7263:7276   */\n      lt\n        /* \"#utility.yul\":7255:7368   */\n      iszero\n      tag_203\n      jumpi\n        /* \"#utility.yul\":7354:7355   */\n      dup1\n        /* \"#utility.yul\":7349:7352   */\n      dup3\n        /* \"#utility.yul\":7345:7356   */\n      add\n        /* \"#utility.yul\":7339:7357   */\n      mload\n        /* \"#utility.yul\":7335:7336   */\n      dup2\n        /* \"#utility.yul\":7330:7333   */\n      dup5\n        /* \"#utility.yul\":7326:7337   */\n      add\n        /* \"#utility.yul\":7319:7358   */\n      mstore\n        /* \"#utility.yul\":7291:7293   */\n      0x20\n        /* \"#utility.yul\":7288:7289   */\n      dup2\n        /* \"#utility.yul\":7284:7294   */\n      add\n        /* \"#utility.yul\":7279:7294   */\n      swap1\n      pop\n        /* \"#utility.yul\":7255:7368   */\n      jump(tag_201)\n    tag_203:\n        /* \"#utility.yul\":7402:7403   */\n      0x00\n        /* \"#utility.yul\":7393:7399   */\n      dup5\n        /* \"#utility.yul\":7388:7391   */\n      dup5\n        /* \"#utility.yul\":7384:7400   */\n      add\n        /* \"#utility.yul\":7377:7404   */\n      mstore\n        /* \"#utility.yul\":7226:7410   */\n      pop\n        /* \"#utility.yul\":7164:7410   */\n      pop\n      pop\n      pop\n      jump\t// out\n        /* \"#utility.yul\":7416:7793   */\n    tag_98:\n        /* \"#utility.yul\":7504:7507   */\n      0x00\n        /* \"#utility.yul\":7532:7571   */\n      tag_205\n        /* \"#utility.yul\":7565:7570   */\n      dup3\n        /* \"#utility.yul\":7532:7571   */\n      tag_95\n      jump\t// in\n    tag_205:\n        /* \"#utility.yul\":7587:7658   */\n      tag_206\n        /* \"#utility.yul\":7651:7657   */\n      dup2\n        /* \"#utility.yul\":7646:7649   */\n      dup6\n        /* \"#utility.yul\":7587:7658   */\n      tag_96\n      jump\t// in\n    tag_206:\n        /* \"#utility.yul\":7580:7658   */\n      swap4\n      pop\n        /* \"#utility.yul\":7667:7732   */\n      tag_207\n        /* \"#utility.yul\":7725:7731   */\n      dup2\n        /* \"#utility.yul\":7720:7723   */\n      dup6\n        /* \"#utility.yul\":7713:7717   */\n      0x20\n        /* \"#utility.yul\":7706:7711   */\n      dup7\n        /* \"#utility.yul\":7702:7718   */\n      add\n        /* \"#utility.yul\":7667:7732   */\n      tag_97\n      jump\t// in\n    tag_207:\n        /* \"#utility.yul\":7757:7786   */\n      tag_208\n        /* \"#utility.yul\":7779:7785   */\n      dup2\n        /* \"#utility.yul\":7757:7786   */\n      tag_82\n      jump\t// in\n    tag_208:\n        /* \"#utility.yul\":7752:7755   */\n      dup5\n        /* \"#utility.yul\":7748:7787   */\n      add\n        /* \"#utility.yul\":7741:7787   */\n      swap2\n      pop\n        /* \"#utility.yul\":7508:7793   */\n      pop\n        /* \"#utility.yul\":7416:7793   */\n      swap3\n      swap2\n      pop\n      pop\n      jump\t// out\n        /* \"#utility.yul\":7799:8625   */\n    tag_15:\n        /* \"#utility.yul\":8036:8040   */\n      0x00\n        /* \"#utility.yul\":8074:8077   */\n      0x80\n        /* \"#utility.yul\":8063:8072   */\n      dup3\n        /* \"#utility.yul\":8059:8078   */\n      add\n        /* \"#utility.yul\":8051:8078   */\n      swap1\n      pop\n        /* \"#utility.yul\":8088:8159   */\n      tag_210\n        /* \"#utility.yul\":8156:8157   */\n      0x00\n        /* \"#utility.yul\":8145:8154   */\n      dup4\n        /* \"#utility.yul\":8141:8158   */\n      add\n        /* \"#utility.yul\":8132:8138   */\n      dup8\n        /* \"#utility.yul\":8088:8159   */\n      tag_94\n      jump\t// in\n    tag_210:\n        /* \"#utility.yul\":8206:8215   */\n      dup2\n        /* \"#utility.yul\":8200:8204   */\n      dup2\n        /* \"#utility.yul\":8196:8216   */\n      sub\n        /* \"#utility.yul\":8191:8193   */\n      0x20\n        /* \"#utility.yul\":8180:8189   */\n      dup4\n        /* \"#utility.yul\":8176:8194   */\n      add\n        /* \"#utility.yul\":8169:8217   */\n      mstore\n        /* \"#utility.yul\":8234:8312   */\n      tag_211\n        /* \"#utility.yul\":8307:8311   */\n      dup2\n        /* \"#utility.yul\":8298:8304   */\n      dup7\n        /* \"#utility.yul\":8234:8312   */\n      tag_98\n      jump\t// in\n    tag_211:\n        /* \"#utility.yul\":8226:8312   */\n      swap1\n      pop\n        /* \"#utility.yul\":8359:8368   */\n      dup2\n        /* \"#utility.yul\":8353:8357   */\n      dup2\n        /* \"#utility.yul\":8349:8369   */\n      sub\n        /* \"#utility.yul\":8344:8346   */\n      0x40\n        /* \"#utility.yul\":8333:8342   */\n      dup4\n        /* \"#utility.yul\":8329:8347   */\n      add\n        /* \"#utility.yul\":8322:8370   */\n      mstore\n        /* \"#utility.yul\":8387:8465   */\n      tag_212\n        /* \"#utility.yul\":8460:8464   */\n      dup2\n        /* \"#utility.yul\":8451:8457   */\n      dup6\n        /* \"#utility.yul\":8387:8465   */\n      tag_98\n      jump\t// in\n    tag_212:\n        /* \"#utility.yul\":8379:8465   */\n      swap1\n      pop\n        /* \"#utility.yul\":8512:8521   */\n      dup2\n        /* \"#utility.yul\":8506:8510   */\n      dup2\n        /* \"#utility.yul\":8502:8522   */\n      sub\n        /* \"#utility.yul\":8497:8499   */\n      0x60\n        /* \"#utility.yul\":8486:8495   */\n      dup4\n        /* \"#utility.yul\":8482:8500   */\n      add\n        /* \"#utility.yul\":8475:8523   */\n      mstore\n        /* \"#utility.yul\":8540:8618   */\n      tag_213\n        /* \"#utility.yul\":8613:8617   */\n      dup2\n        /* \"#utility.yul\":8604:8610   */\n      dup5\n        /* \"#utility.yul\":8540:8618   */\n      tag_98\n      jump\t// in\n    tag_213:\n        /* \"#utility.yul\":8532:8618   */\n      swap1\n      pop\n        /* \"#utility.yul\":7799:8625   */\n      swap6\n      swap5\n      pop\n      pop\n      pop\n      pop\n      pop\n      jump\t// out\n        /* \"#utility.yul\":8631:8708   */\n    tag_99:\n        /* \"#utility.yul\":8668:8675   */\n      0x00\n        /* \"#utility.yul\":8697:8702   */\n      dup2\n        /* \"#utility.yul\":8686:8702   */\n      swap1\n      pop\n        /* \"#utility.yul\":8631:8708   */\n      swap2\n      swap1\n      pop\n      jump\t// out\n        /* \"#utility.yul\":8714:8832   */\n    tag_100:\n        /* \"#utility.yul\":8801:8825   */\n      tag_216\n        /* \"#utility.yul\":8819:8824   */\n      dup2\n        /* \"#utility.yul\":8801:8825   */\n      tag_99\n      jump\t// in\n    tag_216:\n        /* \"#utility.yul\":8796:8799   */\n      dup3\n        /* \"#utility.yul\":8789:8826   */\n      mstore\n        /* \"#utility.yul\":8714:8832   */\n      pop\n      pop\n      jump\t// out\n        /* \"#utility.yul\":8838:9060   */\n    tag_20:\n        /* \"#utility.yul\":8931:8935   */\n      0x00\n        /* \"#utility.yul\":8969:8971   */\n      0x20\n        /* \"#utility.yul\":8958:8967   */\n      dup3\n        /* \"#utility.yul\":8954:8972   */\n      add\n        /* \"#utility.yul\":8946:8972   */\n      swap1\n      pop\n        /* \"#utility.yul\":8982:9053   */\n      tag_218\n        /* \"#utility.yul\":9050:9051   */\n      0x00\n        /* \"#utility.yul\":9039:9048   */\n      dup4\n        /* \"#utility.yul\":9035:9052   */\n      add\n        /* \"#utility.yul\":9026:9032   */\n      dup5\n        /* \"#utility.yul\":8982:9053   */\n      tag_100\n      jump\t// in\n    tag_218:\n        /* \"#utility.yul\":8838:9060   */\n      swap3\n      swap2\n      pop\n      pop\n      jump\t// out\n        /* \"#utility.yul\":9066:9246   */\n    tag_101:\n        /* \"#utility.yul\":9114:9191   */\n      0x4e487b7100000000000000000000000000000000000000000000000000000000\n        /* \"#utility.yul\":9111:9112   */\n      0x00\n        /* \"#utility.yul\":9104:9192   */\n      mstore\n        /* \"#utility.yul\":9211:9215   */\n      0x22\n        /* \"#utility.yul\":9208:9209   */\n      0x04\n        /* \"#utility.yul\":9201:9216   */\n      mstore\n        /* \"#utility.yul\":9235:9239   */\n      0x24\n        /* \"#utility.yul\":9232:9233   */\n      0x00\n        /* \"#utility.yul\":9225:9240   */\n      revert\n        /* \"#utility.yul\":9252:9572   */\n    tag_32:\n        /* \"#utility.yul\":9296:9302   */\n      0x00\n        /* \"#utility.yul\":9333:9334   */\n      0x02\n        /* \"#utility.yul\":9327:9331   */\n      dup3\n        /* \"#utility.yul\":9323:9335   */\n      div\n        /* \"#utility.yul\":9313:9335   */\n      swap1\n      pop\n        /* \"#utility.yul\":9380:9381   */\n      0x01\n        /* \"#utility.yul\":9374:9378   */\n      dup3\n        /* \"#utility.yul\":9370:9382   */\n      and\n        /* \"#utility.yul\":9401:9419   */\n      dup1\n        /* \"#utility.yul\":9391:9472   */\n      tag_221\n      jumpi\n        /* \"#utility.yul\":9457:9461   */\n      0x7f\n        /* \"#utility.yul\":9449:9455   */\n      dup3\n        /* \"#utility.yul\":9445:9462   */\n      and\n        /* \"#utility.yul\":9435:9462   */\n      swap2\n      pop\n        /* \"#utility.yul\":9391:9472   */\n    tag_221:\n        /* \"#utility.yul\":9519:9521   */\n      0x20\n        /* \"#utility.yul\":9511:9517   */\n      dup3\n        /* \"#utility.yul\":9508:9522   */\n      lt\n        /* \"#utility.yul\":9488:9506   */\n      dup2\n        /* \"#utility.yul\":9485:9523   */\n      sub\n        /* \"#utility.yul\":9482:9566   */\n      tag_222\n      jumpi\n        /* \"#utility.yul\":9538:9556   */\n      tag_223\n      tag_101\n      jump\t// in\n    tag_223:\n        /* \"#utility.yul\":9482:9566   */\n    tag_222:\n        /* \"#utility.yul\":9303:9572   */\n      pop\n        /* \"#utility.yul\":9252:9572   */\n      swap2\n      swap1\n      pop\n      jump\t// out\n        /* \"#utility.yul\":9578:9719   */\n    tag_102:\n        /* \"#utility.yul\":9627:9631   */\n      0x00\n        /* \"#utility.yul\":9650:9653   */\n      dup2\n        /* \"#utility.yul\":9642:9653   */\n      swap1\n      pop\n        /* \"#utility.yul\":9673:9676   */\n      dup2\n        /* \"#utility.yul\":9670:9671   */\n      0x00\n        /* \"#utility.yul\":9663:9677   */\n      mstore\n        /* \"#utility.yul\":9707:9711   */\n      0x20\n        /* \"#utility.yul\":9704:9705   */\n      0x00\n        /* \"#utility.yul\":9694:9712   */\n      keccak256\n        /* \"#utility.yul\":9686:9712   */\n      swap1\n      pop\n        /* \"#utility.yul\":9578:9719   */\n      swap2\n      swap1\n      pop\n      jump\t// out\n        /* \"#utility.yul\":9725:9818   */\n    tag_103:\n        /* \"#utility.yul\":9762:9768   */\n      0x00\n        /* \"#utility.yul\":9809:9811   */\n      0x20\n        /* \"#utility.yul\":9804:9806   */\n      0x1f\n        /* \"#utility.yul\":9797:9802   */\n      dup4\n        /* \"#utility.yul\":9793:9807   */\n      add\n        /* \"#utility.yul\":9789:9812   */\n      div\n        /* \"#utility.yul\":9779:9812   */\n      swap1\n      pop\n        /* \"#utility.yul\":9725:9818   */\n      swap2\n      swap1\n      pop\n      jump\t// out\n        /* \"#utility.yul\":9824:9931   */\n    tag_104:\n        /* \"#utility.yul\":9868:9876   */\n      0x00\n        /* \"#utility.yul\":9918:9923   */\n      dup3\n        /* \"#utility.yul\":9912:9916   */\n      dup3\n        /* \"#utility.yul\":9908:9924   */\n      shl\n        /* \"#utility.yul\":9887:9924   */\n      swap1\n      pop\n        /* \"#utility.yul\":9824:9931   */\n      swap3\n      swap2\n      pop\n      pop\n      jump\t// out\n        /* \"#utility.yul\":9937:10330   */\n    tag_105:\n        /* \"#utility.yul\":10006:10012   */\n      0x00\n        /* \"#utility.yul\":10056:10057   */\n      0x08\n        /* \"#utility.yul\":10044:10054   */\n      dup4\n        /* \"#utility.yul\":10040:10058   */\n      mul\n        /* \"#utility.yul\":10079:10176   */\n      tag_228\n        /* \"#utility.yul\":10109:10175   */\n      0xffffffffffffffffffffffffffffffffffffffffffffffffffffffffffffffff\n        /* \"#utility.yul\":10098:10107   */\n      dup3\n        /* \"#utility.yul\":10079:10176   */\n      tag_104\n      jump\t// in\n    tag_228:\n        /* \"#utility.yul\":10197:10236   */\n      tag_229\n        /* \"#utility.yul\":10227:10235   */\n      dup7\n        /* \"#utility.yul\":10216:10225   */\n      dup4\n        /* \"#utility.yul\":10197:10236   */\n      tag_104\n      jump\t// in\n    tag_229:\n        /* \"#utility.yul\":10185:10236   */\n      swap6\n      pop\n        /* \"#utility.yul\":10269:10273   */\n      dup1\n        /* \"#utility.yul\":10265:10274   */\n      not\n        /* \"#utility.yul\":10258:10263   */\n      dup5\n        /* \"#utility.yul\":10254:10275   */\n      and\n        /* \"#utility.yul\":10245:10275   */\n      swap4\n      pop\n        /* \"#utility.yul\":10318:10322   */\n      dup1\n        /* \"#utility.yul\":10308:10316   */\n      dup7\n        /* \"#utility.yul\":10304:10323   */\n      and\n        /* \"#utility.yul\":10297:10302   */\n      dup5\n        /* \"#utility.yul\":10294:10324   */\n      or\n        /* \"#utility.yul\":10284:10324   */\n      swap3\n      pop\n        /* \"#utility.yul\":10013:10330   */\n      pop\n      pop\n        /* \"#utility.yul\":9937:10330   */\n      swap4\n      swap3\n      pop\n      pop\n      pop\n      jump\t// out\n        /* \"#utility.yul\":10336:10396   */\n    tag_106:\n        /* \"#utility.yul\":10364:10367   */\n      0x00\n        /* \"#utility.yul\":10385:10390   */\n      dup2\n        /* \"#utility.yul\":10378:10390   */\n      swap1\n      pop\n        /* \"#utility.yul\":10336:10396   */\n      swap2\n      swap1\n      pop\n      jump\t// out\n        /* \"#utility.yul\":10402:10544   */\n    tag_107:\n        /* \"#utility.yul\":10452:10461   */\n      0x00\n        /* \"#utility.yul\":10485:10538   */\n      tag_232\n        /* \"#utility.yul\":10503:10537   */\n      tag_233\n        /* \"#utility.yul\":10512:10536   */\n      tag_234\n        /* \"#utility.yul\":10530:10535   */\n      dup5\n        /* \"#utility.yul\":10512:10536   */\n      tag_77\n      jump\t// in\n    tag_234:\n        /* \"#utility.yul\":10503:10537   */\n      tag_106\n      jump\t// in\n    tag_233:\n        /* \"#utility.yul\":10485:10538   */\n      tag_77\n      jump\t// in\n    tag_232:\n        /* \"#utility.yul\":10472:10538   */\n      swap1\n      pop\n        /* \"#utility.yul\":10402:10544   */\n      swap2\n      swap1\n      pop\n      jump\t// out\n        /* \"#utility.yul\":10550:10625   */\n    tag_108:\n        /* \"#utility.yul\":10593:10596   */\n      0x00\n        /* \"#utility.yul\":10614:10619   */\n      dup2\n        /* \"#utility.yul\":10607:10619   */\n      swap1\n      pop\n        /* \"#utility.yul\":10550:10625   */\n      swap2\n      swap1\n      pop\n      jump\t// out\n        /* \"#utility.yul\":10631:10900   */\n    tag_109:\n        /* \"#utility.yul\":10741:10780   */\n      tag_237\n        /* \"#utility.yul\":10772:10779   */\n      dup4\n        /* \"#utility.yul\":10741:10780   */\n      tag_107\n      jump\t// in\n    tag_237:\n        /* \"#utility.yul\":10802:10893   */\n      tag_238\n        /* \"#utility.yul\":10851:10892   */\n      tag_239\n        /* \"#utility.yul\":10875:10891   */\n      dup3\n        /* \"#utility.yul\":10851:10892   */\n      tag_108\n      jump\t// in\n    tag_239:\n        /* \"#utility.yul\":10843:10849   */\n      dup5\n        /* \"#utility.yul\":10836:10840   */\n      dup5\n        /* \"#utility.yul\":10830:10841   */\n      sload\n        /* \"#utility.yul\":10802:10893   */\n      tag_105\n      jump\t// in\n    tag_238:\n        /* \"#utility.yul\":10796:10800   */\n      dup3\n        /* \"#utility.yul\":10789:10894   */\n      sstore\n        /* \"#utility.yul\":10707:10900   */\n      pop\n        /* \"#utility.yul\":10631:10900   */\n      pop\n      pop\n      pop\n      jump\t// out\n        /* \"#utility.yul\":10906:10979   */\n    tag_110:\n        /* \"#utility.yul\":10951:10954   */\n      0x00\n        /* \"#utility.yul\":10906:10979   */\n      swap1\n      jump\t// out\n        /* \"#utility.yul\":10985:11174   */\n    tag_111:\n        /* \"#utility.yul\":11062:11094   */\n      tag_242\n      tag_110\n      jump\t// in\n    tag_242:\n        /* \"#utility.yul\":11103:11168   */\n      tag_243\n        /* \"#utility.yul\":11161:11167   */\n      dup2\n        /* \"#utility.yul\":11153:11159   */\n      dup5\n        /* \"#utility.yul\":11147:11151   */\n      dup5\n        /* \"#utility.yul\":11103:11168   */\n      tag_109\n      jump\t// in\n    tag_243:\n        /* \"#utility.yul\":11038:11174   */\n      pop\n        /* \"#utility.yul\":10985:11174   */\n      pop\n      pop\n      jump\t// out\n        /* \"#utility.yul\":11180:11366   */\n    tag_112:\n        /* \"#utility.yul\":11240:11360   */\n    tag_245:\n        /* \"#utility.yul\":11257:11260   */\n      dup2\n        /* \"#utility.yul\":11250:11255   */\n      dup2\n        /* \"#utility.yul\":11247:11261   */\n      lt\n        /* \"#utility.yul\":11240:11360   */\n      iszero\n      tag_247\n      jumpi\n        /* \"#utility.yul\":11311:11350   */\n      tag_248\n        /* \"#utility.yul\":11348:11349   */\n      0x00\n        /* \"#utility.yul\":11341:11346   */\n      dup3\n        /* \"#utility.yul\":11311:11350   */\n      tag_111\n      jump\t// in\n    tag_248:\n        /* \"#utility.yul\":11284:11285   */\n      0x01\n        /* \"#utility.yul\":11277:11282   */\n      dup2\n        /* \"#utility.yul\":11273:11286   */\n      add\n        /* \"#utility.yul\":11264:11286   */\n      swap1\n      pop\n        /* \"#utility.yul\":11240:11360   */\n      jump(tag_245)\n    tag_247:\n        /* \"#utility.yul\":11180:11366   */\n      pop\n      pop\n      jump\t// out\n        /* \"#utility.yul\":11372:11915   */\n    tag_113:\n        /* \"#utility.yul\":11473:11475   */\n      0x1f\n        /* \"#utility.yul\":11468:11471   */\n      dup3\n        /* \"#utility.yul\":11465:11476   */\n      gt\n        /* \"#utility.yul\":11462:11908   */\n      iszero\n      tag_250\n      jumpi\n        /* \"#utility.yul\":11507:11545   */\n      tag_251\n        /* \"#utility.yul\":11539:11544   */\n      dup2\n        /* \"#utility.yul\":11507:11545   */\n      tag_102\n      jump\t// in\n    tag_251:\n        /* \"#utility.yul\":11591:11620   */\n      tag_252\n        /* \"#utility.yul\":11609:11619   */\n      dup5\n        /* \"#utility.yul\":11591:11620   */\n      tag_103\n      jump\t// in\n    tag_252:\n        /* \"#utility.yul\":11581:11589   */\n      dup2\n        /* \"#utility.yul\":11577:11621   */\n      add\n        /* \"#utility.yul\":11774:11776   */\n      0x20\n        /* \"#utility.yul\":11762:11772   */\n      dup6\n        /* \"#utility.yul\":11759:11777   */\n      lt\n        /* \"#utility.yul\":11756:11805   */\n      iszero\n      tag_253\n      jumpi\n        /* \"#utility.yul\":11795:11803   */\n      dup2\n        /* \"#utility.yul\":11780:11803   */\n      swap1\n      pop\n        /* \"#utility.yul\":11756:11805   */\n    tag_253:\n        /* \"#utility.yul\":11818:11898   */\n      tag_254\n        /* \"#utility.yul\":11874:11896   */\n      tag_255\n        /* \"#utility.yul\":11892:11895   */\n      dup6\n        /* \"#utility.yul\":11874:11896   */\n      tag_103\n      jump\t// in\n    tag_255:\n        /* \"#utility.yul\":11864:11872   */\n      dup4\n        /* \"#utility.yul\":11860:11897   */\n      add\n        /* \"#utility.yul\":11847:11858   */\n      dup3\n        /* \"#utility.yul\":11818:11898   */\n      tag_112\n      jump\t// in\n    tag_254:\n        /* \"#utility.yul\":11477:11908   */\n      pop\n      pop\n        /* \"#utility.yul\":11462:11908   */\n    tag_250:\n        /* \"#utility.yul\":11372:11915   */\n      pop\n      pop\n      pop\n      jump\t// out\n        /* \"#utility.yul\":11921:12038   */\n    tag_114:\n        /* \"#utility.yul\":11975:11983   */\n      0x00\n        /* \"#utility.yul\":12025:12030   */\n      dup3\n        /* \"#utility.yul\":12019:12023   */\n      dup3\n        /* \"#utility.yul\":12015:12031   */\n      shr\n        /* \"#utility.yul\":11994:12031   */\n      swap1\n      pop\n        /* \"#utility.yul\":11921:12038   */\n      swap3\n      swap2\n      pop\n      pop\n      jump\t// out\n        /* \"#utility.yul\":12044:12213   */\n    tag_115:\n        /* \"#utility.yul\":12088:12094   */\n      0x00\n        /* \"#utility.yul\":12121:12172   */\n      tag_258\n        /* \"#utility.yul\":12169:12170   */\n      0x00\n        /* \"#utility.yul\":12165:12171   */\n      not\n        /* \"#utility.yul\":12157:12162   */\n      dup5\n        /* \"#utility.yul\":12154:12155   */\n      0x08\n        /* \"#utility.yul\":12150:12163   */\n      mul\n        /* \"#utility.yul\":12121:12172   */\n      tag_114\n      jump\t// in\n    tag_258:\n        /* \"#utility.yul\":12117:12173   */\n      not\n        /* \"#utility.yul\":12202:12206   */\n      dup1\n        /* \"#utility.yul\":12196:12200   */\n      dup4\n        /* \"#utility.yul\":12192:12207   */\n      and\n        /* \"#utility.yul\":12182:12207   */\n      swap2\n      pop\n        /* \"#utility.yul\":12095:12213   */\n      pop\n        /* \"#utility.yul\":12044:12213   */\n      swap3\n      swap2\n      pop\n      pop\n      jump\t// out\n        /* \"#utility.yul\":12218:12513   */\n    tag_116:\n        /* \"#utility.yul\":12294:12298   */\n      0x00\n        /* \"#utility.yul\":12440:12469   */\n      tag_260\n        /* \"#utility.yul\":12465:12468   */\n      dup4\n        /* \"#utility.yul\":12459:12463   */\n      dup4\n        /* \"#utility.yul\":12440:12469   */\n      tag_115\n      jump\t// in\n    tag_260:\n        /* \"#utility.yul\":12432:12469   */\n      swap2\n      pop\n        /* \"#utility.yul\":12502:12505   */\n      dup3\n        /* \"#utility.yul\":12499:12500   */\n      0x02\n        /* \"#utility.yul\":12495:12506   */\n      mul\n        /* \"#utility.yul\":12489:12493   */\n      dup3\n        /* \"#utility.yul\":12486:12507   */\n      or\n        /* \"#utility.yul\":12478:12507   */\n      swap1\n      pop\n        /* \"#utility.yul\":12218:12513   */\n      swap3\n      swap2\n      pop\n      pop\n      jump\t// out\n        /* \"#utility.yul\":12518:13913   */\n    tag_24:\n        /* \"#utility.yul\":12635:12672   */\n      tag_262\n        /* \"#utility.yul\":12668:12671   */\n      dup3\n        /* \"#utility.yul\":12635:12672   */\n      tag_95\n      jump\t// in\n    tag_262:\n        /* \"#utility.yul\":12737:12755   */\n      0xffffffffffffffff\n        /* \"#utility.yul\":12729:12735   */\n      dup2\n        /* \"#utility.yul\":12726:12756   */\n      gt\n        /* \"#utility.yul\":12723:12779   */\n      iszero\n      tag_263\n      jumpi\n        /* \"#utility.yul\":12759:12777   */\n      tag_264\n      tag_83\n      jump\t// in\n    tag_264:\n        /* \"#utility.yul\":12723:12779   */\n    tag_263:\n        /* \"#utility.yul\":12803:12841   */\n      tag_265\n        /* \"#utility.yul\":12835:12839   */\n      dup3\n        /* \"#utility.yul\":12829:12840   */\n      sload\n        /* \"#utility.yul\":12803:12841   */\n      tag_32\n      jump\t// in\n    tag_265:\n        /* \"#utility.yul\":12888:12955   */\n      tag_266\n        /* \"#utility.yul\":12948:12954   */\n      dup3\n        /* \"#utility.yul\":12940:12946   */\n      dup3\n        /* \"#utility.yul\":12934:12938   */\n      dup6\n        /* \"#utility.yul\":12888:12955   */\n      tag_113\n      jump\t// in\n    tag_266:\n        /* \"#utility.yul\":12982:12983   */\n      0x00\n        /* \"#utility.yul\":13006:13010   */\n      0x20\n        /* \"#utility.yul\":12993:13010   */\n      swap1\n      pop\n        /* \"#utility.yul\":13038:13040   */\n      0x1f\n        /* \"#utility.yul\":13030:13036   */\n      dup4\n        /* \"#utility.yul\":13027:13041   */\n      gt\n        /* \"#utility.yul\":13055:13056   */\n      0x01\n        /* \"#utility.yul\":13050:13668   */\n      dup2\n      eq\n      tag_268\n      jumpi\n        /* \"#utility.yul\":13712:13713   */\n      0x00\n        /* \"#utility.yul\":13729:13735   */\n      dup5\n        /* \"#utility.yul\":13726:13803   */\n      iszero\n      tag_269\n      jumpi\n        /* \"#utility.yul\":13778:13787   */\n      dup3\n        /* \"#utility.yul\":13773:13776   */\n      dup8\n        /* \"#utility.yul\":13769:13788   */\n      add\n        /* \"#utility.yul\":13763:13789   */\n      mload\n        /* \"#utility.yul\":13754:13789   */\n      swap1\n      pop\n        /* \"#utility.yul\":13726:13803   */\n    tag_269:\n        /* \"#utility.yul\":13829:13896   */\n      tag_270\n        /* \"#utility.yul\":13889:13895   */\n      dup6\n        /* \"#utility.yul\":13882:13887   */\n      dup3\n        /* \"#utility.yul\":13829:13896   */\n      tag_116\n      jump\t// in\n    tag_270:\n        /* \"#utility.yul\":13823:13827   */\n      dup7\n        /* \"#utility.yul\":13816:13897   */\n      sstore\n        /* \"#utility.yul\":13685:13907   */\n      pop\n        /* \"#utility.yul\":13020:13907   */\n      jump(tag_267)\n        /* \"#utility.yul\":13050:13668   */\n    tag_268:\n        /* \"#utility.yul\":13102:13106   */\n      0x1f\n        /* \"#utility.yul\":13098:13107   */\n      not\n        /* \"#utility.yul\":13090:13096   */\n      dup5\n        /* \"#utility.yul\":13086:13108   */\n      and\n        /* \"#utility.yul\":13136:13173   */\n      tag_271\n        /* \"#utility.yul\":13168:13172   */\n      dup7\n        /* \"#utility.yul\":13136:13173   */\n      tag_102\n      jump\t// in\n    tag_271:\n        /* \"#utility.yul\":13195:13196   */\n      0x00\n        /* \"#utility.yul\":13209:13417   */\n    tag_272:\n        /* \"#utility.yul\":13223:13230   */\n      dup3\n        /* \"#utility.yul\":13220:13221   */\n      dup2\n        /* \"#utility.yul\":13217:13231   */\n      lt\n        /* \"#utility.yul\":13209:13417   */\n      iszero\n      tag_274\n      jumpi\n        /* \"#utility.yul\":13302:13311   */\n      dup5\n        /* \"#utility.yul\":13297:13300   */\n      dup10\n        /* \"#utility.yul\":13293:13312   */\n      add\n        /* \"#utility.yul\":13287:13313   */\n      mload\n        /* \"#utility.yul\":13279:13285   */\n      dup3\n        /* \"#utility.yul\":13272:13314   */\n      sstore\n        /* \"#utility.yul\":13353:13354   */\n      0x01\n        /* \"#utility.yul\":13345:13351   */\n      dup3\n        /* \"#utility.yul\":13341:13355   */\n      add\n        /* \"#utility.yul\":13331:13355   */\n      swap2\n      pop\n        /* \"#utility.yul\":13400:13402   */\n      0x20\n        /* \"#utility.yul\":13389:13398   */\n      dup6\n        /* \"#utility.yul\":13385:13403   */\n      add\n        /* \"#utility.yul\":13372:13403   */\n      swap5\n      pop\n        /* \"#utility.yul\":13246:13250   */\n      0x20\n        /* \"#utility.yul\":13243:13244   */\n      dup2\n        /* \"#utility.yul\":13239:13251   */\n      add\n        /* \"#utility.yul\":13234:13251   */\n      swap1\n      pop\n        /* \"#utility.yul\":13209:13417   */\n      jump(tag_272)\n    tag_274:\n        /* \"#utility.yul\":13445:13451   */\n      dup7\n        /* \"#utility.yul\":13436:13443   */\n      dup4\n        /* \"#utility.yul\":13433:13452   */\n      lt\n        /* \"#utility.yul\":13430:13609   */\n      iszero\n      tag_275\n      jumpi\n        /* \"#utility.yul\":13503:13512   */\n      dup5\n        /* \"#utility.yul\":13498:13501   */\n      dup10\n        /* \"#utility.yul\":13494:13513   */\n      add\n        /* \"#utility.yul\":13488:13514   */\n      mload\n        /* \"#utility.yul\":13546:13594   */\n      tag_276\n        /* \"#utility.yul\":13588:13592   */\n      0x1f\n        /* \"#utility.yul\":13580:13586   */\n      dup10\n        /* \"#utility.yul\":13576:13593   */\n      and\n        /* \"#utility.yul\":13565:13574   */\n      dup3\n        /* \"#utility.yul\":13546:13594   */\n      tag_115\n      jump\t// in\n    tag_276:\n        /* \"#utility.yul\":13538:13544   */\n      dup4\n        /* \"#utility.yul\":13531:13595   */\n      sstore\n        /* \"#utility.yul\":13453:13609   */\n      pop\n        /* \"#utility.yul\":13430:13609   */\n    tag_275:\n        /* \"#utility.yul\":13655:13656   */\n      0x01\n        /* \"#utility.yul\":13651:13652   */\n      0x02\n        /* \"#utility.yul\":13643:13649   */\n      dup9\n        /* \"#utility.yul\":13639:13653   */\n      mul\n        /* \"#utility.yul\":13635:13657   */\n      add\n        /* \"#utility.yul\":13629:13633   */\n      dup9\n        /* \"#utility.yul\":13622:13658   */\n      sstore\n        /* \"#utility.yul\":13057:13668   */\n      pop\n      pop\n      pop\n        /* \"#utility.yul\":13020:13907   */\n    tag_267:\n      pop\n        /* \"#utility.yul\":12610:13913   */\n      pop\n      pop\n      pop\n        /* \"#utility.yul\":12518:13913   */\n      pop\n      pop\n      jump\t// out\n        /* \"#utility.yul\":13919:14099   */\n    tag_50:\n        /* \"#utility.yul\":13967:14044   */\n      0x4e487b7100000000000000000000000000000000000000000000000000000000\n        /* \"#utility.yul\":13964:13965   */\n      0x00\n        /* \"#utility.yul\":13957:14045   */\n      mstore\n        /* \"#utility.yul\":14064:14068   */\n      0x32\n        /* \"#utility.yul\":14061:14062   */\n      0x04\n        /* \"#utility.yul\":14054:14069   */\n      mstore\n        /* \"#utility.yul\":14088:14092   */\n      0x24\n        /* \"#utility.yul\":14085:14086   */\n      0x00\n        /* \"#utility.yul\":14078:14093   */\n      revert\n        /* \"#utility.yul\":14105:14184   */\n    tag_117:\n        /* \"#utility.yul\":14144:14151   */\n      0x00\n        /* \"#utility.yul\":14173:14178   */\n      dup2\n        /* \"#utility.yul\":14162:14178   */\n      swap1\n      pop\n        /* \"#utility.yul\":14105:14184   */\n      swap2\n      swap1\n      pop\n      jump\t// out\n        /* \"#utility.yul\":14190:14347   */\n    tag_118:\n        /* \"#utility.yul\":14295:14340   */\n      tag_280\n        /* \"#utility.yul\":14315:14339   */\n      tag_281\n        /* \"#utility.yul\":14333:14338   */\n      dup3\n        /* \"#utility.yul\":14315:14339   */\n      tag_77\n      jump\t// in\n    tag_281:\n        /* \"#utility.yul\":14295:14340   */\n      tag_117\n      jump\t// in\n    tag_280:\n        /* \"#utility.yul\":14290:14293   */\n      dup3\n        /* \"#utility.yul\":14283:14341   */\n      mstore\n        /* \"#utility.yul\":14190:14347   */\n      pop\n      pop\n      jump\t// out\n        /* \"#utility.yul\":14353:14501   */\n    tag_119:\n        /* \"#utility.yul\":14455:14466   */\n      0x00\n        /* \"#utility.yul\":14492:14495   */\n      dup2\n        /* \"#utility.yul\":14477:14495   */\n      swap1\n      pop\n        /* \"#utility.yul\":14353:14501   */\n      swap3\n      swap2\n      pop\n      pop\n      jump\t// out\n        /* \"#utility.yul\":14531:15405   */\n    tag_120:\n        /* \"#utility.yul\":14634:14637   */\n      0x00\n        /* \"#utility.yul\":14671:14676   */\n      dup2\n        /* \"#utility.yul\":14665:14677   */\n      sload\n        /* \"#utility.yul\":14700:14736   */\n      tag_284\n        /* \"#utility.yul\":14726:14735   */\n      dup2\n        /* \"#utility.yul\":14700:14736   */\n      tag_32\n      jump\t// in\n    tag_284:\n        /* \"#utility.yul\":14752:14841   */\n      tag_285\n        /* \"#utility.yul\":14834:14840   */\n      dup2\n        /* \"#utility.yul\":14829:14832   */\n      dup7\n        /* \"#utility.yul\":14752:14841   */\n      tag_119\n      jump\t// in\n    tag_285:\n        /* \"#utility.yul\":14745:14841   */\n      swap5\n      pop\n        /* \"#utility.yul\":14872:14873   */\n      0x01\n        /* \"#utility.yul\":14861:14870   */\n      dup3\n        /* \"#utility.yul\":14857:14874   */\n      and\n        /* \"#utility.yul\":14888:14889   */\n      0x00\n        /* \"#utility.yul\":14883:15049   */\n      dup2\n      eq\n      tag_287\n      jumpi\n        /* \"#utility.yul\":15063:15064   */\n      0x01\n        /* \"#utility.yul\":15058:15399   */\n      dup2\n      eq\n      tag_288\n      jumpi\n        /* \"#utility.yul\":14850:15399   */\n      jump(tag_286)\n        /* \"#utility.yul\":14883:15049   */\n    tag_287:\n        /* \"#utility.yul\":14967:14971   */\n      0xff\n        /* \"#utility.yul\":14963:14972   */\n      not\n        /* \"#utility.yul\":14952:14961   */\n      dup4\n        /* \"#utility.yul\":14948:14973   */\n      and\n        /* \"#utility.yul\":14943:14946   */\n      dup7\n        /* \"#utility.yul\":14936:14974   */\n      mstore\n        /* \"#utility.yul\":15029:15035   */\n      dup2\n        /* \"#utility.yul\":15022:15036   */\n      iszero\n        /* \"#utility.yul\":15015:15037   */\n      iszero\n        /* \"#utility.yul\":15007:15013   */\n      dup3\n        /* \"#utility.yul\":15003:15038   */\n      mul\n        /* \"#utility.yul\":14998:15001   */\n      dup7\n        /* \"#utility.yul\":14994:15039   */\n      add\n        /* \"#utility.yul\":14987:15039   */\n      swap4\n      pop\n        /* \"#utility.yul\":14883:15049   */\n      jump(tag_286)\n        /* \"#utility.yul\":15058:15399   */\n    tag_288:\n        /* \"#utility.yul\":15125:15163   */\n      tag_289\n        /* \"#utility.yul\":15157:15162   */\n      dup6\n        /* \"#utility.yul\":15125:15163   */\n      tag_102\n      jump\t// in\n    tag_289:\n        /* \"#utility.yul\":15185:15186   */\n      0x00\n        /* \"#utility.yul\":15199:15353   */\n    tag_290:\n        /* \"#utility.yul\":15213:15219   */\n      dup4\n        /* \"#utility.yul\":15210:15211   */\n      dup2\n        /* \"#utility.yul\":15207:15220   */\n      lt\n        /* \"#utility.yul\":15199:15353   */\n      iszero\n      tag_292\n      jumpi\n        /* \"#utility.yul\":15287:15294   */\n      dup2\n        /* \"#utility.yul\":15281:15295   */\n      sload\n        /* \"#utility.yul\":15277:15278   */\n      dup2\n        /* \"#utility.yul\":15272:15275   */\n      dup10\n        /* \"#utility.yul\":15268:15279   */\n      add\n        /* \"#utility.yul\":15261:15296   */\n      mstore\n        /* \"#utility.yul\":15337:15338   */\n      0x01\n        /* \"#utility.yul\":15328:15335   */\n      dup3\n        /* \"#utility.yul\":15324:15339   */\n      add\n        /* \"#utility.yul\":15313:15339   */\n      swap2\n      pop\n        /* \"#utility.yul\":15235:15239   */\n      0x20\n        /* \"#utility.yul\":15232:15233   */\n      dup2\n        /* \"#utility.yul\":15228:15240   */\n      add\n        /* \"#utility.yul\":15223:15240   */\n      swap1\n      pop\n        /* \"#utility.yul\":15199:15353   */\n      jump(tag_290)\n    tag_292:\n        /* \"#utility.yul\":15382:15388   */\n      dup4\n        /* \"#utility.yul\":15377:15380   */\n      dup9\n        /* \"#utility.yul\":15373:15389   */\n      add\n        /* \"#utility.yul\":15366:15389   */\n      swap6\n      pop\n        /* \"#utility.yul\":15065:15399   */\n      pop\n      pop\n        /* \"#utility.yul\":14850:15399   */\n    tag_286:\n      pop\n        /* \"#utility.yul\":14638:15405   */\n      pop\n      pop\n        /* \"#utility.yul\":14531:15405   */\n      swap3\n      swap2\n      pop\n      pop\n      jump\t// out\n        /* \"#utility.yul\":15411:15821   */\n    tag_56:\n        /* \"#utility.yul\":15568:15571   */\n      0x00\n        /* \"#utility.yul\":15583:15658   */\n      tag_294\n        /* \"#utility.yul\":15654:15657   */\n      dup3\n        /* \"#utility.yul\":15645:15651   */\n      dup6\n        /* \"#utility.yul\":15583:15658   */\n      tag_118\n      jump\t// in\n    tag_294:\n        /* \"#utility.yul\":15683:15685   */\n      0x20\n        /* \"#utility.yul\":15678:15681   */\n      dup3\n        /* \"#utility.yul\":15674:15686   */\n      add\n        /* \"#utility.yul\":15667:15686   */\n      swap2\n      pop\n        /* \"#utility.yul\":15703:15795   */\n      tag_295\n        /* \"#utility.yul\":15791:15794   */\n      dup3\n        /* \"#utility.yul\":15782:15788   */\n      dup5\n        /* \"#utility.yul\":15703:15795   */\n      tag_120\n      jump\t// in\n    tag_295:\n        /* \"#utility.yul\":15696:15795   */\n      swap2\n      pop\n        /* \"#utility.yul\":15812:15815   */\n      dup2\n        /* \"#utility.yul\":15805:15815   */\n      swap1\n      pop\n        /* \"#utility.yul\":15411:15821   */\n      swap4\n      swap3\n      pop\n      pop\n      pop\n      jump\t// out\n\n    auxdata: 0xa26469706673582212201ef0403e6fe762b570a26a3d1929b6cf70b4595e02dda5a901c3dd0683ba580b64736f6c63430008180033\n}\n",
				"bytecode": {
					"linkReferences": {},
					"object": "608060405234801561000f575f80fd5b50610d148061001d5f395ff3fe608060405234801561000f575f80fd5b506004361061003f575f3560e01c8063e6bb053514610043578063f0d6e1ec1461005f578063ff042fc814610092575b5f80fd5b61005d600480360381019061005891906106f3565b6100c2565b005b610079600480360381019061007491906107da565b610180565b604051610089949392919061088e565b60405180910390f35b6100ac60048036038101906100a791906107da565b61034c565b6040516100b991906108fe565b60405180910390f35b5f6040518060a0016040528087815260200186815260200185815260200184815260200183815250908060018154018082558091505060019003905f5260205f2090600502015f909190919091505f820151815f0155602082015181600101908161012d9190610b11565b5060408201518160020190816101439190610b11565b5060608201518160030190816101599190610b11565b5060808201518160040190805190602001906101769291906103bf565b5050505050505050565b5f818154811061018e575f80fd5b905f5260205f2090600502015f91509050805f0154908060010180546101b390610944565b80601f01602080910402602001604051908101604052809291908181526020018280546101df90610944565b801561022a5780601f106102015761010080835404028352916020019161022a565b820191905f5260205f20905b81548152906001019060200180831161020d57829003601f168201915b50505050509080600201805461023f90610944565b80601f016020809104026020016040519081016040528092919081815260200182805461026b90610944565b80156102b65780601f1061028d576101008083540402835291602001916102b6565b820191905f5260205f20905b81548152906001019060200180831161029957829003601f168201915b5050505050908060030180546102cb90610944565b80601f01602080910402602001604051908101604052809291908181526020018280546102f790610944565b80156103425780601f1061031957610100808354040283529160200191610342565b820191905f5260205f20905b81548152906001019060200180831161032557829003601f168201915b5050505050905084565b5f8082815481106103605761035f610be0565b5b905f5260205f2090600502015f01545f838154811061038257610381610be0565b5b905f5260205f2090600502016001016040516020016103a2929190610cb7565b604051602081830303815290604052805190602001209050919050565b828054828255905f5260205f20908101928215610405579160200282015b828111156104045782518290816103f49190610b11565b50916020019190600101906103dd565b5b5090506104129190610416565b5090565b5b80821115610435575f818161042c9190610439565b50600101610417565b5090565b50805461044590610944565b5f825580601f106104565750610473565b601f0160209004905f5260205f20908101906104729190610476565b5b50565b5b8082111561048d575f815f905550600101610477565b5090565b5f604051905090565b5f80fd5b5f80fd5b5f819050919050565b6104b4816104a2565b81146104be575f80fd5b50565b5f813590506104cf816104ab565b92915050565b5f80fd5b5f80fd5b5f601f19601f8301169050919050565b7f4e487b71000000000000000000000000000000000000000000000000000000005f52604160045260245ffd5b610523826104dd565b810181811067ffffffffffffffff82111715610542576105416104ed565b5b80604052505050565b5f610554610491565b9050610560828261051a565b919050565b5f67ffffffffffffffff82111561057f5761057e6104ed565b5b610588826104dd565b9050602081019050919050565b828183375f83830152505050565b5f6105b56105b084610565565b61054b565b9050828152602081018484840111156105d1576105d06104d9565b5b6105dc848285610595565b509392505050565b5f82601f8301126105f8576105f76104d5565b5b81356106088482602086016105a3565b91505092915050565b5f67ffffffffffffffff82111561062b5761062a6104ed565b5b602082029050602081019050919050565b5f80fd5b5f61065261064d84610611565b61054b565b905080838252602082019050602084028301858111156106755761067461063c565b5b835b818110156106bc57803567ffffffffffffffff81111561069a576106996104d5565b5b8086016106a789826105e4565b85526020850194505050602081019050610677565b5050509392505050565b5f82601f8301126106da576106d96104d5565b5b81356106ea848260208601610640565b91505092915050565b5f805f805f60a0868803121561070c5761070b61049a565b5b5f610719888289016104c1565b955050602086013567ffffffffffffffff81111561073a5761073961049e565b5b610746888289016105e4565b945050604086013567ffffffffffffffff8111156107675761076661049e565b5b610773888289016105e4565b935050606086013567ffffffffffffffff8111156107945761079361049e565b5b6107a0888289016105e4565b925050608086013567ffffffffffffffff8111156107c1576107c061049e565b5b6107cd888289016106c6565b9150509295509295909350565b5f602082840312156107ef576107ee61049a565b5b5f6107fc848285016104c1565b91505092915050565b61080e816104a2565b82525050565b5f81519050919050565b5f82825260208201905092915050565b5f5b8381101561084b578082015181840152602081019050610830565b5f8484015250505050565b5f61086082610814565b61086a818561081e565b935061087a81856020860161082e565b610883816104dd565b840191505092915050565b5f6080820190506108a15f830187610805565b81810360208301526108b38186610856565b905081810360408301526108c78185610856565b905081810360608301526108db8184610856565b905095945050505050565b5f819050919050565b6108f8816108e6565b82525050565b5f6020820190506109115f8301846108ef565b92915050565b7f4e487b71000000000000000000000000000000000000000000000000000000005f52602260045260245ffd5b5f600282049050600182168061095b57607f821691505b60208210810361096e5761096d610917565b5b50919050565b5f819050815f5260205f209050919050565b5f6020601f8301049050919050565b5f82821b905092915050565b5f600883026109d07fffffffffffffffffffffffffffffffffffffffffffffffffffffffffffffffff82610995565b6109da8683610995565b95508019841693508086168417925050509392505050565b5f819050919050565b5f610a15610a10610a0b846104a2565b6109f2565b6104a2565b9050919050565b5f819050919050565b610a2e836109fb565b610a42610a3a82610a1c565b8484546109a1565b825550505050565b5f90565b610a56610a4a565b610a61818484610a25565b505050565b5b81811015610a8457610a795f82610a4e565b600181019050610a67565b5050565b601f821115610ac957610a9a81610974565b610aa384610986565b81016020851015610ab2578190505b610ac6610abe85610986565b830182610a66565b50505b505050565b5f82821c905092915050565b5f610ae95f1984600802610ace565b1980831691505092915050565b5f610b018383610ada565b9150826002028217905092915050565b610b1a82610814565b67ffffffffffffffff811115610b3357610b326104ed565b5b610b3d8254610944565b610b48828285610a88565b5f60209050601f831160018114610b79575f8415610b67578287015190505b610b718582610af6565b865550610bd8565b601f198416610b8786610974565b5f5b82811015610bae57848901518255600182019150602085019450602081019050610b89565b86831015610bcb5784890151610bc7601f891682610ada565b8355505b6001600288020188555050505b505050505050565b7f4e487b71000000000000000000000000000000000000000000000000000000005f52603260045260245ffd5b5f819050919050565b610c27610c22826104a2565b610c0d565b82525050565b5f81905092915050565b5f8154610c4381610944565b610c4d8186610c2d565b9450600182165f8114610c675760018114610c7c57610cae565b60ff1983168652811515820286019350610cae565b610c8585610974565b5f5b83811015610ca657815481890152600182019150602081019050610c87565b838801955050505b50505092915050565b5f610cc28285610c16565b602082019150610cd28284610c37565b9150819050939250505056fea26469706673582212201ef0403e6fe762b570a26a3d1929b6cf70b4595e02dda5a901c3dd0683ba580b64736f6c63430008180033",
					"opcodes": "PUSH1 0x80 PUSH1 0x40 MSTORE CALLVALUE DUP1 ISZERO PUSH2 0xF JUMPI PUSH0 DUP1 REVERT JUMPDEST POP PUSH2 0xD14 DUP1 PUSH2 0x1D PUSH0 CODECOPY PUSH0 RETURN INVALID PUSH1 0x80 PUSH1 0x40 MSTORE CALLVALUE DUP1 ISZERO PUSH2 0xF JUMPI PUSH0 DUP1 REVERT JUMPDEST POP PUSH1 0x4 CALLDATASIZE LT PUSH2 0x3F JUMPI PUSH0 CALLDATALOAD PUSH1 0xE0 SHR DUP1 PUSH4 0xE6BB0535 EQ PUSH2 0x43 JUMPI DUP1 PUSH4 0xF0D6E1EC EQ PUSH2 0x5F JUMPI DUP1 PUSH4 0xFF042FC8 EQ PUSH2 0x92 JUMPI JUMPDEST PUSH0 DUP1 REVERT JUMPDEST PUSH2 0x5D PUSH1 0x4 DUP1 CALLDATASIZE SUB DUP2 ADD SWAP1 PUSH2 0x58 SWAP2 SWAP1 PUSH2 0x6F3 JUMP JUMPDEST PUSH2 0xC2 JUMP JUMPDEST STOP JUMPDEST PUSH2 0x79 PUSH1 0x4 DUP1 CALLDATASIZE SUB DUP2 ADD SWAP1 PUSH2 0x74 SWAP2 SWAP1 PUSH2 0x7DA JUMP JUMPDEST PUSH2 0x180 JUMP JUMPDEST PUSH1 0x40 MLOAD PUSH2 0x89 SWAP5 SWAP4 SWAP3 SWAP2 SWAP1 PUSH2 0x88E JUMP JUMPDEST PUSH1 0x40 MLOAD DUP1 SWAP2 SUB SWAP1 RETURN JUMPDEST PUSH2 0xAC PUSH1 0x4 DUP1 CALLDATASIZE SUB DUP2 ADD SWAP1 PUSH2 0xA7 SWAP2 SWAP1 PUSH2 0x7DA JUMP JUMPDEST PUSH2 0x34C JUMP JUMPDEST PUSH1 0x40 MLOAD PUSH2 0xB9 SWAP2 SWAP1 PUSH2 0x8FE JUMP JUMPDEST PUSH1 0x40 MLOAD DUP1 SWAP2 SUB SWAP1 RETURN JUMPDEST PUSH0 PUSH1 0x40 MLOAD DUP1 PUSH1 0xA0 ADD PUSH1 0x40 MSTORE DUP1 DUP8 DUP2 MSTORE PUSH1 0x20 ADD DUP7 DUP2 MSTORE PUSH1 0x20 ADD DUP6 DUP2 MSTORE PUSH1 0x20 ADD DUP5 DUP2 MSTORE PUSH1 0x20 ADD DUP4 DUP2 MSTORE POP SWAP1 DUP1 PUSH1 0x1 DUP2 SLOAD ADD DUP1 DUP3 SSTORE DUP1 SWAP2 POP POP PUSH1 0x1 SWAP1 SUB SWAP1 PUSH0 MSTORE PUSH1 0x20 PUSH0 KECCAK256 SWAP1 PUSH1 0x5 MUL ADD PUSH0 SWAP1 SWAP2 SWAP1 SWAP2 SWAP1 SWAP2 POP PUSH0 DUP3 ADD MLOAD DUP2 PUSH0 ADD SSTORE PUSH1 0x20 DUP3 ADD MLOAD DUP2 PUSH1 0x1 ADD SWAP1 DUP2 PUSH2 0x12D SWAP2 SWAP1 PUSH2 0xB11 JUMP JUMPDEST POP PUSH1 0x40 DUP3 ADD MLOAD DUP2 PUSH1 0x2 ADD SWAP1 DUP2 PUSH2 0x143 SWAP2 SWAP1 PUSH2 0xB11 JUMP JUMPDEST POP PUSH1 0x60 DUP3 ADD MLOAD DUP2 PUSH1 0x3 ADD SWAP1 DUP2 PUSH2 0x159 SWAP2 SWAP1 PUSH2 0xB11 JUMP JUMPDEST POP PUSH1 0x80 DUP3 ADD MLOAD DUP2 PUSH1 0x4 ADD SWAP1 DUP1 MLOAD SWAP1 PUSH1 0x20 ADD SWAP1 PUSH2 0x176 SWAP3 SWAP2 SWAP1 PUSH2 0x3BF JUMP JUMPDEST POP POP POP POP POP POP POP POP JUMP JUMPDEST PUSH0 DUP2 DUP2 SLOAD DUP2 LT PUSH2 0x18E JUMPI PUSH0 DUP1 REVERT JUMPDEST SWAP1 PUSH0 MSTORE PUSH1 0x20 PUSH0 KECCAK256 SWAP1 PUSH1 0x5 MUL ADD PUSH0 SWAP2 POP SWAP1 POP DUP1 PUSH0 ADD SLOAD SWAP1 DUP1 PUSH1 0x1 ADD DUP1 SLOAD PUSH2 0x1B3 SWAP1 PUSH2 0x944 JUMP JUMPDEST DUP1 PUSH1 0x1F ADD PUSH1 0x20 DUP1 SWAP2 DIV MUL PUSH1 0x20 ADD PUSH1 0x40 MLOAD SWAP1 DUP2 ADD PUSH1 0x40 MSTORE DUP1 SWAP3 SWAP2 SWAP1 DUP2 DUP2 MSTORE PUSH1 0x20 ADD DUP3 DUP1 SLOAD PUSH2 0x1DF SWAP1 PUSH2 0x944 JUMP JUMPDEST DUP1 ISZERO PUSH2 0x22A JUMPI DUP1 PUSH1 0x1F LT PUSH2 0x201 JUMPI PUSH2 0x100 DUP1 DUP4 SLOAD DIV MUL DUP4 MSTORE SWAP2 PUSH1 0x20 ADD SWAP2 PUSH2 0x22A JUMP JUMPDEST DUP3 ADD SWAP2 SWAP1 PUSH0 MSTORE PUSH1 0x20 PUSH0 KECCAK256 SWAP1 JUMPDEST DUP2 SLOAD DUP2 MSTORE SWAP1 PUSH1 0x1 ADD SWAP1 PUSH1 0x20 ADD DUP1 DUP4 GT PUSH2 0x20D JUMPI DUP3 SWAP1 SUB PUSH1 0x1F AND DUP3 ADD SWAP2 JUMPDEST POP POP POP POP POP SWAP1 DUP1 PUSH1 0x2 ADD DUP1 SLOAD PUSH2 0x23F SWAP1 PUSH2 0x944 JUMP JUMPDEST DUP1 PUSH1 0x1F ADD PUSH1 0x20 DUP1 SWAP2 DIV MUL PUSH1 0x20 ADD PUSH1 0x40 MLOAD SWAP1 DUP2 ADD PUSH1 0x40 MSTORE DUP1 SWAP3 SWAP2 SWAP1 DUP2 DUP2 MSTORE PUSH1 0x20 ADD DUP3 DUP1 SLOAD PUSH2 0x26B SWAP1 PUSH2 0x944 JUMP JUMPDEST DUP1 ISZERO PUSH2 0x2B6 JUMPI DUP1 PUSH1 0x1F LT PUSH2 0x28D JUMPI PUSH2 0x100 DUP1 DUP4 SLOAD DIV MUL DUP4 MSTORE SWAP2 PUSH1 0x20 ADD SWAP2 PUSH2 0x2B6 JUMP JUMPDEST DUP3 ADD SWAP2 SWAP1 PUSH0 MSTORE PUSH1 0x20 PUSH0 KECCAK256 SWAP1 JUMPDEST DUP2 SLOAD DUP2 MSTORE SWAP1 PUSH1 0x1 ADD SWAP1 PUSH1 0x20 ADD DUP1 DUP4 GT PUSH2 0x299 JUMPI DUP3 SWAP1 SUB PUSH1 0x1F AND DUP3 ADD SWAP2 JUMPDEST POP POP POP POP POP SWAP1 DUP1 PUSH1 0x3 ADD DUP1 SLOAD PUSH2 0x2CB SWAP1 PUSH2 0x944 JUMP JUMPDEST DUP1 PUSH1 0x1F ADD PUSH1 0x20 DUP1 SWAP2 DIV MUL PUSH1 0x20 ADD PUSH1 0x40 MLOAD SWAP1 DUP2 ADD PUSH1 0x40 MSTORE DUP1 SWAP3 SWAP2 SWAP1 DUP2 DUP2 MSTORE PUSH1 0x20 ADD DUP3 DUP1 SLOAD PUSH2 0x2F7 SWAP1 PUSH2 0x944 JUMP JUMPDEST DUP1 ISZERO PUSH2 0x342 JUMPI DUP1 PUSH1 0x1F LT PUSH2 0x319 JUMPI PUSH2 0x100 DUP1 DUP4 SLOAD DIV MUL DUP4 MSTORE SWAP2 PUSH1 0x20 ADD SWAP2 PUSH2 0x342 JUMP JUMPDEST DUP3 ADD SWAP2 SWAP1 PUSH0 MSTORE PUSH1 0x20 PUSH0 KECCAK256 SWAP1 JUMPDEST DUP2 SLOAD DUP2 MSTORE SWAP1 PUSH1 0x1 ADD SWAP1 PUSH1 0x20 ADD DUP1 DUP4 GT PUSH2 0x325 JUMPI DUP3 SWAP1 SUB PUSH1 0x1F AND DUP3 ADD SWAP2 JUMPDEST POP POP POP POP POP SWAP1 POP DUP5 JUMP JUMPDEST PUSH0 DUP1 DUP3 DUP2 SLOAD DUP2 LT PUSH2 0x360 JUMPI PUSH2 0x35F PUSH2 0xBE0 JUMP JUMPDEST JUMPDEST SWAP1 PUSH0 MSTORE PUSH1 0x20 PUSH0 KECCAK256 SWAP1 PUSH1 0x5 MUL ADD PUSH0 ADD SLOAD PUSH0 DUP4 DUP2 SLOAD DUP2 LT PUSH2 0x382 JUMPI PUSH2 0x381 PUSH2 0xBE0 JUMP JUMPDEST JUMPDEST SWAP1 PUSH0 MSTORE PUSH1 0x20 PUSH0 KECCAK256 SWAP1 PUSH1 0x5 MUL ADD PUSH1 0x1 ADD PUSH1 0x40 MLOAD PUSH1 0x20 ADD PUSH2 0x3A2 SWAP3 SWAP2 SWAP1 PUSH2 0xCB7 JUMP JUMPDEST PUSH1 0x40 MLOAD PUSH1 0x20 DUP2 DUP4 SUB SUB DUP2 MSTORE SWAP1 PUSH1 0x40 MSTORE DUP1 MLOAD SWAP1 PUSH1 0x20 ADD KECCAK256 SWAP1 POP SWAP2 SWAP1 POP JUMP JUMPDEST DUP3 DUP1 SLOAD DUP3 DUP3 SSTORE SWAP1 PUSH0 MSTORE PUSH1 0x20 PUSH0 KECCAK256 SWAP1 DUP2 ADD SWAP3 DUP3 ISZERO PUSH2 0x405 JUMPI SWAP2 PUSH1 0x20 MUL DUP3 ADD JUMPDEST DUP3 DUP2 GT ISZERO PUSH2 0x404 JUMPI DUP3 MLOAD DUP3 SWAP1 DUP2 PUSH2 0x3F4 SWAP2 SWAP1 PUSH2 0xB11 JUMP JUMPDEST POP SWAP2 PUSH1 0x20 ADD SWAP2 SWAP1 PUSH1 0x1 ADD SWAP1 PUSH2 0x3DD JUMP JUMPDEST JUMPDEST POP SWAP1 POP PUSH2 0x412 SWAP2 SWAP1 PUSH2 0x416 JUMP JUMPDEST POP SWAP1 JUMP JUMPDEST JUMPDEST DUP1 DUP3 GT ISZERO PUSH2 0x435 JUMPI PUSH0 DUP2 DUP2 PUSH2 0x42C SWAP2 SWAP1 PUSH2 0x439 JUMP JUMPDEST POP PUSH1 0x1 ADD PUSH2 0x417 JUMP JUMPDEST POP SWAP1 JUMP JUMPDEST POP DUP1 SLOAD PUSH2 0x445 SWAP1 PUSH2 0x944 JUMP JUMPDEST PUSH0 DUP3 SSTORE DUP1 PUSH1 0x1F LT PUSH2 0x456 JUMPI POP PUSH2 0x473 JUMP JUMPDEST PUSH1 0x1F ADD PUSH1 0x20 SWAP1 DIV SWAP1 PUSH0 MSTORE PUSH1 0x20 PUSH0 KECCAK256 SWAP1 DUP2 ADD SWAP1 PUSH2 0x472 SWAP2 SWAP1 PUSH2 0x476 JUMP JUMPDEST JUMPDEST POP JUMP JUMPDEST JUMPDEST DUP1 DUP3 GT ISZERO PUSH2 0x48D JUMPI PUSH0 DUP2 PUSH0 SWAP1 SSTORE POP PUSH1 0x1 ADD PUSH2 0x477 JUMP JUMPDEST POP SWAP1 JUMP JUMPDEST PUSH0 PUSH1 0x40 MLOAD SWAP1 POP SWAP1 JUMP JUMPDEST PUSH0 DUP1 REVERT JUMPDEST PUSH0 DUP1 REVERT JUMPDEST PUSH0 DUP2 SWAP1 POP SWAP2 SWAP1 POP JUMP JUMPDEST PUSH2 0x4B4 DUP2 PUSH2 0x4A2 JUMP JUMPDEST DUP2 EQ PUSH2 0x4BE JUMPI PUSH0 DUP1 REVERT JUMPDEST POP JUMP JUMPDEST PUSH0 DUP2 CALLDATALOAD SWAP1 POP PUSH2 0x4CF DUP2 PUSH2 0x4AB JUMP JUMPDEST SWAP3 SWAP2 POP POP JUMP JUMPDEST PUSH0 DUP1 REVERT JUMPDEST PUSH0 DUP1 REVERT JUMPDEST PUSH0 PUSH1 0x1F NOT PUSH1 0x1F DUP4 ADD AND SWAP1 POP SWAP2 SWAP1 POP JUMP JUMPDEST PUSH32 0x4E487B7100000000000000000000000000000000000000000000000000000000 PUSH0 MSTORE PUSH1 0x41 PUSH1 0x4 MSTORE PUSH1 0x24 PUSH0 REVERT JUMPDEST PUSH2 0x523 DUP3 PUSH2 0x4DD JUMP JUMPDEST DUP2 ADD DUP2 DUP2 LT PUSH8 0xFFFFFFFFFFFFFFFF DUP3 GT OR ISZERO PUSH2 0x542 JUMPI PUSH2 0x541 PUSH2 0x4ED JUMP JUMPDEST JUMPDEST DUP1 PUSH1 0x40 MSTORE POP POP POP JUMP JUMPDEST PUSH0 PUSH2 0x554 PUSH2 0x491 JUMP JUMPDEST SWAP1 POP PUSH2 0x560 DUP3 DUP3 PUSH2 0x51A JUMP JUMPDEST SWAP2 SWAP1 POP JUMP JUMPDEST PUSH0 PUSH8 0xFFFFFFFFFFFFFFFF DUP3 GT ISZERO PUSH2 0x57F JUMPI PUSH2 0x57E PUSH2 0x4ED JUMP JUMPDEST JUMPDEST PUSH2 0x588 DUP3 PUSH2 0x4DD JUMP JUMPDEST SWAP1 POP PUSH1 0x20 DUP2 ADD SWAP1 POP SWAP2 SWAP1 POP JUMP JUMPDEST DUP3 DUP2 DUP4 CALLDATACOPY PUSH0 DUP4 DUP4 ADD MSTORE POP POP POP JUMP JUMPDEST PUSH0 PUSH2 0x5B5 PUSH2 0x5B0 DUP5 PUSH2 0x565 JUMP JUMPDEST PUSH2 0x54B JUMP JUMPDEST SWAP1 POP DUP3 DUP2 MSTORE PUSH1 0x20 DUP2 ADD DUP5 DUP5 DUP5 ADD GT ISZERO PUSH2 0x5D1 JUMPI PUSH2 0x5D0 PUSH2 0x4D9 JUMP JUMPDEST JUMPDEST PUSH2 0x5DC DUP5 DUP3 DUP6 PUSH2 0x595 JUMP JUMPDEST POP SWAP4 SWAP3 POP POP POP JUMP JUMPDEST PUSH0 DUP3 PUSH1 0x1F DUP4 ADD SLT PUSH2 0x5F8 JUMPI PUSH2 0x5F7 PUSH2 0x4D5 JUMP JUMPDEST JUMPDEST DUP2 CALLDATALOAD PUSH2 0x608 DUP5 DUP3 PUSH1 0x20 DUP7 ADD PUSH2 0x5A3 JUMP JUMPDEST SWAP2 POP POP SWAP3 SWAP2 POP POP JUMP JUMPDEST PUSH0 PUSH8 0xFFFFFFFFFFFFFFFF DUP3 GT ISZERO PUSH2 0x62B JUMPI PUSH2 0x62A PUSH2 0x4ED JUMP JUMPDEST JUMPDEST PUSH1 0x20 DUP3 MUL SWAP1 POP PUSH1 0x20 DUP2 ADD SWAP1 POP SWAP2 SWAP1 POP JUMP JUMPDEST PUSH0 DUP1 REVERT JUMPDEST PUSH0 PUSH2 0x652 PUSH2 0x64D DUP5 PUSH2 0x611 JUMP JUMPDEST PUSH2 0x54B JUMP JUMPDEST SWAP1 POP DUP1 DUP4 DUP3 MSTORE PUSH1 0x20 DUP3 ADD SWAP1 POP PUSH1 0x20 DUP5 MUL DUP4 ADD DUP6 DUP2 GT ISZERO PUSH2 0x675 JUMPI PUSH2 0x674 PUSH2 0x63C JUMP JUMPDEST JUMPDEST DUP4 JUMPDEST DUP2 DUP2 LT ISZERO PUSH2 0x6BC JUMPI DUP1 CALLDATALOAD PUSH8 0xFFFFFFFFFFFFFFFF DUP2 GT ISZERO PUSH2 0x69A JUMPI PUSH2 0x699 PUSH2 0x4D5 JUMP JUMPDEST JUMPDEST DUP1 DUP7 ADD PUSH2 0x6A7 DUP10 DUP3 PUSH2 0x5E4 JUMP JUMPDEST DUP6 MSTORE PUSH1 0x20 DUP6 ADD SWAP5 POP POP POP PUSH1 0x20 DUP2 ADD SWAP1 POP PUSH2 0x677 JUMP JUMPDEST POP POP POP SWAP4 SWAP3 POP POP POP JUMP JUMPDEST PUSH0 DUP3 PUSH1 0x1F DUP4 ADD SLT PUSH2 0x6DA JUMPI PUSH2 0x6D9 PUSH2 0x4D5 JUMP JUMPDEST JUMPDEST DUP2 CALLDATALOAD PUSH2 0x6EA DUP5 DUP3 PUSH1 0x20 DUP7 ADD PUSH2 0x640 JUMP JUMPDEST SWAP2 POP POP SWAP3 SWAP2 POP POP JUMP JUMPDEST PUSH0 DUP1 PUSH0 DUP1 PUSH0 PUSH1 0xA0 DUP7 DUP9 SUB SLT ISZERO PUSH2 0x70C JUMPI PUSH2 0x70B PUSH2 0x49A JUMP JUMPDEST JUMPDEST PUSH0 PUSH2 0x719 DUP9 DUP3 DUP10 ADD PUSH2 0x4C1 JUMP JUMPDEST SWAP6 POP POP PUSH1 0x20 DUP7 ADD CALLDATALOAD PUSH8 0xFFFFFFFFFFFFFFFF DUP2 GT ISZERO PUSH2 0x73A JUMPI PUSH2 0x739 PUSH2 0x49E JUMP JUMPDEST JUMPDEST PUSH2 0x746 DUP9 DUP3 DUP10 ADD PUSH2 0x5E4 JUMP JUMPDEST SWAP5 POP POP PUSH1 0x40 DUP7 ADD CALLDATALOAD PUSH8 0xFFFFFFFFFFFFFFFF DUP2 GT ISZERO PUSH2 0x767 JUMPI PUSH2 0x766 PUSH2 0x49E JUMP JUMPDEST JUMPDEST PUSH2 0x773 DUP9 DUP3 DUP10 ADD PUSH2 0x5E4 JUMP JUMPDEST SWAP4 POP POP PUSH1 0x60 DUP7 ADD CALLDATALOAD PUSH8 0xFFFFFFFFFFFFFFFF DUP2 GT ISZERO PUSH2 0x794 JUMPI PUSH2 0x793 PUSH2 0x49E JUMP JUMPDEST JUMPDEST PUSH2 0x7A0 DUP9 DUP3 DUP10 ADD PUSH2 0x5E4 JUMP JUMPDEST SWAP3 POP POP PUSH1 0x80 DUP7 ADD CALLDATALOAD PUSH8 0xFFFFFFFFFFFFFFFF DUP2 GT ISZERO PUSH2 0x7C1 JUMPI PUSH2 0x7C0 PUSH2 0x49E JUMP JUMPDEST JUMPDEST PUSH2 0x7CD DUP9 DUP3 DUP10 ADD PUSH2 0x6C6 JUMP JUMPDEST SWAP2 POP POP SWAP3 SWAP6 POP SWAP3 SWAP6 SWAP1 SWAP4 POP JUMP JUMPDEST PUSH0 PUSH1 0x20 DUP3 DUP5 SUB SLT ISZERO PUSH2 0x7EF JUMPI PUSH2 0x7EE PUSH2 0x49A JUMP JUMPDEST JUMPDEST PUSH0 PUSH2 0x7FC DUP5 DUP3 DUP6 ADD PUSH2 0x4C1 JUMP JUMPDEST SWAP2 POP POP SWAP3 SWAP2 POP POP JUMP JUMPDEST PUSH2 0x80E DUP2 PUSH2 0x4A2 JUMP JUMPDEST DUP3 MSTORE POP POP JUMP JUMPDEST PUSH0 DUP2 MLOAD SWAP1 POP SWAP2 SWAP1 POP JUMP JUMPDEST PUSH0 DUP3 DUP3 MSTORE PUSH1 0x20 DUP3 ADD SWAP1 POP SWAP3 SWAP2 POP POP JUMP JUMPDEST PUSH0 JUMPDEST DUP4 DUP2 LT ISZERO PUSH2 0x84B JUMPI DUP1 DUP3 ADD MLOAD DUP2 DUP5 ADD MSTORE PUSH1 0x20 DUP2 ADD SWAP1 POP PUSH2 0x830 JUMP JUMPDEST PUSH0 DUP5 DUP5 ADD MSTORE POP POP POP POP JUMP JUMPDEST PUSH0 PUSH2 0x860 DUP3 PUSH2 0x814 JUMP JUMPDEST PUSH2 0x86A DUP2 DUP6 PUSH2 0x81E JUMP JUMPDEST SWAP4 POP PUSH2 0x87A DUP2 DUP6 PUSH1 0x20 DUP7 ADD PUSH2 0x82E JUMP JUMPDEST PUSH2 0x883 DUP2 PUSH2 0x4DD JUMP JUMPDEST DUP5 ADD SWAP2 POP POP SWAP3 SWAP2 POP POP JUMP JUMPDEST PUSH0 PUSH1 0x80 DUP3 ADD SWAP1 POP PUSH2 0x8A1 PUSH0 DUP4 ADD DUP8 PUSH2 0x805 JUMP JUMPDEST DUP2 DUP2 SUB PUSH1 0x20 DUP4 ADD MSTORE PUSH2 0x8B3 DUP2 DUP7 PUSH2 0x856 JUMP JUMPDEST SWAP1 POP DUP2 DUP2 SUB PUSH1 0x40 DUP4 ADD MSTORE PUSH2 0x8C7 DUP2 DUP6 PUSH2 0x856 JUMP JUMPDEST SWAP1 POP DUP2 DUP2 SUB PUSH1 0x60 DUP4 ADD MSTORE PUSH2 0x8DB DUP2 DUP5 PUSH2 0x856 JUMP JUMPDEST SWAP1 POP SWAP6 SWAP5 POP POP POP POP POP JUMP JUMPDEST PUSH0 DUP2 SWAP1 POP SWAP2 SWAP1 POP JUMP JUMPDEST PUSH2 0x8F8 DUP2 PUSH2 0x8E6 JUMP JUMPDEST DUP3 MSTORE POP POP JUMP JUMPDEST PUSH0 PUSH1 0x20 DUP3 ADD SWAP1 POP PUSH2 0x911 PUSH0 DUP4 ADD DUP5 PUSH2 0x8EF JUMP JUMPDEST SWAP3 SWAP2 POP POP JUMP JUMPDEST PUSH32 0x4E487B7100000000000000000000000000000000000000000000000000000000 PUSH0 MSTORE PUSH1 0x22 PUSH1 0x4 MSTORE PUSH1 0x24 PUSH0 REVERT JUMPDEST PUSH0 PUSH1 0x2 DUP3 DIV SWAP1 POP PUSH1 0x1 DUP3 AND DUP1 PUSH2 0x95B JUMPI PUSH1 0x7F DUP3 AND SWAP2 POP JUMPDEST PUSH1 0x20 DUP3 LT DUP2 SUB PUSH2 0x96E JUMPI PUSH2 0x96D PUSH2 0x917 JUMP JUMPDEST JUMPDEST POP SWAP2 SWAP1 POP JUMP JUMPDEST PUSH0 DUP2 SWAP1 POP DUP2 PUSH0 MSTORE PUSH1 0x20 PUSH0 KECCAK256 SWAP1 POP SWAP2 SWAP1 POP JUMP JUMPDEST PUSH0 PUSH1 0x20 PUSH1 0x1F DUP4 ADD DIV SWAP1 POP SWAP2 SWAP1 POP JUMP JUMPDEST PUSH0 DUP3 DUP3 SHL SWAP1 POP SWAP3 SWAP2 POP POP JUMP JUMPDEST PUSH0 PUSH1 0x8 DUP4 MUL PUSH2 0x9D0 PUSH32 0xFFFFFFFFFFFFFFFFFFFFFFFFFFFFFFFFFFFFFFFFFFFFFFFFFFFFFFFFFFFFFFFF DUP3 PUSH2 0x995 JUMP JUMPDEST PUSH2 0x9DA DUP7 DUP4 PUSH2 0x995 JUMP JUMPDEST SWAP6 POP DUP1 NOT DUP5 AND SWAP4 POP DUP1 DUP7 AND DUP5 OR SWAP3 POP POP POP SWAP4 SWAP3 POP POP POP JUMP JUMPDEST PUSH0 DUP2 SWAP1 POP SWAP2 SWAP1 POP JUMP JUMPDEST PUSH0 PUSH2 0xA15 PUSH2 0xA10 PUSH2 0xA0B DUP5 PUSH2 0x4A2 JUMP JUMPDEST PUSH2 0x9F2 JUMP JUMPDEST PUSH2 0x4A2 JUMP JUMPDEST SWAP1 POP SWAP2 SWAP1 POP JUMP JUMPDEST PUSH0 DUP2 SWAP1 POP SWAP2 SWAP1 POP JUMP JUMPDEST PUSH2 0xA2E DUP4 PUSH2 0x9FB JUMP JUMPDEST PUSH2 0xA42 PUSH2 0xA3A DUP3 PUSH2 0xA1C JUMP JUMPDEST DUP5 DUP5 SLOAD PUSH2 0x9A1 JUMP JUMPDEST DUP3 SSTORE POP POP POP POP JUMP JUMPDEST PUSH0 SWAP1 JUMP JUMPDEST PUSH2 0xA56 PUSH2 0xA4A JUMP JUMPDEST PUSH2 0xA61 DUP2 DUP5 DUP5 PUSH2 0xA25 JUMP JUMPDEST POP POP POP JUMP JUMPDEST JUMPDEST DUP2 DUP2 LT ISZERO PUSH2 0xA84 JUMPI PUSH2 0xA79 PUSH0 DUP3 PUSH2 0xA4E JUMP JUMPDEST PUSH1 0x1 DUP2 ADD SWAP1 POP PUSH2 0xA67 JUMP JUMPDEST POP POP JUMP JUMPDEST PUSH1 0x1F DUP3 GT ISZERO PUSH2 0xAC9 JUMPI PUSH2 0xA9A DUP2 PUSH2 0x974 JUMP JUMPDEST PUSH2 0xAA3 DUP5 PUSH2 0x986 JUMP JUMPDEST DUP2 ADD PUSH1 0x20 DUP6 LT ISZERO PUSH2 0xAB2 JUMPI DUP2 SWAP1 POP JUMPDEST PUSH2 0xAC6 PUSH2 0xABE DUP6 PUSH2 0x986 JUMP JUMPDEST DUP4 ADD DUP3 PUSH2 0xA66 JUMP JUMPDEST POP POP JUMPDEST POP POP POP JUMP JUMPDEST PUSH0 DUP3 DUP3 SHR SWAP1 POP SWAP3 SWAP2 POP POP JUMP JUMPDEST PUSH0 PUSH2 0xAE9 PUSH0 NOT DUP5 PUSH1 0x8 MUL PUSH2 0xACE JUMP JUMPDEST NOT DUP1 DUP4 AND SWAP2 POP POP SWAP3 SWAP2 POP POP JUMP JUMPDEST PUSH0 PUSH2 0xB01 DUP4 DUP4 PUSH2 0xADA JUMP JUMPDEST SWAP2 POP DUP3 PUSH1 0x2 MUL DUP3 OR SWAP1 POP SWAP3 SWAP2 POP POP JUMP JUMPDEST PUSH2 0xB1A DUP3 PUSH2 0x814 JUMP JUMPDEST PUSH8 0xFFFFFFFFFFFFFFFF DUP2 GT ISZERO PUSH2 0xB33 JUMPI PUSH2 0xB32 PUSH2 0x4ED JUMP JUMPDEST JUMPDEST PUSH2 0xB3D DUP3 SLOAD PUSH2 0x944 JUMP JUMPDEST PUSH2 0xB48 DUP3 DUP3 DUP6 PUSH2 0xA88 JUMP JUMPDEST PUSH0 PUSH1 0x20 SWAP1 POP PUSH1 0x1F DUP4 GT PUSH1 0x1 DUP2 EQ PUSH2 0xB79 JUMPI PUSH0 DUP5 ISZERO PUSH2 0xB67 JUMPI DUP3 DUP8 ADD MLOAD SWAP1 POP JUMPDEST PUSH2 0xB71 DUP6 DUP3 PUSH2 0xAF6 JUMP JUMPDEST DUP7 SSTORE POP PUSH2 0xBD8 JUMP JUMPDEST PUSH1 0x1F NOT DUP5 AND PUSH2 0xB87 DUP7 PUSH2 0x974 JUMP JUMPDEST PUSH0 JUMPDEST DUP3 DUP2 LT ISZERO PUSH2 0xBAE JUMPI DUP5 DUP10 ADD MLOAD DUP3 SSTORE PUSH1 0x1 DUP3 ADD SWAP2 POP PUSH1 0x20 DUP6 ADD SWAP5 POP PUSH1 0x20 DUP2 ADD SWAP1 POP PUSH2 0xB89 JUMP JUMPDEST DUP7 DUP4 LT ISZERO PUSH2 0xBCB JUMPI DUP5 DUP10 ADD MLOAD PUSH2 0xBC7 PUSH1 0x1F DUP10 AND DUP3 PUSH2 0xADA JUMP JUMPDEST DUP4 SSTORE POP JUMPDEST PUSH1 0x1 PUSH1 0x2 DUP9 MUL ADD DUP9 SSTORE POP POP POP JUMPDEST POP POP POP POP POP POP JUMP JUMPDEST PUSH32 0x4E487B7100000000000000000000000000000000000000000000000000000000 PUSH0 MSTORE PUSH1 0x32 PUSH1 0x4 MSTORE PUSH1 0x24 PUSH0 REVERT JUMPDEST PUSH0 DUP2 SWAP1 POP SWAP2 SWAP1 POP JUMP JUMPDEST PUSH2 0xC27 PUSH2 0xC22 DUP3 PUSH2 0x4A2 JUMP JUMPDEST PUSH2 0xC0D JUMP JUMPDEST DUP3 MSTORE POP POP JUMP JUMPDEST PUSH0 DUP2 SWAP1 POP SWAP3 SWAP2 POP POP JUMP JUMPDEST PUSH0 DUP2 SLOAD PUSH2 0xC43 DUP2 PUSH2 0x944 JUMP JUMPDEST PUSH2 0xC4D DUP2 DUP7 PUSH2 0xC2D JUMP JUMPDEST SWAP5 POP PUSH1 0x1 DUP3 AND PUSH0 DUP2 EQ PUSH2 0xC67 JUMPI PUSH1 0x1 DUP2 EQ PUSH2 0xC7C JUMPI PUSH2 0xCAE JUMP JUMPDEST PUSH1 0xFF NOT DUP4 AND DUP7 MSTORE DUP2 ISZERO ISZERO DUP3 MUL DUP7 ADD SWAP4 POP PUSH2 0xCAE JUMP JUMPDEST PUSH2 0xC85 DUP6 PUSH2 0x974 JUMP JUMPDEST PUSH0 JUMPDEST DUP4 DUP2 LT ISZERO PUSH2 0xCA6 JUMPI DUP2 SLOAD DUP2 DUP10 ADD MSTORE PUSH1 0x1 DUP3 ADD SWAP2 POP PUSH1 0x20 DUP2 ADD SWAP1 POP PUSH2 0xC87 JUMP JUMPDEST DUP4 DUP9 ADD SWAP6 POP POP POP JUMPDEST POP POP POP SWAP3 SWAP2 POP POP JUMP JUMPDEST PUSH0 PUSH2 0xCC2 DUP3 DUP6 PUSH2 0xC16 JUMP JUMPDEST PUSH1 0x20 DUP3 ADD SWAP2 POP PUSH2 0xCD2 DUP3 DUP5 PUSH2 0xC37 JUMP JUMPDEST SWAP2 POP DUP2 SWAP1 POP SWAP4 SWAP3 POP POP POP JUMP INVALID LOG2 PUSH5 0x6970667358 0x22 SLT KECCAK256 0x1E CREATE BLOCKHASH RETURNDATACOPY PUSH16 0xE762B570A26A3D1929B6CF70B4595E02 0xDD 0xA5 0xA9 ADD 0xC3 0xDD MOD DUP4 0xBA PC SIGNEXTEND PUSH5 0x736F6C6343 STOP ADDMOD XOR STOP CALLER "
				},
				"gasEstimates": {
					"creation": {
						"codeDepositCost": "669600",
						"executionCost": "700",
						"totalCost": "670300"
					},
					"external": {
						"addDataUsage(uint256,string,string,string,string[])": "infinite",
						"dataUsages(uint256)": "infinite",
						"getPurposeHash(uint256)": "infinite"
					}
				},
				"methodIdentifiers": {
					"addDataUsage(uint256,string,string,string,string[])": "e6bb0535",
					"dataUsages(uint256)": "f0d6e1ec",
					"getPurposeHash(uint256)": "ff042fc8"
				}
			},
			"storageLayout": {
				"storage": [
					{
						"astId": 71,
						"contract": "contracts/DataUsageSmartContract.sol:DataUsageSmartContract",
						"label": "dataUsages",
						"offset": 0,
						"slot": "0",
						"type": "t_array(t_struct(DataUsage)67_storage)dyn_storage"
					}
				],
				"types": {
					"t_array(t_string_storage)dyn_storage": {
						"base": "t_string_storage",
						"encoding": "dynamic_array",
						"label": "string[]",
						"numberOfBytes": "32"
					},
					"t_array(t_struct(DataUsage)67_storage)dyn_storage": {
						"base": "t_struct(DataUsage)67_storage",
						"encoding": "dynamic_array",
						"label": "struct DataUsageSmartContract.DataUsage[]",
						"numberOfBytes": "32"
					},
					"t_string_storage": {
						"encoding": "bytes",
						"label": "string",
						"numberOfBytes": "32"
					},
					"t_struct(DataUsage)67_storage": {
						"encoding": "inplace",
						"label": "struct DataUsageSmartContract.DataUsage",
						"members": [
							{
								"astId": 57,
								"contract": "contracts/DataUsageSmartContract.sol:DataUsageSmartContract",
								"label": "actorID",
								"offset": 0,
								"slot": "0",
								"type": "t_uint256"
							},
							{
								"astId": 59,
								"contract": "contracts/DataUsageSmartContract.sol:DataUsageSmartContract",
								"label": "serviceName",
								"offset": 0,
								"slot": "1",
								"type": "t_string_storage"
							},
							{
								"astId": 61,
								"contract": "contracts/DataUsageSmartContract.sol:DataUsageSmartContract",
								"label": "servicePurpose",
								"offset": 0,
								"slot": "2",
								"type": "t_string_storage"
							},
							{
								"astId": 63,
								"contract": "contracts/DataUsageSmartContract.sol:DataUsageSmartContract",
								"label": "operation",
								"offset": 0,
								"slot": "3",
								"type": "t_string_storage"
							},
							{
								"astId": 66,
								"contract": "contracts/DataUsageSmartContract.sol:DataUsageSmartContract",
								"label": "personalData",
								"offset": 0,
								"slot": "4",
								"type": "t_array(t_string_storage)dyn_storage"
							}
						],
						"numberOfBytes": "160"
					},
					"t_uint256": {
						"encoding": "inplace",
						"label": "uint256",
						"numberOfBytes": "32"
					}
				}
			},
			"userdoc": {
				"kind": "user",
				"methods": {},
				"version": 1
			}
		}
	}
}