{
	"contracts/LogSmartContract.sol": {
		"LogSmartContract": {
			"abi": [
				{
					"inputs": [
						{
							"internalType": "address",
							"name": "_dataUsageSmartContractAddress",
							"type": "address"
						}
					],
					"stateMutability": "nonpayable",
					"type": "constructor"
				},
				{
					"anonymous": false,
					"inputs": [
						{
							"indexed": false,
							"internalType": "uint256",
							"name": "dataUsageId",
							"type": "uint256"
						}
					],
					"name": "LogAdded",
					"type": "event"
				},
				{
					"inputs": [
						{
							"internalType": "uint256",
							"name": "_dataUsageId",
							"type": "uint256"
						}
					],
					"name": "addLog",
					"outputs": [],
					"stateMutability": "nonpayable",
					"type": "function"
				},
				{
					"inputs": [
						{
							"internalType": "uint256",
							"name": "_dataUsageId",
							"type": "uint256"
						}
					],
					"name": "getLogByKey",
					"outputs": [
						{
							"components": [
								{
									"internalType": "uint256",
									"name": "dataUsageId",
									"type": "uint256"
								},
								{
									"internalType": "uint256",
									"name": "actorId",
									"type": "uint256"
								},
								{
									"internalType": "string[]",
									"name": "operations",
									"type": "string[]"
								},
								{
									"internalType": "string",
									"name": "serviceName",
									"type": "string"
								},
								{
									"internalType": "bytes32[]",
									"name": "processedPersonalDatas",
									"type": "bytes32[]"
								}
							],
							"internalType": "struct LogSmartContract.Log",
							"name": "",
							"type": "tuple"
						}
					],
					"stateMutability": "view",
					"type": "function"
				},
				{
					"inputs": [],
					"name": "getLogCounter",
					"outputs": [
						{
							"internalType": "uint256",
							"name": "",
							"type": "uint256"
						}
					],
					"stateMutability": "view",
					"type": "function"
				},
				{
					"inputs": [],
					"name": "owner",
					"outputs": [
						{
							"internalType": "address",
							"name": "",
							"type": "address"
						}
					],
					"stateMutability": "view",
					"type": "function"
				}
			],
			"devdoc": {
				"kind": "dev",
				"methods": {},
				"version": 1
			},
			"evm": {
				"assembly": "    /* \"contracts/LogSmartContract.sol\":128:2637  contract LogSmartContract is AccessControl {... */\n  mstore(0x40, 0x80)\n    /* \"contracts/LogSmartContract.sol\":856:857  0 */\n  0x00\n    /* \"contracts/LogSmartContract.sol\":830:857  uint private logCounter = 0 */\n  0x04\n  sstore\n    /* \"contracts/LogSmartContract.sol\":997:1254  constructor(address _dataUsageSmartContractAddress) {... */\n  callvalue\n  dup1\n  iszero\n  tag_1\n  jumpi\n  0x00\n  dup1\n  revert\ntag_1:\n  pop\n  mload(0x40)\n  sub(codesize, bytecodeSize)\n  dup1\n  bytecodeSize\n  dup4\n  codecopy\n  dup2\n  add\n  0x40\n  dup2\n  swap1\n  mstore\n  tag_2\n  swap2\n  tag_3\n  jump\t// in\ntag_2:\n    /* \"contracts/AccessControl.sol\":272:277  owner */\n  0x00\n    /* \"contracts/AccessControl.sol\":272:290  owner = msg.sender */\n  dup1\n  sload\n  not(sub(shl(0xa0, 0x01), 0x01))\n  swap1\n  dup2\n  and\n    /* \"contracts/AccessControl.sol\":280:290  msg.sender */\n  caller\n    /* \"contracts/AccessControl.sol\":272:290  owner = msg.sender */\n  or\n  swap1\n  swap2\n  sstore\n  0x01\n    /* \"contracts/LogSmartContract.sol\":1059:1138  dataUsageSmartContract = DataUsageSmartContract(_dataUsageSmartContractAddress) */\n  dup1\n  sload\n  sub(shl(0xa0, 0x01), 0x01)\n  dup5\n  and\n  swap3\n  and\n  dup3\n  or\n  swap1\n  sstore\n    /* \"contracts/LogSmartContract.sol\":1148:1247  require(_dataUsageSmartContractAddress != address(0), \"DataUsageSmartContract address is invalid.\") */\n  tag_8\n  jumpi\n  mload(0x40)\n  shl(0xe5, 0x461bcd)\n  dup2\n  mstore\n    /* \"#utility.yul\":511:513   */\n  0x20\n    /* \"contracts/LogSmartContract.sol\":1148:1247  require(_dataUsageSmartContractAddress != address(0), \"DataUsageSmartContract address is invalid.\") */\n  0x04\n  dup3\n  add\n    /* \"#utility.yul\":493:514   */\n  mstore\n    /* \"#utility.yul\":550:552   */\n  0x2a\n    /* \"#utility.yul\":530:548   */\n  0x24\n  dup3\n  add\n    /* \"#utility.yul\":523:553   */\n  mstore\n    /* \"#utility.yul\":589:623   */\n  0x446174615573616765536d617274436f6e747261637420616464726573732069\n    /* \"#utility.yul\":569:587   */\n  0x44\n  dup3\n  add\n    /* \"#utility.yul\":562:624   */\n  mstore\n  shl(0xb1, 0x399034b73b30b634b217)\n    /* \"#utility.yul\":640:658   */\n  0x64\n  dup3\n  add\n    /* \"#utility.yul\":633:673   */\n  mstore\n    /* \"#utility.yul\":690:709   */\n  0x84\n  add\n    /* \"contracts/LogSmartContract.sol\":1148:1247  require(_dataUsageSmartContractAddress != address(0), \"DataUsageSmartContract address is invalid.\") */\n  mload(0x40)\n  dup1\n  swap2\n  sub\n  swap1\n  revert\ntag_8:\n    /* \"contracts/LogSmartContract.sol\":997:1254  constructor(address _dataUsageSmartContractAddress) {... */\n  pop\n    /* \"contracts/LogSmartContract.sol\":128:2637  contract LogSmartContract is AccessControl {... */\n  jump(tag_12)\n    /* \"#utility.yul\":14:304   */\ntag_3:\n    /* \"#utility.yul\":84:90   */\n  0x00\n    /* \"#utility.yul\":137:139   */\n  0x20\n    /* \"#utility.yul\":125:134   */\n  dup3\n    /* \"#utility.yul\":116:123   */\n  dup5\n    /* \"#utility.yul\":112:135   */\n  sub\n    /* \"#utility.yul\":108:140   */\n  slt\n    /* \"#utility.yul\":105:157   */\n  iszero\n  tag_14\n  jumpi\n    /* \"#utility.yul\":153:154   */\n  0x00\n    /* \"#utility.yul\":150:151   */\n  dup1\n    /* \"#utility.yul\":143:155   */\n  revert\n    /* \"#utility.yul\":105:157   */\ntag_14:\n    /* \"#utility.yul\":179:195   */\n  dup2\n  mload\n  sub(shl(0xa0, 0x01), 0x01)\n    /* \"#utility.yul\":224:255   */\n  dup2\n  and\n    /* \"#utility.yul\":214:256   */\n  dup2\n  eq\n    /* \"#utility.yul\":204:274   */\n  tag_15\n  jumpi\n    /* \"#utility.yul\":270:271   */\n  0x00\n    /* \"#utility.yul\":267:268   */\n  dup1\n    /* \"#utility.yul\":260:272   */\n  revert\n    /* \"#utility.yul\":204:274   */\ntag_15:\n    /* \"#utility.yul\":293:298   */\n  swap4\n    /* \"#utility.yul\":14:304   */\n  swap3\n  pop\n  pop\n  pop\n  jump\t// out\n    /* \"#utility.yul\":309:715   */\ntag_12:\n    /* \"contracts/LogSmartContract.sol\":128:2637  contract LogSmartContract is AccessControl {... */\n  dataSize(sub_0)\n  dup1\n  dataOffset(sub_0)\n  0x00\n  codecopy\n  0x00\n  return\nstop\n\nsub_0: assembly {\n        /* \"contracts/LogSmartContract.sol\":128:2637  contract LogSmartContract is AccessControl {... */\n      mstore(0x40, 0x80)\n      callvalue\n      dup1\n      iszero\n      tag_1\n      jumpi\n      0x00\n      dup1\n      revert\n    tag_1:\n      pop\n      jumpi(tag_2, lt(calldatasize, 0x04))\n      shr(0xe0, calldataload(0x00))\n      dup1\n      0x03e4d77f\n      eq\n      tag_3\n      jumpi\n      dup1\n      0x28e8be60\n      eq\n      tag_4\n      jumpi\n      dup1\n      0x3d1fee84\n      eq\n      tag_5\n      jumpi\n      dup1\n      0x8da5cb5b\n      eq\n      tag_6\n      jumpi\n    tag_2:\n      0x00\n      dup1\n      revert\n        /* \"contracts/LogSmartContract.sol\":2351:2543  function getLogByKey(uint _dataUsageId) public view returns (Log memory) {... */\n    tag_3:\n      tag_7\n      tag_8\n      calldatasize\n      0x04\n      tag_9\n      jump\t// in\n    tag_8:\n      tag_10\n      jump\t// in\n    tag_7:\n      mload(0x40)\n      tag_11\n      swap2\n      swap1\n      tag_12\n      jump\t// in\n    tag_11:\n      mload(0x40)\n      dup1\n      swap2\n      sub\n      swap1\n      return\n        /* \"contracts/LogSmartContract.sol\":2549:2635  function getLogCounter() public view returns (uint) {... */\n    tag_4:\n        /* \"contracts/LogSmartContract.sol\":2618:2628  logCounter */\n      sload(0x04)\n        /* \"contracts/LogSmartContract.sol\":2549:2635  function getLogCounter() public view returns (uint) {... */\n      mload(0x40)\n        /* \"#utility.yul\":2697:2722   */\n      swap1\n      dup2\n      mstore\n        /* \"#utility.yul\":2685:2687   */\n      0x20\n        /* \"#utility.yul\":2670:2688   */\n      add\n        /* \"contracts/LogSmartContract.sol\":2549:2635  function getLogCounter() public view returns (uint) {... */\n      tag_11\n        /* \"#utility.yul\":2551:2728   */\n      jump\n        /* \"contracts/LogSmartContract.sol\":1277:2345  function addLog(uint _dataUsageId) public onlyOwner {... */\n    tag_5:\n      tag_17\n      tag_18\n      calldatasize\n      0x04\n      tag_9\n      jump\t// in\n    tag_18:\n      tag_19\n      jump\t// in\n    tag_17:\n      stop\n        /* \"contracts/AccessControl.sol\":86:106  address public owner */\n    tag_6:\n      sload(0x00)\n      tag_20\n      swap1\n      sub(shl(0xa0, 0x01), 0x01)\n      and\n      dup2\n      jump\n    tag_20:\n      mload(0x40)\n      sub(shl(0xa0, 0x01), 0x01)\n        /* \"#utility.yul\":2897:2929   */\n      swap1\n      swap2\n      and\n        /* \"#utility.yul\":2879:2930   */\n      dup2\n      mstore\n        /* \"#utility.yul\":2867:2869   */\n      0x20\n        /* \"#utility.yul\":2852:2870   */\n      add\n        /* \"contracts/AccessControl.sol\":86:106  address public owner */\n      tag_11\n        /* \"#utility.yul\":2733:2936   */\n      jump\n        /* \"contracts/LogSmartContract.sol\":2351:2543  function getLogByKey(uint _dataUsageId) public view returns (Log memory) {... */\n    tag_10:\n        /* \"contracts/LogSmartContract.sol\":2412:2422  Log memory */\n      tag_24\n      mload(0x40)\n      dup1\n      0xa0\n      add\n      0x40\n      mstore\n      dup1\n      0x00\n      dup2\n      mstore\n      0x20\n      add\n      0x00\n      dup2\n      mstore\n      0x20\n      add\n      0x60\n      dup2\n      mstore\n      0x20\n      add\n      0x60\n      dup2\n      mstore\n      0x20\n      add\n      0x60\n      dup2\n      mstore\n      pop\n      swap1\n      jump\n    tag_24:\n        /* \"contracts/LogSmartContract.sol\":2442:2460  logs[_dataUsageId] */\n      0x00\n      dup3\n      dup2\n      mstore\n        /* \"contracts/LogSmartContract.sol\":2442:2446  logs */\n      0x02\n        /* \"contracts/LogSmartContract.sol\":2442:2460  logs[_dataUsageId] */\n      0x20\n      mstore\n      0x40\n      dup2\n      keccak256\n        /* \"contracts/LogSmartContract.sol\":2442:2472  logs[_dataUsageId].dataUsageId */\n      sload\n        /* \"contracts/LogSmartContract.sol\":2442:2477  logs[_dataUsageId].dataUsageId != 0 */\n      swap1\n      sub\n        /* \"contracts/LogSmartContract.sol\":2434:2501  require(logs[_dataUsageId].dataUsageId != 0, \"Log does not exist.\") */\n      tag_27\n      jumpi\n      mload(0x40)\n      shl(0xe5, 0x461bcd)\n      dup2\n      mstore\n        /* \"#utility.yul\":3143:3145   */\n      0x20\n        /* \"contracts/LogSmartContract.sol\":2434:2501  require(logs[_dataUsageId].dataUsageId != 0, \"Log does not exist.\") */\n      0x04\n      dup3\n      add\n        /* \"#utility.yul\":3125:3146   */\n      mstore\n        /* \"#utility.yul\":3182:3184   */\n      0x13\n        /* \"#utility.yul\":3162:3180   */\n      0x24\n      dup3\n      add\n        /* \"#utility.yul\":3155:3185   */\n      mstore\n      shl(0x69, 0x2637b3903237b2b9903737ba1032bc34b9ba17)\n        /* \"#utility.yul\":3201:3219   */\n      0x44\n      dup3\n      add\n        /* \"#utility.yul\":3194:3243   */\n      mstore\n        /* \"#utility.yul\":3260:3278   */\n      0x64\n      add\n        /* \"contracts/LogSmartContract.sol\":2434:2501  require(logs[_dataUsageId].dataUsageId != 0, \"Log does not exist.\") */\n    tag_28:\n      mload(0x40)\n      dup1\n      swap2\n      sub\n      swap1\n      revert\n    tag_27:\n        /* \"contracts/LogSmartContract.sol\":2518:2536  logs[_dataUsageId] */\n      0x00\n      dup3\n      dup2\n      mstore\n        /* \"contracts/LogSmartContract.sol\":2518:2522  logs */\n      0x02\n        /* \"contracts/LogSmartContract.sol\":2518:2536  logs[_dataUsageId] */\n      0x20\n      dup2\n      dup2\n      mstore\n      0x40\n      dup1\n      dup5\n      keccak256\n        /* \"contracts/LogSmartContract.sol\":2511:2536  return logs[_dataUsageId] */\n      dup2\n      mload\n      0xa0\n      dup2\n      add\n      dup4\n      mstore\n      dup2\n      sload\n      dup2\n      mstore\n      0x01\n      dup3\n      add\n      sload\n      dup2\n      dup6\n      add\n      mstore\n      swap4\n      dup2\n      add\n      dup1\n      sload\n      dup4\n      mload\n      dup2\n      dup7\n      mul\n      dup2\n      add\n      dup7\n      add\n      dup6\n      mstore\n      dup2\n      dup2\n      mstore\n      swap6\n      swap7\n        /* \"contracts/LogSmartContract.sol\":2518:2536  logs[_dataUsageId] */\n      swap3\n      swap6\n        /* \"contracts/LogSmartContract.sol\":2511:2536  return logs[_dataUsageId] */\n      swap4\n      dup8\n      add\n      swap5\n      swap2\n      swap3\n      swap1\n      swap2\n      dup5\n      add\n    tag_30:\n      dup3\n      dup3\n      lt\n      iszero\n      tag_31\n      jumpi\n      dup4\n      dup3\n      swap1\n      0x00\n      mstore\n      keccak256(0x00, 0x20)\n      add\n      dup1\n      sload\n      tag_33\n      swap1\n      tag_34\n      jump\t// in\n    tag_33:\n      dup1\n      0x1f\n      add\n      0x20\n      dup1\n      swap2\n      div\n      mul\n      0x20\n      add\n      mload(0x40)\n      swap1\n      dup2\n      add\n      0x40\n      mstore\n      dup1\n      swap3\n      swap2\n      swap1\n      dup2\n      dup2\n      mstore\n      0x20\n      add\n      dup3\n      dup1\n      sload\n      tag_35\n      swap1\n      tag_34\n      jump\t// in\n    tag_35:\n      dup1\n      iszero\n      tag_36\n      jumpi\n      dup1\n      0x1f\n      lt\n      tag_37\n      jumpi\n      0x0100\n      dup1\n      dup4\n      sload\n      div\n      mul\n      dup4\n      mstore\n      swap2\n      0x20\n      add\n      swap2\n      jump(tag_36)\n    tag_37:\n      dup3\n      add\n      swap2\n      swap1\n      0x00\n      mstore\n      keccak256(0x00, 0x20)\n      swap1\n    tag_38:\n      dup2\n      sload\n      dup2\n      mstore\n      swap1\n      0x01\n      add\n      swap1\n      0x20\n      add\n      dup1\n      dup4\n      gt\n      tag_38\n      jumpi\n      dup3\n      swap1\n      sub\n      0x1f\n      and\n      dup3\n      add\n      swap2\n    tag_36:\n      pop\n      pop\n      pop\n      pop\n      pop\n      dup2\n      mstore\n      0x20\n      add\n      swap1\n      0x01\n      add\n      swap1\n      jump(tag_30)\n    tag_31:\n      pop\n      pop\n      pop\n      pop\n      dup2\n      mstore\n      0x20\n      add\n      0x03\n      dup3\n      add\n      dup1\n      sload\n      tag_39\n      swap1\n      tag_34\n      jump\t// in\n    tag_39:\n      dup1\n      0x1f\n      add\n      0x20\n      dup1\n      swap2\n      div\n      mul\n      0x20\n      add\n      mload(0x40)\n      swap1\n      dup2\n      add\n      0x40\n      mstore\n      dup1\n      swap3\n      swap2\n      swap1\n      dup2\n      dup2\n      mstore\n      0x20\n      add\n      dup3\n      dup1\n      sload\n      tag_40\n      swap1\n      tag_34\n      jump\t// in\n    tag_40:\n      dup1\n      iszero\n      tag_41\n      jumpi\n      dup1\n      0x1f\n      lt\n      tag_42\n      jumpi\n      0x0100\n      dup1\n      dup4\n      sload\n      div\n      mul\n      dup4\n      mstore\n      swap2\n      0x20\n      add\n      swap2\n      jump(tag_41)\n    tag_42:\n      dup3\n      add\n      swap2\n      swap1\n      0x00\n      mstore\n      keccak256(0x00, 0x20)\n      swap1\n    tag_43:\n      dup2\n      sload\n      dup2\n      mstore\n      swap1\n      0x01\n      add\n      swap1\n      0x20\n      add\n      dup1\n      dup4\n      gt\n      tag_43\n      jumpi\n      dup3\n      swap1\n      sub\n      0x1f\n      and\n      dup3\n      add\n      swap2\n    tag_41:\n      pop\n      pop\n      pop\n      pop\n      pop\n      dup2\n      mstore\n      0x20\n      add\n      0x04\n      dup3\n      add\n      dup1\n      sload\n      dup1\n      0x20\n      mul\n      0x20\n      add\n      mload(0x40)\n      swap1\n      dup2\n      add\n      0x40\n      mstore\n      dup1\n      swap3\n      swap2\n      swap1\n      dup2\n      dup2\n      mstore\n      0x20\n      add\n      dup3\n      dup1\n      sload\n      dup1\n      iszero\n      tag_44\n      jumpi\n      0x20\n      mul\n      dup3\n      add\n      swap2\n      swap1\n      0x00\n      mstore\n      keccak256(0x00, 0x20)\n      swap1\n    tag_45:\n      dup2\n      sload\n      dup2\n      mstore\n      0x20\n      add\n      swap1\n      0x01\n      add\n      swap1\n      dup1\n      dup4\n      gt\n      tag_45\n      jumpi\n    tag_44:\n      pop\n      pop\n      pop\n      pop\n      pop\n      dup2\n      mstore\n      pop\n      pop\n      swap1\n      pop\n        /* \"contracts/LogSmartContract.sol\":2351:2543  function getLogByKey(uint _dataUsageId) public view returns (Log memory) {... */\n      swap2\n      swap1\n      pop\n      jump\t// out\n        /* \"contracts/LogSmartContract.sol\":1277:2345  function addLog(uint _dataUsageId) public onlyOwner {... */\n    tag_19:\n        /* \"contracts/AccessControl.sol\":164:169  owner */\n      and(sub(shl(0xa0, 0x01), 0x01), sload(0x00))\n        /* \"contracts/AccessControl.sol\":150:160  msg.sender */\n      caller\n        /* \"contracts/AccessControl.sol\":150:169  msg.sender == owner */\n      eq\n        /* \"contracts/AccessControl.sol\":142:224  require(msg.sender == owner, \"Only the contract owner can perform this operation\") */\n      tag_48\n      jumpi\n      mload(0x40)\n      shl(0xe5, 0x461bcd)\n      dup2\n      mstore\n        /* \"#utility.yul\":3876:3878   */\n      0x20\n        /* \"contracts/AccessControl.sol\":142:224  require(msg.sender == owner, \"Only the contract owner can perform this operation\") */\n      0x04\n      dup3\n      add\n        /* \"#utility.yul\":3858:3879   */\n      mstore\n        /* \"#utility.yul\":3915:3917   */\n      0x32\n        /* \"#utility.yul\":3895:3913   */\n      0x24\n      dup3\n      add\n        /* \"#utility.yul\":3888:3918   */\n      mstore\n        /* \"#utility.yul\":3954:3988   */\n      0x4f6e6c792074686520636f6e7472616374206f776e65722063616e2070657266\n        /* \"#utility.yul\":3934:3952   */\n      0x44\n      dup3\n      add\n        /* \"#utility.yul\":3927:3989   */\n      mstore\n      shl(0x71, 0x37b936903a3434b99037b832b930ba34b7b7)\n        /* \"#utility.yul\":4005:4023   */\n      0x64\n      dup3\n      add\n        /* \"#utility.yul\":3998:4046   */\n      mstore\n        /* \"#utility.yul\":4063:4082   */\n      0x84\n      add\n        /* \"contracts/AccessControl.sol\":142:224  require(msg.sender == owner, \"Only the contract owner can perform this operation\") */\n      tag_28\n        /* \"#utility.yul\":3674:4088   */\n      jump\n        /* \"contracts/AccessControl.sol\":142:224  require(msg.sender == owner, \"Only the contract owner can perform this operation\") */\n    tag_48:\n        /* \"contracts/LogSmartContract.sol\":1463:1485  dataUsageSmartContract */\n      sload(0x01)\n        /* \"contracts/LogSmartContract.sol\":1463:1517  dataUsageSmartContract.getDataUsageByKey(_dataUsageId) */\n      mload(0x40)\n      shl(0xe1, 0x6958324d)\n      dup2\n      mstore\n      0x04\n      dup2\n      add\n        /* \"#utility.yul\":2697:2722   */\n      dup4\n      swap1\n      mstore\n        /* \"contracts/LogSmartContract.sol\":1411:1460  DataUsageSmartContract.DataUsage memory dataUsage */\n      0x00\n      swap2\n      sub(shl(0xa0, 0x01), 0x01)\n        /* \"contracts/LogSmartContract.sol\":1463:1485  dataUsageSmartContract */\n      and\n      swap1\n        /* \"contracts/LogSmartContract.sol\":1463:1503  dataUsageSmartContract.getDataUsageByKey */\n      0xd2b0649a\n      swap1\n        /* \"#utility.yul\":2670:2688   */\n      0x24\n      add\n        /* \"contracts/LogSmartContract.sol\":1463:1517  dataUsageSmartContract.getDataUsageByKey(_dataUsageId) */\n      0x00\n      mload(0x40)\n      dup1\n      dup4\n      sub\n      dup2\n      dup7\n      gas\n      staticcall\n      iszero\n      dup1\n      iszero\n      tag_54\n      jumpi\n      returndatasize\n      0x00\n      dup1\n      returndatacopy\n      revert(0x00, returndatasize)\n    tag_54:\n      pop\n      pop\n      pop\n      pop\n      mload(0x40)\n      returndatasize\n      0x00\n      dup3\n      returndatacopy\n      0x1f\n      returndatasize\n      swap1\n      dup2\n      add\n      not(0x1f)\n      and\n      dup3\n      add\n      0x40\n      mstore\n      tag_55\n      swap2\n      swap1\n      dup2\n      add\n      swap1\n      tag_56\n      jump\t// in\n    tag_55:\n        /* \"contracts/LogSmartContract.sol\":1411:1517  DataUsageSmartContract.DataUsage memory dataUsage = dataUsageSmartContract.getDataUsageByKey(_dataUsageId) */\n      swap1\n      pop\n        /* \"contracts/LogSmartContract.sol\":1660:1691  bytes32[] memory processedDatas */\n      0x00\n        /* \"contracts/LogSmartContract.sol\":1708:1717  dataUsage */\n      dup2\n        /* \"contracts/LogSmartContract.sol\":1708:1733  dataUsage.personalDataIds */\n      0x80\n      add\n      mload\n        /* \"contracts/LogSmartContract.sol\":1708:1740  dataUsage.personalDataIds.length */\n      mload\n        /* \"contracts/LogSmartContract.sol\":1694:1741  new bytes32[](dataUsage.personalDataIds.length) */\n      0xffffffffffffffff\n      dup2\n      gt\n      iszero\n      tag_58\n      jumpi\n      tag_58\n      tag_59\n      jump\t// in\n    tag_58:\n      mload(0x40)\n      swap1\n      dup1\n      dup3\n      mstore\n      dup1\n      0x20\n      mul\n      0x20\n      add\n      dup3\n      add\n      0x40\n      mstore\n      dup1\n      iszero\n      tag_60\n      jumpi\n      dup2\n      0x20\n      add\n      0x20\n      dup3\n      mul\n      dup1\n      calldatasize\n      dup4\n      calldatacopy\n      add\n      swap1\n      pop\n    tag_60:\n      pop\n        /* \"contracts/LogSmartContract.sol\":1660:1741  bytes32[] memory processedDatas = new bytes32[](dataUsage.personalDataIds.length) */\n      swap1\n      pop\n        /* \"contracts/LogSmartContract.sol\":1755:1761  uint i */\n      0x00\n        /* \"contracts/LogSmartContract.sol\":1751:1937  for(uint i = 0; i < dataUsage.personalDataIds.length; ++i) {... */\n    tag_61:\n        /* \"contracts/LogSmartContract.sol\":1771:1780  dataUsage */\n      dup3\n        /* \"contracts/LogSmartContract.sol\":1771:1796  dataUsage.personalDataIds */\n      0x80\n      add\n      mload\n        /* \"contracts/LogSmartContract.sol\":1771:1803  dataUsage.personalDataIds.length */\n      mload\n        /* \"contracts/LogSmartContract.sol\":1767:1768  i */\n      dup2\n        /* \"contracts/LogSmartContract.sol\":1767:1803  i < dataUsage.personalDataIds.length */\n      lt\n        /* \"contracts/LogSmartContract.sol\":1751:1937  for(uint i = 0; i < dataUsage.personalDataIds.length; ++i) {... */\n      iszero\n      tag_62\n      jumpi\n        /* \"contracts/LogSmartContract.sol\":1844:1866  dataUsageSmartContract */\n      sload(0x01)\n        /* \"contracts/LogSmartContract.sol\":1897:1922  dataUsage.personalDataIds */\n      0x80\n      dup5\n      add\n      mload\n        /* \"contracts/LogSmartContract.sol\":1897:1925  dataUsage.personalDataIds[i] */\n      dup1\n      mload\n      sub(shl(0xa0, 0x01), 0x01)\n        /* \"contracts/LogSmartContract.sol\":1844:1866  dataUsageSmartContract */\n      swap1\n      swap3\n      and\n      swap2\n        /* \"contracts/LogSmartContract.sol\":1844:1896  dataUsageSmartContract.getProcessedPersonalDataByKey */\n      0xb61798f6\n      swap2\n        /* \"contracts/LogSmartContract.sol\":1897:1922  dataUsage.personalDataIds */\n      swap1\n        /* \"contracts/LogSmartContract.sol\":1923:1924  i */\n      dup5\n      swap1\n        /* \"contracts/LogSmartContract.sol\":1897:1925  dataUsage.personalDataIds[i] */\n      dup2\n      lt\n      tag_65\n      jumpi\n      tag_65\n      tag_66\n      jump\t// in\n    tag_65:\n      0x20\n      mul\n      0x20\n      add\n      add\n      mload\n        /* \"contracts/LogSmartContract.sol\":1844:1926  dataUsageSmartContract.getProcessedPersonalDataByKey(dataUsage.personalDataIds[i]) */\n      mload(0x40)\n      dup3\n      0xffffffff\n      and\n      0xe0\n      shl\n      dup2\n      mstore\n      0x04\n      add\n      tag_67\n      swap2\n        /* \"#utility.yul\":2697:2722   */\n      dup2\n      mstore\n        /* \"#utility.yul\":2685:2687   */\n      0x20\n        /* \"#utility.yul\":2670:2688   */\n      add\n      swap1\n        /* \"#utility.yul\":2551:2728   */\n      jump\n        /* \"contracts/LogSmartContract.sol\":1844:1926  dataUsageSmartContract.getProcessedPersonalDataByKey(dataUsage.personalDataIds[i]) */\n    tag_67:\n      0x20\n      mload(0x40)\n      dup1\n      dup4\n      sub\n      dup2\n      dup7\n      gas\n      staticcall\n      iszero\n      dup1\n      iszero\n      tag_69\n      jumpi\n      returndatasize\n      0x00\n      dup1\n      returndatacopy\n      revert(0x00, returndatasize)\n    tag_69:\n      pop\n      pop\n      pop\n      pop\n      mload(0x40)\n      returndatasize\n      not(0x1f)\n      0x1f\n      dup3\n      add\n      and\n      dup3\n      add\n      dup1\n      0x40\n      mstore\n      pop\n      dup2\n      add\n      swap1\n      tag_70\n      swap2\n      swap1\n      tag_71\n      jump\t// in\n    tag_70:\n        /* \"contracts/LogSmartContract.sol\":1824:1838  processedDatas */\n      dup3\n        /* \"contracts/LogSmartContract.sol\":1839:1840  i */\n      dup3\n        /* \"contracts/LogSmartContract.sol\":1824:1841  processedDatas[i] */\n      dup2\n      mload\n      dup2\n      lt\n      tag_73\n      jumpi\n      tag_73\n      tag_66\n      jump\t// in\n    tag_73:\n      0x20\n      swap1\n      dup2\n      mul\n      swap2\n      swap1\n      swap2\n      add\n      add\n        /* \"contracts/LogSmartContract.sol\":1824:1926  processedDatas[i] = dataUsageSmartContract.getProcessedPersonalDataByKey(dataUsage.personalDataIds[i]) */\n      mstore\n        /* \"contracts/LogSmartContract.sol\":1805:1808  ++i */\n      0x01\n      add\n        /* \"contracts/LogSmartContract.sol\":1751:1937  for(uint i = 0; i < dataUsage.personalDataIds.length; ++i) {... */\n      jump(tag_61)\n    tag_62:\n      pop\n        /* \"contracts/LogSmartContract.sol\":2001:2241  Log({... */\n      0x40\n      dup1\n      mload\n      0xa0\n      dup2\n      add\n      dup3\n      mstore\n      dup5\n      dup2\n      mstore\n        /* \"contracts/LogSmartContract.sol\":2067:2084  dataUsage.actorId */\n      dup4\n      dup3\n      add\n      mload\n        /* \"contracts/LogSmartContract.sol\":2001:2241  Log({... */\n      0x20\n      dup1\n      dup4\n      add\n      swap2\n      dup3\n      mstore\n        /* \"contracts/LogSmartContract.sol\":2110:2130  dataUsage.operations */\n      0x60\n      dup1\n      dup8\n      add\n      mload\n        /* \"contracts/LogSmartContract.sol\":2001:2241  Log({... */\n      dup5\n      dup7\n      add\n      swap1\n      dup2\n      mstore\n        /* \"contracts/LogSmartContract.sol\":2157:2178  dataUsage.serviceName */\n      dup8\n      mload\n        /* \"contracts/LogSmartContract.sol\":2001:2241  Log({... */\n      swap2\n      dup6\n      add\n      swap2\n      swap1\n      swap2\n      mstore\n      0x80\n      dup5\n      add\n      dup7\n      swap1\n      mstore\n      0x00\n        /* \"contracts/LogSmartContract.sol\":1980:1998  logs[_dataUsageId] */\n      dup9\n      dup2\n      mstore\n        /* \"contracts/LogSmartContract.sol\":1980:1984  logs */\n      0x02\n        /* \"contracts/LogSmartContract.sol\":1980:1998  logs[_dataUsageId] */\n      dup1\n      dup5\n      mstore\n      swap6\n      swap1\n      keccak256\n        /* \"contracts/LogSmartContract.sol\":1980:2241  logs[_dataUsageId] = Log({... */\n      dup5\n      mload\n      dup2\n      sstore\n      swap3\n      mload\n      0x01\n      dup5\n      add\n      sstore\n      mload\n      dup1\n      mload\n        /* \"contracts/LogSmartContract.sol\":2001:2241  Log({... */\n      swap4\n      swap5\n        /* \"contracts/LogSmartContract.sol\":1980:1998  logs[_dataUsageId] */\n      swap3\n      swap4\n        /* \"contracts/LogSmartContract.sol\":1980:2241  logs[_dataUsageId] = Log({... */\n      tag_74\n      swap4\n      dup6\n      add\n      swap3\n      swap2\n      swap1\n      swap2\n      add\n      swap1\n      tag_75\n      jump\t// in\n    tag_74:\n      pop\n      0x60\n      dup3\n      add\n      mload\n      0x03\n      dup3\n      add\n      swap1\n      tag_76\n      swap1\n      dup3\n      tag_77\n      jump\t// in\n    tag_76:\n      pop\n      0x80\n      dup3\n      add\n      mload\n      dup1\n      mload\n      tag_78\n      swap2\n      0x04\n      dup5\n      add\n      swap2\n      0x20\n      swap1\n      swap2\n      add\n      swap1\n      tag_79\n      jump\t// in\n    tag_78:\n      pop\n      pop\n        /* \"contracts/LogSmartContract.sol\":2252:2259  logKeys */\n      0x03\n        /* \"contracts/LogSmartContract.sol\":2252:2278  logKeys.push(_dataUsageId) */\n      dup1\n      sload\n      0x01\n      dup2\n      add\n      dup3\n      sstore\n      0x00\n      swap2\n      dup3\n      mstore\n      0xc2575a0e9e593c00f959f8c92f12db2869c3395a3b0502d05e2516446f71f85b\n      add\n      dup6\n      swap1\n      sstore\n        /* \"contracts/LogSmartContract.sol\":2288:2298  logCounter */\n      0x04\n        /* \"contracts/LogSmartContract.sol\":2288:2300  logCounter++ */\n      dup1\n      sload\n      swap3\n      pop\n        /* \"contracts/LogSmartContract.sol\":2288:2298  logCounter */\n      swap1\n        /* \"contracts/LogSmartContract.sol\":2288:2300  logCounter++ */\n      tag_81\n      dup4\n      tag_82\n      jump\t// in\n    tag_81:\n      swap1\n      swap2\n      sstore\n      pop\n      pop\n        /* \"contracts/LogSmartContract.sol\":2316:2338  LogAdded(_dataUsageId) */\n      mload(0x40)\n        /* \"#utility.yul\":2697:2722   */\n      dup4\n      dup2\n      mstore\n        /* \"contracts/LogSmartContract.sol\":2316:2338  LogAdded(_dataUsageId) */\n      0xc59b02a267f48426e708065a28f0948a454dafa87d33f04d8187b99b7203869f\n      swap1\n        /* \"#utility.yul\":2685:2687   */\n      0x20\n        /* \"#utility.yul\":2670:2688   */\n      add\n        /* \"contracts/LogSmartContract.sol\":2316:2338  LogAdded(_dataUsageId) */\n      mload(0x40)\n      dup1\n      swap2\n      sub\n      swap1\n      log1\n        /* \"contracts/LogSmartContract.sol\":1329:2345  {... */\n      pop\n      pop\n        /* \"contracts/LogSmartContract.sol\":1277:2345  function addLog(uint _dataUsageId) public onlyOwner {... */\n      pop\n      jump\t// out\n    tag_75:\n      dup3\n      dup1\n      sload\n      dup3\n      dup3\n      sstore\n      swap1\n      0x00\n      mstore\n      keccak256(0x00, 0x20)\n      swap1\n      dup2\n      add\n      swap3\n      dup3\n      iszero\n      tag_86\n      jumpi\n      swap2\n      0x20\n      mul\n      dup3\n      add\n    tag_85:\n      dup3\n      dup2\n      gt\n      iszero\n      tag_86\n      jumpi\n      dup3\n      mload\n      dup3\n      swap1\n      tag_87\n      swap1\n      dup3\n      tag_77\n      jump\t// in\n    tag_87:\n      pop\n      swap2\n      0x20\n      add\n      swap2\n      swap1\n      0x01\n      add\n      swap1\n      jump(tag_85)\n    tag_86:\n      pop\n      tag_88\n      swap3\n      swap2\n      pop\n      tag_89\n      jump\t// in\n    tag_88:\n      pop\n      swap1\n      jump\t// out\n    tag_79:\n      dup3\n      dup1\n      sload\n      dup3\n      dup3\n      sstore\n      swap1\n      0x00\n      mstore\n      keccak256(0x00, 0x20)\n      swap1\n      dup2\n      add\n      swap3\n      dup3\n      iszero\n      tag_92\n      jumpi\n      swap2\n      0x20\n      mul\n      dup3\n      add\n    tag_91:\n      dup3\n      dup2\n      gt\n      iszero\n      tag_92\n      jumpi\n      dup3\n      mload\n      dup3\n      sstore\n      swap2\n      0x20\n      add\n      swap2\n      swap1\n      0x01\n      add\n      swap1\n      jump(tag_91)\n    tag_92:\n      pop\n      tag_88\n      swap3\n      swap2\n      pop\n      tag_94\n      jump\t// in\n    tag_89:\n      dup1\n      dup3\n      gt\n      iszero\n      tag_88\n      jumpi\n      0x00\n      tag_97\n      dup3\n      dup3\n      tag_98\n      jump\t// in\n    tag_97:\n      pop\n      0x01\n      add\n      jump(tag_89)\n    tag_94:\n    tag_99:\n      dup1\n      dup3\n      gt\n      iszero\n      tag_88\n      jumpi\n      0x00\n      dup2\n      sstore\n      0x01\n      add\n      jump(tag_99)\n    tag_98:\n      pop\n      dup1\n      sload\n      tag_101\n      swap1\n      tag_34\n      jump\t// in\n    tag_101:\n      0x00\n      dup3\n      sstore\n      dup1\n      0x1f\n      lt\n      tag_103\n      jumpi\n      pop\n      pop\n      jump\t// out\n    tag_103:\n      0x1f\n      add\n      0x20\n      swap1\n      div\n      swap1\n      0x00\n      mstore\n      keccak256(0x00, 0x20)\n      swap1\n      dup2\n      add\n      swap1\n      tag_104\n      swap2\n      swap1\n      tag_94\n      jump\t// in\n    tag_104:\n      pop\n      jump\t// out\n        /* \"#utility.yul\":14:194   */\n    tag_9:\n        /* \"#utility.yul\":73:79   */\n      0x00\n        /* \"#utility.yul\":126:128   */\n      0x20\n        /* \"#utility.yul\":114:123   */\n      dup3\n        /* \"#utility.yul\":105:112   */\n      dup5\n        /* \"#utility.yul\":101:124   */\n      sub\n        /* \"#utility.yul\":97:129   */\n      slt\n        /* \"#utility.yul\":94:146   */\n      iszero\n      tag_122\n      jumpi\n        /* \"#utility.yul\":142:143   */\n      0x00\n        /* \"#utility.yul\":139:140   */\n      dup1\n        /* \"#utility.yul\":132:144   */\n      revert\n        /* \"#utility.yul\":94:146   */\n    tag_122:\n      pop\n        /* \"#utility.yul\":165:188   */\n      calldataload\n      swap2\n        /* \"#utility.yul\":14:194   */\n      swap1\n      pop\n      jump\t// out\n        /* \"#utility.yul\":199:449   */\n    tag_108:\n        /* \"#utility.yul\":284:285   */\n      0x00\n        /* \"#utility.yul\":294:407   */\n    tag_124:\n        /* \"#utility.yul\":308:314   */\n      dup4\n        /* \"#utility.yul\":305:306   */\n      dup2\n        /* \"#utility.yul\":302:315   */\n      lt\n        /* \"#utility.yul\":294:407   */\n      iszero\n      tag_126\n      jumpi\n        /* \"#utility.yul\":384:395   */\n      dup2\n      dup2\n      add\n        /* \"#utility.yul\":378:396   */\n      mload\n        /* \"#utility.yul\":365:376   */\n      dup4\n      dup3\n      add\n        /* \"#utility.yul\":358:397   */\n      mstore\n        /* \"#utility.yul\":330:332   */\n      0x20\n        /* \"#utility.yul\":323:333   */\n      add\n        /* \"#utility.yul\":294:407   */\n      jump(tag_124)\n    tag_126:\n      pop\n      pop\n        /* \"#utility.yul\":441:442   */\n      0x00\n        /* \"#utility.yul\":423:439   */\n      swap2\n      add\n        /* \"#utility.yul\":416:443   */\n      mstore\n        /* \"#utility.yul\":199:449   */\n      jump\t// out\n        /* \"#utility.yul\":454:725   */\n    tag_109:\n        /* \"#utility.yul\":496:499   */\n      0x00\n        /* \"#utility.yul\":534:539   */\n      dup2\n        /* \"#utility.yul\":528:540   */\n      mload\n        /* \"#utility.yul\":561:567   */\n      dup1\n        /* \"#utility.yul\":556:559   */\n      dup5\n        /* \"#utility.yul\":549:568   */\n      mstore\n        /* \"#utility.yul\":577:653   */\n      tag_128\n        /* \"#utility.yul\":646:652   */\n      dup2\n        /* \"#utility.yul\":639:643   */\n      0x20\n        /* \"#utility.yul\":634:637   */\n      dup7\n        /* \"#utility.yul\":630:644   */\n      add\n        /* \"#utility.yul\":623:627   */\n      0x20\n        /* \"#utility.yul\":616:621   */\n      dup7\n        /* \"#utility.yul\":612:628   */\n      add\n        /* \"#utility.yul\":577:653   */\n      tag_108\n      jump\t// in\n    tag_128:\n        /* \"#utility.yul\":707:709   */\n      0x1f\n        /* \"#utility.yul\":686:701   */\n      add\n      not(0x1f)\n        /* \"#utility.yul\":682:711   */\n      and\n        /* \"#utility.yul\":673:712   */\n      swap3\n      swap1\n      swap3\n      add\n        /* \"#utility.yul\":714:718   */\n      0x20\n        /* \"#utility.yul\":669:719   */\n      add\n      swap3\n        /* \"#utility.yul\":454:725   */\n      swap2\n      pop\n      pop\n      jump\t// out\n        /* \"#utility.yul\":730:1169   */\n    tag_110:\n        /* \"#utility.yul\":783:786   */\n      0x00\n        /* \"#utility.yul\":821:826   */\n      dup2\n        /* \"#utility.yul\":815:827   */\n      mload\n        /* \"#utility.yul\":848:854   */\n      dup1\n        /* \"#utility.yul\":843:846   */\n      dup5\n        /* \"#utility.yul\":836:855   */\n      mstore\n        /* \"#utility.yul\":874:878   */\n      0x20\n        /* \"#utility.yul\":903:907   */\n      dup1\n        /* \"#utility.yul\":898:901   */\n      dup6\n        /* \"#utility.yul\":894:908   */\n      add\n        /* \"#utility.yul\":887:908   */\n      swap5\n      pop\n        /* \"#utility.yul\":942:946   */\n      0x20\n        /* \"#utility.yul\":935:940   */\n      dup5\n        /* \"#utility.yul\":931:947   */\n      add\n        /* \"#utility.yul\":965:966   */\n      0x00\n        /* \"#utility.yul\":975:1144   */\n    tag_130:\n        /* \"#utility.yul\":989:995   */\n      dup4\n        /* \"#utility.yul\":986:987   */\n      dup2\n        /* \"#utility.yul\":983:996   */\n      lt\n        /* \"#utility.yul\":975:1144   */\n      iszero\n      tag_132\n      jumpi\n        /* \"#utility.yul\":1050:1063   */\n      dup2\n      mload\n        /* \"#utility.yul\":1038:1064   */\n      dup8\n      mstore\n        /* \"#utility.yul\":1084:1096   */\n      swap6\n      dup3\n      add\n      swap6\n        /* \"#utility.yul\":1119:1134   */\n      swap1\n      dup3\n      add\n      swap1\n        /* \"#utility.yul\":1011:1012   */\n      0x01\n        /* \"#utility.yul\":1004:1013   */\n      add\n        /* \"#utility.yul\":975:1144   */\n      jump(tag_130)\n    tag_132:\n      pop\n        /* \"#utility.yul\":1160:1163   */\n      swap5\n      swap6\n        /* \"#utility.yul\":730:1169   */\n      swap5\n      pop\n      pop\n      pop\n      pop\n      pop\n      jump\t// out\n        /* \"#utility.yul\":1174:2546   */\n    tag_12:\n        /* \"#utility.yul\":1306:1310   */\n      0x00\n        /* \"#utility.yul\":1335:1337   */\n      0x20\n        /* \"#utility.yul\":1364:1366   */\n      dup1\n        /* \"#utility.yul\":1353:1362   */\n      dup4\n        /* \"#utility.yul\":1346:1367   */\n      mstore\n        /* \"#utility.yul\":1405:1408   */\n      0xc0\n        /* \"#utility.yul\":1394:1403   */\n      dup4\n        /* \"#utility.yul\":1390:1409   */\n      add\n        /* \"#utility.yul\":1451:1457   */\n      dup5\n        /* \"#utility.yul\":1445:1458   */\n      mload\n        /* \"#utility.yul\":1440:1442   */\n      dup3\n        /* \"#utility.yul\":1429:1438   */\n      dup6\n        /* \"#utility.yul\":1425:1443   */\n      add\n        /* \"#utility.yul\":1418:1459   */\n      mstore\n        /* \"#utility.yul\":1513:1515   */\n      dup2\n        /* \"#utility.yul\":1505:1511   */\n      dup6\n        /* \"#utility.yul\":1501:1516   */\n      add\n        /* \"#utility.yul\":1495:1517   */\n      mload\n        /* \"#utility.yul\":1490:1492   */\n      0x40\n        /* \"#utility.yul\":1479:1488   */\n      dup6\n        /* \"#utility.yul\":1475:1493   */\n      add\n        /* \"#utility.yul\":1468:1518   */\n      mstore\n        /* \"#utility.yul\":1565:1567   */\n      0x40\n        /* \"#utility.yul\":1557:1563   */\n      dup6\n        /* \"#utility.yul\":1553:1568   */\n      add\n        /* \"#utility.yul\":1547:1569   */\n      mload\n        /* \"#utility.yul\":1605:1609   */\n      0xa0\n        /* \"#utility.yul\":1600:1602   */\n      0x60\n        /* \"#utility.yul\":1589:1598   */\n      dup7\n        /* \"#utility.yul\":1585:1603   */\n      add\n        /* \"#utility.yul\":1578:1610   */\n      mstore\n        /* \"#utility.yul\":1630:1636   */\n      dup2\n        /* \"#utility.yul\":1665:1677   */\n      dup2\n        /* \"#utility.yul\":1659:1678   */\n      mload\n        /* \"#utility.yul\":1702:1708   */\n      dup1\n        /* \"#utility.yul\":1694:1700   */\n      dup5\n        /* \"#utility.yul\":1687:1709   */\n      mstore\n        /* \"#utility.yul\":1740:1743   */\n      0xe0\n        /* \"#utility.yul\":1729:1738   */\n      dup8\n        /* \"#utility.yul\":1725:1744   */\n      add\n        /* \"#utility.yul\":1718:1744   */\n      swap2\n      pop\n        /* \"#utility.yul\":1803:1806   */\n      0xe0\n        /* \"#utility.yul\":1793:1799   */\n      dup2\n        /* \"#utility.yul\":1790:1791   */\n      0x05\n        /* \"#utility.yul\":1786:1800   */\n      shl\n        /* \"#utility.yul\":1775:1784   */\n      dup9\n        /* \"#utility.yul\":1771:1801   */\n      add\n        /* \"#utility.yul\":1767:1807   */\n      add\n        /* \"#utility.yul\":1753:1807   */\n      swap4\n      pop\n        /* \"#utility.yul\":1848:1850   */\n      dup5\n        /* \"#utility.yul\":1834:1846   */\n      dup4\n        /* \"#utility.yul\":1830:1851   */\n      add\n        /* \"#utility.yul\":1816:1851   */\n      swap3\n      pop\n        /* \"#utility.yul\":1869:1870   */\n      0x00\n        /* \"#utility.yul\":1879:2135   */\n    tag_134:\n        /* \"#utility.yul\":1893:1899   */\n      dup2\n        /* \"#utility.yul\":1890:1891   */\n      dup2\n        /* \"#utility.yul\":1887:1900   */\n      lt\n        /* \"#utility.yul\":1879:2135   */\n      iszero\n      tag_136\n      jumpi\n        /* \"#utility.yul\":1986:1989   */\n      0xdf\n        /* \"#utility.yul\":1982:1990   */\n      not\n        /* \"#utility.yul\":1970:1979   */\n      dup9\n        /* \"#utility.yul\":1962:1968   */\n      dup7\n        /* \"#utility.yul\":1958:1980   */\n      sub\n        /* \"#utility.yul\":1954:1991   */\n      add\n        /* \"#utility.yul\":1949:1952   */\n      dup4\n        /* \"#utility.yul\":1942:1992   */\n      mstore\n        /* \"#utility.yul\":2015:2055   */\n      tag_137\n        /* \"#utility.yul\":2048:2054   */\n      dup6\n        /* \"#utility.yul\":2039:2045   */\n      dup6\n        /* \"#utility.yul\":2033:2046   */\n      mload\n        /* \"#utility.yul\":2015:2055   */\n      tag_109\n      jump\t// in\n    tag_137:\n        /* \"#utility.yul\":2005:2055   */\n      swap5\n      pop\n        /* \"#utility.yul\":2078:2093   */\n      swap3\n      dup6\n      add\n      swap3\n        /* \"#utility.yul\":2113:2125   */\n      swap2\n      dup6\n      add\n      swap2\n        /* \"#utility.yul\":1915:1916   */\n      0x01\n        /* \"#utility.yul\":1908:1917   */\n      add\n        /* \"#utility.yul\":1879:2135   */\n      jump(tag_134)\n    tag_136:\n        /* \"#utility.yul\":1883:1886   */\n      pop\n      pop\n      pop\n      pop\n        /* \"#utility.yul\":2184:2186   */\n      0x60\n        /* \"#utility.yul\":2176:2182   */\n      dup6\n        /* \"#utility.yul\":2172:2187   */\n      add\n        /* \"#utility.yul\":2166:2188   */\n      mload\n        /* \"#utility.yul\":2144:2188   */\n      swap2\n      pop\n        /* \"#utility.yul\":2211:2213   */\n      0x1f\n        /* \"#utility.yul\":2207:2214   */\n      not\n        /* \"#utility.yul\":2279:2281   */\n      dup1\n        /* \"#utility.yul\":2267:2276   */\n      dup6\n        /* \"#utility.yul\":2259:2265   */\n      dup4\n        /* \"#utility.yul\":2255:2277   */\n      sub\n        /* \"#utility.yul\":2251:2282   */\n      add\n        /* \"#utility.yul\":2245:2248   */\n      0x80\n        /* \"#utility.yul\":2234:2243   */\n      dup7\n        /* \"#utility.yul\":2230:2249   */\n      add\n        /* \"#utility.yul\":2223:2283   */\n      mstore\n        /* \"#utility.yul\":2306:2347   */\n      tag_138\n        /* \"#utility.yul\":2340:2346   */\n      dup3\n        /* \"#utility.yul\":2324:2338   */\n      dup5\n        /* \"#utility.yul\":2306:2347   */\n      tag_109\n      jump\t// in\n    tag_138:\n        /* \"#utility.yul\":2292:2347   */\n      swap3\n      pop\n        /* \"#utility.yul\":2396:2399   */\n      0x80\n        /* \"#utility.yul\":2388:2394   */\n      dup7\n        /* \"#utility.yul\":2384:2400   */\n      add\n        /* \"#utility.yul\":2378:2401   */\n      mload\n        /* \"#utility.yul\":2356:2401   */\n      swap2\n      pop\n        /* \"#utility.yul\":2467:2469   */\n      dup1\n        /* \"#utility.yul\":2455:2464   */\n      dup6\n        /* \"#utility.yul\":2447:2453   */\n      dup5\n        /* \"#utility.yul\":2443:2465   */\n      sub\n        /* \"#utility.yul\":2439:2470   */\n      add\n        /* \"#utility.yul\":2432:2436   */\n      0xa0\n        /* \"#utility.yul\":2421:2430   */\n      dup7\n        /* \"#utility.yul\":2417:2437   */\n      add\n        /* \"#utility.yul\":2410:2471   */\n      mstore\n      pop\n        /* \"#utility.yul\":2488:2540   */\n      tag_139\n        /* \"#utility.yul\":2533:2539   */\n      dup3\n        /* \"#utility.yul\":2517:2531   */\n      dup3\n        /* \"#utility.yul\":2488:2540   */\n      tag_110\n      jump\t// in\n    tag_139:\n        /* \"#utility.yul\":2480:2540   */\n      swap6\n        /* \"#utility.yul\":1174:2546   */\n      swap5\n      pop\n      pop\n      pop\n      pop\n      pop\n      jump\t// out\n        /* \"#utility.yul\":3289:3669   */\n    tag_34:\n        /* \"#utility.yul\":3368:3369   */\n      0x01\n        /* \"#utility.yul\":3364:3376   */\n      dup2\n      dup2\n      shr\n      swap1\n        /* \"#utility.yul\":3411:3423   */\n      dup3\n      and\n      dup1\n        /* \"#utility.yul\":3432:3493   */\n      tag_144\n      jumpi\n        /* \"#utility.yul\":3486:3490   */\n      0x7f\n        /* \"#utility.yul\":3478:3484   */\n      dup3\n        /* \"#utility.yul\":3474:3491   */\n      and\n        /* \"#utility.yul\":3464:3491   */\n      swap2\n      pop\n        /* \"#utility.yul\":3432:3493   */\n    tag_144:\n        /* \"#utility.yul\":3539:3541   */\n      0x20\n        /* \"#utility.yul\":3531:3537   */\n      dup3\n        /* \"#utility.yul\":3528:3542   */\n      lt\n        /* \"#utility.yul\":3508:3526   */\n      dup2\n        /* \"#utility.yul\":3505:3543   */\n      sub\n        /* \"#utility.yul\":3502:3663   */\n      tag_145\n      jumpi\n        /* \"#utility.yul\":3585:3595   */\n      0x4e487b71\n        /* \"#utility.yul\":3580:3583   */\n      0xe0\n        /* \"#utility.yul\":3576:3596   */\n      shl\n        /* \"#utility.yul\":3573:3574   */\n      0x00\n        /* \"#utility.yul\":3566:3597   */\n      mstore\n        /* \"#utility.yul\":3620:3624   */\n      0x22\n        /* \"#utility.yul\":3617:3618   */\n      0x04\n        /* \"#utility.yul\":3610:3625   */\n      mstore\n        /* \"#utility.yul\":3648:3652   */\n      0x24\n        /* \"#utility.yul\":3645:3646   */\n      0x00\n        /* \"#utility.yul\":3638:3653   */\n      revert\n        /* \"#utility.yul\":3502:3663   */\n    tag_145:\n      pop\n        /* \"#utility.yul\":3289:3669   */\n      swap2\n      swap1\n      pop\n      jump\t// out\n        /* \"#utility.yul\":4093:4220   */\n    tag_59:\n        /* \"#utility.yul\":4154:4164   */\n      0x4e487b71\n        /* \"#utility.yul\":4149:4152   */\n      0xe0\n        /* \"#utility.yul\":4145:4165   */\n      shl\n        /* \"#utility.yul\":4142:4143   */\n      0x00\n        /* \"#utility.yul\":4135:4166   */\n      mstore\n        /* \"#utility.yul\":4185:4189   */\n      0x41\n        /* \"#utility.yul\":4182:4183   */\n      0x04\n        /* \"#utility.yul\":4175:4190   */\n      mstore\n        /* \"#utility.yul\":4209:4213   */\n      0x24\n        /* \"#utility.yul\":4206:4207   */\n      0x00\n        /* \"#utility.yul\":4199:4214   */\n      revert\n        /* \"#utility.yul\":4225:4478   */\n    tag_111:\n        /* \"#utility.yul\":4297:4299   */\n      0x40\n        /* \"#utility.yul\":4291:4300   */\n      mload\n        /* \"#utility.yul\":4339:4343   */\n      0xc0\n        /* \"#utility.yul\":4327:4344   */\n      dup2\n      add\n        /* \"#utility.yul\":4374:4392   */\n      0xffffffffffffffff\n        /* \"#utility.yul\":4359:4393   */\n      dup2\n      gt\n        /* \"#utility.yul\":4395:4417   */\n      dup3\n      dup3\n      lt\n        /* \"#utility.yul\":4356:4418   */\n      or\n        /* \"#utility.yul\":4353:4441   */\n      iszero\n      tag_150\n      jumpi\n        /* \"#utility.yul\":4421:4439   */\n      tag_150\n      tag_59\n      jump\t// in\n    tag_150:\n        /* \"#utility.yul\":4457:4459   */\n      0x40\n        /* \"#utility.yul\":4450:4472   */\n      mstore\n        /* \"#utility.yul\":4225:4478   */\n      swap1\n      jump\t// out\n        /* \"#utility.yul\":4483:4758   */\n    tag_112:\n        /* \"#utility.yul\":4554:4556   */\n      0x40\n        /* \"#utility.yul\":4548:4557   */\n      mload\n        /* \"#utility.yul\":4619:4621   */\n      0x1f\n        /* \"#utility.yul\":4600:4613   */\n      dup3\n      add\n      not(0x1f)\n        /* \"#utility.yul\":4596:4623   */\n      and\n        /* \"#utility.yul\":4584:4624   */\n      dup2\n      add\n        /* \"#utility.yul\":4654:4672   */\n      0xffffffffffffffff\n        /* \"#utility.yul\":4639:4673   */\n      dup2\n      gt\n        /* \"#utility.yul\":4675:4697   */\n      dup3\n      dup3\n      lt\n        /* \"#utility.yul\":4636:4698   */\n      or\n        /* \"#utility.yul\":4633:4721   */\n      iszero\n      tag_153\n      jumpi\n        /* \"#utility.yul\":4701:4719   */\n      tag_153\n      tag_59\n      jump\t// in\n    tag_153:\n        /* \"#utility.yul\":4737:4739   */\n      0x40\n        /* \"#utility.yul\":4730:4752   */\n      mstore\n        /* \"#utility.yul\":4483:4758   */\n      swap2\n      swap1\n      pop\n      jump\t// out\n        /* \"#utility.yul\":4763:5273   */\n    tag_113:\n        /* \"#utility.yul\":4817:4822   */\n      0x00\n        /* \"#utility.yul\":4870:4873   */\n      dup3\n        /* \"#utility.yul\":4863:4867   */\n      0x1f\n        /* \"#utility.yul\":4855:4861   */\n      dup4\n        /* \"#utility.yul\":4851:4868   */\n      add\n        /* \"#utility.yul\":4847:4874   */\n      slt\n        /* \"#utility.yul\":4837:4892   */\n      tag_155\n      jumpi\n        /* \"#utility.yul\":4888:4889   */\n      0x00\n        /* \"#utility.yul\":4885:4886   */\n      dup1\n        /* \"#utility.yul\":4878:4890   */\n      revert\n        /* \"#utility.yul\":4837:4892   */\n    tag_155:\n        /* \"#utility.yul\":4917:4923   */\n      dup2\n        /* \"#utility.yul\":4911:4924   */\n      mload\n        /* \"#utility.yul\":4943:4961   */\n      0xffffffffffffffff\n        /* \"#utility.yul\":4939:4941   */\n      dup2\n        /* \"#utility.yul\":4936:4962   */\n      gt\n        /* \"#utility.yul\":4933:4985   */\n      iszero\n      tag_157\n      jumpi\n        /* \"#utility.yul\":4965:4983   */\n      tag_157\n      tag_59\n      jump\t// in\n    tag_157:\n        /* \"#utility.yul\":5009:5064   */\n      tag_158\n        /* \"#utility.yul\":5052:5054   */\n      0x1f\n        /* \"#utility.yul\":5033:5046   */\n      dup3\n      add\n      not(0x1f)\n        /* \"#utility.yul\":5029:5056   */\n      and\n        /* \"#utility.yul\":5058:5062   */\n      0x20\n        /* \"#utility.yul\":5025:5063   */\n      add\n        /* \"#utility.yul\":5009:5064   */\n      tag_112\n      jump\t// in\n    tag_158:\n        /* \"#utility.yul\":5089:5091   */\n      dup2\n        /* \"#utility.yul\":5080:5087   */\n      dup2\n        /* \"#utility.yul\":5073:5092   */\n      mstore\n        /* \"#utility.yul\":5135:5138   */\n      dup5\n        /* \"#utility.yul\":5128:5132   */\n      0x20\n        /* \"#utility.yul\":5123:5125   */\n      dup4\n        /* \"#utility.yul\":5115:5121   */\n      dup7\n        /* \"#utility.yul\":5111:5126   */\n      add\n        /* \"#utility.yul\":5107:5133   */\n      add\n        /* \"#utility.yul\":5104:5139   */\n      gt\n        /* \"#utility.yul\":5101:5156   */\n      iszero\n      tag_159\n      jumpi\n        /* \"#utility.yul\":5152:5153   */\n      0x00\n        /* \"#utility.yul\":5149:5150   */\n      dup1\n        /* \"#utility.yul\":5142:5154   */\n      revert\n        /* \"#utility.yul\":5101:5156   */\n    tag_159:\n        /* \"#utility.yul\":5165:5242   */\n      tag_160\n        /* \"#utility.yul\":5239:5241   */\n      dup3\n        /* \"#utility.yul\":5232:5236   */\n      0x20\n        /* \"#utility.yul\":5223:5230   */\n      dup4\n        /* \"#utility.yul\":5219:5237   */\n      add\n        /* \"#utility.yul\":5212:5216   */\n      0x20\n        /* \"#utility.yul\":5204:5210   */\n      dup8\n        /* \"#utility.yul\":5200:5217   */\n      add\n        /* \"#utility.yul\":5165:5242   */\n      tag_108\n      jump\t// in\n    tag_160:\n        /* \"#utility.yul\":5260:5267   */\n      swap5\n        /* \"#utility.yul\":4763:5273   */\n      swap4\n      pop\n      pop\n      pop\n      pop\n      jump\t// out\n        /* \"#utility.yul\":5278:5460   */\n    tag_114:\n        /* \"#utility.yul\":5337:5341   */\n      0x00\n        /* \"#utility.yul\":5370:5388   */\n      0xffffffffffffffff\n        /* \"#utility.yul\":5362:5368   */\n      dup3\n        /* \"#utility.yul\":5359:5389   */\n      gt\n        /* \"#utility.yul\":5356:5412   */\n      iszero\n      tag_163\n      jumpi\n        /* \"#utility.yul\":5392:5410   */\n      tag_163\n      tag_59\n      jump\t// in\n    tag_163:\n      pop\n        /* \"#utility.yul\":5437:5438   */\n      0x05\n        /* \"#utility.yul\":5433:5447   */\n      shl\n        /* \"#utility.yul\":5449:5453   */\n      0x20\n        /* \"#utility.yul\":5429:5454   */\n      add\n      swap1\n        /* \"#utility.yul\":5278:5460   */\n      jump\t// out\n        /* \"#utility.yul\":5465:6290   */\n    tag_115:\n        /* \"#utility.yul\":5529:5534   */\n      0x00\n        /* \"#utility.yul\":5582:5585   */\n      dup3\n        /* \"#utility.yul\":5575:5579   */\n      0x1f\n        /* \"#utility.yul\":5567:5573   */\n      dup4\n        /* \"#utility.yul\":5563:5580   */\n      add\n        /* \"#utility.yul\":5559:5586   */\n      slt\n        /* \"#utility.yul\":5549:5604   */\n      tag_165\n      jumpi\n        /* \"#utility.yul\":5600:5601   */\n      0x00\n        /* \"#utility.yul\":5597:5598   */\n      dup1\n        /* \"#utility.yul\":5590:5602   */\n      revert\n        /* \"#utility.yul\":5549:5604   */\n    tag_165:\n        /* \"#utility.yul\":5629:5635   */\n      dup2\n        /* \"#utility.yul\":5623:5636   */\n      mload\n        /* \"#utility.yul\":5655:5659   */\n      0x20\n        /* \"#utility.yul\":5679:5738   */\n      tag_166\n        /* \"#utility.yul\":5695:5737   */\n      tag_167\n        /* \"#utility.yul\":5734:5736   */\n      dup4\n        /* \"#utility.yul\":5695:5737   */\n      tag_114\n      jump\t// in\n    tag_167:\n        /* \"#utility.yul\":5679:5738   */\n      tag_112\n      jump\t// in\n    tag_166:\n        /* \"#utility.yul\":5772:5787   */\n      dup3\n      dup2\n      mstore\n        /* \"#utility.yul\":5858:5859   */\n      0x05\n        /* \"#utility.yul\":5854:5864   */\n      swap3\n      swap1\n      swap3\n      shl\n        /* \"#utility.yul\":5842:5865   */\n      dup5\n      add\n        /* \"#utility.yul\":5838:5870   */\n      dup2\n      add\n      swap2\n        /* \"#utility.yul\":5803:5815   */\n      dup2\n      dup2\n      add\n      swap1\n        /* \"#utility.yul\":5882:5897   */\n      dup7\n      dup5\n      gt\n        /* \"#utility.yul\":5879:5914   */\n      iszero\n      tag_168\n      jumpi\n        /* \"#utility.yul\":5910:5911   */\n      0x00\n        /* \"#utility.yul\":5907:5908   */\n      dup1\n        /* \"#utility.yul\":5900:5912   */\n      revert\n        /* \"#utility.yul\":5879:5914   */\n    tag_168:\n        /* \"#utility.yul\":5946:5948   */\n      dup3\n        /* \"#utility.yul\":5938:5944   */\n      dup7\n        /* \"#utility.yul\":5934:5949   */\n      add\n        /* \"#utility.yul\":5958:6261   */\n    tag_169:\n        /* \"#utility.yul\":5974:5980   */\n      dup5\n        /* \"#utility.yul\":5969:5972   */\n      dup2\n        /* \"#utility.yul\":5966:5981   */\n      lt\n        /* \"#utility.yul\":5958:6261   */\n      iszero\n      tag_171\n      jumpi\n        /* \"#utility.yul\":6053:6056   */\n      dup1\n        /* \"#utility.yul\":6047:6057   */\n      mload\n        /* \"#utility.yul\":6089:6107   */\n      0xffffffffffffffff\n        /* \"#utility.yul\":6076:6087   */\n      dup2\n        /* \"#utility.yul\":6073:6108   */\n      gt\n        /* \"#utility.yul\":6070:6125   */\n      iszero\n      tag_172\n      jumpi\n        /* \"#utility.yul\":6121:6122   */\n      0x00\n        /* \"#utility.yul\":6118:6119   */\n      dup1\n        /* \"#utility.yul\":6111:6123   */\n      revert\n        /* \"#utility.yul\":6070:6125   */\n    tag_172:\n        /* \"#utility.yul\":6150:6218   */\n      tag_173\n        /* \"#utility.yul\":6214:6217   */\n      dup10\n        /* \"#utility.yul\":6209:6211   */\n      dup7\n        /* \"#utility.yul\":6195:6206   */\n      dup4\n        /* \"#utility.yul\":6187:6193   */\n      dup12\n        /* \"#utility.yul\":6183:6207   */\n      add\n        /* \"#utility.yul\":6179:6212   */\n      add\n        /* \"#utility.yul\":6150:6218   */\n      tag_113\n      jump\t// in\n    tag_173:\n        /* \"#utility.yul\":6138:6219   */\n      dup5\n      mstore\n      pop\n        /* \"#utility.yul\":6239:6251   */\n      swap2\n      dup4\n      add\n      swap2\n        /* \"#utility.yul\":5991:6003   */\n      dup4\n      add\n        /* \"#utility.yul\":5958:6261   */\n      jump(tag_169)\n    tag_171:\n      pop\n        /* \"#utility.yul\":6279:6284   */\n      swap7\n        /* \"#utility.yul\":5465:6290   */\n      swap6\n      pop\n      pop\n      pop\n      pop\n      pop\n      pop\n      jump\t// out\n        /* \"#utility.yul\":6295:6959   */\n    tag_116:\n        /* \"#utility.yul\":6360:6365   */\n      0x00\n        /* \"#utility.yul\":6413:6416   */\n      dup3\n        /* \"#utility.yul\":6406:6410   */\n      0x1f\n        /* \"#utility.yul\":6398:6404   */\n      dup4\n        /* \"#utility.yul\":6394:6411   */\n      add\n        /* \"#utility.yul\":6390:6417   */\n      slt\n        /* \"#utility.yul\":6380:6435   */\n      tag_175\n      jumpi\n        /* \"#utility.yul\":6431:6432   */\n      0x00\n        /* \"#utility.yul\":6428:6429   */\n      dup1\n        /* \"#utility.yul\":6421:6433   */\n      revert\n        /* \"#utility.yul\":6380:6435   */\n    tag_175:\n        /* \"#utility.yul\":6460:6466   */\n      dup2\n        /* \"#utility.yul\":6454:6467   */\n      mload\n        /* \"#utility.yul\":6486:6490   */\n      0x20\n        /* \"#utility.yul\":6510:6569   */\n      tag_176\n        /* \"#utility.yul\":6526:6568   */\n      tag_167\n        /* \"#utility.yul\":6565:6567   */\n      dup4\n        /* \"#utility.yul\":6526:6568   */\n      tag_114\n      jump\t// in\n        /* \"#utility.yul\":6510:6569   */\n    tag_176:\n        /* \"#utility.yul\":6591:6594   */\n      dup1\n        /* \"#utility.yul\":6615:6617   */\n      dup4\n        /* \"#utility.yul\":6610:6613   */\n      dup3\n        /* \"#utility.yul\":6603:6618   */\n      mstore\n        /* \"#utility.yul\":6643:6647   */\n      0x20\n        /* \"#utility.yul\":6638:6641   */\n      dup3\n        /* \"#utility.yul\":6634:6648   */\n      add\n        /* \"#utility.yul\":6627:6648   */\n      swap2\n      pop\n        /* \"#utility.yul\":6700:6704   */\n      0x20\n        /* \"#utility.yul\":6694:6696   */\n      dup5\n        /* \"#utility.yul\":6691:6692   */\n      0x05\n        /* \"#utility.yul\":6687:6697   */\n      shl\n        /* \"#utility.yul\":6679:6685   */\n      dup8\n        /* \"#utility.yul\":6675:6698   */\n      add\n        /* \"#utility.yul\":6671:6705   */\n      add\n        /* \"#utility.yul\":6657:6705   */\n      swap4\n      pop\n        /* \"#utility.yul\":6728:6731   */\n      dup7\n        /* \"#utility.yul\":6720:6726   */\n      dup5\n        /* \"#utility.yul\":6717:6732   */\n      gt\n        /* \"#utility.yul\":6714:6749   */\n      iszero\n      tag_178\n      jumpi\n        /* \"#utility.yul\":6745:6746   */\n      0x00\n        /* \"#utility.yul\":6742:6743   */\n      dup1\n        /* \"#utility.yul\":6735:6747   */\n      revert\n        /* \"#utility.yul\":6714:6749   */\n    tag_178:\n        /* \"#utility.yul\":6781:6785   */\n      0x20\n        /* \"#utility.yul\":6773:6779   */\n      dup7\n        /* \"#utility.yul\":6769:6786   */\n      add\n        /* \"#utility.yul\":6795:6930   */\n    tag_179:\n        /* \"#utility.yul\":6811:6817   */\n      dup5\n        /* \"#utility.yul\":6806:6809   */\n      dup2\n        /* \"#utility.yul\":6803:6818   */\n      lt\n        /* \"#utility.yul\":6795:6930   */\n      iszero\n      tag_171\n      jumpi\n        /* \"#utility.yul\":6877:6887   */\n      dup1\n      mload\n        /* \"#utility.yul\":6865:6888   */\n      dup4\n      mstore\n        /* \"#utility.yul\":6908:6920   */\n      swap2\n      dup4\n      add\n      swap2\n        /* \"#utility.yul\":6828:6840   */\n      dup4\n      add\n        /* \"#utility.yul\":6795:6930   */\n      jump(tag_179)\n        /* \"#utility.yul\":6964:8377   */\n    tag_56:\n        /* \"#utility.yul\":7060:7066   */\n      0x00\n        /* \"#utility.yul\":7113:7115   */\n      0x20\n        /* \"#utility.yul\":7101:7110   */\n      dup3\n        /* \"#utility.yul\":7092:7099   */\n      dup5\n        /* \"#utility.yul\":7088:7111   */\n      sub\n        /* \"#utility.yul\":7084:7116   */\n      slt\n        /* \"#utility.yul\":7081:7133   */\n      iszero\n      tag_183\n      jumpi\n        /* \"#utility.yul\":7129:7130   */\n      0x00\n        /* \"#utility.yul\":7126:7127   */\n      dup1\n        /* \"#utility.yul\":7119:7131   */\n      revert\n        /* \"#utility.yul\":7081:7133   */\n    tag_183:\n        /* \"#utility.yul\":7162:7171   */\n      dup2\n        /* \"#utility.yul\":7156:7172   */\n      mload\n        /* \"#utility.yul\":7191:7209   */\n      0xffffffffffffffff\n        /* \"#utility.yul\":7232:7234   */\n      dup1\n        /* \"#utility.yul\":7224:7230   */\n      dup3\n        /* \"#utility.yul\":7221:7235   */\n      gt\n        /* \"#utility.yul\":7218:7252   */\n      iszero\n      tag_184\n      jumpi\n        /* \"#utility.yul\":7248:7249   */\n      0x00\n        /* \"#utility.yul\":7245:7246   */\n      dup1\n        /* \"#utility.yul\":7238:7250   */\n      revert\n        /* \"#utility.yul\":7218:7252   */\n    tag_184:\n        /* \"#utility.yul\":7271:7293   */\n      swap1\n      dup4\n      add\n      swap1\n        /* \"#utility.yul\":7327:7331   */\n      0xc0\n        /* \"#utility.yul\":7309:7325   */\n      dup3\n      dup7\n      sub\n        /* \"#utility.yul\":7305:7332   */\n      slt\n        /* \"#utility.yul\":7302:7349   */\n      iszero\n      tag_185\n      jumpi\n        /* \"#utility.yul\":7345:7346   */\n      0x00\n        /* \"#utility.yul\":7342:7343   */\n      dup1\n        /* \"#utility.yul\":7335:7347   */\n      revert\n        /* \"#utility.yul\":7302:7349   */\n    tag_185:\n        /* \"#utility.yul\":7371:7393   */\n      tag_186\n      tag_111\n      jump\t// in\n    tag_186:\n        /* \"#utility.yul\":7424:7426   */\n      dup3\n        /* \"#utility.yul\":7418:7427   */\n      mload\n        /* \"#utility.yul\":7452:7454   */\n      dup3\n        /* \"#utility.yul\":7442:7450   */\n      dup2\n        /* \"#utility.yul\":7439:7455   */\n      gt\n        /* \"#utility.yul\":7436:7472   */\n      iszero\n      tag_187\n      jumpi\n        /* \"#utility.yul\":7468:7469   */\n      0x00\n        /* \"#utility.yul\":7465:7466   */\n      dup1\n        /* \"#utility.yul\":7458:7470   */\n      revert\n        /* \"#utility.yul\":7436:7472   */\n    tag_187:\n        /* \"#utility.yul\":7495:7551   */\n      tag_188\n        /* \"#utility.yul\":7543:7550   */\n      dup8\n        /* \"#utility.yul\":7532:7540   */\n      dup3\n        /* \"#utility.yul\":7528:7530   */\n      dup7\n        /* \"#utility.yul\":7524:7541   */\n      add\n        /* \"#utility.yul\":7495:7551   */\n      tag_113\n      jump\t// in\n    tag_188:\n        /* \"#utility.yul\":7488:7493   */\n      dup3\n        /* \"#utility.yul\":7481:7552   */\n      mstore\n      pop\n        /* \"#utility.yul\":7591:7593   */\n      0x20\n        /* \"#utility.yul\":7587:7589   */\n      dup4\n        /* \"#utility.yul\":7583:7594   */\n      add\n        /* \"#utility.yul\":7577:7595   */\n      mload\n        /* \"#utility.yul\":7620:7622   */\n      dup3\n        /* \"#utility.yul\":7610:7618   */\n      dup2\n        /* \"#utility.yul\":7607:7623   */\n      gt\n        /* \"#utility.yul\":7604:7640   */\n      iszero\n      tag_189\n      jumpi\n        /* \"#utility.yul\":7636:7637   */\n      0x00\n        /* \"#utility.yul\":7633:7634   */\n      dup1\n        /* \"#utility.yul\":7626:7638   */\n      revert\n        /* \"#utility.yul\":7604:7640   */\n    tag_189:\n        /* \"#utility.yul\":7672:7728   */\n      tag_190\n        /* \"#utility.yul\":7720:7727   */\n      dup8\n        /* \"#utility.yul\":7709:7717   */\n      dup3\n        /* \"#utility.yul\":7705:7707   */\n      dup7\n        /* \"#utility.yul\":7701:7718   */\n      add\n        /* \"#utility.yul\":7672:7728   */\n      tag_113\n      jump\t// in\n    tag_190:\n        /* \"#utility.yul\":7667:7669   */\n      0x20\n        /* \"#utility.yul\":7660:7665   */\n      dup4\n        /* \"#utility.yul\":7656:7670   */\n      add\n        /* \"#utility.yul\":7649:7729   */\n      mstore\n      pop\n        /* \"#utility.yul\":7775:7777   */\n      0x40\n        /* \"#utility.yul\":7771:7773   */\n      dup4\n        /* \"#utility.yul\":7767:7778   */\n      add\n        /* \"#utility.yul\":7761:7779   */\n      mload\n        /* \"#utility.yul\":7756:7758   */\n      0x40\n        /* \"#utility.yul\":7749:7754   */\n      dup3\n        /* \"#utility.yul\":7745:7759   */\n      add\n        /* \"#utility.yul\":7738:7780   */\n      mstore\n        /* \"#utility.yul\":7819:7821   */\n      0x60\n        /* \"#utility.yul\":7815:7817   */\n      dup4\n        /* \"#utility.yul\":7811:7822   */\n      add\n        /* \"#utility.yul\":7805:7823   */\n      mload\n        /* \"#utility.yul\":7848:7850   */\n      dup3\n        /* \"#utility.yul\":7838:7846   */\n      dup2\n        /* \"#utility.yul\":7835:7851   */\n      gt\n        /* \"#utility.yul\":7832:7868   */\n      iszero\n      tag_191\n      jumpi\n        /* \"#utility.yul\":7864:7865   */\n      0x00\n        /* \"#utility.yul\":7861:7862   */\n      dup1\n        /* \"#utility.yul\":7854:7866   */\n      revert\n        /* \"#utility.yul\":7832:7868   */\n    tag_191:\n        /* \"#utility.yul\":7900:7966   */\n      tag_192\n        /* \"#utility.yul\":7958:7965   */\n      dup8\n        /* \"#utility.yul\":7947:7955   */\n      dup3\n        /* \"#utility.yul\":7943:7945   */\n      dup7\n        /* \"#utility.yul\":7939:7956   */\n      add\n        /* \"#utility.yul\":7900:7966   */\n      tag_115\n      jump\t// in\n    tag_192:\n        /* \"#utility.yul\":7895:7897   */\n      0x60\n        /* \"#utility.yul\":7888:7893   */\n      dup4\n        /* \"#utility.yul\":7884:7898   */\n      add\n        /* \"#utility.yul\":7877:7967   */\n      mstore\n      pop\n        /* \"#utility.yul\":8006:8009   */\n      0x80\n        /* \"#utility.yul\":8002:8004   */\n      dup4\n        /* \"#utility.yul\":7998:8010   */\n      add\n        /* \"#utility.yul\":7992:8011   */\n      mload\n        /* \"#utility.yul\":8036:8038   */\n      dup3\n        /* \"#utility.yul\":8026:8034   */\n      dup2\n        /* \"#utility.yul\":8023:8039   */\n      gt\n        /* \"#utility.yul\":8020:8056   */\n      iszero\n      tag_193\n      jumpi\n        /* \"#utility.yul\":8052:8053   */\n      0x00\n        /* \"#utility.yul\":8049:8050   */\n      dup1\n        /* \"#utility.yul\":8042:8054   */\n      revert\n        /* \"#utility.yul\":8020:8056   */\n    tag_193:\n        /* \"#utility.yul\":8089:8156   */\n      tag_194\n        /* \"#utility.yul\":8148:8155   */\n      dup8\n        /* \"#utility.yul\":8137:8145   */\n      dup3\n        /* \"#utility.yul\":8133:8135   */\n      dup7\n        /* \"#utility.yul\":8129:8146   */\n      add\n        /* \"#utility.yul\":8089:8156   */\n      tag_116\n      jump\t// in\n    tag_194:\n        /* \"#utility.yul\":8083:8086   */\n      0x80\n        /* \"#utility.yul\":8076:8081   */\n      dup4\n        /* \"#utility.yul\":8072:8087   */\n      add\n        /* \"#utility.yul\":8065:8157   */\n      mstore\n      pop\n        /* \"#utility.yul\":8196:8199   */\n      0xa0\n        /* \"#utility.yul\":8192:8194   */\n      dup4\n        /* \"#utility.yul\":8188:8200   */\n      add\n        /* \"#utility.yul\":8182:8201   */\n      mload\n        /* \"#utility.yul\":8226:8228   */\n      dup3\n        /* \"#utility.yul\":8216:8224   */\n      dup2\n        /* \"#utility.yul\":8213:8229   */\n      gt\n        /* \"#utility.yul\":8210:8246   */\n      iszero\n      tag_195\n      jumpi\n        /* \"#utility.yul\":8242:8243   */\n      0x00\n        /* \"#utility.yul\":8239:8240   */\n      dup1\n        /* \"#utility.yul\":8232:8244   */\n      revert\n        /* \"#utility.yul\":8210:8246   */\n    tag_195:\n        /* \"#utility.yul\":8279:8346   */\n      tag_196\n        /* \"#utility.yul\":8338:8345   */\n      dup8\n        /* \"#utility.yul\":8327:8335   */\n      dup3\n        /* \"#utility.yul\":8323:8325   */\n      dup7\n        /* \"#utility.yul\":8319:8336   */\n      add\n        /* \"#utility.yul\":8279:8346   */\n      tag_116\n      jump\t// in\n    tag_196:\n        /* \"#utility.yul\":8273:8276   */\n      0xa0\n        /* \"#utility.yul\":8262:8277   */\n      dup4\n      add\n        /* \"#utility.yul\":8255:8347   */\n      mstore\n      pop\n        /* \"#utility.yul\":8266:8271   */\n      swap6\n        /* \"#utility.yul\":6964:8377   */\n      swap5\n      pop\n      pop\n      pop\n      pop\n      pop\n      jump\t// out\n        /* \"#utility.yul\":8382:8509   */\n    tag_66:\n        /* \"#utility.yul\":8443:8453   */\n      0x4e487b71\n        /* \"#utility.yul\":8438:8441   */\n      0xe0\n        /* \"#utility.yul\":8434:8454   */\n      shl\n        /* \"#utility.yul\":8431:8432   */\n      0x00\n        /* \"#utility.yul\":8424:8455   */\n      mstore\n        /* \"#utility.yul\":8474:8478   */\n      0x32\n        /* \"#utility.yul\":8471:8472   */\n      0x04\n        /* \"#utility.yul\":8464:8479   */\n      mstore\n        /* \"#utility.yul\":8498:8502   */\n      0x24\n        /* \"#utility.yul\":8495:8496   */\n      0x00\n        /* \"#utility.yul\":8488:8503   */\n      revert\n        /* \"#utility.yul\":8514:8698   */\n    tag_71:\n        /* \"#utility.yul\":8584:8590   */\n      0x00\n        /* \"#utility.yul\":8637:8639   */\n      0x20\n        /* \"#utility.yul\":8625:8634   */\n      dup3\n        /* \"#utility.yul\":8616:8623   */\n      dup5\n        /* \"#utility.yul\":8612:8635   */\n      sub\n        /* \"#utility.yul\":8608:8640   */\n      slt\n        /* \"#utility.yul\":8605:8657   */\n      iszero\n      tag_199\n      jumpi\n        /* \"#utility.yul\":8653:8654   */\n      0x00\n        /* \"#utility.yul\":8650:8651   */\n      dup1\n        /* \"#utility.yul\":8643:8655   */\n      revert\n        /* \"#utility.yul\":8605:8657   */\n    tag_199:\n      pop\n        /* \"#utility.yul\":8676:8692   */\n      mload\n      swap2\n        /* \"#utility.yul\":8514:8698   */\n      swap1\n      pop\n      jump\t// out\n        /* \"#utility.yul\":8829:9347   */\n    tag_118:\n        /* \"#utility.yul\":8931:8933   */\n      0x1f\n        /* \"#utility.yul\":8926:8929   */\n      dup3\n        /* \"#utility.yul\":8923:8934   */\n      gt\n        /* \"#utility.yul\":8920:9341   */\n      iszero\n      tag_202\n      jumpi\n        /* \"#utility.yul\":8967:8972   */\n      dup1\n        /* \"#utility.yul\":8964:8965   */\n      0x00\n        /* \"#utility.yul\":8957:8973   */\n      mstore\n        /* \"#utility.yul\":9011:9015   */\n      0x20\n        /* \"#utility.yul\":9008:9009   */\n      0x00\n        /* \"#utility.yul\":8998:9016   */\n      keccak256\n        /* \"#utility.yul\":9081:9083   */\n      0x1f\n        /* \"#utility.yul\":9069:9079   */\n      dup5\n        /* \"#utility.yul\":9065:9084   */\n      add\n        /* \"#utility.yul\":9062:9063   */\n      0x05\n        /* \"#utility.yul\":9058:9085   */\n      shr\n        /* \"#utility.yul\":9052:9056   */\n      dup2\n        /* \"#utility.yul\":9048:9086   */\n      add\n        /* \"#utility.yul\":9117:9121   */\n      0x20\n        /* \"#utility.yul\":9105:9115   */\n      dup6\n        /* \"#utility.yul\":9102:9122   */\n      lt\n        /* \"#utility.yul\":9099:9146   */\n      iszero\n      tag_203\n      jumpi\n      pop\n        /* \"#utility.yul\":9140:9144   */\n      dup1\n        /* \"#utility.yul\":9099:9146   */\n    tag_203:\n        /* \"#utility.yul\":9195:9197   */\n      0x1f\n        /* \"#utility.yul\":9190:9193   */\n      dup5\n        /* \"#utility.yul\":9186:9198   */\n      add\n        /* \"#utility.yul\":9183:9184   */\n      0x05\n        /* \"#utility.yul\":9179:9199   */\n      shr\n        /* \"#utility.yul\":9173:9177   */\n      dup3\n        /* \"#utility.yul\":9169:9200   */\n      add\n        /* \"#utility.yul\":9159:9200   */\n      swap2\n      pop\n        /* \"#utility.yul\":9250:9331   */\n    tag_204:\n        /* \"#utility.yul\":9268:9270   */\n      dup2\n        /* \"#utility.yul\":9261:9266   */\n      dup2\n        /* \"#utility.yul\":9258:9271   */\n      lt\n        /* \"#utility.yul\":9250:9331   */\n      iszero\n      tag_206\n      jumpi\n        /* \"#utility.yul\":9327:9328   */\n      0x00\n        /* \"#utility.yul\":9313:9329   */\n      dup2\n      sstore\n        /* \"#utility.yul\":9294:9295   */\n      0x01\n        /* \"#utility.yul\":9283:9296   */\n      add\n        /* \"#utility.yul\":9250:9331   */\n      jump(tag_204)\n    tag_206:\n        /* \"#utility.yul\":9254:9257   */\n      pop\n      pop\n        /* \"#utility.yul\":8920:9341   */\n    tag_202:\n        /* \"#utility.yul\":8829:9347   */\n      pop\n      pop\n      pop\n      jump\t// out\n        /* \"#utility.yul\":9523:10868   */\n    tag_77:\n        /* \"#utility.yul\":9649:9652   */\n      dup2\n        /* \"#utility.yul\":9643:9653   */\n      mload\n        /* \"#utility.yul\":9676:9694   */\n      0xffffffffffffffff\n        /* \"#utility.yul\":9668:9674   */\n      dup2\n        /* \"#utility.yul\":9665:9695   */\n      gt\n        /* \"#utility.yul\":9662:9718   */\n      iszero\n      tag_210\n      jumpi\n        /* \"#utility.yul\":9698:9716   */\n      tag_210\n      tag_59\n      jump\t// in\n    tag_210:\n        /* \"#utility.yul\":9727:9824   */\n      tag_211\n        /* \"#utility.yul\":9817:9823   */\n      dup2\n        /* \"#utility.yul\":9777:9815   */\n      tag_212\n        /* \"#utility.yul\":9809:9813   */\n      dup5\n        /* \"#utility.yul\":9803:9814   */\n      sload\n        /* \"#utility.yul\":9777:9815   */\n      tag_34\n      jump\t// in\n    tag_212:\n        /* \"#utility.yul\":9771:9775   */\n      dup5\n        /* \"#utility.yul\":9727:9824   */\n      tag_118\n      jump\t// in\n    tag_211:\n        /* \"#utility.yul\":9879:9883   */\n      0x20\n      dup1\n        /* \"#utility.yul\":9936:9938   */\n      0x1f\n        /* \"#utility.yul\":9925:9939   */\n      dup4\n      gt\n        /* \"#utility.yul\":9953:9954   */\n      0x01\n        /* \"#utility.yul\":9948:10611   */\n      dup2\n      eq\n      tag_214\n      jumpi\n        /* \"#utility.yul\":10655:10656   */\n      0x00\n        /* \"#utility.yul\":10672:10678   */\n      dup5\n        /* \"#utility.yul\":10669:10758   */\n      iszero\n      tag_215\n      jumpi\n      pop\n        /* \"#utility.yul\":10724:10743   */\n      dup6\n      dup4\n      add\n        /* \"#utility.yul\":10718:10744   */\n      mload\n        /* \"#utility.yul\":10669:10758   */\n    tag_215:\n      not(0x00)\n        /* \"#utility.yul\":9480:9481   */\n      0x03\n        /* \"#utility.yul\":9476:9487   */\n      dup7\n      swap1\n      shl\n        /* \"#utility.yul\":9472:9496   */\n      shr\n        /* \"#utility.yul\":9468:9497   */\n      not\n        /* \"#utility.yul\":9458:9498   */\n      and\n        /* \"#utility.yul\":9504:9505   */\n      0x01\n        /* \"#utility.yul\":9500:9511   */\n      dup6\n      swap1\n      shl\n        /* \"#utility.yul\":9455:9512   */\n      or\n        /* \"#utility.yul\":10771:10852   */\n      dup6\n      sstore\n        /* \"#utility.yul\":9918:10862   */\n      jump(tag_213)\n        /* \"#utility.yul\":9948:10611   */\n    tag_214:\n        /* \"#utility.yul\":8776:8777   */\n      0x00\n        /* \"#utility.yul\":8769:8783   */\n      dup6\n      dup2\n      mstore\n        /* \"#utility.yul\":8813:8817   */\n      0x20\n        /* \"#utility.yul\":8800:8818   */\n      dup2\n      keccak256\n      not(0x1f)\n        /* \"#utility.yul\":9984:10004   */\n      dup7\n      and\n      swap2\n        /* \"#utility.yul\":10102:10338   */\n    tag_218:\n        /* \"#utility.yul\":10116:10123   */\n      dup3\n        /* \"#utility.yul\":10113:10114   */\n      dup2\n        /* \"#utility.yul\":10110:10124   */\n      lt\n        /* \"#utility.yul\":10102:10338   */\n      iszero\n      tag_220\n      jumpi\n        /* \"#utility.yul\":10205:10224   */\n      dup9\n      dup7\n      add\n        /* \"#utility.yul\":10199:10225   */\n      mload\n        /* \"#utility.yul\":10184:10226   */\n      dup3\n      sstore\n        /* \"#utility.yul\":10297:10324   */\n      swap5\n      dup5\n      add\n      swap5\n        /* \"#utility.yul\":10265:10266   */\n      0x01\n        /* \"#utility.yul\":10253:10267   */\n      swap1\n      swap2\n      add\n      swap1\n        /* \"#utility.yul\":10132:10151   */\n      dup5\n      add\n        /* \"#utility.yul\":10102:10338   */\n      jump(tag_218)\n    tag_220:\n        /* \"#utility.yul\":10106:10109   */\n      pop\n        /* \"#utility.yul\":10366:10372   */\n      dup6\n        /* \"#utility.yul\":10357:10364   */\n      dup3\n        /* \"#utility.yul\":10354:10373   */\n      lt\n        /* \"#utility.yul\":10351:10552   */\n      iszero\n      tag_221\n      jumpi\n        /* \"#utility.yul\":10427:10446   */\n      dup8\n      dup6\n      add\n        /* \"#utility.yul\":10421:10447   */\n      mload\n      not(0x00)\n        /* \"#utility.yul\":10510:10511   */\n      0x03\n        /* \"#utility.yul\":10506:10520   */\n      dup9\n      swap1\n      shl\n        /* \"#utility.yul\":10522:10525   */\n      0xf8\n        /* \"#utility.yul\":10502:10526   */\n      and\n        /* \"#utility.yul\":10498:10535   */\n      shr\n        /* \"#utility.yul\":10494:10536   */\n      not\n        /* \"#utility.yul\":10479:10537   */\n      and\n        /* \"#utility.yul\":10464:10538   */\n      dup2\n      sstore\n        /* \"#utility.yul\":10351:10552   */\n    tag_221:\n      pop\n      pop\n        /* \"#utility.yul\":10598:10599   */\n      0x01\n        /* \"#utility.yul\":10589:10595   */\n      dup5\n        /* \"#utility.yul\":10586:10587   */\n      0x01\n        /* \"#utility.yul\":10582:10596   */\n      shl\n        /* \"#utility.yul\":10578:10600   */\n      add\n        /* \"#utility.yul\":10572:10576   */\n      dup6\n        /* \"#utility.yul\":10565:10601   */\n      sstore\n        /* \"#utility.yul\":9918:10862   */\n    tag_213:\n      pop\n      pop\n      pop\n      pop\n        /* \"#utility.yul\":9523:10868   */\n      pop\n      pop\n      jump\t// out\n        /* \"#utility.yul\":10873:11105   */\n    tag_82:\n        /* \"#utility.yul\":10912:10915   */\n      0x00\n        /* \"#utility.yul\":10933:10950   */\n      0x01\n      dup3\n      add\n        /* \"#utility.yul\":10930:11070   */\n      tag_223\n      jumpi\n        /* \"#utility.yul\":10992:11002   */\n      0x4e487b71\n        /* \"#utility.yul\":10987:10990   */\n      0xe0\n        /* \"#utility.yul\":10983:11003   */\n      shl\n        /* \"#utility.yul\":10980:10981   */\n      0x00\n        /* \"#utility.yul\":10973:11004   */\n      mstore\n        /* \"#utility.yul\":11027:11031   */\n      0x11\n        /* \"#utility.yul\":11024:11025   */\n      0x04\n        /* \"#utility.yul\":11017:11032   */\n      mstore\n        /* \"#utility.yul\":11055:11059   */\n      0x24\n        /* \"#utility.yul\":11052:11053   */\n      0x00\n        /* \"#utility.yul\":11045:11060   */\n      revert\n        /* \"#utility.yul\":10930:11070   */\n    tag_223:\n      pop\n        /* \"#utility.yul\":11097:11098   */\n      0x01\n        /* \"#utility.yul\":11086:11099   */\n      add\n      swap1\n        /* \"#utility.yul\":10873:11105   */\n      jump\t// out\n\n    auxdata: 0xa26469706673582212201027fc22545709f81cec1534f5fabd4bd6908f775d2c25345befbaa16aeeaadd64736f6c63430008180033\n}\n",
				"bytecode": {
					"linkReferences": {},
					"object": "60806040525f600455348015610013575f80fd5b50604051610e3e380380610e3e833981016040819052610032916100c3565b5f80546001600160a01b03199081163317909155600180546001600160a01b0384169216821790556100bd5760405162461bcd60e51b815260206004820152602a60248201527f446174615573616765536d617274436f6e747261637420616464726573732069604482015269399034b73b30b634b21760b11b606482015260840160405180910390fd5b506100f0565b5f602082840312156100d3575f80fd5b81516001600160a01b03811681146100e9575f80fd5b9392505050565b610d41806100fd5f395ff3fe608060405234801561000f575f80fd5b506004361061004a575f3560e01c806303e4d77f1461004e57806328e8be60146100775780633d1fee84146100885780638da5cb5b1461009d575b5f80fd5b61006161005c366004610741565b6100c7565b60405161006e91906107df565b60405180910390f35b60045460405190815260200161006e565b61009b610096366004610741565b610332565b005b5f546100af906001600160a01b031681565b6040516001600160a01b03909116815260200161006e565b6100f76040518060a001604052805f81526020015f81526020016060815260200160608152602001606081525090565b5f82815260026020526040812054900361014e5760405162461bcd60e51b81526020600482015260136024820152722637b3903237b2b9903737ba1032bc34b9ba1760691b60448201526064015b60405180910390fd5b5f828152600260208181526040808420815160a081018352815481526001820154818501529381018054835181860281018601855281815295969295938701949192909184015b8282101561023d578382905f5260205f200180546101b290610899565b80601f01602080910402602001604051908101604052809291908181526020018280546101de90610899565b80156102295780601f1061020057610100808354040283529160200191610229565b820191905f5260205f20905b81548152906001019060200180831161020c57829003601f168201915b505050505081526020019060010190610195565b50505050815260200160038201805461025590610899565b80601f016020809104026020016040519081016040528092919081815260200182805461028190610899565b80156102cc5780601f106102a3576101008083540402835291602001916102cc565b820191905f5260205f20905b8154815290600101906020018083116102af57829003601f168201915b505050505081526020016004820180548060200260200160405190810160405280929190818152602001828054801561032257602002820191905f5260205f20905b81548152602001906001019080831161030e575b5050505050815250509050919050565b5f546001600160a01b031633146103a65760405162461bcd60e51b815260206004820152603260248201527f4f6e6c792074686520636f6e7472616374206f776e65722063616e207065726660448201527137b936903a3434b99037b832b930ba34b7b760711b6064820152608401610145565b600154604051636958324d60e11b8152600481018390525f916001600160a01b03169063d2b0649a906024015f60405180830381865afa1580156103ec573d5f803e3d5ffd5b505050506040513d5f823e601f3d908101601f191682016040526104139190810190610ab2565b90505f81608001515167ffffffffffffffff811115610434576104346108d1565b60405190808252806020026020018201604052801561045d578160200160208202803683370190505b5090505f5b82608001515181101561052657600154608084015180516001600160a01b039092169163b61798f691908490811061049c5761049c610bb0565b60200260200101516040518263ffffffff1660e01b81526004016104c291815260200190565b602060405180830381865afa1580156104dd573d5f803e3d5ffd5b505050506040513d601f19601f820116820180604052508101906105019190610bc4565b82828151811061051357610513610bb0565b6020908102919091010152600101610462565b506040805160a081018252848152838201516020808301918252606080870151848601908152875191850191909152608084018690525f888152600280845295902084518155925160018401555180519394929361058b93850192919091019061063e565b50606082015160038201906105a09082610c27565b50608082015180516105bc916004840191602090910190610692565b5050600380546001810182555f9182527fc2575a0e9e593c00f959f8c92f12db2869c3395a3b0502d05e2516446f71f85b018590556004805492509061060183610ce7565b90915550506040518381527fc59b02a267f48426e708065a28f0948a454dafa87d33f04d8187b99b7203869f9060200160405180910390a1505050565b828054828255905f5260205f20908101928215610682579160200282015b8281111561068257825182906106729082610c27565b509160200191906001019061065c565b5061068e9291506106d7565b5090565b828054828255905f5260205f209081019282156106cb579160200282015b828111156106cb5782518255916020019190600101906106b0565b5061068e9291506106f3565b8082111561068e575f6106ea8282610707565b506001016106d7565b5b8082111561068e575f81556001016106f4565b50805461071390610899565b5f825580601f10610722575050565b601f0160209004905f5260205f209081019061073e91906106f3565b50565b5f60208284031215610751575f80fd5b5035919050565b5f5b8381101561077257818101518382015260200161075a565b50505f910152565b5f8151808452610791816020860160208601610758565b601f01601f19169290920160200192915050565b5f815180845260208085019450602084015f5b838110156107d4578151875295820195908201906001016107b8565b509495945050505050565b5f602080835260c08301845182850152818501516040850152604085015160a0606086015281815180845260e08701915060e08160051b880101935084830192505f5b818110156108505760df1988860301835261083e85855161077a565b94509285019291850191600101610822565b5050505060608501519150601f1980858303016080860152610872828461077a565b925060808601519150808584030160a08601525061089082826107a5565b95945050505050565b600181811c908216806108ad57607f821691505b6020821081036108cb57634e487b7160e01b5f52602260045260245ffd5b50919050565b634e487b7160e01b5f52604160045260245ffd5b60405160c0810167ffffffffffffffff81118282101715610908576109086108d1565b60405290565b604051601f8201601f1916810167ffffffffffffffff81118282101715610937576109376108d1565b604052919050565b5f82601f83011261094e575f80fd5b815167ffffffffffffffff811115610968576109686108d1565b61097b601f8201601f191660200161090e565b81815284602083860101111561098f575f80fd5b6109a0826020830160208701610758565b949350505050565b5f67ffffffffffffffff8211156109c1576109c16108d1565b5060051b60200190565b5f82601f8301126109da575f80fd5b815160206109ef6109ea836109a8565b61090e565b82815260059290921b84018101918181019086841115610a0d575f80fd5b8286015b84811015610a4b57805167ffffffffffffffff811115610a2f575f80fd5b610a3d8986838b010161093f565b845250918301918301610a11565b509695505050505050565b5f82601f830112610a65575f80fd5b81516020610a756109ea836109a8565b8083825260208201915060208460051b870101935086841115610a96575f80fd5b602086015b84811015610a4b5780518352918301918301610a9b565b5f60208284031215610ac2575f80fd5b815167ffffffffffffffff80821115610ad9575f80fd5b9083019060c08286031215610aec575f80fd5b610af46108e5565b825182811115610b02575f80fd5b610b0e8782860161093f565b825250602083015182811115610b22575f80fd5b610b2e8782860161093f565b60208301525060408301516040820152606083015182811115610b4f575f80fd5b610b5b878286016109cb565b606083015250608083015182811115610b72575f80fd5b610b7e87828601610a56565b60808301525060a083015182811115610b95575f80fd5b610ba187828601610a56565b60a08301525095945050505050565b634e487b7160e01b5f52603260045260245ffd5b5f60208284031215610bd4575f80fd5b5051919050565b601f821115610c2257805f5260205f20601f840160051c81016020851015610c005750805b601f840160051c820191505b81811015610c1f575f8155600101610c0c565b50505b505050565b815167ffffffffffffffff811115610c4157610c416108d1565b610c5581610c4f8454610899565b84610bdb565b602080601f831160018114610c88575f8415610c715750858301515b5f19600386901b1c1916600185901b178555610cdf565b5f85815260208120601f198616915b82811015610cb657888601518255948401946001909101908401610c97565b5085821015610cd357878501515f19600388901b60f8161c191681555b505060018460011b0185555b505050505050565b5f60018201610d0457634e487b7160e01b5f52601160045260245ffd5b506001019056fea26469706673582212201027fc22545709f81cec1534f5fabd4bd6908f775d2c25345befbaa16aeeaadd64736f6c63430008180033",
					"opcodes": "PUSH1 0x80 PUSH1 0x40 MSTORE PUSH0 PUSH1 0x4 SSTORE CALLVALUE DUP1 ISZERO PUSH2 0x13 JUMPI PUSH0 DUP1 REVERT JUMPDEST POP PUSH1 0x40 MLOAD PUSH2 0xE3E CODESIZE SUB DUP1 PUSH2 0xE3E DUP4 CODECOPY DUP2 ADD PUSH1 0x40 DUP2 SWAP1 MSTORE PUSH2 0x32 SWAP2 PUSH2 0xC3 JUMP JUMPDEST PUSH0 DUP1 SLOAD PUSH1 0x1 PUSH1 0x1 PUSH1 0xA0 SHL SUB NOT SWAP1 DUP2 AND CALLER OR SWAP1 SWAP2 SSTORE PUSH1 0x1 DUP1 SLOAD PUSH1 0x1 PUSH1 0x1 PUSH1 0xA0 SHL SUB DUP5 AND SWAP3 AND DUP3 OR SWAP1 SSTORE PUSH2 0xBD JUMPI PUSH1 0x40 MLOAD PUSH3 0x461BCD PUSH1 0xE5 SHL DUP2 MSTORE PUSH1 0x20 PUSH1 0x4 DUP3 ADD MSTORE PUSH1 0x2A PUSH1 0x24 DUP3 ADD MSTORE PUSH32 0x446174615573616765536D617274436F6E747261637420616464726573732069 PUSH1 0x44 DUP3 ADD MSTORE PUSH10 0x399034B73B30B634B217 PUSH1 0xB1 SHL PUSH1 0x64 DUP3 ADD MSTORE PUSH1 0x84 ADD PUSH1 0x40 MLOAD DUP1 SWAP2 SUB SWAP1 REVERT JUMPDEST POP PUSH2 0xF0 JUMP JUMPDEST PUSH0 PUSH1 0x20 DUP3 DUP5 SUB SLT ISZERO PUSH2 0xD3 JUMPI PUSH0 DUP1 REVERT JUMPDEST DUP2 MLOAD PUSH1 0x1 PUSH1 0x1 PUSH1 0xA0 SHL SUB DUP2 AND DUP2 EQ PUSH2 0xE9 JUMPI PUSH0 DUP1 REVERT JUMPDEST SWAP4 SWAP3 POP POP POP JUMP JUMPDEST PUSH2 0xD41 DUP1 PUSH2 0xFD PUSH0 CODECOPY PUSH0 RETURN INVALID PUSH1 0x80 PUSH1 0x40 MSTORE CALLVALUE DUP1 ISZERO PUSH2 0xF JUMPI PUSH0 DUP1 REVERT JUMPDEST POP PUSH1 0x4 CALLDATASIZE LT PUSH2 0x4A JUMPI PUSH0 CALLDATALOAD PUSH1 0xE0 SHR DUP1 PUSH4 0x3E4D77F EQ PUSH2 0x4E JUMPI DUP1 PUSH4 0x28E8BE60 EQ PUSH2 0x77 JUMPI DUP1 PUSH4 0x3D1FEE84 EQ PUSH2 0x88 JUMPI DUP1 PUSH4 0x8DA5CB5B EQ PUSH2 0x9D JUMPI JUMPDEST PUSH0 DUP1 REVERT JUMPDEST PUSH2 0x61 PUSH2 0x5C CALLDATASIZE PUSH1 0x4 PUSH2 0x741 JUMP JUMPDEST PUSH2 0xC7 JUMP JUMPDEST PUSH1 0x40 MLOAD PUSH2 0x6E SWAP2 SWAP1 PUSH2 0x7DF JUMP JUMPDEST PUSH1 0x40 MLOAD DUP1 SWAP2 SUB SWAP1 RETURN JUMPDEST PUSH1 0x4 SLOAD PUSH1 0x40 MLOAD SWAP1 DUP2 MSTORE PUSH1 0x20 ADD PUSH2 0x6E JUMP JUMPDEST PUSH2 0x9B PUSH2 0x96 CALLDATASIZE PUSH1 0x4 PUSH2 0x741 JUMP JUMPDEST PUSH2 0x332 JUMP JUMPDEST STOP JUMPDEST PUSH0 SLOAD PUSH2 0xAF SWAP1 PUSH1 0x1 PUSH1 0x1 PUSH1 0xA0 SHL SUB AND DUP2 JUMP JUMPDEST PUSH1 0x40 MLOAD PUSH1 0x1 PUSH1 0x1 PUSH1 0xA0 SHL SUB SWAP1 SWAP2 AND DUP2 MSTORE PUSH1 0x20 ADD PUSH2 0x6E JUMP JUMPDEST PUSH2 0xF7 PUSH1 0x40 MLOAD DUP1 PUSH1 0xA0 ADD PUSH1 0x40 MSTORE DUP1 PUSH0 DUP2 MSTORE PUSH1 0x20 ADD PUSH0 DUP2 MSTORE PUSH1 0x20 ADD PUSH1 0x60 DUP2 MSTORE PUSH1 0x20 ADD PUSH1 0x60 DUP2 MSTORE PUSH1 0x20 ADD PUSH1 0x60 DUP2 MSTORE POP SWAP1 JUMP JUMPDEST PUSH0 DUP3 DUP2 MSTORE PUSH1 0x2 PUSH1 0x20 MSTORE PUSH1 0x40 DUP2 KECCAK256 SLOAD SWAP1 SUB PUSH2 0x14E JUMPI PUSH1 0x40 MLOAD PUSH3 0x461BCD PUSH1 0xE5 SHL DUP2 MSTORE PUSH1 0x20 PUSH1 0x4 DUP3 ADD MSTORE PUSH1 0x13 PUSH1 0x24 DUP3 ADD MSTORE PUSH19 0x2637B3903237B2B9903737BA1032BC34B9BA17 PUSH1 0x69 SHL PUSH1 0x44 DUP3 ADD MSTORE PUSH1 0x64 ADD JUMPDEST PUSH1 0x40 MLOAD DUP1 SWAP2 SUB SWAP1 REVERT JUMPDEST PUSH0 DUP3 DUP2 MSTORE PUSH1 0x2 PUSH1 0x20 DUP2 DUP2 MSTORE PUSH1 0x40 DUP1 DUP5 KECCAK256 DUP2 MLOAD PUSH1 0xA0 DUP2 ADD DUP4 MSTORE DUP2 SLOAD DUP2 MSTORE PUSH1 0x1 DUP3 ADD SLOAD DUP2 DUP6 ADD MSTORE SWAP4 DUP2 ADD DUP1 SLOAD DUP4 MLOAD DUP2 DUP7 MUL DUP2 ADD DUP7 ADD DUP6 MSTORE DUP2 DUP2 MSTORE SWAP6 SWAP7 SWAP3 SWAP6 SWAP4 DUP8 ADD SWAP5 SWAP2 SWAP3 SWAP1 SWAP2 DUP5 ADD JUMPDEST DUP3 DUP3 LT ISZERO PUSH2 0x23D JUMPI DUP4 DUP3 SWAP1 PUSH0 MSTORE PUSH1 0x20 PUSH0 KECCAK256 ADD DUP1 SLOAD PUSH2 0x1B2 SWAP1 PUSH2 0x899 JUMP JUMPDEST DUP1 PUSH1 0x1F ADD PUSH1 0x20 DUP1 SWAP2 DIV MUL PUSH1 0x20 ADD PUSH1 0x40 MLOAD SWAP1 DUP2 ADD PUSH1 0x40 MSTORE DUP1 SWAP3 SWAP2 SWAP1 DUP2 DUP2 MSTORE PUSH1 0x20 ADD DUP3 DUP1 SLOAD PUSH2 0x1DE SWAP1 PUSH2 0x899 JUMP JUMPDEST DUP1 ISZERO PUSH2 0x229 JUMPI DUP1 PUSH1 0x1F LT PUSH2 0x200 JUMPI PUSH2 0x100 DUP1 DUP4 SLOAD DIV MUL DUP4 MSTORE SWAP2 PUSH1 0x20 ADD SWAP2 PUSH2 0x229 JUMP JUMPDEST DUP3 ADD SWAP2 SWAP1 PUSH0 MSTORE PUSH1 0x20 PUSH0 KECCAK256 SWAP1 JUMPDEST DUP2 SLOAD DUP2 MSTORE SWAP1 PUSH1 0x1 ADD SWAP1 PUSH1 0x20 ADD DUP1 DUP4 GT PUSH2 0x20C JUMPI DUP3 SWAP1 SUB PUSH1 0x1F AND DUP3 ADD SWAP2 JUMPDEST POP POP POP POP POP DUP2 MSTORE PUSH1 0x20 ADD SWAP1 PUSH1 0x1 ADD SWAP1 PUSH2 0x195 JUMP JUMPDEST POP POP POP POP DUP2 MSTORE PUSH1 0x20 ADD PUSH1 0x3 DUP3 ADD DUP1 SLOAD PUSH2 0x255 SWAP1 PUSH2 0x899 JUMP JUMPDEST DUP1 PUSH1 0x1F ADD PUSH1 0x20 DUP1 SWAP2 DIV MUL PUSH1 0x20 ADD PUSH1 0x40 MLOAD SWAP1 DUP2 ADD PUSH1 0x40 MSTORE DUP1 SWAP3 SWAP2 SWAP1 DUP2 DUP2 MSTORE PUSH1 0x20 ADD DUP3 DUP1 SLOAD PUSH2 0x281 SWAP1 PUSH2 0x899 JUMP JUMPDEST DUP1 ISZERO PUSH2 0x2CC JUMPI DUP1 PUSH1 0x1F LT PUSH2 0x2A3 JUMPI PUSH2 0x100 DUP1 DUP4 SLOAD DIV MUL DUP4 MSTORE SWAP2 PUSH1 0x20 ADD SWAP2 PUSH2 0x2CC JUMP JUMPDEST DUP3 ADD SWAP2 SWAP1 PUSH0 MSTORE PUSH1 0x20 PUSH0 KECCAK256 SWAP1 JUMPDEST DUP2 SLOAD DUP2 MSTORE SWAP1 PUSH1 0x1 ADD SWAP1 PUSH1 0x20 ADD DUP1 DUP4 GT PUSH2 0x2AF JUMPI DUP3 SWAP1 SUB PUSH1 0x1F AND DUP3 ADD SWAP2 JUMPDEST POP POP POP POP POP DUP2 MSTORE PUSH1 0x20 ADD PUSH1 0x4 DUP3 ADD DUP1 SLOAD DUP1 PUSH1 0x20 MUL PUSH1 0x20 ADD PUSH1 0x40 MLOAD SWAP1 DUP2 ADD PUSH1 0x40 MSTORE DUP1 SWAP3 SWAP2 SWAP1 DUP2 DUP2 MSTORE PUSH1 0x20 ADD DUP3 DUP1 SLOAD DUP1 ISZERO PUSH2 0x322 JUMPI PUSH1 0x20 MUL DUP3 ADD SWAP2 SWAP1 PUSH0 MSTORE PUSH1 0x20 PUSH0 KECCAK256 SWAP1 JUMPDEST DUP2 SLOAD DUP2 MSTORE PUSH1 0x20 ADD SWAP1 PUSH1 0x1 ADD SWAP1 DUP1 DUP4 GT PUSH2 0x30E JUMPI JUMPDEST POP POP POP POP POP DUP2 MSTORE POP POP SWAP1 POP SWAP2 SWAP1 POP JUMP JUMPDEST PUSH0 SLOAD PUSH1 0x1 PUSH1 0x1 PUSH1 0xA0 SHL SUB AND CALLER EQ PUSH2 0x3A6 JUMPI PUSH1 0x40 MLOAD PUSH3 0x461BCD PUSH1 0xE5 SHL DUP2 MSTORE PUSH1 0x20 PUSH1 0x4 DUP3 ADD MSTORE PUSH1 0x32 PUSH1 0x24 DUP3 ADD MSTORE PUSH32 0x4F6E6C792074686520636F6E7472616374206F776E65722063616E2070657266 PUSH1 0x44 DUP3 ADD MSTORE PUSH18 0x37B936903A3434B99037B832B930BA34B7B7 PUSH1 0x71 SHL PUSH1 0x64 DUP3 ADD MSTORE PUSH1 0x84 ADD PUSH2 0x145 JUMP JUMPDEST PUSH1 0x1 SLOAD PUSH1 0x40 MLOAD PUSH4 0x6958324D PUSH1 0xE1 SHL DUP2 MSTORE PUSH1 0x4 DUP2 ADD DUP4 SWAP1 MSTORE PUSH0 SWAP2 PUSH1 0x1 PUSH1 0x1 PUSH1 0xA0 SHL SUB AND SWAP1 PUSH4 0xD2B0649A SWAP1 PUSH1 0x24 ADD PUSH0 PUSH1 0x40 MLOAD DUP1 DUP4 SUB DUP2 DUP7 GAS STATICCALL ISZERO DUP1 ISZERO PUSH2 0x3EC JUMPI RETURNDATASIZE PUSH0 DUP1 RETURNDATACOPY RETURNDATASIZE PUSH0 REVERT JUMPDEST POP POP POP POP PUSH1 0x40 MLOAD RETURNDATASIZE PUSH0 DUP3 RETURNDATACOPY PUSH1 0x1F RETURNDATASIZE SWAP1 DUP2 ADD PUSH1 0x1F NOT AND DUP3 ADD PUSH1 0x40 MSTORE PUSH2 0x413 SWAP2 SWAP1 DUP2 ADD SWAP1 PUSH2 0xAB2 JUMP JUMPDEST SWAP1 POP PUSH0 DUP2 PUSH1 0x80 ADD MLOAD MLOAD PUSH8 0xFFFFFFFFFFFFFFFF DUP2 GT ISZERO PUSH2 0x434 JUMPI PUSH2 0x434 PUSH2 0x8D1 JUMP JUMPDEST PUSH1 0x40 MLOAD SWAP1 DUP1 DUP3 MSTORE DUP1 PUSH1 0x20 MUL PUSH1 0x20 ADD DUP3 ADD PUSH1 0x40 MSTORE DUP1 ISZERO PUSH2 0x45D JUMPI DUP2 PUSH1 0x20 ADD PUSH1 0x20 DUP3 MUL DUP1 CALLDATASIZE DUP4 CALLDATACOPY ADD SWAP1 POP JUMPDEST POP SWAP1 POP PUSH0 JUMPDEST DUP3 PUSH1 0x80 ADD MLOAD MLOAD DUP2 LT ISZERO PUSH2 0x526 JUMPI PUSH1 0x1 SLOAD PUSH1 0x80 DUP5 ADD MLOAD DUP1 MLOAD PUSH1 0x1 PUSH1 0x1 PUSH1 0xA0 SHL SUB SWAP1 SWAP3 AND SWAP2 PUSH4 0xB61798F6 SWAP2 SWAP1 DUP5 SWAP1 DUP2 LT PUSH2 0x49C JUMPI PUSH2 0x49C PUSH2 0xBB0 JUMP JUMPDEST PUSH1 0x20 MUL PUSH1 0x20 ADD ADD MLOAD PUSH1 0x40 MLOAD DUP3 PUSH4 0xFFFFFFFF AND PUSH1 0xE0 SHL DUP2 MSTORE PUSH1 0x4 ADD PUSH2 0x4C2 SWAP2 DUP2 MSTORE PUSH1 0x20 ADD SWAP1 JUMP JUMPDEST PUSH1 0x20 PUSH1 0x40 MLOAD DUP1 DUP4 SUB DUP2 DUP7 GAS STATICCALL ISZERO DUP1 ISZERO PUSH2 0x4DD JUMPI RETURNDATASIZE PUSH0 DUP1 RETURNDATACOPY RETURNDATASIZE PUSH0 REVERT JUMPDEST POP POP POP POP PUSH1 0x40 MLOAD RETURNDATASIZE PUSH1 0x1F NOT PUSH1 0x1F DUP3 ADD AND DUP3 ADD DUP1 PUSH1 0x40 MSTORE POP DUP2 ADD SWAP1 PUSH2 0x501 SWAP2 SWAP1 PUSH2 0xBC4 JUMP JUMPDEST DUP3 DUP3 DUP2 MLOAD DUP2 LT PUSH2 0x513 JUMPI PUSH2 0x513 PUSH2 0xBB0 JUMP JUMPDEST PUSH1 0x20 SWAP1 DUP2 MUL SWAP2 SWAP1 SWAP2 ADD ADD MSTORE PUSH1 0x1 ADD PUSH2 0x462 JUMP JUMPDEST POP PUSH1 0x40 DUP1 MLOAD PUSH1 0xA0 DUP2 ADD DUP3 MSTORE DUP5 DUP2 MSTORE DUP4 DUP3 ADD MLOAD PUSH1 0x20 DUP1 DUP4 ADD SWAP2 DUP3 MSTORE PUSH1 0x60 DUP1 DUP8 ADD MLOAD DUP5 DUP7 ADD SWAP1 DUP2 MSTORE DUP8 MLOAD SWAP2 DUP6 ADD SWAP2 SWAP1 SWAP2 MSTORE PUSH1 0x80 DUP5 ADD DUP7 SWAP1 MSTORE PUSH0 DUP9 DUP2 MSTORE PUSH1 0x2 DUP1 DUP5 MSTORE SWAP6 SWAP1 KECCAK256 DUP5 MLOAD DUP2 SSTORE SWAP3 MLOAD PUSH1 0x1 DUP5 ADD SSTORE MLOAD DUP1 MLOAD SWAP4 SWAP5 SWAP3 SWAP4 PUSH2 0x58B SWAP4 DUP6 ADD SWAP3 SWAP2 SWAP1 SWAP2 ADD SWAP1 PUSH2 0x63E JUMP JUMPDEST POP PUSH1 0x60 DUP3 ADD MLOAD PUSH1 0x3 DUP3 ADD SWAP1 PUSH2 0x5A0 SWAP1 DUP3 PUSH2 0xC27 JUMP JUMPDEST POP PUSH1 0x80 DUP3 ADD MLOAD DUP1 MLOAD PUSH2 0x5BC SWAP2 PUSH1 0x4 DUP5 ADD SWAP2 PUSH1 0x20 SWAP1 SWAP2 ADD SWAP1 PUSH2 0x692 JUMP JUMPDEST POP POP PUSH1 0x3 DUP1 SLOAD PUSH1 0x1 DUP2 ADD DUP3 SSTORE PUSH0 SWAP2 DUP3 MSTORE PUSH32 0xC2575A0E9E593C00F959F8C92F12DB2869C3395A3B0502D05E2516446F71F85B ADD DUP6 SWAP1 SSTORE PUSH1 0x4 DUP1 SLOAD SWAP3 POP SWAP1 PUSH2 0x601 DUP4 PUSH2 0xCE7 JUMP JUMPDEST SWAP1 SWAP2 SSTORE POP POP PUSH1 0x40 MLOAD DUP4 DUP2 MSTORE PUSH32 0xC59B02A267F48426E708065A28F0948A454DAFA87D33F04D8187B99B7203869F SWAP1 PUSH1 0x20 ADD PUSH1 0x40 MLOAD DUP1 SWAP2 SUB SWAP1 LOG1 POP POP POP JUMP JUMPDEST DUP3 DUP1 SLOAD DUP3 DUP3 SSTORE SWAP1 PUSH0 MSTORE PUSH1 0x20 PUSH0 KECCAK256 SWAP1 DUP2 ADD SWAP3 DUP3 ISZERO PUSH2 0x682 JUMPI SWAP2 PUSH1 0x20 MUL DUP3 ADD JUMPDEST DUP3 DUP2 GT ISZERO PUSH2 0x682 JUMPI DUP3 MLOAD DUP3 SWAP1 PUSH2 0x672 SWAP1 DUP3 PUSH2 0xC27 JUMP JUMPDEST POP SWAP2 PUSH1 0x20 ADD SWAP2 SWAP1 PUSH1 0x1 ADD SWAP1 PUSH2 0x65C JUMP JUMPDEST POP PUSH2 0x68E SWAP3 SWAP2 POP PUSH2 0x6D7 JUMP JUMPDEST POP SWAP1 JUMP JUMPDEST DUP3 DUP1 SLOAD DUP3 DUP3 SSTORE SWAP1 PUSH0 MSTORE PUSH1 0x20 PUSH0 KECCAK256 SWAP1 DUP2 ADD SWAP3 DUP3 ISZERO PUSH2 0x6CB JUMPI SWAP2 PUSH1 0x20 MUL DUP3 ADD JUMPDEST DUP3 DUP2 GT ISZERO PUSH2 0x6CB JUMPI DUP3 MLOAD DUP3 SSTORE SWAP2 PUSH1 0x20 ADD SWAP2 SWAP1 PUSH1 0x1 ADD SWAP1 PUSH2 0x6B0 JUMP JUMPDEST POP PUSH2 0x68E SWAP3 SWAP2 POP PUSH2 0x6F3 JUMP JUMPDEST DUP1 DUP3 GT ISZERO PUSH2 0x68E JUMPI PUSH0 PUSH2 0x6EA DUP3 DUP3 PUSH2 0x707 JUMP JUMPDEST POP PUSH1 0x1 ADD PUSH2 0x6D7 JUMP JUMPDEST JUMPDEST DUP1 DUP3 GT ISZERO PUSH2 0x68E JUMPI PUSH0 DUP2 SSTORE PUSH1 0x1 ADD PUSH2 0x6F4 JUMP JUMPDEST POP DUP1 SLOAD PUSH2 0x713 SWAP1 PUSH2 0x899 JUMP JUMPDEST PUSH0 DUP3 SSTORE DUP1 PUSH1 0x1F LT PUSH2 0x722 JUMPI POP POP JUMP JUMPDEST PUSH1 0x1F ADD PUSH1 0x20 SWAP1 DIV SWAP1 PUSH0 MSTORE PUSH1 0x20 PUSH0 KECCAK256 SWAP1 DUP2 ADD SWAP1 PUSH2 0x73E SWAP2 SWAP1 PUSH2 0x6F3 JUMP JUMPDEST POP JUMP JUMPDEST PUSH0 PUSH1 0x20 DUP3 DUP5 SUB SLT ISZERO PUSH2 0x751 JUMPI PUSH0 DUP1 REVERT JUMPDEST POP CALLDATALOAD SWAP2 SWAP1 POP JUMP JUMPDEST PUSH0 JUMPDEST DUP4 DUP2 LT ISZERO PUSH2 0x772 JUMPI DUP2 DUP2 ADD MLOAD DUP4 DUP3 ADD MSTORE PUSH1 0x20 ADD PUSH2 0x75A JUMP JUMPDEST POP POP PUSH0 SWAP2 ADD MSTORE JUMP JUMPDEST PUSH0 DUP2 MLOAD DUP1 DUP5 MSTORE PUSH2 0x791 DUP2 PUSH1 0x20 DUP7 ADD PUSH1 0x20 DUP7 ADD PUSH2 0x758 JUMP JUMPDEST PUSH1 0x1F ADD PUSH1 0x1F NOT AND SWAP3 SWAP1 SWAP3 ADD PUSH1 0x20 ADD SWAP3 SWAP2 POP POP JUMP JUMPDEST PUSH0 DUP2 MLOAD DUP1 DUP5 MSTORE PUSH1 0x20 DUP1 DUP6 ADD SWAP5 POP PUSH1 0x20 DUP5 ADD PUSH0 JUMPDEST DUP4 DUP2 LT ISZERO PUSH2 0x7D4 JUMPI DUP2 MLOAD DUP8 MSTORE SWAP6 DUP3 ADD SWAP6 SWAP1 DUP3 ADD SWAP1 PUSH1 0x1 ADD PUSH2 0x7B8 JUMP JUMPDEST POP SWAP5 SWAP6 SWAP5 POP POP POP POP POP JUMP JUMPDEST PUSH0 PUSH1 0x20 DUP1 DUP4 MSTORE PUSH1 0xC0 DUP4 ADD DUP5 MLOAD DUP3 DUP6 ADD MSTORE DUP2 DUP6 ADD MLOAD PUSH1 0x40 DUP6 ADD MSTORE PUSH1 0x40 DUP6 ADD MLOAD PUSH1 0xA0 PUSH1 0x60 DUP7 ADD MSTORE DUP2 DUP2 MLOAD DUP1 DUP5 MSTORE PUSH1 0xE0 DUP8 ADD SWAP2 POP PUSH1 0xE0 DUP2 PUSH1 0x5 SHL DUP9 ADD ADD SWAP4 POP DUP5 DUP4 ADD SWAP3 POP PUSH0 JUMPDEST DUP2 DUP2 LT ISZERO PUSH2 0x850 JUMPI PUSH1 0xDF NOT DUP9 DUP7 SUB ADD DUP4 MSTORE PUSH2 0x83E DUP6 DUP6 MLOAD PUSH2 0x77A JUMP JUMPDEST SWAP5 POP SWAP3 DUP6 ADD SWAP3 SWAP2 DUP6 ADD SWAP2 PUSH1 0x1 ADD PUSH2 0x822 JUMP JUMPDEST POP POP POP POP PUSH1 0x60 DUP6 ADD MLOAD SWAP2 POP PUSH1 0x1F NOT DUP1 DUP6 DUP4 SUB ADD PUSH1 0x80 DUP7 ADD MSTORE PUSH2 0x872 DUP3 DUP5 PUSH2 0x77A JUMP JUMPDEST SWAP3 POP PUSH1 0x80 DUP7 ADD MLOAD SWAP2 POP DUP1 DUP6 DUP5 SUB ADD PUSH1 0xA0 DUP7 ADD MSTORE POP PUSH2 0x890 DUP3 DUP3 PUSH2 0x7A5 JUMP JUMPDEST SWAP6 SWAP5 POP POP POP POP POP JUMP JUMPDEST PUSH1 0x1 DUP2 DUP2 SHR SWAP1 DUP3 AND DUP1 PUSH2 0x8AD JUMPI PUSH1 0x7F DUP3 AND SWAP2 POP JUMPDEST PUSH1 0x20 DUP3 LT DUP2 SUB PUSH2 0x8CB JUMPI PUSH4 0x4E487B71 PUSH1 0xE0 SHL PUSH0 MSTORE PUSH1 0x22 PUSH1 0x4 MSTORE PUSH1 0x24 PUSH0 REVERT JUMPDEST POP SWAP2 SWAP1 POP JUMP JUMPDEST PUSH4 0x4E487B71 PUSH1 0xE0 SHL PUSH0 MSTORE PUSH1 0x41 PUSH1 0x4 MSTORE PUSH1 0x24 PUSH0 REVERT JUMPDEST PUSH1 0x40 MLOAD PUSH1 0xC0 DUP2 ADD PUSH8 0xFFFFFFFFFFFFFFFF DUP2 GT DUP3 DUP3 LT OR ISZERO PUSH2 0x908 JUMPI PUSH2 0x908 PUSH2 0x8D1 JUMP JUMPDEST PUSH1 0x40 MSTORE SWAP1 JUMP JUMPDEST PUSH1 0x40 MLOAD PUSH1 0x1F DUP3 ADD PUSH1 0x1F NOT AND DUP2 ADD PUSH8 0xFFFFFFFFFFFFFFFF DUP2 GT DUP3 DUP3 LT OR ISZERO PUSH2 0x937 JUMPI PUSH2 0x937 PUSH2 0x8D1 JUMP JUMPDEST PUSH1 0x40 MSTORE SWAP2 SWAP1 POP JUMP JUMPDEST PUSH0 DUP3 PUSH1 0x1F DUP4 ADD SLT PUSH2 0x94E JUMPI PUSH0 DUP1 REVERT JUMPDEST DUP2 MLOAD PUSH8 0xFFFFFFFFFFFFFFFF DUP2 GT ISZERO PUSH2 0x968 JUMPI PUSH2 0x968 PUSH2 0x8D1 JUMP JUMPDEST PUSH2 0x97B PUSH1 0x1F DUP3 ADD PUSH1 0x1F NOT AND PUSH1 0x20 ADD PUSH2 0x90E JUMP JUMPDEST DUP2 DUP2 MSTORE DUP5 PUSH1 0x20 DUP4 DUP7 ADD ADD GT ISZERO PUSH2 0x98F JUMPI PUSH0 DUP1 REVERT JUMPDEST PUSH2 0x9A0 DUP3 PUSH1 0x20 DUP4 ADD PUSH1 0x20 DUP8 ADD PUSH2 0x758 JUMP JUMPDEST SWAP5 SWAP4 POP POP POP POP JUMP JUMPDEST PUSH0 PUSH8 0xFFFFFFFFFFFFFFFF DUP3 GT ISZERO PUSH2 0x9C1 JUMPI PUSH2 0x9C1 PUSH2 0x8D1 JUMP JUMPDEST POP PUSH1 0x5 SHL PUSH1 0x20 ADD SWAP1 JUMP JUMPDEST PUSH0 DUP3 PUSH1 0x1F DUP4 ADD SLT PUSH2 0x9DA JUMPI PUSH0 DUP1 REVERT JUMPDEST DUP2 MLOAD PUSH1 0x20 PUSH2 0x9EF PUSH2 0x9EA DUP4 PUSH2 0x9A8 JUMP JUMPDEST PUSH2 0x90E JUMP JUMPDEST DUP3 DUP2 MSTORE PUSH1 0x5 SWAP3 SWAP1 SWAP3 SHL DUP5 ADD DUP2 ADD SWAP2 DUP2 DUP2 ADD SWAP1 DUP7 DUP5 GT ISZERO PUSH2 0xA0D JUMPI PUSH0 DUP1 REVERT JUMPDEST DUP3 DUP7 ADD JUMPDEST DUP5 DUP2 LT ISZERO PUSH2 0xA4B JUMPI DUP1 MLOAD PUSH8 0xFFFFFFFFFFFFFFFF DUP2 GT ISZERO PUSH2 0xA2F JUMPI PUSH0 DUP1 REVERT JUMPDEST PUSH2 0xA3D DUP10 DUP7 DUP4 DUP12 ADD ADD PUSH2 0x93F JUMP JUMPDEST DUP5 MSTORE POP SWAP2 DUP4 ADD SWAP2 DUP4 ADD PUSH2 0xA11 JUMP JUMPDEST POP SWAP7 SWAP6 POP POP POP POP POP POP JUMP JUMPDEST PUSH0 DUP3 PUSH1 0x1F DUP4 ADD SLT PUSH2 0xA65 JUMPI PUSH0 DUP1 REVERT JUMPDEST DUP2 MLOAD PUSH1 0x20 PUSH2 0xA75 PUSH2 0x9EA DUP4 PUSH2 0x9A8 JUMP JUMPDEST DUP1 DUP4 DUP3 MSTORE PUSH1 0x20 DUP3 ADD SWAP2 POP PUSH1 0x20 DUP5 PUSH1 0x5 SHL DUP8 ADD ADD SWAP4 POP DUP7 DUP5 GT ISZERO PUSH2 0xA96 JUMPI PUSH0 DUP1 REVERT JUMPDEST PUSH1 0x20 DUP7 ADD JUMPDEST DUP5 DUP2 LT ISZERO PUSH2 0xA4B JUMPI DUP1 MLOAD DUP4 MSTORE SWAP2 DUP4 ADD SWAP2 DUP4 ADD PUSH2 0xA9B JUMP JUMPDEST PUSH0 PUSH1 0x20 DUP3 DUP5 SUB SLT ISZERO PUSH2 0xAC2 JUMPI PUSH0 DUP1 REVERT JUMPDEST DUP2 MLOAD PUSH8 0xFFFFFFFFFFFFFFFF DUP1 DUP3 GT ISZERO PUSH2 0xAD9 JUMPI PUSH0 DUP1 REVERT JUMPDEST SWAP1 DUP4 ADD SWAP1 PUSH1 0xC0 DUP3 DUP7 SUB SLT ISZERO PUSH2 0xAEC JUMPI PUSH0 DUP1 REVERT JUMPDEST PUSH2 0xAF4 PUSH2 0x8E5 JUMP JUMPDEST DUP3 MLOAD DUP3 DUP2 GT ISZERO PUSH2 0xB02 JUMPI PUSH0 DUP1 REVERT JUMPDEST PUSH2 0xB0E DUP8 DUP3 DUP7 ADD PUSH2 0x93F JUMP JUMPDEST DUP3 MSTORE POP PUSH1 0x20 DUP4 ADD MLOAD DUP3 DUP2 GT ISZERO PUSH2 0xB22 JUMPI PUSH0 DUP1 REVERT JUMPDEST PUSH2 0xB2E DUP8 DUP3 DUP7 ADD PUSH2 0x93F JUMP JUMPDEST PUSH1 0x20 DUP4 ADD MSTORE POP PUSH1 0x40 DUP4 ADD MLOAD PUSH1 0x40 DUP3 ADD MSTORE PUSH1 0x60 DUP4 ADD MLOAD DUP3 DUP2 GT ISZERO PUSH2 0xB4F JUMPI PUSH0 DUP1 REVERT JUMPDEST PUSH2 0xB5B DUP8 DUP3 DUP7 ADD PUSH2 0x9CB JUMP JUMPDEST PUSH1 0x60 DUP4 ADD MSTORE POP PUSH1 0x80 DUP4 ADD MLOAD DUP3 DUP2 GT ISZERO PUSH2 0xB72 JUMPI PUSH0 DUP1 REVERT JUMPDEST PUSH2 0xB7E DUP8 DUP3 DUP7 ADD PUSH2 0xA56 JUMP JUMPDEST PUSH1 0x80 DUP4 ADD MSTORE POP PUSH1 0xA0 DUP4 ADD MLOAD DUP3 DUP2 GT ISZERO PUSH2 0xB95 JUMPI PUSH0 DUP1 REVERT JUMPDEST PUSH2 0xBA1 DUP8 DUP3 DUP7 ADD PUSH2 0xA56 JUMP JUMPDEST PUSH1 0xA0 DUP4 ADD MSTORE POP SWAP6 SWAP5 POP POP POP POP POP JUMP JUMPDEST PUSH4 0x4E487B71 PUSH1 0xE0 SHL PUSH0 MSTORE PUSH1 0x32 PUSH1 0x4 MSTORE PUSH1 0x24 PUSH0 REVERT JUMPDEST PUSH0 PUSH1 0x20 DUP3 DUP5 SUB SLT ISZERO PUSH2 0xBD4 JUMPI PUSH0 DUP1 REVERT JUMPDEST POP MLOAD SWAP2 SWAP1 POP JUMP JUMPDEST PUSH1 0x1F DUP3 GT ISZERO PUSH2 0xC22 JUMPI DUP1 PUSH0 MSTORE PUSH1 0x20 PUSH0 KECCAK256 PUSH1 0x1F DUP5 ADD PUSH1 0x5 SHR DUP2 ADD PUSH1 0x20 DUP6 LT ISZERO PUSH2 0xC00 JUMPI POP DUP1 JUMPDEST PUSH1 0x1F DUP5 ADD PUSH1 0x5 SHR DUP3 ADD SWAP2 POP JUMPDEST DUP2 DUP2 LT ISZERO PUSH2 0xC1F JUMPI PUSH0 DUP2 SSTORE PUSH1 0x1 ADD PUSH2 0xC0C JUMP JUMPDEST POP POP JUMPDEST POP POP POP JUMP JUMPDEST DUP2 MLOAD PUSH8 0xFFFFFFFFFFFFFFFF DUP2 GT ISZERO PUSH2 0xC41 JUMPI PUSH2 0xC41 PUSH2 0x8D1 JUMP JUMPDEST PUSH2 0xC55 DUP2 PUSH2 0xC4F DUP5 SLOAD PUSH2 0x899 JUMP JUMPDEST DUP5 PUSH2 0xBDB JUMP JUMPDEST PUSH1 0x20 DUP1 PUSH1 0x1F DUP4 GT PUSH1 0x1 DUP2 EQ PUSH2 0xC88 JUMPI PUSH0 DUP5 ISZERO PUSH2 0xC71 JUMPI POP DUP6 DUP4 ADD MLOAD JUMPDEST PUSH0 NOT PUSH1 0x3 DUP7 SWAP1 SHL SHR NOT AND PUSH1 0x1 DUP6 SWAP1 SHL OR DUP6 SSTORE PUSH2 0xCDF JUMP JUMPDEST PUSH0 DUP6 DUP2 MSTORE PUSH1 0x20 DUP2 KECCAK256 PUSH1 0x1F NOT DUP7 AND SWAP2 JUMPDEST DUP3 DUP2 LT ISZERO PUSH2 0xCB6 JUMPI DUP9 DUP7 ADD MLOAD DUP3 SSTORE SWAP5 DUP5 ADD SWAP5 PUSH1 0x1 SWAP1 SWAP2 ADD SWAP1 DUP5 ADD PUSH2 0xC97 JUMP JUMPDEST POP DUP6 DUP3 LT ISZERO PUSH2 0xCD3 JUMPI DUP8 DUP6 ADD MLOAD PUSH0 NOT PUSH1 0x3 DUP9 SWAP1 SHL PUSH1 0xF8 AND SHR NOT AND DUP2 SSTORE JUMPDEST POP POP PUSH1 0x1 DUP5 PUSH1 0x1 SHL ADD DUP6 SSTORE JUMPDEST POP POP POP POP POP POP JUMP JUMPDEST PUSH0 PUSH1 0x1 DUP3 ADD PUSH2 0xD04 JUMPI PUSH4 0x4E487B71 PUSH1 0xE0 SHL PUSH0 MSTORE PUSH1 0x11 PUSH1 0x4 MSTORE PUSH1 0x24 PUSH0 REVERT JUMPDEST POP PUSH1 0x1 ADD SWAP1 JUMP INVALID LOG2 PUSH5 0x6970667358 0x22 SLT KECCAK256 LT 0x27 0xFC 0x22 SLOAD JUMPI MULMOD 0xF8 SHR 0xEC ISZERO CALLVALUE CREATE2 STATICCALL 0xBD 0x4B 0xD6 SWAP1 DUP16 PUSH24 0x5D2C25345BEFBAA16AEEAADD64736F6C6343000818003300 "
				},
				"gasEstimates": {
					"creation": {
						"codeDepositCost": "678600",
						"executionCost": "infinite",
						"totalCost": "infinite"
					},
					"external": {
						"addLog(uint256)": "infinite",
						"getLogByKey(uint256)": "infinite",
						"getLogCounter()": "2279",
						"owner()": "2379"
					}
				},
				"methodIdentifiers": {
					"addLog(uint256)": "3d1fee84",
					"getLogByKey(uint256)": "03e4d77f",
					"getLogCounter()": "28e8be60",
					"owner()": "8da5cb5b"
				}
			},
			"storageLayout": {
				"storage": [
					{
						"astId": 3,
						"contract": "contracts/LogSmartContract.sol:LogSmartContract",
						"label": "owner",
						"offset": 0,
						"slot": "0",
						"type": "t_address"
					},
					{
						"astId": 589,
						"contract": "contracts/LogSmartContract.sol:LogSmartContract",
						"label": "dataUsageSmartContract",
						"offset": 0,
						"slot": "1",
						"type": "t_contract(DataUsageSmartContract)567"
					},
					{
						"astId": 594,
						"contract": "contracts/LogSmartContract.sol:LogSmartContract",
						"label": "logs",
						"offset": 0,
						"slot": "2",
						"type": "t_mapping(t_uint256,t_struct(Log)586_storage)"
					},
					{
						"astId": 597,
						"contract": "contracts/LogSmartContract.sol:LogSmartContract",
						"label": "logKeys",
						"offset": 0,
						"slot": "3",
						"type": "t_array(t_uint256)dyn_storage"
					},
					{
						"astId": 600,
						"contract": "contracts/LogSmartContract.sol:LogSmartContract",
						"label": "logCounter",
						"offset": 0,
						"slot": "4",
						"type": "t_uint256"
					}
				],
				"types": {
					"t_address": {
						"encoding": "inplace",
						"label": "address",
						"numberOfBytes": "20"
					},
					"t_array(t_bytes32)dyn_storage": {
						"base": "t_bytes32",
						"encoding": "dynamic_array",
						"label": "bytes32[]",
						"numberOfBytes": "32"
					},
					"t_array(t_string_storage)dyn_storage": {
						"base": "t_string_storage",
						"encoding": "dynamic_array",
						"label": "string[]",
						"numberOfBytes": "32"
					},
					"t_array(t_uint256)dyn_storage": {
						"base": "t_uint256",
						"encoding": "dynamic_array",
						"label": "uint256[]",
						"numberOfBytes": "32"
					},
					"t_bytes32": {
						"encoding": "inplace",
						"label": "bytes32",
						"numberOfBytes": "32"
					},
					"t_contract(DataUsageSmartContract)567": {
						"encoding": "inplace",
						"label": "contract DataUsageSmartContract",
						"numberOfBytes": "20"
					},
					"t_mapping(t_uint256,t_struct(Log)586_storage)": {
						"encoding": "mapping",
						"key": "t_uint256",
						"label": "mapping(uint256 => struct LogSmartContract.Log)",
						"numberOfBytes": "32",
						"value": "t_struct(Log)586_storage"
					},
					"t_string_storage": {
						"encoding": "bytes",
						"label": "string",
						"numberOfBytes": "32"
					},
					"t_struct(Log)586_storage": {
						"encoding": "inplace",
						"label": "struct LogSmartContract.Log",
						"members": [
							{
								"astId": 575,
								"contract": "contracts/LogSmartContract.sol:LogSmartContract",
								"label": "dataUsageId",
								"offset": 0,
								"slot": "0",
								"type": "t_uint256"
							},
							{
								"astId": 577,
								"contract": "contracts/LogSmartContract.sol:LogSmartContract",
								"label": "actorId",
								"offset": 0,
								"slot": "1",
								"type": "t_uint256"
							},
							{
								"astId": 580,
								"contract": "contracts/LogSmartContract.sol:LogSmartContract",
								"label": "operations",
								"offset": 0,
								"slot": "2",
								"type": "t_array(t_string_storage)dyn_storage"
							},
							{
								"astId": 582,
								"contract": "contracts/LogSmartContract.sol:LogSmartContract",
								"label": "serviceName",
								"offset": 0,
								"slot": "3",
								"type": "t_string_storage"
							},
							{
								"astId": 585,
								"contract": "contracts/LogSmartContract.sol:LogSmartContract",
								"label": "processedPersonalDatas",
								"offset": 0,
								"slot": "4",
								"type": "t_array(t_bytes32)dyn_storage"
							}
						],
						"numberOfBytes": "160"
					},
					"t_uint256": {
						"encoding": "inplace",
						"label": "uint256",
						"numberOfBytes": "32"
					}
				}
			},
			"userdoc": {
				"kind": "user",
				"methods": {},
				"version": 1
			}
		}
	}
}