{
	"contracts/AgreementSmartContract.sol": {
		"AgreementSmartContract": {
			"abi": [
				{
					"inputs": [
						{
							"internalType": "bytes32",
							"name": "_purposeBlockHash",
							"type": "bytes32"
						},
						{
							"internalType": "uint256",
							"name": "_userID",
							"type": "uint256"
						},
						{
							"internalType": "bool",
							"name": "_consent",
							"type": "bool"
						}
					],
					"name": "addAgreement",
					"outputs": [],
					"stateMutability": "nonpayable",
					"type": "function"
				},
				{
					"inputs": [],
					"name": "agreementCount",
					"outputs": [
						{
							"internalType": "uint256",
							"name": "",
							"type": "uint256"
						}
					],
					"stateMutability": "view",
					"type": "function"
				},
				{
					"inputs": [
						{
							"internalType": "uint256",
							"name": "",
							"type": "uint256"
						}
					],
					"name": "agreements",
					"outputs": [
						{
							"internalType": "bytes32",
							"name": "purposeBlockHash",
							"type": "bytes32"
						},
						{
							"internalType": "uint256",
							"name": "userID",
							"type": "uint256"
						},
						{
							"internalType": "bool",
							"name": "consent",
							"type": "bool"
						}
					],
					"stateMutability": "view",
					"type": "function"
				}
			],
			"devdoc": {
				"kind": "dev",
				"methods": {},
				"version": 1
			},
			"evm": {
				"assembly": "    /* \"contracts/AgreementSmartContract.sol\":58:510  contract AgreementSmartContract {... */\n  mstore(0x40, 0x80)\n  callvalue\n  dup1\n  iszero\n  tag_1\n  jumpi\n  0x00\n  dup1\n  revert\ntag_1:\n  pop\n  dataSize(sub_0)\n  dup1\n  dataOffset(sub_0)\n  0x00\n  codecopy\n  0x00\n  return\nstop\n\nsub_0: assembly {\n        /* \"contracts/AgreementSmartContract.sol\":58:510  contract AgreementSmartContract {... */\n      mstore(0x40, 0x80)\n      callvalue\n      dup1\n      iszero\n      tag_1\n      jumpi\n      0x00\n      dup1\n      revert\n    tag_1:\n      pop\n      jumpi(tag_2, lt(calldatasize, 0x04))\n      shr(0xe0, calldataload(0x00))\n      dup1\n      0x8c184932\n      eq\n      tag_3\n      jumpi\n      dup1\n      0xbb7bb278\n      eq\n      tag_4\n      jumpi\n      dup1\n      0xbd14de96\n      eq\n      tag_5\n      jumpi\n    tag_2:\n      0x00\n      dup1\n      revert\n        /* \"contracts/AgreementSmartContract.sol\":300:507  function addAgreement(bytes32 _purposeBlockHash, uint _userID, bool _consent) public {... */\n    tag_3:\n      tag_6\n      0x04\n      dup1\n      calldatasize\n      sub\n      dup2\n      add\n      swap1\n      tag_7\n      swap2\n      swap1\n      tag_8\n      jump\t// in\n    tag_7:\n      tag_9\n      jump\t// in\n    tag_6:\n      stop\n        /* \"contracts/AgreementSmartContract.sol\":265:291  uint public agreementCount */\n    tag_4:\n      tag_10\n      tag_11\n      jump\t// in\n    tag_10:\n      mload(0x40)\n      tag_12\n      swap2\n      swap1\n      tag_13\n      jump\t// in\n    tag_12:\n      mload(0x40)\n      dup1\n      swap2\n      sub\n      swap1\n      return\n        /* \"contracts/AgreementSmartContract.sol\":214:258  mapping(uint => Agreement) public agreements */\n    tag_5:\n      tag_14\n      0x04\n      dup1\n      calldatasize\n      sub\n      dup2\n      add\n      swap1\n      tag_15\n      swap2\n      swap1\n      tag_16\n      jump\t// in\n    tag_15:\n      tag_17\n      jump\t// in\n    tag_14:\n      mload(0x40)\n      tag_18\n      swap4\n      swap3\n      swap2\n      swap1\n      tag_19\n      jump\t// in\n    tag_18:\n      mload(0x40)\n      dup1\n      swap2\n      sub\n      swap1\n      return\n        /* \"contracts/AgreementSmartContract.sol\":300:507  function addAgreement(bytes32 _purposeBlockHash, uint _userID, bool _consent) public {... */\n    tag_9:\n        /* \"contracts/AgreementSmartContract.sol\":425:472  Agreement(_purposeBlockHash, _userID, _consent) */\n      mload(0x40)\n      dup1\n      0x60\n      add\n      0x40\n      mstore\n      dup1\n        /* \"contracts/AgreementSmartContract.sol\":435:452  _purposeBlockHash */\n      dup5\n        /* \"contracts/AgreementSmartContract.sol\":425:472  Agreement(_purposeBlockHash, _userID, _consent) */\n      dup2\n      mstore\n      0x20\n      add\n        /* \"contracts/AgreementSmartContract.sol\":454:461  _userID */\n      dup4\n        /* \"contracts/AgreementSmartContract.sol\":425:472  Agreement(_purposeBlockHash, _userID, _consent) */\n      dup2\n      mstore\n      0x20\n      add\n        /* \"contracts/AgreementSmartContract.sol\":463:471  _consent */\n      dup3\n        /* \"contracts/AgreementSmartContract.sol\":425:472  Agreement(_purposeBlockHash, _userID, _consent) */\n      iszero\n      iszero\n      dup2\n      mstore\n      pop\n        /* \"contracts/AgreementSmartContract.sol\":396:406  agreements */\n      0x00\n        /* \"contracts/AgreementSmartContract.sol\":396:422  agreements[agreementCount] */\n      dup1\n        /* \"contracts/AgreementSmartContract.sol\":407:421  agreementCount */\n      sload(0x01)\n        /* \"contracts/AgreementSmartContract.sol\":396:422  agreements[agreementCount] */\n      dup2\n      mstore\n      0x20\n      add\n      swap1\n      dup2\n      mstore\n      0x20\n      add\n      0x00\n      keccak256\n        /* \"contracts/AgreementSmartContract.sol\":396:472  agreements[agreementCount] = Agreement(_purposeBlockHash, _userID, _consent) */\n      0x00\n      dup3\n      add\n      mload\n      dup2\n      0x00\n      add\n      sstore\n      0x20\n      dup3\n      add\n      mload\n      dup2\n      0x01\n      add\n      sstore\n      0x40\n      dup3\n      add\n      mload\n      dup2\n      0x02\n      add\n      exp(0x0100, 0x00)\n      dup2\n      sload\n      dup2\n      0xff\n      mul\n      not\n      and\n      swap1\n      dup4\n      iszero\n      iszero\n      mul\n      or\n      swap1\n      sstore\n      pop\n      swap1\n      pop\n      pop\n        /* \"contracts/AgreementSmartContract.sol\":483:497  agreementCount */\n      0x01\n      0x00\n        /* \"contracts/AgreementSmartContract.sol\":483:499  agreementCount++ */\n      dup2\n      sload\n      dup1\n      swap3\n      swap2\n      swap1\n      tag_21\n      swap1\n      tag_22\n      jump\t// in\n    tag_21:\n      swap2\n      swap1\n      pop\n      sstore\n      pop\n        /* \"contracts/AgreementSmartContract.sol\":300:507  function addAgreement(bytes32 _purposeBlockHash, uint _userID, bool _consent) public {... */\n      pop\n      pop\n      pop\n      jump\t// out\n        /* \"contracts/AgreementSmartContract.sol\":265:291  uint public agreementCount */\n    tag_11:\n      sload(0x01)\n      dup2\n      jump\t// out\n        /* \"contracts/AgreementSmartContract.sol\":214:258  mapping(uint => Agreement) public agreements */\n    tag_17:\n      mstore(0x20, 0x00)\n      dup1\n      0x00\n      mstore\n      keccak256(0x00, 0x40)\n      0x00\n      swap2\n      pop\n      swap1\n      pop\n      dup1\n      0x00\n      add\n      sload\n      swap1\n      dup1\n      0x01\n      add\n      sload\n      swap1\n      dup1\n      0x02\n      add\n      0x00\n      swap1\n      sload\n      swap1\n      0x0100\n      exp\n      swap1\n      div\n      0xff\n      and\n      swap1\n      pop\n      dup4\n      jump\t// out\n        /* \"#utility.yul\":88:205   */\n    tag_24:\n        /* \"#utility.yul\":197:198   */\n      0x00\n        /* \"#utility.yul\":194:195   */\n      dup1\n        /* \"#utility.yul\":187:199   */\n      revert\n        /* \"#utility.yul\":334:411   */\n    tag_26:\n        /* \"#utility.yul\":371:378   */\n      0x00\n        /* \"#utility.yul\":400:405   */\n      dup2\n        /* \"#utility.yul\":389:405   */\n      swap1\n      pop\n        /* \"#utility.yul\":334:411   */\n      swap2\n      swap1\n      pop\n      jump\t// out\n        /* \"#utility.yul\":417:539   */\n    tag_27:\n        /* \"#utility.yul\":490:514   */\n      tag_45\n        /* \"#utility.yul\":508:513   */\n      dup2\n        /* \"#utility.yul\":490:514   */\n      tag_26\n      jump\t// in\n    tag_45:\n        /* \"#utility.yul\":483:488   */\n      dup2\n        /* \"#utility.yul\":480:515   */\n      eq\n        /* \"#utility.yul\":470:533   */\n      tag_46\n      jumpi\n        /* \"#utility.yul\":529:530   */\n      0x00\n        /* \"#utility.yul\":526:527   */\n      dup1\n        /* \"#utility.yul\":519:531   */\n      revert\n        /* \"#utility.yul\":470:533   */\n    tag_46:\n        /* \"#utility.yul\":417:539   */\n      pop\n      jump\t// out\n        /* \"#utility.yul\":545:684   */\n    tag_28:\n        /* \"#utility.yul\":591:596   */\n      0x00\n        /* \"#utility.yul\":629:635   */\n      dup2\n        /* \"#utility.yul\":616:636   */\n      calldataload\n        /* \"#utility.yul\":607:636   */\n      swap1\n      pop\n        /* \"#utility.yul\":645:678   */\n      tag_48\n        /* \"#utility.yul\":672:677   */\n      dup2\n        /* \"#utility.yul\":645:678   */\n      tag_27\n      jump\t// in\n    tag_48:\n        /* \"#utility.yul\":545:684   */\n      swap3\n      swap2\n      pop\n      pop\n      jump\t// out\n        /* \"#utility.yul\":690:767   */\n    tag_29:\n        /* \"#utility.yul\":727:734   */\n      0x00\n        /* \"#utility.yul\":756:761   */\n      dup2\n        /* \"#utility.yul\":745:761   */\n      swap1\n      pop\n        /* \"#utility.yul\":690:767   */\n      swap2\n      swap1\n      pop\n      jump\t// out\n        /* \"#utility.yul\":773:895   */\n    tag_30:\n        /* \"#utility.yul\":846:870   */\n      tag_51\n        /* \"#utility.yul\":864:869   */\n      dup2\n        /* \"#utility.yul\":846:870   */\n      tag_29\n      jump\t// in\n    tag_51:\n        /* \"#utility.yul\":839:844   */\n      dup2\n        /* \"#utility.yul\":836:871   */\n      eq\n        /* \"#utility.yul\":826:889   */\n      tag_52\n      jumpi\n        /* \"#utility.yul\":885:886   */\n      0x00\n        /* \"#utility.yul\":882:883   */\n      dup1\n        /* \"#utility.yul\":875:887   */\n      revert\n        /* \"#utility.yul\":826:889   */\n    tag_52:\n        /* \"#utility.yul\":773:895   */\n      pop\n      jump\t// out\n        /* \"#utility.yul\":901:1040   */\n    tag_31:\n        /* \"#utility.yul\":947:952   */\n      0x00\n        /* \"#utility.yul\":985:991   */\n      dup2\n        /* \"#utility.yul\":972:992   */\n      calldataload\n        /* \"#utility.yul\":963:992   */\n      swap1\n      pop\n        /* \"#utility.yul\":1001:1034   */\n      tag_54\n        /* \"#utility.yul\":1028:1033   */\n      dup2\n        /* \"#utility.yul\":1001:1034   */\n      tag_30\n      jump\t// in\n    tag_54:\n        /* \"#utility.yul\":901:1040   */\n      swap3\n      swap2\n      pop\n      pop\n      jump\t// out\n        /* \"#utility.yul\":1046:1136   */\n    tag_32:\n        /* \"#utility.yul\":1080:1087   */\n      0x00\n        /* \"#utility.yul\":1123:1128   */\n      dup2\n        /* \"#utility.yul\":1116:1129   */\n      iszero\n        /* \"#utility.yul\":1109:1130   */\n      iszero\n        /* \"#utility.yul\":1098:1130   */\n      swap1\n      pop\n        /* \"#utility.yul\":1046:1136   */\n      swap2\n      swap1\n      pop\n      jump\t// out\n        /* \"#utility.yul\":1142:1258   */\n    tag_33:\n        /* \"#utility.yul\":1212:1233   */\n      tag_57\n        /* \"#utility.yul\":1227:1232   */\n      dup2\n        /* \"#utility.yul\":1212:1233   */\n      tag_32\n      jump\t// in\n    tag_57:\n        /* \"#utility.yul\":1205:1210   */\n      dup2\n        /* \"#utility.yul\":1202:1234   */\n      eq\n        /* \"#utility.yul\":1192:1252   */\n      tag_58\n      jumpi\n        /* \"#utility.yul\":1248:1249   */\n      0x00\n        /* \"#utility.yul\":1245:1246   */\n      dup1\n        /* \"#utility.yul\":1238:1250   */\n      revert\n        /* \"#utility.yul\":1192:1252   */\n    tag_58:\n        /* \"#utility.yul\":1142:1258   */\n      pop\n      jump\t// out\n        /* \"#utility.yul\":1264:1397   */\n    tag_34:\n        /* \"#utility.yul\":1307:1312   */\n      0x00\n        /* \"#utility.yul\":1345:1351   */\n      dup2\n        /* \"#utility.yul\":1332:1352   */\n      calldataload\n        /* \"#utility.yul\":1323:1352   */\n      swap1\n      pop\n        /* \"#utility.yul\":1361:1391   */\n      tag_60\n        /* \"#utility.yul\":1385:1390   */\n      dup2\n        /* \"#utility.yul\":1361:1391   */\n      tag_33\n      jump\t// in\n    tag_60:\n        /* \"#utility.yul\":1264:1397   */\n      swap3\n      swap2\n      pop\n      pop\n      jump\t// out\n        /* \"#utility.yul\":1403:2016   */\n    tag_8:\n        /* \"#utility.yul\":1477:1483   */\n      0x00\n        /* \"#utility.yul\":1485:1491   */\n      dup1\n        /* \"#utility.yul\":1493:1499   */\n      0x00\n        /* \"#utility.yul\":1542:1544   */\n      0x60\n        /* \"#utility.yul\":1530:1539   */\n      dup5\n        /* \"#utility.yul\":1521:1528   */\n      dup7\n        /* \"#utility.yul\":1517:1540   */\n      sub\n        /* \"#utility.yul\":1513:1545   */\n      slt\n        /* \"#utility.yul\":1510:1629   */\n      iszero\n      tag_62\n      jumpi\n        /* \"#utility.yul\":1548:1627   */\n      tag_63\n      tag_24\n      jump\t// in\n    tag_63:\n        /* \"#utility.yul\":1510:1629   */\n    tag_62:\n        /* \"#utility.yul\":1668:1669   */\n      0x00\n        /* \"#utility.yul\":1693:1746   */\n      tag_64\n        /* \"#utility.yul\":1738:1745   */\n      dup7\n        /* \"#utility.yul\":1729:1735   */\n      dup3\n        /* \"#utility.yul\":1718:1727   */\n      dup8\n        /* \"#utility.yul\":1714:1736   */\n      add\n        /* \"#utility.yul\":1693:1746   */\n      tag_28\n      jump\t// in\n    tag_64:\n        /* \"#utility.yul\":1683:1746   */\n      swap4\n      pop\n        /* \"#utility.yul\":1639:1756   */\n      pop\n        /* \"#utility.yul\":1795:1797   */\n      0x20\n        /* \"#utility.yul\":1821:1874   */\n      tag_65\n        /* \"#utility.yul\":1866:1873   */\n      dup7\n        /* \"#utility.yul\":1857:1863   */\n      dup3\n        /* \"#utility.yul\":1846:1855   */\n      dup8\n        /* \"#utility.yul\":1842:1864   */\n      add\n        /* \"#utility.yul\":1821:1874   */\n      tag_31\n      jump\t// in\n    tag_65:\n        /* \"#utility.yul\":1811:1874   */\n      swap3\n      pop\n        /* \"#utility.yul\":1766:1884   */\n      pop\n        /* \"#utility.yul\":1923:1925   */\n      0x40\n        /* \"#utility.yul\":1949:1999   */\n      tag_66\n        /* \"#utility.yul\":1991:1998   */\n      dup7\n        /* \"#utility.yul\":1982:1988   */\n      dup3\n        /* \"#utility.yul\":1971:1980   */\n      dup8\n        /* \"#utility.yul\":1967:1989   */\n      add\n        /* \"#utility.yul\":1949:1999   */\n      tag_34\n      jump\t// in\n    tag_66:\n        /* \"#utility.yul\":1939:1999   */\n      swap2\n      pop\n        /* \"#utility.yul\":1894:2009   */\n      pop\n        /* \"#utility.yul\":1403:2016   */\n      swap3\n      pop\n      swap3\n      pop\n      swap3\n      jump\t// out\n        /* \"#utility.yul\":2022:2140   */\n    tag_35:\n        /* \"#utility.yul\":2109:2133   */\n      tag_68\n        /* \"#utility.yul\":2127:2132   */\n      dup2\n        /* \"#utility.yul\":2109:2133   */\n      tag_29\n      jump\t// in\n    tag_68:\n        /* \"#utility.yul\":2104:2107   */\n      dup3\n        /* \"#utility.yul\":2097:2134   */\n      mstore\n        /* \"#utility.yul\":2022:2140   */\n      pop\n      pop\n      jump\t// out\n        /* \"#utility.yul\":2146:2368   */\n    tag_13:\n        /* \"#utility.yul\":2239:2243   */\n      0x00\n        /* \"#utility.yul\":2277:2279   */\n      0x20\n        /* \"#utility.yul\":2266:2275   */\n      dup3\n        /* \"#utility.yul\":2262:2280   */\n      add\n        /* \"#utility.yul\":2254:2280   */\n      swap1\n      pop\n        /* \"#utility.yul\":2290:2361   */\n      tag_70\n        /* \"#utility.yul\":2358:2359   */\n      0x00\n        /* \"#utility.yul\":2347:2356   */\n      dup4\n        /* \"#utility.yul\":2343:2360   */\n      add\n        /* \"#utility.yul\":2334:2340   */\n      dup5\n        /* \"#utility.yul\":2290:2361   */\n      tag_35\n      jump\t// in\n    tag_70:\n        /* \"#utility.yul\":2146:2368   */\n      swap3\n      swap2\n      pop\n      pop\n      jump\t// out\n        /* \"#utility.yul\":2374:2703   */\n    tag_16:\n        /* \"#utility.yul\":2433:2439   */\n      0x00\n        /* \"#utility.yul\":2482:2484   */\n      0x20\n        /* \"#utility.yul\":2470:2479   */\n      dup3\n        /* \"#utility.yul\":2461:2468   */\n      dup5\n        /* \"#utility.yul\":2457:2480   */\n      sub\n        /* \"#utility.yul\":2453:2485   */\n      slt\n        /* \"#utility.yul\":2450:2569   */\n      iszero\n      tag_72\n      jumpi\n        /* \"#utility.yul\":2488:2567   */\n      tag_73\n      tag_24\n      jump\t// in\n    tag_73:\n        /* \"#utility.yul\":2450:2569   */\n    tag_72:\n        /* \"#utility.yul\":2608:2609   */\n      0x00\n        /* \"#utility.yul\":2633:2686   */\n      tag_74\n        /* \"#utility.yul\":2678:2685   */\n      dup5\n        /* \"#utility.yul\":2669:2675   */\n      dup3\n        /* \"#utility.yul\":2658:2667   */\n      dup6\n        /* \"#utility.yul\":2654:2676   */\n      add\n        /* \"#utility.yul\":2633:2686   */\n      tag_31\n      jump\t// in\n    tag_74:\n        /* \"#utility.yul\":2623:2686   */\n      swap2\n      pop\n        /* \"#utility.yul\":2579:2696   */\n      pop\n        /* \"#utility.yul\":2374:2703   */\n      swap3\n      swap2\n      pop\n      pop\n      jump\t// out\n        /* \"#utility.yul\":2709:2827   */\n    tag_36:\n        /* \"#utility.yul\":2796:2820   */\n      tag_76\n        /* \"#utility.yul\":2814:2819   */\n      dup2\n        /* \"#utility.yul\":2796:2820   */\n      tag_26\n      jump\t// in\n    tag_76:\n        /* \"#utility.yul\":2791:2794   */\n      dup3\n        /* \"#utility.yul\":2784:2821   */\n      mstore\n        /* \"#utility.yul\":2709:2827   */\n      pop\n      pop\n      jump\t// out\n        /* \"#utility.yul\":2833:2942   */\n    tag_37:\n        /* \"#utility.yul\":2914:2935   */\n      tag_78\n        /* \"#utility.yul\":2929:2934   */\n      dup2\n        /* \"#utility.yul\":2914:2935   */\n      tag_32\n      jump\t// in\n    tag_78:\n        /* \"#utility.yul\":2909:2912   */\n      dup3\n        /* \"#utility.yul\":2902:2936   */\n      mstore\n        /* \"#utility.yul\":2833:2942   */\n      pop\n      pop\n      jump\t// out\n        /* \"#utility.yul\":2948:3378   */\n    tag_19:\n        /* \"#utility.yul\":3091:3095   */\n      0x00\n        /* \"#utility.yul\":3129:3131   */\n      0x60\n        /* \"#utility.yul\":3118:3127   */\n      dup3\n        /* \"#utility.yul\":3114:3132   */\n      add\n        /* \"#utility.yul\":3106:3132   */\n      swap1\n      pop\n        /* \"#utility.yul\":3142:3213   */\n      tag_80\n        /* \"#utility.yul\":3210:3211   */\n      0x00\n        /* \"#utility.yul\":3199:3208   */\n      dup4\n        /* \"#utility.yul\":3195:3212   */\n      add\n        /* \"#utility.yul\":3186:3192   */\n      dup7\n        /* \"#utility.yul\":3142:3213   */\n      tag_36\n      jump\t// in\n    tag_80:\n        /* \"#utility.yul\":3223:3295   */\n      tag_81\n        /* \"#utility.yul\":3291:3293   */\n      0x20\n        /* \"#utility.yul\":3280:3289   */\n      dup4\n        /* \"#utility.yul\":3276:3294   */\n      add\n        /* \"#utility.yul\":3267:3273   */\n      dup6\n        /* \"#utility.yul\":3223:3295   */\n      tag_35\n      jump\t// in\n    tag_81:\n        /* \"#utility.yul\":3305:3371   */\n      tag_82\n        /* \"#utility.yul\":3367:3369   */\n      0x40\n        /* \"#utility.yul\":3356:3365   */\n      dup4\n        /* \"#utility.yul\":3352:3370   */\n      add\n        /* \"#utility.yul\":3343:3349   */\n      dup5\n        /* \"#utility.yul\":3305:3371   */\n      tag_37\n      jump\t// in\n    tag_82:\n        /* \"#utility.yul\":2948:3378   */\n      swap5\n      swap4\n      pop\n      pop\n      pop\n      pop\n      jump\t// out\n        /* \"#utility.yul\":3384:3564   */\n    tag_38:\n        /* \"#utility.yul\":3432:3509   */\n      0x4e487b7100000000000000000000000000000000000000000000000000000000\n        /* \"#utility.yul\":3429:3430   */\n      0x00\n        /* \"#utility.yul\":3422:3510   */\n      mstore\n        /* \"#utility.yul\":3529:3533   */\n      0x11\n        /* \"#utility.yul\":3526:3527   */\n      0x04\n        /* \"#utility.yul\":3519:3534   */\n      mstore\n        /* \"#utility.yul\":3553:3557   */\n      0x24\n        /* \"#utility.yul\":3550:3551   */\n      0x00\n        /* \"#utility.yul\":3543:3558   */\n      revert\n        /* \"#utility.yul\":3570:3803   */\n    tag_22:\n        /* \"#utility.yul\":3609:3612   */\n      0x00\n        /* \"#utility.yul\":3632:3656   */\n      tag_85\n        /* \"#utility.yul\":3650:3655   */\n      dup3\n        /* \"#utility.yul\":3632:3656   */\n      tag_29\n      jump\t// in\n    tag_85:\n        /* \"#utility.yul\":3623:3656   */\n      swap2\n      pop\n        /* \"#utility.yul\":3678:3744   */\n      0xffffffffffffffffffffffffffffffffffffffffffffffffffffffffffffffff\n        /* \"#utility.yul\":3671:3676   */\n      dup3\n        /* \"#utility.yul\":3668:3745   */\n      sub\n        /* \"#utility.yul\":3665:3768   */\n      tag_86\n      jumpi\n        /* \"#utility.yul\":3748:3766   */\n      tag_87\n      tag_38\n      jump\t// in\n    tag_87:\n        /* \"#utility.yul\":3665:3768   */\n    tag_86:\n        /* \"#utility.yul\":3795:3796   */\n      0x01\n        /* \"#utility.yul\":3788:3793   */\n      dup3\n        /* \"#utility.yul\":3784:3797   */\n      add\n        /* \"#utility.yul\":3777:3797   */\n      swap1\n      pop\n        /* \"#utility.yul\":3570:3803   */\n      swap2\n      swap1\n      pop\n      jump\t// out\n\n    auxdata: 0xa26469706673582212209c645279f2917e493edab0974b23d9b040b705403f5eb32c1df5cc2538e1c57364736f6c63430008180033\n}\n",
				"bytecode": {
					"linkReferences": {},
					"object": "608060405234801561000f575f80fd5b506103a48061001d5f395ff3fe608060405234801561000f575f80fd5b506004361061003f575f3560e01c80638c18493214610043578063bb7bb2781461005f578063bd14de961461007d575b5f80fd5b61005d60048036038101906100589190610204565b6100af565b005b61006761012e565b6040516100749190610263565b60405180910390f35b6100976004803603810190610092919061027c565b610134565b6040516100a6939291906102c5565b60405180910390f35b60405180606001604052808481526020018381526020018215158152505f8060015481526020019081526020015f205f820151815f0155602082015181600101556040820151816002015f6101000a81548160ff02191690831515021790555090505060015f81548092919061012490610327565b9190505550505050565b60015481565b5f602052805f5260405f205f91509050805f015490806001015490806002015f9054906101000a900460ff16905083565b5f80fd5b5f819050919050565b61017b81610169565b8114610185575f80fd5b50565b5f8135905061019681610172565b92915050565b5f819050919050565b6101ae8161019c565b81146101b8575f80fd5b50565b5f813590506101c9816101a5565b92915050565b5f8115159050919050565b6101e3816101cf565b81146101ed575f80fd5b50565b5f813590506101fe816101da565b92915050565b5f805f6060848603121561021b5761021a610165565b5b5f61022886828701610188565b9350506020610239868287016101bb565b925050604061024a868287016101f0565b9150509250925092565b61025d8161019c565b82525050565b5f6020820190506102765f830184610254565b92915050565b5f6020828403121561029157610290610165565b5b5f61029e848285016101bb565b91505092915050565b6102b081610169565b82525050565b6102bf816101cf565b82525050565b5f6060820190506102d85f8301866102a7565b6102e56020830185610254565b6102f260408301846102b6565b949350505050565b7f4e487b71000000000000000000000000000000000000000000000000000000005f52601160045260245ffd5b5f6103318261019c565b91507fffffffffffffffffffffffffffffffffffffffffffffffffffffffffffffffff8203610363576103626102fa565b5b60018201905091905056fea26469706673582212209c645279f2917e493edab0974b23d9b040b705403f5eb32c1df5cc2538e1c57364736f6c63430008180033",
					"opcodes": "PUSH1 0x80 PUSH1 0x40 MSTORE CALLVALUE DUP1 ISZERO PUSH2 0xF JUMPI PUSH0 DUP1 REVERT JUMPDEST POP PUSH2 0x3A4 DUP1 PUSH2 0x1D PUSH0 CODECOPY PUSH0 RETURN INVALID PUSH1 0x80 PUSH1 0x40 MSTORE CALLVALUE DUP1 ISZERO PUSH2 0xF JUMPI PUSH0 DUP1 REVERT JUMPDEST POP PUSH1 0x4 CALLDATASIZE LT PUSH2 0x3F JUMPI PUSH0 CALLDATALOAD PUSH1 0xE0 SHR DUP1 PUSH4 0x8C184932 EQ PUSH2 0x43 JUMPI DUP1 PUSH4 0xBB7BB278 EQ PUSH2 0x5F JUMPI DUP1 PUSH4 0xBD14DE96 EQ PUSH2 0x7D JUMPI JUMPDEST PUSH0 DUP1 REVERT JUMPDEST PUSH2 0x5D PUSH1 0x4 DUP1 CALLDATASIZE SUB DUP2 ADD SWAP1 PUSH2 0x58 SWAP2 SWAP1 PUSH2 0x204 JUMP JUMPDEST PUSH2 0xAF JUMP JUMPDEST STOP JUMPDEST PUSH2 0x67 PUSH2 0x12E JUMP JUMPDEST PUSH1 0x40 MLOAD PUSH2 0x74 SWAP2 SWAP1 PUSH2 0x263 JUMP JUMPDEST PUSH1 0x40 MLOAD DUP1 SWAP2 SUB SWAP1 RETURN JUMPDEST PUSH2 0x97 PUSH1 0x4 DUP1 CALLDATASIZE SUB DUP2 ADD SWAP1 PUSH2 0x92 SWAP2 SWAP1 PUSH2 0x27C JUMP JUMPDEST PUSH2 0x134 JUMP JUMPDEST PUSH1 0x40 MLOAD PUSH2 0xA6 SWAP4 SWAP3 SWAP2 SWAP1 PUSH2 0x2C5 JUMP JUMPDEST PUSH1 0x40 MLOAD DUP1 SWAP2 SUB SWAP1 RETURN JUMPDEST PUSH1 0x40 MLOAD DUP1 PUSH1 0x60 ADD PUSH1 0x40 MSTORE DUP1 DUP5 DUP2 MSTORE PUSH1 0x20 ADD DUP4 DUP2 MSTORE PUSH1 0x20 ADD DUP3 ISZERO ISZERO DUP2 MSTORE POP PUSH0 DUP1 PUSH1 0x1 SLOAD DUP2 MSTORE PUSH1 0x20 ADD SWAP1 DUP2 MSTORE PUSH1 0x20 ADD PUSH0 KECCAK256 PUSH0 DUP3 ADD MLOAD DUP2 PUSH0 ADD SSTORE PUSH1 0x20 DUP3 ADD MLOAD DUP2 PUSH1 0x1 ADD SSTORE PUSH1 0x40 DUP3 ADD MLOAD DUP2 PUSH1 0x2 ADD PUSH0 PUSH2 0x100 EXP DUP2 SLOAD DUP2 PUSH1 0xFF MUL NOT AND SWAP1 DUP4 ISZERO ISZERO MUL OR SWAP1 SSTORE POP SWAP1 POP POP PUSH1 0x1 PUSH0 DUP2 SLOAD DUP1 SWAP3 SWAP2 SWAP1 PUSH2 0x124 SWAP1 PUSH2 0x327 JUMP JUMPDEST SWAP2 SWAP1 POP SSTORE POP POP POP POP JUMP JUMPDEST PUSH1 0x1 SLOAD DUP2 JUMP JUMPDEST PUSH0 PUSH1 0x20 MSTORE DUP1 PUSH0 MSTORE PUSH1 0x40 PUSH0 KECCAK256 PUSH0 SWAP2 POP SWAP1 POP DUP1 PUSH0 ADD SLOAD SWAP1 DUP1 PUSH1 0x1 ADD SLOAD SWAP1 DUP1 PUSH1 0x2 ADD PUSH0 SWAP1 SLOAD SWAP1 PUSH2 0x100 EXP SWAP1 DIV PUSH1 0xFF AND SWAP1 POP DUP4 JUMP JUMPDEST PUSH0 DUP1 REVERT JUMPDEST PUSH0 DUP2 SWAP1 POP SWAP2 SWAP1 POP JUMP JUMPDEST PUSH2 0x17B DUP2 PUSH2 0x169 JUMP JUMPDEST DUP2 EQ PUSH2 0x185 JUMPI PUSH0 DUP1 REVERT JUMPDEST POP JUMP JUMPDEST PUSH0 DUP2 CALLDATALOAD SWAP1 POP PUSH2 0x196 DUP2 PUSH2 0x172 JUMP JUMPDEST SWAP3 SWAP2 POP POP JUMP JUMPDEST PUSH0 DUP2 SWAP1 POP SWAP2 SWAP1 POP JUMP JUMPDEST PUSH2 0x1AE DUP2 PUSH2 0x19C JUMP JUMPDEST DUP2 EQ PUSH2 0x1B8 JUMPI PUSH0 DUP1 REVERT JUMPDEST POP JUMP JUMPDEST PUSH0 DUP2 CALLDATALOAD SWAP1 POP PUSH2 0x1C9 DUP2 PUSH2 0x1A5 JUMP JUMPDEST SWAP3 SWAP2 POP POP JUMP JUMPDEST PUSH0 DUP2 ISZERO ISZERO SWAP1 POP SWAP2 SWAP1 POP JUMP JUMPDEST PUSH2 0x1E3 DUP2 PUSH2 0x1CF JUMP JUMPDEST DUP2 EQ PUSH2 0x1ED JUMPI PUSH0 DUP1 REVERT JUMPDEST POP JUMP JUMPDEST PUSH0 DUP2 CALLDATALOAD SWAP1 POP PUSH2 0x1FE DUP2 PUSH2 0x1DA JUMP JUMPDEST SWAP3 SWAP2 POP POP JUMP JUMPDEST PUSH0 DUP1 PUSH0 PUSH1 0x60 DUP5 DUP7 SUB SLT ISZERO PUSH2 0x21B JUMPI PUSH2 0x21A PUSH2 0x165 JUMP JUMPDEST JUMPDEST PUSH0 PUSH2 0x228 DUP7 DUP3 DUP8 ADD PUSH2 0x188 JUMP JUMPDEST SWAP4 POP POP PUSH1 0x20 PUSH2 0x239 DUP7 DUP3 DUP8 ADD PUSH2 0x1BB JUMP JUMPDEST SWAP3 POP POP PUSH1 0x40 PUSH2 0x24A DUP7 DUP3 DUP8 ADD PUSH2 0x1F0 JUMP JUMPDEST SWAP2 POP POP SWAP3 POP SWAP3 POP SWAP3 JUMP JUMPDEST PUSH2 0x25D DUP2 PUSH2 0x19C JUMP JUMPDEST DUP3 MSTORE POP POP JUMP JUMPDEST PUSH0 PUSH1 0x20 DUP3 ADD SWAP1 POP PUSH2 0x276 PUSH0 DUP4 ADD DUP5 PUSH2 0x254 JUMP JUMPDEST SWAP3 SWAP2 POP POP JUMP JUMPDEST PUSH0 PUSH1 0x20 DUP3 DUP5 SUB SLT ISZERO PUSH2 0x291 JUMPI PUSH2 0x290 PUSH2 0x165 JUMP JUMPDEST JUMPDEST PUSH0 PUSH2 0x29E DUP5 DUP3 DUP6 ADD PUSH2 0x1BB JUMP JUMPDEST SWAP2 POP POP SWAP3 SWAP2 POP POP JUMP JUMPDEST PUSH2 0x2B0 DUP2 PUSH2 0x169 JUMP JUMPDEST DUP3 MSTORE POP POP JUMP JUMPDEST PUSH2 0x2BF DUP2 PUSH2 0x1CF JUMP JUMPDEST DUP3 MSTORE POP POP JUMP JUMPDEST PUSH0 PUSH1 0x60 DUP3 ADD SWAP1 POP PUSH2 0x2D8 PUSH0 DUP4 ADD DUP7 PUSH2 0x2A7 JUMP JUMPDEST PUSH2 0x2E5 PUSH1 0x20 DUP4 ADD DUP6 PUSH2 0x254 JUMP JUMPDEST PUSH2 0x2F2 PUSH1 0x40 DUP4 ADD DUP5 PUSH2 0x2B6 JUMP JUMPDEST SWAP5 SWAP4 POP POP POP POP JUMP JUMPDEST PUSH32 0x4E487B7100000000000000000000000000000000000000000000000000000000 PUSH0 MSTORE PUSH1 0x11 PUSH1 0x4 MSTORE PUSH1 0x24 PUSH0 REVERT JUMPDEST PUSH0 PUSH2 0x331 DUP3 PUSH2 0x19C JUMP JUMPDEST SWAP2 POP PUSH32 0xFFFFFFFFFFFFFFFFFFFFFFFFFFFFFFFFFFFFFFFFFFFFFFFFFFFFFFFFFFFFFFFF DUP3 SUB PUSH2 0x363 JUMPI PUSH2 0x362 PUSH2 0x2FA JUMP JUMPDEST JUMPDEST PUSH1 0x1 DUP3 ADD SWAP1 POP SWAP2 SWAP1 POP JUMP INVALID LOG2 PUSH5 0x6970667358 0x22 SLT KECCAK256 SWAP13 PUSH5 0x5279F2917E BLOBHASH RETURNDATACOPY 0xDA 0xB0 SWAP8 0x4B 0x23 0xD9 0xB0 BLOCKHASH 0xB7 SDIV BLOCKHASH EXTCODEHASH MCOPY 0xB3 0x2C SAR CREATE2 0xCC 0x25 CODESIZE 0xE1 0xC5 PUSH20 0x64736F6C63430008180033000000000000000000 "
				},
				"gasEstimates": {
					"creation": {
						"codeDepositCost": "186400",
						"executionCost": "230",
						"totalCost": "186630"
					},
					"external": {
						"addAgreement(bytes32,uint256,bool)": "infinite",
						"agreementCount()": "2425",
						"agreements(uint256)": "infinite"
					}
				},
				"methodIdentifiers": {
					"addAgreement(bytes32,uint256,bool)": "8c184932",
					"agreementCount()": "bb7bb278",
					"agreements(uint256)": "bd14de96"
				}
			},
			"storageLayout": {
				"storage": [
					{
						"astId": 13,
						"contract": "contracts/AgreementSmartContract.sol:AgreementSmartContract",
						"label": "agreements",
						"offset": 0,
						"slot": "0",
						"type": "t_mapping(t_uint256,t_struct(Agreement)8_storage)"
					},
					{
						"astId": 15,
						"contract": "contracts/AgreementSmartContract.sol:AgreementSmartContract",
						"label": "agreementCount",
						"offset": 0,
						"slot": "1",
						"type": "t_uint256"
					}
				],
				"types": {
					"t_bool": {
						"encoding": "inplace",
						"label": "bool",
						"numberOfBytes": "1"
					},
					"t_bytes32": {
						"encoding": "inplace",
						"label": "bytes32",
						"numberOfBytes": "32"
					},
					"t_mapping(t_uint256,t_struct(Agreement)8_storage)": {
						"encoding": "mapping",
						"key": "t_uint256",
						"label": "mapping(uint256 => struct AgreementSmartContract.Agreement)",
						"numberOfBytes": "32",
						"value": "t_struct(Agreement)8_storage"
					},
					"t_struct(Agreement)8_storage": {
						"encoding": "inplace",
						"label": "struct AgreementSmartContract.Agreement",
						"members": [
							{
								"astId": 3,
								"contract": "contracts/AgreementSmartContract.sol:AgreementSmartContract",
								"label": "purposeBlockHash",
								"offset": 0,
								"slot": "0",
								"type": "t_bytes32"
							},
							{
								"astId": 5,
								"contract": "contracts/AgreementSmartContract.sol:AgreementSmartContract",
								"label": "userID",
								"offset": 0,
								"slot": "1",
								"type": "t_uint256"
							},
							{
								"astId": 7,
								"contract": "contracts/AgreementSmartContract.sol:AgreementSmartContract",
								"label": "consent",
								"offset": 0,
								"slot": "2",
								"type": "t_bool"
							}
						],
						"numberOfBytes": "96"
					},
					"t_uint256": {
						"encoding": "inplace",
						"label": "uint256",
						"numberOfBytes": "32"
					}
				}
			},
			"userdoc": {
				"kind": "user",
				"methods": {},
				"version": 1
			}
		}
	}
}