{
	"data": {
		"bytecode": {
			"linkReferences": {},
			"object": "608060405234801561000f575f80fd5b506104508061001d5f395ff3fe608060405234801561000f575f80fd5b5060043610610034575f3560e01c806325e53d9f146100385780638b7866fb146100b0575b5f80fd5b61007861004636600461029b565b5f602081905290815260409020805460018201546002830154600390930154919290916001600160a01b039091169084565b6040516100a7949392919093845260208401929092526001600160a01b03166040830152606082015260800190565b60405180910390f35b6100c36100be3660046102c6565b6100d1565b6040519081526020016100a7565b5f85858585856040516020016100eb9594939291906103ba565b60408051601f1981840301815291815281516020928301205f818152928390529120600201549091506001600160a01b03161561017e5760405162461bcd60e51b815260206004820152602760248201527f44617461557361676520616c72656164792065786973747320666f722074686960448201526639903430b9b41760c91b606482015260840160405180910390fd5b6040805160a08101825287815260208082018881526001600160a01b0388811684860190815260608501898152608086018981525f89815280875297909720865181559351600185015590516002840180546001600160a01b0319169190931617909155516003820155925180519293926101ff926004850192019061023e565b50506040518281527f209384c3952c8bad457004d68fc7f8f71eab7186b940ef12e7d01eaef5df5778915060200160405180910390a195945050505050565b828054828255905f5260205f20908101928215610277579160200282015b8281111561027757825182559160200191906001019061025c565b50610283929150610287565b5090565b5b80821115610283575f8155600101610288565b5f602082840312156102ab575f80fd5b5035919050565b634e487b7160e01b5f52604160045260245ffd5b5f805f805f60a086880312156102da575f80fd5b85359450602080870135945060408701356001600160a01b03811681146102ff575f80fd5b935060608701359250608087013567ffffffffffffffff80821115610322575f80fd5b818901915089601f830112610335575f80fd5b813581811115610347576103476102b2565b8060051b604051601f19603f8301168101818110858211171561036c5761036c6102b2565b60405291825284820192508381018501918c831115610389575f80fd5b938501935b828510156103a75784358452938501939285019261038e565b8096505050505050509295509295909350565b8581525f602086818401526bffffffffffffffffffffffff198660601b1660408401528460548401526074830184518286015f5b8281101561040a578151845292840192908401906001016103ee565b50919a995050505050505050505056fea26469706673582212206037d16b5761aed03a9fb83c065bad79b47c094619d8c3fb1f68088f4d89175f64736f6c63430008140033",
			"opcodes": "PUSH1 0x80 PUSH1 0x40 MSTORE CALLVALUE DUP1 ISZERO PUSH2 0xF JUMPI PUSH0 DUP1 REVERT JUMPDEST POP PUSH2 0x450 DUP1 PUSH2 0x1D PUSH0 CODECOPY PUSH0 RETURN INVALID PUSH1 0x80 PUSH1 0x40 MSTORE CALLVALUE DUP1 ISZERO PUSH2 0xF JUMPI PUSH0 DUP1 REVERT JUMPDEST POP PUSH1 0x4 CALLDATASIZE LT PUSH2 0x34 JUMPI PUSH0 CALLDATALOAD PUSH1 0xE0 SHR DUP1 PUSH4 0x25E53D9F EQ PUSH2 0x38 JUMPI DUP1 PUSH4 0x8B7866FB EQ PUSH2 0xB0 JUMPI JUMPDEST PUSH0 DUP1 REVERT JUMPDEST PUSH2 0x78 PUSH2 0x46 CALLDATASIZE PUSH1 0x4 PUSH2 0x29B JUMP JUMPDEST PUSH0 PUSH1 0x20 DUP2 SWAP1 MSTORE SWAP1 DUP2 MSTORE PUSH1 0x40 SWAP1 KECCAK256 DUP1 SLOAD PUSH1 0x1 DUP3 ADD SLOAD PUSH1 0x2 DUP4 ADD SLOAD PUSH1 0x3 SWAP1 SWAP4 ADD SLOAD SWAP2 SWAP3 SWAP1 SWAP2 PUSH1 0x1 PUSH1 0x1 PUSH1 0xA0 SHL SUB SWAP1 SWAP2 AND SWAP1 DUP5 JUMP JUMPDEST PUSH1 0x40 MLOAD PUSH2 0xA7 SWAP5 SWAP4 SWAP3 SWAP2 SWAP1 SWAP4 DUP5 MSTORE PUSH1 0x20 DUP5 ADD SWAP3 SWAP1 SWAP3 MSTORE PUSH1 0x1 PUSH1 0x1 PUSH1 0xA0 SHL SUB AND PUSH1 0x40 DUP4 ADD MSTORE PUSH1 0x60 DUP3 ADD MSTORE PUSH1 0x80 ADD SWAP1 JUMP JUMPDEST PUSH1 0x40 MLOAD DUP1 SWAP2 SUB SWAP1 RETURN JUMPDEST PUSH2 0xC3 PUSH2 0xBE CALLDATASIZE PUSH1 0x4 PUSH2 0x2C6 JUMP JUMPDEST PUSH2 0xD1 JUMP JUMPDEST PUSH1 0x40 MLOAD SWAP1 DUP2 MSTORE PUSH1 0x20 ADD PUSH2 0xA7 JUMP JUMPDEST PUSH0 DUP6 DUP6 DUP6 DUP6 DUP6 PUSH1 0x40 MLOAD PUSH1 0x20 ADD PUSH2 0xEB SWAP6 SWAP5 SWAP4 SWAP3 SWAP2 SWAP1 PUSH2 0x3BA JUMP JUMPDEST PUSH1 0x40 DUP1 MLOAD PUSH1 0x1F NOT DUP2 DUP5 SUB ADD DUP2 MSTORE SWAP2 DUP2 MSTORE DUP2 MLOAD PUSH1 0x20 SWAP3 DUP4 ADD KECCAK256 PUSH0 DUP2 DUP2 MSTORE SWAP3 DUP4 SWAP1 MSTORE SWAP2 KECCAK256 PUSH1 0x2 ADD SLOAD SWAP1 SWAP2 POP PUSH1 0x1 PUSH1 0x1 PUSH1 0xA0 SHL SUB AND ISZERO PUSH2 0x17E JUMPI PUSH1 0x40 MLOAD PUSH3 0x461BCD PUSH1 0xE5 SHL DUP2 MSTORE PUSH1 0x20 PUSH1 0x4 DUP3 ADD MSTORE PUSH1 0x27 PUSH1 0x24 DUP3 ADD MSTORE PUSH32 0x44617461557361676520616C72656164792065786973747320666F7220746869 PUSH1 0x44 DUP3 ADD MSTORE PUSH7 0x39903430B9B417 PUSH1 0xC9 SHL PUSH1 0x64 DUP3 ADD MSTORE PUSH1 0x84 ADD PUSH1 0x40 MLOAD DUP1 SWAP2 SUB SWAP1 REVERT JUMPDEST PUSH1 0x40 DUP1 MLOAD PUSH1 0xA0 DUP2 ADD DUP3 MSTORE DUP8 DUP2 MSTORE PUSH1 0x20 DUP1 DUP3 ADD DUP9 DUP2 MSTORE PUSH1 0x1 PUSH1 0x1 PUSH1 0xA0 SHL SUB DUP9 DUP2 AND DUP5 DUP7 ADD SWAP1 DUP2 MSTORE PUSH1 0x60 DUP6 ADD DUP10 DUP2 MSTORE PUSH1 0x80 DUP7 ADD DUP10 DUP2 MSTORE PUSH0 DUP10 DUP2 MSTORE DUP1 DUP8 MSTORE SWAP8 SWAP1 SWAP8 KECCAK256 DUP7 MLOAD DUP2 SSTORE SWAP4 MLOAD PUSH1 0x1 DUP6 ADD SSTORE SWAP1 MLOAD PUSH1 0x2 DUP5 ADD DUP1 SLOAD PUSH1 0x1 PUSH1 0x1 PUSH1 0xA0 SHL SUB NOT AND SWAP2 SWAP1 SWAP4 AND OR SWAP1 SWAP2 SSTORE MLOAD PUSH1 0x3 DUP3 ADD SSTORE SWAP3 MLOAD DUP1 MLOAD SWAP3 SWAP4 SWAP3 PUSH2 0x1FF SWAP3 PUSH1 0x4 DUP6 ADD SWAP3 ADD SWAP1 PUSH2 0x23E JUMP JUMPDEST POP POP PUSH1 0x40 MLOAD DUP3 DUP2 MSTORE PUSH32 0x209384C3952C8BAD457004D68FC7F8F71EAB7186B940EF12E7D01EAEF5DF5778 SWAP2 POP PUSH1 0x20 ADD PUSH1 0x40 MLOAD DUP1 SWAP2 SUB SWAP1 LOG1 SWAP6 SWAP5 POP POP POP POP POP JUMP JUMPDEST DUP3 DUP1 SLOAD DUP3 DUP3 SSTORE SWAP1 PUSH0 MSTORE PUSH1 0x20 PUSH0 KECCAK256 SWAP1 DUP2 ADD SWAP3 DUP3 ISZERO PUSH2 0x277 JUMPI SWAP2 PUSH1 0x20 MUL DUP3 ADD JUMPDEST DUP3 DUP2 GT ISZERO PUSH2 0x277 JUMPI DUP3 MLOAD DUP3 SSTORE SWAP2 PUSH1 0x20 ADD SWAP2 SWAP1 PUSH1 0x1 ADD SWAP1 PUSH2 0x25C JUMP JUMPDEST POP PUSH2 0x283 SWAP3 SWAP2 POP PUSH2 0x287 JUMP JUMPDEST POP SWAP1 JUMP JUMPDEST JUMPDEST DUP1 DUP3 GT ISZERO PUSH2 0x283 JUMPI PUSH0 DUP2 SSTORE PUSH1 0x1 ADD PUSH2 0x288 JUMP JUMPDEST PUSH0 PUSH1 0x20 DUP3 DUP5 SUB SLT ISZERO PUSH2 0x2AB JUMPI PUSH0 DUP1 REVERT JUMPDEST POP CALLDATALOAD SWAP2 SWAP1 POP JUMP JUMPDEST PUSH4 0x4E487B71 PUSH1 0xE0 SHL PUSH0 MSTORE PUSH1 0x41 PUSH1 0x4 MSTORE PUSH1 0x24 PUSH0 REVERT JUMPDEST PUSH0 DUP1 PUSH0 DUP1 PUSH0 PUSH1 0xA0 DUP7 DUP9 SUB SLT ISZERO PUSH2 0x2DA JUMPI PUSH0 DUP1 REVERT JUMPDEST DUP6 CALLDATALOAD SWAP5 POP PUSH1 0x20 DUP1 DUP8 ADD CALLDATALOAD SWAP5 POP PUSH1 0x40 DUP8 ADD CALLDATALOAD PUSH1 0x1 PUSH1 0x1 PUSH1 0xA0 SHL SUB DUP2 AND DUP2 EQ PUSH2 0x2FF JUMPI PUSH0 DUP1 REVERT JUMPDEST SWAP4 POP PUSH1 0x60 DUP8 ADD CALLDATALOAD SWAP3 POP PUSH1 0x80 DUP8 ADD CALLDATALOAD PUSH8 0xFFFFFFFFFFFFFFFF DUP1 DUP3 GT ISZERO PUSH2 0x322 JUMPI PUSH0 DUP1 REVERT JUMPDEST DUP2 DUP10 ADD SWAP2 POP DUP10 PUSH1 0x1F DUP4 ADD SLT PUSH2 0x335 JUMPI PUSH0 DUP1 REVERT JUMPDEST DUP2 CALLDATALOAD DUP2 DUP2 GT ISZERO PUSH2 0x347 JUMPI PUSH2 0x347 PUSH2 0x2B2 JUMP JUMPDEST DUP1 PUSH1 0x5 SHL PUSH1 0x40 MLOAD PUSH1 0x1F NOT PUSH1 0x3F DUP4 ADD AND DUP2 ADD DUP2 DUP2 LT DUP6 DUP3 GT OR ISZERO PUSH2 0x36C JUMPI PUSH2 0x36C PUSH2 0x2B2 JUMP JUMPDEST PUSH1 0x40 MSTORE SWAP2 DUP3 MSTORE DUP5 DUP3 ADD SWAP3 POP DUP4 DUP2 ADD DUP6 ADD SWAP2 DUP13 DUP4 GT ISZERO PUSH2 0x389 JUMPI PUSH0 DUP1 REVERT JUMPDEST SWAP4 DUP6 ADD SWAP4 JUMPDEST DUP3 DUP6 LT ISZERO PUSH2 0x3A7 JUMPI DUP5 CALLDATALOAD DUP5 MSTORE SWAP4 DUP6 ADD SWAP4 SWAP3 DUP6 ADD SWAP3 PUSH2 0x38E JUMP JUMPDEST DUP1 SWAP7 POP POP POP POP POP POP POP SWAP3 SWAP6 POP SWAP3 SWAP6 SWAP1 SWAP4 POP JUMP JUMPDEST DUP6 DUP2 MSTORE PUSH0 PUSH1 0x20 DUP7 DUP2 DUP5 ADD MSTORE PUSH12 0xFFFFFFFFFFFFFFFFFFFFFFFF NOT DUP7 PUSH1 0x60 SHL AND PUSH1 0x40 DUP5 ADD MSTORE DUP5 PUSH1 0x54 DUP5 ADD MSTORE PUSH1 0x74 DUP4 ADD DUP5 MLOAD DUP3 DUP7 ADD PUSH0 JUMPDEST DUP3 DUP2 LT ISZERO PUSH2 0x40A JUMPI DUP2 MLOAD DUP5 MSTORE SWAP3 DUP5 ADD SWAP3 SWAP1 DUP5 ADD SWAP1 PUSH1 0x1 ADD PUSH2 0x3EE JUMP JUMPDEST POP SWAP2 SWAP11 SWAP10 POP POP POP POP POP POP POP POP POP POP JUMP INVALID LOG2 PUSH5 0x6970667358 0x22 SLT KECCAK256 PUSH1 0x37 0xD1 PUSH12 0x5761AED03A9FB83C065BAD79 0xB4 PUSH29 0x94619D8C3FB1F68088F4D89175F64736F6C6343000814003300000000 "
		},
		"gasEstimates": {
			"creation": {
				"codeDepositCost": "220800",
				"executionCost": "261",
				"totalCost": "221061"
			},
			"external": {
				"addDataUsage(bytes32,bytes32,address,bytes32,bytes32[])": "infinite",
				"mapHashDataUsage(bytes32)": "8878"
			}
		},
		"methodIdentifiers": {
			"addDataUsage(bytes32,bytes32,address,bytes32,bytes32[])": "8b7866fb",
			"mapHashDataUsage(bytes32)": "25e53d9f"
		}
	},
	"abi": [
		{
			"anonymous": false,
			"inputs": [
				{
					"indexed": false,
					"internalType": "bytes32",
					"name": "hashOfDataUsage",
					"type": "bytes32"
				}
			],
			"name": "DataUsageAdded",
			"type": "event"
		},
		{
			"inputs": [
				{
					"internalType": "bytes32",
					"name": "_serviceName",
					"type": "bytes32"
				},
				{
					"internalType": "bytes32",
					"name": "_servicePurpose",
					"type": "bytes32"
				},
				{
					"internalType": "address",
					"name": "_actorAddress",
					"type": "address"
				},
				{
					"internalType": "bytes32",
					"name": "_operation",
					"type": "bytes32"
				},
				{
					"internalType": "bytes32[]",
					"name": "_personalDataList",
					"type": "bytes32[]"
				}
			],
			"name": "addDataUsage",
			"outputs": [
				{
					"internalType": "bytes32",
					"name": "hashOfDataUsage",
					"type": "bytes32"
				}
			],
			"stateMutability": "nonpayable",
			"type": "function"
		},
		{
			"inputs": [
				{
					"internalType": "bytes32",
					"name": "",
					"type": "bytes32"
				}
			],
			"name": "mapHashDataUsage",
			"outputs": [
				{
					"internalType": "bytes32",
					"name": "serviceName",
					"type": "bytes32"
				},
				{
					"internalType": "bytes32",
					"name": "servicePurpose",
					"type": "bytes32"
				},
				{
					"internalType": "address",
					"name": "actorAddress",
					"type": "address"
				},
				{
					"internalType": "bytes32",
					"name": "operation",
					"type": "bytes32"
				}
			],
			"stateMutability": "view",
			"type": "function"
		}
	]
}