{
	"data": {
		"bytecode": {
			"linkReferences": {},
			"object": "608060405234801561000f575f80fd5b50610e9b8061001d5f395ff3fe608060405234801561000f575f80fd5b506004361061003f575f3560e01c806345b9c32f14610043578063eec6d60f14610077578063f0d6e1ec14610093575b5f80fd5b61005d60048036038101906100589190610769565b6100c7565b60405161006e95949392919061085d565b60405180910390f35b610091600480360381019061008c9190610a20565b6103a5565b005b6100ad60048036038101906100a89190610769565b6104ae565b6040516100be95949392919061085d565b60405180910390f35b5f6060806060805f805490508610610114576040517f08c379a000000000000000000000000000000000000000000000000000000000815260040161010b90610b51565b60405180910390fd5b5f80878154811061012857610127610b6f565b5b905f5260205f2090600502019050805f015f9054906101000a900473ffffffffffffffffffffffffffffffffffffffff168160010182600201836003018460040183805461017590610bc9565b80601f01602080910402602001604051908101604052809291908181526020018280546101a190610bc9565b80156101ec5780601f106101c3576101008083540402835291602001916101ec565b820191905f5260205f20905b8154815290600101906020018083116101cf57829003601f168201915b505050505093508280546101ff90610bc9565b80601f016020809104026020016040519081016040528092919081815260200182805461022b90610bc9565b80156102765780601f1061024d57610100808354040283529160200191610276565b820191905f5260205f20905b81548152906001019060200180831161025957829003601f168201915b5050505050925081805461028990610bc9565b80601f01602080910402602001604051908101604052809291908181526020018280546102b590610bc9565b80156103005780601f106102d757610100808354040283529160200191610300565b820191905f5260205f20905b8154815290600101906020018083116102e357829003601f168201915b5050505050915080805461031390610bc9565b80601f016020809104026020016040519081016040528092919081815260200182805461033f90610bc9565b801561038a5780601f106103615761010080835404028352916020019161038a565b820191905f5260205f20905b81548152906001019060200180831161036d57829003601f168201915b50505050509050955095509550955095505091939590929450565b5f6040518060a001604052808773ffffffffffffffffffffffffffffffffffffffff16815260200186815260200185815260200184815260200183815250908060018154018082558091505060019003905f5260205f2090600502015f909190919091505f820151815f015f6101000a81548173ffffffffffffffffffffffffffffffffffffffff021916908373ffffffffffffffffffffffffffffffffffffffff16021790555060208201518160010190816104629190610d96565b5060408201518160020190816104789190610d96565b50606082015181600301908161048e9190610d96565b5060808201518160040190816104a49190610d96565b5050505050505050565b5f81815481106104bc575f80fd5b905f5260205f2090600502015f91509050805f015f9054906101000a900473ffffffffffffffffffffffffffffffffffffffff169080600101805461050090610bc9565b80601f016020809104026020016040519081016040528092919081815260200182805461052c90610bc9565b80156105775780601f1061054e57610100808354040283529160200191610577565b820191905f5260205f20905b81548152906001019060200180831161055a57829003601f168201915b50505050509080600201805461058c90610bc9565b80601f01602080910402602001604051908101604052809291908181526020018280546105b890610bc9565b80156106035780601f106105da57610100808354040283529160200191610603565b820191905f5260205f20905b8154815290600101906020018083116105e657829003601f168201915b50505050509080600301805461061890610bc9565b80601f016020809104026020016040519081016040528092919081815260200182805461064490610bc9565b801561068f5780601f106106665761010080835404028352916020019161068f565b820191905f5260205f20905b81548152906001019060200180831161067257829003601f168201915b5050505050908060040180546106a490610bc9565b80601f01602080910402602001604051908101604052809291908181526020018280546106d090610bc9565b801561071b5780601f106106f25761010080835404028352916020019161071b565b820191905f5260205f20905b8154815290600101906020018083116106fe57829003601f168201915b5050505050905085565b5f604051905090565b5f80fd5b5f80fd5b5f819050919050565b61074881610736565b8114610752575f80fd5b50565b5f813590506107638161073f565b92915050565b5f6020828403121561077e5761077d61072e565b5b5f61078b84828501610755565b91505092915050565b5f73ffffffffffffffffffffffffffffffffffffffff82169050919050565b5f6107bd82610794565b9050919050565b6107cd816107b3565b82525050565b5f81519050919050565b5f82825260208201905092915050565b5f5b8381101561080a5780820151818401526020810190506107ef565b5f8484015250505050565b5f601f19601f8301169050919050565b5f61082f826107d3565b61083981856107dd565b93506108498185602086016107ed565b61085281610815565b840191505092915050565b5f60a0820190506108705f8301886107c4565b81810360208301526108828187610825565b905081810360408301526108968186610825565b905081810360608301526108aa8185610825565b905081810360808301526108be8184610825565b90509695505050505050565b6108d3816107b3565b81146108dd575f80fd5b50565b5f813590506108ee816108ca565b92915050565b5f80fd5b5f80fd5b7f4e487b71000000000000000000000000000000000000000000000000000000005f52604160045260245ffd5b61093282610815565b810181811067ffffffffffffffff82111715610951576109506108fc565b5b80604052505050565b5f610963610725565b905061096f8282610929565b919050565b5f67ffffffffffffffff82111561098e5761098d6108fc565b5b61099782610815565b9050602081019050919050565b828183375f83830152505050565b5f6109c46109bf84610974565b61095a565b9050828152602081018484840111156109e0576109df6108f8565b5b6109eb8482856109a4565b509392505050565b5f82601f830112610a0757610a066108f4565b5b8135610a178482602086016109b2565b91505092915050565b5f805f805f60a08688031215610a3957610a3861072e565b5b5f610a46888289016108e0565b955050602086013567ffffffffffffffff811115610a6757610a66610732565b5b610a73888289016109f3565b945050604086013567ffffffffffffffff811115610a9457610a93610732565b5b610aa0888289016109f3565b935050606086013567ffffffffffffffff811115610ac157610ac0610732565b5b610acd888289016109f3565b925050608086013567ffffffffffffffff811115610aee57610aed610732565b5b610afa888289016109f3565b9150509295509295909350565b7f496e646578206f7574206f6620626f756e6473000000000000000000000000005f82015250565b5f610b3b6013836107dd565b9150610b4682610b07565b602082019050919050565b5f6020820190508181035f830152610b6881610b2f565b9050919050565b7f4e487b71000000000000000000000000000000000000000000000000000000005f52603260045260245ffd5b7f4e487b71000000000000000000000000000000000000000000000000000000005f52602260045260245ffd5b5f6002820490506001821680610be057607f821691505b602082108103610bf357610bf2610b9c565b5b50919050565b5f819050815f5260205f209050919050565b5f6020601f8301049050919050565b5f82821b905092915050565b5f60088302610c557fffffffffffffffffffffffffffffffffffffffffffffffffffffffffffffffff82610c1a565b610c5f8683610c1a565b95508019841693508086168417925050509392505050565b5f819050919050565b5f610c9a610c95610c9084610736565b610c77565b610736565b9050919050565b5f819050919050565b610cb383610c80565b610cc7610cbf82610ca1565b848454610c26565b825550505050565b5f90565b610cdb610ccf565b610ce6818484610caa565b505050565b5b81811015610d0957610cfe5f82610cd3565b600181019050610cec565b5050565b601f821115610d4e57610d1f81610bf9565b610d2884610c0b565b81016020851015610d37578190505b610d4b610d4385610c0b565b830182610ceb565b50505b505050565b5f82821c905092915050565b5f610d6e5f1984600802610d53565b1980831691505092915050565b5f610d868383610d5f565b9150826002028217905092915050565b610d9f826107d3565b67ffffffffffffffff811115610db857610db76108fc565b5b610dc28254610bc9565b610dcd828285610d0d565b5f60209050601f831160018114610dfe575f8415610dec578287015190505b610df68582610d7b565b865550610e5d565b601f198416610e0c86610bf9565b5f5b82811015610e3357848901518255600182019150602085019450602081019050610e0e565b86831015610e505784890151610e4c601f891682610d5f565b8355505b6001600288020188555050505b50505050505056fea2646970667358221220baa93edf81174db1c1b33fce37ee86f78132e33c61274a969d072f3f068a9b8464736f6c63430008180033",
			"opcodes": "PUSH1 0x80 PUSH1 0x40 MSTORE CALLVALUE DUP1 ISZERO PUSH2 0xF JUMPI PUSH0 DUP1 REVERT JUMPDEST POP PUSH2 0xE9B DUP1 PUSH2 0x1D PUSH0 CODECOPY PUSH0 RETURN INVALID PUSH1 0x80 PUSH1 0x40 MSTORE CALLVALUE DUP1 ISZERO PUSH2 0xF JUMPI PUSH0 DUP1 REVERT JUMPDEST POP PUSH1 0x4 CALLDATASIZE LT PUSH2 0x3F JUMPI PUSH0 CALLDATALOAD PUSH1 0xE0 SHR DUP1 PUSH4 0x45B9C32F EQ PUSH2 0x43 JUMPI DUP1 PUSH4 0xEEC6D60F EQ PUSH2 0x77 JUMPI DUP1 PUSH4 0xF0D6E1EC EQ PUSH2 0x93 JUMPI JUMPDEST PUSH0 DUP1 REVERT JUMPDEST PUSH2 0x5D PUSH1 0x4 DUP1 CALLDATASIZE SUB DUP2 ADD SWAP1 PUSH2 0x58 SWAP2 SWAP1 PUSH2 0x769 JUMP JUMPDEST PUSH2 0xC7 JUMP JUMPDEST PUSH1 0x40 MLOAD PUSH2 0x6E SWAP6 SWAP5 SWAP4 SWAP3 SWAP2 SWAP1 PUSH2 0x85D JUMP JUMPDEST PUSH1 0x40 MLOAD DUP1 SWAP2 SUB SWAP1 RETURN JUMPDEST PUSH2 0x91 PUSH1 0x4 DUP1 CALLDATASIZE SUB DUP2 ADD SWAP1 PUSH2 0x8C SWAP2 SWAP1 PUSH2 0xA20 JUMP JUMPDEST PUSH2 0x3A5 JUMP JUMPDEST STOP JUMPDEST PUSH2 0xAD PUSH1 0x4 DUP1 CALLDATASIZE SUB DUP2 ADD SWAP1 PUSH2 0xA8 SWAP2 SWAP1 PUSH2 0x769 JUMP JUMPDEST PUSH2 0x4AE JUMP JUMPDEST PUSH1 0x40 MLOAD PUSH2 0xBE SWAP6 SWAP5 SWAP4 SWAP3 SWAP2 SWAP1 PUSH2 0x85D JUMP JUMPDEST PUSH1 0x40 MLOAD DUP1 SWAP2 SUB SWAP1 RETURN JUMPDEST PUSH0 PUSH1 0x60 DUP1 PUSH1 0x60 DUP1 PUSH0 DUP1 SLOAD SWAP1 POP DUP7 LT PUSH2 0x114 JUMPI PUSH1 0x40 MLOAD PUSH32 0x8C379A000000000000000000000000000000000000000000000000000000000 DUP2 MSTORE PUSH1 0x4 ADD PUSH2 0x10B SWAP1 PUSH2 0xB51 JUMP JUMPDEST PUSH1 0x40 MLOAD DUP1 SWAP2 SUB SWAP1 REVERT JUMPDEST PUSH0 DUP1 DUP8 DUP2 SLOAD DUP2 LT PUSH2 0x128 JUMPI PUSH2 0x127 PUSH2 0xB6F JUMP JUMPDEST JUMPDEST SWAP1 PUSH0 MSTORE PUSH1 0x20 PUSH0 KECCAK256 SWAP1 PUSH1 0x5 MUL ADD SWAP1 POP DUP1 PUSH0 ADD PUSH0 SWAP1 SLOAD SWAP1 PUSH2 0x100 EXP SWAP1 DIV PUSH20 0xFFFFFFFFFFFFFFFFFFFFFFFFFFFFFFFFFFFFFFFF AND DUP2 PUSH1 0x1 ADD DUP3 PUSH1 0x2 ADD DUP4 PUSH1 0x3 ADD DUP5 PUSH1 0x4 ADD DUP4 DUP1 SLOAD PUSH2 0x175 SWAP1 PUSH2 0xBC9 JUMP JUMPDEST DUP1 PUSH1 0x1F ADD PUSH1 0x20 DUP1 SWAP2 DIV MUL PUSH1 0x20 ADD PUSH1 0x40 MLOAD SWAP1 DUP2 ADD PUSH1 0x40 MSTORE DUP1 SWAP3 SWAP2 SWAP1 DUP2 DUP2 MSTORE PUSH1 0x20 ADD DUP3 DUP1 SLOAD PUSH2 0x1A1 SWAP1 PUSH2 0xBC9 JUMP JUMPDEST DUP1 ISZERO PUSH2 0x1EC JUMPI DUP1 PUSH1 0x1F LT PUSH2 0x1C3 JUMPI PUSH2 0x100 DUP1 DUP4 SLOAD DIV MUL DUP4 MSTORE SWAP2 PUSH1 0x20 ADD SWAP2 PUSH2 0x1EC JUMP JUMPDEST DUP3 ADD SWAP2 SWAP1 PUSH0 MSTORE PUSH1 0x20 PUSH0 KECCAK256 SWAP1 JUMPDEST DUP2 SLOAD DUP2 MSTORE SWAP1 PUSH1 0x1 ADD SWAP1 PUSH1 0x20 ADD DUP1 DUP4 GT PUSH2 0x1CF JUMPI DUP3 SWAP1 SUB PUSH1 0x1F AND DUP3 ADD SWAP2 JUMPDEST POP POP POP POP POP SWAP4 POP DUP3 DUP1 SLOAD PUSH2 0x1FF SWAP1 PUSH2 0xBC9 JUMP JUMPDEST DUP1 PUSH1 0x1F ADD PUSH1 0x20 DUP1 SWAP2 DIV MUL PUSH1 0x20 ADD PUSH1 0x40 MLOAD SWAP1 DUP2 ADD PUSH1 0x40 MSTORE DUP1 SWAP3 SWAP2 SWAP1 DUP2 DUP2 MSTORE PUSH1 0x20 ADD DUP3 DUP1 SLOAD PUSH2 0x22B SWAP1 PUSH2 0xBC9 JUMP JUMPDEST DUP1 ISZERO PUSH2 0x276 JUMPI DUP1 PUSH1 0x1F LT PUSH2 0x24D JUMPI PUSH2 0x100 DUP1 DUP4 SLOAD DIV MUL DUP4 MSTORE SWAP2 PUSH1 0x20 ADD SWAP2 PUSH2 0x276 JUMP JUMPDEST DUP3 ADD SWAP2 SWAP1 PUSH0 MSTORE PUSH1 0x20 PUSH0 KECCAK256 SWAP1 JUMPDEST DUP2 SLOAD DUP2 MSTORE SWAP1 PUSH1 0x1 ADD SWAP1 PUSH1 0x20 ADD DUP1 DUP4 GT PUSH2 0x259 JUMPI DUP3 SWAP1 SUB PUSH1 0x1F AND DUP3 ADD SWAP2 JUMPDEST POP POP POP POP POP SWAP3 POP DUP2 DUP1 SLOAD PUSH2 0x289 SWAP1 PUSH2 0xBC9 JUMP JUMPDEST DUP1 PUSH1 0x1F ADD PUSH1 0x20 DUP1 SWAP2 DIV MUL PUSH1 0x20 ADD PUSH1 0x40 MLOAD SWAP1 DUP2 ADD PUSH1 0x40 MSTORE DUP1 SWAP3 SWAP2 SWAP1 DUP2 DUP2 MSTORE PUSH1 0x20 ADD DUP3 DUP1 SLOAD PUSH2 0x2B5 SWAP1 PUSH2 0xBC9 JUMP JUMPDEST DUP1 ISZERO PUSH2 0x300 JUMPI DUP1 PUSH1 0x1F LT PUSH2 0x2D7 JUMPI PUSH2 0x100 DUP1 DUP4 SLOAD DIV MUL DUP4 MSTORE SWAP2 PUSH1 0x20 ADD SWAP2 PUSH2 0x300 JUMP JUMPDEST DUP3 ADD SWAP2 SWAP1 PUSH0 MSTORE PUSH1 0x20 PUSH0 KECCAK256 SWAP1 JUMPDEST DUP2 SLOAD DUP2 MSTORE SWAP1 PUSH1 0x1 ADD SWAP1 PUSH1 0x20 ADD DUP1 DUP4 GT PUSH2 0x2E3 JUMPI DUP3 SWAP1 SUB PUSH1 0x1F AND DUP3 ADD SWAP2 JUMPDEST POP POP POP POP POP SWAP2 POP DUP1 DUP1 SLOAD PUSH2 0x313 SWAP1 PUSH2 0xBC9 JUMP JUMPDEST DUP1 PUSH1 0x1F ADD PUSH1 0x20 DUP1 SWAP2 DIV MUL PUSH1 0x20 ADD PUSH1 0x40 MLOAD SWAP1 DUP2 ADD PUSH1 0x40 MSTORE DUP1 SWAP3 SWAP2 SWAP1 DUP2 DUP2 MSTORE PUSH1 0x20 ADD DUP3 DUP1 SLOAD PUSH2 0x33F SWAP1 PUSH2 0xBC9 JUMP JUMPDEST DUP1 ISZERO PUSH2 0x38A JUMPI DUP1 PUSH1 0x1F LT PUSH2 0x361 JUMPI PUSH2 0x100 DUP1 DUP4 SLOAD DIV MUL DUP4 MSTORE SWAP2 PUSH1 0x20 ADD SWAP2 PUSH2 0x38A JUMP JUMPDEST DUP3 ADD SWAP2 SWAP1 PUSH0 MSTORE PUSH1 0x20 PUSH0 KECCAK256 SWAP1 JUMPDEST DUP2 SLOAD DUP2 MSTORE SWAP1 PUSH1 0x1 ADD SWAP1 PUSH1 0x20 ADD DUP1 DUP4 GT PUSH2 0x36D JUMPI DUP3 SWAP1 SUB PUSH1 0x1F AND DUP3 ADD SWAP2 JUMPDEST POP POP POP POP POP SWAP1 POP SWAP6 POP SWAP6 POP SWAP6 POP SWAP6 POP SWAP6 POP POP SWAP2 SWAP4 SWAP6 SWAP1 SWAP3 SWAP5 POP JUMP JUMPDEST PUSH0 PUSH1 0x40 MLOAD DUP1 PUSH1 0xA0 ADD PUSH1 0x40 MSTORE DUP1 DUP8 PUSH20 0xFFFFFFFFFFFFFFFFFFFFFFFFFFFFFFFFFFFFFFFF AND DUP2 MSTORE PUSH1 0x20 ADD DUP7 DUP2 MSTORE PUSH1 0x20 ADD DUP6 DUP2 MSTORE PUSH1 0x20 ADD DUP5 DUP2 MSTORE PUSH1 0x20 ADD DUP4 DUP2 MSTORE POP SWAP1 DUP1 PUSH1 0x1 DUP2 SLOAD ADD DUP1 DUP3 SSTORE DUP1 SWAP2 POP POP PUSH1 0x1 SWAP1 SUB SWAP1 PUSH0 MSTORE PUSH1 0x20 PUSH0 KECCAK256 SWAP1 PUSH1 0x5 MUL ADD PUSH0 SWAP1 SWAP2 SWAP1 SWAP2 SWAP1 SWAP2 POP PUSH0 DUP3 ADD MLOAD DUP2 PUSH0 ADD PUSH0 PUSH2 0x100 EXP DUP2 SLOAD DUP2 PUSH20 0xFFFFFFFFFFFFFFFFFFFFFFFFFFFFFFFFFFFFFFFF MUL NOT AND SWAP1 DUP4 PUSH20 0xFFFFFFFFFFFFFFFFFFFFFFFFFFFFFFFFFFFFFFFF AND MUL OR SWAP1 SSTORE POP PUSH1 0x20 DUP3 ADD MLOAD DUP2 PUSH1 0x1 ADD SWAP1 DUP2 PUSH2 0x462 SWAP2 SWAP1 PUSH2 0xD96 JUMP JUMPDEST POP PUSH1 0x40 DUP3 ADD MLOAD DUP2 PUSH1 0x2 ADD SWAP1 DUP2 PUSH2 0x478 SWAP2 SWAP1 PUSH2 0xD96 JUMP JUMPDEST POP PUSH1 0x60 DUP3 ADD MLOAD DUP2 PUSH1 0x3 ADD SWAP1 DUP2 PUSH2 0x48E SWAP2 SWAP1 PUSH2 0xD96 JUMP JUMPDEST POP PUSH1 0x80 DUP3 ADD MLOAD DUP2 PUSH1 0x4 ADD SWAP1 DUP2 PUSH2 0x4A4 SWAP2 SWAP1 PUSH2 0xD96 JUMP JUMPDEST POP POP POP POP POP POP POP POP JUMP JUMPDEST PUSH0 DUP2 DUP2 SLOAD DUP2 LT PUSH2 0x4BC JUMPI PUSH0 DUP1 REVERT JUMPDEST SWAP1 PUSH0 MSTORE PUSH1 0x20 PUSH0 KECCAK256 SWAP1 PUSH1 0x5 MUL ADD PUSH0 SWAP2 POP SWAP1 POP DUP1 PUSH0 ADD PUSH0 SWAP1 SLOAD SWAP1 PUSH2 0x100 EXP SWAP1 DIV PUSH20 0xFFFFFFFFFFFFFFFFFFFFFFFFFFFFFFFFFFFFFFFF AND SWAP1 DUP1 PUSH1 0x1 ADD DUP1 SLOAD PUSH2 0x500 SWAP1 PUSH2 0xBC9 JUMP JUMPDEST DUP1 PUSH1 0x1F ADD PUSH1 0x20 DUP1 SWAP2 DIV MUL PUSH1 0x20 ADD PUSH1 0x40 MLOAD SWAP1 DUP2 ADD PUSH1 0x40 MSTORE DUP1 SWAP3 SWAP2 SWAP1 DUP2 DUP2 MSTORE PUSH1 0x20 ADD DUP3 DUP1 SLOAD PUSH2 0x52C SWAP1 PUSH2 0xBC9 JUMP JUMPDEST DUP1 ISZERO PUSH2 0x577 JUMPI DUP1 PUSH1 0x1F LT PUSH2 0x54E JUMPI PUSH2 0x100 DUP1 DUP4 SLOAD DIV MUL DUP4 MSTORE SWAP2 PUSH1 0x20 ADD SWAP2 PUSH2 0x577 JUMP JUMPDEST DUP3 ADD SWAP2 SWAP1 PUSH0 MSTORE PUSH1 0x20 PUSH0 KECCAK256 SWAP1 JUMPDEST DUP2 SLOAD DUP2 MSTORE SWAP1 PUSH1 0x1 ADD SWAP1 PUSH1 0x20 ADD DUP1 DUP4 GT PUSH2 0x55A JUMPI DUP3 SWAP1 SUB PUSH1 0x1F AND DUP3 ADD SWAP2 JUMPDEST POP POP POP POP POP SWAP1 DUP1 PUSH1 0x2 ADD DUP1 SLOAD PUSH2 0x58C SWAP1 PUSH2 0xBC9 JUMP JUMPDEST DUP1 PUSH1 0x1F ADD PUSH1 0x20 DUP1 SWAP2 DIV MUL PUSH1 0x20 ADD PUSH1 0x40 MLOAD SWAP1 DUP2 ADD PUSH1 0x40 MSTORE DUP1 SWAP3 SWAP2 SWAP1 DUP2 DUP2 MSTORE PUSH1 0x20 ADD DUP3 DUP1 SLOAD PUSH2 0x5B8 SWAP1 PUSH2 0xBC9 JUMP JUMPDEST DUP1 ISZERO PUSH2 0x603 JUMPI DUP1 PUSH1 0x1F LT PUSH2 0x5DA JUMPI PUSH2 0x100 DUP1 DUP4 SLOAD DIV MUL DUP4 MSTORE SWAP2 PUSH1 0x20 ADD SWAP2 PUSH2 0x603 JUMP JUMPDEST DUP3 ADD SWAP2 SWAP1 PUSH0 MSTORE PUSH1 0x20 PUSH0 KECCAK256 SWAP1 JUMPDEST DUP2 SLOAD DUP2 MSTORE SWAP1 PUSH1 0x1 ADD SWAP1 PUSH1 0x20 ADD DUP1 DUP4 GT PUSH2 0x5E6 JUMPI DUP3 SWAP1 SUB PUSH1 0x1F AND DUP3 ADD SWAP2 JUMPDEST POP POP POP POP POP SWAP1 DUP1 PUSH1 0x3 ADD DUP1 SLOAD PUSH2 0x618 SWAP1 PUSH2 0xBC9 JUMP JUMPDEST DUP1 PUSH1 0x1F ADD PUSH1 0x20 DUP1 SWAP2 DIV MUL PUSH1 0x20 ADD PUSH1 0x40 MLOAD SWAP1 DUP2 ADD PUSH1 0x40 MSTORE DUP1 SWAP3 SWAP2 SWAP1 DUP2 DUP2 MSTORE PUSH1 0x20 ADD DUP3 DUP1 SLOAD PUSH2 0x644 SWAP1 PUSH2 0xBC9 JUMP JUMPDEST DUP1 ISZERO PUSH2 0x68F JUMPI DUP1 PUSH1 0x1F LT PUSH2 0x666 JUMPI PUSH2 0x100 DUP1 DUP4 SLOAD DIV MUL DUP4 MSTORE SWAP2 PUSH1 0x20 ADD SWAP2 PUSH2 0x68F JUMP JUMPDEST DUP3 ADD SWAP2 SWAP1 PUSH0 MSTORE PUSH1 0x20 PUSH0 KECCAK256 SWAP1 JUMPDEST DUP2 SLOAD DUP2 MSTORE SWAP1 PUSH1 0x1 ADD SWAP1 PUSH1 0x20 ADD DUP1 DUP4 GT PUSH2 0x672 JUMPI DUP3 SWAP1 SUB PUSH1 0x1F AND DUP3 ADD SWAP2 JUMPDEST POP POP POP POP POP SWAP1 DUP1 PUSH1 0x4 ADD DUP1 SLOAD PUSH2 0x6A4 SWAP1 PUSH2 0xBC9 JUMP JUMPDEST DUP1 PUSH1 0x1F ADD PUSH1 0x20 DUP1 SWAP2 DIV MUL PUSH1 0x20 ADD PUSH1 0x40 MLOAD SWAP1 DUP2 ADD PUSH1 0x40 MSTORE DUP1 SWAP3 SWAP2 SWAP1 DUP2 DUP2 MSTORE PUSH1 0x20 ADD DUP3 DUP1 SLOAD PUSH2 0x6D0 SWAP1 PUSH2 0xBC9 JUMP JUMPDEST DUP1 ISZERO PUSH2 0x71B JUMPI DUP1 PUSH1 0x1F LT PUSH2 0x6F2 JUMPI PUSH2 0x100 DUP1 DUP4 SLOAD DIV MUL DUP4 MSTORE SWAP2 PUSH1 0x20 ADD SWAP2 PUSH2 0x71B JUMP JUMPDEST DUP3 ADD SWAP2 SWAP1 PUSH0 MSTORE PUSH1 0x20 PUSH0 KECCAK256 SWAP1 JUMPDEST DUP2 SLOAD DUP2 MSTORE SWAP1 PUSH1 0x1 ADD SWAP1 PUSH1 0x20 ADD DUP1 DUP4 GT PUSH2 0x6FE JUMPI DUP3 SWAP1 SUB PUSH1 0x1F AND DUP3 ADD SWAP2 JUMPDEST POP POP POP POP POP SWAP1 POP DUP6 JUMP JUMPDEST PUSH0 PUSH1 0x40 MLOAD SWAP1 POP SWAP1 JUMP JUMPDEST PUSH0 DUP1 REVERT JUMPDEST PUSH0 DUP1 REVERT JUMPDEST PUSH0 DUP2 SWAP1 POP SWAP2 SWAP1 POP JUMP JUMPDEST PUSH2 0x748 DUP2 PUSH2 0x736 JUMP JUMPDEST DUP2 EQ PUSH2 0x752 JUMPI PUSH0 DUP1 REVERT JUMPDEST POP JUMP JUMPDEST PUSH0 DUP2 CALLDATALOAD SWAP1 POP PUSH2 0x763 DUP2 PUSH2 0x73F JUMP JUMPDEST SWAP3 SWAP2 POP POP JUMP JUMPDEST PUSH0 PUSH1 0x20 DUP3 DUP5 SUB SLT ISZERO PUSH2 0x77E JUMPI PUSH2 0x77D PUSH2 0x72E JUMP JUMPDEST JUMPDEST PUSH0 PUSH2 0x78B DUP5 DUP3 DUP6 ADD PUSH2 0x755 JUMP JUMPDEST SWAP2 POP POP SWAP3 SWAP2 POP POP JUMP JUMPDEST PUSH0 PUSH20 0xFFFFFFFFFFFFFFFFFFFFFFFFFFFFFFFFFFFFFFFF DUP3 AND SWAP1 POP SWAP2 SWAP1 POP JUMP JUMPDEST PUSH0 PUSH2 0x7BD DUP3 PUSH2 0x794 JUMP JUMPDEST SWAP1 POP SWAP2 SWAP1 POP JUMP JUMPDEST PUSH2 0x7CD DUP2 PUSH2 0x7B3 JUMP JUMPDEST DUP3 MSTORE POP POP JUMP JUMPDEST PUSH0 DUP2 MLOAD SWAP1 POP SWAP2 SWAP1 POP JUMP JUMPDEST PUSH0 DUP3 DUP3 MSTORE PUSH1 0x20 DUP3 ADD SWAP1 POP SWAP3 SWAP2 POP POP JUMP JUMPDEST PUSH0 JUMPDEST DUP4 DUP2 LT ISZERO PUSH2 0x80A JUMPI DUP1 DUP3 ADD MLOAD DUP2 DUP5 ADD MSTORE PUSH1 0x20 DUP2 ADD SWAP1 POP PUSH2 0x7EF JUMP JUMPDEST PUSH0 DUP5 DUP5 ADD MSTORE POP POP POP POP JUMP JUMPDEST PUSH0 PUSH1 0x1F NOT PUSH1 0x1F DUP4 ADD AND SWAP1 POP SWAP2 SWAP1 POP JUMP JUMPDEST PUSH0 PUSH2 0x82F DUP3 PUSH2 0x7D3 JUMP JUMPDEST PUSH2 0x839 DUP2 DUP6 PUSH2 0x7DD JUMP JUMPDEST SWAP4 POP PUSH2 0x849 DUP2 DUP6 PUSH1 0x20 DUP7 ADD PUSH2 0x7ED JUMP JUMPDEST PUSH2 0x852 DUP2 PUSH2 0x815 JUMP JUMPDEST DUP5 ADD SWAP2 POP POP SWAP3 SWAP2 POP POP JUMP JUMPDEST PUSH0 PUSH1 0xA0 DUP3 ADD SWAP1 POP PUSH2 0x870 PUSH0 DUP4 ADD DUP9 PUSH2 0x7C4 JUMP JUMPDEST DUP2 DUP2 SUB PUSH1 0x20 DUP4 ADD MSTORE PUSH2 0x882 DUP2 DUP8 PUSH2 0x825 JUMP JUMPDEST SWAP1 POP DUP2 DUP2 SUB PUSH1 0x40 DUP4 ADD MSTORE PUSH2 0x896 DUP2 DUP7 PUSH2 0x825 JUMP JUMPDEST SWAP1 POP DUP2 DUP2 SUB PUSH1 0x60 DUP4 ADD MSTORE PUSH2 0x8AA DUP2 DUP6 PUSH2 0x825 JUMP JUMPDEST SWAP1 POP DUP2 DUP2 SUB PUSH1 0x80 DUP4 ADD MSTORE PUSH2 0x8BE DUP2 DUP5 PUSH2 0x825 JUMP JUMPDEST SWAP1 POP SWAP7 SWAP6 POP POP POP POP POP POP JUMP JUMPDEST PUSH2 0x8D3 DUP2 PUSH2 0x7B3 JUMP JUMPDEST DUP2 EQ PUSH2 0x8DD JUMPI PUSH0 DUP1 REVERT JUMPDEST POP JUMP JUMPDEST PUSH0 DUP2 CALLDATALOAD SWAP1 POP PUSH2 0x8EE DUP2 PUSH2 0x8CA JUMP JUMPDEST SWAP3 SWAP2 POP POP JUMP JUMPDEST PUSH0 DUP1 REVERT JUMPDEST PUSH0 DUP1 REVERT JUMPDEST PUSH32 0x4E487B7100000000000000000000000000000000000000000000000000000000 PUSH0 MSTORE PUSH1 0x41 PUSH1 0x4 MSTORE PUSH1 0x24 PUSH0 REVERT JUMPDEST PUSH2 0x932 DUP3 PUSH2 0x815 JUMP JUMPDEST DUP2 ADD DUP2 DUP2 LT PUSH8 0xFFFFFFFFFFFFFFFF DUP3 GT OR ISZERO PUSH2 0x951 JUMPI PUSH2 0x950 PUSH2 0x8FC JUMP JUMPDEST JUMPDEST DUP1 PUSH1 0x40 MSTORE POP POP POP JUMP JUMPDEST PUSH0 PUSH2 0x963 PUSH2 0x725 JUMP JUMPDEST SWAP1 POP PUSH2 0x96F DUP3 DUP3 PUSH2 0x929 JUMP JUMPDEST SWAP2 SWAP1 POP JUMP JUMPDEST PUSH0 PUSH8 0xFFFFFFFFFFFFFFFF DUP3 GT ISZERO PUSH2 0x98E JUMPI PUSH2 0x98D PUSH2 0x8FC JUMP JUMPDEST JUMPDEST PUSH2 0x997 DUP3 PUSH2 0x815 JUMP JUMPDEST SWAP1 POP PUSH1 0x20 DUP2 ADD SWAP1 POP SWAP2 SWAP1 POP JUMP JUMPDEST DUP3 DUP2 DUP4 CALLDATACOPY PUSH0 DUP4 DUP4 ADD MSTORE POP POP POP JUMP JUMPDEST PUSH0 PUSH2 0x9C4 PUSH2 0x9BF DUP5 PUSH2 0x974 JUMP JUMPDEST PUSH2 0x95A JUMP JUMPDEST SWAP1 POP DUP3 DUP2 MSTORE PUSH1 0x20 DUP2 ADD DUP5 DUP5 DUP5 ADD GT ISZERO PUSH2 0x9E0 JUMPI PUSH2 0x9DF PUSH2 0x8F8 JUMP JUMPDEST JUMPDEST PUSH2 0x9EB DUP5 DUP3 DUP6 PUSH2 0x9A4 JUMP JUMPDEST POP SWAP4 SWAP3 POP POP POP JUMP JUMPDEST PUSH0 DUP3 PUSH1 0x1F DUP4 ADD SLT PUSH2 0xA07 JUMPI PUSH2 0xA06 PUSH2 0x8F4 JUMP JUMPDEST JUMPDEST DUP2 CALLDATALOAD PUSH2 0xA17 DUP5 DUP3 PUSH1 0x20 DUP7 ADD PUSH2 0x9B2 JUMP JUMPDEST SWAP2 POP POP SWAP3 SWAP2 POP POP JUMP JUMPDEST PUSH0 DUP1 PUSH0 DUP1 PUSH0 PUSH1 0xA0 DUP7 DUP9 SUB SLT ISZERO PUSH2 0xA39 JUMPI PUSH2 0xA38 PUSH2 0x72E JUMP JUMPDEST JUMPDEST PUSH0 PUSH2 0xA46 DUP9 DUP3 DUP10 ADD PUSH2 0x8E0 JUMP JUMPDEST SWAP6 POP POP PUSH1 0x20 DUP7 ADD CALLDATALOAD PUSH8 0xFFFFFFFFFFFFFFFF DUP2 GT ISZERO PUSH2 0xA67 JUMPI PUSH2 0xA66 PUSH2 0x732 JUMP JUMPDEST JUMPDEST PUSH2 0xA73 DUP9 DUP3 DUP10 ADD PUSH2 0x9F3 JUMP JUMPDEST SWAP5 POP POP PUSH1 0x40 DUP7 ADD CALLDATALOAD PUSH8 0xFFFFFFFFFFFFFFFF DUP2 GT ISZERO PUSH2 0xA94 JUMPI PUSH2 0xA93 PUSH2 0x732 JUMP JUMPDEST JUMPDEST PUSH2 0xAA0 DUP9 DUP3 DUP10 ADD PUSH2 0x9F3 JUMP JUMPDEST SWAP4 POP POP PUSH1 0x60 DUP7 ADD CALLDATALOAD PUSH8 0xFFFFFFFFFFFFFFFF DUP2 GT ISZERO PUSH2 0xAC1 JUMPI PUSH2 0xAC0 PUSH2 0x732 JUMP JUMPDEST JUMPDEST PUSH2 0xACD DUP9 DUP3 DUP10 ADD PUSH2 0x9F3 JUMP JUMPDEST SWAP3 POP POP PUSH1 0x80 DUP7 ADD CALLDATALOAD PUSH8 0xFFFFFFFFFFFFFFFF DUP2 GT ISZERO PUSH2 0xAEE JUMPI PUSH2 0xAED PUSH2 0x732 JUMP JUMPDEST JUMPDEST PUSH2 0xAFA DUP9 DUP3 DUP10 ADD PUSH2 0x9F3 JUMP JUMPDEST SWAP2 POP POP SWAP3 SWAP6 POP SWAP3 SWAP6 SWAP1 SWAP4 POP JUMP JUMPDEST PUSH32 0x496E646578206F7574206F6620626F756E647300000000000000000000000000 PUSH0 DUP3 ADD MSTORE POP JUMP JUMPDEST PUSH0 PUSH2 0xB3B PUSH1 0x13 DUP4 PUSH2 0x7DD JUMP JUMPDEST SWAP2 POP PUSH2 0xB46 DUP3 PUSH2 0xB07 JUMP JUMPDEST PUSH1 0x20 DUP3 ADD SWAP1 POP SWAP2 SWAP1 POP JUMP JUMPDEST PUSH0 PUSH1 0x20 DUP3 ADD SWAP1 POP DUP2 DUP2 SUB PUSH0 DUP4 ADD MSTORE PUSH2 0xB68 DUP2 PUSH2 0xB2F JUMP JUMPDEST SWAP1 POP SWAP2 SWAP1 POP JUMP JUMPDEST PUSH32 0x4E487B7100000000000000000000000000000000000000000000000000000000 PUSH0 MSTORE PUSH1 0x32 PUSH1 0x4 MSTORE PUSH1 0x24 PUSH0 REVERT JUMPDEST PUSH32 0x4E487B7100000000000000000000000000000000000000000000000000000000 PUSH0 MSTORE PUSH1 0x22 PUSH1 0x4 MSTORE PUSH1 0x24 PUSH0 REVERT JUMPDEST PUSH0 PUSH1 0x2 DUP3 DIV SWAP1 POP PUSH1 0x1 DUP3 AND DUP1 PUSH2 0xBE0 JUMPI PUSH1 0x7F DUP3 AND SWAP2 POP JUMPDEST PUSH1 0x20 DUP3 LT DUP2 SUB PUSH2 0xBF3 JUMPI PUSH2 0xBF2 PUSH2 0xB9C JUMP JUMPDEST JUMPDEST POP SWAP2 SWAP1 POP JUMP JUMPDEST PUSH0 DUP2 SWAP1 POP DUP2 PUSH0 MSTORE PUSH1 0x20 PUSH0 KECCAK256 SWAP1 POP SWAP2 SWAP1 POP JUMP JUMPDEST PUSH0 PUSH1 0x20 PUSH1 0x1F DUP4 ADD DIV SWAP1 POP SWAP2 SWAP1 POP JUMP JUMPDEST PUSH0 DUP3 DUP3 SHL SWAP1 POP SWAP3 SWAP2 POP POP JUMP JUMPDEST PUSH0 PUSH1 0x8 DUP4 MUL PUSH2 0xC55 PUSH32 0xFFFFFFFFFFFFFFFFFFFFFFFFFFFFFFFFFFFFFFFFFFFFFFFFFFFFFFFFFFFFFFFF DUP3 PUSH2 0xC1A JUMP JUMPDEST PUSH2 0xC5F DUP7 DUP4 PUSH2 0xC1A JUMP JUMPDEST SWAP6 POP DUP1 NOT DUP5 AND SWAP4 POP DUP1 DUP7 AND DUP5 OR SWAP3 POP POP POP SWAP4 SWAP3 POP POP POP JUMP JUMPDEST PUSH0 DUP2 SWAP1 POP SWAP2 SWAP1 POP JUMP JUMPDEST PUSH0 PUSH2 0xC9A PUSH2 0xC95 PUSH2 0xC90 DUP5 PUSH2 0x736 JUMP JUMPDEST PUSH2 0xC77 JUMP JUMPDEST PUSH2 0x736 JUMP JUMPDEST SWAP1 POP SWAP2 SWAP1 POP JUMP JUMPDEST PUSH0 DUP2 SWAP1 POP SWAP2 SWAP1 POP JUMP JUMPDEST PUSH2 0xCB3 DUP4 PUSH2 0xC80 JUMP JUMPDEST PUSH2 0xCC7 PUSH2 0xCBF DUP3 PUSH2 0xCA1 JUMP JUMPDEST DUP5 DUP5 SLOAD PUSH2 0xC26 JUMP JUMPDEST DUP3 SSTORE POP POP POP POP JUMP JUMPDEST PUSH0 SWAP1 JUMP JUMPDEST PUSH2 0xCDB PUSH2 0xCCF JUMP JUMPDEST PUSH2 0xCE6 DUP2 DUP5 DUP5 PUSH2 0xCAA JUMP JUMPDEST POP POP POP JUMP JUMPDEST JUMPDEST DUP2 DUP2 LT ISZERO PUSH2 0xD09 JUMPI PUSH2 0xCFE PUSH0 DUP3 PUSH2 0xCD3 JUMP JUMPDEST PUSH1 0x1 DUP2 ADD SWAP1 POP PUSH2 0xCEC JUMP JUMPDEST POP POP JUMP JUMPDEST PUSH1 0x1F DUP3 GT ISZERO PUSH2 0xD4E JUMPI PUSH2 0xD1F DUP2 PUSH2 0xBF9 JUMP JUMPDEST PUSH2 0xD28 DUP5 PUSH2 0xC0B JUMP JUMPDEST DUP2 ADD PUSH1 0x20 DUP6 LT ISZERO PUSH2 0xD37 JUMPI DUP2 SWAP1 POP JUMPDEST PUSH2 0xD4B PUSH2 0xD43 DUP6 PUSH2 0xC0B JUMP JUMPDEST DUP4 ADD DUP3 PUSH2 0xCEB JUMP JUMPDEST POP POP JUMPDEST POP POP POP JUMP JUMPDEST PUSH0 DUP3 DUP3 SHR SWAP1 POP SWAP3 SWAP2 POP POP JUMP JUMPDEST PUSH0 PUSH2 0xD6E PUSH0 NOT DUP5 PUSH1 0x8 MUL PUSH2 0xD53 JUMP JUMPDEST NOT DUP1 DUP4 AND SWAP2 POP POP SWAP3 SWAP2 POP POP JUMP JUMPDEST PUSH0 PUSH2 0xD86 DUP4 DUP4 PUSH2 0xD5F JUMP JUMPDEST SWAP2 POP DUP3 PUSH1 0x2 MUL DUP3 OR SWAP1 POP SWAP3 SWAP2 POP POP JUMP JUMPDEST PUSH2 0xD9F DUP3 PUSH2 0x7D3 JUMP JUMPDEST PUSH8 0xFFFFFFFFFFFFFFFF DUP2 GT ISZERO PUSH2 0xDB8 JUMPI PUSH2 0xDB7 PUSH2 0x8FC JUMP JUMPDEST JUMPDEST PUSH2 0xDC2 DUP3 SLOAD PUSH2 0xBC9 JUMP JUMPDEST PUSH2 0xDCD DUP3 DUP3 DUP6 PUSH2 0xD0D JUMP JUMPDEST PUSH0 PUSH1 0x20 SWAP1 POP PUSH1 0x1F DUP4 GT PUSH1 0x1 DUP2 EQ PUSH2 0xDFE JUMPI PUSH0 DUP5 ISZERO PUSH2 0xDEC JUMPI DUP3 DUP8 ADD MLOAD SWAP1 POP JUMPDEST PUSH2 0xDF6 DUP6 DUP3 PUSH2 0xD7B JUMP JUMPDEST DUP7 SSTORE POP PUSH2 0xE5D JUMP JUMPDEST PUSH1 0x1F NOT DUP5 AND PUSH2 0xE0C DUP7 PUSH2 0xBF9 JUMP JUMPDEST PUSH0 JUMPDEST DUP3 DUP2 LT ISZERO PUSH2 0xE33 JUMPI DUP5 DUP10 ADD MLOAD DUP3 SSTORE PUSH1 0x1 DUP3 ADD SWAP2 POP PUSH1 0x20 DUP6 ADD SWAP5 POP PUSH1 0x20 DUP2 ADD SWAP1 POP PUSH2 0xE0E JUMP JUMPDEST DUP7 DUP4 LT ISZERO PUSH2 0xE50 JUMPI DUP5 DUP10 ADD MLOAD PUSH2 0xE4C PUSH1 0x1F DUP10 AND DUP3 PUSH2 0xD5F JUMP JUMPDEST DUP4 SSTORE POP JUMPDEST PUSH1 0x1 PUSH1 0x2 DUP9 MUL ADD DUP9 SSTORE POP POP POP JUMPDEST POP POP POP POP POP POP JUMP INVALID LOG2 PUSH5 0x6970667358 0x22 SLT KECCAK256 0xBA 0xA9 RETURNDATACOPY 0xDF DUP2 OR 0x4D 0xB1 0xC1 0xB3 EXTCODEHASH 0xCE CALLDATACOPY 0xEE DUP7 0xF7 DUP2 ORIGIN 0xE3 EXTCODECOPY PUSH2 0x274A SWAP7 SWAP14 SMOD 0x2F EXTCODEHASH MOD DUP11 SWAP12 DUP5 PUSH5 0x736F6C6343 STOP ADDMOD XOR STOP CALLER "
		},
		"gasEstimates": {
			"creation": {
				"codeDepositCost": "747800",
				"executionCost": "777",
				"totalCost": "748577"
			},
			"external": {
				"addDataUsage(address,string,string,string,string)": "infinite",
				"dataUsages(uint256)": "infinite",
				"getDataUsage(uint256)": "infinite"
			}
		},
		"methodIdentifiers": {
			"addDataUsage(address,string,string,string,string)": "eec6d60f",
			"dataUsages(uint256)": "f0d6e1ec",
			"getDataUsage(uint256)": "45b9c32f"
		}
	},
	"abi": [
		{
			"inputs": [
				{
					"internalType": "address",
					"name": "_actor",
					"type": "address"
				},
				{
					"internalType": "string",
					"name": "_serviceName",
					"type": "string"
				},
				{
					"internalType": "string",
					"name": "_servicePurpose",
					"type": "string"
				},
				{
					"internalType": "string",
					"name": "_operation",
					"type": "string"
				},
				{
					"internalType": "string",
					"name": "_personalData",
					"type": "string"
				}
			],
			"name": "addDataUsage",
			"outputs": [],
			"stateMutability": "nonpayable",
			"type": "function"
		},
		{
			"inputs": [
				{
					"internalType": "uint256",
					"name": "",
					"type": "uint256"
				}
			],
			"name": "dataUsages",
			"outputs": [
				{
					"internalType": "address",
					"name": "actor",
					"type": "address"
				},
				{
					"internalType": "string",
					"name": "serviceName",
					"type": "string"
				},
				{
					"internalType": "string",
					"name": "servicePurpose",
					"type": "string"
				},
				{
					"internalType": "string",
					"name": "operation",
					"type": "string"
				},
				{
					"internalType": "string",
					"name": "personalData",
					"type": "string"
				}
			],
			"stateMutability": "view",
			"type": "function"
		},
		{
			"inputs": [
				{
					"internalType": "uint256",
					"name": "_index",
					"type": "uint256"
				}
			],
			"name": "getDataUsage",
			"outputs": [
				{
					"internalType": "address",
					"name": "actor",
					"type": "address"
				},
				{
					"internalType": "string",
					"name": "serviceName",
					"type": "string"
				},
				{
					"internalType": "string",
					"name": "servicePurpose",
					"type": "string"
				},
				{
					"internalType": "string",
					"name": "operation",
					"type": "string"
				},
				{
					"internalType": "string",
					"name": "personalData",
					"type": "string"
				}
			],
			"stateMutability": "view",
			"type": "function"
		}
	]
}