{
	"data": {
		"bytecode": {
			"linkReferences": {},
			"object": "608060405234801561000f575f80fd5b50610ca78061001d5f395ff3fe608060405234801561000f575f80fd5b5060043610610034575f3560e01c8063099a9a4a1461003857806341a409fa14610054575b5f80fd5b610052600480360381019061004d91906106f6565b610088565b005b61006e600480360381019061006991906107c1565b6101ce565b60405161007f959493929190610942565b60405180910390f35b6040518060a001604052808673ffffffffffffffffffffffffffffffffffffffff168152602001858152602001848152602001838152602001828152505f808773ffffffffffffffffffffffffffffffffffffffff1673ffffffffffffffffffffffffffffffffffffffff1681526020019081526020015f205f820151815f015f6101000a81548173ffffffffffffffffffffffffffffffffffffffff021916908373ffffffffffffffffffffffffffffffffffffffff1602179055506020820151816001015560408201518160020190816101649190610ba2565b50606082015181600301908161017a9190610ba2565b506080820151816004015f820151815f0190816101979190610ba2565b5060208201518160010190816101ad9190610ba2565b50604082015181600201556060820151816003015550509050505050505050565b5f602052805f5260405f205f91509050805f015f9054906101000a900473ffffffffffffffffffffffffffffffffffffffff1690806001015490806002018054610217906109d5565b80601f0160208091040260200160405190810160405280929190818152602001828054610243906109d5565b801561028e5780601f106102655761010080835404028352916020019161028e565b820191905f5260205f20905b81548152906001019060200180831161027157829003601f168201915b5050505050908060030180546102a3906109d5565b80601f01602080910402602001604051908101604052809291908181526020018280546102cf906109d5565b801561031a5780601f106102f15761010080835404028352916020019161031a565b820191905f5260205f20905b8154815290600101906020018083116102fd57829003601f168201915b505050505090806004016040518060800160405290815f8201805461033e906109d5565b80601f016020809104026020016040519081016040528092919081815260200182805461036a906109d5565b80156103b55780601f1061038c576101008083540402835291602001916103b5565b820191905f5260205f20905b81548152906001019060200180831161039857829003601f168201915b505050505081526020016001820180546103ce906109d5565b80601f01602080910402602001604051908101604052809291908181526020018280546103fa906109d5565b80156104455780601f1061041c57610100808354040283529160200191610445565b820191905f5260205f20905b81548152906001019060200180831161042857829003601f168201915b5050505050815260200160028201548152602001600382015481525050905085565b5f604051905090565b5f80fd5b5f80fd5b5f73ffffffffffffffffffffffffffffffffffffffff82169050919050565b5f6104a182610478565b9050919050565b6104b181610497565b81146104bb575f80fd5b50565b5f813590506104cc816104a8565b92915050565b5f819050919050565b6104e4816104d2565b81146104ee575f80fd5b50565b5f813590506104ff816104db565b92915050565b5f80fd5b5f80fd5b5f601f19601f8301169050919050565b7f4e487b71000000000000000000000000000000000000000000000000000000005f52604160045260245ffd5b6105538261050d565b810181811067ffffffffffffffff821117156105725761057161051d565b5b80604052505050565b5f610584610467565b9050610590828261054a565b919050565b5f67ffffffffffffffff8211156105af576105ae61051d565b5b6105b88261050d565b9050602081019050919050565b828183375f83830152505050565b5f6105e56105e084610595565b61057b565b90508281526020810184848401111561060157610600610509565b5b61060c8482856105c5565b509392505050565b5f82601f83011261062857610627610505565b5b81356106388482602086016105d3565b91505092915050565b5f80fd5b5f80fd5b5f6080828403121561065e5761065d610641565b5b610668608061057b565b90505f82013567ffffffffffffffff81111561068757610686610645565b5b61069384828501610614565b5f83015250602082013567ffffffffffffffff8111156106b6576106b5610645565b5b6106c284828501610614565b60208301525060406106d6848285016104f1565b60408301525060606106ea848285016104f1565b60608301525092915050565b5f805f805f60a0868803121561070f5761070e610470565b5b5f61071c888289016104be565b955050602061072d888289016104f1565b945050604086013567ffffffffffffffff81111561074e5761074d610474565b5b61075a88828901610614565b935050606086013567ffffffffffffffff81111561077b5761077a610474565b5b61078788828901610614565b925050608086013567ffffffffffffffff8111156107a8576107a7610474565b5b6107b488828901610649565b9150509295509295909350565b5f602082840312156107d6576107d5610470565b5b5f6107e3848285016104be565b91505092915050565b6107f581610497565b82525050565b610804816104d2565b82525050565b5f81519050919050565b5f82825260208201905092915050565b5f5b83811015610841578082015181840152602081019050610826565b5f8484015250505050565b5f6108568261080a565b6108608185610814565b9350610870818560208601610824565b6108798161050d565b840191505092915050565b5f82825260208201905092915050565b5f61089e8261080a565b6108a88185610884565b93506108b8818560208601610824565b6108c18161050d565b840191505092915050565b6108d5816104d2565b82525050565b5f608083015f8301518482035f8601526108f58282610894565b9150506020830151848203602086015261090f8282610894565b915050604083015161092460408601826108cc565b50606083015161093760608601826108cc565b508091505092915050565b5f60a0820190506109555f8301886107ec565b61096260208301876107fb565b8181036040830152610974818661084c565b90508181036060830152610988818561084c565b9050818103608083015261099c81846108db565b90509695505050505050565b7f4e487b71000000000000000000000000000000000000000000000000000000005f52602260045260245ffd5b5f60028204905060018216806109ec57607f821691505b6020821081036109ff576109fe6109a8565b5b50919050565b5f819050815f5260205f209050919050565b5f6020601f8301049050919050565b5f82821b905092915050565b5f60088302610a617fffffffffffffffffffffffffffffffffffffffffffffffffffffffffffffffff82610a26565b610a6b8683610a26565b95508019841693508086168417925050509392505050565b5f819050919050565b5f610aa6610aa1610a9c846104d2565b610a83565b6104d2565b9050919050565b5f819050919050565b610abf83610a8c565b610ad3610acb82610aad565b848454610a32565b825550505050565b5f90565b610ae7610adb565b610af2818484610ab6565b505050565b5b81811015610b1557610b0a5f82610adf565b600181019050610af8565b5050565b601f821115610b5a57610b2b81610a05565b610b3484610a17565b81016020851015610b43578190505b610b57610b4f85610a17565b830182610af7565b50505b505050565b5f82821c905092915050565b5f610b7a5f1984600802610b5f565b1980831691505092915050565b5f610b928383610b6b565b9150826002028217905092915050565b610bab8261080a565b67ffffffffffffffff811115610bc457610bc361051d565b5b610bce82546109d5565b610bd9828285610b19565b5f60209050601f831160018114610c0a575f8415610bf8578287015190505b610c028582610b87565b865550610c69565b601f198416610c1886610a05565b5f5b82811015610c3f57848901518255600182019150602085019450602081019050610c1a565b86831015610c5c5784890151610c58601f891682610b6b565b8355505b6001600288020188555050505b50505050505056fea264697066735822122023c0ab8509b6dcbd84a2c0e32ea3ed5b82d45872e07e305b15627838eade2fe864736f6c63430008180033",
			"opcodes": "PUSH1 0x80 PUSH1 0x40 MSTORE CALLVALUE DUP1 ISZERO PUSH2 0xF JUMPI PUSH0 DUP1 REVERT JUMPDEST POP PUSH2 0xCA7 DUP1 PUSH2 0x1D PUSH0 CODECOPY PUSH0 RETURN INVALID PUSH1 0x80 PUSH1 0x40 MSTORE CALLVALUE DUP1 ISZERO PUSH2 0xF JUMPI PUSH0 DUP1 REVERT JUMPDEST POP PUSH1 0x4 CALLDATASIZE LT PUSH2 0x34 JUMPI PUSH0 CALLDATALOAD PUSH1 0xE0 SHR DUP1 PUSH4 0x99A9A4A EQ PUSH2 0x38 JUMPI DUP1 PUSH4 0x41A409FA EQ PUSH2 0x54 JUMPI JUMPDEST PUSH0 DUP1 REVERT JUMPDEST PUSH2 0x52 PUSH1 0x4 DUP1 CALLDATASIZE SUB DUP2 ADD SWAP1 PUSH2 0x4D SWAP2 SWAP1 PUSH2 0x6F6 JUMP JUMPDEST PUSH2 0x88 JUMP JUMPDEST STOP JUMPDEST PUSH2 0x6E PUSH1 0x4 DUP1 CALLDATASIZE SUB DUP2 ADD SWAP1 PUSH2 0x69 SWAP2 SWAP1 PUSH2 0x7C1 JUMP JUMPDEST PUSH2 0x1CE JUMP JUMPDEST PUSH1 0x40 MLOAD PUSH2 0x7F SWAP6 SWAP5 SWAP4 SWAP3 SWAP2 SWAP1 PUSH2 0x942 JUMP JUMPDEST PUSH1 0x40 MLOAD DUP1 SWAP2 SUB SWAP1 RETURN JUMPDEST PUSH1 0x40 MLOAD DUP1 PUSH1 0xA0 ADD PUSH1 0x40 MSTORE DUP1 DUP7 PUSH20 0xFFFFFFFFFFFFFFFFFFFFFFFFFFFFFFFFFFFFFFFF AND DUP2 MSTORE PUSH1 0x20 ADD DUP6 DUP2 MSTORE PUSH1 0x20 ADD DUP5 DUP2 MSTORE PUSH1 0x20 ADD DUP4 DUP2 MSTORE PUSH1 0x20 ADD DUP3 DUP2 MSTORE POP PUSH0 DUP1 DUP8 PUSH20 0xFFFFFFFFFFFFFFFFFFFFFFFFFFFFFFFFFFFFFFFF AND PUSH20 0xFFFFFFFFFFFFFFFFFFFFFFFFFFFFFFFFFFFFFFFF AND DUP2 MSTORE PUSH1 0x20 ADD SWAP1 DUP2 MSTORE PUSH1 0x20 ADD PUSH0 KECCAK256 PUSH0 DUP3 ADD MLOAD DUP2 PUSH0 ADD PUSH0 PUSH2 0x100 EXP DUP2 SLOAD DUP2 PUSH20 0xFFFFFFFFFFFFFFFFFFFFFFFFFFFFFFFFFFFFFFFF MUL NOT AND SWAP1 DUP4 PUSH20 0xFFFFFFFFFFFFFFFFFFFFFFFFFFFFFFFFFFFFFFFF AND MUL OR SWAP1 SSTORE POP PUSH1 0x20 DUP3 ADD MLOAD DUP2 PUSH1 0x1 ADD SSTORE PUSH1 0x40 DUP3 ADD MLOAD DUP2 PUSH1 0x2 ADD SWAP1 DUP2 PUSH2 0x164 SWAP2 SWAP1 PUSH2 0xBA2 JUMP JUMPDEST POP PUSH1 0x60 DUP3 ADD MLOAD DUP2 PUSH1 0x3 ADD SWAP1 DUP2 PUSH2 0x17A SWAP2 SWAP1 PUSH2 0xBA2 JUMP JUMPDEST POP PUSH1 0x80 DUP3 ADD MLOAD DUP2 PUSH1 0x4 ADD PUSH0 DUP3 ADD MLOAD DUP2 PUSH0 ADD SWAP1 DUP2 PUSH2 0x197 SWAP2 SWAP1 PUSH2 0xBA2 JUMP JUMPDEST POP PUSH1 0x20 DUP3 ADD MLOAD DUP2 PUSH1 0x1 ADD SWAP1 DUP2 PUSH2 0x1AD SWAP2 SWAP1 PUSH2 0xBA2 JUMP JUMPDEST POP PUSH1 0x40 DUP3 ADD MLOAD DUP2 PUSH1 0x2 ADD SSTORE PUSH1 0x60 DUP3 ADD MLOAD DUP2 PUSH1 0x3 ADD SSTORE POP POP SWAP1 POP POP POP POP POP POP POP JUMP JUMPDEST PUSH0 PUSH1 0x20 MSTORE DUP1 PUSH0 MSTORE PUSH1 0x40 PUSH0 KECCAK256 PUSH0 SWAP2 POP SWAP1 POP DUP1 PUSH0 ADD PUSH0 SWAP1 SLOAD SWAP1 PUSH2 0x100 EXP SWAP1 DIV PUSH20 0xFFFFFFFFFFFFFFFFFFFFFFFFFFFFFFFFFFFFFFFF AND SWAP1 DUP1 PUSH1 0x1 ADD SLOAD SWAP1 DUP1 PUSH1 0x2 ADD DUP1 SLOAD PUSH2 0x217 SWAP1 PUSH2 0x9D5 JUMP JUMPDEST DUP1 PUSH1 0x1F ADD PUSH1 0x20 DUP1 SWAP2 DIV MUL PUSH1 0x20 ADD PUSH1 0x40 MLOAD SWAP1 DUP2 ADD PUSH1 0x40 MSTORE DUP1 SWAP3 SWAP2 SWAP1 DUP2 DUP2 MSTORE PUSH1 0x20 ADD DUP3 DUP1 SLOAD PUSH2 0x243 SWAP1 PUSH2 0x9D5 JUMP JUMPDEST DUP1 ISZERO PUSH2 0x28E JUMPI DUP1 PUSH1 0x1F LT PUSH2 0x265 JUMPI PUSH2 0x100 DUP1 DUP4 SLOAD DIV MUL DUP4 MSTORE SWAP2 PUSH1 0x20 ADD SWAP2 PUSH2 0x28E JUMP JUMPDEST DUP3 ADD SWAP2 SWAP1 PUSH0 MSTORE PUSH1 0x20 PUSH0 KECCAK256 SWAP1 JUMPDEST DUP2 SLOAD DUP2 MSTORE SWAP1 PUSH1 0x1 ADD SWAP1 PUSH1 0x20 ADD DUP1 DUP4 GT PUSH2 0x271 JUMPI DUP3 SWAP1 SUB PUSH1 0x1F AND DUP3 ADD SWAP2 JUMPDEST POP POP POP POP POP SWAP1 DUP1 PUSH1 0x3 ADD DUP1 SLOAD PUSH2 0x2A3 SWAP1 PUSH2 0x9D5 JUMP JUMPDEST DUP1 PUSH1 0x1F ADD PUSH1 0x20 DUP1 SWAP2 DIV MUL PUSH1 0x20 ADD PUSH1 0x40 MLOAD SWAP1 DUP2 ADD PUSH1 0x40 MSTORE DUP1 SWAP3 SWAP2 SWAP1 DUP2 DUP2 MSTORE PUSH1 0x20 ADD DUP3 DUP1 SLOAD PUSH2 0x2CF SWAP1 PUSH2 0x9D5 JUMP JUMPDEST DUP1 ISZERO PUSH2 0x31A JUMPI DUP1 PUSH1 0x1F LT PUSH2 0x2F1 JUMPI PUSH2 0x100 DUP1 DUP4 SLOAD DIV MUL DUP4 MSTORE SWAP2 PUSH1 0x20 ADD SWAP2 PUSH2 0x31A JUMP JUMPDEST DUP3 ADD SWAP2 SWAP1 PUSH0 MSTORE PUSH1 0x20 PUSH0 KECCAK256 SWAP1 JUMPDEST DUP2 SLOAD DUP2 MSTORE SWAP1 PUSH1 0x1 ADD SWAP1 PUSH1 0x20 ADD DUP1 DUP4 GT PUSH2 0x2FD JUMPI DUP3 SWAP1 SUB PUSH1 0x1F AND DUP3 ADD SWAP2 JUMPDEST POP POP POP POP POP SWAP1 DUP1 PUSH1 0x4 ADD PUSH1 0x40 MLOAD DUP1 PUSH1 0x80 ADD PUSH1 0x40 MSTORE SWAP1 DUP2 PUSH0 DUP3 ADD DUP1 SLOAD PUSH2 0x33E SWAP1 PUSH2 0x9D5 JUMP JUMPDEST DUP1 PUSH1 0x1F ADD PUSH1 0x20 DUP1 SWAP2 DIV MUL PUSH1 0x20 ADD PUSH1 0x40 MLOAD SWAP1 DUP2 ADD PUSH1 0x40 MSTORE DUP1 SWAP3 SWAP2 SWAP1 DUP2 DUP2 MSTORE PUSH1 0x20 ADD DUP3 DUP1 SLOAD PUSH2 0x36A SWAP1 PUSH2 0x9D5 JUMP JUMPDEST DUP1 ISZERO PUSH2 0x3B5 JUMPI DUP1 PUSH1 0x1F LT PUSH2 0x38C JUMPI PUSH2 0x100 DUP1 DUP4 SLOAD DIV MUL DUP4 MSTORE SWAP2 PUSH1 0x20 ADD SWAP2 PUSH2 0x3B5 JUMP JUMPDEST DUP3 ADD SWAP2 SWAP1 PUSH0 MSTORE PUSH1 0x20 PUSH0 KECCAK256 SWAP1 JUMPDEST DUP2 SLOAD DUP2 MSTORE SWAP1 PUSH1 0x1 ADD SWAP1 PUSH1 0x20 ADD DUP1 DUP4 GT PUSH2 0x398 JUMPI DUP3 SWAP1 SUB PUSH1 0x1F AND DUP3 ADD SWAP2 JUMPDEST POP POP POP POP POP DUP2 MSTORE PUSH1 0x20 ADD PUSH1 0x1 DUP3 ADD DUP1 SLOAD PUSH2 0x3CE SWAP1 PUSH2 0x9D5 JUMP JUMPDEST DUP1 PUSH1 0x1F ADD PUSH1 0x20 DUP1 SWAP2 DIV MUL PUSH1 0x20 ADD PUSH1 0x40 MLOAD SWAP1 DUP2 ADD PUSH1 0x40 MSTORE DUP1 SWAP3 SWAP2 SWAP1 DUP2 DUP2 MSTORE PUSH1 0x20 ADD DUP3 DUP1 SLOAD PUSH2 0x3FA SWAP1 PUSH2 0x9D5 JUMP JUMPDEST DUP1 ISZERO PUSH2 0x445 JUMPI DUP1 PUSH1 0x1F LT PUSH2 0x41C JUMPI PUSH2 0x100 DUP1 DUP4 SLOAD DIV MUL DUP4 MSTORE SWAP2 PUSH1 0x20 ADD SWAP2 PUSH2 0x445 JUMP JUMPDEST DUP3 ADD SWAP2 SWAP1 PUSH0 MSTORE PUSH1 0x20 PUSH0 KECCAK256 SWAP1 JUMPDEST DUP2 SLOAD DUP2 MSTORE SWAP1 PUSH1 0x1 ADD SWAP1 PUSH1 0x20 ADD DUP1 DUP4 GT PUSH2 0x428 JUMPI DUP3 SWAP1 SUB PUSH1 0x1F AND DUP3 ADD SWAP2 JUMPDEST POP POP POP POP POP DUP2 MSTORE PUSH1 0x20 ADD PUSH1 0x2 DUP3 ADD SLOAD DUP2 MSTORE PUSH1 0x20 ADD PUSH1 0x3 DUP3 ADD SLOAD DUP2 MSTORE POP POP SWAP1 POP DUP6 JUMP JUMPDEST PUSH0 PUSH1 0x40 MLOAD SWAP1 POP SWAP1 JUMP JUMPDEST PUSH0 DUP1 REVERT JUMPDEST PUSH0 DUP1 REVERT JUMPDEST PUSH0 PUSH20 0xFFFFFFFFFFFFFFFFFFFFFFFFFFFFFFFFFFFFFFFF DUP3 AND SWAP1 POP SWAP2 SWAP1 POP JUMP JUMPDEST PUSH0 PUSH2 0x4A1 DUP3 PUSH2 0x478 JUMP JUMPDEST SWAP1 POP SWAP2 SWAP1 POP JUMP JUMPDEST PUSH2 0x4B1 DUP2 PUSH2 0x497 JUMP JUMPDEST DUP2 EQ PUSH2 0x4BB JUMPI PUSH0 DUP1 REVERT JUMPDEST POP JUMP JUMPDEST PUSH0 DUP2 CALLDATALOAD SWAP1 POP PUSH2 0x4CC DUP2 PUSH2 0x4A8 JUMP JUMPDEST SWAP3 SWAP2 POP POP JUMP JUMPDEST PUSH0 DUP2 SWAP1 POP SWAP2 SWAP1 POP JUMP JUMPDEST PUSH2 0x4E4 DUP2 PUSH2 0x4D2 JUMP JUMPDEST DUP2 EQ PUSH2 0x4EE JUMPI PUSH0 DUP1 REVERT JUMPDEST POP JUMP JUMPDEST PUSH0 DUP2 CALLDATALOAD SWAP1 POP PUSH2 0x4FF DUP2 PUSH2 0x4DB JUMP JUMPDEST SWAP3 SWAP2 POP POP JUMP JUMPDEST PUSH0 DUP1 REVERT JUMPDEST PUSH0 DUP1 REVERT JUMPDEST PUSH0 PUSH1 0x1F NOT PUSH1 0x1F DUP4 ADD AND SWAP1 POP SWAP2 SWAP1 POP JUMP JUMPDEST PUSH32 0x4E487B7100000000000000000000000000000000000000000000000000000000 PUSH0 MSTORE PUSH1 0x41 PUSH1 0x4 MSTORE PUSH1 0x24 PUSH0 REVERT JUMPDEST PUSH2 0x553 DUP3 PUSH2 0x50D JUMP JUMPDEST DUP2 ADD DUP2 DUP2 LT PUSH8 0xFFFFFFFFFFFFFFFF DUP3 GT OR ISZERO PUSH2 0x572 JUMPI PUSH2 0x571 PUSH2 0x51D JUMP JUMPDEST JUMPDEST DUP1 PUSH1 0x40 MSTORE POP POP POP JUMP JUMPDEST PUSH0 PUSH2 0x584 PUSH2 0x467 JUMP JUMPDEST SWAP1 POP PUSH2 0x590 DUP3 DUP3 PUSH2 0x54A JUMP JUMPDEST SWAP2 SWAP1 POP JUMP JUMPDEST PUSH0 PUSH8 0xFFFFFFFFFFFFFFFF DUP3 GT ISZERO PUSH2 0x5AF JUMPI PUSH2 0x5AE PUSH2 0x51D JUMP JUMPDEST JUMPDEST PUSH2 0x5B8 DUP3 PUSH2 0x50D JUMP JUMPDEST SWAP1 POP PUSH1 0x20 DUP2 ADD SWAP1 POP SWAP2 SWAP1 POP JUMP JUMPDEST DUP3 DUP2 DUP4 CALLDATACOPY PUSH0 DUP4 DUP4 ADD MSTORE POP POP POP JUMP JUMPDEST PUSH0 PUSH2 0x5E5 PUSH2 0x5E0 DUP5 PUSH2 0x595 JUMP JUMPDEST PUSH2 0x57B JUMP JUMPDEST SWAP1 POP DUP3 DUP2 MSTORE PUSH1 0x20 DUP2 ADD DUP5 DUP5 DUP5 ADD GT ISZERO PUSH2 0x601 JUMPI PUSH2 0x600 PUSH2 0x509 JUMP JUMPDEST JUMPDEST PUSH2 0x60C DUP5 DUP3 DUP6 PUSH2 0x5C5 JUMP JUMPDEST POP SWAP4 SWAP3 POP POP POP JUMP JUMPDEST PUSH0 DUP3 PUSH1 0x1F DUP4 ADD SLT PUSH2 0x628 JUMPI PUSH2 0x627 PUSH2 0x505 JUMP JUMPDEST JUMPDEST DUP2 CALLDATALOAD PUSH2 0x638 DUP5 DUP3 PUSH1 0x20 DUP7 ADD PUSH2 0x5D3 JUMP JUMPDEST SWAP2 POP POP SWAP3 SWAP2 POP POP JUMP JUMPDEST PUSH0 DUP1 REVERT JUMPDEST PUSH0 DUP1 REVERT JUMPDEST PUSH0 PUSH1 0x80 DUP3 DUP5 SUB SLT ISZERO PUSH2 0x65E JUMPI PUSH2 0x65D PUSH2 0x641 JUMP JUMPDEST JUMPDEST PUSH2 0x668 PUSH1 0x80 PUSH2 0x57B JUMP JUMPDEST SWAP1 POP PUSH0 DUP3 ADD CALLDATALOAD PUSH8 0xFFFFFFFFFFFFFFFF DUP2 GT ISZERO PUSH2 0x687 JUMPI PUSH2 0x686 PUSH2 0x645 JUMP JUMPDEST JUMPDEST PUSH2 0x693 DUP5 DUP3 DUP6 ADD PUSH2 0x614 JUMP JUMPDEST PUSH0 DUP4 ADD MSTORE POP PUSH1 0x20 DUP3 ADD CALLDATALOAD PUSH8 0xFFFFFFFFFFFFFFFF DUP2 GT ISZERO PUSH2 0x6B6 JUMPI PUSH2 0x6B5 PUSH2 0x645 JUMP JUMPDEST JUMPDEST PUSH2 0x6C2 DUP5 DUP3 DUP6 ADD PUSH2 0x614 JUMP JUMPDEST PUSH1 0x20 DUP4 ADD MSTORE POP PUSH1 0x40 PUSH2 0x6D6 DUP5 DUP3 DUP6 ADD PUSH2 0x4F1 JUMP JUMPDEST PUSH1 0x40 DUP4 ADD MSTORE POP PUSH1 0x60 PUSH2 0x6EA DUP5 DUP3 DUP6 ADD PUSH2 0x4F1 JUMP JUMPDEST PUSH1 0x60 DUP4 ADD MSTORE POP SWAP3 SWAP2 POP POP JUMP JUMPDEST PUSH0 DUP1 PUSH0 DUP1 PUSH0 PUSH1 0xA0 DUP7 DUP9 SUB SLT ISZERO PUSH2 0x70F JUMPI PUSH2 0x70E PUSH2 0x470 JUMP JUMPDEST JUMPDEST PUSH0 PUSH2 0x71C DUP9 DUP3 DUP10 ADD PUSH2 0x4BE JUMP JUMPDEST SWAP6 POP POP PUSH1 0x20 PUSH2 0x72D DUP9 DUP3 DUP10 ADD PUSH2 0x4F1 JUMP JUMPDEST SWAP5 POP POP PUSH1 0x40 DUP7 ADD CALLDATALOAD PUSH8 0xFFFFFFFFFFFFFFFF DUP2 GT ISZERO PUSH2 0x74E JUMPI PUSH2 0x74D PUSH2 0x474 JUMP JUMPDEST JUMPDEST PUSH2 0x75A DUP9 DUP3 DUP10 ADD PUSH2 0x614 JUMP JUMPDEST SWAP4 POP POP PUSH1 0x60 DUP7 ADD CALLDATALOAD PUSH8 0xFFFFFFFFFFFFFFFF DUP2 GT ISZERO PUSH2 0x77B JUMPI PUSH2 0x77A PUSH2 0x474 JUMP JUMPDEST JUMPDEST PUSH2 0x787 DUP9 DUP3 DUP10 ADD PUSH2 0x614 JUMP JUMPDEST SWAP3 POP POP PUSH1 0x80 DUP7 ADD CALLDATALOAD PUSH8 0xFFFFFFFFFFFFFFFF DUP2 GT ISZERO PUSH2 0x7A8 JUMPI PUSH2 0x7A7 PUSH2 0x474 JUMP JUMPDEST JUMPDEST PUSH2 0x7B4 DUP9 DUP3 DUP10 ADD PUSH2 0x649 JUMP JUMPDEST SWAP2 POP POP SWAP3 SWAP6 POP SWAP3 SWAP6 SWAP1 SWAP4 POP JUMP JUMPDEST PUSH0 PUSH1 0x20 DUP3 DUP5 SUB SLT ISZERO PUSH2 0x7D6 JUMPI PUSH2 0x7D5 PUSH2 0x470 JUMP JUMPDEST JUMPDEST PUSH0 PUSH2 0x7E3 DUP5 DUP3 DUP6 ADD PUSH2 0x4BE JUMP JUMPDEST SWAP2 POP POP SWAP3 SWAP2 POP POP JUMP JUMPDEST PUSH2 0x7F5 DUP2 PUSH2 0x497 JUMP JUMPDEST DUP3 MSTORE POP POP JUMP JUMPDEST PUSH2 0x804 DUP2 PUSH2 0x4D2 JUMP JUMPDEST DUP3 MSTORE POP POP JUMP JUMPDEST PUSH0 DUP2 MLOAD SWAP1 POP SWAP2 SWAP1 POP JUMP JUMPDEST PUSH0 DUP3 DUP3 MSTORE PUSH1 0x20 DUP3 ADD SWAP1 POP SWAP3 SWAP2 POP POP JUMP JUMPDEST PUSH0 JUMPDEST DUP4 DUP2 LT ISZERO PUSH2 0x841 JUMPI DUP1 DUP3 ADD MLOAD DUP2 DUP5 ADD MSTORE PUSH1 0x20 DUP2 ADD SWAP1 POP PUSH2 0x826 JUMP JUMPDEST PUSH0 DUP5 DUP5 ADD MSTORE POP POP POP POP JUMP JUMPDEST PUSH0 PUSH2 0x856 DUP3 PUSH2 0x80A JUMP JUMPDEST PUSH2 0x860 DUP2 DUP6 PUSH2 0x814 JUMP JUMPDEST SWAP4 POP PUSH2 0x870 DUP2 DUP6 PUSH1 0x20 DUP7 ADD PUSH2 0x824 JUMP JUMPDEST PUSH2 0x879 DUP2 PUSH2 0x50D JUMP JUMPDEST DUP5 ADD SWAP2 POP POP SWAP3 SWAP2 POP POP JUMP JUMPDEST PUSH0 DUP3 DUP3 MSTORE PUSH1 0x20 DUP3 ADD SWAP1 POP SWAP3 SWAP2 POP POP JUMP JUMPDEST PUSH0 PUSH2 0x89E DUP3 PUSH2 0x80A JUMP JUMPDEST PUSH2 0x8A8 DUP2 DUP6 PUSH2 0x884 JUMP JUMPDEST SWAP4 POP PUSH2 0x8B8 DUP2 DUP6 PUSH1 0x20 DUP7 ADD PUSH2 0x824 JUMP JUMPDEST PUSH2 0x8C1 DUP2 PUSH2 0x50D JUMP JUMPDEST DUP5 ADD SWAP2 POP POP SWAP3 SWAP2 POP POP JUMP JUMPDEST PUSH2 0x8D5 DUP2 PUSH2 0x4D2 JUMP JUMPDEST DUP3 MSTORE POP POP JUMP JUMPDEST PUSH0 PUSH1 0x80 DUP4 ADD PUSH0 DUP4 ADD MLOAD DUP5 DUP3 SUB PUSH0 DUP7 ADD MSTORE PUSH2 0x8F5 DUP3 DUP3 PUSH2 0x894 JUMP JUMPDEST SWAP2 POP POP PUSH1 0x20 DUP4 ADD MLOAD DUP5 DUP3 SUB PUSH1 0x20 DUP7 ADD MSTORE PUSH2 0x90F DUP3 DUP3 PUSH2 0x894 JUMP JUMPDEST SWAP2 POP POP PUSH1 0x40 DUP4 ADD MLOAD PUSH2 0x924 PUSH1 0x40 DUP7 ADD DUP3 PUSH2 0x8CC JUMP JUMPDEST POP PUSH1 0x60 DUP4 ADD MLOAD PUSH2 0x937 PUSH1 0x60 DUP7 ADD DUP3 PUSH2 0x8CC JUMP JUMPDEST POP DUP1 SWAP2 POP POP SWAP3 SWAP2 POP POP JUMP JUMPDEST PUSH0 PUSH1 0xA0 DUP3 ADD SWAP1 POP PUSH2 0x955 PUSH0 DUP4 ADD DUP9 PUSH2 0x7EC JUMP JUMPDEST PUSH2 0x962 PUSH1 0x20 DUP4 ADD DUP8 PUSH2 0x7FB JUMP JUMPDEST DUP2 DUP2 SUB PUSH1 0x40 DUP4 ADD MSTORE PUSH2 0x974 DUP2 DUP7 PUSH2 0x84C JUMP JUMPDEST SWAP1 POP DUP2 DUP2 SUB PUSH1 0x60 DUP4 ADD MSTORE PUSH2 0x988 DUP2 DUP6 PUSH2 0x84C JUMP JUMPDEST SWAP1 POP DUP2 DUP2 SUB PUSH1 0x80 DUP4 ADD MSTORE PUSH2 0x99C DUP2 DUP5 PUSH2 0x8DB JUMP JUMPDEST SWAP1 POP SWAP7 SWAP6 POP POP POP POP POP POP JUMP JUMPDEST PUSH32 0x4E487B7100000000000000000000000000000000000000000000000000000000 PUSH0 MSTORE PUSH1 0x22 PUSH1 0x4 MSTORE PUSH1 0x24 PUSH0 REVERT JUMPDEST PUSH0 PUSH1 0x2 DUP3 DIV SWAP1 POP PUSH1 0x1 DUP3 AND DUP1 PUSH2 0x9EC JUMPI PUSH1 0x7F DUP3 AND SWAP2 POP JUMPDEST PUSH1 0x20 DUP3 LT DUP2 SUB PUSH2 0x9FF JUMPI PUSH2 0x9FE PUSH2 0x9A8 JUMP JUMPDEST JUMPDEST POP SWAP2 SWAP1 POP JUMP JUMPDEST PUSH0 DUP2 SWAP1 POP DUP2 PUSH0 MSTORE PUSH1 0x20 PUSH0 KECCAK256 SWAP1 POP SWAP2 SWAP1 POP JUMP JUMPDEST PUSH0 PUSH1 0x20 PUSH1 0x1F DUP4 ADD DIV SWAP1 POP SWAP2 SWAP1 POP JUMP JUMPDEST PUSH0 DUP3 DUP3 SHL SWAP1 POP SWAP3 SWAP2 POP POP JUMP JUMPDEST PUSH0 PUSH1 0x8 DUP4 MUL PUSH2 0xA61 PUSH32 0xFFFFFFFFFFFFFFFFFFFFFFFFFFFFFFFFFFFFFFFFFFFFFFFFFFFFFFFFFFFFFFFF DUP3 PUSH2 0xA26 JUMP JUMPDEST PUSH2 0xA6B DUP7 DUP4 PUSH2 0xA26 JUMP JUMPDEST SWAP6 POP DUP1 NOT DUP5 AND SWAP4 POP DUP1 DUP7 AND DUP5 OR SWAP3 POP POP POP SWAP4 SWAP3 POP POP POP JUMP JUMPDEST PUSH0 DUP2 SWAP1 POP SWAP2 SWAP1 POP JUMP JUMPDEST PUSH0 PUSH2 0xAA6 PUSH2 0xAA1 PUSH2 0xA9C DUP5 PUSH2 0x4D2 JUMP JUMPDEST PUSH2 0xA83 JUMP JUMPDEST PUSH2 0x4D2 JUMP JUMPDEST SWAP1 POP SWAP2 SWAP1 POP JUMP JUMPDEST PUSH0 DUP2 SWAP1 POP SWAP2 SWAP1 POP JUMP JUMPDEST PUSH2 0xABF DUP4 PUSH2 0xA8C JUMP JUMPDEST PUSH2 0xAD3 PUSH2 0xACB DUP3 PUSH2 0xAAD JUMP JUMPDEST DUP5 DUP5 SLOAD PUSH2 0xA32 JUMP JUMPDEST DUP3 SSTORE POP POP POP POP JUMP JUMPDEST PUSH0 SWAP1 JUMP JUMPDEST PUSH2 0xAE7 PUSH2 0xADB JUMP JUMPDEST PUSH2 0xAF2 DUP2 DUP5 DUP5 PUSH2 0xAB6 JUMP JUMPDEST POP POP POP JUMP JUMPDEST JUMPDEST DUP2 DUP2 LT ISZERO PUSH2 0xB15 JUMPI PUSH2 0xB0A PUSH0 DUP3 PUSH2 0xADF JUMP JUMPDEST PUSH1 0x1 DUP2 ADD SWAP1 POP PUSH2 0xAF8 JUMP JUMPDEST POP POP JUMP JUMPDEST PUSH1 0x1F DUP3 GT ISZERO PUSH2 0xB5A JUMPI PUSH2 0xB2B DUP2 PUSH2 0xA05 JUMP JUMPDEST PUSH2 0xB34 DUP5 PUSH2 0xA17 JUMP JUMPDEST DUP2 ADD PUSH1 0x20 DUP6 LT ISZERO PUSH2 0xB43 JUMPI DUP2 SWAP1 POP JUMPDEST PUSH2 0xB57 PUSH2 0xB4F DUP6 PUSH2 0xA17 JUMP JUMPDEST DUP4 ADD DUP3 PUSH2 0xAF7 JUMP JUMPDEST POP POP JUMPDEST POP POP POP JUMP JUMPDEST PUSH0 DUP3 DUP3 SHR SWAP1 POP SWAP3 SWAP2 POP POP JUMP JUMPDEST PUSH0 PUSH2 0xB7A PUSH0 NOT DUP5 PUSH1 0x8 MUL PUSH2 0xB5F JUMP JUMPDEST NOT DUP1 DUP4 AND SWAP2 POP POP SWAP3 SWAP2 POP POP JUMP JUMPDEST PUSH0 PUSH2 0xB92 DUP4 DUP4 PUSH2 0xB6B JUMP JUMPDEST SWAP2 POP DUP3 PUSH1 0x2 MUL DUP3 OR SWAP1 POP SWAP3 SWAP2 POP POP JUMP JUMPDEST PUSH2 0xBAB DUP3 PUSH2 0x80A JUMP JUMPDEST PUSH8 0xFFFFFFFFFFFFFFFF DUP2 GT ISZERO PUSH2 0xBC4 JUMPI PUSH2 0xBC3 PUSH2 0x51D JUMP JUMPDEST JUMPDEST PUSH2 0xBCE DUP3 SLOAD PUSH2 0x9D5 JUMP JUMPDEST PUSH2 0xBD9 DUP3 DUP3 DUP6 PUSH2 0xB19 JUMP JUMPDEST PUSH0 PUSH1 0x20 SWAP1 POP PUSH1 0x1F DUP4 GT PUSH1 0x1 DUP2 EQ PUSH2 0xC0A JUMPI PUSH0 DUP5 ISZERO PUSH2 0xBF8 JUMPI DUP3 DUP8 ADD MLOAD SWAP1 POP JUMPDEST PUSH2 0xC02 DUP6 DUP3 PUSH2 0xB87 JUMP JUMPDEST DUP7 SSTORE POP PUSH2 0xC69 JUMP JUMPDEST PUSH1 0x1F NOT DUP5 AND PUSH2 0xC18 DUP7 PUSH2 0xA05 JUMP JUMPDEST PUSH0 JUMPDEST DUP3 DUP2 LT ISZERO PUSH2 0xC3F JUMPI DUP5 DUP10 ADD MLOAD DUP3 SSTORE PUSH1 0x1 DUP3 ADD SWAP2 POP PUSH1 0x20 DUP6 ADD SWAP5 POP PUSH1 0x20 DUP2 ADD SWAP1 POP PUSH2 0xC1A JUMP JUMPDEST DUP7 DUP4 LT ISZERO PUSH2 0xC5C JUMPI DUP5 DUP10 ADD MLOAD PUSH2 0xC58 PUSH1 0x1F DUP10 AND DUP3 PUSH2 0xB6B JUMP JUMPDEST DUP4 SSTORE POP JUMPDEST PUSH1 0x1 PUSH1 0x2 DUP9 MUL ADD DUP9 SSTORE POP POP POP JUMPDEST POP POP POP POP POP POP JUMP INVALID LOG2 PUSH5 0x6970667358 0x22 SLT KECCAK256 0x23 0xC0 0xAB DUP6 MULMOD 0xB6 0xDC 0xBD DUP5 LOG2 0xC0 0xE3 0x2E LOG3 0xED JUMPDEST DUP3 0xD4 PC PUSH19 0xE07E305B15627838EADE2FE864736F6C634300 ADDMOD XOR STOP CALLER "
		},
		"gasEstimates": {
			"creation": {
				"codeDepositCost": "647800",
				"executionCost": "681",
				"totalCost": "648481"
			},
			"external": {
				"logDataMapping(address)": "infinite",
				"setLog(address,uint256,string,string,(string,string,uint256,uint256))": "infinite"
			}
		},
		"methodIdentifiers": {
			"logDataMapping(address)": "41a409fa",
			"setLog(address,uint256,string,string,(string,string,uint256,uint256))": "099a9a4a"
		}
	},
	"abi": [
		{
			"inputs": [
				{
					"internalType": "address",
					"name": "",
					"type": "address"
				}
			],
			"name": "logDataMapping",
			"outputs": [
				{
					"internalType": "address",
					"name": "actorAddress",
					"type": "address"
				},
				{
					"internalType": "uint256",
					"name": "actorId",
					"type": "uint256"
				},
				{
					"internalType": "string",
					"name": "operation",
					"type": "string"
				},
				{
					"internalType": "string",
					"name": "serviceName",
					"type": "string"
				},
				{
					"components": [
						{
							"internalType": "string",
							"name": "name",
							"type": "string"
						},
						{
							"internalType": "string",
							"name": "userAddress",
							"type": "string"
						},
						{
							"internalType": "uint256",
							"name": "userId",
							"type": "uint256"
						},
						{
							"internalType": "uint256",
							"name": "telephone",
							"type": "uint256"
						}
					],
					"internalType": "struct DataUsageSmartContract.PersonalData",
					"name": "personalData",
					"type": "tuple"
				}
			],
			"stateMutability": "view",
			"type": "function"
		},
		{
			"inputs": [
				{
					"internalType": "address",
					"name": "_actorAddress",
					"type": "address"
				},
				{
					"internalType": "uint256",
					"name": "_actorId",
					"type": "uint256"
				},
				{
					"internalType": "string",
					"name": "_operation",
					"type": "string"
				},
				{
					"internalType": "string",
					"name": "_serviceName",
					"type": "string"
				},
				{
					"components": [
						{
							"internalType": "string",
							"name": "name",
							"type": "string"
						},
						{
							"internalType": "string",
							"name": "userAddress",
							"type": "string"
						},
						{
							"internalType": "uint256",
							"name": "userId",
							"type": "uint256"
						},
						{
							"internalType": "uint256",
							"name": "telephone",
							"type": "uint256"
						}
					],
					"internalType": "struct DataUsageSmartContract.PersonalData",
					"name": "_personalData",
					"type": "tuple"
				}
			],
			"name": "setLog",
			"outputs": [],
			"stateMutability": "nonpayable",
			"type": "function"
		}
	]
}