{
	"data": {
		"bytecode": {
			"linkReferences": {},
			"object": "608060405234801562000010575f80fd5b5060405162001829380380620018298339818101604052810190620000369190620002f6565b335f806101000a81548173ffffffffffffffffffffffffffffffffffffffff021916908373ffffffffffffffffffffffffffffffffffffffff1602179055505f73ffffffffffffffffffffffffffffffffffffffff168373ffffffffffffffffffffffffffffffffffffffff1603620000e6576040517f08c379a0000000000000000000000000000000000000000000000000000000008152600401620000dd90620003d3565b60405180910390fd5b5f73ffffffffffffffffffffffffffffffffffffffff168273ffffffffffffffffffffffffffffffffffffffff160362000157576040517f08c379a00000000000000000000000000000000000000000000000000000000081526004016200014e9062000467565b60405180910390fd5b5f73ffffffffffffffffffffffffffffffffffffffff168173ffffffffffffffffffffffffffffffffffffffff1603620001c8576040517f08c379a0000000000000000000000000000000000000000000000000000000008152600401620001bf90620004fb565b60405180910390fd5b8260015f6101000a81548173ffffffffffffffffffffffffffffffffffffffff021916908373ffffffffffffffffffffffffffffffffffffffff1602179055508160025f6101000a81548173ffffffffffffffffffffffffffffffffffffffff021916908373ffffffffffffffffffffffffffffffffffffffff1602179055508060035f6101000a81548173ffffffffffffffffffffffffffffffffffffffff021916908373ffffffffffffffffffffffffffffffffffffffff1602179055505050506200051b565b5f80fd5b5f73ffffffffffffffffffffffffffffffffffffffff82169050919050565b5f620002c08262000295565b9050919050565b620002d281620002b4565b8114620002dd575f80fd5b50565b5f81519050620002f081620002c7565b92915050565b5f805f6060848603121562000310576200030f62000291565b5b5f6200031f86828701620002e0565b93505060206200033286828701620002e0565b92505060406200034586828701620002e0565b9150509250925092565b5f82825260208201905092915050565b7f496e76616c696420446174615573616765536d617274436f6e747261637420615f8201527f6464726573732e00000000000000000000000000000000000000000000000000602082015250565b5f620003bb6027836200034f565b9150620003c8826200035f565b604082019050919050565b5f6020820190508181035f830152620003ec81620003ad565b9050919050565b7f496e76616c69642041677265656d656e74536d617274436f6e747261637420615f8201527f6464726573732e00000000000000000000000000000000000000000000000000602082015250565b5f6200044f6027836200034f565b91506200045c82620003f3565b604082019050919050565b5f6020820190508181035f830152620004808162000441565b9050919050565b7f496e76616c6964204c6f67536d617274436f6e747261637420616464726573735f8201527f2e00000000000000000000000000000000000000000000000000000000000000602082015250565b5f620004e36021836200034f565b9150620004f08262000487565b604082019050919050565b5f6020820190508181035f8301526200051481620004d5565b9050919050565b61130080620005295f395ff3fe608060405234801561000f575f80fd5b506004361061003f575f3560e01c80630ac2db42146100435780637fe188141461004d5780638da5cb5b1461006b575b5f80fd5b61004b610089565b005b6100556106fe565b604051610062919061087e565b60405180910390f35b61007361079b565b60405161008091906108dd565b60405180910390f35b5f8054906101000a900473ffffffffffffffffffffffffffffffffffffffff1673ffffffffffffffffffffffffffffffffffffffff163373ffffffffffffffffffffffffffffffffffffffff1614610116576040517f08c379a000000000000000000000000000000000000000000000000000000000815260040161010d90610976565b60405180910390fd5b5f60035f9054906101000a900473ffffffffffffffffffffffffffffffffffffffff1673ffffffffffffffffffffffffffffffffffffffff16638ae0be406040518163ffffffff1660e01b81526004015f60405180830381865afa158015610180573d5f803e3d5ffd5b505050506040513d5f823e3d601f19601f820116820180604052508101906101a89190610b1f565b90505f60025f9054906101000a900473ffffffffffffffffffffffffffffffffffffffff1673ffffffffffffffffffffffffffffffffffffffff1663e27a4b116040518163ffffffff1660e01b81526004015f60405180830381865afa158015610214573d5f803e3d5ffd5b505050506040513d5f823e3d601f19601f8201168201806040525081019061023c9190610b1f565b90505f5b82518110156106f9575f83828151811061025d5761025c610b66565b5b602002602001015190505f60035f9054906101000a900473ffffffffffffffffffffffffffffffffffffffff1673ffffffffffffffffffffffffffffffffffffffff166303e4d77f836040518263ffffffff1660e01b81526004016102c29190610ba2565b5f60405180830381865afa1580156102dc573d5f803e3d5ffd5b505050506040513d5f823e3d601f19601f820116820180604052508101906103049190610f3b565b90505f5b84518110156106e9575f85828151811061032557610324610b66565b5b602002602001015190508084036106da575f60025f9054906101000a900473ffffffffffffffffffffffffffffffffffffffff1673ffffffffffffffffffffffffffffffffffffffff1663e875b1ca836040518263ffffffff1660e01b81526004016103919190610ba2565b606060405180830381865afa1580156103ac573d5f803e3d5ffd5b505050506040513d601f19601f820116820180604052508101906103d09190611042565b90505f60015f9054906101000a900473ffffffffffffffffffffffffffffffffffffffff1673ffffffffffffffffffffffffffffffffffffffff1663d2b0649a876040518263ffffffff1660e01b815260040161042d9190610ba2565b5f60405180830381865afa158015610447573d5f803e3d5ffd5b505050506040513d5f823e3d601f19601f8201168201806040525081019061046f9190611196565b90508160400151158061048a57508160200151856020015114155b156104c15760048560200151908060018154018082558091505060019003905f5260205f20015f90919091909150555050506106dc565b5f816060015151866040015151146104dc5760019050610592565b5f5b866040015151811015610590578260600151818151811061050257610501610b66565b5b602002602001015160405160200161051a9190611221565b604051602081830303815290604052805190602001208760400151828151811061054757610546610b66565b5b602002602001015160405160200161055f9190611221565b60405160208183030381529060405280519060200120146105835760019150610590565b80806001019150506104de565b505b806106a5575f5b8660800151518110156106a3575f876080015182815181106105be576105bd610b66565b5b602002602001015190505f60015f9054906101000a900473ffffffffffffffffffffffffffffffffffffffff1673ffffffffffffffffffffffffffffffffffffffff1663b61798f68660800151858151811061061d5761061c610b66565b5b60200260200101516040518263ffffffff1660e01b81526004016106419190610ba2565b602060405180830381865afa15801561065c573d5f803e3d5ffd5b505050506040513d601f19601f820116820180604052508101906106809190611237565b9050808214610694576001935050506106a3565b50508080600101915050610599565b505b80156106d65760048660200151908060018154018082558091505060019003905f5260205f20015f90919091909150555b5050505b505b8080600101915050610308565b5050508080600101915050610240565b505050565b60605f60048054905014610747576040517f08c379a000000000000000000000000000000000000000000000000000000000815260040161073e906112ac565b60405180910390fd5b600480548060200260200160405190810160405280929190818152602001828054801561079157602002820191905f5260205f20905b81548152602001906001019080831161077d575b5050505050905090565b5f8054906101000a900473ffffffffffffffffffffffffffffffffffffffff1681565b5f81519050919050565b5f82825260208201905092915050565b5f819050602082019050919050565b5f819050919050565b6107f9816107e7565b82525050565b5f61080a83836107f0565b60208301905092915050565b5f602082019050919050565b5f61082c826107be565b61083681856107c8565b9350610841836107d8565b805f5b8381101561087157815161085888826107ff565b975061086383610816565b925050600181019050610844565b5085935050505092915050565b5f6020820190508181035f8301526108968184610822565b905092915050565b5f73ffffffffffffffffffffffffffffffffffffffff82169050919050565b5f6108c78261089e565b9050919050565b6108d7816108bd565b82525050565b5f6020820190506108f05f8301846108ce565b92915050565b5f82825260208201905092915050565b7f4f6e6c792074686520636f6e7472616374206f776e65722063616e20706572665f8201527f6f726d2074686973206f7065726174696f6e0000000000000000000000000000602082015250565b5f6109606032836108f6565b915061096b82610906565b604082019050919050565b5f6020820190508181035f83015261098d81610954565b9050919050565b5f604051905090565b5f80fd5b5f80fd5b5f80fd5b5f601f19601f8301169050919050565b7f4e487b71000000000000000000000000000000000000000000000000000000005f52604160045260245ffd5b6109ef826109a9565b810181811067ffffffffffffffff82111715610a0e57610a0d6109b9565b5b80604052505050565b5f610a20610994565b9050610a2c82826109e6565b919050565b5f67ffffffffffffffff821115610a4b57610a4a6109b9565b5b602082029050602081019050919050565b5f80fd5b610a69816107e7565b8114610a73575f80fd5b50565b5f81519050610a8481610a60565b92915050565b5f610a9c610a9784610a31565b610a17565b90508083825260208201905060208402830185811115610abf57610abe610a5c565b5b835b81811015610ae85780610ad48882610a76565b845260208401935050602081019050610ac1565b5050509392505050565b5f82601f830112610b0657610b056109a5565b5b8151610b16848260208601610a8a565b91505092915050565b5f60208284031215610b3457610b3361099d565b5b5f82015167ffffffffffffffff811115610b5157610b506109a1565b5b610b5d84828501610af2565b91505092915050565b7f4e487b71000000000000000000000000000000000000000000000000000000005f52603260045260245ffd5b610b9c816107e7565b82525050565b5f602082019050610bb55f830184610b93565b92915050565b5f80fd5b5f80fd5b5f67ffffffffffffffff821115610bdd57610bdc6109b9565b5b602082029050602081019050919050565b5f80fd5b5f67ffffffffffffffff821115610c0c57610c0b6109b9565b5b610c15826109a9565b9050602081019050919050565b5f5b83811015610c3f578082015181840152602081019050610c24565b5f8484015250505050565b5f610c5c610c5784610bf2565b610a17565b905082815260208101848484011115610c7857610c77610bee565b5b610c83848285610c22565b509392505050565b5f82601f830112610c9f57610c9e6109a5565b5b8151610caf848260208601610c4a565b91505092915050565b5f610cca610cc584610bc3565b610a17565b90508083825260208201905060208402830185811115610ced57610cec610a5c565b5b835b81811015610d3457805167ffffffffffffffff811115610d1257610d116109a5565b5b808601610d1f8982610c8b565b85526020850194505050602081019050610cef565b5050509392505050565b5f82601f830112610d5257610d516109a5565b5b8151610d62848260208601610cb8565b91505092915050565b5f67ffffffffffffffff821115610d8557610d846109b9565b5b602082029050602081019050919050565b5f819050919050565b610da881610d96565b8114610db2575f80fd5b50565b5f81519050610dc381610d9f565b92915050565b5f610ddb610dd684610d6b565b610a17565b90508083825260208201905060208402830185811115610dfe57610dfd610a5c565b5b835b81811015610e275780610e138882610db5565b845260208401935050602081019050610e00565b5050509392505050565b5f82601f830112610e4557610e446109a5565b5b8151610e55848260208601610dc9565b91505092915050565b5f60a08284031215610e7357610e72610bbb565b5b610e7d60a0610a17565b90505f610e8c84828501610a76565b5f830152506020610e9f84828501610a76565b602083015250604082015167ffffffffffffffff811115610ec357610ec2610bbf565b5b610ecf84828501610d3e565b604083015250606082015167ffffffffffffffff811115610ef357610ef2610bbf565b5b610eff84828501610c8b565b606083015250608082015167ffffffffffffffff811115610f2357610f22610bbf565b5b610f2f84828501610e31565b60808301525092915050565b5f60208284031215610f5057610f4f61099d565b5b5f82015167ffffffffffffffff811115610f6d57610f6c6109a1565b5b610f7984828501610e5e565b91505092915050565b610f8b816108bd565b8114610f95575f80fd5b50565b5f81519050610fa681610f82565b92915050565b5f8115159050919050565b610fc081610fac565b8114610fca575f80fd5b50565b5f81519050610fdb81610fb7565b92915050565b5f60608284031215610ff657610ff5610bbb565b5b6110006060610a17565b90505f61100f84828501610f98565b5f83015250602061102284828501610a76565b602083015250604061103684828501610fcd565b60408301525092915050565b5f606082840312156110575761105661099d565b5b5f61106484828501610fe1565b91505092915050565b5f60c0828403121561108257611081610bbb565b5b61108c60c0610a17565b90505f82015167ffffffffffffffff8111156110ab576110aa610bbf565b5b6110b784828501610c8b565b5f83015250602082015167ffffffffffffffff8111156110da576110d9610bbf565b5b6110e684828501610c8b565b60208301525060406110fa84828501610a76565b604083015250606082015167ffffffffffffffff81111561111e5761111d610bbf565b5b61112a84828501610d3e565b606083015250608082015167ffffffffffffffff81111561114e5761114d610bbf565b5b61115a84828501610af2565b60808301525060a082015167ffffffffffffffff81111561117e5761117d610bbf565b5b61118a84828501610e31565b60a08301525092915050565b5f602082840312156111ab576111aa61099d565b5b5f82015167ffffffffffffffff8111156111c8576111c76109a1565b5b6111d48482850161106d565b91505092915050565b5f81519050919050565b5f81905092915050565b5f6111fb826111dd565b61120581856111e7565b9350611215818560208601610c22565b80840191505092915050565b5f61122c82846111f1565b915081905092915050565b5f6020828403121561124c5761124b61099d565b5b5f61125984828501610db5565b91505092915050565b7f76696f6c61746f7220697320656d7074790000000000000000000000000000005f82015250565b5f6112966011836108f6565b91506112a182611262565b602082019050919050565b5f6020820190508181035f8301526112c38161128a565b905091905056fea26469706673582212204bf2f5012b37988849afc1dfc4e1bf9aa5b415f9dad08c7b7f78dfda4ee5198c64736f6c63430008180033",
			"opcodes": "PUSH1 0x80 PUSH1 0x40 MSTORE CALLVALUE DUP1 ISZERO PUSH3 0x10 JUMPI PUSH0 DUP1 REVERT JUMPDEST POP PUSH1 0x40 MLOAD PUSH3 0x1829 CODESIZE SUB DUP1 PUSH3 0x1829 DUP4 CODECOPY DUP2 DUP2 ADD PUSH1 0x40 MSTORE DUP2 ADD SWAP1 PUSH3 0x36 SWAP2 SWAP1 PUSH3 0x2F6 JUMP JUMPDEST CALLER PUSH0 DUP1 PUSH2 0x100 EXP DUP2 SLOAD DUP2 PUSH20 0xFFFFFFFFFFFFFFFFFFFFFFFFFFFFFFFFFFFFFFFF MUL NOT AND SWAP1 DUP4 PUSH20 0xFFFFFFFFFFFFFFFFFFFFFFFFFFFFFFFFFFFFFFFF AND MUL OR SWAP1 SSTORE POP PUSH0 PUSH20 0xFFFFFFFFFFFFFFFFFFFFFFFFFFFFFFFFFFFFFFFF AND DUP4 PUSH20 0xFFFFFFFFFFFFFFFFFFFFFFFFFFFFFFFFFFFFFFFF AND SUB PUSH3 0xE6 JUMPI PUSH1 0x40 MLOAD PUSH32 0x8C379A000000000000000000000000000000000000000000000000000000000 DUP2 MSTORE PUSH1 0x4 ADD PUSH3 0xDD SWAP1 PUSH3 0x3D3 JUMP JUMPDEST PUSH1 0x40 MLOAD DUP1 SWAP2 SUB SWAP1 REVERT JUMPDEST PUSH0 PUSH20 0xFFFFFFFFFFFFFFFFFFFFFFFFFFFFFFFFFFFFFFFF AND DUP3 PUSH20 0xFFFFFFFFFFFFFFFFFFFFFFFFFFFFFFFFFFFFFFFF AND SUB PUSH3 0x157 JUMPI PUSH1 0x40 MLOAD PUSH32 0x8C379A000000000000000000000000000000000000000000000000000000000 DUP2 MSTORE PUSH1 0x4 ADD PUSH3 0x14E SWAP1 PUSH3 0x467 JUMP JUMPDEST PUSH1 0x40 MLOAD DUP1 SWAP2 SUB SWAP1 REVERT JUMPDEST PUSH0 PUSH20 0xFFFFFFFFFFFFFFFFFFFFFFFFFFFFFFFFFFFFFFFF AND DUP2 PUSH20 0xFFFFFFFFFFFFFFFFFFFFFFFFFFFFFFFFFFFFFFFF AND SUB PUSH3 0x1C8 JUMPI PUSH1 0x40 MLOAD PUSH32 0x8C379A000000000000000000000000000000000000000000000000000000000 DUP2 MSTORE PUSH1 0x4 ADD PUSH3 0x1BF SWAP1 PUSH3 0x4FB JUMP JUMPDEST PUSH1 0x40 MLOAD DUP1 SWAP2 SUB SWAP1 REVERT JUMPDEST DUP3 PUSH1 0x1 PUSH0 PUSH2 0x100 EXP DUP2 SLOAD DUP2 PUSH20 0xFFFFFFFFFFFFFFFFFFFFFFFFFFFFFFFFFFFFFFFF MUL NOT AND SWAP1 DUP4 PUSH20 0xFFFFFFFFFFFFFFFFFFFFFFFFFFFFFFFFFFFFFFFF AND MUL OR SWAP1 SSTORE POP DUP2 PUSH1 0x2 PUSH0 PUSH2 0x100 EXP DUP2 SLOAD DUP2 PUSH20 0xFFFFFFFFFFFFFFFFFFFFFFFFFFFFFFFFFFFFFFFF MUL NOT AND SWAP1 DUP4 PUSH20 0xFFFFFFFFFFFFFFFFFFFFFFFFFFFFFFFFFFFFFFFF AND MUL OR SWAP1 SSTORE POP DUP1 PUSH1 0x3 PUSH0 PUSH2 0x100 EXP DUP2 SLOAD DUP2 PUSH20 0xFFFFFFFFFFFFFFFFFFFFFFFFFFFFFFFFFFFFFFFF MUL NOT AND SWAP1 DUP4 PUSH20 0xFFFFFFFFFFFFFFFFFFFFFFFFFFFFFFFFFFFFFFFF AND MUL OR SWAP1 SSTORE POP POP POP POP PUSH3 0x51B JUMP JUMPDEST PUSH0 DUP1 REVERT JUMPDEST PUSH0 PUSH20 0xFFFFFFFFFFFFFFFFFFFFFFFFFFFFFFFFFFFFFFFF DUP3 AND SWAP1 POP SWAP2 SWAP1 POP JUMP JUMPDEST PUSH0 PUSH3 0x2C0 DUP3 PUSH3 0x295 JUMP JUMPDEST SWAP1 POP SWAP2 SWAP1 POP JUMP JUMPDEST PUSH3 0x2D2 DUP2 PUSH3 0x2B4 JUMP JUMPDEST DUP2 EQ PUSH3 0x2DD JUMPI PUSH0 DUP1 REVERT JUMPDEST POP JUMP JUMPDEST PUSH0 DUP2 MLOAD SWAP1 POP PUSH3 0x2F0 DUP2 PUSH3 0x2C7 JUMP JUMPDEST SWAP3 SWAP2 POP POP JUMP JUMPDEST PUSH0 DUP1 PUSH0 PUSH1 0x60 DUP5 DUP7 SUB SLT ISZERO PUSH3 0x310 JUMPI PUSH3 0x30F PUSH3 0x291 JUMP JUMPDEST JUMPDEST PUSH0 PUSH3 0x31F DUP7 DUP3 DUP8 ADD PUSH3 0x2E0 JUMP JUMPDEST SWAP4 POP POP PUSH1 0x20 PUSH3 0x332 DUP7 DUP3 DUP8 ADD PUSH3 0x2E0 JUMP JUMPDEST SWAP3 POP POP PUSH1 0x40 PUSH3 0x345 DUP7 DUP3 DUP8 ADD PUSH3 0x2E0 JUMP JUMPDEST SWAP2 POP POP SWAP3 POP SWAP3 POP SWAP3 JUMP JUMPDEST PUSH0 DUP3 DUP3 MSTORE PUSH1 0x20 DUP3 ADD SWAP1 POP SWAP3 SWAP2 POP POP JUMP JUMPDEST PUSH32 0x496E76616C696420446174615573616765536D617274436F6E74726163742061 PUSH0 DUP3 ADD MSTORE PUSH32 0x6464726573732E00000000000000000000000000000000000000000000000000 PUSH1 0x20 DUP3 ADD MSTORE POP JUMP JUMPDEST PUSH0 PUSH3 0x3BB PUSH1 0x27 DUP4 PUSH3 0x34F JUMP JUMPDEST SWAP2 POP PUSH3 0x3C8 DUP3 PUSH3 0x35F JUMP JUMPDEST PUSH1 0x40 DUP3 ADD SWAP1 POP SWAP2 SWAP1 POP JUMP JUMPDEST PUSH0 PUSH1 0x20 DUP3 ADD SWAP1 POP DUP2 DUP2 SUB PUSH0 DUP4 ADD MSTORE PUSH3 0x3EC DUP2 PUSH3 0x3AD JUMP JUMPDEST SWAP1 POP SWAP2 SWAP1 POP JUMP JUMPDEST PUSH32 0x496E76616C69642041677265656D656E74536D617274436F6E74726163742061 PUSH0 DUP3 ADD MSTORE PUSH32 0x6464726573732E00000000000000000000000000000000000000000000000000 PUSH1 0x20 DUP3 ADD MSTORE POP JUMP JUMPDEST PUSH0 PUSH3 0x44F PUSH1 0x27 DUP4 PUSH3 0x34F JUMP JUMPDEST SWAP2 POP PUSH3 0x45C DUP3 PUSH3 0x3F3 JUMP JUMPDEST PUSH1 0x40 DUP3 ADD SWAP1 POP SWAP2 SWAP1 POP JUMP JUMPDEST PUSH0 PUSH1 0x20 DUP3 ADD SWAP1 POP DUP2 DUP2 SUB PUSH0 DUP4 ADD MSTORE PUSH3 0x480 DUP2 PUSH3 0x441 JUMP JUMPDEST SWAP1 POP SWAP2 SWAP1 POP JUMP JUMPDEST PUSH32 0x496E76616C6964204C6F67536D617274436F6E74726163742061646472657373 PUSH0 DUP3 ADD MSTORE PUSH32 0x2E00000000000000000000000000000000000000000000000000000000000000 PUSH1 0x20 DUP3 ADD MSTORE POP JUMP JUMPDEST PUSH0 PUSH3 0x4E3 PUSH1 0x21 DUP4 PUSH3 0x34F JUMP JUMPDEST SWAP2 POP PUSH3 0x4F0 DUP3 PUSH3 0x487 JUMP JUMPDEST PUSH1 0x40 DUP3 ADD SWAP1 POP SWAP2 SWAP1 POP JUMP JUMPDEST PUSH0 PUSH1 0x20 DUP3 ADD SWAP1 POP DUP2 DUP2 SUB PUSH0 DUP4 ADD MSTORE PUSH3 0x514 DUP2 PUSH3 0x4D5 JUMP JUMPDEST SWAP1 POP SWAP2 SWAP1 POP JUMP JUMPDEST PUSH2 0x1300 DUP1 PUSH3 0x529 PUSH0 CODECOPY PUSH0 RETURN INVALID PUSH1 0x80 PUSH1 0x40 MSTORE CALLVALUE DUP1 ISZERO PUSH2 0xF JUMPI PUSH0 DUP1 REVERT JUMPDEST POP PUSH1 0x4 CALLDATASIZE LT PUSH2 0x3F JUMPI PUSH0 CALLDATALOAD PUSH1 0xE0 SHR DUP1 PUSH4 0xAC2DB42 EQ PUSH2 0x43 JUMPI DUP1 PUSH4 0x7FE18814 EQ PUSH2 0x4D JUMPI DUP1 PUSH4 0x8DA5CB5B EQ PUSH2 0x6B JUMPI JUMPDEST PUSH0 DUP1 REVERT JUMPDEST PUSH2 0x4B PUSH2 0x89 JUMP JUMPDEST STOP JUMPDEST PUSH2 0x55 PUSH2 0x6FE JUMP JUMPDEST PUSH1 0x40 MLOAD PUSH2 0x62 SWAP2 SWAP1 PUSH2 0x87E JUMP JUMPDEST PUSH1 0x40 MLOAD DUP1 SWAP2 SUB SWAP1 RETURN JUMPDEST PUSH2 0x73 PUSH2 0x79B JUMP JUMPDEST PUSH1 0x40 MLOAD PUSH2 0x80 SWAP2 SWAP1 PUSH2 0x8DD JUMP JUMPDEST PUSH1 0x40 MLOAD DUP1 SWAP2 SUB SWAP1 RETURN JUMPDEST PUSH0 DUP1 SLOAD SWAP1 PUSH2 0x100 EXP SWAP1 DIV PUSH20 0xFFFFFFFFFFFFFFFFFFFFFFFFFFFFFFFFFFFFFFFF AND PUSH20 0xFFFFFFFFFFFFFFFFFFFFFFFFFFFFFFFFFFFFFFFF AND CALLER PUSH20 0xFFFFFFFFFFFFFFFFFFFFFFFFFFFFFFFFFFFFFFFF AND EQ PUSH2 0x116 JUMPI PUSH1 0x40 MLOAD PUSH32 0x8C379A000000000000000000000000000000000000000000000000000000000 DUP2 MSTORE PUSH1 0x4 ADD PUSH2 0x10D SWAP1 PUSH2 0x976 JUMP JUMPDEST PUSH1 0x40 MLOAD DUP1 SWAP2 SUB SWAP1 REVERT JUMPDEST PUSH0 PUSH1 0x3 PUSH0 SWAP1 SLOAD SWAP1 PUSH2 0x100 EXP SWAP1 DIV PUSH20 0xFFFFFFFFFFFFFFFFFFFFFFFFFFFFFFFFFFFFFFFF AND PUSH20 0xFFFFFFFFFFFFFFFFFFFFFFFFFFFFFFFFFFFFFFFF AND PUSH4 0x8AE0BE40 PUSH1 0x40 MLOAD DUP2 PUSH4 0xFFFFFFFF AND PUSH1 0xE0 SHL DUP2 MSTORE PUSH1 0x4 ADD PUSH0 PUSH1 0x40 MLOAD DUP1 DUP4 SUB DUP2 DUP7 GAS STATICCALL ISZERO DUP1 ISZERO PUSH2 0x180 JUMPI RETURNDATASIZE PUSH0 DUP1 RETURNDATACOPY RETURNDATASIZE PUSH0 REVERT JUMPDEST POP POP POP POP PUSH1 0x40 MLOAD RETURNDATASIZE PUSH0 DUP3 RETURNDATACOPY RETURNDATASIZE PUSH1 0x1F NOT PUSH1 0x1F DUP3 ADD AND DUP3 ADD DUP1 PUSH1 0x40 MSTORE POP DUP2 ADD SWAP1 PUSH2 0x1A8 SWAP2 SWAP1 PUSH2 0xB1F JUMP JUMPDEST SWAP1 POP PUSH0 PUSH1 0x2 PUSH0 SWAP1 SLOAD SWAP1 PUSH2 0x100 EXP SWAP1 DIV PUSH20 0xFFFFFFFFFFFFFFFFFFFFFFFFFFFFFFFFFFFFFFFF AND PUSH20 0xFFFFFFFFFFFFFFFFFFFFFFFFFFFFFFFFFFFFFFFF AND PUSH4 0xE27A4B11 PUSH1 0x40 MLOAD DUP2 PUSH4 0xFFFFFFFF AND PUSH1 0xE0 SHL DUP2 MSTORE PUSH1 0x4 ADD PUSH0 PUSH1 0x40 MLOAD DUP1 DUP4 SUB DUP2 DUP7 GAS STATICCALL ISZERO DUP1 ISZERO PUSH2 0x214 JUMPI RETURNDATASIZE PUSH0 DUP1 RETURNDATACOPY RETURNDATASIZE PUSH0 REVERT JUMPDEST POP POP POP POP PUSH1 0x40 MLOAD RETURNDATASIZE PUSH0 DUP3 RETURNDATACOPY RETURNDATASIZE PUSH1 0x1F NOT PUSH1 0x1F DUP3 ADD AND DUP3 ADD DUP1 PUSH1 0x40 MSTORE POP DUP2 ADD SWAP1 PUSH2 0x23C SWAP2 SWAP1 PUSH2 0xB1F JUMP JUMPDEST SWAP1 POP PUSH0 JUMPDEST DUP3 MLOAD DUP2 LT ISZERO PUSH2 0x6F9 JUMPI PUSH0 DUP4 DUP3 DUP2 MLOAD DUP2 LT PUSH2 0x25D JUMPI PUSH2 0x25C PUSH2 0xB66 JUMP JUMPDEST JUMPDEST PUSH1 0x20 MUL PUSH1 0x20 ADD ADD MLOAD SWAP1 POP PUSH0 PUSH1 0x3 PUSH0 SWAP1 SLOAD SWAP1 PUSH2 0x100 EXP SWAP1 DIV PUSH20 0xFFFFFFFFFFFFFFFFFFFFFFFFFFFFFFFFFFFFFFFF AND PUSH20 0xFFFFFFFFFFFFFFFFFFFFFFFFFFFFFFFFFFFFFFFF AND PUSH4 0x3E4D77F DUP4 PUSH1 0x40 MLOAD DUP3 PUSH4 0xFFFFFFFF AND PUSH1 0xE0 SHL DUP2 MSTORE PUSH1 0x4 ADD PUSH2 0x2C2 SWAP2 SWAP1 PUSH2 0xBA2 JUMP JUMPDEST PUSH0 PUSH1 0x40 MLOAD DUP1 DUP4 SUB DUP2 DUP7 GAS STATICCALL ISZERO DUP1 ISZERO PUSH2 0x2DC JUMPI RETURNDATASIZE PUSH0 DUP1 RETURNDATACOPY RETURNDATASIZE PUSH0 REVERT JUMPDEST POP POP POP POP PUSH1 0x40 MLOAD RETURNDATASIZE PUSH0 DUP3 RETURNDATACOPY RETURNDATASIZE PUSH1 0x1F NOT PUSH1 0x1F DUP3 ADD AND DUP3 ADD DUP1 PUSH1 0x40 MSTORE POP DUP2 ADD SWAP1 PUSH2 0x304 SWAP2 SWAP1 PUSH2 0xF3B JUMP JUMPDEST SWAP1 POP PUSH0 JUMPDEST DUP5 MLOAD DUP2 LT ISZERO PUSH2 0x6E9 JUMPI PUSH0 DUP6 DUP3 DUP2 MLOAD DUP2 LT PUSH2 0x325 JUMPI PUSH2 0x324 PUSH2 0xB66 JUMP JUMPDEST JUMPDEST PUSH1 0x20 MUL PUSH1 0x20 ADD ADD MLOAD SWAP1 POP DUP1 DUP5 SUB PUSH2 0x6DA JUMPI PUSH0 PUSH1 0x2 PUSH0 SWAP1 SLOAD SWAP1 PUSH2 0x100 EXP SWAP1 DIV PUSH20 0xFFFFFFFFFFFFFFFFFFFFFFFFFFFFFFFFFFFFFFFF AND PUSH20 0xFFFFFFFFFFFFFFFFFFFFFFFFFFFFFFFFFFFFFFFF AND PUSH4 0xE875B1CA DUP4 PUSH1 0x40 MLOAD DUP3 PUSH4 0xFFFFFFFF AND PUSH1 0xE0 SHL DUP2 MSTORE PUSH1 0x4 ADD PUSH2 0x391 SWAP2 SWAP1 PUSH2 0xBA2 JUMP JUMPDEST PUSH1 0x60 PUSH1 0x40 MLOAD DUP1 DUP4 SUB DUP2 DUP7 GAS STATICCALL ISZERO DUP1 ISZERO PUSH2 0x3AC JUMPI RETURNDATASIZE PUSH0 DUP1 RETURNDATACOPY RETURNDATASIZE PUSH0 REVERT JUMPDEST POP POP POP POP PUSH1 0x40 MLOAD RETURNDATASIZE PUSH1 0x1F NOT PUSH1 0x1F DUP3 ADD AND DUP3 ADD DUP1 PUSH1 0x40 MSTORE POP DUP2 ADD SWAP1 PUSH2 0x3D0 SWAP2 SWAP1 PUSH2 0x1042 JUMP JUMPDEST SWAP1 POP PUSH0 PUSH1 0x1 PUSH0 SWAP1 SLOAD SWAP1 PUSH2 0x100 EXP SWAP1 DIV PUSH20 0xFFFFFFFFFFFFFFFFFFFFFFFFFFFFFFFFFFFFFFFF AND PUSH20 0xFFFFFFFFFFFFFFFFFFFFFFFFFFFFFFFFFFFFFFFF AND PUSH4 0xD2B0649A DUP8 PUSH1 0x40 MLOAD DUP3 PUSH4 0xFFFFFFFF AND PUSH1 0xE0 SHL DUP2 MSTORE PUSH1 0x4 ADD PUSH2 0x42D SWAP2 SWAP1 PUSH2 0xBA2 JUMP JUMPDEST PUSH0 PUSH1 0x40 MLOAD DUP1 DUP4 SUB DUP2 DUP7 GAS STATICCALL ISZERO DUP1 ISZERO PUSH2 0x447 JUMPI RETURNDATASIZE PUSH0 DUP1 RETURNDATACOPY RETURNDATASIZE PUSH0 REVERT JUMPDEST POP POP POP POP PUSH1 0x40 MLOAD RETURNDATASIZE PUSH0 DUP3 RETURNDATACOPY RETURNDATASIZE PUSH1 0x1F NOT PUSH1 0x1F DUP3 ADD AND DUP3 ADD DUP1 PUSH1 0x40 MSTORE POP DUP2 ADD SWAP1 PUSH2 0x46F SWAP2 SWAP1 PUSH2 0x1196 JUMP JUMPDEST SWAP1 POP DUP2 PUSH1 0x40 ADD MLOAD ISZERO DUP1 PUSH2 0x48A JUMPI POP DUP2 PUSH1 0x20 ADD MLOAD DUP6 PUSH1 0x20 ADD MLOAD EQ ISZERO JUMPDEST ISZERO PUSH2 0x4C1 JUMPI PUSH1 0x4 DUP6 PUSH1 0x20 ADD MLOAD SWAP1 DUP1 PUSH1 0x1 DUP2 SLOAD ADD DUP1 DUP3 SSTORE DUP1 SWAP2 POP POP PUSH1 0x1 SWAP1 SUB SWAP1 PUSH0 MSTORE PUSH1 0x20 PUSH0 KECCAK256 ADD PUSH0 SWAP1 SWAP2 SWAP1 SWAP2 SWAP1 SWAP2 POP SSTORE POP POP POP PUSH2 0x6DC JUMP JUMPDEST PUSH0 DUP2 PUSH1 0x60 ADD MLOAD MLOAD DUP7 PUSH1 0x40 ADD MLOAD MLOAD EQ PUSH2 0x4DC JUMPI PUSH1 0x1 SWAP1 POP PUSH2 0x592 JUMP JUMPDEST PUSH0 JUMPDEST DUP7 PUSH1 0x40 ADD MLOAD MLOAD DUP2 LT ISZERO PUSH2 0x590 JUMPI DUP3 PUSH1 0x60 ADD MLOAD DUP2 DUP2 MLOAD DUP2 LT PUSH2 0x502 JUMPI PUSH2 0x501 PUSH2 0xB66 JUMP JUMPDEST JUMPDEST PUSH1 0x20 MUL PUSH1 0x20 ADD ADD MLOAD PUSH1 0x40 MLOAD PUSH1 0x20 ADD PUSH2 0x51A SWAP2 SWAP1 PUSH2 0x1221 JUMP JUMPDEST PUSH1 0x40 MLOAD PUSH1 0x20 DUP2 DUP4 SUB SUB DUP2 MSTORE SWAP1 PUSH1 0x40 MSTORE DUP1 MLOAD SWAP1 PUSH1 0x20 ADD KECCAK256 DUP8 PUSH1 0x40 ADD MLOAD DUP3 DUP2 MLOAD DUP2 LT PUSH2 0x547 JUMPI PUSH2 0x546 PUSH2 0xB66 JUMP JUMPDEST JUMPDEST PUSH1 0x20 MUL PUSH1 0x20 ADD ADD MLOAD PUSH1 0x40 MLOAD PUSH1 0x20 ADD PUSH2 0x55F SWAP2 SWAP1 PUSH2 0x1221 JUMP JUMPDEST PUSH1 0x40 MLOAD PUSH1 0x20 DUP2 DUP4 SUB SUB DUP2 MSTORE SWAP1 PUSH1 0x40 MSTORE DUP1 MLOAD SWAP1 PUSH1 0x20 ADD KECCAK256 EQ PUSH2 0x583 JUMPI PUSH1 0x1 SWAP2 POP PUSH2 0x590 JUMP JUMPDEST DUP1 DUP1 PUSH1 0x1 ADD SWAP2 POP POP PUSH2 0x4DE JUMP JUMPDEST POP JUMPDEST DUP1 PUSH2 0x6A5 JUMPI PUSH0 JUMPDEST DUP7 PUSH1 0x80 ADD MLOAD MLOAD DUP2 LT ISZERO PUSH2 0x6A3 JUMPI PUSH0 DUP8 PUSH1 0x80 ADD MLOAD DUP3 DUP2 MLOAD DUP2 LT PUSH2 0x5BE JUMPI PUSH2 0x5BD PUSH2 0xB66 JUMP JUMPDEST JUMPDEST PUSH1 0x20 MUL PUSH1 0x20 ADD ADD MLOAD SWAP1 POP PUSH0 PUSH1 0x1 PUSH0 SWAP1 SLOAD SWAP1 PUSH2 0x100 EXP SWAP1 DIV PUSH20 0xFFFFFFFFFFFFFFFFFFFFFFFFFFFFFFFFFFFFFFFF AND PUSH20 0xFFFFFFFFFFFFFFFFFFFFFFFFFFFFFFFFFFFFFFFF AND PUSH4 0xB61798F6 DUP7 PUSH1 0x80 ADD MLOAD DUP6 DUP2 MLOAD DUP2 LT PUSH2 0x61D JUMPI PUSH2 0x61C PUSH2 0xB66 JUMP JUMPDEST JUMPDEST PUSH1 0x20 MUL PUSH1 0x20 ADD ADD MLOAD PUSH1 0x40 MLOAD DUP3 PUSH4 0xFFFFFFFF AND PUSH1 0xE0 SHL DUP2 MSTORE PUSH1 0x4 ADD PUSH2 0x641 SWAP2 SWAP1 PUSH2 0xBA2 JUMP JUMPDEST PUSH1 0x20 PUSH1 0x40 MLOAD DUP1 DUP4 SUB DUP2 DUP7 GAS STATICCALL ISZERO DUP1 ISZERO PUSH2 0x65C JUMPI RETURNDATASIZE PUSH0 DUP1 RETURNDATACOPY RETURNDATASIZE PUSH0 REVERT JUMPDEST POP POP POP POP PUSH1 0x40 MLOAD RETURNDATASIZE PUSH1 0x1F NOT PUSH1 0x1F DUP3 ADD AND DUP3 ADD DUP1 PUSH1 0x40 MSTORE POP DUP2 ADD SWAP1 PUSH2 0x680 SWAP2 SWAP1 PUSH2 0x1237 JUMP JUMPDEST SWAP1 POP DUP1 DUP3 EQ PUSH2 0x694 JUMPI PUSH1 0x1 SWAP4 POP POP POP PUSH2 0x6A3 JUMP JUMPDEST POP POP DUP1 DUP1 PUSH1 0x1 ADD SWAP2 POP POP PUSH2 0x599 JUMP JUMPDEST POP JUMPDEST DUP1 ISZERO PUSH2 0x6D6 JUMPI PUSH1 0x4 DUP7 PUSH1 0x20 ADD MLOAD SWAP1 DUP1 PUSH1 0x1 DUP2 SLOAD ADD DUP1 DUP3 SSTORE DUP1 SWAP2 POP POP PUSH1 0x1 SWAP1 SUB SWAP1 PUSH0 MSTORE PUSH1 0x20 PUSH0 KECCAK256 ADD PUSH0 SWAP1 SWAP2 SWAP1 SWAP2 SWAP1 SWAP2 POP SSTORE JUMPDEST POP POP POP JUMPDEST POP JUMPDEST DUP1 DUP1 PUSH1 0x1 ADD SWAP2 POP POP PUSH2 0x308 JUMP JUMPDEST POP POP POP DUP1 DUP1 PUSH1 0x1 ADD SWAP2 POP POP PUSH2 0x240 JUMP JUMPDEST POP POP POP JUMP JUMPDEST PUSH1 0x60 PUSH0 PUSH1 0x4 DUP1 SLOAD SWAP1 POP EQ PUSH2 0x747 JUMPI PUSH1 0x40 MLOAD PUSH32 0x8C379A000000000000000000000000000000000000000000000000000000000 DUP2 MSTORE PUSH1 0x4 ADD PUSH2 0x73E SWAP1 PUSH2 0x12AC JUMP JUMPDEST PUSH1 0x40 MLOAD DUP1 SWAP2 SUB SWAP1 REVERT JUMPDEST PUSH1 0x4 DUP1 SLOAD DUP1 PUSH1 0x20 MUL PUSH1 0x20 ADD PUSH1 0x40 MLOAD SWAP1 DUP2 ADD PUSH1 0x40 MSTORE DUP1 SWAP3 SWAP2 SWAP1 DUP2 DUP2 MSTORE PUSH1 0x20 ADD DUP3 DUP1 SLOAD DUP1 ISZERO PUSH2 0x791 JUMPI PUSH1 0x20 MUL DUP3 ADD SWAP2 SWAP1 PUSH0 MSTORE PUSH1 0x20 PUSH0 KECCAK256 SWAP1 JUMPDEST DUP2 SLOAD DUP2 MSTORE PUSH1 0x20 ADD SWAP1 PUSH1 0x1 ADD SWAP1 DUP1 DUP4 GT PUSH2 0x77D JUMPI JUMPDEST POP POP POP POP POP SWAP1 POP SWAP1 JUMP JUMPDEST PUSH0 DUP1 SLOAD SWAP1 PUSH2 0x100 EXP SWAP1 DIV PUSH20 0xFFFFFFFFFFFFFFFFFFFFFFFFFFFFFFFFFFFFFFFF AND DUP2 JUMP JUMPDEST PUSH0 DUP2 MLOAD SWAP1 POP SWAP2 SWAP1 POP JUMP JUMPDEST PUSH0 DUP3 DUP3 MSTORE PUSH1 0x20 DUP3 ADD SWAP1 POP SWAP3 SWAP2 POP POP JUMP JUMPDEST PUSH0 DUP2 SWAP1 POP PUSH1 0x20 DUP3 ADD SWAP1 POP SWAP2 SWAP1 POP JUMP JUMPDEST PUSH0 DUP2 SWAP1 POP SWAP2 SWAP1 POP JUMP JUMPDEST PUSH2 0x7F9 DUP2 PUSH2 0x7E7 JUMP JUMPDEST DUP3 MSTORE POP POP JUMP JUMPDEST PUSH0 PUSH2 0x80A DUP4 DUP4 PUSH2 0x7F0 JUMP JUMPDEST PUSH1 0x20 DUP4 ADD SWAP1 POP SWAP3 SWAP2 POP POP JUMP JUMPDEST PUSH0 PUSH1 0x20 DUP3 ADD SWAP1 POP SWAP2 SWAP1 POP JUMP JUMPDEST PUSH0 PUSH2 0x82C DUP3 PUSH2 0x7BE JUMP JUMPDEST PUSH2 0x836 DUP2 DUP6 PUSH2 0x7C8 JUMP JUMPDEST SWAP4 POP PUSH2 0x841 DUP4 PUSH2 0x7D8 JUMP JUMPDEST DUP1 PUSH0 JUMPDEST DUP4 DUP2 LT ISZERO PUSH2 0x871 JUMPI DUP2 MLOAD PUSH2 0x858 DUP9 DUP3 PUSH2 0x7FF JUMP JUMPDEST SWAP8 POP PUSH2 0x863 DUP4 PUSH2 0x816 JUMP JUMPDEST SWAP3 POP POP PUSH1 0x1 DUP2 ADD SWAP1 POP PUSH2 0x844 JUMP JUMPDEST POP DUP6 SWAP4 POP POP POP POP SWAP3 SWAP2 POP POP JUMP JUMPDEST PUSH0 PUSH1 0x20 DUP3 ADD SWAP1 POP DUP2 DUP2 SUB PUSH0 DUP4 ADD MSTORE PUSH2 0x896 DUP2 DUP5 PUSH2 0x822 JUMP JUMPDEST SWAP1 POP SWAP3 SWAP2 POP POP JUMP JUMPDEST PUSH0 PUSH20 0xFFFFFFFFFFFFFFFFFFFFFFFFFFFFFFFFFFFFFFFF DUP3 AND SWAP1 POP SWAP2 SWAP1 POP JUMP JUMPDEST PUSH0 PUSH2 0x8C7 DUP3 PUSH2 0x89E JUMP JUMPDEST SWAP1 POP SWAP2 SWAP1 POP JUMP JUMPDEST PUSH2 0x8D7 DUP2 PUSH2 0x8BD JUMP JUMPDEST DUP3 MSTORE POP POP JUMP JUMPDEST PUSH0 PUSH1 0x20 DUP3 ADD SWAP1 POP PUSH2 0x8F0 PUSH0 DUP4 ADD DUP5 PUSH2 0x8CE JUMP JUMPDEST SWAP3 SWAP2 POP POP JUMP JUMPDEST PUSH0 DUP3 DUP3 MSTORE PUSH1 0x20 DUP3 ADD SWAP1 POP SWAP3 SWAP2 POP POP JUMP JUMPDEST PUSH32 0x4F6E6C792074686520636F6E7472616374206F776E65722063616E2070657266 PUSH0 DUP3 ADD MSTORE PUSH32 0x6F726D2074686973206F7065726174696F6E0000000000000000000000000000 PUSH1 0x20 DUP3 ADD MSTORE POP JUMP JUMPDEST PUSH0 PUSH2 0x960 PUSH1 0x32 DUP4 PUSH2 0x8F6 JUMP JUMPDEST SWAP2 POP PUSH2 0x96B DUP3 PUSH2 0x906 JUMP JUMPDEST PUSH1 0x40 DUP3 ADD SWAP1 POP SWAP2 SWAP1 POP JUMP JUMPDEST PUSH0 PUSH1 0x20 DUP3 ADD SWAP1 POP DUP2 DUP2 SUB PUSH0 DUP4 ADD MSTORE PUSH2 0x98D DUP2 PUSH2 0x954 JUMP JUMPDEST SWAP1 POP SWAP2 SWAP1 POP JUMP JUMPDEST PUSH0 PUSH1 0x40 MLOAD SWAP1 POP SWAP1 JUMP JUMPDEST PUSH0 DUP1 REVERT JUMPDEST PUSH0 DUP1 REVERT JUMPDEST PUSH0 DUP1 REVERT JUMPDEST PUSH0 PUSH1 0x1F NOT PUSH1 0x1F DUP4 ADD AND SWAP1 POP SWAP2 SWAP1 POP JUMP JUMPDEST PUSH32 0x4E487B7100000000000000000000000000000000000000000000000000000000 PUSH0 MSTORE PUSH1 0x41 PUSH1 0x4 MSTORE PUSH1 0x24 PUSH0 REVERT JUMPDEST PUSH2 0x9EF DUP3 PUSH2 0x9A9 JUMP JUMPDEST DUP2 ADD DUP2 DUP2 LT PUSH8 0xFFFFFFFFFFFFFFFF DUP3 GT OR ISZERO PUSH2 0xA0E JUMPI PUSH2 0xA0D PUSH2 0x9B9 JUMP JUMPDEST JUMPDEST DUP1 PUSH1 0x40 MSTORE POP POP POP JUMP JUMPDEST PUSH0 PUSH2 0xA20 PUSH2 0x994 JUMP JUMPDEST SWAP1 POP PUSH2 0xA2C DUP3 DUP3 PUSH2 0x9E6 JUMP JUMPDEST SWAP2 SWAP1 POP JUMP JUMPDEST PUSH0 PUSH8 0xFFFFFFFFFFFFFFFF DUP3 GT ISZERO PUSH2 0xA4B JUMPI PUSH2 0xA4A PUSH2 0x9B9 JUMP JUMPDEST JUMPDEST PUSH1 0x20 DUP3 MUL SWAP1 POP PUSH1 0x20 DUP2 ADD SWAP1 POP SWAP2 SWAP1 POP JUMP JUMPDEST PUSH0 DUP1 REVERT JUMPDEST PUSH2 0xA69 DUP2 PUSH2 0x7E7 JUMP JUMPDEST DUP2 EQ PUSH2 0xA73 JUMPI PUSH0 DUP1 REVERT JUMPDEST POP JUMP JUMPDEST PUSH0 DUP2 MLOAD SWAP1 POP PUSH2 0xA84 DUP2 PUSH2 0xA60 JUMP JUMPDEST SWAP3 SWAP2 POP POP JUMP JUMPDEST PUSH0 PUSH2 0xA9C PUSH2 0xA97 DUP5 PUSH2 0xA31 JUMP JUMPDEST PUSH2 0xA17 JUMP JUMPDEST SWAP1 POP DUP1 DUP4 DUP3 MSTORE PUSH1 0x20 DUP3 ADD SWAP1 POP PUSH1 0x20 DUP5 MUL DUP4 ADD DUP6 DUP2 GT ISZERO PUSH2 0xABF JUMPI PUSH2 0xABE PUSH2 0xA5C JUMP JUMPDEST JUMPDEST DUP4 JUMPDEST DUP2 DUP2 LT ISZERO PUSH2 0xAE8 JUMPI DUP1 PUSH2 0xAD4 DUP9 DUP3 PUSH2 0xA76 JUMP JUMPDEST DUP5 MSTORE PUSH1 0x20 DUP5 ADD SWAP4 POP POP PUSH1 0x20 DUP2 ADD SWAP1 POP PUSH2 0xAC1 JUMP JUMPDEST POP POP POP SWAP4 SWAP3 POP POP POP JUMP JUMPDEST PUSH0 DUP3 PUSH1 0x1F DUP4 ADD SLT PUSH2 0xB06 JUMPI PUSH2 0xB05 PUSH2 0x9A5 JUMP JUMPDEST JUMPDEST DUP2 MLOAD PUSH2 0xB16 DUP5 DUP3 PUSH1 0x20 DUP7 ADD PUSH2 0xA8A JUMP JUMPDEST SWAP2 POP POP SWAP3 SWAP2 POP POP JUMP JUMPDEST PUSH0 PUSH1 0x20 DUP3 DUP5 SUB SLT ISZERO PUSH2 0xB34 JUMPI PUSH2 0xB33 PUSH2 0x99D JUMP JUMPDEST JUMPDEST PUSH0 DUP3 ADD MLOAD PUSH8 0xFFFFFFFFFFFFFFFF DUP2 GT ISZERO PUSH2 0xB51 JUMPI PUSH2 0xB50 PUSH2 0x9A1 JUMP JUMPDEST JUMPDEST PUSH2 0xB5D DUP5 DUP3 DUP6 ADD PUSH2 0xAF2 JUMP JUMPDEST SWAP2 POP POP SWAP3 SWAP2 POP POP JUMP JUMPDEST PUSH32 0x4E487B7100000000000000000000000000000000000000000000000000000000 PUSH0 MSTORE PUSH1 0x32 PUSH1 0x4 MSTORE PUSH1 0x24 PUSH0 REVERT JUMPDEST PUSH2 0xB9C DUP2 PUSH2 0x7E7 JUMP JUMPDEST DUP3 MSTORE POP POP JUMP JUMPDEST PUSH0 PUSH1 0x20 DUP3 ADD SWAP1 POP PUSH2 0xBB5 PUSH0 DUP4 ADD DUP5 PUSH2 0xB93 JUMP JUMPDEST SWAP3 SWAP2 POP POP JUMP JUMPDEST PUSH0 DUP1 REVERT JUMPDEST PUSH0 DUP1 REVERT JUMPDEST PUSH0 PUSH8 0xFFFFFFFFFFFFFFFF DUP3 GT ISZERO PUSH2 0xBDD JUMPI PUSH2 0xBDC PUSH2 0x9B9 JUMP JUMPDEST JUMPDEST PUSH1 0x20 DUP3 MUL SWAP1 POP PUSH1 0x20 DUP2 ADD SWAP1 POP SWAP2 SWAP1 POP JUMP JUMPDEST PUSH0 DUP1 REVERT JUMPDEST PUSH0 PUSH8 0xFFFFFFFFFFFFFFFF DUP3 GT ISZERO PUSH2 0xC0C JUMPI PUSH2 0xC0B PUSH2 0x9B9 JUMP JUMPDEST JUMPDEST PUSH2 0xC15 DUP3 PUSH2 0x9A9 JUMP JUMPDEST SWAP1 POP PUSH1 0x20 DUP2 ADD SWAP1 POP SWAP2 SWAP1 POP JUMP JUMPDEST PUSH0 JUMPDEST DUP4 DUP2 LT ISZERO PUSH2 0xC3F JUMPI DUP1 DUP3 ADD MLOAD DUP2 DUP5 ADD MSTORE PUSH1 0x20 DUP2 ADD SWAP1 POP PUSH2 0xC24 JUMP JUMPDEST PUSH0 DUP5 DUP5 ADD MSTORE POP POP POP POP JUMP JUMPDEST PUSH0 PUSH2 0xC5C PUSH2 0xC57 DUP5 PUSH2 0xBF2 JUMP JUMPDEST PUSH2 0xA17 JUMP JUMPDEST SWAP1 POP DUP3 DUP2 MSTORE PUSH1 0x20 DUP2 ADD DUP5 DUP5 DUP5 ADD GT ISZERO PUSH2 0xC78 JUMPI PUSH2 0xC77 PUSH2 0xBEE JUMP JUMPDEST JUMPDEST PUSH2 0xC83 DUP5 DUP3 DUP6 PUSH2 0xC22 JUMP JUMPDEST POP SWAP4 SWAP3 POP POP POP JUMP JUMPDEST PUSH0 DUP3 PUSH1 0x1F DUP4 ADD SLT PUSH2 0xC9F JUMPI PUSH2 0xC9E PUSH2 0x9A5 JUMP JUMPDEST JUMPDEST DUP2 MLOAD PUSH2 0xCAF DUP5 DUP3 PUSH1 0x20 DUP7 ADD PUSH2 0xC4A JUMP JUMPDEST SWAP2 POP POP SWAP3 SWAP2 POP POP JUMP JUMPDEST PUSH0 PUSH2 0xCCA PUSH2 0xCC5 DUP5 PUSH2 0xBC3 JUMP JUMPDEST PUSH2 0xA17 JUMP JUMPDEST SWAP1 POP DUP1 DUP4 DUP3 MSTORE PUSH1 0x20 DUP3 ADD SWAP1 POP PUSH1 0x20 DUP5 MUL DUP4 ADD DUP6 DUP2 GT ISZERO PUSH2 0xCED JUMPI PUSH2 0xCEC PUSH2 0xA5C JUMP JUMPDEST JUMPDEST DUP4 JUMPDEST DUP2 DUP2 LT ISZERO PUSH2 0xD34 JUMPI DUP1 MLOAD PUSH8 0xFFFFFFFFFFFFFFFF DUP2 GT ISZERO PUSH2 0xD12 JUMPI PUSH2 0xD11 PUSH2 0x9A5 JUMP JUMPDEST JUMPDEST DUP1 DUP7 ADD PUSH2 0xD1F DUP10 DUP3 PUSH2 0xC8B JUMP JUMPDEST DUP6 MSTORE PUSH1 0x20 DUP6 ADD SWAP5 POP POP POP PUSH1 0x20 DUP2 ADD SWAP1 POP PUSH2 0xCEF JUMP JUMPDEST POP POP POP SWAP4 SWAP3 POP POP POP JUMP JUMPDEST PUSH0 DUP3 PUSH1 0x1F DUP4 ADD SLT PUSH2 0xD52 JUMPI PUSH2 0xD51 PUSH2 0x9A5 JUMP JUMPDEST JUMPDEST DUP2 MLOAD PUSH2 0xD62 DUP5 DUP3 PUSH1 0x20 DUP7 ADD PUSH2 0xCB8 JUMP JUMPDEST SWAP2 POP POP SWAP3 SWAP2 POP POP JUMP JUMPDEST PUSH0 PUSH8 0xFFFFFFFFFFFFFFFF DUP3 GT ISZERO PUSH2 0xD85 JUMPI PUSH2 0xD84 PUSH2 0x9B9 JUMP JUMPDEST JUMPDEST PUSH1 0x20 DUP3 MUL SWAP1 POP PUSH1 0x20 DUP2 ADD SWAP1 POP SWAP2 SWAP1 POP JUMP JUMPDEST PUSH0 DUP2 SWAP1 POP SWAP2 SWAP1 POP JUMP JUMPDEST PUSH2 0xDA8 DUP2 PUSH2 0xD96 JUMP JUMPDEST DUP2 EQ PUSH2 0xDB2 JUMPI PUSH0 DUP1 REVERT JUMPDEST POP JUMP JUMPDEST PUSH0 DUP2 MLOAD SWAP1 POP PUSH2 0xDC3 DUP2 PUSH2 0xD9F JUMP JUMPDEST SWAP3 SWAP2 POP POP JUMP JUMPDEST PUSH0 PUSH2 0xDDB PUSH2 0xDD6 DUP5 PUSH2 0xD6B JUMP JUMPDEST PUSH2 0xA17 JUMP JUMPDEST SWAP1 POP DUP1 DUP4 DUP3 MSTORE PUSH1 0x20 DUP3 ADD SWAP1 POP PUSH1 0x20 DUP5 MUL DUP4 ADD DUP6 DUP2 GT ISZERO PUSH2 0xDFE JUMPI PUSH2 0xDFD PUSH2 0xA5C JUMP JUMPDEST JUMPDEST DUP4 JUMPDEST DUP2 DUP2 LT ISZERO PUSH2 0xE27 JUMPI DUP1 PUSH2 0xE13 DUP9 DUP3 PUSH2 0xDB5 JUMP JUMPDEST DUP5 MSTORE PUSH1 0x20 DUP5 ADD SWAP4 POP POP PUSH1 0x20 DUP2 ADD SWAP1 POP PUSH2 0xE00 JUMP JUMPDEST POP POP POP SWAP4 SWAP3 POP POP POP JUMP JUMPDEST PUSH0 DUP3 PUSH1 0x1F DUP4 ADD SLT PUSH2 0xE45 JUMPI PUSH2 0xE44 PUSH2 0x9A5 JUMP JUMPDEST JUMPDEST DUP2 MLOAD PUSH2 0xE55 DUP5 DUP3 PUSH1 0x20 DUP7 ADD PUSH2 0xDC9 JUMP JUMPDEST SWAP2 POP POP SWAP3 SWAP2 POP POP JUMP JUMPDEST PUSH0 PUSH1 0xA0 DUP3 DUP5 SUB SLT ISZERO PUSH2 0xE73 JUMPI PUSH2 0xE72 PUSH2 0xBBB JUMP JUMPDEST JUMPDEST PUSH2 0xE7D PUSH1 0xA0 PUSH2 0xA17 JUMP JUMPDEST SWAP1 POP PUSH0 PUSH2 0xE8C DUP5 DUP3 DUP6 ADD PUSH2 0xA76 JUMP JUMPDEST PUSH0 DUP4 ADD MSTORE POP PUSH1 0x20 PUSH2 0xE9F DUP5 DUP3 DUP6 ADD PUSH2 0xA76 JUMP JUMPDEST PUSH1 0x20 DUP4 ADD MSTORE POP PUSH1 0x40 DUP3 ADD MLOAD PUSH8 0xFFFFFFFFFFFFFFFF DUP2 GT ISZERO PUSH2 0xEC3 JUMPI PUSH2 0xEC2 PUSH2 0xBBF JUMP JUMPDEST JUMPDEST PUSH2 0xECF DUP5 DUP3 DUP6 ADD PUSH2 0xD3E JUMP JUMPDEST PUSH1 0x40 DUP4 ADD MSTORE POP PUSH1 0x60 DUP3 ADD MLOAD PUSH8 0xFFFFFFFFFFFFFFFF DUP2 GT ISZERO PUSH2 0xEF3 JUMPI PUSH2 0xEF2 PUSH2 0xBBF JUMP JUMPDEST JUMPDEST PUSH2 0xEFF DUP5 DUP3 DUP6 ADD PUSH2 0xC8B JUMP JUMPDEST PUSH1 0x60 DUP4 ADD MSTORE POP PUSH1 0x80 DUP3 ADD MLOAD PUSH8 0xFFFFFFFFFFFFFFFF DUP2 GT ISZERO PUSH2 0xF23 JUMPI PUSH2 0xF22 PUSH2 0xBBF JUMP JUMPDEST JUMPDEST PUSH2 0xF2F DUP5 DUP3 DUP6 ADD PUSH2 0xE31 JUMP JUMPDEST PUSH1 0x80 DUP4 ADD MSTORE POP SWAP3 SWAP2 POP POP JUMP JUMPDEST PUSH0 PUSH1 0x20 DUP3 DUP5 SUB SLT ISZERO PUSH2 0xF50 JUMPI PUSH2 0xF4F PUSH2 0x99D JUMP JUMPDEST JUMPDEST PUSH0 DUP3 ADD MLOAD PUSH8 0xFFFFFFFFFFFFFFFF DUP2 GT ISZERO PUSH2 0xF6D JUMPI PUSH2 0xF6C PUSH2 0x9A1 JUMP JUMPDEST JUMPDEST PUSH2 0xF79 DUP5 DUP3 DUP6 ADD PUSH2 0xE5E JUMP JUMPDEST SWAP2 POP POP SWAP3 SWAP2 POP POP JUMP JUMPDEST PUSH2 0xF8B DUP2 PUSH2 0x8BD JUMP JUMPDEST DUP2 EQ PUSH2 0xF95 JUMPI PUSH0 DUP1 REVERT JUMPDEST POP JUMP JUMPDEST PUSH0 DUP2 MLOAD SWAP1 POP PUSH2 0xFA6 DUP2 PUSH2 0xF82 JUMP JUMPDEST SWAP3 SWAP2 POP POP JUMP JUMPDEST PUSH0 DUP2 ISZERO ISZERO SWAP1 POP SWAP2 SWAP1 POP JUMP JUMPDEST PUSH2 0xFC0 DUP2 PUSH2 0xFAC JUMP JUMPDEST DUP2 EQ PUSH2 0xFCA JUMPI PUSH0 DUP1 REVERT JUMPDEST POP JUMP JUMPDEST PUSH0 DUP2 MLOAD SWAP1 POP PUSH2 0xFDB DUP2 PUSH2 0xFB7 JUMP JUMPDEST SWAP3 SWAP2 POP POP JUMP JUMPDEST PUSH0 PUSH1 0x60 DUP3 DUP5 SUB SLT ISZERO PUSH2 0xFF6 JUMPI PUSH2 0xFF5 PUSH2 0xBBB JUMP JUMPDEST JUMPDEST PUSH2 0x1000 PUSH1 0x60 PUSH2 0xA17 JUMP JUMPDEST SWAP1 POP PUSH0 PUSH2 0x100F DUP5 DUP3 DUP6 ADD PUSH2 0xF98 JUMP JUMPDEST PUSH0 DUP4 ADD MSTORE POP PUSH1 0x20 PUSH2 0x1022 DUP5 DUP3 DUP6 ADD PUSH2 0xA76 JUMP JUMPDEST PUSH1 0x20 DUP4 ADD MSTORE POP PUSH1 0x40 PUSH2 0x1036 DUP5 DUP3 DUP6 ADD PUSH2 0xFCD JUMP JUMPDEST PUSH1 0x40 DUP4 ADD MSTORE POP SWAP3 SWAP2 POP POP JUMP JUMPDEST PUSH0 PUSH1 0x60 DUP3 DUP5 SUB SLT ISZERO PUSH2 0x1057 JUMPI PUSH2 0x1056 PUSH2 0x99D JUMP JUMPDEST JUMPDEST PUSH0 PUSH2 0x1064 DUP5 DUP3 DUP6 ADD PUSH2 0xFE1 JUMP JUMPDEST SWAP2 POP POP SWAP3 SWAP2 POP POP JUMP JUMPDEST PUSH0 PUSH1 0xC0 DUP3 DUP5 SUB SLT ISZERO PUSH2 0x1082 JUMPI PUSH2 0x1081 PUSH2 0xBBB JUMP JUMPDEST JUMPDEST PUSH2 0x108C PUSH1 0xC0 PUSH2 0xA17 JUMP JUMPDEST SWAP1 POP PUSH0 DUP3 ADD MLOAD PUSH8 0xFFFFFFFFFFFFFFFF DUP2 GT ISZERO PUSH2 0x10AB JUMPI PUSH2 0x10AA PUSH2 0xBBF JUMP JUMPDEST JUMPDEST PUSH2 0x10B7 DUP5 DUP3 DUP6 ADD PUSH2 0xC8B JUMP JUMPDEST PUSH0 DUP4 ADD MSTORE POP PUSH1 0x20 DUP3 ADD MLOAD PUSH8 0xFFFFFFFFFFFFFFFF DUP2 GT ISZERO PUSH2 0x10DA JUMPI PUSH2 0x10D9 PUSH2 0xBBF JUMP JUMPDEST JUMPDEST PUSH2 0x10E6 DUP5 DUP3 DUP6 ADD PUSH2 0xC8B JUMP JUMPDEST PUSH1 0x20 DUP4 ADD MSTORE POP PUSH1 0x40 PUSH2 0x10FA DUP5 DUP3 DUP6 ADD PUSH2 0xA76 JUMP JUMPDEST PUSH1 0x40 DUP4 ADD MSTORE POP PUSH1 0x60 DUP3 ADD MLOAD PUSH8 0xFFFFFFFFFFFFFFFF DUP2 GT ISZERO PUSH2 0x111E JUMPI PUSH2 0x111D PUSH2 0xBBF JUMP JUMPDEST JUMPDEST PUSH2 0x112A DUP5 DUP3 DUP6 ADD PUSH2 0xD3E JUMP JUMPDEST PUSH1 0x60 DUP4 ADD MSTORE POP PUSH1 0x80 DUP3 ADD MLOAD PUSH8 0xFFFFFFFFFFFFFFFF DUP2 GT ISZERO PUSH2 0x114E JUMPI PUSH2 0x114D PUSH2 0xBBF JUMP JUMPDEST JUMPDEST PUSH2 0x115A DUP5 DUP3 DUP6 ADD PUSH2 0xAF2 JUMP JUMPDEST PUSH1 0x80 DUP4 ADD MSTORE POP PUSH1 0xA0 DUP3 ADD MLOAD PUSH8 0xFFFFFFFFFFFFFFFF DUP2 GT ISZERO PUSH2 0x117E JUMPI PUSH2 0x117D PUSH2 0xBBF JUMP JUMPDEST JUMPDEST PUSH2 0x118A DUP5 DUP3 DUP6 ADD PUSH2 0xE31 JUMP JUMPDEST PUSH1 0xA0 DUP4 ADD MSTORE POP SWAP3 SWAP2 POP POP JUMP JUMPDEST PUSH0 PUSH1 0x20 DUP3 DUP5 SUB SLT ISZERO PUSH2 0x11AB JUMPI PUSH2 0x11AA PUSH2 0x99D JUMP JUMPDEST JUMPDEST PUSH0 DUP3 ADD MLOAD PUSH8 0xFFFFFFFFFFFFFFFF DUP2 GT ISZERO PUSH2 0x11C8 JUMPI PUSH2 0x11C7 PUSH2 0x9A1 JUMP JUMPDEST JUMPDEST PUSH2 0x11D4 DUP5 DUP3 DUP6 ADD PUSH2 0x106D JUMP JUMPDEST SWAP2 POP POP SWAP3 SWAP2 POP POP JUMP JUMPDEST PUSH0 DUP2 MLOAD SWAP1 POP SWAP2 SWAP1 POP JUMP JUMPDEST PUSH0 DUP2 SWAP1 POP SWAP3 SWAP2 POP POP JUMP JUMPDEST PUSH0 PUSH2 0x11FB DUP3 PUSH2 0x11DD JUMP JUMPDEST PUSH2 0x1205 DUP2 DUP6 PUSH2 0x11E7 JUMP JUMPDEST SWAP4 POP PUSH2 0x1215 DUP2 DUP6 PUSH1 0x20 DUP7 ADD PUSH2 0xC22 JUMP JUMPDEST DUP1 DUP5 ADD SWAP2 POP POP SWAP3 SWAP2 POP POP JUMP JUMPDEST PUSH0 PUSH2 0x122C DUP3 DUP5 PUSH2 0x11F1 JUMP JUMPDEST SWAP2 POP DUP2 SWAP1 POP SWAP3 SWAP2 POP POP JUMP JUMPDEST PUSH0 PUSH1 0x20 DUP3 DUP5 SUB SLT ISZERO PUSH2 0x124C JUMPI PUSH2 0x124B PUSH2 0x99D JUMP JUMPDEST JUMPDEST PUSH0 PUSH2 0x1259 DUP5 DUP3 DUP6 ADD PUSH2 0xDB5 JUMP JUMPDEST SWAP2 POP POP SWAP3 SWAP2 POP POP JUMP JUMPDEST PUSH32 0x76696F6C61746F7220697320656D707479000000000000000000000000000000 PUSH0 DUP3 ADD MSTORE POP JUMP JUMPDEST PUSH0 PUSH2 0x1296 PUSH1 0x11 DUP4 PUSH2 0x8F6 JUMP JUMPDEST SWAP2 POP PUSH2 0x12A1 DUP3 PUSH2 0x1262 JUMP JUMPDEST PUSH1 0x20 DUP3 ADD SWAP1 POP SWAP2 SWAP1 POP JUMP JUMPDEST PUSH0 PUSH1 0x20 DUP3 ADD SWAP1 POP DUP2 DUP2 SUB PUSH0 DUP4 ADD MSTORE PUSH2 0x12C3 DUP2 PUSH2 0x128A JUMP JUMPDEST SWAP1 POP SWAP2 SWAP1 POP JUMP INVALID LOG2 PUSH5 0x6970667358 0x22 SLT KECCAK256 0x4B CALLCODE CREATE2 ADD 0x2B CALLDATACOPY SWAP9 DUP9 BLOBHASH 0xAF 0xC1 0xDF 0xC4 0xE1 0xBF SWAP11 0xA5 0xB4 ISZERO 0xF9 0xDA 0xD0 DUP13 PUSH28 0x7F78DFDA4EE5198C64736F6C63430008180033000000000000000000 "
		},
		"gasEstimates": {
			"creation": {
				"codeDepositCost": "972800",
				"executionCost": "infinite",
				"totalCost": "infinite"
			},
			"external": {
				"getViolators()": "infinite",
				"owner()": "2527",
				"verifyCompliance()": "infinite"
			}
		},
		"methodIdentifiers": {
			"getViolators()": "7fe18814",
			"owner()": "8da5cb5b",
			"verifyCompliance()": "0ac2db42"
		}
	},
	"abi": [
		{
			"inputs": [
				{
					"internalType": "address",
					"name": "_dataUsageSmartContractAddress",
					"type": "address"
				},
				{
					"internalType": "address",
					"name": "_agreementSmartContractAddress",
					"type": "address"
				},
				{
					"internalType": "address",
					"name": "_logSmartContractAddress",
					"type": "address"
				}
			],
			"stateMutability": "nonpayable",
			"type": "constructor"
		},
		{
			"anonymous": false,
			"inputs": [
				{
					"indexed": true,
					"internalType": "address",
					"name": "_actor",
					"type": "address"
				},
				{
					"indexed": false,
					"internalType": "string",
					"name": "_serviceName",
					"type": "string"
				},
				{
					"indexed": false,
					"internalType": "string",
					"name": "_servicePurpose",
					"type": "string"
				},
				{
					"indexed": false,
					"internalType": "string",
					"name": "_violationMessage",
					"type": "string"
				}
			],
			"name": "ActorFlaggedAsViolator",
			"type": "event"
		},
		{
			"inputs": [],
			"name": "getViolators",
			"outputs": [
				{
					"internalType": "uint256[]",
					"name": "",
					"type": "uint256[]"
				}
			],
			"stateMutability": "view",
			"type": "function"
		},
		{
			"inputs": [],
			"name": "owner",
			"outputs": [
				{
					"internalType": "address",
					"name": "",
					"type": "address"
				}
			],
			"stateMutability": "view",
			"type": "function"
		},
		{
			"inputs": [],
			"name": "verifyCompliance",
			"outputs": [],
			"stateMutability": "nonpayable",
			"type": "function"
		}
	]
}